{
	"contents/Battle.sol": {
		"Battle": {
			"abi": [
				{
					"inputs": [
						{
							"internalType": "address",
							"name": "initialOwner",
							"type": "address"
						},
						{
							"internalType": "address",
							"name": "_dragonContract",
							"type": "address"
						},
						{
							"internalType": "address",
							"name": "_questContract",
							"type": "address"
						},
						{
							"internalType": "address",
							"name": "_drinkContract",
							"type": "address"
						}
					],
					"stateMutability": "nonpayable",
					"type": "constructor"
				},
				{
					"inputs": [
						{
							"internalType": "address",
							"name": "owner",
							"type": "address"
						}
					],
					"name": "OwnableInvalidOwner",
					"type": "error"
				},
				{
					"inputs": [
						{
							"internalType": "address",
							"name": "account",
							"type": "address"
						}
					],
					"name": "OwnableUnauthorizedAccount",
					"type": "error"
				},
				{
					"anonymous": false,
					"inputs": [
						{
							"indexed": true,
							"internalType": "address",
							"name": "previousOwner",
							"type": "address"
						},
						{
							"indexed": true,
							"internalType": "address",
							"name": "newOwner",
							"type": "address"
						}
					],
					"name": "OwnershipTransferred",
					"type": "event"
				},
				{
					"inputs": [
						{
							"internalType": "uint256",
							"name": "count",
							"type": "uint256"
						}
					],
					"name": "addDummy",
					"outputs": [],
					"stateMutability": "nonpayable",
					"type": "function"
				},
				{
					"inputs": [
						{
							"internalType": "uint256",
							"name": "tokenId",
							"type": "uint256"
						}
					],
					"name": "battle",
					"outputs": [],
					"stateMutability": "nonpayable",
					"type": "function"
				},
				{
					"inputs": [],
					"name": "battleReward",
					"outputs": [
						{
							"internalType": "uint256",
							"name": "",
							"type": "uint256"
						}
					],
					"stateMutability": "view",
					"type": "function"
				},
				{
					"inputs": [
						{
							"internalType": "address",
							"name": "",
							"type": "address"
						}
					],
					"name": "dailyBattleCount",
					"outputs": [
						{
							"internalType": "uint256",
							"name": "",
							"type": "uint256"
						}
					],
					"stateMutability": "view",
					"type": "function"
				},
				{
					"inputs": [],
					"name": "dailyBattleLimit",
					"outputs": [
						{
							"internalType": "uint256",
							"name": "",
							"type": "uint256"
						}
					],
					"stateMutability": "view",
					"type": "function"
				},
				{
					"inputs": [],
					"name": "deleteDummy",
					"outputs": [],
					"stateMutability": "nonpayable",
					"type": "function"
				},
				{
					"inputs": [],
					"name": "dragonContract",
					"outputs": [
						{
							"internalType": "contract IToken",
							"name": "",
							"type": "address"
						}
					],
					"stateMutability": "view",
					"type": "function"
				},
				{
					"inputs": [],
					"name": "drinkContract",
					"outputs": [
						{
							"internalType": "contract IDragonDrink",
							"name": "",
							"type": "address"
						}
					],
					"stateMutability": "view",
					"type": "function"
				},
				{
					"inputs": [
						{
							"internalType": "uint256",
							"name": "tokenId",
							"type": "uint256"
						}
					],
					"name": "getBattleRecord",
					"outputs": [
						{
							"components": [
								{
									"internalType": "uint256",
									"name": "win",
									"type": "uint256"
								},
								{
									"internalType": "uint256",
									"name": "lose",
									"type": "uint256"
								}
							],
							"internalType": "struct Battle.BattleRecord",
							"name": "",
							"type": "tuple"
						}
					],
					"stateMutability": "view",
					"type": "function"
				},
				{
					"inputs": [
						{
							"internalType": "uint256",
							"name": "tokenId",
							"type": "uint256"
						}
					],
					"name": "getDragonStatus",
					"outputs": [
						{
							"components": [
								{
									"internalType": "uint256",
									"name": "tokenId",
									"type": "uint256"
								},
								{
									"internalType": "uint256",
									"name": "attack",
									"type": "uint256"
								},
								{
									"internalType": "uint256",
									"name": "defense",
									"type": "uint256"
								},
								{
									"internalType": "uint256",
									"name": "health",
									"type": "uint256"
								}
							],
							"internalType": "struct Battle.Dragon",
							"name": "",
							"type": "tuple"
						}
					],
					"stateMutability": "view",
					"type": "function"
				},
				{
					"inputs": [
						{
							"internalType": "address",
							"name": "player",
							"type": "address"
						}
					],
					"name": "getPlayerRecords",
					"outputs": [
						{
							"components": [
								{
									"internalType": "uint256",
									"name": "win",
									"type": "uint256"
								},
								{
									"internalType": "uint256",
									"name": "lose",
									"type": "uint256"
								}
							],
							"internalType": "struct Battle.BattleRecord",
							"name": "",
							"type": "tuple"
						}
					],
					"stateMutability": "view",
					"type": "function"
				},
				{
					"inputs": [
						{
							"internalType": "address",
							"name": "",
							"type": "address"
						}
					],
					"name": "lastBattleTime",
					"outputs": [
						{
							"internalType": "uint256",
							"name": "",
							"type": "uint256"
						}
					],
					"stateMutability": "view",
					"type": "function"
				},
				{
					"inputs": [],
					"name": "owner",
					"outputs": [
						{
							"internalType": "address",
							"name": "",
							"type": "address"
						}
					],
					"stateMutability": "view",
					"type": "function"
				},
				{
					"inputs": [],
					"name": "questContract",
					"outputs": [
						{
							"internalType": "contract IQuest",
							"name": "",
							"type": "address"
						}
					],
					"stateMutability": "view",
					"type": "function"
				},
				{
					"inputs": [
						{
							"internalType": "uint256",
							"name": "tokenId",
							"type": "uint256"
						}
					],
					"name": "regiBattle",
					"outputs": [],
					"stateMutability": "nonpayable",
					"type": "function"
				},
				{
					"inputs": [],
					"name": "renounceOwnership",
					"outputs": [],
					"stateMutability": "nonpayable",
					"type": "function"
				},
				{
					"inputs": [
						{
							"internalType": "uint256",
							"name": "limit",
							"type": "uint256"
						}
					],
					"name": "setDailyBattleLimit",
					"outputs": [],
					"stateMutability": "nonpayable",
					"type": "function"
				},
				{
					"inputs": [],
					"name": "today",
					"outputs": [
						{
							"internalType": "uint256",
							"name": "",
							"type": "uint256"
						}
					],
					"stateMutability": "view",
					"type": "function"
				},
				{
					"inputs": [
						{
							"internalType": "address",
							"name": "newOwner",
							"type": "address"
						}
					],
					"name": "transferOwnership",
					"outputs": [],
					"stateMutability": "nonpayable",
					"type": "function"
				},
				{
					"inputs": [
						{
							"internalType": "uint256",
							"name": "tokenId",
							"type": "uint256"
						}
					],
					"name": "unregiBattle",
					"outputs": [],
					"stateMutability": "nonpayable",
					"type": "function"
				},
				{
					"inputs": [
						{
							"internalType": "uint256",
							"name": "tokenId",
							"type": "uint256"
						}
					],
					"name": "upgradeDragon",
					"outputs": [],
					"stateMutability": "nonpayable",
					"type": "function"
				},
				{
					"inputs": [],
					"name": "upgradePrice",
					"outputs": [
						{
							"internalType": "uint256",
							"name": "",
							"type": "uint256"
						}
					],
					"stateMutability": "view",
					"type": "function"
				}
			],
			"devdoc": {
				"errors": {
					"OwnableInvalidOwner(address)": [
						{
							"details": "The owner is not a valid owner account. (eg. `address(0)`)"
						}
					],
					"OwnableUnauthorizedAccount(address)": [
						{
							"details": "The caller account is not authorized to perform an operation."
						}
					]
				},
				"kind": "dev",
				"methods": {
					"owner()": {
						"details": "Returns the address of the current owner."
					},
					"renounceOwnership()": {
						"details": "Leaves the contract without owner. It will not be possible to call `onlyOwner` functions. Can only be called by the current owner. NOTE: Renouncing ownership will leave the contract without an owner, thereby disabling any functionality that is only available to the owner."
					},
					"transferOwnership(address)": {
						"details": "Transfers ownership of the contract to a new account (`newOwner`). Can only be called by the current owner."
					}
				},
				"version": 1
			},
			"evm": {
				"assembly": "    /* \"contents/Battle.sol\":231:8869  contract Battle is Ownable{... */\n  mstore(0x40, 0x80)\n    /* \"contents/Battle.sol\":1027:1030  300 */\n  0x012c\n    /* \"contents/Battle.sol\":997:1030  uint256 public upgradePrice = 300 */\n  0x0c\n  sstore\n    /* \"contents/Battle.sol\":1067:1069  10 */\n  0x0a\n    /* \"contents/Battle.sol\":1037:1069  uint256 public battleReward = 10 */\n  0x0d\n  sstore\n    /* \"contents/Battle.sol\":1110:1111  3 */\n  0x03\n    /* \"contents/Battle.sol\":1076:1111  uint256 public dailyBattleLimit = 3 */\n  0x0e\n  sstore\n    /* \"contents/Battle.sol\":1120:1461  constructor(... */\n  callvalue\n  dup1\n  iszero\n  tag_1\n  jumpi\n  0x00\n  dup1\n  revert\ntag_1:\n  pop\n  mload(0x40)\n  sub(codesize, bytecodeSize)\n  dup1\n  bytecodeSize\n  dup4\n  codecopy\n  dup2\n  dup2\n  add\n  0x40\n  mstore\n  dup2\n  add\n  swap1\n  tag_2\n  swap2\n  swap1\n  tag_3\n  jump\t// in\ntag_2:\n    /* \"contents/Battle.sol\":1285:1297  initialOwner */\n  dup4\n    /* \"@openzeppelin/contracts/access/Ownable.sol\":1297:1298  0 */\n  0x00\n    /* \"@openzeppelin/contracts/access/Ownable.sol\":1273:1299  initialOwner == address(0) */\n  0xffffffffffffffffffffffffffffffffffffffff\n  and\n    /* \"@openzeppelin/contracts/access/Ownable.sol\":1273:1285  initialOwner */\n  dup2\n    /* \"@openzeppelin/contracts/access/Ownable.sol\":1273:1299  initialOwner == address(0) */\n  0xffffffffffffffffffffffffffffffffffffffff\n  and\n  sub\n    /* \"@openzeppelin/contracts/access/Ownable.sol\":1269:1364  if (initialOwner == address(0)) {... */\n  tag_7\n  jumpi\n    /* \"@openzeppelin/contracts/access/Ownable.sol\":1350:1351  0 */\n  0x00\n    /* \"@openzeppelin/contracts/access/Ownable.sol\":1322:1353  OwnableInvalidOwner(address(0)) */\n  mload(0x40)\n  0x1e4fbdf700000000000000000000000000000000000000000000000000000000\n  dup2\n  mstore\n  0x04\n  add\n  tag_8\n  swap2\n  swap1\n  tag_9\n  jump\t// in\ntag_8:\n  mload(0x40)\n  dup1\n  swap2\n  sub\n  swap1\n  revert\n    /* \"@openzeppelin/contracts/access/Ownable.sol\":1269:1364  if (initialOwner == address(0)) {... */\ntag_7:\n    /* \"@openzeppelin/contracts/access/Ownable.sol\":1373:1405  _transferOwnership(initialOwner) */\n  tag_10\n    /* \"@openzeppelin/contracts/access/Ownable.sol\":1392:1404  initialOwner */\n  dup2\n    /* \"@openzeppelin/contracts/access/Ownable.sol\":1373:1391  _transferOwnership */\n  shl(0x20, tag_11)\n    /* \"@openzeppelin/contracts/access/Ownable.sol\":1373:1405  _transferOwnership(initialOwner) */\n  0x20\n  shr\n  jump\t// in\ntag_10:\n    /* \"@openzeppelin/contracts/access/Ownable.sol\":1225:1412  constructor(address initialOwner) {... */\n  pop\n    /* \"contents/Battle.sol\":1333:1348  _dragonContract */\n  dup3\n    /* \"contents/Battle.sol\":1309:1323  dragonContract */\n  0x01\n  0x00\n    /* \"contents/Battle.sol\":1309:1349  dragonContract = IToken(_dragonContract) */\n  0x0100\n  exp\n  dup2\n  sload\n  dup2\n  0xffffffffffffffffffffffffffffffffffffffff\n  mul\n  not\n  and\n  swap1\n  dup4\n  0xffffffffffffffffffffffffffffffffffffffff\n  and\n  mul\n  or\n  swap1\n  sstore\n  pop\n    /* \"contents/Battle.sol\":1383:1397  _questContract */\n  dup2\n    /* \"contents/Battle.sol\":1360:1373  questContract */\n  0x02\n  0x00\n    /* \"contents/Battle.sol\":1360:1398  questContract = IQuest(_questContract) */\n  0x0100\n  exp\n  dup2\n  sload\n  dup2\n  0xffffffffffffffffffffffffffffffffffffffff\n  mul\n  not\n  and\n  swap1\n  dup4\n  0xffffffffffffffffffffffffffffffffffffffff\n  and\n  mul\n  or\n  swap1\n  sstore\n  pop\n    /* \"contents/Battle.sol\":1438:1452  _drinkContract */\n  dup1\n    /* \"contents/Battle.sol\":1409:1422  drinkContract */\n  0x03\n  0x00\n    /* \"contents/Battle.sol\":1409:1453  drinkContract = IDragonDrink(_drinkContract) */\n  0x0100\n  exp\n  dup2\n  sload\n  dup2\n  0xffffffffffffffffffffffffffffffffffffffff\n  mul\n  not\n  and\n  swap1\n  dup4\n  0xffffffffffffffffffffffffffffffffffffffff\n  and\n  mul\n  or\n  swap1\n  sstore\n  pop\n    /* \"contents/Battle.sol\":1120:1461  constructor(... */\n  pop\n  pop\n  pop\n  pop\n    /* \"contents/Battle.sol\":231:8869  contract Battle is Ownable{... */\n  jump(tag_13)\n    /* \"@openzeppelin/contracts/access/Ownable.sol\":2912:3099  function _transferOwnership(address newOwner) internal virtual {... */\ntag_11:\n    /* \"@openzeppelin/contracts/access/Ownable.sol\":2985:3001  address oldOwner */\n  0x00\n    /* \"@openzeppelin/contracts/access/Ownable.sol\":3004:3010  _owner */\n  dup1\n  0x00\n  swap1\n  sload\n  swap1\n  0x0100\n  exp\n  swap1\n  div\n  0xffffffffffffffffffffffffffffffffffffffff\n  and\n    /* \"@openzeppelin/contracts/access/Ownable.sol\":2985:3010  address oldOwner = _owner */\n  swap1\n  pop\n    /* \"@openzeppelin/contracts/access/Ownable.sol\":3029:3037  newOwner */\n  dup2\n    /* \"@openzeppelin/contracts/access/Ownable.sol\":3020:3026  _owner */\n  0x00\n  dup1\n    /* \"@openzeppelin/contracts/access/Ownable.sol\":3020:3037  _owner = newOwner */\n  0x0100\n  exp\n  dup2\n  sload\n  dup2\n  0xffffffffffffffffffffffffffffffffffffffff\n  mul\n  not\n  and\n  swap1\n  dup4\n  0xffffffffffffffffffffffffffffffffffffffff\n  and\n  mul\n  or\n  swap1\n  sstore\n  pop\n    /* \"@openzeppelin/contracts/access/Ownable.sol\":3083:3091  newOwner */\n  dup2\n    /* \"@openzeppelin/contracts/access/Ownable.sol\":3052:3092  OwnershipTransferred(oldOwner, newOwner) */\n  0xffffffffffffffffffffffffffffffffffffffff\n  and\n    /* \"@openzeppelin/contracts/access/Ownable.sol\":3073:3081  oldOwner */\n  dup2\n    /* \"@openzeppelin/contracts/access/Ownable.sol\":3052:3092  OwnershipTransferred(oldOwner, newOwner) */\n  0xffffffffffffffffffffffffffffffffffffffff\n  and\n  0x8be0079c531659141344cd1fd0a4f28419497f9722a3daafe3b4186f6b6457e0\n  mload(0x40)\n  mload(0x40)\n  dup1\n  swap2\n  sub\n  swap1\n  log3\n    /* \"@openzeppelin/contracts/access/Ownable.sol\":2975:3099  {... */\n  pop\n    /* \"@openzeppelin/contracts/access/Ownable.sol\":2912:3099  function _transferOwnership(address newOwner) internal virtual {... */\n  pop\n  jump\t// out\n    /* \"#utility.yul\":88:205   */\ntag_16:\n    /* \"#utility.yul\":197:198   */\n  0x00\n    /* \"#utility.yul\":194:195   */\n  dup1\n    /* \"#utility.yul\":187:199   */\n  revert\n    /* \"#utility.yul\":334:460   */\ntag_18:\n    /* \"#utility.yul\":371:378   */\n  0x00\n    /* \"#utility.yul\":411:453   */\n  0xffffffffffffffffffffffffffffffffffffffff\n    /* \"#utility.yul\":404:409   */\n  dup3\n    /* \"#utility.yul\":400:454   */\n  and\n    /* \"#utility.yul\":389:454   */\n  swap1\n  pop\n    /* \"#utility.yul\":334:460   */\n  swap2\n  swap1\n  pop\n  jump\t// out\n    /* \"#utility.yul\":466:562   */\ntag_19:\n    /* \"#utility.yul\":503:510   */\n  0x00\n    /* \"#utility.yul\":532:556   */\n  tag_29\n    /* \"#utility.yul\":550:555   */\n  dup3\n    /* \"#utility.yul\":532:556   */\n  tag_18\n  jump\t// in\ntag_29:\n    /* \"#utility.yul\":521:556   */\n  swap1\n  pop\n    /* \"#utility.yul\":466:562   */\n  swap2\n  swap1\n  pop\n  jump\t// out\n    /* \"#utility.yul\":568:690   */\ntag_20:\n    /* \"#utility.yul\":641:665   */\n  tag_31\n    /* \"#utility.yul\":659:664   */\n  dup2\n    /* \"#utility.yul\":641:665   */\n  tag_19\n  jump\t// in\ntag_31:\n    /* \"#utility.yul\":634:639   */\n  dup2\n    /* \"#utility.yul\":631:666   */\n  eq\n    /* \"#utility.yul\":621:684   */\n  tag_32\n  jumpi\n    /* \"#utility.yul\":680:681   */\n  0x00\n    /* \"#utility.yul\":677:678   */\n  dup1\n    /* \"#utility.yul\":670:682   */\n  revert\n    /* \"#utility.yul\":621:684   */\ntag_32:\n    /* \"#utility.yul\":568:690   */\n  pop\n  jump\t// out\n    /* \"#utility.yul\":696:839   */\ntag_21:\n    /* \"#utility.yul\":753:758   */\n  0x00\n    /* \"#utility.yul\":784:790   */\n  dup2\n    /* \"#utility.yul\":778:791   */\n  mload\n    /* \"#utility.yul\":769:791   */\n  swap1\n  pop\n    /* \"#utility.yul\":800:833   */\n  tag_34\n    /* \"#utility.yul\":827:832   */\n  dup2\n    /* \"#utility.yul\":800:833   */\n  tag_20\n  jump\t// in\ntag_34:\n    /* \"#utility.yul\":696:839   */\n  swap3\n  swap2\n  pop\n  pop\n  jump\t// out\n    /* \"#utility.yul\":845:1665   */\ntag_3:\n    /* \"#utility.yul\":942:948   */\n  0x00\n    /* \"#utility.yul\":950:956   */\n  dup1\n    /* \"#utility.yul\":958:964   */\n  0x00\n    /* \"#utility.yul\":966:972   */\n  dup1\n    /* \"#utility.yul\":1015:1018   */\n  0x80\n    /* \"#utility.yul\":1003:1012   */\n  dup6\n    /* \"#utility.yul\":994:1001   */\n  dup8\n    /* \"#utility.yul\":990:1013   */\n  sub\n    /* \"#utility.yul\":986:1019   */\n  slt\n    /* \"#utility.yul\":983:1103   */\n  iszero\n  tag_36\n  jumpi\n    /* \"#utility.yul\":1022:1101   */\n  tag_37\n  tag_16\n  jump\t// in\ntag_37:\n    /* \"#utility.yul\":983:1103   */\ntag_36:\n    /* \"#utility.yul\":1142:1143   */\n  0x00\n    /* \"#utility.yul\":1167:1231   */\n  tag_38\n    /* \"#utility.yul\":1223:1230   */\n  dup8\n    /* \"#utility.yul\":1214:1220   */\n  dup3\n    /* \"#utility.yul\":1203:1212   */\n  dup9\n    /* \"#utility.yul\":1199:1221   */\n  add\n    /* \"#utility.yul\":1167:1231   */\n  tag_21\n  jump\t// in\ntag_38:\n    /* \"#utility.yul\":1157:1231   */\n  swap5\n  pop\n    /* \"#utility.yul\":1113:1241   */\n  pop\n    /* \"#utility.yul\":1280:1282   */\n  0x20\n    /* \"#utility.yul\":1306:1370   */\n  tag_39\n    /* \"#utility.yul\":1362:1369   */\n  dup8\n    /* \"#utility.yul\":1353:1359   */\n  dup3\n    /* \"#utility.yul\":1342:1351   */\n  dup9\n    /* \"#utility.yul\":1338:1360   */\n  add\n    /* \"#utility.yul\":1306:1370   */\n  tag_21\n  jump\t// in\ntag_39:\n    /* \"#utility.yul\":1296:1370   */\n  swap4\n  pop\n    /* \"#utility.yul\":1251:1380   */\n  pop\n    /* \"#utility.yul\":1419:1421   */\n  0x40\n    /* \"#utility.yul\":1445:1509   */\n  tag_40\n    /* \"#utility.yul\":1501:1508   */\n  dup8\n    /* \"#utility.yul\":1492:1498   */\n  dup3\n    /* \"#utility.yul\":1481:1490   */\n  dup9\n    /* \"#utility.yul\":1477:1499   */\n  add\n    /* \"#utility.yul\":1445:1509   */\n  tag_21\n  jump\t// in\ntag_40:\n    /* \"#utility.yul\":1435:1509   */\n  swap3\n  pop\n    /* \"#utility.yul\":1390:1519   */\n  pop\n    /* \"#utility.yul\":1558:1560   */\n  0x60\n    /* \"#utility.yul\":1584:1648   */\n  tag_41\n    /* \"#utility.yul\":1640:1647   */\n  dup8\n    /* \"#utility.yul\":1631:1637   */\n  dup3\n    /* \"#utility.yul\":1620:1629   */\n  dup9\n    /* \"#utility.yul\":1616:1638   */\n  add\n    /* \"#utility.yul\":1584:1648   */\n  tag_21\n  jump\t// in\ntag_41:\n    /* \"#utility.yul\":1574:1648   */\n  swap2\n  pop\n    /* \"#utility.yul\":1529:1658   */\n  pop\n    /* \"#utility.yul\":845:1665   */\n  swap3\n  swap6\n  swap2\n  swap5\n  pop\n  swap3\n  pop\n  jump\t// out\n    /* \"#utility.yul\":1671:1789   */\ntag_22:\n    /* \"#utility.yul\":1758:1782   */\n  tag_43\n    /* \"#utility.yul\":1776:1781   */\n  dup2\n    /* \"#utility.yul\":1758:1782   */\n  tag_19\n  jump\t// in\ntag_43:\n    /* \"#utility.yul\":1753:1756   */\n  dup3\n    /* \"#utility.yul\":1746:1783   */\n  mstore\n    /* \"#utility.yul\":1671:1789   */\n  pop\n  pop\n  jump\t// out\n    /* \"#utility.yul\":1795:2017   */\ntag_9:\n    /* \"#utility.yul\":1888:1892   */\n  0x00\n    /* \"#utility.yul\":1926:1928   */\n  0x20\n    /* \"#utility.yul\":1915:1924   */\n  dup3\n    /* \"#utility.yul\":1911:1929   */\n  add\n    /* \"#utility.yul\":1903:1929   */\n  swap1\n  pop\n    /* \"#utility.yul\":1939:2010   */\n  tag_45\n    /* \"#utility.yul\":2007:2008   */\n  0x00\n    /* \"#utility.yul\":1996:2005   */\n  dup4\n    /* \"#utility.yul\":1992:2009   */\n  add\n    /* \"#utility.yul\":1983:1989   */\n  dup5\n    /* \"#utility.yul\":1939:2010   */\n  tag_22\n  jump\t// in\ntag_45:\n    /* \"#utility.yul\":1795:2017   */\n  swap3\n  swap2\n  pop\n  pop\n  jump\t// out\n    /* \"contents/Battle.sol\":231:8869  contract Battle is Ownable{... */\ntag_13:\n  dataSize(sub_0)\n  dup1\n  dataOffset(sub_0)\n  0x00\n  codecopy\n  0x00\n  return\nstop\n\nsub_0: assembly {\n        /* \"contents/Battle.sol\":231:8869  contract Battle is Ownable{... */\n      mstore(0x40, 0x80)\n      callvalue\n      dup1\n      iszero\n      tag_1\n      jumpi\n      0x00\n      dup1\n      revert\n    tag_1:\n      pop\n      jumpi(tag_2, lt(calldatasize, 0x04))\n      shr(0xe0, calldataload(0x00))\n      dup1\n      0x8da5cb5b\n      gt\n      tag_25\n      jumpi\n      dup1\n      0xc9f4b515\n      gt\n      tag_26\n      jumpi\n      dup1\n      0xc9f4b515\n      eq\n      tag_19\n      jumpi\n      dup1\n      0xcdb6b4f4\n      eq\n      tag_20\n      jumpi\n      dup1\n      0xd1c6839f\n      eq\n      tag_21\n      jumpi\n      dup1\n      0xe98da9ad\n      eq\n      tag_22\n      jumpi\n      dup1\n      0xf2fde38b\n      eq\n      tag_23\n      jumpi\n      dup1\n      0xfbc1274d\n      eq\n      tag_24\n      jumpi\n      jump(tag_2)\n    tag_26:\n      dup1\n      0x8da5cb5b\n      eq\n      tag_14\n      jumpi\n      dup1\n      0x9711dc38\n      eq\n      tag_15\n      jumpi\n      dup1\n      0x9e84477d\n      eq\n      tag_16\n      jumpi\n      dup1\n      0xb74e452b\n      eq\n      tag_17\n      jumpi\n      dup1\n      0xba3c1e4b\n      eq\n      tag_18\n      jumpi\n      jump(tag_2)\n    tag_25:\n      dup1\n      0x53a653eb\n      gt\n      tag_27\n      jumpi\n      dup1\n      0x53a653eb\n      eq\n      tag_8\n      jumpi\n      dup1\n      0x593c8253\n      eq\n      tag_9\n      jumpi\n      dup1\n      0x5d6de796\n      eq\n      tag_10\n      jumpi\n      dup1\n      0x68b42e60\n      eq\n      tag_11\n      jumpi\n      dup1\n      0x6a6940cc\n      eq\n      tag_12\n      jumpi\n      dup1\n      0x715018a6\n      eq\n      tag_13\n      jumpi\n      jump(tag_2)\n    tag_27:\n      dup1\n      0x1f19565d\n      eq\n      tag_3\n      jumpi\n      dup1\n      0x245b1187\n      eq\n      tag_4\n      jumpi\n      dup1\n      0x287ad39f\n      eq\n      tag_5\n      jumpi\n      dup1\n      0x2d0efac7\n      eq\n      tag_6\n      jumpi\n      dup1\n      0x4d6c423c\n      eq\n      tag_7\n      jumpi\n    tag_2:\n      0x00\n      dup1\n      revert\n        /* \"contents/Battle.sol\":821:870  mapping(address => uint256) public lastBattleTime */\n    tag_3:\n      tag_28\n      0x04\n      dup1\n      calldatasize\n      sub\n      dup2\n      add\n      swap1\n      tag_29\n      swap2\n      swap1\n      tag_30\n      jump\t// in\n    tag_29:\n      tag_31\n      jump\t// in\n    tag_28:\n      mload(0x40)\n      tag_32\n      swap2\n      swap1\n      tag_33\n      jump\t// in\n    tag_32:\n      mload(0x40)\n      dup1\n      swap2\n      sub\n      swap1\n      return\n        /* \"contents/Battle.sol\":763:814  mapping(address => uint256) public dailyBattleCount */\n    tag_4:\n      tag_34\n      0x04\n      dup1\n      calldatasize\n      sub\n      dup2\n      add\n      swap1\n      tag_35\n      swap2\n      swap1\n      tag_30\n      jump\t// in\n    tag_35:\n      tag_36\n      jump\t// in\n    tag_34:\n      mload(0x40)\n      tag_37\n      swap2\n      swap1\n      tag_33\n      jump\t// in\n    tag_37:\n      mload(0x40)\n      dup1\n      swap2\n      sub\n      swap1\n      return\n        /* \"contents/Battle.sol\":997:1030  uint256 public upgradePrice = 300 */\n    tag_5:\n      tag_38\n      tag_39\n      jump\t// in\n    tag_38:\n      mload(0x40)\n      tag_40\n      swap2\n      swap1\n      tag_33\n      jump\t// in\n    tag_40:\n      mload(0x40)\n      dup1\n      swap2\n      sub\n      swap1\n      return\n        /* \"contents/Battle.sol\":4447:5193  function upgradeDragon(uint256 tokenId) external {... */\n    tag_6:\n      tag_41\n      0x04\n      dup1\n      calldatasize\n      sub\n      dup2\n      add\n      swap1\n      tag_42\n      swap2\n      swap1\n      tag_43\n      jump\t// in\n    tag_42:\n      tag_44\n      jump\t// in\n    tag_41:\n      stop\n        /* \"contents/Battle.sol\":8655:8761  function setDailyBattleLimit(uint256 limit) external onlyOwner {... */\n    tag_7:\n      tag_45\n      0x04\n      dup1\n      calldatasize\n      sub\n      dup2\n      add\n      swap1\n      tag_46\n      swap2\n      swap1\n      tag_43\n      jump\t// in\n    tag_46:\n      tag_47\n      jump\t// in\n    tag_45:\n      stop\n        /* \"contents/Battle.sol\":8308:8441  function getBattleRecord(uint256 tokenId) external view returns(BattleRecord memory) {... */\n    tag_8:\n      tag_48\n      0x04\n      dup1\n      calldatasize\n      sub\n      dup2\n      add\n      swap1\n      tag_49\n      swap2\n      swap1\n      tag_43\n      jump\t// in\n    tag_49:\n      tag_50\n      jump\t// in\n    tag_48:\n      mload(0x40)\n      tag_51\n      swap2\n      swap1\n      tag_52\n      jump\t// in\n    tag_51:\n      mload(0x40)\n      dup1\n      swap2\n      sub\n      swap1\n      return\n        /* \"contents/Battle.sol\":6304:6878  function unregiBattle(uint256 tokenId) external {... */\n    tag_9:\n      tag_53\n      0x04\n      dup1\n      calldatasize\n      sub\n      dup2\n      add\n      swap1\n      tag_54\n      swap2\n      swap1\n      tag_43\n      jump\t// in\n    tag_54:\n      tag_55\n      jump\t// in\n    tag_53:\n      stop\n        /* \"contents/Battle.sol\":1810:2419  function battle(uint256 tokenId) external {... */\n    tag_10:\n      tag_56\n      0x04\n      dup1\n      calldatasize\n      sub\n      dup2\n      add\n      swap1\n      tag_57\n      swap2\n      swap1\n      tag_43\n      jump\t// in\n    tag_57:\n      tag_58\n      jump\t// in\n    tag_56:\n      stop\n        /* \"contents/Battle.sol\":8174:8300  function getDragonStatus(uint256 tokenId) external view returns(Dragon memory) {... */\n    tag_11:\n      tag_59\n      0x04\n      dup1\n      calldatasize\n      sub\n      dup2\n      add\n      swap1\n      tag_60\n      swap2\n      swap1\n      tag_43\n      jump\t// in\n    tag_60:\n      tag_61\n      jump\t// in\n    tag_59:\n      mload(0x40)\n      tag_62\n      swap2\n      swap1\n      tag_63\n      jump\t// in\n    tag_62:\n      mload(0x40)\n      dup1\n      swap2\n      sub\n      swap1\n      return\n        /* \"contents/Battle.sol\":299:326  IQuest public questContract */\n    tag_12:\n      tag_64\n      tag_65\n      jump\t// in\n    tag_64:\n      mload(0x40)\n      tag_66\n      swap2\n      swap1\n      tag_67\n      jump\t// in\n    tag_66:\n      mload(0x40)\n      dup1\n      swap2\n      sub\n      swap1\n      return\n        /* \"@openzeppelin/contracts/access/Ownable.sol\":2293:2394  function renounceOwnership() public virtual onlyOwner {... */\n    tag_13:\n      tag_68\n      tag_69\n      jump\t// in\n    tag_68:\n      stop\n        /* \"@openzeppelin/contracts/access/Ownable.sol\":1638:1723  function owner() public view virtual returns (address) {... */\n    tag_14:\n      tag_70\n      tag_71\n      jump\t// in\n    tag_70:\n      mload(0x40)\n      tag_72\n      swap2\n      swap1\n      tag_73\n      jump\t// in\n    tag_72:\n      mload(0x40)\n      dup1\n      swap2\n      sub\n      swap1\n      return\n        /* \"contents/Battle.sol\":264:292  IToken public dragonContract */\n    tag_15:\n      tag_74\n      tag_75\n      jump\t// in\n    tag_74:\n      mload(0x40)\n      tag_76\n      swap2\n      swap1\n      tag_77\n      jump\t// in\n    tag_76:\n      mload(0x40)\n      dup1\n      swap2\n      sub\n      swap1\n      return\n        /* \"contents/Battle.sol\":1037:1069  uint256 public battleReward = 10 */\n    tag_16:\n      tag_78\n      tag_79\n      jump\t// in\n    tag_78:\n      mload(0x40)\n      tag_80\n      swap2\n      swap1\n      tag_33\n      jump\t// in\n    tag_80:\n      mload(0x40)\n      dup1\n      swap2\n      sub\n      swap1\n      return\n        /* \"contents/Battle.sol\":8769:8866  function today() public view returns (uint256) {... */\n    tag_17:\n      tag_81\n      tag_82\n      jump\t// in\n    tag_81:\n      mload(0x40)\n      tag_83\n      swap2\n      swap1\n      tag_33\n      jump\t// in\n    tag_83:\n      mload(0x40)\n      dup1\n      swap2\n      sub\n      swap1\n      return\n        /* \"contents/Battle.sol\":7461:7946  function addDummy(uint256 count) external onlyOwner{... */\n    tag_18:\n      tag_84\n      0x04\n      dup1\n      calldatasize\n      sub\n      dup2\n      add\n      swap1\n      tag_85\n      swap2\n      swap1\n      tag_43\n      jump\t// in\n    tag_85:\n      tag_86\n      jump\t// in\n    tag_84:\n      stop\n        /* \"contents/Battle.sol\":5574:6296  function regiBattle(uint256 tokenId) external {... */\n    tag_19:\n      tag_87\n      0x04\n      dup1\n      calldatasize\n      sub\n      dup2\n      add\n      swap1\n      tag_88\n      swap2\n      swap1\n      tag_43\n      jump\t// in\n    tag_88:\n      tag_89\n      jump\t// in\n    tag_87:\n      stop\n        /* \"contents/Battle.sol\":8449:8647  function getPlayerRecords(address player) external view onlyOwner returns(BattleRecord memory)  {... */\n    tag_20:\n      tag_90\n      0x04\n      dup1\n      calldatasize\n      sub\n      dup2\n      add\n      swap1\n      tag_91\n      swap2\n      swap1\n      tag_30\n      jump\t// in\n    tag_91:\n      tag_92\n      jump\t// in\n    tag_90:\n      mload(0x40)\n      tag_93\n      swap2\n      swap1\n      tag_52\n      jump\t// in\n    tag_93:\n      mload(0x40)\n      dup1\n      swap2\n      sub\n      swap1\n      return\n        /* \"contents/Battle.sol\":7956:8166  function deleteDummy() external onlyOwner {... */\n    tag_21:\n      tag_94\n      tag_95\n      jump\t// in\n    tag_94:\n      stop\n        /* \"contents/Battle.sol\":1076:1111  uint256 public dailyBattleLimit = 3 */\n    tag_22:\n      tag_96\n      tag_97\n      jump\t// in\n    tag_96:\n      mload(0x40)\n      tag_98\n      swap2\n      swap1\n      tag_33\n      jump\t// in\n    tag_98:\n      mload(0x40)\n      dup1\n      swap2\n      sub\n      swap1\n      return\n        /* \"@openzeppelin/contracts/access/Ownable.sol\":2543:2758  function transferOwnership(address newOwner) public virtual onlyOwner {... */\n    tag_23:\n      tag_99\n      0x04\n      dup1\n      calldatasize\n      sub\n      dup2\n      add\n      swap1\n      tag_100\n      swap2\n      swap1\n      tag_30\n      jump\t// in\n    tag_100:\n      tag_101\n      jump\t// in\n    tag_99:\n      stop\n        /* \"contents/Battle.sol\":333:366  IDragonDrink public drinkContract */\n    tag_24:\n      tag_102\n      tag_103\n      jump\t// in\n    tag_102:\n      mload(0x40)\n      tag_104\n      swap2\n      swap1\n      tag_105\n      jump\t// in\n    tag_104:\n      mload(0x40)\n      dup1\n      swap2\n      sub\n      swap1\n      return\n        /* \"contents/Battle.sol\":821:870  mapping(address => uint256) public lastBattleTime */\n    tag_31:\n      mstore(0x20, 0x08)\n      dup1\n      0x00\n      mstore\n      keccak256(0x00, 0x40)\n      0x00\n      swap2\n      pop\n      swap1\n      pop\n      sload\n      dup2\n      jump\t// out\n        /* \"contents/Battle.sol\":763:814  mapping(address => uint256) public dailyBattleCount */\n    tag_36:\n      mstore(0x20, 0x07)\n      dup1\n      0x00\n      mstore\n      keccak256(0x00, 0x40)\n      0x00\n      swap2\n      pop\n      swap1\n      pop\n      sload\n      dup2\n      jump\t// out\n        /* \"contents/Battle.sol\":997:1030  uint256 public upgradePrice = 300 */\n    tag_39:\n      sload(0x0c)\n      dup2\n      jump\t// out\n        /* \"contents/Battle.sol\":4447:5193  function upgradeDragon(uint256 tokenId) external {... */\n    tag_44:\n        /* \"contents/Battle.sol\":4550:4560  msg.sender */\n      caller\n        /* \"contents/Battle.sol\":4515:4560  dragonContract.ownerOf(tokenId) == msg.sender */\n      0xffffffffffffffffffffffffffffffffffffffff\n      and\n        /* \"contents/Battle.sol\":4515:4529  dragonContract */\n      0x01\n      0x00\n      swap1\n      sload\n      swap1\n      0x0100\n      exp\n      swap1\n      div\n      0xffffffffffffffffffffffffffffffffffffffff\n      and\n        /* \"contents/Battle.sol\":4515:4537  dragonContract.ownerOf */\n      0xffffffffffffffffffffffffffffffffffffffff\n      and\n      0x6352211e\n        /* \"contents/Battle.sol\":4538:4545  tokenId */\n      dup4\n        /* \"contents/Battle.sol\":4515:4546  dragonContract.ownerOf(tokenId) */\n      mload(0x40)\n      dup3\n      0xffffffff\n      and\n      0xe0\n      shl\n      dup2\n      mstore\n      0x04\n      add\n      tag_107\n      swap2\n      swap1\n      tag_33\n      jump\t// in\n    tag_107:\n      0x20\n      mload(0x40)\n      dup1\n      dup4\n      sub\n      dup2\n      dup7\n      gas\n      staticcall\n      iszero\n      dup1\n      iszero\n      tag_109\n      jumpi\n      returndatasize\n      0x00\n      dup1\n      returndatacopy\n      revert(0x00, returndatasize)\n    tag_109:\n      pop\n      pop\n      pop\n      pop\n      mload(0x40)\n      returndatasize\n      not(0x1f)\n      0x1f\n      dup3\n      add\n      and\n      dup3\n      add\n      dup1\n      0x40\n      mstore\n      pop\n      dup2\n      add\n      swap1\n      tag_110\n      swap2\n      swap1\n      tag_111\n      jump\t// in\n    tag_110:\n        /* \"contents/Battle.sol\":4515:4560  dragonContract.ownerOf(tokenId) == msg.sender */\n      0xffffffffffffffffffffffffffffffffffffffff\n      and\n      eq\n        /* \"contents/Battle.sol\":4507:4574  require(dragonContract.ownerOf(tokenId) == msg.sender, \"Not Owner\") */\n      tag_112\n      jumpi\n      mload(0x40)\n      0x08c379a000000000000000000000000000000000000000000000000000000000\n      dup2\n      mstore\n      0x04\n      add\n      tag_113\n      swap1\n      tag_114\n      jump\t// in\n    tag_113:\n      mload(0x40)\n      dup1\n      swap2\n      sub\n      swap1\n      revert\n    tag_112:\n        /* \"contents/Battle.sol\":4626:4633  tokenId */\n      dup1\n        /* \"contents/Battle.sol\":4593:4610  registeredDragons */\n      0x06\n        /* \"contents/Battle.sol\":4593:4622  registeredDragons[msg.sender] */\n      0x00\n        /* \"contents/Battle.sol\":4611:4621  msg.sender */\n      caller\n        /* \"contents/Battle.sol\":4593:4622  registeredDragons[msg.sender] */\n      0xffffffffffffffffffffffffffffffffffffffff\n      and\n      0xffffffffffffffffffffffffffffffffffffffff\n      and\n      dup2\n      mstore\n      0x20\n      add\n      swap1\n      dup2\n      mstore\n      0x20\n      add\n      0x00\n      keccak256\n      sload\n        /* \"contents/Battle.sol\":4593:4633  registeredDragons[msg.sender] == tokenId */\n      eq\n        /* \"contents/Battle.sol\":4585:4670  require(registeredDragons[msg.sender] == tokenId, \"Dragon not registered for battle\") */\n      tag_115\n      jumpi\n      mload(0x40)\n      0x08c379a000000000000000000000000000000000000000000000000000000000\n      dup2\n      mstore\n      0x04\n      add\n      tag_116\n      swap1\n      tag_117\n      jump\t// in\n    tag_116:\n      mload(0x40)\n      dup1\n      swap2\n      sub\n      swap1\n      revert\n    tag_115:\n        /* \"contents/Battle.sol\":4728:4740  upgradePrice */\n      sload(0x0c)\n        /* \"contents/Battle.sol\":4689:4702  drinkContract */\n      0x03\n      0x00\n      swap1\n      sload\n      swap1\n      0x0100\n      exp\n      swap1\n      div\n      0xffffffffffffffffffffffffffffffffffffffff\n      and\n        /* \"contents/Battle.sol\":4689:4712  drinkContract.balanceOf */\n      0xffffffffffffffffffffffffffffffffffffffff\n      and\n      0x70a08231\n        /* \"contents/Battle.sol\":4713:4723  msg.sender */\n      caller\n        /* \"contents/Battle.sol\":4689:4724  drinkContract.balanceOf(msg.sender) */\n      mload(0x40)\n      dup3\n      0xffffffff\n      and\n      0xe0\n      shl\n      dup2\n      mstore\n      0x04\n      add\n      tag_118\n      swap2\n      swap1\n      tag_73\n      jump\t// in\n    tag_118:\n      0x20\n      mload(0x40)\n      dup1\n      dup4\n      sub\n      dup2\n      dup7\n      gas\n      staticcall\n      iszero\n      dup1\n      iszero\n      tag_120\n      jumpi\n      returndatasize\n      0x00\n      dup1\n      returndatacopy\n      revert(0x00, returndatasize)\n    tag_120:\n      pop\n      pop\n      pop\n      pop\n      mload(0x40)\n      returndatasize\n      not(0x1f)\n      0x1f\n      dup3\n      add\n      and\n      dup3\n      add\n      dup1\n      0x40\n      mstore\n      pop\n      dup2\n      add\n      swap1\n      tag_121\n      swap2\n      swap1\n      tag_122\n      jump\t// in\n    tag_121:\n        /* \"contents/Battle.sol\":4689:4740  drinkContract.balanceOf(msg.sender) >= upgradePrice */\n      lt\n      iszero\n        /* \"contents/Battle.sol\":4681:4764  require(drinkContract.balanceOf(msg.sender) >= upgradePrice, \"Insufficient drinks\") */\n      tag_123\n      jumpi\n      mload(0x40)\n      0x08c379a000000000000000000000000000000000000000000000000000000000\n      dup2\n      mstore\n      0x04\n      add\n      tag_124\n      swap1\n      tag_125\n      jump\t// in\n    tag_124:\n      mload(0x40)\n      dup1\n      swap2\n      sub\n      swap1\n      revert\n    tag_123:\n        /* \"contents/Battle.sol\":4777:4790  drinkContract */\n      0x03\n      0x00\n      swap1\n      sload\n      swap1\n      0x0100\n      exp\n      swap1\n      div\n      0xffffffffffffffffffffffffffffffffffffffff\n      and\n        /* \"contents/Battle.sol\":4777:4795  drinkContract.burn */\n      0xffffffffffffffffffffffffffffffffffffffff\n      and\n      0x42966c68\n        /* \"contents/Battle.sol\":4796:4808  upgradePrice */\n      sload(0x0c)\n        /* \"contents/Battle.sol\":4777:4809  drinkContract.burn(upgradePrice) */\n      mload(0x40)\n      dup3\n      0xffffffff\n      and\n      0xe0\n      shl\n      dup2\n      mstore\n      0x04\n      add\n      tag_126\n      swap2\n      swap1\n      tag_33\n      jump\t// in\n    tag_126:\n      0x00\n      mload(0x40)\n      dup1\n      dup4\n      sub\n      dup2\n      0x00\n      dup8\n      dup1\n      extcodesize\n      iszero\n      dup1\n      iszero\n      tag_127\n      jumpi\n      0x00\n      dup1\n      revert\n    tag_127:\n      pop\n      gas\n      call\n      iszero\n      dup1\n      iszero\n      tag_129\n      jumpi\n      returndatasize\n      0x00\n      dup1\n      returndatacopy\n      revert(0x00, returndatasize)\n    tag_129:\n      pop\n      pop\n      pop\n      pop\n        /* \"contents/Battle.sol\":4822:4845  Dragon storage myDragon */\n      0x00\n        /* \"contents/Battle.sol\":4848:4860  battleDragon */\n      0x04\n        /* \"contents/Battle.sol\":4848:4869  battleDragon[tokenId] */\n      0x00\n        /* \"contents/Battle.sol\":4861:4868  tokenId */\n      dup4\n        /* \"contents/Battle.sol\":4848:4869  battleDragon[tokenId] */\n      dup2\n      mstore\n      0x20\n      add\n      swap1\n      dup2\n      mstore\n      0x20\n      add\n      0x00\n      keccak256\n        /* \"contents/Battle.sol\":4822:4869  Dragon storage myDragon = battleDragon[tokenId] */\n      swap1\n      pop\n        /* \"contents/Battle.sol\":4882:4900  uint256 randomStat */\n      0x00\n        /* \"contents/Battle.sol\":4976:4977  3 */\n      0x03\n        /* \"contents/Battle.sol\":4938:4953  block.timestamp */\n      timestamp\n        /* \"contents/Battle.sol\":4954:4970  block.prevrandao */\n      prevrandao\n        /* \"contents/Battle.sol\":4921:4971  abi.encodePacked(block.timestamp,block.prevrandao) */\n      add(0x20, mload(0x40))\n      tag_130\n      swap3\n      swap2\n      swap1\n      tag_131\n      jump\t// in\n    tag_130:\n      mload(0x40)\n      0x20\n      dup2\n      dup4\n      sub\n      sub\n      dup2\n      mstore\n      swap1\n      0x40\n      mstore\n        /* \"contents/Battle.sol\":4911:4972  keccak256(abi.encodePacked(block.timestamp,block.prevrandao)) */\n      dup1\n      mload\n      swap1\n      0x20\n      add\n      keccak256\n        /* \"contents/Battle.sol\":4903:4973  uint256(keccak256(abi.encodePacked(block.timestamp,block.prevrandao))) */\n      0x00\n      shr\n        /* \"contents/Battle.sol\":4903:4977  uint256(keccak256(abi.encodePacked(block.timestamp,block.prevrandao))) % 3 */\n      tag_132\n      swap2\n      swap1\n      tag_133\n      jump\t// in\n    tag_132:\n        /* \"contents/Battle.sol\":4882:4977  uint256 randomStat = uint256(keccak256(abi.encodePacked(block.timestamp,block.prevrandao))) % 3 */\n      swap1\n      pop\n        /* \"contents/Battle.sol\":5007:5008  0 */\n      0x00\n        /* \"contents/Battle.sol\":4993:5003  randomStat */\n      dup2\n        /* \"contents/Battle.sol\":4993:5008  randomStat == 0 */\n      sub\n        /* \"contents/Battle.sol\":4990:5186  if(randomStat == 0) {... */\n      tag_134\n      jumpi\n        /* \"contents/Battle.sol\":5044:5046  10 */\n      0x0a\n        /* \"contents/Battle.sol\":5025:5033  myDragon */\n      dup3\n        /* \"contents/Battle.sol\":5025:5040  myDragon.attack */\n      0x01\n      add\n      0x00\n        /* \"contents/Battle.sol\":5025:5046  myDragon.attack += 10 */\n      dup3\n      dup3\n      sload\n      tag_135\n      swap2\n      swap1\n      tag_136\n      jump\t// in\n    tag_135:\n      swap3\n      pop\n      pop\n      dup2\n      swap1\n      sstore\n      pop\n        /* \"contents/Battle.sol\":4990:5186  if(randomStat == 0) {... */\n      jump(tag_137)\n    tag_134:\n        /* \"contents/Battle.sol\":5081:5082  1 */\n      0x01\n        /* \"contents/Battle.sol\":5067:5077  randomStat */\n      dup2\n        /* \"contents/Battle.sol\":5067:5082  randomStat == 1 */\n      sub\n        /* \"contents/Battle.sol\":5064:5186  if(randomStat == 1) {... */\n      tag_138\n      jumpi\n        /* \"contents/Battle.sol\":5119:5121  10 */\n      0x0a\n        /* \"contents/Battle.sol\":5099:5107  myDragon */\n      dup3\n        /* \"contents/Battle.sol\":5099:5115  myDragon.defense */\n      0x02\n      add\n      0x00\n        /* \"contents/Battle.sol\":5099:5121  myDragon.defense += 10 */\n      dup3\n      dup3\n      sload\n      tag_139\n      swap2\n      swap1\n      tag_136\n      jump\t// in\n    tag_139:\n      swap3\n      pop\n      pop\n      dup2\n      swap1\n      sstore\n      pop\n        /* \"contents/Battle.sol\":5064:5186  if(randomStat == 1) {... */\n      jump(tag_140)\n    tag_138:\n        /* \"contents/Battle.sol\":5172:5174  10 */\n      0x0a\n        /* \"contents/Battle.sol\":5153:5161  myDragon */\n      dup3\n        /* \"contents/Battle.sol\":5153:5168  myDragon.health */\n      0x03\n      add\n      0x00\n        /* \"contents/Battle.sol\":5153:5174  myDragon.health += 10 */\n      dup3\n      dup3\n      sload\n      tag_141\n      swap2\n      swap1\n      tag_136\n      jump\t// in\n    tag_141:\n      swap3\n      pop\n      pop\n      dup2\n      swap1\n      sstore\n      pop\n        /* \"contents/Battle.sol\":5064:5186  if(randomStat == 1) {... */\n    tag_140:\n        /* \"contents/Battle.sol\":4990:5186  if(randomStat == 0) {... */\n    tag_137:\n        /* \"contents/Battle.sol\":4496:5193  {... */\n      pop\n      pop\n        /* \"contents/Battle.sol\":4447:5193  function upgradeDragon(uint256 tokenId) external {... */\n      pop\n      jump\t// out\n        /* \"contents/Battle.sol\":8655:8761  function setDailyBattleLimit(uint256 limit) external onlyOwner {... */\n    tag_47:\n        /* \"@openzeppelin/contracts/access/Ownable.sol\":1531:1544  _checkOwner() */\n      tag_143\n        /* \"@openzeppelin/contracts/access/Ownable.sol\":1531:1542  _checkOwner */\n      tag_144\n        /* \"@openzeppelin/contracts/access/Ownable.sol\":1531:1544  _checkOwner() */\n      jump\t// in\n    tag_143:\n        /* \"contents/Battle.sol\":8748:8753  limit */\n      dup1\n        /* \"contents/Battle.sol\":8729:8745  dailyBattleLimit */\n      0x0e\n        /* \"contents/Battle.sol\":8729:8753  dailyBattleLimit = limit */\n      dup2\n      swap1\n      sstore\n      pop\n        /* \"contents/Battle.sol\":8655:8761  function setDailyBattleLimit(uint256 limit) external onlyOwner {... */\n      pop\n      jump\t// out\n        /* \"contents/Battle.sol\":8308:8441  function getBattleRecord(uint256 tokenId) external view returns(BattleRecord memory) {... */\n    tag_50:\n        /* \"contents/Battle.sol\":8372:8391  BattleRecord memory */\n      tag_146\n      tag_147\n      jump\t// in\n    tag_146:\n        /* \"contents/Battle.sol\":8411:8424  dragonRecords */\n      0x05\n        /* \"contents/Battle.sol\":8411:8433  dragonRecords[tokenId] */\n      0x00\n        /* \"contents/Battle.sol\":8425:8432  tokenId */\n      dup4\n        /* \"contents/Battle.sol\":8411:8433  dragonRecords[tokenId] */\n      dup2\n      mstore\n      0x20\n      add\n      swap1\n      dup2\n      mstore\n      0x20\n      add\n      0x00\n      keccak256\n        /* \"contents/Battle.sol\":8404:8433  return dragonRecords[tokenId] */\n      mload(0x40)\n      dup1\n      0x40\n      add\n      0x40\n      mstore\n      swap1\n      dup2\n      0x00\n      dup3\n      add\n      sload\n      dup2\n      mstore\n      0x20\n      add\n      0x01\n      dup3\n      add\n      sload\n      dup2\n      mstore\n      pop\n      pop\n      swap1\n      pop\n        /* \"contents/Battle.sol\":8308:8441  function getBattleRecord(uint256 tokenId) external view returns(BattleRecord memory) {... */\n      swap2\n      swap1\n      pop\n      jump\t// out\n        /* \"contents/Battle.sol\":6304:6878  function unregiBattle(uint256 tokenId) external {... */\n    tag_55:\n        /* \"contents/Battle.sol\":6406:6416  msg.sender */\n      caller\n        /* \"contents/Battle.sol\":6371:6416  dragonContract.ownerOf(tokenId) == msg.sender */\n      0xffffffffffffffffffffffffffffffffffffffff\n      and\n        /* \"contents/Battle.sol\":6371:6385  dragonContract */\n      0x01\n      0x00\n      swap1\n      sload\n      swap1\n      0x0100\n      exp\n      swap1\n      div\n      0xffffffffffffffffffffffffffffffffffffffff\n      and\n        /* \"contents/Battle.sol\":6371:6393  dragonContract.ownerOf */\n      0xffffffffffffffffffffffffffffffffffffffff\n      and\n      0x6352211e\n        /* \"contents/Battle.sol\":6394:6401  tokenId */\n      dup4\n        /* \"contents/Battle.sol\":6371:6402  dragonContract.ownerOf(tokenId) */\n      mload(0x40)\n      dup3\n      0xffffffff\n      and\n      0xe0\n      shl\n      dup2\n      mstore\n      0x04\n      add\n      tag_150\n      swap2\n      swap1\n      tag_33\n      jump\t// in\n    tag_150:\n      0x20\n      mload(0x40)\n      dup1\n      dup4\n      sub\n      dup2\n      dup7\n      gas\n      staticcall\n      iszero\n      dup1\n      iszero\n      tag_152\n      jumpi\n      returndatasize\n      0x00\n      dup1\n      returndatacopy\n      revert(0x00, returndatasize)\n    tag_152:\n      pop\n      pop\n      pop\n      pop\n      mload(0x40)\n      returndatasize\n      not(0x1f)\n      0x1f\n      dup3\n      add\n      and\n      dup3\n      add\n      dup1\n      0x40\n      mstore\n      pop\n      dup2\n      add\n      swap1\n      tag_153\n      swap2\n      swap1\n      tag_111\n      jump\t// in\n    tag_153:\n        /* \"contents/Battle.sol\":6371:6416  dragonContract.ownerOf(tokenId) == msg.sender */\n      0xffffffffffffffffffffffffffffffffffffffff\n      and\n      eq\n        /* \"contents/Battle.sol\":6363:6430  require(dragonContract.ownerOf(tokenId) == msg.sender, \"Not Owner\") */\n      tag_154\n      jumpi\n      mload(0x40)\n      0x08c379a000000000000000000000000000000000000000000000000000000000\n      dup2\n      mstore\n      0x04\n      add\n      tag_155\n      swap1\n      tag_114\n      jump\t// in\n    tag_155:\n      mload(0x40)\n      dup1\n      swap2\n      sub\n      swap1\n      revert\n    tag_154:\n        /* \"contents/Battle.sol\":6482:6489  tokenId */\n      dup1\n        /* \"contents/Battle.sol\":6449:6466  registeredDragons */\n      0x06\n        /* \"contents/Battle.sol\":6449:6478  registeredDragons[msg.sender] */\n      0x00\n        /* \"contents/Battle.sol\":6467:6477  msg.sender */\n      caller\n        /* \"contents/Battle.sol\":6449:6478  registeredDragons[msg.sender] */\n      0xffffffffffffffffffffffffffffffffffffffff\n      and\n      0xffffffffffffffffffffffffffffffffffffffff\n      and\n      dup2\n      mstore\n      0x20\n      add\n      swap1\n      dup2\n      mstore\n      0x20\n      add\n      0x00\n      keccak256\n      sload\n        /* \"contents/Battle.sol\":6449:6489  registeredDragons[msg.sender] == tokenId */\n      eq\n        /* \"contents/Battle.sol\":6441:6515  require(registeredDragons[msg.sender] == tokenId, \"token is not register\") */\n      tag_156\n      jumpi\n      mload(0x40)\n      0x08c379a000000000000000000000000000000000000000000000000000000000\n      dup2\n      mstore\n      0x04\n      add\n      tag_157\n      swap1\n      tag_158\n      jump\t// in\n    tag_157:\n      mload(0x40)\n      dup1\n      swap2\n      sub\n      swap1\n      revert\n    tag_156:\n        /* \"contents/Battle.sol\":6535:6552  registeredDragons */\n      0x06\n        /* \"contents/Battle.sol\":6535:6564  registeredDragons[msg.sender] */\n      0x00\n        /* \"contents/Battle.sol\":6553:6563  msg.sender */\n      caller\n        /* \"contents/Battle.sol\":6535:6564  registeredDragons[msg.sender] */\n      0xffffffffffffffffffffffffffffffffffffffff\n      and\n      0xffffffffffffffffffffffffffffffffffffffff\n      and\n      dup2\n      mstore\n      0x20\n      add\n      swap1\n      dup2\n      mstore\n      0x20\n      add\n      0x00\n      keccak256\n        /* \"contents/Battle.sol\":6528:6564  delete registeredDragons[msg.sender] */\n      0x00\n      swap1\n      sstore\n        /* \"contents/Battle.sol\":6579:6588  uint256 i */\n      0x00\n        /* \"contents/Battle.sol\":6575:6871  for(uint256 i = 0; i < registeredBattlers.length; i++) {... */\n    tag_159:\n        /* \"contents/Battle.sol\":6598:6616  registeredBattlers */\n      0x09\n        /* \"contents/Battle.sol\":6598:6623  registeredBattlers.length */\n      dup1\n      sload\n      swap1\n      pop\n        /* \"contents/Battle.sol\":6594:6595  i */\n      dup2\n        /* \"contents/Battle.sol\":6594:6623  i < registeredBattlers.length */\n      lt\n        /* \"contents/Battle.sol\":6575:6871  for(uint256 i = 0; i < registeredBattlers.length; i++) {... */\n      iszero\n      tag_160\n      jumpi\n        /* \"contents/Battle.sol\":6673:6683  msg.sender */\n      caller\n        /* \"contents/Battle.sol\":6648:6683  registeredBattlers[i] == msg.sender */\n      0xffffffffffffffffffffffffffffffffffffffff\n      and\n        /* \"contents/Battle.sol\":6648:6666  registeredBattlers */\n      0x09\n        /* \"contents/Battle.sol\":6667:6668  i */\n      dup3\n        /* \"contents/Battle.sol\":6648:6669  registeredBattlers[i] */\n      dup2\n      sload\n      dup2\n      lt\n      tag_162\n      jumpi\n      tag_163\n      tag_164\n      jump\t// in\n    tag_163:\n    tag_162:\n      swap1\n      0x00\n      mstore\n      keccak256(0x00, 0x20)\n      add\n      0x00\n      swap1\n      sload\n      swap1\n      0x0100\n      exp\n      swap1\n      div\n      0xffffffffffffffffffffffffffffffffffffffff\n      and\n        /* \"contents/Battle.sol\":6648:6683  registeredBattlers[i] == msg.sender */\n      0xffffffffffffffffffffffffffffffffffffffff\n      and\n      sub\n        /* \"contents/Battle.sol\":6645:6860  if(registeredBattlers[i] == msg.sender) {... */\n      tag_166\n      jumpi\n        /* \"contents/Battle.sol\":6728:6746  registeredBattlers */\n      0x09\n        /* \"contents/Battle.sol\":6775:6776  1 */\n      0x01\n        /* \"contents/Battle.sol\":6747:6765  registeredBattlers */\n      0x09\n        /* \"contents/Battle.sol\":6747:6772  registeredBattlers.length */\n      dup1\n      sload\n      swap1\n      pop\n        /* \"contents/Battle.sol\":6747:6776  registeredBattlers.length - 1 */\n      tag_167\n      swap2\n      swap1\n      tag_168\n      jump\t// in\n    tag_167:\n        /* \"contents/Battle.sol\":6728:6777  registeredBattlers[registeredBattlers.length - 1] */\n      dup2\n      sload\n      dup2\n      lt\n      tag_169\n      jumpi\n      tag_170\n      tag_164\n      jump\t// in\n    tag_170:\n    tag_169:\n      swap1\n      0x00\n      mstore\n      keccak256(0x00, 0x20)\n      add\n      0x00\n      swap1\n      sload\n      swap1\n      0x0100\n      exp\n      swap1\n      div\n      0xffffffffffffffffffffffffffffffffffffffff\n      and\n        /* \"contents/Battle.sol\":6704:6722  registeredBattlers */\n      0x09\n        /* \"contents/Battle.sol\":6723:6724  i */\n      dup3\n        /* \"contents/Battle.sol\":6704:6725  registeredBattlers[i] */\n      dup2\n      sload\n      dup2\n      lt\n      tag_172\n      jumpi\n      tag_173\n      tag_164\n      jump\t// in\n    tag_173:\n    tag_172:\n      swap1\n      0x00\n      mstore\n      keccak256(0x00, 0x20)\n      add\n      0x00\n        /* \"contents/Battle.sol\":6704:6777  registeredBattlers[i] = registeredBattlers[registeredBattlers.length - 1] */\n      0x0100\n      exp\n      dup2\n      sload\n      dup2\n      0xffffffffffffffffffffffffffffffffffffffff\n      mul\n      not\n      and\n      swap1\n      dup4\n      0xffffffffffffffffffffffffffffffffffffffff\n      and\n      mul\n      or\n      swap1\n      sstore\n      pop\n        /* \"contents/Battle.sol\":6796:6814  registeredBattlers */\n      0x09\n        /* \"contents/Battle.sol\":6796:6820  registeredBattlers.pop() */\n      dup1\n      sload\n      dup1\n      tag_175\n      jumpi\n      tag_176\n      tag_177\n      jump\t// in\n    tag_176:\n    tag_175:\n      0x01\n      swap1\n      sub\n      dup2\n      dup2\n      swap1\n      0x00\n      mstore\n      keccak256(0x00, 0x20)\n      add\n      exp(0x0100, 0x00)\n      dup2\n      sload\n      swap1\n      0xffffffffffffffffffffffffffffffffffffffff\n      mul\n      not\n      and\n      swap1\n      sstore\n      swap1\n      sstore\n        /* \"contents/Battle.sol\":6839:6844  break */\n      jump(tag_160)\n        /* \"contents/Battle.sol\":6645:6860  if(registeredBattlers[i] == msg.sender) {... */\n    tag_166:\n        /* \"contents/Battle.sol\":6625:6628  i++ */\n      dup1\n      dup1\n      0x01\n      add\n      swap2\n      pop\n      pop\n        /* \"contents/Battle.sol\":6575:6871  for(uint256 i = 0; i < registeredBattlers.length; i++) {... */\n      jump(tag_159)\n    tag_160:\n      pop\n        /* \"contents/Battle.sol\":6304:6878  function unregiBattle(uint256 tokenId) external {... */\n      pop\n      jump\t// out\n        /* \"contents/Battle.sol\":1810:2419  function battle(uint256 tokenId) external {... */\n    tag_58:\n        /* \"contents/Battle.sol\":1906:1916  msg.sender */\n      caller\n        /* \"contents/Battle.sol\":1871:1916  dragonContract.ownerOf(tokenId) == msg.sender */\n      0xffffffffffffffffffffffffffffffffffffffff\n      and\n        /* \"contents/Battle.sol\":1871:1885  dragonContract */\n      0x01\n      0x00\n      swap1\n      sload\n      swap1\n      0x0100\n      exp\n      swap1\n      div\n      0xffffffffffffffffffffffffffffffffffffffff\n      and\n        /* \"contents/Battle.sol\":1871:1893  dragonContract.ownerOf */\n      0xffffffffffffffffffffffffffffffffffffffff\n      and\n      0x6352211e\n        /* \"contents/Battle.sol\":1894:1901  tokenId */\n      dup4\n        /* \"contents/Battle.sol\":1871:1902  dragonContract.ownerOf(tokenId) */\n      mload(0x40)\n      dup3\n      0xffffffff\n      and\n      0xe0\n      shl\n      dup2\n      mstore\n      0x04\n      add\n      tag_180\n      swap2\n      swap1\n      tag_33\n      jump\t// in\n    tag_180:\n      0x20\n      mload(0x40)\n      dup1\n      dup4\n      sub\n      dup2\n      dup7\n      gas\n      staticcall\n      iszero\n      dup1\n      iszero\n      tag_182\n      jumpi\n      returndatasize\n      0x00\n      dup1\n      returndatacopy\n      revert(0x00, returndatasize)\n    tag_182:\n      pop\n      pop\n      pop\n      pop\n      mload(0x40)\n      returndatasize\n      not(0x1f)\n      0x1f\n      dup3\n      add\n      and\n      dup3\n      add\n      dup1\n      0x40\n      mstore\n      pop\n      dup2\n      add\n      swap1\n      tag_183\n      swap2\n      swap1\n      tag_111\n      jump\t// in\n    tag_183:\n        /* \"contents/Battle.sol\":1871:1916  dragonContract.ownerOf(tokenId) == msg.sender */\n      0xffffffffffffffffffffffffffffffffffffffff\n      and\n      eq\n        /* \"contents/Battle.sol\":1863:1930  require(dragonContract.ownerOf(tokenId) == msg.sender, \"Not Owner\") */\n      tag_184\n      jumpi\n      mload(0x40)\n      0x08c379a000000000000000000000000000000000000000000000000000000000\n      dup2\n      mstore\n      0x04\n      add\n      tag_185\n      swap1\n      tag_114\n      jump\t// in\n    tag_185:\n      mload(0x40)\n      dup1\n      swap2\n      sub\n      swap1\n      revert\n    tag_184:\n        /* \"contents/Battle.sol\":1943:1959  address opponent */\n      0x00\n        /* \"contents/Battle.sol\":1962:1992  findRandomOpponent(msg.sender) */\n      tag_186\n        /* \"contents/Battle.sol\":1981:1991  msg.sender */\n      caller\n        /* \"contents/Battle.sol\":1962:1980  findRandomOpponent */\n      tag_187\n        /* \"contents/Battle.sol\":1962:1992  findRandomOpponent(msg.sender) */\n      jump\t// in\n    tag_186:\n        /* \"contents/Battle.sol\":1943:1992  address opponent = findRandomOpponent(msg.sender) */\n      swap1\n      pop\n        /* \"contents/Battle.sol\":2031:2032  0 */\n      0x00\n        /* \"contents/Battle.sol\":2011:2033  opponent != address(0) */\n      0xffffffffffffffffffffffffffffffffffffffff\n      and\n        /* \"contents/Battle.sol\":2011:2019  opponent */\n      dup2\n        /* \"contents/Battle.sol\":2011:2033  opponent != address(0) */\n      0xffffffffffffffffffffffffffffffffffffffff\n      and\n      sub\n        /* \"contents/Battle.sol\":2003:2055  require(opponent != address(0), \"No opponent found\") */\n      tag_188\n      jumpi\n      mload(0x40)\n      0x08c379a000000000000000000000000000000000000000000000000000000000\n      dup2\n      mstore\n      0x04\n      add\n      tag_189\n      swap1\n      tag_190\n      jump\t// in\n    tag_189:\n      mload(0x40)\n      dup1\n      swap2\n      sub\n      swap1\n      revert\n    tag_188:\n        /* \"contents/Battle.sol\":2076:2109  IQuest.QuestData memory questData */\n      0x00\n        /* \"contents/Battle.sol\":2112:2125  questContract */\n      0x02\n      0x00\n      swap1\n      sload\n      swap1\n      0x0100\n      exp\n      swap1\n      div\n      0xffffffffffffffffffffffffffffffffffffffff\n      and\n        /* \"contents/Battle.sol\":2112:2138  questContract.getQuestData */\n      0xffffffffffffffffffffffffffffffffffffffff\n      and\n      0x86c8a86f\n        /* \"contents/Battle.sol\":2139:2149  msg.sender */\n      caller\n        /* \"contents/Battle.sol\":2112:2150  questContract.getQuestData(msg.sender) */\n      mload(0x40)\n      dup3\n      0xffffffff\n      and\n      0xe0\n      shl\n      dup2\n      mstore\n      0x04\n      add\n      tag_191\n      swap2\n      swap1\n      tag_73\n      jump\t// in\n    tag_191:\n      0x60\n      mload(0x40)\n      dup1\n      dup4\n      sub\n      dup2\n      dup7\n      gas\n      staticcall\n      iszero\n      dup1\n      iszero\n      tag_193\n      jumpi\n      returndatasize\n      0x00\n      dup1\n      returndatacopy\n      revert(0x00, returndatasize)\n    tag_193:\n      pop\n      pop\n      pop\n      pop\n      mload(0x40)\n      returndatasize\n      not(0x1f)\n      0x1f\n      dup3\n      add\n      and\n      dup3\n      add\n      dup1\n      0x40\n      mstore\n      pop\n      dup2\n      add\n      swap1\n      tag_194\n      swap2\n      swap1\n      tag_195\n      jump\t// in\n    tag_194:\n        /* \"contents/Battle.sol\":2076:2150  IQuest.QuestData memory questData = questContract.getQuestData(msg.sender) */\n      swap1\n      pop\n        /* \"contents/Battle.sol\":2167:2176  questData */\n      dup1\n        /* \"contents/Battle.sol\":2167:2183  questData.battle */\n      0x40\n      add\n      mload\n        /* \"contents/Battle.sol\":2163:2249  if(!questData.battle) {... */\n      tag_196\n      jumpi\n        /* \"contents/Battle.sol\":2200:2213  questContract */\n      0x02\n      0x00\n      swap1\n      sload\n      swap1\n      0x0100\n      exp\n      swap1\n      div\n      0xffffffffffffffffffffffffffffffffffffffff\n      and\n        /* \"contents/Battle.sol\":2200:2225  questContract.battleCheck */\n      0xffffffffffffffffffffffffffffffffffffffff\n      and\n      0xdec5d109\n        /* \"contents/Battle.sol\":2226:2236  msg.sender */\n      caller\n        /* \"contents/Battle.sol\":2200:2237  questContract.battleCheck(msg.sender) */\n      mload(0x40)\n      dup3\n      0xffffffff\n      and\n      0xe0\n      shl\n      dup2\n      mstore\n      0x04\n      add\n      tag_197\n      swap2\n      swap1\n      tag_73\n      jump\t// in\n    tag_197:\n      0x00\n      mload(0x40)\n      dup1\n      dup4\n      sub\n      dup2\n      0x00\n      dup8\n      dup1\n      extcodesize\n      iszero\n      dup1\n      iszero\n      tag_198\n      jumpi\n      0x00\n      dup1\n      revert\n    tag_198:\n      pop\n      gas\n      call\n      iszero\n      dup1\n      iszero\n      tag_200\n      jumpi\n      returndatasize\n      0x00\n      dup1\n      returndatacopy\n      revert(0x00, returndatasize)\n    tag_200:\n      pop\n      pop\n      pop\n      pop\n        /* \"contents/Battle.sol\":2163:2249  if(!questData.battle) {... */\n    tag_196:\n        /* \"contents/Battle.sol\":2269:2305  battleProgress(msg.sender, opponent) */\n      tag_201\n        /* \"contents/Battle.sol\":2284:2294  msg.sender */\n      caller\n        /* \"contents/Battle.sol\":2296:2304  opponent */\n      dup4\n        /* \"contents/Battle.sol\":2269:2283  battleProgress */\n      tag_202\n        /* \"contents/Battle.sol\":2269:2305  battleProgress(msg.sender, opponent) */\n      jump\t// in\n    tag_201:\n        /* \"contents/Battle.sol\":2326:2342  dailyBattleCount */\n      0x07\n        /* \"contents/Battle.sol\":2326:2354  dailyBattleCount[msg.sender] */\n      0x00\n        /* \"contents/Battle.sol\":2343:2353  msg.sender */\n      caller\n        /* \"contents/Battle.sol\":2326:2354  dailyBattleCount[msg.sender] */\n      0xffffffffffffffffffffffffffffffffffffffff\n      and\n      0xffffffffffffffffffffffffffffffffffffffff\n      and\n      dup2\n      mstore\n      0x20\n      add\n      swap1\n      dup2\n      mstore\n      0x20\n      add\n      0x00\n      keccak256\n      0x00\n        /* \"contents/Battle.sol\":2326:2356  dailyBattleCount[msg.sender]++ */\n      dup2\n      sload\n      dup1\n      swap3\n      swap2\n      swap1\n      tag_203\n      swap1\n      tag_204\n      jump\t// in\n    tag_203:\n      swap2\n      swap1\n      pop\n      sstore\n      pop\n        /* \"contents/Battle.sol\":2396:2411  block.timestamp */\n      timestamp\n        /* \"contents/Battle.sol\":2367:2381  lastBattleTime */\n      0x08\n        /* \"contents/Battle.sol\":2367:2393  lastBattleTime[msg.sender] */\n      0x00\n        /* \"contents/Battle.sol\":2382:2392  msg.sender */\n      caller\n        /* \"contents/Battle.sol\":2367:2393  lastBattleTime[msg.sender] */\n      0xffffffffffffffffffffffffffffffffffffffff\n      and\n      0xffffffffffffffffffffffffffffffffffffffff\n      and\n      dup2\n      mstore\n      0x20\n      add\n      swap1\n      dup2\n      mstore\n      0x20\n      add\n      0x00\n      keccak256\n        /* \"contents/Battle.sol\":2367:2411  lastBattleTime[msg.sender] = block.timestamp */\n      dup2\n      swap1\n      sstore\n      pop\n        /* \"contents/Battle.sol\":1852:2419  {... */\n      pop\n      pop\n        /* \"contents/Battle.sol\":1810:2419  function battle(uint256 tokenId) external {... */\n      pop\n      jump\t// out\n        /* \"contents/Battle.sol\":8174:8300  function getDragonStatus(uint256 tokenId) external view returns(Dragon memory) {... */\n    tag_61:\n        /* \"contents/Battle.sol\":8238:8251  Dragon memory */\n      tag_205\n      tag_206\n      jump\t// in\n    tag_205:\n        /* \"contents/Battle.sol\":8271:8283  battleDragon */\n      0x04\n        /* \"contents/Battle.sol\":8271:8292  battleDragon[tokenId] */\n      0x00\n        /* \"contents/Battle.sol\":8284:8291  tokenId */\n      dup4\n        /* \"contents/Battle.sol\":8271:8292  battleDragon[tokenId] */\n      dup2\n      mstore\n      0x20\n      add\n      swap1\n      dup2\n      mstore\n      0x20\n      add\n      0x00\n      keccak256\n        /* \"contents/Battle.sol\":8264:8292  return battleDragon[tokenId] */\n      mload(0x40)\n      dup1\n      0x80\n      add\n      0x40\n      mstore\n      swap1\n      dup2\n      0x00\n      dup3\n      add\n      sload\n      dup2\n      mstore\n      0x20\n      add\n      0x01\n      dup3\n      add\n      sload\n      dup2\n      mstore\n      0x20\n      add\n      0x02\n      dup3\n      add\n      sload\n      dup2\n      mstore\n      0x20\n      add\n      0x03\n      dup3\n      add\n      sload\n      dup2\n      mstore\n      pop\n      pop\n      swap1\n      pop\n        /* \"contents/Battle.sol\":8174:8300  function getDragonStatus(uint256 tokenId) external view returns(Dragon memory) {... */\n      swap2\n      swap1\n      pop\n      jump\t// out\n        /* \"contents/Battle.sol\":299:326  IQuest public questContract */\n    tag_65:\n      0x02\n      0x00\n      swap1\n      sload\n      swap1\n      0x0100\n      exp\n      swap1\n      div\n      0xffffffffffffffffffffffffffffffffffffffff\n      and\n      dup2\n      jump\t// out\n        /* \"@openzeppelin/contracts/access/Ownable.sol\":2293:2394  function renounceOwnership() public virtual onlyOwner {... */\n    tag_69:\n        /* \"@openzeppelin/contracts/access/Ownable.sol\":1531:1544  _checkOwner() */\n      tag_209\n        /* \"@openzeppelin/contracts/access/Ownable.sol\":1531:1542  _checkOwner */\n      tag_144\n        /* \"@openzeppelin/contracts/access/Ownable.sol\":1531:1544  _checkOwner() */\n      jump\t// in\n    tag_209:\n        /* \"@openzeppelin/contracts/access/Ownable.sol\":2357:2387  _transferOwnership(address(0)) */\n      tag_211\n        /* \"@openzeppelin/contracts/access/Ownable.sol\":2384:2385  0 */\n      0x00\n        /* \"@openzeppelin/contracts/access/Ownable.sol\":2357:2375  _transferOwnership */\n      tag_212\n        /* \"@openzeppelin/contracts/access/Ownable.sol\":2357:2387  _transferOwnership(address(0)) */\n      jump\t// in\n    tag_211:\n        /* \"@openzeppelin/contracts/access/Ownable.sol\":2293:2394  function renounceOwnership() public virtual onlyOwner {... */\n      jump\t// out\n        /* \"@openzeppelin/contracts/access/Ownable.sol\":1638:1723  function owner() public view virtual returns (address) {... */\n    tag_71:\n        /* \"@openzeppelin/contracts/access/Ownable.sol\":1684:1691  address */\n      0x00\n        /* \"@openzeppelin/contracts/access/Ownable.sol\":1710:1716  _owner */\n      dup1\n      0x00\n      swap1\n      sload\n      swap1\n      0x0100\n      exp\n      swap1\n      div\n      0xffffffffffffffffffffffffffffffffffffffff\n      and\n        /* \"@openzeppelin/contracts/access/Ownable.sol\":1703:1716  return _owner */\n      swap1\n      pop\n        /* \"@openzeppelin/contracts/access/Ownable.sol\":1638:1723  function owner() public view virtual returns (address) {... */\n      swap1\n      jump\t// out\n        /* \"contents/Battle.sol\":264:292  IToken public dragonContract */\n    tag_75:\n      0x01\n      0x00\n      swap1\n      sload\n      swap1\n      0x0100\n      exp\n      swap1\n      div\n      0xffffffffffffffffffffffffffffffffffffffff\n      and\n      dup2\n      jump\t// out\n        /* \"contents/Battle.sol\":1037:1069  uint256 public battleReward = 10 */\n    tag_79:\n      sload(0x0d)\n      dup2\n      jump\t// out\n        /* \"contents/Battle.sol\":8769:8866  function today() public view returns (uint256) {... */\n    tag_82:\n        /* \"contents/Battle.sol\":8807:8814  uint256 */\n      0x00\n        /* \"contents/Battle.sol\":8852:8858  1 days */\n      0x015180\n        /* \"contents/Battle.sol\":8834:8849  block.timestamp */\n      timestamp\n        /* \"contents/Battle.sol\":8834:8858  block.timestamp / 1 days */\n      tag_215\n      swap2\n      swap1\n      tag_216\n      jump\t// in\n    tag_215:\n        /* \"contents/Battle.sol\":8827:8858  return block.timestamp / 1 days */\n      swap1\n      pop\n        /* \"contents/Battle.sol\":8769:8866  function today() public view returns (uint256) {... */\n      swap1\n      jump\t// out\n        /* \"contents/Battle.sol\":7461:7946  function addDummy(uint256 count) external onlyOwner{... */\n    tag_86:\n        /* \"@openzeppelin/contracts/access/Ownable.sol\":1531:1544  _checkOwner() */\n      tag_218\n        /* \"@openzeppelin/contracts/access/Ownable.sol\":1531:1542  _checkOwner */\n      tag_144\n        /* \"@openzeppelin/contracts/access/Ownable.sol\":1531:1544  _checkOwner() */\n      jump\t// in\n    tag_218:\n        /* \"contents/Battle.sol\":7527:7536  uint256 i */\n      0x00\n        /* \"contents/Battle.sol\":7523:7939  for(uint256 i = 0; i < count; i++) {... */\n    tag_220:\n        /* \"contents/Battle.sol\":7546:7551  count */\n      dup2\n        /* \"contents/Battle.sol\":7542:7543  i */\n      dup2\n        /* \"contents/Battle.sol\":7542:7551  i < count */\n      lt\n        /* \"contents/Battle.sol\":7523:7939  for(uint256 i = 0; i < count; i++) {... */\n      iszero\n      tag_221\n      jumpi\n        /* \"contents/Battle.sol\":7573:7593  address dummyAddress */\n      0x00\n        /* \"contents/Battle.sol\":7612:7624  dummyCounter */\n      sload(0x0b)\n        /* \"contents/Battle.sol\":7573:7626  address dummyAddress = address(uint160(dummyCounter)) */\n      swap1\n      pop\n        /* \"contents/Battle.sol\":7641:7653  dummyCounter */\n      0x0b\n      0x00\n        /* \"contents/Battle.sol\":7641:7655  dummyCounter++ */\n      dup2\n      sload\n      dup1\n      swap3\n      swap2\n      swap1\n      tag_223\n      swap1\n      tag_204\n      jump\t// in\n    tag_223:\n      swap2\n      swap1\n      pop\n      sstore\n      pop\n        /* \"contents/Battle.sol\":7670:7679  dummyAddr */\n      0x0a\n        /* \"contents/Battle.sol\":7685:7697  dummyAddress */\n      dup2\n        /* \"contents/Battle.sol\":7670:7698  dummyAddr.push(dummyAddress) */\n      swap1\n      dup1\n      0x01\n      dup2\n      sload\n      add\n      dup1\n      dup3\n      sstore\n      dup1\n      swap2\n      pop\n      pop\n      0x01\n      swap1\n      sub\n      swap1\n      0x00\n      mstore\n      keccak256(0x00, 0x20)\n      add\n      0x00\n      swap1\n      swap2\n      swap1\n      swap2\n      swap1\n      swap2\n      0x0100\n      exp\n      dup2\n      sload\n      dup2\n      0xffffffffffffffffffffffffffffffffffffffff\n      mul\n      not\n      and\n      swap1\n      dup4\n      0xffffffffffffffffffffffffffffffffffffffff\n      and\n      mul\n      or\n      swap1\n      sstore\n      pop\n        /* \"contents/Battle.sol\":7713:7731  registeredBattlers */\n      0x09\n        /* \"contents/Battle.sol\":7737:7749  dummyAddress */\n      dup2\n        /* \"contents/Battle.sol\":7713:7750  registeredBattlers.push(dummyAddress) */\n      swap1\n      dup1\n      0x01\n      dup2\n      sload\n      add\n      dup1\n      dup3\n      sstore\n      dup1\n      swap2\n      pop\n      pop\n      0x01\n      swap1\n      sub\n      swap1\n      0x00\n      mstore\n      keccak256(0x00, 0x20)\n      add\n      0x00\n      swap1\n      swap2\n      swap1\n      swap2\n      swap1\n      swap2\n      0x0100\n      exp\n      dup2\n      sload\n      dup2\n      0xffffffffffffffffffffffffffffffffffffffff\n      mul\n      not\n      and\n      swap1\n      dup4\n      0xffffffffffffffffffffffffffffffffffffffff\n      and\n      mul\n      or\n      swap1\n      sstore\n      pop\n        /* \"contents/Battle.sol\":7785:7927  Dragon({... */\n      mload(0x40)\n      dup1\n      0x80\n      add\n      0x40\n      mstore\n      dup1\n        /* \"contents/Battle.sol\":7820:7821  0 */\n      0x00\n        /* \"contents/Battle.sol\":7785:7927  Dragon({... */\n      dup2\n      mstore\n      0x20\n      add\n        /* \"contents/Battle.sol\":7847:7850  100 */\n      0x64\n        /* \"contents/Battle.sol\":7785:7927  Dragon({... */\n      dup2\n      mstore\n      0x20\n      add\n        /* \"contents/Battle.sol\":7878:7881  100 */\n      0x64\n        /* \"contents/Battle.sol\":7785:7927  Dragon({... */\n      dup2\n      mstore\n      0x20\n      add\n        /* \"contents/Battle.sol\":7908:7911  100 */\n      0x64\n        /* \"contents/Battle.sol\":7785:7927  Dragon({... */\n      dup2\n      mstore\n      pop\n        /* \"contents/Battle.sol\":7767:7779  battleDragon */\n      0x04\n        /* \"contents/Battle.sol\":7767:7782  battleDragon[0] */\n      0x00\n        /* \"contents/Battle.sol\":7780:7781  0 */\n      dup1\n        /* \"contents/Battle.sol\":7767:7782  battleDragon[0] */\n      dup2\n      mstore\n      0x20\n      add\n      swap1\n      dup2\n      mstore\n      0x20\n      add\n      0x00\n      keccak256\n        /* \"contents/Battle.sol\":7767:7927  battleDragon[0] = Dragon({... */\n      0x00\n      dup3\n      add\n      mload\n      dup2\n      0x00\n      add\n      sstore\n      0x20\n      dup3\n      add\n      mload\n      dup2\n      0x01\n      add\n      sstore\n      0x40\n      dup3\n      add\n      mload\n      dup2\n      0x02\n      add\n      sstore\n      0x60\n      dup3\n      add\n      mload\n      dup2\n      0x03\n      add\n      sstore\n      swap1\n      pop\n      pop\n        /* \"contents/Battle.sol\":7558:7939  {... */\n      pop\n        /* \"contents/Battle.sol\":7553:7556  i++ */\n      dup1\n      dup1\n      0x01\n      add\n      swap2\n      pop\n      pop\n        /* \"contents/Battle.sol\":7523:7939  for(uint256 i = 0; i < count; i++) {... */\n      jump(tag_220)\n    tag_221:\n      pop\n        /* \"contents/Battle.sol\":7461:7946  function addDummy(uint256 count) external onlyOwner{... */\n      pop\n      jump\t// out\n        /* \"contents/Battle.sol\":5574:6296  function regiBattle(uint256 tokenId) external {... */\n    tag_89:\n        /* \"contents/Battle.sol\":5674:5684  msg.sender */\n      caller\n        /* \"contents/Battle.sol\":5639:5684  dragonContract.ownerOf(tokenId) == msg.sender */\n      0xffffffffffffffffffffffffffffffffffffffff\n      and\n        /* \"contents/Battle.sol\":5639:5653  dragonContract */\n      0x01\n      0x00\n      swap1\n      sload\n      swap1\n      0x0100\n      exp\n      swap1\n      div\n      0xffffffffffffffffffffffffffffffffffffffff\n      and\n        /* \"contents/Battle.sol\":5639:5661  dragonContract.ownerOf */\n      0xffffffffffffffffffffffffffffffffffffffff\n      and\n      0x6352211e\n        /* \"contents/Battle.sol\":5662:5669  tokenId */\n      dup4\n        /* \"contents/Battle.sol\":5639:5670  dragonContract.ownerOf(tokenId) */\n      mload(0x40)\n      dup3\n      0xffffffff\n      and\n      0xe0\n      shl\n      dup2\n      mstore\n      0x04\n      add\n      tag_227\n      swap2\n      swap1\n      tag_33\n      jump\t// in\n    tag_227:\n      0x20\n      mload(0x40)\n      dup1\n      dup4\n      sub\n      dup2\n      dup7\n      gas\n      staticcall\n      iszero\n      dup1\n      iszero\n      tag_229\n      jumpi\n      returndatasize\n      0x00\n      dup1\n      returndatacopy\n      revert(0x00, returndatasize)\n    tag_229:\n      pop\n      pop\n      pop\n      pop\n      mload(0x40)\n      returndatasize\n      not(0x1f)\n      0x1f\n      dup3\n      add\n      and\n      dup3\n      add\n      dup1\n      0x40\n      mstore\n      pop\n      dup2\n      add\n      swap1\n      tag_230\n      swap2\n      swap1\n      tag_111\n      jump\t// in\n    tag_230:\n        /* \"contents/Battle.sol\":5639:5684  dragonContract.ownerOf(tokenId) == msg.sender */\n      0xffffffffffffffffffffffffffffffffffffffff\n      and\n      eq\n        /* \"contents/Battle.sol\":5631:5698  require(dragonContract.ownerOf(tokenId) == msg.sender, \"Not Owner\") */\n      tag_231\n      jumpi\n      mload(0x40)\n      0x08c379a000000000000000000000000000000000000000000000000000000000\n      dup2\n      mstore\n      0x04\n      add\n      tag_232\n      swap1\n      tag_114\n      jump\t// in\n    tag_232:\n      mload(0x40)\n      dup1\n      swap2\n      sub\n      swap1\n      revert\n    tag_231:\n        /* \"contents/Battle.sol\":5750:5751  0 */\n      0x00\n        /* \"contents/Battle.sol\":5717:5734  registeredDragons */\n      0x06\n        /* \"contents/Battle.sol\":5717:5746  registeredDragons[msg.sender] */\n      0x00\n        /* \"contents/Battle.sol\":5735:5745  msg.sender */\n      caller\n        /* \"contents/Battle.sol\":5717:5746  registeredDragons[msg.sender] */\n      0xffffffffffffffffffffffffffffffffffffffff\n      and\n      0xffffffffffffffffffffffffffffffffffffffff\n      and\n      dup2\n      mstore\n      0x20\n      add\n      swap1\n      dup2\n      mstore\n      0x20\n      add\n      0x00\n      keccak256\n      sload\n        /* \"contents/Battle.sol\":5717:5751  registeredDragons[msg.sender] == 0 */\n      eq\n        /* \"contents/Battle.sol\":5709:5774  require(registeredDragons[msg.sender] == 0, \"Already registered\") */\n      tag_233\n      jumpi\n      mload(0x40)\n      0x08c379a000000000000000000000000000000000000000000000000000000000\n      dup2\n      mstore\n      0x04\n      add\n      tag_234\n      swap1\n      tag_235\n      jump\t// in\n    tag_234:\n      mload(0x40)\n      dup1\n      swap2\n      sub\n      swap1\n      revert\n    tag_233:\n        /* \"contents/Battle.sol\":5788:5819  IToken.GrowthStage currentStage */\n      0x00\n        /* \"contents/Battle.sol\":5825:5839  dragonContract */\n      0x01\n      0x00\n      swap1\n      sload\n      swap1\n      0x0100\n      exp\n      swap1\n      div\n      0xffffffffffffffffffffffffffffffffffffffff\n      and\n        /* \"contents/Battle.sol\":5825:5853  dragonContract.getGrowthInfo */\n      0xffffffffffffffffffffffffffffffffffffffff\n      and\n      0xb564ea86\n        /* \"contents/Battle.sol\":5854:5861  tokenId */\n      dup4\n        /* \"contents/Battle.sol\":5825:5862  dragonContract.getGrowthInfo(tokenId) */\n      mload(0x40)\n      dup3\n      0xffffffff\n      and\n      0xe0\n      shl\n      dup2\n      mstore\n      0x04\n      add\n      tag_236\n      swap2\n      swap1\n      tag_33\n      jump\t// in\n    tag_236:\n      0x40\n      dup1\n      mload\n      dup1\n      dup4\n      sub\n      dup2\n      dup7\n      gas\n      staticcall\n      iszero\n      dup1\n      iszero\n      tag_238\n      jumpi\n      returndatasize\n      0x00\n      dup1\n      returndatacopy\n      revert(0x00, returndatasize)\n    tag_238:\n      pop\n      pop\n      pop\n      pop\n      mload(0x40)\n      returndatasize\n      not(0x1f)\n      0x1f\n      dup3\n      add\n      and\n      dup3\n      add\n      dup1\n      0x40\n      mstore\n      pop\n      dup2\n      add\n      swap1\n      tag_239\n      swap2\n      swap1\n      tag_240\n      jump\t// in\n    tag_239:\n        /* \"contents/Battle.sol\":5787:5862  (IToken.GrowthStage currentStage, ) = dragonContract.getGrowthInfo(tokenId) */\n      pop\n      swap1\n      pop\n        /* \"contents/Battle.sol\":5897:5921  IToken.GrowthStage.Adult */\n      0x03\n        /* \"contents/Battle.sol\":5881:5921  currentStage == IToken.GrowthStage.Adult */\n      dup1\n      dup2\n      gt\n      iszero\n      tag_241\n      jumpi\n      tag_242\n      tag_243\n      jump\t// in\n    tag_242:\n    tag_241:\n        /* \"contents/Battle.sol\":5881:5893  currentStage */\n      dup2\n        /* \"contents/Battle.sol\":5881:5921  currentStage == IToken.GrowthStage.Adult */\n      0x03\n      dup2\n      gt\n      iszero\n      tag_244\n      jumpi\n      tag_245\n      tag_243\n      jump\t// in\n    tag_245:\n    tag_244:\n      eq\n        /* \"contents/Battle.sol\":5873:5944  require(currentStage == IToken.GrowthStage.Adult, \"token is not adult\") */\n      tag_246\n      jumpi\n      mload(0x40)\n      0x08c379a000000000000000000000000000000000000000000000000000000000\n      dup2\n      mstore\n      0x04\n      add\n      tag_247\n      swap1\n      tag_248\n      jump\t// in\n    tag_247:\n      mload(0x40)\n      dup1\n      swap2\n      sub\n      swap1\n      revert\n    tag_246:\n        /* \"contents/Battle.sol\":5993:5994  0 */\n      0x00\n        /* \"contents/Battle.sol\":5960:5972  battleDragon */\n      0x04\n        /* \"contents/Battle.sol\":5960:5981  battleDragon[tokenId] */\n      0x00\n        /* \"contents/Battle.sol\":5973:5980  tokenId */\n      dup5\n        /* \"contents/Battle.sol\":5960:5981  battleDragon[tokenId] */\n      dup2\n      mstore\n      0x20\n      add\n      swap1\n      dup2\n      mstore\n      0x20\n      add\n      0x00\n      keccak256\n        /* \"contents/Battle.sol\":5960:5989  battleDragon[tokenId].tokenId */\n      0x00\n      add\n      sload\n        /* \"contents/Battle.sol\":5960:5994  battleDragon[tokenId].tokenId == 0 */\n      sub\n        /* \"contents/Battle.sol\":5957:6191  if(battleDragon[tokenId].tokenId == 0){... */\n      tag_249\n      jumpi\n        /* \"contents/Battle.sol\":6034:6179  Dragon({... */\n      mload(0x40)\n      dup1\n      0x80\n      add\n      0x40\n      mstore\n      dup1\n        /* \"contents/Battle.sol\":6068:6075  tokenId */\n      dup4\n        /* \"contents/Battle.sol\":6034:6179  Dragon({... */\n      dup2\n      mstore\n      0x20\n      add\n        /* \"contents/Battle.sol\":6101:6104  100 */\n      0x64\n        /* \"contents/Battle.sol\":6034:6179  Dragon({... */\n      dup2\n      mstore\n      0x20\n      add\n        /* \"contents/Battle.sol\":6131:6134  100 */\n      0x64\n        /* \"contents/Battle.sol\":6034:6179  Dragon({... */\n      dup2\n      mstore\n      0x20\n      add\n        /* \"contents/Battle.sol\":6160:6163  100 */\n      0x64\n        /* \"contents/Battle.sol\":6034:6179  Dragon({... */\n      dup2\n      mstore\n      pop\n        /* \"contents/Battle.sol\":6010:6022  battleDragon */\n      0x04\n        /* \"contents/Battle.sol\":6010:6031  battleDragon[tokenId] */\n      0x00\n        /* \"contents/Battle.sol\":6023:6030  tokenId */\n      dup5\n        /* \"contents/Battle.sol\":6010:6031  battleDragon[tokenId] */\n      dup2\n      mstore\n      0x20\n      add\n      swap1\n      dup2\n      mstore\n      0x20\n      add\n      0x00\n      keccak256\n        /* \"contents/Battle.sol\":6010:6179  battleDragon[tokenId] = Dragon({... */\n      0x00\n      dup3\n      add\n      mload\n      dup2\n      0x00\n      add\n      sstore\n      0x20\n      dup3\n      add\n      mload\n      dup2\n      0x01\n      add\n      sstore\n      0x40\n      dup3\n      add\n      mload\n      dup2\n      0x02\n      add\n      sstore\n      0x60\n      dup3\n      add\n      mload\n      dup2\n      0x03\n      add\n      sstore\n      swap1\n      pop\n      pop\n        /* \"contents/Battle.sol\":5957:6191  if(battleDragon[tokenId].tokenId == 0){... */\n    tag_249:\n        /* \"contents/Battle.sol\":6235:6242  tokenId */\n      dup2\n        /* \"contents/Battle.sol\":6203:6220  registeredDragons */\n      0x06\n        /* \"contents/Battle.sol\":6203:6232  registeredDragons[msg.sender] */\n      0x00\n        /* \"contents/Battle.sol\":6221:6231  msg.sender */\n      caller\n        /* \"contents/Battle.sol\":6203:6232  registeredDragons[msg.sender] */\n      0xffffffffffffffffffffffffffffffffffffffff\n      and\n      0xffffffffffffffffffffffffffffffffffffffff\n      and\n      dup2\n      mstore\n      0x20\n      add\n      swap1\n      dup2\n      mstore\n      0x20\n      add\n      0x00\n      keccak256\n        /* \"contents/Battle.sol\":6203:6242  registeredDragons[msg.sender] = tokenId */\n      dup2\n      swap1\n      sstore\n      pop\n        /* \"contents/Battle.sol\":6253:6271  registeredBattlers */\n      0x09\n        /* \"contents/Battle.sol\":6277:6287  msg.sender */\n      caller\n        /* \"contents/Battle.sol\":6253:6288  registeredBattlers.push(msg.sender) */\n      swap1\n      dup1\n      0x01\n      dup2\n      sload\n      add\n      dup1\n      dup3\n      sstore\n      dup1\n      swap2\n      pop\n      pop\n      0x01\n      swap1\n      sub\n      swap1\n      0x00\n      mstore\n      keccak256(0x00, 0x20)\n      add\n      0x00\n      swap1\n      swap2\n      swap1\n      swap2\n      swap1\n      swap2\n      0x0100\n      exp\n      dup2\n      sload\n      dup2\n      0xffffffffffffffffffffffffffffffffffffffff\n      mul\n      not\n      and\n      swap1\n      dup4\n      0xffffffffffffffffffffffffffffffffffffffff\n      and\n      mul\n      or\n      swap1\n      sstore\n      pop\n        /* \"contents/Battle.sol\":5620:6296  {... */\n      pop\n        /* \"contents/Battle.sol\":5574:6296  function regiBattle(uint256 tokenId) external {... */\n      pop\n      jump\t// out\n        /* \"contents/Battle.sol\":8449:8647  function getPlayerRecords(address player) external view onlyOwner returns(BattleRecord memory)  {... */\n    tag_92:\n        /* \"contents/Battle.sol\":8523:8542  BattleRecord memory */\n      tag_251\n      tag_147\n      jump\t// in\n    tag_251:\n        /* \"@openzeppelin/contracts/access/Ownable.sol\":1531:1544  _checkOwner() */\n      tag_253\n        /* \"@openzeppelin/contracts/access/Ownable.sol\":1531:1542  _checkOwner */\n      tag_144\n        /* \"@openzeppelin/contracts/access/Ownable.sol\":1531:1544  _checkOwner() */\n      jump\t// in\n    tag_253:\n        /* \"contents/Battle.sol\":8556:8571  uint256 tokenId */\n      0x00\n        /* \"contents/Battle.sol\":8574:8591  registeredDragons */\n      0x06\n        /* \"contents/Battle.sol\":8574:8599  registeredDragons[player] */\n      0x00\n        /* \"contents/Battle.sol\":8592:8598  player */\n      dup5\n        /* \"contents/Battle.sol\":8574:8599  registeredDragons[player] */\n      0xffffffffffffffffffffffffffffffffffffffff\n      and\n      0xffffffffffffffffffffffffffffffffffffffff\n      and\n      dup2\n      mstore\n      0x20\n      add\n      swap1\n      dup2\n      mstore\n      0x20\n      add\n      0x00\n      keccak256\n      sload\n        /* \"contents/Battle.sol\":8556:8599  uint256 tokenId = registeredDragons[player] */\n      swap1\n      pop\n        /* \"contents/Battle.sol\":8617:8630  dragonRecords */\n      0x05\n        /* \"contents/Battle.sol\":8617:8639  dragonRecords[tokenId] */\n      0x00\n        /* \"contents/Battle.sol\":8631:8638  tokenId */\n      dup3\n        /* \"contents/Battle.sol\":8617:8639  dragonRecords[tokenId] */\n      dup2\n      mstore\n      0x20\n      add\n      swap1\n      dup2\n      mstore\n      0x20\n      add\n      0x00\n      keccak256\n        /* \"contents/Battle.sol\":8610:8639  return dragonRecords[tokenId] */\n      mload(0x40)\n      dup1\n      0x40\n      add\n      0x40\n      mstore\n      swap1\n      dup2\n      0x00\n      dup3\n      add\n      sload\n      dup2\n      mstore\n      0x20\n      add\n      0x01\n      dup3\n      add\n      sload\n      dup2\n      mstore\n      pop\n      pop\n      swap2\n      pop\n      pop\n        /* \"contents/Battle.sol\":8449:8647  function getPlayerRecords(address player) external view onlyOwner returns(BattleRecord memory)  {... */\n      swap2\n      swap1\n      pop\n      jump\t// out\n        /* \"contents/Battle.sol\":7956:8166  function deleteDummy() external onlyOwner {... */\n    tag_95:\n        /* \"@openzeppelin/contracts/access/Ownable.sol\":1531:1544  _checkOwner() */\n      tag_256\n        /* \"@openzeppelin/contracts/access/Ownable.sol\":1531:1542  _checkOwner */\n      tag_144\n        /* \"@openzeppelin/contracts/access/Ownable.sol\":1531:1544  _checkOwner() */\n      jump\t// in\n    tag_256:\n        /* \"contents/Battle.sol\":8013:8022  uint256 i */\n      0x00\n        /* \"contents/Battle.sol\":8009:8105  for(uint256 i = 0; i <= dummyAddr.length; i++) {... */\n    tag_258:\n        /* \"contents/Battle.sol\":8033:8042  dummyAddr */\n      0x0a\n        /* \"contents/Battle.sol\":8033:8049  dummyAddr.length */\n      dup1\n      sload\n      swap1\n      pop\n        /* \"contents/Battle.sol\":8028:8029  i */\n      dup2\n        /* \"contents/Battle.sol\":8028:8049  i <= dummyAddr.length */\n      gt\n        /* \"contents/Battle.sol\":8009:8105  for(uint256 i = 0; i <= dummyAddr.length; i++) {... */\n      tag_259\n      jumpi\n        /* \"contents/Battle.sol\":8078:8090  battleDragon */\n      0x04\n        /* \"contents/Battle.sol\":8078:8093  battleDragon[0] */\n      0x00\n        /* \"contents/Battle.sol\":8091:8092  0 */\n      dup1\n        /* \"contents/Battle.sol\":8078:8093  battleDragon[0] */\n      dup2\n      mstore\n      0x20\n      add\n      swap1\n      dup2\n      mstore\n      0x20\n      add\n      0x00\n      keccak256\n      0x00\n        /* \"contents/Battle.sol\":8071:8093  delete battleDragon[0] */\n      dup1\n      dup3\n      add\n      0x00\n      swap1\n      sstore\n      0x01\n      dup3\n      add\n      0x00\n      swap1\n      sstore\n      0x02\n      dup3\n      add\n      0x00\n      swap1\n      sstore\n      0x03\n      dup3\n      add\n      0x00\n      swap1\n      sstore\n      pop\n      pop\n        /* \"contents/Battle.sol\":8051:8054  i++ */\n      dup1\n      dup1\n      tag_261\n      swap1\n      tag_204\n      jump\t// in\n    tag_261:\n      swap2\n      pop\n      pop\n        /* \"contents/Battle.sol\":8009:8105  for(uint256 i = 0; i <= dummyAddr.length; i++) {... */\n      jump(tag_258)\n    tag_259:\n      pop\n        /* \"contents/Battle.sol\":8122:8131  dummyAddr */\n      0x0a\n      0x00\n        /* \"contents/Battle.sol\":8115:8131  delete dummyAddr */\n      tag_262\n      swap2\n      swap1\n      tag_263\n      jump\t// in\n    tag_262:\n        /* \"contents/Battle.sol\":8157:8158  0 */\n      0x00\n        /* \"contents/Battle.sol\":8142:8154  dummyCounter */\n      0x0b\n        /* \"contents/Battle.sol\":8142:8158  dummyCounter = 0 */\n      dup2\n      swap1\n      sstore\n      pop\n        /* \"contents/Battle.sol\":7956:8166  function deleteDummy() external onlyOwner {... */\n      jump\t// out\n        /* \"contents/Battle.sol\":1076:1111  uint256 public dailyBattleLimit = 3 */\n    tag_97:\n      sload(0x0e)\n      dup2\n      jump\t// out\n        /* \"@openzeppelin/contracts/access/Ownable.sol\":2543:2758  function transferOwnership(address newOwner) public virtual onlyOwner {... */\n    tag_101:\n        /* \"@openzeppelin/contracts/access/Ownable.sol\":1531:1544  _checkOwner() */\n      tag_265\n        /* \"@openzeppelin/contracts/access/Ownable.sol\":1531:1542  _checkOwner */\n      tag_144\n        /* \"@openzeppelin/contracts/access/Ownable.sol\":1531:1544  _checkOwner() */\n      jump\t// in\n    tag_265:\n        /* \"@openzeppelin/contracts/access/Ownable.sol\":2647:2648  0 */\n      0x00\n        /* \"@openzeppelin/contracts/access/Ownable.sol\":2627:2649  newOwner == address(0) */\n      0xffffffffffffffffffffffffffffffffffffffff\n      and\n        /* \"@openzeppelin/contracts/access/Ownable.sol\":2627:2635  newOwner */\n      dup2\n        /* \"@openzeppelin/contracts/access/Ownable.sol\":2627:2649  newOwner == address(0) */\n      0xffffffffffffffffffffffffffffffffffffffff\n      and\n      sub\n        /* \"@openzeppelin/contracts/access/Ownable.sol\":2623:2714  if (newOwner == address(0)) {... */\n      tag_267\n      jumpi\n        /* \"@openzeppelin/contracts/access/Ownable.sol\":2700:2701  0 */\n      0x00\n        /* \"@openzeppelin/contracts/access/Ownable.sol\":2672:2703  OwnableInvalidOwner(address(0)) */\n      mload(0x40)\n      0x1e4fbdf700000000000000000000000000000000000000000000000000000000\n      dup2\n      mstore\n      0x04\n      add\n      tag_268\n      swap2\n      swap1\n      tag_73\n      jump\t// in\n    tag_268:\n      mload(0x40)\n      dup1\n      swap2\n      sub\n      swap1\n      revert\n        /* \"@openzeppelin/contracts/access/Ownable.sol\":2623:2714  if (newOwner == address(0)) {... */\n    tag_267:\n        /* \"@openzeppelin/contracts/access/Ownable.sol\":2723:2751  _transferOwnership(newOwner) */\n      tag_269\n        /* \"@openzeppelin/contracts/access/Ownable.sol\":2742:2750  newOwner */\n      dup2\n        /* \"@openzeppelin/contracts/access/Ownable.sol\":2723:2741  _transferOwnership */\n      tag_212\n        /* \"@openzeppelin/contracts/access/Ownable.sol\":2723:2751  _transferOwnership(newOwner) */\n      jump\t// in\n    tag_269:\n        /* \"@openzeppelin/contracts/access/Ownable.sol\":2543:2758  function transferOwnership(address newOwner) public virtual onlyOwner {... */\n      pop\n      jump\t// out\n        /* \"contents/Battle.sol\":333:366  IDragonDrink public drinkContract */\n    tag_103:\n      0x03\n      0x00\n      swap1\n      sload\n      swap1\n      0x0100\n      exp\n      swap1\n      div\n      0xffffffffffffffffffffffffffffffffffffffff\n      and\n      dup2\n      jump\t// out\n        /* \"@openzeppelin/contracts/access/Ownable.sol\":1796:1958  function _checkOwner() internal view virtual {... */\n    tag_144:\n        /* \"@openzeppelin/contracts/access/Ownable.sol\":1866:1878  _msgSender() */\n      tag_271\n        /* \"@openzeppelin/contracts/access/Ownable.sol\":1866:1876  _msgSender */\n      tag_272\n        /* \"@openzeppelin/contracts/access/Ownable.sol\":1866:1878  _msgSender() */\n      jump\t// in\n    tag_271:\n        /* \"@openzeppelin/contracts/access/Ownable.sol\":1855:1878  owner() != _msgSender() */\n      0xffffffffffffffffffffffffffffffffffffffff\n      and\n        /* \"@openzeppelin/contracts/access/Ownable.sol\":1855:1862  owner() */\n      tag_273\n        /* \"@openzeppelin/contracts/access/Ownable.sol\":1855:1860  owner */\n      tag_71\n        /* \"@openzeppelin/contracts/access/Ownable.sol\":1855:1862  owner() */\n      jump\t// in\n    tag_273:\n        /* \"@openzeppelin/contracts/access/Ownable.sol\":1855:1878  owner() != _msgSender() */\n      0xffffffffffffffffffffffffffffffffffffffff\n      and\n      eq\n        /* \"@openzeppelin/contracts/access/Ownable.sol\":1851:1952  if (owner() != _msgSender()) {... */\n      tag_274\n      jumpi\n        /* \"@openzeppelin/contracts/access/Ownable.sol\":1928:1940  _msgSender() */\n      tag_275\n        /* \"@openzeppelin/contracts/access/Ownable.sol\":1928:1938  _msgSender */\n      tag_272\n        /* \"@openzeppelin/contracts/access/Ownable.sol\":1928:1940  _msgSender() */\n      jump\t// in\n    tag_275:\n        /* \"@openzeppelin/contracts/access/Ownable.sol\":1901:1941  OwnableUnauthorizedAccount(_msgSender()) */\n      mload(0x40)\n      0x118cdaa700000000000000000000000000000000000000000000000000000000\n      dup2\n      mstore\n      0x04\n      add\n      tag_276\n      swap2\n      swap1\n      tag_73\n      jump\t// in\n    tag_276:\n      mload(0x40)\n      dup1\n      swap2\n      sub\n      swap1\n      revert\n        /* \"@openzeppelin/contracts/access/Ownable.sol\":1851:1952  if (owner() != _msgSender()) {... */\n    tag_274:\n        /* \"@openzeppelin/contracts/access/Ownable.sol\":1796:1958  function _checkOwner() internal view virtual {... */\n      jump\t// out\n        /* \"contents/Battle.sol\":6886:7453  function findRandomOpponent(address exclude) internal view returns(address) {... */\n    tag_187:\n        /* \"contents/Battle.sol\":6953:6960  address */\n      0x00\n        /* \"contents/Battle.sol\":6973:6996  uint256 registeredCount */\n      dup1\n        /* \"contents/Battle.sol\":6999:7017  registeredBattlers */\n      0x09\n        /* \"contents/Battle.sol\":6999:7024  registeredBattlers.length */\n      dup1\n      sload\n      swap1\n      pop\n        /* \"contents/Battle.sol\":6973:7024  uint256 registeredCount = registeredBattlers.length */\n      swap1\n      pop\n        /* \"contents/Battle.sol\":7057:7058  1 */\n      0x01\n        /* \"contents/Battle.sol\":7038:7053  registeredCount */\n      dup2\n        /* \"contents/Battle.sol\":7038:7058  registeredCount == 1 */\n      sub\n        /* \"contents/Battle.sol\":7035:7104  if(registeredCount == 1) {... */\n      tag_278\n      jumpi\n        /* \"contents/Battle.sol\":7090:7091  0 */\n      0x00\n        /* \"contents/Battle.sol\":7075:7092  return address(0) */\n      swap2\n      pop\n      pop\n      jump(tag_277)\n        /* \"contents/Battle.sol\":7035:7104  if(registeredCount == 1) {... */\n    tag_278:\n        /* \"contents/Battle.sol\":7116:7135  uint256 randomIndex */\n      0x00\n        /* \"contents/Battle.sol\":7212:7227  registeredCount */\n      dup2\n        /* \"contents/Battle.sol\":7173:7188  block.timestamp */\n      timestamp\n        /* \"contents/Battle.sol\":7190:7206  block.prevrandao */\n      prevrandao\n        /* \"contents/Battle.sol\":7156:7207  abi.encodePacked(block.timestamp, block.prevrandao) */\n      add(0x20, mload(0x40))\n      tag_279\n      swap3\n      swap2\n      swap1\n      tag_131\n      jump\t// in\n    tag_279:\n      mload(0x40)\n      0x20\n      dup2\n      dup4\n      sub\n      sub\n      dup2\n      mstore\n      swap1\n      0x40\n      mstore\n        /* \"contents/Battle.sol\":7146:7208  keccak256(abi.encodePacked(block.timestamp, block.prevrandao)) */\n      dup1\n      mload\n      swap1\n      0x20\n      add\n      keccak256\n        /* \"contents/Battle.sol\":7138:7209  uint256(keccak256(abi.encodePacked(block.timestamp, block.prevrandao))) */\n      0x00\n      shr\n        /* \"contents/Battle.sol\":7138:7227  uint256(keccak256(abi.encodePacked(block.timestamp, block.prevrandao))) % registeredCount */\n      tag_280\n      swap2\n      swap1\n      tag_133\n      jump\t// in\n    tag_280:\n        /* \"contents/Battle.sol\":7116:7227  uint256 randomIndex = uint256(keccak256(abi.encodePacked(block.timestamp, block.prevrandao))) % registeredCount */\n      swap1\n      pop\n        /* \"contents/Battle.sol\":7238:7254  address opponent */\n      0x00\n        /* \"contents/Battle.sol\":7257:7275  registeredBattlers */\n      0x09\n        /* \"contents/Battle.sol\":7276:7287  randomIndex */\n      dup3\n        /* \"contents/Battle.sol\":7257:7288  registeredBattlers[randomIndex] */\n      dup2\n      sload\n      dup2\n      lt\n      tag_281\n      jumpi\n      tag_282\n      tag_164\n      jump\t// in\n    tag_282:\n    tag_281:\n      swap1\n      0x00\n      mstore\n      keccak256(0x00, 0x20)\n      add\n      0x00\n      swap1\n      sload\n      swap1\n      0x0100\n      exp\n      swap1\n      div\n      0xffffffffffffffffffffffffffffffffffffffff\n      and\n        /* \"contents/Battle.sol\":7238:7288  address opponent = registeredBattlers[randomIndex] */\n      swap1\n      pop\n        /* \"contents/Battle.sol\":7316:7323  exclude */\n      dup5\n        /* \"contents/Battle.sol\":7304:7323  opponent == exclude */\n      0xffffffffffffffffffffffffffffffffffffffff\n      and\n        /* \"contents/Battle.sol\":7304:7312  opponent */\n      dup2\n        /* \"contents/Battle.sol\":7304:7323  opponent == exclude */\n      0xffffffffffffffffffffffffffffffffffffffff\n      and\n      sub\n        /* \"contents/Battle.sol\":7301:7418  if(opponent == exclude) {... */\n      tag_284\n      jumpi\n        /* \"contents/Battle.sol\":7351:7369  registeredBattlers */\n      0x09\n        /* \"contents/Battle.sol\":7390:7405  registeredCount */\n      dup4\n        /* \"contents/Battle.sol\":7385:7386  1 */\n      0x01\n        /* \"contents/Battle.sol\":7371:7382  randomIndex */\n      dup5\n        /* \"contents/Battle.sol\":7371:7386  randomIndex + 1 */\n      tag_285\n      swap2\n      swap1\n      tag_136\n      jump\t// in\n    tag_285:\n        /* \"contents/Battle.sol\":7370:7405  (randomIndex + 1) % registeredCount */\n      tag_286\n      swap2\n      swap1\n      tag_133\n      jump\t// in\n    tag_286:\n        /* \"contents/Battle.sol\":7351:7406  registeredBattlers[(randomIndex + 1) % registeredCount] */\n      dup2\n      sload\n      dup2\n      lt\n      tag_287\n      jumpi\n      tag_288\n      tag_164\n      jump\t// in\n    tag_288:\n    tag_287:\n      swap1\n      0x00\n      mstore\n      keccak256(0x00, 0x20)\n      add\n      0x00\n      swap1\n      sload\n      swap1\n      0x0100\n      exp\n      swap1\n      div\n      0xffffffffffffffffffffffffffffffffffffffff\n      and\n        /* \"contents/Battle.sol\":7340:7406  opponent = registeredBattlers[(randomIndex + 1) % registeredCount] */\n      swap1\n      pop\n        /* \"contents/Battle.sol\":7301:7418  if(opponent == exclude) {... */\n    tag_284:\n        /* \"contents/Battle.sol\":7437:7445  opponent */\n      dup1\n        /* \"contents/Battle.sol\":7430:7445  return opponent */\n      swap4\n      pop\n      pop\n      pop\n      pop\n        /* \"contents/Battle.sol\":6886:7453  function findRandomOpponent(address exclude) internal view returns(address) {... */\n    tag_277:\n      swap2\n      swap1\n      pop\n      jump\t// out\n        /* \"contents/Battle.sol\":2427:3710  function battleProgress(address player, address opponent) internal {... */\n    tag_202:\n        /* \"contents/Battle.sol\":2505:2526  uint256 playerTokenId */\n      0x00\n        /* \"contents/Battle.sol\":2529:2546  registeredDragons */\n      0x06\n        /* \"contents/Battle.sol\":2529:2554  registeredDragons[player] */\n      0x00\n        /* \"contents/Battle.sol\":2547:2553  player */\n      dup5\n        /* \"contents/Battle.sol\":2529:2554  registeredDragons[player] */\n      0xffffffffffffffffffffffffffffffffffffffff\n      and\n      0xffffffffffffffffffffffffffffffffffffffff\n      and\n      dup2\n      mstore\n      0x20\n      add\n      swap1\n      dup2\n      mstore\n      0x20\n      add\n      0x00\n      keccak256\n      sload\n        /* \"contents/Battle.sol\":2505:2554  uint256 playerTokenId = registeredDragons[player] */\n      swap1\n      pop\n        /* \"contents/Battle.sol\":2565:2588  uint256 opponentTokenId */\n      0x00\n        /* \"contents/Battle.sol\":2591:2608  registeredDragons */\n      0x06\n        /* \"contents/Battle.sol\":2591:2618  registeredDragons[opponent] */\n      0x00\n        /* \"contents/Battle.sol\":2609:2617  opponent */\n      dup5\n        /* \"contents/Battle.sol\":2591:2618  registeredDragons[opponent] */\n      0xffffffffffffffffffffffffffffffffffffffff\n      and\n      0xffffffffffffffffffffffffffffffffffffffff\n      and\n      dup2\n      mstore\n      0x20\n      add\n      swap1\n      dup2\n      mstore\n      0x20\n      add\n      0x00\n      keccak256\n      sload\n        /* \"contents/Battle.sol\":2565:2618  uint256 opponentTokenId = registeredDragons[opponent] */\n      swap1\n      pop\n        /* \"contents/Battle.sol\":2631:2654  Dragon storage myDragon */\n      0x00\n        /* \"contents/Battle.sol\":2657:2669  battleDragon */\n      0x04\n        /* \"contents/Battle.sol\":2657:2684  battleDragon[playerTokenId] */\n      0x00\n        /* \"contents/Battle.sol\":2670:2683  playerTokenId */\n      dup5\n        /* \"contents/Battle.sol\":2657:2684  battleDragon[playerTokenId] */\n      dup2\n      mstore\n      0x20\n      add\n      swap1\n      dup2\n      mstore\n      0x20\n      add\n      0x00\n      keccak256\n        /* \"contents/Battle.sol\":2631:2684  Dragon storage myDragon = battleDragon[playerTokenId] */\n      swap1\n      pop\n        /* \"contents/Battle.sol\":2695:2724  Dragon storage opponentDragon */\n      0x00\n        /* \"contents/Battle.sol\":2727:2739  battleDragon */\n      0x04\n        /* \"contents/Battle.sol\":2727:2756  battleDragon[opponentTokenId] */\n      0x00\n        /* \"contents/Battle.sol\":2740:2755  opponentTokenId */\n      dup5\n        /* \"contents/Battle.sol\":2727:2756  battleDragon[opponentTokenId] */\n      dup2\n      mstore\n      0x20\n      add\n      swap1\n      dup2\n      mstore\n      0x20\n      add\n      0x00\n      keccak256\n        /* \"contents/Battle.sol\":2695:2756  Dragon storage opponentDragon = battleDragon[opponentTokenId] */\n      swap1\n      pop\n        /* \"contents/Battle.sol\":2769:2785  uint256 myHealth */\n      0x00\n        /* \"contents/Battle.sol\":2788:2796  myDragon */\n      dup3\n        /* \"contents/Battle.sol\":2788:2803  myDragon.health */\n      0x03\n      add\n      sload\n        /* \"contents/Battle.sol\":2769:2803  uint256 myHealth = myDragon.health */\n      swap1\n      pop\n        /* \"contents/Battle.sol\":2814:2836  uint256 opponentHealth */\n      0x00\n        /* \"contents/Battle.sol\":2839:2853  opponentDragon */\n      dup3\n        /* \"contents/Battle.sol\":2839:2860  opponentDragon.health */\n      0x03\n      add\n      sload\n        /* \"contents/Battle.sol\":2814:2860  uint256 opponentHealth = opponentDragon.health */\n      swap1\n      pop\n        /* \"contents/Battle.sol\":2873:2889  bool playerFirst */\n      0x00\n        /* \"contents/Battle.sol\":2972:2973  0 */\n      dup1\n        /* \"contents/Battle.sol\":2966:2967  2 */\n      0x02\n        /* \"contents/Battle.sol\":2928:2943  block.timestamp */\n      timestamp\n        /* \"contents/Battle.sol\":2944:2960  block.prevrandao */\n      prevrandao\n        /* \"contents/Battle.sol\":2911:2961  abi.encodePacked(block.timestamp,block.prevrandao) */\n      add(0x20, mload(0x40))\n      tag_291\n      swap3\n      swap2\n      swap1\n      tag_131\n      jump\t// in\n    tag_291:\n      mload(0x40)\n      0x20\n      dup2\n      dup4\n      sub\n      sub\n      dup2\n      mstore\n      swap1\n      0x40\n      mstore\n        /* \"contents/Battle.sol\":2901:2962  keccak256(abi.encodePacked(block.timestamp,block.prevrandao)) */\n      dup1\n      mload\n      swap1\n      0x20\n      add\n      keccak256\n        /* \"contents/Battle.sol\":2893:2963  uint256(keccak256(abi.encodePacked(block.timestamp,block.prevrandao))) */\n      0x00\n      shr\n        /* \"contents/Battle.sol\":2893:2967  uint256(keccak256(abi.encodePacked(block.timestamp,block.prevrandao))) % 2 */\n      tag_292\n      swap2\n      swap1\n      tag_133\n      jump\t// in\n    tag_292:\n        /* \"contents/Battle.sol\":2892:2973  (uint256(keccak256(abi.encodePacked(block.timestamp,block.prevrandao))) % 2) == 0 */\n      eq\n        /* \"contents/Battle.sol\":2873:2973  bool playerFirst = (uint256(keccak256(abi.encodePacked(block.timestamp,block.prevrandao))) % 2) == 0 */\n      swap1\n      pop\n        /* \"contents/Battle.sol\":2994:3627  while(myHealth > 0 && opponentHealth > 0) {... */\n    tag_293:\n        /* \"contents/Battle.sol\":3011:3012  0 */\n      0x00\n        /* \"contents/Battle.sol\":3000:3008  myHealth */\n      dup4\n        /* \"contents/Battle.sol\":3000:3012  myHealth > 0 */\n      gt\n        /* \"contents/Battle.sol\":3000:3034  myHealth > 0 && opponentHealth > 0 */\n      dup1\n      iszero\n      tag_295\n      jumpi\n      pop\n        /* \"contents/Battle.sol\":3033:3034  0 */\n      0x00\n        /* \"contents/Battle.sol\":3016:3030  opponentHealth */\n      dup3\n        /* \"contents/Battle.sol\":3016:3034  opponentHealth > 0 */\n      gt\n        /* \"contents/Battle.sol\":3000:3034  myHealth > 0 && opponentHealth > 0 */\n    tag_295:\n        /* \"contents/Battle.sol\":2994:3627  while(myHealth > 0 && opponentHealth > 0) {... */\n      iszero\n      tag_294\n      jumpi\n        /* \"contents/Battle.sol\":3054:3065  playerFirst */\n      dup1\n        /* \"contents/Battle.sol\":3051:3616  if(playerFirst) {... */\n      iszero\n      tag_296\n      jumpi\n        /* \"contents/Battle.sol\":3103:3166  applyDamage(myDragon.attack, myDragon.defense, myDragon.health) */\n      tag_297\n        /* \"contents/Battle.sol\":3115:3123  myDragon */\n      dup6\n        /* \"contents/Battle.sol\":3115:3130  myDragon.attack */\n      0x01\n      add\n      sload\n        /* \"contents/Battle.sol\":3132:3140  myDragon */\n      dup7\n        /* \"contents/Battle.sol\":3132:3148  myDragon.defense */\n      0x02\n      add\n      sload\n        /* \"contents/Battle.sol\":3150:3158  myDragon */\n      dup8\n        /* \"contents/Battle.sol\":3150:3165  myDragon.health */\n      0x03\n      add\n      sload\n        /* \"contents/Battle.sol\":3103:3114  applyDamage */\n      tag_298\n        /* \"contents/Battle.sol\":3103:3166  applyDamage(myDragon.attack, myDragon.defense, myDragon.health) */\n      jump\t// in\n    tag_297:\n        /* \"contents/Battle.sol\":3086:3166  opponentHealth = applyDamage(myDragon.attack, myDragon.defense, myDragon.health) */\n      swap2\n      pop\n        /* \"contents/Battle.sol\":3206:3207  0 */\n      0x00\n        /* \"contents/Battle.sol\":3188:3202  opponentHealth */\n      dup3\n        /* \"contents/Battle.sol\":3188:3207  opponentHealth == 0 */\n      sub\n        /* \"contents/Battle.sol\":3185:3214  if(opponentHealth == 0) break */\n      iszero\n        /* \"contents/Battle.sol\":3209:3214  break */\n      tag_294\n        /* \"contents/Battle.sol\":3185:3214  if(opponentHealth == 0) break */\n      jumpi\n        /* \"contents/Battle.sol\":3244:3325  applyDamage(opponentDragon.attack, opponentDragon.defense, opponentDragon.health) */\n      tag_300\n        /* \"contents/Battle.sol\":3256:3270  opponentDragon */\n      dup5\n        /* \"contents/Battle.sol\":3256:3277  opponentDragon.attack */\n      0x01\n      add\n      sload\n        /* \"contents/Battle.sol\":3279:3293  opponentDragon */\n      dup6\n        /* \"contents/Battle.sol\":3279:3301  opponentDragon.defense */\n      0x02\n      add\n      sload\n        /* \"contents/Battle.sol\":3303:3317  opponentDragon */\n      dup7\n        /* \"contents/Battle.sol\":3303:3324  opponentDragon.health */\n      0x03\n      add\n      sload\n        /* \"contents/Battle.sol\":3244:3255  applyDamage */\n      tag_298\n        /* \"contents/Battle.sol\":3244:3325  applyDamage(opponentDragon.attack, opponentDragon.defense, opponentDragon.health) */\n      jump\t// in\n    tag_300:\n        /* \"contents/Battle.sol\":3233:3325  myHealth = applyDamage(opponentDragon.attack, opponentDragon.defense, opponentDragon.health) */\n      swap3\n      pop\n        /* \"contents/Battle.sol\":3051:3616  if(playerFirst) {... */\n      jump(tag_301)\n    tag_296:\n        /* \"contents/Battle.sol\":3377:3458  applyDamage(opponentDragon.attack, opponentDragon.defense, opponentDragon.health) */\n      tag_302\n        /* \"contents/Battle.sol\":3389:3403  opponentDragon */\n      dup5\n        /* \"contents/Battle.sol\":3389:3410  opponentDragon.attack */\n      0x01\n      add\n      sload\n        /* \"contents/Battle.sol\":3412:3426  opponentDragon */\n      dup6\n        /* \"contents/Battle.sol\":3412:3434  opponentDragon.defense */\n      0x02\n      add\n      sload\n        /* \"contents/Battle.sol\":3436:3450  opponentDragon */\n      dup7\n        /* \"contents/Battle.sol\":3436:3457  opponentDragon.health */\n      0x03\n      add\n      sload\n        /* \"contents/Battle.sol\":3377:3388  applyDamage */\n      tag_298\n        /* \"contents/Battle.sol\":3377:3458  applyDamage(opponentDragon.attack, opponentDragon.defense, opponentDragon.health) */\n      jump\t// in\n    tag_302:\n        /* \"contents/Battle.sol\":3366:3458  myHealth = applyDamage(opponentDragon.attack, opponentDragon.defense, opponentDragon.health) */\n      swap3\n      pop\n        /* \"contents/Battle.sol\":3493:3494  0 */\n      0x00\n        /* \"contents/Battle.sol\":3481:3489  myHealth */\n      dup4\n        /* \"contents/Battle.sol\":3481:3494  myHealth == 0 */\n      sub\n        /* \"contents/Battle.sol\":3477:3501  if (myHealth == 0) break */\n      iszero\n        /* \"contents/Battle.sol\":3496:3501  break */\n      tag_294\n        /* \"contents/Battle.sol\":3477:3501  if (myHealth == 0) break */\n      jumpi\n        /* \"contents/Battle.sol\":3537:3600  applyDamage(myDragon.attack, myDragon.defense, myDragon.health) */\n      tag_304\n        /* \"contents/Battle.sol\":3549:3557  myDragon */\n      dup6\n        /* \"contents/Battle.sol\":3549:3564  myDragon.attack */\n      0x01\n      add\n      sload\n        /* \"contents/Battle.sol\":3566:3574  myDragon */\n      dup7\n        /* \"contents/Battle.sol\":3566:3582  myDragon.defense */\n      0x02\n      add\n      sload\n        /* \"contents/Battle.sol\":3584:3592  myDragon */\n      dup8\n        /* \"contents/Battle.sol\":3584:3599  myDragon.health */\n      0x03\n      add\n      sload\n        /* \"contents/Battle.sol\":3537:3548  applyDamage */\n      tag_298\n        /* \"contents/Battle.sol\":3537:3600  applyDamage(myDragon.attack, myDragon.defense, myDragon.health) */\n      jump\t// in\n    tag_304:\n        /* \"contents/Battle.sol\":3520:3600  opponentHealth = applyDamage(myDragon.attack, myDragon.defense, myDragon.health) */\n      swap2\n      pop\n        /* \"contents/Battle.sol\":3051:3616  if(playerFirst) {... */\n    tag_301:\n        /* \"contents/Battle.sol\":2994:3627  while(myHealth > 0 && opponentHealth > 0) {... */\n      jump(tag_293)\n    tag_294:\n        /* \"contents/Battle.sol\":3639:3700  updateBattleRecords(myHealth, playerTokenId, opponentTokenId) */\n      tag_305\n        /* \"contents/Battle.sol\":3659:3667  myHealth */\n      dup4\n        /* \"contents/Battle.sol\":3669:3682  playerTokenId */\n      dup9\n        /* \"contents/Battle.sol\":3684:3699  opponentTokenId */\n      dup9\n        /* \"contents/Battle.sol\":3639:3658  updateBattleRecords */\n      tag_306\n        /* \"contents/Battle.sol\":3639:3700  updateBattleRecords(myHealth, playerTokenId, opponentTokenId) */\n      jump\t// in\n    tag_305:\n        /* \"contents/Battle.sol\":2494:3710  {... */\n      pop\n      pop\n      pop\n      pop\n      pop\n      pop\n      pop\n        /* \"contents/Battle.sol\":2427:3710  function battleProgress(address player, address opponent) internal {... */\n      pop\n      pop\n      jump\t// out\n        /* \"@openzeppelin/contracts/access/Ownable.sol\":2912:3099  function _transferOwnership(address newOwner) internal virtual {... */\n    tag_212:\n        /* \"@openzeppelin/contracts/access/Ownable.sol\":2985:3001  address oldOwner */\n      0x00\n        /* \"@openzeppelin/contracts/access/Ownable.sol\":3004:3010  _owner */\n      dup1\n      0x00\n      swap1\n      sload\n      swap1\n      0x0100\n      exp\n      swap1\n      div\n      0xffffffffffffffffffffffffffffffffffffffff\n      and\n        /* \"@openzeppelin/contracts/access/Ownable.sol\":2985:3010  address oldOwner = _owner */\n      swap1\n      pop\n        /* \"@openzeppelin/contracts/access/Ownable.sol\":3029:3037  newOwner */\n      dup2\n        /* \"@openzeppelin/contracts/access/Ownable.sol\":3020:3026  _owner */\n      0x00\n      dup1\n        /* \"@openzeppelin/contracts/access/Ownable.sol\":3020:3037  _owner = newOwner */\n      0x0100\n      exp\n      dup2\n      sload\n      dup2\n      0xffffffffffffffffffffffffffffffffffffffff\n      mul\n      not\n      and\n      swap1\n      dup4\n      0xffffffffffffffffffffffffffffffffffffffff\n      and\n      mul\n      or\n      swap1\n      sstore\n      pop\n        /* \"@openzeppelin/contracts/access/Ownable.sol\":3083:3091  newOwner */\n      dup2\n        /* \"@openzeppelin/contracts/access/Ownable.sol\":3052:3092  OwnershipTransferred(oldOwner, newOwner) */\n      0xffffffffffffffffffffffffffffffffffffffff\n      and\n        /* \"@openzeppelin/contracts/access/Ownable.sol\":3073:3081  oldOwner */\n      dup2\n        /* \"@openzeppelin/contracts/access/Ownable.sol\":3052:3092  OwnershipTransferred(oldOwner, newOwner) */\n      0xffffffffffffffffffffffffffffffffffffffff\n      and\n      0x8be0079c531659141344cd1fd0a4f28419497f9722a3daafe3b4186f6b6457e0\n      mload(0x40)\n      mload(0x40)\n      dup1\n      swap2\n      sub\n      swap1\n      log3\n        /* \"@openzeppelin/contracts/access/Ownable.sol\":2975:3099  {... */\n      pop\n        /* \"@openzeppelin/contracts/access/Ownable.sol\":2912:3099  function _transferOwnership(address newOwner) internal virtual {... */\n      pop\n      jump\t// out\n        /* \"@openzeppelin/contracts/utils/Context.sol\":656:752  function _msgSender() internal view virtual returns (address) {... */\n    tag_272:\n        /* \"@openzeppelin/contracts/utils/Context.sol\":709:716  address */\n      0x00\n        /* \"@openzeppelin/contracts/utils/Context.sol\":735:745  msg.sender */\n      caller\n        /* \"@openzeppelin/contracts/utils/Context.sol\":728:745  return msg.sender */\n      swap1\n      pop\n        /* \"@openzeppelin/contracts/utils/Context.sol\":656:752  function _msgSender() internal view virtual returns (address) {... */\n      swap1\n      jump\t// out\n        /* \"contents/Battle.sol\":3718:3941  function applyDamage(uint256 attack, uint256 defense, uint256 health) private pure returns(uint256) {... */\n    tag_298:\n        /* \"contents/Battle.sol\":3809:3816  uint256 */\n      0x00\n        /* \"contents/Battle.sol\":3829:3843  uint256 damage */\n      dup1\n        /* \"contents/Battle.sol\":3846:3878  calculateDamage(attack, defense) */\n      tag_310\n        /* \"contents/Battle.sol\":3862:3868  attack */\n      dup6\n        /* \"contents/Battle.sol\":3870:3877  defense */\n      dup6\n        /* \"contents/Battle.sol\":3846:3861  calculateDamage */\n      tag_311\n        /* \"contents/Battle.sol\":3846:3878  calculateDamage(attack, defense) */\n      jump\t// in\n    tag_310:\n        /* \"contents/Battle.sol\":3829:3878  uint256 damage = calculateDamage(attack, defense) */\n      swap1\n      pop\n        /* \"contents/Battle.sol\":3905:3911  damage */\n      dup1\n        /* \"contents/Battle.sol\":3896:3902  health */\n      dup4\n        /* \"contents/Battle.sol\":3896:3911  health > damage */\n      gt\n        /* \"contents/Battle.sol\":3896:3933  health > damage ? health - damage : 0 */\n      tag_312\n      jumpi\n        /* \"contents/Battle.sol\":3932:3933  0 */\n      0x00\n        /* \"contents/Battle.sol\":3896:3933  health > damage ? health - damage : 0 */\n      jump(tag_313)\n    tag_312:\n        /* \"contents/Battle.sol\":3923:3929  damage */\n      dup1\n        /* \"contents/Battle.sol\":3914:3920  health */\n      dup4\n        /* \"contents/Battle.sol\":3914:3929  health - damage */\n      tag_314\n      swap2\n      swap1\n      tag_168\n      jump\t// in\n    tag_314:\n        /* \"contents/Battle.sol\":3896:3933  health > damage ? health - damage : 0 */\n    tag_313:\n        /* \"contents/Battle.sol\":3889:3933  return health > damage ? health - damage : 0 */\n      swap2\n      pop\n      pop\n        /* \"contents/Battle.sol\":3718:3941  function applyDamage(uint256 attack, uint256 defense, uint256 health) private pure returns(uint256) {... */\n      swap4\n      swap3\n      pop\n      pop\n      pop\n      jump\t// out\n        /* \"contents/Battle.sol\":3949:4329  function updateBattleRecords(uint256 myHealth, uint256 playerTokenId, uint256 opponentTokenId) private {        ... */\n    tag_306:\n        /* \"contents/Battle.sol\":4087:4088  0 */\n      0x00\n        /* \"contents/Battle.sol\":4075:4083  myHealth */\n      dup4\n        /* \"contents/Battle.sol\":4075:4088  myHealth == 0 */\n      sub\n        /* \"contents/Battle.sol\":4071:4322  if (myHealth == 0) {... */\n      tag_316\n      jumpi\n        /* \"contents/Battle.sol\":4105:4118  dragonRecords */\n      0x05\n        /* \"contents/Battle.sol\":4105:4135  dragonRecords[opponentTokenId] */\n      0x00\n        /* \"contents/Battle.sol\":4119:4134  opponentTokenId */\n      dup3\n        /* \"contents/Battle.sol\":4105:4135  dragonRecords[opponentTokenId] */\n      dup2\n      mstore\n      0x20\n      add\n      swap1\n      dup2\n      mstore\n      0x20\n      add\n      0x00\n      keccak256\n        /* \"contents/Battle.sol\":4105:4139  dragonRecords[opponentTokenId].win */\n      0x00\n      add\n      0x00\n        /* \"contents/Battle.sol\":4105:4141  dragonRecords[opponentTokenId].win++ */\n      dup2\n      sload\n      dup1\n      swap3\n      swap2\n      swap1\n      tag_317\n      swap1\n      tag_204\n      jump\t// in\n    tag_317:\n      swap2\n      swap1\n      pop\n      sstore\n      pop\n        /* \"contents/Battle.sol\":4156:4169  dragonRecords */\n      0x05\n        /* \"contents/Battle.sol\":4156:4184  dragonRecords[playerTokenId] */\n      0x00\n        /* \"contents/Battle.sol\":4170:4183  playerTokenId */\n      dup4\n        /* \"contents/Battle.sol\":4156:4184  dragonRecords[playerTokenId] */\n      dup2\n      mstore\n      0x20\n      add\n      swap1\n      dup2\n      mstore\n      0x20\n      add\n      0x00\n      keccak256\n        /* \"contents/Battle.sol\":4156:4189  dragonRecords[playerTokenId].lose */\n      0x01\n      add\n      0x00\n        /* \"contents/Battle.sol\":4156:4191  dragonRecords[playerTokenId].lose++ */\n      dup2\n      sload\n      dup1\n      swap3\n      swap2\n      swap1\n      tag_318\n      swap1\n      tag_204\n      jump\t// in\n    tag_318:\n      swap2\n      swap1\n      pop\n      sstore\n      pop\n        /* \"contents/Battle.sol\":4071:4322  if (myHealth == 0) {... */\n      jump(tag_319)\n    tag_316:\n        /* \"contents/Battle.sol\":4224:4237  dragonRecords */\n      0x05\n        /* \"contents/Battle.sol\":4224:4252  dragonRecords[playerTokenId] */\n      0x00\n        /* \"contents/Battle.sol\":4238:4251  playerTokenId */\n      dup4\n        /* \"contents/Battle.sol\":4224:4252  dragonRecords[playerTokenId] */\n      dup2\n      mstore\n      0x20\n      add\n      swap1\n      dup2\n      mstore\n      0x20\n      add\n      0x00\n      keccak256\n        /* \"contents/Battle.sol\":4224:4256  dragonRecords[playerTokenId].win */\n      0x00\n      add\n      0x00\n        /* \"contents/Battle.sol\":4224:4258  dragonRecords[playerTokenId].win++ */\n      dup2\n      sload\n      dup1\n      swap3\n      swap2\n      swap1\n      tag_320\n      swap1\n      tag_204\n      jump\t// in\n    tag_320:\n      swap2\n      swap1\n      pop\n      sstore\n      pop\n        /* \"contents/Battle.sol\":4273:4286  dragonRecords */\n      0x05\n        /* \"contents/Battle.sol\":4273:4303  dragonRecords[opponentTokenId] */\n      0x00\n        /* \"contents/Battle.sol\":4287:4302  opponentTokenId */\n      dup3\n        /* \"contents/Battle.sol\":4273:4303  dragonRecords[opponentTokenId] */\n      dup2\n      mstore\n      0x20\n      add\n      swap1\n      dup2\n      mstore\n      0x20\n      add\n      0x00\n      keccak256\n        /* \"contents/Battle.sol\":4273:4308  dragonRecords[opponentTokenId].lose */\n      0x01\n      add\n      0x00\n        /* \"contents/Battle.sol\":4273:4310  dragonRecords[opponentTokenId].lose++ */\n      dup2\n      sload\n      dup1\n      swap3\n      swap2\n      swap1\n      tag_321\n      swap1\n      tag_204\n      jump\t// in\n    tag_321:\n      swap2\n      swap1\n      pop\n      sstore\n      pop\n        /* \"contents/Battle.sol\":4071:4322  if (myHealth == 0) {... */\n    tag_319:\n        /* \"contents/Battle.sol\":3949:4329  function updateBattleRecords(uint256 myHealth, uint256 playerTokenId, uint256 opponentTokenId) private {        ... */\n      pop\n      pop\n      pop\n      jump\t// out\n        /* \"contents/Battle.sol\":5201:5566  function calculateDamage(uint256 attack, uint256 defense) private pure returns(uint256){... */\n    tag_311:\n        /* \"contents/Battle.sol\":5280:5287  uint256 */\n      0x00\n        /* \"contents/Battle.sol\":5299:5323  uint256 minDamagePercent */\n      dup1\n        /* \"contents/Battle.sol\":5326:5328  10 */\n      0x0a\n        /* \"contents/Battle.sol\":5299:5328  uint256 minDamagePercent = 10 */\n      swap1\n      pop\n        /* \"contents/Battle.sol\":5339:5360  uint256 defenseEffect */\n      0x00\n        /* \"contents/Battle.sol\":5390:5393  100 */\n      0x64\n        /* \"contents/Battle.sol\":5380:5387  defense */\n      dup5\n        /* \"contents/Battle.sol\":5380:5393  defense + 100 */\n      tag_323\n      swap2\n      swap1\n      tag_136\n      jump\t// in\n    tag_323:\n        /* \"contents/Battle.sol\":5373:5376  100 */\n      0x64\n        /* \"contents/Battle.sol\":5363:5370  defense */\n      dup6\n        /* \"contents/Battle.sol\":5363:5376  defense * 100 */\n      tag_324\n      swap2\n      swap1\n      tag_325\n      jump\t// in\n    tag_324:\n        /* \"contents/Battle.sol\":5363:5394  defense * 100 / (defense + 100) */\n      tag_326\n      swap2\n      swap1\n      tag_216\n      jump\t// in\n    tag_326:\n        /* \"contents/Battle.sol\":5339:5394  uint256 defenseEffect = defense * 100 / (defense + 100) */\n      swap1\n      pop\n        /* \"contents/Battle.sol\":5407:5437  uint256 effectiveDamagePercent */\n      0x00\n        /* \"contents/Battle.sol\":5456:5458  90 */\n      0x5a\n        /* \"contents/Battle.sol\":5440:5453  defenseEffect */\n      dup3\n        /* \"contents/Battle.sol\":5440:5458  defenseEffect > 90 */\n      gt\n        /* \"contents/Battle.sol\":5440:5499  defenseEffect > 90 ? minDamagePercent : 100 - defenseEffect */\n      tag_327\n      jumpi\n        /* \"contents/Battle.sol\":5486:5499  defenseEffect */\n      dup2\n        /* \"contents/Battle.sol\":5480:5483  100 */\n      0x64\n        /* \"contents/Battle.sol\":5480:5499  100 - defenseEffect */\n      tag_328\n      swap2\n      swap1\n      tag_168\n      jump\t// in\n    tag_328:\n        /* \"contents/Battle.sol\":5440:5499  defenseEffect > 90 ? minDamagePercent : 100 - defenseEffect */\n      jump(tag_329)\n    tag_327:\n        /* \"contents/Battle.sol\":5461:5477  minDamagePercent */\n      dup3\n        /* \"contents/Battle.sol\":5440:5499  defenseEffect > 90 ? minDamagePercent : 100 - defenseEffect */\n    tag_329:\n        /* \"contents/Battle.sol\":5407:5499  uint256 effectiveDamagePercent = defenseEffect > 90 ? minDamagePercent : 100 - defenseEffect */\n      swap1\n      pop\n        /* \"contents/Battle.sol\":5555:5558  100 */\n      0x64\n        /* \"contents/Battle.sol\":5529:5551  effectiveDamagePercent */\n      dup2\n        /* \"contents/Battle.sol\":5520:5526  attack */\n      dup8\n        /* \"contents/Battle.sol\":5520:5551  attack * effectiveDamagePercent */\n      tag_330\n      swap2\n      swap1\n      tag_325\n      jump\t// in\n    tag_330:\n        /* \"contents/Battle.sol\":5519:5558  (attack * effectiveDamagePercent) / 100 */\n      tag_331\n      swap2\n      swap1\n      tag_216\n      jump\t// in\n    tag_331:\n        /* \"contents/Battle.sol\":5512:5558  return (attack * effectiveDamagePercent) / 100 */\n      swap4\n      pop\n      pop\n      pop\n      pop\n        /* \"contents/Battle.sol\":5201:5566  function calculateDamage(uint256 attack, uint256 defense) private pure returns(uint256){... */\n      swap3\n      swap2\n      pop\n      pop\n      jump\t// out\n    tag_147:\n      mload(0x40)\n      dup1\n      0x40\n      add\n      0x40\n      mstore\n      dup1\n      0x00\n      dup2\n      mstore\n      0x20\n      add\n      0x00\n      dup2\n      mstore\n      pop\n      swap1\n      jump\t// out\n    tag_206:\n      mload(0x40)\n      dup1\n      0x80\n      add\n      0x40\n      mstore\n      dup1\n      0x00\n      dup2\n      mstore\n      0x20\n      add\n      0x00\n      dup2\n      mstore\n      0x20\n      add\n      0x00\n      dup2\n      mstore\n      0x20\n      add\n      0x00\n      dup2\n      mstore\n      pop\n      swap1\n      jump\t// out\n    tag_263:\n      pop\n      dup1\n      sload\n      0x00\n      dup3\n      sstore\n      swap1\n      0x00\n      mstore\n      keccak256(0x00, 0x20)\n      swap1\n      dup2\n      add\n      swap1\n      tag_333\n      swap2\n      swap1\n      tag_334\n      jump\t// in\n    tag_333:\n      pop\n      jump\t// out\n    tag_334:\n    tag_335:\n      dup1\n      dup3\n      gt\n      iszero\n      tag_336\n      jumpi\n      0x00\n      dup2\n      0x00\n      swap1\n      sstore\n      pop\n      0x01\n      add\n      jump(tag_335)\n    tag_336:\n      pop\n      swap1\n      jump\t// out\n        /* \"#utility.yul\":7:82   */\n    tag_337:\n        /* \"#utility.yul\":40:46   */\n      0x00\n        /* \"#utility.yul\":73:75   */\n      0x40\n        /* \"#utility.yul\":67:76   */\n      mload\n        /* \"#utility.yul\":57:76   */\n      swap1\n      pop\n        /* \"#utility.yul\":7:82   */\n      swap1\n      jump\t// out\n        /* \"#utility.yul\":88:205   */\n    tag_338:\n        /* \"#utility.yul\":197:198   */\n      0x00\n        /* \"#utility.yul\":194:195   */\n      dup1\n        /* \"#utility.yul\":187:199   */\n      revert\n        /* \"#utility.yul\":334:460   */\n    tag_340:\n        /* \"#utility.yul\":371:378   */\n      0x00\n        /* \"#utility.yul\":411:453   */\n      0xffffffffffffffffffffffffffffffffffffffff\n        /* \"#utility.yul\":404:409   */\n      dup3\n        /* \"#utility.yul\":400:454   */\n      and\n        /* \"#utility.yul\":389:454   */\n      swap1\n      pop\n        /* \"#utility.yul\":334:460   */\n      swap2\n      swap1\n      pop\n      jump\t// out\n        /* \"#utility.yul\":466:562   */\n    tag_341:\n        /* \"#utility.yul\":503:510   */\n      0x00\n        /* \"#utility.yul\":532:556   */\n      tag_400\n        /* \"#utility.yul\":550:555   */\n      dup3\n        /* \"#utility.yul\":532:556   */\n      tag_340\n      jump\t// in\n    tag_400:\n        /* \"#utility.yul\":521:556   */\n      swap1\n      pop\n        /* \"#utility.yul\":466:562   */\n      swap2\n      swap1\n      pop\n      jump\t// out\n        /* \"#utility.yul\":568:690   */\n    tag_342:\n        /* \"#utility.yul\":641:665   */\n      tag_402\n        /* \"#utility.yul\":659:664   */\n      dup2\n        /* \"#utility.yul\":641:665   */\n      tag_341\n      jump\t// in\n    tag_402:\n        /* \"#utility.yul\":634:639   */\n      dup2\n        /* \"#utility.yul\":631:666   */\n      eq\n        /* \"#utility.yul\":621:684   */\n      tag_403\n      jumpi\n        /* \"#utility.yul\":680:681   */\n      0x00\n        /* \"#utility.yul\":677:678   */\n      dup1\n        /* \"#utility.yul\":670:682   */\n      revert\n        /* \"#utility.yul\":621:684   */\n    tag_403:\n        /* \"#utility.yul\":568:690   */\n      pop\n      jump\t// out\n        /* \"#utility.yul\":696:835   */\n    tag_343:\n        /* \"#utility.yul\":742:747   */\n      0x00\n        /* \"#utility.yul\":780:786   */\n      dup2\n        /* \"#utility.yul\":767:787   */\n      calldataload\n        /* \"#utility.yul\":758:787   */\n      swap1\n      pop\n        /* \"#utility.yul\":796:829   */\n      tag_405\n        /* \"#utility.yul\":823:828   */\n      dup2\n        /* \"#utility.yul\":796:829   */\n      tag_342\n      jump\t// in\n    tag_405:\n        /* \"#utility.yul\":696:835   */\n      swap3\n      swap2\n      pop\n      pop\n      jump\t// out\n        /* \"#utility.yul\":841:1170   */\n    tag_30:\n        /* \"#utility.yul\":900:906   */\n      0x00\n        /* \"#utility.yul\":949:951   */\n      0x20\n        /* \"#utility.yul\":937:946   */\n      dup3\n        /* \"#utility.yul\":928:935   */\n      dup5\n        /* \"#utility.yul\":924:947   */\n      sub\n        /* \"#utility.yul\":920:952   */\n      slt\n        /* \"#utility.yul\":917:1036   */\n      iszero\n      tag_407\n      jumpi\n        /* \"#utility.yul\":955:1034   */\n      tag_408\n      tag_338\n      jump\t// in\n    tag_408:\n        /* \"#utility.yul\":917:1036   */\n    tag_407:\n        /* \"#utility.yul\":1075:1076   */\n      0x00\n        /* \"#utility.yul\":1100:1153   */\n      tag_409\n        /* \"#utility.yul\":1145:1152   */\n      dup5\n        /* \"#utility.yul\":1136:1142   */\n      dup3\n        /* \"#utility.yul\":1125:1134   */\n      dup6\n        /* \"#utility.yul\":1121:1143   */\n      add\n        /* \"#utility.yul\":1100:1153   */\n      tag_343\n      jump\t// in\n    tag_409:\n        /* \"#utility.yul\":1090:1153   */\n      swap2\n      pop\n        /* \"#utility.yul\":1046:1163   */\n      pop\n        /* \"#utility.yul\":841:1170   */\n      swap3\n      swap2\n      pop\n      pop\n      jump\t// out\n        /* \"#utility.yul\":1176:1253   */\n    tag_344:\n        /* \"#utility.yul\":1213:1220   */\n      0x00\n        /* \"#utility.yul\":1242:1247   */\n      dup2\n        /* \"#utility.yul\":1231:1247   */\n      swap1\n      pop\n        /* \"#utility.yul\":1176:1253   */\n      swap2\n      swap1\n      pop\n      jump\t// out\n        /* \"#utility.yul\":1259:1377   */\n    tag_345:\n        /* \"#utility.yul\":1346:1370   */\n      tag_412\n        /* \"#utility.yul\":1364:1369   */\n      dup2\n        /* \"#utility.yul\":1346:1370   */\n      tag_344\n      jump\t// in\n    tag_412:\n        /* \"#utility.yul\":1341:1344   */\n      dup3\n        /* \"#utility.yul\":1334:1371   */\n      mstore\n        /* \"#utility.yul\":1259:1377   */\n      pop\n      pop\n      jump\t// out\n        /* \"#utility.yul\":1383:1605   */\n    tag_33:\n        /* \"#utility.yul\":1476:1480   */\n      0x00\n        /* \"#utility.yul\":1514:1516   */\n      0x20\n        /* \"#utility.yul\":1503:1512   */\n      dup3\n        /* \"#utility.yul\":1499:1517   */\n      add\n        /* \"#utility.yul\":1491:1517   */\n      swap1\n      pop\n        /* \"#utility.yul\":1527:1598   */\n      tag_414\n        /* \"#utility.yul\":1595:1596   */\n      0x00\n        /* \"#utility.yul\":1584:1593   */\n      dup4\n        /* \"#utility.yul\":1580:1597   */\n      add\n        /* \"#utility.yul\":1571:1577   */\n      dup5\n        /* \"#utility.yul\":1527:1598   */\n      tag_345\n      jump\t// in\n    tag_414:\n        /* \"#utility.yul\":1383:1605   */\n      swap3\n      swap2\n      pop\n      pop\n      jump\t// out\n        /* \"#utility.yul\":1611:1733   */\n    tag_346:\n        /* \"#utility.yul\":1684:1708   */\n      tag_416\n        /* \"#utility.yul\":1702:1707   */\n      dup2\n        /* \"#utility.yul\":1684:1708   */\n      tag_344\n      jump\t// in\n    tag_416:\n        /* \"#utility.yul\":1677:1682   */\n      dup2\n        /* \"#utility.yul\":1674:1709   */\n      eq\n        /* \"#utility.yul\":1664:1727   */\n      tag_417\n      jumpi\n        /* \"#utility.yul\":1723:1724   */\n      0x00\n        /* \"#utility.yul\":1720:1721   */\n      dup1\n        /* \"#utility.yul\":1713:1725   */\n      revert\n        /* \"#utility.yul\":1664:1727   */\n    tag_417:\n        /* \"#utility.yul\":1611:1733   */\n      pop\n      jump\t// out\n        /* \"#utility.yul\":1739:1878   */\n    tag_347:\n        /* \"#utility.yul\":1785:1790   */\n      0x00\n        /* \"#utility.yul\":1823:1829   */\n      dup2\n        /* \"#utility.yul\":1810:1830   */\n      calldataload\n        /* \"#utility.yul\":1801:1830   */\n      swap1\n      pop\n        /* \"#utility.yul\":1839:1872   */\n      tag_419\n        /* \"#utility.yul\":1866:1871   */\n      dup2\n        /* \"#utility.yul\":1839:1872   */\n      tag_346\n      jump\t// in\n    tag_419:\n        /* \"#utility.yul\":1739:1878   */\n      swap3\n      swap2\n      pop\n      pop\n      jump\t// out\n        /* \"#utility.yul\":1884:2213   */\n    tag_43:\n        /* \"#utility.yul\":1943:1949   */\n      0x00\n        /* \"#utility.yul\":1992:1994   */\n      0x20\n        /* \"#utility.yul\":1980:1989   */\n      dup3\n        /* \"#utility.yul\":1971:1978   */\n      dup5\n        /* \"#utility.yul\":1967:1990   */\n      sub\n        /* \"#utility.yul\":1963:1995   */\n      slt\n        /* \"#utility.yul\":1960:2079   */\n      iszero\n      tag_421\n      jumpi\n        /* \"#utility.yul\":1998:2077   */\n      tag_422\n      tag_338\n      jump\t// in\n    tag_422:\n        /* \"#utility.yul\":1960:2079   */\n    tag_421:\n        /* \"#utility.yul\":2118:2119   */\n      0x00\n        /* \"#utility.yul\":2143:2196   */\n      tag_423\n        /* \"#utility.yul\":2188:2195   */\n      dup5\n        /* \"#utility.yul\":2179:2185   */\n      dup3\n        /* \"#utility.yul\":2168:2177   */\n      dup6\n        /* \"#utility.yul\":2164:2186   */\n      add\n        /* \"#utility.yul\":2143:2196   */\n      tag_347\n      jump\t// in\n    tag_423:\n        /* \"#utility.yul\":2133:2196   */\n      swap2\n      pop\n        /* \"#utility.yul\":2089:2206   */\n      pop\n        /* \"#utility.yul\":1884:2213   */\n      swap3\n      swap2\n      pop\n      pop\n      jump\t// out\n        /* \"#utility.yul\":2219:2327   */\n    tag_348:\n        /* \"#utility.yul\":2296:2320   */\n      tag_425\n        /* \"#utility.yul\":2314:2319   */\n      dup2\n        /* \"#utility.yul\":2296:2320   */\n      tag_344\n      jump\t// in\n    tag_425:\n        /* \"#utility.yul\":2291:2294   */\n      dup3\n        /* \"#utility.yul\":2284:2321   */\n      mstore\n        /* \"#utility.yul\":2219:2327   */\n      pop\n      pop\n      jump\t// out\n        /* \"#utility.yul\":2397:2911   */\n    tag_349:\n        /* \"#utility.yul\":2552:2556   */\n      0x40\n        /* \"#utility.yul\":2547:2550   */\n      dup3\n        /* \"#utility.yul\":2543:2557   */\n      add\n        /* \"#utility.yul\":2638:2642   */\n      0x00\n        /* \"#utility.yul\":2631:2636   */\n      dup3\n        /* \"#utility.yul\":2627:2643   */\n      add\n        /* \"#utility.yul\":2621:2644   */\n      mload\n        /* \"#utility.yul\":2657:2720   */\n      tag_427\n        /* \"#utility.yul\":2714:2718   */\n      0x00\n        /* \"#utility.yul\":2709:2712   */\n      dup6\n        /* \"#utility.yul\":2705:2719   */\n      add\n        /* \"#utility.yul\":2691:2703   */\n      dup3\n        /* \"#utility.yul\":2657:2720   */\n      tag_348\n      jump\t// in\n    tag_427:\n        /* \"#utility.yul\":2567:2730   */\n      pop\n        /* \"#utility.yul\":2812:2816   */\n      0x20\n        /* \"#utility.yul\":2805:2810   */\n      dup3\n        /* \"#utility.yul\":2801:2817   */\n      add\n        /* \"#utility.yul\":2795:2818   */\n      mload\n        /* \"#utility.yul\":2831:2894   */\n      tag_428\n        /* \"#utility.yul\":2888:2892   */\n      0x20\n        /* \"#utility.yul\":2883:2886   */\n      dup6\n        /* \"#utility.yul\":2879:2893   */\n      add\n        /* \"#utility.yul\":2865:2877   */\n      dup3\n        /* \"#utility.yul\":2831:2894   */\n      tag_348\n      jump\t// in\n    tag_428:\n        /* \"#utility.yul\":2740:2904   */\n      pop\n        /* \"#utility.yul\":2521:2911   */\n      pop\n        /* \"#utility.yul\":2397:2911   */\n      pop\n      pop\n      jump\t// out\n        /* \"#utility.yul\":2917:3255   */\n    tag_52:\n        /* \"#utility.yul\":3068:3072   */\n      0x00\n        /* \"#utility.yul\":3106:3108   */\n      0x40\n        /* \"#utility.yul\":3095:3104   */\n      dup3\n        /* \"#utility.yul\":3091:3109   */\n      add\n        /* \"#utility.yul\":3083:3109   */\n      swap1\n      pop\n        /* \"#utility.yul\":3119:3248   */\n      tag_430\n        /* \"#utility.yul\":3245:3246   */\n      0x00\n        /* \"#utility.yul\":3234:3243   */\n      dup4\n        /* \"#utility.yul\":3230:3247   */\n      add\n        /* \"#utility.yul\":3221:3227   */\n      dup5\n        /* \"#utility.yul\":3119:3248   */\n      tag_349\n      jump\t// in\n    tag_430:\n        /* \"#utility.yul\":2917:3255   */\n      swap3\n      swap2\n      pop\n      pop\n      jump\t// out\n        /* \"#utility.yul\":3313:4174   */\n    tag_350:\n        /* \"#utility.yul\":3456:3460   */\n      0x80\n        /* \"#utility.yul\":3451:3454   */\n      dup3\n        /* \"#utility.yul\":3447:3461   */\n      add\n        /* \"#utility.yul\":3546:3550   */\n      0x00\n        /* \"#utility.yul\":3539:3544   */\n      dup3\n        /* \"#utility.yul\":3535:3551   */\n      add\n        /* \"#utility.yul\":3529:3552   */\n      mload\n        /* \"#utility.yul\":3565:3628   */\n      tag_432\n        /* \"#utility.yul\":3622:3626   */\n      0x00\n        /* \"#utility.yul\":3617:3620   */\n      dup6\n        /* \"#utility.yul\":3613:3627   */\n      add\n        /* \"#utility.yul\":3599:3611   */\n      dup3\n        /* \"#utility.yul\":3565:3628   */\n      tag_348\n      jump\t// in\n    tag_432:\n        /* \"#utility.yul\":3471:3638   */\n      pop\n        /* \"#utility.yul\":3722:3726   */\n      0x20\n        /* \"#utility.yul\":3715:3720   */\n      dup3\n        /* \"#utility.yul\":3711:3727   */\n      add\n        /* \"#utility.yul\":3705:3728   */\n      mload\n        /* \"#utility.yul\":3741:3804   */\n      tag_433\n        /* \"#utility.yul\":3798:3802   */\n      0x20\n        /* \"#utility.yul\":3793:3796   */\n      dup6\n        /* \"#utility.yul\":3789:3803   */\n      add\n        /* \"#utility.yul\":3775:3787   */\n      dup3\n        /* \"#utility.yul\":3741:3804   */\n      tag_348\n      jump\t// in\n    tag_433:\n        /* \"#utility.yul\":3648:3814   */\n      pop\n        /* \"#utility.yul\":3899:3903   */\n      0x40\n        /* \"#utility.yul\":3892:3897   */\n      dup3\n        /* \"#utility.yul\":3888:3904   */\n      add\n        /* \"#utility.yul\":3882:3905   */\n      mload\n        /* \"#utility.yul\":3918:3981   */\n      tag_434\n        /* \"#utility.yul\":3975:3979   */\n      0x40\n        /* \"#utility.yul\":3970:3973   */\n      dup6\n        /* \"#utility.yul\":3966:3980   */\n      add\n        /* \"#utility.yul\":3952:3964   */\n      dup3\n        /* \"#utility.yul\":3918:3981   */\n      tag_348\n      jump\t// in\n    tag_434:\n        /* \"#utility.yul\":3824:3991   */\n      pop\n        /* \"#utility.yul\":4075:4079   */\n      0x60\n        /* \"#utility.yul\":4068:4073   */\n      dup3\n        /* \"#utility.yul\":4064:4080   */\n      add\n        /* \"#utility.yul\":4058:4081   */\n      mload\n        /* \"#utility.yul\":4094:4157   */\n      tag_435\n        /* \"#utility.yul\":4151:4155   */\n      0x60\n        /* \"#utility.yul\":4146:4149   */\n      dup6\n        /* \"#utility.yul\":4142:4156   */\n      add\n        /* \"#utility.yul\":4128:4140   */\n      dup3\n        /* \"#utility.yul\":4094:4157   */\n      tag_348\n      jump\t// in\n    tag_435:\n        /* \"#utility.yul\":4001:4167   */\n      pop\n        /* \"#utility.yul\":3425:4174   */\n      pop\n        /* \"#utility.yul\":3313:4174   */\n      pop\n      pop\n      jump\t// out\n        /* \"#utility.yul\":4180:4495   */\n    tag_63:\n        /* \"#utility.yul\":4319:4323   */\n      0x00\n        /* \"#utility.yul\":4357:4360   */\n      0x80\n        /* \"#utility.yul\":4346:4355   */\n      dup3\n        /* \"#utility.yul\":4342:4361   */\n      add\n        /* \"#utility.yul\":4334:4361   */\n      swap1\n      pop\n        /* \"#utility.yul\":4371:4488   */\n      tag_437\n        /* \"#utility.yul\":4485:4486   */\n      0x00\n        /* \"#utility.yul\":4474:4483   */\n      dup4\n        /* \"#utility.yul\":4470:4487   */\n      add\n        /* \"#utility.yul\":4461:4467   */\n      dup5\n        /* \"#utility.yul\":4371:4488   */\n      tag_350\n      jump\t// in\n    tag_437:\n        /* \"#utility.yul\":4180:4495   */\n      swap3\n      swap2\n      pop\n      pop\n      jump\t// out\n        /* \"#utility.yul\":4501:4561   */\n    tag_351:\n        /* \"#utility.yul\":4529:4532   */\n      0x00\n        /* \"#utility.yul\":4550:4555   */\n      dup2\n        /* \"#utility.yul\":4543:4555   */\n      swap1\n      pop\n        /* \"#utility.yul\":4501:4561   */\n      swap2\n      swap1\n      pop\n      jump\t// out\n        /* \"#utility.yul\":4567:4709   */\n    tag_352:\n        /* \"#utility.yul\":4617:4626   */\n      0x00\n        /* \"#utility.yul\":4650:4703   */\n      tag_440\n        /* \"#utility.yul\":4668:4702   */\n      tag_441\n        /* \"#utility.yul\":4677:4701   */\n      tag_442\n        /* \"#utility.yul\":4695:4700   */\n      dup5\n        /* \"#utility.yul\":4677:4701   */\n      tag_340\n      jump\t// in\n    tag_442:\n        /* \"#utility.yul\":4668:4702   */\n      tag_351\n      jump\t// in\n    tag_441:\n        /* \"#utility.yul\":4650:4703   */\n      tag_340\n      jump\t// in\n    tag_440:\n        /* \"#utility.yul\":4637:4703   */\n      swap1\n      pop\n        /* \"#utility.yul\":4567:4709   */\n      swap2\n      swap1\n      pop\n      jump\t// out\n        /* \"#utility.yul\":4715:4841   */\n    tag_353:\n        /* \"#utility.yul\":4765:4774   */\n      0x00\n        /* \"#utility.yul\":4798:4835   */\n      tag_444\n        /* \"#utility.yul\":4829:4834   */\n      dup3\n        /* \"#utility.yul\":4798:4835   */\n      tag_352\n      jump\t// in\n    tag_444:\n        /* \"#utility.yul\":4785:4835   */\n      swap1\n      pop\n        /* \"#utility.yul\":4715:4841   */\n      swap2\n      swap1\n      pop\n      jump\t// out\n        /* \"#utility.yul\":4847:4987   */\n    tag_354:\n        /* \"#utility.yul\":4911:4920   */\n      0x00\n        /* \"#utility.yul\":4944:4981   */\n      tag_446\n        /* \"#utility.yul\":4975:4980   */\n      dup3\n        /* \"#utility.yul\":4944:4981   */\n      tag_353\n      jump\t// in\n    tag_446:\n        /* \"#utility.yul\":4931:4981   */\n      swap1\n      pop\n        /* \"#utility.yul\":4847:4987   */\n      swap2\n      swap1\n      pop\n      jump\t// out\n        /* \"#utility.yul\":4993:5152   */\n    tag_355:\n        /* \"#utility.yul\":5094:5145   */\n      tag_448\n        /* \"#utility.yul\":5139:5144   */\n      dup2\n        /* \"#utility.yul\":5094:5145   */\n      tag_354\n      jump\t// in\n    tag_448:\n        /* \"#utility.yul\":5089:5092   */\n      dup3\n        /* \"#utility.yul\":5082:5146   */\n      mstore\n        /* \"#utility.yul\":4993:5152   */\n      pop\n      pop\n      jump\t// out\n        /* \"#utility.yul\":5158:5408   */\n    tag_67:\n        /* \"#utility.yul\":5265:5269   */\n      0x00\n        /* \"#utility.yul\":5303:5305   */\n      0x20\n        /* \"#utility.yul\":5292:5301   */\n      dup3\n        /* \"#utility.yul\":5288:5306   */\n      add\n        /* \"#utility.yul\":5280:5306   */\n      swap1\n      pop\n        /* \"#utility.yul\":5316:5401   */\n      tag_450\n        /* \"#utility.yul\":5398:5399   */\n      0x00\n        /* \"#utility.yul\":5387:5396   */\n      dup4\n        /* \"#utility.yul\":5383:5400   */\n      add\n        /* \"#utility.yul\":5374:5380   */\n      dup5\n        /* \"#utility.yul\":5316:5401   */\n      tag_355\n      jump\t// in\n    tag_450:\n        /* \"#utility.yul\":5158:5408   */\n      swap3\n      swap2\n      pop\n      pop\n      jump\t// out\n        /* \"#utility.yul\":5414:5532   */\n    tag_356:\n        /* \"#utility.yul\":5501:5525   */\n      tag_452\n        /* \"#utility.yul\":5519:5524   */\n      dup2\n        /* \"#utility.yul\":5501:5525   */\n      tag_341\n      jump\t// in\n    tag_452:\n        /* \"#utility.yul\":5496:5499   */\n      dup3\n        /* \"#utility.yul\":5489:5526   */\n      mstore\n        /* \"#utility.yul\":5414:5532   */\n      pop\n      pop\n      jump\t// out\n        /* \"#utility.yul\":5538:5760   */\n    tag_73:\n        /* \"#utility.yul\":5631:5635   */\n      0x00\n        /* \"#utility.yul\":5669:5671   */\n      0x20\n        /* \"#utility.yul\":5658:5667   */\n      dup3\n        /* \"#utility.yul\":5654:5672   */\n      add\n        /* \"#utility.yul\":5646:5672   */\n      swap1\n      pop\n        /* \"#utility.yul\":5682:5753   */\n      tag_454\n        /* \"#utility.yul\":5750:5751   */\n      0x00\n        /* \"#utility.yul\":5739:5748   */\n      dup4\n        /* \"#utility.yul\":5735:5752   */\n      add\n        /* \"#utility.yul\":5726:5732   */\n      dup5\n        /* \"#utility.yul\":5682:5753   */\n      tag_356\n      jump\t// in\n    tag_454:\n        /* \"#utility.yul\":5538:5760   */\n      swap3\n      swap2\n      pop\n      pop\n      jump\t// out\n        /* \"#utility.yul\":5766:5906   */\n    tag_357:\n        /* \"#utility.yul\":5830:5839   */\n      0x00\n        /* \"#utility.yul\":5863:5900   */\n      tag_456\n        /* \"#utility.yul\":5894:5899   */\n      dup3\n        /* \"#utility.yul\":5863:5900   */\n      tag_353\n      jump\t// in\n    tag_456:\n        /* \"#utility.yul\":5850:5900   */\n      swap1\n      pop\n        /* \"#utility.yul\":5766:5906   */\n      swap2\n      swap1\n      pop\n      jump\t// out\n        /* \"#utility.yul\":5912:6071   */\n    tag_358:\n        /* \"#utility.yul\":6013:6064   */\n      tag_458\n        /* \"#utility.yul\":6058:6063   */\n      dup2\n        /* \"#utility.yul\":6013:6064   */\n      tag_357\n      jump\t// in\n    tag_458:\n        /* \"#utility.yul\":6008:6011   */\n      dup3\n        /* \"#utility.yul\":6001:6065   */\n      mstore\n        /* \"#utility.yul\":5912:6071   */\n      pop\n      pop\n      jump\t// out\n        /* \"#utility.yul\":6077:6327   */\n    tag_77:\n        /* \"#utility.yul\":6184:6188   */\n      0x00\n        /* \"#utility.yul\":6222:6224   */\n      0x20\n        /* \"#utility.yul\":6211:6220   */\n      dup3\n        /* \"#utility.yul\":6207:6225   */\n      add\n        /* \"#utility.yul\":6199:6225   */\n      swap1\n      pop\n        /* \"#utility.yul\":6235:6320   */\n      tag_460\n        /* \"#utility.yul\":6317:6318   */\n      0x00\n        /* \"#utility.yul\":6306:6315   */\n      dup4\n        /* \"#utility.yul\":6302:6319   */\n      add\n        /* \"#utility.yul\":6293:6299   */\n      dup5\n        /* \"#utility.yul\":6235:6320   */\n      tag_358\n      jump\t// in\n    tag_460:\n        /* \"#utility.yul\":6077:6327   */\n      swap3\n      swap2\n      pop\n      pop\n      jump\t// out\n        /* \"#utility.yul\":6333:6479   */\n    tag_359:\n        /* \"#utility.yul\":6403:6412   */\n      0x00\n        /* \"#utility.yul\":6436:6473   */\n      tag_462\n        /* \"#utility.yul\":6467:6472   */\n      dup3\n        /* \"#utility.yul\":6436:6473   */\n      tag_353\n      jump\t// in\n    tag_462:\n        /* \"#utility.yul\":6423:6473   */\n      swap1\n      pop\n        /* \"#utility.yul\":6333:6479   */\n      swap2\n      swap1\n      pop\n      jump\t// out\n        /* \"#utility.yul\":6485:6656   */\n    tag_360:\n        /* \"#utility.yul\":6592:6649   */\n      tag_464\n        /* \"#utility.yul\":6643:6648   */\n      dup2\n        /* \"#utility.yul\":6592:6649   */\n      tag_359\n      jump\t// in\n    tag_464:\n        /* \"#utility.yul\":6587:6590   */\n      dup3\n        /* \"#utility.yul\":6580:6650   */\n      mstore\n        /* \"#utility.yul\":6485:6656   */\n      pop\n      pop\n      jump\t// out\n        /* \"#utility.yul\":6662:6924   */\n    tag_105:\n        /* \"#utility.yul\":6775:6779   */\n      0x00\n        /* \"#utility.yul\":6813:6815   */\n      0x20\n        /* \"#utility.yul\":6802:6811   */\n      dup3\n        /* \"#utility.yul\":6798:6816   */\n      add\n        /* \"#utility.yul\":6790:6816   */\n      swap1\n      pop\n        /* \"#utility.yul\":6826:6917   */\n      tag_466\n        /* \"#utility.yul\":6914:6915   */\n      0x00\n        /* \"#utility.yul\":6903:6912   */\n      dup4\n        /* \"#utility.yul\":6899:6916   */\n      add\n        /* \"#utility.yul\":6890:6896   */\n      dup5\n        /* \"#utility.yul\":6826:6917   */\n      tag_360\n      jump\t// in\n    tag_466:\n        /* \"#utility.yul\":6662:6924   */\n      swap3\n      swap2\n      pop\n      pop\n      jump\t// out\n        /* \"#utility.yul\":6930:7073   */\n    tag_361:\n        /* \"#utility.yul\":6987:6992   */\n      0x00\n        /* \"#utility.yul\":7018:7024   */\n      dup2\n        /* \"#utility.yul\":7012:7025   */\n      mload\n        /* \"#utility.yul\":7003:7025   */\n      swap1\n      pop\n        /* \"#utility.yul\":7034:7067   */\n      tag_468\n        /* \"#utility.yul\":7061:7066   */\n      dup2\n        /* \"#utility.yul\":7034:7067   */\n      tag_342\n      jump\t// in\n    tag_468:\n        /* \"#utility.yul\":6930:7073   */\n      swap3\n      swap2\n      pop\n      pop\n      jump\t// out\n        /* \"#utility.yul\":7079:7430   */\n    tag_111:\n        /* \"#utility.yul\":7149:7155   */\n      0x00\n        /* \"#utility.yul\":7198:7200   */\n      0x20\n        /* \"#utility.yul\":7186:7195   */\n      dup3\n        /* \"#utility.yul\":7177:7184   */\n      dup5\n        /* \"#utility.yul\":7173:7196   */\n      sub\n        /* \"#utility.yul\":7169:7201   */\n      slt\n        /* \"#utility.yul\":7166:7285   */\n      iszero\n      tag_470\n      jumpi\n        /* \"#utility.yul\":7204:7283   */\n      tag_471\n      tag_338\n      jump\t// in\n    tag_471:\n        /* \"#utility.yul\":7166:7285   */\n    tag_470:\n        /* \"#utility.yul\":7324:7325   */\n      0x00\n        /* \"#utility.yul\":7349:7413   */\n      tag_472\n        /* \"#utility.yul\":7405:7412   */\n      dup5\n        /* \"#utility.yul\":7396:7402   */\n      dup3\n        /* \"#utility.yul\":7385:7394   */\n      dup6\n        /* \"#utility.yul\":7381:7403   */\n      add\n        /* \"#utility.yul\":7349:7413   */\n      tag_361\n      jump\t// in\n    tag_472:\n        /* \"#utility.yul\":7339:7413   */\n      swap2\n      pop\n        /* \"#utility.yul\":7295:7423   */\n      pop\n        /* \"#utility.yul\":7079:7430   */\n      swap3\n      swap2\n      pop\n      pop\n      jump\t// out\n        /* \"#utility.yul\":7436:7605   */\n    tag_362:\n        /* \"#utility.yul\":7520:7531   */\n      0x00\n        /* \"#utility.yul\":7554:7560   */\n      dup3\n        /* \"#utility.yul\":7549:7552   */\n      dup3\n        /* \"#utility.yul\":7542:7561   */\n      mstore\n        /* \"#utility.yul\":7594:7598   */\n      0x20\n        /* \"#utility.yul\":7589:7592   */\n      dup3\n        /* \"#utility.yul\":7585:7599   */\n      add\n        /* \"#utility.yul\":7570:7599   */\n      swap1\n      pop\n        /* \"#utility.yul\":7436:7605   */\n      swap3\n      swap2\n      pop\n      pop\n      jump\t// out\n        /* \"#utility.yul\":7611:7770   */\n    tag_363:\n        /* \"#utility.yul\":7751:7762   */\n      0x4e6f74204f776e65720000000000000000000000000000000000000000000000\n        /* \"#utility.yul\":7747:7748   */\n      0x00\n        /* \"#utility.yul\":7739:7745   */\n      dup3\n        /* \"#utility.yul\":7735:7749   */\n      add\n        /* \"#utility.yul\":7728:7763   */\n      mstore\n        /* \"#utility.yul\":7611:7770   */\n      pop\n      jump\t// out\n        /* \"#utility.yul\":7776:8141   */\n    tag_364:\n        /* \"#utility.yul\":7918:7921   */\n      0x00\n        /* \"#utility.yul\":7939:8005   */\n      tag_476\n        /* \"#utility.yul\":8003:8004   */\n      0x09\n        /* \"#utility.yul\":7998:8001   */\n      dup4\n        /* \"#utility.yul\":7939:8005   */\n      tag_362\n      jump\t// in\n    tag_476:\n        /* \"#utility.yul\":7932:8005   */\n      swap2\n      pop\n        /* \"#utility.yul\":8014:8107   */\n      tag_477\n        /* \"#utility.yul\":8103:8106   */\n      dup3\n        /* \"#utility.yul\":8014:8107   */\n      tag_363\n      jump\t// in\n    tag_477:\n        /* \"#utility.yul\":8132:8134   */\n      0x20\n        /* \"#utility.yul\":8127:8130   */\n      dup3\n        /* \"#utility.yul\":8123:8135   */\n      add\n        /* \"#utility.yul\":8116:8135   */\n      swap1\n      pop\n        /* \"#utility.yul\":7776:8141   */\n      swap2\n      swap1\n      pop\n      jump\t// out\n        /* \"#utility.yul\":8147:8566   */\n    tag_114:\n        /* \"#utility.yul\":8313:8317   */\n      0x00\n        /* \"#utility.yul\":8351:8353   */\n      0x20\n        /* \"#utility.yul\":8340:8349   */\n      dup3\n        /* \"#utility.yul\":8336:8354   */\n      add\n        /* \"#utility.yul\":8328:8354   */\n      swap1\n      pop\n        /* \"#utility.yul\":8400:8409   */\n      dup2\n        /* \"#utility.yul\":8394:8398   */\n      dup2\n        /* \"#utility.yul\":8390:8410   */\n      sub\n        /* \"#utility.yul\":8386:8387   */\n      0x00\n        /* \"#utility.yul\":8375:8384   */\n      dup4\n        /* \"#utility.yul\":8371:8388   */\n      add\n        /* \"#utility.yul\":8364:8411   */\n      mstore\n        /* \"#utility.yul\":8428:8559   */\n      tag_479\n        /* \"#utility.yul\":8554:8558   */\n      dup2\n        /* \"#utility.yul\":8428:8559   */\n      tag_364\n      jump\t// in\n    tag_479:\n        /* \"#utility.yul\":8420:8559   */\n      swap1\n      pop\n        /* \"#utility.yul\":8147:8566   */\n      swap2\n      swap1\n      pop\n      jump\t// out\n        /* \"#utility.yul\":8572:8754   */\n    tag_365:\n        /* \"#utility.yul\":8712:8746   */\n      0x447261676f6e206e6f74207265676973746572656420666f7220626174746c65\n        /* \"#utility.yul\":8708:8709   */\n      0x00\n        /* \"#utility.yul\":8700:8706   */\n      dup3\n        /* \"#utility.yul\":8696:8710   */\n      add\n        /* \"#utility.yul\":8689:8747   */\n      mstore\n        /* \"#utility.yul\":8572:8754   */\n      pop\n      jump\t// out\n        /* \"#utility.yul\":8760:9126   */\n    tag_366:\n        /* \"#utility.yul\":8902:8905   */\n      0x00\n        /* \"#utility.yul\":8923:8990   */\n      tag_482\n        /* \"#utility.yul\":8987:8989   */\n      0x20\n        /* \"#utility.yul\":8982:8985   */\n      dup4\n        /* \"#utility.yul\":8923:8990   */\n      tag_362\n      jump\t// in\n    tag_482:\n        /* \"#utility.yul\":8916:8990   */\n      swap2\n      pop\n        /* \"#utility.yul\":8999:9092   */\n      tag_483\n        /* \"#utility.yul\":9088:9091   */\n      dup3\n        /* \"#utility.yul\":8999:9092   */\n      tag_365\n      jump\t// in\n    tag_483:\n        /* \"#utility.yul\":9117:9119   */\n      0x20\n        /* \"#utility.yul\":9112:9115   */\n      dup3\n        /* \"#utility.yul\":9108:9120   */\n      add\n        /* \"#utility.yul\":9101:9120   */\n      swap1\n      pop\n        /* \"#utility.yul\":8760:9126   */\n      swap2\n      swap1\n      pop\n      jump\t// out\n        /* \"#utility.yul\":9132:9551   */\n    tag_117:\n        /* \"#utility.yul\":9298:9302   */\n      0x00\n        /* \"#utility.yul\":9336:9338   */\n      0x20\n        /* \"#utility.yul\":9325:9334   */\n      dup3\n        /* \"#utility.yul\":9321:9339   */\n      add\n        /* \"#utility.yul\":9313:9339   */\n      swap1\n      pop\n        /* \"#utility.yul\":9385:9394   */\n      dup2\n        /* \"#utility.yul\":9379:9383   */\n      dup2\n        /* \"#utility.yul\":9375:9395   */\n      sub\n        /* \"#utility.yul\":9371:9372   */\n      0x00\n        /* \"#utility.yul\":9360:9369   */\n      dup4\n        /* \"#utility.yul\":9356:9373   */\n      add\n        /* \"#utility.yul\":9349:9396   */\n      mstore\n        /* \"#utility.yul\":9413:9544   */\n      tag_485\n        /* \"#utility.yul\":9539:9543   */\n      dup2\n        /* \"#utility.yul\":9413:9544   */\n      tag_366\n      jump\t// in\n    tag_485:\n        /* \"#utility.yul\":9405:9544   */\n      swap1\n      pop\n        /* \"#utility.yul\":9132:9551   */\n      swap2\n      swap1\n      pop\n      jump\t// out\n        /* \"#utility.yul\":9557:9700   */\n    tag_367:\n        /* \"#utility.yul\":9614:9619   */\n      0x00\n        /* \"#utility.yul\":9645:9651   */\n      dup2\n        /* \"#utility.yul\":9639:9652   */\n      mload\n        /* \"#utility.yul\":9630:9652   */\n      swap1\n      pop\n        /* \"#utility.yul\":9661:9694   */\n      tag_487\n        /* \"#utility.yul\":9688:9693   */\n      dup2\n        /* \"#utility.yul\":9661:9694   */\n      tag_346\n      jump\t// in\n    tag_487:\n        /* \"#utility.yul\":9557:9700   */\n      swap3\n      swap2\n      pop\n      pop\n      jump\t// out\n        /* \"#utility.yul\":9706:10057   */\n    tag_122:\n        /* \"#utility.yul\":9776:9782   */\n      0x00\n        /* \"#utility.yul\":9825:9827   */\n      0x20\n        /* \"#utility.yul\":9813:9822   */\n      dup3\n        /* \"#utility.yul\":9804:9811   */\n      dup5\n        /* \"#utility.yul\":9800:9823   */\n      sub\n        /* \"#utility.yul\":9796:9828   */\n      slt\n        /* \"#utility.yul\":9793:9912   */\n      iszero\n      tag_489\n      jumpi\n        /* \"#utility.yul\":9831:9910   */\n      tag_490\n      tag_338\n      jump\t// in\n    tag_490:\n        /* \"#utility.yul\":9793:9912   */\n    tag_489:\n        /* \"#utility.yul\":9951:9952   */\n      0x00\n        /* \"#utility.yul\":9976:10040   */\n      tag_491\n        /* \"#utility.yul\":10032:10039   */\n      dup5\n        /* \"#utility.yul\":10023:10029   */\n      dup3\n        /* \"#utility.yul\":10012:10021   */\n      dup6\n        /* \"#utility.yul\":10008:10030   */\n      add\n        /* \"#utility.yul\":9976:10040   */\n      tag_367\n      jump\t// in\n    tag_491:\n        /* \"#utility.yul\":9966:10040   */\n      swap2\n      pop\n        /* \"#utility.yul\":9922:10050   */\n      pop\n        /* \"#utility.yul\":9706:10057   */\n      swap3\n      swap2\n      pop\n      pop\n      jump\t// out\n        /* \"#utility.yul\":10063:10232   */\n    tag_368:\n        /* \"#utility.yul\":10203:10224   */\n      0x496e73756666696369656e74206472696e6b7300000000000000000000000000\n        /* \"#utility.yul\":10199:10200   */\n      0x00\n        /* \"#utility.yul\":10191:10197   */\n      dup3\n        /* \"#utility.yul\":10187:10201   */\n      add\n        /* \"#utility.yul\":10180:10225   */\n      mstore\n        /* \"#utility.yul\":10063:10232   */\n      pop\n      jump\t// out\n        /* \"#utility.yul\":10238:10604   */\n    tag_369:\n        /* \"#utility.yul\":10380:10383   */\n      0x00\n        /* \"#utility.yul\":10401:10468   */\n      tag_494\n        /* \"#utility.yul\":10465:10467   */\n      0x13\n        /* \"#utility.yul\":10460:10463   */\n      dup4\n        /* \"#utility.yul\":10401:10468   */\n      tag_362\n      jump\t// in\n    tag_494:\n        /* \"#utility.yul\":10394:10468   */\n      swap2\n      pop\n        /* \"#utility.yul\":10477:10570   */\n      tag_495\n        /* \"#utility.yul\":10566:10569   */\n      dup3\n        /* \"#utility.yul\":10477:10570   */\n      tag_368\n      jump\t// in\n    tag_495:\n        /* \"#utility.yul\":10595:10597   */\n      0x20\n        /* \"#utility.yul\":10590:10593   */\n      dup3\n        /* \"#utility.yul\":10586:10598   */\n      add\n        /* \"#utility.yul\":10579:10598   */\n      swap1\n      pop\n        /* \"#utility.yul\":10238:10604   */\n      swap2\n      swap1\n      pop\n      jump\t// out\n        /* \"#utility.yul\":10610:11029   */\n    tag_125:\n        /* \"#utility.yul\":10776:10780   */\n      0x00\n        /* \"#utility.yul\":10814:10816   */\n      0x20\n        /* \"#utility.yul\":10803:10812   */\n      dup3\n        /* \"#utility.yul\":10799:10817   */\n      add\n        /* \"#utility.yul\":10791:10817   */\n      swap1\n      pop\n        /* \"#utility.yul\":10863:10872   */\n      dup2\n        /* \"#utility.yul\":10857:10861   */\n      dup2\n        /* \"#utility.yul\":10853:10873   */\n      sub\n        /* \"#utility.yul\":10849:10850   */\n      0x00\n        /* \"#utility.yul\":10838:10847   */\n      dup4\n        /* \"#utility.yul\":10834:10851   */\n      add\n        /* \"#utility.yul\":10827:10874   */\n      mstore\n        /* \"#utility.yul\":10891:11022   */\n      tag_497\n        /* \"#utility.yul\":11017:11021   */\n      dup2\n        /* \"#utility.yul\":10891:11022   */\n      tag_369\n      jump\t// in\n    tag_497:\n        /* \"#utility.yul\":10883:11022   */\n      swap1\n      pop\n        /* \"#utility.yul\":10610:11029   */\n      swap2\n      swap1\n      pop\n      jump\t// out\n        /* \"#utility.yul\":11035:11114   */\n    tag_370:\n        /* \"#utility.yul\":11074:11081   */\n      0x00\n        /* \"#utility.yul\":11103:11108   */\n      dup2\n        /* \"#utility.yul\":11092:11108   */\n      swap1\n      pop\n        /* \"#utility.yul\":11035:11114   */\n      swap2\n      swap1\n      pop\n      jump\t// out\n        /* \"#utility.yul\":11120:11277   */\n    tag_371:\n        /* \"#utility.yul\":11225:11270   */\n      tag_500\n        /* \"#utility.yul\":11245:11269   */\n      tag_501\n        /* \"#utility.yul\":11263:11268   */\n      dup3\n        /* \"#utility.yul\":11245:11269   */\n      tag_344\n      jump\t// in\n    tag_501:\n        /* \"#utility.yul\":11225:11270   */\n      tag_370\n      jump\t// in\n    tag_500:\n        /* \"#utility.yul\":11220:11223   */\n      dup3\n        /* \"#utility.yul\":11213:11271   */\n      mstore\n        /* \"#utility.yul\":11120:11277   */\n      pop\n      pop\n      jump\t// out\n        /* \"#utility.yul\":11283:11680   */\n    tag_131:\n        /* \"#utility.yul\":11423:11426   */\n      0x00\n        /* \"#utility.yul\":11438:11513   */\n      tag_503\n        /* \"#utility.yul\":11509:11512   */\n      dup3\n        /* \"#utility.yul\":11500:11506   */\n      dup6\n        /* \"#utility.yul\":11438:11513   */\n      tag_371\n      jump\t// in\n    tag_503:\n        /* \"#utility.yul\":11538:11540   */\n      0x20\n        /* \"#utility.yul\":11533:11536   */\n      dup3\n        /* \"#utility.yul\":11529:11541   */\n      add\n        /* \"#utility.yul\":11522:11541   */\n      swap2\n      pop\n        /* \"#utility.yul\":11551:11626   */\n      tag_504\n        /* \"#utility.yul\":11622:11625   */\n      dup3\n        /* \"#utility.yul\":11613:11619   */\n      dup5\n        /* \"#utility.yul\":11551:11626   */\n      tag_371\n      jump\t// in\n    tag_504:\n        /* \"#utility.yul\":11651:11653   */\n      0x20\n        /* \"#utility.yul\":11646:11649   */\n      dup3\n        /* \"#utility.yul\":11642:11654   */\n      add\n        /* \"#utility.yul\":11635:11654   */\n      swap2\n      pop\n        /* \"#utility.yul\":11671:11674   */\n      dup2\n        /* \"#utility.yul\":11664:11674   */\n      swap1\n      pop\n        /* \"#utility.yul\":11283:11680   */\n      swap4\n      swap3\n      pop\n      pop\n      pop\n      jump\t// out\n        /* \"#utility.yul\":11686:11866   */\n    tag_372:\n        /* \"#utility.yul\":11734:11811   */\n      0x4e487b7100000000000000000000000000000000000000000000000000000000\n        /* \"#utility.yul\":11731:11732   */\n      0x00\n        /* \"#utility.yul\":11724:11812   */\n      mstore\n        /* \"#utility.yul\":11831:11835   */\n      0x12\n        /* \"#utility.yul\":11828:11829   */\n      0x04\n        /* \"#utility.yul\":11821:11836   */\n      mstore\n        /* \"#utility.yul\":11855:11859   */\n      0x24\n        /* \"#utility.yul\":11852:11853   */\n      0x00\n        /* \"#utility.yul\":11845:11860   */\n      revert\n        /* \"#utility.yul\":11872:12048   */\n    tag_133:\n        /* \"#utility.yul\":11904:11905   */\n      0x00\n        /* \"#utility.yul\":11921:11941   */\n      tag_507\n        /* \"#utility.yul\":11939:11940   */\n      dup3\n        /* \"#utility.yul\":11921:11941   */\n      tag_344\n      jump\t// in\n    tag_507:\n        /* \"#utility.yul\":11916:11941   */\n      swap2\n      pop\n        /* \"#utility.yul\":11955:11975   */\n      tag_508\n        /* \"#utility.yul\":11973:11974   */\n      dup4\n        /* \"#utility.yul\":11955:11975   */\n      tag_344\n      jump\t// in\n    tag_508:\n        /* \"#utility.yul\":11950:11975   */\n      swap3\n      pop\n        /* \"#utility.yul\":11994:11995   */\n      dup3\n        /* \"#utility.yul\":11984:12019   */\n      tag_509\n      jumpi\n        /* \"#utility.yul\":11999:12017   */\n      tag_510\n      tag_372\n      jump\t// in\n    tag_510:\n        /* \"#utility.yul\":11984:12019   */\n    tag_509:\n        /* \"#utility.yul\":12040:12041   */\n      dup3\n        /* \"#utility.yul\":12037:12038   */\n      dup3\n        /* \"#utility.yul\":12033:12042   */\n      mod\n        /* \"#utility.yul\":12028:12042   */\n      swap1\n      pop\n        /* \"#utility.yul\":11872:12048   */\n      swap3\n      swap2\n      pop\n      pop\n      jump\t// out\n        /* \"#utility.yul\":12054:12234   */\n    tag_373:\n        /* \"#utility.yul\":12102:12179   */\n      0x4e487b7100000000000000000000000000000000000000000000000000000000\n        /* \"#utility.yul\":12099:12100   */\n      0x00\n        /* \"#utility.yul\":12092:12180   */\n      mstore\n        /* \"#utility.yul\":12199:12203   */\n      0x11\n        /* \"#utility.yul\":12196:12197   */\n      0x04\n        /* \"#utility.yul\":12189:12204   */\n      mstore\n        /* \"#utility.yul\":12223:12227   */\n      0x24\n        /* \"#utility.yul\":12220:12221   */\n      0x00\n        /* \"#utility.yul\":12213:12228   */\n      revert\n        /* \"#utility.yul\":12240:12431   */\n    tag_136:\n        /* \"#utility.yul\":12280:12283   */\n      0x00\n        /* \"#utility.yul\":12299:12319   */\n      tag_513\n        /* \"#utility.yul\":12317:12318   */\n      dup3\n        /* \"#utility.yul\":12299:12319   */\n      tag_344\n      jump\t// in\n    tag_513:\n        /* \"#utility.yul\":12294:12319   */\n      swap2\n      pop\n        /* \"#utility.yul\":12333:12353   */\n      tag_514\n        /* \"#utility.yul\":12351:12352   */\n      dup4\n        /* \"#utility.yul\":12333:12353   */\n      tag_344\n      jump\t// in\n    tag_514:\n        /* \"#utility.yul\":12328:12353   */\n      swap3\n      pop\n        /* \"#utility.yul\":12376:12377   */\n      dup3\n        /* \"#utility.yul\":12373:12374   */\n      dup3\n        /* \"#utility.yul\":12369:12378   */\n      add\n        /* \"#utility.yul\":12362:12378   */\n      swap1\n      pop\n        /* \"#utility.yul\":12397:12400   */\n      dup1\n        /* \"#utility.yul\":12394:12395   */\n      dup3\n        /* \"#utility.yul\":12391:12401   */\n      gt\n        /* \"#utility.yul\":12388:12424   */\n      iszero\n      tag_515\n      jumpi\n        /* \"#utility.yul\":12404:12422   */\n      tag_516\n      tag_373\n      jump\t// in\n    tag_516:\n        /* \"#utility.yul\":12388:12424   */\n    tag_515:\n        /* \"#utility.yul\":12240:12431   */\n      swap3\n      swap2\n      pop\n      pop\n      jump\t// out\n        /* \"#utility.yul\":12437:12608   */\n    tag_374:\n        /* \"#utility.yul\":12577:12600   */\n      0x746f6b656e206973206e6f742072656769737465720000000000000000000000\n        /* \"#utility.yul\":12573:12574   */\n      0x00\n        /* \"#utility.yul\":12565:12571   */\n      dup3\n        /* \"#utility.yul\":12561:12575   */\n      add\n        /* \"#utility.yul\":12554:12601   */\n      mstore\n        /* \"#utility.yul\":12437:12608   */\n      pop\n      jump\t// out\n        /* \"#utility.yul\":12614:12980   */\n    tag_375:\n        /* \"#utility.yul\":12756:12759   */\n      0x00\n        /* \"#utility.yul\":12777:12844   */\n      tag_519\n        /* \"#utility.yul\":12841:12843   */\n      0x15\n        /* \"#utility.yul\":12836:12839   */\n      dup4\n        /* \"#utility.yul\":12777:12844   */\n      tag_362\n      jump\t// in\n    tag_519:\n        /* \"#utility.yul\":12770:12844   */\n      swap2\n      pop\n        /* \"#utility.yul\":12853:12946   */\n      tag_520\n        /* \"#utility.yul\":12942:12945   */\n      dup3\n        /* \"#utility.yul\":12853:12946   */\n      tag_374\n      jump\t// in\n    tag_520:\n        /* \"#utility.yul\":12971:12973   */\n      0x20\n        /* \"#utility.yul\":12966:12969   */\n      dup3\n        /* \"#utility.yul\":12962:12974   */\n      add\n        /* \"#utility.yul\":12955:12974   */\n      swap1\n      pop\n        /* \"#utility.yul\":12614:12980   */\n      swap2\n      swap1\n      pop\n      jump\t// out\n        /* \"#utility.yul\":12986:13405   */\n    tag_158:\n        /* \"#utility.yul\":13152:13156   */\n      0x00\n        /* \"#utility.yul\":13190:13192   */\n      0x20\n        /* \"#utility.yul\":13179:13188   */\n      dup3\n        /* \"#utility.yul\":13175:13193   */\n      add\n        /* \"#utility.yul\":13167:13193   */\n      swap1\n      pop\n        /* \"#utility.yul\":13239:13248   */\n      dup2\n        /* \"#utility.yul\":13233:13237   */\n      dup2\n        /* \"#utility.yul\":13229:13249   */\n      sub\n        /* \"#utility.yul\":13225:13226   */\n      0x00\n        /* \"#utility.yul\":13214:13223   */\n      dup4\n        /* \"#utility.yul\":13210:13227   */\n      add\n        /* \"#utility.yul\":13203:13250   */\n      mstore\n        /* \"#utility.yul\":13267:13398   */\n      tag_522\n        /* \"#utility.yul\":13393:13397   */\n      dup2\n        /* \"#utility.yul\":13267:13398   */\n      tag_375\n      jump\t// in\n    tag_522:\n        /* \"#utility.yul\":13259:13398   */\n      swap1\n      pop\n        /* \"#utility.yul\":12986:13405   */\n      swap2\n      swap1\n      pop\n      jump\t// out\n        /* \"#utility.yul\":13411:13591   */\n    tag_164:\n        /* \"#utility.yul\":13459:13536   */\n      0x4e487b7100000000000000000000000000000000000000000000000000000000\n        /* \"#utility.yul\":13456:13457   */\n      0x00\n        /* \"#utility.yul\":13449:13537   */\n      mstore\n        /* \"#utility.yul\":13556:13560   */\n      0x32\n        /* \"#utility.yul\":13553:13554   */\n      0x04\n        /* \"#utility.yul\":13546:13561   */\n      mstore\n        /* \"#utility.yul\":13580:13584   */\n      0x24\n        /* \"#utility.yul\":13577:13578   */\n      0x00\n        /* \"#utility.yul\":13570:13585   */\n      revert\n        /* \"#utility.yul\":13597:13791   */\n    tag_168:\n        /* \"#utility.yul\":13637:13641   */\n      0x00\n        /* \"#utility.yul\":13657:13677   */\n      tag_525\n        /* \"#utility.yul\":13675:13676   */\n      dup3\n        /* \"#utility.yul\":13657:13677   */\n      tag_344\n      jump\t// in\n    tag_525:\n        /* \"#utility.yul\":13652:13677   */\n      swap2\n      pop\n        /* \"#utility.yul\":13691:13711   */\n      tag_526\n        /* \"#utility.yul\":13709:13710   */\n      dup4\n        /* \"#utility.yul\":13691:13711   */\n      tag_344\n      jump\t// in\n    tag_526:\n        /* \"#utility.yul\":13686:13711   */\n      swap3\n      pop\n        /* \"#utility.yul\":13735:13736   */\n      dup3\n        /* \"#utility.yul\":13732:13733   */\n      dup3\n        /* \"#utility.yul\":13728:13737   */\n      sub\n        /* \"#utility.yul\":13720:13737   */\n      swap1\n      pop\n        /* \"#utility.yul\":13759:13760   */\n      dup2\n        /* \"#utility.yul\":13753:13757   */\n      dup2\n        /* \"#utility.yul\":13750:13761   */\n      gt\n        /* \"#utility.yul\":13747:13784   */\n      iszero\n      tag_527\n      jumpi\n        /* \"#utility.yul\":13764:13782   */\n      tag_528\n      tag_373\n      jump\t// in\n    tag_528:\n        /* \"#utility.yul\":13747:13784   */\n    tag_527:\n        /* \"#utility.yul\":13597:13791   */\n      swap3\n      swap2\n      pop\n      pop\n      jump\t// out\n        /* \"#utility.yul\":13797:13977   */\n    tag_177:\n        /* \"#utility.yul\":13845:13922   */\n      0x4e487b7100000000000000000000000000000000000000000000000000000000\n        /* \"#utility.yul\":13842:13843   */\n      0x00\n        /* \"#utility.yul\":13835:13923   */\n      mstore\n        /* \"#utility.yul\":13942:13946   */\n      0x31\n        /* \"#utility.yul\":13939:13940   */\n      0x04\n        /* \"#utility.yul\":13932:13947   */\n      mstore\n        /* \"#utility.yul\":13966:13970   */\n      0x24\n        /* \"#utility.yul\":13963:13964   */\n      0x00\n        /* \"#utility.yul\":13956:13971   */\n      revert\n        /* \"#utility.yul\":13983:14150   */\n    tag_376:\n        /* \"#utility.yul\":14123:14142   */\n      0x4e6f206f70706f6e656e7420666f756e64000000000000000000000000000000\n        /* \"#utility.yul\":14119:14120   */\n      0x00\n        /* \"#utility.yul\":14111:14117   */\n      dup3\n        /* \"#utility.yul\":14107:14121   */\n      add\n        /* \"#utility.yul\":14100:14143   */\n      mstore\n        /* \"#utility.yul\":13983:14150   */\n      pop\n      jump\t// out\n        /* \"#utility.yul\":14156:14522   */\n    tag_377:\n        /* \"#utility.yul\":14298:14301   */\n      0x00\n        /* \"#utility.yul\":14319:14386   */\n      tag_532\n        /* \"#utility.yul\":14383:14385   */\n      0x11\n        /* \"#utility.yul\":14378:14381   */\n      dup4\n        /* \"#utility.yul\":14319:14386   */\n      tag_362\n      jump\t// in\n    tag_532:\n        /* \"#utility.yul\":14312:14386   */\n      swap2\n      pop\n        /* \"#utility.yul\":14395:14488   */\n      tag_533\n        /* \"#utility.yul\":14484:14487   */\n      dup3\n        /* \"#utility.yul\":14395:14488   */\n      tag_376\n      jump\t// in\n    tag_533:\n        /* \"#utility.yul\":14513:14515   */\n      0x20\n        /* \"#utility.yul\":14508:14511   */\n      dup3\n        /* \"#utility.yul\":14504:14516   */\n      add\n        /* \"#utility.yul\":14497:14516   */\n      swap1\n      pop\n        /* \"#utility.yul\":14156:14522   */\n      swap2\n      swap1\n      pop\n      jump\t// out\n        /* \"#utility.yul\":14528:14947   */\n    tag_190:\n        /* \"#utility.yul\":14694:14698   */\n      0x00\n        /* \"#utility.yul\":14732:14734   */\n      0x20\n        /* \"#utility.yul\":14721:14730   */\n      dup3\n        /* \"#utility.yul\":14717:14735   */\n      add\n        /* \"#utility.yul\":14709:14735   */\n      swap1\n      pop\n        /* \"#utility.yul\":14781:14790   */\n      dup2\n        /* \"#utility.yul\":14775:14779   */\n      dup2\n        /* \"#utility.yul\":14771:14791   */\n      sub\n        /* \"#utility.yul\":14767:14768   */\n      0x00\n        /* \"#utility.yul\":14756:14765   */\n      dup4\n        /* \"#utility.yul\":14752:14769   */\n      add\n        /* \"#utility.yul\":14745:14792   */\n      mstore\n        /* \"#utility.yul\":14809:14940   */\n      tag_535\n        /* \"#utility.yul\":14935:14939   */\n      dup2\n        /* \"#utility.yul\":14809:14940   */\n      tag_377\n      jump\t// in\n    tag_535:\n        /* \"#utility.yul\":14801:14940   */\n      swap1\n      pop\n        /* \"#utility.yul\":14528:14947   */\n      swap2\n      swap1\n      pop\n      jump\t// out\n        /* \"#utility.yul\":14953:15070   */\n    tag_378:\n        /* \"#utility.yul\":15062:15063   */\n      0x00\n        /* \"#utility.yul\":15059:15060   */\n      dup1\n        /* \"#utility.yul\":15052:15064   */\n      revert\n        /* \"#utility.yul\":15076:15178   */\n    tag_379:\n        /* \"#utility.yul\":15117:15123   */\n      0x00\n        /* \"#utility.yul\":15168:15170   */\n      0x1f\n        /* \"#utility.yul\":15164:15171   */\n      not\n        /* \"#utility.yul\":15159:15161   */\n      0x1f\n        /* \"#utility.yul\":15152:15157   */\n      dup4\n        /* \"#utility.yul\":15148:15162   */\n      add\n        /* \"#utility.yul\":15144:15172   */\n      and\n        /* \"#utility.yul\":15134:15172   */\n      swap1\n      pop\n        /* \"#utility.yul\":15076:15178   */\n      swap2\n      swap1\n      pop\n      jump\t// out\n        /* \"#utility.yul\":15184:15364   */\n    tag_380:\n        /* \"#utility.yul\":15232:15309   */\n      0x4e487b7100000000000000000000000000000000000000000000000000000000\n        /* \"#utility.yul\":15229:15230   */\n      0x00\n        /* \"#utility.yul\":15222:15310   */\n      mstore\n        /* \"#utility.yul\":15329:15333   */\n      0x41\n        /* \"#utility.yul\":15326:15327   */\n      0x04\n        /* \"#utility.yul\":15319:15334   */\n      mstore\n        /* \"#utility.yul\":15353:15357   */\n      0x24\n        /* \"#utility.yul\":15350:15351   */\n      0x00\n        /* \"#utility.yul\":15343:15358   */\n      revert\n        /* \"#utility.yul\":15370:15651   */\n    tag_381:\n        /* \"#utility.yul\":15453:15480   */\n      tag_540\n        /* \"#utility.yul\":15475:15479   */\n      dup3\n        /* \"#utility.yul\":15453:15480   */\n      tag_379\n      jump\t// in\n    tag_540:\n        /* \"#utility.yul\":15445:15451   */\n      dup2\n        /* \"#utility.yul\":15441:15481   */\n      add\n        /* \"#utility.yul\":15583:15589   */\n      dup2\n        /* \"#utility.yul\":15571:15581   */\n      dup2\n        /* \"#utility.yul\":15568:15590   */\n      lt\n        /* \"#utility.yul\":15547:15565   */\n      0xffffffffffffffff\n        /* \"#utility.yul\":15535:15545   */\n      dup3\n        /* \"#utility.yul\":15532:15566   */\n      gt\n        /* \"#utility.yul\":15529:15591   */\n      or\n        /* \"#utility.yul\":15526:15614   */\n      iszero\n      tag_541\n      jumpi\n        /* \"#utility.yul\":15594:15612   */\n      tag_542\n      tag_380\n      jump\t// in\n    tag_542:\n        /* \"#utility.yul\":15526:15614   */\n    tag_541:\n        /* \"#utility.yul\":15634:15644   */\n      dup1\n        /* \"#utility.yul\":15630:15632   */\n      0x40\n        /* \"#utility.yul\":15623:15645   */\n      mstore\n        /* \"#utility.yul\":15413:15651   */\n      pop\n        /* \"#utility.yul\":15370:15651   */\n      pop\n      pop\n      jump\t// out\n        /* \"#utility.yul\":15657:15786   */\n    tag_382:\n        /* \"#utility.yul\":15691:15697   */\n      0x00\n        /* \"#utility.yul\":15718:15738   */\n      tag_544\n      tag_337\n      jump\t// in\n    tag_544:\n        /* \"#utility.yul\":15708:15738   */\n      swap1\n      pop\n        /* \"#utility.yul\":15747:15780   */\n      tag_545\n        /* \"#utility.yul\":15775:15779   */\n      dup3\n        /* \"#utility.yul\":15767:15773   */\n      dup3\n        /* \"#utility.yul\":15747:15780   */\n      tag_381\n      jump\t// in\n    tag_545:\n        /* \"#utility.yul\":15657:15786   */\n      swap2\n      swap1\n      pop\n      jump\t// out\n        /* \"#utility.yul\":15915:16005   */\n    tag_384:\n        /* \"#utility.yul\":15949:15956   */\n      0x00\n        /* \"#utility.yul\":15992:15997   */\n      dup2\n        /* \"#utility.yul\":15985:15998   */\n      iszero\n        /* \"#utility.yul\":15978:15999   */\n      iszero\n        /* \"#utility.yul\":15967:15999   */\n      swap1\n      pop\n        /* \"#utility.yul\":15915:16005   */\n      swap2\n      swap1\n      pop\n      jump\t// out\n        /* \"#utility.yul\":16011:16127   */\n    tag_385:\n        /* \"#utility.yul\":16081:16102   */\n      tag_549\n        /* \"#utility.yul\":16096:16101   */\n      dup2\n        /* \"#utility.yul\":16081:16102   */\n      tag_384\n      jump\t// in\n    tag_549:\n        /* \"#utility.yul\":16074:16079   */\n      dup2\n        /* \"#utility.yul\":16071:16103   */\n      eq\n        /* \"#utility.yul\":16061:16121   */\n      tag_550\n      jumpi\n        /* \"#utility.yul\":16117:16118   */\n      0x00\n        /* \"#utility.yul\":16114:16115   */\n      dup1\n        /* \"#utility.yul\":16107:16119   */\n      revert\n        /* \"#utility.yul\":16061:16121   */\n    tag_550:\n        /* \"#utility.yul\":16011:16127   */\n      pop\n      jump\t// out\n        /* \"#utility.yul\":16133:16270   */\n    tag_386:\n        /* \"#utility.yul\":16187:16192   */\n      0x00\n        /* \"#utility.yul\":16218:16224   */\n      dup2\n        /* \"#utility.yul\":16212:16225   */\n      mload\n        /* \"#utility.yul\":16203:16225   */\n      swap1\n      pop\n        /* \"#utility.yul\":16234:16264   */\n      tag_552\n        /* \"#utility.yul\":16258:16263   */\n      dup2\n        /* \"#utility.yul\":16234:16264   */\n      tag_385\n      jump\t// in\n    tag_552:\n        /* \"#utility.yul\":16133:16270   */\n      swap3\n      swap2\n      pop\n      pop\n      jump\t// out\n        /* \"#utility.yul\":16307:17093   */\n    tag_387:\n        /* \"#utility.yul\":16393:16398   */\n      0x00\n        /* \"#utility.yul\":16437:16441   */\n      0x60\n        /* \"#utility.yul\":16425:16434   */\n      dup3\n        /* \"#utility.yul\":16420:16423   */\n      dup5\n        /* \"#utility.yul\":16416:16435   */\n      sub\n        /* \"#utility.yul\":16412:16442   */\n      slt\n        /* \"#utility.yul\":16409:16526   */\n      iszero\n      tag_554\n      jumpi\n        /* \"#utility.yul\":16445:16524   */\n      tag_555\n      tag_378\n      jump\t// in\n    tag_555:\n        /* \"#utility.yul\":16409:16526   */\n    tag_554:\n        /* \"#utility.yul\":16544:16565   */\n      tag_556\n        /* \"#utility.yul\":16560:16564   */\n      0x60\n        /* \"#utility.yul\":16544:16565   */\n      tag_382\n      jump\t// in\n    tag_556:\n        /* \"#utility.yul\":16535:16565   */\n      swap1\n      pop\n        /* \"#utility.yul\":16630:16631   */\n      0x00\n        /* \"#utility.yul\":16670:16727   */\n      tag_557\n        /* \"#utility.yul\":16723:16726   */\n      dup5\n        /* \"#utility.yul\":16714:16720   */\n      dup3\n        /* \"#utility.yul\":16703:16712   */\n      dup6\n        /* \"#utility.yul\":16699:16721   */\n      add\n        /* \"#utility.yul\":16670:16727   */\n      tag_386\n      jump\t// in\n    tag_557:\n        /* \"#utility.yul\":16663:16667   */\n      0x00\n        /* \"#utility.yul\":16656:16661   */\n      dup4\n        /* \"#utility.yul\":16652:16668   */\n      add\n        /* \"#utility.yul\":16645:16728   */\n      mstore\n        /* \"#utility.yul\":16575:16739   */\n      pop\n        /* \"#utility.yul\":16805:16807   */\n      0x20\n        /* \"#utility.yul\":16846:16903   */\n      tag_558\n        /* \"#utility.yul\":16899:16902   */\n      dup5\n        /* \"#utility.yul\":16890:16896   */\n      dup3\n        /* \"#utility.yul\":16879:16888   */\n      dup6\n        /* \"#utility.yul\":16875:16897   */\n      add\n        /* \"#utility.yul\":16846:16903   */\n      tag_386\n      jump\t// in\n    tag_558:\n        /* \"#utility.yul\":16839:16843   */\n      0x20\n        /* \"#utility.yul\":16832:16837   */\n      dup4\n        /* \"#utility.yul\":16828:16844   */\n      add\n        /* \"#utility.yul\":16821:16904   */\n      mstore\n        /* \"#utility.yul\":16749:16915   */\n      pop\n        /* \"#utility.yul\":16976:16978   */\n      0x40\n        /* \"#utility.yul\":17017:17074   */\n      tag_559\n        /* \"#utility.yul\":17070:17073   */\n      dup5\n        /* \"#utility.yul\":17061:17067   */\n      dup3\n        /* \"#utility.yul\":17050:17059   */\n      dup6\n        /* \"#utility.yul\":17046:17068   */\n      add\n        /* \"#utility.yul\":17017:17074   */\n      tag_386\n      jump\t// in\n    tag_559:\n        /* \"#utility.yul\":17010:17014   */\n      0x40\n        /* \"#utility.yul\":17003:17008   */\n      dup4\n        /* \"#utility.yul\":16999:17015   */\n      add\n        /* \"#utility.yul\":16992:17075   */\n      mstore\n        /* \"#utility.yul\":16925:17086   */\n      pop\n        /* \"#utility.yul\":16307:17093   */\n      swap3\n      swap2\n      pop\n      pop\n      jump\t// out\n        /* \"#utility.yul\":17099:17502   */\n    tag_195:\n        /* \"#utility.yul\":17195:17201   */\n      0x00\n        /* \"#utility.yul\":17244:17246   */\n      0x60\n        /* \"#utility.yul\":17232:17241   */\n      dup3\n        /* \"#utility.yul\":17223:17230   */\n      dup5\n        /* \"#utility.yul\":17219:17242   */\n      sub\n        /* \"#utility.yul\":17215:17247   */\n      slt\n        /* \"#utility.yul\":17212:17331   */\n      iszero\n      tag_561\n      jumpi\n        /* \"#utility.yul\":17250:17329   */\n      tag_562\n      tag_338\n      jump\t// in\n    tag_562:\n        /* \"#utility.yul\":17212:17331   */\n    tag_561:\n        /* \"#utility.yul\":17370:17371   */\n      0x00\n        /* \"#utility.yul\":17395:17485   */\n      tag_563\n        /* \"#utility.yul\":17477:17484   */\n      dup5\n        /* \"#utility.yul\":17468:17474   */\n      dup3\n        /* \"#utility.yul\":17457:17466   */\n      dup6\n        /* \"#utility.yul\":17453:17475   */\n      add\n        /* \"#utility.yul\":17395:17485   */\n      tag_387\n      jump\t// in\n    tag_563:\n        /* \"#utility.yul\":17385:17485   */\n      swap2\n      pop\n        /* \"#utility.yul\":17341:17495   */\n      pop\n        /* \"#utility.yul\":17099:17502   */\n      swap3\n      swap2\n      pop\n      pop\n      jump\t// out\n        /* \"#utility.yul\":17508:17741   */\n    tag_204:\n        /* \"#utility.yul\":17547:17550   */\n      0x00\n        /* \"#utility.yul\":17570:17594   */\n      tag_565\n        /* \"#utility.yul\":17588:17593   */\n      dup3\n        /* \"#utility.yul\":17570:17594   */\n      tag_344\n      jump\t// in\n    tag_565:\n        /* \"#utility.yul\":17561:17594   */\n      swap2\n      pop\n        /* \"#utility.yul\":17616:17682   */\n      0xffffffffffffffffffffffffffffffffffffffffffffffffffffffffffffffff\n        /* \"#utility.yul\":17609:17614   */\n      dup3\n        /* \"#utility.yul\":17606:17683   */\n      sub\n        /* \"#utility.yul\":17603:17706   */\n      tag_566\n      jumpi\n        /* \"#utility.yul\":17686:17704   */\n      tag_567\n      tag_373\n      jump\t// in\n    tag_567:\n        /* \"#utility.yul\":17603:17706   */\n    tag_566:\n        /* \"#utility.yul\":17733:17734   */\n      0x01\n        /* \"#utility.yul\":17726:17731   */\n      dup3\n        /* \"#utility.yul\":17722:17735   */\n      add\n        /* \"#utility.yul\":17715:17735   */\n      swap1\n      pop\n        /* \"#utility.yul\":17508:17741   */\n      swap2\n      swap1\n      pop\n      jump\t// out\n        /* \"#utility.yul\":17747:17932   */\n    tag_216:\n        /* \"#utility.yul\":17787:17788   */\n      0x00\n        /* \"#utility.yul\":17804:17824   */\n      tag_569\n        /* \"#utility.yul\":17822:17823   */\n      dup3\n        /* \"#utility.yul\":17804:17824   */\n      tag_344\n      jump\t// in\n    tag_569:\n        /* \"#utility.yul\":17799:17824   */\n      swap2\n      pop\n        /* \"#utility.yul\":17838:17858   */\n      tag_570\n        /* \"#utility.yul\":17856:17857   */\n      dup4\n        /* \"#utility.yul\":17838:17858   */\n      tag_344\n      jump\t// in\n    tag_570:\n        /* \"#utility.yul\":17833:17858   */\n      swap3\n      pop\n        /* \"#utility.yul\":17877:17878   */\n      dup3\n        /* \"#utility.yul\":17867:17902   */\n      tag_571\n      jumpi\n        /* \"#utility.yul\":17882:17900   */\n      tag_572\n      tag_372\n      jump\t// in\n    tag_572:\n        /* \"#utility.yul\":17867:17902   */\n    tag_571:\n        /* \"#utility.yul\":17924:17925   */\n      dup3\n        /* \"#utility.yul\":17921:17922   */\n      dup3\n        /* \"#utility.yul\":17917:17926   */\n      div\n        /* \"#utility.yul\":17912:17926   */\n      swap1\n      pop\n        /* \"#utility.yul\":17747:17932   */\n      swap3\n      swap2\n      pop\n      pop\n      jump\t// out\n        /* \"#utility.yul\":17938:18106   */\n    tag_388:\n        /* \"#utility.yul\":18078:18098   */\n      0x416c726561647920726567697374657265640000000000000000000000000000\n        /* \"#utility.yul\":18074:18075   */\n      0x00\n        /* \"#utility.yul\":18066:18072   */\n      dup3\n        /* \"#utility.yul\":18062:18076   */\n      add\n        /* \"#utility.yul\":18055:18099   */\n      mstore\n        /* \"#utility.yul\":17938:18106   */\n      pop\n      jump\t// out\n        /* \"#utility.yul\":18112:18478   */\n    tag_389:\n        /* \"#utility.yul\":18254:18257   */\n      0x00\n        /* \"#utility.yul\":18275:18342   */\n      tag_575\n        /* \"#utility.yul\":18339:18341   */\n      0x12\n        /* \"#utility.yul\":18334:18337   */\n      dup4\n        /* \"#utility.yul\":18275:18342   */\n      tag_362\n      jump\t// in\n    tag_575:\n        /* \"#utility.yul\":18268:18342   */\n      swap2\n      pop\n        /* \"#utility.yul\":18351:18444   */\n      tag_576\n        /* \"#utility.yul\":18440:18443   */\n      dup3\n        /* \"#utility.yul\":18351:18444   */\n      tag_388\n      jump\t// in\n    tag_576:\n        /* \"#utility.yul\":18469:18471   */\n      0x20\n        /* \"#utility.yul\":18464:18467   */\n      dup3\n        /* \"#utility.yul\":18460:18472   */\n      add\n        /* \"#utility.yul\":18453:18472   */\n      swap1\n      pop\n        /* \"#utility.yul\":18112:18478   */\n      swap2\n      swap1\n      pop\n      jump\t// out\n        /* \"#utility.yul\":18484:18903   */\n    tag_235:\n        /* \"#utility.yul\":18650:18654   */\n      0x00\n        /* \"#utility.yul\":18688:18690   */\n      0x20\n        /* \"#utility.yul\":18677:18686   */\n      dup3\n        /* \"#utility.yul\":18673:18691   */\n      add\n        /* \"#utility.yul\":18665:18691   */\n      swap1\n      pop\n        /* \"#utility.yul\":18737:18746   */\n      dup2\n        /* \"#utility.yul\":18731:18735   */\n      dup2\n        /* \"#utility.yul\":18727:18747   */\n      sub\n        /* \"#utility.yul\":18723:18724   */\n      0x00\n        /* \"#utility.yul\":18712:18721   */\n      dup4\n        /* \"#utility.yul\":18708:18725   */\n      add\n        /* \"#utility.yul\":18701:18748   */\n      mstore\n        /* \"#utility.yul\":18765:18896   */\n      tag_578\n        /* \"#utility.yul\":18891:18895   */\n      dup2\n        /* \"#utility.yul\":18765:18896   */\n      tag_389\n      jump\t// in\n    tag_578:\n        /* \"#utility.yul\":18757:18896   */\n      swap1\n      pop\n        /* \"#utility.yul\":18484:18903   */\n      swap2\n      swap1\n      pop\n      jump\t// out\n        /* \"#utility.yul\":18909:19023   */\n    tag_390:\n        /* \"#utility.yul\":18997:18998   */\n      0x04\n        /* \"#utility.yul\":18990:18995   */\n      dup2\n        /* \"#utility.yul\":18987:18999   */\n      lt\n        /* \"#utility.yul\":18977:19017   */\n      tag_580\n      jumpi\n        /* \"#utility.yul\":19013:19014   */\n      0x00\n        /* \"#utility.yul\":19010:19011   */\n      dup1\n        /* \"#utility.yul\":19003:19015   */\n      revert\n        /* \"#utility.yul\":18977:19017   */\n    tag_580:\n        /* \"#utility.yul\":18909:19023   */\n      pop\n      jump\t// out\n        /* \"#utility.yul\":19029:19202   */\n    tag_391:\n        /* \"#utility.yul\":19101:19106   */\n      0x00\n        /* \"#utility.yul\":19132:19138   */\n      dup2\n        /* \"#utility.yul\":19126:19139   */\n      mload\n        /* \"#utility.yul\":19117:19139   */\n      swap1\n      pop\n        /* \"#utility.yul\":19148:19196   */\n      tag_582\n        /* \"#utility.yul\":19190:19195   */\n      dup2\n        /* \"#utility.yul\":19148:19196   */\n      tag_390\n      jump\t// in\n    tag_582:\n        /* \"#utility.yul\":19029:19202   */\n      swap3\n      swap2\n      pop\n      pop\n      jump\t// out\n        /* \"#utility.yul\":19208:19745   */\n    tag_240:\n        /* \"#utility.yul\":19302:19308   */\n      0x00\n        /* \"#utility.yul\":19310:19316   */\n      dup1\n        /* \"#utility.yul\":19359:19361   */\n      0x40\n        /* \"#utility.yul\":19347:19356   */\n      dup4\n        /* \"#utility.yul\":19338:19345   */\n      dup6\n        /* \"#utility.yul\":19334:19357   */\n      sub\n        /* \"#utility.yul\":19330:19362   */\n      slt\n        /* \"#utility.yul\":19327:19446   */\n      iszero\n      tag_584\n      jumpi\n        /* \"#utility.yul\":19365:19444   */\n      tag_585\n      tag_338\n      jump\t// in\n    tag_585:\n        /* \"#utility.yul\":19327:19446   */\n    tag_584:\n        /* \"#utility.yul\":19485:19486   */\n      0x00\n        /* \"#utility.yul\":19510:19589   */\n      tag_586\n        /* \"#utility.yul\":19581:19588   */\n      dup6\n        /* \"#utility.yul\":19572:19578   */\n      dup3\n        /* \"#utility.yul\":19561:19570   */\n      dup7\n        /* \"#utility.yul\":19557:19579   */\n      add\n        /* \"#utility.yul\":19510:19589   */\n      tag_391\n      jump\t// in\n    tag_586:\n        /* \"#utility.yul\":19500:19589   */\n      swap3\n      pop\n        /* \"#utility.yul\":19456:19599   */\n      pop\n        /* \"#utility.yul\":19638:19640   */\n      0x20\n        /* \"#utility.yul\":19664:19728   */\n      tag_587\n        /* \"#utility.yul\":19720:19727   */\n      dup6\n        /* \"#utility.yul\":19711:19717   */\n      dup3\n        /* \"#utility.yul\":19700:19709   */\n      dup7\n        /* \"#utility.yul\":19696:19718   */\n      add\n        /* \"#utility.yul\":19664:19728   */\n      tag_367\n      jump\t// in\n    tag_587:\n        /* \"#utility.yul\":19654:19728   */\n      swap2\n      pop\n        /* \"#utility.yul\":19609:19738   */\n      pop\n        /* \"#utility.yul\":19208:19745   */\n      swap3\n      pop\n      swap3\n      swap1\n      pop\n      jump\t// out\n        /* \"#utility.yul\":19751:19931   */\n    tag_243:\n        /* \"#utility.yul\":19799:19876   */\n      0x4e487b7100000000000000000000000000000000000000000000000000000000\n        /* \"#utility.yul\":19796:19797   */\n      0x00\n        /* \"#utility.yul\":19789:19877   */\n      mstore\n        /* \"#utility.yul\":19896:19900   */\n      0x21\n        /* \"#utility.yul\":19893:19894   */\n      0x04\n        /* \"#utility.yul\":19886:19901   */\n      mstore\n        /* \"#utility.yul\":19920:19924   */\n      0x24\n        /* \"#utility.yul\":19917:19918   */\n      0x00\n        /* \"#utility.yul\":19910:19925   */\n      revert\n        /* \"#utility.yul\":19937:20105   */\n    tag_392:\n        /* \"#utility.yul\":20077:20097   */\n      0x746f6b656e206973206e6f74206164756c740000000000000000000000000000\n        /* \"#utility.yul\":20073:20074   */\n      0x00\n        /* \"#utility.yul\":20065:20071   */\n      dup3\n        /* \"#utility.yul\":20061:20075   */\n      add\n        /* \"#utility.yul\":20054:20098   */\n      mstore\n        /* \"#utility.yul\":19937:20105   */\n      pop\n      jump\t// out\n        /* \"#utility.yul\":20111:20477   */\n    tag_393:\n        /* \"#utility.yul\":20253:20256   */\n      0x00\n        /* \"#utility.yul\":20274:20341   */\n      tag_591\n        /* \"#utility.yul\":20338:20340   */\n      0x12\n        /* \"#utility.yul\":20333:20336   */\n      dup4\n        /* \"#utility.yul\":20274:20341   */\n      tag_362\n      jump\t// in\n    tag_591:\n        /* \"#utility.yul\":20267:20341   */\n      swap2\n      pop\n        /* \"#utility.yul\":20350:20443   */\n      tag_592\n        /* \"#utility.yul\":20439:20442   */\n      dup3\n        /* \"#utility.yul\":20350:20443   */\n      tag_392\n      jump\t// in\n    tag_592:\n        /* \"#utility.yul\":20468:20470   */\n      0x20\n        /* \"#utility.yul\":20463:20466   */\n      dup3\n        /* \"#utility.yul\":20459:20471   */\n      add\n        /* \"#utility.yul\":20452:20471   */\n      swap1\n      pop\n        /* \"#utility.yul\":20111:20477   */\n      swap2\n      swap1\n      pop\n      jump\t// out\n        /* \"#utility.yul\":20483:20902   */\n    tag_248:\n        /* \"#utility.yul\":20649:20653   */\n      0x00\n        /* \"#utility.yul\":20687:20689   */\n      0x20\n        /* \"#utility.yul\":20676:20685   */\n      dup3\n        /* \"#utility.yul\":20672:20690   */\n      add\n        /* \"#utility.yul\":20664:20690   */\n      swap1\n      pop\n        /* \"#utility.yul\":20736:20745   */\n      dup2\n        /* \"#utility.yul\":20730:20734   */\n      dup2\n        /* \"#utility.yul\":20726:20746   */\n      sub\n        /* \"#utility.yul\":20722:20723   */\n      0x00\n        /* \"#utility.yul\":20711:20720   */\n      dup4\n        /* \"#utility.yul\":20707:20724   */\n      add\n        /* \"#utility.yul\":20700:20747   */\n      mstore\n        /* \"#utility.yul\":20764:20895   */\n      tag_594\n        /* \"#utility.yul\":20890:20894   */\n      dup2\n        /* \"#utility.yul\":20764:20895   */\n      tag_393\n      jump\t// in\n    tag_594:\n        /* \"#utility.yul\":20756:20895   */\n      swap1\n      pop\n        /* \"#utility.yul\":20483:20902   */\n      swap2\n      swap1\n      pop\n      jump\t// out\n        /* \"#utility.yul\":20908:21318   */\n    tag_325:\n        /* \"#utility.yul\":20948:20955   */\n      0x00\n        /* \"#utility.yul\":20971:20991   */\n      tag_596\n        /* \"#utility.yul\":20989:20990   */\n      dup3\n        /* \"#utility.yul\":20971:20991   */\n      tag_344\n      jump\t// in\n    tag_596:\n        /* \"#utility.yul\":20966:20991   */\n      swap2\n      pop\n        /* \"#utility.yul\":21005:21025   */\n      tag_597\n        /* \"#utility.yul\":21023:21024   */\n      dup4\n        /* \"#utility.yul\":21005:21025   */\n      tag_344\n      jump\t// in\n    tag_597:\n        /* \"#utility.yul\":21000:21025   */\n      swap3\n      pop\n        /* \"#utility.yul\":21060:21061   */\n      dup3\n        /* \"#utility.yul\":21057:21058   */\n      dup3\n        /* \"#utility.yul\":21053:21062   */\n      mul\n        /* \"#utility.yul\":21082:21112   */\n      tag_598\n        /* \"#utility.yul\":21100:21111   */\n      dup2\n        /* \"#utility.yul\":21082:21112   */\n      tag_344\n      jump\t// in\n    tag_598:\n        /* \"#utility.yul\":21071:21112   */\n      swap2\n      pop\n        /* \"#utility.yul\":21261:21262   */\n      dup3\n        /* \"#utility.yul\":21252:21259   */\n      dup3\n        /* \"#utility.yul\":21248:21263   */\n      div\n        /* \"#utility.yul\":21245:21246   */\n      dup5\n        /* \"#utility.yul\":21242:21264   */\n      eq\n        /* \"#utility.yul\":21222:21223   */\n      dup4\n        /* \"#utility.yul\":21215:21224   */\n      iszero\n        /* \"#utility.yul\":21195:21278   */\n      or\n        /* \"#utility.yul\":21172:21311   */\n      tag_599\n      jumpi\n        /* \"#utility.yul\":21291:21309   */\n      tag_600\n      tag_373\n      jump\t// in\n    tag_600:\n        /* \"#utility.yul\":21172:21311   */\n    tag_599:\n        /* \"#utility.yul\":20956:21318   */\n      pop\n        /* \"#utility.yul\":20908:21318   */\n      swap3\n      swap2\n      pop\n      pop\n      jump\t// out\n\n    auxdata: 0xa2646970667358221220c4e12f71a700aa50c1764c30711f98599e97bfc232b17bd09dd2972a0a63e1ad64736f6c634300081a0033\n}\n",
				"bytecode": {
					"linkReferences": {},
					"object": "608060405261012c600c55600a600d556003600e5534801561001f575f80fd5b50604051612a28380380612a28833981810160405281019061004191906102aa565b835f73ffffffffffffffffffffffffffffffffffffffff168173ffffffffffffffffffffffffffffffffffffffff16036100b2575f6040517f1e4fbdf70000000000000000000000000000000000000000000000000000000081526004016100a9919061031d565b60405180910390fd5b6100c18161018b60201b60201c565b508260015f6101000a81548173ffffffffffffffffffffffffffffffffffffffff021916908373ffffffffffffffffffffffffffffffffffffffff1602179055508160025f6101000a81548173ffffffffffffffffffffffffffffffffffffffff021916908373ffffffffffffffffffffffffffffffffffffffff1602179055508060035f6101000a81548173ffffffffffffffffffffffffffffffffffffffff021916908373ffffffffffffffffffffffffffffffffffffffff16021790555050505050610336565b5f805f9054906101000a900473ffffffffffffffffffffffffffffffffffffffff169050815f806101000a81548173ffffffffffffffffffffffffffffffffffffffff021916908373ffffffffffffffffffffffffffffffffffffffff1602179055508173ffffffffffffffffffffffffffffffffffffffff168173ffffffffffffffffffffffffffffffffffffffff167f8be0079c531659141344cd1fd0a4f28419497f9722a3daafe3b4186f6b6457e060405160405180910390a35050565b5f80fd5b5f73ffffffffffffffffffffffffffffffffffffffff82169050919050565b5f61027982610250565b9050919050565b6102898161026f565b8114610293575f80fd5b50565b5f815190506102a481610280565b92915050565b5f805f80608085870312156102c2576102c161024c565b5b5f6102cf87828801610296565b94505060206102e087828801610296565b93505060406102f187828801610296565b925050606061030287828801610296565b91505092959194509250565b6103178161026f565b82525050565b5f6020820190506103305f83018461030e565b92915050565b6126e5806103435f395ff3fe608060405234801561000f575f80fd5b5060043610610140575f3560e01c80638da5cb5b116100b6578063c9f4b5151161007a578063c9f4b5151461034e578063cdb6b4f41461036a578063d1c6839f1461039a578063e98da9ad146103a4578063f2fde38b146103c2578063fbc1274d146103de57610140565b80638da5cb5b146102ba5780639711dc38146102d85780639e84477d146102f6578063b74e452b14610314578063ba3c1e4b1461033257610140565b806353a653eb1161010857806353a653eb146101fa578063593c82531461022a5780635d6de7961461024657806368b42e60146102625780636a6940cc14610292578063715018a6146102b057610140565b80631f19565d14610144578063245b118714610174578063287ad39f146101a45780632d0efac7146101c25780634d6c423c146101de575b5f80fd5b61015e60048036038101906101599190611ca1565b6103fc565b60405161016b9190611ce4565b60405180910390f35b61018e60048036038101906101899190611ca1565b610411565b60405161019b9190611ce4565b60405180910390f35b6101ac610426565b6040516101b99190611ce4565b60405180910390f35b6101dc60048036038101906101d79190611d27565b61042c565b005b6101f860048036038101906101f39190611d27565b6107d6565b005b610214600480360381019061020f9190611d27565b6107e8565b6040516102219190611d8e565b60405180910390f35b610244600480360381019061023f9190611d27565b610826565b005b610260600480360381019061025b9190611d27565b610b68565b005b61027c60048036038101906102779190611d27565b610eb8565b6040516102899190611dfa565b60405180910390f35b61029a610f0a565b6040516102a79190611e6e565b60405180910390f35b6102b8610f2f565b005b6102c2610f42565b6040516102cf9190611e96565b60405180910390f35b6102e0610f69565b6040516102ed9190611ecf565b60405180910390f35b6102fe610f8e565b60405161030b9190611ce4565b60405180910390f35b61031c610f94565b6040516103299190611ce4565b60405180910390f35b61034c60048036038101906103479190611d27565b610fa9565b005b61036860048036038101906103639190611d27565b611108565b005b610384600480360381019061037f9190611ca1565b6114ae565b6040516103919190611d8e565b60405180910390f35b6103a2611536565b005b6103ac6115a5565b6040516103b99190611ce4565b60405180910390f35b6103dc60048036038101906103d79190611ca1565b6115ab565b005b6103e661162f565b6040516103f39190611f08565b60405180910390f35b6008602052805f5260405f205f915090505481565b6007602052805f5260405f205f915090505481565b600c5481565b3373ffffffffffffffffffffffffffffffffffffffff1660015f9054906101000a900473ffffffffffffffffffffffffffffffffffffffff1673ffffffffffffffffffffffffffffffffffffffff16636352211e836040518263ffffffff1660e01b815260040161049d9190611ce4565b602060405180830381865afa1580156104b8573d5f803e3d5ffd5b505050506040513d601f19601f820116820180604052508101906104dc9190611f35565b73ffffffffffffffffffffffffffffffffffffffff1614610532576040517f08c379a000000000000000000000000000000000000000000000000000000000815260040161052990611fba565b60405180910390fd5b8060065f3373ffffffffffffffffffffffffffffffffffffffff1673ffffffffffffffffffffffffffffffffffffffff1681526020019081526020015f2054146105b1576040517f08c379a00000000000000000000000000000000000000000000000000000000081526004016105a890612022565b60405180910390fd5b600c5460035f9054906101000a900473ffffffffffffffffffffffffffffffffffffffff1673ffffffffffffffffffffffffffffffffffffffff166370a08231336040518263ffffffff1660e01b815260040161060e9190611e96565b602060405180830381865afa158015610629573d5f803e3d5ffd5b505050506040513d601f19601f8201168201806040525081019061064d9190612054565b101561068e576040517f08c379a0000000000000000000000000000000000000000000000000000000008152600401610685906120c9565b60405180910390fd5b60035f9054906101000a900473ffffffffffffffffffffffffffffffffffffffff1673ffffffffffffffffffffffffffffffffffffffff166342966c68600c546040518263ffffffff1660e01b81526004016106ea9190611ce4565b5f604051808303815f87803b158015610701575f80fd5b505af1158015610713573d5f803e3d5ffd5b505050505f60045f8381526020019081526020015f2090505f60034244604051602001610741929190612107565b604051602081830303815290604052805190602001205f1c610763919061215f565b90505f810361078c57600a826001015f82825461078091906121bc565b925050819055506107d1565b600181036107b457600a826002015f8282546107a891906121bc565b925050819055506107d0565b600a826003015f8282546107c891906121bc565b925050819055505b5b505050565b6107de611654565b80600e8190555050565b6107f0611bc5565b60055f8381526020019081526020015f206040518060400160405290815f82015481526020016001820154815250509050919050565b3373ffffffffffffffffffffffffffffffffffffffff1660015f9054906101000a900473ffffffffffffffffffffffffffffffffffffffff1673ffffffffffffffffffffffffffffffffffffffff16636352211e836040518263ffffffff1660e01b81526004016108979190611ce4565b602060405180830381865afa1580156108b2573d5f803e3d5ffd5b505050506040513d601f19601f820116820180604052508101906108d69190611f35565b73ffffffffffffffffffffffffffffffffffffffff161461092c576040517f08c379a000000000000000000000000000000000000000000000000000000000815260040161092390611fba565b60405180910390fd5b8060065f3373ffffffffffffffffffffffffffffffffffffffff1673ffffffffffffffffffffffffffffffffffffffff1681526020019081526020015f2054146109ab576040517f08c379a00000000000000000000000000000000000000000000000000000000081526004016109a290612239565b60405180910390fd5b60065f3373ffffffffffffffffffffffffffffffffffffffff1673ffffffffffffffffffffffffffffffffffffffff1681526020019081526020015f205f90555f5b600980549050811015610b64573373ffffffffffffffffffffffffffffffffffffffff1660098281548110610a2557610a24612257565b5b905f5260205f20015f9054906101000a900473ffffffffffffffffffffffffffffffffffffffff1673ffffffffffffffffffffffffffffffffffffffff1603610b575760096001600980549050610a7c9190612284565b81548110610a8d57610a8c612257565b5b905f5260205f20015f9054906101000a900473ffffffffffffffffffffffffffffffffffffffff1660098281548110610ac957610ac8612257565b5b905f5260205f20015f6101000a81548173ffffffffffffffffffffffffffffffffffffffff021916908373ffffffffffffffffffffffffffffffffffffffff1602179055506009805480610b2057610b1f6122b7565b5b600190038181905f5260205f20015f6101000a81549073ffffffffffffffffffffffffffffffffffffffff02191690559055610b64565b80806001019150506109ed565b5050565b3373ffffffffffffffffffffffffffffffffffffffff1660015f9054906101000a900473ffffffffffffffffffffffffffffffffffffffff1673ffffffffffffffffffffffffffffffffffffffff16636352211e836040518263ffffffff1660e01b8152600401610bd99190611ce4565b602060405180830381865afa158015610bf4573d5f803e3d5ffd5b505050506040513d601f19601f82011682018060405250810190610c189190611f35565b73ffffffffffffffffffffffffffffffffffffffff1614610c6e576040517f08c379a0000000000000000000000000000000000000000000000000000000008152600401610c6590611fba565b60405180910390fd5b5f610c78336116db565b90505f73ffffffffffffffffffffffffffffffffffffffff168173ffffffffffffffffffffffffffffffffffffffff1603610ce8576040517f08c379a0000000000000000000000000000000000000000000000000000000008152600401610cdf9061232e565b60405180910390fd5b5f60025f9054906101000a900473ffffffffffffffffffffffffffffffffffffffff1673ffffffffffffffffffffffffffffffffffffffff166386c8a86f336040518263ffffffff1660e01b8152600401610d439190611e96565b606060405180830381865afa158015610d5e573d5f803e3d5ffd5b505050506040513d601f19601f82011682018060405250810190610d82919061246e565b90508060400151610e155760025f9054906101000a900473ffffffffffffffffffffffffffffffffffffffff1673ffffffffffffffffffffffffffffffffffffffff1663dec5d109336040518263ffffffff1660e01b8152600401610de79190611e96565b5f604051808303815f87803b158015610dfe575f80fd5b505af1158015610e10573d5f803e3d5ffd5b505050505b610e1f3383611803565b60075f3373ffffffffffffffffffffffffffffffffffffffff1673ffffffffffffffffffffffffffffffffffffffff1681526020019081526020015f205f815480929190610e6c90612499565b91905055504260085f3373ffffffffffffffffffffffffffffffffffffffff1673ffffffffffffffffffffffffffffffffffffffff1681526020019081526020015f2081905550505050565b610ec0611bdd565b60045f8381526020019081526020015f206040518060800160405290815f820154815260200160018201548152602001600282015481526020016003820154815250509050919050565b60025f9054906101000a900473ffffffffffffffffffffffffffffffffffffffff1681565b610f37611654565b610f405f6119a8565b565b5f805f9054906101000a900473ffffffffffffffffffffffffffffffffffffffff16905090565b60015f9054906101000a900473ffffffffffffffffffffffffffffffffffffffff1681565b600d5481565b5f6201518042610fa491906124e0565b905090565b610fb1611654565b5f5b81811015611104575f600b549050600b5f815480929190610fd390612499565b9190505550600a81908060018154018082558091505060019003905f5260205f20015f9091909190916101000a81548173ffffffffffffffffffffffffffffffffffffffff021916908373ffffffffffffffffffffffffffffffffffffffff160217905550600981908060018154018082558091505060019003905f5260205f20015f9091909190916101000a81548173ffffffffffffffffffffffffffffffffffffffff021916908373ffffffffffffffffffffffffffffffffffffffff16021790555060405180608001604052805f81526020016064815260200160648152602001606481525060045f8081526020019081526020015f205f820151815f0155602082015181600101556040820151816002015560608201518160030155905050508080600101915050610fb3565b5050565b3373ffffffffffffffffffffffffffffffffffffffff1660015f9054906101000a900473ffffffffffffffffffffffffffffffffffffffff1673ffffffffffffffffffffffffffffffffffffffff16636352211e836040518263ffffffff1660e01b81526004016111799190611ce4565b602060405180830381865afa158015611194573d5f803e3d5ffd5b505050506040513d601f19601f820116820180604052508101906111b89190611f35565b73ffffffffffffffffffffffffffffffffffffffff161461120e576040517f08c379a000000000000000000000000000000000000000000000000000000000815260040161120590611fba565b60405180910390fd5b5f60065f3373ffffffffffffffffffffffffffffffffffffffff1673ffffffffffffffffffffffffffffffffffffffff1681526020019081526020015f20541461128d576040517f08c379a00000000000000000000000000000000000000000000000000000000081526004016112849061255a565b60405180910390fd5b5f60015f9054906101000a900473ffffffffffffffffffffffffffffffffffffffff1673ffffffffffffffffffffffffffffffffffffffff1663b564ea86836040518263ffffffff1660e01b81526004016112e89190611ce4565b6040805180830381865afa158015611302573d5f803e3d5ffd5b505050506040513d601f19601f82011682018060405250810190611326919061259b565b50905060038081111561133c5761133b6125d9565b5b81600381111561134f5761134e6125d9565b5b1461138f576040517f08c379a000000000000000000000000000000000000000000000000000000000815260040161138690612650565b60405180910390fd5b5f60045f8481526020019081526020015f205f0154036114085760405180608001604052808381526020016064815260200160648152602001606481525060045f8481526020019081526020015f205f820151815f01556020820151816001015560408201518160020155606082015181600301559050505b8160065f3373ffffffffffffffffffffffffffffffffffffffff1673ffffffffffffffffffffffffffffffffffffffff1681526020019081526020015f2081905550600933908060018154018082558091505060019003905f5260205f20015f9091909190916101000a81548173ffffffffffffffffffffffffffffffffffffffff021916908373ffffffffffffffffffffffffffffffffffffffff1602179055505050565b6114b6611bc5565b6114be611654565b5f60065f8473ffffffffffffffffffffffffffffffffffffffff1673ffffffffffffffffffffffffffffffffffffffff1681526020019081526020015f2054905060055f8281526020019081526020015f206040518060400160405290815f8201548152602001600182015481525050915050919050565b61153e611654565b5f5b600a80549050811161158e5760045f8081526020019081526020015f205f8082015f9055600182015f9055600282015f9055600382015f90555050808061158690612499565b915050611540565b50600a5f61159c9190611c01565b5f600b81905550565b600e5481565b6115b3611654565b5f73ffffffffffffffffffffffffffffffffffffffff168173ffffffffffffffffffffffffffffffffffffffff1603611623575f6040517f1e4fbdf700000000000000000000000000000000000000000000000000000000815260040161161a9190611e96565b60405180910390fd5b61162c816119a8565b50565b60035f9054906101000a900473ffffffffffffffffffffffffffffffffffffffff1681565b61165c611a69565b73ffffffffffffffffffffffffffffffffffffffff1661167a610f42565b73ffffffffffffffffffffffffffffffffffffffff16146116d95761169d611a69565b6040517f118cdaa70000000000000000000000000000000000000000000000000000000081526004016116d09190611e96565b60405180910390fd5b565b5f806009805490509050600181036116f6575f9150506117fe565b5f81424460405160200161170b929190612107565b604051602081830303815290604052805190602001205f1c61172d919061215f565b90505f6009828154811061174457611743612257565b5b905f5260205f20015f9054906101000a900473ffffffffffffffffffffffffffffffffffffffff1690508473ffffffffffffffffffffffffffffffffffffffff168173ffffffffffffffffffffffffffffffffffffffff16036117f7576009836001846117b191906121bc565b6117bb919061215f565b815481106117cc576117cb612257565b5b905f5260205f20015f9054906101000a900473ffffffffffffffffffffffffffffffffffffffff1690505b8093505050505b919050565b5f60065f8473ffffffffffffffffffffffffffffffffffffffff1673ffffffffffffffffffffffffffffffffffffffff1681526020019081526020015f205490505f60065f8473ffffffffffffffffffffffffffffffffffffffff1673ffffffffffffffffffffffffffffffffffffffff1681526020019081526020015f205490505f60045f8481526020019081526020015f2090505f60045f8481526020019081526020015f2090505f826003015490505f826003015490505f80600242446040516020016118d4929190612107565b604051602081830303815290604052805190602001205f1c6118f6919061215f565b1490505b5f8311801561190857505f82115b156119925780156119525761192a856001015486600201548760030154611a70565b91505f8203156119925761194b846001015485600201548660030154611a70565b925061198d565b611969846001015485600201548660030154611a70565b92505f8303156119925761198a856001015486600201548760030154611a70565b91505b6118fa565b61199d838888611aa2565b505050505050505050565b5f805f9054906101000a900473ffffffffffffffffffffffffffffffffffffffff169050815f806101000a81548173ffffffffffffffffffffffffffffffffffffffff021916908373ffffffffffffffffffffffffffffffffffffffff1602179055508173ffffffffffffffffffffffffffffffffffffffff168173ffffffffffffffffffffffffffffffffffffffff167f8be0079c531659141344cd1fd0a4f28419497f9722a3daafe3b4186f6b6457e060405160405180910390a35050565b5f33905090565b5f80611a7c8585611b56565b9050808311611a8b575f611a98565b8083611a979190612284565b5b9150509392505050565b5f8303611aff5760055f8281526020019081526020015f205f015f815480929190611acc90612499565b919050555060055f8381526020019081526020015f206001015f815480929190611af590612499565b9190505550611b51565b60055f8381526020019081526020015f205f015f815480929190611b2290612499565b919050555060055f8281526020019081526020015f206001015f815480929190611b4b90612499565b91905055505b505050565b5f80600a90505f606484611b6a91906121bc565b606485611b77919061266e565b611b8191906124e0565b90505f605a8211611b9e57816064611b999190612284565b611ba0565b825b905060648187611bb0919061266e565b611bba91906124e0565b935050505092915050565b60405180604001604052805f81526020015f81525090565b60405180608001604052805f81526020015f81526020015f81526020015f81525090565b5080545f8255905f5260205f2090810190611c1c9190611c1f565b50565b5b80821115611c36575f815f905550600101611c20565b5090565b5f604051905090565b5f80fd5b5f73ffffffffffffffffffffffffffffffffffffffff82169050919050565b5f611c7082611c47565b9050919050565b611c8081611c66565b8114611c8a575f80fd5b50565b5f81359050611c9b81611c77565b92915050565b5f60208284031215611cb657611cb5611c43565b5b5f611cc384828501611c8d565b91505092915050565b5f819050919050565b611cde81611ccc565b82525050565b5f602082019050611cf75f830184611cd5565b92915050565b611d0681611ccc565b8114611d10575f80fd5b50565b5f81359050611d2181611cfd565b92915050565b5f60208284031215611d3c57611d3b611c43565b5b5f611d4984828501611d13565b91505092915050565b611d5b81611ccc565b82525050565b604082015f820151611d755f850182611d52565b506020820151611d886020850182611d52565b50505050565b5f604082019050611da15f830184611d61565b92915050565b608082015f820151611dbb5f850182611d52565b506020820151611dce6020850182611d52565b506040820151611de16040850182611d52565b506060820151611df46060850182611d52565b50505050565b5f608082019050611e0d5f830184611da7565b92915050565b5f819050919050565b5f611e36611e31611e2c84611c47565b611e13565b611c47565b9050919050565b5f611e4782611e1c565b9050919050565b5f611e5882611e3d565b9050919050565b611e6881611e4e565b82525050565b5f602082019050611e815f830184611e5f565b92915050565b611e9081611c66565b82525050565b5f602082019050611ea95f830184611e87565b92915050565b5f611eb982611e3d565b9050919050565b611ec981611eaf565b82525050565b5f602082019050611ee25f830184611ec0565b92915050565b5f611ef282611e3d565b9050919050565b611f0281611ee8565b82525050565b5f602082019050611f1b5f830184611ef9565b92915050565b5f81519050611f2f81611c77565b92915050565b5f60208284031215611f4a57611f49611c43565b5b5f611f5784828501611f21565b91505092915050565b5f82825260208201905092915050565b7f4e6f74204f776e657200000000000000000000000000000000000000000000005f82015250565b5f611fa4600983611f60565b9150611faf82611f70565b602082019050919050565b5f6020820190508181035f830152611fd181611f98565b9050919050565b7f447261676f6e206e6f74207265676973746572656420666f7220626174746c655f82015250565b5f61200c602083611f60565b915061201782611fd8565b602082019050919050565b5f6020820190508181035f83015261203981612000565b9050919050565b5f8151905061204e81611cfd565b92915050565b5f6020828403121561206957612068611c43565b5b5f61207684828501612040565b91505092915050565b7f496e73756666696369656e74206472696e6b73000000000000000000000000005f82015250565b5f6120b3601383611f60565b91506120be8261207f565b602082019050919050565b5f6020820190508181035f8301526120e0816120a7565b9050919050565b5f819050919050565b6121016120fc82611ccc565b6120e7565b82525050565b5f61211282856120f0565b60208201915061212282846120f0565b6020820191508190509392505050565b7f4e487b71000000000000000000000000000000000000000000000000000000005f52601260045260245ffd5b5f61216982611ccc565b915061217483611ccc565b92508261218457612183612132565b5b828206905092915050565b7f4e487b71000000000000000000000000000000000000000000000000000000005f52601160045260245ffd5b5f6121c682611ccc565b91506121d183611ccc565b92508282019050808211156121e9576121e861218f565b5b92915050565b7f746f6b656e206973206e6f7420726567697374657200000000000000000000005f82015250565b5f612223601583611f60565b915061222e826121ef565b602082019050919050565b5f6020820190508181035f83015261225081612217565b9050919050565b7f4e487b71000000000000000000000000000000000000000000000000000000005f52603260045260245ffd5b5f61228e82611ccc565b915061229983611ccc565b92508282039050818111156122b1576122b061218f565b5b92915050565b7f4e487b71000000000000000000000000000000000000000000000000000000005f52603160045260245ffd5b7f4e6f206f70706f6e656e7420666f756e640000000000000000000000000000005f82015250565b5f612318601183611f60565b9150612323826122e4565b602082019050919050565b5f6020820190508181035f8301526123458161230c565b9050919050565b5f80fd5b5f601f19601f8301169050919050565b7f4e487b71000000000000000000000000000000000000000000000000000000005f52604160045260245ffd5b61239682612350565b810181811067ffffffffffffffff821117156123b5576123b4612360565b5b80604052505050565b5f6123c7611c3a565b90506123d3828261238d565b919050565b5f8115159050919050565b6123ec816123d8565b81146123f6575f80fd5b50565b5f81519050612407816123e3565b92915050565b5f606082840312156124225761242161234c565b5b61242c60606123be565b90505f61243b848285016123f9565b5f83015250602061244e848285016123f9565b6020830152506040612462848285016123f9565b60408301525092915050565b5f6060828403121561248357612482611c43565b5b5f6124908482850161240d565b91505092915050565b5f6124a382611ccc565b91507fffffffffffffffffffffffffffffffffffffffffffffffffffffffffffffffff82036124d5576124d461218f565b5b600182019050919050565b5f6124ea82611ccc565b91506124f583611ccc565b92508261250557612504612132565b5b828204905092915050565b7f416c7265616479207265676973746572656400000000000000000000000000005f82015250565b5f612544601283611f60565b915061254f82612510565b602082019050919050565b5f6020820190508181035f83015261257181612538565b9050919050565b60048110612584575f80fd5b50565b5f8151905061259581612578565b92915050565b5f80604083850312156125b1576125b0611c43565b5b5f6125be85828601612587565b92505060206125cf85828601612040565b9150509250929050565b7f4e487b71000000000000000000000000000000000000000000000000000000005f52602160045260245ffd5b7f746f6b656e206973206e6f74206164756c7400000000000000000000000000005f82015250565b5f61263a601283611f60565b915061264582612606565b602082019050919050565b5f6020820190508181035f8301526126678161262e565b9050919050565b5f61267882611ccc565b915061268383611ccc565b925082820261269181611ccc565b915082820484148315176126a8576126a761218f565b5b509291505056fea2646970667358221220c4e12f71a700aa50c1764c30711f98599e97bfc232b17bd09dd2972a0a63e1ad64736f6c634300081a0033",
					"opcodes": "PUSH1 0x80 PUSH1 0x40 MSTORE PUSH2 0x12C PUSH1 0xC SSTORE PUSH1 0xA PUSH1 0xD SSTORE PUSH1 0x3 PUSH1 0xE SSTORE CALLVALUE DUP1 ISZERO PUSH2 0x1F JUMPI PUSH0 DUP1 REVERT JUMPDEST POP PUSH1 0x40 MLOAD PUSH2 0x2A28 CODESIZE SUB DUP1 PUSH2 0x2A28 DUP4 CODECOPY DUP2 DUP2 ADD PUSH1 0x40 MSTORE DUP2 ADD SWAP1 PUSH2 0x41 SWAP2 SWAP1 PUSH2 0x2AA JUMP JUMPDEST DUP4 PUSH0 PUSH20 0xFFFFFFFFFFFFFFFFFFFFFFFFFFFFFFFFFFFFFFFF AND DUP2 PUSH20 0xFFFFFFFFFFFFFFFFFFFFFFFFFFFFFFFFFFFFFFFF AND SUB PUSH2 0xB2 JUMPI PUSH0 PUSH1 0x40 MLOAD PUSH32 0x1E4FBDF700000000000000000000000000000000000000000000000000000000 DUP2 MSTORE PUSH1 0x4 ADD PUSH2 0xA9 SWAP2 SWAP1 PUSH2 0x31D JUMP JUMPDEST PUSH1 0x40 MLOAD DUP1 SWAP2 SUB SWAP1 REVERT JUMPDEST PUSH2 0xC1 DUP2 PUSH2 0x18B PUSH1 0x20 SHL PUSH1 0x20 SHR JUMP JUMPDEST POP DUP3 PUSH1 0x1 PUSH0 PUSH2 0x100 EXP DUP2 SLOAD DUP2 PUSH20 0xFFFFFFFFFFFFFFFFFFFFFFFFFFFFFFFFFFFFFFFF MUL NOT AND SWAP1 DUP4 PUSH20 0xFFFFFFFFFFFFFFFFFFFFFFFFFFFFFFFFFFFFFFFF AND MUL OR SWAP1 SSTORE POP DUP2 PUSH1 0x2 PUSH0 PUSH2 0x100 EXP DUP2 SLOAD DUP2 PUSH20 0xFFFFFFFFFFFFFFFFFFFFFFFFFFFFFFFFFFFFFFFF MUL NOT AND SWAP1 DUP4 PUSH20 0xFFFFFFFFFFFFFFFFFFFFFFFFFFFFFFFFFFFFFFFF AND MUL OR SWAP1 SSTORE POP DUP1 PUSH1 0x3 PUSH0 PUSH2 0x100 EXP DUP2 SLOAD DUP2 PUSH20 0xFFFFFFFFFFFFFFFFFFFFFFFFFFFFFFFFFFFFFFFF MUL NOT AND SWAP1 DUP4 PUSH20 0xFFFFFFFFFFFFFFFFFFFFFFFFFFFFFFFFFFFFFFFF AND MUL OR SWAP1 SSTORE POP POP POP POP POP PUSH2 0x336 JUMP JUMPDEST PUSH0 DUP1 PUSH0 SWAP1 SLOAD SWAP1 PUSH2 0x100 EXP SWAP1 DIV PUSH20 0xFFFFFFFFFFFFFFFFFFFFFFFFFFFFFFFFFFFFFFFF AND SWAP1 POP DUP2 PUSH0 DUP1 PUSH2 0x100 EXP DUP2 SLOAD DUP2 PUSH20 0xFFFFFFFFFFFFFFFFFFFFFFFFFFFFFFFFFFFFFFFF MUL NOT AND SWAP1 DUP4 PUSH20 0xFFFFFFFFFFFFFFFFFFFFFFFFFFFFFFFFFFFFFFFF AND MUL OR SWAP1 SSTORE POP DUP2 PUSH20 0xFFFFFFFFFFFFFFFFFFFFFFFFFFFFFFFFFFFFFFFF AND DUP2 PUSH20 0xFFFFFFFFFFFFFFFFFFFFFFFFFFFFFFFFFFFFFFFF AND PUSH32 0x8BE0079C531659141344CD1FD0A4F28419497F9722A3DAAFE3B4186F6B6457E0 PUSH1 0x40 MLOAD PUSH1 0x40 MLOAD DUP1 SWAP2 SUB SWAP1 LOG3 POP POP JUMP JUMPDEST PUSH0 DUP1 REVERT JUMPDEST PUSH0 PUSH20 0xFFFFFFFFFFFFFFFFFFFFFFFFFFFFFFFFFFFFFFFF DUP3 AND SWAP1 POP SWAP2 SWAP1 POP JUMP JUMPDEST PUSH0 PUSH2 0x279 DUP3 PUSH2 0x250 JUMP JUMPDEST SWAP1 POP SWAP2 SWAP1 POP JUMP JUMPDEST PUSH2 0x289 DUP2 PUSH2 0x26F JUMP JUMPDEST DUP2 EQ PUSH2 0x293 JUMPI PUSH0 DUP1 REVERT JUMPDEST POP JUMP JUMPDEST PUSH0 DUP2 MLOAD SWAP1 POP PUSH2 0x2A4 DUP2 PUSH2 0x280 JUMP JUMPDEST SWAP3 SWAP2 POP POP JUMP JUMPDEST PUSH0 DUP1 PUSH0 DUP1 PUSH1 0x80 DUP6 DUP8 SUB SLT ISZERO PUSH2 0x2C2 JUMPI PUSH2 0x2C1 PUSH2 0x24C JUMP JUMPDEST JUMPDEST PUSH0 PUSH2 0x2CF DUP8 DUP3 DUP9 ADD PUSH2 0x296 JUMP JUMPDEST SWAP5 POP POP PUSH1 0x20 PUSH2 0x2E0 DUP8 DUP3 DUP9 ADD PUSH2 0x296 JUMP JUMPDEST SWAP4 POP POP PUSH1 0x40 PUSH2 0x2F1 DUP8 DUP3 DUP9 ADD PUSH2 0x296 JUMP JUMPDEST SWAP3 POP POP PUSH1 0x60 PUSH2 0x302 DUP8 DUP3 DUP9 ADD PUSH2 0x296 JUMP JUMPDEST SWAP2 POP POP SWAP3 SWAP6 SWAP2 SWAP5 POP SWAP3 POP JUMP JUMPDEST PUSH2 0x317 DUP2 PUSH2 0x26F JUMP JUMPDEST DUP3 MSTORE POP POP JUMP JUMPDEST PUSH0 PUSH1 0x20 DUP3 ADD SWAP1 POP PUSH2 0x330 PUSH0 DUP4 ADD DUP5 PUSH2 0x30E JUMP JUMPDEST SWAP3 SWAP2 POP POP JUMP JUMPDEST PUSH2 0x26E5 DUP1 PUSH2 0x343 PUSH0 CODECOPY PUSH0 RETURN INVALID PUSH1 0x80 PUSH1 0x40 MSTORE CALLVALUE DUP1 ISZERO PUSH2 0xF JUMPI PUSH0 DUP1 REVERT JUMPDEST POP PUSH1 0x4 CALLDATASIZE LT PUSH2 0x140 JUMPI PUSH0 CALLDATALOAD PUSH1 0xE0 SHR DUP1 PUSH4 0x8DA5CB5B GT PUSH2 0xB6 JUMPI DUP1 PUSH4 0xC9F4B515 GT PUSH2 0x7A JUMPI DUP1 PUSH4 0xC9F4B515 EQ PUSH2 0x34E JUMPI DUP1 PUSH4 0xCDB6B4F4 EQ PUSH2 0x36A JUMPI DUP1 PUSH4 0xD1C6839F EQ PUSH2 0x39A JUMPI DUP1 PUSH4 0xE98DA9AD EQ PUSH2 0x3A4 JUMPI DUP1 PUSH4 0xF2FDE38B EQ PUSH2 0x3C2 JUMPI DUP1 PUSH4 0xFBC1274D EQ PUSH2 0x3DE JUMPI PUSH2 0x140 JUMP JUMPDEST DUP1 PUSH4 0x8DA5CB5B EQ PUSH2 0x2BA JUMPI DUP1 PUSH4 0x9711DC38 EQ PUSH2 0x2D8 JUMPI DUP1 PUSH4 0x9E84477D EQ PUSH2 0x2F6 JUMPI DUP1 PUSH4 0xB74E452B EQ PUSH2 0x314 JUMPI DUP1 PUSH4 0xBA3C1E4B EQ PUSH2 0x332 JUMPI PUSH2 0x140 JUMP JUMPDEST DUP1 PUSH4 0x53A653EB GT PUSH2 0x108 JUMPI DUP1 PUSH4 0x53A653EB EQ PUSH2 0x1FA JUMPI DUP1 PUSH4 0x593C8253 EQ PUSH2 0x22A JUMPI DUP1 PUSH4 0x5D6DE796 EQ PUSH2 0x246 JUMPI DUP1 PUSH4 0x68B42E60 EQ PUSH2 0x262 JUMPI DUP1 PUSH4 0x6A6940CC EQ PUSH2 0x292 JUMPI DUP1 PUSH4 0x715018A6 EQ PUSH2 0x2B0 JUMPI PUSH2 0x140 JUMP JUMPDEST DUP1 PUSH4 0x1F19565D EQ PUSH2 0x144 JUMPI DUP1 PUSH4 0x245B1187 EQ PUSH2 0x174 JUMPI DUP1 PUSH4 0x287AD39F EQ PUSH2 0x1A4 JUMPI DUP1 PUSH4 0x2D0EFAC7 EQ PUSH2 0x1C2 JUMPI DUP1 PUSH4 0x4D6C423C EQ PUSH2 0x1DE JUMPI JUMPDEST PUSH0 DUP1 REVERT JUMPDEST PUSH2 0x15E PUSH1 0x4 DUP1 CALLDATASIZE SUB DUP2 ADD SWAP1 PUSH2 0x159 SWAP2 SWAP1 PUSH2 0x1CA1 JUMP JUMPDEST PUSH2 0x3FC JUMP JUMPDEST PUSH1 0x40 MLOAD PUSH2 0x16B SWAP2 SWAP1 PUSH2 0x1CE4 JUMP JUMPDEST PUSH1 0x40 MLOAD DUP1 SWAP2 SUB SWAP1 RETURN JUMPDEST PUSH2 0x18E PUSH1 0x4 DUP1 CALLDATASIZE SUB DUP2 ADD SWAP1 PUSH2 0x189 SWAP2 SWAP1 PUSH2 0x1CA1 JUMP JUMPDEST PUSH2 0x411 JUMP JUMPDEST PUSH1 0x40 MLOAD PUSH2 0x19B SWAP2 SWAP1 PUSH2 0x1CE4 JUMP JUMPDEST PUSH1 0x40 MLOAD DUP1 SWAP2 SUB SWAP1 RETURN JUMPDEST PUSH2 0x1AC PUSH2 0x426 JUMP JUMPDEST PUSH1 0x40 MLOAD PUSH2 0x1B9 SWAP2 SWAP1 PUSH2 0x1CE4 JUMP JUMPDEST PUSH1 0x40 MLOAD DUP1 SWAP2 SUB SWAP1 RETURN JUMPDEST PUSH2 0x1DC PUSH1 0x4 DUP1 CALLDATASIZE SUB DUP2 ADD SWAP1 PUSH2 0x1D7 SWAP2 SWAP1 PUSH2 0x1D27 JUMP JUMPDEST PUSH2 0x42C JUMP JUMPDEST STOP JUMPDEST PUSH2 0x1F8 PUSH1 0x4 DUP1 CALLDATASIZE SUB DUP2 ADD SWAP1 PUSH2 0x1F3 SWAP2 SWAP1 PUSH2 0x1D27 JUMP JUMPDEST PUSH2 0x7D6 JUMP JUMPDEST STOP JUMPDEST PUSH2 0x214 PUSH1 0x4 DUP1 CALLDATASIZE SUB DUP2 ADD SWAP1 PUSH2 0x20F SWAP2 SWAP1 PUSH2 0x1D27 JUMP JUMPDEST PUSH2 0x7E8 JUMP JUMPDEST PUSH1 0x40 MLOAD PUSH2 0x221 SWAP2 SWAP1 PUSH2 0x1D8E JUMP JUMPDEST PUSH1 0x40 MLOAD DUP1 SWAP2 SUB SWAP1 RETURN JUMPDEST PUSH2 0x244 PUSH1 0x4 DUP1 CALLDATASIZE SUB DUP2 ADD SWAP1 PUSH2 0x23F SWAP2 SWAP1 PUSH2 0x1D27 JUMP JUMPDEST PUSH2 0x826 JUMP JUMPDEST STOP JUMPDEST PUSH2 0x260 PUSH1 0x4 DUP1 CALLDATASIZE SUB DUP2 ADD SWAP1 PUSH2 0x25B SWAP2 SWAP1 PUSH2 0x1D27 JUMP JUMPDEST PUSH2 0xB68 JUMP JUMPDEST STOP JUMPDEST PUSH2 0x27C PUSH1 0x4 DUP1 CALLDATASIZE SUB DUP2 ADD SWAP1 PUSH2 0x277 SWAP2 SWAP1 PUSH2 0x1D27 JUMP JUMPDEST PUSH2 0xEB8 JUMP JUMPDEST PUSH1 0x40 MLOAD PUSH2 0x289 SWAP2 SWAP1 PUSH2 0x1DFA JUMP JUMPDEST PUSH1 0x40 MLOAD DUP1 SWAP2 SUB SWAP1 RETURN JUMPDEST PUSH2 0x29A PUSH2 0xF0A JUMP JUMPDEST PUSH1 0x40 MLOAD PUSH2 0x2A7 SWAP2 SWAP1 PUSH2 0x1E6E JUMP JUMPDEST PUSH1 0x40 MLOAD DUP1 SWAP2 SUB SWAP1 RETURN JUMPDEST PUSH2 0x2B8 PUSH2 0xF2F JUMP JUMPDEST STOP JUMPDEST PUSH2 0x2C2 PUSH2 0xF42 JUMP JUMPDEST PUSH1 0x40 MLOAD PUSH2 0x2CF SWAP2 SWAP1 PUSH2 0x1E96 JUMP JUMPDEST PUSH1 0x40 MLOAD DUP1 SWAP2 SUB SWAP1 RETURN JUMPDEST PUSH2 0x2E0 PUSH2 0xF69 JUMP JUMPDEST PUSH1 0x40 MLOAD PUSH2 0x2ED SWAP2 SWAP1 PUSH2 0x1ECF JUMP JUMPDEST PUSH1 0x40 MLOAD DUP1 SWAP2 SUB SWAP1 RETURN JUMPDEST PUSH2 0x2FE PUSH2 0xF8E JUMP JUMPDEST PUSH1 0x40 MLOAD PUSH2 0x30B SWAP2 SWAP1 PUSH2 0x1CE4 JUMP JUMPDEST PUSH1 0x40 MLOAD DUP1 SWAP2 SUB SWAP1 RETURN JUMPDEST PUSH2 0x31C PUSH2 0xF94 JUMP JUMPDEST PUSH1 0x40 MLOAD PUSH2 0x329 SWAP2 SWAP1 PUSH2 0x1CE4 JUMP JUMPDEST PUSH1 0x40 MLOAD DUP1 SWAP2 SUB SWAP1 RETURN JUMPDEST PUSH2 0x34C PUSH1 0x4 DUP1 CALLDATASIZE SUB DUP2 ADD SWAP1 PUSH2 0x347 SWAP2 SWAP1 PUSH2 0x1D27 JUMP JUMPDEST PUSH2 0xFA9 JUMP JUMPDEST STOP JUMPDEST PUSH2 0x368 PUSH1 0x4 DUP1 CALLDATASIZE SUB DUP2 ADD SWAP1 PUSH2 0x363 SWAP2 SWAP1 PUSH2 0x1D27 JUMP JUMPDEST PUSH2 0x1108 JUMP JUMPDEST STOP JUMPDEST PUSH2 0x384 PUSH1 0x4 DUP1 CALLDATASIZE SUB DUP2 ADD SWAP1 PUSH2 0x37F SWAP2 SWAP1 PUSH2 0x1CA1 JUMP JUMPDEST PUSH2 0x14AE JUMP JUMPDEST PUSH1 0x40 MLOAD PUSH2 0x391 SWAP2 SWAP1 PUSH2 0x1D8E JUMP JUMPDEST PUSH1 0x40 MLOAD DUP1 SWAP2 SUB SWAP1 RETURN JUMPDEST PUSH2 0x3A2 PUSH2 0x1536 JUMP JUMPDEST STOP JUMPDEST PUSH2 0x3AC PUSH2 0x15A5 JUMP JUMPDEST PUSH1 0x40 MLOAD PUSH2 0x3B9 SWAP2 SWAP1 PUSH2 0x1CE4 JUMP JUMPDEST PUSH1 0x40 MLOAD DUP1 SWAP2 SUB SWAP1 RETURN JUMPDEST PUSH2 0x3DC PUSH1 0x4 DUP1 CALLDATASIZE SUB DUP2 ADD SWAP1 PUSH2 0x3D7 SWAP2 SWAP1 PUSH2 0x1CA1 JUMP JUMPDEST PUSH2 0x15AB JUMP JUMPDEST STOP JUMPDEST PUSH2 0x3E6 PUSH2 0x162F JUMP JUMPDEST PUSH1 0x40 MLOAD PUSH2 0x3F3 SWAP2 SWAP1 PUSH2 0x1F08 JUMP JUMPDEST PUSH1 0x40 MLOAD DUP1 SWAP2 SUB SWAP1 RETURN JUMPDEST PUSH1 0x8 PUSH1 0x20 MSTORE DUP1 PUSH0 MSTORE PUSH1 0x40 PUSH0 KECCAK256 PUSH0 SWAP2 POP SWAP1 POP SLOAD DUP2 JUMP JUMPDEST PUSH1 0x7 PUSH1 0x20 MSTORE DUP1 PUSH0 MSTORE PUSH1 0x40 PUSH0 KECCAK256 PUSH0 SWAP2 POP SWAP1 POP SLOAD DUP2 JUMP JUMPDEST PUSH1 0xC SLOAD DUP2 JUMP JUMPDEST CALLER PUSH20 0xFFFFFFFFFFFFFFFFFFFFFFFFFFFFFFFFFFFFFFFF AND PUSH1 0x1 PUSH0 SWAP1 SLOAD SWAP1 PUSH2 0x100 EXP SWAP1 DIV PUSH20 0xFFFFFFFFFFFFFFFFFFFFFFFFFFFFFFFFFFFFFFFF AND PUSH20 0xFFFFFFFFFFFFFFFFFFFFFFFFFFFFFFFFFFFFFFFF AND PUSH4 0x6352211E DUP4 PUSH1 0x40 MLOAD DUP3 PUSH4 0xFFFFFFFF AND PUSH1 0xE0 SHL DUP2 MSTORE PUSH1 0x4 ADD PUSH2 0x49D SWAP2 SWAP1 PUSH2 0x1CE4 JUMP JUMPDEST PUSH1 0x20 PUSH1 0x40 MLOAD DUP1 DUP4 SUB DUP2 DUP7 GAS STATICCALL ISZERO DUP1 ISZERO PUSH2 0x4B8 JUMPI RETURNDATASIZE PUSH0 DUP1 RETURNDATACOPY RETURNDATASIZE PUSH0 REVERT JUMPDEST POP POP POP POP PUSH1 0x40 MLOAD RETURNDATASIZE PUSH1 0x1F NOT PUSH1 0x1F DUP3 ADD AND DUP3 ADD DUP1 PUSH1 0x40 MSTORE POP DUP2 ADD SWAP1 PUSH2 0x4DC SWAP2 SWAP1 PUSH2 0x1F35 JUMP JUMPDEST PUSH20 0xFFFFFFFFFFFFFFFFFFFFFFFFFFFFFFFFFFFFFFFF AND EQ PUSH2 0x532 JUMPI PUSH1 0x40 MLOAD PUSH32 0x8C379A000000000000000000000000000000000000000000000000000000000 DUP2 MSTORE PUSH1 0x4 ADD PUSH2 0x529 SWAP1 PUSH2 0x1FBA JUMP JUMPDEST PUSH1 0x40 MLOAD DUP1 SWAP2 SUB SWAP1 REVERT JUMPDEST DUP1 PUSH1 0x6 PUSH0 CALLER PUSH20 0xFFFFFFFFFFFFFFFFFFFFFFFFFFFFFFFFFFFFFFFF AND PUSH20 0xFFFFFFFFFFFFFFFFFFFFFFFFFFFFFFFFFFFFFFFF AND DUP2 MSTORE PUSH1 0x20 ADD SWAP1 DUP2 MSTORE PUSH1 0x20 ADD PUSH0 KECCAK256 SLOAD EQ PUSH2 0x5B1 JUMPI PUSH1 0x40 MLOAD PUSH32 0x8C379A000000000000000000000000000000000000000000000000000000000 DUP2 MSTORE PUSH1 0x4 ADD PUSH2 0x5A8 SWAP1 PUSH2 0x2022 JUMP JUMPDEST PUSH1 0x40 MLOAD DUP1 SWAP2 SUB SWAP1 REVERT JUMPDEST PUSH1 0xC SLOAD PUSH1 0x3 PUSH0 SWAP1 SLOAD SWAP1 PUSH2 0x100 EXP SWAP1 DIV PUSH20 0xFFFFFFFFFFFFFFFFFFFFFFFFFFFFFFFFFFFFFFFF AND PUSH20 0xFFFFFFFFFFFFFFFFFFFFFFFFFFFFFFFFFFFFFFFF AND PUSH4 0x70A08231 CALLER PUSH1 0x40 MLOAD DUP3 PUSH4 0xFFFFFFFF AND PUSH1 0xE0 SHL DUP2 MSTORE PUSH1 0x4 ADD PUSH2 0x60E SWAP2 SWAP1 PUSH2 0x1E96 JUMP JUMPDEST PUSH1 0x20 PUSH1 0x40 MLOAD DUP1 DUP4 SUB DUP2 DUP7 GAS STATICCALL ISZERO DUP1 ISZERO PUSH2 0x629 JUMPI RETURNDATASIZE PUSH0 DUP1 RETURNDATACOPY RETURNDATASIZE PUSH0 REVERT JUMPDEST POP POP POP POP PUSH1 0x40 MLOAD RETURNDATASIZE PUSH1 0x1F NOT PUSH1 0x1F DUP3 ADD AND DUP3 ADD DUP1 PUSH1 0x40 MSTORE POP DUP2 ADD SWAP1 PUSH2 0x64D SWAP2 SWAP1 PUSH2 0x2054 JUMP JUMPDEST LT ISZERO PUSH2 0x68E JUMPI PUSH1 0x40 MLOAD PUSH32 0x8C379A000000000000000000000000000000000000000000000000000000000 DUP2 MSTORE PUSH1 0x4 ADD PUSH2 0x685 SWAP1 PUSH2 0x20C9 JUMP JUMPDEST PUSH1 0x40 MLOAD DUP1 SWAP2 SUB SWAP1 REVERT JUMPDEST PUSH1 0x3 PUSH0 SWAP1 SLOAD SWAP1 PUSH2 0x100 EXP SWAP1 DIV PUSH20 0xFFFFFFFFFFFFFFFFFFFFFFFFFFFFFFFFFFFFFFFF AND PUSH20 0xFFFFFFFFFFFFFFFFFFFFFFFFFFFFFFFFFFFFFFFF AND PUSH4 0x42966C68 PUSH1 0xC SLOAD PUSH1 0x40 MLOAD DUP3 PUSH4 0xFFFFFFFF AND PUSH1 0xE0 SHL DUP2 MSTORE PUSH1 0x4 ADD PUSH2 0x6EA SWAP2 SWAP1 PUSH2 0x1CE4 JUMP JUMPDEST PUSH0 PUSH1 0x40 MLOAD DUP1 DUP4 SUB DUP2 PUSH0 DUP8 DUP1 EXTCODESIZE ISZERO DUP1 ISZERO PUSH2 0x701 JUMPI PUSH0 DUP1 REVERT JUMPDEST POP GAS CALL ISZERO DUP1 ISZERO PUSH2 0x713 JUMPI RETURNDATASIZE PUSH0 DUP1 RETURNDATACOPY RETURNDATASIZE PUSH0 REVERT JUMPDEST POP POP POP POP PUSH0 PUSH1 0x4 PUSH0 DUP4 DUP2 MSTORE PUSH1 0x20 ADD SWAP1 DUP2 MSTORE PUSH1 0x20 ADD PUSH0 KECCAK256 SWAP1 POP PUSH0 PUSH1 0x3 TIMESTAMP PREVRANDAO PUSH1 0x40 MLOAD PUSH1 0x20 ADD PUSH2 0x741 SWAP3 SWAP2 SWAP1 PUSH2 0x2107 JUMP JUMPDEST PUSH1 0x40 MLOAD PUSH1 0x20 DUP2 DUP4 SUB SUB DUP2 MSTORE SWAP1 PUSH1 0x40 MSTORE DUP1 MLOAD SWAP1 PUSH1 0x20 ADD KECCAK256 PUSH0 SHR PUSH2 0x763 SWAP2 SWAP1 PUSH2 0x215F JUMP JUMPDEST SWAP1 POP PUSH0 DUP2 SUB PUSH2 0x78C JUMPI PUSH1 0xA DUP3 PUSH1 0x1 ADD PUSH0 DUP3 DUP3 SLOAD PUSH2 0x780 SWAP2 SWAP1 PUSH2 0x21BC JUMP JUMPDEST SWAP3 POP POP DUP2 SWAP1 SSTORE POP PUSH2 0x7D1 JUMP JUMPDEST PUSH1 0x1 DUP2 SUB PUSH2 0x7B4 JUMPI PUSH1 0xA DUP3 PUSH1 0x2 ADD PUSH0 DUP3 DUP3 SLOAD PUSH2 0x7A8 SWAP2 SWAP1 PUSH2 0x21BC JUMP JUMPDEST SWAP3 POP POP DUP2 SWAP1 SSTORE POP PUSH2 0x7D0 JUMP JUMPDEST PUSH1 0xA DUP3 PUSH1 0x3 ADD PUSH0 DUP3 DUP3 SLOAD PUSH2 0x7C8 SWAP2 SWAP1 PUSH2 0x21BC JUMP JUMPDEST SWAP3 POP POP DUP2 SWAP1 SSTORE POP JUMPDEST JUMPDEST POP POP POP JUMP JUMPDEST PUSH2 0x7DE PUSH2 0x1654 JUMP JUMPDEST DUP1 PUSH1 0xE DUP2 SWAP1 SSTORE POP POP JUMP JUMPDEST PUSH2 0x7F0 PUSH2 0x1BC5 JUMP JUMPDEST PUSH1 0x5 PUSH0 DUP4 DUP2 MSTORE PUSH1 0x20 ADD SWAP1 DUP2 MSTORE PUSH1 0x20 ADD PUSH0 KECCAK256 PUSH1 0x40 MLOAD DUP1 PUSH1 0x40 ADD PUSH1 0x40 MSTORE SWAP1 DUP2 PUSH0 DUP3 ADD SLOAD DUP2 MSTORE PUSH1 0x20 ADD PUSH1 0x1 DUP3 ADD SLOAD DUP2 MSTORE POP POP SWAP1 POP SWAP2 SWAP1 POP JUMP JUMPDEST CALLER PUSH20 0xFFFFFFFFFFFFFFFFFFFFFFFFFFFFFFFFFFFFFFFF AND PUSH1 0x1 PUSH0 SWAP1 SLOAD SWAP1 PUSH2 0x100 EXP SWAP1 DIV PUSH20 0xFFFFFFFFFFFFFFFFFFFFFFFFFFFFFFFFFFFFFFFF AND PUSH20 0xFFFFFFFFFFFFFFFFFFFFFFFFFFFFFFFFFFFFFFFF AND PUSH4 0x6352211E DUP4 PUSH1 0x40 MLOAD DUP3 PUSH4 0xFFFFFFFF AND PUSH1 0xE0 SHL DUP2 MSTORE PUSH1 0x4 ADD PUSH2 0x897 SWAP2 SWAP1 PUSH2 0x1CE4 JUMP JUMPDEST PUSH1 0x20 PUSH1 0x40 MLOAD DUP1 DUP4 SUB DUP2 DUP7 GAS STATICCALL ISZERO DUP1 ISZERO PUSH2 0x8B2 JUMPI RETURNDATASIZE PUSH0 DUP1 RETURNDATACOPY RETURNDATASIZE PUSH0 REVERT JUMPDEST POP POP POP POP PUSH1 0x40 MLOAD RETURNDATASIZE PUSH1 0x1F NOT PUSH1 0x1F DUP3 ADD AND DUP3 ADD DUP1 PUSH1 0x40 MSTORE POP DUP2 ADD SWAP1 PUSH2 0x8D6 SWAP2 SWAP1 PUSH2 0x1F35 JUMP JUMPDEST PUSH20 0xFFFFFFFFFFFFFFFFFFFFFFFFFFFFFFFFFFFFFFFF AND EQ PUSH2 0x92C JUMPI PUSH1 0x40 MLOAD PUSH32 0x8C379A000000000000000000000000000000000000000000000000000000000 DUP2 MSTORE PUSH1 0x4 ADD PUSH2 0x923 SWAP1 PUSH2 0x1FBA JUMP JUMPDEST PUSH1 0x40 MLOAD DUP1 SWAP2 SUB SWAP1 REVERT JUMPDEST DUP1 PUSH1 0x6 PUSH0 CALLER PUSH20 0xFFFFFFFFFFFFFFFFFFFFFFFFFFFFFFFFFFFFFFFF AND PUSH20 0xFFFFFFFFFFFFFFFFFFFFFFFFFFFFFFFFFFFFFFFF AND DUP2 MSTORE PUSH1 0x20 ADD SWAP1 DUP2 MSTORE PUSH1 0x20 ADD PUSH0 KECCAK256 SLOAD EQ PUSH2 0x9AB JUMPI PUSH1 0x40 MLOAD PUSH32 0x8C379A000000000000000000000000000000000000000000000000000000000 DUP2 MSTORE PUSH1 0x4 ADD PUSH2 0x9A2 SWAP1 PUSH2 0x2239 JUMP JUMPDEST PUSH1 0x40 MLOAD DUP1 SWAP2 SUB SWAP1 REVERT JUMPDEST PUSH1 0x6 PUSH0 CALLER PUSH20 0xFFFFFFFFFFFFFFFFFFFFFFFFFFFFFFFFFFFFFFFF AND PUSH20 0xFFFFFFFFFFFFFFFFFFFFFFFFFFFFFFFFFFFFFFFF AND DUP2 MSTORE PUSH1 0x20 ADD SWAP1 DUP2 MSTORE PUSH1 0x20 ADD PUSH0 KECCAK256 PUSH0 SWAP1 SSTORE PUSH0 JUMPDEST PUSH1 0x9 DUP1 SLOAD SWAP1 POP DUP2 LT ISZERO PUSH2 0xB64 JUMPI CALLER PUSH20 0xFFFFFFFFFFFFFFFFFFFFFFFFFFFFFFFFFFFFFFFF AND PUSH1 0x9 DUP3 DUP2 SLOAD DUP2 LT PUSH2 0xA25 JUMPI PUSH2 0xA24 PUSH2 0x2257 JUMP JUMPDEST JUMPDEST SWAP1 PUSH0 MSTORE PUSH1 0x20 PUSH0 KECCAK256 ADD PUSH0 SWAP1 SLOAD SWAP1 PUSH2 0x100 EXP SWAP1 DIV PUSH20 0xFFFFFFFFFFFFFFFFFFFFFFFFFFFFFFFFFFFFFFFF AND PUSH20 0xFFFFFFFFFFFFFFFFFFFFFFFFFFFFFFFFFFFFFFFF AND SUB PUSH2 0xB57 JUMPI PUSH1 0x9 PUSH1 0x1 PUSH1 0x9 DUP1 SLOAD SWAP1 POP PUSH2 0xA7C SWAP2 SWAP1 PUSH2 0x2284 JUMP JUMPDEST DUP2 SLOAD DUP2 LT PUSH2 0xA8D JUMPI PUSH2 0xA8C PUSH2 0x2257 JUMP JUMPDEST JUMPDEST SWAP1 PUSH0 MSTORE PUSH1 0x20 PUSH0 KECCAK256 ADD PUSH0 SWAP1 SLOAD SWAP1 PUSH2 0x100 EXP SWAP1 DIV PUSH20 0xFFFFFFFFFFFFFFFFFFFFFFFFFFFFFFFFFFFFFFFF AND PUSH1 0x9 DUP3 DUP2 SLOAD DUP2 LT PUSH2 0xAC9 JUMPI PUSH2 0xAC8 PUSH2 0x2257 JUMP JUMPDEST JUMPDEST SWAP1 PUSH0 MSTORE PUSH1 0x20 PUSH0 KECCAK256 ADD PUSH0 PUSH2 0x100 EXP DUP2 SLOAD DUP2 PUSH20 0xFFFFFFFFFFFFFFFFFFFFFFFFFFFFFFFFFFFFFFFF MUL NOT AND SWAP1 DUP4 PUSH20 0xFFFFFFFFFFFFFFFFFFFFFFFFFFFFFFFFFFFFFFFF AND MUL OR SWAP1 SSTORE POP PUSH1 0x9 DUP1 SLOAD DUP1 PUSH2 0xB20 JUMPI PUSH2 0xB1F PUSH2 0x22B7 JUMP JUMPDEST JUMPDEST PUSH1 0x1 SWAP1 SUB DUP2 DUP2 SWAP1 PUSH0 MSTORE PUSH1 0x20 PUSH0 KECCAK256 ADD PUSH0 PUSH2 0x100 EXP DUP2 SLOAD SWAP1 PUSH20 0xFFFFFFFFFFFFFFFFFFFFFFFFFFFFFFFFFFFFFFFF MUL NOT AND SWAP1 SSTORE SWAP1 SSTORE PUSH2 0xB64 JUMP JUMPDEST DUP1 DUP1 PUSH1 0x1 ADD SWAP2 POP POP PUSH2 0x9ED JUMP JUMPDEST POP POP JUMP JUMPDEST CALLER PUSH20 0xFFFFFFFFFFFFFFFFFFFFFFFFFFFFFFFFFFFFFFFF AND PUSH1 0x1 PUSH0 SWAP1 SLOAD SWAP1 PUSH2 0x100 EXP SWAP1 DIV PUSH20 0xFFFFFFFFFFFFFFFFFFFFFFFFFFFFFFFFFFFFFFFF AND PUSH20 0xFFFFFFFFFFFFFFFFFFFFFFFFFFFFFFFFFFFFFFFF AND PUSH4 0x6352211E DUP4 PUSH1 0x40 MLOAD DUP3 PUSH4 0xFFFFFFFF AND PUSH1 0xE0 SHL DUP2 MSTORE PUSH1 0x4 ADD PUSH2 0xBD9 SWAP2 SWAP1 PUSH2 0x1CE4 JUMP JUMPDEST PUSH1 0x20 PUSH1 0x40 MLOAD DUP1 DUP4 SUB DUP2 DUP7 GAS STATICCALL ISZERO DUP1 ISZERO PUSH2 0xBF4 JUMPI RETURNDATASIZE PUSH0 DUP1 RETURNDATACOPY RETURNDATASIZE PUSH0 REVERT JUMPDEST POP POP POP POP PUSH1 0x40 MLOAD RETURNDATASIZE PUSH1 0x1F NOT PUSH1 0x1F DUP3 ADD AND DUP3 ADD DUP1 PUSH1 0x40 MSTORE POP DUP2 ADD SWAP1 PUSH2 0xC18 SWAP2 SWAP1 PUSH2 0x1F35 JUMP JUMPDEST PUSH20 0xFFFFFFFFFFFFFFFFFFFFFFFFFFFFFFFFFFFFFFFF AND EQ PUSH2 0xC6E JUMPI PUSH1 0x40 MLOAD PUSH32 0x8C379A000000000000000000000000000000000000000000000000000000000 DUP2 MSTORE PUSH1 0x4 ADD PUSH2 0xC65 SWAP1 PUSH2 0x1FBA JUMP JUMPDEST PUSH1 0x40 MLOAD DUP1 SWAP2 SUB SWAP1 REVERT JUMPDEST PUSH0 PUSH2 0xC78 CALLER PUSH2 0x16DB JUMP JUMPDEST SWAP1 POP PUSH0 PUSH20 0xFFFFFFFFFFFFFFFFFFFFFFFFFFFFFFFFFFFFFFFF AND DUP2 PUSH20 0xFFFFFFFFFFFFFFFFFFFFFFFFFFFFFFFFFFFFFFFF AND SUB PUSH2 0xCE8 JUMPI PUSH1 0x40 MLOAD PUSH32 0x8C379A000000000000000000000000000000000000000000000000000000000 DUP2 MSTORE PUSH1 0x4 ADD PUSH2 0xCDF SWAP1 PUSH2 0x232E JUMP JUMPDEST PUSH1 0x40 MLOAD DUP1 SWAP2 SUB SWAP1 REVERT JUMPDEST PUSH0 PUSH1 0x2 PUSH0 SWAP1 SLOAD SWAP1 PUSH2 0x100 EXP SWAP1 DIV PUSH20 0xFFFFFFFFFFFFFFFFFFFFFFFFFFFFFFFFFFFFFFFF AND PUSH20 0xFFFFFFFFFFFFFFFFFFFFFFFFFFFFFFFFFFFFFFFF AND PUSH4 0x86C8A86F CALLER PUSH1 0x40 MLOAD DUP3 PUSH4 0xFFFFFFFF AND PUSH1 0xE0 SHL DUP2 MSTORE PUSH1 0x4 ADD PUSH2 0xD43 SWAP2 SWAP1 PUSH2 0x1E96 JUMP JUMPDEST PUSH1 0x60 PUSH1 0x40 MLOAD DUP1 DUP4 SUB DUP2 DUP7 GAS STATICCALL ISZERO DUP1 ISZERO PUSH2 0xD5E JUMPI RETURNDATASIZE PUSH0 DUP1 RETURNDATACOPY RETURNDATASIZE PUSH0 REVERT JUMPDEST POP POP POP POP PUSH1 0x40 MLOAD RETURNDATASIZE PUSH1 0x1F NOT PUSH1 0x1F DUP3 ADD AND DUP3 ADD DUP1 PUSH1 0x40 MSTORE POP DUP2 ADD SWAP1 PUSH2 0xD82 SWAP2 SWAP1 PUSH2 0x246E JUMP JUMPDEST SWAP1 POP DUP1 PUSH1 0x40 ADD MLOAD PUSH2 0xE15 JUMPI PUSH1 0x2 PUSH0 SWAP1 SLOAD SWAP1 PUSH2 0x100 EXP SWAP1 DIV PUSH20 0xFFFFFFFFFFFFFFFFFFFFFFFFFFFFFFFFFFFFFFFF AND PUSH20 0xFFFFFFFFFFFFFFFFFFFFFFFFFFFFFFFFFFFFFFFF AND PUSH4 0xDEC5D109 CALLER PUSH1 0x40 MLOAD DUP3 PUSH4 0xFFFFFFFF AND PUSH1 0xE0 SHL DUP2 MSTORE PUSH1 0x4 ADD PUSH2 0xDE7 SWAP2 SWAP1 PUSH2 0x1E96 JUMP JUMPDEST PUSH0 PUSH1 0x40 MLOAD DUP1 DUP4 SUB DUP2 PUSH0 DUP8 DUP1 EXTCODESIZE ISZERO DUP1 ISZERO PUSH2 0xDFE JUMPI PUSH0 DUP1 REVERT JUMPDEST POP GAS CALL ISZERO DUP1 ISZERO PUSH2 0xE10 JUMPI RETURNDATASIZE PUSH0 DUP1 RETURNDATACOPY RETURNDATASIZE PUSH0 REVERT JUMPDEST POP POP POP POP JUMPDEST PUSH2 0xE1F CALLER DUP4 PUSH2 0x1803 JUMP JUMPDEST PUSH1 0x7 PUSH0 CALLER PUSH20 0xFFFFFFFFFFFFFFFFFFFFFFFFFFFFFFFFFFFFFFFF AND PUSH20 0xFFFFFFFFFFFFFFFFFFFFFFFFFFFFFFFFFFFFFFFF AND DUP2 MSTORE PUSH1 0x20 ADD SWAP1 DUP2 MSTORE PUSH1 0x20 ADD PUSH0 KECCAK256 PUSH0 DUP2 SLOAD DUP1 SWAP3 SWAP2 SWAP1 PUSH2 0xE6C SWAP1 PUSH2 0x2499 JUMP JUMPDEST SWAP2 SWAP1 POP SSTORE POP TIMESTAMP PUSH1 0x8 PUSH0 CALLER PUSH20 0xFFFFFFFFFFFFFFFFFFFFFFFFFFFFFFFFFFFFFFFF AND PUSH20 0xFFFFFFFFFFFFFFFFFFFFFFFFFFFFFFFFFFFFFFFF AND DUP2 MSTORE PUSH1 0x20 ADD SWAP1 DUP2 MSTORE PUSH1 0x20 ADD PUSH0 KECCAK256 DUP2 SWAP1 SSTORE POP POP POP POP JUMP JUMPDEST PUSH2 0xEC0 PUSH2 0x1BDD JUMP JUMPDEST PUSH1 0x4 PUSH0 DUP4 DUP2 MSTORE PUSH1 0x20 ADD SWAP1 DUP2 MSTORE PUSH1 0x20 ADD PUSH0 KECCAK256 PUSH1 0x40 MLOAD DUP1 PUSH1 0x80 ADD PUSH1 0x40 MSTORE SWAP1 DUP2 PUSH0 DUP3 ADD SLOAD DUP2 MSTORE PUSH1 0x20 ADD PUSH1 0x1 DUP3 ADD SLOAD DUP2 MSTORE PUSH1 0x20 ADD PUSH1 0x2 DUP3 ADD SLOAD DUP2 MSTORE PUSH1 0x20 ADD PUSH1 0x3 DUP3 ADD SLOAD DUP2 MSTORE POP POP SWAP1 POP SWAP2 SWAP1 POP JUMP JUMPDEST PUSH1 0x2 PUSH0 SWAP1 SLOAD SWAP1 PUSH2 0x100 EXP SWAP1 DIV PUSH20 0xFFFFFFFFFFFFFFFFFFFFFFFFFFFFFFFFFFFFFFFF AND DUP2 JUMP JUMPDEST PUSH2 0xF37 PUSH2 0x1654 JUMP JUMPDEST PUSH2 0xF40 PUSH0 PUSH2 0x19A8 JUMP JUMPDEST JUMP JUMPDEST PUSH0 DUP1 PUSH0 SWAP1 SLOAD SWAP1 PUSH2 0x100 EXP SWAP1 DIV PUSH20 0xFFFFFFFFFFFFFFFFFFFFFFFFFFFFFFFFFFFFFFFF AND SWAP1 POP SWAP1 JUMP JUMPDEST PUSH1 0x1 PUSH0 SWAP1 SLOAD SWAP1 PUSH2 0x100 EXP SWAP1 DIV PUSH20 0xFFFFFFFFFFFFFFFFFFFFFFFFFFFFFFFFFFFFFFFF AND DUP2 JUMP JUMPDEST PUSH1 0xD SLOAD DUP2 JUMP JUMPDEST PUSH0 PUSH3 0x15180 TIMESTAMP PUSH2 0xFA4 SWAP2 SWAP1 PUSH2 0x24E0 JUMP JUMPDEST SWAP1 POP SWAP1 JUMP JUMPDEST PUSH2 0xFB1 PUSH2 0x1654 JUMP JUMPDEST PUSH0 JUMPDEST DUP2 DUP2 LT ISZERO PUSH2 0x1104 JUMPI PUSH0 PUSH1 0xB SLOAD SWAP1 POP PUSH1 0xB PUSH0 DUP2 SLOAD DUP1 SWAP3 SWAP2 SWAP1 PUSH2 0xFD3 SWAP1 PUSH2 0x2499 JUMP JUMPDEST SWAP2 SWAP1 POP SSTORE POP PUSH1 0xA DUP2 SWAP1 DUP1 PUSH1 0x1 DUP2 SLOAD ADD DUP1 DUP3 SSTORE DUP1 SWAP2 POP POP PUSH1 0x1 SWAP1 SUB SWAP1 PUSH0 MSTORE PUSH1 0x20 PUSH0 KECCAK256 ADD PUSH0 SWAP1 SWAP2 SWAP1 SWAP2 SWAP1 SWAP2 PUSH2 0x100 EXP DUP2 SLOAD DUP2 PUSH20 0xFFFFFFFFFFFFFFFFFFFFFFFFFFFFFFFFFFFFFFFF MUL NOT AND SWAP1 DUP4 PUSH20 0xFFFFFFFFFFFFFFFFFFFFFFFFFFFFFFFFFFFFFFFF AND MUL OR SWAP1 SSTORE POP PUSH1 0x9 DUP2 SWAP1 DUP1 PUSH1 0x1 DUP2 SLOAD ADD DUP1 DUP3 SSTORE DUP1 SWAP2 POP POP PUSH1 0x1 SWAP1 SUB SWAP1 PUSH0 MSTORE PUSH1 0x20 PUSH0 KECCAK256 ADD PUSH0 SWAP1 SWAP2 SWAP1 SWAP2 SWAP1 SWAP2 PUSH2 0x100 EXP DUP2 SLOAD DUP2 PUSH20 0xFFFFFFFFFFFFFFFFFFFFFFFFFFFFFFFFFFFFFFFF MUL NOT AND SWAP1 DUP4 PUSH20 0xFFFFFFFFFFFFFFFFFFFFFFFFFFFFFFFFFFFFFFFF AND MUL OR SWAP1 SSTORE POP PUSH1 0x40 MLOAD DUP1 PUSH1 0x80 ADD PUSH1 0x40 MSTORE DUP1 PUSH0 DUP2 MSTORE PUSH1 0x20 ADD PUSH1 0x64 DUP2 MSTORE PUSH1 0x20 ADD PUSH1 0x64 DUP2 MSTORE PUSH1 0x20 ADD PUSH1 0x64 DUP2 MSTORE POP PUSH1 0x4 PUSH0 DUP1 DUP2 MSTORE PUSH1 0x20 ADD SWAP1 DUP2 MSTORE PUSH1 0x20 ADD PUSH0 KECCAK256 PUSH0 DUP3 ADD MLOAD DUP2 PUSH0 ADD SSTORE PUSH1 0x20 DUP3 ADD MLOAD DUP2 PUSH1 0x1 ADD SSTORE PUSH1 0x40 DUP3 ADD MLOAD DUP2 PUSH1 0x2 ADD SSTORE PUSH1 0x60 DUP3 ADD MLOAD DUP2 PUSH1 0x3 ADD SSTORE SWAP1 POP POP POP DUP1 DUP1 PUSH1 0x1 ADD SWAP2 POP POP PUSH2 0xFB3 JUMP JUMPDEST POP POP JUMP JUMPDEST CALLER PUSH20 0xFFFFFFFFFFFFFFFFFFFFFFFFFFFFFFFFFFFFFFFF AND PUSH1 0x1 PUSH0 SWAP1 SLOAD SWAP1 PUSH2 0x100 EXP SWAP1 DIV PUSH20 0xFFFFFFFFFFFFFFFFFFFFFFFFFFFFFFFFFFFFFFFF AND PUSH20 0xFFFFFFFFFFFFFFFFFFFFFFFFFFFFFFFFFFFFFFFF AND PUSH4 0x6352211E DUP4 PUSH1 0x40 MLOAD DUP3 PUSH4 0xFFFFFFFF AND PUSH1 0xE0 SHL DUP2 MSTORE PUSH1 0x4 ADD PUSH2 0x1179 SWAP2 SWAP1 PUSH2 0x1CE4 JUMP JUMPDEST PUSH1 0x20 PUSH1 0x40 MLOAD DUP1 DUP4 SUB DUP2 DUP7 GAS STATICCALL ISZERO DUP1 ISZERO PUSH2 0x1194 JUMPI RETURNDATASIZE PUSH0 DUP1 RETURNDATACOPY RETURNDATASIZE PUSH0 REVERT JUMPDEST POP POP POP POP PUSH1 0x40 MLOAD RETURNDATASIZE PUSH1 0x1F NOT PUSH1 0x1F DUP3 ADD AND DUP3 ADD DUP1 PUSH1 0x40 MSTORE POP DUP2 ADD SWAP1 PUSH2 0x11B8 SWAP2 SWAP1 PUSH2 0x1F35 JUMP JUMPDEST PUSH20 0xFFFFFFFFFFFFFFFFFFFFFFFFFFFFFFFFFFFFFFFF AND EQ PUSH2 0x120E JUMPI PUSH1 0x40 MLOAD PUSH32 0x8C379A000000000000000000000000000000000000000000000000000000000 DUP2 MSTORE PUSH1 0x4 ADD PUSH2 0x1205 SWAP1 PUSH2 0x1FBA JUMP JUMPDEST PUSH1 0x40 MLOAD DUP1 SWAP2 SUB SWAP1 REVERT JUMPDEST PUSH0 PUSH1 0x6 PUSH0 CALLER PUSH20 0xFFFFFFFFFFFFFFFFFFFFFFFFFFFFFFFFFFFFFFFF AND PUSH20 0xFFFFFFFFFFFFFFFFFFFFFFFFFFFFFFFFFFFFFFFF AND DUP2 MSTORE PUSH1 0x20 ADD SWAP1 DUP2 MSTORE PUSH1 0x20 ADD PUSH0 KECCAK256 SLOAD EQ PUSH2 0x128D JUMPI PUSH1 0x40 MLOAD PUSH32 0x8C379A000000000000000000000000000000000000000000000000000000000 DUP2 MSTORE PUSH1 0x4 ADD PUSH2 0x1284 SWAP1 PUSH2 0x255A JUMP JUMPDEST PUSH1 0x40 MLOAD DUP1 SWAP2 SUB SWAP1 REVERT JUMPDEST PUSH0 PUSH1 0x1 PUSH0 SWAP1 SLOAD SWAP1 PUSH2 0x100 EXP SWAP1 DIV PUSH20 0xFFFFFFFFFFFFFFFFFFFFFFFFFFFFFFFFFFFFFFFF AND PUSH20 0xFFFFFFFFFFFFFFFFFFFFFFFFFFFFFFFFFFFFFFFF AND PUSH4 0xB564EA86 DUP4 PUSH1 0x40 MLOAD DUP3 PUSH4 0xFFFFFFFF AND PUSH1 0xE0 SHL DUP2 MSTORE PUSH1 0x4 ADD PUSH2 0x12E8 SWAP2 SWAP1 PUSH2 0x1CE4 JUMP JUMPDEST PUSH1 0x40 DUP1 MLOAD DUP1 DUP4 SUB DUP2 DUP7 GAS STATICCALL ISZERO DUP1 ISZERO PUSH2 0x1302 JUMPI RETURNDATASIZE PUSH0 DUP1 RETURNDATACOPY RETURNDATASIZE PUSH0 REVERT JUMPDEST POP POP POP POP PUSH1 0x40 MLOAD RETURNDATASIZE PUSH1 0x1F NOT PUSH1 0x1F DUP3 ADD AND DUP3 ADD DUP1 PUSH1 0x40 MSTORE POP DUP2 ADD SWAP1 PUSH2 0x1326 SWAP2 SWAP1 PUSH2 0x259B JUMP JUMPDEST POP SWAP1 POP PUSH1 0x3 DUP1 DUP2 GT ISZERO PUSH2 0x133C JUMPI PUSH2 0x133B PUSH2 0x25D9 JUMP JUMPDEST JUMPDEST DUP2 PUSH1 0x3 DUP2 GT ISZERO PUSH2 0x134F JUMPI PUSH2 0x134E PUSH2 0x25D9 JUMP JUMPDEST JUMPDEST EQ PUSH2 0x138F JUMPI PUSH1 0x40 MLOAD PUSH32 0x8C379A000000000000000000000000000000000000000000000000000000000 DUP2 MSTORE PUSH1 0x4 ADD PUSH2 0x1386 SWAP1 PUSH2 0x2650 JUMP JUMPDEST PUSH1 0x40 MLOAD DUP1 SWAP2 SUB SWAP1 REVERT JUMPDEST PUSH0 PUSH1 0x4 PUSH0 DUP5 DUP2 MSTORE PUSH1 0x20 ADD SWAP1 DUP2 MSTORE PUSH1 0x20 ADD PUSH0 KECCAK256 PUSH0 ADD SLOAD SUB PUSH2 0x1408 JUMPI PUSH1 0x40 MLOAD DUP1 PUSH1 0x80 ADD PUSH1 0x40 MSTORE DUP1 DUP4 DUP2 MSTORE PUSH1 0x20 ADD PUSH1 0x64 DUP2 MSTORE PUSH1 0x20 ADD PUSH1 0x64 DUP2 MSTORE PUSH1 0x20 ADD PUSH1 0x64 DUP2 MSTORE POP PUSH1 0x4 PUSH0 DUP5 DUP2 MSTORE PUSH1 0x20 ADD SWAP1 DUP2 MSTORE PUSH1 0x20 ADD PUSH0 KECCAK256 PUSH0 DUP3 ADD MLOAD DUP2 PUSH0 ADD SSTORE PUSH1 0x20 DUP3 ADD MLOAD DUP2 PUSH1 0x1 ADD SSTORE PUSH1 0x40 DUP3 ADD MLOAD DUP2 PUSH1 0x2 ADD SSTORE PUSH1 0x60 DUP3 ADD MLOAD DUP2 PUSH1 0x3 ADD SSTORE SWAP1 POP POP JUMPDEST DUP2 PUSH1 0x6 PUSH0 CALLER PUSH20 0xFFFFFFFFFFFFFFFFFFFFFFFFFFFFFFFFFFFFFFFF AND PUSH20 0xFFFFFFFFFFFFFFFFFFFFFFFFFFFFFFFFFFFFFFFF AND DUP2 MSTORE PUSH1 0x20 ADD SWAP1 DUP2 MSTORE PUSH1 0x20 ADD PUSH0 KECCAK256 DUP2 SWAP1 SSTORE POP PUSH1 0x9 CALLER SWAP1 DUP1 PUSH1 0x1 DUP2 SLOAD ADD DUP1 DUP3 SSTORE DUP1 SWAP2 POP POP PUSH1 0x1 SWAP1 SUB SWAP1 PUSH0 MSTORE PUSH1 0x20 PUSH0 KECCAK256 ADD PUSH0 SWAP1 SWAP2 SWAP1 SWAP2 SWAP1 SWAP2 PUSH2 0x100 EXP DUP2 SLOAD DUP2 PUSH20 0xFFFFFFFFFFFFFFFFFFFFFFFFFFFFFFFFFFFFFFFF MUL NOT AND SWAP1 DUP4 PUSH20 0xFFFFFFFFFFFFFFFFFFFFFFFFFFFFFFFFFFFFFFFF AND MUL OR SWAP1 SSTORE POP POP POP JUMP JUMPDEST PUSH2 0x14B6 PUSH2 0x1BC5 JUMP JUMPDEST PUSH2 0x14BE PUSH2 0x1654 JUMP JUMPDEST PUSH0 PUSH1 0x6 PUSH0 DUP5 PUSH20 0xFFFFFFFFFFFFFFFFFFFFFFFFFFFFFFFFFFFFFFFF AND PUSH20 0xFFFFFFFFFFFFFFFFFFFFFFFFFFFFFFFFFFFFFFFF AND DUP2 MSTORE PUSH1 0x20 ADD SWAP1 DUP2 MSTORE PUSH1 0x20 ADD PUSH0 KECCAK256 SLOAD SWAP1 POP PUSH1 0x5 PUSH0 DUP3 DUP2 MSTORE PUSH1 0x20 ADD SWAP1 DUP2 MSTORE PUSH1 0x20 ADD PUSH0 KECCAK256 PUSH1 0x40 MLOAD DUP1 PUSH1 0x40 ADD PUSH1 0x40 MSTORE SWAP1 DUP2 PUSH0 DUP3 ADD SLOAD DUP2 MSTORE PUSH1 0x20 ADD PUSH1 0x1 DUP3 ADD SLOAD DUP2 MSTORE POP POP SWAP2 POP POP SWAP2 SWAP1 POP JUMP JUMPDEST PUSH2 0x153E PUSH2 0x1654 JUMP JUMPDEST PUSH0 JUMPDEST PUSH1 0xA DUP1 SLOAD SWAP1 POP DUP2 GT PUSH2 0x158E JUMPI PUSH1 0x4 PUSH0 DUP1 DUP2 MSTORE PUSH1 0x20 ADD SWAP1 DUP2 MSTORE PUSH1 0x20 ADD PUSH0 KECCAK256 PUSH0 DUP1 DUP3 ADD PUSH0 SWAP1 SSTORE PUSH1 0x1 DUP3 ADD PUSH0 SWAP1 SSTORE PUSH1 0x2 DUP3 ADD PUSH0 SWAP1 SSTORE PUSH1 0x3 DUP3 ADD PUSH0 SWAP1 SSTORE POP POP DUP1 DUP1 PUSH2 0x1586 SWAP1 PUSH2 0x2499 JUMP JUMPDEST SWAP2 POP POP PUSH2 0x1540 JUMP JUMPDEST POP PUSH1 0xA PUSH0 PUSH2 0x159C SWAP2 SWAP1 PUSH2 0x1C01 JUMP JUMPDEST PUSH0 PUSH1 0xB DUP2 SWAP1 SSTORE POP JUMP JUMPDEST PUSH1 0xE SLOAD DUP2 JUMP JUMPDEST PUSH2 0x15B3 PUSH2 0x1654 JUMP JUMPDEST PUSH0 PUSH20 0xFFFFFFFFFFFFFFFFFFFFFFFFFFFFFFFFFFFFFFFF AND DUP2 PUSH20 0xFFFFFFFFFFFFFFFFFFFFFFFFFFFFFFFFFFFFFFFF AND SUB PUSH2 0x1623 JUMPI PUSH0 PUSH1 0x40 MLOAD PUSH32 0x1E4FBDF700000000000000000000000000000000000000000000000000000000 DUP2 MSTORE PUSH1 0x4 ADD PUSH2 0x161A SWAP2 SWAP1 PUSH2 0x1E96 JUMP JUMPDEST PUSH1 0x40 MLOAD DUP1 SWAP2 SUB SWAP1 REVERT JUMPDEST PUSH2 0x162C DUP2 PUSH2 0x19A8 JUMP JUMPDEST POP JUMP JUMPDEST PUSH1 0x3 PUSH0 SWAP1 SLOAD SWAP1 PUSH2 0x100 EXP SWAP1 DIV PUSH20 0xFFFFFFFFFFFFFFFFFFFFFFFFFFFFFFFFFFFFFFFF AND DUP2 JUMP JUMPDEST PUSH2 0x165C PUSH2 0x1A69 JUMP JUMPDEST PUSH20 0xFFFFFFFFFFFFFFFFFFFFFFFFFFFFFFFFFFFFFFFF AND PUSH2 0x167A PUSH2 0xF42 JUMP JUMPDEST PUSH20 0xFFFFFFFFFFFFFFFFFFFFFFFFFFFFFFFFFFFFFFFF AND EQ PUSH2 0x16D9 JUMPI PUSH2 0x169D PUSH2 0x1A69 JUMP JUMPDEST PUSH1 0x40 MLOAD PUSH32 0x118CDAA700000000000000000000000000000000000000000000000000000000 DUP2 MSTORE PUSH1 0x4 ADD PUSH2 0x16D0 SWAP2 SWAP1 PUSH2 0x1E96 JUMP JUMPDEST PUSH1 0x40 MLOAD DUP1 SWAP2 SUB SWAP1 REVERT JUMPDEST JUMP JUMPDEST PUSH0 DUP1 PUSH1 0x9 DUP1 SLOAD SWAP1 POP SWAP1 POP PUSH1 0x1 DUP2 SUB PUSH2 0x16F6 JUMPI PUSH0 SWAP2 POP POP PUSH2 0x17FE JUMP JUMPDEST PUSH0 DUP2 TIMESTAMP PREVRANDAO PUSH1 0x40 MLOAD PUSH1 0x20 ADD PUSH2 0x170B SWAP3 SWAP2 SWAP1 PUSH2 0x2107 JUMP JUMPDEST PUSH1 0x40 MLOAD PUSH1 0x20 DUP2 DUP4 SUB SUB DUP2 MSTORE SWAP1 PUSH1 0x40 MSTORE DUP1 MLOAD SWAP1 PUSH1 0x20 ADD KECCAK256 PUSH0 SHR PUSH2 0x172D SWAP2 SWAP1 PUSH2 0x215F JUMP JUMPDEST SWAP1 POP PUSH0 PUSH1 0x9 DUP3 DUP2 SLOAD DUP2 LT PUSH2 0x1744 JUMPI PUSH2 0x1743 PUSH2 0x2257 JUMP JUMPDEST JUMPDEST SWAP1 PUSH0 MSTORE PUSH1 0x20 PUSH0 KECCAK256 ADD PUSH0 SWAP1 SLOAD SWAP1 PUSH2 0x100 EXP SWAP1 DIV PUSH20 0xFFFFFFFFFFFFFFFFFFFFFFFFFFFFFFFFFFFFFFFF AND SWAP1 POP DUP5 PUSH20 0xFFFFFFFFFFFFFFFFFFFFFFFFFFFFFFFFFFFFFFFF AND DUP2 PUSH20 0xFFFFFFFFFFFFFFFFFFFFFFFFFFFFFFFFFFFFFFFF AND SUB PUSH2 0x17F7 JUMPI PUSH1 0x9 DUP4 PUSH1 0x1 DUP5 PUSH2 0x17B1 SWAP2 SWAP1 PUSH2 0x21BC JUMP JUMPDEST PUSH2 0x17BB SWAP2 SWAP1 PUSH2 0x215F JUMP JUMPDEST DUP2 SLOAD DUP2 LT PUSH2 0x17CC JUMPI PUSH2 0x17CB PUSH2 0x2257 JUMP JUMPDEST JUMPDEST SWAP1 PUSH0 MSTORE PUSH1 0x20 PUSH0 KECCAK256 ADD PUSH0 SWAP1 SLOAD SWAP1 PUSH2 0x100 EXP SWAP1 DIV PUSH20 0xFFFFFFFFFFFFFFFFFFFFFFFFFFFFFFFFFFFFFFFF AND SWAP1 POP JUMPDEST DUP1 SWAP4 POP POP POP POP JUMPDEST SWAP2 SWAP1 POP JUMP JUMPDEST PUSH0 PUSH1 0x6 PUSH0 DUP5 PUSH20 0xFFFFFFFFFFFFFFFFFFFFFFFFFFFFFFFFFFFFFFFF AND PUSH20 0xFFFFFFFFFFFFFFFFFFFFFFFFFFFFFFFFFFFFFFFF AND DUP2 MSTORE PUSH1 0x20 ADD SWAP1 DUP2 MSTORE PUSH1 0x20 ADD PUSH0 KECCAK256 SLOAD SWAP1 POP PUSH0 PUSH1 0x6 PUSH0 DUP5 PUSH20 0xFFFFFFFFFFFFFFFFFFFFFFFFFFFFFFFFFFFFFFFF AND PUSH20 0xFFFFFFFFFFFFFFFFFFFFFFFFFFFFFFFFFFFFFFFF AND DUP2 MSTORE PUSH1 0x20 ADD SWAP1 DUP2 MSTORE PUSH1 0x20 ADD PUSH0 KECCAK256 SLOAD SWAP1 POP PUSH0 PUSH1 0x4 PUSH0 DUP5 DUP2 MSTORE PUSH1 0x20 ADD SWAP1 DUP2 MSTORE PUSH1 0x20 ADD PUSH0 KECCAK256 SWAP1 POP PUSH0 PUSH1 0x4 PUSH0 DUP5 DUP2 MSTORE PUSH1 0x20 ADD SWAP1 DUP2 MSTORE PUSH1 0x20 ADD PUSH0 KECCAK256 SWAP1 POP PUSH0 DUP3 PUSH1 0x3 ADD SLOAD SWAP1 POP PUSH0 DUP3 PUSH1 0x3 ADD SLOAD SWAP1 POP PUSH0 DUP1 PUSH1 0x2 TIMESTAMP PREVRANDAO PUSH1 0x40 MLOAD PUSH1 0x20 ADD PUSH2 0x18D4 SWAP3 SWAP2 SWAP1 PUSH2 0x2107 JUMP JUMPDEST PUSH1 0x40 MLOAD PUSH1 0x20 DUP2 DUP4 SUB SUB DUP2 MSTORE SWAP1 PUSH1 0x40 MSTORE DUP1 MLOAD SWAP1 PUSH1 0x20 ADD KECCAK256 PUSH0 SHR PUSH2 0x18F6 SWAP2 SWAP1 PUSH2 0x215F JUMP JUMPDEST EQ SWAP1 POP JUMPDEST PUSH0 DUP4 GT DUP1 ISZERO PUSH2 0x1908 JUMPI POP PUSH0 DUP3 GT JUMPDEST ISZERO PUSH2 0x1992 JUMPI DUP1 ISZERO PUSH2 0x1952 JUMPI PUSH2 0x192A DUP6 PUSH1 0x1 ADD SLOAD DUP7 PUSH1 0x2 ADD SLOAD DUP8 PUSH1 0x3 ADD SLOAD PUSH2 0x1A70 JUMP JUMPDEST SWAP2 POP PUSH0 DUP3 SUB ISZERO PUSH2 0x1992 JUMPI PUSH2 0x194B DUP5 PUSH1 0x1 ADD SLOAD DUP6 PUSH1 0x2 ADD SLOAD DUP7 PUSH1 0x3 ADD SLOAD PUSH2 0x1A70 JUMP JUMPDEST SWAP3 POP PUSH2 0x198D JUMP JUMPDEST PUSH2 0x1969 DUP5 PUSH1 0x1 ADD SLOAD DUP6 PUSH1 0x2 ADD SLOAD DUP7 PUSH1 0x3 ADD SLOAD PUSH2 0x1A70 JUMP JUMPDEST SWAP3 POP PUSH0 DUP4 SUB ISZERO PUSH2 0x1992 JUMPI PUSH2 0x198A DUP6 PUSH1 0x1 ADD SLOAD DUP7 PUSH1 0x2 ADD SLOAD DUP8 PUSH1 0x3 ADD SLOAD PUSH2 0x1A70 JUMP JUMPDEST SWAP2 POP JUMPDEST PUSH2 0x18FA JUMP JUMPDEST PUSH2 0x199D DUP4 DUP9 DUP9 PUSH2 0x1AA2 JUMP JUMPDEST POP POP POP POP POP POP POP POP POP JUMP JUMPDEST PUSH0 DUP1 PUSH0 SWAP1 SLOAD SWAP1 PUSH2 0x100 EXP SWAP1 DIV PUSH20 0xFFFFFFFFFFFFFFFFFFFFFFFFFFFFFFFFFFFFFFFF AND SWAP1 POP DUP2 PUSH0 DUP1 PUSH2 0x100 EXP DUP2 SLOAD DUP2 PUSH20 0xFFFFFFFFFFFFFFFFFFFFFFFFFFFFFFFFFFFFFFFF MUL NOT AND SWAP1 DUP4 PUSH20 0xFFFFFFFFFFFFFFFFFFFFFFFFFFFFFFFFFFFFFFFF AND MUL OR SWAP1 SSTORE POP DUP2 PUSH20 0xFFFFFFFFFFFFFFFFFFFFFFFFFFFFFFFFFFFFFFFF AND DUP2 PUSH20 0xFFFFFFFFFFFFFFFFFFFFFFFFFFFFFFFFFFFFFFFF AND PUSH32 0x8BE0079C531659141344CD1FD0A4F28419497F9722A3DAAFE3B4186F6B6457E0 PUSH1 0x40 MLOAD PUSH1 0x40 MLOAD DUP1 SWAP2 SUB SWAP1 LOG3 POP POP JUMP JUMPDEST PUSH0 CALLER SWAP1 POP SWAP1 JUMP JUMPDEST PUSH0 DUP1 PUSH2 0x1A7C DUP6 DUP6 PUSH2 0x1B56 JUMP JUMPDEST SWAP1 POP DUP1 DUP4 GT PUSH2 0x1A8B JUMPI PUSH0 PUSH2 0x1A98 JUMP JUMPDEST DUP1 DUP4 PUSH2 0x1A97 SWAP2 SWAP1 PUSH2 0x2284 JUMP JUMPDEST JUMPDEST SWAP2 POP POP SWAP4 SWAP3 POP POP POP JUMP JUMPDEST PUSH0 DUP4 SUB PUSH2 0x1AFF JUMPI PUSH1 0x5 PUSH0 DUP3 DUP2 MSTORE PUSH1 0x20 ADD SWAP1 DUP2 MSTORE PUSH1 0x20 ADD PUSH0 KECCAK256 PUSH0 ADD PUSH0 DUP2 SLOAD DUP1 SWAP3 SWAP2 SWAP1 PUSH2 0x1ACC SWAP1 PUSH2 0x2499 JUMP JUMPDEST SWAP2 SWAP1 POP SSTORE POP PUSH1 0x5 PUSH0 DUP4 DUP2 MSTORE PUSH1 0x20 ADD SWAP1 DUP2 MSTORE PUSH1 0x20 ADD PUSH0 KECCAK256 PUSH1 0x1 ADD PUSH0 DUP2 SLOAD DUP1 SWAP3 SWAP2 SWAP1 PUSH2 0x1AF5 SWAP1 PUSH2 0x2499 JUMP JUMPDEST SWAP2 SWAP1 POP SSTORE POP PUSH2 0x1B51 JUMP JUMPDEST PUSH1 0x5 PUSH0 DUP4 DUP2 MSTORE PUSH1 0x20 ADD SWAP1 DUP2 MSTORE PUSH1 0x20 ADD PUSH0 KECCAK256 PUSH0 ADD PUSH0 DUP2 SLOAD DUP1 SWAP3 SWAP2 SWAP1 PUSH2 0x1B22 SWAP1 PUSH2 0x2499 JUMP JUMPDEST SWAP2 SWAP1 POP SSTORE POP PUSH1 0x5 PUSH0 DUP3 DUP2 MSTORE PUSH1 0x20 ADD SWAP1 DUP2 MSTORE PUSH1 0x20 ADD PUSH0 KECCAK256 PUSH1 0x1 ADD PUSH0 DUP2 SLOAD DUP1 SWAP3 SWAP2 SWAP1 PUSH2 0x1B4B SWAP1 PUSH2 0x2499 JUMP JUMPDEST SWAP2 SWAP1 POP SSTORE POP JUMPDEST POP POP POP JUMP JUMPDEST PUSH0 DUP1 PUSH1 0xA SWAP1 POP PUSH0 PUSH1 0x64 DUP5 PUSH2 0x1B6A SWAP2 SWAP1 PUSH2 0x21BC JUMP JUMPDEST PUSH1 0x64 DUP6 PUSH2 0x1B77 SWAP2 SWAP1 PUSH2 0x266E JUMP JUMPDEST PUSH2 0x1B81 SWAP2 SWAP1 PUSH2 0x24E0 JUMP JUMPDEST SWAP1 POP PUSH0 PUSH1 0x5A DUP3 GT PUSH2 0x1B9E JUMPI DUP2 PUSH1 0x64 PUSH2 0x1B99 SWAP2 SWAP1 PUSH2 0x2284 JUMP JUMPDEST PUSH2 0x1BA0 JUMP JUMPDEST DUP3 JUMPDEST SWAP1 POP PUSH1 0x64 DUP2 DUP8 PUSH2 0x1BB0 SWAP2 SWAP1 PUSH2 0x266E JUMP JUMPDEST PUSH2 0x1BBA SWAP2 SWAP1 PUSH2 0x24E0 JUMP JUMPDEST SWAP4 POP POP POP POP SWAP3 SWAP2 POP POP JUMP JUMPDEST PUSH1 0x40 MLOAD DUP1 PUSH1 0x40 ADD PUSH1 0x40 MSTORE DUP1 PUSH0 DUP2 MSTORE PUSH1 0x20 ADD PUSH0 DUP2 MSTORE POP SWAP1 JUMP JUMPDEST PUSH1 0x40 MLOAD DUP1 PUSH1 0x80 ADD PUSH1 0x40 MSTORE DUP1 PUSH0 DUP2 MSTORE PUSH1 0x20 ADD PUSH0 DUP2 MSTORE PUSH1 0x20 ADD PUSH0 DUP2 MSTORE PUSH1 0x20 ADD PUSH0 DUP2 MSTORE POP SWAP1 JUMP JUMPDEST POP DUP1 SLOAD PUSH0 DUP3 SSTORE SWAP1 PUSH0 MSTORE PUSH1 0x20 PUSH0 KECCAK256 SWAP1 DUP2 ADD SWAP1 PUSH2 0x1C1C SWAP2 SWAP1 PUSH2 0x1C1F JUMP JUMPDEST POP JUMP JUMPDEST JUMPDEST DUP1 DUP3 GT ISZERO PUSH2 0x1C36 JUMPI PUSH0 DUP2 PUSH0 SWAP1 SSTORE POP PUSH1 0x1 ADD PUSH2 0x1C20 JUMP JUMPDEST POP SWAP1 JUMP JUMPDEST PUSH0 PUSH1 0x40 MLOAD SWAP1 POP SWAP1 JUMP JUMPDEST PUSH0 DUP1 REVERT JUMPDEST PUSH0 PUSH20 0xFFFFFFFFFFFFFFFFFFFFFFFFFFFFFFFFFFFFFFFF DUP3 AND SWAP1 POP SWAP2 SWAP1 POP JUMP JUMPDEST PUSH0 PUSH2 0x1C70 DUP3 PUSH2 0x1C47 JUMP JUMPDEST SWAP1 POP SWAP2 SWAP1 POP JUMP JUMPDEST PUSH2 0x1C80 DUP2 PUSH2 0x1C66 JUMP JUMPDEST DUP2 EQ PUSH2 0x1C8A JUMPI PUSH0 DUP1 REVERT JUMPDEST POP JUMP JUMPDEST PUSH0 DUP2 CALLDATALOAD SWAP1 POP PUSH2 0x1C9B DUP2 PUSH2 0x1C77 JUMP JUMPDEST SWAP3 SWAP2 POP POP JUMP JUMPDEST PUSH0 PUSH1 0x20 DUP3 DUP5 SUB SLT ISZERO PUSH2 0x1CB6 JUMPI PUSH2 0x1CB5 PUSH2 0x1C43 JUMP JUMPDEST JUMPDEST PUSH0 PUSH2 0x1CC3 DUP5 DUP3 DUP6 ADD PUSH2 0x1C8D JUMP JUMPDEST SWAP2 POP POP SWAP3 SWAP2 POP POP JUMP JUMPDEST PUSH0 DUP2 SWAP1 POP SWAP2 SWAP1 POP JUMP JUMPDEST PUSH2 0x1CDE DUP2 PUSH2 0x1CCC JUMP JUMPDEST DUP3 MSTORE POP POP JUMP JUMPDEST PUSH0 PUSH1 0x20 DUP3 ADD SWAP1 POP PUSH2 0x1CF7 PUSH0 DUP4 ADD DUP5 PUSH2 0x1CD5 JUMP JUMPDEST SWAP3 SWAP2 POP POP JUMP JUMPDEST PUSH2 0x1D06 DUP2 PUSH2 0x1CCC JUMP JUMPDEST DUP2 EQ PUSH2 0x1D10 JUMPI PUSH0 DUP1 REVERT JUMPDEST POP JUMP JUMPDEST PUSH0 DUP2 CALLDATALOAD SWAP1 POP PUSH2 0x1D21 DUP2 PUSH2 0x1CFD JUMP JUMPDEST SWAP3 SWAP2 POP POP JUMP JUMPDEST PUSH0 PUSH1 0x20 DUP3 DUP5 SUB SLT ISZERO PUSH2 0x1D3C JUMPI PUSH2 0x1D3B PUSH2 0x1C43 JUMP JUMPDEST JUMPDEST PUSH0 PUSH2 0x1D49 DUP5 DUP3 DUP6 ADD PUSH2 0x1D13 JUMP JUMPDEST SWAP2 POP POP SWAP3 SWAP2 POP POP JUMP JUMPDEST PUSH2 0x1D5B DUP2 PUSH2 0x1CCC JUMP JUMPDEST DUP3 MSTORE POP POP JUMP JUMPDEST PUSH1 0x40 DUP3 ADD PUSH0 DUP3 ADD MLOAD PUSH2 0x1D75 PUSH0 DUP6 ADD DUP3 PUSH2 0x1D52 JUMP JUMPDEST POP PUSH1 0x20 DUP3 ADD MLOAD PUSH2 0x1D88 PUSH1 0x20 DUP6 ADD DUP3 PUSH2 0x1D52 JUMP JUMPDEST POP POP POP POP JUMP JUMPDEST PUSH0 PUSH1 0x40 DUP3 ADD SWAP1 POP PUSH2 0x1DA1 PUSH0 DUP4 ADD DUP5 PUSH2 0x1D61 JUMP JUMPDEST SWAP3 SWAP2 POP POP JUMP JUMPDEST PUSH1 0x80 DUP3 ADD PUSH0 DUP3 ADD MLOAD PUSH2 0x1DBB PUSH0 DUP6 ADD DUP3 PUSH2 0x1D52 JUMP JUMPDEST POP PUSH1 0x20 DUP3 ADD MLOAD PUSH2 0x1DCE PUSH1 0x20 DUP6 ADD DUP3 PUSH2 0x1D52 JUMP JUMPDEST POP PUSH1 0x40 DUP3 ADD MLOAD PUSH2 0x1DE1 PUSH1 0x40 DUP6 ADD DUP3 PUSH2 0x1D52 JUMP JUMPDEST POP PUSH1 0x60 DUP3 ADD MLOAD PUSH2 0x1DF4 PUSH1 0x60 DUP6 ADD DUP3 PUSH2 0x1D52 JUMP JUMPDEST POP POP POP POP JUMP JUMPDEST PUSH0 PUSH1 0x80 DUP3 ADD SWAP1 POP PUSH2 0x1E0D PUSH0 DUP4 ADD DUP5 PUSH2 0x1DA7 JUMP JUMPDEST SWAP3 SWAP2 POP POP JUMP JUMPDEST PUSH0 DUP2 SWAP1 POP SWAP2 SWAP1 POP JUMP JUMPDEST PUSH0 PUSH2 0x1E36 PUSH2 0x1E31 PUSH2 0x1E2C DUP5 PUSH2 0x1C47 JUMP JUMPDEST PUSH2 0x1E13 JUMP JUMPDEST PUSH2 0x1C47 JUMP JUMPDEST SWAP1 POP SWAP2 SWAP1 POP JUMP JUMPDEST PUSH0 PUSH2 0x1E47 DUP3 PUSH2 0x1E1C JUMP JUMPDEST SWAP1 POP SWAP2 SWAP1 POP JUMP JUMPDEST PUSH0 PUSH2 0x1E58 DUP3 PUSH2 0x1E3D JUMP JUMPDEST SWAP1 POP SWAP2 SWAP1 POP JUMP JUMPDEST PUSH2 0x1E68 DUP2 PUSH2 0x1E4E JUMP JUMPDEST DUP3 MSTORE POP POP JUMP JUMPDEST PUSH0 PUSH1 0x20 DUP3 ADD SWAP1 POP PUSH2 0x1E81 PUSH0 DUP4 ADD DUP5 PUSH2 0x1E5F JUMP JUMPDEST SWAP3 SWAP2 POP POP JUMP JUMPDEST PUSH2 0x1E90 DUP2 PUSH2 0x1C66 JUMP JUMPDEST DUP3 MSTORE POP POP JUMP JUMPDEST PUSH0 PUSH1 0x20 DUP3 ADD SWAP1 POP PUSH2 0x1EA9 PUSH0 DUP4 ADD DUP5 PUSH2 0x1E87 JUMP JUMPDEST SWAP3 SWAP2 POP POP JUMP JUMPDEST PUSH0 PUSH2 0x1EB9 DUP3 PUSH2 0x1E3D JUMP JUMPDEST SWAP1 POP SWAP2 SWAP1 POP JUMP JUMPDEST PUSH2 0x1EC9 DUP2 PUSH2 0x1EAF JUMP JUMPDEST DUP3 MSTORE POP POP JUMP JUMPDEST PUSH0 PUSH1 0x20 DUP3 ADD SWAP1 POP PUSH2 0x1EE2 PUSH0 DUP4 ADD DUP5 PUSH2 0x1EC0 JUMP JUMPDEST SWAP3 SWAP2 POP POP JUMP JUMPDEST PUSH0 PUSH2 0x1EF2 DUP3 PUSH2 0x1E3D JUMP JUMPDEST SWAP1 POP SWAP2 SWAP1 POP JUMP JUMPDEST PUSH2 0x1F02 DUP2 PUSH2 0x1EE8 JUMP JUMPDEST DUP3 MSTORE POP POP JUMP JUMPDEST PUSH0 PUSH1 0x20 DUP3 ADD SWAP1 POP PUSH2 0x1F1B PUSH0 DUP4 ADD DUP5 PUSH2 0x1EF9 JUMP JUMPDEST SWAP3 SWAP2 POP POP JUMP JUMPDEST PUSH0 DUP2 MLOAD SWAP1 POP PUSH2 0x1F2F DUP2 PUSH2 0x1C77 JUMP JUMPDEST SWAP3 SWAP2 POP POP JUMP JUMPDEST PUSH0 PUSH1 0x20 DUP3 DUP5 SUB SLT ISZERO PUSH2 0x1F4A JUMPI PUSH2 0x1F49 PUSH2 0x1C43 JUMP JUMPDEST JUMPDEST PUSH0 PUSH2 0x1F57 DUP5 DUP3 DUP6 ADD PUSH2 0x1F21 JUMP JUMPDEST SWAP2 POP POP SWAP3 SWAP2 POP POP JUMP JUMPDEST PUSH0 DUP3 DUP3 MSTORE PUSH1 0x20 DUP3 ADD SWAP1 POP SWAP3 SWAP2 POP POP JUMP JUMPDEST PUSH32 0x4E6F74204F776E65720000000000000000000000000000000000000000000000 PUSH0 DUP3 ADD MSTORE POP JUMP JUMPDEST PUSH0 PUSH2 0x1FA4 PUSH1 0x9 DUP4 PUSH2 0x1F60 JUMP JUMPDEST SWAP2 POP PUSH2 0x1FAF DUP3 PUSH2 0x1F70 JUMP JUMPDEST PUSH1 0x20 DUP3 ADD SWAP1 POP SWAP2 SWAP1 POP JUMP JUMPDEST PUSH0 PUSH1 0x20 DUP3 ADD SWAP1 POP DUP2 DUP2 SUB PUSH0 DUP4 ADD MSTORE PUSH2 0x1FD1 DUP2 PUSH2 0x1F98 JUMP JUMPDEST SWAP1 POP SWAP2 SWAP1 POP JUMP JUMPDEST PUSH32 0x447261676F6E206E6F74207265676973746572656420666F7220626174746C65 PUSH0 DUP3 ADD MSTORE POP JUMP JUMPDEST PUSH0 PUSH2 0x200C PUSH1 0x20 DUP4 PUSH2 0x1F60 JUMP JUMPDEST SWAP2 POP PUSH2 0x2017 DUP3 PUSH2 0x1FD8 JUMP JUMPDEST PUSH1 0x20 DUP3 ADD SWAP1 POP SWAP2 SWAP1 POP JUMP JUMPDEST PUSH0 PUSH1 0x20 DUP3 ADD SWAP1 POP DUP2 DUP2 SUB PUSH0 DUP4 ADD MSTORE PUSH2 0x2039 DUP2 PUSH2 0x2000 JUMP JUMPDEST SWAP1 POP SWAP2 SWAP1 POP JUMP JUMPDEST PUSH0 DUP2 MLOAD SWAP1 POP PUSH2 0x204E DUP2 PUSH2 0x1CFD JUMP JUMPDEST SWAP3 SWAP2 POP POP JUMP JUMPDEST PUSH0 PUSH1 0x20 DUP3 DUP5 SUB SLT ISZERO PUSH2 0x2069 JUMPI PUSH2 0x2068 PUSH2 0x1C43 JUMP JUMPDEST JUMPDEST PUSH0 PUSH2 0x2076 DUP5 DUP3 DUP6 ADD PUSH2 0x2040 JUMP JUMPDEST SWAP2 POP POP SWAP3 SWAP2 POP POP JUMP JUMPDEST PUSH32 0x496E73756666696369656E74206472696E6B7300000000000000000000000000 PUSH0 DUP3 ADD MSTORE POP JUMP JUMPDEST PUSH0 PUSH2 0x20B3 PUSH1 0x13 DUP4 PUSH2 0x1F60 JUMP JUMPDEST SWAP2 POP PUSH2 0x20BE DUP3 PUSH2 0x207F JUMP JUMPDEST PUSH1 0x20 DUP3 ADD SWAP1 POP SWAP2 SWAP1 POP JUMP JUMPDEST PUSH0 PUSH1 0x20 DUP3 ADD SWAP1 POP DUP2 DUP2 SUB PUSH0 DUP4 ADD MSTORE PUSH2 0x20E0 DUP2 PUSH2 0x20A7 JUMP JUMPDEST SWAP1 POP SWAP2 SWAP1 POP JUMP JUMPDEST PUSH0 DUP2 SWAP1 POP SWAP2 SWAP1 POP JUMP JUMPDEST PUSH2 0x2101 PUSH2 0x20FC DUP3 PUSH2 0x1CCC JUMP JUMPDEST PUSH2 0x20E7 JUMP JUMPDEST DUP3 MSTORE POP POP JUMP JUMPDEST PUSH0 PUSH2 0x2112 DUP3 DUP6 PUSH2 0x20F0 JUMP JUMPDEST PUSH1 0x20 DUP3 ADD SWAP2 POP PUSH2 0x2122 DUP3 DUP5 PUSH2 0x20F0 JUMP JUMPDEST PUSH1 0x20 DUP3 ADD SWAP2 POP DUP2 SWAP1 POP SWAP4 SWAP3 POP POP POP JUMP JUMPDEST PUSH32 0x4E487B7100000000000000000000000000000000000000000000000000000000 PUSH0 MSTORE PUSH1 0x12 PUSH1 0x4 MSTORE PUSH1 0x24 PUSH0 REVERT JUMPDEST PUSH0 PUSH2 0x2169 DUP3 PUSH2 0x1CCC JUMP JUMPDEST SWAP2 POP PUSH2 0x2174 DUP4 PUSH2 0x1CCC JUMP JUMPDEST SWAP3 POP DUP3 PUSH2 0x2184 JUMPI PUSH2 0x2183 PUSH2 0x2132 JUMP JUMPDEST JUMPDEST DUP3 DUP3 MOD SWAP1 POP SWAP3 SWAP2 POP POP JUMP JUMPDEST PUSH32 0x4E487B7100000000000000000000000000000000000000000000000000000000 PUSH0 MSTORE PUSH1 0x11 PUSH1 0x4 MSTORE PUSH1 0x24 PUSH0 REVERT JUMPDEST PUSH0 PUSH2 0x21C6 DUP3 PUSH2 0x1CCC JUMP JUMPDEST SWAP2 POP PUSH2 0x21D1 DUP4 PUSH2 0x1CCC JUMP JUMPDEST SWAP3 POP DUP3 DUP3 ADD SWAP1 POP DUP1 DUP3 GT ISZERO PUSH2 0x21E9 JUMPI PUSH2 0x21E8 PUSH2 0x218F JUMP JUMPDEST JUMPDEST SWAP3 SWAP2 POP POP JUMP JUMPDEST PUSH32 0x746F6B656E206973206E6F742072656769737465720000000000000000000000 PUSH0 DUP3 ADD MSTORE POP JUMP JUMPDEST PUSH0 PUSH2 0x2223 PUSH1 0x15 DUP4 PUSH2 0x1F60 JUMP JUMPDEST SWAP2 POP PUSH2 0x222E DUP3 PUSH2 0x21EF JUMP JUMPDEST PUSH1 0x20 DUP3 ADD SWAP1 POP SWAP2 SWAP1 POP JUMP JUMPDEST PUSH0 PUSH1 0x20 DUP3 ADD SWAP1 POP DUP2 DUP2 SUB PUSH0 DUP4 ADD MSTORE PUSH2 0x2250 DUP2 PUSH2 0x2217 JUMP JUMPDEST SWAP1 POP SWAP2 SWAP1 POP JUMP JUMPDEST PUSH32 0x4E487B7100000000000000000000000000000000000000000000000000000000 PUSH0 MSTORE PUSH1 0x32 PUSH1 0x4 MSTORE PUSH1 0x24 PUSH0 REVERT JUMPDEST PUSH0 PUSH2 0x228E DUP3 PUSH2 0x1CCC JUMP JUMPDEST SWAP2 POP PUSH2 0x2299 DUP4 PUSH2 0x1CCC JUMP JUMPDEST SWAP3 POP DUP3 DUP3 SUB SWAP1 POP DUP2 DUP2 GT ISZERO PUSH2 0x22B1 JUMPI PUSH2 0x22B0 PUSH2 0x218F JUMP JUMPDEST JUMPDEST SWAP3 SWAP2 POP POP JUMP JUMPDEST PUSH32 0x4E487B7100000000000000000000000000000000000000000000000000000000 PUSH0 MSTORE PUSH1 0x31 PUSH1 0x4 MSTORE PUSH1 0x24 PUSH0 REVERT JUMPDEST PUSH32 0x4E6F206F70706F6E656E7420666F756E64000000000000000000000000000000 PUSH0 DUP3 ADD MSTORE POP JUMP JUMPDEST PUSH0 PUSH2 0x2318 PUSH1 0x11 DUP4 PUSH2 0x1F60 JUMP JUMPDEST SWAP2 POP PUSH2 0x2323 DUP3 PUSH2 0x22E4 JUMP JUMPDEST PUSH1 0x20 DUP3 ADD SWAP1 POP SWAP2 SWAP1 POP JUMP JUMPDEST PUSH0 PUSH1 0x20 DUP3 ADD SWAP1 POP DUP2 DUP2 SUB PUSH0 DUP4 ADD MSTORE PUSH2 0x2345 DUP2 PUSH2 0x230C JUMP JUMPDEST SWAP1 POP SWAP2 SWAP1 POP JUMP JUMPDEST PUSH0 DUP1 REVERT JUMPDEST PUSH0 PUSH1 0x1F NOT PUSH1 0x1F DUP4 ADD AND SWAP1 POP SWAP2 SWAP1 POP JUMP JUMPDEST PUSH32 0x4E487B7100000000000000000000000000000000000000000000000000000000 PUSH0 MSTORE PUSH1 0x41 PUSH1 0x4 MSTORE PUSH1 0x24 PUSH0 REVERT JUMPDEST PUSH2 0x2396 DUP3 PUSH2 0x2350 JUMP JUMPDEST DUP2 ADD DUP2 DUP2 LT PUSH8 0xFFFFFFFFFFFFFFFF DUP3 GT OR ISZERO PUSH2 0x23B5 JUMPI PUSH2 0x23B4 PUSH2 0x2360 JUMP JUMPDEST JUMPDEST DUP1 PUSH1 0x40 MSTORE POP POP POP JUMP JUMPDEST PUSH0 PUSH2 0x23C7 PUSH2 0x1C3A JUMP JUMPDEST SWAP1 POP PUSH2 0x23D3 DUP3 DUP3 PUSH2 0x238D JUMP JUMPDEST SWAP2 SWAP1 POP JUMP JUMPDEST PUSH0 DUP2 ISZERO ISZERO SWAP1 POP SWAP2 SWAP1 POP JUMP JUMPDEST PUSH2 0x23EC DUP2 PUSH2 0x23D8 JUMP JUMPDEST DUP2 EQ PUSH2 0x23F6 JUMPI PUSH0 DUP1 REVERT JUMPDEST POP JUMP JUMPDEST PUSH0 DUP2 MLOAD SWAP1 POP PUSH2 0x2407 DUP2 PUSH2 0x23E3 JUMP JUMPDEST SWAP3 SWAP2 POP POP JUMP JUMPDEST PUSH0 PUSH1 0x60 DUP3 DUP5 SUB SLT ISZERO PUSH2 0x2422 JUMPI PUSH2 0x2421 PUSH2 0x234C JUMP JUMPDEST JUMPDEST PUSH2 0x242C PUSH1 0x60 PUSH2 0x23BE JUMP JUMPDEST SWAP1 POP PUSH0 PUSH2 0x243B DUP5 DUP3 DUP6 ADD PUSH2 0x23F9 JUMP JUMPDEST PUSH0 DUP4 ADD MSTORE POP PUSH1 0x20 PUSH2 0x244E DUP5 DUP3 DUP6 ADD PUSH2 0x23F9 JUMP JUMPDEST PUSH1 0x20 DUP4 ADD MSTORE POP PUSH1 0x40 PUSH2 0x2462 DUP5 DUP3 DUP6 ADD PUSH2 0x23F9 JUMP JUMPDEST PUSH1 0x40 DUP4 ADD MSTORE POP SWAP3 SWAP2 POP POP JUMP JUMPDEST PUSH0 PUSH1 0x60 DUP3 DUP5 SUB SLT ISZERO PUSH2 0x2483 JUMPI PUSH2 0x2482 PUSH2 0x1C43 JUMP JUMPDEST JUMPDEST PUSH0 PUSH2 0x2490 DUP5 DUP3 DUP6 ADD PUSH2 0x240D JUMP JUMPDEST SWAP2 POP POP SWAP3 SWAP2 POP POP JUMP JUMPDEST PUSH0 PUSH2 0x24A3 DUP3 PUSH2 0x1CCC JUMP JUMPDEST SWAP2 POP PUSH32 0xFFFFFFFFFFFFFFFFFFFFFFFFFFFFFFFFFFFFFFFFFFFFFFFFFFFFFFFFFFFFFFFF DUP3 SUB PUSH2 0x24D5 JUMPI PUSH2 0x24D4 PUSH2 0x218F JUMP JUMPDEST JUMPDEST PUSH1 0x1 DUP3 ADD SWAP1 POP SWAP2 SWAP1 POP JUMP JUMPDEST PUSH0 PUSH2 0x24EA DUP3 PUSH2 0x1CCC JUMP JUMPDEST SWAP2 POP PUSH2 0x24F5 DUP4 PUSH2 0x1CCC JUMP JUMPDEST SWAP3 POP DUP3 PUSH2 0x2505 JUMPI PUSH2 0x2504 PUSH2 0x2132 JUMP JUMPDEST JUMPDEST DUP3 DUP3 DIV SWAP1 POP SWAP3 SWAP2 POP POP JUMP JUMPDEST PUSH32 0x416C726561647920726567697374657265640000000000000000000000000000 PUSH0 DUP3 ADD MSTORE POP JUMP JUMPDEST PUSH0 PUSH2 0x2544 PUSH1 0x12 DUP4 PUSH2 0x1F60 JUMP JUMPDEST SWAP2 POP PUSH2 0x254F DUP3 PUSH2 0x2510 JUMP JUMPDEST PUSH1 0x20 DUP3 ADD SWAP1 POP SWAP2 SWAP1 POP JUMP JUMPDEST PUSH0 PUSH1 0x20 DUP3 ADD SWAP1 POP DUP2 DUP2 SUB PUSH0 DUP4 ADD MSTORE PUSH2 0x2571 DUP2 PUSH2 0x2538 JUMP JUMPDEST SWAP1 POP SWAP2 SWAP1 POP JUMP JUMPDEST PUSH1 0x4 DUP2 LT PUSH2 0x2584 JUMPI PUSH0 DUP1 REVERT JUMPDEST POP JUMP JUMPDEST PUSH0 DUP2 MLOAD SWAP1 POP PUSH2 0x2595 DUP2 PUSH2 0x2578 JUMP JUMPDEST SWAP3 SWAP2 POP POP JUMP JUMPDEST PUSH0 DUP1 PUSH1 0x40 DUP4 DUP6 SUB SLT ISZERO PUSH2 0x25B1 JUMPI PUSH2 0x25B0 PUSH2 0x1C43 JUMP JUMPDEST JUMPDEST PUSH0 PUSH2 0x25BE DUP6 DUP3 DUP7 ADD PUSH2 0x2587 JUMP JUMPDEST SWAP3 POP POP PUSH1 0x20 PUSH2 0x25CF DUP6 DUP3 DUP7 ADD PUSH2 0x2040 JUMP JUMPDEST SWAP2 POP POP SWAP3 POP SWAP3 SWAP1 POP JUMP JUMPDEST PUSH32 0x4E487B7100000000000000000000000000000000000000000000000000000000 PUSH0 MSTORE PUSH1 0x21 PUSH1 0x4 MSTORE PUSH1 0x24 PUSH0 REVERT JUMPDEST PUSH32 0x746F6B656E206973206E6F74206164756C740000000000000000000000000000 PUSH0 DUP3 ADD MSTORE POP JUMP JUMPDEST PUSH0 PUSH2 0x263A PUSH1 0x12 DUP4 PUSH2 0x1F60 JUMP JUMPDEST SWAP2 POP PUSH2 0x2645 DUP3 PUSH2 0x2606 JUMP JUMPDEST PUSH1 0x20 DUP3 ADD SWAP1 POP SWAP2 SWAP1 POP JUMP JUMPDEST PUSH0 PUSH1 0x20 DUP3 ADD SWAP1 POP DUP2 DUP2 SUB PUSH0 DUP4 ADD MSTORE PUSH2 0x2667 DUP2 PUSH2 0x262E JUMP JUMPDEST SWAP1 POP SWAP2 SWAP1 POP JUMP JUMPDEST PUSH0 PUSH2 0x2678 DUP3 PUSH2 0x1CCC JUMP JUMPDEST SWAP2 POP PUSH2 0x2683 DUP4 PUSH2 0x1CCC JUMP JUMPDEST SWAP3 POP DUP3 DUP3 MUL PUSH2 0x2691 DUP2 PUSH2 0x1CCC JUMP JUMPDEST SWAP2 POP DUP3 DUP3 DIV DUP5 EQ DUP4 ISZERO OR PUSH2 0x26A8 JUMPI PUSH2 0x26A7 PUSH2 0x218F JUMP JUMPDEST JUMPDEST POP SWAP3 SWAP2 POP POP JUMP INVALID LOG2 PUSH5 0x6970667358 0x22 SLT KECCAK256 0xC4 0xE1 0x2F PUSH18 0xA700AA50C1764C30711F98599E97BFC232B1 PUSH28 0xD09DD2972A0A63E1AD64736F6C634300081A00330000000000000000 "
				},
				"gasEstimates": {
					"creation": {
						"codeDepositCost": "1991400",
						"executionCost": "infinite",
						"totalCost": "infinite"
					},
					"external": {
						"addDummy(uint256)": "infinite",
						"battle(uint256)": "infinite",
						"battleReward()": "2492",
						"dailyBattleCount(address)": "2848",
						"dailyBattleLimit()": "2513",
						"deleteDummy()": "infinite",
						"dragonContract()": "infinite",
						"drinkContract()": "infinite",
						"getBattleRecord(uint256)": "infinite",
						"getDragonStatus(uint256)": "infinite",
						"getPlayerRecords(address)": "infinite",
						"lastBattleTime(address)": "2826",
						"owner()": "2538",
						"questContract()": "infinite",
						"regiBattle(uint256)": "infinite",
						"renounceOwnership()": "infinite",
						"setDailyBattleLimit(uint256)": "infinite",
						"today()": "infinite",
						"transferOwnership(address)": "infinite",
						"unregiBattle(uint256)": "infinite",
						"upgradeDragon(uint256)": "infinite",
						"upgradePrice()": "2493"
					},
					"internal": {
						"applyDamage(uint256,uint256,uint256)": "infinite",
						"battleProgress(address,address)": "infinite",
						"calculateDamage(uint256,uint256)": "infinite",
						"findRandomOpponent(address)": "infinite",
						"updateBattleRecords(uint256,uint256,uint256)": "infinite",
						"winReward(address)": "infinite"
					}
				},
				"methodIdentifiers": {
					"addDummy(uint256)": "ba3c1e4b",
					"battle(uint256)": "5d6de796",
					"battleReward()": "9e84477d",
					"dailyBattleCount(address)": "245b1187",
					"dailyBattleLimit()": "e98da9ad",
					"deleteDummy()": "d1c6839f",
					"dragonContract()": "9711dc38",
					"drinkContract()": "fbc1274d",
					"getBattleRecord(uint256)": "53a653eb",
					"getDragonStatus(uint256)": "68b42e60",
					"getPlayerRecords(address)": "cdb6b4f4",
					"lastBattleTime(address)": "1f19565d",
					"owner()": "8da5cb5b",
					"questContract()": "6a6940cc",
					"regiBattle(uint256)": "c9f4b515",
					"renounceOwnership()": "715018a6",
					"setDailyBattleLimit(uint256)": "4d6c423c",
					"today()": "b74e452b",
					"transferOwnership(address)": "f2fde38b",
					"unregiBattle(uint256)": "593c8253",
					"upgradeDragon(uint256)": "2d0efac7",
					"upgradePrice()": "287ad39f"
				}
			},
			"storageLayout": {
				"storage": [
					{
						"astId": 8,
						"contract": "contents/Battle.sol:Battle",
						"label": "_owner",
						"offset": 0,
						"slot": "0",
						"type": "t_address"
					},
					{
						"astId": 317,
						"contract": "contents/Battle.sol:Battle",
						"label": "dragonContract",
						"offset": 0,
						"slot": "1",
						"type": "t_contract(IToken)306"
					},
					{
						"astId": 320,
						"contract": "contents/Battle.sol:Battle",
						"label": "questContract",
						"offset": 0,
						"slot": "2",
						"type": "t_contract(IQuest)273"
					},
					{
						"astId": 323,
						"contract": "contents/Battle.sol:Battle",
						"label": "drinkContract",
						"offset": 0,
						"slot": "3",
						"type": "t_contract(IDragonDrink)238"
					},
					{
						"astId": 342,
						"contract": "contents/Battle.sol:Battle",
						"label": "battleDragon",
						"offset": 0,
						"slot": "4",
						"type": "t_mapping(t_uint256,t_struct(Dragon)337_storage)"
					},
					{
						"astId": 347,
						"contract": "contents/Battle.sol:Battle",
						"label": "dragonRecords",
						"offset": 0,
						"slot": "5",
						"type": "t_mapping(t_uint256,t_struct(BattleRecord)328_storage)"
					},
					{
						"astId": 351,
						"contract": "contents/Battle.sol:Battle",
						"label": "registeredDragons",
						"offset": 0,
						"slot": "6",
						"type": "t_mapping(t_address,t_uint256)"
					},
					{
						"astId": 355,
						"contract": "contents/Battle.sol:Battle",
						"label": "dailyBattleCount",
						"offset": 0,
						"slot": "7",
						"type": "t_mapping(t_address,t_uint256)"
					},
					{
						"astId": 359,
						"contract": "contents/Battle.sol:Battle",
						"label": "lastBattleTime",
						"offset": 0,
						"slot": "8",
						"type": "t_mapping(t_address,t_uint256)"
					},
					{
						"astId": 362,
						"contract": "contents/Battle.sol:Battle",
						"label": "registeredBattlers",
						"offset": 0,
						"slot": "9",
						"type": "t_array(t_address)dyn_storage"
					},
					{
						"astId": 365,
						"contract": "contents/Battle.sol:Battle",
						"label": "dummyAddr",
						"offset": 0,
						"slot": "10",
						"type": "t_array(t_address)dyn_storage"
					},
					{
						"astId": 367,
						"contract": "contents/Battle.sol:Battle",
						"label": "dummyCounter",
						"offset": 0,
						"slot": "11",
						"type": "t_uint256"
					},
					{
						"astId": 370,
						"contract": "contents/Battle.sol:Battle",
						"label": "upgradePrice",
						"offset": 0,
						"slot": "12",
						"type": "t_uint256"
					},
					{
						"astId": 373,
						"contract": "contents/Battle.sol:Battle",
						"label": "battleReward",
						"offset": 0,
						"slot": "13",
						"type": "t_uint256"
					},
					{
						"astId": 376,
						"contract": "contents/Battle.sol:Battle",
						"label": "dailyBattleLimit",
						"offset": 0,
						"slot": "14",
						"type": "t_uint256"
					}
				],
				"types": {
					"t_address": {
						"encoding": "inplace",
						"label": "address",
						"numberOfBytes": "20"
					},
					"t_array(t_address)dyn_storage": {
						"base": "t_address",
						"encoding": "dynamic_array",
						"label": "address[]",
						"numberOfBytes": "32"
					},
					"t_contract(IDragonDrink)238": {
						"encoding": "inplace",
						"label": "contract IDragonDrink",
						"numberOfBytes": "20"
					},
					"t_contract(IQuest)273": {
						"encoding": "inplace",
						"label": "contract IQuest",
						"numberOfBytes": "20"
					},
					"t_contract(IToken)306": {
						"encoding": "inplace",
						"label": "contract IToken",
						"numberOfBytes": "20"
					},
					"t_mapping(t_address,t_uint256)": {
						"encoding": "mapping",
						"key": "t_address",
						"label": "mapping(address => uint256)",
						"numberOfBytes": "32",
						"value": "t_uint256"
					},
					"t_mapping(t_uint256,t_struct(BattleRecord)328_storage)": {
						"encoding": "mapping",
						"key": "t_uint256",
						"label": "mapping(uint256 => struct Battle.BattleRecord)",
						"numberOfBytes": "32",
						"value": "t_struct(BattleRecord)328_storage"
					},
					"t_mapping(t_uint256,t_struct(Dragon)337_storage)": {
						"encoding": "mapping",
						"key": "t_uint256",
						"label": "mapping(uint256 => struct Battle.Dragon)",
						"numberOfBytes": "32",
						"value": "t_struct(Dragon)337_storage"
					},
					"t_struct(BattleRecord)328_storage": {
						"encoding": "inplace",
						"label": "struct Battle.BattleRecord",
						"members": [
							{
								"astId": 325,
								"contract": "contents/Battle.sol:Battle",
								"label": "win",
								"offset": 0,
								"slot": "0",
								"type": "t_uint256"
							},
							{
								"astId": 327,
								"contract": "contents/Battle.sol:Battle",
								"label": "lose",
								"offset": 0,
								"slot": "1",
								"type": "t_uint256"
							}
						],
						"numberOfBytes": "64"
					},
					"t_struct(Dragon)337_storage": {
						"encoding": "inplace",
						"label": "struct Battle.Dragon",
						"members": [
							{
								"astId": 330,
								"contract": "contents/Battle.sol:Battle",
								"label": "tokenId",
								"offset": 0,
								"slot": "0",
								"type": "t_uint256"
							},
							{
								"astId": 332,
								"contract": "contents/Battle.sol:Battle",
								"label": "attack",
								"offset": 0,
								"slot": "1",
								"type": "t_uint256"
							},
							{
								"astId": 334,
								"contract": "contents/Battle.sol:Battle",
								"label": "defense",
								"offset": 0,
								"slot": "2",
								"type": "t_uint256"
							},
							{
								"astId": 336,
								"contract": "contents/Battle.sol:Battle",
								"label": "health",
								"offset": 0,
								"slot": "3",
								"type": "t_uint256"
							}
						],
						"numberOfBytes": "128"
					},
					"t_uint256": {
						"encoding": "inplace",
						"label": "uint256",
						"numberOfBytes": "32"
					}
				}
			},
			"userdoc": {
				"kind": "user",
				"methods": {},
				"version": 1
			}
		}
	}
}