{
	"contents/MarketPlace.sol": {
		"Marketplace": {
			"abi": [
				{
					"inputs": [
						{
							"internalType": "address",
							"name": "_nftContract",
							"type": "address"
						},
						{
							"internalType": "address",
							"name": "_paymentToken",
							"type": "address"
						}
					],
					"stateMutability": "nonpayable",
					"type": "constructor"
				},
				{
					"inputs": [
						{
							"internalType": "address",
							"name": "owner",
							"type": "address"
						}
					],
					"name": "OwnableInvalidOwner",
					"type": "error"
				},
				{
					"inputs": [
						{
							"internalType": "address",
							"name": "account",
							"type": "address"
						}
					],
					"name": "OwnableUnauthorizedAccount",
					"type": "error"
				},
				{
					"anonymous": false,
					"inputs": [
						{
							"indexed": false,
							"internalType": "uint256",
							"name": "itemId",
							"type": "uint256"
						},
						{
							"indexed": false,
							"internalType": "uint256",
							"name": "tokenId",
							"type": "uint256"
						},
						{
							"indexed": false,
							"internalType": "address",
							"name": "owner",
							"type": "address"
						},
						{
							"indexed": false,
							"internalType": "address",
							"name": "buyer",
							"type": "address"
						},
						{
							"indexed": false,
							"internalType": "uint256",
							"name": "price",
							"type": "uint256"
						}
					],
					"name": "ItemBought",
					"type": "event"
				},
				{
					"anonymous": false,
					"inputs": [
						{
							"indexed": false,
							"internalType": "uint256",
							"name": "itemId",
							"type": "uint256"
						},
						{
							"indexed": false,
							"internalType": "uint256",
							"name": "tokenId",
							"type": "uint256"
						},
						{
							"indexed": false,
							"internalType": "address",
							"name": "owner",
							"type": "address"
						},
						{
							"indexed": false,
							"internalType": "uint256",
							"name": "price",
							"type": "uint256"
						}
					],
					"name": "ItemDelisted",
					"type": "event"
				},
				{
					"anonymous": false,
					"inputs": [
						{
							"indexed": false,
							"internalType": "uint256",
							"name": "itemId",
							"type": "uint256"
						},
						{
							"indexed": false,
							"internalType": "uint256",
							"name": "tokenId",
							"type": "uint256"
						},
						{
							"indexed": false,
							"internalType": "address",
							"name": "owner",
							"type": "address"
						},
						{
							"indexed": false,
							"internalType": "uint256",
							"name": "price",
							"type": "uint256"
						}
					],
					"name": "ItemListed",
					"type": "event"
				},
				{
					"anonymous": false,
					"inputs": [
						{
							"indexed": true,
							"internalType": "address",
							"name": "previousOwner",
							"type": "address"
						},
						{
							"indexed": true,
							"internalType": "address",
							"name": "newOwner",
							"type": "address"
						}
					],
					"name": "OwnershipTransferred",
					"type": "event"
				},
				{
					"inputs": [
						{
							"internalType": "uint256",
							"name": "itemId",
							"type": "uint256"
						}
					],
					"name": "buyItem",
					"outputs": [],
					"stateMutability": "payable",
					"type": "function"
				},
				{
					"inputs": [],
					"name": "fetchMarketItemListed",
					"outputs": [
						{
							"components": [
								{
									"internalType": "uint256",
									"name": "itemId",
									"type": "uint256"
								},
								{
									"internalType": "uint256",
									"name": "tokenId",
									"type": "uint256"
								},
								{
									"internalType": "address payable",
									"name": "owner",
									"type": "address"
								},
								{
									"internalType": "uint256",
									"name": "price",
									"type": "uint256"
								},
								{
									"internalType": "bool",
									"name": "sold",
									"type": "bool"
								},
								{
									"internalType": "bool",
									"name": "cancel",
									"type": "bool"
								}
							],
							"internalType": "struct Marketplace.MarketItem[]",
							"name": "",
							"type": "tuple[]"
						}
					],
					"stateMutability": "view",
					"type": "function"
				},
				{
					"inputs": [],
					"name": "fetchMarketItemLog",
					"outputs": [
						{
							"components": [
								{
									"internalType": "uint256",
									"name": "itemId",
									"type": "uint256"
								},
								{
									"internalType": "uint256",
									"name": "tokenId",
									"type": "uint256"
								},
								{
									"internalType": "address payable",
									"name": "owner",
									"type": "address"
								},
								{
									"internalType": "uint256",
									"name": "price",
									"type": "uint256"
								},
								{
									"internalType": "bool",
									"name": "sold",
									"type": "bool"
								},
								{
									"internalType": "bool",
									"name": "cancel",
									"type": "bool"
								}
							],
							"internalType": "struct Marketplace.MarketItem[]",
							"name": "",
							"type": "tuple[]"
						}
					],
					"stateMutability": "view",
					"type": "function"
				},
				{
					"inputs": [],
					"name": "fetchMyItemListed",
					"outputs": [
						{
							"components": [
								{
									"internalType": "uint256",
									"name": "itemId",
									"type": "uint256"
								},
								{
									"internalType": "uint256",
									"name": "tokenId",
									"type": "uint256"
								},
								{
									"internalType": "address payable",
									"name": "owner",
									"type": "address"
								},
								{
									"internalType": "uint256",
									"name": "price",
									"type": "uint256"
								},
								{
									"internalType": "bool",
									"name": "sold",
									"type": "bool"
								},
								{
									"internalType": "bool",
									"name": "cancel",
									"type": "bool"
								}
							],
							"internalType": "struct Marketplace.MarketItem[]",
							"name": "",
							"type": "tuple[]"
						}
					],
					"stateMutability": "view",
					"type": "function"
				},
				{
					"inputs": [
						{
							"internalType": "uint256",
							"name": "tokenId",
							"type": "uint256"
						}
					],
					"name": "isListed",
					"outputs": [
						{
							"internalType": "bool",
							"name": "",
							"type": "bool"
						}
					],
					"stateMutability": "view",
					"type": "function"
				},
				{
					"inputs": [
						{
							"internalType": "uint256",
							"name": "",
							"type": "uint256"
						}
					],
					"name": "items",
					"outputs": [
						{
							"internalType": "uint256",
							"name": "itemId",
							"type": "uint256"
						},
						{
							"internalType": "uint256",
							"name": "tokenId",
							"type": "uint256"
						},
						{
							"internalType": "address payable",
							"name": "owner",
							"type": "address"
						},
						{
							"internalType": "uint256",
							"name": "price",
							"type": "uint256"
						},
						{
							"internalType": "bool",
							"name": "sold",
							"type": "bool"
						},
						{
							"internalType": "bool",
							"name": "cancel",
							"type": "bool"
						}
					],
					"stateMutability": "view",
					"type": "function"
				},
				{
					"inputs": [
						{
							"internalType": "uint256",
							"name": "tokenId",
							"type": "uint256"
						},
						{
							"internalType": "uint256",
							"name": "price",
							"type": "uint256"
						}
					],
					"name": "listItem",
					"outputs": [],
					"stateMutability": "nonpayable",
					"type": "function"
				},
				{
					"inputs": [],
					"name": "marketFeePer",
					"outputs": [
						{
							"internalType": "uint256",
							"name": "",
							"type": "uint256"
						}
					],
					"stateMutability": "view",
					"type": "function"
				},
				{
					"inputs": [],
					"name": "nftContract",
					"outputs": [
						{
							"internalType": "contract IERC721",
							"name": "",
							"type": "address"
						}
					],
					"stateMutability": "view",
					"type": "function"
				},
				{
					"inputs": [],
					"name": "owner",
					"outputs": [
						{
							"internalType": "address",
							"name": "",
							"type": "address"
						}
					],
					"stateMutability": "view",
					"type": "function"
				},
				{
					"inputs": [],
					"name": "paymentToken",
					"outputs": [
						{
							"internalType": "contract IERC20",
							"name": "",
							"type": "address"
						}
					],
					"stateMutability": "view",
					"type": "function"
				},
				{
					"inputs": [],
					"name": "renounceOwnership",
					"outputs": [],
					"stateMutability": "nonpayable",
					"type": "function"
				},
				{
					"inputs": [
						{
							"internalType": "uint256",
							"name": "newFee",
							"type": "uint256"
						}
					],
					"name": "setMarketPlaceFeePer",
					"outputs": [],
					"stateMutability": "nonpayable",
					"type": "function"
				},
				{
					"inputs": [
						{
							"internalType": "address",
							"name": "newOwner",
							"type": "address"
						}
					],
					"name": "transferOwnership",
					"outputs": [],
					"stateMutability": "nonpayable",
					"type": "function"
				},
				{
					"inputs": [
						{
							"internalType": "uint256",
							"name": "itemId",
							"type": "uint256"
						}
					],
					"name": "unlistItem",
					"outputs": [],
					"stateMutability": "nonpayable",
					"type": "function"
				},
				{
					"inputs": [
						{
							"internalType": "uint256",
							"name": "itemId",
							"type": "uint256"
						},
						{
							"internalType": "uint256",
							"name": "_listingPrice",
							"type": "uint256"
						}
					],
					"name": "updateListingPrice",
					"outputs": [],
					"stateMutability": "nonpayable",
					"type": "function"
				}
			],
			"devdoc": {
				"errors": {
					"OwnableInvalidOwner(address)": [
						{
							"details": "The owner is not a valid owner account. (eg. `address(0)`)"
						}
					],
					"OwnableUnauthorizedAccount(address)": [
						{
							"details": "The caller account is not authorized to perform an operation."
						}
					]
				},
				"kind": "dev",
				"methods": {
					"owner()": {
						"details": "Returns the address of the current owner."
					},
					"renounceOwnership()": {
						"details": "Leaves the contract without owner. It will not be possible to call `onlyOwner` functions. Can only be called by the current owner. NOTE: Renouncing ownership will leave the contract without an owner, thereby disabling any functionality that is only available to the owner."
					},
					"transferOwnership(address)": {
						"details": "Transfers ownership of the contract to a new account (`newOwner`). Can only be called by the current owner."
					}
				},
				"version": 1
			},
			"evm": {
				"assembly": "    /* \"contents/MarketPlace.sol\":371:5596  contract Marketplace is Ownable {... */\n  mstore(0x40, 0x80)\n    /* \"contents/MarketPlace.sol\":567:569  25 */\n  0x19\n    /* \"contents/MarketPlace.sol\":537:569  uint256 public marketFeePer = 25 */\n  0x03\n  sstore\n    /* \"contents/MarketPlace.sol\":1216:1394  constructor(address _nftContract, address _paymentToken) Ownable(msg.sender) {... */\n  callvalue\n  dup1\n  iszero\n  tag_1\n  jumpi\n  0x00\n  dup1\n  revert\ntag_1:\n  pop\n  mload(0x40)\n  sub(codesize, bytecodeSize)\n  dup1\n  bytecodeSize\n  dup4\n  codecopy\n  dup2\n  dup2\n  add\n  0x40\n  mstore\n  dup2\n  add\n  swap1\n  tag_2\n  swap2\n  swap1\n  tag_3\n  jump\t// in\ntag_2:\n    /* \"contents/MarketPlace.sol\":1281:1291  msg.sender */\n  caller\n    /* \"@openzeppelin/contracts/access/Ownable.sol\":1297:1298  0 */\n  0x00\n    /* \"@openzeppelin/contracts/access/Ownable.sol\":1273:1299  initialOwner == address(0) */\n  0xffffffffffffffffffffffffffffffffffffffff\n  and\n    /* \"@openzeppelin/contracts/access/Ownable.sol\":1273:1285  initialOwner */\n  dup2\n    /* \"@openzeppelin/contracts/access/Ownable.sol\":1273:1299  initialOwner == address(0) */\n  0xffffffffffffffffffffffffffffffffffffffff\n  and\n  sub\n    /* \"@openzeppelin/contracts/access/Ownable.sol\":1269:1364  if (initialOwner == address(0)) {... */\n  tag_7\n  jumpi\n    /* \"@openzeppelin/contracts/access/Ownable.sol\":1350:1351  0 */\n  0x00\n    /* \"@openzeppelin/contracts/access/Ownable.sol\":1322:1353  OwnableInvalidOwner(address(0)) */\n  mload(0x40)\n  0x1e4fbdf700000000000000000000000000000000000000000000000000000000\n  dup2\n  mstore\n  0x04\n  add\n  tag_8\n  swap2\n  swap1\n  tag_9\n  jump\t// in\ntag_8:\n  mload(0x40)\n  dup1\n  swap2\n  sub\n  swap1\n  revert\n    /* \"@openzeppelin/contracts/access/Ownable.sol\":1269:1364  if (initialOwner == address(0)) {... */\ntag_7:\n    /* \"@openzeppelin/contracts/access/Ownable.sol\":1373:1405  _transferOwnership(initialOwner) */\n  tag_10\n    /* \"@openzeppelin/contracts/access/Ownable.sol\":1392:1404  initialOwner */\n  dup2\n    /* \"@openzeppelin/contracts/access/Ownable.sol\":1373:1391  _transferOwnership */\n  shl(0x20, tag_11)\n    /* \"@openzeppelin/contracts/access/Ownable.sol\":1373:1405  _transferOwnership(initialOwner) */\n  0x20\n  shr\n  jump\t// in\ntag_10:\n    /* \"@openzeppelin/contracts/access/Ownable.sol\":1225:1412  constructor(address initialOwner) {... */\n  pop\n    /* \"contents/MarketPlace.sol\":1326:1338  _nftContract */\n  dup2\n    /* \"contents/MarketPlace.sol\":1304:1315  nftContract */\n  0x05\n  0x00\n    /* \"contents/MarketPlace.sol\":1304:1339  nftContract = IERC721(_nftContract) */\n  0x0100\n  exp\n  dup2\n  sload\n  dup2\n  0xffffffffffffffffffffffffffffffffffffffff\n  mul\n  not\n  and\n  swap1\n  dup4\n  0xffffffffffffffffffffffffffffffffffffffff\n  and\n  mul\n  or\n  swap1\n  sstore\n  pop\n    /* \"contents/MarketPlace.sol\":1372:1385  _paymentToken */\n  dup1\n    /* \"contents/MarketPlace.sol\":1350:1362  paymentToken */\n  0x04\n  0x00\n    /* \"contents/MarketPlace.sol\":1350:1386  paymentToken = IERC20(_paymentToken) */\n  0x0100\n  exp\n  dup2\n  sload\n  dup2\n  0xffffffffffffffffffffffffffffffffffffffff\n  mul\n  not\n  and\n  swap1\n  dup4\n  0xffffffffffffffffffffffffffffffffffffffff\n  and\n  mul\n  or\n  swap1\n  sstore\n  pop\n    /* \"contents/MarketPlace.sol\":1216:1394  constructor(address _nftContract, address _paymentToken) Ownable(msg.sender) {... */\n  pop\n  pop\n    /* \"contents/MarketPlace.sol\":371:5596  contract Marketplace is Ownable {... */\n  jump(tag_13)\n    /* \"@openzeppelin/contracts/access/Ownable.sol\":2912:3099  function _transferOwnership(address newOwner) internal virtual {... */\ntag_11:\n    /* \"@openzeppelin/contracts/access/Ownable.sol\":2985:3001  address oldOwner */\n  0x00\n    /* \"@openzeppelin/contracts/access/Ownable.sol\":3004:3010  _owner */\n  dup1\n  0x00\n  swap1\n  sload\n  swap1\n  0x0100\n  exp\n  swap1\n  div\n  0xffffffffffffffffffffffffffffffffffffffff\n  and\n    /* \"@openzeppelin/contracts/access/Ownable.sol\":2985:3010  address oldOwner = _owner */\n  swap1\n  pop\n    /* \"@openzeppelin/contracts/access/Ownable.sol\":3029:3037  newOwner */\n  dup2\n    /* \"@openzeppelin/contracts/access/Ownable.sol\":3020:3026  _owner */\n  0x00\n  dup1\n    /* \"@openzeppelin/contracts/access/Ownable.sol\":3020:3037  _owner = newOwner */\n  0x0100\n  exp\n  dup2\n  sload\n  dup2\n  0xffffffffffffffffffffffffffffffffffffffff\n  mul\n  not\n  and\n  swap1\n  dup4\n  0xffffffffffffffffffffffffffffffffffffffff\n  and\n  mul\n  or\n  swap1\n  sstore\n  pop\n    /* \"@openzeppelin/contracts/access/Ownable.sol\":3083:3091  newOwner */\n  dup2\n    /* \"@openzeppelin/contracts/access/Ownable.sol\":3052:3092  OwnershipTransferred(oldOwner, newOwner) */\n  0xffffffffffffffffffffffffffffffffffffffff\n  and\n    /* \"@openzeppelin/contracts/access/Ownable.sol\":3073:3081  oldOwner */\n  dup2\n    /* \"@openzeppelin/contracts/access/Ownable.sol\":3052:3092  OwnershipTransferred(oldOwner, newOwner) */\n  0xffffffffffffffffffffffffffffffffffffffff\n  and\n  0x8be0079c531659141344cd1fd0a4f28419497f9722a3daafe3b4186f6b6457e0\n  mload(0x40)\n  mload(0x40)\n  dup1\n  swap2\n  sub\n  swap1\n  log3\n    /* \"@openzeppelin/contracts/access/Ownable.sol\":2975:3099  {... */\n  pop\n    /* \"@openzeppelin/contracts/access/Ownable.sol\":2912:3099  function _transferOwnership(address newOwner) internal virtual {... */\n  pop\n  jump\t// out\n    /* \"#utility.yul\":88:205   */\ntag_16:\n    /* \"#utility.yul\":197:198   */\n  0x00\n    /* \"#utility.yul\":194:195   */\n  dup1\n    /* \"#utility.yul\":187:199   */\n  revert\n    /* \"#utility.yul\":334:460   */\ntag_18:\n    /* \"#utility.yul\":371:378   */\n  0x00\n    /* \"#utility.yul\":411:453   */\n  0xffffffffffffffffffffffffffffffffffffffff\n    /* \"#utility.yul\":404:409   */\n  dup3\n    /* \"#utility.yul\":400:454   */\n  and\n    /* \"#utility.yul\":389:454   */\n  swap1\n  pop\n    /* \"#utility.yul\":334:460   */\n  swap2\n  swap1\n  pop\n  jump\t// out\n    /* \"#utility.yul\":466:562   */\ntag_19:\n    /* \"#utility.yul\":503:510   */\n  0x00\n    /* \"#utility.yul\":532:556   */\n  tag_29\n    /* \"#utility.yul\":550:555   */\n  dup3\n    /* \"#utility.yul\":532:556   */\n  tag_18\n  jump\t// in\ntag_29:\n    /* \"#utility.yul\":521:556   */\n  swap1\n  pop\n    /* \"#utility.yul\":466:562   */\n  swap2\n  swap1\n  pop\n  jump\t// out\n    /* \"#utility.yul\":568:690   */\ntag_20:\n    /* \"#utility.yul\":641:665   */\n  tag_31\n    /* \"#utility.yul\":659:664   */\n  dup2\n    /* \"#utility.yul\":641:665   */\n  tag_19\n  jump\t// in\ntag_31:\n    /* \"#utility.yul\":634:639   */\n  dup2\n    /* \"#utility.yul\":631:666   */\n  eq\n    /* \"#utility.yul\":621:684   */\n  tag_32\n  jumpi\n    /* \"#utility.yul\":680:681   */\n  0x00\n    /* \"#utility.yul\":677:678   */\n  dup1\n    /* \"#utility.yul\":670:682   */\n  revert\n    /* \"#utility.yul\":621:684   */\ntag_32:\n    /* \"#utility.yul\":568:690   */\n  pop\n  jump\t// out\n    /* \"#utility.yul\":696:839   */\ntag_21:\n    /* \"#utility.yul\":753:758   */\n  0x00\n    /* \"#utility.yul\":784:790   */\n  dup2\n    /* \"#utility.yul\":778:791   */\n  mload\n    /* \"#utility.yul\":769:791   */\n  swap1\n  pop\n    /* \"#utility.yul\":800:833   */\n  tag_34\n    /* \"#utility.yul\":827:832   */\n  dup2\n    /* \"#utility.yul\":800:833   */\n  tag_20\n  jump\t// in\ntag_34:\n    /* \"#utility.yul\":696:839   */\n  swap3\n  swap2\n  pop\n  pop\n  jump\t// out\n    /* \"#utility.yul\":845:1352   */\ntag_3:\n    /* \"#utility.yul\":924:930   */\n  0x00\n    /* \"#utility.yul\":932:938   */\n  dup1\n    /* \"#utility.yul\":981:983   */\n  0x40\n    /* \"#utility.yul\":969:978   */\n  dup4\n    /* \"#utility.yul\":960:967   */\n  dup6\n    /* \"#utility.yul\":956:979   */\n  sub\n    /* \"#utility.yul\":952:984   */\n  slt\n    /* \"#utility.yul\":949:1068   */\n  iszero\n  tag_36\n  jumpi\n    /* \"#utility.yul\":987:1066   */\n  tag_37\n  tag_16\n  jump\t// in\ntag_37:\n    /* \"#utility.yul\":949:1068   */\ntag_36:\n    /* \"#utility.yul\":1107:1108   */\n  0x00\n    /* \"#utility.yul\":1132:1196   */\n  tag_38\n    /* \"#utility.yul\":1188:1195   */\n  dup6\n    /* \"#utility.yul\":1179:1185   */\n  dup3\n    /* \"#utility.yul\":1168:1177   */\n  dup7\n    /* \"#utility.yul\":1164:1186   */\n  add\n    /* \"#utility.yul\":1132:1196   */\n  tag_21\n  jump\t// in\ntag_38:\n    /* \"#utility.yul\":1122:1196   */\n  swap3\n  pop\n    /* \"#utility.yul\":1078:1206   */\n  pop\n    /* \"#utility.yul\":1245:1247   */\n  0x20\n    /* \"#utility.yul\":1271:1335   */\n  tag_39\n    /* \"#utility.yul\":1327:1334   */\n  dup6\n    /* \"#utility.yul\":1318:1324   */\n  dup3\n    /* \"#utility.yul\":1307:1316   */\n  dup7\n    /* \"#utility.yul\":1303:1325   */\n  add\n    /* \"#utility.yul\":1271:1335   */\n  tag_21\n  jump\t// in\ntag_39:\n    /* \"#utility.yul\":1261:1335   */\n  swap2\n  pop\n    /* \"#utility.yul\":1216:1345   */\n  pop\n    /* \"#utility.yul\":845:1352   */\n  swap3\n  pop\n  swap3\n  swap1\n  pop\n  jump\t// out\n    /* \"#utility.yul\":1358:1476   */\ntag_22:\n    /* \"#utility.yul\":1445:1469   */\n  tag_41\n    /* \"#utility.yul\":1463:1468   */\n  dup2\n    /* \"#utility.yul\":1445:1469   */\n  tag_19\n  jump\t// in\ntag_41:\n    /* \"#utility.yul\":1440:1443   */\n  dup3\n    /* \"#utility.yul\":1433:1470   */\n  mstore\n    /* \"#utility.yul\":1358:1476   */\n  pop\n  pop\n  jump\t// out\n    /* \"#utility.yul\":1482:1704   */\ntag_9:\n    /* \"#utility.yul\":1575:1579   */\n  0x00\n    /* \"#utility.yul\":1613:1615   */\n  0x20\n    /* \"#utility.yul\":1602:1611   */\n  dup3\n    /* \"#utility.yul\":1598:1616   */\n  add\n    /* \"#utility.yul\":1590:1616   */\n  swap1\n  pop\n    /* \"#utility.yul\":1626:1697   */\n  tag_43\n    /* \"#utility.yul\":1694:1695   */\n  0x00\n    /* \"#utility.yul\":1683:1692   */\n  dup4\n    /* \"#utility.yul\":1679:1696   */\n  add\n    /* \"#utility.yul\":1670:1676   */\n  dup5\n    /* \"#utility.yul\":1626:1697   */\n  tag_22\n  jump\t// in\ntag_43:\n    /* \"#utility.yul\":1482:1704   */\n  swap3\n  swap2\n  pop\n  pop\n  jump\t// out\n    /* \"contents/MarketPlace.sol\":371:5596  contract Marketplace is Ownable {... */\ntag_13:\n  dataSize(sub_0)\n  dup1\n  dataOffset(sub_0)\n  0x00\n  codecopy\n  0x00\n  return\nstop\n\nsub_0: assembly {\n        /* \"contents/MarketPlace.sol\":371:5596  contract Marketplace is Ownable {... */\n      mstore(0x40, 0x80)\n      jumpi(tag_1, lt(calldatasize, 0x04))\n      shr(0xe0, calldataload(0x00))\n      dup1\n      0x8da5cb5b\n      gt\n      tag_18\n      jumpi\n      dup1\n      0xd56d229d\n      gt\n      tag_19\n      jumpi\n      dup1\n      0xd56d229d\n      eq\n      tag_14\n      jumpi\n      dup1\n      0xe7fb74c7\n      eq\n      tag_15\n      jumpi\n      dup1\n      0xf2fde38b\n      eq\n      tag_16\n      jumpi\n      dup1\n      0xfcce4883\n      eq\n      tag_17\n      jumpi\n      jump(tag_1)\n    tag_19:\n      dup1\n      0x8da5cb5b\n      eq\n      tag_10\n      jumpi\n      dup1\n      0x9956f4ff\n      eq\n      tag_11\n      jumpi\n      dup1\n      0xbfb231d2\n      eq\n      tag_12\n      jumpi\n      dup1\n      0xc4604943\n      eq\n      tag_13\n      jumpi\n      jump(tag_1)\n    tag_18:\n      dup1\n      0x5478c91f\n      gt\n      tag_20\n      jumpi\n      dup1\n      0x5478c91f\n      eq\n      tag_6\n      jumpi\n      dup1\n      0x5a599da8\n      eq\n      tag_7\n      jumpi\n      dup1\n      0x715018a6\n      eq\n      tag_8\n      jumpi\n      dup1\n      0x883efa67\n      eq\n      tag_9\n      jumpi\n      jump(tag_1)\n    tag_20:\n      dup1\n      0x05507c4b\n      eq\n      tag_2\n      jumpi\n      dup1\n      0x114003ec\n      eq\n      tag_3\n      jumpi\n      dup1\n      0x3013ce29\n      eq\n      tag_4\n      jumpi\n      dup1\n      0x495fe564\n      eq\n      tag_5\n      jumpi\n    tag_1:\n      0x00\n      dup1\n      revert\n        /* \"contents/MarketPlace.sol\":537:569  uint256 public marketFeePer = 25 */\n    tag_2:\n      callvalue\n      dup1\n      iszero\n      tag_21\n      jumpi\n      0x00\n      dup1\n      revert\n    tag_21:\n      pop\n      tag_22\n      tag_23\n      jump\t// in\n    tag_22:\n      mload(0x40)\n      tag_24\n      swap2\n      swap1\n      tag_25\n      jump\t// in\n    tag_24:\n      mload(0x40)\n      dup1\n      swap2\n      sub\n      swap1\n      return\n        /* \"contents/MarketPlace.sol\":4563:5140  function fetchMyItemListed() public view returns(MarketItem[] memory) {... */\n    tag_3:\n      callvalue\n      dup1\n      iszero\n      tag_26\n      jumpi\n      0x00\n      dup1\n      revert\n    tag_26:\n      pop\n      tag_27\n      tag_28\n      jump\t// in\n    tag_27:\n      mload(0x40)\n      tag_29\n      swap2\n      swap1\n      tag_30\n      jump\t// in\n    tag_29:\n      mload(0x40)\n      dup1\n      swap2\n      sub\n      swap1\n      return\n        /* \"contents/MarketPlace.sol\":576:602  IERC20 public paymentToken */\n    tag_4:\n      callvalue\n      dup1\n      iszero\n      tag_31\n      jumpi\n      0x00\n      dup1\n      revert\n    tag_31:\n      pop\n      tag_32\n      tag_33\n      jump\t// in\n    tag_32:\n      mload(0x40)\n      tag_34\n      swap2\n      swap1\n      tag_35\n      jump\t// in\n    tag_34:\n      mload(0x40)\n      dup1\n      swap2\n      sub\n      swap1\n      return\n        /* \"contents/MarketPlace.sol\":3919:4555  function fetchMarketItemListed() public view returns(MarketItem[] memory) {... */\n    tag_5:\n      callvalue\n      dup1\n      iszero\n      tag_36\n      jumpi\n      0x00\n      dup1\n      revert\n    tag_36:\n      pop\n      tag_37\n      tag_38\n      jump\t// in\n    tag_37:\n      mload(0x40)\n      tag_39\n      swap2\n      swap1\n      tag_30\n      jump\t// in\n    tag_39:\n      mload(0x40)\n      dup1\n      swap2\n      sub\n      swap1\n      return\n        /* \"contents/MarketPlace.sol\":5488:5593  function setMarketPlaceFeePer(uint256 newFee) external onlyOwner {... */\n    tag_6:\n      callvalue\n      dup1\n      iszero\n      tag_40\n      jumpi\n      0x00\n      dup1\n      revert\n    tag_40:\n      pop\n      tag_41\n      0x04\n      dup1\n      calldatasize\n      sub\n      dup2\n      add\n      swap1\n      tag_42\n      swap2\n      swap1\n      tag_43\n      jump\t// in\n    tag_42:\n      tag_44\n      jump\t// in\n    tag_41:\n      stop\n        /* \"contents/MarketPlace.sol\":2216:2491  function unlistItem(uint256 itemId) public {... */\n    tag_7:\n      callvalue\n      dup1\n      iszero\n      tag_45\n      jumpi\n      0x00\n      dup1\n      revert\n    tag_45:\n      pop\n      tag_46\n      0x04\n      dup1\n      calldatasize\n      sub\n      dup2\n      add\n      swap1\n      tag_47\n      swap2\n      swap1\n      tag_43\n      jump\t// in\n    tag_47:\n      tag_48\n      jump\t// in\n    tag_46:\n      stop\n        /* \"@openzeppelin/contracts/access/Ownable.sol\":2293:2394  function renounceOwnership() public virtual onlyOwner {... */\n    tag_8:\n      callvalue\n      dup1\n      iszero\n      tag_49\n      jumpi\n      0x00\n      dup1\n      revert\n    tag_49:\n      pop\n      tag_50\n      tag_51\n      jump\t// in\n    tag_50:\n      stop\n        /* \"contents/MarketPlace.sol\":1402:2208  function listItem( uint256 tokenId, uint256 price) public {... */\n    tag_9:\n      callvalue\n      dup1\n      iszero\n      tag_52\n      jumpi\n      0x00\n      dup1\n      revert\n    tag_52:\n      pop\n      tag_53\n      0x04\n      dup1\n      calldatasize\n      sub\n      dup2\n      add\n      swap1\n      tag_54\n      swap2\n      swap1\n      tag_55\n      jump\t// in\n    tag_54:\n      tag_56\n      jump\t// in\n    tag_53:\n      stop\n        /* \"@openzeppelin/contracts/access/Ownable.sol\":1638:1723  function owner() public view virtual returns (address) {... */\n    tag_10:\n      callvalue\n      dup1\n      iszero\n      tag_57\n      jumpi\n      0x00\n      dup1\n      revert\n    tag_57:\n      pop\n      tag_58\n      tag_59\n      jump\t// in\n    tag_58:\n      mload(0x40)\n      tag_60\n      swap2\n      swap1\n      tag_61\n      jump\t// in\n    tag_60:\n      mload(0x40)\n      dup1\n      swap2\n      sub\n      swap1\n      return\n        /* \"contents/MarketPlace.sol\":3567:3911  function fetchMarketItemLog() public view returns(MarketItem[] memory) {... */\n    tag_11:\n      callvalue\n      dup1\n      iszero\n      tag_62\n      jumpi\n      0x00\n      dup1\n      revert\n    tag_62:\n      pop\n      tag_63\n      tag_64\n      jump\t// in\n    tag_63:\n      mload(0x40)\n      tag_65\n      swap2\n      swap1\n      tag_30\n      jump\t// in\n    tag_65:\n      mload(0x40)\n      dup1\n      swap2\n      sub\n      swap1\n      return\n        /* \"contents/MarketPlace.sol\":885:928  mapping(uint256 => MarketItem) public items */\n    tag_12:\n      callvalue\n      dup1\n      iszero\n      tag_66\n      jumpi\n      0x00\n      dup1\n      revert\n    tag_66:\n      pop\n      tag_67\n      0x04\n      dup1\n      calldatasize\n      sub\n      dup2\n      add\n      swap1\n      tag_68\n      swap2\n      swap1\n      tag_43\n      jump\t// in\n    tag_68:\n      tag_69\n      jump\t// in\n    tag_67:\n      mload(0x40)\n      tag_70\n      swap7\n      swap6\n      swap5\n      swap4\n      swap3\n      swap2\n      swap1\n      tag_71\n      jump\t// in\n    tag_70:\n      mload(0x40)\n      dup1\n      swap2\n      sub\n      swap1\n      return\n        /* \"contents/MarketPlace.sol\":5272:5480  function updateListingPrice(uint256 itemId, uint256 _listingPrice) public {... */\n    tag_13:\n      callvalue\n      dup1\n      iszero\n      tag_72\n      jumpi\n      0x00\n      dup1\n      revert\n    tag_72:\n      pop\n      tag_73\n      0x04\n      dup1\n      calldatasize\n      sub\n      dup2\n      add\n      swap1\n      tag_74\n      swap2\n      swap1\n      tag_55\n      jump\t// in\n    tag_74:\n      tag_75\n      jump\t// in\n    tag_73:\n      stop\n        /* \"contents/MarketPlace.sol\":609:635  IERC721 public nftContract */\n    tag_14:\n      callvalue\n      dup1\n      iszero\n      tag_76\n      jumpi\n      0x00\n      dup1\n      revert\n    tag_76:\n      pop\n      tag_77\n      tag_78\n      jump\t// in\n    tag_77:\n      mload(0x40)\n      tag_79\n      swap2\n      swap1\n      tag_80\n      jump\t// in\n    tag_79:\n      mload(0x40)\n      dup1\n      swap2\n      sub\n      swap1\n      return\n        /* \"contents/MarketPlace.sol\":2499:3559  function buyItem(uint256 itemId) public payable {... */\n    tag_15:\n      tag_81\n      0x04\n      dup1\n      calldatasize\n      sub\n      dup2\n      add\n      swap1\n      tag_82\n      swap2\n      swap1\n      tag_43\n      jump\t// in\n    tag_82:\n      tag_83\n      jump\t// in\n    tag_81:\n      stop\n        /* \"@openzeppelin/contracts/access/Ownable.sol\":2543:2758  function transferOwnership(address newOwner) public virtual onlyOwner {... */\n    tag_16:\n      callvalue\n      dup1\n      iszero\n      tag_84\n      jumpi\n      0x00\n      dup1\n      revert\n    tag_84:\n      pop\n      tag_85\n      0x04\n      dup1\n      calldatasize\n      sub\n      dup2\n      add\n      swap1\n      tag_86\n      swap2\n      swap1\n      tag_87\n      jump\t// in\n    tag_86:\n      tag_88\n      jump\t// in\n    tag_85:\n      stop\n        /* \"contents/MarketPlace.sol\":5148:5264  function isListed(uint256 tokenId) public view returns(bool) {... */\n    tag_17:\n      callvalue\n      dup1\n      iszero\n      tag_89\n      jumpi\n      0x00\n      dup1\n      revert\n    tag_89:\n      pop\n      tag_90\n      0x04\n      dup1\n      calldatasize\n      sub\n      dup2\n      add\n      swap1\n      tag_91\n      swap2\n      swap1\n      tag_43\n      jump\t// in\n    tag_91:\n      tag_92\n      jump\t// in\n    tag_90:\n      mload(0x40)\n      tag_93\n      swap2\n      swap1\n      tag_94\n      jump\t// in\n    tag_93:\n      mload(0x40)\n      dup1\n      swap2\n      sub\n      swap1\n      return\n        /* \"contents/MarketPlace.sol\":537:569  uint256 public marketFeePer = 25 */\n    tag_23:\n      sload(0x03)\n      dup2\n      jump\t// out\n        /* \"contents/MarketPlace.sol\":4563:5140  function fetchMyItemListed() public view returns(MarketItem[] memory) {... */\n    tag_28:\n        /* \"contents/MarketPlace.sol\":4612:4631  MarketItem[] memory */\n      0x60\n        /* \"contents/MarketPlace.sol\":4644:4663  uint totalItemCount */\n      0x00\n        /* \"contents/MarketPlace.sol\":4666:4684  _itemIds.current() */\n      tag_96\n        /* \"contents/MarketPlace.sol\":4666:4674  _itemIds */\n      0x01\n        /* \"contents/MarketPlace.sol\":4666:4682  _itemIds.current */\n      tag_97\n        /* \"contents/MarketPlace.sol\":4666:4684  _itemIds.current() */\n      jump\t// in\n    tag_96:\n        /* \"contents/MarketPlace.sol\":4644:4684  uint totalItemCount = _itemIds.current() */\n      swap1\n      pop\n        /* \"contents/MarketPlace.sol\":4695:4712  uint currentIndex */\n      0x00\n        /* \"contents/MarketPlace.sol\":4729:4756  MarketItem[] memory myItems */\n      dup1\n        /* \"contents/MarketPlace.sol\":4776:4790  totalItemCount */\n      dup3\n        /* \"contents/MarketPlace.sol\":4759:4791  new MarketItem[](totalItemCount) */\n      0xffffffffffffffff\n      dup2\n      gt\n      iszero\n      tag_98\n      jumpi\n      tag_99\n      tag_100\n      jump\t// in\n    tag_99:\n    tag_98:\n      mload(0x40)\n      swap1\n      dup1\n      dup3\n      mstore\n      dup1\n      0x20\n      mul\n      0x20\n      add\n      dup3\n      add\n      0x40\n      mstore\n      dup1\n      iszero\n      tag_101\n      jumpi\n      dup2\n      0x20\n      add\n    tag_102:\n      tag_103\n      tag_104\n      jump\t// in\n    tag_103:\n      dup2\n      mstore\n      0x20\n      add\n      swap1\n      0x01\n      swap1\n      sub\n      swap1\n      dup2\n      tag_102\n      jumpi\n      swap1\n      pop\n    tag_101:\n      pop\n        /* \"contents/MarketPlace.sol\":4729:4791  MarketItem[] memory myItems = new MarketItem[](totalItemCount) */\n      swap1\n      pop\n        /* \"contents/MarketPlace.sol\":4806:4812  uint i */\n      0x00\n        /* \"contents/MarketPlace.sol\":4815:4816  1 */\n      0x01\n        /* \"contents/MarketPlace.sol\":4806:4816  uint i = 1 */\n      swap1\n      pop\n        /* \"contents/MarketPlace.sol\":4802:5060  for(uint i = 1; i <= totalItemCount; i++) {... */\n    tag_105:\n        /* \"contents/MarketPlace.sol\":4823:4837  totalItemCount */\n      dup4\n        /* \"contents/MarketPlace.sol\":4818:4819  i */\n      dup2\n        /* \"contents/MarketPlace.sol\":4818:4837  i <= totalItemCount */\n      gt\n        /* \"contents/MarketPlace.sol\":4802:5060  for(uint i = 1; i <= totalItemCount; i++) {... */\n      tag_106\n      jumpi\n        /* \"contents/MarketPlace.sol\":4880:4890  msg.sender */\n      caller\n        /* \"contents/MarketPlace.sol\":4862:4890  items[i].owner == msg.sender */\n      0xffffffffffffffffffffffffffffffffffffffff\n      and\n        /* \"contents/MarketPlace.sol\":4862:4867  items */\n      0x07\n        /* \"contents/MarketPlace.sol\":4862:4870  items[i] */\n      0x00\n        /* \"contents/MarketPlace.sol\":4868:4869  i */\n      dup4\n        /* \"contents/MarketPlace.sol\":4862:4870  items[i] */\n      dup2\n      mstore\n      0x20\n      add\n      swap1\n      dup2\n      mstore\n      0x20\n      add\n      0x00\n      keccak256\n        /* \"contents/MarketPlace.sol\":4862:4876  items[i].owner */\n      0x02\n      add\n      0x00\n      swap1\n      sload\n      swap1\n      0x0100\n      exp\n      swap1\n      div\n      0xffffffffffffffffffffffffffffffffffffffff\n      and\n        /* \"contents/MarketPlace.sol\":4862:4890  items[i].owner == msg.sender */\n      0xffffffffffffffffffffffffffffffffffffffff\n      and\n      eq\n        /* \"contents/MarketPlace.sol\":4862:4916  items[i].owner == msg.sender && items[i].sold == false */\n      dup1\n      iszero\n      tag_108\n      jumpi\n      pop\n        /* \"contents/MarketPlace.sol\":4911:4916  false */\n      0x00\n        /* \"contents/MarketPlace.sol\":4894:4916  items[i].sold == false */\n      iszero\n      iszero\n        /* \"contents/MarketPlace.sol\":4894:4899  items */\n      0x07\n        /* \"contents/MarketPlace.sol\":4894:4902  items[i] */\n      0x00\n        /* \"contents/MarketPlace.sol\":4900:4901  i */\n      dup4\n        /* \"contents/MarketPlace.sol\":4894:4902  items[i] */\n      dup2\n      mstore\n      0x20\n      add\n      swap1\n      dup2\n      mstore\n      0x20\n      add\n      0x00\n      keccak256\n        /* \"contents/MarketPlace.sol\":4894:4907  items[i].sold */\n      0x04\n      add\n      0x00\n      swap1\n      sload\n      swap1\n      0x0100\n      exp\n      swap1\n      div\n      0xff\n      and\n        /* \"contents/MarketPlace.sol\":4894:4916  items[i].sold == false */\n      iszero\n      iszero\n      eq\n        /* \"contents/MarketPlace.sol\":4862:4916  items[i].owner == msg.sender && items[i].sold == false */\n    tag_108:\n        /* \"contents/MarketPlace.sol\":4862:4944  items[i].owner == msg.sender && items[i].sold == false && items[i].cancel == false */\n      dup1\n      iszero\n      tag_109\n      jumpi\n      pop\n        /* \"contents/MarketPlace.sol\":4939:4944  false */\n      0x00\n        /* \"contents/MarketPlace.sol\":4920:4944  items[i].cancel == false */\n      iszero\n      iszero\n        /* \"contents/MarketPlace.sol\":4920:4925  items */\n      0x07\n        /* \"contents/MarketPlace.sol\":4920:4928  items[i] */\n      0x00\n        /* \"contents/MarketPlace.sol\":4926:4927  i */\n      dup4\n        /* \"contents/MarketPlace.sol\":4920:4928  items[i] */\n      dup2\n      mstore\n      0x20\n      add\n      swap1\n      dup2\n      mstore\n      0x20\n      add\n      0x00\n      keccak256\n        /* \"contents/MarketPlace.sol\":4920:4935  items[i].cancel */\n      0x04\n      add\n      0x01\n      swap1\n      sload\n      swap1\n      0x0100\n      exp\n      swap1\n      div\n      0xff\n      and\n        /* \"contents/MarketPlace.sol\":4920:4944  items[i].cancel == false */\n      iszero\n      iszero\n      eq\n        /* \"contents/MarketPlace.sol\":4862:4944  items[i].owner == msg.sender && items[i].sold == false && items[i].cancel == false */\n    tag_109:\n        /* \"contents/MarketPlace.sol\":4859:5049  if(items[i].owner == msg.sender && items[i].sold == false && items[i].cancel == false) {... */\n      iszero\n      tag_110\n      jumpi\n        /* \"contents/MarketPlace.sol\":4989:4994  items */\n      0x07\n        /* \"contents/MarketPlace.sol\":4989:4997  items[i] */\n      0x00\n        /* \"contents/MarketPlace.sol\":4995:4996  i */\n      dup3\n        /* \"contents/MarketPlace.sol\":4989:4997  items[i] */\n      dup2\n      mstore\n      0x20\n      add\n      swap1\n      dup2\n      mstore\n      0x20\n      add\n      0x00\n      keccak256\n        /* \"contents/MarketPlace.sol\":4965:4997  myItems[currentIndex] = items[i] */\n      mload(0x40)\n      dup1\n      0xc0\n      add\n      0x40\n      mstore\n      swap1\n      dup2\n      0x00\n      dup3\n      add\n      sload\n      dup2\n      mstore\n      0x20\n      add\n      0x01\n      dup3\n      add\n      sload\n      dup2\n      mstore\n      0x20\n      add\n      0x02\n      dup3\n      add\n      0x00\n      swap1\n      sload\n      swap1\n      0x0100\n      exp\n      swap1\n      div\n      0xffffffffffffffffffffffffffffffffffffffff\n      and\n      0xffffffffffffffffffffffffffffffffffffffff\n      and\n      0xffffffffffffffffffffffffffffffffffffffff\n      and\n      dup2\n      mstore\n      0x20\n      add\n      0x03\n      dup3\n      add\n      sload\n      dup2\n      mstore\n      0x20\n      add\n      0x04\n      dup3\n      add\n      0x00\n      swap1\n      sload\n      swap1\n      0x0100\n      exp\n      swap1\n      div\n      0xff\n      and\n      iszero\n      iszero\n      iszero\n      iszero\n      dup2\n      mstore\n      0x20\n      add\n      0x04\n      dup3\n      add\n      0x01\n      swap1\n      sload\n      swap1\n      0x0100\n      exp\n      swap1\n      div\n      0xff\n      and\n      iszero\n      iszero\n      iszero\n      iszero\n      dup2\n      mstore\n      pop\n      pop\n        /* \"contents/MarketPlace.sol\":4965:4972  myItems */\n      dup3\n        /* \"contents/MarketPlace.sol\":4973:4985  currentIndex */\n      dup5\n        /* \"contents/MarketPlace.sol\":4965:4986  myItems[currentIndex] */\n      dup2\n      mload\n      dup2\n      lt\n      tag_111\n      jumpi\n      tag_112\n      tag_113\n      jump\t// in\n    tag_112:\n    tag_111:\n      0x20\n      mul\n      0x20\n      add\n      add\n        /* \"contents/MarketPlace.sol\":4965:4997  myItems[currentIndex] = items[i] */\n      dup2\n      swap1\n      mstore\n      pop\n        /* \"contents/MarketPlace.sol\":5032:5033  1 */\n      0x01\n        /* \"contents/MarketPlace.sol\":5016:5033  currentIndex += 1 */\n      dup4\n      tag_114\n      swap2\n      swap1\n      tag_115\n      jump\t// in\n    tag_114:\n      swap3\n      pop\n        /* \"contents/MarketPlace.sol\":4859:5049  if(items[i].owner == msg.sender && items[i].sold == false && items[i].cancel == false) {... */\n    tag_110:\n        /* \"contents/MarketPlace.sol\":4839:4842  i++ */\n      dup1\n      dup1\n      tag_116\n      swap1\n      tag_117\n      jump\t// in\n    tag_116:\n      swap2\n      pop\n      pop\n        /* \"contents/MarketPlace.sol\":4802:5060  for(uint i = 1; i <= totalItemCount; i++) {... */\n      jump(tag_105)\n    tag_106:\n      pop\n        /* \"contents/MarketPlace.sol\":5094:5106  currentIndex */\n      dup2\n        /* \"contents/MarketPlace.sol\":5086:5093  myItems */\n      dup2\n        /* \"contents/MarketPlace.sol\":5079:5107  mstore(myItems,currentIndex) */\n      mstore\n        /* \"contents/MarketPlace.sol\":5125:5132  myItems */\n      dup1\n        /* \"contents/MarketPlace.sol\":5118:5132  return myItems */\n      swap4\n      pop\n      pop\n      pop\n      pop\n        /* \"contents/MarketPlace.sol\":4563:5140  function fetchMyItemListed() public view returns(MarketItem[] memory) {... */\n      swap1\n      jump\t// out\n        /* \"contents/MarketPlace.sol\":576:602  IERC20 public paymentToken */\n    tag_33:\n      0x04\n      0x00\n      swap1\n      sload\n      swap1\n      0x0100\n      exp\n      swap1\n      div\n      0xffffffffffffffffffffffffffffffffffffffff\n      and\n      dup2\n      jump\t// out\n        /* \"contents/MarketPlace.sol\":3919:4555  function fetchMarketItemListed() public view returns(MarketItem[] memory) {... */\n    tag_38:\n        /* \"contents/MarketPlace.sol\":3972:3991  MarketItem[] memory */\n      0x60\n        /* \"contents/MarketPlace.sol\":4004:4023  uint totalItemCount */\n      0x00\n        /* \"contents/MarketPlace.sol\":4026:4044  _itemIds.current() */\n      tag_119\n        /* \"contents/MarketPlace.sol\":4026:4034  _itemIds */\n      0x01\n        /* \"contents/MarketPlace.sol\":4026:4042  _itemIds.current */\n      tag_97\n        /* \"contents/MarketPlace.sol\":4026:4044  _itemIds.current() */\n      jump\t// in\n    tag_119:\n        /* \"contents/MarketPlace.sol\":4004:4044  uint totalItemCount = _itemIds.current() */\n      swap1\n      pop\n        /* \"contents/MarketPlace.sol\":4055:4075  uint unsoldItemCount */\n      0x00\n        /* \"contents/MarketPlace.sol\":4095:4115  _itemsSold.current() */\n      tag_120\n        /* \"contents/MarketPlace.sol\":4095:4105  _itemsSold */\n      0x02\n        /* \"contents/MarketPlace.sol\":4095:4113  _itemsSold.current */\n      tag_97\n        /* \"contents/MarketPlace.sol\":4095:4115  _itemsSold.current() */\n      jump\t// in\n    tag_120:\n        /* \"contents/MarketPlace.sol\":4078:4092  totalItemCount */\n      dup3\n        /* \"contents/MarketPlace.sol\":4078:4115  totalItemCount - _itemsSold.current() */\n      tag_121\n      swap2\n      swap1\n      tag_122\n      jump\t// in\n    tag_121:\n        /* \"contents/MarketPlace.sol\":4055:4115  uint unsoldItemCount = totalItemCount - _itemsSold.current() */\n      swap1\n      pop\n        /* \"contents/MarketPlace.sol\":4126:4143  uint currentIndex */\n      0x00\n        /* \"contents/MarketPlace.sol\":4160:4191  MarketItem[] memory marketItems */\n      dup1\n        /* \"contents/MarketPlace.sol\":4211:4226  unsoldItemCount */\n      dup3\n        /* \"contents/MarketPlace.sol\":4194:4227  new MarketItem[](unsoldItemCount) */\n      0xffffffffffffffff\n      dup2\n      gt\n      iszero\n      tag_123\n      jumpi\n      tag_124\n      tag_100\n      jump\t// in\n    tag_124:\n    tag_123:\n      mload(0x40)\n      swap1\n      dup1\n      dup3\n      mstore\n      dup1\n      0x20\n      mul\n      0x20\n      add\n      dup3\n      add\n      0x40\n      mstore\n      dup1\n      iszero\n      tag_125\n      jumpi\n      dup2\n      0x20\n      add\n    tag_126:\n      tag_127\n      tag_104\n      jump\t// in\n    tag_127:\n      dup2\n      mstore\n      0x20\n      add\n      swap1\n      0x01\n      swap1\n      sub\n      swap1\n      dup2\n      tag_126\n      jumpi\n      swap1\n      pop\n    tag_125:\n      pop\n        /* \"contents/MarketPlace.sol\":4160:4227  MarketItem[] memory marketItems = new MarketItem[](unsoldItemCount) */\n      swap1\n      pop\n        /* \"contents/MarketPlace.sol\":4242:4248  uint i */\n      0x00\n        /* \"contents/MarketPlace.sol\":4251:4252  1 */\n      0x01\n        /* \"contents/MarketPlace.sol\":4242:4252  uint i = 1 */\n      swap1\n      pop\n        /* \"contents/MarketPlace.sol\":4238:4466  for(uint i = 1; i <= totalItemCount; i++){... */\n    tag_128:\n        /* \"contents/MarketPlace.sol\":4259:4273  totalItemCount */\n      dup5\n        /* \"contents/MarketPlace.sol\":4254:4255  i */\n      dup2\n        /* \"contents/MarketPlace.sol\":4254:4273  i <= totalItemCount */\n      gt\n        /* \"contents/MarketPlace.sol\":4238:4466  for(uint i = 1; i <= totalItemCount; i++){... */\n      tag_129\n      jumpi\n        /* \"contents/MarketPlace.sol\":4314:4319  false */\n      0x00\n        /* \"contents/MarketPlace.sol\":4297:4319  items[i].sold == false */\n      iszero\n      iszero\n        /* \"contents/MarketPlace.sol\":4297:4302  items */\n      0x07\n        /* \"contents/MarketPlace.sol\":4297:4305  items[i] */\n      0x00\n        /* \"contents/MarketPlace.sol\":4303:4304  i */\n      dup4\n        /* \"contents/MarketPlace.sol\":4297:4305  items[i] */\n      dup2\n      mstore\n      0x20\n      add\n      swap1\n      dup2\n      mstore\n      0x20\n      add\n      0x00\n      keccak256\n        /* \"contents/MarketPlace.sol\":4297:4310  items[i].sold */\n      0x04\n      add\n      0x00\n      swap1\n      sload\n      swap1\n      0x0100\n      exp\n      swap1\n      div\n      0xff\n      and\n        /* \"contents/MarketPlace.sol\":4297:4319  items[i].sold == false */\n      iszero\n      iszero\n      eq\n        /* \"contents/MarketPlace.sol\":4297:4347  items[i].sold == false && items[i].cancel == false */\n      dup1\n      iszero\n      tag_131\n      jumpi\n      pop\n        /* \"contents/MarketPlace.sol\":4342:4347  false */\n      0x00\n        /* \"contents/MarketPlace.sol\":4323:4347  items[i].cancel == false */\n      iszero\n      iszero\n        /* \"contents/MarketPlace.sol\":4323:4328  items */\n      0x07\n        /* \"contents/MarketPlace.sol\":4323:4331  items[i] */\n      0x00\n        /* \"contents/MarketPlace.sol\":4329:4330  i */\n      dup4\n        /* \"contents/MarketPlace.sol\":4323:4331  items[i] */\n      dup2\n      mstore\n      0x20\n      add\n      swap1\n      dup2\n      mstore\n      0x20\n      add\n      0x00\n      keccak256\n        /* \"contents/MarketPlace.sol\":4323:4338  items[i].cancel */\n      0x04\n      add\n      0x01\n      swap1\n      sload\n      swap1\n      0x0100\n      exp\n      swap1\n      div\n      0xff\n      and\n        /* \"contents/MarketPlace.sol\":4323:4347  items[i].cancel == false */\n      iszero\n      iszero\n      eq\n        /* \"contents/MarketPlace.sol\":4297:4347  items[i].sold == false && items[i].cancel == false */\n    tag_131:\n        /* \"contents/MarketPlace.sol\":4294:4455  if(items[i].sold == false && items[i].cancel == false){... */\n      iszero\n      tag_132\n      jumpi\n        /* \"contents/MarketPlace.sol\":4395:4400  items */\n      0x07\n        /* \"contents/MarketPlace.sol\":4395:4403  items[i] */\n      0x00\n        /* \"contents/MarketPlace.sol\":4401:4402  i */\n      dup3\n        /* \"contents/MarketPlace.sol\":4395:4403  items[i] */\n      dup2\n      mstore\n      0x20\n      add\n      swap1\n      dup2\n      mstore\n      0x20\n      add\n      0x00\n      keccak256\n        /* \"contents/MarketPlace.sol\":4367:4403  marketItems[currentIndex] = items[i] */\n      mload(0x40)\n      dup1\n      0xc0\n      add\n      0x40\n      mstore\n      swap1\n      dup2\n      0x00\n      dup3\n      add\n      sload\n      dup2\n      mstore\n      0x20\n      add\n      0x01\n      dup3\n      add\n      sload\n      dup2\n      mstore\n      0x20\n      add\n      0x02\n      dup3\n      add\n      0x00\n      swap1\n      sload\n      swap1\n      0x0100\n      exp\n      swap1\n      div\n      0xffffffffffffffffffffffffffffffffffffffff\n      and\n      0xffffffffffffffffffffffffffffffffffffffff\n      and\n      0xffffffffffffffffffffffffffffffffffffffff\n      and\n      dup2\n      mstore\n      0x20\n      add\n      0x03\n      dup3\n      add\n      sload\n      dup2\n      mstore\n      0x20\n      add\n      0x04\n      dup3\n      add\n      0x00\n      swap1\n      sload\n      swap1\n      0x0100\n      exp\n      swap1\n      div\n      0xff\n      and\n      iszero\n      iszero\n      iszero\n      iszero\n      dup2\n      mstore\n      0x20\n      add\n      0x04\n      dup3\n      add\n      0x01\n      swap1\n      sload\n      swap1\n      0x0100\n      exp\n      swap1\n      div\n      0xff\n      and\n      iszero\n      iszero\n      iszero\n      iszero\n      dup2\n      mstore\n      pop\n      pop\n        /* \"contents/MarketPlace.sol\":4367:4378  marketItems */\n      dup3\n        /* \"contents/MarketPlace.sol\":4379:4391  currentIndex */\n      dup5\n        /* \"contents/MarketPlace.sol\":4367:4392  marketItems[currentIndex] */\n      dup2\n      mload\n      dup2\n      lt\n      tag_133\n      jumpi\n      tag_134\n      tag_113\n      jump\t// in\n    tag_134:\n    tag_133:\n      0x20\n      mul\n      0x20\n      add\n      add\n        /* \"contents/MarketPlace.sol\":4367:4403  marketItems[currentIndex] = items[i] */\n      dup2\n      swap1\n      mstore\n      pop\n        /* \"contents/MarketPlace.sol\":4438:4439  1 */\n      0x01\n        /* \"contents/MarketPlace.sol\":4422:4439  currentIndex += 1 */\n      dup4\n      tag_135\n      swap2\n      swap1\n      tag_115\n      jump\t// in\n    tag_135:\n      swap3\n      pop\n        /* \"contents/MarketPlace.sol\":4294:4455  if(items[i].sold == false && items[i].cancel == false){... */\n    tag_132:\n        /* \"contents/MarketPlace.sol\":4275:4278  i++ */\n      dup1\n      dup1\n      tag_136\n      swap1\n      tag_117\n      jump\t// in\n    tag_136:\n      swap2\n      pop\n      pop\n        /* \"contents/MarketPlace.sol\":4238:4466  for(uint i = 1; i <= totalItemCount; i++){... */\n      jump(tag_128)\n    tag_129:\n      pop\n        /* \"contents/MarketPlace.sol\":4505:4517  currentIndex */\n      dup2\n        /* \"contents/MarketPlace.sol\":4492:4503  marketItems */\n      dup2\n        /* \"contents/MarketPlace.sol\":4485:4518  mstore(marketItems, currentIndex) */\n      mstore\n        /* \"contents/MarketPlace.sol\":4536:4547  marketItems */\n      dup1\n        /* \"contents/MarketPlace.sol\":4529:4547  return marketItems */\n      swap5\n      pop\n      pop\n      pop\n      pop\n      pop\n        /* \"contents/MarketPlace.sol\":3919:4555  function fetchMarketItemListed() public view returns(MarketItem[] memory) {... */\n      swap1\n      jump\t// out\n        /* \"contents/MarketPlace.sol\":5488:5593  function setMarketPlaceFeePer(uint256 newFee) external onlyOwner {... */\n    tag_44:\n        /* \"@openzeppelin/contracts/access/Ownable.sol\":1531:1544  _checkOwner() */\n      tag_138\n        /* \"@openzeppelin/contracts/access/Ownable.sol\":1531:1542  _checkOwner */\n      tag_139\n        /* \"@openzeppelin/contracts/access/Ownable.sol\":1531:1544  _checkOwner() */\n      jump\t// in\n    tag_138:\n        /* \"contents/MarketPlace.sol\":5579:5585  newFee */\n      dup1\n        /* \"contents/MarketPlace.sol\":5564:5576  marketFeePer */\n      0x03\n        /* \"contents/MarketPlace.sol\":5564:5585  marketFeePer = newFee */\n      dup2\n      swap1\n      sstore\n      pop\n        /* \"contents/MarketPlace.sol\":5488:5593  function setMarketPlaceFeePer(uint256 newFee) external onlyOwner {... */\n      pop\n      jump\t// out\n        /* \"contents/MarketPlace.sol\":2216:2491  function unlistItem(uint256 itemId) public {... */\n    tag_48:\n        /* \"contents/MarketPlace.sol\":2270:2293  MarketItem storage item */\n      0x00\n        /* \"contents/MarketPlace.sol\":2296:2301  items */\n      0x07\n        /* \"contents/MarketPlace.sol\":2296:2309  items[itemId] */\n      0x00\n        /* \"contents/MarketPlace.sol\":2302:2308  itemId */\n      dup4\n        /* \"contents/MarketPlace.sol\":2296:2309  items[itemId] */\n      dup2\n      mstore\n      0x20\n      add\n      swap1\n      dup2\n      mstore\n      0x20\n      add\n      0x00\n      keccak256\n        /* \"contents/MarketPlace.sol\":2270:2309  MarketItem storage item = items[itemId] */\n      swap1\n      pop\n        /* \"contents/MarketPlace.sol\":2342:2352  msg.sender */\n      caller\n        /* \"contents/MarketPlace.sol\":2328:2352  item.owner == msg.sender */\n      0xffffffffffffffffffffffffffffffffffffffff\n      and\n        /* \"contents/MarketPlace.sol\":2328:2332  item */\n      dup2\n        /* \"contents/MarketPlace.sol\":2328:2338  item.owner */\n      0x02\n      add\n      0x00\n      swap1\n      sload\n      swap1\n      0x0100\n      exp\n      swap1\n      div\n      0xffffffffffffffffffffffffffffffffffffffff\n      and\n        /* \"contents/MarketPlace.sol\":2328:2352  item.owner == msg.sender */\n      0xffffffffffffffffffffffffffffffffffffffff\n      and\n      eq\n        /* \"contents/MarketPlace.sol\":2320:2378  require(item.owner == msg.sender, \"You are not the owner\") */\n      tag_142\n      jumpi\n      mload(0x40)\n      0x08c379a000000000000000000000000000000000000000000000000000000000\n      dup2\n      mstore\n      0x04\n      add\n      tag_143\n      swap1\n      tag_144\n      jump\t// in\n    tag_143:\n      mload(0x40)\n      dup1\n      swap2\n      sub\n      swap1\n      revert\n    tag_142:\n        /* \"contents/MarketPlace.sol\":2403:2407  true */\n      0x01\n        /* \"contents/MarketPlace.sol\":2389:2393  item */\n      dup2\n        /* \"contents/MarketPlace.sol\":2389:2400  item.cancel */\n      0x04\n      add\n      0x01\n        /* \"contents/MarketPlace.sol\":2389:2407  item.cancel = true */\n      0x0100\n      exp\n      dup2\n      sload\n      dup2\n      0xff\n      mul\n      not\n      and\n      swap1\n      dup4\n      iszero\n      iszero\n      mul\n      or\n      swap1\n      sstore\n      pop\n        /* \"contents/MarketPlace.sol\":2425:2483  ItemDelisted(itemId, item.tokenId, msg.sender, item.price) */\n      0xf3081024f71f191a4fde516997e5f5829f7d9a1621da3c05afe71a223e425c67\n        /* \"contents/MarketPlace.sol\":2438:2444  itemId */\n      dup3\n        /* \"contents/MarketPlace.sol\":2446:2450  item */\n      dup3\n        /* \"contents/MarketPlace.sol\":2446:2458  item.tokenId */\n      0x01\n      add\n      sload\n        /* \"contents/MarketPlace.sol\":2460:2470  msg.sender */\n      caller\n        /* \"contents/MarketPlace.sol\":2472:2476  item */\n      dup5\n        /* \"contents/MarketPlace.sol\":2472:2482  item.price */\n      0x03\n      add\n      sload\n        /* \"contents/MarketPlace.sol\":2425:2483  ItemDelisted(itemId, item.tokenId, msg.sender, item.price) */\n      mload(0x40)\n      tag_145\n      swap5\n      swap4\n      swap3\n      swap2\n      swap1\n      tag_146\n      jump\t// in\n    tag_145:\n      mload(0x40)\n      dup1\n      swap2\n      sub\n      swap1\n      log1\n        /* \"contents/MarketPlace.sol\":2259:2491  {... */\n      pop\n        /* \"contents/MarketPlace.sol\":2216:2491  function unlistItem(uint256 itemId) public {... */\n      pop\n      jump\t// out\n        /* \"@openzeppelin/contracts/access/Ownable.sol\":2293:2394  function renounceOwnership() public virtual onlyOwner {... */\n    tag_51:\n        /* \"@openzeppelin/contracts/access/Ownable.sol\":1531:1544  _checkOwner() */\n      tag_148\n        /* \"@openzeppelin/contracts/access/Ownable.sol\":1531:1542  _checkOwner */\n      tag_139\n        /* \"@openzeppelin/contracts/access/Ownable.sol\":1531:1544  _checkOwner() */\n      jump\t// in\n    tag_148:\n        /* \"@openzeppelin/contracts/access/Ownable.sol\":2357:2387  _transferOwnership(address(0)) */\n      tag_150\n        /* \"@openzeppelin/contracts/access/Ownable.sol\":2384:2385  0 */\n      0x00\n        /* \"@openzeppelin/contracts/access/Ownable.sol\":2357:2375  _transferOwnership */\n      tag_151\n        /* \"@openzeppelin/contracts/access/Ownable.sol\":2357:2387  _transferOwnership(address(0)) */\n      jump\t// in\n    tag_150:\n        /* \"@openzeppelin/contracts/access/Ownable.sol\":2293:2394  function renounceOwnership() public virtual onlyOwner {... */\n      jump\t// out\n        /* \"contents/MarketPlace.sol\":1402:2208  function listItem( uint256 tokenId, uint256 price) public {... */\n    tag_56:\n        /* \"contents/MarketPlace.sol\":1487:1488  0 */\n      0x00\n        /* \"contents/MarketPlace.sol\":1479:1484  price */\n      dup2\n        /* \"contents/MarketPlace.sol\":1479:1488  price > 0 */\n      gt\n        /* \"contents/MarketPlace.sol\":1471:1521  require(price > 0, \"Price must be at least 1 wei\") */\n      tag_153\n      jumpi\n      mload(0x40)\n      0x08c379a000000000000000000000000000000000000000000000000000000000\n      dup2\n      mstore\n      0x04\n      add\n      tag_154\n      swap1\n      tag_155\n      jump\t// in\n    tag_154:\n      mload(0x40)\n      dup1\n      swap2\n      sub\n      swap1\n      revert\n    tag_153:\n        /* \"contents/MarketPlace.sol\":1534:1554  _itemIds.increment() */\n      tag_156\n        /* \"contents/MarketPlace.sol\":1534:1542  _itemIds */\n      0x01\n        /* \"contents/MarketPlace.sol\":1534:1552  _itemIds.increment */\n      tag_157\n        /* \"contents/MarketPlace.sol\":1534:1554  _itemIds.increment() */\n      jump\t// in\n    tag_156:\n        /* \"contents/MarketPlace.sol\":1565:1579  uint256 itemId */\n      0x00\n        /* \"contents/MarketPlace.sol\":1582:1600  _itemIds.current() */\n      tag_158\n        /* \"contents/MarketPlace.sol\":1582:1590  _itemIds */\n      0x01\n        /* \"contents/MarketPlace.sol\":1582:1598  _itemIds.current */\n      tag_97\n        /* \"contents/MarketPlace.sol\":1582:1600  _itemIds.current() */\n      jump\t// in\n    tag_158:\n        /* \"contents/MarketPlace.sol\":1565:1600  uint256 itemId = _itemIds.current() */\n      swap1\n      pop\n        /* \"contents/MarketPlace.sol\":1661:1671  msg.sender */\n      caller\n        /* \"contents/MarketPlace.sol\":1629:1671  nftContract.ownerOf(tokenId) == msg.sender */\n      0xffffffffffffffffffffffffffffffffffffffff\n      and\n        /* \"contents/MarketPlace.sol\":1629:1640  nftContract */\n      0x05\n      0x00\n      swap1\n      sload\n      swap1\n      0x0100\n      exp\n      swap1\n      div\n      0xffffffffffffffffffffffffffffffffffffffff\n      and\n        /* \"contents/MarketPlace.sol\":1629:1648  nftContract.ownerOf */\n      0xffffffffffffffffffffffffffffffffffffffff\n      and\n      0x6352211e\n        /* \"contents/MarketPlace.sol\":1649:1656  tokenId */\n      dup6\n        /* \"contents/MarketPlace.sol\":1629:1657  nftContract.ownerOf(tokenId) */\n      mload(0x40)\n      dup3\n      0xffffffff\n      and\n      0xe0\n      shl\n      dup2\n      mstore\n      0x04\n      add\n      tag_159\n      swap2\n      swap1\n      tag_25\n      jump\t// in\n    tag_159:\n      0x20\n      mload(0x40)\n      dup1\n      dup4\n      sub\n      dup2\n      dup7\n      gas\n      staticcall\n      iszero\n      dup1\n      iszero\n      tag_161\n      jumpi\n      returndatasize\n      0x00\n      dup1\n      returndatacopy\n      revert(0x00, returndatasize)\n    tag_161:\n      pop\n      pop\n      pop\n      pop\n      mload(0x40)\n      returndatasize\n      not(0x1f)\n      0x1f\n      dup3\n      add\n      and\n      dup3\n      add\n      dup1\n      0x40\n      mstore\n      pop\n      dup2\n      add\n      swap1\n      tag_162\n      swap2\n      swap1\n      tag_163\n      jump\t// in\n    tag_162:\n        /* \"contents/MarketPlace.sol\":1629:1671  nftContract.ownerOf(tokenId) == msg.sender */\n      0xffffffffffffffffffffffffffffffffffffffff\n      and\n      eq\n        /* \"contents/MarketPlace.sol\":1621:1697  require(nftContract.ownerOf(tokenId) == msg.sender, \"You are not the owner\") */\n      tag_164\n      jumpi\n      mload(0x40)\n      0x08c379a000000000000000000000000000000000000000000000000000000000\n      dup2\n      mstore\n      0x04\n      add\n      tag_165\n      swap1\n      tag_144\n      jump\t// in\n    tag_165:\n      mload(0x40)\n      dup1\n      swap2\n      sub\n      swap1\n      revert\n    tag_164:\n        /* \"contents/MarketPlace.sol\":1716:1727  nftContract */\n      0x05\n      0x00\n      swap1\n      sload\n      swap1\n      0x0100\n      exp\n      swap1\n      div\n      0xffffffffffffffffffffffffffffffffffffffff\n      and\n        /* \"contents/MarketPlace.sol\":1716:1744  nftContract.isApprovedForAll */\n      0xffffffffffffffffffffffffffffffffffffffff\n      and\n      0xe985e9c5\n        /* \"contents/MarketPlace.sol\":1745:1755  msg.sender */\n      caller\n        /* \"contents/MarketPlace.sol\":1765:1769  this */\n      address\n        /* \"contents/MarketPlace.sol\":1716:1771  nftContract.isApprovedForAll(msg.sender, address(this)) */\n      mload(0x40)\n      dup4\n      0xffffffff\n      and\n      0xe0\n      shl\n      dup2\n      mstore\n      0x04\n      add\n      tag_166\n      swap3\n      swap2\n      swap1\n      tag_167\n      jump\t// in\n    tag_166:\n      0x20\n      mload(0x40)\n      dup1\n      dup4\n      sub\n      dup2\n      dup7\n      gas\n      staticcall\n      iszero\n      dup1\n      iszero\n      tag_169\n      jumpi\n      returndatasize\n      0x00\n      dup1\n      returndatacopy\n      revert(0x00, returndatasize)\n    tag_169:\n      pop\n      pop\n      pop\n      pop\n      mload(0x40)\n      returndatasize\n      not(0x1f)\n      0x1f\n      dup3\n      add\n      and\n      dup3\n      add\n      dup1\n      0x40\n      mstore\n      pop\n      dup2\n      add\n      swap1\n      tag_170\n      swap2\n      swap1\n      tag_171\n      jump\t// in\n    tag_170:\n        /* \"contents/MarketPlace.sol\":1708:1800  require(nftContract.isApprovedForAll(msg.sender, address(this)), \"Marketplace not approved\") */\n      tag_172\n      jumpi\n      mload(0x40)\n      0x08c379a000000000000000000000000000000000000000000000000000000000\n      dup2\n      mstore\n      0x04\n      add\n      tag_173\n      swap1\n      tag_174\n      jump\t// in\n    tag_173:\n      mload(0x40)\n      dup1\n      swap2\n      sub\n      swap1\n      revert\n    tag_172:\n        /* \"contents/MarketPlace.sol\":1813:1824  nftContract */\n      0x05\n      0x00\n      swap1\n      sload\n      swap1\n      0x0100\n      exp\n      swap1\n      div\n      0xffffffffffffffffffffffffffffffffffffffff\n      and\n        /* \"contents/MarketPlace.sol\":1813:1832  nftContract.approve */\n      0xffffffffffffffffffffffffffffffffffffffff\n      and\n      0x095ea7b3\n        /* \"contents/MarketPlace.sol\":1841:1845  this */\n      address\n        /* \"contents/MarketPlace.sol\":1848:1855  tokenId */\n      dup6\n        /* \"contents/MarketPlace.sol\":1813:1856  nftContract.approve(address(this), tokenId) */\n      mload(0x40)\n      dup4\n      0xffffffff\n      and\n      0xe0\n      shl\n      dup2\n      mstore\n      0x04\n      add\n      tag_175\n      swap3\n      swap2\n      swap1\n      tag_176\n      jump\t// in\n    tag_175:\n      0x00\n      mload(0x40)\n      dup1\n      dup4\n      sub\n      dup2\n      0x00\n      dup8\n      dup1\n      extcodesize\n      iszero\n      dup1\n      iszero\n      tag_177\n      jumpi\n      0x00\n      dup1\n      revert\n    tag_177:\n      pop\n      gas\n      call\n      iszero\n      dup1\n      iszero\n      tag_179\n      jumpi\n      returndatasize\n      0x00\n      dup1\n      returndatacopy\n      revert(0x00, returndatasize)\n    tag_179:\n      pop\n      pop\n      pop\n      pop\n        /* \"contents/MarketPlace.sol\":1885:2090  MarketItem({... */\n      mload(0x40)\n      dup1\n      0xc0\n      add\n      0x40\n      mstore\n      dup1\n        /* \"contents/MarketPlace.sol\":1919:1925  itemId */\n      dup3\n        /* \"contents/MarketPlace.sol\":1885:2090  MarketItem({... */\n      dup2\n      mstore\n      0x20\n      add\n        /* \"contents/MarketPlace.sol\":1949:1956  tokenId */\n      dup5\n        /* \"contents/MarketPlace.sol\":1885:2090  MarketItem({... */\n      dup2\n      mstore\n      0x20\n      add\n        /* \"contents/MarketPlace.sol\":1986:1996  msg.sender */\n      caller\n        /* \"contents/MarketPlace.sol\":1885:2090  MarketItem({... */\n      0xffffffffffffffffffffffffffffffffffffffff\n      and\n      dup2\n      mstore\n      0x20\n      add\n        /* \"contents/MarketPlace.sol\":2019:2024  price */\n      dup4\n        /* \"contents/MarketPlace.sol\":1885:2090  MarketItem({... */\n      dup2\n      mstore\n      0x20\n      add\n        /* \"contents/MarketPlace.sol\":2045:2050  false */\n      0x00\n        /* \"contents/MarketPlace.sol\":1885:2090  MarketItem({... */\n      iszero\n      iszero\n      dup2\n      mstore\n      0x20\n      add\n        /* \"contents/MarketPlace.sol\":2073:2078  false */\n      0x00\n        /* \"contents/MarketPlace.sol\":1885:2090  MarketItem({... */\n      iszero\n      iszero\n      dup2\n      mstore\n      pop\n        /* \"contents/MarketPlace.sol\":1869:1874  items */\n      0x07\n        /* \"contents/MarketPlace.sol\":1869:1882  items[itemId] */\n      0x00\n        /* \"contents/MarketPlace.sol\":1875:1881  itemId */\n      dup4\n        /* \"contents/MarketPlace.sol\":1869:1882  items[itemId] */\n      dup2\n      mstore\n      0x20\n      add\n      swap1\n      dup2\n      mstore\n      0x20\n      add\n      0x00\n      keccak256\n        /* \"contents/MarketPlace.sol\":1869:2090  items[itemId] = MarketItem({... */\n      0x00\n      dup3\n      add\n      mload\n      dup2\n      0x00\n      add\n      sstore\n      0x20\n      dup3\n      add\n      mload\n      dup2\n      0x01\n      add\n      sstore\n      0x40\n      dup3\n      add\n      mload\n      dup2\n      0x02\n      add\n      exp(0x0100, 0x00)\n      dup2\n      sload\n      dup2\n      0xffffffffffffffffffffffffffffffffffffffff\n      mul\n      not\n      and\n      swap1\n      dup4\n      0xffffffffffffffffffffffffffffffffffffffff\n      and\n      mul\n      or\n      swap1\n      sstore\n      pop\n      0x60\n      dup3\n      add\n      mload\n      dup2\n      0x03\n      add\n      sstore\n      0x80\n      dup3\n      add\n      mload\n      dup2\n      0x04\n      add\n      exp(0x0100, 0x00)\n      dup2\n      sload\n      dup2\n      0xff\n      mul\n      not\n      and\n      swap1\n      dup4\n      iszero\n      iszero\n      mul\n      or\n      swap1\n      sstore\n      pop\n      0xa0\n      dup3\n      add\n      mload\n      dup2\n      0x04\n      add\n      exp(0x0100, 0x01)\n      dup2\n      sload\n      dup2\n      0xff\n      mul\n      not\n      and\n      swap1\n      dup4\n      iszero\n      iszero\n      mul\n      or\n      swap1\n      sstore\n      pop\n      swap1\n      pop\n      pop\n        /* \"contents/MarketPlace.sol\":2130:2136  itemId */\n      dup1\n        /* \"contents/MarketPlace.sol\":2103:2118  itemsByNFTToken */\n      0x06\n        /* \"contents/MarketPlace.sol\":2103:2127  itemsByNFTToken[tokenId] */\n      0x00\n        /* \"contents/MarketPlace.sol\":2119:2126  tokenId */\n      dup6\n        /* \"contents/MarketPlace.sol\":2103:2127  itemsByNFTToken[tokenId] */\n      dup2\n      mstore\n      0x20\n      add\n      swap1\n      dup2\n      mstore\n      0x20\n      add\n      0x00\n      keccak256\n        /* \"contents/MarketPlace.sol\":2103:2136  itemsByNFTToken[tokenId] = itemId */\n      dup2\n      swap1\n      sstore\n      pop\n        /* \"contents/MarketPlace.sol\":2154:2200  ItemListed(itemId, tokenId, msg.sender, price) */\n      0xccc2c46ea1a1fc6b4e5d39ac3fed1a88c04185f5221091df5b44b249f982851b\n        /* \"contents/MarketPlace.sol\":2165:2171  itemId */\n      dup2\n        /* \"contents/MarketPlace.sol\":2173:2180  tokenId */\n      dup5\n        /* \"contents/MarketPlace.sol\":2182:2192  msg.sender */\n      caller\n        /* \"contents/MarketPlace.sol\":2194:2199  price */\n      dup6\n        /* \"contents/MarketPlace.sol\":2154:2200  ItemListed(itemId, tokenId, msg.sender, price) */\n      mload(0x40)\n      tag_180\n      swap5\n      swap4\n      swap3\n      swap2\n      swap1\n      tag_146\n      jump\t// in\n    tag_180:\n      mload(0x40)\n      dup1\n      swap2\n      sub\n      swap1\n      log1\n        /* \"contents/MarketPlace.sol\":1460:2208  {... */\n      pop\n        /* \"contents/MarketPlace.sol\":1402:2208  function listItem( uint256 tokenId, uint256 price) public {... */\n      pop\n      pop\n      jump\t// out\n        /* \"@openzeppelin/contracts/access/Ownable.sol\":1638:1723  function owner() public view virtual returns (address) {... */\n    tag_59:\n        /* \"@openzeppelin/contracts/access/Ownable.sol\":1684:1691  address */\n      0x00\n        /* \"@openzeppelin/contracts/access/Ownable.sol\":1710:1716  _owner */\n      dup1\n      0x00\n      swap1\n      sload\n      swap1\n      0x0100\n      exp\n      swap1\n      div\n      0xffffffffffffffffffffffffffffffffffffffff\n      and\n        /* \"@openzeppelin/contracts/access/Ownable.sol\":1703:1716  return _owner */\n      swap1\n      pop\n        /* \"@openzeppelin/contracts/access/Ownable.sol\":1638:1723  function owner() public view virtual returns (address) {... */\n      swap1\n      jump\t// out\n        /* \"contents/MarketPlace.sol\":3567:3911  function fetchMarketItemLog() public view returns(MarketItem[] memory) {... */\n    tag_64:\n        /* \"contents/MarketPlace.sol\":3617:3636  MarketItem[] memory */\n      0x60\n        /* \"contents/MarketPlace.sol\":3649:3668  uint totalItemCount */\n      0x00\n        /* \"contents/MarketPlace.sol\":3671:3689  _itemIds.current() */\n      tag_183\n        /* \"contents/MarketPlace.sol\":3671:3679  _itemIds */\n      0x01\n        /* \"contents/MarketPlace.sol\":3671:3687  _itemIds.current */\n      tag_97\n        /* \"contents/MarketPlace.sol\":3671:3689  _itemIds.current() */\n      jump\t// in\n    tag_183:\n        /* \"contents/MarketPlace.sol\":3649:3689  uint totalItemCount = _itemIds.current() */\n      swap1\n      pop\n        /* \"contents/MarketPlace.sol\":3710:3737  MarketItem[] memory itemLog */\n      0x00\n        /* \"contents/MarketPlace.sol\":3757:3771  totalItemCount */\n      dup2\n        /* \"contents/MarketPlace.sol\":3740:3772  new MarketItem[](totalItemCount) */\n      0xffffffffffffffff\n      dup2\n      gt\n      iszero\n      tag_184\n      jumpi\n      tag_185\n      tag_100\n      jump\t// in\n    tag_185:\n    tag_184:\n      mload(0x40)\n      swap1\n      dup1\n      dup3\n      mstore\n      dup1\n      0x20\n      mul\n      0x20\n      add\n      dup3\n      add\n      0x40\n      mstore\n      dup1\n      iszero\n      tag_186\n      jumpi\n      dup2\n      0x20\n      add\n    tag_187:\n      tag_188\n      tag_104\n      jump\t// in\n    tag_188:\n      dup2\n      mstore\n      0x20\n      add\n      swap1\n      0x01\n      swap1\n      sub\n      swap1\n      dup2\n      tag_187\n      jumpi\n      swap1\n      pop\n    tag_186:\n      pop\n        /* \"contents/MarketPlace.sol\":3710:3772  MarketItem[] memory itemLog = new MarketItem[](totalItemCount) */\n      swap1\n      pop\n        /* \"contents/MarketPlace.sol\":3787:3793  uint i */\n      0x00\n        /* \"contents/MarketPlace.sol\":3796:3797  1 */\n      0x01\n        /* \"contents/MarketPlace.sol\":3787:3797  uint i = 1 */\n      swap1\n      pop\n        /* \"contents/MarketPlace.sol\":3783:3877  for(uint i = 1; i <= totalItemCount; i++) {... */\n    tag_189:\n        /* \"contents/MarketPlace.sol\":3804:3818  totalItemCount */\n      dup3\n        /* \"contents/MarketPlace.sol\":3799:3800  i */\n      dup2\n        /* \"contents/MarketPlace.sol\":3799:3818  i <= totalItemCount */\n      gt\n        /* \"contents/MarketPlace.sol\":3783:3877  for(uint i = 1; i <= totalItemCount; i++) {... */\n      tag_190\n      jumpi\n        /* \"contents/MarketPlace.sol\":3857:3862  items */\n      0x07\n        /* \"contents/MarketPlace.sol\":3857:3865  items[i] */\n      0x00\n        /* \"contents/MarketPlace.sol\":3863:3864  i */\n      dup3\n        /* \"contents/MarketPlace.sol\":3857:3865  items[i] */\n      dup2\n      mstore\n      0x20\n      add\n      swap1\n      dup2\n      mstore\n      0x20\n      add\n      0x00\n      keccak256\n        /* \"contents/MarketPlace.sol\":3840:3865  itemLog[i - 1] = items[i] */\n      mload(0x40)\n      dup1\n      0xc0\n      add\n      0x40\n      mstore\n      swap1\n      dup2\n      0x00\n      dup3\n      add\n      sload\n      dup2\n      mstore\n      0x20\n      add\n      0x01\n      dup3\n      add\n      sload\n      dup2\n      mstore\n      0x20\n      add\n      0x02\n      dup3\n      add\n      0x00\n      swap1\n      sload\n      swap1\n      0x0100\n      exp\n      swap1\n      div\n      0xffffffffffffffffffffffffffffffffffffffff\n      and\n      0xffffffffffffffffffffffffffffffffffffffff\n      and\n      0xffffffffffffffffffffffffffffffffffffffff\n      and\n      dup2\n      mstore\n      0x20\n      add\n      0x03\n      dup3\n      add\n      sload\n      dup2\n      mstore\n      0x20\n      add\n      0x04\n      dup3\n      add\n      0x00\n      swap1\n      sload\n      swap1\n      0x0100\n      exp\n      swap1\n      div\n      0xff\n      and\n      iszero\n      iszero\n      iszero\n      iszero\n      dup2\n      mstore\n      0x20\n      add\n      0x04\n      dup3\n      add\n      0x01\n      swap1\n      sload\n      swap1\n      0x0100\n      exp\n      swap1\n      div\n      0xff\n      and\n      iszero\n      iszero\n      iszero\n      iszero\n      dup2\n      mstore\n      pop\n      pop\n        /* \"contents/MarketPlace.sol\":3840:3847  itemLog */\n      dup3\n        /* \"contents/MarketPlace.sol\":3852:3853  1 */\n      0x01\n        /* \"contents/MarketPlace.sol\":3848:3849  i */\n      dup4\n        /* \"contents/MarketPlace.sol\":3848:3853  i - 1 */\n      tag_192\n      swap2\n      swap1\n      tag_122\n      jump\t// in\n    tag_192:\n        /* \"contents/MarketPlace.sol\":3840:3854  itemLog[i - 1] */\n      dup2\n      mload\n      dup2\n      lt\n      tag_193\n      jumpi\n      tag_194\n      tag_113\n      jump\t// in\n    tag_194:\n    tag_193:\n      0x20\n      mul\n      0x20\n      add\n      add\n        /* \"contents/MarketPlace.sol\":3840:3865  itemLog[i - 1] = items[i] */\n      dup2\n      swap1\n      mstore\n      pop\n        /* \"contents/MarketPlace.sol\":3820:3823  i++ */\n      dup1\n      dup1\n      tag_195\n      swap1\n      tag_117\n      jump\t// in\n    tag_195:\n      swap2\n      pop\n      pop\n        /* \"contents/MarketPlace.sol\":3783:3877  for(uint i = 1; i <= totalItemCount; i++) {... */\n      jump(tag_189)\n    tag_190:\n      pop\n        /* \"contents/MarketPlace.sol\":3896:3903  itemLog */\n      dup1\n        /* \"contents/MarketPlace.sol\":3889:3903  return itemLog */\n      swap3\n      pop\n      pop\n      pop\n        /* \"contents/MarketPlace.sol\":3567:3911  function fetchMarketItemLog() public view returns(MarketItem[] memory) {... */\n      swap1\n      jump\t// out\n        /* \"contents/MarketPlace.sol\":885:928  mapping(uint256 => MarketItem) public items */\n    tag_69:\n      mstore(0x20, 0x07)\n      dup1\n      0x00\n      mstore\n      keccak256(0x00, 0x40)\n      0x00\n      swap2\n      pop\n      swap1\n      pop\n      dup1\n      0x00\n      add\n      sload\n      swap1\n      dup1\n      0x01\n      add\n      sload\n      swap1\n      dup1\n      0x02\n      add\n      0x00\n      swap1\n      sload\n      swap1\n      0x0100\n      exp\n      swap1\n      div\n      0xffffffffffffffffffffffffffffffffffffffff\n      and\n      swap1\n      dup1\n      0x03\n      add\n      sload\n      swap1\n      dup1\n      0x04\n      add\n      0x00\n      swap1\n      sload\n      swap1\n      0x0100\n      exp\n      swap1\n      div\n      0xff\n      and\n      swap1\n      dup1\n      0x04\n      add\n      0x01\n      swap1\n      sload\n      swap1\n      0x0100\n      exp\n      swap1\n      div\n      0xff\n      and\n      swap1\n      pop\n      dup7\n      jump\t// out\n        /* \"contents/MarketPlace.sol\":5272:5480  function updateListingPrice(uint256 itemId, uint256 _listingPrice) public {... */\n    tag_75:\n        /* \"contents/MarketPlace.sol\":5388:5398  msg.sender */\n      caller\n        /* \"contents/MarketPlace.sol\":5365:5398  items[itemId].owner == msg.sender */\n      0xffffffffffffffffffffffffffffffffffffffff\n      and\n        /* \"contents/MarketPlace.sol\":5365:5370  items */\n      0x07\n        /* \"contents/MarketPlace.sol\":5365:5378  items[itemId] */\n      0x00\n        /* \"contents/MarketPlace.sol\":5371:5377  itemId */\n      dup5\n        /* \"contents/MarketPlace.sol\":5365:5378  items[itemId] */\n      dup2\n      mstore\n      0x20\n      add\n      swap1\n      dup2\n      mstore\n      0x20\n      add\n      0x00\n      keccak256\n        /* \"contents/MarketPlace.sol\":5365:5384  items[itemId].owner */\n      0x02\n      add\n      0x00\n      swap1\n      sload\n      swap1\n      0x0100\n      exp\n      swap1\n      div\n      0xffffffffffffffffffffffffffffffffffffffff\n      and\n        /* \"contents/MarketPlace.sol\":5365:5398  items[itemId].owner == msg.sender */\n      0xffffffffffffffffffffffffffffffffffffffff\n      and\n      eq\n        /* \"contents/MarketPlace.sol\":5357:5424  require(items[itemId].owner == msg.sender, \"You are not the owner\") */\n      tag_197\n      jumpi\n      mload(0x40)\n      0x08c379a000000000000000000000000000000000000000000000000000000000\n      dup2\n      mstore\n      0x04\n      add\n      tag_198\n      swap1\n      tag_144\n      jump\t// in\n    tag_198:\n      mload(0x40)\n      dup1\n      swap2\n      sub\n      swap1\n      revert\n    tag_197:\n        /* \"contents/MarketPlace.sol\":5459:5472  _listingPrice */\n      dup1\n        /* \"contents/MarketPlace.sol\":5437:5442  items */\n      0x07\n        /* \"contents/MarketPlace.sol\":5437:5450  items[itemId] */\n      0x00\n        /* \"contents/MarketPlace.sol\":5443:5449  itemId */\n      dup5\n        /* \"contents/MarketPlace.sol\":5437:5450  items[itemId] */\n      dup2\n      mstore\n      0x20\n      add\n      swap1\n      dup2\n      mstore\n      0x20\n      add\n      0x00\n      keccak256\n        /* \"contents/MarketPlace.sol\":5437:5456  items[itemId].price */\n      0x03\n      add\n        /* \"contents/MarketPlace.sol\":5437:5472  items[itemId].price = _listingPrice */\n      dup2\n      swap1\n      sstore\n      pop\n        /* \"contents/MarketPlace.sol\":5272:5480  function updateListingPrice(uint256 itemId, uint256 _listingPrice) public {... */\n      pop\n      pop\n      jump\t// out\n        /* \"contents/MarketPlace.sol\":609:635  IERC721 public nftContract */\n    tag_78:\n      0x05\n      0x00\n      swap1\n      sload\n      swap1\n      0x0100\n      exp\n      swap1\n      div\n      0xffffffffffffffffffffffffffffffffffffffff\n      and\n      dup2\n      jump\t// out\n        /* \"contents/MarketPlace.sol\":2499:3559  function buyItem(uint256 itemId) public payable {... */\n    tag_83:\n        /* \"contents/MarketPlace.sol\":2558:2581  MarketItem storage item */\n      0x00\n        /* \"contents/MarketPlace.sol\":2584:2589  items */\n      0x07\n        /* \"contents/MarketPlace.sol\":2584:2597  items[itemId] */\n      0x00\n        /* \"contents/MarketPlace.sol\":2590:2596  itemId */\n      dup4\n        /* \"contents/MarketPlace.sol\":2584:2597  items[itemId] */\n      dup2\n      mstore\n      0x20\n      add\n      swap1\n      dup2\n      mstore\n      0x20\n      add\n      0x00\n      keccak256\n        /* \"contents/MarketPlace.sol\":2558:2597  MarketItem storage item = items[itemId] */\n      swap1\n      pop\n        /* \"contents/MarketPlace.sol\":2617:2621  item */\n      dup1\n        /* \"contents/MarketPlace.sol\":2617:2626  item.sold */\n      0x04\n      add\n      0x00\n      swap1\n      sload\n      swap1\n      0x0100\n      exp\n      swap1\n      div\n      0xff\n      and\n        /* \"contents/MarketPlace.sol\":2616:2626  !item.sold */\n      iszero\n        /* \"contents/MarketPlace.sol\":2608:2651  require(!item.sold, \"Item is not for sale\") */\n      tag_200\n      jumpi\n      mload(0x40)\n      0x08c379a000000000000000000000000000000000000000000000000000000000\n      dup2\n      mstore\n      0x04\n      add\n      tag_201\n      swap1\n      tag_202\n      jump\t// in\n    tag_201:\n      mload(0x40)\n      dup1\n      swap2\n      sub\n      swap1\n      revert\n    tag_200:\n        /* \"contents/MarketPlace.sol\":2671:2675  item */\n      dup1\n        /* \"contents/MarketPlace.sol\":2671:2682  item.cancel */\n      0x04\n      add\n      0x01\n      swap1\n      sload\n      swap1\n      0x0100\n      exp\n      swap1\n      div\n      0xff\n      and\n        /* \"contents/MarketPlace.sol\":2670:2682  !item.cancel */\n      iszero\n        /* \"contents/MarketPlace.sol\":2662:2707  require(!item.cancel, \"Item is not for sale\") */\n      tag_203\n      jumpi\n      mload(0x40)\n      0x08c379a000000000000000000000000000000000000000000000000000000000\n      dup2\n      mstore\n      0x04\n      add\n      tag_204\n      swap1\n      tag_202\n      jump\t// in\n    tag_204:\n      mload(0x40)\n      dup1\n      swap2\n      sub\n      swap1\n      revert\n    tag_203:\n        /* \"contents/MarketPlace.sol\":2764:2768  item */\n      dup1\n        /* \"contents/MarketPlace.sol\":2764:2774  item.price */\n      0x03\n      add\n      sload\n        /* \"contents/MarketPlace.sol\":2726:2738  paymentToken */\n      0x04\n      0x00\n      swap1\n      sload\n      swap1\n      0x0100\n      exp\n      swap1\n      div\n      0xffffffffffffffffffffffffffffffffffffffff\n      and\n        /* \"contents/MarketPlace.sol\":2726:2748  paymentToken.balanceOf */\n      0xffffffffffffffffffffffffffffffffffffffff\n      and\n      0x70a08231\n        /* \"contents/MarketPlace.sol\":2749:2759  msg.sender */\n      caller\n        /* \"contents/MarketPlace.sol\":2726:2760  paymentToken.balanceOf(msg.sender) */\n      mload(0x40)\n      dup3\n      0xffffffff\n      and\n      0xe0\n      shl\n      dup2\n      mstore\n      0x04\n      add\n      tag_205\n      swap2\n      swap1\n      tag_61\n      jump\t// in\n    tag_205:\n      0x20\n      mload(0x40)\n      dup1\n      dup4\n      sub\n      dup2\n      dup7\n      gas\n      staticcall\n      iszero\n      dup1\n      iszero\n      tag_207\n      jumpi\n      returndatasize\n      0x00\n      dup1\n      returndatacopy\n      revert(0x00, returndatasize)\n    tag_207:\n      pop\n      pop\n      pop\n      pop\n      mload(0x40)\n      returndatasize\n      not(0x1f)\n      0x1f\n      dup3\n      add\n      and\n      dup3\n      add\n      dup1\n      0x40\n      mstore\n      pop\n      dup2\n      add\n      swap1\n      tag_208\n      swap2\n      swap1\n      tag_209\n      jump\t// in\n    tag_208:\n        /* \"contents/MarketPlace.sol\":2726:2774  paymentToken.balanceOf(msg.sender) >= item.price */\n      lt\n      iszero\n        /* \"contents/MarketPlace.sol\":2718:2797  require(paymentToken.balanceOf(msg.sender) >= item.price, \"Insufficient funds\") */\n      tag_210\n      jumpi\n      mload(0x40)\n      0x08c379a000000000000000000000000000000000000000000000000000000000\n      dup2\n      mstore\n      0x04\n      add\n      tag_211\n      swap1\n      tag_212\n      jump\t// in\n    tag_211:\n      mload(0x40)\n      dup1\n      swap2\n      sub\n      swap1\n      revert\n    tag_210:\n        /* \"contents/MarketPlace.sol\":2869:2873  item */\n      dup1\n        /* \"contents/MarketPlace.sol\":2869:2879  item.price */\n      0x03\n      add\n      sload\n        /* \"contents/MarketPlace.sol\":2816:2828  paymentToken */\n      0x04\n      0x00\n      swap1\n      sload\n      swap1\n      0x0100\n      exp\n      swap1\n      div\n      0xffffffffffffffffffffffffffffffffffffffff\n      and\n        /* \"contents/MarketPlace.sol\":2816:2838  paymentToken.allowance */\n      0xffffffffffffffffffffffffffffffffffffffff\n      and\n      0xdd62ed3e\n        /* \"contents/MarketPlace.sol\":2839:2849  msg.sender */\n      caller\n        /* \"contents/MarketPlace.sol\":2859:2863  this */\n      address\n        /* \"contents/MarketPlace.sol\":2816:2865  paymentToken.allowance(msg.sender, address(this)) */\n      mload(0x40)\n      dup4\n      0xffffffff\n      and\n      0xe0\n      shl\n      dup2\n      mstore\n      0x04\n      add\n      tag_213\n      swap3\n      swap2\n      swap1\n      tag_167\n      jump\t// in\n    tag_213:\n      0x20\n      mload(0x40)\n      dup1\n      dup4\n      sub\n      dup2\n      dup7\n      gas\n      staticcall\n      iszero\n      dup1\n      iszero\n      tag_215\n      jumpi\n      returndatasize\n      0x00\n      dup1\n      returndatacopy\n      revert(0x00, returndatasize)\n    tag_215:\n      pop\n      pop\n      pop\n      pop\n      mload(0x40)\n      returndatasize\n      not(0x1f)\n      0x1f\n      dup3\n      add\n      and\n      dup3\n      add\n      dup1\n      0x40\n      mstore\n      pop\n      dup2\n      add\n      swap1\n      tag_216\n      swap2\n      swap1\n      tag_209\n      jump\t// in\n    tag_216:\n        /* \"contents/MarketPlace.sol\":2816:2879  paymentToken.allowance(msg.sender, address(this)) >= item.price */\n      lt\n      iszero\n        /* \"contents/MarketPlace.sol\":2808:2906  require(paymentToken.allowance(msg.sender, address(this)) >= item.price, \"Insufficient allowance\") */\n      tag_217\n      jumpi\n      mload(0x40)\n      0x08c379a000000000000000000000000000000000000000000000000000000000\n      dup2\n      mstore\n      0x04\n      add\n      tag_218\n      swap1\n      tag_219\n      jump\t// in\n    tag_218:\n      mload(0x40)\n      dup1\n      swap2\n      sub\n      swap1\n      revert\n    tag_217:\n        /* \"contents/MarketPlace.sol\":2919:2930  uint256 fee */\n      0x00\n        /* \"contents/MarketPlace.sol\":2963:2967  1000 */\n      0x03e8\n        /* \"contents/MarketPlace.sol\":2947:2959  marketFeePer */\n      sload(0x03)\n        /* \"contents/MarketPlace.sol\":2934:2938  item */\n      dup4\n        /* \"contents/MarketPlace.sol\":2934:2944  item.price */\n      0x03\n      add\n      sload\n        /* \"contents/MarketPlace.sol\":2934:2959  item.price * marketFeePer */\n      tag_220\n      swap2\n      swap1\n      tag_221\n      jump\t// in\n    tag_220:\n        /* \"contents/MarketPlace.sol\":2933:2967  (item.price * marketFeePer) / 1000 */\n      tag_222\n      swap2\n      swap1\n      tag_223\n      jump\t// in\n    tag_222:\n        /* \"contents/MarketPlace.sol\":2919:2967  uint256 fee = (item.price * marketFeePer) / 1000 */\n      swap1\n      pop\n        /* \"contents/MarketPlace.sol\":2978:3000  uint256 sellerProceeds */\n      0x00\n        /* \"contents/MarketPlace.sol\":3016:3019  fee */\n      dup2\n        /* \"contents/MarketPlace.sol\":3003:3007  item */\n      dup4\n        /* \"contents/MarketPlace.sol\":3003:3013  item.price */\n      0x03\n      add\n      sload\n        /* \"contents/MarketPlace.sol\":3003:3019  item.price - fee */\n      tag_224\n      swap2\n      swap1\n      tag_122\n      jump\t// in\n    tag_224:\n        /* \"contents/MarketPlace.sol\":2978:3019  uint256 sellerProceeds = item.price - fee */\n      swap1\n      pop\n        /* \"contents/MarketPlace.sol\":3044:3048  true */\n      0x01\n        /* \"contents/MarketPlace.sol\":3032:3036  item */\n      dup4\n        /* \"contents/MarketPlace.sol\":3032:3041  item.sold */\n      0x04\n      add\n      0x00\n        /* \"contents/MarketPlace.sol\":3032:3048  item.sold = true */\n      0x0100\n      exp\n      dup2\n      sload\n      dup2\n      0xff\n      mul\n      not\n      and\n      swap1\n      dup4\n      iszero\n      iszero\n      mul\n      or\n      swap1\n      sstore\n      pop\n        /* \"contents/MarketPlace.sol\":3059:3081  _itemsSold.increment() */\n      tag_225\n        /* \"contents/MarketPlace.sol\":3059:3069  _itemsSold */\n      0x02\n        /* \"contents/MarketPlace.sol\":3059:3079  _itemsSold.increment */\n      tag_157\n        /* \"contents/MarketPlace.sol\":3059:3081  _itemsSold.increment() */\n      jump\t// in\n    tag_225:\n        /* \"contents/MarketPlace.sol\":3094:3105  nftContract */\n      0x05\n      0x00\n      swap1\n      sload\n      swap1\n      0x0100\n      exp\n      swap1\n      div\n      0xffffffffffffffffffffffffffffffffffffffff\n      and\n        /* \"contents/MarketPlace.sol\":3094:3118  nftContract.transferFrom */\n      0xffffffffffffffffffffffffffffffffffffffff\n      and\n      0x23b872dd\n        /* \"contents/MarketPlace.sol\":3119:3123  item */\n      dup5\n        /* \"contents/MarketPlace.sol\":3119:3129  item.owner */\n      0x02\n      add\n      0x00\n      swap1\n      sload\n      swap1\n      0x0100\n      exp\n      swap1\n      div\n      0xffffffffffffffffffffffffffffffffffffffff\n      and\n        /* \"contents/MarketPlace.sol\":3131:3141  msg.sender */\n      caller\n        /* \"contents/MarketPlace.sol\":3143:3147  item */\n      dup7\n        /* \"contents/MarketPlace.sol\":3143:3155  item.tokenId */\n      0x01\n      add\n      sload\n        /* \"contents/MarketPlace.sol\":3094:3156  nftContract.transferFrom(item.owner, msg.sender, item.tokenId) */\n      mload(0x40)\n      dup5\n      0xffffffff\n      and\n      0xe0\n      shl\n      dup2\n      mstore\n      0x04\n      add\n      tag_226\n      swap4\n      swap3\n      swap2\n      swap1\n      tag_227\n      jump\t// in\n    tag_226:\n      0x00\n      mload(0x40)\n      dup1\n      dup4\n      sub\n      dup2\n      0x00\n      dup8\n      dup1\n      extcodesize\n      iszero\n      dup1\n      iszero\n      tag_228\n      jumpi\n      0x00\n      dup1\n      revert\n    tag_228:\n      pop\n      gas\n      call\n      iszero\n      dup1\n      iszero\n      tag_230\n      jumpi\n      returndatasize\n      0x00\n      dup1\n      returndatacopy\n      revert(0x00, returndatasize)\n    tag_230:\n      pop\n      pop\n      pop\n      pop\n        /* \"contents/MarketPlace.sol\":3220:3232  paymentToken */\n      0x04\n      0x00\n      swap1\n      sload\n      swap1\n      0x0100\n      exp\n      swap1\n      div\n      0xffffffffffffffffffffffffffffffffffffffff\n      and\n        /* \"contents/MarketPlace.sol\":3220:3245  paymentToken.transferFrom */\n      0xffffffffffffffffffffffffffffffffffffffff\n      and\n      0x23b872dd\n        /* \"contents/MarketPlace.sol\":3246:3256  msg.sender */\n      caller\n        /* \"contents/MarketPlace.sol\":3258:3265  owner() */\n      tag_231\n        /* \"contents/MarketPlace.sol\":3258:3263  owner */\n      tag_59\n        /* \"contents/MarketPlace.sol\":3258:3265  owner() */\n      jump\t// in\n    tag_231:\n        /* \"contents/MarketPlace.sol\":3267:3270  fee */\n      dup6\n        /* \"contents/MarketPlace.sol\":3220:3271  paymentToken.transferFrom(msg.sender, owner(), fee) */\n      mload(0x40)\n      dup5\n      0xffffffff\n      and\n      0xe0\n      shl\n      dup2\n      mstore\n      0x04\n      add\n      tag_232\n      swap4\n      swap3\n      swap2\n      swap1\n      tag_233\n      jump\t// in\n    tag_232:\n      0x20\n      mload(0x40)\n      dup1\n      dup4\n      sub\n      dup2\n      0x00\n      dup8\n      gas\n      call\n      iszero\n      dup1\n      iszero\n      tag_235\n      jumpi\n      returndatasize\n      0x00\n      dup1\n      returndatacopy\n      revert(0x00, returndatasize)\n    tag_235:\n      pop\n      pop\n      pop\n      pop\n      mload(0x40)\n      returndatasize\n      not(0x1f)\n      0x1f\n      dup3\n      add\n      and\n      dup3\n      add\n      dup1\n      0x40\n      mstore\n      pop\n      dup2\n      add\n      swap1\n      tag_236\n      swap2\n      swap1\n      tag_171\n      jump\t// in\n    tag_236:\n        /* \"contents/MarketPlace.sol\":3212:3295  require(paymentToken.transferFrom(msg.sender, owner(), fee), \"Fee transfer failed\") */\n      tag_237\n      jumpi\n      mload(0x40)\n      0x08c379a000000000000000000000000000000000000000000000000000000000\n      dup2\n      mstore\n      0x04\n      add\n      tag_238\n      swap1\n      tag_239\n      jump\t// in\n    tag_238:\n      mload(0x40)\n      dup1\n      swap2\n      sub\n      swap1\n      revert\n    tag_237:\n        /* \"contents/MarketPlace.sol\":3366:3378  paymentToken */\n      0x04\n      0x00\n      swap1\n      sload\n      swap1\n      0x0100\n      exp\n      swap1\n      div\n      0xffffffffffffffffffffffffffffffffffffffff\n      and\n        /* \"contents/MarketPlace.sol\":3366:3391  paymentToken.transferFrom */\n      0xffffffffffffffffffffffffffffffffffffffff\n      and\n      0x23b872dd\n        /* \"contents/MarketPlace.sol\":3392:3402  msg.sender */\n      caller\n        /* \"contents/MarketPlace.sol\":3404:3408  item */\n      dup6\n        /* \"contents/MarketPlace.sol\":3404:3414  item.owner */\n      0x02\n      add\n      0x00\n      swap1\n      sload\n      swap1\n      0x0100\n      exp\n      swap1\n      div\n      0xffffffffffffffffffffffffffffffffffffffff\n      and\n        /* \"contents/MarketPlace.sol\":3416:3430  sellerProceeds */\n      dup5\n        /* \"contents/MarketPlace.sol\":3366:3431  paymentToken.transferFrom(msg.sender, item.owner, sellerProceeds) */\n      mload(0x40)\n      dup5\n      0xffffffff\n      and\n      0xe0\n      shl\n      dup2\n      mstore\n      0x04\n      add\n      tag_240\n      swap4\n      swap3\n      swap2\n      swap1\n      tag_241\n      jump\t// in\n    tag_240:\n      0x20\n      mload(0x40)\n      dup1\n      dup4\n      sub\n      dup2\n      0x00\n      dup8\n      gas\n      call\n      iszero\n      dup1\n      iszero\n      tag_243\n      jumpi\n      returndatasize\n      0x00\n      dup1\n      returndatacopy\n      revert(0x00, returndatasize)\n    tag_243:\n      pop\n      pop\n      pop\n      pop\n      mload(0x40)\n      returndatasize\n      not(0x1f)\n      0x1f\n      dup3\n      add\n      and\n      dup3\n      add\n      dup1\n      0x40\n      mstore\n      pop\n      dup2\n      add\n      swap1\n      tag_244\n      swap2\n      swap1\n      tag_171\n      jump\t// in\n    tag_244:\n        /* \"contents/MarketPlace.sol\":3358:3467  require(paymentToken.transferFrom(msg.sender, item.owner, sellerProceeds), \"Seller proceeds transfer failed\") */\n      tag_245\n      jumpi\n      mload(0x40)\n      0x08c379a000000000000000000000000000000000000000000000000000000000\n      dup2\n      mstore\n      0x04\n      add\n      tag_246\n      swap1\n      tag_247\n      jump\t// in\n    tag_246:\n      mload(0x40)\n      dup1\n      swap2\n      sub\n      swap1\n      revert\n    tag_245:\n        /* \"contents/MarketPlace.sol\":3485:3551  ItemBought(itemId, item.tokenId,item.owner,msg.sender, item.price) */\n      0x3dfa07a0c200c9dd1dc6e3548dbf78ad2a5c851f72efbf8b029ef2b8c57445e5\n        /* \"contents/MarketPlace.sol\":3496:3502  itemId */\n      dup5\n        /* \"contents/MarketPlace.sol\":3504:3508  item */\n      dup5\n        /* \"contents/MarketPlace.sol\":3504:3516  item.tokenId */\n      0x01\n      add\n      sload\n        /* \"contents/MarketPlace.sol\":3517:3521  item */\n      dup6\n        /* \"contents/MarketPlace.sol\":3517:3527  item.owner */\n      0x02\n      add\n      0x00\n      swap1\n      sload\n      swap1\n      0x0100\n      exp\n      swap1\n      div\n      0xffffffffffffffffffffffffffffffffffffffff\n      and\n        /* \"contents/MarketPlace.sol\":3528:3538  msg.sender */\n      caller\n        /* \"contents/MarketPlace.sol\":3540:3544  item */\n      dup8\n        /* \"contents/MarketPlace.sol\":3540:3550  item.price */\n      0x03\n      add\n      sload\n        /* \"contents/MarketPlace.sol\":3485:3551  ItemBought(itemId, item.tokenId,item.owner,msg.sender, item.price) */\n      mload(0x40)\n      tag_248\n      swap6\n      swap5\n      swap4\n      swap3\n      swap2\n      swap1\n      tag_249\n      jump\t// in\n    tag_248:\n      mload(0x40)\n      dup1\n      swap2\n      sub\n      swap1\n      log1\n        /* \"contents/MarketPlace.sol\":2547:3559  {... */\n      pop\n      pop\n      pop\n        /* \"contents/MarketPlace.sol\":2499:3559  function buyItem(uint256 itemId) public payable {... */\n      pop\n      jump\t// out\n        /* \"@openzeppelin/contracts/access/Ownable.sol\":2543:2758  function transferOwnership(address newOwner) public virtual onlyOwner {... */\n    tag_88:\n        /* \"@openzeppelin/contracts/access/Ownable.sol\":1531:1544  _checkOwner() */\n      tag_251\n        /* \"@openzeppelin/contracts/access/Ownable.sol\":1531:1542  _checkOwner */\n      tag_139\n        /* \"@openzeppelin/contracts/access/Ownable.sol\":1531:1544  _checkOwner() */\n      jump\t// in\n    tag_251:\n        /* \"@openzeppelin/contracts/access/Ownable.sol\":2647:2648  0 */\n      0x00\n        /* \"@openzeppelin/contracts/access/Ownable.sol\":2627:2649  newOwner == address(0) */\n      0xffffffffffffffffffffffffffffffffffffffff\n      and\n        /* \"@openzeppelin/contracts/access/Ownable.sol\":2627:2635  newOwner */\n      dup2\n        /* \"@openzeppelin/contracts/access/Ownable.sol\":2627:2649  newOwner == address(0) */\n      0xffffffffffffffffffffffffffffffffffffffff\n      and\n      sub\n        /* \"@openzeppelin/contracts/access/Ownable.sol\":2623:2714  if (newOwner == address(0)) {... */\n      tag_253\n      jumpi\n        /* \"@openzeppelin/contracts/access/Ownable.sol\":2700:2701  0 */\n      0x00\n        /* \"@openzeppelin/contracts/access/Ownable.sol\":2672:2703  OwnableInvalidOwner(address(0)) */\n      mload(0x40)\n      0x1e4fbdf700000000000000000000000000000000000000000000000000000000\n      dup2\n      mstore\n      0x04\n      add\n      tag_254\n      swap2\n      swap1\n      tag_61\n      jump\t// in\n    tag_254:\n      mload(0x40)\n      dup1\n      swap2\n      sub\n      swap1\n      revert\n        /* \"@openzeppelin/contracts/access/Ownable.sol\":2623:2714  if (newOwner == address(0)) {... */\n    tag_253:\n        /* \"@openzeppelin/contracts/access/Ownable.sol\":2723:2751  _transferOwnership(newOwner) */\n      tag_255\n        /* \"@openzeppelin/contracts/access/Ownable.sol\":2742:2750  newOwner */\n      dup2\n        /* \"@openzeppelin/contracts/access/Ownable.sol\":2723:2741  _transferOwnership */\n      tag_151\n        /* \"@openzeppelin/contracts/access/Ownable.sol\":2723:2751  _transferOwnership(newOwner) */\n      jump\t// in\n    tag_255:\n        /* \"@openzeppelin/contracts/access/Ownable.sol\":2543:2758  function transferOwnership(address newOwner) public virtual onlyOwner {... */\n      pop\n      jump\t// out\n        /* \"contents/MarketPlace.sol\":5148:5264  function isListed(uint256 tokenId) public view returns(bool) {... */\n    tag_92:\n        /* \"contents/MarketPlace.sol\":5203:5207  bool */\n      0x00\n        /* \"contents/MarketPlace.sol\":5255:5256  0 */\n      dup1\n        /* \"contents/MarketPlace.sol\":5227:5242  itemsByNFTToken */\n      0x06\n        /* \"contents/MarketPlace.sol\":5227:5251  itemsByNFTToken[tokenId] */\n      0x00\n        /* \"contents/MarketPlace.sol\":5243:5250  tokenId */\n      dup5\n        /* \"contents/MarketPlace.sol\":5227:5251  itemsByNFTToken[tokenId] */\n      dup2\n      mstore\n      0x20\n      add\n      swap1\n      dup2\n      mstore\n      0x20\n      add\n      0x00\n      keccak256\n      sload\n        /* \"contents/MarketPlace.sol\":5227:5256  itemsByNFTToken[tokenId] != 0 */\n      eq\n      iszero\n        /* \"contents/MarketPlace.sol\":5220:5256  return itemsByNFTToken[tokenId] != 0 */\n      swap1\n      pop\n        /* \"contents/MarketPlace.sol\":5148:5264  function isListed(uint256 tokenId) public view returns(bool) {... */\n      swap2\n      swap1\n      pop\n      jump\t// out\n        /* \"@openzeppelin/contracts/utils/Counters.sol\":827:939  function current(Counter storage counter) internal view returns (uint256) {... */\n    tag_97:\n        /* \"@openzeppelin/contracts/utils/Counters.sol\":892:899  uint256 */\n      0x00\n        /* \"@openzeppelin/contracts/utils/Counters.sol\":918:925  counter */\n      dup2\n        /* \"@openzeppelin/contracts/utils/Counters.sol\":918:932  counter._value */\n      0x00\n      add\n      sload\n        /* \"@openzeppelin/contracts/utils/Counters.sol\":911:932  return counter._value */\n      swap1\n      pop\n        /* \"@openzeppelin/contracts/utils/Counters.sol\":827:939  function current(Counter storage counter) internal view returns (uint256) {... */\n      swap2\n      swap1\n      pop\n      jump\t// out\n        /* \"@openzeppelin/contracts/access/Ownable.sol\":1796:1958  function _checkOwner() internal view virtual {... */\n    tag_139:\n        /* \"@openzeppelin/contracts/access/Ownable.sol\":1866:1878  _msgSender() */\n      tag_259\n        /* \"@openzeppelin/contracts/access/Ownable.sol\":1866:1876  _msgSender */\n      tag_260\n        /* \"@openzeppelin/contracts/access/Ownable.sol\":1866:1878  _msgSender() */\n      jump\t// in\n    tag_259:\n        /* \"@openzeppelin/contracts/access/Ownable.sol\":1855:1878  owner() != _msgSender() */\n      0xffffffffffffffffffffffffffffffffffffffff\n      and\n        /* \"@openzeppelin/contracts/access/Ownable.sol\":1855:1862  owner() */\n      tag_261\n        /* \"@openzeppelin/contracts/access/Ownable.sol\":1855:1860  owner */\n      tag_59\n        /* \"@openzeppelin/contracts/access/Ownable.sol\":1855:1862  owner() */\n      jump\t// in\n    tag_261:\n        /* \"@openzeppelin/contracts/access/Ownable.sol\":1855:1878  owner() != _msgSender() */\n      0xffffffffffffffffffffffffffffffffffffffff\n      and\n      eq\n        /* \"@openzeppelin/contracts/access/Ownable.sol\":1851:1952  if (owner() != _msgSender()) {... */\n      tag_262\n      jumpi\n        /* \"@openzeppelin/contracts/access/Ownable.sol\":1928:1940  _msgSender() */\n      tag_263\n        /* \"@openzeppelin/contracts/access/Ownable.sol\":1928:1938  _msgSender */\n      tag_260\n        /* \"@openzeppelin/contracts/access/Ownable.sol\":1928:1940  _msgSender() */\n      jump\t// in\n    tag_263:\n        /* \"@openzeppelin/contracts/access/Ownable.sol\":1901:1941  OwnableUnauthorizedAccount(_msgSender()) */\n      mload(0x40)\n      0x118cdaa700000000000000000000000000000000000000000000000000000000\n      dup2\n      mstore\n      0x04\n      add\n      tag_264\n      swap2\n      swap1\n      tag_61\n      jump\t// in\n    tag_264:\n      mload(0x40)\n      dup1\n      swap2\n      sub\n      swap1\n      revert\n        /* \"@openzeppelin/contracts/access/Ownable.sol\":1851:1952  if (owner() != _msgSender()) {... */\n    tag_262:\n        /* \"@openzeppelin/contracts/access/Ownable.sol\":1796:1958  function _checkOwner() internal view virtual {... */\n      jump\t// out\n        /* \"@openzeppelin/contracts/access/Ownable.sol\":2912:3099  function _transferOwnership(address newOwner) internal virtual {... */\n    tag_151:\n        /* \"@openzeppelin/contracts/access/Ownable.sol\":2985:3001  address oldOwner */\n      0x00\n        /* \"@openzeppelin/contracts/access/Ownable.sol\":3004:3010  _owner */\n      dup1\n      0x00\n      swap1\n      sload\n      swap1\n      0x0100\n      exp\n      swap1\n      div\n      0xffffffffffffffffffffffffffffffffffffffff\n      and\n        /* \"@openzeppelin/contracts/access/Ownable.sol\":2985:3010  address oldOwner = _owner */\n      swap1\n      pop\n        /* \"@openzeppelin/contracts/access/Ownable.sol\":3029:3037  newOwner */\n      dup2\n        /* \"@openzeppelin/contracts/access/Ownable.sol\":3020:3026  _owner */\n      0x00\n      dup1\n        /* \"@openzeppelin/contracts/access/Ownable.sol\":3020:3037  _owner = newOwner */\n      0x0100\n      exp\n      dup2\n      sload\n      dup2\n      0xffffffffffffffffffffffffffffffffffffffff\n      mul\n      not\n      and\n      swap1\n      dup4\n      0xffffffffffffffffffffffffffffffffffffffff\n      and\n      mul\n      or\n      swap1\n      sstore\n      pop\n        /* \"@openzeppelin/contracts/access/Ownable.sol\":3083:3091  newOwner */\n      dup2\n        /* \"@openzeppelin/contracts/access/Ownable.sol\":3052:3092  OwnershipTransferred(oldOwner, newOwner) */\n      0xffffffffffffffffffffffffffffffffffffffff\n      and\n        /* \"@openzeppelin/contracts/access/Ownable.sol\":3073:3081  oldOwner */\n      dup2\n        /* \"@openzeppelin/contracts/access/Ownable.sol\":3052:3092  OwnershipTransferred(oldOwner, newOwner) */\n      0xffffffffffffffffffffffffffffffffffffffff\n      and\n      0x8be0079c531659141344cd1fd0a4f28419497f9722a3daafe3b4186f6b6457e0\n      mload(0x40)\n      mload(0x40)\n      dup1\n      swap2\n      sub\n      swap1\n      log3\n        /* \"@openzeppelin/contracts/access/Ownable.sol\":2975:3099  {... */\n      pop\n        /* \"@openzeppelin/contracts/access/Ownable.sol\":2912:3099  function _transferOwnership(address newOwner) internal virtual {... */\n      pop\n      jump\t// out\n        /* \"@openzeppelin/contracts/utils/Counters.sol\":945:1068  function increment(Counter storage counter) internal {... */\n    tag_157:\n        /* \"@openzeppelin/contracts/utils/Counters.sol\":1050:1051  1 */\n      0x01\n        /* \"@openzeppelin/contracts/utils/Counters.sol\":1032:1039  counter */\n      dup2\n        /* \"@openzeppelin/contracts/utils/Counters.sol\":1032:1046  counter._value */\n      0x00\n      add\n      0x00\n        /* \"@openzeppelin/contracts/utils/Counters.sol\":1032:1051  counter._value += 1 */\n      dup3\n      dup3\n      sload\n      add\n      swap3\n      pop\n      pop\n      dup2\n      swap1\n      sstore\n      pop\n        /* \"@openzeppelin/contracts/utils/Counters.sol\":945:1068  function increment(Counter storage counter) internal {... */\n      pop\n      jump\t// out\n        /* \"@openzeppelin/contracts/utils/Context.sol\":656:752  function _msgSender() internal view virtual returns (address) {... */\n    tag_260:\n        /* \"@openzeppelin/contracts/utils/Context.sol\":709:716  address */\n      0x00\n        /* \"@openzeppelin/contracts/utils/Context.sol\":735:745  msg.sender */\n      caller\n        /* \"@openzeppelin/contracts/utils/Context.sol\":728:745  return msg.sender */\n      swap1\n      pop\n        /* \"@openzeppelin/contracts/utils/Context.sol\":656:752  function _msgSender() internal view virtual returns (address) {... */\n      swap1\n      jump\t// out\n    tag_104:\n      mload(0x40)\n      dup1\n      0xc0\n      add\n      0x40\n      mstore\n      dup1\n      0x00\n      dup2\n      mstore\n      0x20\n      add\n      0x00\n      dup2\n      mstore\n      0x20\n      add\n      and(0xffffffffffffffffffffffffffffffffffffffff, 0x00)\n      dup2\n      mstore\n      0x20\n      add\n      0x00\n      dup2\n      mstore\n      0x20\n      add\n      iszero(iszero(0x00))\n      dup2\n      mstore\n      0x20\n      add\n      iszero(iszero(0x00))\n      dup2\n      mstore\n      pop\n      swap1\n      jump\t// out\n        /* \"#utility.yul\":7:84   */\n    tag_268:\n        /* \"#utility.yul\":44:51   */\n      0x00\n        /* \"#utility.yul\":73:78   */\n      dup2\n        /* \"#utility.yul\":62:78   */\n      swap1\n      pop\n        /* \"#utility.yul\":7:84   */\n      swap2\n      swap1\n      pop\n      jump\t// out\n        /* \"#utility.yul\":90:208   */\n    tag_269:\n        /* \"#utility.yul\":177:201   */\n      tag_329\n        /* \"#utility.yul\":195:200   */\n      dup2\n        /* \"#utility.yul\":177:201   */\n      tag_268\n      jump\t// in\n    tag_329:\n        /* \"#utility.yul\":172:175   */\n      dup3\n        /* \"#utility.yul\":165:202   */\n      mstore\n        /* \"#utility.yul\":90:208   */\n      pop\n      pop\n      jump\t// out\n        /* \"#utility.yul\":214:436   */\n    tag_25:\n        /* \"#utility.yul\":307:311   */\n      0x00\n        /* \"#utility.yul\":345:347   */\n      0x20\n        /* \"#utility.yul\":334:343   */\n      dup3\n        /* \"#utility.yul\":330:348   */\n      add\n        /* \"#utility.yul\":322:348   */\n      swap1\n      pop\n        /* \"#utility.yul\":358:429   */\n      tag_331\n        /* \"#utility.yul\":426:427   */\n      0x00\n        /* \"#utility.yul\":415:424   */\n      dup4\n        /* \"#utility.yul\":411:428   */\n      add\n        /* \"#utility.yul\":402:408   */\n      dup5\n        /* \"#utility.yul\":358:429   */\n      tag_269\n      jump\t// in\n    tag_331:\n        /* \"#utility.yul\":214:436   */\n      swap3\n      swap2\n      pop\n      pop\n      jump\t// out\n        /* \"#utility.yul\":442:584   */\n    tag_270:\n        /* \"#utility.yul\":537:543   */\n      0x00\n        /* \"#utility.yul\":571:576   */\n      dup2\n        /* \"#utility.yul\":565:577   */\n      mload\n        /* \"#utility.yul\":555:577   */\n      swap1\n      pop\n        /* \"#utility.yul\":442:584   */\n      swap2\n      swap1\n      pop\n      jump\t// out\n        /* \"#utility.yul\":590:802   */\n    tag_271:\n        /* \"#utility.yul\":717:728   */\n      0x00\n        /* \"#utility.yul\":751:757   */\n      dup3\n        /* \"#utility.yul\":746:749   */\n      dup3\n        /* \"#utility.yul\":739:758   */\n      mstore\n        /* \"#utility.yul\":791:795   */\n      0x20\n        /* \"#utility.yul\":786:789   */\n      dup3\n        /* \"#utility.yul\":782:796   */\n      add\n        /* \"#utility.yul\":767:796   */\n      swap1\n      pop\n        /* \"#utility.yul\":590:802   */\n      swap3\n      swap2\n      pop\n      pop\n      jump\t// out\n        /* \"#utility.yul\":808:968   */\n    tag_272:\n        /* \"#utility.yul\":903:907   */\n      0x00\n        /* \"#utility.yul\":926:929   */\n      dup2\n        /* \"#utility.yul\":918:929   */\n      swap1\n      pop\n        /* \"#utility.yul\":956:960   */\n      0x20\n        /* \"#utility.yul\":951:954   */\n      dup3\n        /* \"#utility.yul\":947:961   */\n      add\n        /* \"#utility.yul\":939:961   */\n      swap1\n      pop\n        /* \"#utility.yul\":808:968   */\n      swap2\n      swap1\n      pop\n      jump\t// out\n        /* \"#utility.yul\":974:1082   */\n    tag_273:\n        /* \"#utility.yul\":1051:1075   */\n      tag_336\n        /* \"#utility.yul\":1069:1074   */\n      dup2\n        /* \"#utility.yul\":1051:1075   */\n      tag_268\n      jump\t// in\n    tag_336:\n        /* \"#utility.yul\":1046:1049   */\n      dup3\n        /* \"#utility.yul\":1039:1076   */\n      mstore\n        /* \"#utility.yul\":974:1082   */\n      pop\n      pop\n      jump\t// out\n        /* \"#utility.yul\":1088:1214   */\n    tag_274:\n        /* \"#utility.yul\":1125:1132   */\n      0x00\n        /* \"#utility.yul\":1165:1207   */\n      0xffffffffffffffffffffffffffffffffffffffff\n        /* \"#utility.yul\":1158:1163   */\n      dup3\n        /* \"#utility.yul\":1154:1208   */\n      and\n        /* \"#utility.yul\":1143:1208   */\n      swap1\n      pop\n        /* \"#utility.yul\":1088:1214   */\n      swap2\n      swap1\n      pop\n      jump\t// out\n        /* \"#utility.yul\":1220:1324   */\n    tag_275:\n        /* \"#utility.yul\":1265:1272   */\n      0x00\n        /* \"#utility.yul\":1294:1318   */\n      tag_339\n        /* \"#utility.yul\":1312:1317   */\n      dup3\n        /* \"#utility.yul\":1294:1318   */\n      tag_274\n      jump\t// in\n    tag_339:\n        /* \"#utility.yul\":1283:1318   */\n      swap1\n      pop\n        /* \"#utility.yul\":1220:1324   */\n      swap2\n      swap1\n      pop\n      jump\t// out\n        /* \"#utility.yul\":1330:1462   */\n    tag_276:\n        /* \"#utility.yul\":1423:1455   */\n      tag_341\n        /* \"#utility.yul\":1449:1454   */\n      dup2\n        /* \"#utility.yul\":1423:1455   */\n      tag_275\n      jump\t// in\n    tag_341:\n        /* \"#utility.yul\":1418:1421   */\n      dup3\n        /* \"#utility.yul\":1411:1456   */\n      mstore\n        /* \"#utility.yul\":1330:1462   */\n      pop\n      pop\n      jump\t// out\n        /* \"#utility.yul\":1468:1558   */\n    tag_277:\n        /* \"#utility.yul\":1502:1509   */\n      0x00\n        /* \"#utility.yul\":1545:1550   */\n      dup2\n        /* \"#utility.yul\":1538:1551   */\n      iszero\n        /* \"#utility.yul\":1531:1552   */\n      iszero\n        /* \"#utility.yul\":1520:1552   */\n      swap1\n      pop\n        /* \"#utility.yul\":1468:1558   */\n      swap2\n      swap1\n      pop\n      jump\t// out\n        /* \"#utility.yul\":1564:1663   */\n    tag_278:\n        /* \"#utility.yul\":1635:1656   */\n      tag_344\n        /* \"#utility.yul\":1650:1655   */\n      dup2\n        /* \"#utility.yul\":1635:1656   */\n      tag_277\n      jump\t// in\n    tag_344:\n        /* \"#utility.yul\":1630:1633   */\n      dup3\n        /* \"#utility.yul\":1623:1657   */\n      mstore\n        /* \"#utility.yul\":1564:1663   */\n      pop\n      pop\n      jump\t// out\n        /* \"#utility.yul\":1739:2951   */\n    tag_279:\n        /* \"#utility.yul\":1882:1886   */\n      0xc0\n        /* \"#utility.yul\":1877:1880   */\n      dup3\n        /* \"#utility.yul\":1873:1887   */\n      add\n        /* \"#utility.yul\":1971:1975   */\n      0x00\n        /* \"#utility.yul\":1964:1969   */\n      dup3\n        /* \"#utility.yul\":1960:1976   */\n      add\n        /* \"#utility.yul\":1954:1977   */\n      mload\n        /* \"#utility.yul\":1990:2053   */\n      tag_346\n        /* \"#utility.yul\":2047:2051   */\n      0x00\n        /* \"#utility.yul\":2042:2045   */\n      dup6\n        /* \"#utility.yul\":2038:2052   */\n      add\n        /* \"#utility.yul\":2024:2036   */\n      dup3\n        /* \"#utility.yul\":1990:2053   */\n      tag_273\n      jump\t// in\n    tag_346:\n        /* \"#utility.yul\":1897:2063   */\n      pop\n        /* \"#utility.yul\":2148:2152   */\n      0x20\n        /* \"#utility.yul\":2141:2146   */\n      dup3\n        /* \"#utility.yul\":2137:2153   */\n      add\n        /* \"#utility.yul\":2131:2154   */\n      mload\n        /* \"#utility.yul\":2167:2230   */\n      tag_347\n        /* \"#utility.yul\":2224:2228   */\n      0x20\n        /* \"#utility.yul\":2219:2222   */\n      dup6\n        /* \"#utility.yul\":2215:2229   */\n      add\n        /* \"#utility.yul\":2201:2213   */\n      dup3\n        /* \"#utility.yul\":2167:2230   */\n      tag_273\n      jump\t// in\n    tag_347:\n        /* \"#utility.yul\":2073:2240   */\n      pop\n        /* \"#utility.yul\":2323:2327   */\n      0x40\n        /* \"#utility.yul\":2316:2321   */\n      dup3\n        /* \"#utility.yul\":2312:2328   */\n      add\n        /* \"#utility.yul\":2306:2329   */\n      mload\n        /* \"#utility.yul\":2342:2421   */\n      tag_348\n        /* \"#utility.yul\":2415:2419   */\n      0x40\n        /* \"#utility.yul\":2410:2413   */\n      dup6\n        /* \"#utility.yul\":2406:2420   */\n      add\n        /* \"#utility.yul\":2392:2404   */\n      dup3\n        /* \"#utility.yul\":2342:2421   */\n      tag_276\n      jump\t// in\n    tag_348:\n        /* \"#utility.yul\":2250:2431   */\n      pop\n        /* \"#utility.yul\":2514:2518   */\n      0x60\n        /* \"#utility.yul\":2507:2512   */\n      dup3\n        /* \"#utility.yul\":2503:2519   */\n      add\n        /* \"#utility.yul\":2497:2520   */\n      mload\n        /* \"#utility.yul\":2533:2596   */\n      tag_349\n        /* \"#utility.yul\":2590:2594   */\n      0x60\n        /* \"#utility.yul\":2585:2588   */\n      dup6\n        /* \"#utility.yul\":2581:2595   */\n      add\n        /* \"#utility.yul\":2567:2579   */\n      dup3\n        /* \"#utility.yul\":2533:2596   */\n      tag_273\n      jump\t// in\n    tag_349:\n        /* \"#utility.yul\":2441:2606   */\n      pop\n        /* \"#utility.yul\":2688:2692   */\n      0x80\n        /* \"#utility.yul\":2681:2686   */\n      dup3\n        /* \"#utility.yul\":2677:2693   */\n      add\n        /* \"#utility.yul\":2671:2694   */\n      mload\n        /* \"#utility.yul\":2707:2764   */\n      tag_350\n        /* \"#utility.yul\":2758:2762   */\n      0x80\n        /* \"#utility.yul\":2753:2756   */\n      dup6\n        /* \"#utility.yul\":2749:2763   */\n      add\n        /* \"#utility.yul\":2735:2747   */\n      dup3\n        /* \"#utility.yul\":2707:2764   */\n      tag_278\n      jump\t// in\n    tag_350:\n        /* \"#utility.yul\":2616:2774   */\n      pop\n        /* \"#utility.yul\":2858:2862   */\n      0xa0\n        /* \"#utility.yul\":2851:2856   */\n      dup3\n        /* \"#utility.yul\":2847:2863   */\n      add\n        /* \"#utility.yul\":2841:2864   */\n      mload\n        /* \"#utility.yul\":2877:2934   */\n      tag_351\n        /* \"#utility.yul\":2928:2932   */\n      0xa0\n        /* \"#utility.yul\":2923:2926   */\n      dup6\n        /* \"#utility.yul\":2919:2933   */\n      add\n        /* \"#utility.yul\":2905:2917   */\n      dup3\n        /* \"#utility.yul\":2877:2934   */\n      tag_278\n      jump\t// in\n    tag_351:\n        /* \"#utility.yul\":2784:2944   */\n      pop\n        /* \"#utility.yul\":1851:2951   */\n      pop\n        /* \"#utility.yul\":1739:2951   */\n      pop\n      pop\n      jump\t// out\n        /* \"#utility.yul\":2957:3248   */\n    tag_280:\n        /* \"#utility.yul\":3082:3092   */\n      0x00\n        /* \"#utility.yul\":3103:3205   */\n      tag_353\n        /* \"#utility.yul\":3201:3204   */\n      dup4\n        /* \"#utility.yul\":3193:3199   */\n      dup4\n        /* \"#utility.yul\":3103:3205   */\n      tag_279\n      jump\t// in\n    tag_353:\n        /* \"#utility.yul\":3237:3241   */\n      0xc0\n        /* \"#utility.yul\":3232:3235   */\n      dup4\n        /* \"#utility.yul\":3228:3242   */\n      add\n        /* \"#utility.yul\":3214:3242   */\n      swap1\n      pop\n        /* \"#utility.yul\":2957:3248   */\n      swap3\n      swap2\n      pop\n      pop\n      jump\t// out\n        /* \"#utility.yul\":3254:3395   */\n    tag_281:\n        /* \"#utility.yul\":3352:3356   */\n      0x00\n        /* \"#utility.yul\":3384:3388   */\n      0x20\n        /* \"#utility.yul\":3379:3382   */\n      dup3\n        /* \"#utility.yul\":3375:3389   */\n      add\n        /* \"#utility.yul\":3367:3389   */\n      swap1\n      pop\n        /* \"#utility.yul\":3254:3395   */\n      swap2\n      swap1\n      pop\n      jump\t// out\n        /* \"#utility.yul\":3475:4431   */\n    tag_282:\n        /* \"#utility.yul\":3650:3653   */\n      0x00\n        /* \"#utility.yul\":3679:3761   */\n      tag_356\n        /* \"#utility.yul\":3755:3760   */\n      dup3\n        /* \"#utility.yul\":3679:3761   */\n      tag_270\n      jump\t// in\n    tag_356:\n        /* \"#utility.yul\":3777:3891   */\n      tag_357\n        /* \"#utility.yul\":3884:3890   */\n      dup2\n        /* \"#utility.yul\":3879:3882   */\n      dup6\n        /* \"#utility.yul\":3777:3891   */\n      tag_271\n      jump\t// in\n    tag_357:\n        /* \"#utility.yul\":3770:3891   */\n      swap4\n      pop\n        /* \"#utility.yul\":3915:3999   */\n      tag_358\n        /* \"#utility.yul\":3993:3998   */\n      dup4\n        /* \"#utility.yul\":3915:3999   */\n      tag_272\n      jump\t// in\n    tag_358:\n        /* \"#utility.yul\":4022:4029   */\n      dup1\n        /* \"#utility.yul\":4053:4054   */\n      0x00\n        /* \"#utility.yul\":4038:4406   */\n    tag_359:\n        /* \"#utility.yul\":4063:4069   */\n      dup4\n        /* \"#utility.yul\":4060:4061   */\n      dup2\n        /* \"#utility.yul\":4057:4070   */\n      lt\n        /* \"#utility.yul\":4038:4406   */\n      iszero\n      tag_361\n      jumpi\n        /* \"#utility.yul\":4139:4145   */\n      dup2\n        /* \"#utility.yul\":4133:4146   */\n      mload\n        /* \"#utility.yul\":4166:4285   */\n      tag_362\n        /* \"#utility.yul\":4281:4284   */\n      dup9\n        /* \"#utility.yul\":4266:4279   */\n      dup3\n        /* \"#utility.yul\":4166:4285   */\n      tag_280\n      jump\t// in\n    tag_362:\n        /* \"#utility.yul\":4159:4285   */\n      swap8\n      pop\n        /* \"#utility.yul\":4308:4396   */\n      tag_363\n        /* \"#utility.yul\":4389:4395   */\n      dup4\n        /* \"#utility.yul\":4308:4396   */\n      tag_281\n      jump\t// in\n    tag_363:\n        /* \"#utility.yul\":4298:4396   */\n      swap3\n      pop\n        /* \"#utility.yul\":4098:4406   */\n      pop\n        /* \"#utility.yul\":4085:4086   */\n      0x01\n        /* \"#utility.yul\":4082:4083   */\n      dup2\n        /* \"#utility.yul\":4078:4087   */\n      add\n        /* \"#utility.yul\":4073:4087   */\n      swap1\n      pop\n        /* \"#utility.yul\":4038:4406   */\n      jump(tag_359)\n    tag_361:\n        /* \"#utility.yul\":4042:4056   */\n      pop\n        /* \"#utility.yul\":4422:4425   */\n      dup6\n        /* \"#utility.yul\":4415:4425   */\n      swap4\n      pop\n        /* \"#utility.yul\":3655:4431   */\n      pop\n      pop\n      pop\n        /* \"#utility.yul\":3475:4431   */\n      swap3\n      swap2\n      pop\n      pop\n      jump\t// out\n        /* \"#utility.yul\":4437:4922   */\n    tag_30:\n        /* \"#utility.yul\":4636:4640   */\n      0x00\n        /* \"#utility.yul\":4674:4676   */\n      0x20\n        /* \"#utility.yul\":4663:4672   */\n      dup3\n        /* \"#utility.yul\":4659:4677   */\n      add\n        /* \"#utility.yul\":4651:4677   */\n      swap1\n      pop\n        /* \"#utility.yul\":4723:4732   */\n      dup2\n        /* \"#utility.yul\":4717:4721   */\n      dup2\n        /* \"#utility.yul\":4713:4733   */\n      sub\n        /* \"#utility.yul\":4709:4710   */\n      0x00\n        /* \"#utility.yul\":4698:4707   */\n      dup4\n        /* \"#utility.yul\":4694:4711   */\n      add\n        /* \"#utility.yul\":4687:4734   */\n      mstore\n        /* \"#utility.yul\":4751:4915   */\n      tag_365\n        /* \"#utility.yul\":4910:4914   */\n      dup2\n        /* \"#utility.yul\":4901:4907   */\n      dup5\n        /* \"#utility.yul\":4751:4915   */\n      tag_282\n      jump\t// in\n    tag_365:\n        /* \"#utility.yul\":4743:4915   */\n      swap1\n      pop\n        /* \"#utility.yul\":4437:4922   */\n      swap3\n      swap2\n      pop\n      pop\n      jump\t// out\n        /* \"#utility.yul\":4928:4988   */\n    tag_283:\n        /* \"#utility.yul\":4956:4959   */\n      0x00\n        /* \"#utility.yul\":4977:4982   */\n      dup2\n        /* \"#utility.yul\":4970:4982   */\n      swap1\n      pop\n        /* \"#utility.yul\":4928:4988   */\n      swap2\n      swap1\n      pop\n      jump\t// out\n        /* \"#utility.yul\":4994:5136   */\n    tag_284:\n        /* \"#utility.yul\":5044:5053   */\n      0x00\n        /* \"#utility.yul\":5077:5130   */\n      tag_368\n        /* \"#utility.yul\":5095:5129   */\n      tag_369\n        /* \"#utility.yul\":5104:5128   */\n      tag_370\n        /* \"#utility.yul\":5122:5127   */\n      dup5\n        /* \"#utility.yul\":5104:5128   */\n      tag_274\n      jump\t// in\n    tag_370:\n        /* \"#utility.yul\":5095:5129   */\n      tag_283\n      jump\t// in\n    tag_369:\n        /* \"#utility.yul\":5077:5130   */\n      tag_274\n      jump\t// in\n    tag_368:\n        /* \"#utility.yul\":5064:5130   */\n      swap1\n      pop\n        /* \"#utility.yul\":4994:5136   */\n      swap2\n      swap1\n      pop\n      jump\t// out\n        /* \"#utility.yul\":5142:5268   */\n    tag_285:\n        /* \"#utility.yul\":5192:5201   */\n      0x00\n        /* \"#utility.yul\":5225:5262   */\n      tag_372\n        /* \"#utility.yul\":5256:5261   */\n      dup3\n        /* \"#utility.yul\":5225:5262   */\n      tag_284\n      jump\t// in\n    tag_372:\n        /* \"#utility.yul\":5212:5262   */\n      swap1\n      pop\n        /* \"#utility.yul\":5142:5268   */\n      swap2\n      swap1\n      pop\n      jump\t// out\n        /* \"#utility.yul\":5274:5414   */\n    tag_286:\n        /* \"#utility.yul\":5338:5347   */\n      0x00\n        /* \"#utility.yul\":5371:5408   */\n      tag_374\n        /* \"#utility.yul\":5402:5407   */\n      dup3\n        /* \"#utility.yul\":5371:5408   */\n      tag_285\n      jump\t// in\n    tag_374:\n        /* \"#utility.yul\":5358:5408   */\n      swap1\n      pop\n        /* \"#utility.yul\":5274:5414   */\n      swap2\n      swap1\n      pop\n      jump\t// out\n        /* \"#utility.yul\":5420:5579   */\n    tag_287:\n        /* \"#utility.yul\":5521:5572   */\n      tag_376\n        /* \"#utility.yul\":5566:5571   */\n      dup2\n        /* \"#utility.yul\":5521:5572   */\n      tag_286\n      jump\t// in\n    tag_376:\n        /* \"#utility.yul\":5516:5519   */\n      dup3\n        /* \"#utility.yul\":5509:5573   */\n      mstore\n        /* \"#utility.yul\":5420:5579   */\n      pop\n      pop\n      jump\t// out\n        /* \"#utility.yul\":5585:5835   */\n    tag_35:\n        /* \"#utility.yul\":5692:5696   */\n      0x00\n        /* \"#utility.yul\":5730:5732   */\n      0x20\n        /* \"#utility.yul\":5719:5728   */\n      dup3\n        /* \"#utility.yul\":5715:5733   */\n      add\n        /* \"#utility.yul\":5707:5733   */\n      swap1\n      pop\n        /* \"#utility.yul\":5743:5828   */\n      tag_378\n        /* \"#utility.yul\":5825:5826   */\n      0x00\n        /* \"#utility.yul\":5814:5823   */\n      dup4\n        /* \"#utility.yul\":5810:5827   */\n      add\n        /* \"#utility.yul\":5801:5807   */\n      dup5\n        /* \"#utility.yul\":5743:5828   */\n      tag_287\n      jump\t// in\n    tag_378:\n        /* \"#utility.yul\":5585:5835   */\n      swap3\n      swap2\n      pop\n      pop\n      jump\t// out\n        /* \"#utility.yul\":5922:6039   */\n    tag_289:\n        /* \"#utility.yul\":6031:6032   */\n      0x00\n        /* \"#utility.yul\":6028:6029   */\n      dup1\n        /* \"#utility.yul\":6021:6033   */\n      revert\n        /* \"#utility.yul\":6168:6290   */\n    tag_291:\n        /* \"#utility.yul\":6241:6265   */\n      tag_383\n        /* \"#utility.yul\":6259:6264   */\n      dup2\n        /* \"#utility.yul\":6241:6265   */\n      tag_268\n      jump\t// in\n    tag_383:\n        /* \"#utility.yul\":6234:6239   */\n      dup2\n        /* \"#utility.yul\":6231:6266   */\n      eq\n        /* \"#utility.yul\":6221:6284   */\n      tag_384\n      jumpi\n        /* \"#utility.yul\":6280:6281   */\n      0x00\n        /* \"#utility.yul\":6277:6278   */\n      dup1\n        /* \"#utility.yul\":6270:6282   */\n      revert\n        /* \"#utility.yul\":6221:6284   */\n    tag_384:\n        /* \"#utility.yul\":6168:6290   */\n      pop\n      jump\t// out\n        /* \"#utility.yul\":6296:6435   */\n    tag_292:\n        /* \"#utility.yul\":6342:6347   */\n      0x00\n        /* \"#utility.yul\":6380:6386   */\n      dup2\n        /* \"#utility.yul\":6367:6387   */\n      calldataload\n        /* \"#utility.yul\":6358:6387   */\n      swap1\n      pop\n        /* \"#utility.yul\":6396:6429   */\n      tag_386\n        /* \"#utility.yul\":6423:6428   */\n      dup2\n        /* \"#utility.yul\":6396:6429   */\n      tag_291\n      jump\t// in\n    tag_386:\n        /* \"#utility.yul\":6296:6435   */\n      swap3\n      swap2\n      pop\n      pop\n      jump\t// out\n        /* \"#utility.yul\":6441:6770   */\n    tag_43:\n        /* \"#utility.yul\":6500:6506   */\n      0x00\n        /* \"#utility.yul\":6549:6551   */\n      0x20\n        /* \"#utility.yul\":6537:6546   */\n      dup3\n        /* \"#utility.yul\":6528:6535   */\n      dup5\n        /* \"#utility.yul\":6524:6547   */\n      sub\n        /* \"#utility.yul\":6520:6552   */\n      slt\n        /* \"#utility.yul\":6517:6636   */\n      iszero\n      tag_388\n      jumpi\n        /* \"#utility.yul\":6555:6634   */\n      tag_389\n      tag_289\n      jump\t// in\n    tag_389:\n        /* \"#utility.yul\":6517:6636   */\n    tag_388:\n        /* \"#utility.yul\":6675:6676   */\n      0x00\n        /* \"#utility.yul\":6700:6753   */\n      tag_390\n        /* \"#utility.yul\":6745:6752   */\n      dup5\n        /* \"#utility.yul\":6736:6742   */\n      dup3\n        /* \"#utility.yul\":6725:6734   */\n      dup6\n        /* \"#utility.yul\":6721:6743   */\n      add\n        /* \"#utility.yul\":6700:6753   */\n      tag_292\n      jump\t// in\n    tag_390:\n        /* \"#utility.yul\":6690:6753   */\n      swap2\n      pop\n        /* \"#utility.yul\":6646:6763   */\n      pop\n        /* \"#utility.yul\":6441:6770   */\n      swap3\n      swap2\n      pop\n      pop\n      jump\t// out\n        /* \"#utility.yul\":6776:7250   */\n    tag_55:\n        /* \"#utility.yul\":6844:6850   */\n      0x00\n        /* \"#utility.yul\":6852:6858   */\n      dup1\n        /* \"#utility.yul\":6901:6903   */\n      0x40\n        /* \"#utility.yul\":6889:6898   */\n      dup4\n        /* \"#utility.yul\":6880:6887   */\n      dup6\n        /* \"#utility.yul\":6876:6899   */\n      sub\n        /* \"#utility.yul\":6872:6904   */\n      slt\n        /* \"#utility.yul\":6869:6988   */\n      iszero\n      tag_392\n      jumpi\n        /* \"#utility.yul\":6907:6986   */\n      tag_393\n      tag_289\n      jump\t// in\n    tag_393:\n        /* \"#utility.yul\":6869:6988   */\n    tag_392:\n        /* \"#utility.yul\":7027:7028   */\n      0x00\n        /* \"#utility.yul\":7052:7105   */\n      tag_394\n        /* \"#utility.yul\":7097:7104   */\n      dup6\n        /* \"#utility.yul\":7088:7094   */\n      dup3\n        /* \"#utility.yul\":7077:7086   */\n      dup7\n        /* \"#utility.yul\":7073:7095   */\n      add\n        /* \"#utility.yul\":7052:7105   */\n      tag_292\n      jump\t// in\n    tag_394:\n        /* \"#utility.yul\":7042:7105   */\n      swap3\n      pop\n        /* \"#utility.yul\":6998:7115   */\n      pop\n        /* \"#utility.yul\":7154:7156   */\n      0x20\n        /* \"#utility.yul\":7180:7233   */\n      tag_395\n        /* \"#utility.yul\":7225:7232   */\n      dup6\n        /* \"#utility.yul\":7216:7222   */\n      dup3\n        /* \"#utility.yul\":7205:7214   */\n      dup7\n        /* \"#utility.yul\":7201:7223   */\n      add\n        /* \"#utility.yul\":7180:7233   */\n      tag_292\n      jump\t// in\n    tag_395:\n        /* \"#utility.yul\":7170:7233   */\n      swap2\n      pop\n        /* \"#utility.yul\":7125:7243   */\n      pop\n        /* \"#utility.yul\":6776:7250   */\n      swap3\n      pop\n      swap3\n      swap1\n      pop\n      jump\t// out\n        /* \"#utility.yul\":7256:7352   */\n    tag_293:\n        /* \"#utility.yul\":7293:7300   */\n      0x00\n        /* \"#utility.yul\":7322:7346   */\n      tag_397\n        /* \"#utility.yul\":7340:7345   */\n      dup3\n        /* \"#utility.yul\":7322:7346   */\n      tag_274\n      jump\t// in\n    tag_397:\n        /* \"#utility.yul\":7311:7346   */\n      swap1\n      pop\n        /* \"#utility.yul\":7256:7352   */\n      swap2\n      swap1\n      pop\n      jump\t// out\n        /* \"#utility.yul\":7358:7476   */\n    tag_294:\n        /* \"#utility.yul\":7445:7469   */\n      tag_399\n        /* \"#utility.yul\":7463:7468   */\n      dup2\n        /* \"#utility.yul\":7445:7469   */\n      tag_293\n      jump\t// in\n    tag_399:\n        /* \"#utility.yul\":7440:7443   */\n      dup3\n        /* \"#utility.yul\":7433:7470   */\n      mstore\n        /* \"#utility.yul\":7358:7476   */\n      pop\n      pop\n      jump\t// out\n        /* \"#utility.yul\":7482:7704   */\n    tag_61:\n        /* \"#utility.yul\":7575:7579   */\n      0x00\n        /* \"#utility.yul\":7613:7615   */\n      0x20\n        /* \"#utility.yul\":7602:7611   */\n      dup3\n        /* \"#utility.yul\":7598:7616   */\n      add\n        /* \"#utility.yul\":7590:7616   */\n      swap1\n      pop\n        /* \"#utility.yul\":7626:7697   */\n      tag_401\n        /* \"#utility.yul\":7694:7695   */\n      0x00\n        /* \"#utility.yul\":7683:7692   */\n      dup4\n        /* \"#utility.yul\":7679:7696   */\n      add\n        /* \"#utility.yul\":7670:7676   */\n      dup5\n        /* \"#utility.yul\":7626:7697   */\n      tag_294\n      jump\t// in\n    tag_401:\n        /* \"#utility.yul\":7482:7704   */\n      swap3\n      swap2\n      pop\n      pop\n      jump\t// out\n        /* \"#utility.yul\":7710:7852   */\n    tag_295:\n        /* \"#utility.yul\":7813:7845   */\n      tag_403\n        /* \"#utility.yul\":7839:7844   */\n      dup2\n        /* \"#utility.yul\":7813:7845   */\n      tag_275\n      jump\t// in\n    tag_403:\n        /* \"#utility.yul\":7808:7811   */\n      dup3\n        /* \"#utility.yul\":7801:7846   */\n      mstore\n        /* \"#utility.yul\":7710:7852   */\n      pop\n      pop\n      jump\t// out\n        /* \"#utility.yul\":7858:7967   */\n    tag_296:\n        /* \"#utility.yul\":7939:7960   */\n      tag_405\n        /* \"#utility.yul\":7954:7959   */\n      dup2\n        /* \"#utility.yul\":7939:7960   */\n      tag_277\n      jump\t// in\n    tag_405:\n        /* \"#utility.yul\":7934:7937   */\n      dup3\n        /* \"#utility.yul\":7927:7961   */\n      mstore\n        /* \"#utility.yul\":7858:7967   */\n      pop\n      pop\n      jump\t// out\n        /* \"#utility.yul\":7973:8756   */\n    tag_71:\n        /* \"#utility.yul\":8210:8214   */\n      0x00\n        /* \"#utility.yul\":8248:8251   */\n      0xc0\n        /* \"#utility.yul\":8237:8246   */\n      dup3\n        /* \"#utility.yul\":8233:8252   */\n      add\n        /* \"#utility.yul\":8225:8252   */\n      swap1\n      pop\n        /* \"#utility.yul\":8262:8333   */\n      tag_407\n        /* \"#utility.yul\":8330:8331   */\n      0x00\n        /* \"#utility.yul\":8319:8328   */\n      dup4\n        /* \"#utility.yul\":8315:8332   */\n      add\n        /* \"#utility.yul\":8306:8312   */\n      dup10\n        /* \"#utility.yul\":8262:8333   */\n      tag_269\n      jump\t// in\n    tag_407:\n        /* \"#utility.yul\":8343:8415   */\n      tag_408\n        /* \"#utility.yul\":8411:8413   */\n      0x20\n        /* \"#utility.yul\":8400:8409   */\n      dup4\n        /* \"#utility.yul\":8396:8414   */\n      add\n        /* \"#utility.yul\":8387:8393   */\n      dup9\n        /* \"#utility.yul\":8343:8415   */\n      tag_269\n      jump\t// in\n    tag_408:\n        /* \"#utility.yul\":8425:8513   */\n      tag_409\n        /* \"#utility.yul\":8509:8511   */\n      0x40\n        /* \"#utility.yul\":8498:8507   */\n      dup4\n        /* \"#utility.yul\":8494:8512   */\n      add\n        /* \"#utility.yul\":8485:8491   */\n      dup8\n        /* \"#utility.yul\":8425:8513   */\n      tag_295\n      jump\t// in\n    tag_409:\n        /* \"#utility.yul\":8523:8595   */\n      tag_410\n        /* \"#utility.yul\":8591:8593   */\n      0x60\n        /* \"#utility.yul\":8580:8589   */\n      dup4\n        /* \"#utility.yul\":8576:8594   */\n      add\n        /* \"#utility.yul\":8567:8573   */\n      dup7\n        /* \"#utility.yul\":8523:8595   */\n      tag_269\n      jump\t// in\n    tag_410:\n        /* \"#utility.yul\":8605:8672   */\n      tag_411\n        /* \"#utility.yul\":8667:8670   */\n      0x80\n        /* \"#utility.yul\":8656:8665   */\n      dup4\n        /* \"#utility.yul\":8652:8671   */\n      add\n        /* \"#utility.yul\":8643:8649   */\n      dup6\n        /* \"#utility.yul\":8605:8672   */\n      tag_296\n      jump\t// in\n    tag_411:\n        /* \"#utility.yul\":8682:8749   */\n      tag_412\n        /* \"#utility.yul\":8744:8747   */\n      0xa0\n        /* \"#utility.yul\":8733:8742   */\n      dup4\n        /* \"#utility.yul\":8729:8748   */\n      add\n        /* \"#utility.yul\":8720:8726   */\n      dup5\n        /* \"#utility.yul\":8682:8749   */\n      tag_296\n      jump\t// in\n    tag_412:\n        /* \"#utility.yul\":7973:8756   */\n      swap8\n      swap7\n      pop\n      pop\n      pop\n      pop\n      pop\n      pop\n      pop\n      jump\t// out\n        /* \"#utility.yul\":8762:8904   */\n    tag_297:\n        /* \"#utility.yul\":8828:8837   */\n      0x00\n        /* \"#utility.yul\":8861:8898   */\n      tag_414\n        /* \"#utility.yul\":8892:8897   */\n      dup3\n        /* \"#utility.yul\":8861:8898   */\n      tag_285\n      jump\t// in\n    tag_414:\n        /* \"#utility.yul\":8848:8898   */\n      swap1\n      pop\n        /* \"#utility.yul\":8762:8904   */\n      swap2\n      swap1\n      pop\n      jump\t// out\n        /* \"#utility.yul\":8910:9073   */\n    tag_298:\n        /* \"#utility.yul\":9013:9066   */\n      tag_416\n        /* \"#utility.yul\":9060:9065   */\n      dup2\n        /* \"#utility.yul\":9013:9066   */\n      tag_297\n      jump\t// in\n    tag_416:\n        /* \"#utility.yul\":9008:9011   */\n      dup3\n        /* \"#utility.yul\":9001:9067   */\n      mstore\n        /* \"#utility.yul\":8910:9073   */\n      pop\n      pop\n      jump\t// out\n        /* \"#utility.yul\":9079:9333   */\n    tag_80:\n        /* \"#utility.yul\":9188:9192   */\n      0x00\n        /* \"#utility.yul\":9226:9228   */\n      0x20\n        /* \"#utility.yul\":9215:9224   */\n      dup3\n        /* \"#utility.yul\":9211:9229   */\n      add\n        /* \"#utility.yul\":9203:9229   */\n      swap1\n      pop\n        /* \"#utility.yul\":9239:9326   */\n      tag_418\n        /* \"#utility.yul\":9323:9324   */\n      0x00\n        /* \"#utility.yul\":9312:9321   */\n      dup4\n        /* \"#utility.yul\":9308:9325   */\n      add\n        /* \"#utility.yul\":9299:9305   */\n      dup5\n        /* \"#utility.yul\":9239:9326   */\n      tag_298\n      jump\t// in\n    tag_418:\n        /* \"#utility.yul\":9079:9333   */\n      swap3\n      swap2\n      pop\n      pop\n      jump\t// out\n        /* \"#utility.yul\":9339:9461   */\n    tag_299:\n        /* \"#utility.yul\":9412:9436   */\n      tag_420\n        /* \"#utility.yul\":9430:9435   */\n      dup2\n        /* \"#utility.yul\":9412:9436   */\n      tag_293\n      jump\t// in\n    tag_420:\n        /* \"#utility.yul\":9405:9410   */\n      dup2\n        /* \"#utility.yul\":9402:9437   */\n      eq\n        /* \"#utility.yul\":9392:9455   */\n      tag_421\n      jumpi\n        /* \"#utility.yul\":9451:9452   */\n      0x00\n        /* \"#utility.yul\":9448:9449   */\n      dup1\n        /* \"#utility.yul\":9441:9453   */\n      revert\n        /* \"#utility.yul\":9392:9455   */\n    tag_421:\n        /* \"#utility.yul\":9339:9461   */\n      pop\n      jump\t// out\n        /* \"#utility.yul\":9467:9606   */\n    tag_300:\n        /* \"#utility.yul\":9513:9518   */\n      0x00\n        /* \"#utility.yul\":9551:9557   */\n      dup2\n        /* \"#utility.yul\":9538:9558   */\n      calldataload\n        /* \"#utility.yul\":9529:9558   */\n      swap1\n      pop\n        /* \"#utility.yul\":9567:9600   */\n      tag_423\n        /* \"#utility.yul\":9594:9599   */\n      dup2\n        /* \"#utility.yul\":9567:9600   */\n      tag_299\n      jump\t// in\n    tag_423:\n        /* \"#utility.yul\":9467:9606   */\n      swap3\n      swap2\n      pop\n      pop\n      jump\t// out\n        /* \"#utility.yul\":9612:9941   */\n    tag_87:\n        /* \"#utility.yul\":9671:9677   */\n      0x00\n        /* \"#utility.yul\":9720:9722   */\n      0x20\n        /* \"#utility.yul\":9708:9717   */\n      dup3\n        /* \"#utility.yul\":9699:9706   */\n      dup5\n        /* \"#utility.yul\":9695:9718   */\n      sub\n        /* \"#utility.yul\":9691:9723   */\n      slt\n        /* \"#utility.yul\":9688:9807   */\n      iszero\n      tag_425\n      jumpi\n        /* \"#utility.yul\":9726:9805   */\n      tag_426\n      tag_289\n      jump\t// in\n    tag_426:\n        /* \"#utility.yul\":9688:9807   */\n    tag_425:\n        /* \"#utility.yul\":9846:9847   */\n      0x00\n        /* \"#utility.yul\":9871:9924   */\n      tag_427\n        /* \"#utility.yul\":9916:9923   */\n      dup5\n        /* \"#utility.yul\":9907:9913   */\n      dup3\n        /* \"#utility.yul\":9896:9905   */\n      dup6\n        /* \"#utility.yul\":9892:9914   */\n      add\n        /* \"#utility.yul\":9871:9924   */\n      tag_300\n      jump\t// in\n    tag_427:\n        /* \"#utility.yul\":9861:9924   */\n      swap2\n      pop\n        /* \"#utility.yul\":9817:9934   */\n      pop\n        /* \"#utility.yul\":9612:9941   */\n      swap3\n      swap2\n      pop\n      pop\n      jump\t// out\n        /* \"#utility.yul\":9947:10157   */\n    tag_94:\n        /* \"#utility.yul\":10034:10038   */\n      0x00\n        /* \"#utility.yul\":10072:10074   */\n      0x20\n        /* \"#utility.yul\":10061:10070   */\n      dup3\n        /* \"#utility.yul\":10057:10075   */\n      add\n        /* \"#utility.yul\":10049:10075   */\n      swap1\n      pop\n        /* \"#utility.yul\":10085:10150   */\n      tag_429\n        /* \"#utility.yul\":10147:10148   */\n      0x00\n        /* \"#utility.yul\":10136:10145   */\n      dup4\n        /* \"#utility.yul\":10132:10149   */\n      add\n        /* \"#utility.yul\":10123:10129   */\n      dup5\n        /* \"#utility.yul\":10085:10150   */\n      tag_296\n      jump\t// in\n    tag_429:\n        /* \"#utility.yul\":9947:10157   */\n      swap3\n      swap2\n      pop\n      pop\n      jump\t// out\n        /* \"#utility.yul\":10163:10343   */\n    tag_100:\n        /* \"#utility.yul\":10211:10288   */\n      0x4e487b7100000000000000000000000000000000000000000000000000000000\n        /* \"#utility.yul\":10208:10209   */\n      0x00\n        /* \"#utility.yul\":10201:10289   */\n      mstore\n        /* \"#utility.yul\":10308:10312   */\n      0x41\n        /* \"#utility.yul\":10305:10306   */\n      0x04\n        /* \"#utility.yul\":10298:10313   */\n      mstore\n        /* \"#utility.yul\":10332:10336   */\n      0x24\n        /* \"#utility.yul\":10329:10330   */\n      0x00\n        /* \"#utility.yul\":10322:10337   */\n      revert\n        /* \"#utility.yul\":10349:10529   */\n    tag_113:\n        /* \"#utility.yul\":10397:10474   */\n      0x4e487b7100000000000000000000000000000000000000000000000000000000\n        /* \"#utility.yul\":10394:10395   */\n      0x00\n        /* \"#utility.yul\":10387:10475   */\n      mstore\n        /* \"#utility.yul\":10494:10498   */\n      0x32\n        /* \"#utility.yul\":10491:10492   */\n      0x04\n        /* \"#utility.yul\":10484:10499   */\n      mstore\n        /* \"#utility.yul\":10518:10522   */\n      0x24\n        /* \"#utility.yul\":10515:10516   */\n      0x00\n        /* \"#utility.yul\":10508:10523   */\n      revert\n        /* \"#utility.yul\":10535:10715   */\n    tag_301:\n        /* \"#utility.yul\":10583:10660   */\n      0x4e487b7100000000000000000000000000000000000000000000000000000000\n        /* \"#utility.yul\":10580:10581   */\n      0x00\n        /* \"#utility.yul\":10573:10661   */\n      mstore\n        /* \"#utility.yul\":10680:10684   */\n      0x11\n        /* \"#utility.yul\":10677:10678   */\n      0x04\n        /* \"#utility.yul\":10670:10685   */\n      mstore\n        /* \"#utility.yul\":10704:10708   */\n      0x24\n        /* \"#utility.yul\":10701:10702   */\n      0x00\n        /* \"#utility.yul\":10694:10709   */\n      revert\n        /* \"#utility.yul\":10721:10912   */\n    tag_115:\n        /* \"#utility.yul\":10761:10764   */\n      0x00\n        /* \"#utility.yul\":10780:10800   */\n      tag_434\n        /* \"#utility.yul\":10798:10799   */\n      dup3\n        /* \"#utility.yul\":10780:10800   */\n      tag_268\n      jump\t// in\n    tag_434:\n        /* \"#utility.yul\":10775:10800   */\n      swap2\n      pop\n        /* \"#utility.yul\":10814:10834   */\n      tag_435\n        /* \"#utility.yul\":10832:10833   */\n      dup4\n        /* \"#utility.yul\":10814:10834   */\n      tag_268\n      jump\t// in\n    tag_435:\n        /* \"#utility.yul\":10809:10834   */\n      swap3\n      pop\n        /* \"#utility.yul\":10857:10858   */\n      dup3\n        /* \"#utility.yul\":10854:10855   */\n      dup3\n        /* \"#utility.yul\":10850:10859   */\n      add\n        /* \"#utility.yul\":10843:10859   */\n      swap1\n      pop\n        /* \"#utility.yul\":10878:10881   */\n      dup1\n        /* \"#utility.yul\":10875:10876   */\n      dup3\n        /* \"#utility.yul\":10872:10882   */\n      gt\n        /* \"#utility.yul\":10869:10905   */\n      iszero\n      tag_436\n      jumpi\n        /* \"#utility.yul\":10885:10903   */\n      tag_437\n      tag_301\n      jump\t// in\n    tag_437:\n        /* \"#utility.yul\":10869:10905   */\n    tag_436:\n        /* \"#utility.yul\":10721:10912   */\n      swap3\n      swap2\n      pop\n      pop\n      jump\t// out\n        /* \"#utility.yul\":10918:11151   */\n    tag_117:\n        /* \"#utility.yul\":10957:10960   */\n      0x00\n        /* \"#utility.yul\":10980:11004   */\n      tag_439\n        /* \"#utility.yul\":10998:11003   */\n      dup3\n        /* \"#utility.yul\":10980:11004   */\n      tag_268\n      jump\t// in\n    tag_439:\n        /* \"#utility.yul\":10971:11004   */\n      swap2\n      pop\n        /* \"#utility.yul\":11026:11092   */\n      0xffffffffffffffffffffffffffffffffffffffffffffffffffffffffffffffff\n        /* \"#utility.yul\":11019:11024   */\n      dup3\n        /* \"#utility.yul\":11016:11093   */\n      sub\n        /* \"#utility.yul\":11013:11116   */\n      tag_440\n      jumpi\n        /* \"#utility.yul\":11096:11114   */\n      tag_441\n      tag_301\n      jump\t// in\n    tag_441:\n        /* \"#utility.yul\":11013:11116   */\n    tag_440:\n        /* \"#utility.yul\":11143:11144   */\n      0x01\n        /* \"#utility.yul\":11136:11141   */\n      dup3\n        /* \"#utility.yul\":11132:11145   */\n      add\n        /* \"#utility.yul\":11125:11145   */\n      swap1\n      pop\n        /* \"#utility.yul\":10918:11151   */\n      swap2\n      swap1\n      pop\n      jump\t// out\n        /* \"#utility.yul\":11157:11351   */\n    tag_122:\n        /* \"#utility.yul\":11197:11201   */\n      0x00\n        /* \"#utility.yul\":11217:11237   */\n      tag_443\n        /* \"#utility.yul\":11235:11236   */\n      dup3\n        /* \"#utility.yul\":11217:11237   */\n      tag_268\n      jump\t// in\n    tag_443:\n        /* \"#utility.yul\":11212:11237   */\n      swap2\n      pop\n        /* \"#utility.yul\":11251:11271   */\n      tag_444\n        /* \"#utility.yul\":11269:11270   */\n      dup4\n        /* \"#utility.yul\":11251:11271   */\n      tag_268\n      jump\t// in\n    tag_444:\n        /* \"#utility.yul\":11246:11271   */\n      swap3\n      pop\n        /* \"#utility.yul\":11295:11296   */\n      dup3\n        /* \"#utility.yul\":11292:11293   */\n      dup3\n        /* \"#utility.yul\":11288:11297   */\n      sub\n        /* \"#utility.yul\":11280:11297   */\n      swap1\n      pop\n        /* \"#utility.yul\":11319:11320   */\n      dup2\n        /* \"#utility.yul\":11313:11317   */\n      dup2\n        /* \"#utility.yul\":11310:11321   */\n      gt\n        /* \"#utility.yul\":11307:11344   */\n      iszero\n      tag_445\n      jumpi\n        /* \"#utility.yul\":11324:11342   */\n      tag_446\n      tag_301\n      jump\t// in\n    tag_446:\n        /* \"#utility.yul\":11307:11344   */\n    tag_445:\n        /* \"#utility.yul\":11157:11351   */\n      swap3\n      swap2\n      pop\n      pop\n      jump\t// out\n        /* \"#utility.yul\":11357:11526   */\n    tag_302:\n        /* \"#utility.yul\":11441:11452   */\n      0x00\n        /* \"#utility.yul\":11475:11481   */\n      dup3\n        /* \"#utility.yul\":11470:11473   */\n      dup3\n        /* \"#utility.yul\":11463:11482   */\n      mstore\n        /* \"#utility.yul\":11515:11519   */\n      0x20\n        /* \"#utility.yul\":11510:11513   */\n      dup3\n        /* \"#utility.yul\":11506:11520   */\n      add\n        /* \"#utility.yul\":11491:11520   */\n      swap1\n      pop\n        /* \"#utility.yul\":11357:11526   */\n      swap3\n      swap2\n      pop\n      pop\n      jump\t// out\n        /* \"#utility.yul\":11532:11703   */\n    tag_303:\n        /* \"#utility.yul\":11672:11695   */\n      0x596f7520617265206e6f7420746865206f776e65720000000000000000000000\n        /* \"#utility.yul\":11668:11669   */\n      0x00\n        /* \"#utility.yul\":11660:11666   */\n      dup3\n        /* \"#utility.yul\":11656:11670   */\n      add\n        /* \"#utility.yul\":11649:11696   */\n      mstore\n        /* \"#utility.yul\":11532:11703   */\n      pop\n      jump\t// out\n        /* \"#utility.yul\":11709:12075   */\n    tag_304:\n        /* \"#utility.yul\":11851:11854   */\n      0x00\n        /* \"#utility.yul\":11872:11939   */\n      tag_450\n        /* \"#utility.yul\":11936:11938   */\n      0x15\n        /* \"#utility.yul\":11931:11934   */\n      dup4\n        /* \"#utility.yul\":11872:11939   */\n      tag_302\n      jump\t// in\n    tag_450:\n        /* \"#utility.yul\":11865:11939   */\n      swap2\n      pop\n        /* \"#utility.yul\":11948:12041   */\n      tag_451\n        /* \"#utility.yul\":12037:12040   */\n      dup3\n        /* \"#utility.yul\":11948:12041   */\n      tag_303\n      jump\t// in\n    tag_451:\n        /* \"#utility.yul\":12066:12068   */\n      0x20\n        /* \"#utility.yul\":12061:12064   */\n      dup3\n        /* \"#utility.yul\":12057:12069   */\n      add\n        /* \"#utility.yul\":12050:12069   */\n      swap1\n      pop\n        /* \"#utility.yul\":11709:12075   */\n      swap2\n      swap1\n      pop\n      jump\t// out\n        /* \"#utility.yul\":12081:12500   */\n    tag_144:\n        /* \"#utility.yul\":12247:12251   */\n      0x00\n        /* \"#utility.yul\":12285:12287   */\n      0x20\n        /* \"#utility.yul\":12274:12283   */\n      dup3\n        /* \"#utility.yul\":12270:12288   */\n      add\n        /* \"#utility.yul\":12262:12288   */\n      swap1\n      pop\n        /* \"#utility.yul\":12334:12343   */\n      dup2\n        /* \"#utility.yul\":12328:12332   */\n      dup2\n        /* \"#utility.yul\":12324:12344   */\n      sub\n        /* \"#utility.yul\":12320:12321   */\n      0x00\n        /* \"#utility.yul\":12309:12318   */\n      dup4\n        /* \"#utility.yul\":12305:12322   */\n      add\n        /* \"#utility.yul\":12298:12345   */\n      mstore\n        /* \"#utility.yul\":12362:12493   */\n      tag_453\n        /* \"#utility.yul\":12488:12492   */\n      dup2\n        /* \"#utility.yul\":12362:12493   */\n      tag_304\n      jump\t// in\n    tag_453:\n        /* \"#utility.yul\":12354:12493   */\n      swap1\n      pop\n        /* \"#utility.yul\":12081:12500   */\n      swap2\n      swap1\n      pop\n      jump\t// out\n        /* \"#utility.yul\":12506:13059   */\n    tag_146:\n        /* \"#utility.yul\":12683:12687   */\n      0x00\n        /* \"#utility.yul\":12721:12724   */\n      0x80\n        /* \"#utility.yul\":12710:12719   */\n      dup3\n        /* \"#utility.yul\":12706:12725   */\n      add\n        /* \"#utility.yul\":12698:12725   */\n      swap1\n      pop\n        /* \"#utility.yul\":12735:12806   */\n      tag_455\n        /* \"#utility.yul\":12803:12804   */\n      0x00\n        /* \"#utility.yul\":12792:12801   */\n      dup4\n        /* \"#utility.yul\":12788:12805   */\n      add\n        /* \"#utility.yul\":12779:12785   */\n      dup8\n        /* \"#utility.yul\":12735:12806   */\n      tag_269\n      jump\t// in\n    tag_455:\n        /* \"#utility.yul\":12816:12888   */\n      tag_456\n        /* \"#utility.yul\":12884:12886   */\n      0x20\n        /* \"#utility.yul\":12873:12882   */\n      dup4\n        /* \"#utility.yul\":12869:12887   */\n      add\n        /* \"#utility.yul\":12860:12866   */\n      dup7\n        /* \"#utility.yul\":12816:12888   */\n      tag_269\n      jump\t// in\n    tag_456:\n        /* \"#utility.yul\":12898:12970   */\n      tag_457\n        /* \"#utility.yul\":12966:12968   */\n      0x40\n        /* \"#utility.yul\":12955:12964   */\n      dup4\n        /* \"#utility.yul\":12951:12969   */\n      add\n        /* \"#utility.yul\":12942:12948   */\n      dup6\n        /* \"#utility.yul\":12898:12970   */\n      tag_294\n      jump\t// in\n    tag_457:\n        /* \"#utility.yul\":12980:13052   */\n      tag_458\n        /* \"#utility.yul\":13048:13050   */\n      0x60\n        /* \"#utility.yul\":13037:13046   */\n      dup4\n        /* \"#utility.yul\":13033:13051   */\n      add\n        /* \"#utility.yul\":13024:13030   */\n      dup5\n        /* \"#utility.yul\":12980:13052   */\n      tag_269\n      jump\t// in\n    tag_458:\n        /* \"#utility.yul\":12506:13059   */\n      swap6\n      swap5\n      pop\n      pop\n      pop\n      pop\n      pop\n      jump\t// out\n        /* \"#utility.yul\":13065:13243   */\n    tag_305:\n        /* \"#utility.yul\":13205:13235   */\n      0x5072696365206d757374206265206174206c6561737420312077656900000000\n        /* \"#utility.yul\":13201:13202   */\n      0x00\n        /* \"#utility.yul\":13193:13199   */\n      dup3\n        /* \"#utility.yul\":13189:13203   */\n      add\n        /* \"#utility.yul\":13182:13236   */\n      mstore\n        /* \"#utility.yul\":13065:13243   */\n      pop\n      jump\t// out\n        /* \"#utility.yul\":13249:13615   */\n    tag_306:\n        /* \"#utility.yul\":13391:13394   */\n      0x00\n        /* \"#utility.yul\":13412:13479   */\n      tag_461\n        /* \"#utility.yul\":13476:13478   */\n      0x1c\n        /* \"#utility.yul\":13471:13474   */\n      dup4\n        /* \"#utility.yul\":13412:13479   */\n      tag_302\n      jump\t// in\n    tag_461:\n        /* \"#utility.yul\":13405:13479   */\n      swap2\n      pop\n        /* \"#utility.yul\":13488:13581   */\n      tag_462\n        /* \"#utility.yul\":13577:13580   */\n      dup3\n        /* \"#utility.yul\":13488:13581   */\n      tag_305\n      jump\t// in\n    tag_462:\n        /* \"#utility.yul\":13606:13608   */\n      0x20\n        /* \"#utility.yul\":13601:13604   */\n      dup3\n        /* \"#utility.yul\":13597:13609   */\n      add\n        /* \"#utility.yul\":13590:13609   */\n      swap1\n      pop\n        /* \"#utility.yul\":13249:13615   */\n      swap2\n      swap1\n      pop\n      jump\t// out\n        /* \"#utility.yul\":13621:14040   */\n    tag_155:\n        /* \"#utility.yul\":13787:13791   */\n      0x00\n        /* \"#utility.yul\":13825:13827   */\n      0x20\n        /* \"#utility.yul\":13814:13823   */\n      dup3\n        /* \"#utility.yul\":13810:13828   */\n      add\n        /* \"#utility.yul\":13802:13828   */\n      swap1\n      pop\n        /* \"#utility.yul\":13874:13883   */\n      dup2\n        /* \"#utility.yul\":13868:13872   */\n      dup2\n        /* \"#utility.yul\":13864:13884   */\n      sub\n        /* \"#utility.yul\":13860:13861   */\n      0x00\n        /* \"#utility.yul\":13849:13858   */\n      dup4\n        /* \"#utility.yul\":13845:13862   */\n      add\n        /* \"#utility.yul\":13838:13885   */\n      mstore\n        /* \"#utility.yul\":13902:14033   */\n      tag_464\n        /* \"#utility.yul\":14028:14032   */\n      dup2\n        /* \"#utility.yul\":13902:14033   */\n      tag_306\n      jump\t// in\n    tag_464:\n        /* \"#utility.yul\":13894:14033   */\n      swap1\n      pop\n        /* \"#utility.yul\":13621:14040   */\n      swap2\n      swap1\n      pop\n      jump\t// out\n        /* \"#utility.yul\":14046:14189   */\n    tag_307:\n        /* \"#utility.yul\":14103:14108   */\n      0x00\n        /* \"#utility.yul\":14134:14140   */\n      dup2\n        /* \"#utility.yul\":14128:14141   */\n      mload\n        /* \"#utility.yul\":14119:14141   */\n      swap1\n      pop\n        /* \"#utility.yul\":14150:14183   */\n      tag_466\n        /* \"#utility.yul\":14177:14182   */\n      dup2\n        /* \"#utility.yul\":14150:14183   */\n      tag_299\n      jump\t// in\n    tag_466:\n        /* \"#utility.yul\":14046:14189   */\n      swap3\n      swap2\n      pop\n      pop\n      jump\t// out\n        /* \"#utility.yul\":14195:14546   */\n    tag_163:\n        /* \"#utility.yul\":14265:14271   */\n      0x00\n        /* \"#utility.yul\":14314:14316   */\n      0x20\n        /* \"#utility.yul\":14302:14311   */\n      dup3\n        /* \"#utility.yul\":14293:14300   */\n      dup5\n        /* \"#utility.yul\":14289:14312   */\n      sub\n        /* \"#utility.yul\":14285:14317   */\n      slt\n        /* \"#utility.yul\":14282:14401   */\n      iszero\n      tag_468\n      jumpi\n        /* \"#utility.yul\":14320:14399   */\n      tag_469\n      tag_289\n      jump\t// in\n    tag_469:\n        /* \"#utility.yul\":14282:14401   */\n    tag_468:\n        /* \"#utility.yul\":14440:14441   */\n      0x00\n        /* \"#utility.yul\":14465:14529   */\n      tag_470\n        /* \"#utility.yul\":14521:14528   */\n      dup5\n        /* \"#utility.yul\":14512:14518   */\n      dup3\n        /* \"#utility.yul\":14501:14510   */\n      dup6\n        /* \"#utility.yul\":14497:14519   */\n      add\n        /* \"#utility.yul\":14465:14529   */\n      tag_307\n      jump\t// in\n    tag_470:\n        /* \"#utility.yul\":14455:14529   */\n      swap2\n      pop\n        /* \"#utility.yul\":14411:14539   */\n      pop\n        /* \"#utility.yul\":14195:14546   */\n      swap3\n      swap2\n      pop\n      pop\n      jump\t// out\n        /* \"#utility.yul\":14552:14884   */\n    tag_167:\n        /* \"#utility.yul\":14673:14677   */\n      0x00\n        /* \"#utility.yul\":14711:14713   */\n      0x40\n        /* \"#utility.yul\":14700:14709   */\n      dup3\n        /* \"#utility.yul\":14696:14714   */\n      add\n        /* \"#utility.yul\":14688:14714   */\n      swap1\n      pop\n        /* \"#utility.yul\":14724:14795   */\n      tag_472\n        /* \"#utility.yul\":14792:14793   */\n      0x00\n        /* \"#utility.yul\":14781:14790   */\n      dup4\n        /* \"#utility.yul\":14777:14794   */\n      add\n        /* \"#utility.yul\":14768:14774   */\n      dup6\n        /* \"#utility.yul\":14724:14795   */\n      tag_294\n      jump\t// in\n    tag_472:\n        /* \"#utility.yul\":14805:14877   */\n      tag_473\n        /* \"#utility.yul\":14873:14875   */\n      0x20\n        /* \"#utility.yul\":14862:14871   */\n      dup4\n        /* \"#utility.yul\":14858:14876   */\n      add\n        /* \"#utility.yul\":14849:14855   */\n      dup5\n        /* \"#utility.yul\":14805:14877   */\n      tag_294\n      jump\t// in\n    tag_473:\n        /* \"#utility.yul\":14552:14884   */\n      swap4\n      swap3\n      pop\n      pop\n      pop\n      jump\t// out\n        /* \"#utility.yul\":14890:15006   */\n    tag_308:\n        /* \"#utility.yul\":14960:14981   */\n      tag_475\n        /* \"#utility.yul\":14975:14980   */\n      dup2\n        /* \"#utility.yul\":14960:14981   */\n      tag_277\n      jump\t// in\n    tag_475:\n        /* \"#utility.yul\":14953:14958   */\n      dup2\n        /* \"#utility.yul\":14950:14982   */\n      eq\n        /* \"#utility.yul\":14940:15000   */\n      tag_476\n      jumpi\n        /* \"#utility.yul\":14996:14997   */\n      0x00\n        /* \"#utility.yul\":14993:14994   */\n      dup1\n        /* \"#utility.yul\":14986:14998   */\n      revert\n        /* \"#utility.yul\":14940:15000   */\n    tag_476:\n        /* \"#utility.yul\":14890:15006   */\n      pop\n      jump\t// out\n        /* \"#utility.yul\":15012:15149   */\n    tag_309:\n        /* \"#utility.yul\":15066:15071   */\n      0x00\n        /* \"#utility.yul\":15097:15103   */\n      dup2\n        /* \"#utility.yul\":15091:15104   */\n      mload\n        /* \"#utility.yul\":15082:15104   */\n      swap1\n      pop\n        /* \"#utility.yul\":15113:15143   */\n      tag_478\n        /* \"#utility.yul\":15137:15142   */\n      dup2\n        /* \"#utility.yul\":15113:15143   */\n      tag_308\n      jump\t// in\n    tag_478:\n        /* \"#utility.yul\":15012:15149   */\n      swap3\n      swap2\n      pop\n      pop\n      jump\t// out\n        /* \"#utility.yul\":15155:15500   */\n    tag_171:\n        /* \"#utility.yul\":15222:15228   */\n      0x00\n        /* \"#utility.yul\":15271:15273   */\n      0x20\n        /* \"#utility.yul\":15259:15268   */\n      dup3\n        /* \"#utility.yul\":15250:15257   */\n      dup5\n        /* \"#utility.yul\":15246:15269   */\n      sub\n        /* \"#utility.yul\":15242:15274   */\n      slt\n        /* \"#utility.yul\":15239:15358   */\n      iszero\n      tag_480\n      jumpi\n        /* \"#utility.yul\":15277:15356   */\n      tag_481\n      tag_289\n      jump\t// in\n    tag_481:\n        /* \"#utility.yul\":15239:15358   */\n    tag_480:\n        /* \"#utility.yul\":15397:15398   */\n      0x00\n        /* \"#utility.yul\":15422:15483   */\n      tag_482\n        /* \"#utility.yul\":15475:15482   */\n      dup5\n        /* \"#utility.yul\":15466:15472   */\n      dup3\n        /* \"#utility.yul\":15455:15464   */\n      dup6\n        /* \"#utility.yul\":15451:15473   */\n      add\n        /* \"#utility.yul\":15422:15483   */\n      tag_309\n      jump\t// in\n    tag_482:\n        /* \"#utility.yul\":15412:15483   */\n      swap2\n      pop\n        /* \"#utility.yul\":15368:15493   */\n      pop\n        /* \"#utility.yul\":15155:15500   */\n      swap3\n      swap2\n      pop\n      pop\n      jump\t// out\n        /* \"#utility.yul\":15506:15680   */\n    tag_310:\n        /* \"#utility.yul\":15646:15672   */\n      0x4d61726b6574706c616365206e6f7420617070726f7665640000000000000000\n        /* \"#utility.yul\":15642:15643   */\n      0x00\n        /* \"#utility.yul\":15634:15640   */\n      dup3\n        /* \"#utility.yul\":15630:15644   */\n      add\n        /* \"#utility.yul\":15623:15673   */\n      mstore\n        /* \"#utility.yul\":15506:15680   */\n      pop\n      jump\t// out\n        /* \"#utility.yul\":15686:16052   */\n    tag_311:\n        /* \"#utility.yul\":15828:15831   */\n      0x00\n        /* \"#utility.yul\":15849:15916   */\n      tag_485\n        /* \"#utility.yul\":15913:15915   */\n      0x18\n        /* \"#utility.yul\":15908:15911   */\n      dup4\n        /* \"#utility.yul\":15849:15916   */\n      tag_302\n      jump\t// in\n    tag_485:\n        /* \"#utility.yul\":15842:15916   */\n      swap2\n      pop\n        /* \"#utility.yul\":15925:16018   */\n      tag_486\n        /* \"#utility.yul\":16014:16017   */\n      dup3\n        /* \"#utility.yul\":15925:16018   */\n      tag_310\n      jump\t// in\n    tag_486:\n        /* \"#utility.yul\":16043:16045   */\n      0x20\n        /* \"#utility.yul\":16038:16041   */\n      dup3\n        /* \"#utility.yul\":16034:16046   */\n      add\n        /* \"#utility.yul\":16027:16046   */\n      swap1\n      pop\n        /* \"#utility.yul\":15686:16052   */\n      swap2\n      swap1\n      pop\n      jump\t// out\n        /* \"#utility.yul\":16058:16477   */\n    tag_174:\n        /* \"#utility.yul\":16224:16228   */\n      0x00\n        /* \"#utility.yul\":16262:16264   */\n      0x20\n        /* \"#utility.yul\":16251:16260   */\n      dup3\n        /* \"#utility.yul\":16247:16265   */\n      add\n        /* \"#utility.yul\":16239:16265   */\n      swap1\n      pop\n        /* \"#utility.yul\":16311:16320   */\n      dup2\n        /* \"#utility.yul\":16305:16309   */\n      dup2\n        /* \"#utility.yul\":16301:16321   */\n      sub\n        /* \"#utility.yul\":16297:16298   */\n      0x00\n        /* \"#utility.yul\":16286:16295   */\n      dup4\n        /* \"#utility.yul\":16282:16299   */\n      add\n        /* \"#utility.yul\":16275:16322   */\n      mstore\n        /* \"#utility.yul\":16339:16470   */\n      tag_488\n        /* \"#utility.yul\":16465:16469   */\n      dup2\n        /* \"#utility.yul\":16339:16470   */\n      tag_311\n      jump\t// in\n    tag_488:\n        /* \"#utility.yul\":16331:16470   */\n      swap1\n      pop\n        /* \"#utility.yul\":16058:16477   */\n      swap2\n      swap1\n      pop\n      jump\t// out\n        /* \"#utility.yul\":16483:16815   */\n    tag_176:\n        /* \"#utility.yul\":16604:16608   */\n      0x00\n        /* \"#utility.yul\":16642:16644   */\n      0x40\n        /* \"#utility.yul\":16631:16640   */\n      dup3\n        /* \"#utility.yul\":16627:16645   */\n      add\n        /* \"#utility.yul\":16619:16645   */\n      swap1\n      pop\n        /* \"#utility.yul\":16655:16726   */\n      tag_490\n        /* \"#utility.yul\":16723:16724   */\n      0x00\n        /* \"#utility.yul\":16712:16721   */\n      dup4\n        /* \"#utility.yul\":16708:16725   */\n      add\n        /* \"#utility.yul\":16699:16705   */\n      dup6\n        /* \"#utility.yul\":16655:16726   */\n      tag_294\n      jump\t// in\n    tag_490:\n        /* \"#utility.yul\":16736:16808   */\n      tag_491\n        /* \"#utility.yul\":16804:16806   */\n      0x20\n        /* \"#utility.yul\":16793:16802   */\n      dup4\n        /* \"#utility.yul\":16789:16807   */\n      add\n        /* \"#utility.yul\":16780:16786   */\n      dup5\n        /* \"#utility.yul\":16736:16808   */\n      tag_269\n      jump\t// in\n    tag_491:\n        /* \"#utility.yul\":16483:16815   */\n      swap4\n      swap3\n      pop\n      pop\n      pop\n      jump\t// out\n        /* \"#utility.yul\":16821:16991   */\n    tag_312:\n        /* \"#utility.yul\":16961:16983   */\n      0x4974656d206973206e6f7420666f722073616c65000000000000000000000000\n        /* \"#utility.yul\":16957:16958   */\n      0x00\n        /* \"#utility.yul\":16949:16955   */\n      dup3\n        /* \"#utility.yul\":16945:16959   */\n      add\n        /* \"#utility.yul\":16938:16984   */\n      mstore\n        /* \"#utility.yul\":16821:16991   */\n      pop\n      jump\t// out\n        /* \"#utility.yul\":16997:17363   */\n    tag_313:\n        /* \"#utility.yul\":17139:17142   */\n      0x00\n        /* \"#utility.yul\":17160:17227   */\n      tag_494\n        /* \"#utility.yul\":17224:17226   */\n      0x14\n        /* \"#utility.yul\":17219:17222   */\n      dup4\n        /* \"#utility.yul\":17160:17227   */\n      tag_302\n      jump\t// in\n    tag_494:\n        /* \"#utility.yul\":17153:17227   */\n      swap2\n      pop\n        /* \"#utility.yul\":17236:17329   */\n      tag_495\n        /* \"#utility.yul\":17325:17328   */\n      dup3\n        /* \"#utility.yul\":17236:17329   */\n      tag_312\n      jump\t// in\n    tag_495:\n        /* \"#utility.yul\":17354:17356   */\n      0x20\n        /* \"#utility.yul\":17349:17352   */\n      dup3\n        /* \"#utility.yul\":17345:17357   */\n      add\n        /* \"#utility.yul\":17338:17357   */\n      swap1\n      pop\n        /* \"#utility.yul\":16997:17363   */\n      swap2\n      swap1\n      pop\n      jump\t// out\n        /* \"#utility.yul\":17369:17788   */\n    tag_202:\n        /* \"#utility.yul\":17535:17539   */\n      0x00\n        /* \"#utility.yul\":17573:17575   */\n      0x20\n        /* \"#utility.yul\":17562:17571   */\n      dup3\n        /* \"#utility.yul\":17558:17576   */\n      add\n        /* \"#utility.yul\":17550:17576   */\n      swap1\n      pop\n        /* \"#utility.yul\":17622:17631   */\n      dup2\n        /* \"#utility.yul\":17616:17620   */\n      dup2\n        /* \"#utility.yul\":17612:17632   */\n      sub\n        /* \"#utility.yul\":17608:17609   */\n      0x00\n        /* \"#utility.yul\":17597:17606   */\n      dup4\n        /* \"#utility.yul\":17593:17610   */\n      add\n        /* \"#utility.yul\":17586:17633   */\n      mstore\n        /* \"#utility.yul\":17650:17781   */\n      tag_497\n        /* \"#utility.yul\":17776:17780   */\n      dup2\n        /* \"#utility.yul\":17650:17781   */\n      tag_313\n      jump\t// in\n    tag_497:\n        /* \"#utility.yul\":17642:17781   */\n      swap1\n      pop\n        /* \"#utility.yul\":17369:17788   */\n      swap2\n      swap1\n      pop\n      jump\t// out\n        /* \"#utility.yul\":17794:17937   */\n    tag_314:\n        /* \"#utility.yul\":17851:17856   */\n      0x00\n        /* \"#utility.yul\":17882:17888   */\n      dup2\n        /* \"#utility.yul\":17876:17889   */\n      mload\n        /* \"#utility.yul\":17867:17889   */\n      swap1\n      pop\n        /* \"#utility.yul\":17898:17931   */\n      tag_499\n        /* \"#utility.yul\":17925:17930   */\n      dup2\n        /* \"#utility.yul\":17898:17931   */\n      tag_291\n      jump\t// in\n    tag_499:\n        /* \"#utility.yul\":17794:17937   */\n      swap3\n      swap2\n      pop\n      pop\n      jump\t// out\n        /* \"#utility.yul\":17943:18294   */\n    tag_209:\n        /* \"#utility.yul\":18013:18019   */\n      0x00\n        /* \"#utility.yul\":18062:18064   */\n      0x20\n        /* \"#utility.yul\":18050:18059   */\n      dup3\n        /* \"#utility.yul\":18041:18048   */\n      dup5\n        /* \"#utility.yul\":18037:18060   */\n      sub\n        /* \"#utility.yul\":18033:18065   */\n      slt\n        /* \"#utility.yul\":18030:18149   */\n      iszero\n      tag_501\n      jumpi\n        /* \"#utility.yul\":18068:18147   */\n      tag_502\n      tag_289\n      jump\t// in\n    tag_502:\n        /* \"#utility.yul\":18030:18149   */\n    tag_501:\n        /* \"#utility.yul\":18188:18189   */\n      0x00\n        /* \"#utility.yul\":18213:18277   */\n      tag_503\n        /* \"#utility.yul\":18269:18276   */\n      dup5\n        /* \"#utility.yul\":18260:18266   */\n      dup3\n        /* \"#utility.yul\":18249:18258   */\n      dup6\n        /* \"#utility.yul\":18245:18267   */\n      add\n        /* \"#utility.yul\":18213:18277   */\n      tag_314\n      jump\t// in\n    tag_503:\n        /* \"#utility.yul\":18203:18277   */\n      swap2\n      pop\n        /* \"#utility.yul\":18159:18287   */\n      pop\n        /* \"#utility.yul\":17943:18294   */\n      swap3\n      swap2\n      pop\n      pop\n      jump\t// out\n        /* \"#utility.yul\":18300:18468   */\n    tag_315:\n        /* \"#utility.yul\":18440:18460   */\n      0x496e73756666696369656e742066756e64730000000000000000000000000000\n        /* \"#utility.yul\":18436:18437   */\n      0x00\n        /* \"#utility.yul\":18428:18434   */\n      dup3\n        /* \"#utility.yul\":18424:18438   */\n      add\n        /* \"#utility.yul\":18417:18461   */\n      mstore\n        /* \"#utility.yul\":18300:18468   */\n      pop\n      jump\t// out\n        /* \"#utility.yul\":18474:18840   */\n    tag_316:\n        /* \"#utility.yul\":18616:18619   */\n      0x00\n        /* \"#utility.yul\":18637:18704   */\n      tag_506\n        /* \"#utility.yul\":18701:18703   */\n      0x12\n        /* \"#utility.yul\":18696:18699   */\n      dup4\n        /* \"#utility.yul\":18637:18704   */\n      tag_302\n      jump\t// in\n    tag_506:\n        /* \"#utility.yul\":18630:18704   */\n      swap2\n      pop\n        /* \"#utility.yul\":18713:18806   */\n      tag_507\n        /* \"#utility.yul\":18802:18805   */\n      dup3\n        /* \"#utility.yul\":18713:18806   */\n      tag_315\n      jump\t// in\n    tag_507:\n        /* \"#utility.yul\":18831:18833   */\n      0x20\n        /* \"#utility.yul\":18826:18829   */\n      dup3\n        /* \"#utility.yul\":18822:18834   */\n      add\n        /* \"#utility.yul\":18815:18834   */\n      swap1\n      pop\n        /* \"#utility.yul\":18474:18840   */\n      swap2\n      swap1\n      pop\n      jump\t// out\n        /* \"#utility.yul\":18846:19265   */\n    tag_212:\n        /* \"#utility.yul\":19012:19016   */\n      0x00\n        /* \"#utility.yul\":19050:19052   */\n      0x20\n        /* \"#utility.yul\":19039:19048   */\n      dup3\n        /* \"#utility.yul\":19035:19053   */\n      add\n        /* \"#utility.yul\":19027:19053   */\n      swap1\n      pop\n        /* \"#utility.yul\":19099:19108   */\n      dup2\n        /* \"#utility.yul\":19093:19097   */\n      dup2\n        /* \"#utility.yul\":19089:19109   */\n      sub\n        /* \"#utility.yul\":19085:19086   */\n      0x00\n        /* \"#utility.yul\":19074:19083   */\n      dup4\n        /* \"#utility.yul\":19070:19087   */\n      add\n        /* \"#utility.yul\":19063:19110   */\n      mstore\n        /* \"#utility.yul\":19127:19258   */\n      tag_509\n        /* \"#utility.yul\":19253:19257   */\n      dup2\n        /* \"#utility.yul\":19127:19258   */\n      tag_316\n      jump\t// in\n    tag_509:\n        /* \"#utility.yul\":19119:19258   */\n      swap1\n      pop\n        /* \"#utility.yul\":18846:19265   */\n      swap2\n      swap1\n      pop\n      jump\t// out\n        /* \"#utility.yul\":19271:19443   */\n    tag_317:\n        /* \"#utility.yul\":19411:19435   */\n      0x496e73756666696369656e7420616c6c6f77616e636500000000000000000000\n        /* \"#utility.yul\":19407:19408   */\n      0x00\n        /* \"#utility.yul\":19399:19405   */\n      dup3\n        /* \"#utility.yul\":19395:19409   */\n      add\n        /* \"#utility.yul\":19388:19436   */\n      mstore\n        /* \"#utility.yul\":19271:19443   */\n      pop\n      jump\t// out\n        /* \"#utility.yul\":19449:19815   */\n    tag_318:\n        /* \"#utility.yul\":19591:19594   */\n      0x00\n        /* \"#utility.yul\":19612:19679   */\n      tag_512\n        /* \"#utility.yul\":19676:19678   */\n      0x16\n        /* \"#utility.yul\":19671:19674   */\n      dup4\n        /* \"#utility.yul\":19612:19679   */\n      tag_302\n      jump\t// in\n    tag_512:\n        /* \"#utility.yul\":19605:19679   */\n      swap2\n      pop\n        /* \"#utility.yul\":19688:19781   */\n      tag_513\n        /* \"#utility.yul\":19777:19780   */\n      dup3\n        /* \"#utility.yul\":19688:19781   */\n      tag_317\n      jump\t// in\n    tag_513:\n        /* \"#utility.yul\":19806:19808   */\n      0x20\n        /* \"#utility.yul\":19801:19804   */\n      dup3\n        /* \"#utility.yul\":19797:19809   */\n      add\n        /* \"#utility.yul\":19790:19809   */\n      swap1\n      pop\n        /* \"#utility.yul\":19449:19815   */\n      swap2\n      swap1\n      pop\n      jump\t// out\n        /* \"#utility.yul\":19821:20240   */\n    tag_219:\n        /* \"#utility.yul\":19987:19991   */\n      0x00\n        /* \"#utility.yul\":20025:20027   */\n      0x20\n        /* \"#utility.yul\":20014:20023   */\n      dup3\n        /* \"#utility.yul\":20010:20028   */\n      add\n        /* \"#utility.yul\":20002:20028   */\n      swap1\n      pop\n        /* \"#utility.yul\":20074:20083   */\n      dup2\n        /* \"#utility.yul\":20068:20072   */\n      dup2\n        /* \"#utility.yul\":20064:20084   */\n      sub\n        /* \"#utility.yul\":20060:20061   */\n      0x00\n        /* \"#utility.yul\":20049:20058   */\n      dup4\n        /* \"#utility.yul\":20045:20062   */\n      add\n        /* \"#utility.yul\":20038:20085   */\n      mstore\n        /* \"#utility.yul\":20102:20233   */\n      tag_515\n        /* \"#utility.yul\":20228:20232   */\n      dup2\n        /* \"#utility.yul\":20102:20233   */\n      tag_318\n      jump\t// in\n    tag_515:\n        /* \"#utility.yul\":20094:20233   */\n      swap1\n      pop\n        /* \"#utility.yul\":19821:20240   */\n      swap2\n      swap1\n      pop\n      jump\t// out\n        /* \"#utility.yul\":20246:20656   */\n    tag_221:\n        /* \"#utility.yul\":20286:20293   */\n      0x00\n        /* \"#utility.yul\":20309:20329   */\n      tag_517\n        /* \"#utility.yul\":20327:20328   */\n      dup3\n        /* \"#utility.yul\":20309:20329   */\n      tag_268\n      jump\t// in\n    tag_517:\n        /* \"#utility.yul\":20304:20329   */\n      swap2\n      pop\n        /* \"#utility.yul\":20343:20363   */\n      tag_518\n        /* \"#utility.yul\":20361:20362   */\n      dup4\n        /* \"#utility.yul\":20343:20363   */\n      tag_268\n      jump\t// in\n    tag_518:\n        /* \"#utility.yul\":20338:20363   */\n      swap3\n      pop\n        /* \"#utility.yul\":20398:20399   */\n      dup3\n        /* \"#utility.yul\":20395:20396   */\n      dup3\n        /* \"#utility.yul\":20391:20400   */\n      mul\n        /* \"#utility.yul\":20420:20450   */\n      tag_519\n        /* \"#utility.yul\":20438:20449   */\n      dup2\n        /* \"#utility.yul\":20420:20450   */\n      tag_268\n      jump\t// in\n    tag_519:\n        /* \"#utility.yul\":20409:20450   */\n      swap2\n      pop\n        /* \"#utility.yul\":20599:20600   */\n      dup3\n        /* \"#utility.yul\":20590:20597   */\n      dup3\n        /* \"#utility.yul\":20586:20601   */\n      div\n        /* \"#utility.yul\":20583:20584   */\n      dup5\n        /* \"#utility.yul\":20580:20602   */\n      eq\n        /* \"#utility.yul\":20560:20561   */\n      dup4\n        /* \"#utility.yul\":20553:20562   */\n      iszero\n        /* \"#utility.yul\":20533:20616   */\n      or\n        /* \"#utility.yul\":20510:20649   */\n      tag_520\n      jumpi\n        /* \"#utility.yul\":20629:20647   */\n      tag_521\n      tag_301\n      jump\t// in\n    tag_521:\n        /* \"#utility.yul\":20510:20649   */\n    tag_520:\n        /* \"#utility.yul\":20294:20656   */\n      pop\n        /* \"#utility.yul\":20246:20656   */\n      swap3\n      swap2\n      pop\n      pop\n      jump\t// out\n        /* \"#utility.yul\":20662:20842   */\n    tag_319:\n        /* \"#utility.yul\":20710:20787   */\n      0x4e487b7100000000000000000000000000000000000000000000000000000000\n        /* \"#utility.yul\":20707:20708   */\n      0x00\n        /* \"#utility.yul\":20700:20788   */\n      mstore\n        /* \"#utility.yul\":20807:20811   */\n      0x12\n        /* \"#utility.yul\":20804:20805   */\n      0x04\n        /* \"#utility.yul\":20797:20812   */\n      mstore\n        /* \"#utility.yul\":20831:20835   */\n      0x24\n        /* \"#utility.yul\":20828:20829   */\n      0x00\n        /* \"#utility.yul\":20821:20836   */\n      revert\n        /* \"#utility.yul\":20848:21033   */\n    tag_223:\n        /* \"#utility.yul\":20888:20889   */\n      0x00\n        /* \"#utility.yul\":20905:20925   */\n      tag_524\n        /* \"#utility.yul\":20923:20924   */\n      dup3\n        /* \"#utility.yul\":20905:20925   */\n      tag_268\n      jump\t// in\n    tag_524:\n        /* \"#utility.yul\":20900:20925   */\n      swap2\n      pop\n        /* \"#utility.yul\":20939:20959   */\n      tag_525\n        /* \"#utility.yul\":20957:20958   */\n      dup4\n        /* \"#utility.yul\":20939:20959   */\n      tag_268\n      jump\t// in\n    tag_525:\n        /* \"#utility.yul\":20934:20959   */\n      swap3\n      pop\n        /* \"#utility.yul\":20978:20979   */\n      dup3\n        /* \"#utility.yul\":20968:21003   */\n      tag_526\n      jumpi\n        /* \"#utility.yul\":20983:21001   */\n      tag_527\n      tag_319\n      jump\t// in\n    tag_527:\n        /* \"#utility.yul\":20968:21003   */\n    tag_526:\n        /* \"#utility.yul\":21025:21026   */\n      dup3\n        /* \"#utility.yul\":21022:21023   */\n      dup3\n        /* \"#utility.yul\":21018:21027   */\n      div\n        /* \"#utility.yul\":21013:21027   */\n      swap1\n      pop\n        /* \"#utility.yul\":20848:21033   */\n      swap3\n      swap2\n      pop\n      pop\n      jump\t// out\n        /* \"#utility.yul\":21039:21173   */\n    tag_320:\n        /* \"#utility.yul\":21097:21106   */\n      0x00\n        /* \"#utility.yul\":21130:21167   */\n      tag_529\n        /* \"#utility.yul\":21161:21166   */\n      dup3\n        /* \"#utility.yul\":21130:21167   */\n      tag_285\n      jump\t// in\n    tag_529:\n        /* \"#utility.yul\":21117:21167   */\n      swap1\n      pop\n        /* \"#utility.yul\":21039:21173   */\n      swap2\n      swap1\n      pop\n      jump\t// out\n        /* \"#utility.yul\":21179:21326   */\n    tag_321:\n        /* \"#utility.yul\":21274:21319   */\n      tag_531\n        /* \"#utility.yul\":21313:21318   */\n      dup2\n        /* \"#utility.yul\":21274:21319   */\n      tag_320\n      jump\t// in\n    tag_531:\n        /* \"#utility.yul\":21269:21272   */\n      dup3\n        /* \"#utility.yul\":21262:21320   */\n      mstore\n        /* \"#utility.yul\":21179:21326   */\n      pop\n      pop\n      jump\t// out\n        /* \"#utility.yul\":21332:21790   */\n    tag_227:\n        /* \"#utility.yul\":21489:21493   */\n      0x00\n        /* \"#utility.yul\":21527:21529   */\n      0x60\n        /* \"#utility.yul\":21516:21525   */\n      dup3\n        /* \"#utility.yul\":21512:21530   */\n      add\n        /* \"#utility.yul\":21504:21530   */\n      swap1\n      pop\n        /* \"#utility.yul\":21540:21619   */\n      tag_533\n        /* \"#utility.yul\":21616:21617   */\n      0x00\n        /* \"#utility.yul\":21605:21614   */\n      dup4\n        /* \"#utility.yul\":21601:21618   */\n      add\n        /* \"#utility.yul\":21592:21598   */\n      dup7\n        /* \"#utility.yul\":21540:21619   */\n      tag_321\n      jump\t// in\n    tag_533:\n        /* \"#utility.yul\":21629:21701   */\n      tag_534\n        /* \"#utility.yul\":21697:21699   */\n      0x20\n        /* \"#utility.yul\":21686:21695   */\n      dup4\n        /* \"#utility.yul\":21682:21700   */\n      add\n        /* \"#utility.yul\":21673:21679   */\n      dup6\n        /* \"#utility.yul\":21629:21701   */\n      tag_294\n      jump\t// in\n    tag_534:\n        /* \"#utility.yul\":21711:21783   */\n      tag_535\n        /* \"#utility.yul\":21779:21781   */\n      0x40\n        /* \"#utility.yul\":21768:21777   */\n      dup4\n        /* \"#utility.yul\":21764:21782   */\n      add\n        /* \"#utility.yul\":21755:21761   */\n      dup5\n        /* \"#utility.yul\":21711:21783   */\n      tag_269\n      jump\t// in\n    tag_535:\n        /* \"#utility.yul\":21332:21790   */\n      swap5\n      swap4\n      pop\n      pop\n      pop\n      pop\n      jump\t// out\n        /* \"#utility.yul\":21796:22238   */\n    tag_233:\n        /* \"#utility.yul\":21945:21949   */\n      0x00\n        /* \"#utility.yul\":21983:21985   */\n      0x60\n        /* \"#utility.yul\":21972:21981   */\n      dup3\n        /* \"#utility.yul\":21968:21986   */\n      add\n        /* \"#utility.yul\":21960:21986   */\n      swap1\n      pop\n        /* \"#utility.yul\":21996:22067   */\n      tag_537\n        /* \"#utility.yul\":22064:22065   */\n      0x00\n        /* \"#utility.yul\":22053:22062   */\n      dup4\n        /* \"#utility.yul\":22049:22066   */\n      add\n        /* \"#utility.yul\":22040:22046   */\n      dup7\n        /* \"#utility.yul\":21996:22067   */\n      tag_294\n      jump\t// in\n    tag_537:\n        /* \"#utility.yul\":22077:22149   */\n      tag_538\n        /* \"#utility.yul\":22145:22147   */\n      0x20\n        /* \"#utility.yul\":22134:22143   */\n      dup4\n        /* \"#utility.yul\":22130:22148   */\n      add\n        /* \"#utility.yul\":22121:22127   */\n      dup6\n        /* \"#utility.yul\":22077:22149   */\n      tag_294\n      jump\t// in\n    tag_538:\n        /* \"#utility.yul\":22159:22231   */\n      tag_539\n        /* \"#utility.yul\":22227:22229   */\n      0x40\n        /* \"#utility.yul\":22216:22225   */\n      dup4\n        /* \"#utility.yul\":22212:22230   */\n      add\n        /* \"#utility.yul\":22203:22209   */\n      dup5\n        /* \"#utility.yul\":22159:22231   */\n      tag_269\n      jump\t// in\n    tag_539:\n        /* \"#utility.yul\":21796:22238   */\n      swap5\n      swap4\n      pop\n      pop\n      pop\n      pop\n      jump\t// out\n        /* \"#utility.yul\":22244:22413   */\n    tag_322:\n        /* \"#utility.yul\":22384:22405   */\n      0x466565207472616e73666572206661696c656400000000000000000000000000\n        /* \"#utility.yul\":22380:22381   */\n      0x00\n        /* \"#utility.yul\":22372:22378   */\n      dup3\n        /* \"#utility.yul\":22368:22382   */\n      add\n        /* \"#utility.yul\":22361:22406   */\n      mstore\n        /* \"#utility.yul\":22244:22413   */\n      pop\n      jump\t// out\n        /* \"#utility.yul\":22419:22785   */\n    tag_323:\n        /* \"#utility.yul\":22561:22564   */\n      0x00\n        /* \"#utility.yul\":22582:22649   */\n      tag_542\n        /* \"#utility.yul\":22646:22648   */\n      0x13\n        /* \"#utility.yul\":22641:22644   */\n      dup4\n        /* \"#utility.yul\":22582:22649   */\n      tag_302\n      jump\t// in\n    tag_542:\n        /* \"#utility.yul\":22575:22649   */\n      swap2\n      pop\n        /* \"#utility.yul\":22658:22751   */\n      tag_543\n        /* \"#utility.yul\":22747:22750   */\n      dup3\n        /* \"#utility.yul\":22658:22751   */\n      tag_322\n      jump\t// in\n    tag_543:\n        /* \"#utility.yul\":22776:22778   */\n      0x20\n        /* \"#utility.yul\":22771:22774   */\n      dup3\n        /* \"#utility.yul\":22767:22779   */\n      add\n        /* \"#utility.yul\":22760:22779   */\n      swap1\n      pop\n        /* \"#utility.yul\":22419:22785   */\n      swap2\n      swap1\n      pop\n      jump\t// out\n        /* \"#utility.yul\":22791:23210   */\n    tag_239:\n        /* \"#utility.yul\":22957:22961   */\n      0x00\n        /* \"#utility.yul\":22995:22997   */\n      0x20\n        /* \"#utility.yul\":22984:22993   */\n      dup3\n        /* \"#utility.yul\":22980:22998   */\n      add\n        /* \"#utility.yul\":22972:22998   */\n      swap1\n      pop\n        /* \"#utility.yul\":23044:23053   */\n      dup2\n        /* \"#utility.yul\":23038:23042   */\n      dup2\n        /* \"#utility.yul\":23034:23054   */\n      sub\n        /* \"#utility.yul\":23030:23031   */\n      0x00\n        /* \"#utility.yul\":23019:23028   */\n      dup4\n        /* \"#utility.yul\":23015:23032   */\n      add\n        /* \"#utility.yul\":23008:23055   */\n      mstore\n        /* \"#utility.yul\":23072:23203   */\n      tag_545\n        /* \"#utility.yul\":23198:23202   */\n      dup2\n        /* \"#utility.yul\":23072:23203   */\n      tag_323\n      jump\t// in\n    tag_545:\n        /* \"#utility.yul\":23064:23203   */\n      swap1\n      pop\n        /* \"#utility.yul\":22791:23210   */\n      swap2\n      swap1\n      pop\n      jump\t// out\n        /* \"#utility.yul\":23216:23674   */\n    tag_241:\n        /* \"#utility.yul\":23373:23377   */\n      0x00\n        /* \"#utility.yul\":23411:23413   */\n      0x60\n        /* \"#utility.yul\":23400:23409   */\n      dup3\n        /* \"#utility.yul\":23396:23414   */\n      add\n        /* \"#utility.yul\":23388:23414   */\n      swap1\n      pop\n        /* \"#utility.yul\":23424:23495   */\n      tag_547\n        /* \"#utility.yul\":23492:23493   */\n      0x00\n        /* \"#utility.yul\":23481:23490   */\n      dup4\n        /* \"#utility.yul\":23477:23494   */\n      add\n        /* \"#utility.yul\":23468:23474   */\n      dup7\n        /* \"#utility.yul\":23424:23495   */\n      tag_294\n      jump\t// in\n    tag_547:\n        /* \"#utility.yul\":23505:23585   */\n      tag_548\n        /* \"#utility.yul\":23581:23583   */\n      0x20\n        /* \"#utility.yul\":23570:23579   */\n      dup4\n        /* \"#utility.yul\":23566:23584   */\n      add\n        /* \"#utility.yul\":23557:23563   */\n      dup6\n        /* \"#utility.yul\":23505:23585   */\n      tag_321\n      jump\t// in\n    tag_548:\n        /* \"#utility.yul\":23595:23667   */\n      tag_549\n        /* \"#utility.yul\":23663:23665   */\n      0x40\n        /* \"#utility.yul\":23652:23661   */\n      dup4\n        /* \"#utility.yul\":23648:23666   */\n      add\n        /* \"#utility.yul\":23639:23645   */\n      dup5\n        /* \"#utility.yul\":23595:23667   */\n      tag_269\n      jump\t// in\n    tag_549:\n        /* \"#utility.yul\":23216:23674   */\n      swap5\n      swap4\n      pop\n      pop\n      pop\n      pop\n      jump\t// out\n        /* \"#utility.yul\":23680:23861   */\n    tag_324:\n        /* \"#utility.yul\":23820:23853   */\n      0x53656c6c65722070726f6365656473207472616e73666572206661696c656400\n        /* \"#utility.yul\":23816:23817   */\n      0x00\n        /* \"#utility.yul\":23808:23814   */\n      dup3\n        /* \"#utility.yul\":23804:23818   */\n      add\n        /* \"#utility.yul\":23797:23854   */\n      mstore\n        /* \"#utility.yul\":23680:23861   */\n      pop\n      jump\t// out\n        /* \"#utility.yul\":23867:24233   */\n    tag_325:\n        /* \"#utility.yul\":24009:24012   */\n      0x00\n        /* \"#utility.yul\":24030:24097   */\n      tag_552\n        /* \"#utility.yul\":24094:24096   */\n      0x1f\n        /* \"#utility.yul\":24089:24092   */\n      dup4\n        /* \"#utility.yul\":24030:24097   */\n      tag_302\n      jump\t// in\n    tag_552:\n        /* \"#utility.yul\":24023:24097   */\n      swap2\n      pop\n        /* \"#utility.yul\":24106:24199   */\n      tag_553\n        /* \"#utility.yul\":24195:24198   */\n      dup3\n        /* \"#utility.yul\":24106:24199   */\n      tag_324\n      jump\t// in\n    tag_553:\n        /* \"#utility.yul\":24224:24226   */\n      0x20\n        /* \"#utility.yul\":24219:24222   */\n      dup3\n        /* \"#utility.yul\":24215:24227   */\n      add\n        /* \"#utility.yul\":24208:24227   */\n      swap1\n      pop\n        /* \"#utility.yul\":23867:24233   */\n      swap2\n      swap1\n      pop\n      jump\t// out\n        /* \"#utility.yul\":24239:24658   */\n    tag_247:\n        /* \"#utility.yul\":24405:24409   */\n      0x00\n        /* \"#utility.yul\":24443:24445   */\n      0x20\n        /* \"#utility.yul\":24432:24441   */\n      dup3\n        /* \"#utility.yul\":24428:24446   */\n      add\n        /* \"#utility.yul\":24420:24446   */\n      swap1\n      pop\n        /* \"#utility.yul\":24492:24501   */\n      dup2\n        /* \"#utility.yul\":24486:24490   */\n      dup2\n        /* \"#utility.yul\":24482:24502   */\n      sub\n        /* \"#utility.yul\":24478:24479   */\n      0x00\n        /* \"#utility.yul\":24467:24476   */\n      dup4\n        /* \"#utility.yul\":24463:24480   */\n      add\n        /* \"#utility.yul\":24456:24503   */\n      mstore\n        /* \"#utility.yul\":24520:24651   */\n      tag_555\n        /* \"#utility.yul\":24646:24650   */\n      dup2\n        /* \"#utility.yul\":24520:24651   */\n      tag_325\n      jump\t// in\n    tag_555:\n        /* \"#utility.yul\":24512:24651   */\n      swap1\n      pop\n        /* \"#utility.yul\":24239:24658   */\n      swap2\n      swap1\n      pop\n      jump\t// out\n        /* \"#utility.yul\":24664:25344   */\n    tag_249:\n        /* \"#utility.yul\":24877:24881   */\n      0x00\n        /* \"#utility.yul\":24915:24918   */\n      0xa0\n        /* \"#utility.yul\":24904:24913   */\n      dup3\n        /* \"#utility.yul\":24900:24919   */\n      add\n        /* \"#utility.yul\":24892:24919   */\n      swap1\n      pop\n        /* \"#utility.yul\":24929:25000   */\n      tag_557\n        /* \"#utility.yul\":24997:24998   */\n      0x00\n        /* \"#utility.yul\":24986:24995   */\n      dup4\n        /* \"#utility.yul\":24982:24999   */\n      add\n        /* \"#utility.yul\":24973:24979   */\n      dup9\n        /* \"#utility.yul\":24929:25000   */\n      tag_269\n      jump\t// in\n    tag_557:\n        /* \"#utility.yul\":25010:25082   */\n      tag_558\n        /* \"#utility.yul\":25078:25080   */\n      0x20\n        /* \"#utility.yul\":25067:25076   */\n      dup4\n        /* \"#utility.yul\":25063:25081   */\n      add\n        /* \"#utility.yul\":25054:25060   */\n      dup8\n        /* \"#utility.yul\":25010:25082   */\n      tag_269\n      jump\t// in\n    tag_558:\n        /* \"#utility.yul\":25092:25172   */\n      tag_559\n        /* \"#utility.yul\":25168:25170   */\n      0x40\n        /* \"#utility.yul\":25157:25166   */\n      dup4\n        /* \"#utility.yul\":25153:25171   */\n      add\n        /* \"#utility.yul\":25144:25150   */\n      dup7\n        /* \"#utility.yul\":25092:25172   */\n      tag_321\n      jump\t// in\n    tag_559:\n        /* \"#utility.yul\":25182:25254   */\n      tag_560\n        /* \"#utility.yul\":25250:25252   */\n      0x60\n        /* \"#utility.yul\":25239:25248   */\n      dup4\n        /* \"#utility.yul\":25235:25253   */\n      add\n        /* \"#utility.yul\":25226:25232   */\n      dup6\n        /* \"#utility.yul\":25182:25254   */\n      tag_294\n      jump\t// in\n    tag_560:\n        /* \"#utility.yul\":25264:25337   */\n      tag_561\n        /* \"#utility.yul\":25332:25335   */\n      0x80\n        /* \"#utility.yul\":25321:25330   */\n      dup4\n        /* \"#utility.yul\":25317:25336   */\n      add\n        /* \"#utility.yul\":25308:25314   */\n      dup5\n        /* \"#utility.yul\":25264:25337   */\n      tag_269\n      jump\t// in\n    tag_561:\n        /* \"#utility.yul\":24664:25344   */\n      swap7\n      swap6\n      pop\n      pop\n      pop\n      pop\n      pop\n      pop\n      jump\t// out\n\n    auxdata: 0xa264697066735822122068b1d71a8338a9cf9ad61ac40c88050d7d7df294483fc86e1cad616cccfdfded64736f6c634300081a0033\n}\n",
				"bytecode": {
					"linkReferences": {},
					"object": "60806040526019600355348015610014575f80fd5b5060405161274f38038061274f8339818101604052810190610036919061025d565b335f73ffffffffffffffffffffffffffffffffffffffff168173ffffffffffffffffffffffffffffffffffffffff16036100a7575f6040517f1e4fbdf700000000000000000000000000000000000000000000000000000000815260040161009e91906102aa565b60405180910390fd5b6100b68161013e60201b60201c565b508160055f6101000a81548173ffffffffffffffffffffffffffffffffffffffff021916908373ffffffffffffffffffffffffffffffffffffffff1602179055508060045f6101000a81548173ffffffffffffffffffffffffffffffffffffffff021916908373ffffffffffffffffffffffffffffffffffffffff16021790555050506102c3565b5f805f9054906101000a900473ffffffffffffffffffffffffffffffffffffffff169050815f806101000a81548173ffffffffffffffffffffffffffffffffffffffff021916908373ffffffffffffffffffffffffffffffffffffffff1602179055508173ffffffffffffffffffffffffffffffffffffffff168173ffffffffffffffffffffffffffffffffffffffff167f8be0079c531659141344cd1fd0a4f28419497f9722a3daafe3b4186f6b6457e060405160405180910390a35050565b5f80fd5b5f73ffffffffffffffffffffffffffffffffffffffff82169050919050565b5f61022c82610203565b9050919050565b61023c81610222565b8114610246575f80fd5b50565b5f8151905061025781610233565b92915050565b5f8060408385031215610273576102726101ff565b5b5f61028085828601610249565b925050602061029185828601610249565b9150509250929050565b6102a481610222565b82525050565b5f6020820190506102bd5f83018461029b565b92915050565b61247f806102d05f395ff3fe6080604052600436106100f2575f3560e01c80638da5cb5b11610089578063d56d229d11610058578063d56d229d146102e9578063e7fb74c714610313578063f2fde38b1461032f578063fcce488314610357576100f2565b80638da5cb5b1461022c5780639956f4ff14610256578063bfb231d214610280578063c4604943146102c1576100f2565b80635478c91f116100c55780635478c91f1461019e5780635a599da8146101c6578063715018a6146101ee578063883efa6714610204576100f2565b806305507c4b146100f6578063114003ec146101205780633013ce291461014a578063495fe56414610174575b5f80fd5b348015610101575f80fd5b5061010a610393565b6040516101179190611889565b60405180910390f35b34801561012b575f80fd5b50610134610399565b6040516101419190611a2b565b60405180910390f35b348015610155575f80fd5b5061015e6105e4565b60405161016b9190611aa6565b60405180910390f35b34801561017f575f80fd5b50610188610609565b6040516101959190611a2b565b60405180910390f35b3480156101a9575f80fd5b506101c460048036038101906101bf9190611aed565b610803565b005b3480156101d1575f80fd5b506101ec60048036038101906101e79190611aed565b610815565b005b3480156101f9575f80fd5b50610202610920565b005b34801561020f575f80fd5b5061022a60048036038101906102259190611b18565b610933565b005b348015610237575f80fd5b50610240610d49565b60405161024d9190611b76565b60405180910390f35b348015610261575f80fd5b5061026a610d70565b6040516102779190611a2b565b60405180910390f35b34801561028b575f80fd5b506102a660048036038101906102a19190611aed565b610eec565b6040516102b896959493929190611bad565b60405180910390f35b3480156102cc575f80fd5b506102e760048036038101906102e29190611b18565b610f5c565b005b3480156102f4575f80fd5b506102fd61101a565b60405161030a9190611c2c565b60405180910390f35b61032d60048036038101906103289190611aed565b61103f565b005b34801561033a575f80fd5b5061035560048036038101906103509190611c6f565b611617565b005b348015610362575f80fd5b5061037d60048036038101906103789190611aed565b61169b565b60405161038a9190611c9a565b60405180910390f35b60035481565b60605f6103a660016116b8565b90505f808267ffffffffffffffff8111156103c4576103c3611cb3565b5b6040519080825280602002602001820160405280156103fd57816020015b6103ea611827565b8152602001906001900390816103e25790505b5090505f600190505b8381116105d7573373ffffffffffffffffffffffffffffffffffffffff1660075f8381526020019081526020015f206002015f9054906101000a900473ffffffffffffffffffffffffffffffffffffffff1673ffffffffffffffffffffffffffffffffffffffff1614801561049e57505f151560075f8381526020019081526020015f206004015f9054906101000a900460ff161515145b80156104ce57505f151560075f8381526020019081526020015f2060040160019054906101000a900460ff161515145b156105c45760075f8281526020019081526020015f206040518060c00160405290815f820154815260200160018201548152602001600282015f9054906101000a900473ffffffffffffffffffffffffffffffffffffffff1673ffffffffffffffffffffffffffffffffffffffff1673ffffffffffffffffffffffffffffffffffffffff16815260200160038201548152602001600482015f9054906101000a900460ff161515151581526020016004820160019054906101000a900460ff1615151515815250508284815181106105a9576105a8611ce0565b5b60200260200101819052506001836105c19190611d3a565b92505b80806105cf90611d6d565b915050610406565b5081815280935050505090565b60045f9054906101000a900473ffffffffffffffffffffffffffffffffffffffff1681565b60605f61061660016116b8565b90505f61062360026116b8565b8261062e9190611db4565b90505f808267ffffffffffffffff81111561064c5761064b611cb3565b5b60405190808252806020026020018201604052801561068557816020015b610672611827565b81526020019060019003908161066a5790505b5090505f600190505b8481116107f5575f151560075f8381526020019081526020015f206004015f9054906101000a900460ff1615151480156106ec57505f151560075f8381526020019081526020015f2060040160019054906101000a900460ff161515145b156107e25760075f8281526020019081526020015f206040518060c00160405290815f820154815260200160018201548152602001600282015f9054906101000a900473ffffffffffffffffffffffffffffffffffffffff1673ffffffffffffffffffffffffffffffffffffffff1673ffffffffffffffffffffffffffffffffffffffff16815260200160038201548152602001600482015f9054906101000a900460ff161515151581526020016004820160019054906101000a900460ff1615151515815250508284815181106107c7576107c6611ce0565b5b60200260200101819052506001836107df9190611d3a565b92505b80806107ed90611d6d565b91505061068e565b508181528094505050505090565b61080b6116c4565b8060038190555050565b5f60075f8381526020019081526020015f2090503373ffffffffffffffffffffffffffffffffffffffff16816002015f9054906101000a900473ffffffffffffffffffffffffffffffffffffffff1673ffffffffffffffffffffffffffffffffffffffff16146108ba576040517f08c379a00000000000000000000000000000000000000000000000000000000081526004016108b190611e41565b60405180910390fd5b60018160040160016101000a81548160ff0219169083151502179055507ff3081024f71f191a4fde516997e5f5829f7d9a1621da3c05afe71a223e425c678282600101543384600301546040516109149493929190611e5f565b60405180910390a15050565b6109286116c4565b6109315f61174b565b565b5f8111610975576040517f08c379a000000000000000000000000000000000000000000000000000000000815260040161096c90611eec565b60405180910390fd5b61097f600161180c565b5f61098a60016116b8565b90503373ffffffffffffffffffffffffffffffffffffffff1660055f9054906101000a900473ffffffffffffffffffffffffffffffffffffffff1673ffffffffffffffffffffffffffffffffffffffff16636352211e856040518263ffffffff1660e01b81526004016109fd9190611889565b602060405180830381865afa158015610a18573d5f803e3d5ffd5b505050506040513d601f19601f82011682018060405250810190610a3c9190611f1e565b73ffffffffffffffffffffffffffffffffffffffff1614610a92576040517f08c379a0000000000000000000000000000000000000000000000000000000008152600401610a8990611e41565b60405180910390fd5b60055f9054906101000a900473ffffffffffffffffffffffffffffffffffffffff1673ffffffffffffffffffffffffffffffffffffffff1663e985e9c533306040518363ffffffff1660e01b8152600401610aee929190611f49565b602060405180830381865afa158015610b09573d5f803e3d5ffd5b505050506040513d601f19601f82011682018060405250810190610b2d9190611f9a565b610b6c576040517f08c379a0000000000000000000000000000000000000000000000000000000008152600401610b639061200f565b60405180910390fd5b60055f9054906101000a900473ffffffffffffffffffffffffffffffffffffffff1673ffffffffffffffffffffffffffffffffffffffff1663095ea7b330856040518363ffffffff1660e01b8152600401610bc892919061202d565b5f604051808303815f87803b158015610bdf575f80fd5b505af1158015610bf1573d5f803e3d5ffd5b505050506040518060c001604052808281526020018481526020013373ffffffffffffffffffffffffffffffffffffffff1681526020018381526020015f151581526020015f151581525060075f8381526020019081526020015f205f820151815f0155602082015181600101556040820151816002015f6101000a81548173ffffffffffffffffffffffffffffffffffffffff021916908373ffffffffffffffffffffffffffffffffffffffff160217905550606082015181600301556080820151816004015f6101000a81548160ff02191690831515021790555060a08201518160040160016101000a81548160ff0219169083151502179055509050508060065f8581526020019081526020015f20819055507fccc2c46ea1a1fc6b4e5d39ac3fed1a88c04185f5221091df5b44b249f982851b81843385604051610d3c9493929190611e5f565b60405180910390a1505050565b5f805f9054906101000a900473ffffffffffffffffffffffffffffffffffffffff16905090565b60605f610d7d60016116b8565b90505f8167ffffffffffffffff811115610d9a57610d99611cb3565b5b604051908082528060200260200182016040528015610dd357816020015b610dc0611827565b815260200190600190039081610db85790505b5090505f600190505b828111610ee35760075f8281526020019081526020015f206040518060c00160405290815f820154815260200160018201548152602001600282015f9054906101000a900473ffffffffffffffffffffffffffffffffffffffff1673ffffffffffffffffffffffffffffffffffffffff1673ffffffffffffffffffffffffffffffffffffffff16815260200160038201548152602001600482015f9054906101000a900460ff161515151581526020016004820160019054906101000a900460ff16151515158152505082600183610eb49190611db4565b81518110610ec557610ec4611ce0565b5b60200260200101819052508080610edb90611d6d565b915050610ddc565b50809250505090565b6007602052805f5260405f205f91509050805f015490806001015490806002015f9054906101000a900473ffffffffffffffffffffffffffffffffffffffff1690806003015490806004015f9054906101000a900460ff16908060040160019054906101000a900460ff16905086565b3373ffffffffffffffffffffffffffffffffffffffff1660075f8481526020019081526020015f206002015f9054906101000a900473ffffffffffffffffffffffffffffffffffffffff1673ffffffffffffffffffffffffffffffffffffffff1614610ffd576040517f08c379a0000000000000000000000000000000000000000000000000000000008152600401610ff490611e41565b60405180910390fd5b8060075f8481526020019081526020015f20600301819055505050565b60055f9054906101000a900473ffffffffffffffffffffffffffffffffffffffff1681565b5f60075f8381526020019081526020015f209050806004015f9054906101000a900460ff16156110a4576040517f08c379a000000000000000000000000000000000000000000000000000000000815260040161109b9061209e565b60405180910390fd5b8060040160019054906101000a900460ff16156110f6576040517f08c379a00000000000000000000000000000000000000000000000000000000081526004016110ed9061209e565b60405180910390fd5b806003015460045f9054906101000a900473ffffffffffffffffffffffffffffffffffffffff1673ffffffffffffffffffffffffffffffffffffffff166370a08231336040518263ffffffff1660e01b81526004016111559190611b76565b602060405180830381865afa158015611170573d5f803e3d5ffd5b505050506040513d601f19601f8201168201806040525081019061119491906120d0565b10156111d5576040517f08c379a00000000000000000000000000000000000000000000000000000000081526004016111cc90612145565b60405180910390fd5b806003015460045f9054906101000a900473ffffffffffffffffffffffffffffffffffffffff1673ffffffffffffffffffffffffffffffffffffffff1663dd62ed3e33306040518363ffffffff1660e01b8152600401611236929190611f49565b602060405180830381865afa158015611251573d5f803e3d5ffd5b505050506040513d601f19601f8201168201806040525081019061127591906120d0565b10156112b6576040517f08c379a00000000000000000000000000000000000000000000000000000000081526004016112ad906121ad565b60405180910390fd5b5f6103e860035483600301546112cc91906121cb565b6112d69190612239565b90505f8183600301546112e99190611db4565b90506001836004015f6101000a81548160ff021916908315150217905550611311600261180c565b60055f9054906101000a900473ffffffffffffffffffffffffffffffffffffffff1673ffffffffffffffffffffffffffffffffffffffff166323b872dd846002015f9054906101000a900473ffffffffffffffffffffffffffffffffffffffff163386600101546040518463ffffffff1660e01b815260040161139693929190612289565b5f604051808303815f87803b1580156113ad575f80fd5b505af11580156113bf573d5f803e3d5ffd5b5050505060045f9054906101000a900473ffffffffffffffffffffffffffffffffffffffff1673ffffffffffffffffffffffffffffffffffffffff166323b872dd33611409610d49565b856040518463ffffffff1660e01b8152600401611428939291906122be565b6020604051808303815f875af1158015611444573d5f803e3d5ffd5b505050506040513d601f19601f820116820180604052508101906114689190611f9a565b6114a7576040517f08c379a000000000000000000000000000000000000000000000000000000000815260040161149e9061233d565b60405180910390fd5b60045f9054906101000a900473ffffffffffffffffffffffffffffffffffffffff1673ffffffffffffffffffffffffffffffffffffffff166323b872dd33856002015f9054906101000a900473ffffffffffffffffffffffffffffffffffffffff16846040518463ffffffff1660e01b81526004016115289392919061235b565b6020604051808303815f875af1158015611544573d5f803e3d5ffd5b505050506040513d601f19601f820116820180604052508101906115689190611f9a565b6115a7576040517f08c379a000000000000000000000000000000000000000000000000000000000815260040161159e906123da565b60405180910390fd5b7f3dfa07a0c200c9dd1dc6e3548dbf78ad2a5c851f72efbf8b029ef2b8c57445e5848460010154856002015f9054906101000a900473ffffffffffffffffffffffffffffffffffffffff163387600301546040516116099594939291906123f8565b60405180910390a150505050565b61161f6116c4565b5f73ffffffffffffffffffffffffffffffffffffffff168173ffffffffffffffffffffffffffffffffffffffff160361168f575f6040517f1e4fbdf70000000000000000000000000000000000000000000000000000000081526004016116869190611b76565b60405180910390fd5b6116988161174b565b50565b5f8060065f8481526020019081526020015f205414159050919050565b5f815f01549050919050565b6116cc611820565b73ffffffffffffffffffffffffffffffffffffffff166116ea610d49565b73ffffffffffffffffffffffffffffffffffffffff16146117495761170d611820565b6040517f118cdaa70000000000000000000000000000000000000000000000000000000081526004016117409190611b76565b60405180910390fd5b565b5f805f9054906101000a900473ffffffffffffffffffffffffffffffffffffffff169050815f806101000a81548173ffffffffffffffffffffffffffffffffffffffff021916908373ffffffffffffffffffffffffffffffffffffffff1602179055508173ffffffffffffffffffffffffffffffffffffffff168173ffffffffffffffffffffffffffffffffffffffff167f8be0079c531659141344cd1fd0a4f28419497f9722a3daafe3b4186f6b6457e060405160405180910390a35050565b6001815f015f828254019250508190555050565b5f33905090565b6040518060c001604052805f81526020015f81526020015f73ffffffffffffffffffffffffffffffffffffffff1681526020015f81526020015f151581526020015f151581525090565b5f819050919050565b61188381611871565b82525050565b5f60208201905061189c5f83018461187a565b92915050565b5f81519050919050565b5f82825260208201905092915050565b5f819050602082019050919050565b6118d481611871565b82525050565b5f73ffffffffffffffffffffffffffffffffffffffff82169050919050565b5f611903826118da565b9050919050565b611913816118f9565b82525050565b5f8115159050919050565b61192d81611919565b82525050565b60c082015f8201516119475f8501826118cb565b50602082015161195a60208501826118cb565b50604082015161196d604085018261190a565b50606082015161198060608501826118cb565b5060808201516119936080850182611924565b5060a08201516119a660a0850182611924565b50505050565b5f6119b78383611933565b60c08301905092915050565b5f602082019050919050565b5f6119d9826118a2565b6119e381856118ac565b93506119ee836118bc565b805f5b83811015611a1e578151611a0588826119ac565b9750611a10836119c3565b9250506001810190506119f1565b5085935050505092915050565b5f6020820190508181035f830152611a4381846119cf565b905092915050565b5f819050919050565b5f611a6e611a69611a64846118da565b611a4b565b6118da565b9050919050565b5f611a7f82611a54565b9050919050565b5f611a9082611a75565b9050919050565b611aa081611a86565b82525050565b5f602082019050611ab95f830184611a97565b92915050565b5f80fd5b611acc81611871565b8114611ad6575f80fd5b50565b5f81359050611ae781611ac3565b92915050565b5f60208284031215611b0257611b01611abf565b5b5f611b0f84828501611ad9565b91505092915050565b5f8060408385031215611b2e57611b2d611abf565b5b5f611b3b85828601611ad9565b9250506020611b4c85828601611ad9565b9150509250929050565b5f611b60826118da565b9050919050565b611b7081611b56565b82525050565b5f602082019050611b895f830184611b67565b92915050565b611b98816118f9565b82525050565b611ba781611919565b82525050565b5f60c082019050611bc05f83018961187a565b611bcd602083018861187a565b611bda6040830187611b8f565b611be7606083018661187a565b611bf46080830185611b9e565b611c0160a0830184611b9e565b979650505050505050565b5f611c1682611a75565b9050919050565b611c2681611c0c565b82525050565b5f602082019050611c3f5f830184611c1d565b92915050565b611c4e81611b56565b8114611c58575f80fd5b50565b5f81359050611c6981611c45565b92915050565b5f60208284031215611c8457611c83611abf565b5b5f611c9184828501611c5b565b91505092915050565b5f602082019050611cad5f830184611b9e565b92915050565b7f4e487b71000000000000000000000000000000000000000000000000000000005f52604160045260245ffd5b7f4e487b71000000000000000000000000000000000000000000000000000000005f52603260045260245ffd5b7f4e487b71000000000000000000000000000000000000000000000000000000005f52601160045260245ffd5b5f611d4482611871565b9150611d4f83611871565b9250828201905080821115611d6757611d66611d0d565b5b92915050565b5f611d7782611871565b91507fffffffffffffffffffffffffffffffffffffffffffffffffffffffffffffffff8203611da957611da8611d0d565b5b600182019050919050565b5f611dbe82611871565b9150611dc983611871565b9250828203905081811115611de157611de0611d0d565b5b92915050565b5f82825260208201905092915050565b7f596f7520617265206e6f7420746865206f776e657200000000000000000000005f82015250565b5f611e2b601583611de7565b9150611e3682611df7565b602082019050919050565b5f6020820190508181035f830152611e5881611e1f565b9050919050565b5f608082019050611e725f83018761187a565b611e7f602083018661187a565b611e8c6040830185611b67565b611e99606083018461187a565b95945050505050565b7f5072696365206d757374206265206174206c65617374203120776569000000005f82015250565b5f611ed6601c83611de7565b9150611ee182611ea2565b602082019050919050565b5f6020820190508181035f830152611f0381611eca565b9050919050565b5f81519050611f1881611c45565b92915050565b5f60208284031215611f3357611f32611abf565b5b5f611f4084828501611f0a565b91505092915050565b5f604082019050611f5c5f830185611b67565b611f696020830184611b67565b9392505050565b611f7981611919565b8114611f83575f80fd5b50565b5f81519050611f9481611f70565b92915050565b5f60208284031215611faf57611fae611abf565b5b5f611fbc84828501611f86565b91505092915050565b7f4d61726b6574706c616365206e6f7420617070726f76656400000000000000005f82015250565b5f611ff9601883611de7565b915061200482611fc5565b602082019050919050565b5f6020820190508181035f83015261202681611fed565b9050919050565b5f6040820190506120405f830185611b67565b61204d602083018461187a565b9392505050565b7f4974656d206973206e6f7420666f722073616c650000000000000000000000005f82015250565b5f612088601483611de7565b915061209382612054565b602082019050919050565b5f6020820190508181035f8301526120b58161207c565b9050919050565b5f815190506120ca81611ac3565b92915050565b5f602082840312156120e5576120e4611abf565b5b5f6120f2848285016120bc565b91505092915050565b7f496e73756666696369656e742066756e647300000000000000000000000000005f82015250565b5f61212f601283611de7565b915061213a826120fb565b602082019050919050565b5f6020820190508181035f83015261215c81612123565b9050919050565b7f496e73756666696369656e7420616c6c6f77616e6365000000000000000000005f82015250565b5f612197601683611de7565b91506121a282612163565b602082019050919050565b5f6020820190508181035f8301526121c48161218b565b9050919050565b5f6121d582611871565b91506121e083611871565b92508282026121ee81611871565b9150828204841483151761220557612204611d0d565b5b5092915050565b7f4e487b71000000000000000000000000000000000000000000000000000000005f52601260045260245ffd5b5f61224382611871565b915061224e83611871565b92508261225e5761225d61220c565b5b828204905092915050565b5f61227382611a75565b9050919050565b61228381612269565b82525050565b5f60608201905061229c5f83018661227a565b6122a96020830185611b67565b6122b6604083018461187a565b949350505050565b5f6060820190506122d15f830186611b67565b6122de6020830185611b67565b6122eb604083018461187a565b949350505050565b7f466565207472616e73666572206661696c6564000000000000000000000000005f82015250565b5f612327601383611de7565b9150612332826122f3565b602082019050919050565b5f6020820190508181035f8301526123548161231b565b9050919050565b5f60608201905061236e5f830186611b67565b61237b602083018561227a565b612388604083018461187a565b949350505050565b7f53656c6c65722070726f6365656473207472616e73666572206661696c6564005f82015250565b5f6123c4601f83611de7565b91506123cf82612390565b602082019050919050565b5f6020820190508181035f8301526123f1816123b8565b9050919050565b5f60a08201905061240b5f83018861187a565b612418602083018761187a565b612425604083018661227a565b6124326060830185611b67565b61243f608083018461187a565b969550505050505056fea264697066735822122068b1d71a8338a9cf9ad61ac40c88050d7d7df294483fc86e1cad616cccfdfded64736f6c634300081a0033",
					"opcodes": "PUSH1 0x80 PUSH1 0x40 MSTORE PUSH1 0x19 PUSH1 0x3 SSTORE CALLVALUE DUP1 ISZERO PUSH2 0x14 JUMPI PUSH0 DUP1 REVERT JUMPDEST POP PUSH1 0x40 MLOAD PUSH2 0x274F CODESIZE SUB DUP1 PUSH2 0x274F DUP4 CODECOPY DUP2 DUP2 ADD PUSH1 0x40 MSTORE DUP2 ADD SWAP1 PUSH2 0x36 SWAP2 SWAP1 PUSH2 0x25D JUMP JUMPDEST CALLER PUSH0 PUSH20 0xFFFFFFFFFFFFFFFFFFFFFFFFFFFFFFFFFFFFFFFF AND DUP2 PUSH20 0xFFFFFFFFFFFFFFFFFFFFFFFFFFFFFFFFFFFFFFFF AND SUB PUSH2 0xA7 JUMPI PUSH0 PUSH1 0x40 MLOAD PUSH32 0x1E4FBDF700000000000000000000000000000000000000000000000000000000 DUP2 MSTORE PUSH1 0x4 ADD PUSH2 0x9E SWAP2 SWAP1 PUSH2 0x2AA JUMP JUMPDEST PUSH1 0x40 MLOAD DUP1 SWAP2 SUB SWAP1 REVERT JUMPDEST PUSH2 0xB6 DUP2 PUSH2 0x13E PUSH1 0x20 SHL PUSH1 0x20 SHR JUMP JUMPDEST POP DUP2 PUSH1 0x5 PUSH0 PUSH2 0x100 EXP DUP2 SLOAD DUP2 PUSH20 0xFFFFFFFFFFFFFFFFFFFFFFFFFFFFFFFFFFFFFFFF MUL NOT AND SWAP1 DUP4 PUSH20 0xFFFFFFFFFFFFFFFFFFFFFFFFFFFFFFFFFFFFFFFF AND MUL OR SWAP1 SSTORE POP DUP1 PUSH1 0x4 PUSH0 PUSH2 0x100 EXP DUP2 SLOAD DUP2 PUSH20 0xFFFFFFFFFFFFFFFFFFFFFFFFFFFFFFFFFFFFFFFF MUL NOT AND SWAP1 DUP4 PUSH20 0xFFFFFFFFFFFFFFFFFFFFFFFFFFFFFFFFFFFFFFFF AND MUL OR SWAP1 SSTORE POP POP POP PUSH2 0x2C3 JUMP JUMPDEST PUSH0 DUP1 PUSH0 SWAP1 SLOAD SWAP1 PUSH2 0x100 EXP SWAP1 DIV PUSH20 0xFFFFFFFFFFFFFFFFFFFFFFFFFFFFFFFFFFFFFFFF AND SWAP1 POP DUP2 PUSH0 DUP1 PUSH2 0x100 EXP DUP2 SLOAD DUP2 PUSH20 0xFFFFFFFFFFFFFFFFFFFFFFFFFFFFFFFFFFFFFFFF MUL NOT AND SWAP1 DUP4 PUSH20 0xFFFFFFFFFFFFFFFFFFFFFFFFFFFFFFFFFFFFFFFF AND MUL OR SWAP1 SSTORE POP DUP2 PUSH20 0xFFFFFFFFFFFFFFFFFFFFFFFFFFFFFFFFFFFFFFFF AND DUP2 PUSH20 0xFFFFFFFFFFFFFFFFFFFFFFFFFFFFFFFFFFFFFFFF AND PUSH32 0x8BE0079C531659141344CD1FD0A4F28419497F9722A3DAAFE3B4186F6B6457E0 PUSH1 0x40 MLOAD PUSH1 0x40 MLOAD DUP1 SWAP2 SUB SWAP1 LOG3 POP POP JUMP JUMPDEST PUSH0 DUP1 REVERT JUMPDEST PUSH0 PUSH20 0xFFFFFFFFFFFFFFFFFFFFFFFFFFFFFFFFFFFFFFFF DUP3 AND SWAP1 POP SWAP2 SWAP1 POP JUMP JUMPDEST PUSH0 PUSH2 0x22C DUP3 PUSH2 0x203 JUMP JUMPDEST SWAP1 POP SWAP2 SWAP1 POP JUMP JUMPDEST PUSH2 0x23C DUP2 PUSH2 0x222 JUMP JUMPDEST DUP2 EQ PUSH2 0x246 JUMPI PUSH0 DUP1 REVERT JUMPDEST POP JUMP JUMPDEST PUSH0 DUP2 MLOAD SWAP1 POP PUSH2 0x257 DUP2 PUSH2 0x233 JUMP JUMPDEST SWAP3 SWAP2 POP POP JUMP JUMPDEST PUSH0 DUP1 PUSH1 0x40 DUP4 DUP6 SUB SLT ISZERO PUSH2 0x273 JUMPI PUSH2 0x272 PUSH2 0x1FF JUMP JUMPDEST JUMPDEST PUSH0 PUSH2 0x280 DUP6 DUP3 DUP7 ADD PUSH2 0x249 JUMP JUMPDEST SWAP3 POP POP PUSH1 0x20 PUSH2 0x291 DUP6 DUP3 DUP7 ADD PUSH2 0x249 JUMP JUMPDEST SWAP2 POP POP SWAP3 POP SWAP3 SWAP1 POP JUMP JUMPDEST PUSH2 0x2A4 DUP2 PUSH2 0x222 JUMP JUMPDEST DUP3 MSTORE POP POP JUMP JUMPDEST PUSH0 PUSH1 0x20 DUP3 ADD SWAP1 POP PUSH2 0x2BD PUSH0 DUP4 ADD DUP5 PUSH2 0x29B JUMP JUMPDEST SWAP3 SWAP2 POP POP JUMP JUMPDEST PUSH2 0x247F DUP1 PUSH2 0x2D0 PUSH0 CODECOPY PUSH0 RETURN INVALID PUSH1 0x80 PUSH1 0x40 MSTORE PUSH1 0x4 CALLDATASIZE LT PUSH2 0xF2 JUMPI PUSH0 CALLDATALOAD PUSH1 0xE0 SHR DUP1 PUSH4 0x8DA5CB5B GT PUSH2 0x89 JUMPI DUP1 PUSH4 0xD56D229D GT PUSH2 0x58 JUMPI DUP1 PUSH4 0xD56D229D EQ PUSH2 0x2E9 JUMPI DUP1 PUSH4 0xE7FB74C7 EQ PUSH2 0x313 JUMPI DUP1 PUSH4 0xF2FDE38B EQ PUSH2 0x32F JUMPI DUP1 PUSH4 0xFCCE4883 EQ PUSH2 0x357 JUMPI PUSH2 0xF2 JUMP JUMPDEST DUP1 PUSH4 0x8DA5CB5B EQ PUSH2 0x22C JUMPI DUP1 PUSH4 0x9956F4FF EQ PUSH2 0x256 JUMPI DUP1 PUSH4 0xBFB231D2 EQ PUSH2 0x280 JUMPI DUP1 PUSH4 0xC4604943 EQ PUSH2 0x2C1 JUMPI PUSH2 0xF2 JUMP JUMPDEST DUP1 PUSH4 0x5478C91F GT PUSH2 0xC5 JUMPI DUP1 PUSH4 0x5478C91F EQ PUSH2 0x19E JUMPI DUP1 PUSH4 0x5A599DA8 EQ PUSH2 0x1C6 JUMPI DUP1 PUSH4 0x715018A6 EQ PUSH2 0x1EE JUMPI DUP1 PUSH4 0x883EFA67 EQ PUSH2 0x204 JUMPI PUSH2 0xF2 JUMP JUMPDEST DUP1 PUSH4 0x5507C4B EQ PUSH2 0xF6 JUMPI DUP1 PUSH4 0x114003EC EQ PUSH2 0x120 JUMPI DUP1 PUSH4 0x3013CE29 EQ PUSH2 0x14A JUMPI DUP1 PUSH4 0x495FE564 EQ PUSH2 0x174 JUMPI JUMPDEST PUSH0 DUP1 REVERT JUMPDEST CALLVALUE DUP1 ISZERO PUSH2 0x101 JUMPI PUSH0 DUP1 REVERT JUMPDEST POP PUSH2 0x10A PUSH2 0x393 JUMP JUMPDEST PUSH1 0x40 MLOAD PUSH2 0x117 SWAP2 SWAP1 PUSH2 0x1889 JUMP JUMPDEST PUSH1 0x40 MLOAD DUP1 SWAP2 SUB SWAP1 RETURN JUMPDEST CALLVALUE DUP1 ISZERO PUSH2 0x12B JUMPI PUSH0 DUP1 REVERT JUMPDEST POP PUSH2 0x134 PUSH2 0x399 JUMP JUMPDEST PUSH1 0x40 MLOAD PUSH2 0x141 SWAP2 SWAP1 PUSH2 0x1A2B JUMP JUMPDEST PUSH1 0x40 MLOAD DUP1 SWAP2 SUB SWAP1 RETURN JUMPDEST CALLVALUE DUP1 ISZERO PUSH2 0x155 JUMPI PUSH0 DUP1 REVERT JUMPDEST POP PUSH2 0x15E PUSH2 0x5E4 JUMP JUMPDEST PUSH1 0x40 MLOAD PUSH2 0x16B SWAP2 SWAP1 PUSH2 0x1AA6 JUMP JUMPDEST PUSH1 0x40 MLOAD DUP1 SWAP2 SUB SWAP1 RETURN JUMPDEST CALLVALUE DUP1 ISZERO PUSH2 0x17F JUMPI PUSH0 DUP1 REVERT JUMPDEST POP PUSH2 0x188 PUSH2 0x609 JUMP JUMPDEST PUSH1 0x40 MLOAD PUSH2 0x195 SWAP2 SWAP1 PUSH2 0x1A2B JUMP JUMPDEST PUSH1 0x40 MLOAD DUP1 SWAP2 SUB SWAP1 RETURN JUMPDEST CALLVALUE DUP1 ISZERO PUSH2 0x1A9 JUMPI PUSH0 DUP1 REVERT JUMPDEST POP PUSH2 0x1C4 PUSH1 0x4 DUP1 CALLDATASIZE SUB DUP2 ADD SWAP1 PUSH2 0x1BF SWAP2 SWAP1 PUSH2 0x1AED JUMP JUMPDEST PUSH2 0x803 JUMP JUMPDEST STOP JUMPDEST CALLVALUE DUP1 ISZERO PUSH2 0x1D1 JUMPI PUSH0 DUP1 REVERT JUMPDEST POP PUSH2 0x1EC PUSH1 0x4 DUP1 CALLDATASIZE SUB DUP2 ADD SWAP1 PUSH2 0x1E7 SWAP2 SWAP1 PUSH2 0x1AED JUMP JUMPDEST PUSH2 0x815 JUMP JUMPDEST STOP JUMPDEST CALLVALUE DUP1 ISZERO PUSH2 0x1F9 JUMPI PUSH0 DUP1 REVERT JUMPDEST POP PUSH2 0x202 PUSH2 0x920 JUMP JUMPDEST STOP JUMPDEST CALLVALUE DUP1 ISZERO PUSH2 0x20F JUMPI PUSH0 DUP1 REVERT JUMPDEST POP PUSH2 0x22A PUSH1 0x4 DUP1 CALLDATASIZE SUB DUP2 ADD SWAP1 PUSH2 0x225 SWAP2 SWAP1 PUSH2 0x1B18 JUMP JUMPDEST PUSH2 0x933 JUMP JUMPDEST STOP JUMPDEST CALLVALUE DUP1 ISZERO PUSH2 0x237 JUMPI PUSH0 DUP1 REVERT JUMPDEST POP PUSH2 0x240 PUSH2 0xD49 JUMP JUMPDEST PUSH1 0x40 MLOAD PUSH2 0x24D SWAP2 SWAP1 PUSH2 0x1B76 JUMP JUMPDEST PUSH1 0x40 MLOAD DUP1 SWAP2 SUB SWAP1 RETURN JUMPDEST CALLVALUE DUP1 ISZERO PUSH2 0x261 JUMPI PUSH0 DUP1 REVERT JUMPDEST POP PUSH2 0x26A PUSH2 0xD70 JUMP JUMPDEST PUSH1 0x40 MLOAD PUSH2 0x277 SWAP2 SWAP1 PUSH2 0x1A2B JUMP JUMPDEST PUSH1 0x40 MLOAD DUP1 SWAP2 SUB SWAP1 RETURN JUMPDEST CALLVALUE DUP1 ISZERO PUSH2 0x28B JUMPI PUSH0 DUP1 REVERT JUMPDEST POP PUSH2 0x2A6 PUSH1 0x4 DUP1 CALLDATASIZE SUB DUP2 ADD SWAP1 PUSH2 0x2A1 SWAP2 SWAP1 PUSH2 0x1AED JUMP JUMPDEST PUSH2 0xEEC JUMP JUMPDEST PUSH1 0x40 MLOAD PUSH2 0x2B8 SWAP7 SWAP6 SWAP5 SWAP4 SWAP3 SWAP2 SWAP1 PUSH2 0x1BAD JUMP JUMPDEST PUSH1 0x40 MLOAD DUP1 SWAP2 SUB SWAP1 RETURN JUMPDEST CALLVALUE DUP1 ISZERO PUSH2 0x2CC JUMPI PUSH0 DUP1 REVERT JUMPDEST POP PUSH2 0x2E7 PUSH1 0x4 DUP1 CALLDATASIZE SUB DUP2 ADD SWAP1 PUSH2 0x2E2 SWAP2 SWAP1 PUSH2 0x1B18 JUMP JUMPDEST PUSH2 0xF5C JUMP JUMPDEST STOP JUMPDEST CALLVALUE DUP1 ISZERO PUSH2 0x2F4 JUMPI PUSH0 DUP1 REVERT JUMPDEST POP PUSH2 0x2FD PUSH2 0x101A JUMP JUMPDEST PUSH1 0x40 MLOAD PUSH2 0x30A SWAP2 SWAP1 PUSH2 0x1C2C JUMP JUMPDEST PUSH1 0x40 MLOAD DUP1 SWAP2 SUB SWAP1 RETURN JUMPDEST PUSH2 0x32D PUSH1 0x4 DUP1 CALLDATASIZE SUB DUP2 ADD SWAP1 PUSH2 0x328 SWAP2 SWAP1 PUSH2 0x1AED JUMP JUMPDEST PUSH2 0x103F JUMP JUMPDEST STOP JUMPDEST CALLVALUE DUP1 ISZERO PUSH2 0x33A JUMPI PUSH0 DUP1 REVERT JUMPDEST POP PUSH2 0x355 PUSH1 0x4 DUP1 CALLDATASIZE SUB DUP2 ADD SWAP1 PUSH2 0x350 SWAP2 SWAP1 PUSH2 0x1C6F JUMP JUMPDEST PUSH2 0x1617 JUMP JUMPDEST STOP JUMPDEST CALLVALUE DUP1 ISZERO PUSH2 0x362 JUMPI PUSH0 DUP1 REVERT JUMPDEST POP PUSH2 0x37D PUSH1 0x4 DUP1 CALLDATASIZE SUB DUP2 ADD SWAP1 PUSH2 0x378 SWAP2 SWAP1 PUSH2 0x1AED JUMP JUMPDEST PUSH2 0x169B JUMP JUMPDEST PUSH1 0x40 MLOAD PUSH2 0x38A SWAP2 SWAP1 PUSH2 0x1C9A JUMP JUMPDEST PUSH1 0x40 MLOAD DUP1 SWAP2 SUB SWAP1 RETURN JUMPDEST PUSH1 0x3 SLOAD DUP2 JUMP JUMPDEST PUSH1 0x60 PUSH0 PUSH2 0x3A6 PUSH1 0x1 PUSH2 0x16B8 JUMP JUMPDEST SWAP1 POP PUSH0 DUP1 DUP3 PUSH8 0xFFFFFFFFFFFFFFFF DUP2 GT ISZERO PUSH2 0x3C4 JUMPI PUSH2 0x3C3 PUSH2 0x1CB3 JUMP JUMPDEST JUMPDEST PUSH1 0x40 MLOAD SWAP1 DUP1 DUP3 MSTORE DUP1 PUSH1 0x20 MUL PUSH1 0x20 ADD DUP3 ADD PUSH1 0x40 MSTORE DUP1 ISZERO PUSH2 0x3FD JUMPI DUP2 PUSH1 0x20 ADD JUMPDEST PUSH2 0x3EA PUSH2 0x1827 JUMP JUMPDEST DUP2 MSTORE PUSH1 0x20 ADD SWAP1 PUSH1 0x1 SWAP1 SUB SWAP1 DUP2 PUSH2 0x3E2 JUMPI SWAP1 POP JUMPDEST POP SWAP1 POP PUSH0 PUSH1 0x1 SWAP1 POP JUMPDEST DUP4 DUP2 GT PUSH2 0x5D7 JUMPI CALLER PUSH20 0xFFFFFFFFFFFFFFFFFFFFFFFFFFFFFFFFFFFFFFFF AND PUSH1 0x7 PUSH0 DUP4 DUP2 MSTORE PUSH1 0x20 ADD SWAP1 DUP2 MSTORE PUSH1 0x20 ADD PUSH0 KECCAK256 PUSH1 0x2 ADD PUSH0 SWAP1 SLOAD SWAP1 PUSH2 0x100 EXP SWAP1 DIV PUSH20 0xFFFFFFFFFFFFFFFFFFFFFFFFFFFFFFFFFFFFFFFF AND PUSH20 0xFFFFFFFFFFFFFFFFFFFFFFFFFFFFFFFFFFFFFFFF AND EQ DUP1 ISZERO PUSH2 0x49E JUMPI POP PUSH0 ISZERO ISZERO PUSH1 0x7 PUSH0 DUP4 DUP2 MSTORE PUSH1 0x20 ADD SWAP1 DUP2 MSTORE PUSH1 0x20 ADD PUSH0 KECCAK256 PUSH1 0x4 ADD PUSH0 SWAP1 SLOAD SWAP1 PUSH2 0x100 EXP SWAP1 DIV PUSH1 0xFF AND ISZERO ISZERO EQ JUMPDEST DUP1 ISZERO PUSH2 0x4CE JUMPI POP PUSH0 ISZERO ISZERO PUSH1 0x7 PUSH0 DUP4 DUP2 MSTORE PUSH1 0x20 ADD SWAP1 DUP2 MSTORE PUSH1 0x20 ADD PUSH0 KECCAK256 PUSH1 0x4 ADD PUSH1 0x1 SWAP1 SLOAD SWAP1 PUSH2 0x100 EXP SWAP1 DIV PUSH1 0xFF AND ISZERO ISZERO EQ JUMPDEST ISZERO PUSH2 0x5C4 JUMPI PUSH1 0x7 PUSH0 DUP3 DUP2 MSTORE PUSH1 0x20 ADD SWAP1 DUP2 MSTORE PUSH1 0x20 ADD PUSH0 KECCAK256 PUSH1 0x40 MLOAD DUP1 PUSH1 0xC0 ADD PUSH1 0x40 MSTORE SWAP1 DUP2 PUSH0 DUP3 ADD SLOAD DUP2 MSTORE PUSH1 0x20 ADD PUSH1 0x1 DUP3 ADD SLOAD DUP2 MSTORE PUSH1 0x20 ADD PUSH1 0x2 DUP3 ADD PUSH0 SWAP1 SLOAD SWAP1 PUSH2 0x100 EXP SWAP1 DIV PUSH20 0xFFFFFFFFFFFFFFFFFFFFFFFFFFFFFFFFFFFFFFFF AND PUSH20 0xFFFFFFFFFFFFFFFFFFFFFFFFFFFFFFFFFFFFFFFF AND PUSH20 0xFFFFFFFFFFFFFFFFFFFFFFFFFFFFFFFFFFFFFFFF AND DUP2 MSTORE PUSH1 0x20 ADD PUSH1 0x3 DUP3 ADD SLOAD DUP2 MSTORE PUSH1 0x20 ADD PUSH1 0x4 DUP3 ADD PUSH0 SWAP1 SLOAD SWAP1 PUSH2 0x100 EXP SWAP1 DIV PUSH1 0xFF AND ISZERO ISZERO ISZERO ISZERO DUP2 MSTORE PUSH1 0x20 ADD PUSH1 0x4 DUP3 ADD PUSH1 0x1 SWAP1 SLOAD SWAP1 PUSH2 0x100 EXP SWAP1 DIV PUSH1 0xFF AND ISZERO ISZERO ISZERO ISZERO DUP2 MSTORE POP POP DUP3 DUP5 DUP2 MLOAD DUP2 LT PUSH2 0x5A9 JUMPI PUSH2 0x5A8 PUSH2 0x1CE0 JUMP JUMPDEST JUMPDEST PUSH1 0x20 MUL PUSH1 0x20 ADD ADD DUP2 SWAP1 MSTORE POP PUSH1 0x1 DUP4 PUSH2 0x5C1 SWAP2 SWAP1 PUSH2 0x1D3A JUMP JUMPDEST SWAP3 POP JUMPDEST DUP1 DUP1 PUSH2 0x5CF SWAP1 PUSH2 0x1D6D JUMP JUMPDEST SWAP2 POP POP PUSH2 0x406 JUMP JUMPDEST POP DUP2 DUP2 MSTORE DUP1 SWAP4 POP POP POP POP SWAP1 JUMP JUMPDEST PUSH1 0x4 PUSH0 SWAP1 SLOAD SWAP1 PUSH2 0x100 EXP SWAP1 DIV PUSH20 0xFFFFFFFFFFFFFFFFFFFFFFFFFFFFFFFFFFFFFFFF AND DUP2 JUMP JUMPDEST PUSH1 0x60 PUSH0 PUSH2 0x616 PUSH1 0x1 PUSH2 0x16B8 JUMP JUMPDEST SWAP1 POP PUSH0 PUSH2 0x623 PUSH1 0x2 PUSH2 0x16B8 JUMP JUMPDEST DUP3 PUSH2 0x62E SWAP2 SWAP1 PUSH2 0x1DB4 JUMP JUMPDEST SWAP1 POP PUSH0 DUP1 DUP3 PUSH8 0xFFFFFFFFFFFFFFFF DUP2 GT ISZERO PUSH2 0x64C JUMPI PUSH2 0x64B PUSH2 0x1CB3 JUMP JUMPDEST JUMPDEST PUSH1 0x40 MLOAD SWAP1 DUP1 DUP3 MSTORE DUP1 PUSH1 0x20 MUL PUSH1 0x20 ADD DUP3 ADD PUSH1 0x40 MSTORE DUP1 ISZERO PUSH2 0x685 JUMPI DUP2 PUSH1 0x20 ADD JUMPDEST PUSH2 0x672 PUSH2 0x1827 JUMP JUMPDEST DUP2 MSTORE PUSH1 0x20 ADD SWAP1 PUSH1 0x1 SWAP1 SUB SWAP1 DUP2 PUSH2 0x66A JUMPI SWAP1 POP JUMPDEST POP SWAP1 POP PUSH0 PUSH1 0x1 SWAP1 POP JUMPDEST DUP5 DUP2 GT PUSH2 0x7F5 JUMPI PUSH0 ISZERO ISZERO PUSH1 0x7 PUSH0 DUP4 DUP2 MSTORE PUSH1 0x20 ADD SWAP1 DUP2 MSTORE PUSH1 0x20 ADD PUSH0 KECCAK256 PUSH1 0x4 ADD PUSH0 SWAP1 SLOAD SWAP1 PUSH2 0x100 EXP SWAP1 DIV PUSH1 0xFF AND ISZERO ISZERO EQ DUP1 ISZERO PUSH2 0x6EC JUMPI POP PUSH0 ISZERO ISZERO PUSH1 0x7 PUSH0 DUP4 DUP2 MSTORE PUSH1 0x20 ADD SWAP1 DUP2 MSTORE PUSH1 0x20 ADD PUSH0 KECCAK256 PUSH1 0x4 ADD PUSH1 0x1 SWAP1 SLOAD SWAP1 PUSH2 0x100 EXP SWAP1 DIV PUSH1 0xFF AND ISZERO ISZERO EQ JUMPDEST ISZERO PUSH2 0x7E2 JUMPI PUSH1 0x7 PUSH0 DUP3 DUP2 MSTORE PUSH1 0x20 ADD SWAP1 DUP2 MSTORE PUSH1 0x20 ADD PUSH0 KECCAK256 PUSH1 0x40 MLOAD DUP1 PUSH1 0xC0 ADD PUSH1 0x40 MSTORE SWAP1 DUP2 PUSH0 DUP3 ADD SLOAD DUP2 MSTORE PUSH1 0x20 ADD PUSH1 0x1 DUP3 ADD SLOAD DUP2 MSTORE PUSH1 0x20 ADD PUSH1 0x2 DUP3 ADD PUSH0 SWAP1 SLOAD SWAP1 PUSH2 0x100 EXP SWAP1 DIV PUSH20 0xFFFFFFFFFFFFFFFFFFFFFFFFFFFFFFFFFFFFFFFF AND PUSH20 0xFFFFFFFFFFFFFFFFFFFFFFFFFFFFFFFFFFFFFFFF AND PUSH20 0xFFFFFFFFFFFFFFFFFFFFFFFFFFFFFFFFFFFFFFFF AND DUP2 MSTORE PUSH1 0x20 ADD PUSH1 0x3 DUP3 ADD SLOAD DUP2 MSTORE PUSH1 0x20 ADD PUSH1 0x4 DUP3 ADD PUSH0 SWAP1 SLOAD SWAP1 PUSH2 0x100 EXP SWAP1 DIV PUSH1 0xFF AND ISZERO ISZERO ISZERO ISZERO DUP2 MSTORE PUSH1 0x20 ADD PUSH1 0x4 DUP3 ADD PUSH1 0x1 SWAP1 SLOAD SWAP1 PUSH2 0x100 EXP SWAP1 DIV PUSH1 0xFF AND ISZERO ISZERO ISZERO ISZERO DUP2 MSTORE POP POP DUP3 DUP5 DUP2 MLOAD DUP2 LT PUSH2 0x7C7 JUMPI PUSH2 0x7C6 PUSH2 0x1CE0 JUMP JUMPDEST JUMPDEST PUSH1 0x20 MUL PUSH1 0x20 ADD ADD DUP2 SWAP1 MSTORE POP PUSH1 0x1 DUP4 PUSH2 0x7DF SWAP2 SWAP1 PUSH2 0x1D3A JUMP JUMPDEST SWAP3 POP JUMPDEST DUP1 DUP1 PUSH2 0x7ED SWAP1 PUSH2 0x1D6D JUMP JUMPDEST SWAP2 POP POP PUSH2 0x68E JUMP JUMPDEST POP DUP2 DUP2 MSTORE DUP1 SWAP5 POP POP POP POP POP SWAP1 JUMP JUMPDEST PUSH2 0x80B PUSH2 0x16C4 JUMP JUMPDEST DUP1 PUSH1 0x3 DUP2 SWAP1 SSTORE POP POP JUMP JUMPDEST PUSH0 PUSH1 0x7 PUSH0 DUP4 DUP2 MSTORE PUSH1 0x20 ADD SWAP1 DUP2 MSTORE PUSH1 0x20 ADD PUSH0 KECCAK256 SWAP1 POP CALLER PUSH20 0xFFFFFFFFFFFFFFFFFFFFFFFFFFFFFFFFFFFFFFFF AND DUP2 PUSH1 0x2 ADD PUSH0 SWAP1 SLOAD SWAP1 PUSH2 0x100 EXP SWAP1 DIV PUSH20 0xFFFFFFFFFFFFFFFFFFFFFFFFFFFFFFFFFFFFFFFF AND PUSH20 0xFFFFFFFFFFFFFFFFFFFFFFFFFFFFFFFFFFFFFFFF AND EQ PUSH2 0x8BA JUMPI PUSH1 0x40 MLOAD PUSH32 0x8C379A000000000000000000000000000000000000000000000000000000000 DUP2 MSTORE PUSH1 0x4 ADD PUSH2 0x8B1 SWAP1 PUSH2 0x1E41 JUMP JUMPDEST PUSH1 0x40 MLOAD DUP1 SWAP2 SUB SWAP1 REVERT JUMPDEST PUSH1 0x1 DUP2 PUSH1 0x4 ADD PUSH1 0x1 PUSH2 0x100 EXP DUP2 SLOAD DUP2 PUSH1 0xFF MUL NOT AND SWAP1 DUP4 ISZERO ISZERO MUL OR SWAP1 SSTORE POP PUSH32 0xF3081024F71F191A4FDE516997E5F5829F7D9A1621DA3C05AFE71A223E425C67 DUP3 DUP3 PUSH1 0x1 ADD SLOAD CALLER DUP5 PUSH1 0x3 ADD SLOAD PUSH1 0x40 MLOAD PUSH2 0x914 SWAP5 SWAP4 SWAP3 SWAP2 SWAP1 PUSH2 0x1E5F JUMP JUMPDEST PUSH1 0x40 MLOAD DUP1 SWAP2 SUB SWAP1 LOG1 POP POP JUMP JUMPDEST PUSH2 0x928 PUSH2 0x16C4 JUMP JUMPDEST PUSH2 0x931 PUSH0 PUSH2 0x174B JUMP JUMPDEST JUMP JUMPDEST PUSH0 DUP2 GT PUSH2 0x975 JUMPI PUSH1 0x40 MLOAD PUSH32 0x8C379A000000000000000000000000000000000000000000000000000000000 DUP2 MSTORE PUSH1 0x4 ADD PUSH2 0x96C SWAP1 PUSH2 0x1EEC JUMP JUMPDEST PUSH1 0x40 MLOAD DUP1 SWAP2 SUB SWAP1 REVERT JUMPDEST PUSH2 0x97F PUSH1 0x1 PUSH2 0x180C JUMP JUMPDEST PUSH0 PUSH2 0x98A PUSH1 0x1 PUSH2 0x16B8 JUMP JUMPDEST SWAP1 POP CALLER PUSH20 0xFFFFFFFFFFFFFFFFFFFFFFFFFFFFFFFFFFFFFFFF AND PUSH1 0x5 PUSH0 SWAP1 SLOAD SWAP1 PUSH2 0x100 EXP SWAP1 DIV PUSH20 0xFFFFFFFFFFFFFFFFFFFFFFFFFFFFFFFFFFFFFFFF AND PUSH20 0xFFFFFFFFFFFFFFFFFFFFFFFFFFFFFFFFFFFFFFFF AND PUSH4 0x6352211E DUP6 PUSH1 0x40 MLOAD DUP3 PUSH4 0xFFFFFFFF AND PUSH1 0xE0 SHL DUP2 MSTORE PUSH1 0x4 ADD PUSH2 0x9FD SWAP2 SWAP1 PUSH2 0x1889 JUMP JUMPDEST PUSH1 0x20 PUSH1 0x40 MLOAD DUP1 DUP4 SUB DUP2 DUP7 GAS STATICCALL ISZERO DUP1 ISZERO PUSH2 0xA18 JUMPI RETURNDATASIZE PUSH0 DUP1 RETURNDATACOPY RETURNDATASIZE PUSH0 REVERT JUMPDEST POP POP POP POP PUSH1 0x40 MLOAD RETURNDATASIZE PUSH1 0x1F NOT PUSH1 0x1F DUP3 ADD AND DUP3 ADD DUP1 PUSH1 0x40 MSTORE POP DUP2 ADD SWAP1 PUSH2 0xA3C SWAP2 SWAP1 PUSH2 0x1F1E JUMP JUMPDEST PUSH20 0xFFFFFFFFFFFFFFFFFFFFFFFFFFFFFFFFFFFFFFFF AND EQ PUSH2 0xA92 JUMPI PUSH1 0x40 MLOAD PUSH32 0x8C379A000000000000000000000000000000000000000000000000000000000 DUP2 MSTORE PUSH1 0x4 ADD PUSH2 0xA89 SWAP1 PUSH2 0x1E41 JUMP JUMPDEST PUSH1 0x40 MLOAD DUP1 SWAP2 SUB SWAP1 REVERT JUMPDEST PUSH1 0x5 PUSH0 SWAP1 SLOAD SWAP1 PUSH2 0x100 EXP SWAP1 DIV PUSH20 0xFFFFFFFFFFFFFFFFFFFFFFFFFFFFFFFFFFFFFFFF AND PUSH20 0xFFFFFFFFFFFFFFFFFFFFFFFFFFFFFFFFFFFFFFFF AND PUSH4 0xE985E9C5 CALLER ADDRESS PUSH1 0x40 MLOAD DUP4 PUSH4 0xFFFFFFFF AND PUSH1 0xE0 SHL DUP2 MSTORE PUSH1 0x4 ADD PUSH2 0xAEE SWAP3 SWAP2 SWAP1 PUSH2 0x1F49 JUMP JUMPDEST PUSH1 0x20 PUSH1 0x40 MLOAD DUP1 DUP4 SUB DUP2 DUP7 GAS STATICCALL ISZERO DUP1 ISZERO PUSH2 0xB09 JUMPI RETURNDATASIZE PUSH0 DUP1 RETURNDATACOPY RETURNDATASIZE PUSH0 REVERT JUMPDEST POP POP POP POP PUSH1 0x40 MLOAD RETURNDATASIZE PUSH1 0x1F NOT PUSH1 0x1F DUP3 ADD AND DUP3 ADD DUP1 PUSH1 0x40 MSTORE POP DUP2 ADD SWAP1 PUSH2 0xB2D SWAP2 SWAP1 PUSH2 0x1F9A JUMP JUMPDEST PUSH2 0xB6C JUMPI PUSH1 0x40 MLOAD PUSH32 0x8C379A000000000000000000000000000000000000000000000000000000000 DUP2 MSTORE PUSH1 0x4 ADD PUSH2 0xB63 SWAP1 PUSH2 0x200F JUMP JUMPDEST PUSH1 0x40 MLOAD DUP1 SWAP2 SUB SWAP1 REVERT JUMPDEST PUSH1 0x5 PUSH0 SWAP1 SLOAD SWAP1 PUSH2 0x100 EXP SWAP1 DIV PUSH20 0xFFFFFFFFFFFFFFFFFFFFFFFFFFFFFFFFFFFFFFFF AND PUSH20 0xFFFFFFFFFFFFFFFFFFFFFFFFFFFFFFFFFFFFFFFF AND PUSH4 0x95EA7B3 ADDRESS DUP6 PUSH1 0x40 MLOAD DUP4 PUSH4 0xFFFFFFFF AND PUSH1 0xE0 SHL DUP2 MSTORE PUSH1 0x4 ADD PUSH2 0xBC8 SWAP3 SWAP2 SWAP1 PUSH2 0x202D JUMP JUMPDEST PUSH0 PUSH1 0x40 MLOAD DUP1 DUP4 SUB DUP2 PUSH0 DUP8 DUP1 EXTCODESIZE ISZERO DUP1 ISZERO PUSH2 0xBDF JUMPI PUSH0 DUP1 REVERT JUMPDEST POP GAS CALL ISZERO DUP1 ISZERO PUSH2 0xBF1 JUMPI RETURNDATASIZE PUSH0 DUP1 RETURNDATACOPY RETURNDATASIZE PUSH0 REVERT JUMPDEST POP POP POP POP PUSH1 0x40 MLOAD DUP1 PUSH1 0xC0 ADD PUSH1 0x40 MSTORE DUP1 DUP3 DUP2 MSTORE PUSH1 0x20 ADD DUP5 DUP2 MSTORE PUSH1 0x20 ADD CALLER PUSH20 0xFFFFFFFFFFFFFFFFFFFFFFFFFFFFFFFFFFFFFFFF AND DUP2 MSTORE PUSH1 0x20 ADD DUP4 DUP2 MSTORE PUSH1 0x20 ADD PUSH0 ISZERO ISZERO DUP2 MSTORE PUSH1 0x20 ADD PUSH0 ISZERO ISZERO DUP2 MSTORE POP PUSH1 0x7 PUSH0 DUP4 DUP2 MSTORE PUSH1 0x20 ADD SWAP1 DUP2 MSTORE PUSH1 0x20 ADD PUSH0 KECCAK256 PUSH0 DUP3 ADD MLOAD DUP2 PUSH0 ADD SSTORE PUSH1 0x20 DUP3 ADD MLOAD DUP2 PUSH1 0x1 ADD SSTORE PUSH1 0x40 DUP3 ADD MLOAD DUP2 PUSH1 0x2 ADD PUSH0 PUSH2 0x100 EXP DUP2 SLOAD DUP2 PUSH20 0xFFFFFFFFFFFFFFFFFFFFFFFFFFFFFFFFFFFFFFFF MUL NOT AND SWAP1 DUP4 PUSH20 0xFFFFFFFFFFFFFFFFFFFFFFFFFFFFFFFFFFFFFFFF AND MUL OR SWAP1 SSTORE POP PUSH1 0x60 DUP3 ADD MLOAD DUP2 PUSH1 0x3 ADD SSTORE PUSH1 0x80 DUP3 ADD MLOAD DUP2 PUSH1 0x4 ADD PUSH0 PUSH2 0x100 EXP DUP2 SLOAD DUP2 PUSH1 0xFF MUL NOT AND SWAP1 DUP4 ISZERO ISZERO MUL OR SWAP1 SSTORE POP PUSH1 0xA0 DUP3 ADD MLOAD DUP2 PUSH1 0x4 ADD PUSH1 0x1 PUSH2 0x100 EXP DUP2 SLOAD DUP2 PUSH1 0xFF MUL NOT AND SWAP1 DUP4 ISZERO ISZERO MUL OR SWAP1 SSTORE POP SWAP1 POP POP DUP1 PUSH1 0x6 PUSH0 DUP6 DUP2 MSTORE PUSH1 0x20 ADD SWAP1 DUP2 MSTORE PUSH1 0x20 ADD PUSH0 KECCAK256 DUP2 SWAP1 SSTORE POP PUSH32 0xCCC2C46EA1A1FC6B4E5D39AC3FED1A88C04185F5221091DF5B44B249F982851B DUP2 DUP5 CALLER DUP6 PUSH1 0x40 MLOAD PUSH2 0xD3C SWAP5 SWAP4 SWAP3 SWAP2 SWAP1 PUSH2 0x1E5F JUMP JUMPDEST PUSH1 0x40 MLOAD DUP1 SWAP2 SUB SWAP1 LOG1 POP POP POP JUMP JUMPDEST PUSH0 DUP1 PUSH0 SWAP1 SLOAD SWAP1 PUSH2 0x100 EXP SWAP1 DIV PUSH20 0xFFFFFFFFFFFFFFFFFFFFFFFFFFFFFFFFFFFFFFFF AND SWAP1 POP SWAP1 JUMP JUMPDEST PUSH1 0x60 PUSH0 PUSH2 0xD7D PUSH1 0x1 PUSH2 0x16B8 JUMP JUMPDEST SWAP1 POP PUSH0 DUP2 PUSH8 0xFFFFFFFFFFFFFFFF DUP2 GT ISZERO PUSH2 0xD9A JUMPI PUSH2 0xD99 PUSH2 0x1CB3 JUMP JUMPDEST JUMPDEST PUSH1 0x40 MLOAD SWAP1 DUP1 DUP3 MSTORE DUP1 PUSH1 0x20 MUL PUSH1 0x20 ADD DUP3 ADD PUSH1 0x40 MSTORE DUP1 ISZERO PUSH2 0xDD3 JUMPI DUP2 PUSH1 0x20 ADD JUMPDEST PUSH2 0xDC0 PUSH2 0x1827 JUMP JUMPDEST DUP2 MSTORE PUSH1 0x20 ADD SWAP1 PUSH1 0x1 SWAP1 SUB SWAP1 DUP2 PUSH2 0xDB8 JUMPI SWAP1 POP JUMPDEST POP SWAP1 POP PUSH0 PUSH1 0x1 SWAP1 POP JUMPDEST DUP3 DUP2 GT PUSH2 0xEE3 JUMPI PUSH1 0x7 PUSH0 DUP3 DUP2 MSTORE PUSH1 0x20 ADD SWAP1 DUP2 MSTORE PUSH1 0x20 ADD PUSH0 KECCAK256 PUSH1 0x40 MLOAD DUP1 PUSH1 0xC0 ADD PUSH1 0x40 MSTORE SWAP1 DUP2 PUSH0 DUP3 ADD SLOAD DUP2 MSTORE PUSH1 0x20 ADD PUSH1 0x1 DUP3 ADD SLOAD DUP2 MSTORE PUSH1 0x20 ADD PUSH1 0x2 DUP3 ADD PUSH0 SWAP1 SLOAD SWAP1 PUSH2 0x100 EXP SWAP1 DIV PUSH20 0xFFFFFFFFFFFFFFFFFFFFFFFFFFFFFFFFFFFFFFFF AND PUSH20 0xFFFFFFFFFFFFFFFFFFFFFFFFFFFFFFFFFFFFFFFF AND PUSH20 0xFFFFFFFFFFFFFFFFFFFFFFFFFFFFFFFFFFFFFFFF AND DUP2 MSTORE PUSH1 0x20 ADD PUSH1 0x3 DUP3 ADD SLOAD DUP2 MSTORE PUSH1 0x20 ADD PUSH1 0x4 DUP3 ADD PUSH0 SWAP1 SLOAD SWAP1 PUSH2 0x100 EXP SWAP1 DIV PUSH1 0xFF AND ISZERO ISZERO ISZERO ISZERO DUP2 MSTORE PUSH1 0x20 ADD PUSH1 0x4 DUP3 ADD PUSH1 0x1 SWAP1 SLOAD SWAP1 PUSH2 0x100 EXP SWAP1 DIV PUSH1 0xFF AND ISZERO ISZERO ISZERO ISZERO DUP2 MSTORE POP POP DUP3 PUSH1 0x1 DUP4 PUSH2 0xEB4 SWAP2 SWAP1 PUSH2 0x1DB4 JUMP JUMPDEST DUP2 MLOAD DUP2 LT PUSH2 0xEC5 JUMPI PUSH2 0xEC4 PUSH2 0x1CE0 JUMP JUMPDEST JUMPDEST PUSH1 0x20 MUL PUSH1 0x20 ADD ADD DUP2 SWAP1 MSTORE POP DUP1 DUP1 PUSH2 0xEDB SWAP1 PUSH2 0x1D6D JUMP JUMPDEST SWAP2 POP POP PUSH2 0xDDC JUMP JUMPDEST POP DUP1 SWAP3 POP POP POP SWAP1 JUMP JUMPDEST PUSH1 0x7 PUSH1 0x20 MSTORE DUP1 PUSH0 MSTORE PUSH1 0x40 PUSH0 KECCAK256 PUSH0 SWAP2 POP SWAP1 POP DUP1 PUSH0 ADD SLOAD SWAP1 DUP1 PUSH1 0x1 ADD SLOAD SWAP1 DUP1 PUSH1 0x2 ADD PUSH0 SWAP1 SLOAD SWAP1 PUSH2 0x100 EXP SWAP1 DIV PUSH20 0xFFFFFFFFFFFFFFFFFFFFFFFFFFFFFFFFFFFFFFFF AND SWAP1 DUP1 PUSH1 0x3 ADD SLOAD SWAP1 DUP1 PUSH1 0x4 ADD PUSH0 SWAP1 SLOAD SWAP1 PUSH2 0x100 EXP SWAP1 DIV PUSH1 0xFF AND SWAP1 DUP1 PUSH1 0x4 ADD PUSH1 0x1 SWAP1 SLOAD SWAP1 PUSH2 0x100 EXP SWAP1 DIV PUSH1 0xFF AND SWAP1 POP DUP7 JUMP JUMPDEST CALLER PUSH20 0xFFFFFFFFFFFFFFFFFFFFFFFFFFFFFFFFFFFFFFFF AND PUSH1 0x7 PUSH0 DUP5 DUP2 MSTORE PUSH1 0x20 ADD SWAP1 DUP2 MSTORE PUSH1 0x20 ADD PUSH0 KECCAK256 PUSH1 0x2 ADD PUSH0 SWAP1 SLOAD SWAP1 PUSH2 0x100 EXP SWAP1 DIV PUSH20 0xFFFFFFFFFFFFFFFFFFFFFFFFFFFFFFFFFFFFFFFF AND PUSH20 0xFFFFFFFFFFFFFFFFFFFFFFFFFFFFFFFFFFFFFFFF AND EQ PUSH2 0xFFD JUMPI PUSH1 0x40 MLOAD PUSH32 0x8C379A000000000000000000000000000000000000000000000000000000000 DUP2 MSTORE PUSH1 0x4 ADD PUSH2 0xFF4 SWAP1 PUSH2 0x1E41 JUMP JUMPDEST PUSH1 0x40 MLOAD DUP1 SWAP2 SUB SWAP1 REVERT JUMPDEST DUP1 PUSH1 0x7 PUSH0 DUP5 DUP2 MSTORE PUSH1 0x20 ADD SWAP1 DUP2 MSTORE PUSH1 0x20 ADD PUSH0 KECCAK256 PUSH1 0x3 ADD DUP2 SWAP1 SSTORE POP POP POP JUMP JUMPDEST PUSH1 0x5 PUSH0 SWAP1 SLOAD SWAP1 PUSH2 0x100 EXP SWAP1 DIV PUSH20 0xFFFFFFFFFFFFFFFFFFFFFFFFFFFFFFFFFFFFFFFF AND DUP2 JUMP JUMPDEST PUSH0 PUSH1 0x7 PUSH0 DUP4 DUP2 MSTORE PUSH1 0x20 ADD SWAP1 DUP2 MSTORE PUSH1 0x20 ADD PUSH0 KECCAK256 SWAP1 POP DUP1 PUSH1 0x4 ADD PUSH0 SWAP1 SLOAD SWAP1 PUSH2 0x100 EXP SWAP1 DIV PUSH1 0xFF AND ISZERO PUSH2 0x10A4 JUMPI PUSH1 0x40 MLOAD PUSH32 0x8C379A000000000000000000000000000000000000000000000000000000000 DUP2 MSTORE PUSH1 0x4 ADD PUSH2 0x109B SWAP1 PUSH2 0x209E JUMP JUMPDEST PUSH1 0x40 MLOAD DUP1 SWAP2 SUB SWAP1 REVERT JUMPDEST DUP1 PUSH1 0x4 ADD PUSH1 0x1 SWAP1 SLOAD SWAP1 PUSH2 0x100 EXP SWAP1 DIV PUSH1 0xFF AND ISZERO PUSH2 0x10F6 JUMPI PUSH1 0x40 MLOAD PUSH32 0x8C379A000000000000000000000000000000000000000000000000000000000 DUP2 MSTORE PUSH1 0x4 ADD PUSH2 0x10ED SWAP1 PUSH2 0x209E JUMP JUMPDEST PUSH1 0x40 MLOAD DUP1 SWAP2 SUB SWAP1 REVERT JUMPDEST DUP1 PUSH1 0x3 ADD SLOAD PUSH1 0x4 PUSH0 SWAP1 SLOAD SWAP1 PUSH2 0x100 EXP SWAP1 DIV PUSH20 0xFFFFFFFFFFFFFFFFFFFFFFFFFFFFFFFFFFFFFFFF AND PUSH20 0xFFFFFFFFFFFFFFFFFFFFFFFFFFFFFFFFFFFFFFFF AND PUSH4 0x70A08231 CALLER PUSH1 0x40 MLOAD DUP3 PUSH4 0xFFFFFFFF AND PUSH1 0xE0 SHL DUP2 MSTORE PUSH1 0x4 ADD PUSH2 0x1155 SWAP2 SWAP1 PUSH2 0x1B76 JUMP JUMPDEST PUSH1 0x20 PUSH1 0x40 MLOAD DUP1 DUP4 SUB DUP2 DUP7 GAS STATICCALL ISZERO DUP1 ISZERO PUSH2 0x1170 JUMPI RETURNDATASIZE PUSH0 DUP1 RETURNDATACOPY RETURNDATASIZE PUSH0 REVERT JUMPDEST POP POP POP POP PUSH1 0x40 MLOAD RETURNDATASIZE PUSH1 0x1F NOT PUSH1 0x1F DUP3 ADD AND DUP3 ADD DUP1 PUSH1 0x40 MSTORE POP DUP2 ADD SWAP1 PUSH2 0x1194 SWAP2 SWAP1 PUSH2 0x20D0 JUMP JUMPDEST LT ISZERO PUSH2 0x11D5 JUMPI PUSH1 0x40 MLOAD PUSH32 0x8C379A000000000000000000000000000000000000000000000000000000000 DUP2 MSTORE PUSH1 0x4 ADD PUSH2 0x11CC SWAP1 PUSH2 0x2145 JUMP JUMPDEST PUSH1 0x40 MLOAD DUP1 SWAP2 SUB SWAP1 REVERT JUMPDEST DUP1 PUSH1 0x3 ADD SLOAD PUSH1 0x4 PUSH0 SWAP1 SLOAD SWAP1 PUSH2 0x100 EXP SWAP1 DIV PUSH20 0xFFFFFFFFFFFFFFFFFFFFFFFFFFFFFFFFFFFFFFFF AND PUSH20 0xFFFFFFFFFFFFFFFFFFFFFFFFFFFFFFFFFFFFFFFF AND PUSH4 0xDD62ED3E CALLER ADDRESS PUSH1 0x40 MLOAD DUP4 PUSH4 0xFFFFFFFF AND PUSH1 0xE0 SHL DUP2 MSTORE PUSH1 0x4 ADD PUSH2 0x1236 SWAP3 SWAP2 SWAP1 PUSH2 0x1F49 JUMP JUMPDEST PUSH1 0x20 PUSH1 0x40 MLOAD DUP1 DUP4 SUB DUP2 DUP7 GAS STATICCALL ISZERO DUP1 ISZERO PUSH2 0x1251 JUMPI RETURNDATASIZE PUSH0 DUP1 RETURNDATACOPY RETURNDATASIZE PUSH0 REVERT JUMPDEST POP POP POP POP PUSH1 0x40 MLOAD RETURNDATASIZE PUSH1 0x1F NOT PUSH1 0x1F DUP3 ADD AND DUP3 ADD DUP1 PUSH1 0x40 MSTORE POP DUP2 ADD SWAP1 PUSH2 0x1275 SWAP2 SWAP1 PUSH2 0x20D0 JUMP JUMPDEST LT ISZERO PUSH2 0x12B6 JUMPI PUSH1 0x40 MLOAD PUSH32 0x8C379A000000000000000000000000000000000000000000000000000000000 DUP2 MSTORE PUSH1 0x4 ADD PUSH2 0x12AD SWAP1 PUSH2 0x21AD JUMP JUMPDEST PUSH1 0x40 MLOAD DUP1 SWAP2 SUB SWAP1 REVERT JUMPDEST PUSH0 PUSH2 0x3E8 PUSH1 0x3 SLOAD DUP4 PUSH1 0x3 ADD SLOAD PUSH2 0x12CC SWAP2 SWAP1 PUSH2 0x21CB JUMP JUMPDEST PUSH2 0x12D6 SWAP2 SWAP1 PUSH2 0x2239 JUMP JUMPDEST SWAP1 POP PUSH0 DUP2 DUP4 PUSH1 0x3 ADD SLOAD PUSH2 0x12E9 SWAP2 SWAP1 PUSH2 0x1DB4 JUMP JUMPDEST SWAP1 POP PUSH1 0x1 DUP4 PUSH1 0x4 ADD PUSH0 PUSH2 0x100 EXP DUP2 SLOAD DUP2 PUSH1 0xFF MUL NOT AND SWAP1 DUP4 ISZERO ISZERO MUL OR SWAP1 SSTORE POP PUSH2 0x1311 PUSH1 0x2 PUSH2 0x180C JUMP JUMPDEST PUSH1 0x5 PUSH0 SWAP1 SLOAD SWAP1 PUSH2 0x100 EXP SWAP1 DIV PUSH20 0xFFFFFFFFFFFFFFFFFFFFFFFFFFFFFFFFFFFFFFFF AND PUSH20 0xFFFFFFFFFFFFFFFFFFFFFFFFFFFFFFFFFFFFFFFF AND PUSH4 0x23B872DD DUP5 PUSH1 0x2 ADD PUSH0 SWAP1 SLOAD SWAP1 PUSH2 0x100 EXP SWAP1 DIV PUSH20 0xFFFFFFFFFFFFFFFFFFFFFFFFFFFFFFFFFFFFFFFF AND CALLER DUP7 PUSH1 0x1 ADD SLOAD PUSH1 0x40 MLOAD DUP5 PUSH4 0xFFFFFFFF AND PUSH1 0xE0 SHL DUP2 MSTORE PUSH1 0x4 ADD PUSH2 0x1396 SWAP4 SWAP3 SWAP2 SWAP1 PUSH2 0x2289 JUMP JUMPDEST PUSH0 PUSH1 0x40 MLOAD DUP1 DUP4 SUB DUP2 PUSH0 DUP8 DUP1 EXTCODESIZE ISZERO DUP1 ISZERO PUSH2 0x13AD JUMPI PUSH0 DUP1 REVERT JUMPDEST POP GAS CALL ISZERO DUP1 ISZERO PUSH2 0x13BF JUMPI RETURNDATASIZE PUSH0 DUP1 RETURNDATACOPY RETURNDATASIZE PUSH0 REVERT JUMPDEST POP POP POP POP PUSH1 0x4 PUSH0 SWAP1 SLOAD SWAP1 PUSH2 0x100 EXP SWAP1 DIV PUSH20 0xFFFFFFFFFFFFFFFFFFFFFFFFFFFFFFFFFFFFFFFF AND PUSH20 0xFFFFFFFFFFFFFFFFFFFFFFFFFFFFFFFFFFFFFFFF AND PUSH4 0x23B872DD CALLER PUSH2 0x1409 PUSH2 0xD49 JUMP JUMPDEST DUP6 PUSH1 0x40 MLOAD DUP5 PUSH4 0xFFFFFFFF AND PUSH1 0xE0 SHL DUP2 MSTORE PUSH1 0x4 ADD PUSH2 0x1428 SWAP4 SWAP3 SWAP2 SWAP1 PUSH2 0x22BE JUMP JUMPDEST PUSH1 0x20 PUSH1 0x40 MLOAD DUP1 DUP4 SUB DUP2 PUSH0 DUP8 GAS CALL ISZERO DUP1 ISZERO PUSH2 0x1444 JUMPI RETURNDATASIZE PUSH0 DUP1 RETURNDATACOPY RETURNDATASIZE PUSH0 REVERT JUMPDEST POP POP POP POP PUSH1 0x40 MLOAD RETURNDATASIZE PUSH1 0x1F NOT PUSH1 0x1F DUP3 ADD AND DUP3 ADD DUP1 PUSH1 0x40 MSTORE POP DUP2 ADD SWAP1 PUSH2 0x1468 SWAP2 SWAP1 PUSH2 0x1F9A JUMP JUMPDEST PUSH2 0x14A7 JUMPI PUSH1 0x40 MLOAD PUSH32 0x8C379A000000000000000000000000000000000000000000000000000000000 DUP2 MSTORE PUSH1 0x4 ADD PUSH2 0x149E SWAP1 PUSH2 0x233D JUMP JUMPDEST PUSH1 0x40 MLOAD DUP1 SWAP2 SUB SWAP1 REVERT JUMPDEST PUSH1 0x4 PUSH0 SWAP1 SLOAD SWAP1 PUSH2 0x100 EXP SWAP1 DIV PUSH20 0xFFFFFFFFFFFFFFFFFFFFFFFFFFFFFFFFFFFFFFFF AND PUSH20 0xFFFFFFFFFFFFFFFFFFFFFFFFFFFFFFFFFFFFFFFF AND PUSH4 0x23B872DD CALLER DUP6 PUSH1 0x2 ADD PUSH0 SWAP1 SLOAD SWAP1 PUSH2 0x100 EXP SWAP1 DIV PUSH20 0xFFFFFFFFFFFFFFFFFFFFFFFFFFFFFFFFFFFFFFFF AND DUP5 PUSH1 0x40 MLOAD DUP5 PUSH4 0xFFFFFFFF AND PUSH1 0xE0 SHL DUP2 MSTORE PUSH1 0x4 ADD PUSH2 0x1528 SWAP4 SWAP3 SWAP2 SWAP1 PUSH2 0x235B JUMP JUMPDEST PUSH1 0x20 PUSH1 0x40 MLOAD DUP1 DUP4 SUB DUP2 PUSH0 DUP8 GAS CALL ISZERO DUP1 ISZERO PUSH2 0x1544 JUMPI RETURNDATASIZE PUSH0 DUP1 RETURNDATACOPY RETURNDATASIZE PUSH0 REVERT JUMPDEST POP POP POP POP PUSH1 0x40 MLOAD RETURNDATASIZE PUSH1 0x1F NOT PUSH1 0x1F DUP3 ADD AND DUP3 ADD DUP1 PUSH1 0x40 MSTORE POP DUP2 ADD SWAP1 PUSH2 0x1568 SWAP2 SWAP1 PUSH2 0x1F9A JUMP JUMPDEST PUSH2 0x15A7 JUMPI PUSH1 0x40 MLOAD PUSH32 0x8C379A000000000000000000000000000000000000000000000000000000000 DUP2 MSTORE PUSH1 0x4 ADD PUSH2 0x159E SWAP1 PUSH2 0x23DA JUMP JUMPDEST PUSH1 0x40 MLOAD DUP1 SWAP2 SUB SWAP1 REVERT JUMPDEST PUSH32 0x3DFA07A0C200C9DD1DC6E3548DBF78AD2A5C851F72EFBF8B029EF2B8C57445E5 DUP5 DUP5 PUSH1 0x1 ADD SLOAD DUP6 PUSH1 0x2 ADD PUSH0 SWAP1 SLOAD SWAP1 PUSH2 0x100 EXP SWAP1 DIV PUSH20 0xFFFFFFFFFFFFFFFFFFFFFFFFFFFFFFFFFFFFFFFF AND CALLER DUP8 PUSH1 0x3 ADD SLOAD PUSH1 0x40 MLOAD PUSH2 0x1609 SWAP6 SWAP5 SWAP4 SWAP3 SWAP2 SWAP1 PUSH2 0x23F8 JUMP JUMPDEST PUSH1 0x40 MLOAD DUP1 SWAP2 SUB SWAP1 LOG1 POP POP POP POP JUMP JUMPDEST PUSH2 0x161F PUSH2 0x16C4 JUMP JUMPDEST PUSH0 PUSH20 0xFFFFFFFFFFFFFFFFFFFFFFFFFFFFFFFFFFFFFFFF AND DUP2 PUSH20 0xFFFFFFFFFFFFFFFFFFFFFFFFFFFFFFFFFFFFFFFF AND SUB PUSH2 0x168F JUMPI PUSH0 PUSH1 0x40 MLOAD PUSH32 0x1E4FBDF700000000000000000000000000000000000000000000000000000000 DUP2 MSTORE PUSH1 0x4 ADD PUSH2 0x1686 SWAP2 SWAP1 PUSH2 0x1B76 JUMP JUMPDEST PUSH1 0x40 MLOAD DUP1 SWAP2 SUB SWAP1 REVERT JUMPDEST PUSH2 0x1698 DUP2 PUSH2 0x174B JUMP JUMPDEST POP JUMP JUMPDEST PUSH0 DUP1 PUSH1 0x6 PUSH0 DUP5 DUP2 MSTORE PUSH1 0x20 ADD SWAP1 DUP2 MSTORE PUSH1 0x20 ADD PUSH0 KECCAK256 SLOAD EQ ISZERO SWAP1 POP SWAP2 SWAP1 POP JUMP JUMPDEST PUSH0 DUP2 PUSH0 ADD SLOAD SWAP1 POP SWAP2 SWAP1 POP JUMP JUMPDEST PUSH2 0x16CC PUSH2 0x1820 JUMP JUMPDEST PUSH20 0xFFFFFFFFFFFFFFFFFFFFFFFFFFFFFFFFFFFFFFFF AND PUSH2 0x16EA PUSH2 0xD49 JUMP JUMPDEST PUSH20 0xFFFFFFFFFFFFFFFFFFFFFFFFFFFFFFFFFFFFFFFF AND EQ PUSH2 0x1749 JUMPI PUSH2 0x170D PUSH2 0x1820 JUMP JUMPDEST PUSH1 0x40 MLOAD PUSH32 0x118CDAA700000000000000000000000000000000000000000000000000000000 DUP2 MSTORE PUSH1 0x4 ADD PUSH2 0x1740 SWAP2 SWAP1 PUSH2 0x1B76 JUMP JUMPDEST PUSH1 0x40 MLOAD DUP1 SWAP2 SUB SWAP1 REVERT JUMPDEST JUMP JUMPDEST PUSH0 DUP1 PUSH0 SWAP1 SLOAD SWAP1 PUSH2 0x100 EXP SWAP1 DIV PUSH20 0xFFFFFFFFFFFFFFFFFFFFFFFFFFFFFFFFFFFFFFFF AND SWAP1 POP DUP2 PUSH0 DUP1 PUSH2 0x100 EXP DUP2 SLOAD DUP2 PUSH20 0xFFFFFFFFFFFFFFFFFFFFFFFFFFFFFFFFFFFFFFFF MUL NOT AND SWAP1 DUP4 PUSH20 0xFFFFFFFFFFFFFFFFFFFFFFFFFFFFFFFFFFFFFFFF AND MUL OR SWAP1 SSTORE POP DUP2 PUSH20 0xFFFFFFFFFFFFFFFFFFFFFFFFFFFFFFFFFFFFFFFF AND DUP2 PUSH20 0xFFFFFFFFFFFFFFFFFFFFFFFFFFFFFFFFFFFFFFFF AND PUSH32 0x8BE0079C531659141344CD1FD0A4F28419497F9722A3DAAFE3B4186F6B6457E0 PUSH1 0x40 MLOAD PUSH1 0x40 MLOAD DUP1 SWAP2 SUB SWAP1 LOG3 POP POP JUMP JUMPDEST PUSH1 0x1 DUP2 PUSH0 ADD PUSH0 DUP3 DUP3 SLOAD ADD SWAP3 POP POP DUP2 SWAP1 SSTORE POP POP JUMP JUMPDEST PUSH0 CALLER SWAP1 POP SWAP1 JUMP JUMPDEST PUSH1 0x40 MLOAD DUP1 PUSH1 0xC0 ADD PUSH1 0x40 MSTORE DUP1 PUSH0 DUP2 MSTORE PUSH1 0x20 ADD PUSH0 DUP2 MSTORE PUSH1 0x20 ADD PUSH0 PUSH20 0xFFFFFFFFFFFFFFFFFFFFFFFFFFFFFFFFFFFFFFFF AND DUP2 MSTORE PUSH1 0x20 ADD PUSH0 DUP2 MSTORE PUSH1 0x20 ADD PUSH0 ISZERO ISZERO DUP2 MSTORE PUSH1 0x20 ADD PUSH0 ISZERO ISZERO DUP2 MSTORE POP SWAP1 JUMP JUMPDEST PUSH0 DUP2 SWAP1 POP SWAP2 SWAP1 POP JUMP JUMPDEST PUSH2 0x1883 DUP2 PUSH2 0x1871 JUMP JUMPDEST DUP3 MSTORE POP POP JUMP JUMPDEST PUSH0 PUSH1 0x20 DUP3 ADD SWAP1 POP PUSH2 0x189C PUSH0 DUP4 ADD DUP5 PUSH2 0x187A JUMP JUMPDEST SWAP3 SWAP2 POP POP JUMP JUMPDEST PUSH0 DUP2 MLOAD SWAP1 POP SWAP2 SWAP1 POP JUMP JUMPDEST PUSH0 DUP3 DUP3 MSTORE PUSH1 0x20 DUP3 ADD SWAP1 POP SWAP3 SWAP2 POP POP JUMP JUMPDEST PUSH0 DUP2 SWAP1 POP PUSH1 0x20 DUP3 ADD SWAP1 POP SWAP2 SWAP1 POP JUMP JUMPDEST PUSH2 0x18D4 DUP2 PUSH2 0x1871 JUMP JUMPDEST DUP3 MSTORE POP POP JUMP JUMPDEST PUSH0 PUSH20 0xFFFFFFFFFFFFFFFFFFFFFFFFFFFFFFFFFFFFFFFF DUP3 AND SWAP1 POP SWAP2 SWAP1 POP JUMP JUMPDEST PUSH0 PUSH2 0x1903 DUP3 PUSH2 0x18DA JUMP JUMPDEST SWAP1 POP SWAP2 SWAP1 POP JUMP JUMPDEST PUSH2 0x1913 DUP2 PUSH2 0x18F9 JUMP JUMPDEST DUP3 MSTORE POP POP JUMP JUMPDEST PUSH0 DUP2 ISZERO ISZERO SWAP1 POP SWAP2 SWAP1 POP JUMP JUMPDEST PUSH2 0x192D DUP2 PUSH2 0x1919 JUMP JUMPDEST DUP3 MSTORE POP POP JUMP JUMPDEST PUSH1 0xC0 DUP3 ADD PUSH0 DUP3 ADD MLOAD PUSH2 0x1947 PUSH0 DUP6 ADD DUP3 PUSH2 0x18CB JUMP JUMPDEST POP PUSH1 0x20 DUP3 ADD MLOAD PUSH2 0x195A PUSH1 0x20 DUP6 ADD DUP3 PUSH2 0x18CB JUMP JUMPDEST POP PUSH1 0x40 DUP3 ADD MLOAD PUSH2 0x196D PUSH1 0x40 DUP6 ADD DUP3 PUSH2 0x190A JUMP JUMPDEST POP PUSH1 0x60 DUP3 ADD MLOAD PUSH2 0x1980 PUSH1 0x60 DUP6 ADD DUP3 PUSH2 0x18CB JUMP JUMPDEST POP PUSH1 0x80 DUP3 ADD MLOAD PUSH2 0x1993 PUSH1 0x80 DUP6 ADD DUP3 PUSH2 0x1924 JUMP JUMPDEST POP PUSH1 0xA0 DUP3 ADD MLOAD PUSH2 0x19A6 PUSH1 0xA0 DUP6 ADD DUP3 PUSH2 0x1924 JUMP JUMPDEST POP POP POP POP JUMP JUMPDEST PUSH0 PUSH2 0x19B7 DUP4 DUP4 PUSH2 0x1933 JUMP JUMPDEST PUSH1 0xC0 DUP4 ADD SWAP1 POP SWAP3 SWAP2 POP POP JUMP JUMPDEST PUSH0 PUSH1 0x20 DUP3 ADD SWAP1 POP SWAP2 SWAP1 POP JUMP JUMPDEST PUSH0 PUSH2 0x19D9 DUP3 PUSH2 0x18A2 JUMP JUMPDEST PUSH2 0x19E3 DUP2 DUP6 PUSH2 0x18AC JUMP JUMPDEST SWAP4 POP PUSH2 0x19EE DUP4 PUSH2 0x18BC JUMP JUMPDEST DUP1 PUSH0 JUMPDEST DUP4 DUP2 LT ISZERO PUSH2 0x1A1E JUMPI DUP2 MLOAD PUSH2 0x1A05 DUP9 DUP3 PUSH2 0x19AC JUMP JUMPDEST SWAP8 POP PUSH2 0x1A10 DUP4 PUSH2 0x19C3 JUMP JUMPDEST SWAP3 POP POP PUSH1 0x1 DUP2 ADD SWAP1 POP PUSH2 0x19F1 JUMP JUMPDEST POP DUP6 SWAP4 POP POP POP POP SWAP3 SWAP2 POP POP JUMP JUMPDEST PUSH0 PUSH1 0x20 DUP3 ADD SWAP1 POP DUP2 DUP2 SUB PUSH0 DUP4 ADD MSTORE PUSH2 0x1A43 DUP2 DUP5 PUSH2 0x19CF JUMP JUMPDEST SWAP1 POP SWAP3 SWAP2 POP POP JUMP JUMPDEST PUSH0 DUP2 SWAP1 POP SWAP2 SWAP1 POP JUMP JUMPDEST PUSH0 PUSH2 0x1A6E PUSH2 0x1A69 PUSH2 0x1A64 DUP5 PUSH2 0x18DA JUMP JUMPDEST PUSH2 0x1A4B JUMP JUMPDEST PUSH2 0x18DA JUMP JUMPDEST SWAP1 POP SWAP2 SWAP1 POP JUMP JUMPDEST PUSH0 PUSH2 0x1A7F DUP3 PUSH2 0x1A54 JUMP JUMPDEST SWAP1 POP SWAP2 SWAP1 POP JUMP JUMPDEST PUSH0 PUSH2 0x1A90 DUP3 PUSH2 0x1A75 JUMP JUMPDEST SWAP1 POP SWAP2 SWAP1 POP JUMP JUMPDEST PUSH2 0x1AA0 DUP2 PUSH2 0x1A86 JUMP JUMPDEST DUP3 MSTORE POP POP JUMP JUMPDEST PUSH0 PUSH1 0x20 DUP3 ADD SWAP1 POP PUSH2 0x1AB9 PUSH0 DUP4 ADD DUP5 PUSH2 0x1A97 JUMP JUMPDEST SWAP3 SWAP2 POP POP JUMP JUMPDEST PUSH0 DUP1 REVERT JUMPDEST PUSH2 0x1ACC DUP2 PUSH2 0x1871 JUMP JUMPDEST DUP2 EQ PUSH2 0x1AD6 JUMPI PUSH0 DUP1 REVERT JUMPDEST POP JUMP JUMPDEST PUSH0 DUP2 CALLDATALOAD SWAP1 POP PUSH2 0x1AE7 DUP2 PUSH2 0x1AC3 JUMP JUMPDEST SWAP3 SWAP2 POP POP JUMP JUMPDEST PUSH0 PUSH1 0x20 DUP3 DUP5 SUB SLT ISZERO PUSH2 0x1B02 JUMPI PUSH2 0x1B01 PUSH2 0x1ABF JUMP JUMPDEST JUMPDEST PUSH0 PUSH2 0x1B0F DUP5 DUP3 DUP6 ADD PUSH2 0x1AD9 JUMP JUMPDEST SWAP2 POP POP SWAP3 SWAP2 POP POP JUMP JUMPDEST PUSH0 DUP1 PUSH1 0x40 DUP4 DUP6 SUB SLT ISZERO PUSH2 0x1B2E JUMPI PUSH2 0x1B2D PUSH2 0x1ABF JUMP JUMPDEST JUMPDEST PUSH0 PUSH2 0x1B3B DUP6 DUP3 DUP7 ADD PUSH2 0x1AD9 JUMP JUMPDEST SWAP3 POP POP PUSH1 0x20 PUSH2 0x1B4C DUP6 DUP3 DUP7 ADD PUSH2 0x1AD9 JUMP JUMPDEST SWAP2 POP POP SWAP3 POP SWAP3 SWAP1 POP JUMP JUMPDEST PUSH0 PUSH2 0x1B60 DUP3 PUSH2 0x18DA JUMP JUMPDEST SWAP1 POP SWAP2 SWAP1 POP JUMP JUMPDEST PUSH2 0x1B70 DUP2 PUSH2 0x1B56 JUMP JUMPDEST DUP3 MSTORE POP POP JUMP JUMPDEST PUSH0 PUSH1 0x20 DUP3 ADD SWAP1 POP PUSH2 0x1B89 PUSH0 DUP4 ADD DUP5 PUSH2 0x1B67 JUMP JUMPDEST SWAP3 SWAP2 POP POP JUMP JUMPDEST PUSH2 0x1B98 DUP2 PUSH2 0x18F9 JUMP JUMPDEST DUP3 MSTORE POP POP JUMP JUMPDEST PUSH2 0x1BA7 DUP2 PUSH2 0x1919 JUMP JUMPDEST DUP3 MSTORE POP POP JUMP JUMPDEST PUSH0 PUSH1 0xC0 DUP3 ADD SWAP1 POP PUSH2 0x1BC0 PUSH0 DUP4 ADD DUP10 PUSH2 0x187A JUMP JUMPDEST PUSH2 0x1BCD PUSH1 0x20 DUP4 ADD DUP9 PUSH2 0x187A JUMP JUMPDEST PUSH2 0x1BDA PUSH1 0x40 DUP4 ADD DUP8 PUSH2 0x1B8F JUMP JUMPDEST PUSH2 0x1BE7 PUSH1 0x60 DUP4 ADD DUP7 PUSH2 0x187A JUMP JUMPDEST PUSH2 0x1BF4 PUSH1 0x80 DUP4 ADD DUP6 PUSH2 0x1B9E JUMP JUMPDEST PUSH2 0x1C01 PUSH1 0xA0 DUP4 ADD DUP5 PUSH2 0x1B9E JUMP JUMPDEST SWAP8 SWAP7 POP POP POP POP POP POP POP JUMP JUMPDEST PUSH0 PUSH2 0x1C16 DUP3 PUSH2 0x1A75 JUMP JUMPDEST SWAP1 POP SWAP2 SWAP1 POP JUMP JUMPDEST PUSH2 0x1C26 DUP2 PUSH2 0x1C0C JUMP JUMPDEST DUP3 MSTORE POP POP JUMP JUMPDEST PUSH0 PUSH1 0x20 DUP3 ADD SWAP1 POP PUSH2 0x1C3F PUSH0 DUP4 ADD DUP5 PUSH2 0x1C1D JUMP JUMPDEST SWAP3 SWAP2 POP POP JUMP JUMPDEST PUSH2 0x1C4E DUP2 PUSH2 0x1B56 JUMP JUMPDEST DUP2 EQ PUSH2 0x1C58 JUMPI PUSH0 DUP1 REVERT JUMPDEST POP JUMP JUMPDEST PUSH0 DUP2 CALLDATALOAD SWAP1 POP PUSH2 0x1C69 DUP2 PUSH2 0x1C45 JUMP JUMPDEST SWAP3 SWAP2 POP POP JUMP JUMPDEST PUSH0 PUSH1 0x20 DUP3 DUP5 SUB SLT ISZERO PUSH2 0x1C84 JUMPI PUSH2 0x1C83 PUSH2 0x1ABF JUMP JUMPDEST JUMPDEST PUSH0 PUSH2 0x1C91 DUP5 DUP3 DUP6 ADD PUSH2 0x1C5B JUMP JUMPDEST SWAP2 POP POP SWAP3 SWAP2 POP POP JUMP JUMPDEST PUSH0 PUSH1 0x20 DUP3 ADD SWAP1 POP PUSH2 0x1CAD PUSH0 DUP4 ADD DUP5 PUSH2 0x1B9E JUMP JUMPDEST SWAP3 SWAP2 POP POP JUMP JUMPDEST PUSH32 0x4E487B7100000000000000000000000000000000000000000000000000000000 PUSH0 MSTORE PUSH1 0x41 PUSH1 0x4 MSTORE PUSH1 0x24 PUSH0 REVERT JUMPDEST PUSH32 0x4E487B7100000000000000000000000000000000000000000000000000000000 PUSH0 MSTORE PUSH1 0x32 PUSH1 0x4 MSTORE PUSH1 0x24 PUSH0 REVERT JUMPDEST PUSH32 0x4E487B7100000000000000000000000000000000000000000000000000000000 PUSH0 MSTORE PUSH1 0x11 PUSH1 0x4 MSTORE PUSH1 0x24 PUSH0 REVERT JUMPDEST PUSH0 PUSH2 0x1D44 DUP3 PUSH2 0x1871 JUMP JUMPDEST SWAP2 POP PUSH2 0x1D4F DUP4 PUSH2 0x1871 JUMP JUMPDEST SWAP3 POP DUP3 DUP3 ADD SWAP1 POP DUP1 DUP3 GT ISZERO PUSH2 0x1D67 JUMPI PUSH2 0x1D66 PUSH2 0x1D0D JUMP JUMPDEST JUMPDEST SWAP3 SWAP2 POP POP JUMP JUMPDEST PUSH0 PUSH2 0x1D77 DUP3 PUSH2 0x1871 JUMP JUMPDEST SWAP2 POP PUSH32 0xFFFFFFFFFFFFFFFFFFFFFFFFFFFFFFFFFFFFFFFFFFFFFFFFFFFFFFFFFFFFFFFF DUP3 SUB PUSH2 0x1DA9 JUMPI PUSH2 0x1DA8 PUSH2 0x1D0D JUMP JUMPDEST JUMPDEST PUSH1 0x1 DUP3 ADD SWAP1 POP SWAP2 SWAP1 POP JUMP JUMPDEST PUSH0 PUSH2 0x1DBE DUP3 PUSH2 0x1871 JUMP JUMPDEST SWAP2 POP PUSH2 0x1DC9 DUP4 PUSH2 0x1871 JUMP JUMPDEST SWAP3 POP DUP3 DUP3 SUB SWAP1 POP DUP2 DUP2 GT ISZERO PUSH2 0x1DE1 JUMPI PUSH2 0x1DE0 PUSH2 0x1D0D JUMP JUMPDEST JUMPDEST SWAP3 SWAP2 POP POP JUMP JUMPDEST PUSH0 DUP3 DUP3 MSTORE PUSH1 0x20 DUP3 ADD SWAP1 POP SWAP3 SWAP2 POP POP JUMP JUMPDEST PUSH32 0x596F7520617265206E6F7420746865206F776E65720000000000000000000000 PUSH0 DUP3 ADD MSTORE POP JUMP JUMPDEST PUSH0 PUSH2 0x1E2B PUSH1 0x15 DUP4 PUSH2 0x1DE7 JUMP JUMPDEST SWAP2 POP PUSH2 0x1E36 DUP3 PUSH2 0x1DF7 JUMP JUMPDEST PUSH1 0x20 DUP3 ADD SWAP1 POP SWAP2 SWAP1 POP JUMP JUMPDEST PUSH0 PUSH1 0x20 DUP3 ADD SWAP1 POP DUP2 DUP2 SUB PUSH0 DUP4 ADD MSTORE PUSH2 0x1E58 DUP2 PUSH2 0x1E1F JUMP JUMPDEST SWAP1 POP SWAP2 SWAP1 POP JUMP JUMPDEST PUSH0 PUSH1 0x80 DUP3 ADD SWAP1 POP PUSH2 0x1E72 PUSH0 DUP4 ADD DUP8 PUSH2 0x187A JUMP JUMPDEST PUSH2 0x1E7F PUSH1 0x20 DUP4 ADD DUP7 PUSH2 0x187A JUMP JUMPDEST PUSH2 0x1E8C PUSH1 0x40 DUP4 ADD DUP6 PUSH2 0x1B67 JUMP JUMPDEST PUSH2 0x1E99 PUSH1 0x60 DUP4 ADD DUP5 PUSH2 0x187A JUMP JUMPDEST SWAP6 SWAP5 POP POP POP POP POP JUMP JUMPDEST PUSH32 0x5072696365206D757374206265206174206C6561737420312077656900000000 PUSH0 DUP3 ADD MSTORE POP JUMP JUMPDEST PUSH0 PUSH2 0x1ED6 PUSH1 0x1C DUP4 PUSH2 0x1DE7 JUMP JUMPDEST SWAP2 POP PUSH2 0x1EE1 DUP3 PUSH2 0x1EA2 JUMP JUMPDEST PUSH1 0x20 DUP3 ADD SWAP1 POP SWAP2 SWAP1 POP JUMP JUMPDEST PUSH0 PUSH1 0x20 DUP3 ADD SWAP1 POP DUP2 DUP2 SUB PUSH0 DUP4 ADD MSTORE PUSH2 0x1F03 DUP2 PUSH2 0x1ECA JUMP JUMPDEST SWAP1 POP SWAP2 SWAP1 POP JUMP JUMPDEST PUSH0 DUP2 MLOAD SWAP1 POP PUSH2 0x1F18 DUP2 PUSH2 0x1C45 JUMP JUMPDEST SWAP3 SWAP2 POP POP JUMP JUMPDEST PUSH0 PUSH1 0x20 DUP3 DUP5 SUB SLT ISZERO PUSH2 0x1F33 JUMPI PUSH2 0x1F32 PUSH2 0x1ABF JUMP JUMPDEST JUMPDEST PUSH0 PUSH2 0x1F40 DUP5 DUP3 DUP6 ADD PUSH2 0x1F0A JUMP JUMPDEST SWAP2 POP POP SWAP3 SWAP2 POP POP JUMP JUMPDEST PUSH0 PUSH1 0x40 DUP3 ADD SWAP1 POP PUSH2 0x1F5C PUSH0 DUP4 ADD DUP6 PUSH2 0x1B67 JUMP JUMPDEST PUSH2 0x1F69 PUSH1 0x20 DUP4 ADD DUP5 PUSH2 0x1B67 JUMP JUMPDEST SWAP4 SWAP3 POP POP POP JUMP JUMPDEST PUSH2 0x1F79 DUP2 PUSH2 0x1919 JUMP JUMPDEST DUP2 EQ PUSH2 0x1F83 JUMPI PUSH0 DUP1 REVERT JUMPDEST POP JUMP JUMPDEST PUSH0 DUP2 MLOAD SWAP1 POP PUSH2 0x1F94 DUP2 PUSH2 0x1F70 JUMP JUMPDEST SWAP3 SWAP2 POP POP JUMP JUMPDEST PUSH0 PUSH1 0x20 DUP3 DUP5 SUB SLT ISZERO PUSH2 0x1FAF JUMPI PUSH2 0x1FAE PUSH2 0x1ABF JUMP JUMPDEST JUMPDEST PUSH0 PUSH2 0x1FBC DUP5 DUP3 DUP6 ADD PUSH2 0x1F86 JUMP JUMPDEST SWAP2 POP POP SWAP3 SWAP2 POP POP JUMP JUMPDEST PUSH32 0x4D61726B6574706C616365206E6F7420617070726F7665640000000000000000 PUSH0 DUP3 ADD MSTORE POP JUMP JUMPDEST PUSH0 PUSH2 0x1FF9 PUSH1 0x18 DUP4 PUSH2 0x1DE7 JUMP JUMPDEST SWAP2 POP PUSH2 0x2004 DUP3 PUSH2 0x1FC5 JUMP JUMPDEST PUSH1 0x20 DUP3 ADD SWAP1 POP SWAP2 SWAP1 POP JUMP JUMPDEST PUSH0 PUSH1 0x20 DUP3 ADD SWAP1 POP DUP2 DUP2 SUB PUSH0 DUP4 ADD MSTORE PUSH2 0x2026 DUP2 PUSH2 0x1FED JUMP JUMPDEST SWAP1 POP SWAP2 SWAP1 POP JUMP JUMPDEST PUSH0 PUSH1 0x40 DUP3 ADD SWAP1 POP PUSH2 0x2040 PUSH0 DUP4 ADD DUP6 PUSH2 0x1B67 JUMP JUMPDEST PUSH2 0x204D PUSH1 0x20 DUP4 ADD DUP5 PUSH2 0x187A JUMP JUMPDEST SWAP4 SWAP3 POP POP POP JUMP JUMPDEST PUSH32 0x4974656D206973206E6F7420666F722073616C65000000000000000000000000 PUSH0 DUP3 ADD MSTORE POP JUMP JUMPDEST PUSH0 PUSH2 0x2088 PUSH1 0x14 DUP4 PUSH2 0x1DE7 JUMP JUMPDEST SWAP2 POP PUSH2 0x2093 DUP3 PUSH2 0x2054 JUMP JUMPDEST PUSH1 0x20 DUP3 ADD SWAP1 POP SWAP2 SWAP1 POP JUMP JUMPDEST PUSH0 PUSH1 0x20 DUP3 ADD SWAP1 POP DUP2 DUP2 SUB PUSH0 DUP4 ADD MSTORE PUSH2 0x20B5 DUP2 PUSH2 0x207C JUMP JUMPDEST SWAP1 POP SWAP2 SWAP1 POP JUMP JUMPDEST PUSH0 DUP2 MLOAD SWAP1 POP PUSH2 0x20CA DUP2 PUSH2 0x1AC3 JUMP JUMPDEST SWAP3 SWAP2 POP POP JUMP JUMPDEST PUSH0 PUSH1 0x20 DUP3 DUP5 SUB SLT ISZERO PUSH2 0x20E5 JUMPI PUSH2 0x20E4 PUSH2 0x1ABF JUMP JUMPDEST JUMPDEST PUSH0 PUSH2 0x20F2 DUP5 DUP3 DUP6 ADD PUSH2 0x20BC JUMP JUMPDEST SWAP2 POP POP SWAP3 SWAP2 POP POP JUMP JUMPDEST PUSH32 0x496E73756666696369656E742066756E64730000000000000000000000000000 PUSH0 DUP3 ADD MSTORE POP JUMP JUMPDEST PUSH0 PUSH2 0x212F PUSH1 0x12 DUP4 PUSH2 0x1DE7 JUMP JUMPDEST SWAP2 POP PUSH2 0x213A DUP3 PUSH2 0x20FB JUMP JUMPDEST PUSH1 0x20 DUP3 ADD SWAP1 POP SWAP2 SWAP1 POP JUMP JUMPDEST PUSH0 PUSH1 0x20 DUP3 ADD SWAP1 POP DUP2 DUP2 SUB PUSH0 DUP4 ADD MSTORE PUSH2 0x215C DUP2 PUSH2 0x2123 JUMP JUMPDEST SWAP1 POP SWAP2 SWAP1 POP JUMP JUMPDEST PUSH32 0x496E73756666696369656E7420616C6C6F77616E636500000000000000000000 PUSH0 DUP3 ADD MSTORE POP JUMP JUMPDEST PUSH0 PUSH2 0x2197 PUSH1 0x16 DUP4 PUSH2 0x1DE7 JUMP JUMPDEST SWAP2 POP PUSH2 0x21A2 DUP3 PUSH2 0x2163 JUMP JUMPDEST PUSH1 0x20 DUP3 ADD SWAP1 POP SWAP2 SWAP1 POP JUMP JUMPDEST PUSH0 PUSH1 0x20 DUP3 ADD SWAP1 POP DUP2 DUP2 SUB PUSH0 DUP4 ADD MSTORE PUSH2 0x21C4 DUP2 PUSH2 0x218B JUMP JUMPDEST SWAP1 POP SWAP2 SWAP1 POP JUMP JUMPDEST PUSH0 PUSH2 0x21D5 DUP3 PUSH2 0x1871 JUMP JUMPDEST SWAP2 POP PUSH2 0x21E0 DUP4 PUSH2 0x1871 JUMP JUMPDEST SWAP3 POP DUP3 DUP3 MUL PUSH2 0x21EE DUP2 PUSH2 0x1871 JUMP JUMPDEST SWAP2 POP DUP3 DUP3 DIV DUP5 EQ DUP4 ISZERO OR PUSH2 0x2205 JUMPI PUSH2 0x2204 PUSH2 0x1D0D JUMP JUMPDEST JUMPDEST POP SWAP3 SWAP2 POP POP JUMP JUMPDEST PUSH32 0x4E487B7100000000000000000000000000000000000000000000000000000000 PUSH0 MSTORE PUSH1 0x12 PUSH1 0x4 MSTORE PUSH1 0x24 PUSH0 REVERT JUMPDEST PUSH0 PUSH2 0x2243 DUP3 PUSH2 0x1871 JUMP JUMPDEST SWAP2 POP PUSH2 0x224E DUP4 PUSH2 0x1871 JUMP JUMPDEST SWAP3 POP DUP3 PUSH2 0x225E JUMPI PUSH2 0x225D PUSH2 0x220C JUMP JUMPDEST JUMPDEST DUP3 DUP3 DIV SWAP1 POP SWAP3 SWAP2 POP POP JUMP JUMPDEST PUSH0 PUSH2 0x2273 DUP3 PUSH2 0x1A75 JUMP JUMPDEST SWAP1 POP SWAP2 SWAP1 POP JUMP JUMPDEST PUSH2 0x2283 DUP2 PUSH2 0x2269 JUMP JUMPDEST DUP3 MSTORE POP POP JUMP JUMPDEST PUSH0 PUSH1 0x60 DUP3 ADD SWAP1 POP PUSH2 0x229C PUSH0 DUP4 ADD DUP7 PUSH2 0x227A JUMP JUMPDEST PUSH2 0x22A9 PUSH1 0x20 DUP4 ADD DUP6 PUSH2 0x1B67 JUMP JUMPDEST PUSH2 0x22B6 PUSH1 0x40 DUP4 ADD DUP5 PUSH2 0x187A JUMP JUMPDEST SWAP5 SWAP4 POP POP POP POP JUMP JUMPDEST PUSH0 PUSH1 0x60 DUP3 ADD SWAP1 POP PUSH2 0x22D1 PUSH0 DUP4 ADD DUP7 PUSH2 0x1B67 JUMP JUMPDEST PUSH2 0x22DE PUSH1 0x20 DUP4 ADD DUP6 PUSH2 0x1B67 JUMP JUMPDEST PUSH2 0x22EB PUSH1 0x40 DUP4 ADD DUP5 PUSH2 0x187A JUMP JUMPDEST SWAP5 SWAP4 POP POP POP POP JUMP JUMPDEST PUSH32 0x466565207472616E73666572206661696C656400000000000000000000000000 PUSH0 DUP3 ADD MSTORE POP JUMP JUMPDEST PUSH0 PUSH2 0x2327 PUSH1 0x13 DUP4 PUSH2 0x1DE7 JUMP JUMPDEST SWAP2 POP PUSH2 0x2332 DUP3 PUSH2 0x22F3 JUMP JUMPDEST PUSH1 0x20 DUP3 ADD SWAP1 POP SWAP2 SWAP1 POP JUMP JUMPDEST PUSH0 PUSH1 0x20 DUP3 ADD SWAP1 POP DUP2 DUP2 SUB PUSH0 DUP4 ADD MSTORE PUSH2 0x2354 DUP2 PUSH2 0x231B JUMP JUMPDEST SWAP1 POP SWAP2 SWAP1 POP JUMP JUMPDEST PUSH0 PUSH1 0x60 DUP3 ADD SWAP1 POP PUSH2 0x236E PUSH0 DUP4 ADD DUP7 PUSH2 0x1B67 JUMP JUMPDEST PUSH2 0x237B PUSH1 0x20 DUP4 ADD DUP6 PUSH2 0x227A JUMP JUMPDEST PUSH2 0x2388 PUSH1 0x40 DUP4 ADD DUP5 PUSH2 0x187A JUMP JUMPDEST SWAP5 SWAP4 POP POP POP POP JUMP JUMPDEST PUSH32 0x53656C6C65722070726F6365656473207472616E73666572206661696C656400 PUSH0 DUP3 ADD MSTORE POP JUMP JUMPDEST PUSH0 PUSH2 0x23C4 PUSH1 0x1F DUP4 PUSH2 0x1DE7 JUMP JUMPDEST SWAP2 POP PUSH2 0x23CF DUP3 PUSH2 0x2390 JUMP JUMPDEST PUSH1 0x20 DUP3 ADD SWAP1 POP SWAP2 SWAP1 POP JUMP JUMPDEST PUSH0 PUSH1 0x20 DUP3 ADD SWAP1 POP DUP2 DUP2 SUB PUSH0 DUP4 ADD MSTORE PUSH2 0x23F1 DUP2 PUSH2 0x23B8 JUMP JUMPDEST SWAP1 POP SWAP2 SWAP1 POP JUMP JUMPDEST PUSH0 PUSH1 0xA0 DUP3 ADD SWAP1 POP PUSH2 0x240B PUSH0 DUP4 ADD DUP9 PUSH2 0x187A JUMP JUMPDEST PUSH2 0x2418 PUSH1 0x20 DUP4 ADD DUP8 PUSH2 0x187A JUMP JUMPDEST PUSH2 0x2425 PUSH1 0x40 DUP4 ADD DUP7 PUSH2 0x227A JUMP JUMPDEST PUSH2 0x2432 PUSH1 0x60 DUP4 ADD DUP6 PUSH2 0x1B67 JUMP JUMPDEST PUSH2 0x243F PUSH1 0x80 DUP4 ADD DUP5 PUSH2 0x187A JUMP JUMPDEST SWAP7 SWAP6 POP POP POP POP POP POP JUMP INVALID LOG2 PUSH5 0x6970667358 0x22 SLT KECCAK256 PUSH9 0xB1D71A8338A9CF9AD6 BYTE 0xC4 0xC DUP9 SDIV 0xD PUSH30 0x7DF294483FC86E1CAD616CCCFDFDED64736F6C634300081A003300000000 "
				},
				"gasEstimates": {
					"creation": {
						"codeDepositCost": "1868600",
						"executionCost": "infinite",
						"totalCost": "infinite"
					},
					"external": {
						"buyItem(uint256)": "infinite",
						"fetchMarketItemListed()": "infinite",
						"fetchMarketItemLog()": "infinite",
						"fetchMyItemListed()": "infinite",
						"isListed(uint256)": "2872",
						"items(uint256)": "infinite",
						"listItem(uint256,uint256)": "infinite",
						"marketFeePer()": "2449",
						"nftContract()": "infinite",
						"owner()": "2538",
						"paymentToken()": "infinite",
						"renounceOwnership()": "infinite",
						"setMarketPlaceFeePer(uint256)": "infinite",
						"transferOwnership(address)": "infinite",
						"unlistItem(uint256)": "infinite",
						"updateListingPrice(uint256,uint256)": "infinite"
					}
				},
				"methodIdentifiers": {
					"buyItem(uint256)": "e7fb74c7",
					"fetchMarketItemListed()": "495fe564",
					"fetchMarketItemLog()": "9956f4ff",
					"fetchMyItemListed()": "114003ec",
					"isListed(uint256)": "fcce4883",
					"items(uint256)": "bfb231d2",
					"listItem(uint256,uint256)": "883efa67",
					"marketFeePer()": "05507c4b",
					"nftContract()": "d56d229d",
					"owner()": "8da5cb5b",
					"paymentToken()": "3013ce29",
					"renounceOwnership()": "715018a6",
					"setMarketPlaceFeePer(uint256)": "5478c91f",
					"transferOwnership(address)": "f2fde38b",
					"unlistItem(uint256)": "5a599da8",
					"updateListingPrice(uint256,uint256)": "c4604943"
				}
			},
			"storageLayout": {
				"storage": [
					{
						"astId": 8,
						"contract": "contents/MarketPlace.sol:Marketplace",
						"label": "_owner",
						"offset": 0,
						"slot": "0",
						"type": "t_address"
					},
					{
						"astId": 3262,
						"contract": "contents/MarketPlace.sol:Marketplace",
						"label": "_itemIds",
						"offset": 0,
						"slot": "1",
						"type": "t_struct(Counter)1728_storage"
					},
					{
						"astId": 3265,
						"contract": "contents/MarketPlace.sol:Marketplace",
						"label": "_itemsSold",
						"offset": 0,
						"slot": "2",
						"type": "t_struct(Counter)1728_storage"
					},
					{
						"astId": 3268,
						"contract": "contents/MarketPlace.sol:Marketplace",
						"label": "marketFeePer",
						"offset": 0,
						"slot": "3",
						"type": "t_uint256"
					},
					{
						"astId": 3271,
						"contract": "contents/MarketPlace.sol:Marketplace",
						"label": "paymentToken",
						"offset": 0,
						"slot": "4",
						"type": "t_contract(IERC20)394"
					},
					{
						"astId": 3274,
						"contract": "contents/MarketPlace.sol:Marketplace",
						"label": "nftContract",
						"offset": 0,
						"slot": "5",
						"type": "t_contract(IERC721)1520"
					},
					{
						"astId": 3291,
						"contract": "contents/MarketPlace.sol:Marketplace",
						"label": "itemsByNFTToken",
						"offset": 0,
						"slot": "6",
						"type": "t_mapping(t_uint256,t_uint256)"
					},
					{
						"astId": 3296,
						"contract": "contents/MarketPlace.sol:Marketplace",
						"label": "items",
						"offset": 0,
						"slot": "7",
						"type": "t_mapping(t_uint256,t_struct(MarketItem)3287_storage)"
					}
				],
				"types": {
					"t_address": {
						"encoding": "inplace",
						"label": "address",
						"numberOfBytes": "20"
					},
					"t_address_payable": {
						"encoding": "inplace",
						"label": "address payable",
						"numberOfBytes": "20"
					},
					"t_bool": {
						"encoding": "inplace",
						"label": "bool",
						"numberOfBytes": "1"
					},
					"t_contract(IERC20)394": {
						"encoding": "inplace",
						"label": "contract IERC20",
						"numberOfBytes": "20"
					},
					"t_contract(IERC721)1520": {
						"encoding": "inplace",
						"label": "contract IERC721",
						"numberOfBytes": "20"
					},
					"t_mapping(t_uint256,t_struct(MarketItem)3287_storage)": {
						"encoding": "mapping",
						"key": "t_uint256",
						"label": "mapping(uint256 => struct Marketplace.MarketItem)",
						"numberOfBytes": "32",
						"value": "t_struct(MarketItem)3287_storage"
					},
					"t_mapping(t_uint256,t_uint256)": {
						"encoding": "mapping",
						"key": "t_uint256",
						"label": "mapping(uint256 => uint256)",
						"numberOfBytes": "32",
						"value": "t_uint256"
					},
					"t_struct(Counter)1728_storage": {
						"encoding": "inplace",
						"label": "struct Counters.Counter",
						"members": [
							{
								"astId": 1727,
								"contract": "contents/MarketPlace.sol:Marketplace",
								"label": "_value",
								"offset": 0,
								"slot": "0",
								"type": "t_uint256"
							}
						],
						"numberOfBytes": "32"
					},
					"t_struct(MarketItem)3287_storage": {
						"encoding": "inplace",
						"label": "struct Marketplace.MarketItem",
						"members": [
							{
								"astId": 3276,
								"contract": "contents/MarketPlace.sol:Marketplace",
								"label": "itemId",
								"offset": 0,
								"slot": "0",
								"type": "t_uint256"
							},
							{
								"astId": 3278,
								"contract": "contents/MarketPlace.sol:Marketplace",
								"label": "tokenId",
								"offset": 0,
								"slot": "1",
								"type": "t_uint256"
							},
							{
								"astId": 3280,
								"contract": "contents/MarketPlace.sol:Marketplace",
								"label": "owner",
								"offset": 0,
								"slot": "2",
								"type": "t_address_payable"
							},
							{
								"astId": 3282,
								"contract": "contents/MarketPlace.sol:Marketplace",
								"label": "price",
								"offset": 0,
								"slot": "3",
								"type": "t_uint256"
							},
							{
								"astId": 3284,
								"contract": "contents/MarketPlace.sol:Marketplace",
								"label": "sold",
								"offset": 0,
								"slot": "4",
								"type": "t_bool"
							},
							{
								"astId": 3286,
								"contract": "contents/MarketPlace.sol:Marketplace",
								"label": "cancel",
								"offset": 1,
								"slot": "4",
								"type": "t_bool"
							}
						],
						"numberOfBytes": "160"
					},
					"t_uint256": {
						"encoding": "inplace",
						"label": "uint256",
						"numberOfBytes": "32"
					}
				}
			},
			"userdoc": {
				"kind": "user",
				"methods": {},
				"version": 1
			}
		}
	}
}