{
	"contents/Battle.sol": {
		"Battle": {
			"abi": [
				{
					"inputs": [
						{
							"internalType": "address",
							"name": "initialOwner",
							"type": "address"
						},
						{
							"internalType": "address",
							"name": "_dragonContract",
							"type": "address"
						},
						{
							"internalType": "address",
							"name": "_questContract",
							"type": "address"
						},
						{
							"internalType": "address",
							"name": "_drinkContract",
							"type": "address"
						}
					],
					"stateMutability": "nonpayable",
					"type": "constructor"
				},
				{
					"inputs": [
						{
							"internalType": "address",
							"name": "owner",
							"type": "address"
						}
					],
					"name": "OwnableInvalidOwner",
					"type": "error"
				},
				{
					"inputs": [
						{
							"internalType": "address",
							"name": "account",
							"type": "address"
						}
					],
					"name": "OwnableUnauthorizedAccount",
					"type": "error"
				},
				{
					"anonymous": false,
					"inputs": [
						{
							"indexed": true,
							"internalType": "address",
							"name": "previousOwner",
							"type": "address"
						},
						{
							"indexed": true,
							"internalType": "address",
							"name": "newOwner",
							"type": "address"
						}
					],
					"name": "OwnershipTransferred",
					"type": "event"
				},
				{
					"inputs": [
						{
							"internalType": "uint256",
							"name": "count",
							"type": "uint256"
						}
					],
					"name": "addDummy",
					"outputs": [],
					"stateMutability": "nonpayable",
					"type": "function"
				},
				{
					"inputs": [
						{
							"internalType": "uint256",
							"name": "tokenId",
							"type": "uint256"
						}
					],
					"name": "battle",
					"outputs": [],
					"stateMutability": "nonpayable",
					"type": "function"
				},
				{
					"inputs": [],
					"name": "battleReward",
					"outputs": [
						{
							"internalType": "uint256",
							"name": "",
							"type": "uint256"
						}
					],
					"stateMutability": "view",
					"type": "function"
				},
				{
					"inputs": [],
					"name": "dailyBattleLimit",
					"outputs": [
						{
							"internalType": "uint256",
							"name": "",
							"type": "uint256"
						}
					],
					"stateMutability": "view",
					"type": "function"
				},
				{
					"inputs": [],
					"name": "deleteDummy",
					"outputs": [],
					"stateMutability": "nonpayable",
					"type": "function"
				},
				{
					"inputs": [],
					"name": "dragonContract",
					"outputs": [
						{
							"internalType": "contract IToken",
							"name": "",
							"type": "address"
						}
					],
					"stateMutability": "view",
					"type": "function"
				},
				{
					"inputs": [],
					"name": "drinkContract",
					"outputs": [
						{
							"internalType": "contract IDragonDrink",
							"name": "",
							"type": "address"
						}
					],
					"stateMutability": "view",
					"type": "function"
				},
				{
					"inputs": [
						{
							"internalType": "uint256",
							"name": "tokenId",
							"type": "uint256"
						}
					],
					"name": "getBattleRecord",
					"outputs": [
						{
							"internalType": "uint256",
							"name": "win",
							"type": "uint256"
						},
						{
							"internalType": "uint256",
							"name": "lose",
							"type": "uint256"
						},
						{
							"components": [
								{
									"components": [
										{
											"internalType": "uint256",
											"name": "tokenId",
											"type": "uint256"
										},
										{
											"internalType": "uint256",
											"name": "attack",
											"type": "uint256"
										},
										{
											"internalType": "uint256",
											"name": "defense",
											"type": "uint256"
										},
										{
											"internalType": "uint256",
											"name": "health",
											"type": "uint256"
										}
									],
									"internalType": "struct Battle.Dragon",
									"name": "dragon",
									"type": "tuple"
								},
								{
									"internalType": "bool",
									"name": "winStatus",
									"type": "bool"
								}
							],
							"internalType": "struct Battle.OpponentRecord[]",
							"name": "opponents",
							"type": "tuple[]"
						}
					],
					"stateMutability": "view",
					"type": "function"
				},
				{
					"inputs": [
						{
							"internalType": "uint256",
							"name": "tokenId",
							"type": "uint256"
						}
					],
					"name": "getDragonStatus",
					"outputs": [
						{
							"components": [
								{
									"internalType": "uint256",
									"name": "tokenId",
									"type": "uint256"
								},
								{
									"internalType": "uint256",
									"name": "attack",
									"type": "uint256"
								},
								{
									"internalType": "uint256",
									"name": "defense",
									"type": "uint256"
								},
								{
									"internalType": "uint256",
									"name": "health",
									"type": "uint256"
								}
							],
							"internalType": "struct Battle.Dragon",
							"name": "",
							"type": "tuple"
						}
					],
					"stateMutability": "view",
					"type": "function"
				},
				{
					"inputs": [
						{
							"internalType": "address",
							"name": "player",
							"type": "address"
						}
					],
					"name": "getPlayerRecords",
					"outputs": [
						{
							"components": [
								{
									"internalType": "uint256",
									"name": "win",
									"type": "uint256"
								},
								{
									"internalType": "uint256",
									"name": "lose",
									"type": "uint256"
								},
								{
									"components": [
										{
											"components": [
												{
													"internalType": "uint256",
													"name": "tokenId",
													"type": "uint256"
												},
												{
													"internalType": "uint256",
													"name": "attack",
													"type": "uint256"
												},
												{
													"internalType": "uint256",
													"name": "defense",
													"type": "uint256"
												},
												{
													"internalType": "uint256",
													"name": "health",
													"type": "uint256"
												}
											],
											"internalType": "struct Battle.Dragon",
											"name": "dragon",
											"type": "tuple"
										},
										{
											"internalType": "bool",
											"name": "winStatus",
											"type": "bool"
										}
									],
									"internalType": "struct Battle.OpponentRecord[]",
									"name": "opponents",
									"type": "tuple[]"
								}
							],
							"internalType": "struct Battle.BattleRecord",
							"name": "",
							"type": "tuple"
						}
					],
					"stateMutability": "view",
					"type": "function"
				},
				{
					"inputs": [],
					"name": "owner",
					"outputs": [
						{
							"internalType": "address",
							"name": "",
							"type": "address"
						}
					],
					"stateMutability": "view",
					"type": "function"
				},
				{
					"inputs": [],
					"name": "questContract",
					"outputs": [
						{
							"internalType": "contract IQuest",
							"name": "",
							"type": "address"
						}
					],
					"stateMutability": "view",
					"type": "function"
				},
				{
					"inputs": [
						{
							"internalType": "uint256",
							"name": "tokenId",
							"type": "uint256"
						}
					],
					"name": "regiBattle",
					"outputs": [],
					"stateMutability": "nonpayable",
					"type": "function"
				},
				{
					"inputs": [],
					"name": "renounceOwnership",
					"outputs": [],
					"stateMutability": "nonpayable",
					"type": "function"
				},
				{
					"inputs": [
						{
							"internalType": "uint256",
							"name": "limit",
							"type": "uint256"
						}
					],
					"name": "setDailyBattleLimit",
					"outputs": [],
					"stateMutability": "nonpayable",
					"type": "function"
				},
				{
					"inputs": [
						{
							"internalType": "address",
							"name": "newOwner",
							"type": "address"
						}
					],
					"name": "transferOwnership",
					"outputs": [],
					"stateMutability": "nonpayable",
					"type": "function"
				},
				{
					"inputs": [
						{
							"internalType": "uint256",
							"name": "tokenId",
							"type": "uint256"
						}
					],
					"name": "unregiBattle",
					"outputs": [],
					"stateMutability": "nonpayable",
					"type": "function"
				},
				{
					"inputs": [
						{
							"internalType": "uint256",
							"name": "tokenId",
							"type": "uint256"
						}
					],
					"name": "upgradeDragon",
					"outputs": [],
					"stateMutability": "nonpayable",
					"type": "function"
				},
				{
					"inputs": [],
					"name": "upgradePrice",
					"outputs": [
						{
							"internalType": "uint256",
							"name": "",
							"type": "uint256"
						}
					],
					"stateMutability": "view",
					"type": "function"
				}
			],
			"devdoc": {
				"errors": {
					"OwnableInvalidOwner(address)": [
						{
							"details": "The owner is not a valid owner account. (eg. `address(0)`)"
						}
					],
					"OwnableUnauthorizedAccount(address)": [
						{
							"details": "The caller account is not authorized to perform an operation."
						}
					]
				},
				"kind": "dev",
				"methods": {
					"owner()": {
						"details": "Returns the address of the current owner."
					},
					"renounceOwnership()": {
						"details": "Leaves the contract without owner. It will not be possible to call `onlyOwner` functions. Can only be called by the current owner. NOTE: Renouncing ownership will leave the contract without an owner, thereby disabling any functionality that is only available to the owner."
					},
					"transferOwnership(address)": {
						"details": "Transfers ownership of the contract to a new account (`newOwner`). Can only be called by the current owner."
					}
				},
				"version": 1
			},
			"evm": {
				"assembly": "    /* \"contents/Battle.sol\":231:10130  contract Battle is Ownable{... */\n  mstore(0x40, 0x80)\n    /* \"contents/Battle.sol\":1155:1158  300 */\n  0x012c\n    /* \"contents/Battle.sol\":1125:1158  uint256 public upgradePrice = 300 */\n  0x0c\n  sstore\n    /* \"contents/Battle.sol\":1195:1197  10 */\n  0x0a\n    /* \"contents/Battle.sol\":1165:1197  uint256 public battleReward = 10 */\n  0x0d\n  sstore\n    /* \"contents/Battle.sol\":1238:1239  3 */\n  0x03\n    /* \"contents/Battle.sol\":1204:1239  uint256 public dailyBattleLimit = 3 */\n  0x0e\n  sstore\n    /* \"contents/Battle.sol\":1248:1589  constructor(... */\n  callvalue\n  dup1\n  iszero\n  tag_1\n  jumpi\n  0x00\n  dup1\n  revert\ntag_1:\n  pop\n  mload(0x40)\n  sub(codesize, bytecodeSize)\n  dup1\n  bytecodeSize\n  dup4\n  codecopy\n  dup2\n  dup2\n  add\n  0x40\n  mstore\n  dup2\n  add\n  swap1\n  tag_2\n  swap2\n  swap1\n  tag_3\n  jump\t// in\ntag_2:\n    /* \"contents/Battle.sol\":1413:1425  initialOwner */\n  dup4\n    /* \"@openzeppelin/contracts/access/Ownable.sol\":1297:1298  0 */\n  0x00\n    /* \"@openzeppelin/contracts/access/Ownable.sol\":1273:1299  initialOwner == address(0) */\n  0xffffffffffffffffffffffffffffffffffffffff\n  and\n    /* \"@openzeppelin/contracts/access/Ownable.sol\":1273:1285  initialOwner */\n  dup2\n    /* \"@openzeppelin/contracts/access/Ownable.sol\":1273:1299  initialOwner == address(0) */\n  0xffffffffffffffffffffffffffffffffffffffff\n  and\n  sub\n    /* \"@openzeppelin/contracts/access/Ownable.sol\":1269:1364  if (initialOwner == address(0)) {... */\n  tag_7\n  jumpi\n    /* \"@openzeppelin/contracts/access/Ownable.sol\":1350:1351  0 */\n  0x00\n    /* \"@openzeppelin/contracts/access/Ownable.sol\":1322:1353  OwnableInvalidOwner(address(0)) */\n  mload(0x40)\n  0x1e4fbdf700000000000000000000000000000000000000000000000000000000\n  dup2\n  mstore\n  0x04\n  add\n  tag_8\n  swap2\n  swap1\n  tag_9\n  jump\t// in\ntag_8:\n  mload(0x40)\n  dup1\n  swap2\n  sub\n  swap1\n  revert\n    /* \"@openzeppelin/contracts/access/Ownable.sol\":1269:1364  if (initialOwner == address(0)) {... */\ntag_7:\n    /* \"@openzeppelin/contracts/access/Ownable.sol\":1373:1405  _transferOwnership(initialOwner) */\n  tag_10\n    /* \"@openzeppelin/contracts/access/Ownable.sol\":1392:1404  initialOwner */\n  dup2\n    /* \"@openzeppelin/contracts/access/Ownable.sol\":1373:1391  _transferOwnership */\n  shl(0x20, tag_11)\n    /* \"@openzeppelin/contracts/access/Ownable.sol\":1373:1405  _transferOwnership(initialOwner) */\n  0x20\n  shr\n  jump\t// in\ntag_10:\n    /* \"@openzeppelin/contracts/access/Ownable.sol\":1225:1412  constructor(address initialOwner) {... */\n  pop\n    /* \"contents/Battle.sol\":1461:1476  _dragonContract */\n  dup3\n    /* \"contents/Battle.sol\":1437:1451  dragonContract */\n  0x01\n  0x00\n    /* \"contents/Battle.sol\":1437:1477  dragonContract = IToken(_dragonContract) */\n  0x0100\n  exp\n  dup2\n  sload\n  dup2\n  0xffffffffffffffffffffffffffffffffffffffff\n  mul\n  not\n  and\n  swap1\n  dup4\n  0xffffffffffffffffffffffffffffffffffffffff\n  and\n  mul\n  or\n  swap1\n  sstore\n  pop\n    /* \"contents/Battle.sol\":1511:1525  _questContract */\n  dup2\n    /* \"contents/Battle.sol\":1488:1501  questContract */\n  0x02\n  0x00\n    /* \"contents/Battle.sol\":1488:1526  questContract = IQuest(_questContract) */\n  0x0100\n  exp\n  dup2\n  sload\n  dup2\n  0xffffffffffffffffffffffffffffffffffffffff\n  mul\n  not\n  and\n  swap1\n  dup4\n  0xffffffffffffffffffffffffffffffffffffffff\n  and\n  mul\n  or\n  swap1\n  sstore\n  pop\n    /* \"contents/Battle.sol\":1566:1580  _drinkContract */\n  dup1\n    /* \"contents/Battle.sol\":1537:1550  drinkContract */\n  0x03\n  0x00\n    /* \"contents/Battle.sol\":1537:1581  drinkContract = IDragonDrink(_drinkContract) */\n  0x0100\n  exp\n  dup2\n  sload\n  dup2\n  0xffffffffffffffffffffffffffffffffffffffff\n  mul\n  not\n  and\n  swap1\n  dup4\n  0xffffffffffffffffffffffffffffffffffffffff\n  and\n  mul\n  or\n  swap1\n  sstore\n  pop\n    /* \"contents/Battle.sol\":1248:1589  constructor(... */\n  pop\n  pop\n  pop\n  pop\n    /* \"contents/Battle.sol\":231:10130  contract Battle is Ownable{... */\n  jump(tag_13)\n    /* \"@openzeppelin/contracts/access/Ownable.sol\":2912:3099  function _transferOwnership(address newOwner) internal virtual {... */\ntag_11:\n    /* \"@openzeppelin/contracts/access/Ownable.sol\":2985:3001  address oldOwner */\n  0x00\n    /* \"@openzeppelin/contracts/access/Ownable.sol\":3004:3010  _owner */\n  dup1\n  0x00\n  swap1\n  sload\n  swap1\n  0x0100\n  exp\n  swap1\n  div\n  0xffffffffffffffffffffffffffffffffffffffff\n  and\n    /* \"@openzeppelin/contracts/access/Ownable.sol\":2985:3010  address oldOwner = _owner */\n  swap1\n  pop\n    /* \"@openzeppelin/contracts/access/Ownable.sol\":3029:3037  newOwner */\n  dup2\n    /* \"@openzeppelin/contracts/access/Ownable.sol\":3020:3026  _owner */\n  0x00\n  dup1\n    /* \"@openzeppelin/contracts/access/Ownable.sol\":3020:3037  _owner = newOwner */\n  0x0100\n  exp\n  dup2\n  sload\n  dup2\n  0xffffffffffffffffffffffffffffffffffffffff\n  mul\n  not\n  and\n  swap1\n  dup4\n  0xffffffffffffffffffffffffffffffffffffffff\n  and\n  mul\n  or\n  swap1\n  sstore\n  pop\n    /* \"@openzeppelin/contracts/access/Ownable.sol\":3083:3091  newOwner */\n  dup2\n    /* \"@openzeppelin/contracts/access/Ownable.sol\":3052:3092  OwnershipTransferred(oldOwner, newOwner) */\n  0xffffffffffffffffffffffffffffffffffffffff\n  and\n    /* \"@openzeppelin/contracts/access/Ownable.sol\":3073:3081  oldOwner */\n  dup2\n    /* \"@openzeppelin/contracts/access/Ownable.sol\":3052:3092  OwnershipTransferred(oldOwner, newOwner) */\n  0xffffffffffffffffffffffffffffffffffffffff\n  and\n  0x8be0079c531659141344cd1fd0a4f28419497f9722a3daafe3b4186f6b6457e0\n  mload(0x40)\n  mload(0x40)\n  dup1\n  swap2\n  sub\n  swap1\n  log3\n    /* \"@openzeppelin/contracts/access/Ownable.sol\":2975:3099  {... */\n  pop\n    /* \"@openzeppelin/contracts/access/Ownable.sol\":2912:3099  function _transferOwnership(address newOwner) internal virtual {... */\n  pop\n  jump\t// out\n    /* \"#utility.yul\":88:205   */\ntag_16:\n    /* \"#utility.yul\":197:198   */\n  0x00\n    /* \"#utility.yul\":194:195   */\n  dup1\n    /* \"#utility.yul\":187:199   */\n  revert\n    /* \"#utility.yul\":334:460   */\ntag_18:\n    /* \"#utility.yul\":371:378   */\n  0x00\n    /* \"#utility.yul\":411:453   */\n  0xffffffffffffffffffffffffffffffffffffffff\n    /* \"#utility.yul\":404:409   */\n  dup3\n    /* \"#utility.yul\":400:454   */\n  and\n    /* \"#utility.yul\":389:454   */\n  swap1\n  pop\n    /* \"#utility.yul\":334:460   */\n  swap2\n  swap1\n  pop\n  jump\t// out\n    /* \"#utility.yul\":466:562   */\ntag_19:\n    /* \"#utility.yul\":503:510   */\n  0x00\n    /* \"#utility.yul\":532:556   */\n  tag_29\n    /* \"#utility.yul\":550:555   */\n  dup3\n    /* \"#utility.yul\":532:556   */\n  tag_18\n  jump\t// in\ntag_29:\n    /* \"#utility.yul\":521:556   */\n  swap1\n  pop\n    /* \"#utility.yul\":466:562   */\n  swap2\n  swap1\n  pop\n  jump\t// out\n    /* \"#utility.yul\":568:690   */\ntag_20:\n    /* \"#utility.yul\":641:665   */\n  tag_31\n    /* \"#utility.yul\":659:664   */\n  dup2\n    /* \"#utility.yul\":641:665   */\n  tag_19\n  jump\t// in\ntag_31:\n    /* \"#utility.yul\":634:639   */\n  dup2\n    /* \"#utility.yul\":631:666   */\n  eq\n    /* \"#utility.yul\":621:684   */\n  tag_32\n  jumpi\n    /* \"#utility.yul\":680:681   */\n  0x00\n    /* \"#utility.yul\":677:678   */\n  dup1\n    /* \"#utility.yul\":670:682   */\n  revert\n    /* \"#utility.yul\":621:684   */\ntag_32:\n    /* \"#utility.yul\":568:690   */\n  pop\n  jump\t// out\n    /* \"#utility.yul\":696:839   */\ntag_21:\n    /* \"#utility.yul\":753:758   */\n  0x00\n    /* \"#utility.yul\":784:790   */\n  dup2\n    /* \"#utility.yul\":778:791   */\n  mload\n    /* \"#utility.yul\":769:791   */\n  swap1\n  pop\n    /* \"#utility.yul\":800:833   */\n  tag_34\n    /* \"#utility.yul\":827:832   */\n  dup2\n    /* \"#utility.yul\":800:833   */\n  tag_20\n  jump\t// in\ntag_34:\n    /* \"#utility.yul\":696:839   */\n  swap3\n  swap2\n  pop\n  pop\n  jump\t// out\n    /* \"#utility.yul\":845:1665   */\ntag_3:\n    /* \"#utility.yul\":942:948   */\n  0x00\n    /* \"#utility.yul\":950:956   */\n  dup1\n    /* \"#utility.yul\":958:964   */\n  0x00\n    /* \"#utility.yul\":966:972   */\n  dup1\n    /* \"#utility.yul\":1015:1018   */\n  0x80\n    /* \"#utility.yul\":1003:1012   */\n  dup6\n    /* \"#utility.yul\":994:1001   */\n  dup8\n    /* \"#utility.yul\":990:1013   */\n  sub\n    /* \"#utility.yul\":986:1019   */\n  slt\n    /* \"#utility.yul\":983:1103   */\n  iszero\n  tag_36\n  jumpi\n    /* \"#utility.yul\":1022:1101   */\n  tag_37\n  tag_16\n  jump\t// in\ntag_37:\n    /* \"#utility.yul\":983:1103   */\ntag_36:\n    /* \"#utility.yul\":1142:1143   */\n  0x00\n    /* \"#utility.yul\":1167:1231   */\n  tag_38\n    /* \"#utility.yul\":1223:1230   */\n  dup8\n    /* \"#utility.yul\":1214:1220   */\n  dup3\n    /* \"#utility.yul\":1203:1212   */\n  dup9\n    /* \"#utility.yul\":1199:1221   */\n  add\n    /* \"#utility.yul\":1167:1231   */\n  tag_21\n  jump\t// in\ntag_38:\n    /* \"#utility.yul\":1157:1231   */\n  swap5\n  pop\n    /* \"#utility.yul\":1113:1241   */\n  pop\n    /* \"#utility.yul\":1280:1282   */\n  0x20\n    /* \"#utility.yul\":1306:1370   */\n  tag_39\n    /* \"#utility.yul\":1362:1369   */\n  dup8\n    /* \"#utility.yul\":1353:1359   */\n  dup3\n    /* \"#utility.yul\":1342:1351   */\n  dup9\n    /* \"#utility.yul\":1338:1360   */\n  add\n    /* \"#utility.yul\":1306:1370   */\n  tag_21\n  jump\t// in\ntag_39:\n    /* \"#utility.yul\":1296:1370   */\n  swap4\n  pop\n    /* \"#utility.yul\":1251:1380   */\n  pop\n    /* \"#utility.yul\":1419:1421   */\n  0x40\n    /* \"#utility.yul\":1445:1509   */\n  tag_40\n    /* \"#utility.yul\":1501:1508   */\n  dup8\n    /* \"#utility.yul\":1492:1498   */\n  dup3\n    /* \"#utility.yul\":1481:1490   */\n  dup9\n    /* \"#utility.yul\":1477:1499   */\n  add\n    /* \"#utility.yul\":1445:1509   */\n  tag_21\n  jump\t// in\ntag_40:\n    /* \"#utility.yul\":1435:1509   */\n  swap3\n  pop\n    /* \"#utility.yul\":1390:1519   */\n  pop\n    /* \"#utility.yul\":1558:1560   */\n  0x60\n    /* \"#utility.yul\":1584:1648   */\n  tag_41\n    /* \"#utility.yul\":1640:1647   */\n  dup8\n    /* \"#utility.yul\":1631:1637   */\n  dup3\n    /* \"#utility.yul\":1620:1629   */\n  dup9\n    /* \"#utility.yul\":1616:1638   */\n  add\n    /* \"#utility.yul\":1584:1648   */\n  tag_21\n  jump\t// in\ntag_41:\n    /* \"#utility.yul\":1574:1648   */\n  swap2\n  pop\n    /* \"#utility.yul\":1529:1658   */\n  pop\n    /* \"#utility.yul\":845:1665   */\n  swap3\n  swap6\n  swap2\n  swap5\n  pop\n  swap3\n  pop\n  jump\t// out\n    /* \"#utility.yul\":1671:1789   */\ntag_22:\n    /* \"#utility.yul\":1758:1782   */\n  tag_43\n    /* \"#utility.yul\":1776:1781   */\n  dup2\n    /* \"#utility.yul\":1758:1782   */\n  tag_19\n  jump\t// in\ntag_43:\n    /* \"#utility.yul\":1753:1756   */\n  dup3\n    /* \"#utility.yul\":1746:1783   */\n  mstore\n    /* \"#utility.yul\":1671:1789   */\n  pop\n  pop\n  jump\t// out\n    /* \"#utility.yul\":1795:2017   */\ntag_9:\n    /* \"#utility.yul\":1888:1892   */\n  0x00\n    /* \"#utility.yul\":1926:1928   */\n  0x20\n    /* \"#utility.yul\":1915:1924   */\n  dup3\n    /* \"#utility.yul\":1911:1929   */\n  add\n    /* \"#utility.yul\":1903:1929   */\n  swap1\n  pop\n    /* \"#utility.yul\":1939:2010   */\n  tag_45\n    /* \"#utility.yul\":2007:2008   */\n  0x00\n    /* \"#utility.yul\":1996:2005   */\n  dup4\n    /* \"#utility.yul\":1992:2009   */\n  add\n    /* \"#utility.yul\":1983:1989   */\n  dup5\n    /* \"#utility.yul\":1939:2010   */\n  tag_22\n  jump\t// in\ntag_45:\n    /* \"#utility.yul\":1795:2017   */\n  swap3\n  swap2\n  pop\n  pop\n  jump\t// out\n    /* \"contents/Battle.sol\":231:10130  contract Battle is Ownable{... */\ntag_13:\n  dataSize(sub_0)\n  dup1\n  dataOffset(sub_0)\n  0x00\n  codecopy\n  0x00\n  return\nstop\n\nsub_0: assembly {\n        /* \"contents/Battle.sol\":231:10130  contract Battle is Ownable{... */\n      mstore(0x40, 0x80)\n      callvalue\n      dup1\n      iszero\n      tag_1\n      jumpi\n      0x00\n      dup1\n      revert\n    tag_1:\n      pop\n      jumpi(tag_2, lt(calldatasize, 0x04))\n      shr(0xe0, calldataload(0x00))\n      dup1\n      0x8da5cb5b\n      gt\n      tag_22\n      jumpi\n      dup1\n      0xcdb6b4f4\n      gt\n      tag_23\n      jumpi\n      dup1\n      0xcdb6b4f4\n      eq\n      tag_17\n      jumpi\n      dup1\n      0xd1c6839f\n      eq\n      tag_18\n      jumpi\n      dup1\n      0xe98da9ad\n      eq\n      tag_19\n      jumpi\n      dup1\n      0xf2fde38b\n      eq\n      tag_20\n      jumpi\n      dup1\n      0xfbc1274d\n      eq\n      tag_21\n      jumpi\n      jump(tag_2)\n    tag_23:\n      dup1\n      0x8da5cb5b\n      eq\n      tag_12\n      jumpi\n      dup1\n      0x9711dc38\n      eq\n      tag_13\n      jumpi\n      dup1\n      0x9e84477d\n      eq\n      tag_14\n      jumpi\n      dup1\n      0xba3c1e4b\n      eq\n      tag_15\n      jumpi\n      dup1\n      0xc9f4b515\n      eq\n      tag_16\n      jumpi\n      jump(tag_2)\n    tag_22:\n      dup1\n      0x593c8253\n      gt\n      tag_24\n      jumpi\n      dup1\n      0x593c8253\n      eq\n      tag_7\n      jumpi\n      dup1\n      0x5d6de796\n      eq\n      tag_8\n      jumpi\n      dup1\n      0x68b42e60\n      eq\n      tag_9\n      jumpi\n      dup1\n      0x6a6940cc\n      eq\n      tag_10\n      jumpi\n      dup1\n      0x715018a6\n      eq\n      tag_11\n      jumpi\n      jump(tag_2)\n    tag_24:\n      dup1\n      0x287ad39f\n      eq\n      tag_3\n      jumpi\n      dup1\n      0x2d0efac7\n      eq\n      tag_4\n      jumpi\n      dup1\n      0x4d6c423c\n      eq\n      tag_5\n      jumpi\n      dup1\n      0x53a653eb\n      eq\n      tag_6\n      jumpi\n    tag_2:\n      0x00\n      dup1\n      revert\n        /* \"contents/Battle.sol\":1125:1158  uint256 public upgradePrice = 300 */\n    tag_3:\n      tag_25\n      tag_26\n      jump\t// in\n    tag_25:\n      mload(0x40)\n      tag_27\n      swap2\n      swap1\n      tag_28\n      jump\t// in\n    tag_27:\n      mload(0x40)\n      dup1\n      swap2\n      sub\n      swap1\n      return\n        /* \"contents/Battle.sol\":5485:6243  function upgradeDragon(uint256 tokenId) external {... */\n    tag_4:\n      tag_29\n      0x04\n      dup1\n      calldatasize\n      sub\n      dup2\n      add\n      swap1\n      tag_30\n      swap2\n      swap1\n      tag_31\n      jump\t// in\n    tag_30:\n      tag_32\n      jump\t// in\n    tag_29:\n      stop\n        /* \"contents/Battle.sol\":9914:10020  function setDailyBattleLimit(uint256 limit) external onlyOwner {... */\n    tag_5:\n      tag_33\n      0x04\n      dup1\n      calldatasize\n      sub\n      dup2\n      add\n      swap1\n      tag_34\n      swap2\n      swap1\n      tag_31\n      jump\t// in\n    tag_34:\n      tag_35\n      jump\t// in\n    tag_33:\n      stop\n        /* \"contents/Battle.sol\":9441:9700  function getBattleRecord(uint256 tokenId) external view returns (uint256 win, uint256 lose, OpponentRecord[] memory opponents) {... */\n    tag_6:\n      tag_36\n      0x04\n      dup1\n      calldatasize\n      sub\n      dup2\n      add\n      swap1\n      tag_37\n      swap2\n      swap1\n      tag_31\n      jump\t// in\n    tag_37:\n      tag_38\n      jump\t// in\n    tag_36:\n      mload(0x40)\n      tag_39\n      swap4\n      swap3\n      swap2\n      swap1\n      tag_40\n      jump\t// in\n    tag_39:\n      mload(0x40)\n      dup1\n      swap2\n      sub\n      swap1\n      return\n        /* \"contents/Battle.sol\":7354:7928  function unregiBattle(uint256 tokenId) external {... */\n    tag_7:\n      tag_41\n      0x04\n      dup1\n      calldatasize\n      sub\n      dup2\n      add\n      swap1\n      tag_42\n      swap2\n      swap1\n      tag_31\n      jump\t// in\n    tag_42:\n      tag_43\n      jump\t// in\n    tag_41:\n      stop\n        /* \"contents/Battle.sol\":1938:2607  function battle(uint256 tokenId) external resetDailyBattleCount(msg.sender) battleLimitCheck(msg.sender)  {... */\n    tag_8:\n      tag_44\n      0x04\n      dup1\n      calldatasize\n      sub\n      dup2\n      add\n      swap1\n      tag_45\n      swap2\n      swap1\n      tag_31\n      jump\t// in\n    tag_45:\n      tag_46\n      jump\t// in\n    tag_44:\n      stop\n        /* \"contents/Battle.sol\":9307:9433  function getDragonStatus(uint256 tokenId) external view returns(Dragon memory) {... */\n    tag_9:\n      tag_47\n      0x04\n      dup1\n      calldatasize\n      sub\n      dup2\n      add\n      swap1\n      tag_48\n      swap2\n      swap1\n      tag_31\n      jump\t// in\n    tag_48:\n      tag_49\n      jump\t// in\n    tag_47:\n      mload(0x40)\n      tag_50\n      swap2\n      swap1\n      tag_51\n      jump\t// in\n    tag_50:\n      mload(0x40)\n      dup1\n      swap2\n      sub\n      swap1\n      return\n        /* \"contents/Battle.sol\":299:326  IQuest public questContract */\n    tag_10:\n      tag_52\n      tag_53\n      jump\t// in\n    tag_52:\n      mload(0x40)\n      tag_54\n      swap2\n      swap1\n      tag_55\n      jump\t// in\n    tag_54:\n      mload(0x40)\n      dup1\n      swap2\n      sub\n      swap1\n      return\n        /* \"@openzeppelin/contracts/access/Ownable.sol\":2293:2394  function renounceOwnership() public virtual onlyOwner {... */\n    tag_11:\n      tag_56\n      tag_57\n      jump\t// in\n    tag_56:\n      stop\n        /* \"@openzeppelin/contracts/access/Ownable.sol\":1638:1723  function owner() public view virtual returns (address) {... */\n    tag_12:\n      tag_58\n      tag_59\n      jump\t// in\n    tag_58:\n      mload(0x40)\n      tag_60\n      swap2\n      swap1\n      tag_61\n      jump\t// in\n    tag_60:\n      mload(0x40)\n      dup1\n      swap2\n      sub\n      swap1\n      return\n        /* \"contents/Battle.sol\":264:292  IToken public dragonContract */\n    tag_13:\n      tag_62\n      tag_63\n      jump\t// in\n    tag_62:\n      mload(0x40)\n      tag_64\n      swap2\n      swap1\n      tag_65\n      jump\t// in\n    tag_64:\n      mload(0x40)\n      dup1\n      swap2\n      sub\n      swap1\n      return\n        /* \"contents/Battle.sol\":1165:1197  uint256 public battleReward = 10 */\n    tag_14:\n      tag_66\n      tag_67\n      jump\t// in\n    tag_66:\n      mload(0x40)\n      tag_68\n      swap2\n      swap1\n      tag_28\n      jump\t// in\n    tag_68:\n      mload(0x40)\n      dup1\n      swap2\n      sub\n      swap1\n      return\n        /* \"contents/Battle.sol\":8594:9079  function addDummy(uint256 count) external onlyOwner{... */\n    tag_15:\n      tag_69\n      0x04\n      dup1\n      calldatasize\n      sub\n      dup2\n      add\n      swap1\n      tag_70\n      swap2\n      swap1\n      tag_31\n      jump\t// in\n    tag_70:\n      tag_71\n      jump\t// in\n    tag_69:\n      stop\n        /* \"contents/Battle.sol\":6624:7346  function regiBattle(uint256 tokenId) external {... */\n    tag_16:\n      tag_72\n      0x04\n      dup1\n      calldatasize\n      sub\n      dup2\n      add\n      swap1\n      tag_73\n      swap2\n      swap1\n      tag_31\n      jump\t// in\n    tag_73:\n      tag_74\n      jump\t// in\n    tag_72:\n      stop\n        /* \"contents/Battle.sol\":9708:9906  function getPlayerRecords(address player) external view onlyOwner returns(BattleRecord memory)  {... */\n    tag_17:\n      tag_75\n      0x04\n      dup1\n      calldatasize\n      sub\n      dup2\n      add\n      swap1\n      tag_76\n      swap2\n      swap1\n      tag_77\n      jump\t// in\n    tag_76:\n      tag_78\n      jump\t// in\n    tag_75:\n      mload(0x40)\n      tag_79\n      swap2\n      swap1\n      tag_80\n      jump\t// in\n    tag_79:\n      mload(0x40)\n      dup1\n      swap2\n      sub\n      swap1\n      return\n        /* \"contents/Battle.sol\":9089:9299  function deleteDummy() external onlyOwner {... */\n    tag_18:\n      tag_81\n      tag_82\n      jump\t// in\n    tag_81:\n      stop\n        /* \"contents/Battle.sol\":1204:1239  uint256 public dailyBattleLimit = 3 */\n    tag_19:\n      tag_83\n      tag_84\n      jump\t// in\n    tag_83:\n      mload(0x40)\n      tag_85\n      swap2\n      swap1\n      tag_28\n      jump\t// in\n    tag_85:\n      mload(0x40)\n      dup1\n      swap2\n      sub\n      swap1\n      return\n        /* \"@openzeppelin/contracts/access/Ownable.sol\":2543:2758  function transferOwnership(address newOwner) public virtual onlyOwner {... */\n    tag_20:\n      tag_86\n      0x04\n      dup1\n      calldatasize\n      sub\n      dup2\n      add\n      swap1\n      tag_87\n      swap2\n      swap1\n      tag_77\n      jump\t// in\n    tag_87:\n      tag_88\n      jump\t// in\n    tag_86:\n      stop\n        /* \"contents/Battle.sol\":333:366  IDragonDrink public drinkContract */\n    tag_21:\n      tag_89\n      tag_90\n      jump\t// in\n    tag_89:\n      mload(0x40)\n      tag_91\n      swap2\n      swap1\n      tag_92\n      jump\t// in\n    tag_91:\n      mload(0x40)\n      dup1\n      swap2\n      sub\n      swap1\n      return\n        /* \"contents/Battle.sol\":1125:1158  uint256 public upgradePrice = 300 */\n    tag_26:\n      sload(0x0c)\n      dup2\n      jump\t// out\n        /* \"contents/Battle.sol\":5485:6243  function upgradeDragon(uint256 tokenId) external {... */\n    tag_32:\n        /* \"contents/Battle.sol\":5588:5598  msg.sender */\n      caller\n        /* \"contents/Battle.sol\":5553:5598  dragonContract.ownerOf(tokenId) == msg.sender */\n      0xffffffffffffffffffffffffffffffffffffffff\n      and\n        /* \"contents/Battle.sol\":5553:5567  dragonContract */\n      0x01\n      0x00\n      swap1\n      sload\n      swap1\n      0x0100\n      exp\n      swap1\n      div\n      0xffffffffffffffffffffffffffffffffffffffff\n      and\n        /* \"contents/Battle.sol\":5553:5575  dragonContract.ownerOf */\n      0xffffffffffffffffffffffffffffffffffffffff\n      and\n      0x6352211e\n        /* \"contents/Battle.sol\":5576:5583  tokenId */\n      dup4\n        /* \"contents/Battle.sol\":5553:5584  dragonContract.ownerOf(tokenId) */\n      mload(0x40)\n      dup3\n      0xffffffff\n      and\n      0xe0\n      shl\n      dup2\n      mstore\n      0x04\n      add\n      tag_94\n      swap2\n      swap1\n      tag_28\n      jump\t// in\n    tag_94:\n      0x20\n      mload(0x40)\n      dup1\n      dup4\n      sub\n      dup2\n      dup7\n      gas\n      staticcall\n      iszero\n      dup1\n      iszero\n      tag_96\n      jumpi\n      returndatasize\n      0x00\n      dup1\n      returndatacopy\n      revert(0x00, returndatasize)\n    tag_96:\n      pop\n      pop\n      pop\n      pop\n      mload(0x40)\n      returndatasize\n      not(0x1f)\n      0x1f\n      dup3\n      add\n      and\n      dup3\n      add\n      dup1\n      0x40\n      mstore\n      pop\n      dup2\n      add\n      swap1\n      tag_97\n      swap2\n      swap1\n      tag_98\n      jump\t// in\n    tag_97:\n        /* \"contents/Battle.sol\":5553:5598  dragonContract.ownerOf(tokenId) == msg.sender */\n      0xffffffffffffffffffffffffffffffffffffffff\n      and\n      eq\n        /* \"contents/Battle.sol\":5545:5612  require(dragonContract.ownerOf(tokenId) == msg.sender, \"Not Owner\") */\n      tag_99\n      jumpi\n      mload(0x40)\n      0x08c379a000000000000000000000000000000000000000000000000000000000\n      dup2\n      mstore\n      0x04\n      add\n      tag_100\n      swap1\n      tag_101\n      jump\t// in\n    tag_100:\n      mload(0x40)\n      dup1\n      swap2\n      sub\n      swap1\n      revert\n    tag_99:\n        /* \"contents/Battle.sol\":5664:5671  tokenId */\n      dup1\n        /* \"contents/Battle.sol\":5631:5648  registeredDragons */\n      0x06\n        /* \"contents/Battle.sol\":5631:5660  registeredDragons[msg.sender] */\n      0x00\n        /* \"contents/Battle.sol\":5649:5659  msg.sender */\n      caller\n        /* \"contents/Battle.sol\":5631:5660  registeredDragons[msg.sender] */\n      0xffffffffffffffffffffffffffffffffffffffff\n      and\n      0xffffffffffffffffffffffffffffffffffffffff\n      and\n      dup2\n      mstore\n      0x20\n      add\n      swap1\n      dup2\n      mstore\n      0x20\n      add\n      0x00\n      keccak256\n      sload\n        /* \"contents/Battle.sol\":5631:5671  registeredDragons[msg.sender] == tokenId */\n      eq\n        /* \"contents/Battle.sol\":5623:5708  require(registeredDragons[msg.sender] == tokenId, \"Dragon not registered for battle\") */\n      tag_102\n      jumpi\n      mload(0x40)\n      0x08c379a000000000000000000000000000000000000000000000000000000000\n      dup2\n      mstore\n      0x04\n      add\n      tag_103\n      swap1\n      tag_104\n      jump\t// in\n    tag_103:\n      mload(0x40)\n      dup1\n      swap2\n      sub\n      swap1\n      revert\n    tag_102:\n        /* \"contents/Battle.sol\":5766:5778  upgradePrice */\n      sload(0x0c)\n        /* \"contents/Battle.sol\":5727:5740  drinkContract */\n      0x03\n      0x00\n      swap1\n      sload\n      swap1\n      0x0100\n      exp\n      swap1\n      div\n      0xffffffffffffffffffffffffffffffffffffffff\n      and\n        /* \"contents/Battle.sol\":5727:5750  drinkContract.balanceOf */\n      0xffffffffffffffffffffffffffffffffffffffff\n      and\n      0x70a08231\n        /* \"contents/Battle.sol\":5751:5761  msg.sender */\n      caller\n        /* \"contents/Battle.sol\":5727:5762  drinkContract.balanceOf(msg.sender) */\n      mload(0x40)\n      dup3\n      0xffffffff\n      and\n      0xe0\n      shl\n      dup2\n      mstore\n      0x04\n      add\n      tag_105\n      swap2\n      swap1\n      tag_61\n      jump\t// in\n    tag_105:\n      0x20\n      mload(0x40)\n      dup1\n      dup4\n      sub\n      dup2\n      dup7\n      gas\n      staticcall\n      iszero\n      dup1\n      iszero\n      tag_107\n      jumpi\n      returndatasize\n      0x00\n      dup1\n      returndatacopy\n      revert(0x00, returndatasize)\n    tag_107:\n      pop\n      pop\n      pop\n      pop\n      mload(0x40)\n      returndatasize\n      not(0x1f)\n      0x1f\n      dup3\n      add\n      and\n      dup3\n      add\n      dup1\n      0x40\n      mstore\n      pop\n      dup2\n      add\n      swap1\n      tag_108\n      swap2\n      swap1\n      tag_109\n      jump\t// in\n    tag_108:\n        /* \"contents/Battle.sol\":5727:5778  drinkContract.balanceOf(msg.sender) >= upgradePrice */\n      lt\n      iszero\n        /* \"contents/Battle.sol\":5719:5802  require(drinkContract.balanceOf(msg.sender) >= upgradePrice, \"Insufficient drinks\") */\n      tag_110\n      jumpi\n      mload(0x40)\n      0x08c379a000000000000000000000000000000000000000000000000000000000\n      dup2\n      mstore\n      0x04\n      add\n      tag_111\n      swap1\n      tag_112\n      jump\t// in\n    tag_111:\n      mload(0x40)\n      dup1\n      swap2\n      sub\n      swap1\n      revert\n    tag_110:\n        /* \"contents/Battle.sol\":5815:5838  Dragon storage myDragon */\n      0x00\n        /* \"contents/Battle.sol\":5841:5853  battleDragon */\n      0x04\n        /* \"contents/Battle.sol\":5841:5862  battleDragon[tokenId] */\n      0x00\n        /* \"contents/Battle.sol\":5854:5861  tokenId */\n      dup4\n        /* \"contents/Battle.sol\":5841:5862  battleDragon[tokenId] */\n      dup2\n      mstore\n      0x20\n      add\n      swap1\n      dup2\n      mstore\n      0x20\n      add\n      0x00\n      keccak256\n        /* \"contents/Battle.sol\":5815:5862  Dragon storage myDragon = battleDragon[tokenId] */\n      swap1\n      pop\n        /* \"contents/Battle.sol\":5875:5888  drinkContract */\n      0x03\n      0x00\n      swap1\n      sload\n      swap1\n      0x0100\n      exp\n      swap1\n      div\n      0xffffffffffffffffffffffffffffffffffffffff\n      and\n        /* \"contents/Battle.sol\":5875:5893  drinkContract.burn */\n      0xffffffffffffffffffffffffffffffffffffffff\n      and\n      0x9dc29fac\n        /* \"contents/Battle.sol\":5894:5904  msg.sender */\n      caller\n        /* \"contents/Battle.sol\":5906:5918  upgradePrice */\n      sload(0x0c)\n        /* \"contents/Battle.sol\":5875:5919  drinkContract.burn(msg.sender, upgradePrice) */\n      mload(0x40)\n      dup4\n      0xffffffff\n      and\n      0xe0\n      shl\n      dup2\n      mstore\n      0x04\n      add\n      tag_113\n      swap3\n      swap2\n      swap1\n      tag_114\n      jump\t// in\n    tag_113:\n      0x00\n      mload(0x40)\n      dup1\n      dup4\n      sub\n      dup2\n      0x00\n      dup8\n      dup1\n      extcodesize\n      iszero\n      dup1\n      iszero\n      tag_115\n      jumpi\n      0x00\n      dup1\n      revert\n    tag_115:\n      pop\n      gas\n      call\n      iszero\n      dup1\n      iszero\n      tag_117\n      jumpi\n      returndatasize\n      0x00\n      dup1\n      returndatacopy\n      revert(0x00, returndatasize)\n    tag_117:\n      pop\n      pop\n      pop\n      pop\n        /* \"contents/Battle.sol\":5932:5950  uint256 randomStat */\n      0x00\n        /* \"contents/Battle.sol\":6026:6027  3 */\n      0x03\n        /* \"contents/Battle.sol\":5988:6003  block.timestamp */\n      timestamp\n        /* \"contents/Battle.sol\":6004:6020  block.prevrandao */\n      prevrandao\n        /* \"contents/Battle.sol\":5971:6021  abi.encodePacked(block.timestamp,block.prevrandao) */\n      add(0x20, mload(0x40))\n      tag_118\n      swap3\n      swap2\n      swap1\n      tag_119\n      jump\t// in\n    tag_118:\n      mload(0x40)\n      0x20\n      dup2\n      dup4\n      sub\n      sub\n      dup2\n      mstore\n      swap1\n      0x40\n      mstore\n        /* \"contents/Battle.sol\":5961:6022  keccak256(abi.encodePacked(block.timestamp,block.prevrandao)) */\n      dup1\n      mload\n      swap1\n      0x20\n      add\n      keccak256\n        /* \"contents/Battle.sol\":5953:6023  uint256(keccak256(abi.encodePacked(block.timestamp,block.prevrandao))) */\n      0x00\n      shr\n        /* \"contents/Battle.sol\":5953:6027  uint256(keccak256(abi.encodePacked(block.timestamp,block.prevrandao))) % 3 */\n      tag_120\n      swap2\n      swap1\n      tag_121\n      jump\t// in\n    tag_120:\n        /* \"contents/Battle.sol\":5932:6027  uint256 randomStat = uint256(keccak256(abi.encodePacked(block.timestamp,block.prevrandao))) % 3 */\n      swap1\n      pop\n        /* \"contents/Battle.sol\":6057:6058  0 */\n      0x00\n        /* \"contents/Battle.sol\":6043:6053  randomStat */\n      dup2\n        /* \"contents/Battle.sol\":6043:6058  randomStat == 0 */\n      sub\n        /* \"contents/Battle.sol\":6040:6236  if(randomStat == 0) {... */\n      tag_122\n      jumpi\n        /* \"contents/Battle.sol\":6094:6096  10 */\n      0x0a\n        /* \"contents/Battle.sol\":6075:6083  myDragon */\n      dup3\n        /* \"contents/Battle.sol\":6075:6090  myDragon.attack */\n      0x01\n      add\n      0x00\n        /* \"contents/Battle.sol\":6075:6096  myDragon.attack += 10 */\n      dup3\n      dup3\n      sload\n      tag_123\n      swap2\n      swap1\n      tag_124\n      jump\t// in\n    tag_123:\n      swap3\n      pop\n      pop\n      dup2\n      swap1\n      sstore\n      pop\n        /* \"contents/Battle.sol\":6040:6236  if(randomStat == 0) {... */\n      jump(tag_125)\n    tag_122:\n        /* \"contents/Battle.sol\":6131:6132  1 */\n      0x01\n        /* \"contents/Battle.sol\":6117:6127  randomStat */\n      dup2\n        /* \"contents/Battle.sol\":6117:6132  randomStat == 1 */\n      sub\n        /* \"contents/Battle.sol\":6114:6236  if(randomStat == 1) {... */\n      tag_126\n      jumpi\n        /* \"contents/Battle.sol\":6169:6171  10 */\n      0x0a\n        /* \"contents/Battle.sol\":6149:6157  myDragon */\n      dup3\n        /* \"contents/Battle.sol\":6149:6165  myDragon.defense */\n      0x02\n      add\n      0x00\n        /* \"contents/Battle.sol\":6149:6171  myDragon.defense += 10 */\n      dup3\n      dup3\n      sload\n      tag_127\n      swap2\n      swap1\n      tag_124\n      jump\t// in\n    tag_127:\n      swap3\n      pop\n      pop\n      dup2\n      swap1\n      sstore\n      pop\n        /* \"contents/Battle.sol\":6114:6236  if(randomStat == 1) {... */\n      jump(tag_128)\n    tag_126:\n        /* \"contents/Battle.sol\":6222:6224  10 */\n      0x0a\n        /* \"contents/Battle.sol\":6203:6211  myDragon */\n      dup3\n        /* \"contents/Battle.sol\":6203:6218  myDragon.health */\n      0x03\n      add\n      0x00\n        /* \"contents/Battle.sol\":6203:6224  myDragon.health += 10 */\n      dup3\n      dup3\n      sload\n      tag_129\n      swap2\n      swap1\n      tag_124\n      jump\t// in\n    tag_129:\n      swap3\n      pop\n      pop\n      dup2\n      swap1\n      sstore\n      pop\n        /* \"contents/Battle.sol\":6114:6236  if(randomStat == 1) {... */\n    tag_128:\n        /* \"contents/Battle.sol\":6040:6236  if(randomStat == 0) {... */\n    tag_125:\n        /* \"contents/Battle.sol\":5534:6243  {... */\n      pop\n      pop\n        /* \"contents/Battle.sol\":5485:6243  function upgradeDragon(uint256 tokenId) external {... */\n      pop\n      jump\t// out\n        /* \"contents/Battle.sol\":9914:10020  function setDailyBattleLimit(uint256 limit) external onlyOwner {... */\n    tag_35:\n        /* \"@openzeppelin/contracts/access/Ownable.sol\":1531:1544  _checkOwner() */\n      tag_131\n        /* \"@openzeppelin/contracts/access/Ownable.sol\":1531:1542  _checkOwner */\n      tag_132\n        /* \"@openzeppelin/contracts/access/Ownable.sol\":1531:1544  _checkOwner() */\n      jump\t// in\n    tag_131:\n        /* \"contents/Battle.sol\":10007:10012  limit */\n      dup1\n        /* \"contents/Battle.sol\":9988:10004  dailyBattleLimit */\n      0x0e\n        /* \"contents/Battle.sol\":9988:10012  dailyBattleLimit = limit */\n      dup2\n      swap1\n      sstore\n      pop\n        /* \"contents/Battle.sol\":9914:10020  function setDailyBattleLimit(uint256 limit) external onlyOwner {... */\n      pop\n      jump\t// out\n        /* \"contents/Battle.sol\":9441:9700  function getBattleRecord(uint256 tokenId) external view returns (uint256 win, uint256 lose, OpponentRecord[] memory opponents) {... */\n    tag_38:\n        /* \"contents/Battle.sol\":9506:9517  uint256 win */\n      0x00\n        /* \"contents/Battle.sol\":9519:9531  uint256 lose */\n      dup1\n        /* \"contents/Battle.sol\":9533:9566  OpponentRecord[] memory opponents */\n      0x60\n        /* \"contents/Battle.sol\":9579:9606  BattleRecord storage record */\n      0x00\n        /* \"contents/Battle.sol\":9609:9622  dragonRecords */\n      0x05\n        /* \"contents/Battle.sol\":9609:9631  dragonRecords[tokenId] */\n      0x00\n        /* \"contents/Battle.sol\":9623:9630  tokenId */\n      dup7\n        /* \"contents/Battle.sol\":9609:9631  dragonRecords[tokenId] */\n      dup2\n      mstore\n      0x20\n      add\n      swap1\n      dup2\n      mstore\n      0x20\n      add\n      0x00\n      keccak256\n        /* \"contents/Battle.sol\":9579:9631  BattleRecord storage record = dragonRecords[tokenId] */\n      swap1\n      pop\n        /* \"contents/Battle.sol\":9650:9656  record */\n      dup1\n        /* \"contents/Battle.sol\":9650:9660  record.win */\n      0x00\n      add\n      sload\n        /* \"contents/Battle.sol\":9662:9668  record */\n      dup2\n        /* \"contents/Battle.sol\":9662:9673  record.lose */\n      0x01\n      add\n      sload\n        /* \"contents/Battle.sol\":9675:9681  record */\n      dup3\n        /* \"contents/Battle.sol\":9675:9691  record.opponents */\n      0x02\n      add\n        /* \"contents/Battle.sol\":9642:9692  return (record.win, record.lose, record.opponents) */\n      dup1\n      dup1\n      sload\n      dup1\n      0x20\n      mul\n      0x20\n      add\n      mload(0x40)\n      swap1\n      dup2\n      add\n      0x40\n      mstore\n      dup1\n      swap3\n      swap2\n      swap1\n      dup2\n      dup2\n      mstore\n      0x20\n      add\n      0x00\n      swap1\n    tag_135:\n      dup3\n      dup3\n      lt\n      iszero\n      tag_136\n      jumpi\n      dup4\n      dup3\n      swap1\n      0x00\n      mstore\n      keccak256(0x00, 0x20)\n      swap1\n      0x05\n      mul\n      add\n      mload(0x40)\n      dup1\n      0x40\n      add\n      0x40\n      mstore\n      swap1\n      dup2\n      0x00\n      dup3\n      add\n      mload(0x40)\n      dup1\n      0x80\n      add\n      0x40\n      mstore\n      swap1\n      dup2\n      0x00\n      dup3\n      add\n      sload\n      dup2\n      mstore\n      0x20\n      add\n      0x01\n      dup3\n      add\n      sload\n      dup2\n      mstore\n      0x20\n      add\n      0x02\n      dup3\n      add\n      sload\n      dup2\n      mstore\n      0x20\n      add\n      0x03\n      dup3\n      add\n      sload\n      dup2\n      mstore\n      pop\n      pop\n      dup2\n      mstore\n      0x20\n      add\n      0x04\n      dup3\n      add\n      0x00\n      swap1\n      sload\n      swap1\n      0x0100\n      exp\n      swap1\n      div\n      0xff\n      and\n      iszero\n      iszero\n      iszero\n      iszero\n      dup2\n      mstore\n      pop\n      pop\n      dup2\n      mstore\n      0x20\n      add\n      swap1\n      0x01\n      add\n      swap1\n      jump(tag_135)\n    tag_136:\n      pop\n      pop\n      pop\n      pop\n      swap1\n      pop\n      swap4\n      pop\n      swap4\n      pop\n      swap4\n      pop\n      pop\n        /* \"contents/Battle.sol\":9441:9700  function getBattleRecord(uint256 tokenId) external view returns (uint256 win, uint256 lose, OpponentRecord[] memory opponents) {... */\n      swap2\n      swap4\n      swap1\n      swap3\n      pop\n      jump\t// out\n        /* \"contents/Battle.sol\":7354:7928  function unregiBattle(uint256 tokenId) external {... */\n    tag_43:\n        /* \"contents/Battle.sol\":7456:7466  msg.sender */\n      caller\n        /* \"contents/Battle.sol\":7421:7466  dragonContract.ownerOf(tokenId) == msg.sender */\n      0xffffffffffffffffffffffffffffffffffffffff\n      and\n        /* \"contents/Battle.sol\":7421:7435  dragonContract */\n      0x01\n      0x00\n      swap1\n      sload\n      swap1\n      0x0100\n      exp\n      swap1\n      div\n      0xffffffffffffffffffffffffffffffffffffffff\n      and\n        /* \"contents/Battle.sol\":7421:7443  dragonContract.ownerOf */\n      0xffffffffffffffffffffffffffffffffffffffff\n      and\n      0x6352211e\n        /* \"contents/Battle.sol\":7444:7451  tokenId */\n      dup4\n        /* \"contents/Battle.sol\":7421:7452  dragonContract.ownerOf(tokenId) */\n      mload(0x40)\n      dup3\n      0xffffffff\n      and\n      0xe0\n      shl\n      dup2\n      mstore\n      0x04\n      add\n      tag_139\n      swap2\n      swap1\n      tag_28\n      jump\t// in\n    tag_139:\n      0x20\n      mload(0x40)\n      dup1\n      dup4\n      sub\n      dup2\n      dup7\n      gas\n      staticcall\n      iszero\n      dup1\n      iszero\n      tag_141\n      jumpi\n      returndatasize\n      0x00\n      dup1\n      returndatacopy\n      revert(0x00, returndatasize)\n    tag_141:\n      pop\n      pop\n      pop\n      pop\n      mload(0x40)\n      returndatasize\n      not(0x1f)\n      0x1f\n      dup3\n      add\n      and\n      dup3\n      add\n      dup1\n      0x40\n      mstore\n      pop\n      dup2\n      add\n      swap1\n      tag_142\n      swap2\n      swap1\n      tag_98\n      jump\t// in\n    tag_142:\n        /* \"contents/Battle.sol\":7421:7466  dragonContract.ownerOf(tokenId) == msg.sender */\n      0xffffffffffffffffffffffffffffffffffffffff\n      and\n      eq\n        /* \"contents/Battle.sol\":7413:7480  require(dragonContract.ownerOf(tokenId) == msg.sender, \"Not Owner\") */\n      tag_143\n      jumpi\n      mload(0x40)\n      0x08c379a000000000000000000000000000000000000000000000000000000000\n      dup2\n      mstore\n      0x04\n      add\n      tag_144\n      swap1\n      tag_101\n      jump\t// in\n    tag_144:\n      mload(0x40)\n      dup1\n      swap2\n      sub\n      swap1\n      revert\n    tag_143:\n        /* \"contents/Battle.sol\":7532:7539  tokenId */\n      dup1\n        /* \"contents/Battle.sol\":7499:7516  registeredDragons */\n      0x06\n        /* \"contents/Battle.sol\":7499:7528  registeredDragons[msg.sender] */\n      0x00\n        /* \"contents/Battle.sol\":7517:7527  msg.sender */\n      caller\n        /* \"contents/Battle.sol\":7499:7528  registeredDragons[msg.sender] */\n      0xffffffffffffffffffffffffffffffffffffffff\n      and\n      0xffffffffffffffffffffffffffffffffffffffff\n      and\n      dup2\n      mstore\n      0x20\n      add\n      swap1\n      dup2\n      mstore\n      0x20\n      add\n      0x00\n      keccak256\n      sload\n        /* \"contents/Battle.sol\":7499:7539  registeredDragons[msg.sender] == tokenId */\n      eq\n        /* \"contents/Battle.sol\":7491:7565  require(registeredDragons[msg.sender] == tokenId, \"token is not register\") */\n      tag_145\n      jumpi\n      mload(0x40)\n      0x08c379a000000000000000000000000000000000000000000000000000000000\n      dup2\n      mstore\n      0x04\n      add\n      tag_146\n      swap1\n      tag_147\n      jump\t// in\n    tag_146:\n      mload(0x40)\n      dup1\n      swap2\n      sub\n      swap1\n      revert\n    tag_145:\n        /* \"contents/Battle.sol\":7585:7602  registeredDragons */\n      0x06\n        /* \"contents/Battle.sol\":7585:7614  registeredDragons[msg.sender] */\n      0x00\n        /* \"contents/Battle.sol\":7603:7613  msg.sender */\n      caller\n        /* \"contents/Battle.sol\":7585:7614  registeredDragons[msg.sender] */\n      0xffffffffffffffffffffffffffffffffffffffff\n      and\n      0xffffffffffffffffffffffffffffffffffffffff\n      and\n      dup2\n      mstore\n      0x20\n      add\n      swap1\n      dup2\n      mstore\n      0x20\n      add\n      0x00\n      keccak256\n        /* \"contents/Battle.sol\":7578:7614  delete registeredDragons[msg.sender] */\n      0x00\n      swap1\n      sstore\n        /* \"contents/Battle.sol\":7629:7638  uint256 i */\n      0x00\n        /* \"contents/Battle.sol\":7625:7921  for(uint256 i = 0; i < registeredBattlers.length; i++) {... */\n    tag_148:\n        /* \"contents/Battle.sol\":7648:7666  registeredBattlers */\n      0x09\n        /* \"contents/Battle.sol\":7648:7673  registeredBattlers.length */\n      dup1\n      sload\n      swap1\n      pop\n        /* \"contents/Battle.sol\":7644:7645  i */\n      dup2\n        /* \"contents/Battle.sol\":7644:7673  i < registeredBattlers.length */\n      lt\n        /* \"contents/Battle.sol\":7625:7921  for(uint256 i = 0; i < registeredBattlers.length; i++) {... */\n      iszero\n      tag_149\n      jumpi\n        /* \"contents/Battle.sol\":7723:7733  msg.sender */\n      caller\n        /* \"contents/Battle.sol\":7698:7733  registeredBattlers[i] == msg.sender */\n      0xffffffffffffffffffffffffffffffffffffffff\n      and\n        /* \"contents/Battle.sol\":7698:7716  registeredBattlers */\n      0x09\n        /* \"contents/Battle.sol\":7717:7718  i */\n      dup3\n        /* \"contents/Battle.sol\":7698:7719  registeredBattlers[i] */\n      dup2\n      sload\n      dup2\n      lt\n      tag_151\n      jumpi\n      tag_152\n      tag_153\n      jump\t// in\n    tag_152:\n    tag_151:\n      swap1\n      0x00\n      mstore\n      keccak256(0x00, 0x20)\n      add\n      0x00\n      swap1\n      sload\n      swap1\n      0x0100\n      exp\n      swap1\n      div\n      0xffffffffffffffffffffffffffffffffffffffff\n      and\n        /* \"contents/Battle.sol\":7698:7733  registeredBattlers[i] == msg.sender */\n      0xffffffffffffffffffffffffffffffffffffffff\n      and\n      sub\n        /* \"contents/Battle.sol\":7695:7910  if(registeredBattlers[i] == msg.sender) {... */\n      tag_155\n      jumpi\n        /* \"contents/Battle.sol\":7778:7796  registeredBattlers */\n      0x09\n        /* \"contents/Battle.sol\":7825:7826  1 */\n      0x01\n        /* \"contents/Battle.sol\":7797:7815  registeredBattlers */\n      0x09\n        /* \"contents/Battle.sol\":7797:7822  registeredBattlers.length */\n      dup1\n      sload\n      swap1\n      pop\n        /* \"contents/Battle.sol\":7797:7826  registeredBattlers.length - 1 */\n      tag_156\n      swap2\n      swap1\n      tag_157\n      jump\t// in\n    tag_156:\n        /* \"contents/Battle.sol\":7778:7827  registeredBattlers[registeredBattlers.length - 1] */\n      dup2\n      sload\n      dup2\n      lt\n      tag_158\n      jumpi\n      tag_159\n      tag_153\n      jump\t// in\n    tag_159:\n    tag_158:\n      swap1\n      0x00\n      mstore\n      keccak256(0x00, 0x20)\n      add\n      0x00\n      swap1\n      sload\n      swap1\n      0x0100\n      exp\n      swap1\n      div\n      0xffffffffffffffffffffffffffffffffffffffff\n      and\n        /* \"contents/Battle.sol\":7754:7772  registeredBattlers */\n      0x09\n        /* \"contents/Battle.sol\":7773:7774  i */\n      dup3\n        /* \"contents/Battle.sol\":7754:7775  registeredBattlers[i] */\n      dup2\n      sload\n      dup2\n      lt\n      tag_161\n      jumpi\n      tag_162\n      tag_153\n      jump\t// in\n    tag_162:\n    tag_161:\n      swap1\n      0x00\n      mstore\n      keccak256(0x00, 0x20)\n      add\n      0x00\n        /* \"contents/Battle.sol\":7754:7827  registeredBattlers[i] = registeredBattlers[registeredBattlers.length - 1] */\n      0x0100\n      exp\n      dup2\n      sload\n      dup2\n      0xffffffffffffffffffffffffffffffffffffffff\n      mul\n      not\n      and\n      swap1\n      dup4\n      0xffffffffffffffffffffffffffffffffffffffff\n      and\n      mul\n      or\n      swap1\n      sstore\n      pop\n        /* \"contents/Battle.sol\":7846:7864  registeredBattlers */\n      0x09\n        /* \"contents/Battle.sol\":7846:7870  registeredBattlers.pop() */\n      dup1\n      sload\n      dup1\n      tag_164\n      jumpi\n      tag_165\n      tag_166\n      jump\t// in\n    tag_165:\n    tag_164:\n      0x01\n      swap1\n      sub\n      dup2\n      dup2\n      swap1\n      0x00\n      mstore\n      keccak256(0x00, 0x20)\n      add\n      exp(0x0100, 0x00)\n      dup2\n      sload\n      swap1\n      0xffffffffffffffffffffffffffffffffffffffff\n      mul\n      not\n      and\n      swap1\n      sstore\n      swap1\n      sstore\n        /* \"contents/Battle.sol\":7889:7894  break */\n      jump(tag_149)\n        /* \"contents/Battle.sol\":7695:7910  if(registeredBattlers[i] == msg.sender) {... */\n    tag_155:\n        /* \"contents/Battle.sol\":7675:7678  i++ */\n      dup1\n      dup1\n      0x01\n      add\n      swap2\n      pop\n      pop\n        /* \"contents/Battle.sol\":7625:7921  for(uint256 i = 0; i < registeredBattlers.length; i++) {... */\n      jump(tag_148)\n    tag_149:\n      pop\n        /* \"contents/Battle.sol\":7354:7928  function unregiBattle(uint256 tokenId) external {... */\n      pop\n      jump\t// out\n        /* \"contents/Battle.sol\":1938:2607  function battle(uint256 tokenId) external resetDailyBattleCount(msg.sender) battleLimitCheck(msg.sender)  {... */\n    tag_46:\n        /* \"contents/Battle.sol\":2002:2012  msg.sender */\n      caller\n        /* \"contents/Battle.sol\":1847:1854  today() */\n      tag_169\n        /* \"contents/Battle.sol\":1847:1852  today */\n      tag_170\n        /* \"contents/Battle.sol\":1847:1854  today() */\n      jump\t// in\n    tag_169:\n        /* \"contents/Battle.sol\":1822:1836  lastBattleTime */\n      0x08\n        /* \"contents/Battle.sol\":1822:1844  lastBattleTime[player] */\n      0x00\n        /* \"contents/Battle.sol\":1837:1843  player */\n      dup4\n        /* \"contents/Battle.sol\":1822:1844  lastBattleTime[player] */\n      0xffffffffffffffffffffffffffffffffffffffff\n      and\n      0xffffffffffffffffffffffffffffffffffffffff\n      and\n      dup2\n      mstore\n      0x20\n      add\n      swap1\n      dup2\n      mstore\n      0x20\n      add\n      0x00\n      keccak256\n      sload\n        /* \"contents/Battle.sol\":1822:1854  lastBattleTime[player] < today() */\n      lt\n        /* \"contents/Battle.sol\":1818:1911  if (lastBattleTime[player] < today()) {... */\n      iszero\n      tag_171\n      jumpi\n        /* \"contents/Battle.sol\":1898:1899  0 */\n      0x00\n        /* \"contents/Battle.sol\":1871:1887  dailyBattleCount */\n      0x07\n        /* \"contents/Battle.sol\":1871:1895  dailyBattleCount[player] */\n      0x00\n        /* \"contents/Battle.sol\":1888:1894  player */\n      dup4\n        /* \"contents/Battle.sol\":1871:1895  dailyBattleCount[player] */\n      0xffffffffffffffffffffffffffffffffffffffff\n      and\n      0xffffffffffffffffffffffffffffffffffffffff\n      and\n      dup2\n      mstore\n      0x20\n      add\n      swap1\n      dup2\n      mstore\n      0x20\n      add\n      0x00\n      keccak256\n        /* \"contents/Battle.sol\":1871:1899  dailyBattleCount[player] = 0 */\n      dup2\n      swap1\n      sstore\n      pop\n        /* \"contents/Battle.sol\":1818:1911  if (lastBattleTime[player] < today()) {... */\n    tag_171:\n        /* \"contents/Battle.sol\":2031:2041  msg.sender */\n      caller\n        /* \"contents/Battle.sol\":1685:1701  dailyBattleLimit */\n      sload(0x0e)\n        /* \"contents/Battle.sol\":1658:1674  dailyBattleCount */\n      0x07\n        /* \"contents/Battle.sol\":1658:1682  dailyBattleCount[player] */\n      0x00\n        /* \"contents/Battle.sol\":1675:1681  player */\n      dup4\n        /* \"contents/Battle.sol\":1658:1682  dailyBattleCount[player] */\n      0xffffffffffffffffffffffffffffffffffffffff\n      and\n      0xffffffffffffffffffffffffffffffffffffffff\n      and\n      dup2\n      mstore\n      0x20\n      add\n      swap1\n      dup2\n      mstore\n      0x20\n      add\n      0x00\n      keccak256\n      sload\n        /* \"contents/Battle.sol\":1658:1701  dailyBattleCount[player] < dailyBattleLimit */\n      lt\n        /* \"contents/Battle.sol\":1650:1732  require(dailyBattleCount[player] < dailyBattleLimit, \"Daily battle limit reached\") */\n      tag_173\n      jumpi\n      mload(0x40)\n      0x08c379a000000000000000000000000000000000000000000000000000000000\n      dup2\n      mstore\n      0x04\n      add\n      tag_174\n      swap1\n      tag_175\n      jump\t// in\n    tag_174:\n      mload(0x40)\n      dup1\n      swap2\n      sub\n      swap1\n      revert\n    tag_173:\n        /* \"contents/Battle.sol\":2098:2108  msg.sender */\n      caller\n        /* \"contents/Battle.sol\":2063:2108  dragonContract.ownerOf(tokenId) == msg.sender */\n      0xffffffffffffffffffffffffffffffffffffffff\n      and\n        /* \"contents/Battle.sol\":2063:2077  dragonContract */\n      0x01\n      0x00\n      swap1\n      sload\n      swap1\n      0x0100\n      exp\n      swap1\n      div\n      0xffffffffffffffffffffffffffffffffffffffff\n      and\n        /* \"contents/Battle.sol\":2063:2085  dragonContract.ownerOf */\n      0xffffffffffffffffffffffffffffffffffffffff\n      and\n      0x6352211e\n        /* \"contents/Battle.sol\":2086:2093  tokenId */\n      dup6\n        /* \"contents/Battle.sol\":2063:2094  dragonContract.ownerOf(tokenId) */\n      mload(0x40)\n      dup3\n      0xffffffff\n      and\n      0xe0\n      shl\n      dup2\n      mstore\n      0x04\n      add\n      tag_177\n      swap2\n      swap1\n      tag_28\n      jump\t// in\n    tag_177:\n      0x20\n      mload(0x40)\n      dup1\n      dup4\n      sub\n      dup2\n      dup7\n      gas\n      staticcall\n      iszero\n      dup1\n      iszero\n      tag_179\n      jumpi\n      returndatasize\n      0x00\n      dup1\n      returndatacopy\n      revert(0x00, returndatasize)\n    tag_179:\n      pop\n      pop\n      pop\n      pop\n      mload(0x40)\n      returndatasize\n      not(0x1f)\n      0x1f\n      dup3\n      add\n      and\n      dup3\n      add\n      dup1\n      0x40\n      mstore\n      pop\n      dup2\n      add\n      swap1\n      tag_180\n      swap2\n      swap1\n      tag_98\n      jump\t// in\n    tag_180:\n        /* \"contents/Battle.sol\":2063:2108  dragonContract.ownerOf(tokenId) == msg.sender */\n      0xffffffffffffffffffffffffffffffffffffffff\n      and\n      eq\n        /* \"contents/Battle.sol\":2055:2122  require(dragonContract.ownerOf(tokenId) == msg.sender, \"Not Owner\") */\n      tag_181\n      jumpi\n      mload(0x40)\n      0x08c379a000000000000000000000000000000000000000000000000000000000\n      dup2\n      mstore\n      0x04\n      add\n      tag_182\n      swap1\n      tag_101\n      jump\t// in\n    tag_182:\n      mload(0x40)\n      dup1\n      swap2\n      sub\n      swap1\n      revert\n    tag_181:\n        /* \"contents/Battle.sol\":2135:2151  address opponent */\n      0x00\n        /* \"contents/Battle.sol\":2154:2184  findRandomOpponent(msg.sender) */\n      tag_183\n        /* \"contents/Battle.sol\":2173:2183  msg.sender */\n      caller\n        /* \"contents/Battle.sol\":2154:2172  findRandomOpponent */\n      tag_184\n        /* \"contents/Battle.sol\":2154:2184  findRandomOpponent(msg.sender) */\n      jump\t// in\n    tag_183:\n        /* \"contents/Battle.sol\":2135:2184  address opponent = findRandomOpponent(msg.sender) */\n      swap1\n      pop\n        /* \"contents/Battle.sol\":2223:2224  0 */\n      0x00\n        /* \"contents/Battle.sol\":2203:2225  opponent != address(0) */\n      0xffffffffffffffffffffffffffffffffffffffff\n      and\n        /* \"contents/Battle.sol\":2203:2211  opponent */\n      dup2\n        /* \"contents/Battle.sol\":2203:2225  opponent != address(0) */\n      0xffffffffffffffffffffffffffffffffffffffff\n      and\n      sub\n        /* \"contents/Battle.sol\":2195:2247  require(opponent != address(0), \"No opponent found\") */\n      tag_185\n      jumpi\n      mload(0x40)\n      0x08c379a000000000000000000000000000000000000000000000000000000000\n      dup2\n      mstore\n      0x04\n      add\n      tag_186\n      swap1\n      tag_187\n      jump\t// in\n    tag_186:\n      mload(0x40)\n      dup1\n      swap2\n      sub\n      swap1\n      revert\n    tag_185:\n        /* \"contents/Battle.sol\":2260:2276  dailyBattleCount */\n      0x07\n        /* \"contents/Battle.sol\":2260:2288  dailyBattleCount[msg.sender] */\n      0x00\n        /* \"contents/Battle.sol\":2277:2287  msg.sender */\n      caller\n        /* \"contents/Battle.sol\":2260:2288  dailyBattleCount[msg.sender] */\n      0xffffffffffffffffffffffffffffffffffffffff\n      and\n      0xffffffffffffffffffffffffffffffffffffffff\n      and\n      dup2\n      mstore\n      0x20\n      add\n      swap1\n      dup2\n      mstore\n      0x20\n      add\n      0x00\n      keccak256\n      0x00\n        /* \"contents/Battle.sol\":2260:2290  dailyBattleCount[msg.sender]++ */\n      dup2\n      sload\n      dup1\n      swap3\n      swap2\n      swap1\n      tag_188\n      swap1\n      tag_189\n      jump\t// in\n    tag_188:\n      swap2\n      swap1\n      pop\n      sstore\n      pop\n        /* \"contents/Battle.sol\":2330:2337  today() */\n      tag_190\n        /* \"contents/Battle.sol\":2330:2335  today */\n      tag_170\n        /* \"contents/Battle.sol\":2330:2337  today() */\n      jump\t// in\n    tag_190:\n        /* \"contents/Battle.sol\":2301:2315  lastBattleTime */\n      0x08\n        /* \"contents/Battle.sol\":2301:2327  lastBattleTime[msg.sender] */\n      0x00\n        /* \"contents/Battle.sol\":2316:2326  msg.sender */\n      caller\n        /* \"contents/Battle.sol\":2301:2327  lastBattleTime[msg.sender] */\n      0xffffffffffffffffffffffffffffffffffffffff\n      and\n      0xffffffffffffffffffffffffffffffffffffffff\n      and\n      dup2\n      mstore\n      0x20\n      add\n      swap1\n      dup2\n      mstore\n      0x20\n      add\n      0x00\n      keccak256\n        /* \"contents/Battle.sol\":2301:2337  lastBattleTime[msg.sender] = today() */\n      dup2\n      swap1\n      sstore\n      pop\n        /* \"contents/Battle.sol\":2358:2372  bool questData */\n      0x00\n        /* \"contents/Battle.sol\":2375:2388  questContract */\n      0x02\n      0x00\n      swap1\n      sload\n      swap1\n      0x0100\n      exp\n      swap1\n      div\n      0xffffffffffffffffffffffffffffffffffffffff\n      and\n        /* \"contents/Battle.sol\":2375:2407  questContract.getBattleCompleted */\n      0xffffffffffffffffffffffffffffffffffffffff\n      and\n      0x2cbae7fa\n        /* \"contents/Battle.sol\":2408:2418  msg.sender */\n      caller\n        /* \"contents/Battle.sol\":2375:2419  questContract.getBattleCompleted(msg.sender) */\n      mload(0x40)\n      dup3\n      0xffffffff\n      and\n      0xe0\n      shl\n      dup2\n      mstore\n      0x04\n      add\n      tag_191\n      swap2\n      swap1\n      tag_61\n      jump\t// in\n    tag_191:\n      0x20\n      mload(0x40)\n      dup1\n      dup4\n      sub\n      dup2\n      dup7\n      gas\n      staticcall\n      iszero\n      dup1\n      iszero\n      tag_193\n      jumpi\n      returndatasize\n      0x00\n      dup1\n      returndatacopy\n      revert(0x00, returndatasize)\n    tag_193:\n      pop\n      pop\n      pop\n      pop\n      mload(0x40)\n      returndatasize\n      not(0x1f)\n      0x1f\n      dup3\n      add\n      and\n      dup3\n      add\n      dup1\n      0x40\n      mstore\n      pop\n      dup2\n      add\n      swap1\n      tag_194\n      swap2\n      swap1\n      tag_195\n      jump\t// in\n    tag_194:\n        /* \"contents/Battle.sol\":2358:2419  bool questData = questContract.getBattleCompleted(msg.sender) */\n      swap1\n      pop\n        /* \"contents/Battle.sol\":2434:2443  questData */\n      dup1\n        /* \"contents/Battle.sol\":2430:2509  if(!questData) {... */\n      tag_196\n      jumpi\n        /* \"contents/Battle.sol\":2460:2473  questContract */\n      0x02\n      0x00\n      swap1\n      sload\n      swap1\n      0x0100\n      exp\n      swap1\n      div\n      0xffffffffffffffffffffffffffffffffffffffff\n      and\n        /* \"contents/Battle.sol\":2460:2485  questContract.battleCheck */\n      0xffffffffffffffffffffffffffffffffffffffff\n      and\n      0xdec5d109\n        /* \"contents/Battle.sol\":2486:2496  msg.sender */\n      caller\n        /* \"contents/Battle.sol\":2460:2497  questContract.battleCheck(msg.sender) */\n      mload(0x40)\n      dup3\n      0xffffffff\n      and\n      0xe0\n      shl\n      dup2\n      mstore\n      0x04\n      add\n      tag_197\n      swap2\n      swap1\n      tag_61\n      jump\t// in\n    tag_197:\n      0x00\n      mload(0x40)\n      dup1\n      dup4\n      sub\n      dup2\n      0x00\n      dup8\n      dup1\n      extcodesize\n      iszero\n      dup1\n      iszero\n      tag_198\n      jumpi\n      0x00\n      dup1\n      revert\n    tag_198:\n      pop\n      gas\n      call\n      iszero\n      dup1\n      iszero\n      tag_200\n      jumpi\n      returndatasize\n      0x00\n      dup1\n      returndatacopy\n      revert(0x00, returndatasize)\n    tag_200:\n      pop\n      pop\n      pop\n      pop\n        /* \"contents/Battle.sol\":2430:2509  if(!questData) {... */\n    tag_196:\n        /* \"contents/Battle.sol\":2529:2565  battleProgress(msg.sender, opponent) */\n      tag_201\n        /* \"contents/Battle.sol\":2544:2554  msg.sender */\n      caller\n        /* \"contents/Battle.sol\":2556:2564  opponent */\n      dup4\n        /* \"contents/Battle.sol\":2529:2543  battleProgress */\n      tag_202\n        /* \"contents/Battle.sol\":2529:2565  battleProgress(msg.sender, opponent) */\n      jump\t// in\n    tag_201:\n        /* \"contents/Battle.sol\":2578:2599  winReward(msg.sender) */\n      tag_203\n        /* \"contents/Battle.sol\":2588:2598  msg.sender */\n      caller\n        /* \"contents/Battle.sol\":2578:2587  winReward */\n      tag_204\n        /* \"contents/Battle.sol\":2578:2599  winReward(msg.sender) */\n      jump\t// in\n    tag_203:\n        /* \"contents/Battle.sol\":2044:2607  {... */\n      pop\n      pop\n        /* \"contents/Battle.sol\":1921:1922  _ */\n      pop\n        /* \"contents/Battle.sol\":1938:2607  function battle(uint256 tokenId) external resetDailyBattleCount(msg.sender) battleLimitCheck(msg.sender)  {... */\n      pop\n      pop\n      jump\t// out\n        /* \"contents/Battle.sol\":9307:9433  function getDragonStatus(uint256 tokenId) external view returns(Dragon memory) {... */\n    tag_49:\n        /* \"contents/Battle.sol\":9371:9384  Dragon memory */\n      tag_205\n      tag_206\n      jump\t// in\n    tag_205:\n        /* \"contents/Battle.sol\":9404:9416  battleDragon */\n      0x04\n        /* \"contents/Battle.sol\":9404:9425  battleDragon[tokenId] */\n      0x00\n        /* \"contents/Battle.sol\":9417:9424  tokenId */\n      dup4\n        /* \"contents/Battle.sol\":9404:9425  battleDragon[tokenId] */\n      dup2\n      mstore\n      0x20\n      add\n      swap1\n      dup2\n      mstore\n      0x20\n      add\n      0x00\n      keccak256\n        /* \"contents/Battle.sol\":9397:9425  return battleDragon[tokenId] */\n      mload(0x40)\n      dup1\n      0x80\n      add\n      0x40\n      mstore\n      swap1\n      dup2\n      0x00\n      dup3\n      add\n      sload\n      dup2\n      mstore\n      0x20\n      add\n      0x01\n      dup3\n      add\n      sload\n      dup2\n      mstore\n      0x20\n      add\n      0x02\n      dup3\n      add\n      sload\n      dup2\n      mstore\n      0x20\n      add\n      0x03\n      dup3\n      add\n      sload\n      dup2\n      mstore\n      pop\n      pop\n      swap1\n      pop\n        /* \"contents/Battle.sol\":9307:9433  function getDragonStatus(uint256 tokenId) external view returns(Dragon memory) {... */\n      swap2\n      swap1\n      pop\n      jump\t// out\n        /* \"contents/Battle.sol\":299:326  IQuest public questContract */\n    tag_53:\n      0x02\n      0x00\n      swap1\n      sload\n      swap1\n      0x0100\n      exp\n      swap1\n      div\n      0xffffffffffffffffffffffffffffffffffffffff\n      and\n      dup2\n      jump\t// out\n        /* \"@openzeppelin/contracts/access/Ownable.sol\":2293:2394  function renounceOwnership() public virtual onlyOwner {... */\n    tag_57:\n        /* \"@openzeppelin/contracts/access/Ownable.sol\":1531:1544  _checkOwner() */\n      tag_209\n        /* \"@openzeppelin/contracts/access/Ownable.sol\":1531:1542  _checkOwner */\n      tag_132\n        /* \"@openzeppelin/contracts/access/Ownable.sol\":1531:1544  _checkOwner() */\n      jump\t// in\n    tag_209:\n        /* \"@openzeppelin/contracts/access/Ownable.sol\":2357:2387  _transferOwnership(address(0)) */\n      tag_211\n        /* \"@openzeppelin/contracts/access/Ownable.sol\":2384:2385  0 */\n      0x00\n        /* \"@openzeppelin/contracts/access/Ownable.sol\":2357:2375  _transferOwnership */\n      tag_212\n        /* \"@openzeppelin/contracts/access/Ownable.sol\":2357:2387  _transferOwnership(address(0)) */\n      jump\t// in\n    tag_211:\n        /* \"@openzeppelin/contracts/access/Ownable.sol\":2293:2394  function renounceOwnership() public virtual onlyOwner {... */\n      jump\t// out\n        /* \"@openzeppelin/contracts/access/Ownable.sol\":1638:1723  function owner() public view virtual returns (address) {... */\n    tag_59:\n        /* \"@openzeppelin/contracts/access/Ownable.sol\":1684:1691  address */\n      0x00\n        /* \"@openzeppelin/contracts/access/Ownable.sol\":1710:1716  _owner */\n      dup1\n      0x00\n      swap1\n      sload\n      swap1\n      0x0100\n      exp\n      swap1\n      div\n      0xffffffffffffffffffffffffffffffffffffffff\n      and\n        /* \"@openzeppelin/contracts/access/Ownable.sol\":1703:1716  return _owner */\n      swap1\n      pop\n        /* \"@openzeppelin/contracts/access/Ownable.sol\":1638:1723  function owner() public view virtual returns (address) {... */\n      swap1\n      jump\t// out\n        /* \"contents/Battle.sol\":264:292  IToken public dragonContract */\n    tag_63:\n      0x01\n      0x00\n      swap1\n      sload\n      swap1\n      0x0100\n      exp\n      swap1\n      div\n      0xffffffffffffffffffffffffffffffffffffffff\n      and\n      dup2\n      jump\t// out\n        /* \"contents/Battle.sol\":1165:1197  uint256 public battleReward = 10 */\n    tag_67:\n      sload(0x0d)\n      dup2\n      jump\t// out\n        /* \"contents/Battle.sol\":8594:9079  function addDummy(uint256 count) external onlyOwner{... */\n    tag_71:\n        /* \"@openzeppelin/contracts/access/Ownable.sol\":1531:1544  _checkOwner() */\n      tag_215\n        /* \"@openzeppelin/contracts/access/Ownable.sol\":1531:1542  _checkOwner */\n      tag_132\n        /* \"@openzeppelin/contracts/access/Ownable.sol\":1531:1544  _checkOwner() */\n      jump\t// in\n    tag_215:\n        /* \"contents/Battle.sol\":8660:8669  uint256 i */\n      0x00\n        /* \"contents/Battle.sol\":8656:9072  for(uint256 i = 0; i < count; i++) {... */\n    tag_217:\n        /* \"contents/Battle.sol\":8679:8684  count */\n      dup2\n        /* \"contents/Battle.sol\":8675:8676  i */\n      dup2\n        /* \"contents/Battle.sol\":8675:8684  i < count */\n      lt\n        /* \"contents/Battle.sol\":8656:9072  for(uint256 i = 0; i < count; i++) {... */\n      iszero\n      tag_218\n      jumpi\n        /* \"contents/Battle.sol\":8706:8726  address dummyAddress */\n      0x00\n        /* \"contents/Battle.sol\":8745:8757  dummyCounter */\n      sload(0x0b)\n        /* \"contents/Battle.sol\":8706:8759  address dummyAddress = address(uint160(dummyCounter)) */\n      swap1\n      pop\n        /* \"contents/Battle.sol\":8774:8786  dummyCounter */\n      0x0b\n      0x00\n        /* \"contents/Battle.sol\":8774:8788  dummyCounter++ */\n      dup2\n      sload\n      dup1\n      swap3\n      swap2\n      swap1\n      tag_220\n      swap1\n      tag_189\n      jump\t// in\n    tag_220:\n      swap2\n      swap1\n      pop\n      sstore\n      pop\n        /* \"contents/Battle.sol\":8803:8812  dummyAddr */\n      0x0a\n        /* \"contents/Battle.sol\":8818:8830  dummyAddress */\n      dup2\n        /* \"contents/Battle.sol\":8803:8831  dummyAddr.push(dummyAddress) */\n      swap1\n      dup1\n      0x01\n      dup2\n      sload\n      add\n      dup1\n      dup3\n      sstore\n      dup1\n      swap2\n      pop\n      pop\n      0x01\n      swap1\n      sub\n      swap1\n      0x00\n      mstore\n      keccak256(0x00, 0x20)\n      add\n      0x00\n      swap1\n      swap2\n      swap1\n      swap2\n      swap1\n      swap2\n      0x0100\n      exp\n      dup2\n      sload\n      dup2\n      0xffffffffffffffffffffffffffffffffffffffff\n      mul\n      not\n      and\n      swap1\n      dup4\n      0xffffffffffffffffffffffffffffffffffffffff\n      and\n      mul\n      or\n      swap1\n      sstore\n      pop\n        /* \"contents/Battle.sol\":8846:8864  registeredBattlers */\n      0x09\n        /* \"contents/Battle.sol\":8870:8882  dummyAddress */\n      dup2\n        /* \"contents/Battle.sol\":8846:8883  registeredBattlers.push(dummyAddress) */\n      swap1\n      dup1\n      0x01\n      dup2\n      sload\n      add\n      dup1\n      dup3\n      sstore\n      dup1\n      swap2\n      pop\n      pop\n      0x01\n      swap1\n      sub\n      swap1\n      0x00\n      mstore\n      keccak256(0x00, 0x20)\n      add\n      0x00\n      swap1\n      swap2\n      swap1\n      swap2\n      swap1\n      swap2\n      0x0100\n      exp\n      dup2\n      sload\n      dup2\n      0xffffffffffffffffffffffffffffffffffffffff\n      mul\n      not\n      and\n      swap1\n      dup4\n      0xffffffffffffffffffffffffffffffffffffffff\n      and\n      mul\n      or\n      swap1\n      sstore\n      pop\n        /* \"contents/Battle.sol\":8918:9060  Dragon({... */\n      mload(0x40)\n      dup1\n      0x80\n      add\n      0x40\n      mstore\n      dup1\n        /* \"contents/Battle.sol\":8953:8954  0 */\n      0x00\n        /* \"contents/Battle.sol\":8918:9060  Dragon({... */\n      dup2\n      mstore\n      0x20\n      add\n        /* \"contents/Battle.sol\":8980:8983  100 */\n      0x64\n        /* \"contents/Battle.sol\":8918:9060  Dragon({... */\n      dup2\n      mstore\n      0x20\n      add\n        /* \"contents/Battle.sol\":9011:9014  100 */\n      0x64\n        /* \"contents/Battle.sol\":8918:9060  Dragon({... */\n      dup2\n      mstore\n      0x20\n      add\n        /* \"contents/Battle.sol\":9041:9044  100 */\n      0x64\n        /* \"contents/Battle.sol\":8918:9060  Dragon({... */\n      dup2\n      mstore\n      pop\n        /* \"contents/Battle.sol\":8900:8912  battleDragon */\n      0x04\n        /* \"contents/Battle.sol\":8900:8915  battleDragon[0] */\n      0x00\n        /* \"contents/Battle.sol\":8913:8914  0 */\n      dup1\n        /* \"contents/Battle.sol\":8900:8915  battleDragon[0] */\n      dup2\n      mstore\n      0x20\n      add\n      swap1\n      dup2\n      mstore\n      0x20\n      add\n      0x00\n      keccak256\n        /* \"contents/Battle.sol\":8900:9060  battleDragon[0] = Dragon({... */\n      0x00\n      dup3\n      add\n      mload\n      dup2\n      0x00\n      add\n      sstore\n      0x20\n      dup3\n      add\n      mload\n      dup2\n      0x01\n      add\n      sstore\n      0x40\n      dup3\n      add\n      mload\n      dup2\n      0x02\n      add\n      sstore\n      0x60\n      dup3\n      add\n      mload\n      dup2\n      0x03\n      add\n      sstore\n      swap1\n      pop\n      pop\n        /* \"contents/Battle.sol\":8691:9072  {... */\n      pop\n        /* \"contents/Battle.sol\":8686:8689  i++ */\n      dup1\n      dup1\n      0x01\n      add\n      swap2\n      pop\n      pop\n        /* \"contents/Battle.sol\":8656:9072  for(uint256 i = 0; i < count; i++) {... */\n      jump(tag_217)\n    tag_218:\n      pop\n        /* \"contents/Battle.sol\":8594:9079  function addDummy(uint256 count) external onlyOwner{... */\n      pop\n      jump\t// out\n        /* \"contents/Battle.sol\":6624:7346  function regiBattle(uint256 tokenId) external {... */\n    tag_74:\n        /* \"contents/Battle.sol\":6724:6734  msg.sender */\n      caller\n        /* \"contents/Battle.sol\":6689:6734  dragonContract.ownerOf(tokenId) == msg.sender */\n      0xffffffffffffffffffffffffffffffffffffffff\n      and\n        /* \"contents/Battle.sol\":6689:6703  dragonContract */\n      0x01\n      0x00\n      swap1\n      sload\n      swap1\n      0x0100\n      exp\n      swap1\n      div\n      0xffffffffffffffffffffffffffffffffffffffff\n      and\n        /* \"contents/Battle.sol\":6689:6711  dragonContract.ownerOf */\n      0xffffffffffffffffffffffffffffffffffffffff\n      and\n      0x6352211e\n        /* \"contents/Battle.sol\":6712:6719  tokenId */\n      dup4\n        /* \"contents/Battle.sol\":6689:6720  dragonContract.ownerOf(tokenId) */\n      mload(0x40)\n      dup3\n      0xffffffff\n      and\n      0xe0\n      shl\n      dup2\n      mstore\n      0x04\n      add\n      tag_224\n      swap2\n      swap1\n      tag_28\n      jump\t// in\n    tag_224:\n      0x20\n      mload(0x40)\n      dup1\n      dup4\n      sub\n      dup2\n      dup7\n      gas\n      staticcall\n      iszero\n      dup1\n      iszero\n      tag_226\n      jumpi\n      returndatasize\n      0x00\n      dup1\n      returndatacopy\n      revert(0x00, returndatasize)\n    tag_226:\n      pop\n      pop\n      pop\n      pop\n      mload(0x40)\n      returndatasize\n      not(0x1f)\n      0x1f\n      dup3\n      add\n      and\n      dup3\n      add\n      dup1\n      0x40\n      mstore\n      pop\n      dup2\n      add\n      swap1\n      tag_227\n      swap2\n      swap1\n      tag_98\n      jump\t// in\n    tag_227:\n        /* \"contents/Battle.sol\":6689:6734  dragonContract.ownerOf(tokenId) == msg.sender */\n      0xffffffffffffffffffffffffffffffffffffffff\n      and\n      eq\n        /* \"contents/Battle.sol\":6681:6748  require(dragonContract.ownerOf(tokenId) == msg.sender, \"Not Owner\") */\n      tag_228\n      jumpi\n      mload(0x40)\n      0x08c379a000000000000000000000000000000000000000000000000000000000\n      dup2\n      mstore\n      0x04\n      add\n      tag_229\n      swap1\n      tag_101\n      jump\t// in\n    tag_229:\n      mload(0x40)\n      dup1\n      swap2\n      sub\n      swap1\n      revert\n    tag_228:\n        /* \"contents/Battle.sol\":6800:6801  0 */\n      0x00\n        /* \"contents/Battle.sol\":6767:6784  registeredDragons */\n      0x06\n        /* \"contents/Battle.sol\":6767:6796  registeredDragons[msg.sender] */\n      0x00\n        /* \"contents/Battle.sol\":6785:6795  msg.sender */\n      caller\n        /* \"contents/Battle.sol\":6767:6796  registeredDragons[msg.sender] */\n      0xffffffffffffffffffffffffffffffffffffffff\n      and\n      0xffffffffffffffffffffffffffffffffffffffff\n      and\n      dup2\n      mstore\n      0x20\n      add\n      swap1\n      dup2\n      mstore\n      0x20\n      add\n      0x00\n      keccak256\n      sload\n        /* \"contents/Battle.sol\":6767:6801  registeredDragons[msg.sender] == 0 */\n      eq\n        /* \"contents/Battle.sol\":6759:6824  require(registeredDragons[msg.sender] == 0, \"Already registered\") */\n      tag_230\n      jumpi\n      mload(0x40)\n      0x08c379a000000000000000000000000000000000000000000000000000000000\n      dup2\n      mstore\n      0x04\n      add\n      tag_231\n      swap1\n      tag_232\n      jump\t// in\n    tag_231:\n      mload(0x40)\n      dup1\n      swap2\n      sub\n      swap1\n      revert\n    tag_230:\n        /* \"contents/Battle.sol\":6838:6869  IToken.GrowthStage currentStage */\n      0x00\n        /* \"contents/Battle.sol\":6875:6889  dragonContract */\n      0x01\n      0x00\n      swap1\n      sload\n      swap1\n      0x0100\n      exp\n      swap1\n      div\n      0xffffffffffffffffffffffffffffffffffffffff\n      and\n        /* \"contents/Battle.sol\":6875:6903  dragonContract.getGrowthInfo */\n      0xffffffffffffffffffffffffffffffffffffffff\n      and\n      0xb564ea86\n        /* \"contents/Battle.sol\":6904:6911  tokenId */\n      dup4\n        /* \"contents/Battle.sol\":6875:6912  dragonContract.getGrowthInfo(tokenId) */\n      mload(0x40)\n      dup3\n      0xffffffff\n      and\n      0xe0\n      shl\n      dup2\n      mstore\n      0x04\n      add\n      tag_233\n      swap2\n      swap1\n      tag_28\n      jump\t// in\n    tag_233:\n      0x40\n      dup1\n      mload\n      dup1\n      dup4\n      sub\n      dup2\n      dup7\n      gas\n      staticcall\n      iszero\n      dup1\n      iszero\n      tag_235\n      jumpi\n      returndatasize\n      0x00\n      dup1\n      returndatacopy\n      revert(0x00, returndatasize)\n    tag_235:\n      pop\n      pop\n      pop\n      pop\n      mload(0x40)\n      returndatasize\n      not(0x1f)\n      0x1f\n      dup3\n      add\n      and\n      dup3\n      add\n      dup1\n      0x40\n      mstore\n      pop\n      dup2\n      add\n      swap1\n      tag_236\n      swap2\n      swap1\n      tag_237\n      jump\t// in\n    tag_236:\n        /* \"contents/Battle.sol\":6837:6912  (IToken.GrowthStage currentStage, ) = dragonContract.getGrowthInfo(tokenId) */\n      pop\n      swap1\n      pop\n        /* \"contents/Battle.sol\":6947:6971  IToken.GrowthStage.Adult */\n      0x03\n        /* \"contents/Battle.sol\":6931:6971  currentStage == IToken.GrowthStage.Adult */\n      dup1\n      dup2\n      gt\n      iszero\n      tag_238\n      jumpi\n      tag_239\n      tag_240\n      jump\t// in\n    tag_239:\n    tag_238:\n        /* \"contents/Battle.sol\":6931:6943  currentStage */\n      dup2\n        /* \"contents/Battle.sol\":6931:6971  currentStage == IToken.GrowthStage.Adult */\n      0x03\n      dup2\n      gt\n      iszero\n      tag_241\n      jumpi\n      tag_242\n      tag_240\n      jump\t// in\n    tag_242:\n    tag_241:\n      eq\n        /* \"contents/Battle.sol\":6923:6994  require(currentStage == IToken.GrowthStage.Adult, \"token is not adult\") */\n      tag_243\n      jumpi\n      mload(0x40)\n      0x08c379a000000000000000000000000000000000000000000000000000000000\n      dup2\n      mstore\n      0x04\n      add\n      tag_244\n      swap1\n      tag_245\n      jump\t// in\n    tag_244:\n      mload(0x40)\n      dup1\n      swap2\n      sub\n      swap1\n      revert\n    tag_243:\n        /* \"contents/Battle.sol\":7043:7044  0 */\n      0x00\n        /* \"contents/Battle.sol\":7010:7022  battleDragon */\n      0x04\n        /* \"contents/Battle.sol\":7010:7031  battleDragon[tokenId] */\n      0x00\n        /* \"contents/Battle.sol\":7023:7030  tokenId */\n      dup5\n        /* \"contents/Battle.sol\":7010:7031  battleDragon[tokenId] */\n      dup2\n      mstore\n      0x20\n      add\n      swap1\n      dup2\n      mstore\n      0x20\n      add\n      0x00\n      keccak256\n        /* \"contents/Battle.sol\":7010:7039  battleDragon[tokenId].tokenId */\n      0x00\n      add\n      sload\n        /* \"contents/Battle.sol\":7010:7044  battleDragon[tokenId].tokenId == 0 */\n      sub\n        /* \"contents/Battle.sol\":7007:7241  if(battleDragon[tokenId].tokenId == 0){... */\n      tag_246\n      jumpi\n        /* \"contents/Battle.sol\":7084:7229  Dragon({... */\n      mload(0x40)\n      dup1\n      0x80\n      add\n      0x40\n      mstore\n      dup1\n        /* \"contents/Battle.sol\":7118:7125  tokenId */\n      dup4\n        /* \"contents/Battle.sol\":7084:7229  Dragon({... */\n      dup2\n      mstore\n      0x20\n      add\n        /* \"contents/Battle.sol\":7151:7154  100 */\n      0x64\n        /* \"contents/Battle.sol\":7084:7229  Dragon({... */\n      dup2\n      mstore\n      0x20\n      add\n        /* \"contents/Battle.sol\":7181:7184  100 */\n      0x64\n        /* \"contents/Battle.sol\":7084:7229  Dragon({... */\n      dup2\n      mstore\n      0x20\n      add\n        /* \"contents/Battle.sol\":7210:7213  100 */\n      0x64\n        /* \"contents/Battle.sol\":7084:7229  Dragon({... */\n      dup2\n      mstore\n      pop\n        /* \"contents/Battle.sol\":7060:7072  battleDragon */\n      0x04\n        /* \"contents/Battle.sol\":7060:7081  battleDragon[tokenId] */\n      0x00\n        /* \"contents/Battle.sol\":7073:7080  tokenId */\n      dup5\n        /* \"contents/Battle.sol\":7060:7081  battleDragon[tokenId] */\n      dup2\n      mstore\n      0x20\n      add\n      swap1\n      dup2\n      mstore\n      0x20\n      add\n      0x00\n      keccak256\n        /* \"contents/Battle.sol\":7060:7229  battleDragon[tokenId] = Dragon({... */\n      0x00\n      dup3\n      add\n      mload\n      dup2\n      0x00\n      add\n      sstore\n      0x20\n      dup3\n      add\n      mload\n      dup2\n      0x01\n      add\n      sstore\n      0x40\n      dup3\n      add\n      mload\n      dup2\n      0x02\n      add\n      sstore\n      0x60\n      dup3\n      add\n      mload\n      dup2\n      0x03\n      add\n      sstore\n      swap1\n      pop\n      pop\n        /* \"contents/Battle.sol\":7007:7241  if(battleDragon[tokenId].tokenId == 0){... */\n    tag_246:\n        /* \"contents/Battle.sol\":7285:7292  tokenId */\n      dup2\n        /* \"contents/Battle.sol\":7253:7270  registeredDragons */\n      0x06\n        /* \"contents/Battle.sol\":7253:7282  registeredDragons[msg.sender] */\n      0x00\n        /* \"contents/Battle.sol\":7271:7281  msg.sender */\n      caller\n        /* \"contents/Battle.sol\":7253:7282  registeredDragons[msg.sender] */\n      0xffffffffffffffffffffffffffffffffffffffff\n      and\n      0xffffffffffffffffffffffffffffffffffffffff\n      and\n      dup2\n      mstore\n      0x20\n      add\n      swap1\n      dup2\n      mstore\n      0x20\n      add\n      0x00\n      keccak256\n        /* \"contents/Battle.sol\":7253:7292  registeredDragons[msg.sender] = tokenId */\n      dup2\n      swap1\n      sstore\n      pop\n        /* \"contents/Battle.sol\":7303:7321  registeredBattlers */\n      0x09\n        /* \"contents/Battle.sol\":7327:7337  msg.sender */\n      caller\n        /* \"contents/Battle.sol\":7303:7338  registeredBattlers.push(msg.sender) */\n      swap1\n      dup1\n      0x01\n      dup2\n      sload\n      add\n      dup1\n      dup3\n      sstore\n      dup1\n      swap2\n      pop\n      pop\n      0x01\n      swap1\n      sub\n      swap1\n      0x00\n      mstore\n      keccak256(0x00, 0x20)\n      add\n      0x00\n      swap1\n      swap2\n      swap1\n      swap2\n      swap1\n      swap2\n      0x0100\n      exp\n      dup2\n      sload\n      dup2\n      0xffffffffffffffffffffffffffffffffffffffff\n      mul\n      not\n      and\n      swap1\n      dup4\n      0xffffffffffffffffffffffffffffffffffffffff\n      and\n      mul\n      or\n      swap1\n      sstore\n      pop\n        /* \"contents/Battle.sol\":6670:7346  {... */\n      pop\n        /* \"contents/Battle.sol\":6624:7346  function regiBattle(uint256 tokenId) external {... */\n      pop\n      jump\t// out\n        /* \"contents/Battle.sol\":9708:9906  function getPlayerRecords(address player) external view onlyOwner returns(BattleRecord memory)  {... */\n    tag_78:\n        /* \"contents/Battle.sol\":9782:9801  BattleRecord memory */\n      tag_248\n      tag_249\n      jump\t// in\n    tag_248:\n        /* \"@openzeppelin/contracts/access/Ownable.sol\":1531:1544  _checkOwner() */\n      tag_251\n        /* \"@openzeppelin/contracts/access/Ownable.sol\":1531:1542  _checkOwner */\n      tag_132\n        /* \"@openzeppelin/contracts/access/Ownable.sol\":1531:1544  _checkOwner() */\n      jump\t// in\n    tag_251:\n        /* \"contents/Battle.sol\":9815:9830  uint256 tokenId */\n      0x00\n        /* \"contents/Battle.sol\":9833:9850  registeredDragons */\n      0x06\n        /* \"contents/Battle.sol\":9833:9858  registeredDragons[player] */\n      0x00\n        /* \"contents/Battle.sol\":9851:9857  player */\n      dup5\n        /* \"contents/Battle.sol\":9833:9858  registeredDragons[player] */\n      0xffffffffffffffffffffffffffffffffffffffff\n      and\n      0xffffffffffffffffffffffffffffffffffffffff\n      and\n      dup2\n      mstore\n      0x20\n      add\n      swap1\n      dup2\n      mstore\n      0x20\n      add\n      0x00\n      keccak256\n      sload\n        /* \"contents/Battle.sol\":9815:9858  uint256 tokenId = registeredDragons[player] */\n      swap1\n      pop\n        /* \"contents/Battle.sol\":9876:9889  dragonRecords */\n      0x05\n        /* \"contents/Battle.sol\":9876:9898  dragonRecords[tokenId] */\n      0x00\n        /* \"contents/Battle.sol\":9890:9897  tokenId */\n      dup3\n        /* \"contents/Battle.sol\":9876:9898  dragonRecords[tokenId] */\n      dup2\n      mstore\n      0x20\n      add\n      swap1\n      dup2\n      mstore\n      0x20\n      add\n      0x00\n      keccak256\n        /* \"contents/Battle.sol\":9869:9898  return dragonRecords[tokenId] */\n      mload(0x40)\n      dup1\n      0x60\n      add\n      0x40\n      mstore\n      swap1\n      dup2\n      0x00\n      dup3\n      add\n      sload\n      dup2\n      mstore\n      0x20\n      add\n      0x01\n      dup3\n      add\n      sload\n      dup2\n      mstore\n      0x20\n      add\n      0x02\n      dup3\n      add\n      dup1\n      sload\n      dup1\n      0x20\n      mul\n      0x20\n      add\n      mload(0x40)\n      swap1\n      dup2\n      add\n      0x40\n      mstore\n      dup1\n      swap3\n      swap2\n      swap1\n      dup2\n      dup2\n      mstore\n      0x20\n      add\n      0x00\n      swap1\n    tag_253:\n      dup3\n      dup3\n      lt\n      iszero\n      tag_254\n      jumpi\n      dup4\n      dup3\n      swap1\n      0x00\n      mstore\n      keccak256(0x00, 0x20)\n      swap1\n      0x05\n      mul\n      add\n      mload(0x40)\n      dup1\n      0x40\n      add\n      0x40\n      mstore\n      swap1\n      dup2\n      0x00\n      dup3\n      add\n      mload(0x40)\n      dup1\n      0x80\n      add\n      0x40\n      mstore\n      swap1\n      dup2\n      0x00\n      dup3\n      add\n      sload\n      dup2\n      mstore\n      0x20\n      add\n      0x01\n      dup3\n      add\n      sload\n      dup2\n      mstore\n      0x20\n      add\n      0x02\n      dup3\n      add\n      sload\n      dup2\n      mstore\n      0x20\n      add\n      0x03\n      dup3\n      add\n      sload\n      dup2\n      mstore\n      pop\n      pop\n      dup2\n      mstore\n      0x20\n      add\n      0x04\n      dup3\n      add\n      0x00\n      swap1\n      sload\n      swap1\n      0x0100\n      exp\n      swap1\n      div\n      0xff\n      and\n      iszero\n      iszero\n      iszero\n      iszero\n      dup2\n      mstore\n      pop\n      pop\n      dup2\n      mstore\n      0x20\n      add\n      swap1\n      0x01\n      add\n      swap1\n      jump(tag_253)\n    tag_254:\n      pop\n      pop\n      pop\n      pop\n      dup2\n      mstore\n      pop\n      pop\n      swap2\n      pop\n      pop\n        /* \"contents/Battle.sol\":9708:9906  function getPlayerRecords(address player) external view onlyOwner returns(BattleRecord memory)  {... */\n      swap2\n      swap1\n      pop\n      jump\t// out\n        /* \"contents/Battle.sol\":9089:9299  function deleteDummy() external onlyOwner {... */\n    tag_82:\n        /* \"@openzeppelin/contracts/access/Ownable.sol\":1531:1544  _checkOwner() */\n      tag_257\n        /* \"@openzeppelin/contracts/access/Ownable.sol\":1531:1542  _checkOwner */\n      tag_132\n        /* \"@openzeppelin/contracts/access/Ownable.sol\":1531:1544  _checkOwner() */\n      jump\t// in\n    tag_257:\n        /* \"contents/Battle.sol\":9146:9155  uint256 i */\n      0x00\n        /* \"contents/Battle.sol\":9142:9238  for(uint256 i = 0; i <= dummyAddr.length; i++) {... */\n    tag_259:\n        /* \"contents/Battle.sol\":9166:9175  dummyAddr */\n      0x0a\n        /* \"contents/Battle.sol\":9166:9182  dummyAddr.length */\n      dup1\n      sload\n      swap1\n      pop\n        /* \"contents/Battle.sol\":9161:9162  i */\n      dup2\n        /* \"contents/Battle.sol\":9161:9182  i <= dummyAddr.length */\n      gt\n        /* \"contents/Battle.sol\":9142:9238  for(uint256 i = 0; i <= dummyAddr.length; i++) {... */\n      tag_260\n      jumpi\n        /* \"contents/Battle.sol\":9211:9223  battleDragon */\n      0x04\n        /* \"contents/Battle.sol\":9211:9226  battleDragon[0] */\n      0x00\n        /* \"contents/Battle.sol\":9224:9225  0 */\n      dup1\n        /* \"contents/Battle.sol\":9211:9226  battleDragon[0] */\n      dup2\n      mstore\n      0x20\n      add\n      swap1\n      dup2\n      mstore\n      0x20\n      add\n      0x00\n      keccak256\n      0x00\n        /* \"contents/Battle.sol\":9204:9226  delete battleDragon[0] */\n      dup1\n      dup3\n      add\n      0x00\n      swap1\n      sstore\n      0x01\n      dup3\n      add\n      0x00\n      swap1\n      sstore\n      0x02\n      dup3\n      add\n      0x00\n      swap1\n      sstore\n      0x03\n      dup3\n      add\n      0x00\n      swap1\n      sstore\n      pop\n      pop\n        /* \"contents/Battle.sol\":9184:9187  i++ */\n      dup1\n      dup1\n      tag_262\n      swap1\n      tag_189\n      jump\t// in\n    tag_262:\n      swap2\n      pop\n      pop\n        /* \"contents/Battle.sol\":9142:9238  for(uint256 i = 0; i <= dummyAddr.length; i++) {... */\n      jump(tag_259)\n    tag_260:\n      pop\n        /* \"contents/Battle.sol\":9255:9264  dummyAddr */\n      0x0a\n      0x00\n        /* \"contents/Battle.sol\":9248:9264  delete dummyAddr */\n      tag_263\n      swap2\n      swap1\n      tag_264\n      jump\t// in\n    tag_263:\n        /* \"contents/Battle.sol\":9290:9291  0 */\n      0x00\n        /* \"contents/Battle.sol\":9275:9287  dummyCounter */\n      0x0b\n        /* \"contents/Battle.sol\":9275:9291  dummyCounter = 0 */\n      dup2\n      swap1\n      sstore\n      pop\n        /* \"contents/Battle.sol\":9089:9299  function deleteDummy() external onlyOwner {... */\n      jump\t// out\n        /* \"contents/Battle.sol\":1204:1239  uint256 public dailyBattleLimit = 3 */\n    tag_84:\n      sload(0x0e)\n      dup2\n      jump\t// out\n        /* \"@openzeppelin/contracts/access/Ownable.sol\":2543:2758  function transferOwnership(address newOwner) public virtual onlyOwner {... */\n    tag_88:\n        /* \"@openzeppelin/contracts/access/Ownable.sol\":1531:1544  _checkOwner() */\n      tag_266\n        /* \"@openzeppelin/contracts/access/Ownable.sol\":1531:1542  _checkOwner */\n      tag_132\n        /* \"@openzeppelin/contracts/access/Ownable.sol\":1531:1544  _checkOwner() */\n      jump\t// in\n    tag_266:\n        /* \"@openzeppelin/contracts/access/Ownable.sol\":2647:2648  0 */\n      0x00\n        /* \"@openzeppelin/contracts/access/Ownable.sol\":2627:2649  newOwner == address(0) */\n      0xffffffffffffffffffffffffffffffffffffffff\n      and\n        /* \"@openzeppelin/contracts/access/Ownable.sol\":2627:2635  newOwner */\n      dup2\n        /* \"@openzeppelin/contracts/access/Ownable.sol\":2627:2649  newOwner == address(0) */\n      0xffffffffffffffffffffffffffffffffffffffff\n      and\n      sub\n        /* \"@openzeppelin/contracts/access/Ownable.sol\":2623:2714  if (newOwner == address(0)) {... */\n      tag_268\n      jumpi\n        /* \"@openzeppelin/contracts/access/Ownable.sol\":2700:2701  0 */\n      0x00\n        /* \"@openzeppelin/contracts/access/Ownable.sol\":2672:2703  OwnableInvalidOwner(address(0)) */\n      mload(0x40)\n      0x1e4fbdf700000000000000000000000000000000000000000000000000000000\n      dup2\n      mstore\n      0x04\n      add\n      tag_269\n      swap2\n      swap1\n      tag_61\n      jump\t// in\n    tag_269:\n      mload(0x40)\n      dup1\n      swap2\n      sub\n      swap1\n      revert\n        /* \"@openzeppelin/contracts/access/Ownable.sol\":2623:2714  if (newOwner == address(0)) {... */\n    tag_268:\n        /* \"@openzeppelin/contracts/access/Ownable.sol\":2723:2751  _transferOwnership(newOwner) */\n      tag_270\n        /* \"@openzeppelin/contracts/access/Ownable.sol\":2742:2750  newOwner */\n      dup2\n        /* \"@openzeppelin/contracts/access/Ownable.sol\":2723:2741  _transferOwnership */\n      tag_212\n        /* \"@openzeppelin/contracts/access/Ownable.sol\":2723:2751  _transferOwnership(newOwner) */\n      jump\t// in\n    tag_270:\n        /* \"@openzeppelin/contracts/access/Ownable.sol\":2543:2758  function transferOwnership(address newOwner) public virtual onlyOwner {... */\n      pop\n      jump\t// out\n        /* \"contents/Battle.sol\":333:366  IDragonDrink public drinkContract */\n    tag_90:\n      0x03\n      0x00\n      swap1\n      sload\n      swap1\n      0x0100\n      exp\n      swap1\n      div\n      0xffffffffffffffffffffffffffffffffffffffff\n      and\n      dup2\n      jump\t// out\n        /* \"@openzeppelin/contracts/access/Ownable.sol\":1796:1958  function _checkOwner() internal view virtual {... */\n    tag_132:\n        /* \"@openzeppelin/contracts/access/Ownable.sol\":1866:1878  _msgSender() */\n      tag_272\n        /* \"@openzeppelin/contracts/access/Ownable.sol\":1866:1876  _msgSender */\n      tag_273\n        /* \"@openzeppelin/contracts/access/Ownable.sol\":1866:1878  _msgSender() */\n      jump\t// in\n    tag_272:\n        /* \"@openzeppelin/contracts/access/Ownable.sol\":1855:1878  owner() != _msgSender() */\n      0xffffffffffffffffffffffffffffffffffffffff\n      and\n        /* \"@openzeppelin/contracts/access/Ownable.sol\":1855:1862  owner() */\n      tag_274\n        /* \"@openzeppelin/contracts/access/Ownable.sol\":1855:1860  owner */\n      tag_59\n        /* \"@openzeppelin/contracts/access/Ownable.sol\":1855:1862  owner() */\n      jump\t// in\n    tag_274:\n        /* \"@openzeppelin/contracts/access/Ownable.sol\":1855:1878  owner() != _msgSender() */\n      0xffffffffffffffffffffffffffffffffffffffff\n      and\n      eq\n        /* \"@openzeppelin/contracts/access/Ownable.sol\":1851:1952  if (owner() != _msgSender()) {... */\n      tag_275\n      jumpi\n        /* \"@openzeppelin/contracts/access/Ownable.sol\":1928:1940  _msgSender() */\n      tag_276\n        /* \"@openzeppelin/contracts/access/Ownable.sol\":1928:1938  _msgSender */\n      tag_273\n        /* \"@openzeppelin/contracts/access/Ownable.sol\":1928:1940  _msgSender() */\n      jump\t// in\n    tag_276:\n        /* \"@openzeppelin/contracts/access/Ownable.sol\":1901:1941  OwnableUnauthorizedAccount(_msgSender()) */\n      mload(0x40)\n      0x118cdaa700000000000000000000000000000000000000000000000000000000\n      dup2\n      mstore\n      0x04\n      add\n      tag_277\n      swap2\n      swap1\n      tag_61\n      jump\t// in\n    tag_277:\n      mload(0x40)\n      dup1\n      swap2\n      sub\n      swap1\n      revert\n        /* \"@openzeppelin/contracts/access/Ownable.sol\":1851:1952  if (owner() != _msgSender()) {... */\n    tag_275:\n        /* \"@openzeppelin/contracts/access/Ownable.sol\":1796:1958  function _checkOwner() internal view virtual {... */\n      jump\t// out\n        /* \"contents/Battle.sol\":10028:10127  function today() internal view returns (uint256) {... */\n    tag_170:\n        /* \"contents/Battle.sol\":10068:10075  uint256 */\n      0x00\n        /* \"contents/Battle.sol\":10113:10119  1 days */\n      0x015180\n        /* \"contents/Battle.sol\":10095:10110  block.timestamp */\n      timestamp\n        /* \"contents/Battle.sol\":10095:10119  block.timestamp / 1 days */\n      tag_279\n      swap2\n      swap1\n      tag_280\n      jump\t// in\n    tag_279:\n        /* \"contents/Battle.sol\":10088:10119  return block.timestamp / 1 days */\n      swap1\n      pop\n        /* \"contents/Battle.sol\":10028:10127  function today() internal view returns (uint256) {... */\n      swap1\n      jump\t// out\n        /* \"contents/Battle.sol\":7936:8586  function findRandomOpponent(address exclude) internal view returns(address) {... */\n    tag_184:\n        /* \"contents/Battle.sol\":8003:8010  address */\n      0x00\n        /* \"contents/Battle.sol\":8023:8046  uint256 registeredCount */\n      dup1\n        /* \"contents/Battle.sol\":8049:8067  registeredBattlers */\n      0x09\n        /* \"contents/Battle.sol\":8049:8074  registeredBattlers.length */\n      dup1\n      sload\n      swap1\n      pop\n        /* \"contents/Battle.sol\":8023:8074  uint256 registeredCount = registeredBattlers.length */\n      swap1\n      pop\n        /* \"contents/Battle.sol\":8107:8108  1 */\n      0x01\n        /* \"contents/Battle.sol\":8088:8103  registeredCount */\n      dup2\n        /* \"contents/Battle.sol\":8088:8108  registeredCount <= 1 */\n      gt\n        /* \"contents/Battle.sol\":8085:8154  if(registeredCount <= 1) {... */\n      tag_282\n      jumpi\n        /* \"contents/Battle.sol\":8140:8141  0 */\n      0x00\n        /* \"contents/Battle.sol\":8125:8142  return address(0) */\n      swap2\n      pop\n      pop\n      jump(tag_281)\n        /* \"contents/Battle.sol\":8085:8154  if(registeredCount <= 1) {... */\n    tag_282:\n        /* \"contents/Battle.sol\":8166:8185  uint256 randomIndex */\n      0x00\n        /* \"contents/Battle.sol\":8196:8212  address opponent */\n      dup1\n        /* \"contents/Battle.sol\":8229:8238  uint256 i */\n      0x00\n        /* \"contents/Battle.sol\":8225:8551  for(uint256 i = 0; i < registeredCount; i++) {... */\n    tag_283:\n        /* \"contents/Battle.sol\":8248:8263  registeredCount */\n      dup4\n        /* \"contents/Battle.sol\":8244:8245  i */\n      dup2\n        /* \"contents/Battle.sol\":8244:8263  i < registeredCount */\n      lt\n        /* \"contents/Battle.sol\":8225:8551  for(uint256 i = 0; i < registeredCount; i++) {... */\n      iszero\n      tag_284\n      jumpi\n        /* \"contents/Battle.sol\":8376:8391  registeredCount */\n      dup4\n        /* \"contents/Battle.sol\":8334:8349  block.timestamp */\n      timestamp\n        /* \"contents/Battle.sol\":8351:8367  block.prevrandao */\n      prevrandao\n        /* \"contents/Battle.sol\":8369:8370  i */\n      dup4\n        /* \"contents/Battle.sol\":8317:8371  abi.encodePacked(block.timestamp, block.prevrandao, i) */\n      add(0x20, mload(0x40))\n      tag_286\n      swap4\n      swap3\n      swap2\n      swap1\n      tag_287\n      jump\t// in\n    tag_286:\n      mload(0x40)\n      0x20\n      dup2\n      dup4\n      sub\n      sub\n      dup2\n      mstore\n      swap1\n      0x40\n      mstore\n        /* \"contents/Battle.sol\":8307:8372  keccak256(abi.encodePacked(block.timestamp, block.prevrandao, i)) */\n      dup1\n      mload\n      swap1\n      0x20\n      add\n      keccak256\n        /* \"contents/Battle.sol\":8299:8373  uint256(keccak256(abi.encodePacked(block.timestamp, block.prevrandao, i))) */\n      0x00\n      shr\n        /* \"contents/Battle.sol\":8299:8391  uint256(keccak256(abi.encodePacked(block.timestamp, block.prevrandao, i))) % registeredCount */\n      tag_288\n      swap2\n      swap1\n      tag_121\n      jump\t// in\n    tag_288:\n        /* \"contents/Battle.sol\":8285:8391  randomIndex = uint256(keccak256(abi.encodePacked(block.timestamp, block.prevrandao, i))) % registeredCount */\n      swap3\n      pop\n        /* \"contents/Battle.sol\":8417:8435  registeredBattlers */\n      0x09\n        /* \"contents/Battle.sol\":8436:8447  randomIndex */\n      dup4\n        /* \"contents/Battle.sol\":8417:8448  registeredBattlers[randomIndex] */\n      dup2\n      sload\n      dup2\n      lt\n      tag_289\n      jumpi\n      tag_290\n      tag_153\n      jump\t// in\n    tag_290:\n    tag_289:\n      swap1\n      0x00\n      mstore\n      keccak256(0x00, 0x20)\n      add\n      0x00\n      swap1\n      sload\n      swap1\n      0x0100\n      exp\n      swap1\n      div\n      0xffffffffffffffffffffffffffffffffffffffff\n      and\n        /* \"contents/Battle.sol\":8406:8448  opponent = registeredBattlers[randomIndex] */\n      swap2\n      pop\n        /* \"contents/Battle.sol\":8481:8488  exclude */\n      dup6\n        /* \"contents/Battle.sol\":8469:8488  opponent != exclude */\n      0xffffffffffffffffffffffffffffffffffffffff\n      and\n        /* \"contents/Battle.sol\":8469:8477  opponent */\n      dup3\n        /* \"contents/Battle.sol\":8469:8488  opponent != exclude */\n      0xffffffffffffffffffffffffffffffffffffffff\n      and\n      eq\n        /* \"contents/Battle.sol\":8465:8540  if (opponent != exclude) {... */\n      tag_292\n      jumpi\n        /* \"contents/Battle.sol\":8516:8524  opponent */\n      dup2\n        /* \"contents/Battle.sol\":8509:8524  return opponent */\n      swap5\n      pop\n      pop\n      pop\n      pop\n      pop\n      jump(tag_281)\n        /* \"contents/Battle.sol\":8465:8540  if (opponent != exclude) {... */\n    tag_292:\n        /* \"contents/Battle.sol\":8265:8268  i++ */\n      dup1\n      dup1\n      0x01\n      add\n      swap2\n      pop\n      pop\n        /* \"contents/Battle.sol\":8225:8551  for(uint256 i = 0; i < registeredCount; i++) {... */\n      jump(tag_283)\n    tag_284:\n      pop\n        /* \"contents/Battle.sol\":8576:8577  0 */\n      0x00\n        /* \"contents/Battle.sol\":8561:8578  return address(0) */\n      swap4\n      pop\n      pop\n      pop\n      pop\n        /* \"contents/Battle.sol\":7936:8586  function findRandomOpponent(address exclude) internal view returns(address) {... */\n    tag_281:\n      swap2\n      swap1\n      pop\n      jump\t// out\n        /* \"contents/Battle.sol\":2615:3926  function battleProgress(address player, address opponent) internal {... */\n    tag_202:\n        /* \"contents/Battle.sol\":2693:2714  uint256 playerTokenId */\n      0x00\n        /* \"contents/Battle.sol\":2717:2734  registeredDragons */\n      0x06\n        /* \"contents/Battle.sol\":2717:2742  registeredDragons[player] */\n      0x00\n        /* \"contents/Battle.sol\":2735:2741  player */\n      dup5\n        /* \"contents/Battle.sol\":2717:2742  registeredDragons[player] */\n      0xffffffffffffffffffffffffffffffffffffffff\n      and\n      0xffffffffffffffffffffffffffffffffffffffff\n      and\n      dup2\n      mstore\n      0x20\n      add\n      swap1\n      dup2\n      mstore\n      0x20\n      add\n      0x00\n      keccak256\n      sload\n        /* \"contents/Battle.sol\":2693:2742  uint256 playerTokenId = registeredDragons[player] */\n      swap1\n      pop\n        /* \"contents/Battle.sol\":2753:2776  uint256 opponentTokenId */\n      0x00\n        /* \"contents/Battle.sol\":2779:2796  registeredDragons */\n      0x06\n        /* \"contents/Battle.sol\":2779:2806  registeredDragons[opponent] */\n      0x00\n        /* \"contents/Battle.sol\":2797:2805  opponent */\n      dup5\n        /* \"contents/Battle.sol\":2779:2806  registeredDragons[opponent] */\n      0xffffffffffffffffffffffffffffffffffffffff\n      and\n      0xffffffffffffffffffffffffffffffffffffffff\n      and\n      dup2\n      mstore\n      0x20\n      add\n      swap1\n      dup2\n      mstore\n      0x20\n      add\n      0x00\n      keccak256\n      sload\n        /* \"contents/Battle.sol\":2753:2806  uint256 opponentTokenId = registeredDragons[opponent] */\n      swap1\n      pop\n        /* \"contents/Battle.sol\":2819:2842  Dragon storage myDragon */\n      0x00\n        /* \"contents/Battle.sol\":2845:2857  battleDragon */\n      0x04\n        /* \"contents/Battle.sol\":2845:2872  battleDragon[playerTokenId] */\n      0x00\n        /* \"contents/Battle.sol\":2858:2871  playerTokenId */\n      dup5\n        /* \"contents/Battle.sol\":2845:2872  battleDragon[playerTokenId] */\n      dup2\n      mstore\n      0x20\n      add\n      swap1\n      dup2\n      mstore\n      0x20\n      add\n      0x00\n      keccak256\n        /* \"contents/Battle.sol\":2819:2872  Dragon storage myDragon = battleDragon[playerTokenId] */\n      swap1\n      pop\n        /* \"contents/Battle.sol\":2883:2912  Dragon storage opponentDragon */\n      0x00\n        /* \"contents/Battle.sol\":2915:2927  battleDragon */\n      0x04\n        /* \"contents/Battle.sol\":2915:2944  battleDragon[opponentTokenId] */\n      0x00\n        /* \"contents/Battle.sol\":2928:2943  opponentTokenId */\n      dup5\n        /* \"contents/Battle.sol\":2915:2944  battleDragon[opponentTokenId] */\n      dup2\n      mstore\n      0x20\n      add\n      swap1\n      dup2\n      mstore\n      0x20\n      add\n      0x00\n      keccak256\n        /* \"contents/Battle.sol\":2883:2944  Dragon storage opponentDragon = battleDragon[opponentTokenId] */\n      swap1\n      pop\n        /* \"contents/Battle.sol\":2957:2973  uint256 myHealth */\n      0x00\n        /* \"contents/Battle.sol\":2976:2984  myDragon */\n      dup3\n        /* \"contents/Battle.sol\":2976:2991  myDragon.health */\n      0x03\n      add\n      sload\n        /* \"contents/Battle.sol\":2957:2991  uint256 myHealth = myDragon.health */\n      swap1\n      pop\n        /* \"contents/Battle.sol\":3002:3024  uint256 opponentHealth */\n      0x00\n        /* \"contents/Battle.sol\":3027:3041  opponentDragon */\n      dup3\n        /* \"contents/Battle.sol\":3027:3048  opponentDragon.health */\n      0x03\n      add\n      sload\n        /* \"contents/Battle.sol\":3002:3048  uint256 opponentHealth = opponentDragon.health */\n      swap1\n      pop\n        /* \"contents/Battle.sol\":3061:3077  bool playerFirst */\n      0x00\n        /* \"contents/Battle.sol\":3160:3161  0 */\n      dup1\n        /* \"contents/Battle.sol\":3154:3155  2 */\n      0x02\n        /* \"contents/Battle.sol\":3116:3131  block.timestamp */\n      timestamp\n        /* \"contents/Battle.sol\":3132:3148  block.prevrandao */\n      prevrandao\n        /* \"contents/Battle.sol\":3099:3149  abi.encodePacked(block.timestamp,block.prevrandao) */\n      add(0x20, mload(0x40))\n      tag_294\n      swap3\n      swap2\n      swap1\n      tag_119\n      jump\t// in\n    tag_294:\n      mload(0x40)\n      0x20\n      dup2\n      dup4\n      sub\n      sub\n      dup2\n      mstore\n      swap1\n      0x40\n      mstore\n        /* \"contents/Battle.sol\":3089:3150  keccak256(abi.encodePacked(block.timestamp,block.prevrandao)) */\n      dup1\n      mload\n      swap1\n      0x20\n      add\n      keccak256\n        /* \"contents/Battle.sol\":3081:3151  uint256(keccak256(abi.encodePacked(block.timestamp,block.prevrandao))) */\n      0x00\n      shr\n        /* \"contents/Battle.sol\":3081:3155  uint256(keccak256(abi.encodePacked(block.timestamp,block.prevrandao))) % 2 */\n      tag_295\n      swap2\n      swap1\n      tag_121\n      jump\t// in\n    tag_295:\n        /* \"contents/Battle.sol\":3080:3161  (uint256(keccak256(abi.encodePacked(block.timestamp,block.prevrandao))) % 2) == 0 */\n      eq\n        /* \"contents/Battle.sol\":3061:3161  bool playerFirst = (uint256(keccak256(abi.encodePacked(block.timestamp,block.prevrandao))) % 2) == 0 */\n      swap1\n      pop\n        /* \"contents/Battle.sol\":3186:3195  uint256 i */\n      0x00\n        /* \"contents/Battle.sol\":3182:3843  for(uint256 i = 0; i < 10 && myHealth > 0 && opponentHealth > 0; i++) {... */\n    tag_296:\n        /* \"contents/Battle.sol\":3205:3207  10 */\n      0x0a\n        /* \"contents/Battle.sol\":3201:3202  i */\n      dup2\n        /* \"contents/Battle.sol\":3201:3207  i < 10 */\n      lt\n        /* \"contents/Battle.sol\":3201:3223  i < 10 && myHealth > 0 */\n      dup1\n      iszero\n      tag_299\n      jumpi\n      pop\n        /* \"contents/Battle.sol\":3222:3223  0 */\n      0x00\n        /* \"contents/Battle.sol\":3211:3219  myHealth */\n      dup5\n        /* \"contents/Battle.sol\":3211:3223  myHealth > 0 */\n      gt\n        /* \"contents/Battle.sol\":3201:3223  i < 10 && myHealth > 0 */\n    tag_299:\n        /* \"contents/Battle.sol\":3201:3245  i < 10 && myHealth > 0 && opponentHealth > 0 */\n      dup1\n      iszero\n      tag_300\n      jumpi\n      pop\n        /* \"contents/Battle.sol\":3244:3245  0 */\n      0x00\n        /* \"contents/Battle.sol\":3227:3241  opponentHealth */\n      dup4\n        /* \"contents/Battle.sol\":3227:3245  opponentHealth > 0 */\n      gt\n        /* \"contents/Battle.sol\":3201:3245  i < 10 && myHealth > 0 && opponentHealth > 0 */\n    tag_300:\n        /* \"contents/Battle.sol\":3182:3843  for(uint256 i = 0; i < 10 && myHealth > 0 && opponentHealth > 0; i++) {... */\n      iszero\n      tag_297\n      jumpi\n        /* \"contents/Battle.sol\":3270:3281  playerFirst */\n      dup2\n        /* \"contents/Battle.sol\":3267:3832  if(playerFirst) {... */\n      iszero\n      tag_301\n      jumpi\n        /* \"contents/Battle.sol\":3319:3382  applyDamage(myDragon.attack, myDragon.defense, myDragon.health) */\n      tag_302\n        /* \"contents/Battle.sol\":3331:3339  myDragon */\n      dup7\n        /* \"contents/Battle.sol\":3331:3346  myDragon.attack */\n      0x01\n      add\n      sload\n        /* \"contents/Battle.sol\":3348:3356  myDragon */\n      dup8\n        /* \"contents/Battle.sol\":3348:3364  myDragon.defense */\n      0x02\n      add\n      sload\n        /* \"contents/Battle.sol\":3366:3374  myDragon */\n      dup9\n        /* \"contents/Battle.sol\":3366:3381  myDragon.health */\n      0x03\n      add\n      sload\n        /* \"contents/Battle.sol\":3319:3330  applyDamage */\n      tag_303\n        /* \"contents/Battle.sol\":3319:3382  applyDamage(myDragon.attack, myDragon.defense, myDragon.health) */\n      jump\t// in\n    tag_302:\n        /* \"contents/Battle.sol\":3302:3382  opponentHealth = applyDamage(myDragon.attack, myDragon.defense, myDragon.health) */\n      swap3\n      pop\n        /* \"contents/Battle.sol\":3422:3423  0 */\n      0x00\n        /* \"contents/Battle.sol\":3404:3418  opponentHealth */\n      dup4\n        /* \"contents/Battle.sol\":3404:3423  opponentHealth == 0 */\n      sub\n        /* \"contents/Battle.sol\":3401:3430  if(opponentHealth == 0) break */\n      iszero\n        /* \"contents/Battle.sol\":3425:3430  break */\n      tag_297\n        /* \"contents/Battle.sol\":3401:3430  if(opponentHealth == 0) break */\n      jumpi\n        /* \"contents/Battle.sol\":3460:3541  applyDamage(opponentDragon.attack, opponentDragon.defense, opponentDragon.health) */\n      tag_305\n        /* \"contents/Battle.sol\":3472:3486  opponentDragon */\n      dup6\n        /* \"contents/Battle.sol\":3472:3493  opponentDragon.attack */\n      0x01\n      add\n      sload\n        /* \"contents/Battle.sol\":3495:3509  opponentDragon */\n      dup7\n        /* \"contents/Battle.sol\":3495:3517  opponentDragon.defense */\n      0x02\n      add\n      sload\n        /* \"contents/Battle.sol\":3519:3533  opponentDragon */\n      dup8\n        /* \"contents/Battle.sol\":3519:3540  opponentDragon.health */\n      0x03\n      add\n      sload\n        /* \"contents/Battle.sol\":3460:3471  applyDamage */\n      tag_303\n        /* \"contents/Battle.sol\":3460:3541  applyDamage(opponentDragon.attack, opponentDragon.defense, opponentDragon.health) */\n      jump\t// in\n    tag_305:\n        /* \"contents/Battle.sol\":3449:3541  myHealth = applyDamage(opponentDragon.attack, opponentDragon.defense, opponentDragon.health) */\n      swap4\n      pop\n        /* \"contents/Battle.sol\":3267:3832  if(playerFirst) {... */\n      jump(tag_306)\n    tag_301:\n        /* \"contents/Battle.sol\":3593:3674  applyDamage(opponentDragon.attack, opponentDragon.defense, opponentDragon.health) */\n      tag_307\n        /* \"contents/Battle.sol\":3605:3619  opponentDragon */\n      dup6\n        /* \"contents/Battle.sol\":3605:3626  opponentDragon.attack */\n      0x01\n      add\n      sload\n        /* \"contents/Battle.sol\":3628:3642  opponentDragon */\n      dup7\n        /* \"contents/Battle.sol\":3628:3650  opponentDragon.defense */\n      0x02\n      add\n      sload\n        /* \"contents/Battle.sol\":3652:3666  opponentDragon */\n      dup8\n        /* \"contents/Battle.sol\":3652:3673  opponentDragon.health */\n      0x03\n      add\n      sload\n        /* \"contents/Battle.sol\":3593:3604  applyDamage */\n      tag_303\n        /* \"contents/Battle.sol\":3593:3674  applyDamage(opponentDragon.attack, opponentDragon.defense, opponentDragon.health) */\n      jump\t// in\n    tag_307:\n        /* \"contents/Battle.sol\":3582:3674  myHealth = applyDamage(opponentDragon.attack, opponentDragon.defense, opponentDragon.health) */\n      swap4\n      pop\n        /* \"contents/Battle.sol\":3709:3710  0 */\n      0x00\n        /* \"contents/Battle.sol\":3697:3705  myHealth */\n      dup5\n        /* \"contents/Battle.sol\":3697:3710  myHealth == 0 */\n      sub\n        /* \"contents/Battle.sol\":3693:3717  if (myHealth == 0) break */\n      iszero\n        /* \"contents/Battle.sol\":3712:3717  break */\n      tag_297\n        /* \"contents/Battle.sol\":3693:3717  if (myHealth == 0) break */\n      jumpi\n        /* \"contents/Battle.sol\":3753:3816  applyDamage(myDragon.attack, myDragon.defense, myDragon.health) */\n      tag_309\n        /* \"contents/Battle.sol\":3765:3773  myDragon */\n      dup7\n        /* \"contents/Battle.sol\":3765:3780  myDragon.attack */\n      0x01\n      add\n      sload\n        /* \"contents/Battle.sol\":3782:3790  myDragon */\n      dup8\n        /* \"contents/Battle.sol\":3782:3798  myDragon.defense */\n      0x02\n      add\n      sload\n        /* \"contents/Battle.sol\":3800:3808  myDragon */\n      dup9\n        /* \"contents/Battle.sol\":3800:3815  myDragon.health */\n      0x03\n      add\n      sload\n        /* \"contents/Battle.sol\":3753:3764  applyDamage */\n      tag_303\n        /* \"contents/Battle.sol\":3753:3816  applyDamage(myDragon.attack, myDragon.defense, myDragon.health) */\n      jump\t// in\n    tag_309:\n        /* \"contents/Battle.sol\":3736:3816  opponentHealth = applyDamage(myDragon.attack, myDragon.defense, myDragon.health) */\n      swap3\n      pop\n        /* \"contents/Battle.sol\":3267:3832  if(playerFirst) {... */\n    tag_306:\n        /* \"contents/Battle.sol\":3247:3250  i++ */\n      dup1\n      dup1\n      tag_310\n      swap1\n      tag_189\n      jump\t// in\n    tag_310:\n      swap2\n      pop\n      pop\n        /* \"contents/Battle.sol\":3182:3843  for(uint256 i = 0; i < 10 && myHealth > 0 && opponentHealth > 0; i++) {... */\n      jump(tag_296)\n    tag_297:\n      pop\n        /* \"contents/Battle.sol\":3855:3916  updateBattleRecords(myHealth, playerTokenId, opponentTokenId) */\n      tag_311\n        /* \"contents/Battle.sol\":3875:3883  myHealth */\n      dup4\n        /* \"contents/Battle.sol\":3885:3898  playerTokenId */\n      dup9\n        /* \"contents/Battle.sol\":3900:3915  opponentTokenId */\n      dup9\n        /* \"contents/Battle.sol\":3855:3874  updateBattleRecords */\n      tag_312\n        /* \"contents/Battle.sol\":3855:3916  updateBattleRecords(myHealth, playerTokenId, opponentTokenId) */\n      jump\t// in\n    tag_311:\n        /* \"contents/Battle.sol\":2682:3926  {... */\n      pop\n      pop\n      pop\n      pop\n      pop\n      pop\n      pop\n        /* \"contents/Battle.sol\":2615:3926  function battleProgress(address player, address opponent) internal {... */\n      pop\n      pop\n      jump\t// out\n        /* \"contents/Battle.sol\":5375:5477  function winReward(address player) internal {... */\n    tag_204:\n        /* \"contents/Battle.sol\":5430:5443  drinkContract */\n      0x03\n      0x00\n      swap1\n      sload\n      swap1\n      0x0100\n      exp\n      swap1\n      div\n      0xffffffffffffffffffffffffffffffffffffffff\n      and\n        /* \"contents/Battle.sol\":5430:5448  drinkContract.mint */\n      0xffffffffffffffffffffffffffffffffffffffff\n      and\n      0x40c10f19\n        /* \"contents/Battle.sol\":5449:5455  player */\n      dup3\n        /* \"contents/Battle.sol\":5456:5468  battleReward */\n      sload(0x0d)\n        /* \"contents/Battle.sol\":5430:5469  drinkContract.mint(player,battleReward) */\n      mload(0x40)\n      dup4\n      0xffffffff\n      and\n      0xe0\n      shl\n      dup2\n      mstore\n      0x04\n      add\n      tag_314\n      swap3\n      swap2\n      swap1\n      tag_114\n      jump\t// in\n    tag_314:\n      0x00\n      mload(0x40)\n      dup1\n      dup4\n      sub\n      dup2\n      0x00\n      dup8\n      dup1\n      extcodesize\n      iszero\n      dup1\n      iszero\n      tag_315\n      jumpi\n      0x00\n      dup1\n      revert\n    tag_315:\n      pop\n      gas\n      call\n      iszero\n      dup1\n      iszero\n      tag_317\n      jumpi\n      returndatasize\n      0x00\n      dup1\n      returndatacopy\n      revert(0x00, returndatasize)\n    tag_317:\n      pop\n      pop\n      pop\n      pop\n        /* \"contents/Battle.sol\":5375:5477  function winReward(address player) internal {... */\n      pop\n      jump\t// out\n        /* \"@openzeppelin/contracts/access/Ownable.sol\":2912:3099  function _transferOwnership(address newOwner) internal virtual {... */\n    tag_212:\n        /* \"@openzeppelin/contracts/access/Ownable.sol\":2985:3001  address oldOwner */\n      0x00\n        /* \"@openzeppelin/contracts/access/Ownable.sol\":3004:3010  _owner */\n      dup1\n      0x00\n      swap1\n      sload\n      swap1\n      0x0100\n      exp\n      swap1\n      div\n      0xffffffffffffffffffffffffffffffffffffffff\n      and\n        /* \"@openzeppelin/contracts/access/Ownable.sol\":2985:3010  address oldOwner = _owner */\n      swap1\n      pop\n        /* \"@openzeppelin/contracts/access/Ownable.sol\":3029:3037  newOwner */\n      dup2\n        /* \"@openzeppelin/contracts/access/Ownable.sol\":3020:3026  _owner */\n      0x00\n      dup1\n        /* \"@openzeppelin/contracts/access/Ownable.sol\":3020:3037  _owner = newOwner */\n      0x0100\n      exp\n      dup2\n      sload\n      dup2\n      0xffffffffffffffffffffffffffffffffffffffff\n      mul\n      not\n      and\n      swap1\n      dup4\n      0xffffffffffffffffffffffffffffffffffffffff\n      and\n      mul\n      or\n      swap1\n      sstore\n      pop\n        /* \"@openzeppelin/contracts/access/Ownable.sol\":3083:3091  newOwner */\n      dup2\n        /* \"@openzeppelin/contracts/access/Ownable.sol\":3052:3092  OwnershipTransferred(oldOwner, newOwner) */\n      0xffffffffffffffffffffffffffffffffffffffff\n      and\n        /* \"@openzeppelin/contracts/access/Ownable.sol\":3073:3081  oldOwner */\n      dup2\n        /* \"@openzeppelin/contracts/access/Ownable.sol\":3052:3092  OwnershipTransferred(oldOwner, newOwner) */\n      0xffffffffffffffffffffffffffffffffffffffff\n      and\n      0x8be0079c531659141344cd1fd0a4f28419497f9722a3daafe3b4186f6b6457e0\n      mload(0x40)\n      mload(0x40)\n      dup1\n      swap2\n      sub\n      swap1\n      log3\n        /* \"@openzeppelin/contracts/access/Ownable.sol\":2975:3099  {... */\n      pop\n        /* \"@openzeppelin/contracts/access/Ownable.sol\":2912:3099  function _transferOwnership(address newOwner) internal virtual {... */\n      pop\n      jump\t// out\n        /* \"@openzeppelin/contracts/utils/Context.sol\":656:752  function _msgSender() internal view virtual returns (address) {... */\n    tag_273:\n        /* \"@openzeppelin/contracts/utils/Context.sol\":709:716  address */\n      0x00\n        /* \"@openzeppelin/contracts/utils/Context.sol\":735:745  msg.sender */\n      caller\n        /* \"@openzeppelin/contracts/utils/Context.sol\":728:745  return msg.sender */\n      swap1\n      pop\n        /* \"@openzeppelin/contracts/utils/Context.sol\":656:752  function _msgSender() internal view virtual returns (address) {... */\n      swap1\n      jump\t// out\n        /* \"contents/Battle.sol\":3934:4157  function applyDamage(uint256 attack, uint256 defense, uint256 health) private pure returns(uint256) {... */\n    tag_303:\n        /* \"contents/Battle.sol\":4025:4032  uint256 */\n      0x00\n        /* \"contents/Battle.sol\":4045:4059  uint256 damage */\n      dup1\n        /* \"contents/Battle.sol\":4062:4094  calculateDamage(attack, defense) */\n      tag_321\n        /* \"contents/Battle.sol\":4078:4084  attack */\n      dup6\n        /* \"contents/Battle.sol\":4086:4093  defense */\n      dup6\n        /* \"contents/Battle.sol\":4062:4077  calculateDamage */\n      tag_322\n        /* \"contents/Battle.sol\":4062:4094  calculateDamage(attack, defense) */\n      jump\t// in\n    tag_321:\n        /* \"contents/Battle.sol\":4045:4094  uint256 damage = calculateDamage(attack, defense) */\n      swap1\n      pop\n        /* \"contents/Battle.sol\":4121:4127  damage */\n      dup1\n        /* \"contents/Battle.sol\":4112:4118  health */\n      dup4\n        /* \"contents/Battle.sol\":4112:4127  health > damage */\n      gt\n        /* \"contents/Battle.sol\":4112:4149  health > damage ? health - damage : 0 */\n      tag_323\n      jumpi\n        /* \"contents/Battle.sol\":4148:4149  0 */\n      0x00\n        /* \"contents/Battle.sol\":4112:4149  health > damage ? health - damage : 0 */\n      jump(tag_324)\n    tag_323:\n        /* \"contents/Battle.sol\":4139:4145  damage */\n      dup1\n        /* \"contents/Battle.sol\":4130:4136  health */\n      dup4\n        /* \"contents/Battle.sol\":4130:4145  health - damage */\n      tag_325\n      swap2\n      swap1\n      tag_157\n      jump\t// in\n    tag_325:\n        /* \"contents/Battle.sol\":4112:4149  health > damage ? health - damage : 0 */\n    tag_324:\n        /* \"contents/Battle.sol\":4105:4149  return health > damage ? health - damage : 0 */\n      swap2\n      pop\n      pop\n        /* \"contents/Battle.sol\":3934:4157  function applyDamage(uint256 attack, uint256 defense, uint256 health) private pure returns(uint256) {... */\n      swap4\n      swap3\n      pop\n      pop\n      pop\n      jump\t// out\n        /* \"contents/Battle.sol\":4165:5367  function updateBattleRecords(uint256 myHealth, uint256 playerTokenId, uint256 opponentTokenId) private {        ... */\n    tag_312:\n        /* \"contents/Battle.sol\":4287:4310  Dragon storage myDragon */\n      0x00\n        /* \"contents/Battle.sol\":4313:4325  battleDragon */\n      0x04\n        /* \"contents/Battle.sol\":4313:4340  battleDragon[playerTokenId] */\n      0x00\n        /* \"contents/Battle.sol\":4326:4339  playerTokenId */\n      dup5\n        /* \"contents/Battle.sol\":4313:4340  battleDragon[playerTokenId] */\n      dup2\n      mstore\n      0x20\n      add\n      swap1\n      dup2\n      mstore\n      0x20\n      add\n      0x00\n      keccak256\n        /* \"contents/Battle.sol\":4287:4340  Dragon storage myDragon = battleDragon[playerTokenId] */\n      swap1\n      pop\n        /* \"contents/Battle.sol\":4351:4380  Dragon storage opponentDragon */\n      0x00\n        /* \"contents/Battle.sol\":4383:4395  battleDragon */\n      0x04\n        /* \"contents/Battle.sol\":4383:4412  battleDragon[opponentTokenId] */\n      0x00\n        /* \"contents/Battle.sol\":4396:4411  opponentTokenId */\n      dup5\n        /* \"contents/Battle.sol\":4383:4412  battleDragon[opponentTokenId] */\n      dup2\n      mstore\n      0x20\n      add\n      swap1\n      dup2\n      mstore\n      0x20\n      add\n      0x00\n      keccak256\n        /* \"contents/Battle.sol\":4351:4412  Dragon storage opponentDragon = battleDragon[opponentTokenId] */\n      swap1\n      pop\n        /* \"contents/Battle.sol\":4449:4450  0 */\n      0x00\n        /* \"contents/Battle.sol\":4437:4445  myHealth */\n      dup6\n        /* \"contents/Battle.sol\":4437:4450  myHealth == 0 */\n      sub\n        /* \"contents/Battle.sol\":4433:5360  if (myHealth == 0) {... */\n      tag_327\n      jumpi\n        /* \"contents/Battle.sol\":4467:4480  dragonRecords */\n      0x05\n        /* \"contents/Battle.sol\":4467:4497  dragonRecords[opponentTokenId] */\n      0x00\n        /* \"contents/Battle.sol\":4481:4496  opponentTokenId */\n      dup5\n        /* \"contents/Battle.sol\":4467:4497  dragonRecords[opponentTokenId] */\n      dup2\n      mstore\n      0x20\n      add\n      swap1\n      dup2\n      mstore\n      0x20\n      add\n      0x00\n      keccak256\n        /* \"contents/Battle.sol\":4467:4501  dragonRecords[opponentTokenId].win */\n      0x00\n      add\n      0x00\n        /* \"contents/Battle.sol\":4467:4503  dragonRecords[opponentTokenId].win++ */\n      dup2\n      sload\n      dup1\n      swap3\n      swap2\n      swap1\n      tag_328\n      swap1\n      tag_189\n      jump\t// in\n    tag_328:\n      swap2\n      swap1\n      pop\n      sstore\n      pop\n        /* \"contents/Battle.sol\":4518:4531  dragonRecords */\n      0x05\n        /* \"contents/Battle.sol\":4518:4548  dragonRecords[opponentTokenId] */\n      0x00\n        /* \"contents/Battle.sol\":4532:4547  opponentTokenId */\n      dup5\n        /* \"contents/Battle.sol\":4518:4548  dragonRecords[opponentTokenId] */\n      dup2\n      mstore\n      0x20\n      add\n      swap1\n      dup2\n      mstore\n      0x20\n      add\n      0x00\n      keccak256\n        /* \"contents/Battle.sol\":4518:4558  dragonRecords[opponentTokenId].opponents */\n      0x02\n      add\n        /* \"contents/Battle.sol\":4564:4664  OpponentRecord({... */\n      mload(0x40)\n      dup1\n      0x40\n      add\n      0x40\n      mstore\n      dup1\n        /* \"contents/Battle.sol\":4606:4614  myDragon */\n      dup5\n        /* \"contents/Battle.sol\":4564:4664  OpponentRecord({... */\n      mload(0x40)\n      dup1\n      0x80\n      add\n      0x40\n      mstore\n      swap1\n      dup2\n      0x00\n      dup3\n      add\n      sload\n      dup2\n      mstore\n      0x20\n      add\n      0x01\n      dup3\n      add\n      sload\n      dup2\n      mstore\n      0x20\n      add\n      0x02\n      dup3\n      add\n      sload\n      dup2\n      mstore\n      0x20\n      add\n      0x03\n      dup3\n      add\n      sload\n      dup2\n      mstore\n      pop\n      pop\n      dup2\n      mstore\n      0x20\n      add\n        /* \"contents/Battle.sol\":4644:4648  true */\n      0x01\n        /* \"contents/Battle.sol\":4564:4664  OpponentRecord({... */\n      iszero\n      iszero\n      dup2\n      mstore\n      pop\n        /* \"contents/Battle.sol\":4518:4665  dragonRecords[opponentTokenId].opponents.push(OpponentRecord({... */\n      swap1\n      dup1\n      0x01\n      dup2\n      sload\n      add\n      dup1\n      dup3\n      sstore\n      dup1\n      swap2\n      pop\n      pop\n      0x01\n      swap1\n      sub\n      swap1\n      0x00\n      mstore\n      keccak256(0x00, 0x20)\n      swap1\n      0x05\n      mul\n      add\n      0x00\n      swap1\n      swap2\n      swap1\n      swap2\n      swap1\n      swap2\n      pop\n      0x00\n      dup3\n      add\n      mload\n      dup2\n      0x00\n      add\n      0x00\n      dup3\n      add\n      mload\n      dup2\n      0x00\n      add\n      sstore\n      0x20\n      dup3\n      add\n      mload\n      dup2\n      0x01\n      add\n      sstore\n      0x40\n      dup3\n      add\n      mload\n      dup2\n      0x02\n      add\n      sstore\n      0x60\n      dup3\n      add\n      mload\n      dup2\n      0x03\n      add\n      sstore\n      pop\n      pop\n      0x20\n      dup3\n      add\n      mload\n      dup2\n      0x04\n      add\n      exp(0x0100, 0x00)\n      dup2\n      sload\n      dup2\n      0xff\n      mul\n      not\n      and\n      swap1\n      dup4\n      iszero\n      iszero\n      mul\n      or\n      swap1\n      sstore\n      pop\n      pop\n      pop\n        /* \"contents/Battle.sol\":4682:4695  dragonRecords */\n      0x05\n        /* \"contents/Battle.sol\":4682:4710  dragonRecords[playerTokenId] */\n      0x00\n        /* \"contents/Battle.sol\":4696:4709  playerTokenId */\n      dup6\n        /* \"contents/Battle.sol\":4682:4710  dragonRecords[playerTokenId] */\n      dup2\n      mstore\n      0x20\n      add\n      swap1\n      dup2\n      mstore\n      0x20\n      add\n      0x00\n      keccak256\n        /* \"contents/Battle.sol\":4682:4715  dragonRecords[playerTokenId].lose */\n      0x01\n      add\n      0x00\n        /* \"contents/Battle.sol\":4682:4717  dragonRecords[playerTokenId].lose++ */\n      dup2\n      sload\n      dup1\n      swap3\n      swap2\n      swap1\n      tag_330\n      swap1\n      tag_189\n      jump\t// in\n    tag_330:\n      swap2\n      swap1\n      pop\n      sstore\n      pop\n        /* \"contents/Battle.sol\":4732:4745  dragonRecords */\n      0x05\n        /* \"contents/Battle.sol\":4732:4760  dragonRecords[playerTokenId] */\n      0x00\n        /* \"contents/Battle.sol\":4746:4759  playerTokenId */\n      dup6\n        /* \"contents/Battle.sol\":4732:4760  dragonRecords[playerTokenId] */\n      dup2\n      mstore\n      0x20\n      add\n      swap1\n      dup2\n      mstore\n      0x20\n      add\n      0x00\n      keccak256\n        /* \"contents/Battle.sol\":4732:4770  dragonRecords[playerTokenId].opponents */\n      0x02\n      add\n        /* \"contents/Battle.sol\":4776:4883  OpponentRecord({... */\n      mload(0x40)\n      dup1\n      0x40\n      add\n      0x40\n      mstore\n      dup1\n        /* \"contents/Battle.sol\":4818:4832  opponentDragon */\n      dup4\n        /* \"contents/Battle.sol\":4776:4883  OpponentRecord({... */\n      mload(0x40)\n      dup1\n      0x80\n      add\n      0x40\n      mstore\n      swap1\n      dup2\n      0x00\n      dup3\n      add\n      sload\n      dup2\n      mstore\n      0x20\n      add\n      0x01\n      dup3\n      add\n      sload\n      dup2\n      mstore\n      0x20\n      add\n      0x02\n      dup3\n      add\n      sload\n      dup2\n      mstore\n      0x20\n      add\n      0x03\n      dup3\n      add\n      sload\n      dup2\n      mstore\n      pop\n      pop\n      dup2\n      mstore\n      0x20\n      add\n        /* \"contents/Battle.sol\":4862:4867  false */\n      0x00\n        /* \"contents/Battle.sol\":4776:4883  OpponentRecord({... */\n      iszero\n      iszero\n      dup2\n      mstore\n      pop\n        /* \"contents/Battle.sol\":4732:4884  dragonRecords[playerTokenId].opponents.push(OpponentRecord({... */\n      swap1\n      dup1\n      0x01\n      dup2\n      sload\n      add\n      dup1\n      dup3\n      sstore\n      dup1\n      swap2\n      pop\n      pop\n      0x01\n      swap1\n      sub\n      swap1\n      0x00\n      mstore\n      keccak256(0x00, 0x20)\n      swap1\n      0x05\n      mul\n      add\n      0x00\n      swap1\n      swap2\n      swap1\n      swap2\n      swap1\n      swap2\n      pop\n      0x00\n      dup3\n      add\n      mload\n      dup2\n      0x00\n      add\n      0x00\n      dup3\n      add\n      mload\n      dup2\n      0x00\n      add\n      sstore\n      0x20\n      dup3\n      add\n      mload\n      dup2\n      0x01\n      add\n      sstore\n      0x40\n      dup3\n      add\n      mload\n      dup2\n      0x02\n      add\n      sstore\n      0x60\n      dup3\n      add\n      mload\n      dup2\n      0x03\n      add\n      sstore\n      pop\n      pop\n      0x20\n      dup3\n      add\n      mload\n      dup2\n      0x04\n      add\n      exp(0x0100, 0x00)\n      dup2\n      sload\n      dup2\n      0xff\n      mul\n      not\n      and\n      swap1\n      dup4\n      iszero\n      iszero\n      mul\n      or\n      swap1\n      sstore\n      pop\n      pop\n      pop\n        /* \"contents/Battle.sol\":4433:5360  if (myHealth == 0) {... */\n      jump(tag_332)\n    tag_327:\n        /* \"contents/Battle.sol\":4931:4944  dragonRecords */\n      0x05\n        /* \"contents/Battle.sol\":4931:4959  dragonRecords[playerTokenId] */\n      0x00\n        /* \"contents/Battle.sol\":4945:4958  playerTokenId */\n      dup6\n        /* \"contents/Battle.sol\":4931:4959  dragonRecords[playerTokenId] */\n      dup2\n      mstore\n      0x20\n      add\n      swap1\n      dup2\n      mstore\n      0x20\n      add\n      0x00\n      keccak256\n        /* \"contents/Battle.sol\":4931:4963  dragonRecords[playerTokenId].win */\n      0x00\n      add\n      0x00\n        /* \"contents/Battle.sol\":4931:4965  dragonRecords[playerTokenId].win++ */\n      dup2\n      sload\n      dup1\n      swap3\n      swap2\n      swap1\n      tag_333\n      swap1\n      tag_189\n      jump\t// in\n    tag_333:\n      swap2\n      swap1\n      pop\n      sstore\n      pop\n        /* \"contents/Battle.sol\":4980:4993  dragonRecords */\n      0x05\n        /* \"contents/Battle.sol\":4980:5008  dragonRecords[playerTokenId] */\n      0x00\n        /* \"contents/Battle.sol\":4994:5007  playerTokenId */\n      dup6\n        /* \"contents/Battle.sol\":4980:5008  dragonRecords[playerTokenId] */\n      dup2\n      mstore\n      0x20\n      add\n      swap1\n      dup2\n      mstore\n      0x20\n      add\n      0x00\n      keccak256\n        /* \"contents/Battle.sol\":4980:5018  dragonRecords[playerTokenId].opponents */\n      0x02\n      add\n        /* \"contents/Battle.sol\":5024:5130  OpponentRecord({... */\n      mload(0x40)\n      dup1\n      0x40\n      add\n      0x40\n      mstore\n      dup1\n        /* \"contents/Battle.sol\":5066:5080  opponentDragon */\n      dup4\n        /* \"contents/Battle.sol\":5024:5130  OpponentRecord({... */\n      mload(0x40)\n      dup1\n      0x80\n      add\n      0x40\n      mstore\n      swap1\n      dup2\n      0x00\n      dup3\n      add\n      sload\n      dup2\n      mstore\n      0x20\n      add\n      0x01\n      dup3\n      add\n      sload\n      dup2\n      mstore\n      0x20\n      add\n      0x02\n      dup3\n      add\n      sload\n      dup2\n      mstore\n      0x20\n      add\n      0x03\n      dup3\n      add\n      sload\n      dup2\n      mstore\n      pop\n      pop\n      dup2\n      mstore\n      0x20\n      add\n        /* \"contents/Battle.sol\":5110:5114  true */\n      0x01\n        /* \"contents/Battle.sol\":5024:5130  OpponentRecord({... */\n      iszero\n      iszero\n      dup2\n      mstore\n      pop\n        /* \"contents/Battle.sol\":4980:5131  dragonRecords[playerTokenId].opponents.push(OpponentRecord({... */\n      swap1\n      dup1\n      0x01\n      dup2\n      sload\n      add\n      dup1\n      dup3\n      sstore\n      dup1\n      swap2\n      pop\n      pop\n      0x01\n      swap1\n      sub\n      swap1\n      0x00\n      mstore\n      keccak256(0x00, 0x20)\n      swap1\n      0x05\n      mul\n      add\n      0x00\n      swap1\n      swap2\n      swap1\n      swap2\n      swap1\n      swap2\n      pop\n      0x00\n      dup3\n      add\n      mload\n      dup2\n      0x00\n      add\n      0x00\n      dup3\n      add\n      mload\n      dup2\n      0x00\n      add\n      sstore\n      0x20\n      dup3\n      add\n      mload\n      dup2\n      0x01\n      add\n      sstore\n      0x40\n      dup3\n      add\n      mload\n      dup2\n      0x02\n      add\n      sstore\n      0x60\n      dup3\n      add\n      mload\n      dup2\n      0x03\n      add\n      sstore\n      pop\n      pop\n      0x20\n      dup3\n      add\n      mload\n      dup2\n      0x04\n      add\n      exp(0x0100, 0x00)\n      dup2\n      sload\n      dup2\n      0xff\n      mul\n      not\n      and\n      swap1\n      dup4\n      iszero\n      iszero\n      mul\n      or\n      swap1\n      sstore\n      pop\n      pop\n      pop\n        /* \"contents/Battle.sol\":5148:5161  dragonRecords */\n      0x05\n        /* \"contents/Battle.sol\":5148:5178  dragonRecords[opponentTokenId] */\n      0x00\n        /* \"contents/Battle.sol\":5162:5177  opponentTokenId */\n      dup5\n        /* \"contents/Battle.sol\":5148:5178  dragonRecords[opponentTokenId] */\n      dup2\n      mstore\n      0x20\n      add\n      swap1\n      dup2\n      mstore\n      0x20\n      add\n      0x00\n      keccak256\n        /* \"contents/Battle.sol\":5148:5183  dragonRecords[opponentTokenId].lose */\n      0x01\n      add\n      0x00\n        /* \"contents/Battle.sol\":5148:5185  dragonRecords[opponentTokenId].lose++ */\n      dup2\n      sload\n      dup1\n      swap3\n      swap2\n      swap1\n      tag_335\n      swap1\n      tag_189\n      jump\t// in\n    tag_335:\n      swap2\n      swap1\n      pop\n      sstore\n      pop\n        /* \"contents/Battle.sol\":5200:5213  dragonRecords */\n      0x05\n        /* \"contents/Battle.sol\":5200:5230  dragonRecords[opponentTokenId] */\n      0x00\n        /* \"contents/Battle.sol\":5214:5229  opponentTokenId */\n      dup5\n        /* \"contents/Battle.sol\":5200:5230  dragonRecords[opponentTokenId] */\n      dup2\n      mstore\n      0x20\n      add\n      swap1\n      dup2\n      mstore\n      0x20\n      add\n      0x00\n      keccak256\n        /* \"contents/Battle.sol\":5200:5240  dragonRecords[opponentTokenId].opponents */\n      0x02\n      add\n        /* \"contents/Battle.sol\":5246:5347  OpponentRecord({... */\n      mload(0x40)\n      dup1\n      0x40\n      add\n      0x40\n      mstore\n      dup1\n        /* \"contents/Battle.sol\":5288:5296  myDragon */\n      dup5\n        /* \"contents/Battle.sol\":5246:5347  OpponentRecord({... */\n      mload(0x40)\n      dup1\n      0x80\n      add\n      0x40\n      mstore\n      swap1\n      dup2\n      0x00\n      dup3\n      add\n      sload\n      dup2\n      mstore\n      0x20\n      add\n      0x01\n      dup3\n      add\n      sload\n      dup2\n      mstore\n      0x20\n      add\n      0x02\n      dup3\n      add\n      sload\n      dup2\n      mstore\n      0x20\n      add\n      0x03\n      dup3\n      add\n      sload\n      dup2\n      mstore\n      pop\n      pop\n      dup2\n      mstore\n      0x20\n      add\n        /* \"contents/Battle.sol\":5326:5331  false */\n      0x00\n        /* \"contents/Battle.sol\":5246:5347  OpponentRecord({... */\n      iszero\n      iszero\n      dup2\n      mstore\n      pop\n        /* \"contents/Battle.sol\":5200:5348  dragonRecords[opponentTokenId].opponents.push(OpponentRecord({... */\n      swap1\n      dup1\n      0x01\n      dup2\n      sload\n      add\n      dup1\n      dup3\n      sstore\n      dup1\n      swap2\n      pop\n      pop\n      0x01\n      swap1\n      sub\n      swap1\n      0x00\n      mstore\n      keccak256(0x00, 0x20)\n      swap1\n      0x05\n      mul\n      add\n      0x00\n      swap1\n      swap2\n      swap1\n      swap2\n      swap1\n      swap2\n      pop\n      0x00\n      dup3\n      add\n      mload\n      dup2\n      0x00\n      add\n      0x00\n      dup3\n      add\n      mload\n      dup2\n      0x00\n      add\n      sstore\n      0x20\n      dup3\n      add\n      mload\n      dup2\n      0x01\n      add\n      sstore\n      0x40\n      dup3\n      add\n      mload\n      dup2\n      0x02\n      add\n      sstore\n      0x60\n      dup3\n      add\n      mload\n      dup2\n      0x03\n      add\n      sstore\n      pop\n      pop\n      0x20\n      dup3\n      add\n      mload\n      dup2\n      0x04\n      add\n      exp(0x0100, 0x00)\n      dup2\n      sload\n      dup2\n      0xff\n      mul\n      not\n      and\n      swap1\n      dup4\n      iszero\n      iszero\n      mul\n      or\n      swap1\n      sstore\n      pop\n      pop\n      pop\n        /* \"contents/Battle.sol\":4433:5360  if (myHealth == 0) {... */\n    tag_332:\n        /* \"contents/Battle.sol\":4268:5367  {        ... */\n      pop\n      pop\n        /* \"contents/Battle.sol\":4165:5367  function updateBattleRecords(uint256 myHealth, uint256 playerTokenId, uint256 opponentTokenId) private {        ... */\n      pop\n      pop\n      pop\n      jump\t// out\n        /* \"contents/Battle.sol\":6251:6616  function calculateDamage(uint256 attack, uint256 defense) private pure returns(uint256){... */\n    tag_322:\n        /* \"contents/Battle.sol\":6330:6337  uint256 */\n      0x00\n        /* \"contents/Battle.sol\":6349:6373  uint256 minDamagePercent */\n      dup1\n        /* \"contents/Battle.sol\":6376:6378  10 */\n      0x0a\n        /* \"contents/Battle.sol\":6349:6378  uint256 minDamagePercent = 10 */\n      swap1\n      pop\n        /* \"contents/Battle.sol\":6389:6410  uint256 defenseEffect */\n      0x00\n        /* \"contents/Battle.sol\":6440:6443  100 */\n      0x64\n        /* \"contents/Battle.sol\":6430:6437  defense */\n      dup5\n        /* \"contents/Battle.sol\":6430:6443  defense + 100 */\n      tag_338\n      swap2\n      swap1\n      tag_124\n      jump\t// in\n    tag_338:\n        /* \"contents/Battle.sol\":6423:6426  100 */\n      0x64\n        /* \"contents/Battle.sol\":6413:6420  defense */\n      dup6\n        /* \"contents/Battle.sol\":6413:6426  defense * 100 */\n      tag_339\n      swap2\n      swap1\n      tag_340\n      jump\t// in\n    tag_339:\n        /* \"contents/Battle.sol\":6413:6444  defense * 100 / (defense + 100) */\n      tag_341\n      swap2\n      swap1\n      tag_280\n      jump\t// in\n    tag_341:\n        /* \"contents/Battle.sol\":6389:6444  uint256 defenseEffect = defense * 100 / (defense + 100) */\n      swap1\n      pop\n        /* \"contents/Battle.sol\":6457:6487  uint256 effectiveDamagePercent */\n      0x00\n        /* \"contents/Battle.sol\":6506:6508  90 */\n      0x5a\n        /* \"contents/Battle.sol\":6490:6503  defenseEffect */\n      dup3\n        /* \"contents/Battle.sol\":6490:6508  defenseEffect > 90 */\n      gt\n        /* \"contents/Battle.sol\":6490:6549  defenseEffect > 90 ? minDamagePercent : 100 - defenseEffect */\n      tag_342\n      jumpi\n        /* \"contents/Battle.sol\":6536:6549  defenseEffect */\n      dup2\n        /* \"contents/Battle.sol\":6530:6533  100 */\n      0x64\n        /* \"contents/Battle.sol\":6530:6549  100 - defenseEffect */\n      tag_343\n      swap2\n      swap1\n      tag_157\n      jump\t// in\n    tag_343:\n        /* \"contents/Battle.sol\":6490:6549  defenseEffect > 90 ? minDamagePercent : 100 - defenseEffect */\n      jump(tag_344)\n    tag_342:\n        /* \"contents/Battle.sol\":6511:6527  minDamagePercent */\n      dup3\n        /* \"contents/Battle.sol\":6490:6549  defenseEffect > 90 ? minDamagePercent : 100 - defenseEffect */\n    tag_344:\n        /* \"contents/Battle.sol\":6457:6549  uint256 effectiveDamagePercent = defenseEffect > 90 ? minDamagePercent : 100 - defenseEffect */\n      swap1\n      pop\n        /* \"contents/Battle.sol\":6605:6608  100 */\n      0x64\n        /* \"contents/Battle.sol\":6579:6601  effectiveDamagePercent */\n      dup2\n        /* \"contents/Battle.sol\":6570:6576  attack */\n      dup8\n        /* \"contents/Battle.sol\":6570:6601  attack * effectiveDamagePercent */\n      tag_345\n      swap2\n      swap1\n      tag_340\n      jump\t// in\n    tag_345:\n        /* \"contents/Battle.sol\":6569:6608  (attack * effectiveDamagePercent) / 100 */\n      tag_346\n      swap2\n      swap1\n      tag_280\n      jump\t// in\n    tag_346:\n        /* \"contents/Battle.sol\":6562:6608  return (attack * effectiveDamagePercent) / 100 */\n      swap4\n      pop\n      pop\n      pop\n      pop\n        /* \"contents/Battle.sol\":6251:6616  function calculateDamage(uint256 attack, uint256 defense) private pure returns(uint256){... */\n      swap3\n      swap2\n      pop\n      pop\n      jump\t// out\n    tag_206:\n      mload(0x40)\n      dup1\n      0x80\n      add\n      0x40\n      mstore\n      dup1\n      0x00\n      dup2\n      mstore\n      0x20\n      add\n      0x00\n      dup2\n      mstore\n      0x20\n      add\n      0x00\n      dup2\n      mstore\n      0x20\n      add\n      0x00\n      dup2\n      mstore\n      pop\n      swap1\n      jump\t// out\n    tag_249:\n      mload(0x40)\n      dup1\n      0x60\n      add\n      0x40\n      mstore\n      dup1\n      0x00\n      dup2\n      mstore\n      0x20\n      add\n      0x00\n      dup2\n      mstore\n      0x20\n      add\n      0x60\n      dup2\n      mstore\n      pop\n      swap1\n      jump\t// out\n    tag_264:\n      pop\n      dup1\n      sload\n      0x00\n      dup3\n      sstore\n      swap1\n      0x00\n      mstore\n      keccak256(0x00, 0x20)\n      swap1\n      dup2\n      add\n      swap1\n      tag_348\n      swap2\n      swap1\n      tag_349\n      jump\t// in\n    tag_348:\n      pop\n      jump\t// out\n    tag_349:\n    tag_350:\n      dup1\n      dup3\n      gt\n      iszero\n      tag_351\n      jumpi\n      0x00\n      dup2\n      0x00\n      swap1\n      sstore\n      pop\n      0x01\n      add\n      jump(tag_350)\n    tag_351:\n      pop\n      swap1\n      jump\t// out\n        /* \"#utility.yul\":7:84   */\n    tag_352:\n        /* \"#utility.yul\":44:51   */\n      0x00\n        /* \"#utility.yul\":73:78   */\n      dup2\n        /* \"#utility.yul\":62:78   */\n      swap1\n      pop\n        /* \"#utility.yul\":7:84   */\n      swap2\n      swap1\n      pop\n      jump\t// out\n        /* \"#utility.yul\":90:208   */\n    tag_353:\n        /* \"#utility.yul\":177:201   */\n      tag_418\n        /* \"#utility.yul\":195:200   */\n      dup2\n        /* \"#utility.yul\":177:201   */\n      tag_352\n      jump\t// in\n    tag_418:\n        /* \"#utility.yul\":172:175   */\n      dup3\n        /* \"#utility.yul\":165:202   */\n      mstore\n        /* \"#utility.yul\":90:208   */\n      pop\n      pop\n      jump\t// out\n        /* \"#utility.yul\":214:436   */\n    tag_28:\n        /* \"#utility.yul\":307:311   */\n      0x00\n        /* \"#utility.yul\":345:347   */\n      0x20\n        /* \"#utility.yul\":334:343   */\n      dup3\n        /* \"#utility.yul\":330:348   */\n      add\n        /* \"#utility.yul\":322:348   */\n      swap1\n      pop\n        /* \"#utility.yul\":358:429   */\n      tag_420\n        /* \"#utility.yul\":426:427   */\n      0x00\n        /* \"#utility.yul\":415:424   */\n      dup4\n        /* \"#utility.yul\":411:428   */\n      add\n        /* \"#utility.yul\":402:408   */\n      dup5\n        /* \"#utility.yul\":358:429   */\n      tag_353\n      jump\t// in\n    tag_420:\n        /* \"#utility.yul\":214:436   */\n      swap3\n      swap2\n      pop\n      pop\n      jump\t// out\n        /* \"#utility.yul\":523:640   */\n    tag_355:\n        /* \"#utility.yul\":632:633   */\n      0x00\n        /* \"#utility.yul\":629:630   */\n      dup1\n        /* \"#utility.yul\":622:634   */\n      revert\n        /* \"#utility.yul\":769:891   */\n    tag_357:\n        /* \"#utility.yul\":842:866   */\n      tag_425\n        /* \"#utility.yul\":860:865   */\n      dup2\n        /* \"#utility.yul\":842:866   */\n      tag_352\n      jump\t// in\n    tag_425:\n        /* \"#utility.yul\":835:840   */\n      dup2\n        /* \"#utility.yul\":832:867   */\n      eq\n        /* \"#utility.yul\":822:885   */\n      tag_426\n      jumpi\n        /* \"#utility.yul\":881:882   */\n      0x00\n        /* \"#utility.yul\":878:879   */\n      dup1\n        /* \"#utility.yul\":871:883   */\n      revert\n        /* \"#utility.yul\":822:885   */\n    tag_426:\n        /* \"#utility.yul\":769:891   */\n      pop\n      jump\t// out\n        /* \"#utility.yul\":897:1036   */\n    tag_358:\n        /* \"#utility.yul\":943:948   */\n      0x00\n        /* \"#utility.yul\":981:987   */\n      dup2\n        /* \"#utility.yul\":968:988   */\n      calldataload\n        /* \"#utility.yul\":959:988   */\n      swap1\n      pop\n        /* \"#utility.yul\":997:1030   */\n      tag_428\n        /* \"#utility.yul\":1024:1029   */\n      dup2\n        /* \"#utility.yul\":997:1030   */\n      tag_357\n      jump\t// in\n    tag_428:\n        /* \"#utility.yul\":897:1036   */\n      swap3\n      swap2\n      pop\n      pop\n      jump\t// out\n        /* \"#utility.yul\":1042:1371   */\n    tag_31:\n        /* \"#utility.yul\":1101:1107   */\n      0x00\n        /* \"#utility.yul\":1150:1152   */\n      0x20\n        /* \"#utility.yul\":1138:1147   */\n      dup3\n        /* \"#utility.yul\":1129:1136   */\n      dup5\n        /* \"#utility.yul\":1125:1148   */\n      sub\n        /* \"#utility.yul\":1121:1153   */\n      slt\n        /* \"#utility.yul\":1118:1237   */\n      iszero\n      tag_430\n      jumpi\n        /* \"#utility.yul\":1156:1235   */\n      tag_431\n      tag_355\n      jump\t// in\n    tag_431:\n        /* \"#utility.yul\":1118:1237   */\n    tag_430:\n        /* \"#utility.yul\":1276:1277   */\n      0x00\n        /* \"#utility.yul\":1301:1354   */\n      tag_432\n        /* \"#utility.yul\":1346:1353   */\n      dup5\n        /* \"#utility.yul\":1337:1343   */\n      dup3\n        /* \"#utility.yul\":1326:1335   */\n      dup6\n        /* \"#utility.yul\":1322:1344   */\n      add\n        /* \"#utility.yul\":1301:1354   */\n      tag_358\n      jump\t// in\n    tag_432:\n        /* \"#utility.yul\":1291:1354   */\n      swap2\n      pop\n        /* \"#utility.yul\":1247:1364   */\n      pop\n        /* \"#utility.yul\":1042:1371   */\n      swap3\n      swap2\n      pop\n      pop\n      jump\t// out\n        /* \"#utility.yul\":1377:1522   */\n    tag_359:\n        /* \"#utility.yul\":1475:1481   */\n      0x00\n        /* \"#utility.yul\":1509:1514   */\n      dup2\n        /* \"#utility.yul\":1503:1515   */\n      mload\n        /* \"#utility.yul\":1493:1515   */\n      swap1\n      pop\n        /* \"#utility.yul\":1377:1522   */\n      swap2\n      swap1\n      pop\n      jump\t// out\n        /* \"#utility.yul\":1528:1743   */\n    tag_360:\n        /* \"#utility.yul\":1658:1669   */\n      0x00\n        /* \"#utility.yul\":1692:1698   */\n      dup3\n        /* \"#utility.yul\":1687:1690   */\n      dup3\n        /* \"#utility.yul\":1680:1699   */\n      mstore\n        /* \"#utility.yul\":1732:1736   */\n      0x20\n        /* \"#utility.yul\":1727:1730   */\n      dup3\n        /* \"#utility.yul\":1723:1737   */\n      add\n        /* \"#utility.yul\":1708:1737   */\n      swap1\n      pop\n        /* \"#utility.yul\":1528:1743   */\n      swap3\n      swap2\n      pop\n      pop\n      jump\t// out\n        /* \"#utility.yul\":1749:1912   */\n    tag_361:\n        /* \"#utility.yul\":1847:1851   */\n      0x00\n        /* \"#utility.yul\":1870:1873   */\n      dup2\n        /* \"#utility.yul\":1862:1873   */\n      swap1\n      pop\n        /* \"#utility.yul\":1900:1904   */\n      0x20\n        /* \"#utility.yul\":1895:1898   */\n      dup3\n        /* \"#utility.yul\":1891:1905   */\n      add\n        /* \"#utility.yul\":1883:1905   */\n      swap1\n      pop\n        /* \"#utility.yul\":1749:1912   */\n      swap2\n      swap1\n      pop\n      jump\t// out\n        /* \"#utility.yul\":1918:2026   */\n    tag_362:\n        /* \"#utility.yul\":1995:2019   */\n      tag_437\n        /* \"#utility.yul\":2013:2018   */\n      dup2\n        /* \"#utility.yul\":1995:2019   */\n      tag_352\n      jump\t// in\n    tag_437:\n        /* \"#utility.yul\":1990:1993   */\n      dup3\n        /* \"#utility.yul\":1983:2020   */\n      mstore\n        /* \"#utility.yul\":1918:2026   */\n      pop\n      pop\n      jump\t// out\n        /* \"#utility.yul\":2084:2935   */\n    tag_363:\n        /* \"#utility.yul\":2217:2221   */\n      0x80\n        /* \"#utility.yul\":2212:2215   */\n      dup3\n        /* \"#utility.yul\":2208:2222   */\n      add\n        /* \"#utility.yul\":2307:2311   */\n      0x00\n        /* \"#utility.yul\":2300:2305   */\n      dup3\n        /* \"#utility.yul\":2296:2312   */\n      add\n        /* \"#utility.yul\":2290:2313   */\n      mload\n        /* \"#utility.yul\":2326:2389   */\n      tag_439\n        /* \"#utility.yul\":2383:2387   */\n      0x00\n        /* \"#utility.yul\":2378:2381   */\n      dup6\n        /* \"#utility.yul\":2374:2388   */\n      add\n        /* \"#utility.yul\":2360:2372   */\n      dup3\n        /* \"#utility.yul\":2326:2389   */\n      tag_362\n      jump\t// in\n    tag_439:\n        /* \"#utility.yul\":2232:2399   */\n      pop\n        /* \"#utility.yul\":2483:2487   */\n      0x20\n        /* \"#utility.yul\":2476:2481   */\n      dup3\n        /* \"#utility.yul\":2472:2488   */\n      add\n        /* \"#utility.yul\":2466:2489   */\n      mload\n        /* \"#utility.yul\":2502:2565   */\n      tag_440\n        /* \"#utility.yul\":2559:2563   */\n      0x20\n        /* \"#utility.yul\":2554:2557   */\n      dup6\n        /* \"#utility.yul\":2550:2564   */\n      add\n        /* \"#utility.yul\":2536:2548   */\n      dup3\n        /* \"#utility.yul\":2502:2565   */\n      tag_362\n      jump\t// in\n    tag_440:\n        /* \"#utility.yul\":2409:2575   */\n      pop\n        /* \"#utility.yul\":2660:2664   */\n      0x40\n        /* \"#utility.yul\":2653:2658   */\n      dup3\n        /* \"#utility.yul\":2649:2665   */\n      add\n        /* \"#utility.yul\":2643:2666   */\n      mload\n        /* \"#utility.yul\":2679:2742   */\n      tag_441\n        /* \"#utility.yul\":2736:2740   */\n      0x40\n        /* \"#utility.yul\":2731:2734   */\n      dup6\n        /* \"#utility.yul\":2727:2741   */\n      add\n        /* \"#utility.yul\":2713:2725   */\n      dup3\n        /* \"#utility.yul\":2679:2742   */\n      tag_362\n      jump\t// in\n    tag_441:\n        /* \"#utility.yul\":2585:2752   */\n      pop\n        /* \"#utility.yul\":2836:2840   */\n      0x60\n        /* \"#utility.yul\":2829:2834   */\n      dup3\n        /* \"#utility.yul\":2825:2841   */\n      add\n        /* \"#utility.yul\":2819:2842   */\n      mload\n        /* \"#utility.yul\":2855:2918   */\n      tag_442\n        /* \"#utility.yul\":2912:2916   */\n      0x60\n        /* \"#utility.yul\":2907:2910   */\n      dup6\n        /* \"#utility.yul\":2903:2917   */\n      add\n        /* \"#utility.yul\":2889:2901   */\n      dup3\n        /* \"#utility.yul\":2855:2918   */\n      tag_362\n      jump\t// in\n    tag_442:\n        /* \"#utility.yul\":2762:2928   */\n      pop\n        /* \"#utility.yul\":2186:2935   */\n      pop\n        /* \"#utility.yul\":2084:2935   */\n      pop\n      pop\n      jump\t// out\n        /* \"#utility.yul\":2941:3031   */\n    tag_364:\n        /* \"#utility.yul\":2975:2982   */\n      0x00\n        /* \"#utility.yul\":3018:3023   */\n      dup2\n        /* \"#utility.yul\":3011:3024   */\n      iszero\n        /* \"#utility.yul\":3004:3025   */\n      iszero\n        /* \"#utility.yul\":2993:3025   */\n      swap1\n      pop\n        /* \"#utility.yul\":2941:3031   */\n      swap2\n      swap1\n      pop\n      jump\t// out\n        /* \"#utility.yul\":3037:3136   */\n    tag_365:\n        /* \"#utility.yul\":3108:3129   */\n      tag_445\n        /* \"#utility.yul\":3123:3128   */\n      dup2\n        /* \"#utility.yul\":3108:3129   */\n      tag_364\n      jump\t// in\n    tag_445:\n        /* \"#utility.yul\":3103:3106   */\n      dup3\n        /* \"#utility.yul\":3096:3130   */\n      mstore\n        /* \"#utility.yul\":3037:3136   */\n      pop\n      pop\n      jump\t// out\n        /* \"#utility.yul\":3210:3766   */\n    tag_366:\n        /* \"#utility.yul\":3359:3363   */\n      0xa0\n        /* \"#utility.yul\":3354:3357   */\n      dup3\n        /* \"#utility.yul\":3350:3364   */\n      add\n        /* \"#utility.yul\":3448:3452   */\n      0x00\n        /* \"#utility.yul\":3441:3446   */\n      dup3\n        /* \"#utility.yul\":3437:3453   */\n      add\n        /* \"#utility.yul\":3431:3454   */\n      mload\n        /* \"#utility.yul\":3467:3576   */\n      tag_447\n        /* \"#utility.yul\":3570:3574   */\n      0x00\n        /* \"#utility.yul\":3565:3568   */\n      dup6\n        /* \"#utility.yul\":3561:3575   */\n      add\n        /* \"#utility.yul\":3547:3559   */\n      dup3\n        /* \"#utility.yul\":3467:3576   */\n      tag_363\n      jump\t// in\n    tag_447:\n        /* \"#utility.yul\":3374:3586   */\n      pop\n        /* \"#utility.yul\":3673:3677   */\n      0x20\n        /* \"#utility.yul\":3666:3671   */\n      dup3\n        /* \"#utility.yul\":3662:3678   */\n      add\n        /* \"#utility.yul\":3656:3679   */\n      mload\n        /* \"#utility.yul\":3692:3749   */\n      tag_448\n        /* \"#utility.yul\":3743:3747   */\n      0x80\n        /* \"#utility.yul\":3738:3741   */\n      dup6\n        /* \"#utility.yul\":3734:3748   */\n      add\n        /* \"#utility.yul\":3720:3732   */\n      dup3\n        /* \"#utility.yul\":3692:3749   */\n      tag_365\n      jump\t// in\n    tag_448:\n        /* \"#utility.yul\":3596:3759   */\n      pop\n        /* \"#utility.yul\":3328:3766   */\n      pop\n        /* \"#utility.yul\":3210:3766   */\n      pop\n      pop\n      jump\t// out\n        /* \"#utility.yul\":3772:4075   */\n    tag_367:\n        /* \"#utility.yul\":3903:3913   */\n      0x00\n        /* \"#utility.yul\":3924:4032   */\n      tag_450\n        /* \"#utility.yul\":4028:4031   */\n      dup4\n        /* \"#utility.yul\":4020:4026   */\n      dup4\n        /* \"#utility.yul\":3924:4032   */\n      tag_366\n      jump\t// in\n    tag_450:\n        /* \"#utility.yul\":4064:4068   */\n      0xa0\n        /* \"#utility.yul\":4059:4062   */\n      dup4\n        /* \"#utility.yul\":4055:4069   */\n      add\n        /* \"#utility.yul\":4041:4069   */\n      swap1\n      pop\n        /* \"#utility.yul\":3772:4075   */\n      swap3\n      swap2\n      pop\n      pop\n      jump\t// out\n        /* \"#utility.yul\":4081:4225   */\n    tag_368:\n        /* \"#utility.yul\":4182:4186   */\n      0x00\n        /* \"#utility.yul\":4214:4218   */\n      0x20\n        /* \"#utility.yul\":4209:4212   */\n      dup3\n        /* \"#utility.yul\":4205:4219   */\n      add\n        /* \"#utility.yul\":4197:4219   */\n      swap1\n      pop\n        /* \"#utility.yul\":4081:4225   */\n      swap2\n      swap1\n      pop\n      jump\t// out\n        /* \"#utility.yul\":4303:5283   */\n    tag_369:\n        /* \"#utility.yul\":4484:4487   */\n      0x00\n        /* \"#utility.yul\":4513:4598   */\n      tag_453\n        /* \"#utility.yul\":4592:4597   */\n      dup3\n        /* \"#utility.yul\":4513:4598   */\n      tag_359\n      jump\t// in\n    tag_453:\n        /* \"#utility.yul\":4614:4731   */\n      tag_454\n        /* \"#utility.yul\":4724:4730   */\n      dup2\n        /* \"#utility.yul\":4719:4722   */\n      dup6\n        /* \"#utility.yul\":4614:4731   */\n      tag_360\n      jump\t// in\n    tag_454:\n        /* \"#utility.yul\":4607:4731   */\n      swap4\n      pop\n        /* \"#utility.yul\":4755:4842   */\n      tag_455\n        /* \"#utility.yul\":4836:4841   */\n      dup4\n        /* \"#utility.yul\":4755:4842   */\n      tag_361\n      jump\t// in\n    tag_455:\n        /* \"#utility.yul\":4865:4872   */\n      dup1\n        /* \"#utility.yul\":4896:4897   */\n      0x00\n        /* \"#utility.yul\":4881:5258   */\n    tag_456:\n        /* \"#utility.yul\":4906:4912   */\n      dup4\n        /* \"#utility.yul\":4903:4904   */\n      dup2\n        /* \"#utility.yul\":4900:4913   */\n      lt\n        /* \"#utility.yul\":4881:5258   */\n      iszero\n      tag_458\n      jumpi\n        /* \"#utility.yul\":4982:4988   */\n      dup2\n        /* \"#utility.yul\":4976:4989   */\n      mload\n        /* \"#utility.yul\":5009:5134   */\n      tag_459\n        /* \"#utility.yul\":5130:5133   */\n      dup9\n        /* \"#utility.yul\":5115:5128   */\n      dup3\n        /* \"#utility.yul\":5009:5134   */\n      tag_367\n      jump\t// in\n    tag_459:\n        /* \"#utility.yul\":5002:5134   */\n      swap8\n      pop\n        /* \"#utility.yul\":5157:5248   */\n      tag_460\n        /* \"#utility.yul\":5241:5247   */\n      dup4\n        /* \"#utility.yul\":5157:5248   */\n      tag_368\n      jump\t// in\n    tag_460:\n        /* \"#utility.yul\":5147:5248   */\n      swap3\n      pop\n        /* \"#utility.yul\":4941:5258   */\n      pop\n        /* \"#utility.yul\":4928:4929   */\n      0x01\n        /* \"#utility.yul\":4925:4926   */\n      dup2\n        /* \"#utility.yul\":4921:4930   */\n      add\n        /* \"#utility.yul\":4916:4930   */\n      swap1\n      pop\n        /* \"#utility.yul\":4881:5258   */\n      jump(tag_456)\n    tag_458:\n        /* \"#utility.yul\":4885:4899   */\n      pop\n        /* \"#utility.yul\":5274:5277   */\n      dup6\n        /* \"#utility.yul\":5267:5277   */\n      swap4\n      pop\n        /* \"#utility.yul\":4489:5283   */\n      pop\n      pop\n      pop\n        /* \"#utility.yul\":4303:5283   */\n      swap3\n      swap2\n      pop\n      pop\n      jump\t// out\n        /* \"#utility.yul\":5289:6006   */\n    tag_40:\n        /* \"#utility.yul\":5550:5554   */\n      0x00\n        /* \"#utility.yul\":5588:5590   */\n      0x60\n        /* \"#utility.yul\":5577:5586   */\n      dup3\n        /* \"#utility.yul\":5573:5591   */\n      add\n        /* \"#utility.yul\":5565:5591   */\n      swap1\n      pop\n        /* \"#utility.yul\":5601:5672   */\n      tag_462\n        /* \"#utility.yul\":5669:5670   */\n      0x00\n        /* \"#utility.yul\":5658:5667   */\n      dup4\n        /* \"#utility.yul\":5654:5671   */\n      add\n        /* \"#utility.yul\":5645:5651   */\n      dup7\n        /* \"#utility.yul\":5601:5672   */\n      tag_353\n      jump\t// in\n    tag_462:\n        /* \"#utility.yul\":5682:5754   */\n      tag_463\n        /* \"#utility.yul\":5750:5752   */\n      0x20\n        /* \"#utility.yul\":5739:5748   */\n      dup4\n        /* \"#utility.yul\":5735:5753   */\n      add\n        /* \"#utility.yul\":5726:5732   */\n      dup6\n        /* \"#utility.yul\":5682:5754   */\n      tag_353\n      jump\t// in\n    tag_463:\n        /* \"#utility.yul\":5801:5810   */\n      dup2\n        /* \"#utility.yul\":5795:5799   */\n      dup2\n        /* \"#utility.yul\":5791:5811   */\n      sub\n        /* \"#utility.yul\":5786:5788   */\n      0x40\n        /* \"#utility.yul\":5775:5784   */\n      dup4\n        /* \"#utility.yul\":5771:5789   */\n      add\n        /* \"#utility.yul\":5764:5812   */\n      mstore\n        /* \"#utility.yul\":5829:5999   */\n      tag_464\n        /* \"#utility.yul\":5994:5998   */\n      dup2\n        /* \"#utility.yul\":5985:5991   */\n      dup5\n        /* \"#utility.yul\":5829:5999   */\n      tag_369\n      jump\t// in\n    tag_464:\n        /* \"#utility.yul\":5821:5999   */\n      swap1\n      pop\n        /* \"#utility.yul\":5289:6006   */\n      swap5\n      swap4\n      pop\n      pop\n      pop\n      pop\n      jump\t// out\n        /* \"#utility.yul\":6064:6925   */\n    tag_370:\n        /* \"#utility.yul\":6207:6211   */\n      0x80\n        /* \"#utility.yul\":6202:6205   */\n      dup3\n        /* \"#utility.yul\":6198:6212   */\n      add\n        /* \"#utility.yul\":6297:6301   */\n      0x00\n        /* \"#utility.yul\":6290:6295   */\n      dup3\n        /* \"#utility.yul\":6286:6302   */\n      add\n        /* \"#utility.yul\":6280:6303   */\n      mload\n        /* \"#utility.yul\":6316:6379   */\n      tag_466\n        /* \"#utility.yul\":6373:6377   */\n      0x00\n        /* \"#utility.yul\":6368:6371   */\n      dup6\n        /* \"#utility.yul\":6364:6378   */\n      add\n        /* \"#utility.yul\":6350:6362   */\n      dup3\n        /* \"#utility.yul\":6316:6379   */\n      tag_362\n      jump\t// in\n    tag_466:\n        /* \"#utility.yul\":6222:6389   */\n      pop\n        /* \"#utility.yul\":6473:6477   */\n      0x20\n        /* \"#utility.yul\":6466:6471   */\n      dup3\n        /* \"#utility.yul\":6462:6478   */\n      add\n        /* \"#utility.yul\":6456:6479   */\n      mload\n        /* \"#utility.yul\":6492:6555   */\n      tag_467\n        /* \"#utility.yul\":6549:6553   */\n      0x20\n        /* \"#utility.yul\":6544:6547   */\n      dup6\n        /* \"#utility.yul\":6540:6554   */\n      add\n        /* \"#utility.yul\":6526:6538   */\n      dup3\n        /* \"#utility.yul\":6492:6555   */\n      tag_362\n      jump\t// in\n    tag_467:\n        /* \"#utility.yul\":6399:6565   */\n      pop\n        /* \"#utility.yul\":6650:6654   */\n      0x40\n        /* \"#utility.yul\":6643:6648   */\n      dup3\n        /* \"#utility.yul\":6639:6655   */\n      add\n        /* \"#utility.yul\":6633:6656   */\n      mload\n        /* \"#utility.yul\":6669:6732   */\n      tag_468\n        /* \"#utility.yul\":6726:6730   */\n      0x40\n        /* \"#utility.yul\":6721:6724   */\n      dup6\n        /* \"#utility.yul\":6717:6731   */\n      add\n        /* \"#utility.yul\":6703:6715   */\n      dup3\n        /* \"#utility.yul\":6669:6732   */\n      tag_362\n      jump\t// in\n    tag_468:\n        /* \"#utility.yul\":6575:6742   */\n      pop\n        /* \"#utility.yul\":6826:6830   */\n      0x60\n        /* \"#utility.yul\":6819:6824   */\n      dup3\n        /* \"#utility.yul\":6815:6831   */\n      add\n        /* \"#utility.yul\":6809:6832   */\n      mload\n        /* \"#utility.yul\":6845:6908   */\n      tag_469\n        /* \"#utility.yul\":6902:6906   */\n      0x60\n        /* \"#utility.yul\":6897:6900   */\n      dup6\n        /* \"#utility.yul\":6893:6907   */\n      add\n        /* \"#utility.yul\":6879:6891   */\n      dup3\n        /* \"#utility.yul\":6845:6908   */\n      tag_362\n      jump\t// in\n    tag_469:\n        /* \"#utility.yul\":6752:6918   */\n      pop\n        /* \"#utility.yul\":6176:6925   */\n      pop\n        /* \"#utility.yul\":6064:6925   */\n      pop\n      pop\n      jump\t// out\n        /* \"#utility.yul\":6931:7246   */\n    tag_51:\n        /* \"#utility.yul\":7070:7074   */\n      0x00\n        /* \"#utility.yul\":7108:7111   */\n      0x80\n        /* \"#utility.yul\":7097:7106   */\n      dup3\n        /* \"#utility.yul\":7093:7112   */\n      add\n        /* \"#utility.yul\":7085:7112   */\n      swap1\n      pop\n        /* \"#utility.yul\":7122:7239   */\n      tag_471\n        /* \"#utility.yul\":7236:7237   */\n      0x00\n        /* \"#utility.yul\":7225:7234   */\n      dup4\n        /* \"#utility.yul\":7221:7238   */\n      add\n        /* \"#utility.yul\":7212:7218   */\n      dup5\n        /* \"#utility.yul\":7122:7239   */\n      tag_370\n      jump\t// in\n    tag_471:\n        /* \"#utility.yul\":6931:7246   */\n      swap3\n      swap2\n      pop\n      pop\n      jump\t// out\n        /* \"#utility.yul\":7252:7378   */\n    tag_371:\n        /* \"#utility.yul\":7289:7296   */\n      0x00\n        /* \"#utility.yul\":7329:7371   */\n      0xffffffffffffffffffffffffffffffffffffffff\n        /* \"#utility.yul\":7322:7327   */\n      dup3\n        /* \"#utility.yul\":7318:7372   */\n      and\n        /* \"#utility.yul\":7307:7372   */\n      swap1\n      pop\n        /* \"#utility.yul\":7252:7378   */\n      swap2\n      swap1\n      pop\n      jump\t// out\n        /* \"#utility.yul\":7384:7444   */\n    tag_372:\n        /* \"#utility.yul\":7412:7415   */\n      0x00\n        /* \"#utility.yul\":7433:7438   */\n      dup2\n        /* \"#utility.yul\":7426:7438   */\n      swap1\n      pop\n        /* \"#utility.yul\":7384:7444   */\n      swap2\n      swap1\n      pop\n      jump\t// out\n        /* \"#utility.yul\":7450:7592   */\n    tag_373:\n        /* \"#utility.yul\":7500:7509   */\n      0x00\n        /* \"#utility.yul\":7533:7586   */\n      tag_475\n        /* \"#utility.yul\":7551:7585   */\n      tag_476\n        /* \"#utility.yul\":7560:7584   */\n      tag_477\n        /* \"#utility.yul\":7578:7583   */\n      dup5\n        /* \"#utility.yul\":7560:7584   */\n      tag_371\n      jump\t// in\n    tag_477:\n        /* \"#utility.yul\":7551:7585   */\n      tag_372\n      jump\t// in\n    tag_476:\n        /* \"#utility.yul\":7533:7586   */\n      tag_371\n      jump\t// in\n    tag_475:\n        /* \"#utility.yul\":7520:7586   */\n      swap1\n      pop\n        /* \"#utility.yul\":7450:7592   */\n      swap2\n      swap1\n      pop\n      jump\t// out\n        /* \"#utility.yul\":7598:7724   */\n    tag_374:\n        /* \"#utility.yul\":7648:7657   */\n      0x00\n        /* \"#utility.yul\":7681:7718   */\n      tag_479\n        /* \"#utility.yul\":7712:7717   */\n      dup3\n        /* \"#utility.yul\":7681:7718   */\n      tag_373\n      jump\t// in\n    tag_479:\n        /* \"#utility.yul\":7668:7718   */\n      swap1\n      pop\n        /* \"#utility.yul\":7598:7724   */\n      swap2\n      swap1\n      pop\n      jump\t// out\n        /* \"#utility.yul\":7730:7870   */\n    tag_375:\n        /* \"#utility.yul\":7794:7803   */\n      0x00\n        /* \"#utility.yul\":7827:7864   */\n      tag_481\n        /* \"#utility.yul\":7858:7863   */\n      dup3\n        /* \"#utility.yul\":7827:7864   */\n      tag_374\n      jump\t// in\n    tag_481:\n        /* \"#utility.yul\":7814:7864   */\n      swap1\n      pop\n        /* \"#utility.yul\":7730:7870   */\n      swap2\n      swap1\n      pop\n      jump\t// out\n        /* \"#utility.yul\":7876:8035   */\n    tag_376:\n        /* \"#utility.yul\":7977:8028   */\n      tag_483\n        /* \"#utility.yul\":8022:8027   */\n      dup2\n        /* \"#utility.yul\":7977:8028   */\n      tag_375\n      jump\t// in\n    tag_483:\n        /* \"#utility.yul\":7972:7975   */\n      dup3\n        /* \"#utility.yul\":7965:8029   */\n      mstore\n        /* \"#utility.yul\":7876:8035   */\n      pop\n      pop\n      jump\t// out\n        /* \"#utility.yul\":8041:8291   */\n    tag_55:\n        /* \"#utility.yul\":8148:8152   */\n      0x00\n        /* \"#utility.yul\":8186:8188   */\n      0x20\n        /* \"#utility.yul\":8175:8184   */\n      dup3\n        /* \"#utility.yul\":8171:8189   */\n      add\n        /* \"#utility.yul\":8163:8189   */\n      swap1\n      pop\n        /* \"#utility.yul\":8199:8284   */\n      tag_485\n        /* \"#utility.yul\":8281:8282   */\n      0x00\n        /* \"#utility.yul\":8270:8279   */\n      dup4\n        /* \"#utility.yul\":8266:8283   */\n      add\n        /* \"#utility.yul\":8257:8263   */\n      dup5\n        /* \"#utility.yul\":8199:8284   */\n      tag_376\n      jump\t// in\n    tag_485:\n        /* \"#utility.yul\":8041:8291   */\n      swap3\n      swap2\n      pop\n      pop\n      jump\t// out\n        /* \"#utility.yul\":8297:8393   */\n    tag_377:\n        /* \"#utility.yul\":8334:8341   */\n      0x00\n        /* \"#utility.yul\":8363:8387   */\n      tag_487\n        /* \"#utility.yul\":8381:8386   */\n      dup3\n        /* \"#utility.yul\":8363:8387   */\n      tag_371\n      jump\t// in\n    tag_487:\n        /* \"#utility.yul\":8352:8387   */\n      swap1\n      pop\n        /* \"#utility.yul\":8297:8393   */\n      swap2\n      swap1\n      pop\n      jump\t// out\n        /* \"#utility.yul\":8399:8517   */\n    tag_378:\n        /* \"#utility.yul\":8486:8510   */\n      tag_489\n        /* \"#utility.yul\":8504:8509   */\n      dup2\n        /* \"#utility.yul\":8486:8510   */\n      tag_377\n      jump\t// in\n    tag_489:\n        /* \"#utility.yul\":8481:8484   */\n      dup3\n        /* \"#utility.yul\":8474:8511   */\n      mstore\n        /* \"#utility.yul\":8399:8517   */\n      pop\n      pop\n      jump\t// out\n        /* \"#utility.yul\":8523:8745   */\n    tag_61:\n        /* \"#utility.yul\":8616:8620   */\n      0x00\n        /* \"#utility.yul\":8654:8656   */\n      0x20\n        /* \"#utility.yul\":8643:8652   */\n      dup3\n        /* \"#utility.yul\":8639:8657   */\n      add\n        /* \"#utility.yul\":8631:8657   */\n      swap1\n      pop\n        /* \"#utility.yul\":8667:8738   */\n      tag_491\n        /* \"#utility.yul\":8735:8736   */\n      0x00\n        /* \"#utility.yul\":8724:8733   */\n      dup4\n        /* \"#utility.yul\":8720:8737   */\n      add\n        /* \"#utility.yul\":8711:8717   */\n      dup5\n        /* \"#utility.yul\":8667:8738   */\n      tag_378\n      jump\t// in\n    tag_491:\n        /* \"#utility.yul\":8523:8745   */\n      swap3\n      swap2\n      pop\n      pop\n      jump\t// out\n        /* \"#utility.yul\":8751:8891   */\n    tag_379:\n        /* \"#utility.yul\":8815:8824   */\n      0x00\n        /* \"#utility.yul\":8848:8885   */\n      tag_493\n        /* \"#utility.yul\":8879:8884   */\n      dup3\n        /* \"#utility.yul\":8848:8885   */\n      tag_374\n      jump\t// in\n    tag_493:\n        /* \"#utility.yul\":8835:8885   */\n      swap1\n      pop\n        /* \"#utility.yul\":8751:8891   */\n      swap2\n      swap1\n      pop\n      jump\t// out\n        /* \"#utility.yul\":8897:9056   */\n    tag_380:\n        /* \"#utility.yul\":8998:9049   */\n      tag_495\n        /* \"#utility.yul\":9043:9048   */\n      dup2\n        /* \"#utility.yul\":8998:9049   */\n      tag_379\n      jump\t// in\n    tag_495:\n        /* \"#utility.yul\":8993:8996   */\n      dup3\n        /* \"#utility.yul\":8986:9050   */\n      mstore\n        /* \"#utility.yul\":8897:9056   */\n      pop\n      pop\n      jump\t// out\n        /* \"#utility.yul\":9062:9312   */\n    tag_65:\n        /* \"#utility.yul\":9169:9173   */\n      0x00\n        /* \"#utility.yul\":9207:9209   */\n      0x20\n        /* \"#utility.yul\":9196:9205   */\n      dup3\n        /* \"#utility.yul\":9192:9210   */\n      add\n        /* \"#utility.yul\":9184:9210   */\n      swap1\n      pop\n        /* \"#utility.yul\":9220:9305   */\n      tag_497\n        /* \"#utility.yul\":9302:9303   */\n      0x00\n        /* \"#utility.yul\":9291:9300   */\n      dup4\n        /* \"#utility.yul\":9287:9304   */\n      add\n        /* \"#utility.yul\":9278:9284   */\n      dup5\n        /* \"#utility.yul\":9220:9305   */\n      tag_380\n      jump\t// in\n    tag_497:\n        /* \"#utility.yul\":9062:9312   */\n      swap3\n      swap2\n      pop\n      pop\n      jump\t// out\n        /* \"#utility.yul\":9318:9440   */\n    tag_381:\n        /* \"#utility.yul\":9391:9415   */\n      tag_499\n        /* \"#utility.yul\":9409:9414   */\n      dup2\n        /* \"#utility.yul\":9391:9415   */\n      tag_377\n      jump\t// in\n    tag_499:\n        /* \"#utility.yul\":9384:9389   */\n      dup2\n        /* \"#utility.yul\":9381:9416   */\n      eq\n        /* \"#utility.yul\":9371:9434   */\n      tag_500\n      jumpi\n        /* \"#utility.yul\":9430:9431   */\n      0x00\n        /* \"#utility.yul\":9427:9428   */\n      dup1\n        /* \"#utility.yul\":9420:9432   */\n      revert\n        /* \"#utility.yul\":9371:9434   */\n    tag_500:\n        /* \"#utility.yul\":9318:9440   */\n      pop\n      jump\t// out\n        /* \"#utility.yul\":9446:9585   */\n    tag_382:\n        /* \"#utility.yul\":9492:9497   */\n      0x00\n        /* \"#utility.yul\":9530:9536   */\n      dup2\n        /* \"#utility.yul\":9517:9537   */\n      calldataload\n        /* \"#utility.yul\":9508:9537   */\n      swap1\n      pop\n        /* \"#utility.yul\":9546:9579   */\n      tag_502\n        /* \"#utility.yul\":9573:9578   */\n      dup2\n        /* \"#utility.yul\":9546:9579   */\n      tag_381\n      jump\t// in\n    tag_502:\n        /* \"#utility.yul\":9446:9585   */\n      swap3\n      swap2\n      pop\n      pop\n      jump\t// out\n        /* \"#utility.yul\":9591:9920   */\n    tag_77:\n        /* \"#utility.yul\":9650:9656   */\n      0x00\n        /* \"#utility.yul\":9699:9701   */\n      0x20\n        /* \"#utility.yul\":9687:9696   */\n      dup3\n        /* \"#utility.yul\":9678:9685   */\n      dup5\n        /* \"#utility.yul\":9674:9697   */\n      sub\n        /* \"#utility.yul\":9670:9702   */\n      slt\n        /* \"#utility.yul\":9667:9786   */\n      iszero\n      tag_504\n      jumpi\n        /* \"#utility.yul\":9705:9784   */\n      tag_505\n      tag_355\n      jump\t// in\n    tag_505:\n        /* \"#utility.yul\":9667:9786   */\n    tag_504:\n        /* \"#utility.yul\":9825:9826   */\n      0x00\n        /* \"#utility.yul\":9850:9903   */\n      tag_506\n        /* \"#utility.yul\":9895:9902   */\n      dup5\n        /* \"#utility.yul\":9886:9892   */\n      dup3\n        /* \"#utility.yul\":9875:9884   */\n      dup6\n        /* \"#utility.yul\":9871:9893   */\n      add\n        /* \"#utility.yul\":9850:9903   */\n      tag_382\n      jump\t// in\n    tag_506:\n        /* \"#utility.yul\":9840:9903   */\n      swap2\n      pop\n        /* \"#utility.yul\":9796:9913   */\n      pop\n        /* \"#utility.yul\":9591:9920   */\n      swap3\n      swap2\n      pop\n      pop\n      jump\t// out\n        /* \"#utility.yul\":9926:10131   */\n    tag_383:\n        /* \"#utility.yul\":10046:10057   */\n      0x00\n        /* \"#utility.yul\":10080:10086   */\n      dup3\n        /* \"#utility.yul\":10075:10078   */\n      dup3\n        /* \"#utility.yul\":10068:10087   */\n      mstore\n        /* \"#utility.yul\":10120:10124   */\n      0x20\n        /* \"#utility.yul\":10115:10118   */\n      dup3\n        /* \"#utility.yul\":10111:10125   */\n      add\n        /* \"#utility.yul\":10096:10125   */\n      swap1\n      pop\n        /* \"#utility.yul\":9926:10131   */\n      swap3\n      swap2\n      pop\n      pop\n      jump\t// out\n        /* \"#utility.yul\":10209:11169   */\n    tag_384:\n        /* \"#utility.yul\":10380:10383   */\n      0x00\n        /* \"#utility.yul\":10409:10494   */\n      tag_509\n        /* \"#utility.yul\":10488:10493   */\n      dup3\n        /* \"#utility.yul\":10409:10494   */\n      tag_359\n      jump\t// in\n    tag_509:\n        /* \"#utility.yul\":10510:10617   */\n      tag_510\n        /* \"#utility.yul\":10610:10616   */\n      dup2\n        /* \"#utility.yul\":10605:10608   */\n      dup6\n        /* \"#utility.yul\":10510:10617   */\n      tag_383\n      jump\t// in\n    tag_510:\n        /* \"#utility.yul\":10503:10617   */\n      swap4\n      pop\n        /* \"#utility.yul\":10641:10728   */\n      tag_511\n        /* \"#utility.yul\":10722:10727   */\n      dup4\n        /* \"#utility.yul\":10641:10728   */\n      tag_361\n      jump\t// in\n    tag_511:\n        /* \"#utility.yul\":10751:10758   */\n      dup1\n        /* \"#utility.yul\":10782:10783   */\n      0x00\n        /* \"#utility.yul\":10767:11144   */\n    tag_512:\n        /* \"#utility.yul\":10792:10798   */\n      dup4\n        /* \"#utility.yul\":10789:10790   */\n      dup2\n        /* \"#utility.yul\":10786:10799   */\n      lt\n        /* \"#utility.yul\":10767:11144   */\n      iszero\n      tag_514\n      jumpi\n        /* \"#utility.yul\":10868:10874   */\n      dup2\n        /* \"#utility.yul\":10862:10875   */\n      mload\n        /* \"#utility.yul\":10895:11020   */\n      tag_515\n        /* \"#utility.yul\":11016:11019   */\n      dup9\n        /* \"#utility.yul\":11001:11014   */\n      dup3\n        /* \"#utility.yul\":10895:11020   */\n      tag_367\n      jump\t// in\n    tag_515:\n        /* \"#utility.yul\":10888:11020   */\n      swap8\n      pop\n        /* \"#utility.yul\":11043:11134   */\n      tag_516\n        /* \"#utility.yul\":11127:11133   */\n      dup4\n        /* \"#utility.yul\":11043:11134   */\n      tag_368\n      jump\t// in\n    tag_516:\n        /* \"#utility.yul\":11033:11134   */\n      swap3\n      pop\n        /* \"#utility.yul\":10827:11144   */\n      pop\n        /* \"#utility.yul\":10814:10815   */\n      0x01\n        /* \"#utility.yul\":10811:10812   */\n      dup2\n        /* \"#utility.yul\":10807:10816   */\n      add\n        /* \"#utility.yul\":10802:10816   */\n      swap1\n      pop\n        /* \"#utility.yul\":10767:11144   */\n      jump(tag_512)\n    tag_514:\n        /* \"#utility.yul\":10771:10785   */\n      pop\n        /* \"#utility.yul\":11160:11163   */\n      dup6\n        /* \"#utility.yul\":11153:11163   */\n      swap4\n      pop\n        /* \"#utility.yul\":10385:11169   */\n      pop\n      pop\n      pop\n        /* \"#utility.yul\":10209:11169   */\n      swap3\n      swap2\n      pop\n      pop\n      jump\t// out\n        /* \"#utility.yul\":11239:12123   */\n    tag_385:\n        /* \"#utility.yul\":11366:11369   */\n      0x00\n        /* \"#utility.yul\":11402:11406   */\n      0x60\n        /* \"#utility.yul\":11397:11400   */\n      dup4\n        /* \"#utility.yul\":11393:11407   */\n      add\n        /* \"#utility.yul\":11488:11492   */\n      0x00\n        /* \"#utility.yul\":11481:11486   */\n      dup4\n        /* \"#utility.yul\":11477:11493   */\n      add\n        /* \"#utility.yul\":11471:11494   */\n      mload\n        /* \"#utility.yul\":11507:11570   */\n      tag_518\n        /* \"#utility.yul\":11564:11568   */\n      0x00\n        /* \"#utility.yul\":11559:11562   */\n      dup7\n        /* \"#utility.yul\":11555:11569   */\n      add\n        /* \"#utility.yul\":11541:11553   */\n      dup3\n        /* \"#utility.yul\":11507:11570   */\n      tag_362\n      jump\t// in\n    tag_518:\n        /* \"#utility.yul\":11417:11580   */\n      pop\n        /* \"#utility.yul\":11662:11666   */\n      0x20\n        /* \"#utility.yul\":11655:11660   */\n      dup4\n        /* \"#utility.yul\":11651:11667   */\n      add\n        /* \"#utility.yul\":11645:11668   */\n      mload\n        /* \"#utility.yul\":11681:11744   */\n      tag_519\n        /* \"#utility.yul\":11738:11742   */\n      0x20\n        /* \"#utility.yul\":11733:11736   */\n      dup7\n        /* \"#utility.yul\":11729:11743   */\n      add\n        /* \"#utility.yul\":11715:11727   */\n      dup3\n        /* \"#utility.yul\":11681:11744   */\n      tag_362\n      jump\t// in\n    tag_519:\n        /* \"#utility.yul\":11590:11754   */\n      pop\n        /* \"#utility.yul\":11841:11845   */\n      0x40\n        /* \"#utility.yul\":11834:11839   */\n      dup4\n        /* \"#utility.yul\":11830:11846   */\n      add\n        /* \"#utility.yul\":11824:11847   */\n      mload\n        /* \"#utility.yul\":11894:11897   */\n      dup5\n        /* \"#utility.yul\":11888:11892   */\n      dup3\n        /* \"#utility.yul\":11884:11898   */\n      sub\n        /* \"#utility.yul\":11877:11881   */\n      0x40\n        /* \"#utility.yul\":11872:11875   */\n      dup7\n        /* \"#utility.yul\":11868:11882   */\n      add\n        /* \"#utility.yul\":11861:11899   */\n      mstore\n        /* \"#utility.yul\":11920:12085   */\n      tag_520\n        /* \"#utility.yul\":12080:12084   */\n      dup3\n        /* \"#utility.yul\":12066:12078   */\n      dup3\n        /* \"#utility.yul\":11920:12085   */\n      tag_384\n      jump\t// in\n    tag_520:\n        /* \"#utility.yul\":11912:12085   */\n      swap2\n      pop\n        /* \"#utility.yul\":11764:12096   */\n      pop\n        /* \"#utility.yul\":12113:12117   */\n      dup1\n        /* \"#utility.yul\":12106:12117   */\n      swap2\n      pop\n        /* \"#utility.yul\":11371:12123   */\n      pop\n        /* \"#utility.yul\":11239:12123   */\n      swap3\n      swap2\n      pop\n      pop\n      jump\t// out\n        /* \"#utility.yul\":12129:12518   */\n    tag_80:\n        /* \"#utility.yul\":12280:12284   */\n      0x00\n        /* \"#utility.yul\":12318:12320   */\n      0x20\n        /* \"#utility.yul\":12307:12316   */\n      dup3\n        /* \"#utility.yul\":12303:12321   */\n      add\n        /* \"#utility.yul\":12295:12321   */\n      swap1\n      pop\n        /* \"#utility.yul\":12367:12376   */\n      dup2\n        /* \"#utility.yul\":12361:12365   */\n      dup2\n        /* \"#utility.yul\":12357:12377   */\n      sub\n        /* \"#utility.yul\":12353:12354   */\n      0x00\n        /* \"#utility.yul\":12342:12351   */\n      dup4\n        /* \"#utility.yul\":12338:12355   */\n      add\n        /* \"#utility.yul\":12331:12378   */\n      mstore\n        /* \"#utility.yul\":12395:12511   */\n      tag_522\n        /* \"#utility.yul\":12506:12510   */\n      dup2\n        /* \"#utility.yul\":12497:12503   */\n      dup5\n        /* \"#utility.yul\":12395:12511   */\n      tag_385\n      jump\t// in\n    tag_522:\n        /* \"#utility.yul\":12387:12511   */\n      swap1\n      pop\n        /* \"#utility.yul\":12129:12518   */\n      swap3\n      swap2\n      pop\n      pop\n      jump\t// out\n        /* \"#utility.yul\":12524:12670   */\n    tag_386:\n        /* \"#utility.yul\":12594:12603   */\n      0x00\n        /* \"#utility.yul\":12627:12664   */\n      tag_524\n        /* \"#utility.yul\":12658:12663   */\n      dup3\n        /* \"#utility.yul\":12627:12664   */\n      tag_374\n      jump\t// in\n    tag_524:\n        /* \"#utility.yul\":12614:12664   */\n      swap1\n      pop\n        /* \"#utility.yul\":12524:12670   */\n      swap2\n      swap1\n      pop\n      jump\t// out\n        /* \"#utility.yul\":12676:12847   */\n    tag_387:\n        /* \"#utility.yul\":12783:12840   */\n      tag_526\n        /* \"#utility.yul\":12834:12839   */\n      dup2\n        /* \"#utility.yul\":12783:12840   */\n      tag_386\n      jump\t// in\n    tag_526:\n        /* \"#utility.yul\":12778:12781   */\n      dup3\n        /* \"#utility.yul\":12771:12841   */\n      mstore\n        /* \"#utility.yul\":12676:12847   */\n      pop\n      pop\n      jump\t// out\n        /* \"#utility.yul\":12853:13115   */\n    tag_92:\n        /* \"#utility.yul\":12966:12970   */\n      0x00\n        /* \"#utility.yul\":13004:13006   */\n      0x20\n        /* \"#utility.yul\":12993:13002   */\n      dup3\n        /* \"#utility.yul\":12989:13007   */\n      add\n        /* \"#utility.yul\":12981:13007   */\n      swap1\n      pop\n        /* \"#utility.yul\":13017:13108   */\n      tag_528\n        /* \"#utility.yul\":13105:13106   */\n      0x00\n        /* \"#utility.yul\":13094:13103   */\n      dup4\n        /* \"#utility.yul\":13090:13107   */\n      add\n        /* \"#utility.yul\":13081:13087   */\n      dup5\n        /* \"#utility.yul\":13017:13108   */\n      tag_387\n      jump\t// in\n    tag_528:\n        /* \"#utility.yul\":12853:13115   */\n      swap3\n      swap2\n      pop\n      pop\n      jump\t// out\n        /* \"#utility.yul\":13121:13264   */\n    tag_388:\n        /* \"#utility.yul\":13178:13183   */\n      0x00\n        /* \"#utility.yul\":13209:13215   */\n      dup2\n        /* \"#utility.yul\":13203:13216   */\n      mload\n        /* \"#utility.yul\":13194:13216   */\n      swap1\n      pop\n        /* \"#utility.yul\":13225:13258   */\n      tag_530\n        /* \"#utility.yul\":13252:13257   */\n      dup2\n        /* \"#utility.yul\":13225:13258   */\n      tag_381\n      jump\t// in\n    tag_530:\n        /* \"#utility.yul\":13121:13264   */\n      swap3\n      swap2\n      pop\n      pop\n      jump\t// out\n        /* \"#utility.yul\":13270:13621   */\n    tag_98:\n        /* \"#utility.yul\":13340:13346   */\n      0x00\n        /* \"#utility.yul\":13389:13391   */\n      0x20\n        /* \"#utility.yul\":13377:13386   */\n      dup3\n        /* \"#utility.yul\":13368:13375   */\n      dup5\n        /* \"#utility.yul\":13364:13387   */\n      sub\n        /* \"#utility.yul\":13360:13392   */\n      slt\n        /* \"#utility.yul\":13357:13476   */\n      iszero\n      tag_532\n      jumpi\n        /* \"#utility.yul\":13395:13474   */\n      tag_533\n      tag_355\n      jump\t// in\n    tag_533:\n        /* \"#utility.yul\":13357:13476   */\n    tag_532:\n        /* \"#utility.yul\":13515:13516   */\n      0x00\n        /* \"#utility.yul\":13540:13604   */\n      tag_534\n        /* \"#utility.yul\":13596:13603   */\n      dup5\n        /* \"#utility.yul\":13587:13593   */\n      dup3\n        /* \"#utility.yul\":13576:13585   */\n      dup6\n        /* \"#utility.yul\":13572:13594   */\n      add\n        /* \"#utility.yul\":13540:13604   */\n      tag_388\n      jump\t// in\n    tag_534:\n        /* \"#utility.yul\":13530:13604   */\n      swap2\n      pop\n        /* \"#utility.yul\":13486:13614   */\n      pop\n        /* \"#utility.yul\":13270:13621   */\n      swap3\n      swap2\n      pop\n      pop\n      jump\t// out\n        /* \"#utility.yul\":13627:13796   */\n    tag_389:\n        /* \"#utility.yul\":13711:13722   */\n      0x00\n        /* \"#utility.yul\":13745:13751   */\n      dup3\n        /* \"#utility.yul\":13740:13743   */\n      dup3\n        /* \"#utility.yul\":13733:13752   */\n      mstore\n        /* \"#utility.yul\":13785:13789   */\n      0x20\n        /* \"#utility.yul\":13780:13783   */\n      dup3\n        /* \"#utility.yul\":13776:13790   */\n      add\n        /* \"#utility.yul\":13761:13790   */\n      swap1\n      pop\n        /* \"#utility.yul\":13627:13796   */\n      swap3\n      swap2\n      pop\n      pop\n      jump\t// out\n        /* \"#utility.yul\":13802:13961   */\n    tag_390:\n        /* \"#utility.yul\":13942:13953   */\n      0x4e6f74204f776e65720000000000000000000000000000000000000000000000\n        /* \"#utility.yul\":13938:13939   */\n      0x00\n        /* \"#utility.yul\":13930:13936   */\n      dup3\n        /* \"#utility.yul\":13926:13940   */\n      add\n        /* \"#utility.yul\":13919:13954   */\n      mstore\n        /* \"#utility.yul\":13802:13961   */\n      pop\n      jump\t// out\n        /* \"#utility.yul\":13967:14332   */\n    tag_391:\n        /* \"#utility.yul\":14109:14112   */\n      0x00\n        /* \"#utility.yul\":14130:14196   */\n      tag_538\n        /* \"#utility.yul\":14194:14195   */\n      0x09\n        /* \"#utility.yul\":14189:14192   */\n      dup4\n        /* \"#utility.yul\":14130:14196   */\n      tag_389\n      jump\t// in\n    tag_538:\n        /* \"#utility.yul\":14123:14196   */\n      swap2\n      pop\n        /* \"#utility.yul\":14205:14298   */\n      tag_539\n        /* \"#utility.yul\":14294:14297   */\n      dup3\n        /* \"#utility.yul\":14205:14298   */\n      tag_390\n      jump\t// in\n    tag_539:\n        /* \"#utility.yul\":14323:14325   */\n      0x20\n        /* \"#utility.yul\":14318:14321   */\n      dup3\n        /* \"#utility.yul\":14314:14326   */\n      add\n        /* \"#utility.yul\":14307:14326   */\n      swap1\n      pop\n        /* \"#utility.yul\":13967:14332   */\n      swap2\n      swap1\n      pop\n      jump\t// out\n        /* \"#utility.yul\":14338:14757   */\n    tag_101:\n        /* \"#utility.yul\":14504:14508   */\n      0x00\n        /* \"#utility.yul\":14542:14544   */\n      0x20\n        /* \"#utility.yul\":14531:14540   */\n      dup3\n        /* \"#utility.yul\":14527:14545   */\n      add\n        /* \"#utility.yul\":14519:14545   */\n      swap1\n      pop\n        /* \"#utility.yul\":14591:14600   */\n      dup2\n        /* \"#utility.yul\":14585:14589   */\n      dup2\n        /* \"#utility.yul\":14581:14601   */\n      sub\n        /* \"#utility.yul\":14577:14578   */\n      0x00\n        /* \"#utility.yul\":14566:14575   */\n      dup4\n        /* \"#utility.yul\":14562:14579   */\n      add\n        /* \"#utility.yul\":14555:14602   */\n      mstore\n        /* \"#utility.yul\":14619:14750   */\n      tag_541\n        /* \"#utility.yul\":14745:14749   */\n      dup2\n        /* \"#utility.yul\":14619:14750   */\n      tag_391\n      jump\t// in\n    tag_541:\n        /* \"#utility.yul\":14611:14750   */\n      swap1\n      pop\n        /* \"#utility.yul\":14338:14757   */\n      swap2\n      swap1\n      pop\n      jump\t// out\n        /* \"#utility.yul\":14763:14945   */\n    tag_392:\n        /* \"#utility.yul\":14903:14937   */\n      0x447261676f6e206e6f74207265676973746572656420666f7220626174746c65\n        /* \"#utility.yul\":14899:14900   */\n      0x00\n        /* \"#utility.yul\":14891:14897   */\n      dup3\n        /* \"#utility.yul\":14887:14901   */\n      add\n        /* \"#utility.yul\":14880:14938   */\n      mstore\n        /* \"#utility.yul\":14763:14945   */\n      pop\n      jump\t// out\n        /* \"#utility.yul\":14951:15317   */\n    tag_393:\n        /* \"#utility.yul\":15093:15096   */\n      0x00\n        /* \"#utility.yul\":15114:15181   */\n      tag_544\n        /* \"#utility.yul\":15178:15180   */\n      0x20\n        /* \"#utility.yul\":15173:15176   */\n      dup4\n        /* \"#utility.yul\":15114:15181   */\n      tag_389\n      jump\t// in\n    tag_544:\n        /* \"#utility.yul\":15107:15181   */\n      swap2\n      pop\n        /* \"#utility.yul\":15190:15283   */\n      tag_545\n        /* \"#utility.yul\":15279:15282   */\n      dup3\n        /* \"#utility.yul\":15190:15283   */\n      tag_392\n      jump\t// in\n    tag_545:\n        /* \"#utility.yul\":15308:15310   */\n      0x20\n        /* \"#utility.yul\":15303:15306   */\n      dup3\n        /* \"#utility.yul\":15299:15311   */\n      add\n        /* \"#utility.yul\":15292:15311   */\n      swap1\n      pop\n        /* \"#utility.yul\":14951:15317   */\n      swap2\n      swap1\n      pop\n      jump\t// out\n        /* \"#utility.yul\":15323:15742   */\n    tag_104:\n        /* \"#utility.yul\":15489:15493   */\n      0x00\n        /* \"#utility.yul\":15527:15529   */\n      0x20\n        /* \"#utility.yul\":15516:15525   */\n      dup3\n        /* \"#utility.yul\":15512:15530   */\n      add\n        /* \"#utility.yul\":15504:15530   */\n      swap1\n      pop\n        /* \"#utility.yul\":15576:15585   */\n      dup2\n        /* \"#utility.yul\":15570:15574   */\n      dup2\n        /* \"#utility.yul\":15566:15586   */\n      sub\n        /* \"#utility.yul\":15562:15563   */\n      0x00\n        /* \"#utility.yul\":15551:15560   */\n      dup4\n        /* \"#utility.yul\":15547:15564   */\n      add\n        /* \"#utility.yul\":15540:15587   */\n      mstore\n        /* \"#utility.yul\":15604:15735   */\n      tag_547\n        /* \"#utility.yul\":15730:15734   */\n      dup2\n        /* \"#utility.yul\":15604:15735   */\n      tag_393\n      jump\t// in\n    tag_547:\n        /* \"#utility.yul\":15596:15735   */\n      swap1\n      pop\n        /* \"#utility.yul\":15323:15742   */\n      swap2\n      swap1\n      pop\n      jump\t// out\n        /* \"#utility.yul\":15748:15891   */\n    tag_394:\n        /* \"#utility.yul\":15805:15810   */\n      0x00\n        /* \"#utility.yul\":15836:15842   */\n      dup2\n        /* \"#utility.yul\":15830:15843   */\n      mload\n        /* \"#utility.yul\":15821:15843   */\n      swap1\n      pop\n        /* \"#utility.yul\":15852:15885   */\n      tag_549\n        /* \"#utility.yul\":15879:15884   */\n      dup2\n        /* \"#utility.yul\":15852:15885   */\n      tag_357\n      jump\t// in\n    tag_549:\n        /* \"#utility.yul\":15748:15891   */\n      swap3\n      swap2\n      pop\n      pop\n      jump\t// out\n        /* \"#utility.yul\":15897:16248   */\n    tag_109:\n        /* \"#utility.yul\":15967:15973   */\n      0x00\n        /* \"#utility.yul\":16016:16018   */\n      0x20\n        /* \"#utility.yul\":16004:16013   */\n      dup3\n        /* \"#utility.yul\":15995:16002   */\n      dup5\n        /* \"#utility.yul\":15991:16014   */\n      sub\n        /* \"#utility.yul\":15987:16019   */\n      slt\n        /* \"#utility.yul\":15984:16103   */\n      iszero\n      tag_551\n      jumpi\n        /* \"#utility.yul\":16022:16101   */\n      tag_552\n      tag_355\n      jump\t// in\n    tag_552:\n        /* \"#utility.yul\":15984:16103   */\n    tag_551:\n        /* \"#utility.yul\":16142:16143   */\n      0x00\n        /* \"#utility.yul\":16167:16231   */\n      tag_553\n        /* \"#utility.yul\":16223:16230   */\n      dup5\n        /* \"#utility.yul\":16214:16220   */\n      dup3\n        /* \"#utility.yul\":16203:16212   */\n      dup6\n        /* \"#utility.yul\":16199:16221   */\n      add\n        /* \"#utility.yul\":16167:16231   */\n      tag_394\n      jump\t// in\n    tag_553:\n        /* \"#utility.yul\":16157:16231   */\n      swap2\n      pop\n        /* \"#utility.yul\":16113:16241   */\n      pop\n        /* \"#utility.yul\":15897:16248   */\n      swap3\n      swap2\n      pop\n      pop\n      jump\t// out\n        /* \"#utility.yul\":16254:16423   */\n    tag_395:\n        /* \"#utility.yul\":16394:16415   */\n      0x496e73756666696369656e74206472696e6b7300000000000000000000000000\n        /* \"#utility.yul\":16390:16391   */\n      0x00\n        /* \"#utility.yul\":16382:16388   */\n      dup3\n        /* \"#utility.yul\":16378:16392   */\n      add\n        /* \"#utility.yul\":16371:16416   */\n      mstore\n        /* \"#utility.yul\":16254:16423   */\n      pop\n      jump\t// out\n        /* \"#utility.yul\":16429:16795   */\n    tag_396:\n        /* \"#utility.yul\":16571:16574   */\n      0x00\n        /* \"#utility.yul\":16592:16659   */\n      tag_556\n        /* \"#utility.yul\":16656:16658   */\n      0x13\n        /* \"#utility.yul\":16651:16654   */\n      dup4\n        /* \"#utility.yul\":16592:16659   */\n      tag_389\n      jump\t// in\n    tag_556:\n        /* \"#utility.yul\":16585:16659   */\n      swap2\n      pop\n        /* \"#utility.yul\":16668:16761   */\n      tag_557\n        /* \"#utility.yul\":16757:16760   */\n      dup3\n        /* \"#utility.yul\":16668:16761   */\n      tag_395\n      jump\t// in\n    tag_557:\n        /* \"#utility.yul\":16786:16788   */\n      0x20\n        /* \"#utility.yul\":16781:16784   */\n      dup3\n        /* \"#utility.yul\":16777:16789   */\n      add\n        /* \"#utility.yul\":16770:16789   */\n      swap1\n      pop\n        /* \"#utility.yul\":16429:16795   */\n      swap2\n      swap1\n      pop\n      jump\t// out\n        /* \"#utility.yul\":16801:17220   */\n    tag_112:\n        /* \"#utility.yul\":16967:16971   */\n      0x00\n        /* \"#utility.yul\":17005:17007   */\n      0x20\n        /* \"#utility.yul\":16994:17003   */\n      dup3\n        /* \"#utility.yul\":16990:17008   */\n      add\n        /* \"#utility.yul\":16982:17008   */\n      swap1\n      pop\n        /* \"#utility.yul\":17054:17063   */\n      dup2\n        /* \"#utility.yul\":17048:17052   */\n      dup2\n        /* \"#utility.yul\":17044:17064   */\n      sub\n        /* \"#utility.yul\":17040:17041   */\n      0x00\n        /* \"#utility.yul\":17029:17038   */\n      dup4\n        /* \"#utility.yul\":17025:17042   */\n      add\n        /* \"#utility.yul\":17018:17065   */\n      mstore\n        /* \"#utility.yul\":17082:17213   */\n      tag_559\n        /* \"#utility.yul\":17208:17212   */\n      dup2\n        /* \"#utility.yul\":17082:17213   */\n      tag_396\n      jump\t// in\n    tag_559:\n        /* \"#utility.yul\":17074:17213   */\n      swap1\n      pop\n        /* \"#utility.yul\":16801:17220   */\n      swap2\n      swap1\n      pop\n      jump\t// out\n        /* \"#utility.yul\":17226:17558   */\n    tag_114:\n        /* \"#utility.yul\":17347:17351   */\n      0x00\n        /* \"#utility.yul\":17385:17387   */\n      0x40\n        /* \"#utility.yul\":17374:17383   */\n      dup3\n        /* \"#utility.yul\":17370:17388   */\n      add\n        /* \"#utility.yul\":17362:17388   */\n      swap1\n      pop\n        /* \"#utility.yul\":17398:17469   */\n      tag_561\n        /* \"#utility.yul\":17466:17467   */\n      0x00\n        /* \"#utility.yul\":17455:17464   */\n      dup4\n        /* \"#utility.yul\":17451:17468   */\n      add\n        /* \"#utility.yul\":17442:17448   */\n      dup6\n        /* \"#utility.yul\":17398:17469   */\n      tag_378\n      jump\t// in\n    tag_561:\n        /* \"#utility.yul\":17479:17551   */\n      tag_562\n        /* \"#utility.yul\":17547:17549   */\n      0x20\n        /* \"#utility.yul\":17536:17545   */\n      dup4\n        /* \"#utility.yul\":17532:17550   */\n      add\n        /* \"#utility.yul\":17523:17529   */\n      dup5\n        /* \"#utility.yul\":17479:17551   */\n      tag_353\n      jump\t// in\n    tag_562:\n        /* \"#utility.yul\":17226:17558   */\n      swap4\n      swap3\n      pop\n      pop\n      pop\n      jump\t// out\n        /* \"#utility.yul\":17564:17643   */\n    tag_397:\n        /* \"#utility.yul\":17603:17610   */\n      0x00\n        /* \"#utility.yul\":17632:17637   */\n      dup2\n        /* \"#utility.yul\":17621:17637   */\n      swap1\n      pop\n        /* \"#utility.yul\":17564:17643   */\n      swap2\n      swap1\n      pop\n      jump\t// out\n        /* \"#utility.yul\":17649:17806   */\n    tag_398:\n        /* \"#utility.yul\":17754:17799   */\n      tag_565\n        /* \"#utility.yul\":17774:17798   */\n      tag_566\n        /* \"#utility.yul\":17792:17797   */\n      dup3\n        /* \"#utility.yul\":17774:17798   */\n      tag_352\n      jump\t// in\n    tag_566:\n        /* \"#utility.yul\":17754:17799   */\n      tag_397\n      jump\t// in\n    tag_565:\n        /* \"#utility.yul\":17749:17752   */\n      dup3\n        /* \"#utility.yul\":17742:17800   */\n      mstore\n        /* \"#utility.yul\":17649:17806   */\n      pop\n      pop\n      jump\t// out\n        /* \"#utility.yul\":17812:18209   */\n    tag_119:\n        /* \"#utility.yul\":17952:17955   */\n      0x00\n        /* \"#utility.yul\":17967:18042   */\n      tag_568\n        /* \"#utility.yul\":18038:18041   */\n      dup3\n        /* \"#utility.yul\":18029:18035   */\n      dup6\n        /* \"#utility.yul\":17967:18042   */\n      tag_398\n      jump\t// in\n    tag_568:\n        /* \"#utility.yul\":18067:18069   */\n      0x20\n        /* \"#utility.yul\":18062:18065   */\n      dup3\n        /* \"#utility.yul\":18058:18070   */\n      add\n        /* \"#utility.yul\":18051:18070   */\n      swap2\n      pop\n        /* \"#utility.yul\":18080:18155   */\n      tag_569\n        /* \"#utility.yul\":18151:18154   */\n      dup3\n        /* \"#utility.yul\":18142:18148   */\n      dup5\n        /* \"#utility.yul\":18080:18155   */\n      tag_398\n      jump\t// in\n    tag_569:\n        /* \"#utility.yul\":18180:18182   */\n      0x20\n        /* \"#utility.yul\":18175:18178   */\n      dup3\n        /* \"#utility.yul\":18171:18183   */\n      add\n        /* \"#utility.yul\":18164:18183   */\n      swap2\n      pop\n        /* \"#utility.yul\":18200:18203   */\n      dup2\n        /* \"#utility.yul\":18193:18203   */\n      swap1\n      pop\n        /* \"#utility.yul\":17812:18209   */\n      swap4\n      swap3\n      pop\n      pop\n      pop\n      jump\t// out\n        /* \"#utility.yul\":18215:18395   */\n    tag_399:\n        /* \"#utility.yul\":18263:18340   */\n      0x4e487b7100000000000000000000000000000000000000000000000000000000\n        /* \"#utility.yul\":18260:18261   */\n      0x00\n        /* \"#utility.yul\":18253:18341   */\n      mstore\n        /* \"#utility.yul\":18360:18364   */\n      0x12\n        /* \"#utility.yul\":18357:18358   */\n      0x04\n        /* \"#utility.yul\":18350:18365   */\n      mstore\n        /* \"#utility.yul\":18384:18388   */\n      0x24\n        /* \"#utility.yul\":18381:18382   */\n      0x00\n        /* \"#utility.yul\":18374:18389   */\n      revert\n        /* \"#utility.yul\":18401:18577   */\n    tag_121:\n        /* \"#utility.yul\":18433:18434   */\n      0x00\n        /* \"#utility.yul\":18450:18470   */\n      tag_572\n        /* \"#utility.yul\":18468:18469   */\n      dup3\n        /* \"#utility.yul\":18450:18470   */\n      tag_352\n      jump\t// in\n    tag_572:\n        /* \"#utility.yul\":18445:18470   */\n      swap2\n      pop\n        /* \"#utility.yul\":18484:18504   */\n      tag_573\n        /* \"#utility.yul\":18502:18503   */\n      dup4\n        /* \"#utility.yul\":18484:18504   */\n      tag_352\n      jump\t// in\n    tag_573:\n        /* \"#utility.yul\":18479:18504   */\n      swap3\n      pop\n        /* \"#utility.yul\":18523:18524   */\n      dup3\n        /* \"#utility.yul\":18513:18548   */\n      tag_574\n      jumpi\n        /* \"#utility.yul\":18528:18546   */\n      tag_575\n      tag_399\n      jump\t// in\n    tag_575:\n        /* \"#utility.yul\":18513:18548   */\n    tag_574:\n        /* \"#utility.yul\":18569:18570   */\n      dup3\n        /* \"#utility.yul\":18566:18567   */\n      dup3\n        /* \"#utility.yul\":18562:18571   */\n      mod\n        /* \"#utility.yul\":18557:18571   */\n      swap1\n      pop\n        /* \"#utility.yul\":18401:18577   */\n      swap3\n      swap2\n      pop\n      pop\n      jump\t// out\n        /* \"#utility.yul\":18583:18763   */\n    tag_400:\n        /* \"#utility.yul\":18631:18708   */\n      0x4e487b7100000000000000000000000000000000000000000000000000000000\n        /* \"#utility.yul\":18628:18629   */\n      0x00\n        /* \"#utility.yul\":18621:18709   */\n      mstore\n        /* \"#utility.yul\":18728:18732   */\n      0x11\n        /* \"#utility.yul\":18725:18726   */\n      0x04\n        /* \"#utility.yul\":18718:18733   */\n      mstore\n        /* \"#utility.yul\":18752:18756   */\n      0x24\n        /* \"#utility.yul\":18749:18750   */\n      0x00\n        /* \"#utility.yul\":18742:18757   */\n      revert\n        /* \"#utility.yul\":18769:18960   */\n    tag_124:\n        /* \"#utility.yul\":18809:18812   */\n      0x00\n        /* \"#utility.yul\":18828:18848   */\n      tag_578\n        /* \"#utility.yul\":18846:18847   */\n      dup3\n        /* \"#utility.yul\":18828:18848   */\n      tag_352\n      jump\t// in\n    tag_578:\n        /* \"#utility.yul\":18823:18848   */\n      swap2\n      pop\n        /* \"#utility.yul\":18862:18882   */\n      tag_579\n        /* \"#utility.yul\":18880:18881   */\n      dup4\n        /* \"#utility.yul\":18862:18882   */\n      tag_352\n      jump\t// in\n    tag_579:\n        /* \"#utility.yul\":18857:18882   */\n      swap3\n      pop\n        /* \"#utility.yul\":18905:18906   */\n      dup3\n        /* \"#utility.yul\":18902:18903   */\n      dup3\n        /* \"#utility.yul\":18898:18907   */\n      add\n        /* \"#utility.yul\":18891:18907   */\n      swap1\n      pop\n        /* \"#utility.yul\":18926:18929   */\n      dup1\n        /* \"#utility.yul\":18923:18924   */\n      dup3\n        /* \"#utility.yul\":18920:18930   */\n      gt\n        /* \"#utility.yul\":18917:18953   */\n      iszero\n      tag_580\n      jumpi\n        /* \"#utility.yul\":18933:18951   */\n      tag_581\n      tag_400\n      jump\t// in\n    tag_581:\n        /* \"#utility.yul\":18917:18953   */\n    tag_580:\n        /* \"#utility.yul\":18769:18960   */\n      swap3\n      swap2\n      pop\n      pop\n      jump\t// out\n        /* \"#utility.yul\":18966:19137   */\n    tag_401:\n        /* \"#utility.yul\":19106:19129   */\n      0x746f6b656e206973206e6f742072656769737465720000000000000000000000\n        /* \"#utility.yul\":19102:19103   */\n      0x00\n        /* \"#utility.yul\":19094:19100   */\n      dup3\n        /* \"#utility.yul\":19090:19104   */\n      add\n        /* \"#utility.yul\":19083:19130   */\n      mstore\n        /* \"#utility.yul\":18966:19137   */\n      pop\n      jump\t// out\n        /* \"#utility.yul\":19143:19509   */\n    tag_402:\n        /* \"#utility.yul\":19285:19288   */\n      0x00\n        /* \"#utility.yul\":19306:19373   */\n      tag_584\n        /* \"#utility.yul\":19370:19372   */\n      0x15\n        /* \"#utility.yul\":19365:19368   */\n      dup4\n        /* \"#utility.yul\":19306:19373   */\n      tag_389\n      jump\t// in\n    tag_584:\n        /* \"#utility.yul\":19299:19373   */\n      swap2\n      pop\n        /* \"#utility.yul\":19382:19475   */\n      tag_585\n        /* \"#utility.yul\":19471:19474   */\n      dup3\n        /* \"#utility.yul\":19382:19475   */\n      tag_401\n      jump\t// in\n    tag_585:\n        /* \"#utility.yul\":19500:19502   */\n      0x20\n        /* \"#utility.yul\":19495:19498   */\n      dup3\n        /* \"#utility.yul\":19491:19503   */\n      add\n        /* \"#utility.yul\":19484:19503   */\n      swap1\n      pop\n        /* \"#utility.yul\":19143:19509   */\n      swap2\n      swap1\n      pop\n      jump\t// out\n        /* \"#utility.yul\":19515:19934   */\n    tag_147:\n        /* \"#utility.yul\":19681:19685   */\n      0x00\n        /* \"#utility.yul\":19719:19721   */\n      0x20\n        /* \"#utility.yul\":19708:19717   */\n      dup3\n        /* \"#utility.yul\":19704:19722   */\n      add\n        /* \"#utility.yul\":19696:19722   */\n      swap1\n      pop\n        /* \"#utility.yul\":19768:19777   */\n      dup2\n        /* \"#utility.yul\":19762:19766   */\n      dup2\n        /* \"#utility.yul\":19758:19778   */\n      sub\n        /* \"#utility.yul\":19754:19755   */\n      0x00\n        /* \"#utility.yul\":19743:19752   */\n      dup4\n        /* \"#utility.yul\":19739:19756   */\n      add\n        /* \"#utility.yul\":19732:19779   */\n      mstore\n        /* \"#utility.yul\":19796:19927   */\n      tag_587\n        /* \"#utility.yul\":19922:19926   */\n      dup2\n        /* \"#utility.yul\":19796:19927   */\n      tag_402\n      jump\t// in\n    tag_587:\n        /* \"#utility.yul\":19788:19927   */\n      swap1\n      pop\n        /* \"#utility.yul\":19515:19934   */\n      swap2\n      swap1\n      pop\n      jump\t// out\n        /* \"#utility.yul\":19940:20120   */\n    tag_153:\n        /* \"#utility.yul\":19988:20065   */\n      0x4e487b7100000000000000000000000000000000000000000000000000000000\n        /* \"#utility.yul\":19985:19986   */\n      0x00\n        /* \"#utility.yul\":19978:20066   */\n      mstore\n        /* \"#utility.yul\":20085:20089   */\n      0x32\n        /* \"#utility.yul\":20082:20083   */\n      0x04\n        /* \"#utility.yul\":20075:20090   */\n      mstore\n        /* \"#utility.yul\":20109:20113   */\n      0x24\n        /* \"#utility.yul\":20106:20107   */\n      0x00\n        /* \"#utility.yul\":20099:20114   */\n      revert\n        /* \"#utility.yul\":20126:20320   */\n    tag_157:\n        /* \"#utility.yul\":20166:20170   */\n      0x00\n        /* \"#utility.yul\":20186:20206   */\n      tag_590\n        /* \"#utility.yul\":20204:20205   */\n      dup3\n        /* \"#utility.yul\":20186:20206   */\n      tag_352\n      jump\t// in\n    tag_590:\n        /* \"#utility.yul\":20181:20206   */\n      swap2\n      pop\n        /* \"#utility.yul\":20220:20240   */\n      tag_591\n        /* \"#utility.yul\":20238:20239   */\n      dup4\n        /* \"#utility.yul\":20220:20240   */\n      tag_352\n      jump\t// in\n    tag_591:\n        /* \"#utility.yul\":20215:20240   */\n      swap3\n      pop\n        /* \"#utility.yul\":20264:20265   */\n      dup3\n        /* \"#utility.yul\":20261:20262   */\n      dup3\n        /* \"#utility.yul\":20257:20266   */\n      sub\n        /* \"#utility.yul\":20249:20266   */\n      swap1\n      pop\n        /* \"#utility.yul\":20288:20289   */\n      dup2\n        /* \"#utility.yul\":20282:20286   */\n      dup2\n        /* \"#utility.yul\":20279:20290   */\n      gt\n        /* \"#utility.yul\":20276:20313   */\n      iszero\n      tag_592\n      jumpi\n        /* \"#utility.yul\":20293:20311   */\n      tag_593\n      tag_400\n      jump\t// in\n    tag_593:\n        /* \"#utility.yul\":20276:20313   */\n    tag_592:\n        /* \"#utility.yul\":20126:20320   */\n      swap3\n      swap2\n      pop\n      pop\n      jump\t// out\n        /* \"#utility.yul\":20326:20506   */\n    tag_166:\n        /* \"#utility.yul\":20374:20451   */\n      0x4e487b7100000000000000000000000000000000000000000000000000000000\n        /* \"#utility.yul\":20371:20372   */\n      0x00\n        /* \"#utility.yul\":20364:20452   */\n      mstore\n        /* \"#utility.yul\":20471:20475   */\n      0x31\n        /* \"#utility.yul\":20468:20469   */\n      0x04\n        /* \"#utility.yul\":20461:20476   */\n      mstore\n        /* \"#utility.yul\":20495:20499   */\n      0x24\n        /* \"#utility.yul\":20492:20493   */\n      0x00\n        /* \"#utility.yul\":20485:20500   */\n      revert\n        /* \"#utility.yul\":20512:20688   */\n    tag_403:\n        /* \"#utility.yul\":20652:20680   */\n      0x4461696c7920626174746c65206c696d69742072656163686564000000000000\n        /* \"#utility.yul\":20648:20649   */\n      0x00\n        /* \"#utility.yul\":20640:20646   */\n      dup3\n        /* \"#utility.yul\":20636:20650   */\n      add\n        /* \"#utility.yul\":20629:20681   */\n      mstore\n        /* \"#utility.yul\":20512:20688   */\n      pop\n      jump\t// out\n        /* \"#utility.yul\":20694:21060   */\n    tag_404:\n        /* \"#utility.yul\":20836:20839   */\n      0x00\n        /* \"#utility.yul\":20857:20924   */\n      tag_597\n        /* \"#utility.yul\":20921:20923   */\n      0x1a\n        /* \"#utility.yul\":20916:20919   */\n      dup4\n        /* \"#utility.yul\":20857:20924   */\n      tag_389\n      jump\t// in\n    tag_597:\n        /* \"#utility.yul\":20850:20924   */\n      swap2\n      pop\n        /* \"#utility.yul\":20933:21026   */\n      tag_598\n        /* \"#utility.yul\":21022:21025   */\n      dup3\n        /* \"#utility.yul\":20933:21026   */\n      tag_403\n      jump\t// in\n    tag_598:\n        /* \"#utility.yul\":21051:21053   */\n      0x20\n        /* \"#utility.yul\":21046:21049   */\n      dup3\n        /* \"#utility.yul\":21042:21054   */\n      add\n        /* \"#utility.yul\":21035:21054   */\n      swap1\n      pop\n        /* \"#utility.yul\":20694:21060   */\n      swap2\n      swap1\n      pop\n      jump\t// out\n        /* \"#utility.yul\":21066:21485   */\n    tag_175:\n        /* \"#utility.yul\":21232:21236   */\n      0x00\n        /* \"#utility.yul\":21270:21272   */\n      0x20\n        /* \"#utility.yul\":21259:21268   */\n      dup3\n        /* \"#utility.yul\":21255:21273   */\n      add\n        /* \"#utility.yul\":21247:21273   */\n      swap1\n      pop\n        /* \"#utility.yul\":21319:21328   */\n      dup2\n        /* \"#utility.yul\":21313:21317   */\n      dup2\n        /* \"#utility.yul\":21309:21329   */\n      sub\n        /* \"#utility.yul\":21305:21306   */\n      0x00\n        /* \"#utility.yul\":21294:21303   */\n      dup4\n        /* \"#utility.yul\":21290:21307   */\n      add\n        /* \"#utility.yul\":21283:21330   */\n      mstore\n        /* \"#utility.yul\":21347:21478   */\n      tag_600\n        /* \"#utility.yul\":21473:21477   */\n      dup2\n        /* \"#utility.yul\":21347:21478   */\n      tag_404\n      jump\t// in\n    tag_600:\n        /* \"#utility.yul\":21339:21478   */\n      swap1\n      pop\n        /* \"#utility.yul\":21066:21485   */\n      swap2\n      swap1\n      pop\n      jump\t// out\n        /* \"#utility.yul\":21491:21658   */\n    tag_405:\n        /* \"#utility.yul\":21631:21650   */\n      0x4e6f206f70706f6e656e7420666f756e64000000000000000000000000000000\n        /* \"#utility.yul\":21627:21628   */\n      0x00\n        /* \"#utility.yul\":21619:21625   */\n      dup3\n        /* \"#utility.yul\":21615:21629   */\n      add\n        /* \"#utility.yul\":21608:21651   */\n      mstore\n        /* \"#utility.yul\":21491:21658   */\n      pop\n      jump\t// out\n        /* \"#utility.yul\":21664:22030   */\n    tag_406:\n        /* \"#utility.yul\":21806:21809   */\n      0x00\n        /* \"#utility.yul\":21827:21894   */\n      tag_603\n        /* \"#utility.yul\":21891:21893   */\n      0x11\n        /* \"#utility.yul\":21886:21889   */\n      dup4\n        /* \"#utility.yul\":21827:21894   */\n      tag_389\n      jump\t// in\n    tag_603:\n        /* \"#utility.yul\":21820:21894   */\n      swap2\n      pop\n        /* \"#utility.yul\":21903:21996   */\n      tag_604\n        /* \"#utility.yul\":21992:21995   */\n      dup3\n        /* \"#utility.yul\":21903:21996   */\n      tag_405\n      jump\t// in\n    tag_604:\n        /* \"#utility.yul\":22021:22023   */\n      0x20\n        /* \"#utility.yul\":22016:22019   */\n      dup3\n        /* \"#utility.yul\":22012:22024   */\n      add\n        /* \"#utility.yul\":22005:22024   */\n      swap1\n      pop\n        /* \"#utility.yul\":21664:22030   */\n      swap2\n      swap1\n      pop\n      jump\t// out\n        /* \"#utility.yul\":22036:22455   */\n    tag_187:\n        /* \"#utility.yul\":22202:22206   */\n      0x00\n        /* \"#utility.yul\":22240:22242   */\n      0x20\n        /* \"#utility.yul\":22229:22238   */\n      dup3\n        /* \"#utility.yul\":22225:22243   */\n      add\n        /* \"#utility.yul\":22217:22243   */\n      swap1\n      pop\n        /* \"#utility.yul\":22289:22298   */\n      dup2\n        /* \"#utility.yul\":22283:22287   */\n      dup2\n        /* \"#utility.yul\":22279:22299   */\n      sub\n        /* \"#utility.yul\":22275:22276   */\n      0x00\n        /* \"#utility.yul\":22264:22273   */\n      dup4\n        /* \"#utility.yul\":22260:22277   */\n      add\n        /* \"#utility.yul\":22253:22300   */\n      mstore\n        /* \"#utility.yul\":22317:22448   */\n      tag_606\n        /* \"#utility.yul\":22443:22447   */\n      dup2\n        /* \"#utility.yul\":22317:22448   */\n      tag_406\n      jump\t// in\n    tag_606:\n        /* \"#utility.yul\":22309:22448   */\n      swap1\n      pop\n        /* \"#utility.yul\":22036:22455   */\n      swap2\n      swap1\n      pop\n      jump\t// out\n        /* \"#utility.yul\":22461:22694   */\n    tag_189:\n        /* \"#utility.yul\":22500:22503   */\n      0x00\n        /* \"#utility.yul\":22523:22547   */\n      tag_608\n        /* \"#utility.yul\":22541:22546   */\n      dup3\n        /* \"#utility.yul\":22523:22547   */\n      tag_352\n      jump\t// in\n    tag_608:\n        /* \"#utility.yul\":22514:22547   */\n      swap2\n      pop\n        /* \"#utility.yul\":22569:22635   */\n      0xffffffffffffffffffffffffffffffffffffffffffffffffffffffffffffffff\n        /* \"#utility.yul\":22562:22567   */\n      dup3\n        /* \"#utility.yul\":22559:22636   */\n      sub\n        /* \"#utility.yul\":22556:22659   */\n      tag_609\n      jumpi\n        /* \"#utility.yul\":22639:22657   */\n      tag_610\n      tag_400\n      jump\t// in\n    tag_610:\n        /* \"#utility.yul\":22556:22659   */\n    tag_609:\n        /* \"#utility.yul\":22686:22687   */\n      0x01\n        /* \"#utility.yul\":22679:22684   */\n      dup3\n        /* \"#utility.yul\":22675:22688   */\n      add\n        /* \"#utility.yul\":22668:22688   */\n      swap1\n      pop\n        /* \"#utility.yul\":22461:22694   */\n      swap2\n      swap1\n      pop\n      jump\t// out\n        /* \"#utility.yul\":22700:22816   */\n    tag_407:\n        /* \"#utility.yul\":22770:22791   */\n      tag_612\n        /* \"#utility.yul\":22785:22790   */\n      dup2\n        /* \"#utility.yul\":22770:22791   */\n      tag_364\n      jump\t// in\n    tag_612:\n        /* \"#utility.yul\":22763:22768   */\n      dup2\n        /* \"#utility.yul\":22760:22792   */\n      eq\n        /* \"#utility.yul\":22750:22810   */\n      tag_613\n      jumpi\n        /* \"#utility.yul\":22806:22807   */\n      0x00\n        /* \"#utility.yul\":22803:22804   */\n      dup1\n        /* \"#utility.yul\":22796:22808   */\n      revert\n        /* \"#utility.yul\":22750:22810   */\n    tag_613:\n        /* \"#utility.yul\":22700:22816   */\n      pop\n      jump\t// out\n        /* \"#utility.yul\":22822:22959   */\n    tag_408:\n        /* \"#utility.yul\":22876:22881   */\n      0x00\n        /* \"#utility.yul\":22907:22913   */\n      dup2\n        /* \"#utility.yul\":22901:22914   */\n      mload\n        /* \"#utility.yul\":22892:22914   */\n      swap1\n      pop\n        /* \"#utility.yul\":22923:22953   */\n      tag_615\n        /* \"#utility.yul\":22947:22952   */\n      dup2\n        /* \"#utility.yul\":22923:22953   */\n      tag_407\n      jump\t// in\n    tag_615:\n        /* \"#utility.yul\":22822:22959   */\n      swap3\n      swap2\n      pop\n      pop\n      jump\t// out\n        /* \"#utility.yul\":22965:23310   */\n    tag_195:\n        /* \"#utility.yul\":23032:23038   */\n      0x00\n        /* \"#utility.yul\":23081:23083   */\n      0x20\n        /* \"#utility.yul\":23069:23078   */\n      dup3\n        /* \"#utility.yul\":23060:23067   */\n      dup5\n        /* \"#utility.yul\":23056:23079   */\n      sub\n        /* \"#utility.yul\":23052:23084   */\n      slt\n        /* \"#utility.yul\":23049:23168   */\n      iszero\n      tag_617\n      jumpi\n        /* \"#utility.yul\":23087:23166   */\n      tag_618\n      tag_355\n      jump\t// in\n    tag_618:\n        /* \"#utility.yul\":23049:23168   */\n    tag_617:\n        /* \"#utility.yul\":23207:23208   */\n      0x00\n        /* \"#utility.yul\":23232:23293   */\n      tag_619\n        /* \"#utility.yul\":23285:23292   */\n      dup5\n        /* \"#utility.yul\":23276:23282   */\n      dup3\n        /* \"#utility.yul\":23265:23274   */\n      dup6\n        /* \"#utility.yul\":23261:23283   */\n      add\n        /* \"#utility.yul\":23232:23293   */\n      tag_408\n      jump\t// in\n    tag_619:\n        /* \"#utility.yul\":23222:23293   */\n      swap2\n      pop\n        /* \"#utility.yul\":23178:23303   */\n      pop\n        /* \"#utility.yul\":22965:23310   */\n      swap3\n      swap2\n      pop\n      pop\n      jump\t// out\n        /* \"#utility.yul\":23316:23484   */\n    tag_409:\n        /* \"#utility.yul\":23456:23476   */\n      0x416c726561647920726567697374657265640000000000000000000000000000\n        /* \"#utility.yul\":23452:23453   */\n      0x00\n        /* \"#utility.yul\":23444:23450   */\n      dup3\n        /* \"#utility.yul\":23440:23454   */\n      add\n        /* \"#utility.yul\":23433:23477   */\n      mstore\n        /* \"#utility.yul\":23316:23484   */\n      pop\n      jump\t// out\n        /* \"#utility.yul\":23490:23856   */\n    tag_410:\n        /* \"#utility.yul\":23632:23635   */\n      0x00\n        /* \"#utility.yul\":23653:23720   */\n      tag_622\n        /* \"#utility.yul\":23717:23719   */\n      0x12\n        /* \"#utility.yul\":23712:23715   */\n      dup4\n        /* \"#utility.yul\":23653:23720   */\n      tag_389\n      jump\t// in\n    tag_622:\n        /* \"#utility.yul\":23646:23720   */\n      swap2\n      pop\n        /* \"#utility.yul\":23729:23822   */\n      tag_623\n        /* \"#utility.yul\":23818:23821   */\n      dup3\n        /* \"#utility.yul\":23729:23822   */\n      tag_409\n      jump\t// in\n    tag_623:\n        /* \"#utility.yul\":23847:23849   */\n      0x20\n        /* \"#utility.yul\":23842:23845   */\n      dup3\n        /* \"#utility.yul\":23838:23850   */\n      add\n        /* \"#utility.yul\":23831:23850   */\n      swap1\n      pop\n        /* \"#utility.yul\":23490:23856   */\n      swap2\n      swap1\n      pop\n      jump\t// out\n        /* \"#utility.yul\":23862:24281   */\n    tag_232:\n        /* \"#utility.yul\":24028:24032   */\n      0x00\n        /* \"#utility.yul\":24066:24068   */\n      0x20\n        /* \"#utility.yul\":24055:24064   */\n      dup3\n        /* \"#utility.yul\":24051:24069   */\n      add\n        /* \"#utility.yul\":24043:24069   */\n      swap1\n      pop\n        /* \"#utility.yul\":24115:24124   */\n      dup2\n        /* \"#utility.yul\":24109:24113   */\n      dup2\n        /* \"#utility.yul\":24105:24125   */\n      sub\n        /* \"#utility.yul\":24101:24102   */\n      0x00\n        /* \"#utility.yul\":24090:24099   */\n      dup4\n        /* \"#utility.yul\":24086:24103   */\n      add\n        /* \"#utility.yul\":24079:24126   */\n      mstore\n        /* \"#utility.yul\":24143:24274   */\n      tag_625\n        /* \"#utility.yul\":24269:24273   */\n      dup2\n        /* \"#utility.yul\":24143:24274   */\n      tag_410\n      jump\t// in\n    tag_625:\n        /* \"#utility.yul\":24135:24274   */\n      swap1\n      pop\n        /* \"#utility.yul\":23862:24281   */\n      swap2\n      swap1\n      pop\n      jump\t// out\n        /* \"#utility.yul\":24287:24401   */\n    tag_411:\n        /* \"#utility.yul\":24375:24376   */\n      0x04\n        /* \"#utility.yul\":24368:24373   */\n      dup2\n        /* \"#utility.yul\":24365:24377   */\n      lt\n        /* \"#utility.yul\":24355:24395   */\n      tag_627\n      jumpi\n        /* \"#utility.yul\":24391:24392   */\n      0x00\n        /* \"#utility.yul\":24388:24389   */\n      dup1\n        /* \"#utility.yul\":24381:24393   */\n      revert\n        /* \"#utility.yul\":24355:24395   */\n    tag_627:\n        /* \"#utility.yul\":24287:24401   */\n      pop\n      jump\t// out\n        /* \"#utility.yul\":24407:24580   */\n    tag_412:\n        /* \"#utility.yul\":24479:24484   */\n      0x00\n        /* \"#utility.yul\":24510:24516   */\n      dup2\n        /* \"#utility.yul\":24504:24517   */\n      mload\n        /* \"#utility.yul\":24495:24517   */\n      swap1\n      pop\n        /* \"#utility.yul\":24526:24574   */\n      tag_629\n        /* \"#utility.yul\":24568:24573   */\n      dup2\n        /* \"#utility.yul\":24526:24574   */\n      tag_411\n      jump\t// in\n    tag_629:\n        /* \"#utility.yul\":24407:24580   */\n      swap3\n      swap2\n      pop\n      pop\n      jump\t// out\n        /* \"#utility.yul\":24586:25123   */\n    tag_237:\n        /* \"#utility.yul\":24680:24686   */\n      0x00\n        /* \"#utility.yul\":24688:24694   */\n      dup1\n        /* \"#utility.yul\":24737:24739   */\n      0x40\n        /* \"#utility.yul\":24725:24734   */\n      dup4\n        /* \"#utility.yul\":24716:24723   */\n      dup6\n        /* \"#utility.yul\":24712:24735   */\n      sub\n        /* \"#utility.yul\":24708:24740   */\n      slt\n        /* \"#utility.yul\":24705:24824   */\n      iszero\n      tag_631\n      jumpi\n        /* \"#utility.yul\":24743:24822   */\n      tag_632\n      tag_355\n      jump\t// in\n    tag_632:\n        /* \"#utility.yul\":24705:24824   */\n    tag_631:\n        /* \"#utility.yul\":24863:24864   */\n      0x00\n        /* \"#utility.yul\":24888:24967   */\n      tag_633\n        /* \"#utility.yul\":24959:24966   */\n      dup6\n        /* \"#utility.yul\":24950:24956   */\n      dup3\n        /* \"#utility.yul\":24939:24948   */\n      dup7\n        /* \"#utility.yul\":24935:24957   */\n      add\n        /* \"#utility.yul\":24888:24967   */\n      tag_412\n      jump\t// in\n    tag_633:\n        /* \"#utility.yul\":24878:24967   */\n      swap3\n      pop\n        /* \"#utility.yul\":24834:24977   */\n      pop\n        /* \"#utility.yul\":25016:25018   */\n      0x20\n        /* \"#utility.yul\":25042:25106   */\n      tag_634\n        /* \"#utility.yul\":25098:25105   */\n      dup6\n        /* \"#utility.yul\":25089:25095   */\n      dup3\n        /* \"#utility.yul\":25078:25087   */\n      dup7\n        /* \"#utility.yul\":25074:25096   */\n      add\n        /* \"#utility.yul\":25042:25106   */\n      tag_394\n      jump\t// in\n    tag_634:\n        /* \"#utility.yul\":25032:25106   */\n      swap2\n      pop\n        /* \"#utility.yul\":24987:25116   */\n      pop\n        /* \"#utility.yul\":24586:25123   */\n      swap3\n      pop\n      swap3\n      swap1\n      pop\n      jump\t// out\n        /* \"#utility.yul\":25129:25309   */\n    tag_240:\n        /* \"#utility.yul\":25177:25254   */\n      0x4e487b7100000000000000000000000000000000000000000000000000000000\n        /* \"#utility.yul\":25174:25175   */\n      0x00\n        /* \"#utility.yul\":25167:25255   */\n      mstore\n        /* \"#utility.yul\":25274:25278   */\n      0x21\n        /* \"#utility.yul\":25271:25272   */\n      0x04\n        /* \"#utility.yul\":25264:25279   */\n      mstore\n        /* \"#utility.yul\":25298:25302   */\n      0x24\n        /* \"#utility.yul\":25295:25296   */\n      0x00\n        /* \"#utility.yul\":25288:25303   */\n      revert\n        /* \"#utility.yul\":25315:25483   */\n    tag_413:\n        /* \"#utility.yul\":25455:25475   */\n      0x746f6b656e206973206e6f74206164756c740000000000000000000000000000\n        /* \"#utility.yul\":25451:25452   */\n      0x00\n        /* \"#utility.yul\":25443:25449   */\n      dup3\n        /* \"#utility.yul\":25439:25453   */\n      add\n        /* \"#utility.yul\":25432:25476   */\n      mstore\n        /* \"#utility.yul\":25315:25483   */\n      pop\n      jump\t// out\n        /* \"#utility.yul\":25489:25855   */\n    tag_414:\n        /* \"#utility.yul\":25631:25634   */\n      0x00\n        /* \"#utility.yul\":25652:25719   */\n      tag_638\n        /* \"#utility.yul\":25716:25718   */\n      0x12\n        /* \"#utility.yul\":25711:25714   */\n      dup4\n        /* \"#utility.yul\":25652:25719   */\n      tag_389\n      jump\t// in\n    tag_638:\n        /* \"#utility.yul\":25645:25719   */\n      swap2\n      pop\n        /* \"#utility.yul\":25728:25821   */\n      tag_639\n        /* \"#utility.yul\":25817:25820   */\n      dup3\n        /* \"#utility.yul\":25728:25821   */\n      tag_413\n      jump\t// in\n    tag_639:\n        /* \"#utility.yul\":25846:25848   */\n      0x20\n        /* \"#utility.yul\":25841:25844   */\n      dup3\n        /* \"#utility.yul\":25837:25849   */\n      add\n        /* \"#utility.yul\":25830:25849   */\n      swap1\n      pop\n        /* \"#utility.yul\":25489:25855   */\n      swap2\n      swap1\n      pop\n      jump\t// out\n        /* \"#utility.yul\":25861:26280   */\n    tag_245:\n        /* \"#utility.yul\":26027:26031   */\n      0x00\n        /* \"#utility.yul\":26065:26067   */\n      0x20\n        /* \"#utility.yul\":26054:26063   */\n      dup3\n        /* \"#utility.yul\":26050:26068   */\n      add\n        /* \"#utility.yul\":26042:26068   */\n      swap1\n      pop\n        /* \"#utility.yul\":26114:26123   */\n      dup2\n        /* \"#utility.yul\":26108:26112   */\n      dup2\n        /* \"#utility.yul\":26104:26124   */\n      sub\n        /* \"#utility.yul\":26100:26101   */\n      0x00\n        /* \"#utility.yul\":26089:26098   */\n      dup4\n        /* \"#utility.yul\":26085:26102   */\n      add\n        /* \"#utility.yul\":26078:26125   */\n      mstore\n        /* \"#utility.yul\":26142:26273   */\n      tag_641\n        /* \"#utility.yul\":26268:26272   */\n      dup2\n        /* \"#utility.yul\":26142:26273   */\n      tag_414\n      jump\t// in\n    tag_641:\n        /* \"#utility.yul\":26134:26273   */\n      swap1\n      pop\n        /* \"#utility.yul\":25861:26280   */\n      swap2\n      swap1\n      pop\n      jump\t// out\n        /* \"#utility.yul\":26286:26471   */\n    tag_280:\n        /* \"#utility.yul\":26326:26327   */\n      0x00\n        /* \"#utility.yul\":26343:26363   */\n      tag_643\n        /* \"#utility.yul\":26361:26362   */\n      dup3\n        /* \"#utility.yul\":26343:26363   */\n      tag_352\n      jump\t// in\n    tag_643:\n        /* \"#utility.yul\":26338:26363   */\n      swap2\n      pop\n        /* \"#utility.yul\":26377:26397   */\n      tag_644\n        /* \"#utility.yul\":26395:26396   */\n      dup4\n        /* \"#utility.yul\":26377:26397   */\n      tag_352\n      jump\t// in\n    tag_644:\n        /* \"#utility.yul\":26372:26397   */\n      swap3\n      pop\n        /* \"#utility.yul\":26416:26417   */\n      dup3\n        /* \"#utility.yul\":26406:26441   */\n      tag_645\n      jumpi\n        /* \"#utility.yul\":26421:26439   */\n      tag_646\n      tag_399\n      jump\t// in\n    tag_646:\n        /* \"#utility.yul\":26406:26441   */\n    tag_645:\n        /* \"#utility.yul\":26463:26464   */\n      dup3\n        /* \"#utility.yul\":26460:26461   */\n      dup3\n        /* \"#utility.yul\":26456:26465   */\n      div\n        /* \"#utility.yul\":26451:26465   */\n      swap1\n      pop\n        /* \"#utility.yul\":26286:26471   */\n      swap3\n      swap2\n      pop\n      pop\n      jump\t// out\n        /* \"#utility.yul\":26477:27015   */\n    tag_287:\n        /* \"#utility.yul\":26645:26648   */\n      0x00\n        /* \"#utility.yul\":26660:26735   */\n      tag_648\n        /* \"#utility.yul\":26731:26734   */\n      dup3\n        /* \"#utility.yul\":26722:26728   */\n      dup7\n        /* \"#utility.yul\":26660:26735   */\n      tag_398\n      jump\t// in\n    tag_648:\n        /* \"#utility.yul\":26760:26762   */\n      0x20\n        /* \"#utility.yul\":26755:26758   */\n      dup3\n        /* \"#utility.yul\":26751:26763   */\n      add\n        /* \"#utility.yul\":26744:26763   */\n      swap2\n      pop\n        /* \"#utility.yul\":26773:26848   */\n      tag_649\n        /* \"#utility.yul\":26844:26847   */\n      dup3\n        /* \"#utility.yul\":26835:26841   */\n      dup6\n        /* \"#utility.yul\":26773:26848   */\n      tag_398\n      jump\t// in\n    tag_649:\n        /* \"#utility.yul\":26873:26875   */\n      0x20\n        /* \"#utility.yul\":26868:26871   */\n      dup3\n        /* \"#utility.yul\":26864:26876   */\n      add\n        /* \"#utility.yul\":26857:26876   */\n      swap2\n      pop\n        /* \"#utility.yul\":26886:26961   */\n      tag_650\n        /* \"#utility.yul\":26957:26960   */\n      dup3\n        /* \"#utility.yul\":26948:26954   */\n      dup5\n        /* \"#utility.yul\":26886:26961   */\n      tag_398\n      jump\t// in\n    tag_650:\n        /* \"#utility.yul\":26986:26988   */\n      0x20\n        /* \"#utility.yul\":26981:26984   */\n      dup3\n        /* \"#utility.yul\":26977:26989   */\n      add\n        /* \"#utility.yul\":26970:26989   */\n      swap2\n      pop\n        /* \"#utility.yul\":27006:27009   */\n      dup2\n        /* \"#utility.yul\":26999:27009   */\n      swap1\n      pop\n        /* \"#utility.yul\":26477:27015   */\n      swap5\n      swap4\n      pop\n      pop\n      pop\n      pop\n      jump\t// out\n        /* \"#utility.yul\":27021:27431   */\n    tag_340:\n        /* \"#utility.yul\":27061:27068   */\n      0x00\n        /* \"#utility.yul\":27084:27104   */\n      tag_652\n        /* \"#utility.yul\":27102:27103   */\n      dup3\n        /* \"#utility.yul\":27084:27104   */\n      tag_352\n      jump\t// in\n    tag_652:\n        /* \"#utility.yul\":27079:27104   */\n      swap2\n      pop\n        /* \"#utility.yul\":27118:27138   */\n      tag_653\n        /* \"#utility.yul\":27136:27137   */\n      dup4\n        /* \"#utility.yul\":27118:27138   */\n      tag_352\n      jump\t// in\n    tag_653:\n        /* \"#utility.yul\":27113:27138   */\n      swap3\n      pop\n        /* \"#utility.yul\":27173:27174   */\n      dup3\n        /* \"#utility.yul\":27170:27171   */\n      dup3\n        /* \"#utility.yul\":27166:27175   */\n      mul\n        /* \"#utility.yul\":27195:27225   */\n      tag_654\n        /* \"#utility.yul\":27213:27224   */\n      dup2\n        /* \"#utility.yul\":27195:27225   */\n      tag_352\n      jump\t// in\n    tag_654:\n        /* \"#utility.yul\":27184:27225   */\n      swap2\n      pop\n        /* \"#utility.yul\":27374:27375   */\n      dup3\n        /* \"#utility.yul\":27365:27372   */\n      dup3\n        /* \"#utility.yul\":27361:27376   */\n      div\n        /* \"#utility.yul\":27358:27359   */\n      dup5\n        /* \"#utility.yul\":27355:27377   */\n      eq\n        /* \"#utility.yul\":27335:27336   */\n      dup4\n        /* \"#utility.yul\":27328:27337   */\n      iszero\n        /* \"#utility.yul\":27308:27391   */\n      or\n        /* \"#utility.yul\":27285:27424   */\n      tag_655\n      jumpi\n        /* \"#utility.yul\":27404:27422   */\n      tag_656\n      tag_400\n      jump\t// in\n    tag_656:\n        /* \"#utility.yul\":27285:27424   */\n    tag_655:\n        /* \"#utility.yul\":27069:27431   */\n      pop\n        /* \"#utility.yul\":27021:27431   */\n      swap3\n      swap2\n      pop\n      pop\n      jump\t// out\n\n    auxdata: 0xa2646970667358221220dd0841dac09c9b50cc0a815c2fa867737ee60c7051b5b4d7287c96bb3f82d87564736f6c634300081a0033\n}\n",
				"bytecode": {
					"linkReferences": {},
					"object": "608060405261012c600c55600a600d556003600e5534801561001f575f80fd5b506040516131a63803806131a6833981810160405281019061004191906102aa565b835f73ffffffffffffffffffffffffffffffffffffffff168173ffffffffffffffffffffffffffffffffffffffff16036100b2575f6040517f1e4fbdf70000000000000000000000000000000000000000000000000000000081526004016100a9919061031d565b60405180910390fd5b6100c18161018b60201b60201c565b508260015f6101000a81548173ffffffffffffffffffffffffffffffffffffffff021916908373ffffffffffffffffffffffffffffffffffffffff1602179055508160025f6101000a81548173ffffffffffffffffffffffffffffffffffffffff021916908373ffffffffffffffffffffffffffffffffffffffff1602179055508060035f6101000a81548173ffffffffffffffffffffffffffffffffffffffff021916908373ffffffffffffffffffffffffffffffffffffffff16021790555050505050610336565b5f805f9054906101000a900473ffffffffffffffffffffffffffffffffffffffff169050815f806101000a81548173ffffffffffffffffffffffffffffffffffffffff021916908373ffffffffffffffffffffffffffffffffffffffff1602179055508173ffffffffffffffffffffffffffffffffffffffff168173ffffffffffffffffffffffffffffffffffffffff167f8be0079c531659141344cd1fd0a4f28419497f9722a3daafe3b4186f6b6457e060405160405180910390a35050565b5f80fd5b5f73ffffffffffffffffffffffffffffffffffffffff82169050919050565b5f61027982610250565b9050919050565b6102898161026f565b8114610293575f80fd5b50565b5f815190506102a481610280565b92915050565b5f805f80608085870312156102c2576102c161024c565b5b5f6102cf87828801610296565b94505060206102e087828801610296565b93505060406102f187828801610296565b925050606061030287828801610296565b91505092959194509250565b6103178161026f565b82525050565b5f6020820190506103305f83018461030e565b92915050565b612e63806103435f395ff3fe608060405234801561000f575f80fd5b506004361061011f575f3560e01c80638da5cb5b116100ab578063cdb6b4f41161006f578063cdb6b4f4146102cd578063d1c6839f146102fd578063e98da9ad14610307578063f2fde38b14610325578063fbc1274d146103415761011f565b80638da5cb5b1461023b5780639711dc38146102595780639e84477d14610277578063ba3c1e4b14610295578063c9f4b515146102b15761011f565b8063593c8253116100f2578063593c8253146101ab5780635d6de796146101c757806368b42e60146101e35780636a6940cc14610213578063715018a6146102315761011f565b8063287ad39f146101235780632d0efac7146101415780634d6c423c1461015d57806353a653eb14610179575b5f80fd5b61012b61035f565b60405161013891906121f5565b60405180910390f35b61015b6004803603810190610156919061223c565b610365565b005b6101776004803603810190610172919061223c565b610711565b005b610193600480360381019061018e919061223c565b610723565b6040516101a2939291906123b8565b60405180910390f35b6101c560048036038101906101c0919061223c565b610800565b005b6101e160048036038101906101dc919061223c565b610b42565b005b6101fd60048036038101906101f8919061223c565b610fb2565b60405161020a9190612447565b60405180910390f35b61021b611004565b60405161022891906124da565b60405180910390f35b610239611029565b005b61024361103c565b6040516102509190612513565b60405180910390f35b610261611063565b60405161026e919061254c565b60405180910390f35b61027f611088565b60405161028c91906121f5565b60405180910390f35b6102af60048036038101906102aa919061223c565b61108e565b005b6102cb60048036038101906102c6919061223c565b6111ed565b005b6102e760048036038101906102e2919061258f565b611593565b6040516102f49190612673565b60405180910390f35b6103056116cb565b005b61030f61173a565b60405161031c91906121f5565b60405180910390f35b61033f600480360381019061033a919061258f565b611740565b005b6103496117c4565b60405161035691906126b3565b60405180910390f35b600c5481565b3373ffffffffffffffffffffffffffffffffffffffff1660015f9054906101000a900473ffffffffffffffffffffffffffffffffffffffff1673ffffffffffffffffffffffffffffffffffffffff16636352211e836040518263ffffffff1660e01b81526004016103d691906121f5565b602060405180830381865afa1580156103f1573d5f803e3d5ffd5b505050506040513d601f19601f8201168201806040525081019061041591906126e0565b73ffffffffffffffffffffffffffffffffffffffff161461046b576040517f08c379a000000000000000000000000000000000000000000000000000000000815260040161046290612765565b60405180910390fd5b8060065f3373ffffffffffffffffffffffffffffffffffffffff1673ffffffffffffffffffffffffffffffffffffffff1681526020019081526020015f2054146104ea576040517f08c379a00000000000000000000000000000000000000000000000000000000081526004016104e1906127cd565b60405180910390fd5b600c5460035f9054906101000a900473ffffffffffffffffffffffffffffffffffffffff1673ffffffffffffffffffffffffffffffffffffffff166370a08231336040518263ffffffff1660e01b81526004016105479190612513565b602060405180830381865afa158015610562573d5f803e3d5ffd5b505050506040513d601f19601f8201168201806040525081019061058691906127ff565b10156105c7576040517f08c379a00000000000000000000000000000000000000000000000000000000081526004016105be90612874565b60405180910390fd5b5f60045f8381526020019081526020015f20905060035f9054906101000a900473ffffffffffffffffffffffffffffffffffffffff1673ffffffffffffffffffffffffffffffffffffffff16639dc29fac33600c546040518363ffffffff1660e01b8152600401610639929190612892565b5f604051808303815f87803b158015610650575f80fd5b505af1158015610662573d5f803e3d5ffd5b505050505f6003424460405160200161067c9291906128d9565b604051602081830303815290604052805190602001205f1c61069e9190612931565b90505f81036106c757600a826001015f8282546106bb919061298e565b9250508190555061070c565b600181036106ef57600a826002015f8282546106e3919061298e565b9250508190555061070b565b600a826003015f828254610703919061298e565b925050819055505b5b505050565b6107196117e9565b80600e8190555050565b5f8060605f60055f8681526020019081526020015f209050805f015481600101548260020180805480602002602001604051908101604052809291908181526020015f905b828210156107ec578382905f5260205f2090600502016040518060400160405290815f82016040518060800160405290815f820154815260200160018201548152602001600282015481526020016003820154815250508152602001600482015f9054906101000a900460ff16151515158152505081526020019060010190610768565b505050509050935093509350509193909250565b3373ffffffffffffffffffffffffffffffffffffffff1660015f9054906101000a900473ffffffffffffffffffffffffffffffffffffffff1673ffffffffffffffffffffffffffffffffffffffff16636352211e836040518263ffffffff1660e01b815260040161087191906121f5565b602060405180830381865afa15801561088c573d5f803e3d5ffd5b505050506040513d601f19601f820116820180604052508101906108b091906126e0565b73ffffffffffffffffffffffffffffffffffffffff1614610906576040517f08c379a00000000000000000000000000000000000000000000000000000000081526004016108fd90612765565b60405180910390fd5b8060065f3373ffffffffffffffffffffffffffffffffffffffff1673ffffffffffffffffffffffffffffffffffffffff1681526020019081526020015f205414610985576040517f08c379a000000000000000000000000000000000000000000000000000000000815260040161097c90612a0b565b60405180910390fd5b60065f3373ffffffffffffffffffffffffffffffffffffffff1673ffffffffffffffffffffffffffffffffffffffff1681526020019081526020015f205f90555f5b600980549050811015610b3e573373ffffffffffffffffffffffffffffffffffffffff16600982815481106109ff576109fe612a29565b5b905f5260205f20015f9054906101000a900473ffffffffffffffffffffffffffffffffffffffff1673ffffffffffffffffffffffffffffffffffffffff1603610b315760096001600980549050610a569190612a56565b81548110610a6757610a66612a29565b5b905f5260205f20015f9054906101000a900473ffffffffffffffffffffffffffffffffffffffff1660098281548110610aa357610aa2612a29565b5b905f5260205f20015f6101000a81548173ffffffffffffffffffffffffffffffffffffffff021916908373ffffffffffffffffffffffffffffffffffffffff1602179055506009805480610afa57610af9612a89565b5b600190038181905f5260205f20015f6101000a81549073ffffffffffffffffffffffffffffffffffffffff02191690559055610b3e565b80806001019150506109c7565b5050565b33610b4b611870565b60085f8373ffffffffffffffffffffffffffffffffffffffff1673ffffffffffffffffffffffffffffffffffffffff1681526020019081526020015f20541015610bd2575f60075f8373ffffffffffffffffffffffffffffffffffffffff1673ffffffffffffffffffffffffffffffffffffffff1681526020019081526020015f20819055505b33600e5460075f8373ffffffffffffffffffffffffffffffffffffffff1673ffffffffffffffffffffffffffffffffffffffff1681526020019081526020015f205410610c54576040517f08c379a0000000000000000000000000000000000000000000000000000000008152600401610c4b90612b00565b60405180910390fd5b3373ffffffffffffffffffffffffffffffffffffffff1660015f9054906101000a900473ffffffffffffffffffffffffffffffffffffffff1673ffffffffffffffffffffffffffffffffffffffff16636352211e856040518263ffffffff1660e01b8152600401610cc591906121f5565b602060405180830381865afa158015610ce0573d5f803e3d5ffd5b505050506040513d601f19601f82011682018060405250810190610d0491906126e0565b73ffffffffffffffffffffffffffffffffffffffff1614610d5a576040517f08c379a0000000000000000000000000000000000000000000000000000000008152600401610d5190612765565b60405180910390fd5b5f610d6433611885565b90505f73ffffffffffffffffffffffffffffffffffffffff168173ffffffffffffffffffffffffffffffffffffffff1603610dd4576040517f08c379a0000000000000000000000000000000000000000000000000000000008152600401610dcb90612b68565b60405180910390fd5b60075f3373ffffffffffffffffffffffffffffffffffffffff1673ffffffffffffffffffffffffffffffffffffffff1681526020019081526020015f205f815480929190610e2190612b86565b9190505550610e2e611870565b60085f3373ffffffffffffffffffffffffffffffffffffffff1673ffffffffffffffffffffffffffffffffffffffff1681526020019081526020015f20819055505f60025f9054906101000a900473ffffffffffffffffffffffffffffffffffffffff1673ffffffffffffffffffffffffffffffffffffffff16632cbae7fa336040518263ffffffff1660e01b8152600401610eca9190612513565b602060405180830381865afa158015610ee5573d5f803e3d5ffd5b505050506040513d601f19601f82011682018060405250810190610f099190612bf7565b905080610f985760025f9054906101000a900473ffffffffffffffffffffffffffffffffffffffff1673ffffffffffffffffffffffffffffffffffffffff1663dec5d109336040518263ffffffff1660e01b8152600401610f6a9190612513565b5f604051808303815f87803b158015610f81575f80fd5b505af1158015610f93573d5f803e3d5ffd5b505050505b610fa2338361197d565b610fab33611b3e565b5050505050565b610fba612161565b60045f8381526020019081526020015f206040518060800160405290815f820154815260200160018201548152602001600282015481526020016003820154815250509050919050565b60025f9054906101000a900473ffffffffffffffffffffffffffffffffffffffff1681565b6110316117e9565b61103a5f611bcc565b565b5f805f9054906101000a900473ffffffffffffffffffffffffffffffffffffffff16905090565b60015f9054906101000a900473ffffffffffffffffffffffffffffffffffffffff1681565b600d5481565b6110966117e9565b5f5b818110156111e9575f600b549050600b5f8154809291906110b890612b86565b9190505550600a81908060018154018082558091505060019003905f5260205f20015f9091909190916101000a81548173ffffffffffffffffffffffffffffffffffffffff021916908373ffffffffffffffffffffffffffffffffffffffff160217905550600981908060018154018082558091505060019003905f5260205f20015f9091909190916101000a81548173ffffffffffffffffffffffffffffffffffffffff021916908373ffffffffffffffffffffffffffffffffffffffff16021790555060405180608001604052805f81526020016064815260200160648152602001606481525060045f8081526020019081526020015f205f820151815f0155602082015181600101556040820151816002015560608201518160030155905050508080600101915050611098565b5050565b3373ffffffffffffffffffffffffffffffffffffffff1660015f9054906101000a900473ffffffffffffffffffffffffffffffffffffffff1673ffffffffffffffffffffffffffffffffffffffff16636352211e836040518263ffffffff1660e01b815260040161125e91906121f5565b602060405180830381865afa158015611279573d5f803e3d5ffd5b505050506040513d601f19601f8201168201806040525081019061129d91906126e0565b73ffffffffffffffffffffffffffffffffffffffff16146112f3576040517f08c379a00000000000000000000000000000000000000000000000000000000081526004016112ea90612765565b60405180910390fd5b5f60065f3373ffffffffffffffffffffffffffffffffffffffff1673ffffffffffffffffffffffffffffffffffffffff1681526020019081526020015f205414611372576040517f08c379a000000000000000000000000000000000000000000000000000000000815260040161136990612c6c565b60405180910390fd5b5f60015f9054906101000a900473ffffffffffffffffffffffffffffffffffffffff1673ffffffffffffffffffffffffffffffffffffffff1663b564ea86836040518263ffffffff1660e01b81526004016113cd91906121f5565b6040805180830381865afa1580156113e7573d5f803e3d5ffd5b505050506040513d601f19601f8201168201806040525081019061140b9190612cad565b50905060038081111561142157611420612ceb565b5b81600381111561143457611433612ceb565b5b14611474576040517f08c379a000000000000000000000000000000000000000000000000000000000815260040161146b90612d62565b60405180910390fd5b5f60045f8481526020019081526020015f205f0154036114ed5760405180608001604052808381526020016064815260200160648152602001606481525060045f8481526020019081526020015f205f820151815f01556020820151816001015560408201518160020155606082015181600301559050505b8160065f3373ffffffffffffffffffffffffffffffffffffffff1673ffffffffffffffffffffffffffffffffffffffff1681526020019081526020015f2081905550600933908060018154018082558091505060019003905f5260205f20015f9091909190916101000a81548173ffffffffffffffffffffffffffffffffffffffff021916908373ffffffffffffffffffffffffffffffffffffffff1602179055505050565b61159b612185565b6115a36117e9565b5f60065f8473ffffffffffffffffffffffffffffffffffffffff1673ffffffffffffffffffffffffffffffffffffffff1681526020019081526020015f2054905060055f8281526020019081526020015f206040518060600160405290815f82015481526020016001820154815260200160028201805480602002602001604051908101604052809291908181526020015f905b828210156116bb578382905f5260205f2090600502016040518060400160405290815f82016040518060800160405290815f820154815260200160018201548152602001600282015481526020016003820154815250508152602001600482015f9054906101000a900460ff16151515158152505081526020019060010190611637565b5050505081525050915050919050565b6116d36117e9565b5f5b600a8054905081116117235760045f8081526020019081526020015f205f8082015f9055600182015f9055600282015f9055600382015f90555050808061171b90612b86565b9150506116d5565b50600a5f61173191906121a4565b5f600b81905550565b600e5481565b6117486117e9565b5f73ffffffffffffffffffffffffffffffffffffffff168173ffffffffffffffffffffffffffffffffffffffff16036117b8575f6040517f1e4fbdf70000000000000000000000000000000000000000000000000000000081526004016117af9190612513565b60405180910390fd5b6117c181611bcc565b50565b60035f9054906101000a900473ffffffffffffffffffffffffffffffffffffffff1681565b6117f1611c8d565b73ffffffffffffffffffffffffffffffffffffffff1661180f61103c565b73ffffffffffffffffffffffffffffffffffffffff161461186e57611832611c8d565b6040517f118cdaa70000000000000000000000000000000000000000000000000000000081526004016118659190612513565b60405180910390fd5b565b5f62015180426118809190612d80565b905090565b5f806009805490509050600181116118a0575f915050611978565b5f805f5b8381101561197057834244836040516020016118c293929190612db0565b604051602081830303815290604052805190602001205f1c6118e49190612931565b9250600983815481106118fa576118f9612a29565b5b905f5260205f20015f9054906101000a900473ffffffffffffffffffffffffffffffffffffffff1691508573ffffffffffffffffffffffffffffffffffffffff168273ffffffffffffffffffffffffffffffffffffffff16146119635781945050505050611978565b80806001019150506118a4565b505f93505050505b919050565b5f60065f8473ffffffffffffffffffffffffffffffffffffffff1673ffffffffffffffffffffffffffffffffffffffff1681526020019081526020015f205490505f60065f8473ffffffffffffffffffffffffffffffffffffffff1673ffffffffffffffffffffffffffffffffffffffff1681526020019081526020015f205490505f60045f8481526020019081526020015f2090505f60045f8481526020019081526020015f2090505f826003015490505f826003015490505f8060024244604051602001611a4e9291906128d9565b604051602081830303815290604052805190602001205f1c611a709190612931565b1490505f5b600a81108015611a8457505f84115b8015611a8f57505f83115b15611b27578115611ad957611ab1866001015487600201548860030154611c94565b92505f830315611b2757611ad2856001015486600201548760030154611c94565b9350611b14565b611af0856001015486600201548760030154611c94565b93505f840315611b2757611b11866001015487600201548860030154611c94565b92505b8080611b1f90612b86565b915050611a75565b50611b33838888611cc6565b505050505050505050565b60035f9054906101000a900473ffffffffffffffffffffffffffffffffffffffff1673ffffffffffffffffffffffffffffffffffffffff166340c10f1982600d546040518363ffffffff1660e01b8152600401611b9c929190612892565b5f604051808303815f87803b158015611bb3575f80fd5b505af1158015611bc5573d5f803e3d5ffd5b5050505050565b5f805f9054906101000a900473ffffffffffffffffffffffffffffffffffffffff169050815f806101000a81548173ffffffffffffffffffffffffffffffffffffffff021916908373ffffffffffffffffffffffffffffffffffffffff1602179055508173ffffffffffffffffffffffffffffffffffffffff168173ffffffffffffffffffffffffffffffffffffffff167f8be0079c531659141344cd1fd0a4f28419497f9722a3daafe3b4186f6b6457e060405160405180910390a35050565b5f33905090565b5f80611ca085856120f2565b9050808311611caf575f611cbc565b8083611cbb9190612a56565b5b9150509392505050565b5f60045f8481526020019081526020015f2090505f60045f8481526020019081526020015f2090505f8503611ef25760055f8481526020019081526020015f205f015f815480929190611d1890612b86565b919050555060055f8481526020019081526020015f206002016040518060400160405280846040518060800160405290815f82015481526020016001820154815260200160028201548152602001600382015481525050815260200160011515815250908060018154018082558091505060019003905f5260205f2090600502015f909190919091505f820151815f015f820151815f015560208201518160010155604082015181600201556060820151816003015550506020820151816004015f6101000a81548160ff021916908315150217905550505060055f8581526020019081526020015f206001015f815480929190611e1590612b86565b919050555060055f8581526020019081526020015f206002016040518060400160405280836040518060800160405290815f8201548152602001600182015481526020016002820154815260200160038201548152505081526020015f1515815250908060018154018082558091505060019003905f5260205f2090600502015f909190919091505f820151815f015f820151815f015560208201518160010155604082015181600201556060820151816003015550506020820151816004015f6101000a81548160ff02191690831515021790555050506120eb565b60055f8581526020019081526020015f205f015f815480929190611f1590612b86565b919050555060055f8581526020019081526020015f206002016040518060400160405280836040518060800160405290815f82015481526020016001820154815260200160028201548152602001600382015481525050815260200160011515815250908060018154018082558091505060019003905f5260205f2090600502015f909190919091505f820151815f015f820151815f015560208201518160010155604082015181600201556060820151816003015550506020820151816004015f6101000a81548160ff021916908315150217905550505060055f8481526020019081526020015f206001015f81548092919061201290612b86565b919050555060055f8481526020019081526020015f206002016040518060400160405280846040518060800160405290815f8201548152602001600182015481526020016002820154815260200160038201548152505081526020015f1515815250908060018154018082558091505060019003905f5260205f2090600502015f909190919091505f820151815f015f820151815f015560208201518160010155604082015181600201556060820151816003015550506020820151816004015f6101000a81548160ff02191690831515021790555050505b5050505050565b5f80600a90505f606484612106919061298e565b6064856121139190612dec565b61211d9190612d80565b90505f605a821161213a578160646121359190612a56565b61213c565b825b90506064818761214c9190612dec565b6121569190612d80565b935050505092915050565b60405180608001604052805f81526020015f81526020015f81526020015f81525090565b60405180606001604052805f81526020015f8152602001606081525090565b5080545f8255905f5260205f20908101906121bf91906121c2565b50565b5b808211156121d9575f815f9055506001016121c3565b5090565b5f819050919050565b6121ef816121dd565b82525050565b5f6020820190506122085f8301846121e6565b92915050565b5f80fd5b61221b816121dd565b8114612225575f80fd5b50565b5f8135905061223681612212565b92915050565b5f602082840312156122515761225061220e565b5b5f61225e84828501612228565b91505092915050565b5f81519050919050565b5f82825260208201905092915050565b5f819050602082019050919050565b612299816121dd565b82525050565b608082015f8201516122b35f850182612290565b5060208201516122c66020850182612290565b5060408201516122d96040850182612290565b5060608201516122ec6060850182612290565b50505050565b5f8115159050919050565b612306816122f2565b82525050565b60a082015f8201516123205f85018261229f565b50602082015161233360808501826122fd565b50505050565b5f612344838361230c565b60a08301905092915050565b5f602082019050919050565b5f61236682612267565b6123708185612271565b935061237b83612281565b805f5b838110156123ab5781516123928882612339565b975061239d83612350565b92505060018101905061237e565b5085935050505092915050565b5f6060820190506123cb5f8301866121e6565b6123d860208301856121e6565b81810360408301526123ea818461235c565b9050949350505050565b608082015f8201516124085f850182612290565b50602082015161241b6020850182612290565b50604082015161242e6040850182612290565b5060608201516124416060850182612290565b50505050565b5f60808201905061245a5f8301846123f4565b92915050565b5f73ffffffffffffffffffffffffffffffffffffffff82169050919050565b5f819050919050565b5f6124a261249d61249884612460565b61247f565b612460565b9050919050565b5f6124b382612488565b9050919050565b5f6124c4826124a9565b9050919050565b6124d4816124ba565b82525050565b5f6020820190506124ed5f8301846124cb565b92915050565b5f6124fd82612460565b9050919050565b61250d816124f3565b82525050565b5f6020820190506125265f830184612504565b92915050565b5f612536826124a9565b9050919050565b6125468161252c565b82525050565b5f60208201905061255f5f83018461253d565b92915050565b61256e816124f3565b8114612578575f80fd5b50565b5f8135905061258981612565565b92915050565b5f602082840312156125a4576125a361220e565b5b5f6125b18482850161257b565b91505092915050565b5f82825260208201905092915050565b5f6125d482612267565b6125de81856125ba565b93506125e983612281565b805f5b838110156126195781516126008882612339565b975061260b83612350565b9250506001810190506125ec565b5085935050505092915050565b5f606083015f83015161263b5f860182612290565b50602083015161264e6020860182612290565b506040830151848203604086015261266682826125ca565b9150508091505092915050565b5f6020820190508181035f83015261268b8184612626565b905092915050565b5f61269d826124a9565b9050919050565b6126ad81612693565b82525050565b5f6020820190506126c65f8301846126a4565b92915050565b5f815190506126da81612565565b92915050565b5f602082840312156126f5576126f461220e565b5b5f612702848285016126cc565b91505092915050565b5f82825260208201905092915050565b7f4e6f74204f776e657200000000000000000000000000000000000000000000005f82015250565b5f61274f60098361270b565b915061275a8261271b565b602082019050919050565b5f6020820190508181035f83015261277c81612743565b9050919050565b7f447261676f6e206e6f74207265676973746572656420666f7220626174746c655f82015250565b5f6127b760208361270b565b91506127c282612783565b602082019050919050565b5f6020820190508181035f8301526127e4816127ab565b9050919050565b5f815190506127f981612212565b92915050565b5f602082840312156128145761281361220e565b5b5f612821848285016127eb565b91505092915050565b7f496e73756666696369656e74206472696e6b73000000000000000000000000005f82015250565b5f61285e60138361270b565b91506128698261282a565b602082019050919050565b5f6020820190508181035f83015261288b81612852565b9050919050565b5f6040820190506128a55f830185612504565b6128b260208301846121e6565b9392505050565b5f819050919050565b6128d36128ce826121dd565b6128b9565b82525050565b5f6128e482856128c2565b6020820191506128f482846128c2565b6020820191508190509392505050565b7f4e487b71000000000000000000000000000000000000000000000000000000005f52601260045260245ffd5b5f61293b826121dd565b9150612946836121dd565b92508261295657612955612904565b5b828206905092915050565b7f4e487b71000000000000000000000000000000000000000000000000000000005f52601160045260245ffd5b5f612998826121dd565b91506129a3836121dd565b92508282019050808211156129bb576129ba612961565b5b92915050565b7f746f6b656e206973206e6f7420726567697374657200000000000000000000005f82015250565b5f6129f560158361270b565b9150612a00826129c1565b602082019050919050565b5f6020820190508181035f830152612a22816129e9565b9050919050565b7f4e487b71000000000000000000000000000000000000000000000000000000005f52603260045260245ffd5b5f612a60826121dd565b9150612a6b836121dd565b9250828203905081811115612a8357612a82612961565b5b92915050565b7f4e487b71000000000000000000000000000000000000000000000000000000005f52603160045260245ffd5b7f4461696c7920626174746c65206c696d697420726561636865640000000000005f82015250565b5f612aea601a8361270b565b9150612af582612ab6565b602082019050919050565b5f6020820190508181035f830152612b1781612ade565b9050919050565b7f4e6f206f70706f6e656e7420666f756e640000000000000000000000000000005f82015250565b5f612b5260118361270b565b9150612b5d82612b1e565b602082019050919050565b5f6020820190508181035f830152612b7f81612b46565b9050919050565b5f612b90826121dd565b91507fffffffffffffffffffffffffffffffffffffffffffffffffffffffffffffffff8203612bc257612bc1612961565b5b600182019050919050565b612bd6816122f2565b8114612be0575f80fd5b50565b5f81519050612bf181612bcd565b92915050565b5f60208284031215612c0c57612c0b61220e565b5b5f612c1984828501612be3565b91505092915050565b7f416c7265616479207265676973746572656400000000000000000000000000005f82015250565b5f612c5660128361270b565b9150612c6182612c22565b602082019050919050565b5f6020820190508181035f830152612c8381612c4a565b9050919050565b60048110612c96575f80fd5b50565b5f81519050612ca781612c8a565b92915050565b5f8060408385031215612cc357612cc261220e565b5b5f612cd085828601612c99565b9250506020612ce1858286016127eb565b9150509250929050565b7f4e487b71000000000000000000000000000000000000000000000000000000005f52602160045260245ffd5b7f746f6b656e206973206e6f74206164756c7400000000000000000000000000005f82015250565b5f612d4c60128361270b565b9150612d5782612d18565b602082019050919050565b5f6020820190508181035f830152612d7981612d40565b9050919050565b5f612d8a826121dd565b9150612d95836121dd565b925082612da557612da4612904565b5b828204905092915050565b5f612dbb82866128c2565b602082019150612dcb82856128c2565b602082019150612ddb82846128c2565b602082019150819050949350505050565b5f612df6826121dd565b9150612e01836121dd565b9250828202612e0f816121dd565b91508282048414831517612e2657612e25612961565b5b509291505056fea2646970667358221220dd0841dac09c9b50cc0a815c2fa867737ee60c7051b5b4d7287c96bb3f82d87564736f6c634300081a0033",
					"opcodes": "PUSH1 0x80 PUSH1 0x40 MSTORE PUSH2 0x12C PUSH1 0xC SSTORE PUSH1 0xA PUSH1 0xD SSTORE PUSH1 0x3 PUSH1 0xE SSTORE CALLVALUE DUP1 ISZERO PUSH2 0x1F JUMPI PUSH0 DUP1 REVERT JUMPDEST POP PUSH1 0x40 MLOAD PUSH2 0x31A6 CODESIZE SUB DUP1 PUSH2 0x31A6 DUP4 CODECOPY DUP2 DUP2 ADD PUSH1 0x40 MSTORE DUP2 ADD SWAP1 PUSH2 0x41 SWAP2 SWAP1 PUSH2 0x2AA JUMP JUMPDEST DUP4 PUSH0 PUSH20 0xFFFFFFFFFFFFFFFFFFFFFFFFFFFFFFFFFFFFFFFF AND DUP2 PUSH20 0xFFFFFFFFFFFFFFFFFFFFFFFFFFFFFFFFFFFFFFFF AND SUB PUSH2 0xB2 JUMPI PUSH0 PUSH1 0x40 MLOAD PUSH32 0x1E4FBDF700000000000000000000000000000000000000000000000000000000 DUP2 MSTORE PUSH1 0x4 ADD PUSH2 0xA9 SWAP2 SWAP1 PUSH2 0x31D JUMP JUMPDEST PUSH1 0x40 MLOAD DUP1 SWAP2 SUB SWAP1 REVERT JUMPDEST PUSH2 0xC1 DUP2 PUSH2 0x18B PUSH1 0x20 SHL PUSH1 0x20 SHR JUMP JUMPDEST POP DUP3 PUSH1 0x1 PUSH0 PUSH2 0x100 EXP DUP2 SLOAD DUP2 PUSH20 0xFFFFFFFFFFFFFFFFFFFFFFFFFFFFFFFFFFFFFFFF MUL NOT AND SWAP1 DUP4 PUSH20 0xFFFFFFFFFFFFFFFFFFFFFFFFFFFFFFFFFFFFFFFF AND MUL OR SWAP1 SSTORE POP DUP2 PUSH1 0x2 PUSH0 PUSH2 0x100 EXP DUP2 SLOAD DUP2 PUSH20 0xFFFFFFFFFFFFFFFFFFFFFFFFFFFFFFFFFFFFFFFF MUL NOT AND SWAP1 DUP4 PUSH20 0xFFFFFFFFFFFFFFFFFFFFFFFFFFFFFFFFFFFFFFFF AND MUL OR SWAP1 SSTORE POP DUP1 PUSH1 0x3 PUSH0 PUSH2 0x100 EXP DUP2 SLOAD DUP2 PUSH20 0xFFFFFFFFFFFFFFFFFFFFFFFFFFFFFFFFFFFFFFFF MUL NOT AND SWAP1 DUP4 PUSH20 0xFFFFFFFFFFFFFFFFFFFFFFFFFFFFFFFFFFFFFFFF AND MUL OR SWAP1 SSTORE POP POP POP POP POP PUSH2 0x336 JUMP JUMPDEST PUSH0 DUP1 PUSH0 SWAP1 SLOAD SWAP1 PUSH2 0x100 EXP SWAP1 DIV PUSH20 0xFFFFFFFFFFFFFFFFFFFFFFFFFFFFFFFFFFFFFFFF AND SWAP1 POP DUP2 PUSH0 DUP1 PUSH2 0x100 EXP DUP2 SLOAD DUP2 PUSH20 0xFFFFFFFFFFFFFFFFFFFFFFFFFFFFFFFFFFFFFFFF MUL NOT AND SWAP1 DUP4 PUSH20 0xFFFFFFFFFFFFFFFFFFFFFFFFFFFFFFFFFFFFFFFF AND MUL OR SWAP1 SSTORE POP DUP2 PUSH20 0xFFFFFFFFFFFFFFFFFFFFFFFFFFFFFFFFFFFFFFFF AND DUP2 PUSH20 0xFFFFFFFFFFFFFFFFFFFFFFFFFFFFFFFFFFFFFFFF AND PUSH32 0x8BE0079C531659141344CD1FD0A4F28419497F9722A3DAAFE3B4186F6B6457E0 PUSH1 0x40 MLOAD PUSH1 0x40 MLOAD DUP1 SWAP2 SUB SWAP1 LOG3 POP POP JUMP JUMPDEST PUSH0 DUP1 REVERT JUMPDEST PUSH0 PUSH20 0xFFFFFFFFFFFFFFFFFFFFFFFFFFFFFFFFFFFFFFFF DUP3 AND SWAP1 POP SWAP2 SWAP1 POP JUMP JUMPDEST PUSH0 PUSH2 0x279 DUP3 PUSH2 0x250 JUMP JUMPDEST SWAP1 POP SWAP2 SWAP1 POP JUMP JUMPDEST PUSH2 0x289 DUP2 PUSH2 0x26F JUMP JUMPDEST DUP2 EQ PUSH2 0x293 JUMPI PUSH0 DUP1 REVERT JUMPDEST POP JUMP JUMPDEST PUSH0 DUP2 MLOAD SWAP1 POP PUSH2 0x2A4 DUP2 PUSH2 0x280 JUMP JUMPDEST SWAP3 SWAP2 POP POP JUMP JUMPDEST PUSH0 DUP1 PUSH0 DUP1 PUSH1 0x80 DUP6 DUP8 SUB SLT ISZERO PUSH2 0x2C2 JUMPI PUSH2 0x2C1 PUSH2 0x24C JUMP JUMPDEST JUMPDEST PUSH0 PUSH2 0x2CF DUP8 DUP3 DUP9 ADD PUSH2 0x296 JUMP JUMPDEST SWAP5 POP POP PUSH1 0x20 PUSH2 0x2E0 DUP8 DUP3 DUP9 ADD PUSH2 0x296 JUMP JUMPDEST SWAP4 POP POP PUSH1 0x40 PUSH2 0x2F1 DUP8 DUP3 DUP9 ADD PUSH2 0x296 JUMP JUMPDEST SWAP3 POP POP PUSH1 0x60 PUSH2 0x302 DUP8 DUP3 DUP9 ADD PUSH2 0x296 JUMP JUMPDEST SWAP2 POP POP SWAP3 SWAP6 SWAP2 SWAP5 POP SWAP3 POP JUMP JUMPDEST PUSH2 0x317 DUP2 PUSH2 0x26F JUMP JUMPDEST DUP3 MSTORE POP POP JUMP JUMPDEST PUSH0 PUSH1 0x20 DUP3 ADD SWAP1 POP PUSH2 0x330 PUSH0 DUP4 ADD DUP5 PUSH2 0x30E JUMP JUMPDEST SWAP3 SWAP2 POP POP JUMP JUMPDEST PUSH2 0x2E63 DUP1 PUSH2 0x343 PUSH0 CODECOPY PUSH0 RETURN INVALID PUSH1 0x80 PUSH1 0x40 MSTORE CALLVALUE DUP1 ISZERO PUSH2 0xF JUMPI PUSH0 DUP1 REVERT JUMPDEST POP PUSH1 0x4 CALLDATASIZE LT PUSH2 0x11F JUMPI PUSH0 CALLDATALOAD PUSH1 0xE0 SHR DUP1 PUSH4 0x8DA5CB5B GT PUSH2 0xAB JUMPI DUP1 PUSH4 0xCDB6B4F4 GT PUSH2 0x6F JUMPI DUP1 PUSH4 0xCDB6B4F4 EQ PUSH2 0x2CD JUMPI DUP1 PUSH4 0xD1C6839F EQ PUSH2 0x2FD JUMPI DUP1 PUSH4 0xE98DA9AD EQ PUSH2 0x307 JUMPI DUP1 PUSH4 0xF2FDE38B EQ PUSH2 0x325 JUMPI DUP1 PUSH4 0xFBC1274D EQ PUSH2 0x341 JUMPI PUSH2 0x11F JUMP JUMPDEST DUP1 PUSH4 0x8DA5CB5B EQ PUSH2 0x23B JUMPI DUP1 PUSH4 0x9711DC38 EQ PUSH2 0x259 JUMPI DUP1 PUSH4 0x9E84477D EQ PUSH2 0x277 JUMPI DUP1 PUSH4 0xBA3C1E4B EQ PUSH2 0x295 JUMPI DUP1 PUSH4 0xC9F4B515 EQ PUSH2 0x2B1 JUMPI PUSH2 0x11F JUMP JUMPDEST DUP1 PUSH4 0x593C8253 GT PUSH2 0xF2 JUMPI DUP1 PUSH4 0x593C8253 EQ PUSH2 0x1AB JUMPI DUP1 PUSH4 0x5D6DE796 EQ PUSH2 0x1C7 JUMPI DUP1 PUSH4 0x68B42E60 EQ PUSH2 0x1E3 JUMPI DUP1 PUSH4 0x6A6940CC EQ PUSH2 0x213 JUMPI DUP1 PUSH4 0x715018A6 EQ PUSH2 0x231 JUMPI PUSH2 0x11F JUMP JUMPDEST DUP1 PUSH4 0x287AD39F EQ PUSH2 0x123 JUMPI DUP1 PUSH4 0x2D0EFAC7 EQ PUSH2 0x141 JUMPI DUP1 PUSH4 0x4D6C423C EQ PUSH2 0x15D JUMPI DUP1 PUSH4 0x53A653EB EQ PUSH2 0x179 JUMPI JUMPDEST PUSH0 DUP1 REVERT JUMPDEST PUSH2 0x12B PUSH2 0x35F JUMP JUMPDEST PUSH1 0x40 MLOAD PUSH2 0x138 SWAP2 SWAP1 PUSH2 0x21F5 JUMP JUMPDEST PUSH1 0x40 MLOAD DUP1 SWAP2 SUB SWAP1 RETURN JUMPDEST PUSH2 0x15B PUSH1 0x4 DUP1 CALLDATASIZE SUB DUP2 ADD SWAP1 PUSH2 0x156 SWAP2 SWAP1 PUSH2 0x223C JUMP JUMPDEST PUSH2 0x365 JUMP JUMPDEST STOP JUMPDEST PUSH2 0x177 PUSH1 0x4 DUP1 CALLDATASIZE SUB DUP2 ADD SWAP1 PUSH2 0x172 SWAP2 SWAP1 PUSH2 0x223C JUMP JUMPDEST PUSH2 0x711 JUMP JUMPDEST STOP JUMPDEST PUSH2 0x193 PUSH1 0x4 DUP1 CALLDATASIZE SUB DUP2 ADD SWAP1 PUSH2 0x18E SWAP2 SWAP1 PUSH2 0x223C JUMP JUMPDEST PUSH2 0x723 JUMP JUMPDEST PUSH1 0x40 MLOAD PUSH2 0x1A2 SWAP4 SWAP3 SWAP2 SWAP1 PUSH2 0x23B8 JUMP JUMPDEST PUSH1 0x40 MLOAD DUP1 SWAP2 SUB SWAP1 RETURN JUMPDEST PUSH2 0x1C5 PUSH1 0x4 DUP1 CALLDATASIZE SUB DUP2 ADD SWAP1 PUSH2 0x1C0 SWAP2 SWAP1 PUSH2 0x223C JUMP JUMPDEST PUSH2 0x800 JUMP JUMPDEST STOP JUMPDEST PUSH2 0x1E1 PUSH1 0x4 DUP1 CALLDATASIZE SUB DUP2 ADD SWAP1 PUSH2 0x1DC SWAP2 SWAP1 PUSH2 0x223C JUMP JUMPDEST PUSH2 0xB42 JUMP JUMPDEST STOP JUMPDEST PUSH2 0x1FD PUSH1 0x4 DUP1 CALLDATASIZE SUB DUP2 ADD SWAP1 PUSH2 0x1F8 SWAP2 SWAP1 PUSH2 0x223C JUMP JUMPDEST PUSH2 0xFB2 JUMP JUMPDEST PUSH1 0x40 MLOAD PUSH2 0x20A SWAP2 SWAP1 PUSH2 0x2447 JUMP JUMPDEST PUSH1 0x40 MLOAD DUP1 SWAP2 SUB SWAP1 RETURN JUMPDEST PUSH2 0x21B PUSH2 0x1004 JUMP JUMPDEST PUSH1 0x40 MLOAD PUSH2 0x228 SWAP2 SWAP1 PUSH2 0x24DA JUMP JUMPDEST PUSH1 0x40 MLOAD DUP1 SWAP2 SUB SWAP1 RETURN JUMPDEST PUSH2 0x239 PUSH2 0x1029 JUMP JUMPDEST STOP JUMPDEST PUSH2 0x243 PUSH2 0x103C JUMP JUMPDEST PUSH1 0x40 MLOAD PUSH2 0x250 SWAP2 SWAP1 PUSH2 0x2513 JUMP JUMPDEST PUSH1 0x40 MLOAD DUP1 SWAP2 SUB SWAP1 RETURN JUMPDEST PUSH2 0x261 PUSH2 0x1063 JUMP JUMPDEST PUSH1 0x40 MLOAD PUSH2 0x26E SWAP2 SWAP1 PUSH2 0x254C JUMP JUMPDEST PUSH1 0x40 MLOAD DUP1 SWAP2 SUB SWAP1 RETURN JUMPDEST PUSH2 0x27F PUSH2 0x1088 JUMP JUMPDEST PUSH1 0x40 MLOAD PUSH2 0x28C SWAP2 SWAP1 PUSH2 0x21F5 JUMP JUMPDEST PUSH1 0x40 MLOAD DUP1 SWAP2 SUB SWAP1 RETURN JUMPDEST PUSH2 0x2AF PUSH1 0x4 DUP1 CALLDATASIZE SUB DUP2 ADD SWAP1 PUSH2 0x2AA SWAP2 SWAP1 PUSH2 0x223C JUMP JUMPDEST PUSH2 0x108E JUMP JUMPDEST STOP JUMPDEST PUSH2 0x2CB PUSH1 0x4 DUP1 CALLDATASIZE SUB DUP2 ADD SWAP1 PUSH2 0x2C6 SWAP2 SWAP1 PUSH2 0x223C JUMP JUMPDEST PUSH2 0x11ED JUMP JUMPDEST STOP JUMPDEST PUSH2 0x2E7 PUSH1 0x4 DUP1 CALLDATASIZE SUB DUP2 ADD SWAP1 PUSH2 0x2E2 SWAP2 SWAP1 PUSH2 0x258F JUMP JUMPDEST PUSH2 0x1593 JUMP JUMPDEST PUSH1 0x40 MLOAD PUSH2 0x2F4 SWAP2 SWAP1 PUSH2 0x2673 JUMP JUMPDEST PUSH1 0x40 MLOAD DUP1 SWAP2 SUB SWAP1 RETURN JUMPDEST PUSH2 0x305 PUSH2 0x16CB JUMP JUMPDEST STOP JUMPDEST PUSH2 0x30F PUSH2 0x173A JUMP JUMPDEST PUSH1 0x40 MLOAD PUSH2 0x31C SWAP2 SWAP1 PUSH2 0x21F5 JUMP JUMPDEST PUSH1 0x40 MLOAD DUP1 SWAP2 SUB SWAP1 RETURN JUMPDEST PUSH2 0x33F PUSH1 0x4 DUP1 CALLDATASIZE SUB DUP2 ADD SWAP1 PUSH2 0x33A SWAP2 SWAP1 PUSH2 0x258F JUMP JUMPDEST PUSH2 0x1740 JUMP JUMPDEST STOP JUMPDEST PUSH2 0x349 PUSH2 0x17C4 JUMP JUMPDEST PUSH1 0x40 MLOAD PUSH2 0x356 SWAP2 SWAP1 PUSH2 0x26B3 JUMP JUMPDEST PUSH1 0x40 MLOAD DUP1 SWAP2 SUB SWAP1 RETURN JUMPDEST PUSH1 0xC SLOAD DUP2 JUMP JUMPDEST CALLER PUSH20 0xFFFFFFFFFFFFFFFFFFFFFFFFFFFFFFFFFFFFFFFF AND PUSH1 0x1 PUSH0 SWAP1 SLOAD SWAP1 PUSH2 0x100 EXP SWAP1 DIV PUSH20 0xFFFFFFFFFFFFFFFFFFFFFFFFFFFFFFFFFFFFFFFF AND PUSH20 0xFFFFFFFFFFFFFFFFFFFFFFFFFFFFFFFFFFFFFFFF AND PUSH4 0x6352211E DUP4 PUSH1 0x40 MLOAD DUP3 PUSH4 0xFFFFFFFF AND PUSH1 0xE0 SHL DUP2 MSTORE PUSH1 0x4 ADD PUSH2 0x3D6 SWAP2 SWAP1 PUSH2 0x21F5 JUMP JUMPDEST PUSH1 0x20 PUSH1 0x40 MLOAD DUP1 DUP4 SUB DUP2 DUP7 GAS STATICCALL ISZERO DUP1 ISZERO PUSH2 0x3F1 JUMPI RETURNDATASIZE PUSH0 DUP1 RETURNDATACOPY RETURNDATASIZE PUSH0 REVERT JUMPDEST POP POP POP POP PUSH1 0x40 MLOAD RETURNDATASIZE PUSH1 0x1F NOT PUSH1 0x1F DUP3 ADD AND DUP3 ADD DUP1 PUSH1 0x40 MSTORE POP DUP2 ADD SWAP1 PUSH2 0x415 SWAP2 SWAP1 PUSH2 0x26E0 JUMP JUMPDEST PUSH20 0xFFFFFFFFFFFFFFFFFFFFFFFFFFFFFFFFFFFFFFFF AND EQ PUSH2 0x46B JUMPI PUSH1 0x40 MLOAD PUSH32 0x8C379A000000000000000000000000000000000000000000000000000000000 DUP2 MSTORE PUSH1 0x4 ADD PUSH2 0x462 SWAP1 PUSH2 0x2765 JUMP JUMPDEST PUSH1 0x40 MLOAD DUP1 SWAP2 SUB SWAP1 REVERT JUMPDEST DUP1 PUSH1 0x6 PUSH0 CALLER PUSH20 0xFFFFFFFFFFFFFFFFFFFFFFFFFFFFFFFFFFFFFFFF AND PUSH20 0xFFFFFFFFFFFFFFFFFFFFFFFFFFFFFFFFFFFFFFFF AND DUP2 MSTORE PUSH1 0x20 ADD SWAP1 DUP2 MSTORE PUSH1 0x20 ADD PUSH0 KECCAK256 SLOAD EQ PUSH2 0x4EA JUMPI PUSH1 0x40 MLOAD PUSH32 0x8C379A000000000000000000000000000000000000000000000000000000000 DUP2 MSTORE PUSH1 0x4 ADD PUSH2 0x4E1 SWAP1 PUSH2 0x27CD JUMP JUMPDEST PUSH1 0x40 MLOAD DUP1 SWAP2 SUB SWAP1 REVERT JUMPDEST PUSH1 0xC SLOAD PUSH1 0x3 PUSH0 SWAP1 SLOAD SWAP1 PUSH2 0x100 EXP SWAP1 DIV PUSH20 0xFFFFFFFFFFFFFFFFFFFFFFFFFFFFFFFFFFFFFFFF AND PUSH20 0xFFFFFFFFFFFFFFFFFFFFFFFFFFFFFFFFFFFFFFFF AND PUSH4 0x70A08231 CALLER PUSH1 0x40 MLOAD DUP3 PUSH4 0xFFFFFFFF AND PUSH1 0xE0 SHL DUP2 MSTORE PUSH1 0x4 ADD PUSH2 0x547 SWAP2 SWAP1 PUSH2 0x2513 JUMP JUMPDEST PUSH1 0x20 PUSH1 0x40 MLOAD DUP1 DUP4 SUB DUP2 DUP7 GAS STATICCALL ISZERO DUP1 ISZERO PUSH2 0x562 JUMPI RETURNDATASIZE PUSH0 DUP1 RETURNDATACOPY RETURNDATASIZE PUSH0 REVERT JUMPDEST POP POP POP POP PUSH1 0x40 MLOAD RETURNDATASIZE PUSH1 0x1F NOT PUSH1 0x1F DUP3 ADD AND DUP3 ADD DUP1 PUSH1 0x40 MSTORE POP DUP2 ADD SWAP1 PUSH2 0x586 SWAP2 SWAP1 PUSH2 0x27FF JUMP JUMPDEST LT ISZERO PUSH2 0x5C7 JUMPI PUSH1 0x40 MLOAD PUSH32 0x8C379A000000000000000000000000000000000000000000000000000000000 DUP2 MSTORE PUSH1 0x4 ADD PUSH2 0x5BE SWAP1 PUSH2 0x2874 JUMP JUMPDEST PUSH1 0x40 MLOAD DUP1 SWAP2 SUB SWAP1 REVERT JUMPDEST PUSH0 PUSH1 0x4 PUSH0 DUP4 DUP2 MSTORE PUSH1 0x20 ADD SWAP1 DUP2 MSTORE PUSH1 0x20 ADD PUSH0 KECCAK256 SWAP1 POP PUSH1 0x3 PUSH0 SWAP1 SLOAD SWAP1 PUSH2 0x100 EXP SWAP1 DIV PUSH20 0xFFFFFFFFFFFFFFFFFFFFFFFFFFFFFFFFFFFFFFFF AND PUSH20 0xFFFFFFFFFFFFFFFFFFFFFFFFFFFFFFFFFFFFFFFF AND PUSH4 0x9DC29FAC CALLER PUSH1 0xC SLOAD PUSH1 0x40 MLOAD DUP4 PUSH4 0xFFFFFFFF AND PUSH1 0xE0 SHL DUP2 MSTORE PUSH1 0x4 ADD PUSH2 0x639 SWAP3 SWAP2 SWAP1 PUSH2 0x2892 JUMP JUMPDEST PUSH0 PUSH1 0x40 MLOAD DUP1 DUP4 SUB DUP2 PUSH0 DUP8 DUP1 EXTCODESIZE ISZERO DUP1 ISZERO PUSH2 0x650 JUMPI PUSH0 DUP1 REVERT JUMPDEST POP GAS CALL ISZERO DUP1 ISZERO PUSH2 0x662 JUMPI RETURNDATASIZE PUSH0 DUP1 RETURNDATACOPY RETURNDATASIZE PUSH0 REVERT JUMPDEST POP POP POP POP PUSH0 PUSH1 0x3 TIMESTAMP PREVRANDAO PUSH1 0x40 MLOAD PUSH1 0x20 ADD PUSH2 0x67C SWAP3 SWAP2 SWAP1 PUSH2 0x28D9 JUMP JUMPDEST PUSH1 0x40 MLOAD PUSH1 0x20 DUP2 DUP4 SUB SUB DUP2 MSTORE SWAP1 PUSH1 0x40 MSTORE DUP1 MLOAD SWAP1 PUSH1 0x20 ADD KECCAK256 PUSH0 SHR PUSH2 0x69E SWAP2 SWAP1 PUSH2 0x2931 JUMP JUMPDEST SWAP1 POP PUSH0 DUP2 SUB PUSH2 0x6C7 JUMPI PUSH1 0xA DUP3 PUSH1 0x1 ADD PUSH0 DUP3 DUP3 SLOAD PUSH2 0x6BB SWAP2 SWAP1 PUSH2 0x298E JUMP JUMPDEST SWAP3 POP POP DUP2 SWAP1 SSTORE POP PUSH2 0x70C JUMP JUMPDEST PUSH1 0x1 DUP2 SUB PUSH2 0x6EF JUMPI PUSH1 0xA DUP3 PUSH1 0x2 ADD PUSH0 DUP3 DUP3 SLOAD PUSH2 0x6E3 SWAP2 SWAP1 PUSH2 0x298E JUMP JUMPDEST SWAP3 POP POP DUP2 SWAP1 SSTORE POP PUSH2 0x70B JUMP JUMPDEST PUSH1 0xA DUP3 PUSH1 0x3 ADD PUSH0 DUP3 DUP3 SLOAD PUSH2 0x703 SWAP2 SWAP1 PUSH2 0x298E JUMP JUMPDEST SWAP3 POP POP DUP2 SWAP1 SSTORE POP JUMPDEST JUMPDEST POP POP POP JUMP JUMPDEST PUSH2 0x719 PUSH2 0x17E9 JUMP JUMPDEST DUP1 PUSH1 0xE DUP2 SWAP1 SSTORE POP POP JUMP JUMPDEST PUSH0 DUP1 PUSH1 0x60 PUSH0 PUSH1 0x5 PUSH0 DUP7 DUP2 MSTORE PUSH1 0x20 ADD SWAP1 DUP2 MSTORE PUSH1 0x20 ADD PUSH0 KECCAK256 SWAP1 POP DUP1 PUSH0 ADD SLOAD DUP2 PUSH1 0x1 ADD SLOAD DUP3 PUSH1 0x2 ADD DUP1 DUP1 SLOAD DUP1 PUSH1 0x20 MUL PUSH1 0x20 ADD PUSH1 0x40 MLOAD SWAP1 DUP2 ADD PUSH1 0x40 MSTORE DUP1 SWAP3 SWAP2 SWAP1 DUP2 DUP2 MSTORE PUSH1 0x20 ADD PUSH0 SWAP1 JUMPDEST DUP3 DUP3 LT ISZERO PUSH2 0x7EC JUMPI DUP4 DUP3 SWAP1 PUSH0 MSTORE PUSH1 0x20 PUSH0 KECCAK256 SWAP1 PUSH1 0x5 MUL ADD PUSH1 0x40 MLOAD DUP1 PUSH1 0x40 ADD PUSH1 0x40 MSTORE SWAP1 DUP2 PUSH0 DUP3 ADD PUSH1 0x40 MLOAD DUP1 PUSH1 0x80 ADD PUSH1 0x40 MSTORE SWAP1 DUP2 PUSH0 DUP3 ADD SLOAD DUP2 MSTORE PUSH1 0x20 ADD PUSH1 0x1 DUP3 ADD SLOAD DUP2 MSTORE PUSH1 0x20 ADD PUSH1 0x2 DUP3 ADD SLOAD DUP2 MSTORE PUSH1 0x20 ADD PUSH1 0x3 DUP3 ADD SLOAD DUP2 MSTORE POP POP DUP2 MSTORE PUSH1 0x20 ADD PUSH1 0x4 DUP3 ADD PUSH0 SWAP1 SLOAD SWAP1 PUSH2 0x100 EXP SWAP1 DIV PUSH1 0xFF AND ISZERO ISZERO ISZERO ISZERO DUP2 MSTORE POP POP DUP2 MSTORE PUSH1 0x20 ADD SWAP1 PUSH1 0x1 ADD SWAP1 PUSH2 0x768 JUMP JUMPDEST POP POP POP POP SWAP1 POP SWAP4 POP SWAP4 POP SWAP4 POP POP SWAP2 SWAP4 SWAP1 SWAP3 POP JUMP JUMPDEST CALLER PUSH20 0xFFFFFFFFFFFFFFFFFFFFFFFFFFFFFFFFFFFFFFFF AND PUSH1 0x1 PUSH0 SWAP1 SLOAD SWAP1 PUSH2 0x100 EXP SWAP1 DIV PUSH20 0xFFFFFFFFFFFFFFFFFFFFFFFFFFFFFFFFFFFFFFFF AND PUSH20 0xFFFFFFFFFFFFFFFFFFFFFFFFFFFFFFFFFFFFFFFF AND PUSH4 0x6352211E DUP4 PUSH1 0x40 MLOAD DUP3 PUSH4 0xFFFFFFFF AND PUSH1 0xE0 SHL DUP2 MSTORE PUSH1 0x4 ADD PUSH2 0x871 SWAP2 SWAP1 PUSH2 0x21F5 JUMP JUMPDEST PUSH1 0x20 PUSH1 0x40 MLOAD DUP1 DUP4 SUB DUP2 DUP7 GAS STATICCALL ISZERO DUP1 ISZERO PUSH2 0x88C JUMPI RETURNDATASIZE PUSH0 DUP1 RETURNDATACOPY RETURNDATASIZE PUSH0 REVERT JUMPDEST POP POP POP POP PUSH1 0x40 MLOAD RETURNDATASIZE PUSH1 0x1F NOT PUSH1 0x1F DUP3 ADD AND DUP3 ADD DUP1 PUSH1 0x40 MSTORE POP DUP2 ADD SWAP1 PUSH2 0x8B0 SWAP2 SWAP1 PUSH2 0x26E0 JUMP JUMPDEST PUSH20 0xFFFFFFFFFFFFFFFFFFFFFFFFFFFFFFFFFFFFFFFF AND EQ PUSH2 0x906 JUMPI PUSH1 0x40 MLOAD PUSH32 0x8C379A000000000000000000000000000000000000000000000000000000000 DUP2 MSTORE PUSH1 0x4 ADD PUSH2 0x8FD SWAP1 PUSH2 0x2765 JUMP JUMPDEST PUSH1 0x40 MLOAD DUP1 SWAP2 SUB SWAP1 REVERT JUMPDEST DUP1 PUSH1 0x6 PUSH0 CALLER PUSH20 0xFFFFFFFFFFFFFFFFFFFFFFFFFFFFFFFFFFFFFFFF AND PUSH20 0xFFFFFFFFFFFFFFFFFFFFFFFFFFFFFFFFFFFFFFFF AND DUP2 MSTORE PUSH1 0x20 ADD SWAP1 DUP2 MSTORE PUSH1 0x20 ADD PUSH0 KECCAK256 SLOAD EQ PUSH2 0x985 JUMPI PUSH1 0x40 MLOAD PUSH32 0x8C379A000000000000000000000000000000000000000000000000000000000 DUP2 MSTORE PUSH1 0x4 ADD PUSH2 0x97C SWAP1 PUSH2 0x2A0B JUMP JUMPDEST PUSH1 0x40 MLOAD DUP1 SWAP2 SUB SWAP1 REVERT JUMPDEST PUSH1 0x6 PUSH0 CALLER PUSH20 0xFFFFFFFFFFFFFFFFFFFFFFFFFFFFFFFFFFFFFFFF AND PUSH20 0xFFFFFFFFFFFFFFFFFFFFFFFFFFFFFFFFFFFFFFFF AND DUP2 MSTORE PUSH1 0x20 ADD SWAP1 DUP2 MSTORE PUSH1 0x20 ADD PUSH0 KECCAK256 PUSH0 SWAP1 SSTORE PUSH0 JUMPDEST PUSH1 0x9 DUP1 SLOAD SWAP1 POP DUP2 LT ISZERO PUSH2 0xB3E JUMPI CALLER PUSH20 0xFFFFFFFFFFFFFFFFFFFFFFFFFFFFFFFFFFFFFFFF AND PUSH1 0x9 DUP3 DUP2 SLOAD DUP2 LT PUSH2 0x9FF JUMPI PUSH2 0x9FE PUSH2 0x2A29 JUMP JUMPDEST JUMPDEST SWAP1 PUSH0 MSTORE PUSH1 0x20 PUSH0 KECCAK256 ADD PUSH0 SWAP1 SLOAD SWAP1 PUSH2 0x100 EXP SWAP1 DIV PUSH20 0xFFFFFFFFFFFFFFFFFFFFFFFFFFFFFFFFFFFFFFFF AND PUSH20 0xFFFFFFFFFFFFFFFFFFFFFFFFFFFFFFFFFFFFFFFF AND SUB PUSH2 0xB31 JUMPI PUSH1 0x9 PUSH1 0x1 PUSH1 0x9 DUP1 SLOAD SWAP1 POP PUSH2 0xA56 SWAP2 SWAP1 PUSH2 0x2A56 JUMP JUMPDEST DUP2 SLOAD DUP2 LT PUSH2 0xA67 JUMPI PUSH2 0xA66 PUSH2 0x2A29 JUMP JUMPDEST JUMPDEST SWAP1 PUSH0 MSTORE PUSH1 0x20 PUSH0 KECCAK256 ADD PUSH0 SWAP1 SLOAD SWAP1 PUSH2 0x100 EXP SWAP1 DIV PUSH20 0xFFFFFFFFFFFFFFFFFFFFFFFFFFFFFFFFFFFFFFFF AND PUSH1 0x9 DUP3 DUP2 SLOAD DUP2 LT PUSH2 0xAA3 JUMPI PUSH2 0xAA2 PUSH2 0x2A29 JUMP JUMPDEST JUMPDEST SWAP1 PUSH0 MSTORE PUSH1 0x20 PUSH0 KECCAK256 ADD PUSH0 PUSH2 0x100 EXP DUP2 SLOAD DUP2 PUSH20 0xFFFFFFFFFFFFFFFFFFFFFFFFFFFFFFFFFFFFFFFF MUL NOT AND SWAP1 DUP4 PUSH20 0xFFFFFFFFFFFFFFFFFFFFFFFFFFFFFFFFFFFFFFFF AND MUL OR SWAP1 SSTORE POP PUSH1 0x9 DUP1 SLOAD DUP1 PUSH2 0xAFA JUMPI PUSH2 0xAF9 PUSH2 0x2A89 JUMP JUMPDEST JUMPDEST PUSH1 0x1 SWAP1 SUB DUP2 DUP2 SWAP1 PUSH0 MSTORE PUSH1 0x20 PUSH0 KECCAK256 ADD PUSH0 PUSH2 0x100 EXP DUP2 SLOAD SWAP1 PUSH20 0xFFFFFFFFFFFFFFFFFFFFFFFFFFFFFFFFFFFFFFFF MUL NOT AND SWAP1 SSTORE SWAP1 SSTORE PUSH2 0xB3E JUMP JUMPDEST DUP1 DUP1 PUSH1 0x1 ADD SWAP2 POP POP PUSH2 0x9C7 JUMP JUMPDEST POP POP JUMP JUMPDEST CALLER PUSH2 0xB4B PUSH2 0x1870 JUMP JUMPDEST PUSH1 0x8 PUSH0 DUP4 PUSH20 0xFFFFFFFFFFFFFFFFFFFFFFFFFFFFFFFFFFFFFFFF AND PUSH20 0xFFFFFFFFFFFFFFFFFFFFFFFFFFFFFFFFFFFFFFFF AND DUP2 MSTORE PUSH1 0x20 ADD SWAP1 DUP2 MSTORE PUSH1 0x20 ADD PUSH0 KECCAK256 SLOAD LT ISZERO PUSH2 0xBD2 JUMPI PUSH0 PUSH1 0x7 PUSH0 DUP4 PUSH20 0xFFFFFFFFFFFFFFFFFFFFFFFFFFFFFFFFFFFFFFFF AND PUSH20 0xFFFFFFFFFFFFFFFFFFFFFFFFFFFFFFFFFFFFFFFF AND DUP2 MSTORE PUSH1 0x20 ADD SWAP1 DUP2 MSTORE PUSH1 0x20 ADD PUSH0 KECCAK256 DUP2 SWAP1 SSTORE POP JUMPDEST CALLER PUSH1 0xE SLOAD PUSH1 0x7 PUSH0 DUP4 PUSH20 0xFFFFFFFFFFFFFFFFFFFFFFFFFFFFFFFFFFFFFFFF AND PUSH20 0xFFFFFFFFFFFFFFFFFFFFFFFFFFFFFFFFFFFFFFFF AND DUP2 MSTORE PUSH1 0x20 ADD SWAP1 DUP2 MSTORE PUSH1 0x20 ADD PUSH0 KECCAK256 SLOAD LT PUSH2 0xC54 JUMPI PUSH1 0x40 MLOAD PUSH32 0x8C379A000000000000000000000000000000000000000000000000000000000 DUP2 MSTORE PUSH1 0x4 ADD PUSH2 0xC4B SWAP1 PUSH2 0x2B00 JUMP JUMPDEST PUSH1 0x40 MLOAD DUP1 SWAP2 SUB SWAP1 REVERT JUMPDEST CALLER PUSH20 0xFFFFFFFFFFFFFFFFFFFFFFFFFFFFFFFFFFFFFFFF AND PUSH1 0x1 PUSH0 SWAP1 SLOAD SWAP1 PUSH2 0x100 EXP SWAP1 DIV PUSH20 0xFFFFFFFFFFFFFFFFFFFFFFFFFFFFFFFFFFFFFFFF AND PUSH20 0xFFFFFFFFFFFFFFFFFFFFFFFFFFFFFFFFFFFFFFFF AND PUSH4 0x6352211E DUP6 PUSH1 0x40 MLOAD DUP3 PUSH4 0xFFFFFFFF AND PUSH1 0xE0 SHL DUP2 MSTORE PUSH1 0x4 ADD PUSH2 0xCC5 SWAP2 SWAP1 PUSH2 0x21F5 JUMP JUMPDEST PUSH1 0x20 PUSH1 0x40 MLOAD DUP1 DUP4 SUB DUP2 DUP7 GAS STATICCALL ISZERO DUP1 ISZERO PUSH2 0xCE0 JUMPI RETURNDATASIZE PUSH0 DUP1 RETURNDATACOPY RETURNDATASIZE PUSH0 REVERT JUMPDEST POP POP POP POP PUSH1 0x40 MLOAD RETURNDATASIZE PUSH1 0x1F NOT PUSH1 0x1F DUP3 ADD AND DUP3 ADD DUP1 PUSH1 0x40 MSTORE POP DUP2 ADD SWAP1 PUSH2 0xD04 SWAP2 SWAP1 PUSH2 0x26E0 JUMP JUMPDEST PUSH20 0xFFFFFFFFFFFFFFFFFFFFFFFFFFFFFFFFFFFFFFFF AND EQ PUSH2 0xD5A JUMPI PUSH1 0x40 MLOAD PUSH32 0x8C379A000000000000000000000000000000000000000000000000000000000 DUP2 MSTORE PUSH1 0x4 ADD PUSH2 0xD51 SWAP1 PUSH2 0x2765 JUMP JUMPDEST PUSH1 0x40 MLOAD DUP1 SWAP2 SUB SWAP1 REVERT JUMPDEST PUSH0 PUSH2 0xD64 CALLER PUSH2 0x1885 JUMP JUMPDEST SWAP1 POP PUSH0 PUSH20 0xFFFFFFFFFFFFFFFFFFFFFFFFFFFFFFFFFFFFFFFF AND DUP2 PUSH20 0xFFFFFFFFFFFFFFFFFFFFFFFFFFFFFFFFFFFFFFFF AND SUB PUSH2 0xDD4 JUMPI PUSH1 0x40 MLOAD PUSH32 0x8C379A000000000000000000000000000000000000000000000000000000000 DUP2 MSTORE PUSH1 0x4 ADD PUSH2 0xDCB SWAP1 PUSH2 0x2B68 JUMP JUMPDEST PUSH1 0x40 MLOAD DUP1 SWAP2 SUB SWAP1 REVERT JUMPDEST PUSH1 0x7 PUSH0 CALLER PUSH20 0xFFFFFFFFFFFFFFFFFFFFFFFFFFFFFFFFFFFFFFFF AND PUSH20 0xFFFFFFFFFFFFFFFFFFFFFFFFFFFFFFFFFFFFFFFF AND DUP2 MSTORE PUSH1 0x20 ADD SWAP1 DUP2 MSTORE PUSH1 0x20 ADD PUSH0 KECCAK256 PUSH0 DUP2 SLOAD DUP1 SWAP3 SWAP2 SWAP1 PUSH2 0xE21 SWAP1 PUSH2 0x2B86 JUMP JUMPDEST SWAP2 SWAP1 POP SSTORE POP PUSH2 0xE2E PUSH2 0x1870 JUMP JUMPDEST PUSH1 0x8 PUSH0 CALLER PUSH20 0xFFFFFFFFFFFFFFFFFFFFFFFFFFFFFFFFFFFFFFFF AND PUSH20 0xFFFFFFFFFFFFFFFFFFFFFFFFFFFFFFFFFFFFFFFF AND DUP2 MSTORE PUSH1 0x20 ADD SWAP1 DUP2 MSTORE PUSH1 0x20 ADD PUSH0 KECCAK256 DUP2 SWAP1 SSTORE POP PUSH0 PUSH1 0x2 PUSH0 SWAP1 SLOAD SWAP1 PUSH2 0x100 EXP SWAP1 DIV PUSH20 0xFFFFFFFFFFFFFFFFFFFFFFFFFFFFFFFFFFFFFFFF AND PUSH20 0xFFFFFFFFFFFFFFFFFFFFFFFFFFFFFFFFFFFFFFFF AND PUSH4 0x2CBAE7FA CALLER PUSH1 0x40 MLOAD DUP3 PUSH4 0xFFFFFFFF AND PUSH1 0xE0 SHL DUP2 MSTORE PUSH1 0x4 ADD PUSH2 0xECA SWAP2 SWAP1 PUSH2 0x2513 JUMP JUMPDEST PUSH1 0x20 PUSH1 0x40 MLOAD DUP1 DUP4 SUB DUP2 DUP7 GAS STATICCALL ISZERO DUP1 ISZERO PUSH2 0xEE5 JUMPI RETURNDATASIZE PUSH0 DUP1 RETURNDATACOPY RETURNDATASIZE PUSH0 REVERT JUMPDEST POP POP POP POP PUSH1 0x40 MLOAD RETURNDATASIZE PUSH1 0x1F NOT PUSH1 0x1F DUP3 ADD AND DUP3 ADD DUP1 PUSH1 0x40 MSTORE POP DUP2 ADD SWAP1 PUSH2 0xF09 SWAP2 SWAP1 PUSH2 0x2BF7 JUMP JUMPDEST SWAP1 POP DUP1 PUSH2 0xF98 JUMPI PUSH1 0x2 PUSH0 SWAP1 SLOAD SWAP1 PUSH2 0x100 EXP SWAP1 DIV PUSH20 0xFFFFFFFFFFFFFFFFFFFFFFFFFFFFFFFFFFFFFFFF AND PUSH20 0xFFFFFFFFFFFFFFFFFFFFFFFFFFFFFFFFFFFFFFFF AND PUSH4 0xDEC5D109 CALLER PUSH1 0x40 MLOAD DUP3 PUSH4 0xFFFFFFFF AND PUSH1 0xE0 SHL DUP2 MSTORE PUSH1 0x4 ADD PUSH2 0xF6A SWAP2 SWAP1 PUSH2 0x2513 JUMP JUMPDEST PUSH0 PUSH1 0x40 MLOAD DUP1 DUP4 SUB DUP2 PUSH0 DUP8 DUP1 EXTCODESIZE ISZERO DUP1 ISZERO PUSH2 0xF81 JUMPI PUSH0 DUP1 REVERT JUMPDEST POP GAS CALL ISZERO DUP1 ISZERO PUSH2 0xF93 JUMPI RETURNDATASIZE PUSH0 DUP1 RETURNDATACOPY RETURNDATASIZE PUSH0 REVERT JUMPDEST POP POP POP POP JUMPDEST PUSH2 0xFA2 CALLER DUP4 PUSH2 0x197D JUMP JUMPDEST PUSH2 0xFAB CALLER PUSH2 0x1B3E JUMP JUMPDEST POP POP POP POP POP JUMP JUMPDEST PUSH2 0xFBA PUSH2 0x2161 JUMP JUMPDEST PUSH1 0x4 PUSH0 DUP4 DUP2 MSTORE PUSH1 0x20 ADD SWAP1 DUP2 MSTORE PUSH1 0x20 ADD PUSH0 KECCAK256 PUSH1 0x40 MLOAD DUP1 PUSH1 0x80 ADD PUSH1 0x40 MSTORE SWAP1 DUP2 PUSH0 DUP3 ADD SLOAD DUP2 MSTORE PUSH1 0x20 ADD PUSH1 0x1 DUP3 ADD SLOAD DUP2 MSTORE PUSH1 0x20 ADD PUSH1 0x2 DUP3 ADD SLOAD DUP2 MSTORE PUSH1 0x20 ADD PUSH1 0x3 DUP3 ADD SLOAD DUP2 MSTORE POP POP SWAP1 POP SWAP2 SWAP1 POP JUMP JUMPDEST PUSH1 0x2 PUSH0 SWAP1 SLOAD SWAP1 PUSH2 0x100 EXP SWAP1 DIV PUSH20 0xFFFFFFFFFFFFFFFFFFFFFFFFFFFFFFFFFFFFFFFF AND DUP2 JUMP JUMPDEST PUSH2 0x1031 PUSH2 0x17E9 JUMP JUMPDEST PUSH2 0x103A PUSH0 PUSH2 0x1BCC JUMP JUMPDEST JUMP JUMPDEST PUSH0 DUP1 PUSH0 SWAP1 SLOAD SWAP1 PUSH2 0x100 EXP SWAP1 DIV PUSH20 0xFFFFFFFFFFFFFFFFFFFFFFFFFFFFFFFFFFFFFFFF AND SWAP1 POP SWAP1 JUMP JUMPDEST PUSH1 0x1 PUSH0 SWAP1 SLOAD SWAP1 PUSH2 0x100 EXP SWAP1 DIV PUSH20 0xFFFFFFFFFFFFFFFFFFFFFFFFFFFFFFFFFFFFFFFF AND DUP2 JUMP JUMPDEST PUSH1 0xD SLOAD DUP2 JUMP JUMPDEST PUSH2 0x1096 PUSH2 0x17E9 JUMP JUMPDEST PUSH0 JUMPDEST DUP2 DUP2 LT ISZERO PUSH2 0x11E9 JUMPI PUSH0 PUSH1 0xB SLOAD SWAP1 POP PUSH1 0xB PUSH0 DUP2 SLOAD DUP1 SWAP3 SWAP2 SWAP1 PUSH2 0x10B8 SWAP1 PUSH2 0x2B86 JUMP JUMPDEST SWAP2 SWAP1 POP SSTORE POP PUSH1 0xA DUP2 SWAP1 DUP1 PUSH1 0x1 DUP2 SLOAD ADD DUP1 DUP3 SSTORE DUP1 SWAP2 POP POP PUSH1 0x1 SWAP1 SUB SWAP1 PUSH0 MSTORE PUSH1 0x20 PUSH0 KECCAK256 ADD PUSH0 SWAP1 SWAP2 SWAP1 SWAP2 SWAP1 SWAP2 PUSH2 0x100 EXP DUP2 SLOAD DUP2 PUSH20 0xFFFFFFFFFFFFFFFFFFFFFFFFFFFFFFFFFFFFFFFF MUL NOT AND SWAP1 DUP4 PUSH20 0xFFFFFFFFFFFFFFFFFFFFFFFFFFFFFFFFFFFFFFFF AND MUL OR SWAP1 SSTORE POP PUSH1 0x9 DUP2 SWAP1 DUP1 PUSH1 0x1 DUP2 SLOAD ADD DUP1 DUP3 SSTORE DUP1 SWAP2 POP POP PUSH1 0x1 SWAP1 SUB SWAP1 PUSH0 MSTORE PUSH1 0x20 PUSH0 KECCAK256 ADD PUSH0 SWAP1 SWAP2 SWAP1 SWAP2 SWAP1 SWAP2 PUSH2 0x100 EXP DUP2 SLOAD DUP2 PUSH20 0xFFFFFFFFFFFFFFFFFFFFFFFFFFFFFFFFFFFFFFFF MUL NOT AND SWAP1 DUP4 PUSH20 0xFFFFFFFFFFFFFFFFFFFFFFFFFFFFFFFFFFFFFFFF AND MUL OR SWAP1 SSTORE POP PUSH1 0x40 MLOAD DUP1 PUSH1 0x80 ADD PUSH1 0x40 MSTORE DUP1 PUSH0 DUP2 MSTORE PUSH1 0x20 ADD PUSH1 0x64 DUP2 MSTORE PUSH1 0x20 ADD PUSH1 0x64 DUP2 MSTORE PUSH1 0x20 ADD PUSH1 0x64 DUP2 MSTORE POP PUSH1 0x4 PUSH0 DUP1 DUP2 MSTORE PUSH1 0x20 ADD SWAP1 DUP2 MSTORE PUSH1 0x20 ADD PUSH0 KECCAK256 PUSH0 DUP3 ADD MLOAD DUP2 PUSH0 ADD SSTORE PUSH1 0x20 DUP3 ADD MLOAD DUP2 PUSH1 0x1 ADD SSTORE PUSH1 0x40 DUP3 ADD MLOAD DUP2 PUSH1 0x2 ADD SSTORE PUSH1 0x60 DUP3 ADD MLOAD DUP2 PUSH1 0x3 ADD SSTORE SWAP1 POP POP POP DUP1 DUP1 PUSH1 0x1 ADD SWAP2 POP POP PUSH2 0x1098 JUMP JUMPDEST POP POP JUMP JUMPDEST CALLER PUSH20 0xFFFFFFFFFFFFFFFFFFFFFFFFFFFFFFFFFFFFFFFF AND PUSH1 0x1 PUSH0 SWAP1 SLOAD SWAP1 PUSH2 0x100 EXP SWAP1 DIV PUSH20 0xFFFFFFFFFFFFFFFFFFFFFFFFFFFFFFFFFFFFFFFF AND PUSH20 0xFFFFFFFFFFFFFFFFFFFFFFFFFFFFFFFFFFFFFFFF AND PUSH4 0x6352211E DUP4 PUSH1 0x40 MLOAD DUP3 PUSH4 0xFFFFFFFF AND PUSH1 0xE0 SHL DUP2 MSTORE PUSH1 0x4 ADD PUSH2 0x125E SWAP2 SWAP1 PUSH2 0x21F5 JUMP JUMPDEST PUSH1 0x20 PUSH1 0x40 MLOAD DUP1 DUP4 SUB DUP2 DUP7 GAS STATICCALL ISZERO DUP1 ISZERO PUSH2 0x1279 JUMPI RETURNDATASIZE PUSH0 DUP1 RETURNDATACOPY RETURNDATASIZE PUSH0 REVERT JUMPDEST POP POP POP POP PUSH1 0x40 MLOAD RETURNDATASIZE PUSH1 0x1F NOT PUSH1 0x1F DUP3 ADD AND DUP3 ADD DUP1 PUSH1 0x40 MSTORE POP DUP2 ADD SWAP1 PUSH2 0x129D SWAP2 SWAP1 PUSH2 0x26E0 JUMP JUMPDEST PUSH20 0xFFFFFFFFFFFFFFFFFFFFFFFFFFFFFFFFFFFFFFFF AND EQ PUSH2 0x12F3 JUMPI PUSH1 0x40 MLOAD PUSH32 0x8C379A000000000000000000000000000000000000000000000000000000000 DUP2 MSTORE PUSH1 0x4 ADD PUSH2 0x12EA SWAP1 PUSH2 0x2765 JUMP JUMPDEST PUSH1 0x40 MLOAD DUP1 SWAP2 SUB SWAP1 REVERT JUMPDEST PUSH0 PUSH1 0x6 PUSH0 CALLER PUSH20 0xFFFFFFFFFFFFFFFFFFFFFFFFFFFFFFFFFFFFFFFF AND PUSH20 0xFFFFFFFFFFFFFFFFFFFFFFFFFFFFFFFFFFFFFFFF AND DUP2 MSTORE PUSH1 0x20 ADD SWAP1 DUP2 MSTORE PUSH1 0x20 ADD PUSH0 KECCAK256 SLOAD EQ PUSH2 0x1372 JUMPI PUSH1 0x40 MLOAD PUSH32 0x8C379A000000000000000000000000000000000000000000000000000000000 DUP2 MSTORE PUSH1 0x4 ADD PUSH2 0x1369 SWAP1 PUSH2 0x2C6C JUMP JUMPDEST PUSH1 0x40 MLOAD DUP1 SWAP2 SUB SWAP1 REVERT JUMPDEST PUSH0 PUSH1 0x1 PUSH0 SWAP1 SLOAD SWAP1 PUSH2 0x100 EXP SWAP1 DIV PUSH20 0xFFFFFFFFFFFFFFFFFFFFFFFFFFFFFFFFFFFFFFFF AND PUSH20 0xFFFFFFFFFFFFFFFFFFFFFFFFFFFFFFFFFFFFFFFF AND PUSH4 0xB564EA86 DUP4 PUSH1 0x40 MLOAD DUP3 PUSH4 0xFFFFFFFF AND PUSH1 0xE0 SHL DUP2 MSTORE PUSH1 0x4 ADD PUSH2 0x13CD SWAP2 SWAP1 PUSH2 0x21F5 JUMP JUMPDEST PUSH1 0x40 DUP1 MLOAD DUP1 DUP4 SUB DUP2 DUP7 GAS STATICCALL ISZERO DUP1 ISZERO PUSH2 0x13E7 JUMPI RETURNDATASIZE PUSH0 DUP1 RETURNDATACOPY RETURNDATASIZE PUSH0 REVERT JUMPDEST POP POP POP POP PUSH1 0x40 MLOAD RETURNDATASIZE PUSH1 0x1F NOT PUSH1 0x1F DUP3 ADD AND DUP3 ADD DUP1 PUSH1 0x40 MSTORE POP DUP2 ADD SWAP1 PUSH2 0x140B SWAP2 SWAP1 PUSH2 0x2CAD JUMP JUMPDEST POP SWAP1 POP PUSH1 0x3 DUP1 DUP2 GT ISZERO PUSH2 0x1421 JUMPI PUSH2 0x1420 PUSH2 0x2CEB JUMP JUMPDEST JUMPDEST DUP2 PUSH1 0x3 DUP2 GT ISZERO PUSH2 0x1434 JUMPI PUSH2 0x1433 PUSH2 0x2CEB JUMP JUMPDEST JUMPDEST EQ PUSH2 0x1474 JUMPI PUSH1 0x40 MLOAD PUSH32 0x8C379A000000000000000000000000000000000000000000000000000000000 DUP2 MSTORE PUSH1 0x4 ADD PUSH2 0x146B SWAP1 PUSH2 0x2D62 JUMP JUMPDEST PUSH1 0x40 MLOAD DUP1 SWAP2 SUB SWAP1 REVERT JUMPDEST PUSH0 PUSH1 0x4 PUSH0 DUP5 DUP2 MSTORE PUSH1 0x20 ADD SWAP1 DUP2 MSTORE PUSH1 0x20 ADD PUSH0 KECCAK256 PUSH0 ADD SLOAD SUB PUSH2 0x14ED JUMPI PUSH1 0x40 MLOAD DUP1 PUSH1 0x80 ADD PUSH1 0x40 MSTORE DUP1 DUP4 DUP2 MSTORE PUSH1 0x20 ADD PUSH1 0x64 DUP2 MSTORE PUSH1 0x20 ADD PUSH1 0x64 DUP2 MSTORE PUSH1 0x20 ADD PUSH1 0x64 DUP2 MSTORE POP PUSH1 0x4 PUSH0 DUP5 DUP2 MSTORE PUSH1 0x20 ADD SWAP1 DUP2 MSTORE PUSH1 0x20 ADD PUSH0 KECCAK256 PUSH0 DUP3 ADD MLOAD DUP2 PUSH0 ADD SSTORE PUSH1 0x20 DUP3 ADD MLOAD DUP2 PUSH1 0x1 ADD SSTORE PUSH1 0x40 DUP3 ADD MLOAD DUP2 PUSH1 0x2 ADD SSTORE PUSH1 0x60 DUP3 ADD MLOAD DUP2 PUSH1 0x3 ADD SSTORE SWAP1 POP POP JUMPDEST DUP2 PUSH1 0x6 PUSH0 CALLER PUSH20 0xFFFFFFFFFFFFFFFFFFFFFFFFFFFFFFFFFFFFFFFF AND PUSH20 0xFFFFFFFFFFFFFFFFFFFFFFFFFFFFFFFFFFFFFFFF AND DUP2 MSTORE PUSH1 0x20 ADD SWAP1 DUP2 MSTORE PUSH1 0x20 ADD PUSH0 KECCAK256 DUP2 SWAP1 SSTORE POP PUSH1 0x9 CALLER SWAP1 DUP1 PUSH1 0x1 DUP2 SLOAD ADD DUP1 DUP3 SSTORE DUP1 SWAP2 POP POP PUSH1 0x1 SWAP1 SUB SWAP1 PUSH0 MSTORE PUSH1 0x20 PUSH0 KECCAK256 ADD PUSH0 SWAP1 SWAP2 SWAP1 SWAP2 SWAP1 SWAP2 PUSH2 0x100 EXP DUP2 SLOAD DUP2 PUSH20 0xFFFFFFFFFFFFFFFFFFFFFFFFFFFFFFFFFFFFFFFF MUL NOT AND SWAP1 DUP4 PUSH20 0xFFFFFFFFFFFFFFFFFFFFFFFFFFFFFFFFFFFFFFFF AND MUL OR SWAP1 SSTORE POP POP POP JUMP JUMPDEST PUSH2 0x159B PUSH2 0x2185 JUMP JUMPDEST PUSH2 0x15A3 PUSH2 0x17E9 JUMP JUMPDEST PUSH0 PUSH1 0x6 PUSH0 DUP5 PUSH20 0xFFFFFFFFFFFFFFFFFFFFFFFFFFFFFFFFFFFFFFFF AND PUSH20 0xFFFFFFFFFFFFFFFFFFFFFFFFFFFFFFFFFFFFFFFF AND DUP2 MSTORE PUSH1 0x20 ADD SWAP1 DUP2 MSTORE PUSH1 0x20 ADD PUSH0 KECCAK256 SLOAD SWAP1 POP PUSH1 0x5 PUSH0 DUP3 DUP2 MSTORE PUSH1 0x20 ADD SWAP1 DUP2 MSTORE PUSH1 0x20 ADD PUSH0 KECCAK256 PUSH1 0x40 MLOAD DUP1 PUSH1 0x60 ADD PUSH1 0x40 MSTORE SWAP1 DUP2 PUSH0 DUP3 ADD SLOAD DUP2 MSTORE PUSH1 0x20 ADD PUSH1 0x1 DUP3 ADD SLOAD DUP2 MSTORE PUSH1 0x20 ADD PUSH1 0x2 DUP3 ADD DUP1 SLOAD DUP1 PUSH1 0x20 MUL PUSH1 0x20 ADD PUSH1 0x40 MLOAD SWAP1 DUP2 ADD PUSH1 0x40 MSTORE DUP1 SWAP3 SWAP2 SWAP1 DUP2 DUP2 MSTORE PUSH1 0x20 ADD PUSH0 SWAP1 JUMPDEST DUP3 DUP3 LT ISZERO PUSH2 0x16BB JUMPI DUP4 DUP3 SWAP1 PUSH0 MSTORE PUSH1 0x20 PUSH0 KECCAK256 SWAP1 PUSH1 0x5 MUL ADD PUSH1 0x40 MLOAD DUP1 PUSH1 0x40 ADD PUSH1 0x40 MSTORE SWAP1 DUP2 PUSH0 DUP3 ADD PUSH1 0x40 MLOAD DUP1 PUSH1 0x80 ADD PUSH1 0x40 MSTORE SWAP1 DUP2 PUSH0 DUP3 ADD SLOAD DUP2 MSTORE PUSH1 0x20 ADD PUSH1 0x1 DUP3 ADD SLOAD DUP2 MSTORE PUSH1 0x20 ADD PUSH1 0x2 DUP3 ADD SLOAD DUP2 MSTORE PUSH1 0x20 ADD PUSH1 0x3 DUP3 ADD SLOAD DUP2 MSTORE POP POP DUP2 MSTORE PUSH1 0x20 ADD PUSH1 0x4 DUP3 ADD PUSH0 SWAP1 SLOAD SWAP1 PUSH2 0x100 EXP SWAP1 DIV PUSH1 0xFF AND ISZERO ISZERO ISZERO ISZERO DUP2 MSTORE POP POP DUP2 MSTORE PUSH1 0x20 ADD SWAP1 PUSH1 0x1 ADD SWAP1 PUSH2 0x1637 JUMP JUMPDEST POP POP POP POP DUP2 MSTORE POP POP SWAP2 POP POP SWAP2 SWAP1 POP JUMP JUMPDEST PUSH2 0x16D3 PUSH2 0x17E9 JUMP JUMPDEST PUSH0 JUMPDEST PUSH1 0xA DUP1 SLOAD SWAP1 POP DUP2 GT PUSH2 0x1723 JUMPI PUSH1 0x4 PUSH0 DUP1 DUP2 MSTORE PUSH1 0x20 ADD SWAP1 DUP2 MSTORE PUSH1 0x20 ADD PUSH0 KECCAK256 PUSH0 DUP1 DUP3 ADD PUSH0 SWAP1 SSTORE PUSH1 0x1 DUP3 ADD PUSH0 SWAP1 SSTORE PUSH1 0x2 DUP3 ADD PUSH0 SWAP1 SSTORE PUSH1 0x3 DUP3 ADD PUSH0 SWAP1 SSTORE POP POP DUP1 DUP1 PUSH2 0x171B SWAP1 PUSH2 0x2B86 JUMP JUMPDEST SWAP2 POP POP PUSH2 0x16D5 JUMP JUMPDEST POP PUSH1 0xA PUSH0 PUSH2 0x1731 SWAP2 SWAP1 PUSH2 0x21A4 JUMP JUMPDEST PUSH0 PUSH1 0xB DUP2 SWAP1 SSTORE POP JUMP JUMPDEST PUSH1 0xE SLOAD DUP2 JUMP JUMPDEST PUSH2 0x1748 PUSH2 0x17E9 JUMP JUMPDEST PUSH0 PUSH20 0xFFFFFFFFFFFFFFFFFFFFFFFFFFFFFFFFFFFFFFFF AND DUP2 PUSH20 0xFFFFFFFFFFFFFFFFFFFFFFFFFFFFFFFFFFFFFFFF AND SUB PUSH2 0x17B8 JUMPI PUSH0 PUSH1 0x40 MLOAD PUSH32 0x1E4FBDF700000000000000000000000000000000000000000000000000000000 DUP2 MSTORE PUSH1 0x4 ADD PUSH2 0x17AF SWAP2 SWAP1 PUSH2 0x2513 JUMP JUMPDEST PUSH1 0x40 MLOAD DUP1 SWAP2 SUB SWAP1 REVERT JUMPDEST PUSH2 0x17C1 DUP2 PUSH2 0x1BCC JUMP JUMPDEST POP JUMP JUMPDEST PUSH1 0x3 PUSH0 SWAP1 SLOAD SWAP1 PUSH2 0x100 EXP SWAP1 DIV PUSH20 0xFFFFFFFFFFFFFFFFFFFFFFFFFFFFFFFFFFFFFFFF AND DUP2 JUMP JUMPDEST PUSH2 0x17F1 PUSH2 0x1C8D JUMP JUMPDEST PUSH20 0xFFFFFFFFFFFFFFFFFFFFFFFFFFFFFFFFFFFFFFFF AND PUSH2 0x180F PUSH2 0x103C JUMP JUMPDEST PUSH20 0xFFFFFFFFFFFFFFFFFFFFFFFFFFFFFFFFFFFFFFFF AND EQ PUSH2 0x186E JUMPI PUSH2 0x1832 PUSH2 0x1C8D JUMP JUMPDEST PUSH1 0x40 MLOAD PUSH32 0x118CDAA700000000000000000000000000000000000000000000000000000000 DUP2 MSTORE PUSH1 0x4 ADD PUSH2 0x1865 SWAP2 SWAP1 PUSH2 0x2513 JUMP JUMPDEST PUSH1 0x40 MLOAD DUP1 SWAP2 SUB SWAP1 REVERT JUMPDEST JUMP JUMPDEST PUSH0 PUSH3 0x15180 TIMESTAMP PUSH2 0x1880 SWAP2 SWAP1 PUSH2 0x2D80 JUMP JUMPDEST SWAP1 POP SWAP1 JUMP JUMPDEST PUSH0 DUP1 PUSH1 0x9 DUP1 SLOAD SWAP1 POP SWAP1 POP PUSH1 0x1 DUP2 GT PUSH2 0x18A0 JUMPI PUSH0 SWAP2 POP POP PUSH2 0x1978 JUMP JUMPDEST PUSH0 DUP1 PUSH0 JUMPDEST DUP4 DUP2 LT ISZERO PUSH2 0x1970 JUMPI DUP4 TIMESTAMP PREVRANDAO DUP4 PUSH1 0x40 MLOAD PUSH1 0x20 ADD PUSH2 0x18C2 SWAP4 SWAP3 SWAP2 SWAP1 PUSH2 0x2DB0 JUMP JUMPDEST PUSH1 0x40 MLOAD PUSH1 0x20 DUP2 DUP4 SUB SUB DUP2 MSTORE SWAP1 PUSH1 0x40 MSTORE DUP1 MLOAD SWAP1 PUSH1 0x20 ADD KECCAK256 PUSH0 SHR PUSH2 0x18E4 SWAP2 SWAP1 PUSH2 0x2931 JUMP JUMPDEST SWAP3 POP PUSH1 0x9 DUP4 DUP2 SLOAD DUP2 LT PUSH2 0x18FA JUMPI PUSH2 0x18F9 PUSH2 0x2A29 JUMP JUMPDEST JUMPDEST SWAP1 PUSH0 MSTORE PUSH1 0x20 PUSH0 KECCAK256 ADD PUSH0 SWAP1 SLOAD SWAP1 PUSH2 0x100 EXP SWAP1 DIV PUSH20 0xFFFFFFFFFFFFFFFFFFFFFFFFFFFFFFFFFFFFFFFF AND SWAP2 POP DUP6 PUSH20 0xFFFFFFFFFFFFFFFFFFFFFFFFFFFFFFFFFFFFFFFF AND DUP3 PUSH20 0xFFFFFFFFFFFFFFFFFFFFFFFFFFFFFFFFFFFFFFFF AND EQ PUSH2 0x1963 JUMPI DUP2 SWAP5 POP POP POP POP POP PUSH2 0x1978 JUMP JUMPDEST DUP1 DUP1 PUSH1 0x1 ADD SWAP2 POP POP PUSH2 0x18A4 JUMP JUMPDEST POP PUSH0 SWAP4 POP POP POP POP JUMPDEST SWAP2 SWAP1 POP JUMP JUMPDEST PUSH0 PUSH1 0x6 PUSH0 DUP5 PUSH20 0xFFFFFFFFFFFFFFFFFFFFFFFFFFFFFFFFFFFFFFFF AND PUSH20 0xFFFFFFFFFFFFFFFFFFFFFFFFFFFFFFFFFFFFFFFF AND DUP2 MSTORE PUSH1 0x20 ADD SWAP1 DUP2 MSTORE PUSH1 0x20 ADD PUSH0 KECCAK256 SLOAD SWAP1 POP PUSH0 PUSH1 0x6 PUSH0 DUP5 PUSH20 0xFFFFFFFFFFFFFFFFFFFFFFFFFFFFFFFFFFFFFFFF AND PUSH20 0xFFFFFFFFFFFFFFFFFFFFFFFFFFFFFFFFFFFFFFFF AND DUP2 MSTORE PUSH1 0x20 ADD SWAP1 DUP2 MSTORE PUSH1 0x20 ADD PUSH0 KECCAK256 SLOAD SWAP1 POP PUSH0 PUSH1 0x4 PUSH0 DUP5 DUP2 MSTORE PUSH1 0x20 ADD SWAP1 DUP2 MSTORE PUSH1 0x20 ADD PUSH0 KECCAK256 SWAP1 POP PUSH0 PUSH1 0x4 PUSH0 DUP5 DUP2 MSTORE PUSH1 0x20 ADD SWAP1 DUP2 MSTORE PUSH1 0x20 ADD PUSH0 KECCAK256 SWAP1 POP PUSH0 DUP3 PUSH1 0x3 ADD SLOAD SWAP1 POP PUSH0 DUP3 PUSH1 0x3 ADD SLOAD SWAP1 POP PUSH0 DUP1 PUSH1 0x2 TIMESTAMP PREVRANDAO PUSH1 0x40 MLOAD PUSH1 0x20 ADD PUSH2 0x1A4E SWAP3 SWAP2 SWAP1 PUSH2 0x28D9 JUMP JUMPDEST PUSH1 0x40 MLOAD PUSH1 0x20 DUP2 DUP4 SUB SUB DUP2 MSTORE SWAP1 PUSH1 0x40 MSTORE DUP1 MLOAD SWAP1 PUSH1 0x20 ADD KECCAK256 PUSH0 SHR PUSH2 0x1A70 SWAP2 SWAP1 PUSH2 0x2931 JUMP JUMPDEST EQ SWAP1 POP PUSH0 JUMPDEST PUSH1 0xA DUP2 LT DUP1 ISZERO PUSH2 0x1A84 JUMPI POP PUSH0 DUP5 GT JUMPDEST DUP1 ISZERO PUSH2 0x1A8F JUMPI POP PUSH0 DUP4 GT JUMPDEST ISZERO PUSH2 0x1B27 JUMPI DUP2 ISZERO PUSH2 0x1AD9 JUMPI PUSH2 0x1AB1 DUP7 PUSH1 0x1 ADD SLOAD DUP8 PUSH1 0x2 ADD SLOAD DUP9 PUSH1 0x3 ADD SLOAD PUSH2 0x1C94 JUMP JUMPDEST SWAP3 POP PUSH0 DUP4 SUB ISZERO PUSH2 0x1B27 JUMPI PUSH2 0x1AD2 DUP6 PUSH1 0x1 ADD SLOAD DUP7 PUSH1 0x2 ADD SLOAD DUP8 PUSH1 0x3 ADD SLOAD PUSH2 0x1C94 JUMP JUMPDEST SWAP4 POP PUSH2 0x1B14 JUMP JUMPDEST PUSH2 0x1AF0 DUP6 PUSH1 0x1 ADD SLOAD DUP7 PUSH1 0x2 ADD SLOAD DUP8 PUSH1 0x3 ADD SLOAD PUSH2 0x1C94 JUMP JUMPDEST SWAP4 POP PUSH0 DUP5 SUB ISZERO PUSH2 0x1B27 JUMPI PUSH2 0x1B11 DUP7 PUSH1 0x1 ADD SLOAD DUP8 PUSH1 0x2 ADD SLOAD DUP9 PUSH1 0x3 ADD SLOAD PUSH2 0x1C94 JUMP JUMPDEST SWAP3 POP JUMPDEST DUP1 DUP1 PUSH2 0x1B1F SWAP1 PUSH2 0x2B86 JUMP JUMPDEST SWAP2 POP POP PUSH2 0x1A75 JUMP JUMPDEST POP PUSH2 0x1B33 DUP4 DUP9 DUP9 PUSH2 0x1CC6 JUMP JUMPDEST POP POP POP POP POP POP POP POP POP JUMP JUMPDEST PUSH1 0x3 PUSH0 SWAP1 SLOAD SWAP1 PUSH2 0x100 EXP SWAP1 DIV PUSH20 0xFFFFFFFFFFFFFFFFFFFFFFFFFFFFFFFFFFFFFFFF AND PUSH20 0xFFFFFFFFFFFFFFFFFFFFFFFFFFFFFFFFFFFFFFFF AND PUSH4 0x40C10F19 DUP3 PUSH1 0xD SLOAD PUSH1 0x40 MLOAD DUP4 PUSH4 0xFFFFFFFF AND PUSH1 0xE0 SHL DUP2 MSTORE PUSH1 0x4 ADD PUSH2 0x1B9C SWAP3 SWAP2 SWAP1 PUSH2 0x2892 JUMP JUMPDEST PUSH0 PUSH1 0x40 MLOAD DUP1 DUP4 SUB DUP2 PUSH0 DUP8 DUP1 EXTCODESIZE ISZERO DUP1 ISZERO PUSH2 0x1BB3 JUMPI PUSH0 DUP1 REVERT JUMPDEST POP GAS CALL ISZERO DUP1 ISZERO PUSH2 0x1BC5 JUMPI RETURNDATASIZE PUSH0 DUP1 RETURNDATACOPY RETURNDATASIZE PUSH0 REVERT JUMPDEST POP POP POP POP POP JUMP JUMPDEST PUSH0 DUP1 PUSH0 SWAP1 SLOAD SWAP1 PUSH2 0x100 EXP SWAP1 DIV PUSH20 0xFFFFFFFFFFFFFFFFFFFFFFFFFFFFFFFFFFFFFFFF AND SWAP1 POP DUP2 PUSH0 DUP1 PUSH2 0x100 EXP DUP2 SLOAD DUP2 PUSH20 0xFFFFFFFFFFFFFFFFFFFFFFFFFFFFFFFFFFFFFFFF MUL NOT AND SWAP1 DUP4 PUSH20 0xFFFFFFFFFFFFFFFFFFFFFFFFFFFFFFFFFFFFFFFF AND MUL OR SWAP1 SSTORE POP DUP2 PUSH20 0xFFFFFFFFFFFFFFFFFFFFFFFFFFFFFFFFFFFFFFFF AND DUP2 PUSH20 0xFFFFFFFFFFFFFFFFFFFFFFFFFFFFFFFFFFFFFFFF AND PUSH32 0x8BE0079C531659141344CD1FD0A4F28419497F9722A3DAAFE3B4186F6B6457E0 PUSH1 0x40 MLOAD PUSH1 0x40 MLOAD DUP1 SWAP2 SUB SWAP1 LOG3 POP POP JUMP JUMPDEST PUSH0 CALLER SWAP1 POP SWAP1 JUMP JUMPDEST PUSH0 DUP1 PUSH2 0x1CA0 DUP6 DUP6 PUSH2 0x20F2 JUMP JUMPDEST SWAP1 POP DUP1 DUP4 GT PUSH2 0x1CAF JUMPI PUSH0 PUSH2 0x1CBC JUMP JUMPDEST DUP1 DUP4 PUSH2 0x1CBB SWAP2 SWAP1 PUSH2 0x2A56 JUMP JUMPDEST JUMPDEST SWAP2 POP POP SWAP4 SWAP3 POP POP POP JUMP JUMPDEST PUSH0 PUSH1 0x4 PUSH0 DUP5 DUP2 MSTORE PUSH1 0x20 ADD SWAP1 DUP2 MSTORE PUSH1 0x20 ADD PUSH0 KECCAK256 SWAP1 POP PUSH0 PUSH1 0x4 PUSH0 DUP5 DUP2 MSTORE PUSH1 0x20 ADD SWAP1 DUP2 MSTORE PUSH1 0x20 ADD PUSH0 KECCAK256 SWAP1 POP PUSH0 DUP6 SUB PUSH2 0x1EF2 JUMPI PUSH1 0x5 PUSH0 DUP5 DUP2 MSTORE PUSH1 0x20 ADD SWAP1 DUP2 MSTORE PUSH1 0x20 ADD PUSH0 KECCAK256 PUSH0 ADD PUSH0 DUP2 SLOAD DUP1 SWAP3 SWAP2 SWAP1 PUSH2 0x1D18 SWAP1 PUSH2 0x2B86 JUMP JUMPDEST SWAP2 SWAP1 POP SSTORE POP PUSH1 0x5 PUSH0 DUP5 DUP2 MSTORE PUSH1 0x20 ADD SWAP1 DUP2 MSTORE PUSH1 0x20 ADD PUSH0 KECCAK256 PUSH1 0x2 ADD PUSH1 0x40 MLOAD DUP1 PUSH1 0x40 ADD PUSH1 0x40 MSTORE DUP1 DUP5 PUSH1 0x40 MLOAD DUP1 PUSH1 0x80 ADD PUSH1 0x40 MSTORE SWAP1 DUP2 PUSH0 DUP3 ADD SLOAD DUP2 MSTORE PUSH1 0x20 ADD PUSH1 0x1 DUP3 ADD SLOAD DUP2 MSTORE PUSH1 0x20 ADD PUSH1 0x2 DUP3 ADD SLOAD DUP2 MSTORE PUSH1 0x20 ADD PUSH1 0x3 DUP3 ADD SLOAD DUP2 MSTORE POP POP DUP2 MSTORE PUSH1 0x20 ADD PUSH1 0x1 ISZERO ISZERO DUP2 MSTORE POP SWAP1 DUP1 PUSH1 0x1 DUP2 SLOAD ADD DUP1 DUP3 SSTORE DUP1 SWAP2 POP POP PUSH1 0x1 SWAP1 SUB SWAP1 PUSH0 MSTORE PUSH1 0x20 PUSH0 KECCAK256 SWAP1 PUSH1 0x5 MUL ADD PUSH0 SWAP1 SWAP2 SWAP1 SWAP2 SWAP1 SWAP2 POP PUSH0 DUP3 ADD MLOAD DUP2 PUSH0 ADD PUSH0 DUP3 ADD MLOAD DUP2 PUSH0 ADD SSTORE PUSH1 0x20 DUP3 ADD MLOAD DUP2 PUSH1 0x1 ADD SSTORE PUSH1 0x40 DUP3 ADD MLOAD DUP2 PUSH1 0x2 ADD SSTORE PUSH1 0x60 DUP3 ADD MLOAD DUP2 PUSH1 0x3 ADD SSTORE POP POP PUSH1 0x20 DUP3 ADD MLOAD DUP2 PUSH1 0x4 ADD PUSH0 PUSH2 0x100 EXP DUP2 SLOAD DUP2 PUSH1 0xFF MUL NOT AND SWAP1 DUP4 ISZERO ISZERO MUL OR SWAP1 SSTORE POP POP POP PUSH1 0x5 PUSH0 DUP6 DUP2 MSTORE PUSH1 0x20 ADD SWAP1 DUP2 MSTORE PUSH1 0x20 ADD PUSH0 KECCAK256 PUSH1 0x1 ADD PUSH0 DUP2 SLOAD DUP1 SWAP3 SWAP2 SWAP1 PUSH2 0x1E15 SWAP1 PUSH2 0x2B86 JUMP JUMPDEST SWAP2 SWAP1 POP SSTORE POP PUSH1 0x5 PUSH0 DUP6 DUP2 MSTORE PUSH1 0x20 ADD SWAP1 DUP2 MSTORE PUSH1 0x20 ADD PUSH0 KECCAK256 PUSH1 0x2 ADD PUSH1 0x40 MLOAD DUP1 PUSH1 0x40 ADD PUSH1 0x40 MSTORE DUP1 DUP4 PUSH1 0x40 MLOAD DUP1 PUSH1 0x80 ADD PUSH1 0x40 MSTORE SWAP1 DUP2 PUSH0 DUP3 ADD SLOAD DUP2 MSTORE PUSH1 0x20 ADD PUSH1 0x1 DUP3 ADD SLOAD DUP2 MSTORE PUSH1 0x20 ADD PUSH1 0x2 DUP3 ADD SLOAD DUP2 MSTORE PUSH1 0x20 ADD PUSH1 0x3 DUP3 ADD SLOAD DUP2 MSTORE POP POP DUP2 MSTORE PUSH1 0x20 ADD PUSH0 ISZERO ISZERO DUP2 MSTORE POP SWAP1 DUP1 PUSH1 0x1 DUP2 SLOAD ADD DUP1 DUP3 SSTORE DUP1 SWAP2 POP POP PUSH1 0x1 SWAP1 SUB SWAP1 PUSH0 MSTORE PUSH1 0x20 PUSH0 KECCAK256 SWAP1 PUSH1 0x5 MUL ADD PUSH0 SWAP1 SWAP2 SWAP1 SWAP2 SWAP1 SWAP2 POP PUSH0 DUP3 ADD MLOAD DUP2 PUSH0 ADD PUSH0 DUP3 ADD MLOAD DUP2 PUSH0 ADD SSTORE PUSH1 0x20 DUP3 ADD MLOAD DUP2 PUSH1 0x1 ADD SSTORE PUSH1 0x40 DUP3 ADD MLOAD DUP2 PUSH1 0x2 ADD SSTORE PUSH1 0x60 DUP3 ADD MLOAD DUP2 PUSH1 0x3 ADD SSTORE POP POP PUSH1 0x20 DUP3 ADD MLOAD DUP2 PUSH1 0x4 ADD PUSH0 PUSH2 0x100 EXP DUP2 SLOAD DUP2 PUSH1 0xFF MUL NOT AND SWAP1 DUP4 ISZERO ISZERO MUL OR SWAP1 SSTORE POP POP POP PUSH2 0x20EB JUMP JUMPDEST PUSH1 0x5 PUSH0 DUP6 DUP2 MSTORE PUSH1 0x20 ADD SWAP1 DUP2 MSTORE PUSH1 0x20 ADD PUSH0 KECCAK256 PUSH0 ADD PUSH0 DUP2 SLOAD DUP1 SWAP3 SWAP2 SWAP1 PUSH2 0x1F15 SWAP1 PUSH2 0x2B86 JUMP JUMPDEST SWAP2 SWAP1 POP SSTORE POP PUSH1 0x5 PUSH0 DUP6 DUP2 MSTORE PUSH1 0x20 ADD SWAP1 DUP2 MSTORE PUSH1 0x20 ADD PUSH0 KECCAK256 PUSH1 0x2 ADD PUSH1 0x40 MLOAD DUP1 PUSH1 0x40 ADD PUSH1 0x40 MSTORE DUP1 DUP4 PUSH1 0x40 MLOAD DUP1 PUSH1 0x80 ADD PUSH1 0x40 MSTORE SWAP1 DUP2 PUSH0 DUP3 ADD SLOAD DUP2 MSTORE PUSH1 0x20 ADD PUSH1 0x1 DUP3 ADD SLOAD DUP2 MSTORE PUSH1 0x20 ADD PUSH1 0x2 DUP3 ADD SLOAD DUP2 MSTORE PUSH1 0x20 ADD PUSH1 0x3 DUP3 ADD SLOAD DUP2 MSTORE POP POP DUP2 MSTORE PUSH1 0x20 ADD PUSH1 0x1 ISZERO ISZERO DUP2 MSTORE POP SWAP1 DUP1 PUSH1 0x1 DUP2 SLOAD ADD DUP1 DUP3 SSTORE DUP1 SWAP2 POP POP PUSH1 0x1 SWAP1 SUB SWAP1 PUSH0 MSTORE PUSH1 0x20 PUSH0 KECCAK256 SWAP1 PUSH1 0x5 MUL ADD PUSH0 SWAP1 SWAP2 SWAP1 SWAP2 SWAP1 SWAP2 POP PUSH0 DUP3 ADD MLOAD DUP2 PUSH0 ADD PUSH0 DUP3 ADD MLOAD DUP2 PUSH0 ADD SSTORE PUSH1 0x20 DUP3 ADD MLOAD DUP2 PUSH1 0x1 ADD SSTORE PUSH1 0x40 DUP3 ADD MLOAD DUP2 PUSH1 0x2 ADD SSTORE PUSH1 0x60 DUP3 ADD MLOAD DUP2 PUSH1 0x3 ADD SSTORE POP POP PUSH1 0x20 DUP3 ADD MLOAD DUP2 PUSH1 0x4 ADD PUSH0 PUSH2 0x100 EXP DUP2 SLOAD DUP2 PUSH1 0xFF MUL NOT AND SWAP1 DUP4 ISZERO ISZERO MUL OR SWAP1 SSTORE POP POP POP PUSH1 0x5 PUSH0 DUP5 DUP2 MSTORE PUSH1 0x20 ADD SWAP1 DUP2 MSTORE PUSH1 0x20 ADD PUSH0 KECCAK256 PUSH1 0x1 ADD PUSH0 DUP2 SLOAD DUP1 SWAP3 SWAP2 SWAP1 PUSH2 0x2012 SWAP1 PUSH2 0x2B86 JUMP JUMPDEST SWAP2 SWAP1 POP SSTORE POP PUSH1 0x5 PUSH0 DUP5 DUP2 MSTORE PUSH1 0x20 ADD SWAP1 DUP2 MSTORE PUSH1 0x20 ADD PUSH0 KECCAK256 PUSH1 0x2 ADD PUSH1 0x40 MLOAD DUP1 PUSH1 0x40 ADD PUSH1 0x40 MSTORE DUP1 DUP5 PUSH1 0x40 MLOAD DUP1 PUSH1 0x80 ADD PUSH1 0x40 MSTORE SWAP1 DUP2 PUSH0 DUP3 ADD SLOAD DUP2 MSTORE PUSH1 0x20 ADD PUSH1 0x1 DUP3 ADD SLOAD DUP2 MSTORE PUSH1 0x20 ADD PUSH1 0x2 DUP3 ADD SLOAD DUP2 MSTORE PUSH1 0x20 ADD PUSH1 0x3 DUP3 ADD SLOAD DUP2 MSTORE POP POP DUP2 MSTORE PUSH1 0x20 ADD PUSH0 ISZERO ISZERO DUP2 MSTORE POP SWAP1 DUP1 PUSH1 0x1 DUP2 SLOAD ADD DUP1 DUP3 SSTORE DUP1 SWAP2 POP POP PUSH1 0x1 SWAP1 SUB SWAP1 PUSH0 MSTORE PUSH1 0x20 PUSH0 KECCAK256 SWAP1 PUSH1 0x5 MUL ADD PUSH0 SWAP1 SWAP2 SWAP1 SWAP2 SWAP1 SWAP2 POP PUSH0 DUP3 ADD MLOAD DUP2 PUSH0 ADD PUSH0 DUP3 ADD MLOAD DUP2 PUSH0 ADD SSTORE PUSH1 0x20 DUP3 ADD MLOAD DUP2 PUSH1 0x1 ADD SSTORE PUSH1 0x40 DUP3 ADD MLOAD DUP2 PUSH1 0x2 ADD SSTORE PUSH1 0x60 DUP3 ADD MLOAD DUP2 PUSH1 0x3 ADD SSTORE POP POP PUSH1 0x20 DUP3 ADD MLOAD DUP2 PUSH1 0x4 ADD PUSH0 PUSH2 0x100 EXP DUP2 SLOAD DUP2 PUSH1 0xFF MUL NOT AND SWAP1 DUP4 ISZERO ISZERO MUL OR SWAP1 SSTORE POP POP POP JUMPDEST POP POP POP POP POP JUMP JUMPDEST PUSH0 DUP1 PUSH1 0xA SWAP1 POP PUSH0 PUSH1 0x64 DUP5 PUSH2 0x2106 SWAP2 SWAP1 PUSH2 0x298E JUMP JUMPDEST PUSH1 0x64 DUP6 PUSH2 0x2113 SWAP2 SWAP1 PUSH2 0x2DEC JUMP JUMPDEST PUSH2 0x211D SWAP2 SWAP1 PUSH2 0x2D80 JUMP JUMPDEST SWAP1 POP PUSH0 PUSH1 0x5A DUP3 GT PUSH2 0x213A JUMPI DUP2 PUSH1 0x64 PUSH2 0x2135 SWAP2 SWAP1 PUSH2 0x2A56 JUMP JUMPDEST PUSH2 0x213C JUMP JUMPDEST DUP3 JUMPDEST SWAP1 POP PUSH1 0x64 DUP2 DUP8 PUSH2 0x214C SWAP2 SWAP1 PUSH2 0x2DEC JUMP JUMPDEST PUSH2 0x2156 SWAP2 SWAP1 PUSH2 0x2D80 JUMP JUMPDEST SWAP4 POP POP POP POP SWAP3 SWAP2 POP POP JUMP JUMPDEST PUSH1 0x40 MLOAD DUP1 PUSH1 0x80 ADD PUSH1 0x40 MSTORE DUP1 PUSH0 DUP2 MSTORE PUSH1 0x20 ADD PUSH0 DUP2 MSTORE PUSH1 0x20 ADD PUSH0 DUP2 MSTORE PUSH1 0x20 ADD PUSH0 DUP2 MSTORE POP SWAP1 JUMP JUMPDEST PUSH1 0x40 MLOAD DUP1 PUSH1 0x60 ADD PUSH1 0x40 MSTORE DUP1 PUSH0 DUP2 MSTORE PUSH1 0x20 ADD PUSH0 DUP2 MSTORE PUSH1 0x20 ADD PUSH1 0x60 DUP2 MSTORE POP SWAP1 JUMP JUMPDEST POP DUP1 SLOAD PUSH0 DUP3 SSTORE SWAP1 PUSH0 MSTORE PUSH1 0x20 PUSH0 KECCAK256 SWAP1 DUP2 ADD SWAP1 PUSH2 0x21BF SWAP2 SWAP1 PUSH2 0x21C2 JUMP JUMPDEST POP JUMP JUMPDEST JUMPDEST DUP1 DUP3 GT ISZERO PUSH2 0x21D9 JUMPI PUSH0 DUP2 PUSH0 SWAP1 SSTORE POP PUSH1 0x1 ADD PUSH2 0x21C3 JUMP JUMPDEST POP SWAP1 JUMP JUMPDEST PUSH0 DUP2 SWAP1 POP SWAP2 SWAP1 POP JUMP JUMPDEST PUSH2 0x21EF DUP2 PUSH2 0x21DD JUMP JUMPDEST DUP3 MSTORE POP POP JUMP JUMPDEST PUSH0 PUSH1 0x20 DUP3 ADD SWAP1 POP PUSH2 0x2208 PUSH0 DUP4 ADD DUP5 PUSH2 0x21E6 JUMP JUMPDEST SWAP3 SWAP2 POP POP JUMP JUMPDEST PUSH0 DUP1 REVERT JUMPDEST PUSH2 0x221B DUP2 PUSH2 0x21DD JUMP JUMPDEST DUP2 EQ PUSH2 0x2225 JUMPI PUSH0 DUP1 REVERT JUMPDEST POP JUMP JUMPDEST PUSH0 DUP2 CALLDATALOAD SWAP1 POP PUSH2 0x2236 DUP2 PUSH2 0x2212 JUMP JUMPDEST SWAP3 SWAP2 POP POP JUMP JUMPDEST PUSH0 PUSH1 0x20 DUP3 DUP5 SUB SLT ISZERO PUSH2 0x2251 JUMPI PUSH2 0x2250 PUSH2 0x220E JUMP JUMPDEST JUMPDEST PUSH0 PUSH2 0x225E DUP5 DUP3 DUP6 ADD PUSH2 0x2228 JUMP JUMPDEST SWAP2 POP POP SWAP3 SWAP2 POP POP JUMP JUMPDEST PUSH0 DUP2 MLOAD SWAP1 POP SWAP2 SWAP1 POP JUMP JUMPDEST PUSH0 DUP3 DUP3 MSTORE PUSH1 0x20 DUP3 ADD SWAP1 POP SWAP3 SWAP2 POP POP JUMP JUMPDEST PUSH0 DUP2 SWAP1 POP PUSH1 0x20 DUP3 ADD SWAP1 POP SWAP2 SWAP1 POP JUMP JUMPDEST PUSH2 0x2299 DUP2 PUSH2 0x21DD JUMP JUMPDEST DUP3 MSTORE POP POP JUMP JUMPDEST PUSH1 0x80 DUP3 ADD PUSH0 DUP3 ADD MLOAD PUSH2 0x22B3 PUSH0 DUP6 ADD DUP3 PUSH2 0x2290 JUMP JUMPDEST POP PUSH1 0x20 DUP3 ADD MLOAD PUSH2 0x22C6 PUSH1 0x20 DUP6 ADD DUP3 PUSH2 0x2290 JUMP JUMPDEST POP PUSH1 0x40 DUP3 ADD MLOAD PUSH2 0x22D9 PUSH1 0x40 DUP6 ADD DUP3 PUSH2 0x2290 JUMP JUMPDEST POP PUSH1 0x60 DUP3 ADD MLOAD PUSH2 0x22EC PUSH1 0x60 DUP6 ADD DUP3 PUSH2 0x2290 JUMP JUMPDEST POP POP POP POP JUMP JUMPDEST PUSH0 DUP2 ISZERO ISZERO SWAP1 POP SWAP2 SWAP1 POP JUMP JUMPDEST PUSH2 0x2306 DUP2 PUSH2 0x22F2 JUMP JUMPDEST DUP3 MSTORE POP POP JUMP JUMPDEST PUSH1 0xA0 DUP3 ADD PUSH0 DUP3 ADD MLOAD PUSH2 0x2320 PUSH0 DUP6 ADD DUP3 PUSH2 0x229F JUMP JUMPDEST POP PUSH1 0x20 DUP3 ADD MLOAD PUSH2 0x2333 PUSH1 0x80 DUP6 ADD DUP3 PUSH2 0x22FD JUMP JUMPDEST POP POP POP POP JUMP JUMPDEST PUSH0 PUSH2 0x2344 DUP4 DUP4 PUSH2 0x230C JUMP JUMPDEST PUSH1 0xA0 DUP4 ADD SWAP1 POP SWAP3 SWAP2 POP POP JUMP JUMPDEST PUSH0 PUSH1 0x20 DUP3 ADD SWAP1 POP SWAP2 SWAP1 POP JUMP JUMPDEST PUSH0 PUSH2 0x2366 DUP3 PUSH2 0x2267 JUMP JUMPDEST PUSH2 0x2370 DUP2 DUP6 PUSH2 0x2271 JUMP JUMPDEST SWAP4 POP PUSH2 0x237B DUP4 PUSH2 0x2281 JUMP JUMPDEST DUP1 PUSH0 JUMPDEST DUP4 DUP2 LT ISZERO PUSH2 0x23AB JUMPI DUP2 MLOAD PUSH2 0x2392 DUP9 DUP3 PUSH2 0x2339 JUMP JUMPDEST SWAP8 POP PUSH2 0x239D DUP4 PUSH2 0x2350 JUMP JUMPDEST SWAP3 POP POP PUSH1 0x1 DUP2 ADD SWAP1 POP PUSH2 0x237E JUMP JUMPDEST POP DUP6 SWAP4 POP POP POP POP SWAP3 SWAP2 POP POP JUMP JUMPDEST PUSH0 PUSH1 0x60 DUP3 ADD SWAP1 POP PUSH2 0x23CB PUSH0 DUP4 ADD DUP7 PUSH2 0x21E6 JUMP JUMPDEST PUSH2 0x23D8 PUSH1 0x20 DUP4 ADD DUP6 PUSH2 0x21E6 JUMP JUMPDEST DUP2 DUP2 SUB PUSH1 0x40 DUP4 ADD MSTORE PUSH2 0x23EA DUP2 DUP5 PUSH2 0x235C JUMP JUMPDEST SWAP1 POP SWAP5 SWAP4 POP POP POP POP JUMP JUMPDEST PUSH1 0x80 DUP3 ADD PUSH0 DUP3 ADD MLOAD PUSH2 0x2408 PUSH0 DUP6 ADD DUP3 PUSH2 0x2290 JUMP JUMPDEST POP PUSH1 0x20 DUP3 ADD MLOAD PUSH2 0x241B PUSH1 0x20 DUP6 ADD DUP3 PUSH2 0x2290 JUMP JUMPDEST POP PUSH1 0x40 DUP3 ADD MLOAD PUSH2 0x242E PUSH1 0x40 DUP6 ADD DUP3 PUSH2 0x2290 JUMP JUMPDEST POP PUSH1 0x60 DUP3 ADD MLOAD PUSH2 0x2441 PUSH1 0x60 DUP6 ADD DUP3 PUSH2 0x2290 JUMP JUMPDEST POP POP POP POP JUMP JUMPDEST PUSH0 PUSH1 0x80 DUP3 ADD SWAP1 POP PUSH2 0x245A PUSH0 DUP4 ADD DUP5 PUSH2 0x23F4 JUMP JUMPDEST SWAP3 SWAP2 POP POP JUMP JUMPDEST PUSH0 PUSH20 0xFFFFFFFFFFFFFFFFFFFFFFFFFFFFFFFFFFFFFFFF DUP3 AND SWAP1 POP SWAP2 SWAP1 POP JUMP JUMPDEST PUSH0 DUP2 SWAP1 POP SWAP2 SWAP1 POP JUMP JUMPDEST PUSH0 PUSH2 0x24A2 PUSH2 0x249D PUSH2 0x2498 DUP5 PUSH2 0x2460 JUMP JUMPDEST PUSH2 0x247F JUMP JUMPDEST PUSH2 0x2460 JUMP JUMPDEST SWAP1 POP SWAP2 SWAP1 POP JUMP JUMPDEST PUSH0 PUSH2 0x24B3 DUP3 PUSH2 0x2488 JUMP JUMPDEST SWAP1 POP SWAP2 SWAP1 POP JUMP JUMPDEST PUSH0 PUSH2 0x24C4 DUP3 PUSH2 0x24A9 JUMP JUMPDEST SWAP1 POP SWAP2 SWAP1 POP JUMP JUMPDEST PUSH2 0x24D4 DUP2 PUSH2 0x24BA JUMP JUMPDEST DUP3 MSTORE POP POP JUMP JUMPDEST PUSH0 PUSH1 0x20 DUP3 ADD SWAP1 POP PUSH2 0x24ED PUSH0 DUP4 ADD DUP5 PUSH2 0x24CB JUMP JUMPDEST SWAP3 SWAP2 POP POP JUMP JUMPDEST PUSH0 PUSH2 0x24FD DUP3 PUSH2 0x2460 JUMP JUMPDEST SWAP1 POP SWAP2 SWAP1 POP JUMP JUMPDEST PUSH2 0x250D DUP2 PUSH2 0x24F3 JUMP JUMPDEST DUP3 MSTORE POP POP JUMP JUMPDEST PUSH0 PUSH1 0x20 DUP3 ADD SWAP1 POP PUSH2 0x2526 PUSH0 DUP4 ADD DUP5 PUSH2 0x2504 JUMP JUMPDEST SWAP3 SWAP2 POP POP JUMP JUMPDEST PUSH0 PUSH2 0x2536 DUP3 PUSH2 0x24A9 JUMP JUMPDEST SWAP1 POP SWAP2 SWAP1 POP JUMP JUMPDEST PUSH2 0x2546 DUP2 PUSH2 0x252C JUMP JUMPDEST DUP3 MSTORE POP POP JUMP JUMPDEST PUSH0 PUSH1 0x20 DUP3 ADD SWAP1 POP PUSH2 0x255F PUSH0 DUP4 ADD DUP5 PUSH2 0x253D JUMP JUMPDEST SWAP3 SWAP2 POP POP JUMP JUMPDEST PUSH2 0x256E DUP2 PUSH2 0x24F3 JUMP JUMPDEST DUP2 EQ PUSH2 0x2578 JUMPI PUSH0 DUP1 REVERT JUMPDEST POP JUMP JUMPDEST PUSH0 DUP2 CALLDATALOAD SWAP1 POP PUSH2 0x2589 DUP2 PUSH2 0x2565 JUMP JUMPDEST SWAP3 SWAP2 POP POP JUMP JUMPDEST PUSH0 PUSH1 0x20 DUP3 DUP5 SUB SLT ISZERO PUSH2 0x25A4 JUMPI PUSH2 0x25A3 PUSH2 0x220E JUMP JUMPDEST JUMPDEST PUSH0 PUSH2 0x25B1 DUP5 DUP3 DUP6 ADD PUSH2 0x257B JUMP JUMPDEST SWAP2 POP POP SWAP3 SWAP2 POP POP JUMP JUMPDEST PUSH0 DUP3 DUP3 MSTORE PUSH1 0x20 DUP3 ADD SWAP1 POP SWAP3 SWAP2 POP POP JUMP JUMPDEST PUSH0 PUSH2 0x25D4 DUP3 PUSH2 0x2267 JUMP JUMPDEST PUSH2 0x25DE DUP2 DUP6 PUSH2 0x25BA JUMP JUMPDEST SWAP4 POP PUSH2 0x25E9 DUP4 PUSH2 0x2281 JUMP JUMPDEST DUP1 PUSH0 JUMPDEST DUP4 DUP2 LT ISZERO PUSH2 0x2619 JUMPI DUP2 MLOAD PUSH2 0x2600 DUP9 DUP3 PUSH2 0x2339 JUMP JUMPDEST SWAP8 POP PUSH2 0x260B DUP4 PUSH2 0x2350 JUMP JUMPDEST SWAP3 POP POP PUSH1 0x1 DUP2 ADD SWAP1 POP PUSH2 0x25EC JUMP JUMPDEST POP DUP6 SWAP4 POP POP POP POP SWAP3 SWAP2 POP POP JUMP JUMPDEST PUSH0 PUSH1 0x60 DUP4 ADD PUSH0 DUP4 ADD MLOAD PUSH2 0x263B PUSH0 DUP7 ADD DUP3 PUSH2 0x2290 JUMP JUMPDEST POP PUSH1 0x20 DUP4 ADD MLOAD PUSH2 0x264E PUSH1 0x20 DUP7 ADD DUP3 PUSH2 0x2290 JUMP JUMPDEST POP PUSH1 0x40 DUP4 ADD MLOAD DUP5 DUP3 SUB PUSH1 0x40 DUP7 ADD MSTORE PUSH2 0x2666 DUP3 DUP3 PUSH2 0x25CA JUMP JUMPDEST SWAP2 POP POP DUP1 SWAP2 POP POP SWAP3 SWAP2 POP POP JUMP JUMPDEST PUSH0 PUSH1 0x20 DUP3 ADD SWAP1 POP DUP2 DUP2 SUB PUSH0 DUP4 ADD MSTORE PUSH2 0x268B DUP2 DUP5 PUSH2 0x2626 JUMP JUMPDEST SWAP1 POP SWAP3 SWAP2 POP POP JUMP JUMPDEST PUSH0 PUSH2 0x269D DUP3 PUSH2 0x24A9 JUMP JUMPDEST SWAP1 POP SWAP2 SWAP1 POP JUMP JUMPDEST PUSH2 0x26AD DUP2 PUSH2 0x2693 JUMP JUMPDEST DUP3 MSTORE POP POP JUMP JUMPDEST PUSH0 PUSH1 0x20 DUP3 ADD SWAP1 POP PUSH2 0x26C6 PUSH0 DUP4 ADD DUP5 PUSH2 0x26A4 JUMP JUMPDEST SWAP3 SWAP2 POP POP JUMP JUMPDEST PUSH0 DUP2 MLOAD SWAP1 POP PUSH2 0x26DA DUP2 PUSH2 0x2565 JUMP JUMPDEST SWAP3 SWAP2 POP POP JUMP JUMPDEST PUSH0 PUSH1 0x20 DUP3 DUP5 SUB SLT ISZERO PUSH2 0x26F5 JUMPI PUSH2 0x26F4 PUSH2 0x220E JUMP JUMPDEST JUMPDEST PUSH0 PUSH2 0x2702 DUP5 DUP3 DUP6 ADD PUSH2 0x26CC JUMP JUMPDEST SWAP2 POP POP SWAP3 SWAP2 POP POP JUMP JUMPDEST PUSH0 DUP3 DUP3 MSTORE PUSH1 0x20 DUP3 ADD SWAP1 POP SWAP3 SWAP2 POP POP JUMP JUMPDEST PUSH32 0x4E6F74204F776E65720000000000000000000000000000000000000000000000 PUSH0 DUP3 ADD MSTORE POP JUMP JUMPDEST PUSH0 PUSH2 0x274F PUSH1 0x9 DUP4 PUSH2 0x270B JUMP JUMPDEST SWAP2 POP PUSH2 0x275A DUP3 PUSH2 0x271B JUMP JUMPDEST PUSH1 0x20 DUP3 ADD SWAP1 POP SWAP2 SWAP1 POP JUMP JUMPDEST PUSH0 PUSH1 0x20 DUP3 ADD SWAP1 POP DUP2 DUP2 SUB PUSH0 DUP4 ADD MSTORE PUSH2 0x277C DUP2 PUSH2 0x2743 JUMP JUMPDEST SWAP1 POP SWAP2 SWAP1 POP JUMP JUMPDEST PUSH32 0x447261676F6E206E6F74207265676973746572656420666F7220626174746C65 PUSH0 DUP3 ADD MSTORE POP JUMP JUMPDEST PUSH0 PUSH2 0x27B7 PUSH1 0x20 DUP4 PUSH2 0x270B JUMP JUMPDEST SWAP2 POP PUSH2 0x27C2 DUP3 PUSH2 0x2783 JUMP JUMPDEST PUSH1 0x20 DUP3 ADD SWAP1 POP SWAP2 SWAP1 POP JUMP JUMPDEST PUSH0 PUSH1 0x20 DUP3 ADD SWAP1 POP DUP2 DUP2 SUB PUSH0 DUP4 ADD MSTORE PUSH2 0x27E4 DUP2 PUSH2 0x27AB JUMP JUMPDEST SWAP1 POP SWAP2 SWAP1 POP JUMP JUMPDEST PUSH0 DUP2 MLOAD SWAP1 POP PUSH2 0x27F9 DUP2 PUSH2 0x2212 JUMP JUMPDEST SWAP3 SWAP2 POP POP JUMP JUMPDEST PUSH0 PUSH1 0x20 DUP3 DUP5 SUB SLT ISZERO PUSH2 0x2814 JUMPI PUSH2 0x2813 PUSH2 0x220E JUMP JUMPDEST JUMPDEST PUSH0 PUSH2 0x2821 DUP5 DUP3 DUP6 ADD PUSH2 0x27EB JUMP JUMPDEST SWAP2 POP POP SWAP3 SWAP2 POP POP JUMP JUMPDEST PUSH32 0x496E73756666696369656E74206472696E6B7300000000000000000000000000 PUSH0 DUP3 ADD MSTORE POP JUMP JUMPDEST PUSH0 PUSH2 0x285E PUSH1 0x13 DUP4 PUSH2 0x270B JUMP JUMPDEST SWAP2 POP PUSH2 0x2869 DUP3 PUSH2 0x282A JUMP JUMPDEST PUSH1 0x20 DUP3 ADD SWAP1 POP SWAP2 SWAP1 POP JUMP JUMPDEST PUSH0 PUSH1 0x20 DUP3 ADD SWAP1 POP DUP2 DUP2 SUB PUSH0 DUP4 ADD MSTORE PUSH2 0x288B DUP2 PUSH2 0x2852 JUMP JUMPDEST SWAP1 POP SWAP2 SWAP1 POP JUMP JUMPDEST PUSH0 PUSH1 0x40 DUP3 ADD SWAP1 POP PUSH2 0x28A5 PUSH0 DUP4 ADD DUP6 PUSH2 0x2504 JUMP JUMPDEST PUSH2 0x28B2 PUSH1 0x20 DUP4 ADD DUP5 PUSH2 0x21E6 JUMP JUMPDEST SWAP4 SWAP3 POP POP POP JUMP JUMPDEST PUSH0 DUP2 SWAP1 POP SWAP2 SWAP1 POP JUMP JUMPDEST PUSH2 0x28D3 PUSH2 0x28CE DUP3 PUSH2 0x21DD JUMP JUMPDEST PUSH2 0x28B9 JUMP JUMPDEST DUP3 MSTORE POP POP JUMP JUMPDEST PUSH0 PUSH2 0x28E4 DUP3 DUP6 PUSH2 0x28C2 JUMP JUMPDEST PUSH1 0x20 DUP3 ADD SWAP2 POP PUSH2 0x28F4 DUP3 DUP5 PUSH2 0x28C2 JUMP JUMPDEST PUSH1 0x20 DUP3 ADD SWAP2 POP DUP2 SWAP1 POP SWAP4 SWAP3 POP POP POP JUMP JUMPDEST PUSH32 0x4E487B7100000000000000000000000000000000000000000000000000000000 PUSH0 MSTORE PUSH1 0x12 PUSH1 0x4 MSTORE PUSH1 0x24 PUSH0 REVERT JUMPDEST PUSH0 PUSH2 0x293B DUP3 PUSH2 0x21DD JUMP JUMPDEST SWAP2 POP PUSH2 0x2946 DUP4 PUSH2 0x21DD JUMP JUMPDEST SWAP3 POP DUP3 PUSH2 0x2956 JUMPI PUSH2 0x2955 PUSH2 0x2904 JUMP JUMPDEST JUMPDEST DUP3 DUP3 MOD SWAP1 POP SWAP3 SWAP2 POP POP JUMP JUMPDEST PUSH32 0x4E487B7100000000000000000000000000000000000000000000000000000000 PUSH0 MSTORE PUSH1 0x11 PUSH1 0x4 MSTORE PUSH1 0x24 PUSH0 REVERT JUMPDEST PUSH0 PUSH2 0x2998 DUP3 PUSH2 0x21DD JUMP JUMPDEST SWAP2 POP PUSH2 0x29A3 DUP4 PUSH2 0x21DD JUMP JUMPDEST SWAP3 POP DUP3 DUP3 ADD SWAP1 POP DUP1 DUP3 GT ISZERO PUSH2 0x29BB JUMPI PUSH2 0x29BA PUSH2 0x2961 JUMP JUMPDEST JUMPDEST SWAP3 SWAP2 POP POP JUMP JUMPDEST PUSH32 0x746F6B656E206973206E6F742072656769737465720000000000000000000000 PUSH0 DUP3 ADD MSTORE POP JUMP JUMPDEST PUSH0 PUSH2 0x29F5 PUSH1 0x15 DUP4 PUSH2 0x270B JUMP JUMPDEST SWAP2 POP PUSH2 0x2A00 DUP3 PUSH2 0x29C1 JUMP JUMPDEST PUSH1 0x20 DUP3 ADD SWAP1 POP SWAP2 SWAP1 POP JUMP JUMPDEST PUSH0 PUSH1 0x20 DUP3 ADD SWAP1 POP DUP2 DUP2 SUB PUSH0 DUP4 ADD MSTORE PUSH2 0x2A22 DUP2 PUSH2 0x29E9 JUMP JUMPDEST SWAP1 POP SWAP2 SWAP1 POP JUMP JUMPDEST PUSH32 0x4E487B7100000000000000000000000000000000000000000000000000000000 PUSH0 MSTORE PUSH1 0x32 PUSH1 0x4 MSTORE PUSH1 0x24 PUSH0 REVERT JUMPDEST PUSH0 PUSH2 0x2A60 DUP3 PUSH2 0x21DD JUMP JUMPDEST SWAP2 POP PUSH2 0x2A6B DUP4 PUSH2 0x21DD JUMP JUMPDEST SWAP3 POP DUP3 DUP3 SUB SWAP1 POP DUP2 DUP2 GT ISZERO PUSH2 0x2A83 JUMPI PUSH2 0x2A82 PUSH2 0x2961 JUMP JUMPDEST JUMPDEST SWAP3 SWAP2 POP POP JUMP JUMPDEST PUSH32 0x4E487B7100000000000000000000000000000000000000000000000000000000 PUSH0 MSTORE PUSH1 0x31 PUSH1 0x4 MSTORE PUSH1 0x24 PUSH0 REVERT JUMPDEST PUSH32 0x4461696C7920626174746C65206C696D69742072656163686564000000000000 PUSH0 DUP3 ADD MSTORE POP JUMP JUMPDEST PUSH0 PUSH2 0x2AEA PUSH1 0x1A DUP4 PUSH2 0x270B JUMP JUMPDEST SWAP2 POP PUSH2 0x2AF5 DUP3 PUSH2 0x2AB6 JUMP JUMPDEST PUSH1 0x20 DUP3 ADD SWAP1 POP SWAP2 SWAP1 POP JUMP JUMPDEST PUSH0 PUSH1 0x20 DUP3 ADD SWAP1 POP DUP2 DUP2 SUB PUSH0 DUP4 ADD MSTORE PUSH2 0x2B17 DUP2 PUSH2 0x2ADE JUMP JUMPDEST SWAP1 POP SWAP2 SWAP1 POP JUMP JUMPDEST PUSH32 0x4E6F206F70706F6E656E7420666F756E64000000000000000000000000000000 PUSH0 DUP3 ADD MSTORE POP JUMP JUMPDEST PUSH0 PUSH2 0x2B52 PUSH1 0x11 DUP4 PUSH2 0x270B JUMP JUMPDEST SWAP2 POP PUSH2 0x2B5D DUP3 PUSH2 0x2B1E JUMP JUMPDEST PUSH1 0x20 DUP3 ADD SWAP1 POP SWAP2 SWAP1 POP JUMP JUMPDEST PUSH0 PUSH1 0x20 DUP3 ADD SWAP1 POP DUP2 DUP2 SUB PUSH0 DUP4 ADD MSTORE PUSH2 0x2B7F DUP2 PUSH2 0x2B46 JUMP JUMPDEST SWAP1 POP SWAP2 SWAP1 POP JUMP JUMPDEST PUSH0 PUSH2 0x2B90 DUP3 PUSH2 0x21DD JUMP JUMPDEST SWAP2 POP PUSH32 0xFFFFFFFFFFFFFFFFFFFFFFFFFFFFFFFFFFFFFFFFFFFFFFFFFFFFFFFFFFFFFFFF DUP3 SUB PUSH2 0x2BC2 JUMPI PUSH2 0x2BC1 PUSH2 0x2961 JUMP JUMPDEST JUMPDEST PUSH1 0x1 DUP3 ADD SWAP1 POP SWAP2 SWAP1 POP JUMP JUMPDEST PUSH2 0x2BD6 DUP2 PUSH2 0x22F2 JUMP JUMPDEST DUP2 EQ PUSH2 0x2BE0 JUMPI PUSH0 DUP1 REVERT JUMPDEST POP JUMP JUMPDEST PUSH0 DUP2 MLOAD SWAP1 POP PUSH2 0x2BF1 DUP2 PUSH2 0x2BCD JUMP JUMPDEST SWAP3 SWAP2 POP POP JUMP JUMPDEST PUSH0 PUSH1 0x20 DUP3 DUP5 SUB SLT ISZERO PUSH2 0x2C0C JUMPI PUSH2 0x2C0B PUSH2 0x220E JUMP JUMPDEST JUMPDEST PUSH0 PUSH2 0x2C19 DUP5 DUP3 DUP6 ADD PUSH2 0x2BE3 JUMP JUMPDEST SWAP2 POP POP SWAP3 SWAP2 POP POP JUMP JUMPDEST PUSH32 0x416C726561647920726567697374657265640000000000000000000000000000 PUSH0 DUP3 ADD MSTORE POP JUMP JUMPDEST PUSH0 PUSH2 0x2C56 PUSH1 0x12 DUP4 PUSH2 0x270B JUMP JUMPDEST SWAP2 POP PUSH2 0x2C61 DUP3 PUSH2 0x2C22 JUMP JUMPDEST PUSH1 0x20 DUP3 ADD SWAP1 POP SWAP2 SWAP1 POP JUMP JUMPDEST PUSH0 PUSH1 0x20 DUP3 ADD SWAP1 POP DUP2 DUP2 SUB PUSH0 DUP4 ADD MSTORE PUSH2 0x2C83 DUP2 PUSH2 0x2C4A JUMP JUMPDEST SWAP1 POP SWAP2 SWAP1 POP JUMP JUMPDEST PUSH1 0x4 DUP2 LT PUSH2 0x2C96 JUMPI PUSH0 DUP1 REVERT JUMPDEST POP JUMP JUMPDEST PUSH0 DUP2 MLOAD SWAP1 POP PUSH2 0x2CA7 DUP2 PUSH2 0x2C8A JUMP JUMPDEST SWAP3 SWAP2 POP POP JUMP JUMPDEST PUSH0 DUP1 PUSH1 0x40 DUP4 DUP6 SUB SLT ISZERO PUSH2 0x2CC3 JUMPI PUSH2 0x2CC2 PUSH2 0x220E JUMP JUMPDEST JUMPDEST PUSH0 PUSH2 0x2CD0 DUP6 DUP3 DUP7 ADD PUSH2 0x2C99 JUMP JUMPDEST SWAP3 POP POP PUSH1 0x20 PUSH2 0x2CE1 DUP6 DUP3 DUP7 ADD PUSH2 0x27EB JUMP JUMPDEST SWAP2 POP POP SWAP3 POP SWAP3 SWAP1 POP JUMP JUMPDEST PUSH32 0x4E487B7100000000000000000000000000000000000000000000000000000000 PUSH0 MSTORE PUSH1 0x21 PUSH1 0x4 MSTORE PUSH1 0x24 PUSH0 REVERT JUMPDEST PUSH32 0x746F6B656E206973206E6F74206164756C740000000000000000000000000000 PUSH0 DUP3 ADD MSTORE POP JUMP JUMPDEST PUSH0 PUSH2 0x2D4C PUSH1 0x12 DUP4 PUSH2 0x270B JUMP JUMPDEST SWAP2 POP PUSH2 0x2D57 DUP3 PUSH2 0x2D18 JUMP JUMPDEST PUSH1 0x20 DUP3 ADD SWAP1 POP SWAP2 SWAP1 POP JUMP JUMPDEST PUSH0 PUSH1 0x20 DUP3 ADD SWAP1 POP DUP2 DUP2 SUB PUSH0 DUP4 ADD MSTORE PUSH2 0x2D79 DUP2 PUSH2 0x2D40 JUMP JUMPDEST SWAP1 POP SWAP2 SWAP1 POP JUMP JUMPDEST PUSH0 PUSH2 0x2D8A DUP3 PUSH2 0x21DD JUMP JUMPDEST SWAP2 POP PUSH2 0x2D95 DUP4 PUSH2 0x21DD JUMP JUMPDEST SWAP3 POP DUP3 PUSH2 0x2DA5 JUMPI PUSH2 0x2DA4 PUSH2 0x2904 JUMP JUMPDEST JUMPDEST DUP3 DUP3 DIV SWAP1 POP SWAP3 SWAP2 POP POP JUMP JUMPDEST PUSH0 PUSH2 0x2DBB DUP3 DUP7 PUSH2 0x28C2 JUMP JUMPDEST PUSH1 0x20 DUP3 ADD SWAP2 POP PUSH2 0x2DCB DUP3 DUP6 PUSH2 0x28C2 JUMP JUMPDEST PUSH1 0x20 DUP3 ADD SWAP2 POP PUSH2 0x2DDB DUP3 DUP5 PUSH2 0x28C2 JUMP JUMPDEST PUSH1 0x20 DUP3 ADD SWAP2 POP DUP2 SWAP1 POP SWAP5 SWAP4 POP POP POP POP JUMP JUMPDEST PUSH0 PUSH2 0x2DF6 DUP3 PUSH2 0x21DD JUMP JUMPDEST SWAP2 POP PUSH2 0x2E01 DUP4 PUSH2 0x21DD JUMP JUMPDEST SWAP3 POP DUP3 DUP3 MUL PUSH2 0x2E0F DUP2 PUSH2 0x21DD JUMP JUMPDEST SWAP2 POP DUP3 DUP3 DIV DUP5 EQ DUP4 ISZERO OR PUSH2 0x2E26 JUMPI PUSH2 0x2E25 PUSH2 0x2961 JUMP JUMPDEST JUMPDEST POP SWAP3 SWAP2 POP POP JUMP INVALID LOG2 PUSH5 0x6970667358 0x22 SLT KECCAK256 0xDD ADDMOD COINBASE 0xDA 0xC0 SWAP13 SWAP12 POP 0xCC EXP DUP2 TLOAD 0x2F 0xA8 PUSH8 0x737EE60C7051B5B4 0xD7 0x28 PUSH29 0x96BB3F82D87564736F6C634300081A0033000000000000000000000000 "
				},
				"gasEstimates": {
					"creation": {
						"codeDepositCost": "2375000",
						"executionCost": "infinite",
						"totalCost": "infinite"
					},
					"external": {
						"addDummy(uint256)": "infinite",
						"battle(uint256)": "infinite",
						"battleReward()": "2492",
						"dailyBattleLimit()": "2491",
						"deleteDummy()": "infinite",
						"dragonContract()": "infinite",
						"drinkContract()": "infinite",
						"getBattleRecord(uint256)": "infinite",
						"getDragonStatus(uint256)": "infinite",
						"getPlayerRecords(address)": "infinite",
						"owner()": "2538",
						"questContract()": "infinite",
						"regiBattle(uint256)": "infinite",
						"renounceOwnership()": "infinite",
						"setDailyBattleLimit(uint256)": "infinite",
						"transferOwnership(address)": "infinite",
						"unregiBattle(uint256)": "infinite",
						"upgradeDragon(uint256)": "infinite",
						"upgradePrice()": "2449"
					},
					"internal": {
						"applyDamage(uint256,uint256,uint256)": "infinite",
						"battleProgress(address,address)": "infinite",
						"calculateDamage(uint256,uint256)": "infinite",
						"findRandomOpponent(address)": "infinite",
						"today()": "infinite",
						"updateBattleRecords(uint256,uint256,uint256)": "infinite",
						"winReward(address)": "infinite"
					}
				},
				"methodIdentifiers": {
					"addDummy(uint256)": "ba3c1e4b",
					"battle(uint256)": "5d6de796",
					"battleReward()": "9e84477d",
					"dailyBattleLimit()": "e98da9ad",
					"deleteDummy()": "d1c6839f",
					"dragonContract()": "9711dc38",
					"drinkContract()": "fbc1274d",
					"getBattleRecord(uint256)": "53a653eb",
					"getDragonStatus(uint256)": "68b42e60",
					"getPlayerRecords(address)": "cdb6b4f4",
					"owner()": "8da5cb5b",
					"questContract()": "6a6940cc",
					"regiBattle(uint256)": "c9f4b515",
					"renounceOwnership()": "715018a6",
					"setDailyBattleLimit(uint256)": "4d6c423c",
					"transferOwnership(address)": "f2fde38b",
					"unregiBattle(uint256)": "593c8253",
					"upgradeDragon(uint256)": "2d0efac7",
					"upgradePrice()": "287ad39f"
				}
			},
			"storageLayout": {
				"storage": [
					{
						"astId": 8,
						"contract": "contents/Battle.sol:Battle",
						"label": "_owner",
						"offset": 0,
						"slot": "0",
						"type": "t_address"
					},
					{
						"astId": 331,
						"contract": "contents/Battle.sol:Battle",
						"label": "dragonContract",
						"offset": 0,
						"slot": "1",
						"type": "t_contract(IToken)320"
					},
					{
						"astId": 334,
						"contract": "contents/Battle.sol:Battle",
						"label": "questContract",
						"offset": 0,
						"slot": "2",
						"type": "t_contract(IQuest)287"
					},
					{
						"astId": 337,
						"contract": "contents/Battle.sol:Battle",
						"label": "drinkContract",
						"offset": 0,
						"slot": "3",
						"type": "t_contract(IDragonDrink)246"
					},
					{
						"astId": 366,
						"contract": "contents/Battle.sol:Battle",
						"label": "battleDragon",
						"offset": 0,
						"slot": "4",
						"type": "t_mapping(t_uint256,t_struct(Dragon)346_storage)"
					},
					{
						"astId": 371,
						"contract": "contents/Battle.sol:Battle",
						"label": "dragonRecords",
						"offset": 0,
						"slot": "5",
						"type": "t_mapping(t_uint256,t_struct(BattleRecord)355_storage)"
					},
					{
						"astId": 375,
						"contract": "contents/Battle.sol:Battle",
						"label": "registeredDragons",
						"offset": 0,
						"slot": "6",
						"type": "t_mapping(t_address,t_uint256)"
					},
					{
						"astId": 379,
						"contract": "contents/Battle.sol:Battle",
						"label": "dailyBattleCount",
						"offset": 0,
						"slot": "7",
						"type": "t_mapping(t_address,t_uint256)"
					},
					{
						"astId": 383,
						"contract": "contents/Battle.sol:Battle",
						"label": "lastBattleTime",
						"offset": 0,
						"slot": "8",
						"type": "t_mapping(t_address,t_uint256)"
					},
					{
						"astId": 386,
						"contract": "contents/Battle.sol:Battle",
						"label": "registeredBattlers",
						"offset": 0,
						"slot": "9",
						"type": "t_array(t_address)dyn_storage"
					},
					{
						"astId": 389,
						"contract": "contents/Battle.sol:Battle",
						"label": "dummyAddr",
						"offset": 0,
						"slot": "10",
						"type": "t_array(t_address)dyn_storage"
					},
					{
						"astId": 391,
						"contract": "contents/Battle.sol:Battle",
						"label": "dummyCounter",
						"offset": 0,
						"slot": "11",
						"type": "t_uint256"
					},
					{
						"astId": 394,
						"contract": "contents/Battle.sol:Battle",
						"label": "upgradePrice",
						"offset": 0,
						"slot": "12",
						"type": "t_uint256"
					},
					{
						"astId": 397,
						"contract": "contents/Battle.sol:Battle",
						"label": "battleReward",
						"offset": 0,
						"slot": "13",
						"type": "t_uint256"
					},
					{
						"astId": 400,
						"contract": "contents/Battle.sol:Battle",
						"label": "dailyBattleLimit",
						"offset": 0,
						"slot": "14",
						"type": "t_uint256"
					}
				],
				"types": {
					"t_address": {
						"encoding": "inplace",
						"label": "address",
						"numberOfBytes": "20"
					},
					"t_array(t_address)dyn_storage": {
						"base": "t_address",
						"encoding": "dynamic_array",
						"label": "address[]",
						"numberOfBytes": "32"
					},
					"t_array(t_struct(OpponentRecord)361_storage)dyn_storage": {
						"base": "t_struct(OpponentRecord)361_storage",
						"encoding": "dynamic_array",
						"label": "struct Battle.OpponentRecord[]",
						"numberOfBytes": "32"
					},
					"t_bool": {
						"encoding": "inplace",
						"label": "bool",
						"numberOfBytes": "1"
					},
					"t_contract(IDragonDrink)246": {
						"encoding": "inplace",
						"label": "contract IDragonDrink",
						"numberOfBytes": "20"
					},
					"t_contract(IQuest)287": {
						"encoding": "inplace",
						"label": "contract IQuest",
						"numberOfBytes": "20"
					},
					"t_contract(IToken)320": {
						"encoding": "inplace",
						"label": "contract IToken",
						"numberOfBytes": "20"
					},
					"t_mapping(t_address,t_uint256)": {
						"encoding": "mapping",
						"key": "t_address",
						"label": "mapping(address => uint256)",
						"numberOfBytes": "32",
						"value": "t_uint256"
					},
					"t_mapping(t_uint256,t_struct(BattleRecord)355_storage)": {
						"encoding": "mapping",
						"key": "t_uint256",
						"label": "mapping(uint256 => struct Battle.BattleRecord)",
						"numberOfBytes": "32",
						"value": "t_struct(BattleRecord)355_storage"
					},
					"t_mapping(t_uint256,t_struct(Dragon)346_storage)": {
						"encoding": "mapping",
						"key": "t_uint256",
						"label": "mapping(uint256 => struct Battle.Dragon)",
						"numberOfBytes": "32",
						"value": "t_struct(Dragon)346_storage"
					},
					"t_struct(BattleRecord)355_storage": {
						"encoding": "inplace",
						"label": "struct Battle.BattleRecord",
						"members": [
							{
								"astId": 348,
								"contract": "contents/Battle.sol:Battle",
								"label": "win",
								"offset": 0,
								"slot": "0",
								"type": "t_uint256"
							},
							{
								"astId": 350,
								"contract": "contents/Battle.sol:Battle",
								"label": "lose",
								"offset": 0,
								"slot": "1",
								"type": "t_uint256"
							},
							{
								"astId": 354,
								"contract": "contents/Battle.sol:Battle",
								"label": "opponents",
								"offset": 0,
								"slot": "2",
								"type": "t_array(t_struct(OpponentRecord)361_storage)dyn_storage"
							}
						],
						"numberOfBytes": "96"
					},
					"t_struct(Dragon)346_storage": {
						"encoding": "inplace",
						"label": "struct Battle.Dragon",
						"members": [
							{
								"astId": 339,
								"contract": "contents/Battle.sol:Battle",
								"label": "tokenId",
								"offset": 0,
								"slot": "0",
								"type": "t_uint256"
							},
							{
								"astId": 341,
								"contract": "contents/Battle.sol:Battle",
								"label": "attack",
								"offset": 0,
								"slot": "1",
								"type": "t_uint256"
							},
							{
								"astId": 343,
								"contract": "contents/Battle.sol:Battle",
								"label": "defense",
								"offset": 0,
								"slot": "2",
								"type": "t_uint256"
							},
							{
								"astId": 345,
								"contract": "contents/Battle.sol:Battle",
								"label": "health",
								"offset": 0,
								"slot": "3",
								"type": "t_uint256"
							}
						],
						"numberOfBytes": "128"
					},
					"t_struct(OpponentRecord)361_storage": {
						"encoding": "inplace",
						"label": "struct Battle.OpponentRecord",
						"members": [
							{
								"astId": 358,
								"contract": "contents/Battle.sol:Battle",
								"label": "dragon",
								"offset": 0,
								"slot": "0",
								"type": "t_struct(Dragon)346_storage"
							},
							{
								"astId": 360,
								"contract": "contents/Battle.sol:Battle",
								"label": "winStatus",
								"offset": 0,
								"slot": "4",
								"type": "t_bool"
							}
						],
						"numberOfBytes": "160"
					},
					"t_uint256": {
						"encoding": "inplace",
						"label": "uint256",
						"numberOfBytes": "32"
					}
				}
			},
			"userdoc": {
				"kind": "user",
				"methods": {},
				"version": 1
			}
		}
	}
}