{
	"contents/Quest.sol": {
		"Quest": {
			"abi": [
				{
					"inputs": [
						{
							"internalType": "address",
							"name": "initialOwner",
							"type": "address"
						},
						{
							"internalType": "address",
							"name": "_drinkContract",
							"type": "address"
						}
					],
					"stateMutability": "nonpayable",
					"type": "constructor"
				},
				{
					"inputs": [
						{
							"internalType": "address",
							"name": "owner",
							"type": "address"
						}
					],
					"name": "OwnableInvalidOwner",
					"type": "error"
				},
				{
					"inputs": [
						{
							"internalType": "address",
							"name": "account",
							"type": "address"
						}
					],
					"name": "OwnableUnauthorizedAccount",
					"type": "error"
				},
				{
					"anonymous": false,
					"inputs": [
						{
							"indexed": true,
							"internalType": "address",
							"name": "previousOwner",
							"type": "address"
						},
						{
							"indexed": true,
							"internalType": "address",
							"name": "newOwner",
							"type": "address"
						}
					],
					"name": "OwnershipTransferred",
					"type": "event"
				},
				{
					"anonymous": false,
					"inputs": [
						{
							"indexed": true,
							"internalType": "address",
							"name": "user",
							"type": "address"
						},
						{
							"indexed": false,
							"internalType": "uint256",
							"name": "amount",
							"type": "uint256"
						}
					],
					"name": "TokensMinted",
					"type": "event"
				},
				{
					"inputs": [
						{
							"internalType": "address",
							"name": "user",
							"type": "address"
						}
					],
					"name": "battleCheck",
					"outputs": [],
					"stateMutability": "nonpayable",
					"type": "function"
				},
				{
					"inputs": [],
					"name": "battleContract",
					"outputs": [
						{
							"internalType": "address",
							"name": "",
							"type": "address"
						}
					],
					"stateMutability": "view",
					"type": "function"
				},
				{
					"inputs": [],
					"name": "battleReward",
					"outputs": [
						{
							"internalType": "uint256",
							"name": "",
							"type": "uint256"
						}
					],
					"stateMutability": "view",
					"type": "function"
				},
				{
					"inputs": [
						{
							"internalType": "address",
							"name": "user",
							"type": "address"
						}
					],
					"name": "dailyCheck",
					"outputs": [
						{
							"internalType": "bool",
							"name": "",
							"type": "bool"
						}
					],
					"stateMutability": "nonpayable",
					"type": "function"
				},
				{
					"inputs": [],
					"name": "dailyCheckContract",
					"outputs": [
						{
							"internalType": "address",
							"name": "",
							"type": "address"
						}
					],
					"stateMutability": "view",
					"type": "function"
				},
				{
					"inputs": [],
					"name": "drinkContract",
					"outputs": [
						{
							"internalType": "contract IDragonDrink",
							"name": "",
							"type": "address"
						}
					],
					"stateMutability": "view",
					"type": "function"
				},
				{
					"inputs": [
						{
							"internalType": "address",
							"name": "user",
							"type": "address"
						}
					],
					"name": "exploreCheck",
					"outputs": [],
					"stateMutability": "nonpayable",
					"type": "function"
				},
				{
					"inputs": [],
					"name": "exploreContract",
					"outputs": [
						{
							"internalType": "address",
							"name": "",
							"type": "address"
						}
					],
					"stateMutability": "view",
					"type": "function"
				},
				{
					"inputs": [],
					"name": "exploreReward",
					"outputs": [
						{
							"internalType": "uint256",
							"name": "",
							"type": "uint256"
						}
					],
					"stateMutability": "view",
					"type": "function"
				},
				{
					"inputs": [
						{
							"internalType": "address",
							"name": "user",
							"type": "address"
						}
					],
					"name": "getQuestData",
					"outputs": [
						{
							"components": [
								{
									"internalType": "bool",
									"name": "dailyCheck",
									"type": "bool"
								},
								{
									"internalType": "bool",
									"name": "exploration",
									"type": "bool"
								},
								{
									"internalType": "bool",
									"name": "battle",
									"type": "bool"
								}
							],
							"internalType": "struct Quest.QuestData",
							"name": "",
							"type": "tuple"
						}
					],
					"stateMutability": "view",
					"type": "function"
				},
				{
					"inputs": [
						{
							"internalType": "address",
							"name": "",
							"type": "address"
						}
					],
					"name": "lastBattleCompletionTime",
					"outputs": [
						{
							"internalType": "uint256",
							"name": "",
							"type": "uint256"
						}
					],
					"stateMutability": "view",
					"type": "function"
				},
				{
					"inputs": [
						{
							"internalType": "address",
							"name": "",
							"type": "address"
						}
					],
					"name": "lastCheckCompletionTime",
					"outputs": [
						{
							"internalType": "uint256",
							"name": "",
							"type": "uint256"
						}
					],
					"stateMutability": "view",
					"type": "function"
				},
				{
					"inputs": [
						{
							"internalType": "address",
							"name": "",
							"type": "address"
						}
					],
					"name": "lastExploreCompletionTime",
					"outputs": [
						{
							"internalType": "uint256",
							"name": "",
							"type": "uint256"
						}
					],
					"stateMutability": "view",
					"type": "function"
				},
				{
					"inputs": [],
					"name": "owner",
					"outputs": [
						{
							"internalType": "address",
							"name": "",
							"type": "address"
						}
					],
					"stateMutability": "view",
					"type": "function"
				},
				{
					"inputs": [],
					"name": "renounceOwnership",
					"outputs": [],
					"stateMutability": "nonpayable",
					"type": "function"
				},
				{
					"inputs": [
						{
							"internalType": "address",
							"name": "_battleContract",
							"type": "address"
						}
					],
					"name": "setBattleContract",
					"outputs": [],
					"stateMutability": "nonpayable",
					"type": "function"
				},
				{
					"inputs": [
						{
							"internalType": "address",
							"name": "_dailyCheckContract",
							"type": "address"
						}
					],
					"name": "setDailyCheckContract",
					"outputs": [],
					"stateMutability": "nonpayable",
					"type": "function"
				},
				{
					"inputs": [
						{
							"internalType": "address",
							"name": "_exploreContract",
							"type": "address"
						}
					],
					"name": "setExploreContract",
					"outputs": [],
					"stateMutability": "nonpayable",
					"type": "function"
				},
				{
					"inputs": [],
					"name": "today",
					"outputs": [
						{
							"internalType": "uint256",
							"name": "",
							"type": "uint256"
						}
					],
					"stateMutability": "view",
					"type": "function"
				},
				{
					"inputs": [
						{
							"internalType": "address",
							"name": "newOwner",
							"type": "address"
						}
					],
					"name": "transferOwnership",
					"outputs": [],
					"stateMutability": "nonpayable",
					"type": "function"
				}
			],
			"devdoc": {
				"errors": {
					"OwnableInvalidOwner(address)": [
						{
							"details": "The owner is not a valid owner account. (eg. `address(0)`)"
						}
					],
					"OwnableUnauthorizedAccount(address)": [
						{
							"details": "The caller account is not authorized to perform an operation."
						}
					]
				},
				"kind": "dev",
				"methods": {
					"owner()": {
						"details": "Returns the address of the current owner."
					},
					"renounceOwnership()": {
						"details": "Leaves the contract without owner. It will not be possible to call `onlyOwner` functions. Can only be called by the current owner. NOTE: Renouncing ownership will leave the contract without an owner, thereby disabling any functionality that is only available to the owner."
					},
					"transferOwnership(address)": {
						"details": "Transfers ownership of the contract to a new account (`newOwner`). Can only be called by the current owner."
					}
				},
				"version": 1
			},
			"evm": {
				"assembly": "    /* \"contents/Quest.sol\":159:3001  contract Quest is Ownable {... */\n  mstore(0x40, 0x80)\n    /* \"contents/Quest.sol\":750:753  100 */\n  0x64\n    /* \"contents/Quest.sol\":720:753  uint256 public battleReward = 100 */\n  0x09\n  sstore\n    /* \"contents/Quest.sol\":791:794  100 */\n  0x64\n    /* \"contents/Quest.sol\":760:794  uint256 public exploreReward = 100 */\n  0x0a\n  sstore\n    /* \"contents/Quest.sol\":868:1010  constructor(address initialOwner, address _drinkContract) Ownable(initialOwner){... */\n  callvalue\n  dup1\n  iszero\n  tag_1\n  jumpi\n  0x00\n  dup1\n  revert\ntag_1:\n  pop\n  mload(0x40)\n  sub(codesize, bytecodeSize)\n  dup1\n  bytecodeSize\n  dup4\n  codecopy\n  dup2\n  dup2\n  add\n  0x40\n  mstore\n  dup2\n  add\n  swap1\n  tag_2\n  swap2\n  swap1\n  tag_3\n  jump\t// in\ntag_2:\n    /* \"contents/Quest.sol\":934:946  initialOwner */\n  dup2\n    /* \"@openzeppelin/contracts/access/Ownable.sol\":1297:1298  0 */\n  0x00\n    /* \"@openzeppelin/contracts/access/Ownable.sol\":1273:1299  initialOwner == address(0) */\n  0xffffffffffffffffffffffffffffffffffffffff\n  and\n    /* \"@openzeppelin/contracts/access/Ownable.sol\":1273:1285  initialOwner */\n  dup2\n    /* \"@openzeppelin/contracts/access/Ownable.sol\":1273:1299  initialOwner == address(0) */\n  0xffffffffffffffffffffffffffffffffffffffff\n  and\n  sub\n    /* \"@openzeppelin/contracts/access/Ownable.sol\":1269:1364  if (initialOwner == address(0)) {... */\n  tag_7\n  jumpi\n    /* \"@openzeppelin/contracts/access/Ownable.sol\":1350:1351  0 */\n  0x00\n    /* \"@openzeppelin/contracts/access/Ownable.sol\":1322:1353  OwnableInvalidOwner(address(0)) */\n  mload(0x40)\n  0x1e4fbdf700000000000000000000000000000000000000000000000000000000\n  dup2\n  mstore\n  0x04\n  add\n  tag_8\n  swap2\n  swap1\n  tag_9\n  jump\t// in\ntag_8:\n  mload(0x40)\n  dup1\n  swap2\n  sub\n  swap1\n  revert\n    /* \"@openzeppelin/contracts/access/Ownable.sol\":1269:1364  if (initialOwner == address(0)) {... */\ntag_7:\n    /* \"@openzeppelin/contracts/access/Ownable.sol\":1373:1405  _transferOwnership(initialOwner) */\n  tag_10\n    /* \"@openzeppelin/contracts/access/Ownable.sol\":1392:1404  initialOwner */\n  dup2\n    /* \"@openzeppelin/contracts/access/Ownable.sol\":1373:1391  _transferOwnership */\n  shl(0x20, tag_11)\n    /* \"@openzeppelin/contracts/access/Ownable.sol\":1373:1405  _transferOwnership(initialOwner) */\n  0x20\n  shr\n  jump\t// in\ntag_10:\n    /* \"@openzeppelin/contracts/access/Ownable.sol\":1225:1412  constructor(address initialOwner) {... */\n  pop\n    /* \"contents/Quest.sol\":987:1001  _drinkContract */\n  dup1\n    /* \"contents/Quest.sol\":958:971  drinkContract */\n  0x01\n  0x00\n    /* \"contents/Quest.sol\":958:1002  drinkContract = IDragonDrink(_drinkContract) */\n  0x0100\n  exp\n  dup2\n  sload\n  dup2\n  0xffffffffffffffffffffffffffffffffffffffff\n  mul\n  not\n  and\n  swap1\n  dup4\n  0xffffffffffffffffffffffffffffffffffffffff\n  and\n  mul\n  or\n  swap1\n  sstore\n  pop\n    /* \"contents/Quest.sol\":868:1010  constructor(address initialOwner, address _drinkContract) Ownable(initialOwner){... */\n  pop\n  pop\n    /* \"contents/Quest.sol\":159:3001  contract Quest is Ownable {... */\n  jump(tag_13)\n    /* \"@openzeppelin/contracts/access/Ownable.sol\":2912:3099  function _transferOwnership(address newOwner) internal virtual {... */\ntag_11:\n    /* \"@openzeppelin/contracts/access/Ownable.sol\":2985:3001  address oldOwner */\n  0x00\n    /* \"@openzeppelin/contracts/access/Ownable.sol\":3004:3010  _owner */\n  dup1\n  0x00\n  swap1\n  sload\n  swap1\n  0x0100\n  exp\n  swap1\n  div\n  0xffffffffffffffffffffffffffffffffffffffff\n  and\n    /* \"@openzeppelin/contracts/access/Ownable.sol\":2985:3010  address oldOwner = _owner */\n  swap1\n  pop\n    /* \"@openzeppelin/contracts/access/Ownable.sol\":3029:3037  newOwner */\n  dup2\n    /* \"@openzeppelin/contracts/access/Ownable.sol\":3020:3026  _owner */\n  0x00\n  dup1\n    /* \"@openzeppelin/contracts/access/Ownable.sol\":3020:3037  _owner = newOwner */\n  0x0100\n  exp\n  dup2\n  sload\n  dup2\n  0xffffffffffffffffffffffffffffffffffffffff\n  mul\n  not\n  and\n  swap1\n  dup4\n  0xffffffffffffffffffffffffffffffffffffffff\n  and\n  mul\n  or\n  swap1\n  sstore\n  pop\n    /* \"@openzeppelin/contracts/access/Ownable.sol\":3083:3091  newOwner */\n  dup2\n    /* \"@openzeppelin/contracts/access/Ownable.sol\":3052:3092  OwnershipTransferred(oldOwner, newOwner) */\n  0xffffffffffffffffffffffffffffffffffffffff\n  and\n    /* \"@openzeppelin/contracts/access/Ownable.sol\":3073:3081  oldOwner */\n  dup2\n    /* \"@openzeppelin/contracts/access/Ownable.sol\":3052:3092  OwnershipTransferred(oldOwner, newOwner) */\n  0xffffffffffffffffffffffffffffffffffffffff\n  and\n  0x8be0079c531659141344cd1fd0a4f28419497f9722a3daafe3b4186f6b6457e0\n  mload(0x40)\n  mload(0x40)\n  dup1\n  swap2\n  sub\n  swap1\n  log3\n    /* \"@openzeppelin/contracts/access/Ownable.sol\":2975:3099  {... */\n  pop\n    /* \"@openzeppelin/contracts/access/Ownable.sol\":2912:3099  function _transferOwnership(address newOwner) internal virtual {... */\n  pop\n  jump\t// out\n    /* \"#utility.yul\":88:205   */\ntag_16:\n    /* \"#utility.yul\":197:198   */\n  0x00\n    /* \"#utility.yul\":194:195   */\n  dup1\n    /* \"#utility.yul\":187:199   */\n  revert\n    /* \"#utility.yul\":334:460   */\ntag_18:\n    /* \"#utility.yul\":371:378   */\n  0x00\n    /* \"#utility.yul\":411:453   */\n  0xffffffffffffffffffffffffffffffffffffffff\n    /* \"#utility.yul\":404:409   */\n  dup3\n    /* \"#utility.yul\":400:454   */\n  and\n    /* \"#utility.yul\":389:454   */\n  swap1\n  pop\n    /* \"#utility.yul\":334:460   */\n  swap2\n  swap1\n  pop\n  jump\t// out\n    /* \"#utility.yul\":466:562   */\ntag_19:\n    /* \"#utility.yul\":503:510   */\n  0x00\n    /* \"#utility.yul\":532:556   */\n  tag_29\n    /* \"#utility.yul\":550:555   */\n  dup3\n    /* \"#utility.yul\":532:556   */\n  tag_18\n  jump\t// in\ntag_29:\n    /* \"#utility.yul\":521:556   */\n  swap1\n  pop\n    /* \"#utility.yul\":466:562   */\n  swap2\n  swap1\n  pop\n  jump\t// out\n    /* \"#utility.yul\":568:690   */\ntag_20:\n    /* \"#utility.yul\":641:665   */\n  tag_31\n    /* \"#utility.yul\":659:664   */\n  dup2\n    /* \"#utility.yul\":641:665   */\n  tag_19\n  jump\t// in\ntag_31:\n    /* \"#utility.yul\":634:639   */\n  dup2\n    /* \"#utility.yul\":631:666   */\n  eq\n    /* \"#utility.yul\":621:684   */\n  tag_32\n  jumpi\n    /* \"#utility.yul\":680:681   */\n  0x00\n    /* \"#utility.yul\":677:678   */\n  dup1\n    /* \"#utility.yul\":670:682   */\n  revert\n    /* \"#utility.yul\":621:684   */\ntag_32:\n    /* \"#utility.yul\":568:690   */\n  pop\n  jump\t// out\n    /* \"#utility.yul\":696:839   */\ntag_21:\n    /* \"#utility.yul\":753:758   */\n  0x00\n    /* \"#utility.yul\":784:790   */\n  dup2\n    /* \"#utility.yul\":778:791   */\n  mload\n    /* \"#utility.yul\":769:791   */\n  swap1\n  pop\n    /* \"#utility.yul\":800:833   */\n  tag_34\n    /* \"#utility.yul\":827:832   */\n  dup2\n    /* \"#utility.yul\":800:833   */\n  tag_20\n  jump\t// in\ntag_34:\n    /* \"#utility.yul\":696:839   */\n  swap3\n  swap2\n  pop\n  pop\n  jump\t// out\n    /* \"#utility.yul\":845:1352   */\ntag_3:\n    /* \"#utility.yul\":924:930   */\n  0x00\n    /* \"#utility.yul\":932:938   */\n  dup1\n    /* \"#utility.yul\":981:983   */\n  0x40\n    /* \"#utility.yul\":969:978   */\n  dup4\n    /* \"#utility.yul\":960:967   */\n  dup6\n    /* \"#utility.yul\":956:979   */\n  sub\n    /* \"#utility.yul\":952:984   */\n  slt\n    /* \"#utility.yul\":949:1068   */\n  iszero\n  tag_36\n  jumpi\n    /* \"#utility.yul\":987:1066   */\n  tag_37\n  tag_16\n  jump\t// in\ntag_37:\n    /* \"#utility.yul\":949:1068   */\ntag_36:\n    /* \"#utility.yul\":1107:1108   */\n  0x00\n    /* \"#utility.yul\":1132:1196   */\n  tag_38\n    /* \"#utility.yul\":1188:1195   */\n  dup6\n    /* \"#utility.yul\":1179:1185   */\n  dup3\n    /* \"#utility.yul\":1168:1177   */\n  dup7\n    /* \"#utility.yul\":1164:1186   */\n  add\n    /* \"#utility.yul\":1132:1196   */\n  tag_21\n  jump\t// in\ntag_38:\n    /* \"#utility.yul\":1122:1196   */\n  swap3\n  pop\n    /* \"#utility.yul\":1078:1206   */\n  pop\n    /* \"#utility.yul\":1245:1247   */\n  0x20\n    /* \"#utility.yul\":1271:1335   */\n  tag_39\n    /* \"#utility.yul\":1327:1334   */\n  dup6\n    /* \"#utility.yul\":1318:1324   */\n  dup3\n    /* \"#utility.yul\":1307:1316   */\n  dup7\n    /* \"#utility.yul\":1303:1325   */\n  add\n    /* \"#utility.yul\":1271:1335   */\n  tag_21\n  jump\t// in\ntag_39:\n    /* \"#utility.yul\":1261:1335   */\n  swap2\n  pop\n    /* \"#utility.yul\":1216:1345   */\n  pop\n    /* \"#utility.yul\":845:1352   */\n  swap3\n  pop\n  swap3\n  swap1\n  pop\n  jump\t// out\n    /* \"#utility.yul\":1358:1476   */\ntag_22:\n    /* \"#utility.yul\":1445:1469   */\n  tag_41\n    /* \"#utility.yul\":1463:1468   */\n  dup2\n    /* \"#utility.yul\":1445:1469   */\n  tag_19\n  jump\t// in\ntag_41:\n    /* \"#utility.yul\":1440:1443   */\n  dup3\n    /* \"#utility.yul\":1433:1470   */\n  mstore\n    /* \"#utility.yul\":1358:1476   */\n  pop\n  pop\n  jump\t// out\n    /* \"#utility.yul\":1482:1704   */\ntag_9:\n    /* \"#utility.yul\":1575:1579   */\n  0x00\n    /* \"#utility.yul\":1613:1615   */\n  0x20\n    /* \"#utility.yul\":1602:1611   */\n  dup3\n    /* \"#utility.yul\":1598:1616   */\n  add\n    /* \"#utility.yul\":1590:1616   */\n  swap1\n  pop\n    /* \"#utility.yul\":1626:1697   */\n  tag_43\n    /* \"#utility.yul\":1694:1695   */\n  0x00\n    /* \"#utility.yul\":1683:1692   */\n  dup4\n    /* \"#utility.yul\":1679:1696   */\n  add\n    /* \"#utility.yul\":1670:1676   */\n  dup5\n    /* \"#utility.yul\":1626:1697   */\n  tag_22\n  jump\t// in\ntag_43:\n    /* \"#utility.yul\":1482:1704   */\n  swap3\n  swap2\n  pop\n  pop\n  jump\t// out\n    /* \"contents/Quest.sol\":159:3001  contract Quest is Ownable {... */\ntag_13:\n  dataSize(sub_0)\n  dup1\n  dataOffset(sub_0)\n  0x00\n  codecopy\n  0x00\n  return\nstop\n\nsub_0: assembly {\n        /* \"contents/Quest.sol\":159:3001  contract Quest is Ownable {... */\n      mstore(0x40, 0x80)\n      callvalue\n      dup1\n      iszero\n      tag_1\n      jumpi\n      0x00\n      dup1\n      revert\n    tag_1:\n      pop\n      jumpi(tag_2, lt(calldatasize, 0x04))\n      shr(0xe0, calldataload(0x00))\n      dup1\n      0xa5fd9381\n      gt\n      tag_23\n      jumpi\n      dup1\n      0xe4b1a19a\n      gt\n      tag_24\n      jumpi\n      dup1\n      0xe4b1a19a\n      eq\n      tag_18\n      jumpi\n      dup1\n      0xe4b8c4d4\n      eq\n      tag_19\n      jumpi\n      dup1\n      0xf2fde38b\n      eq\n      tag_20\n      jumpi\n      dup1\n      0xfbc1274d\n      eq\n      tag_21\n      jumpi\n      dup1\n      0xfe5a45d0\n      eq\n      tag_22\n      jumpi\n      jump(tag_2)\n    tag_24:\n      dup1\n      0xa5fd9381\n      eq\n      tag_13\n      jumpi\n      dup1\n      0xb74e452b\n      eq\n      tag_14\n      jumpi\n      dup1\n      0xbc6c22c6\n      eq\n      tag_15\n      jumpi\n      dup1\n      0xc1b6a1e8\n      eq\n      tag_16\n      jumpi\n      dup1\n      0xdec5d109\n      eq\n      tag_17\n      jumpi\n      jump(tag_2)\n    tag_23:\n      dup1\n      0x715018a6\n      gt\n      tag_25\n      jumpi\n      dup1\n      0x715018a6\n      eq\n      tag_8\n      jumpi\n      dup1\n      0x86c8a86f\n      eq\n      tag_9\n      jumpi\n      dup1\n      0x8d5b11ab\n      eq\n      tag_10\n      jumpi\n      dup1\n      0x8da5cb5b\n      eq\n      tag_11\n      jumpi\n      dup1\n      0x9e84477d\n      eq\n      tag_12\n      jumpi\n      jump(tag_2)\n    tag_25:\n      dup1\n      0x0db6dff7\n      eq\n      tag_3\n      jumpi\n      dup1\n      0x21098461\n      eq\n      tag_4\n      jumpi\n      dup1\n      0x423b1ca3\n      eq\n      tag_5\n      jumpi\n      dup1\n      0x55ccbff7\n      eq\n      tag_6\n      jumpi\n      dup1\n      0x57e2a625\n      eq\n      tag_7\n      jumpi\n    tag_2:\n      0x00\n      dup1\n      revert\n        /* \"contents/Quest.sol\":2492:2614  function setBattleContract(address _battleContract) external onlyOwner {... */\n    tag_3:\n      tag_26\n      0x04\n      dup1\n      calldatasize\n      sub\n      dup2\n      add\n      swap1\n      tag_27\n      swap2\n      swap1\n      tag_28\n      jump\t// in\n    tag_27:\n      tag_29\n      jump\t// in\n    tag_26:\n      stop\n        /* \"contents/Quest.sol\":2757:2895  function setDailyCheckContract(address _dailyCheckContract) external onlyOwner {... */\n    tag_4:\n      tag_30\n      0x04\n      dup1\n      calldatasize\n      sub\n      dup2\n      add\n      swap1\n      tag_31\n      swap2\n      swap1\n      tag_28\n      jump\t// in\n    tag_31:\n      tag_32\n      jump\t// in\n    tag_30:\n      stop\n        /* \"contents/Quest.sol\":605:634  address public battleContract */\n    tag_5:\n      tag_33\n      tag_34\n      jump\t// in\n    tag_33:\n      mload(0x40)\n      tag_35\n      swap2\n      swap1\n      tag_36\n      jump\t// in\n    tag_35:\n      mload(0x40)\n      dup1\n      swap2\n      sub\n      swap1\n      return\n        /* \"contents/Quest.sol\":641:671  address public exploreContract */\n    tag_6:\n      tag_37\n      tag_38\n      jump\t// in\n    tag_37:\n      mload(0x40)\n      tag_39\n      swap2\n      swap1\n      tag_36\n      jump\t// in\n    tag_39:\n      mload(0x40)\n      dup1\n      swap2\n      sub\n      swap1\n      return\n        /* \"contents/Quest.sol\":760:794  uint256 public exploreReward = 100 */\n    tag_7:\n      tag_40\n      tag_41\n      jump\t// in\n    tag_40:\n      mload(0x40)\n      tag_42\n      swap2\n      swap1\n      tag_43\n      jump\t// in\n    tag_42:\n      mload(0x40)\n      dup1\n      swap2\n      sub\n      swap1\n      return\n        /* \"@openzeppelin/contracts/access/Ownable.sol\":2293:2394  function renounceOwnership() public virtual onlyOwner {... */\n    tag_8:\n      tag_44\n      tag_45\n      jump\t// in\n    tag_44:\n      stop\n        /* \"contents/Quest.sol\":2359:2484  function getQuestData(address user) external view returns(QuestData memory) {... */\n    tag_9:\n      tag_46\n      0x04\n      dup1\n      calldatasize\n      sub\n      dup2\n      add\n      swap1\n      tag_47\n      swap2\n      swap1\n      tag_28\n      jump\t// in\n    tag_47:\n      tag_48\n      jump\t// in\n    tag_46:\n      mload(0x40)\n      tag_49\n      swap2\n      swap1\n      tag_50\n      jump\t// in\n    tag_49:\n      mload(0x40)\n      dup1\n      swap2\n      sub\n      swap1\n      return\n        /* \"contents/Quest.sol\":470:529  mapping(address => uint256) public lastBattleCompletionTime */\n    tag_10:\n      tag_51\n      0x04\n      dup1\n      calldatasize\n      sub\n      dup2\n      add\n      swap1\n      tag_52\n      swap2\n      swap1\n      tag_28\n      jump\t// in\n    tag_52:\n      tag_53\n      jump\t// in\n    tag_51:\n      mload(0x40)\n      tag_54\n      swap2\n      swap1\n      tag_43\n      jump\t// in\n    tag_54:\n      mload(0x40)\n      dup1\n      swap2\n      sub\n      swap1\n      return\n        /* \"@openzeppelin/contracts/access/Ownable.sol\":1638:1723  function owner() public view virtual returns (address) {... */\n    tag_11:\n      tag_55\n      tag_56\n      jump\t// in\n    tag_55:\n      mload(0x40)\n      tag_57\n      swap2\n      swap1\n      tag_36\n      jump\t// in\n    tag_57:\n      mload(0x40)\n      dup1\n      swap2\n      sub\n      swap1\n      return\n        /* \"contents/Quest.sol\":720:753  uint256 public battleReward = 100 */\n    tag_12:\n      tag_58\n      tag_59\n      jump\t// in\n    tag_58:\n      mload(0x40)\n      tag_60\n      swap2\n      swap1\n      tag_43\n      jump\t// in\n    tag_60:\n      mload(0x40)\n      dup1\n      swap2\n      sub\n      swap1\n      return\n        /* \"contents/Quest.sol\":1018:1375  function dailyCheck(address user) external returns (bool){... */\n    tag_13:\n      tag_61\n      0x04\n      dup1\n      calldatasize\n      sub\n      dup2\n      add\n      swap1\n      tag_62\n      swap2\n      swap1\n      tag_28\n      jump\t// in\n    tag_62:\n      tag_63\n      jump\t// in\n    tag_61:\n      mload(0x40)\n      tag_64\n      swap2\n      swap1\n      tag_65\n      jump\t// in\n    tag_64:\n      mload(0x40)\n      dup1\n      swap2\n      sub\n      swap1\n      return\n        /* \"contents/Quest.sol\":2903:2996  function today() public view returns(uint) {... */\n    tag_14:\n      tag_66\n      tag_67\n      jump\t// in\n    tag_66:\n      mload(0x40)\n      tag_68\n      swap2\n      swap1\n      tag_43\n      jump\t// in\n    tag_68:\n      mload(0x40)\n      dup1\n      swap2\n      sub\n      swap1\n      return\n        /* \"contents/Quest.sol\":341:399  mapping(address => uint256) public lastCheckCompletionTime */\n    tag_15:\n      tag_69\n      0x04\n      dup1\n      calldatasize\n      sub\n      dup2\n      add\n      swap1\n      tag_70\n      swap2\n      swap1\n      tag_28\n      jump\t// in\n    tag_70:\n      tag_71\n      jump\t// in\n    tag_69:\n      mload(0x40)\n      tag_72\n      swap2\n      swap1\n      tag_43\n      jump\t// in\n    tag_72:\n      mload(0x40)\n      dup1\n      swap2\n      sub\n      swap1\n      return\n        /* \"contents/Quest.sol\":1782:2185  function exploreCheck(address user) external {... */\n    tag_16:\n      tag_73\n      0x04\n      dup1\n      calldatasize\n      sub\n      dup2\n      add\n      swap1\n      tag_74\n      swap2\n      swap1\n      tag_28\n      jump\t// in\n    tag_74:\n      tag_75\n      jump\t// in\n    tag_73:\n      stop\n        /* \"contents/Quest.sol\":1383:1774  function battleCheck(address user) external {... */\n    tag_17:\n      tag_76\n      0x04\n      dup1\n      calldatasize\n      sub\n      dup2\n      add\n      swap1\n      tag_77\n      swap2\n      swap1\n      tag_28\n      jump\t// in\n    tag_77:\n      tag_78\n      jump\t// in\n    tag_76:\n      stop\n        /* \"contents/Quest.sol\":536:596  mapping(address => uint256) public lastExploreCompletionTime */\n    tag_18:\n      tag_79\n      0x04\n      dup1\n      calldatasize\n      sub\n      dup2\n      add\n      swap1\n      tag_80\n      swap2\n      swap1\n      tag_28\n      jump\t// in\n    tag_80:\n      tag_81\n      jump\t// in\n    tag_79:\n      mload(0x40)\n      tag_82\n      swap2\n      swap1\n      tag_43\n      jump\t// in\n    tag_82:\n      mload(0x40)\n      dup1\n      swap2\n      sub\n      swap1\n      return\n        /* \"contents/Quest.sol\":2623:2749  function setExploreContract(address _exploreContract) external onlyOwner {... */\n    tag_19:\n      tag_83\n      0x04\n      dup1\n      calldatasize\n      sub\n      dup2\n      add\n      swap1\n      tag_84\n      swap2\n      swap1\n      tag_28\n      jump\t// in\n    tag_84:\n      tag_85\n      jump\t// in\n    tag_83:\n      stop\n        /* \"@openzeppelin/contracts/access/Ownable.sol\":2543:2758  function transferOwnership(address newOwner) public virtual onlyOwner {... */\n    tag_20:\n      tag_86\n      0x04\n      dup1\n      calldatasize\n      sub\n      dup2\n      add\n      swap1\n      tag_87\n      swap2\n      swap1\n      tag_28\n      jump\t// in\n    tag_87:\n      tag_88\n      jump\t// in\n    tag_86:\n      stop\n        /* \"contents/Quest.sol\":301:334  IDragonDrink public drinkContract */\n    tag_21:\n      tag_89\n      tag_90\n      jump\t// in\n    tag_89:\n      mload(0x40)\n      tag_91\n      swap2\n      swap1\n      tag_92\n      jump\t// in\n    tag_91:\n      mload(0x40)\n      dup1\n      swap2\n      sub\n      swap1\n      return\n        /* \"contents/Quest.sol\":678:711  address public dailyCheckContract */\n    tag_22:\n      tag_93\n      tag_94\n      jump\t// in\n    tag_93:\n      mload(0x40)\n      tag_95\n      swap2\n      swap1\n      tag_36\n      jump\t// in\n    tag_95:\n      mload(0x40)\n      dup1\n      swap2\n      sub\n      swap1\n      return\n        /* \"contents/Quest.sol\":2492:2614  function setBattleContract(address _battleContract) external onlyOwner {... */\n    tag_29:\n        /* \"@openzeppelin/contracts/access/Ownable.sol\":1531:1544  _checkOwner() */\n      tag_97\n        /* \"@openzeppelin/contracts/access/Ownable.sol\":1531:1542  _checkOwner */\n      tag_98\n        /* \"@openzeppelin/contracts/access/Ownable.sol\":1531:1544  _checkOwner() */\n      jump\t// in\n    tag_97:\n        /* \"contents/Quest.sol\":2591:2606  _battleContract */\n      dup1\n        /* \"contents/Quest.sol\":2574:2588  battleContract */\n      0x06\n      0x00\n        /* \"contents/Quest.sol\":2574:2606  battleContract = _battleContract */\n      0x0100\n      exp\n      dup2\n      sload\n      dup2\n      0xffffffffffffffffffffffffffffffffffffffff\n      mul\n      not\n      and\n      swap1\n      dup4\n      0xffffffffffffffffffffffffffffffffffffffff\n      and\n      mul\n      or\n      swap1\n      sstore\n      pop\n        /* \"contents/Quest.sol\":2492:2614  function setBattleContract(address _battleContract) external onlyOwner {... */\n      pop\n      jump\t// out\n        /* \"contents/Quest.sol\":2757:2895  function setDailyCheckContract(address _dailyCheckContract) external onlyOwner {... */\n    tag_32:\n        /* \"@openzeppelin/contracts/access/Ownable.sol\":1531:1544  _checkOwner() */\n      tag_101\n        /* \"@openzeppelin/contracts/access/Ownable.sol\":1531:1542  _checkOwner */\n      tag_98\n        /* \"@openzeppelin/contracts/access/Ownable.sol\":1531:1544  _checkOwner() */\n      jump\t// in\n    tag_101:\n        /* \"contents/Quest.sol\":2868:2887  _dailyCheckContract */\n      dup1\n        /* \"contents/Quest.sol\":2847:2865  dailyCheckContract */\n      0x08\n      0x00\n        /* \"contents/Quest.sol\":2847:2887  dailyCheckContract = _dailyCheckContract */\n      0x0100\n      exp\n      dup2\n      sload\n      dup2\n      0xffffffffffffffffffffffffffffffffffffffff\n      mul\n      not\n      and\n      swap1\n      dup4\n      0xffffffffffffffffffffffffffffffffffffffff\n      and\n      mul\n      or\n      swap1\n      sstore\n      pop\n        /* \"contents/Quest.sol\":2757:2895  function setDailyCheckContract(address _dailyCheckContract) external onlyOwner {... */\n      pop\n      jump\t// out\n        /* \"contents/Quest.sol\":605:634  address public battleContract */\n    tag_34:\n      0x06\n      0x00\n      swap1\n      sload\n      swap1\n      0x0100\n      exp\n      swap1\n      div\n      0xffffffffffffffffffffffffffffffffffffffff\n      and\n      dup2\n      jump\t// out\n        /* \"contents/Quest.sol\":641:671  address public exploreContract */\n    tag_38:\n      0x07\n      0x00\n      swap1\n      sload\n      swap1\n      0x0100\n      exp\n      swap1\n      div\n      0xffffffffffffffffffffffffffffffffffffffff\n      and\n      dup2\n      jump\t// out\n        /* \"contents/Quest.sol\":760:794  uint256 public exploreReward = 100 */\n    tag_41:\n      sload(0x0a)\n      dup2\n      jump\t// out\n        /* \"@openzeppelin/contracts/access/Ownable.sol\":2293:2394  function renounceOwnership() public virtual onlyOwner {... */\n    tag_45:\n        /* \"@openzeppelin/contracts/access/Ownable.sol\":1531:1544  _checkOwner() */\n      tag_104\n        /* \"@openzeppelin/contracts/access/Ownable.sol\":1531:1542  _checkOwner */\n      tag_98\n        /* \"@openzeppelin/contracts/access/Ownable.sol\":1531:1544  _checkOwner() */\n      jump\t// in\n    tag_104:\n        /* \"@openzeppelin/contracts/access/Ownable.sol\":2357:2387  _transferOwnership(address(0)) */\n      tag_106\n        /* \"@openzeppelin/contracts/access/Ownable.sol\":2384:2385  0 */\n      0x00\n        /* \"@openzeppelin/contracts/access/Ownable.sol\":2357:2375  _transferOwnership */\n      tag_107\n        /* \"@openzeppelin/contracts/access/Ownable.sol\":2357:2387  _transferOwnership(address(0)) */\n      jump\t// in\n    tag_106:\n        /* \"@openzeppelin/contracts/access/Ownable.sol\":2293:2394  function renounceOwnership() public virtual onlyOwner {... */\n      jump\t// out\n        /* \"contents/Quest.sol\":2359:2484  function getQuestData(address user) external view returns(QuestData memory) {... */\n    tag_48:\n        /* \"contents/Quest.sol\":2417:2433  QuestData memory */\n      tag_108\n      tag_109\n      jump\t// in\n    tag_108:\n        /* \"contents/Quest.sol\":2453:2470  hasCompletedQuest */\n      0x03\n        /* \"contents/Quest.sol\":2453:2476  hasCompletedQuest[user] */\n      0x00\n        /* \"contents/Quest.sol\":2471:2475  user */\n      dup4\n        /* \"contents/Quest.sol\":2453:2476  hasCompletedQuest[user] */\n      0xffffffffffffffffffffffffffffffffffffffff\n      and\n      0xffffffffffffffffffffffffffffffffffffffff\n      and\n      dup2\n      mstore\n      0x20\n      add\n      swap1\n      dup2\n      mstore\n      0x20\n      add\n      0x00\n      keccak256\n        /* \"contents/Quest.sol\":2446:2476  return hasCompletedQuest[user] */\n      mload(0x40)\n      dup1\n      0x60\n      add\n      0x40\n      mstore\n      swap1\n      dup2\n      0x00\n      dup3\n      add\n      0x00\n      swap1\n      sload\n      swap1\n      0x0100\n      exp\n      swap1\n      div\n      0xff\n      and\n      iszero\n      iszero\n      iszero\n      iszero\n      dup2\n      mstore\n      0x20\n      add\n      0x00\n      dup3\n      add\n      0x01\n      swap1\n      sload\n      swap1\n      0x0100\n      exp\n      swap1\n      div\n      0xff\n      and\n      iszero\n      iszero\n      iszero\n      iszero\n      dup2\n      mstore\n      0x20\n      add\n      0x00\n      dup3\n      add\n      0x02\n      swap1\n      sload\n      swap1\n      0x0100\n      exp\n      swap1\n      div\n      0xff\n      and\n      iszero\n      iszero\n      iszero\n      iszero\n      dup2\n      mstore\n      pop\n      pop\n      swap1\n      pop\n        /* \"contents/Quest.sol\":2359:2484  function getQuestData(address user) external view returns(QuestData memory) {... */\n      swap2\n      swap1\n      pop\n      jump\t// out\n        /* \"contents/Quest.sol\":470:529  mapping(address => uint256) public lastBattleCompletionTime */\n    tag_53:\n      mstore(0x20, 0x04)\n      dup1\n      0x00\n      mstore\n      keccak256(0x00, 0x40)\n      0x00\n      swap2\n      pop\n      swap1\n      pop\n      sload\n      dup2\n      jump\t// out\n        /* \"@openzeppelin/contracts/access/Ownable.sol\":1638:1723  function owner() public view virtual returns (address) {... */\n    tag_56:\n        /* \"@openzeppelin/contracts/access/Ownable.sol\":1684:1691  address */\n      0x00\n        /* \"@openzeppelin/contracts/access/Ownable.sol\":1710:1716  _owner */\n      dup1\n      0x00\n      swap1\n      sload\n      swap1\n      0x0100\n      exp\n      swap1\n      div\n      0xffffffffffffffffffffffffffffffffffffffff\n      and\n        /* \"@openzeppelin/contracts/access/Ownable.sol\":1703:1716  return _owner */\n      swap1\n      pop\n        /* \"@openzeppelin/contracts/access/Ownable.sol\":1638:1723  function owner() public view virtual returns (address) {... */\n      swap1\n      jump\t// out\n        /* \"contents/Quest.sol\":720:753  uint256 public battleReward = 100 */\n    tag_59:\n      sload(0x09)\n      dup2\n      jump\t// out\n        /* \"contents/Quest.sol\":1018:1375  function dailyCheck(address user) external returns (bool){... */\n    tag_63:\n        /* \"contents/Quest.sol\":1070:1074  bool */\n      0x00\n        /* \"contents/Quest.sol\":1108:1126  dailyCheckContract */\n      0x08\n      0x00\n      swap1\n      sload\n      swap1\n      0x0100\n      exp\n      swap1\n      div\n      0xffffffffffffffffffffffffffffffffffffffff\n      and\n        /* \"contents/Quest.sol\":1094:1126  msg.sender == dailyCheckContract */\n      0xffffffffffffffffffffffffffffffffffffffff\n      and\n        /* \"contents/Quest.sol\":1094:1104  msg.sender */\n      caller\n        /* \"contents/Quest.sol\":1094:1126  msg.sender == dailyCheckContract */\n      0xffffffffffffffffffffffffffffffffffffffff\n      and\n      eq\n        /* \"contents/Quest.sol\":1086:1152  require(msg.sender == dailyCheckContract, \"already daily checked\") */\n      tag_113\n      jumpi\n      mload(0x40)\n      0x08c379a000000000000000000000000000000000000000000000000000000000\n      dup2\n      mstore\n      0x04\n      add\n      tag_114\n      swap1\n      tag_115\n      jump\t// in\n    tag_114:\n      mload(0x40)\n      dup1\n      swap2\n      sub\n      swap1\n      revert\n    tag_113:\n        /* \"contents/Quest.sol\":1203:1210  today() */\n      tag_116\n        /* \"contents/Quest.sol\":1203:1208  today */\n      tag_67\n        /* \"contents/Quest.sol\":1203:1210  today() */\n      jump\t// in\n    tag_116:\n        /* \"contents/Quest.sol\":1171:1194  lastCheckCompletionTime */\n      0x02\n        /* \"contents/Quest.sol\":1171:1200  lastCheckCompletionTime[user] */\n      0x00\n        /* \"contents/Quest.sol\":1195:1199  user */\n      dup5\n        /* \"contents/Quest.sol\":1171:1200  lastCheckCompletionTime[user] */\n      0xffffffffffffffffffffffffffffffffffffffff\n      and\n      0xffffffffffffffffffffffffffffffffffffffff\n      and\n      dup2\n      mstore\n      0x20\n      add\n      swap1\n      dup2\n      mstore\n      0x20\n      add\n      0x00\n      keccak256\n      sload\n        /* \"contents/Quest.sol\":1171:1210  lastCheckCompletionTime[user] < today() */\n      lt\n        /* \"contents/Quest.sol\":1163:1241  require(lastCheckCompletionTime[user] < today(), \"Quest is still on cooldown\") */\n      tag_117\n      jumpi\n      mload(0x40)\n      0x08c379a000000000000000000000000000000000000000000000000000000000\n      dup2\n      mstore\n      0x04\n      add\n      tag_118\n      swap1\n      tag_119\n      jump\t// in\n    tag_118:\n      mload(0x40)\n      dup1\n      swap2\n      sub\n      swap1\n      revert\n    tag_117:\n        /* \"contents/Quest.sol\":1286:1293  today() */\n      tag_120\n        /* \"contents/Quest.sol\":1286:1291  today */\n      tag_67\n        /* \"contents/Quest.sol\":1286:1293  today() */\n      jump\t// in\n    tag_120:\n        /* \"contents/Quest.sol\":1254:1277  lastCheckCompletionTime */\n      0x02\n        /* \"contents/Quest.sol\":1254:1283  lastCheckCompletionTime[user] */\n      0x00\n        /* \"contents/Quest.sol\":1278:1282  user */\n      dup5\n        /* \"contents/Quest.sol\":1254:1283  lastCheckCompletionTime[user] */\n      0xffffffffffffffffffffffffffffffffffffffff\n      and\n      0xffffffffffffffffffffffffffffffffffffffff\n      and\n      dup2\n      mstore\n      0x20\n      add\n      swap1\n      dup2\n      mstore\n      0x20\n      add\n      0x00\n      keccak256\n        /* \"contents/Quest.sol\":1254:1293  lastCheckCompletionTime[user] = today() */\n      dup2\n      swap1\n      sstore\n      pop\n        /* \"contents/Quest.sol\":1341:1345  true */\n      0x01\n        /* \"contents/Quest.sol\":1304:1321  hasCompletedQuest */\n      0x03\n        /* \"contents/Quest.sol\":1304:1327  hasCompletedQuest[user] */\n      0x00\n        /* \"contents/Quest.sol\":1322:1326  user */\n      dup5\n        /* \"contents/Quest.sol\":1304:1327  hasCompletedQuest[user] */\n      0xffffffffffffffffffffffffffffffffffffffff\n      and\n      0xffffffffffffffffffffffffffffffffffffffff\n      and\n      dup2\n      mstore\n      0x20\n      add\n      swap1\n      dup2\n      mstore\n      0x20\n      add\n      0x00\n      keccak256\n        /* \"contents/Quest.sol\":1304:1338  hasCompletedQuest[user].dailyCheck */\n      0x00\n      add\n      0x00\n        /* \"contents/Quest.sol\":1304:1345  hasCompletedQuest[user].dailyCheck = true */\n      0x0100\n      exp\n      dup2\n      sload\n      dup2\n      0xff\n      mul\n      not\n      and\n      swap1\n      dup4\n      iszero\n      iszero\n      mul\n      or\n      swap1\n      sstore\n      pop\n        /* \"contents/Quest.sol\":1363:1367  true */\n      0x01\n        /* \"contents/Quest.sol\":1356:1367  return true */\n      swap1\n      pop\n        /* \"contents/Quest.sol\":1018:1375  function dailyCheck(address user) external returns (bool){... */\n      swap2\n      swap1\n      pop\n      jump\t// out\n        /* \"contents/Quest.sol\":2903:2996  function today() public view returns(uint) {... */\n    tag_67:\n        /* \"contents/Quest.sol\":2940:2944  uint */\n      0x00\n        /* \"contents/Quest.sol\":2982:2988  1 days */\n      0x015180\n        /* \"contents/Quest.sol\":2964:2979  block.timestamp */\n      timestamp\n        /* \"contents/Quest.sol\":2964:2988  block.timestamp / 1 days */\n      tag_122\n      swap2\n      swap1\n      tag_123\n      jump\t// in\n    tag_122:\n        /* \"contents/Quest.sol\":2957:2988  return block.timestamp / 1 days */\n      swap1\n      pop\n        /* \"contents/Quest.sol\":2903:2996  function today() public view returns(uint) {... */\n      swap1\n      jump\t// out\n        /* \"contents/Quest.sol\":341:399  mapping(address => uint256) public lastCheckCompletionTime */\n    tag_71:\n      mstore(0x20, 0x02)\n      dup1\n      0x00\n      mstore\n      keccak256(0x00, 0x40)\n      0x00\n      swap2\n      pop\n      swap1\n      pop\n      sload\n      dup2\n      jump\t// out\n        /* \"contents/Quest.sol\":1782:2185  function exploreCheck(address user) external {... */\n    tag_75:\n        /* \"contents/Quest.sol\":1860:1875  exploreContract */\n      0x07\n      0x00\n      swap1\n      sload\n      swap1\n      0x0100\n      exp\n      swap1\n      div\n      0xffffffffffffffffffffffffffffffffffffffff\n      and\n        /* \"contents/Quest.sol\":1846:1875  msg.sender == exploreContract */\n      0xffffffffffffffffffffffffffffffffffffffff\n      and\n        /* \"contents/Quest.sol\":1846:1856  msg.sender */\n      caller\n        /* \"contents/Quest.sol\":1846:1875  msg.sender == exploreContract */\n      0xffffffffffffffffffffffffffffffffffffffff\n      and\n      eq\n        /* \"contents/Quest.sol\":1838:1919  require(msg.sender == exploreContract, \"Only the explore contract can execution\") */\n      tag_125\n      jumpi\n      mload(0x40)\n      0x08c379a000000000000000000000000000000000000000000000000000000000\n      dup2\n      mstore\n      0x04\n      add\n      tag_126\n      swap1\n      tag_127\n      jump\t// in\n    tag_126:\n      mload(0x40)\n      dup1\n      swap2\n      sub\n      swap1\n      revert\n    tag_125:\n        /* \"contents/Quest.sol\":1972:1979  today() */\n      tag_128\n        /* \"contents/Quest.sol\":1972:1977  today */\n      tag_67\n        /* \"contents/Quest.sol\":1972:1979  today() */\n      jump\t// in\n    tag_128:\n        /* \"contents/Quest.sol\":1938:1963  lastExploreCompletionTime */\n      0x05\n        /* \"contents/Quest.sol\":1938:1969  lastExploreCompletionTime[user] */\n      0x00\n        /* \"contents/Quest.sol\":1964:1968  user */\n      dup4\n        /* \"contents/Quest.sol\":1938:1969  lastExploreCompletionTime[user] */\n      0xffffffffffffffffffffffffffffffffffffffff\n      and\n      0xffffffffffffffffffffffffffffffffffffffff\n      and\n      dup2\n      mstore\n      0x20\n      add\n      swap1\n      dup2\n      mstore\n      0x20\n      add\n      0x00\n      keccak256\n      sload\n        /* \"contents/Quest.sol\":1938:1979  lastExploreCompletionTime[user] < today() */\n      lt\n        /* \"contents/Quest.sol\":1930:2018  require(lastExploreCompletionTime[user] < today(), \"Explore quest is still on cooldown\") */\n      tag_129\n      jumpi\n      mload(0x40)\n      0x08c379a000000000000000000000000000000000000000000000000000000000\n      dup2\n      mstore\n      0x04\n      add\n      tag_130\n      swap1\n      tag_131\n      jump\t// in\n    tag_130:\n      mload(0x40)\n      dup1\n      swap2\n      sub\n      swap1\n      revert\n    tag_129:\n        /* \"contents/Quest.sol\":2065:2072  today() */\n      tag_132\n        /* \"contents/Quest.sol\":2065:2070  today */\n      tag_67\n        /* \"contents/Quest.sol\":2065:2072  today() */\n      jump\t// in\n    tag_132:\n        /* \"contents/Quest.sol\":2031:2056  lastExploreCompletionTime */\n      0x05\n        /* \"contents/Quest.sol\":2031:2062  lastExploreCompletionTime[user] */\n      0x00\n        /* \"contents/Quest.sol\":2057:2061  user */\n      dup4\n        /* \"contents/Quest.sol\":2031:2062  lastExploreCompletionTime[user] */\n      0xffffffffffffffffffffffffffffffffffffffff\n      and\n      0xffffffffffffffffffffffffffffffffffffffff\n      and\n      dup2\n      mstore\n      0x20\n      add\n      swap1\n      dup2\n      mstore\n      0x20\n      add\n      0x00\n      keccak256\n        /* \"contents/Quest.sol\":2031:2072  lastExploreCompletionTime[user] = today() */\n      dup2\n      swap1\n      sstore\n      pop\n        /* \"contents/Quest.sol\":2121:2125  true */\n      0x01\n        /* \"contents/Quest.sol\":2083:2100  hasCompletedQuest */\n      0x03\n        /* \"contents/Quest.sol\":2083:2106  hasCompletedQuest[user] */\n      0x00\n        /* \"contents/Quest.sol\":2101:2105  user */\n      dup4\n        /* \"contents/Quest.sol\":2083:2106  hasCompletedQuest[user] */\n      0xffffffffffffffffffffffffffffffffffffffff\n      and\n      0xffffffffffffffffffffffffffffffffffffffff\n      and\n      dup2\n      mstore\n      0x20\n      add\n      swap1\n      dup2\n      mstore\n      0x20\n      add\n      0x00\n      keccak256\n        /* \"contents/Quest.sol\":2083:2118  hasCompletedQuest[user].exploration */\n      0x00\n      add\n      0x01\n        /* \"contents/Quest.sol\":2083:2125  hasCompletedQuest[user].exploration = true */\n      0x0100\n      exp\n      dup2\n      sload\n      dup2\n      0xff\n      mul\n      not\n      and\n      swap1\n      dup4\n      iszero\n      iszero\n      mul\n      or\n      swap1\n      sstore\n      pop\n        /* \"contents/Quest.sol\":2138:2151  drinkContract */\n      0x01\n      0x00\n      swap1\n      sload\n      swap1\n      0x0100\n      exp\n      swap1\n      div\n      0xffffffffffffffffffffffffffffffffffffffff\n      and\n        /* \"contents/Quest.sol\":2138:2156  drinkContract.mint */\n      0xffffffffffffffffffffffffffffffffffffffff\n      and\n      0x40c10f19\n        /* \"contents/Quest.sol\":2157:2161  user */\n      dup3\n        /* \"contents/Quest.sol\":2163:2176  exploreReward */\n      sload(0x0a)\n        /* \"contents/Quest.sol\":2138:2177  drinkContract.mint(user, exploreReward) */\n      mload(0x40)\n      dup4\n      0xffffffff\n      and\n      0xe0\n      shl\n      dup2\n      mstore\n      0x04\n      add\n      tag_133\n      swap3\n      swap2\n      swap1\n      tag_134\n      jump\t// in\n    tag_133:\n      0x00\n      mload(0x40)\n      dup1\n      dup4\n      sub\n      dup2\n      0x00\n      dup8\n      dup1\n      extcodesize\n      iszero\n      dup1\n      iszero\n      tag_135\n      jumpi\n      0x00\n      dup1\n      revert\n    tag_135:\n      pop\n      gas\n      call\n      iszero\n      dup1\n      iszero\n      tag_137\n      jumpi\n      returndatasize\n      0x00\n      dup1\n      returndatacopy\n      revert(0x00, returndatasize)\n    tag_137:\n      pop\n      pop\n      pop\n      pop\n        /* \"contents/Quest.sol\":1782:2185  function exploreCheck(address user) external {... */\n      pop\n      jump\t// out\n        /* \"contents/Quest.sol\":1383:1774  function battleCheck(address user) external {... */\n    tag_78:\n        /* \"contents/Quest.sol\":1460:1474  battleContract */\n      0x06\n      0x00\n      swap1\n      sload\n      swap1\n      0x0100\n      exp\n      swap1\n      div\n      0xffffffffffffffffffffffffffffffffffffffff\n      and\n        /* \"contents/Quest.sol\":1446:1474  msg.sender == battleContract */\n      0xffffffffffffffffffffffffffffffffffffffff\n      and\n        /* \"contents/Quest.sol\":1446:1456  msg.sender */\n      caller\n        /* \"contents/Quest.sol\":1446:1474  msg.sender == battleContract */\n      0xffffffffffffffffffffffffffffffffffffffff\n      and\n      eq\n        /* \"contents/Quest.sol\":1438:1517  require(msg.sender == battleContract, \"Only the battle contract can execution\") */\n      tag_139\n      jumpi\n      mload(0x40)\n      0x08c379a000000000000000000000000000000000000000000000000000000000\n      dup2\n      mstore\n      0x04\n      add\n      tag_140\n      swap1\n      tag_141\n      jump\t// in\n    tag_140:\n      mload(0x40)\n      dup1\n      swap2\n      sub\n      swap1\n      revert\n    tag_139:\n        /* \"contents/Quest.sol\":1569:1576  today() */\n      tag_142\n        /* \"contents/Quest.sol\":1569:1574  today */\n      tag_67\n        /* \"contents/Quest.sol\":1569:1576  today() */\n      jump\t// in\n    tag_142:\n        /* \"contents/Quest.sol\":1536:1560  lastBattleCompletionTime */\n      0x04\n        /* \"contents/Quest.sol\":1536:1566  lastBattleCompletionTime[user] */\n      0x00\n        /* \"contents/Quest.sol\":1561:1565  user */\n      dup4\n        /* \"contents/Quest.sol\":1536:1566  lastBattleCompletionTime[user] */\n      0xffffffffffffffffffffffffffffffffffffffff\n      and\n      0xffffffffffffffffffffffffffffffffffffffff\n      and\n      dup2\n      mstore\n      0x20\n      add\n      swap1\n      dup2\n      mstore\n      0x20\n      add\n      0x00\n      keccak256\n      sload\n        /* \"contents/Quest.sol\":1536:1576  lastBattleCompletionTime[user] < today() */\n      lt\n        /* \"contents/Quest.sol\":1528:1614  require(lastBattleCompletionTime[user] < today(), \"Battle quest is still on cooldown\") */\n      tag_143\n      jumpi\n      mload(0x40)\n      0x08c379a000000000000000000000000000000000000000000000000000000000\n      dup2\n      mstore\n      0x04\n      add\n      tag_144\n      swap1\n      tag_145\n      jump\t// in\n    tag_144:\n      mload(0x40)\n      dup1\n      swap2\n      sub\n      swap1\n      revert\n    tag_143:\n        /* \"contents/Quest.sol\":1660:1667  today() */\n      tag_146\n        /* \"contents/Quest.sol\":1660:1665  today */\n      tag_67\n        /* \"contents/Quest.sol\":1660:1667  today() */\n      jump\t// in\n    tag_146:\n        /* \"contents/Quest.sol\":1627:1651  lastBattleCompletionTime */\n      0x04\n        /* \"contents/Quest.sol\":1627:1657  lastBattleCompletionTime[user] */\n      0x00\n        /* \"contents/Quest.sol\":1652:1656  user */\n      dup4\n        /* \"contents/Quest.sol\":1627:1657  lastBattleCompletionTime[user] */\n      0xffffffffffffffffffffffffffffffffffffffff\n      and\n      0xffffffffffffffffffffffffffffffffffffffff\n      and\n      dup2\n      mstore\n      0x20\n      add\n      swap1\n      dup2\n      mstore\n      0x20\n      add\n      0x00\n      keccak256\n        /* \"contents/Quest.sol\":1627:1667  lastBattleCompletionTime[user] = today() */\n      dup2\n      swap1\n      sstore\n      pop\n        /* \"contents/Quest.sol\":1711:1715  true */\n      0x01\n        /* \"contents/Quest.sol\":1678:1695  hasCompletedQuest */\n      0x03\n        /* \"contents/Quest.sol\":1678:1701  hasCompletedQuest[user] */\n      0x00\n        /* \"contents/Quest.sol\":1696:1700  user */\n      dup4\n        /* \"contents/Quest.sol\":1678:1701  hasCompletedQuest[user] */\n      0xffffffffffffffffffffffffffffffffffffffff\n      and\n      0xffffffffffffffffffffffffffffffffffffffff\n      and\n      dup2\n      mstore\n      0x20\n      add\n      swap1\n      dup2\n      mstore\n      0x20\n      add\n      0x00\n      keccak256\n        /* \"contents/Quest.sol\":1678:1708  hasCompletedQuest[user].battle */\n      0x00\n      add\n      0x02\n        /* \"contents/Quest.sol\":1678:1715  hasCompletedQuest[user].battle = true */\n      0x0100\n      exp\n      dup2\n      sload\n      dup2\n      0xff\n      mul\n      not\n      and\n      swap1\n      dup4\n      iszero\n      iszero\n      mul\n      or\n      swap1\n      sstore\n      pop\n        /* \"contents/Quest.sol\":1728:1741  drinkContract */\n      0x01\n      0x00\n      swap1\n      sload\n      swap1\n      0x0100\n      exp\n      swap1\n      div\n      0xffffffffffffffffffffffffffffffffffffffff\n      and\n        /* \"contents/Quest.sol\":1728:1746  drinkContract.mint */\n      0xffffffffffffffffffffffffffffffffffffffff\n      and\n      0x40c10f19\n        /* \"contents/Quest.sol\":1747:1751  user */\n      dup3\n        /* \"contents/Quest.sol\":1753:1765  battleReward */\n      sload(0x09)\n        /* \"contents/Quest.sol\":1728:1766  drinkContract.mint(user, battleReward) */\n      mload(0x40)\n      dup4\n      0xffffffff\n      and\n      0xe0\n      shl\n      dup2\n      mstore\n      0x04\n      add\n      tag_147\n      swap3\n      swap2\n      swap1\n      tag_134\n      jump\t// in\n    tag_147:\n      0x00\n      mload(0x40)\n      dup1\n      dup4\n      sub\n      dup2\n      0x00\n      dup8\n      dup1\n      extcodesize\n      iszero\n      dup1\n      iszero\n      tag_148\n      jumpi\n      0x00\n      dup1\n      revert\n    tag_148:\n      pop\n      gas\n      call\n      iszero\n      dup1\n      iszero\n      tag_150\n      jumpi\n      returndatasize\n      0x00\n      dup1\n      returndatacopy\n      revert(0x00, returndatasize)\n    tag_150:\n      pop\n      pop\n      pop\n      pop\n        /* \"contents/Quest.sol\":1383:1774  function battleCheck(address user) external {... */\n      pop\n      jump\t// out\n        /* \"contents/Quest.sol\":536:596  mapping(address => uint256) public lastExploreCompletionTime */\n    tag_81:\n      mstore(0x20, 0x05)\n      dup1\n      0x00\n      mstore\n      keccak256(0x00, 0x40)\n      0x00\n      swap2\n      pop\n      swap1\n      pop\n      sload\n      dup2\n      jump\t// out\n        /* \"contents/Quest.sol\":2623:2749  function setExploreContract(address _exploreContract) external onlyOwner {... */\n    tag_85:\n        /* \"@openzeppelin/contracts/access/Ownable.sol\":1531:1544  _checkOwner() */\n      tag_152\n        /* \"@openzeppelin/contracts/access/Ownable.sol\":1531:1542  _checkOwner */\n      tag_98\n        /* \"@openzeppelin/contracts/access/Ownable.sol\":1531:1544  _checkOwner() */\n      jump\t// in\n    tag_152:\n        /* \"contents/Quest.sol\":2725:2741  _exploreContract */\n      dup1\n        /* \"contents/Quest.sol\":2707:2722  exploreContract */\n      0x07\n      0x00\n        /* \"contents/Quest.sol\":2707:2741  exploreContract = _exploreContract */\n      0x0100\n      exp\n      dup2\n      sload\n      dup2\n      0xffffffffffffffffffffffffffffffffffffffff\n      mul\n      not\n      and\n      swap1\n      dup4\n      0xffffffffffffffffffffffffffffffffffffffff\n      and\n      mul\n      or\n      swap1\n      sstore\n      pop\n        /* \"contents/Quest.sol\":2623:2749  function setExploreContract(address _exploreContract) external onlyOwner {... */\n      pop\n      jump\t// out\n        /* \"@openzeppelin/contracts/access/Ownable.sol\":2543:2758  function transferOwnership(address newOwner) public virtual onlyOwner {... */\n    tag_88:\n        /* \"@openzeppelin/contracts/access/Ownable.sol\":1531:1544  _checkOwner() */\n      tag_155\n        /* \"@openzeppelin/contracts/access/Ownable.sol\":1531:1542  _checkOwner */\n      tag_98\n        /* \"@openzeppelin/contracts/access/Ownable.sol\":1531:1544  _checkOwner() */\n      jump\t// in\n    tag_155:\n        /* \"@openzeppelin/contracts/access/Ownable.sol\":2647:2648  0 */\n      0x00\n        /* \"@openzeppelin/contracts/access/Ownable.sol\":2627:2649  newOwner == address(0) */\n      0xffffffffffffffffffffffffffffffffffffffff\n      and\n        /* \"@openzeppelin/contracts/access/Ownable.sol\":2627:2635  newOwner */\n      dup2\n        /* \"@openzeppelin/contracts/access/Ownable.sol\":2627:2649  newOwner == address(0) */\n      0xffffffffffffffffffffffffffffffffffffffff\n      and\n      sub\n        /* \"@openzeppelin/contracts/access/Ownable.sol\":2623:2714  if (newOwner == address(0)) {... */\n      tag_157\n      jumpi\n        /* \"@openzeppelin/contracts/access/Ownable.sol\":2700:2701  0 */\n      0x00\n        /* \"@openzeppelin/contracts/access/Ownable.sol\":2672:2703  OwnableInvalidOwner(address(0)) */\n      mload(0x40)\n      0x1e4fbdf700000000000000000000000000000000000000000000000000000000\n      dup2\n      mstore\n      0x04\n      add\n      tag_158\n      swap2\n      swap1\n      tag_36\n      jump\t// in\n    tag_158:\n      mload(0x40)\n      dup1\n      swap2\n      sub\n      swap1\n      revert\n        /* \"@openzeppelin/contracts/access/Ownable.sol\":2623:2714  if (newOwner == address(0)) {... */\n    tag_157:\n        /* \"@openzeppelin/contracts/access/Ownable.sol\":2723:2751  _transferOwnership(newOwner) */\n      tag_159\n        /* \"@openzeppelin/contracts/access/Ownable.sol\":2742:2750  newOwner */\n      dup2\n        /* \"@openzeppelin/contracts/access/Ownable.sol\":2723:2741  _transferOwnership */\n      tag_107\n        /* \"@openzeppelin/contracts/access/Ownable.sol\":2723:2751  _transferOwnership(newOwner) */\n      jump\t// in\n    tag_159:\n        /* \"@openzeppelin/contracts/access/Ownable.sol\":2543:2758  function transferOwnership(address newOwner) public virtual onlyOwner {... */\n      pop\n      jump\t// out\n        /* \"contents/Quest.sol\":301:334  IDragonDrink public drinkContract */\n    tag_90:\n      0x01\n      0x00\n      swap1\n      sload\n      swap1\n      0x0100\n      exp\n      swap1\n      div\n      0xffffffffffffffffffffffffffffffffffffffff\n      and\n      dup2\n      jump\t// out\n        /* \"contents/Quest.sol\":678:711  address public dailyCheckContract */\n    tag_94:\n      0x08\n      0x00\n      swap1\n      sload\n      swap1\n      0x0100\n      exp\n      swap1\n      div\n      0xffffffffffffffffffffffffffffffffffffffff\n      and\n      dup2\n      jump\t// out\n        /* \"@openzeppelin/contracts/access/Ownable.sol\":1796:1958  function _checkOwner() internal view virtual {... */\n    tag_98:\n        /* \"@openzeppelin/contracts/access/Ownable.sol\":1866:1878  _msgSender() */\n      tag_161\n        /* \"@openzeppelin/contracts/access/Ownable.sol\":1866:1876  _msgSender */\n      tag_162\n        /* \"@openzeppelin/contracts/access/Ownable.sol\":1866:1878  _msgSender() */\n      jump\t// in\n    tag_161:\n        /* \"@openzeppelin/contracts/access/Ownable.sol\":1855:1878  owner() != _msgSender() */\n      0xffffffffffffffffffffffffffffffffffffffff\n      and\n        /* \"@openzeppelin/contracts/access/Ownable.sol\":1855:1862  owner() */\n      tag_163\n        /* \"@openzeppelin/contracts/access/Ownable.sol\":1855:1860  owner */\n      tag_56\n        /* \"@openzeppelin/contracts/access/Ownable.sol\":1855:1862  owner() */\n      jump\t// in\n    tag_163:\n        /* \"@openzeppelin/contracts/access/Ownable.sol\":1855:1878  owner() != _msgSender() */\n      0xffffffffffffffffffffffffffffffffffffffff\n      and\n      eq\n        /* \"@openzeppelin/contracts/access/Ownable.sol\":1851:1952  if (owner() != _msgSender()) {... */\n      tag_164\n      jumpi\n        /* \"@openzeppelin/contracts/access/Ownable.sol\":1928:1940  _msgSender() */\n      tag_165\n        /* \"@openzeppelin/contracts/access/Ownable.sol\":1928:1938  _msgSender */\n      tag_162\n        /* \"@openzeppelin/contracts/access/Ownable.sol\":1928:1940  _msgSender() */\n      jump\t// in\n    tag_165:\n        /* \"@openzeppelin/contracts/access/Ownable.sol\":1901:1941  OwnableUnauthorizedAccount(_msgSender()) */\n      mload(0x40)\n      0x118cdaa700000000000000000000000000000000000000000000000000000000\n      dup2\n      mstore\n      0x04\n      add\n      tag_166\n      swap2\n      swap1\n      tag_36\n      jump\t// in\n    tag_166:\n      mload(0x40)\n      dup1\n      swap2\n      sub\n      swap1\n      revert\n        /* \"@openzeppelin/contracts/access/Ownable.sol\":1851:1952  if (owner() != _msgSender()) {... */\n    tag_164:\n        /* \"@openzeppelin/contracts/access/Ownable.sol\":1796:1958  function _checkOwner() internal view virtual {... */\n      jump\t// out\n        /* \"@openzeppelin/contracts/access/Ownable.sol\":2912:3099  function _transferOwnership(address newOwner) internal virtual {... */\n    tag_107:\n        /* \"@openzeppelin/contracts/access/Ownable.sol\":2985:3001  address oldOwner */\n      0x00\n        /* \"@openzeppelin/contracts/access/Ownable.sol\":3004:3010  _owner */\n      dup1\n      0x00\n      swap1\n      sload\n      swap1\n      0x0100\n      exp\n      swap1\n      div\n      0xffffffffffffffffffffffffffffffffffffffff\n      and\n        /* \"@openzeppelin/contracts/access/Ownable.sol\":2985:3010  address oldOwner = _owner */\n      swap1\n      pop\n        /* \"@openzeppelin/contracts/access/Ownable.sol\":3029:3037  newOwner */\n      dup2\n        /* \"@openzeppelin/contracts/access/Ownable.sol\":3020:3026  _owner */\n      0x00\n      dup1\n        /* \"@openzeppelin/contracts/access/Ownable.sol\":3020:3037  _owner = newOwner */\n      0x0100\n      exp\n      dup2\n      sload\n      dup2\n      0xffffffffffffffffffffffffffffffffffffffff\n      mul\n      not\n      and\n      swap1\n      dup4\n      0xffffffffffffffffffffffffffffffffffffffff\n      and\n      mul\n      or\n      swap1\n      sstore\n      pop\n        /* \"@openzeppelin/contracts/access/Ownable.sol\":3083:3091  newOwner */\n      dup2\n        /* \"@openzeppelin/contracts/access/Ownable.sol\":3052:3092  OwnershipTransferred(oldOwner, newOwner) */\n      0xffffffffffffffffffffffffffffffffffffffff\n      and\n        /* \"@openzeppelin/contracts/access/Ownable.sol\":3073:3081  oldOwner */\n      dup2\n        /* \"@openzeppelin/contracts/access/Ownable.sol\":3052:3092  OwnershipTransferred(oldOwner, newOwner) */\n      0xffffffffffffffffffffffffffffffffffffffff\n      and\n      0x8be0079c531659141344cd1fd0a4f28419497f9722a3daafe3b4186f6b6457e0\n      mload(0x40)\n      mload(0x40)\n      dup1\n      swap2\n      sub\n      swap1\n      log3\n        /* \"@openzeppelin/contracts/access/Ownable.sol\":2975:3099  {... */\n      pop\n        /* \"@openzeppelin/contracts/access/Ownable.sol\":2912:3099  function _transferOwnership(address newOwner) internal virtual {... */\n      pop\n      jump\t// out\n        /* \"@openzeppelin/contracts/utils/Context.sol\":656:752  function _msgSender() internal view virtual returns (address) {... */\n    tag_162:\n        /* \"@openzeppelin/contracts/utils/Context.sol\":709:716  address */\n      0x00\n        /* \"@openzeppelin/contracts/utils/Context.sol\":735:745  msg.sender */\n      caller\n        /* \"@openzeppelin/contracts/utils/Context.sol\":728:745  return msg.sender */\n      swap1\n      pop\n        /* \"@openzeppelin/contracts/utils/Context.sol\":656:752  function _msgSender() internal view virtual returns (address) {... */\n      swap1\n      jump\t// out\n    tag_109:\n      mload(0x40)\n      dup1\n      0x60\n      add\n      0x40\n      mstore\n      dup1\n      iszero(iszero(0x00))\n      dup2\n      mstore\n      0x20\n      add\n      iszero(iszero(0x00))\n      dup2\n      mstore\n      0x20\n      add\n      iszero(iszero(0x00))\n      dup2\n      mstore\n      pop\n      swap1\n      jump\t// out\n        /* \"#utility.yul\":88:205   */\n    tag_170:\n        /* \"#utility.yul\":197:198   */\n      0x00\n        /* \"#utility.yul\":194:195   */\n      dup1\n        /* \"#utility.yul\":187:199   */\n      revert\n        /* \"#utility.yul\":334:460   */\n    tag_172:\n        /* \"#utility.yul\":371:378   */\n      0x00\n        /* \"#utility.yul\":411:453   */\n      0xffffffffffffffffffffffffffffffffffffffff\n        /* \"#utility.yul\":404:409   */\n      dup3\n        /* \"#utility.yul\":400:454   */\n      and\n        /* \"#utility.yul\":389:454   */\n      swap1\n      pop\n        /* \"#utility.yul\":334:460   */\n      swap2\n      swap1\n      pop\n      jump\t// out\n        /* \"#utility.yul\":466:562   */\n    tag_173:\n        /* \"#utility.yul\":503:510   */\n      0x00\n        /* \"#utility.yul\":532:556   */\n      tag_209\n        /* \"#utility.yul\":550:555   */\n      dup3\n        /* \"#utility.yul\":532:556   */\n      tag_172\n      jump\t// in\n    tag_209:\n        /* \"#utility.yul\":521:556   */\n      swap1\n      pop\n        /* \"#utility.yul\":466:562   */\n      swap2\n      swap1\n      pop\n      jump\t// out\n        /* \"#utility.yul\":568:690   */\n    tag_174:\n        /* \"#utility.yul\":641:665   */\n      tag_211\n        /* \"#utility.yul\":659:664   */\n      dup2\n        /* \"#utility.yul\":641:665   */\n      tag_173\n      jump\t// in\n    tag_211:\n        /* \"#utility.yul\":634:639   */\n      dup2\n        /* \"#utility.yul\":631:666   */\n      eq\n        /* \"#utility.yul\":621:684   */\n      tag_212\n      jumpi\n        /* \"#utility.yul\":680:681   */\n      0x00\n        /* \"#utility.yul\":677:678   */\n      dup1\n        /* \"#utility.yul\":670:682   */\n      revert\n        /* \"#utility.yul\":621:684   */\n    tag_212:\n        /* \"#utility.yul\":568:690   */\n      pop\n      jump\t// out\n        /* \"#utility.yul\":696:835   */\n    tag_175:\n        /* \"#utility.yul\":742:747   */\n      0x00\n        /* \"#utility.yul\":780:786   */\n      dup2\n        /* \"#utility.yul\":767:787   */\n      calldataload\n        /* \"#utility.yul\":758:787   */\n      swap1\n      pop\n        /* \"#utility.yul\":796:829   */\n      tag_214\n        /* \"#utility.yul\":823:828   */\n      dup2\n        /* \"#utility.yul\":796:829   */\n      tag_174\n      jump\t// in\n    tag_214:\n        /* \"#utility.yul\":696:835   */\n      swap3\n      swap2\n      pop\n      pop\n      jump\t// out\n        /* \"#utility.yul\":841:1170   */\n    tag_28:\n        /* \"#utility.yul\":900:906   */\n      0x00\n        /* \"#utility.yul\":949:951   */\n      0x20\n        /* \"#utility.yul\":937:946   */\n      dup3\n        /* \"#utility.yul\":928:935   */\n      dup5\n        /* \"#utility.yul\":924:947   */\n      sub\n        /* \"#utility.yul\":920:952   */\n      slt\n        /* \"#utility.yul\":917:1036   */\n      iszero\n      tag_216\n      jumpi\n        /* \"#utility.yul\":955:1034   */\n      tag_217\n      tag_170\n      jump\t// in\n    tag_217:\n        /* \"#utility.yul\":917:1036   */\n    tag_216:\n        /* \"#utility.yul\":1075:1076   */\n      0x00\n        /* \"#utility.yul\":1100:1153   */\n      tag_218\n        /* \"#utility.yul\":1145:1152   */\n      dup5\n        /* \"#utility.yul\":1136:1142   */\n      dup3\n        /* \"#utility.yul\":1125:1134   */\n      dup6\n        /* \"#utility.yul\":1121:1143   */\n      add\n        /* \"#utility.yul\":1100:1153   */\n      tag_175\n      jump\t// in\n    tag_218:\n        /* \"#utility.yul\":1090:1153   */\n      swap2\n      pop\n        /* \"#utility.yul\":1046:1163   */\n      pop\n        /* \"#utility.yul\":841:1170   */\n      swap3\n      swap2\n      pop\n      pop\n      jump\t// out\n        /* \"#utility.yul\":1176:1294   */\n    tag_176:\n        /* \"#utility.yul\":1263:1287   */\n      tag_220\n        /* \"#utility.yul\":1281:1286   */\n      dup2\n        /* \"#utility.yul\":1263:1287   */\n      tag_173\n      jump\t// in\n    tag_220:\n        /* \"#utility.yul\":1258:1261   */\n      dup3\n        /* \"#utility.yul\":1251:1288   */\n      mstore\n        /* \"#utility.yul\":1176:1294   */\n      pop\n      pop\n      jump\t// out\n        /* \"#utility.yul\":1300:1522   */\n    tag_36:\n        /* \"#utility.yul\":1393:1397   */\n      0x00\n        /* \"#utility.yul\":1431:1433   */\n      0x20\n        /* \"#utility.yul\":1420:1429   */\n      dup3\n        /* \"#utility.yul\":1416:1434   */\n      add\n        /* \"#utility.yul\":1408:1434   */\n      swap1\n      pop\n        /* \"#utility.yul\":1444:1515   */\n      tag_222\n        /* \"#utility.yul\":1512:1513   */\n      0x00\n        /* \"#utility.yul\":1501:1510   */\n      dup4\n        /* \"#utility.yul\":1497:1514   */\n      add\n        /* \"#utility.yul\":1488:1494   */\n      dup5\n        /* \"#utility.yul\":1444:1515   */\n      tag_176\n      jump\t// in\n    tag_222:\n        /* \"#utility.yul\":1300:1522   */\n      swap3\n      swap2\n      pop\n      pop\n      jump\t// out\n        /* \"#utility.yul\":1528:1605   */\n    tag_177:\n        /* \"#utility.yul\":1565:1572   */\n      0x00\n        /* \"#utility.yul\":1594:1599   */\n      dup2\n        /* \"#utility.yul\":1583:1599   */\n      swap1\n      pop\n        /* \"#utility.yul\":1528:1605   */\n      swap2\n      swap1\n      pop\n      jump\t// out\n        /* \"#utility.yul\":1611:1729   */\n    tag_178:\n        /* \"#utility.yul\":1698:1722   */\n      tag_225\n        /* \"#utility.yul\":1716:1721   */\n      dup2\n        /* \"#utility.yul\":1698:1722   */\n      tag_177\n      jump\t// in\n    tag_225:\n        /* \"#utility.yul\":1693:1696   */\n      dup3\n        /* \"#utility.yul\":1686:1723   */\n      mstore\n        /* \"#utility.yul\":1611:1729   */\n      pop\n      pop\n      jump\t// out\n        /* \"#utility.yul\":1735:1957   */\n    tag_43:\n        /* \"#utility.yul\":1828:1832   */\n      0x00\n        /* \"#utility.yul\":1866:1868   */\n      0x20\n        /* \"#utility.yul\":1855:1864   */\n      dup3\n        /* \"#utility.yul\":1851:1869   */\n      add\n        /* \"#utility.yul\":1843:1869   */\n      swap1\n      pop\n        /* \"#utility.yul\":1879:1950   */\n      tag_227\n        /* \"#utility.yul\":1947:1948   */\n      0x00\n        /* \"#utility.yul\":1936:1945   */\n      dup4\n        /* \"#utility.yul\":1932:1949   */\n      add\n        /* \"#utility.yul\":1923:1929   */\n      dup5\n        /* \"#utility.yul\":1879:1950   */\n      tag_178\n      jump\t// in\n    tag_227:\n        /* \"#utility.yul\":1735:1957   */\n      swap3\n      swap2\n      pop\n      pop\n      jump\t// out\n        /* \"#utility.yul\":1963:2053   */\n    tag_179:\n        /* \"#utility.yul\":1997:2004   */\n      0x00\n        /* \"#utility.yul\":2040:2045   */\n      dup2\n        /* \"#utility.yul\":2033:2046   */\n      iszero\n        /* \"#utility.yul\":2026:2047   */\n      iszero\n        /* \"#utility.yul\":2015:2047   */\n      swap1\n      pop\n        /* \"#utility.yul\":1963:2053   */\n      swap2\n      swap1\n      pop\n      jump\t// out\n        /* \"#utility.yul\":2059:2158   */\n    tag_180:\n        /* \"#utility.yul\":2130:2151   */\n      tag_230\n        /* \"#utility.yul\":2145:2150   */\n      dup2\n        /* \"#utility.yul\":2130:2151   */\n      tag_179\n      jump\t// in\n    tag_230:\n        /* \"#utility.yul\":2125:2128   */\n      dup3\n        /* \"#utility.yul\":2118:2152   */\n      mstore\n        /* \"#utility.yul\":2059:2158   */\n      pop\n      pop\n      jump\t// out\n        /* \"#utility.yul\":2220:2900   */\n    tag_181:\n        /* \"#utility.yul\":2369:2373   */\n      0x60\n        /* \"#utility.yul\":2364:2367   */\n      dup3\n        /* \"#utility.yul\":2360:2374   */\n      add\n        /* \"#utility.yul\":2462:2466   */\n      0x00\n        /* \"#utility.yul\":2455:2460   */\n      dup3\n        /* \"#utility.yul\":2451:2467   */\n      add\n        /* \"#utility.yul\":2445:2468   */\n      mload\n        /* \"#utility.yul\":2481:2538   */\n      tag_232\n        /* \"#utility.yul\":2532:2536   */\n      0x00\n        /* \"#utility.yul\":2527:2530   */\n      dup6\n        /* \"#utility.yul\":2523:2537   */\n      add\n        /* \"#utility.yul\":2509:2521   */\n      dup3\n        /* \"#utility.yul\":2481:2538   */\n      tag_180\n      jump\t// in\n    tag_232:\n        /* \"#utility.yul\":2384:2548   */\n      pop\n        /* \"#utility.yul\":2637:2641   */\n      0x20\n        /* \"#utility.yul\":2630:2635   */\n      dup3\n        /* \"#utility.yul\":2626:2642   */\n      add\n        /* \"#utility.yul\":2620:2643   */\n      mload\n        /* \"#utility.yul\":2656:2713   */\n      tag_233\n        /* \"#utility.yul\":2707:2711   */\n      0x20\n        /* \"#utility.yul\":2702:2705   */\n      dup6\n        /* \"#utility.yul\":2698:2712   */\n      add\n        /* \"#utility.yul\":2684:2696   */\n      dup3\n        /* \"#utility.yul\":2656:2713   */\n      tag_180\n      jump\t// in\n    tag_233:\n        /* \"#utility.yul\":2558:2723   */\n      pop\n        /* \"#utility.yul\":2807:2811   */\n      0x40\n        /* \"#utility.yul\":2800:2805   */\n      dup3\n        /* \"#utility.yul\":2796:2812   */\n      add\n        /* \"#utility.yul\":2790:2813   */\n      mload\n        /* \"#utility.yul\":2826:2883   */\n      tag_234\n        /* \"#utility.yul\":2877:2881   */\n      0x40\n        /* \"#utility.yul\":2872:2875   */\n      dup6\n        /* \"#utility.yul\":2868:2882   */\n      add\n        /* \"#utility.yul\":2854:2866   */\n      dup3\n        /* \"#utility.yul\":2826:2883   */\n      tag_180\n      jump\t// in\n    tag_234:\n        /* \"#utility.yul\":2733:2893   */\n      pop\n        /* \"#utility.yul\":2338:2900   */\n      pop\n        /* \"#utility.yul\":2220:2900   */\n      pop\n      pop\n      jump\t// out\n        /* \"#utility.yul\":2906:3232   */\n    tag_50:\n        /* \"#utility.yul\":3051:3055   */\n      0x00\n        /* \"#utility.yul\":3089:3091   */\n      0x60\n        /* \"#utility.yul\":3078:3087   */\n      dup3\n        /* \"#utility.yul\":3074:3092   */\n      add\n        /* \"#utility.yul\":3066:3092   */\n      swap1\n      pop\n        /* \"#utility.yul\":3102:3225   */\n      tag_236\n        /* \"#utility.yul\":3222:3223   */\n      0x00\n        /* \"#utility.yul\":3211:3220   */\n      dup4\n        /* \"#utility.yul\":3207:3224   */\n      add\n        /* \"#utility.yul\":3198:3204   */\n      dup5\n        /* \"#utility.yul\":3102:3225   */\n      tag_181\n      jump\t// in\n    tag_236:\n        /* \"#utility.yul\":2906:3232   */\n      swap3\n      swap2\n      pop\n      pop\n      jump\t// out\n        /* \"#utility.yul\":3238:3347   */\n    tag_182:\n        /* \"#utility.yul\":3319:3340   */\n      tag_238\n        /* \"#utility.yul\":3334:3339   */\n      dup2\n        /* \"#utility.yul\":3319:3340   */\n      tag_179\n      jump\t// in\n    tag_238:\n        /* \"#utility.yul\":3314:3317   */\n      dup3\n        /* \"#utility.yul\":3307:3341   */\n      mstore\n        /* \"#utility.yul\":3238:3347   */\n      pop\n      pop\n      jump\t// out\n        /* \"#utility.yul\":3353:3563   */\n    tag_65:\n        /* \"#utility.yul\":3440:3444   */\n      0x00\n        /* \"#utility.yul\":3478:3480   */\n      0x20\n        /* \"#utility.yul\":3467:3476   */\n      dup3\n        /* \"#utility.yul\":3463:3481   */\n      add\n        /* \"#utility.yul\":3455:3481   */\n      swap1\n      pop\n        /* \"#utility.yul\":3491:3556   */\n      tag_240\n        /* \"#utility.yul\":3553:3554   */\n      0x00\n        /* \"#utility.yul\":3542:3551   */\n      dup4\n        /* \"#utility.yul\":3538:3555   */\n      add\n        /* \"#utility.yul\":3529:3535   */\n      dup5\n        /* \"#utility.yul\":3491:3556   */\n      tag_182\n      jump\t// in\n    tag_240:\n        /* \"#utility.yul\":3353:3563   */\n      swap3\n      swap2\n      pop\n      pop\n      jump\t// out\n        /* \"#utility.yul\":3569:3629   */\n    tag_183:\n        /* \"#utility.yul\":3597:3600   */\n      0x00\n        /* \"#utility.yul\":3618:3623   */\n      dup2\n        /* \"#utility.yul\":3611:3623   */\n      swap1\n      pop\n        /* \"#utility.yul\":3569:3629   */\n      swap2\n      swap1\n      pop\n      jump\t// out\n        /* \"#utility.yul\":3635:3777   */\n    tag_184:\n        /* \"#utility.yul\":3685:3694   */\n      0x00\n        /* \"#utility.yul\":3718:3771   */\n      tag_243\n        /* \"#utility.yul\":3736:3770   */\n      tag_244\n        /* \"#utility.yul\":3745:3769   */\n      tag_245\n        /* \"#utility.yul\":3763:3768   */\n      dup5\n        /* \"#utility.yul\":3745:3769   */\n      tag_172\n      jump\t// in\n    tag_245:\n        /* \"#utility.yul\":3736:3770   */\n      tag_183\n      jump\t// in\n    tag_244:\n        /* \"#utility.yul\":3718:3771   */\n      tag_172\n      jump\t// in\n    tag_243:\n        /* \"#utility.yul\":3705:3771   */\n      swap1\n      pop\n        /* \"#utility.yul\":3635:3777   */\n      swap2\n      swap1\n      pop\n      jump\t// out\n        /* \"#utility.yul\":3783:3909   */\n    tag_185:\n        /* \"#utility.yul\":3833:3842   */\n      0x00\n        /* \"#utility.yul\":3866:3903   */\n      tag_247\n        /* \"#utility.yul\":3897:3902   */\n      dup3\n        /* \"#utility.yul\":3866:3903   */\n      tag_184\n      jump\t// in\n    tag_247:\n        /* \"#utility.yul\":3853:3903   */\n      swap1\n      pop\n        /* \"#utility.yul\":3783:3909   */\n      swap2\n      swap1\n      pop\n      jump\t// out\n        /* \"#utility.yul\":3915:4061   */\n    tag_186:\n        /* \"#utility.yul\":3985:3994   */\n      0x00\n        /* \"#utility.yul\":4018:4055   */\n      tag_249\n        /* \"#utility.yul\":4049:4054   */\n      dup3\n        /* \"#utility.yul\":4018:4055   */\n      tag_185\n      jump\t// in\n    tag_249:\n        /* \"#utility.yul\":4005:4055   */\n      swap1\n      pop\n        /* \"#utility.yul\":3915:4061   */\n      swap2\n      swap1\n      pop\n      jump\t// out\n        /* \"#utility.yul\":4067:4238   */\n    tag_187:\n        /* \"#utility.yul\":4174:4231   */\n      tag_251\n        /* \"#utility.yul\":4225:4230   */\n      dup2\n        /* \"#utility.yul\":4174:4231   */\n      tag_186\n      jump\t// in\n    tag_251:\n        /* \"#utility.yul\":4169:4172   */\n      dup3\n        /* \"#utility.yul\":4162:4232   */\n      mstore\n        /* \"#utility.yul\":4067:4238   */\n      pop\n      pop\n      jump\t// out\n        /* \"#utility.yul\":4244:4506   */\n    tag_92:\n        /* \"#utility.yul\":4357:4361   */\n      0x00\n        /* \"#utility.yul\":4395:4397   */\n      0x20\n        /* \"#utility.yul\":4384:4393   */\n      dup3\n        /* \"#utility.yul\":4380:4398   */\n      add\n        /* \"#utility.yul\":4372:4398   */\n      swap1\n      pop\n        /* \"#utility.yul\":4408:4499   */\n      tag_253\n        /* \"#utility.yul\":4496:4497   */\n      0x00\n        /* \"#utility.yul\":4485:4494   */\n      dup4\n        /* \"#utility.yul\":4481:4498   */\n      add\n        /* \"#utility.yul\":4472:4478   */\n      dup5\n        /* \"#utility.yul\":4408:4499   */\n      tag_187\n      jump\t// in\n    tag_253:\n        /* \"#utility.yul\":4244:4506   */\n      swap3\n      swap2\n      pop\n      pop\n      jump\t// out\n        /* \"#utility.yul\":4512:4681   */\n    tag_188:\n        /* \"#utility.yul\":4596:4607   */\n      0x00\n        /* \"#utility.yul\":4630:4636   */\n      dup3\n        /* \"#utility.yul\":4625:4628   */\n      dup3\n        /* \"#utility.yul\":4618:4637   */\n      mstore\n        /* \"#utility.yul\":4670:4674   */\n      0x20\n        /* \"#utility.yul\":4665:4668   */\n      dup3\n        /* \"#utility.yul\":4661:4675   */\n      add\n        /* \"#utility.yul\":4646:4675   */\n      swap1\n      pop\n        /* \"#utility.yul\":4512:4681   */\n      swap3\n      swap2\n      pop\n      pop\n      jump\t// out\n        /* \"#utility.yul\":4687:4858   */\n    tag_189:\n        /* \"#utility.yul\":4827:4850   */\n      0x616c7265616479206461696c7920636865636b65640000000000000000000000\n        /* \"#utility.yul\":4823:4824   */\n      0x00\n        /* \"#utility.yul\":4815:4821   */\n      dup3\n        /* \"#utility.yul\":4811:4825   */\n      add\n        /* \"#utility.yul\":4804:4851   */\n      mstore\n        /* \"#utility.yul\":4687:4858   */\n      pop\n      jump\t// out\n        /* \"#utility.yul\":4864:5230   */\n    tag_190:\n        /* \"#utility.yul\":5006:5009   */\n      0x00\n        /* \"#utility.yul\":5027:5094   */\n      tag_257\n        /* \"#utility.yul\":5091:5093   */\n      0x15\n        /* \"#utility.yul\":5086:5089   */\n      dup4\n        /* \"#utility.yul\":5027:5094   */\n      tag_188\n      jump\t// in\n    tag_257:\n        /* \"#utility.yul\":5020:5094   */\n      swap2\n      pop\n        /* \"#utility.yul\":5103:5196   */\n      tag_258\n        /* \"#utility.yul\":5192:5195   */\n      dup3\n        /* \"#utility.yul\":5103:5196   */\n      tag_189\n      jump\t// in\n    tag_258:\n        /* \"#utility.yul\":5221:5223   */\n      0x20\n        /* \"#utility.yul\":5216:5219   */\n      dup3\n        /* \"#utility.yul\":5212:5224   */\n      add\n        /* \"#utility.yul\":5205:5224   */\n      swap1\n      pop\n        /* \"#utility.yul\":4864:5230   */\n      swap2\n      swap1\n      pop\n      jump\t// out\n        /* \"#utility.yul\":5236:5655   */\n    tag_115:\n        /* \"#utility.yul\":5402:5406   */\n      0x00\n        /* \"#utility.yul\":5440:5442   */\n      0x20\n        /* \"#utility.yul\":5429:5438   */\n      dup3\n        /* \"#utility.yul\":5425:5443   */\n      add\n        /* \"#utility.yul\":5417:5443   */\n      swap1\n      pop\n        /* \"#utility.yul\":5489:5498   */\n      dup2\n        /* \"#utility.yul\":5483:5487   */\n      dup2\n        /* \"#utility.yul\":5479:5499   */\n      sub\n        /* \"#utility.yul\":5475:5476   */\n      0x00\n        /* \"#utility.yul\":5464:5473   */\n      dup4\n        /* \"#utility.yul\":5460:5477   */\n      add\n        /* \"#utility.yul\":5453:5500   */\n      mstore\n        /* \"#utility.yul\":5517:5648   */\n      tag_260\n        /* \"#utility.yul\":5643:5647   */\n      dup2\n        /* \"#utility.yul\":5517:5648   */\n      tag_190\n      jump\t// in\n    tag_260:\n        /* \"#utility.yul\":5509:5648   */\n      swap1\n      pop\n        /* \"#utility.yul\":5236:5655   */\n      swap2\n      swap1\n      pop\n      jump\t// out\n        /* \"#utility.yul\":5661:5837   */\n    tag_191:\n        /* \"#utility.yul\":5801:5829   */\n      0x5175657374206973207374696c6c206f6e20636f6f6c646f776e000000000000\n        /* \"#utility.yul\":5797:5798   */\n      0x00\n        /* \"#utility.yul\":5789:5795   */\n      dup3\n        /* \"#utility.yul\":5785:5799   */\n      add\n        /* \"#utility.yul\":5778:5830   */\n      mstore\n        /* \"#utility.yul\":5661:5837   */\n      pop\n      jump\t// out\n        /* \"#utility.yul\":5843:6209   */\n    tag_192:\n        /* \"#utility.yul\":5985:5988   */\n      0x00\n        /* \"#utility.yul\":6006:6073   */\n      tag_263\n        /* \"#utility.yul\":6070:6072   */\n      0x1a\n        /* \"#utility.yul\":6065:6068   */\n      dup4\n        /* \"#utility.yul\":6006:6073   */\n      tag_188\n      jump\t// in\n    tag_263:\n        /* \"#utility.yul\":5999:6073   */\n      swap2\n      pop\n        /* \"#utility.yul\":6082:6175   */\n      tag_264\n        /* \"#utility.yul\":6171:6174   */\n      dup3\n        /* \"#utility.yul\":6082:6175   */\n      tag_191\n      jump\t// in\n    tag_264:\n        /* \"#utility.yul\":6200:6202   */\n      0x20\n        /* \"#utility.yul\":6195:6198   */\n      dup3\n        /* \"#utility.yul\":6191:6203   */\n      add\n        /* \"#utility.yul\":6184:6203   */\n      swap1\n      pop\n        /* \"#utility.yul\":5843:6209   */\n      swap2\n      swap1\n      pop\n      jump\t// out\n        /* \"#utility.yul\":6215:6634   */\n    tag_119:\n        /* \"#utility.yul\":6381:6385   */\n      0x00\n        /* \"#utility.yul\":6419:6421   */\n      0x20\n        /* \"#utility.yul\":6408:6417   */\n      dup3\n        /* \"#utility.yul\":6404:6422   */\n      add\n        /* \"#utility.yul\":6396:6422   */\n      swap1\n      pop\n        /* \"#utility.yul\":6468:6477   */\n      dup2\n        /* \"#utility.yul\":6462:6466   */\n      dup2\n        /* \"#utility.yul\":6458:6478   */\n      sub\n        /* \"#utility.yul\":6454:6455   */\n      0x00\n        /* \"#utility.yul\":6443:6452   */\n      dup4\n        /* \"#utility.yul\":6439:6456   */\n      add\n        /* \"#utility.yul\":6432:6479   */\n      mstore\n        /* \"#utility.yul\":6496:6627   */\n      tag_266\n        /* \"#utility.yul\":6622:6626   */\n      dup2\n        /* \"#utility.yul\":6496:6627   */\n      tag_192\n      jump\t// in\n    tag_266:\n        /* \"#utility.yul\":6488:6627   */\n      swap1\n      pop\n        /* \"#utility.yul\":6215:6634   */\n      swap2\n      swap1\n      pop\n      jump\t// out\n        /* \"#utility.yul\":6640:6820   */\n    tag_193:\n        /* \"#utility.yul\":6688:6765   */\n      0x4e487b7100000000000000000000000000000000000000000000000000000000\n        /* \"#utility.yul\":6685:6686   */\n      0x00\n        /* \"#utility.yul\":6678:6766   */\n      mstore\n        /* \"#utility.yul\":6785:6789   */\n      0x12\n        /* \"#utility.yul\":6782:6783   */\n      0x04\n        /* \"#utility.yul\":6775:6790   */\n      mstore\n        /* \"#utility.yul\":6809:6813   */\n      0x24\n        /* \"#utility.yul\":6806:6807   */\n      0x00\n        /* \"#utility.yul\":6799:6814   */\n      revert\n        /* \"#utility.yul\":7012:7197   */\n    tag_123:\n        /* \"#utility.yul\":7052:7053   */\n      0x00\n        /* \"#utility.yul\":7069:7089   */\n      tag_270\n        /* \"#utility.yul\":7087:7088   */\n      dup3\n        /* \"#utility.yul\":7069:7089   */\n      tag_177\n      jump\t// in\n    tag_270:\n        /* \"#utility.yul\":7064:7089   */\n      swap2\n      pop\n        /* \"#utility.yul\":7103:7123   */\n      tag_271\n        /* \"#utility.yul\":7121:7122   */\n      dup4\n        /* \"#utility.yul\":7103:7123   */\n      tag_177\n      jump\t// in\n    tag_271:\n        /* \"#utility.yul\":7098:7123   */\n      swap3\n      pop\n        /* \"#utility.yul\":7142:7143   */\n      dup3\n        /* \"#utility.yul\":7132:7167   */\n      tag_272\n      jumpi\n        /* \"#utility.yul\":7147:7165   */\n      tag_273\n      tag_193\n      jump\t// in\n    tag_273:\n        /* \"#utility.yul\":7132:7167   */\n    tag_272:\n        /* \"#utility.yul\":7189:7190   */\n      dup3\n        /* \"#utility.yul\":7186:7187   */\n      dup3\n        /* \"#utility.yul\":7182:7191   */\n      div\n        /* \"#utility.yul\":7177:7191   */\n      swap1\n      pop\n        /* \"#utility.yul\":7012:7197   */\n      swap3\n      swap2\n      pop\n      pop\n      jump\t// out\n        /* \"#utility.yul\":7203:7429   */\n    tag_195:\n        /* \"#utility.yul\":7343:7377   */\n      0x4f6e6c7920746865206578706c6f726520636f6e74726163742063616e206578\n        /* \"#utility.yul\":7339:7340   */\n      0x00\n        /* \"#utility.yul\":7331:7337   */\n      dup3\n        /* \"#utility.yul\":7327:7341   */\n      add\n        /* \"#utility.yul\":7320:7378   */\n      mstore\n        /* \"#utility.yul\":7412:7421   */\n      0x65637574696f6e00000000000000000000000000000000000000000000000000\n        /* \"#utility.yul\":7407:7409   */\n      0x20\n        /* \"#utility.yul\":7399:7405   */\n      dup3\n        /* \"#utility.yul\":7395:7410   */\n      add\n        /* \"#utility.yul\":7388:7422   */\n      mstore\n        /* \"#utility.yul\":7203:7429   */\n      pop\n      jump\t// out\n        /* \"#utility.yul\":7435:7801   */\n    tag_196:\n        /* \"#utility.yul\":7577:7580   */\n      0x00\n        /* \"#utility.yul\":7598:7665   */\n      tag_276\n        /* \"#utility.yul\":7662:7664   */\n      0x27\n        /* \"#utility.yul\":7657:7660   */\n      dup4\n        /* \"#utility.yul\":7598:7665   */\n      tag_188\n      jump\t// in\n    tag_276:\n        /* \"#utility.yul\":7591:7665   */\n      swap2\n      pop\n        /* \"#utility.yul\":7674:7767   */\n      tag_277\n        /* \"#utility.yul\":7763:7766   */\n      dup3\n        /* \"#utility.yul\":7674:7767   */\n      tag_195\n      jump\t// in\n    tag_277:\n        /* \"#utility.yul\":7792:7794   */\n      0x40\n        /* \"#utility.yul\":7787:7790   */\n      dup3\n        /* \"#utility.yul\":7783:7795   */\n      add\n        /* \"#utility.yul\":7776:7795   */\n      swap1\n      pop\n        /* \"#utility.yul\":7435:7801   */\n      swap2\n      swap1\n      pop\n      jump\t// out\n        /* \"#utility.yul\":7807:8226   */\n    tag_127:\n        /* \"#utility.yul\":7973:7977   */\n      0x00\n        /* \"#utility.yul\":8011:8013   */\n      0x20\n        /* \"#utility.yul\":8000:8009   */\n      dup3\n        /* \"#utility.yul\":7996:8014   */\n      add\n        /* \"#utility.yul\":7988:8014   */\n      swap1\n      pop\n        /* \"#utility.yul\":8060:8069   */\n      dup2\n        /* \"#utility.yul\":8054:8058   */\n      dup2\n        /* \"#utility.yul\":8050:8070   */\n      sub\n        /* \"#utility.yul\":8046:8047   */\n      0x00\n        /* \"#utility.yul\":8035:8044   */\n      dup4\n        /* \"#utility.yul\":8031:8048   */\n      add\n        /* \"#utility.yul\":8024:8071   */\n      mstore\n        /* \"#utility.yul\":8088:8219   */\n      tag_279\n        /* \"#utility.yul\":8214:8218   */\n      dup2\n        /* \"#utility.yul\":8088:8219   */\n      tag_196\n      jump\t// in\n    tag_279:\n        /* \"#utility.yul\":8080:8219   */\n      swap1\n      pop\n        /* \"#utility.yul\":7807:8226   */\n      swap2\n      swap1\n      pop\n      jump\t// out\n        /* \"#utility.yul\":8232:8453   */\n    tag_197:\n        /* \"#utility.yul\":8372:8406   */\n      0x4578706c6f7265207175657374206973207374696c6c206f6e20636f6f6c646f\n        /* \"#utility.yul\":8368:8369   */\n      0x00\n        /* \"#utility.yul\":8360:8366   */\n      dup3\n        /* \"#utility.yul\":8356:8370   */\n      add\n        /* \"#utility.yul\":8349:8407   */\n      mstore\n        /* \"#utility.yul\":8441:8445   */\n      0x776e000000000000000000000000000000000000000000000000000000000000\n        /* \"#utility.yul\":8436:8438   */\n      0x20\n        /* \"#utility.yul\":8428:8434   */\n      dup3\n        /* \"#utility.yul\":8424:8439   */\n      add\n        /* \"#utility.yul\":8417:8446   */\n      mstore\n        /* \"#utility.yul\":8232:8453   */\n      pop\n      jump\t// out\n        /* \"#utility.yul\":8459:8825   */\n    tag_198:\n        /* \"#utility.yul\":8601:8604   */\n      0x00\n        /* \"#utility.yul\":8622:8689   */\n      tag_282\n        /* \"#utility.yul\":8686:8688   */\n      0x22\n        /* \"#utility.yul\":8681:8684   */\n      dup4\n        /* \"#utility.yul\":8622:8689   */\n      tag_188\n      jump\t// in\n    tag_282:\n        /* \"#utility.yul\":8615:8689   */\n      swap2\n      pop\n        /* \"#utility.yul\":8698:8791   */\n      tag_283\n        /* \"#utility.yul\":8787:8790   */\n      dup3\n        /* \"#utility.yul\":8698:8791   */\n      tag_197\n      jump\t// in\n    tag_283:\n        /* \"#utility.yul\":8816:8818   */\n      0x40\n        /* \"#utility.yul\":8811:8814   */\n      dup3\n        /* \"#utility.yul\":8807:8819   */\n      add\n        /* \"#utility.yul\":8800:8819   */\n      swap1\n      pop\n        /* \"#utility.yul\":8459:8825   */\n      swap2\n      swap1\n      pop\n      jump\t// out\n        /* \"#utility.yul\":8831:9250   */\n    tag_131:\n        /* \"#utility.yul\":8997:9001   */\n      0x00\n        /* \"#utility.yul\":9035:9037   */\n      0x20\n        /* \"#utility.yul\":9024:9033   */\n      dup3\n        /* \"#utility.yul\":9020:9038   */\n      add\n        /* \"#utility.yul\":9012:9038   */\n      swap1\n      pop\n        /* \"#utility.yul\":9084:9093   */\n      dup2\n        /* \"#utility.yul\":9078:9082   */\n      dup2\n        /* \"#utility.yul\":9074:9094   */\n      sub\n        /* \"#utility.yul\":9070:9071   */\n      0x00\n        /* \"#utility.yul\":9059:9068   */\n      dup4\n        /* \"#utility.yul\":9055:9072   */\n      add\n        /* \"#utility.yul\":9048:9095   */\n      mstore\n        /* \"#utility.yul\":9112:9243   */\n      tag_285\n        /* \"#utility.yul\":9238:9242   */\n      dup2\n        /* \"#utility.yul\":9112:9243   */\n      tag_198\n      jump\t// in\n    tag_285:\n        /* \"#utility.yul\":9104:9243   */\n      swap1\n      pop\n        /* \"#utility.yul\":8831:9250   */\n      swap2\n      swap1\n      pop\n      jump\t// out\n        /* \"#utility.yul\":9256:9588   */\n    tag_134:\n        /* \"#utility.yul\":9377:9381   */\n      0x00\n        /* \"#utility.yul\":9415:9417   */\n      0x40\n        /* \"#utility.yul\":9404:9413   */\n      dup3\n        /* \"#utility.yul\":9400:9418   */\n      add\n        /* \"#utility.yul\":9392:9418   */\n      swap1\n      pop\n        /* \"#utility.yul\":9428:9499   */\n      tag_287\n        /* \"#utility.yul\":9496:9497   */\n      0x00\n        /* \"#utility.yul\":9485:9494   */\n      dup4\n        /* \"#utility.yul\":9481:9498   */\n      add\n        /* \"#utility.yul\":9472:9478   */\n      dup6\n        /* \"#utility.yul\":9428:9499   */\n      tag_176\n      jump\t// in\n    tag_287:\n        /* \"#utility.yul\":9509:9581   */\n      tag_288\n        /* \"#utility.yul\":9577:9579   */\n      0x20\n        /* \"#utility.yul\":9566:9575   */\n      dup4\n        /* \"#utility.yul\":9562:9580   */\n      add\n        /* \"#utility.yul\":9553:9559   */\n      dup5\n        /* \"#utility.yul\":9509:9581   */\n      tag_178\n      jump\t// in\n    tag_288:\n        /* \"#utility.yul\":9256:9588   */\n      swap4\n      swap3\n      pop\n      pop\n      pop\n      jump\t// out\n        /* \"#utility.yul\":9594:9819   */\n    tag_199:\n        /* \"#utility.yul\":9734:9768   */\n      0x4f6e6c792074686520626174746c6520636f6e74726163742063616e20657865\n        /* \"#utility.yul\":9730:9731   */\n      0x00\n        /* \"#utility.yul\":9722:9728   */\n      dup3\n        /* \"#utility.yul\":9718:9732   */\n      add\n        /* \"#utility.yul\":9711:9769   */\n      mstore\n        /* \"#utility.yul\":9803:9811   */\n      0x637574696f6e0000000000000000000000000000000000000000000000000000\n        /* \"#utility.yul\":9798:9800   */\n      0x20\n        /* \"#utility.yul\":9790:9796   */\n      dup3\n        /* \"#utility.yul\":9786:9801   */\n      add\n        /* \"#utility.yul\":9779:9812   */\n      mstore\n        /* \"#utility.yul\":9594:9819   */\n      pop\n      jump\t// out\n        /* \"#utility.yul\":9825:10191   */\n    tag_200:\n        /* \"#utility.yul\":9967:9970   */\n      0x00\n        /* \"#utility.yul\":9988:10055   */\n      tag_291\n        /* \"#utility.yul\":10052:10054   */\n      0x26\n        /* \"#utility.yul\":10047:10050   */\n      dup4\n        /* \"#utility.yul\":9988:10055   */\n      tag_188\n      jump\t// in\n    tag_291:\n        /* \"#utility.yul\":9981:10055   */\n      swap2\n      pop\n        /* \"#utility.yul\":10064:10157   */\n      tag_292\n        /* \"#utility.yul\":10153:10156   */\n      dup3\n        /* \"#utility.yul\":10064:10157   */\n      tag_199\n      jump\t// in\n    tag_292:\n        /* \"#utility.yul\":10182:10184   */\n      0x40\n        /* \"#utility.yul\":10177:10180   */\n      dup3\n        /* \"#utility.yul\":10173:10185   */\n      add\n        /* \"#utility.yul\":10166:10185   */\n      swap1\n      pop\n        /* \"#utility.yul\":9825:10191   */\n      swap2\n      swap1\n      pop\n      jump\t// out\n        /* \"#utility.yul\":10197:10616   */\n    tag_141:\n        /* \"#utility.yul\":10363:10367   */\n      0x00\n        /* \"#utility.yul\":10401:10403   */\n      0x20\n        /* \"#utility.yul\":10390:10399   */\n      dup3\n        /* \"#utility.yul\":10386:10404   */\n      add\n        /* \"#utility.yul\":10378:10404   */\n      swap1\n      pop\n        /* \"#utility.yul\":10450:10459   */\n      dup2\n        /* \"#utility.yul\":10444:10448   */\n      dup2\n        /* \"#utility.yul\":10440:10460   */\n      sub\n        /* \"#utility.yul\":10436:10437   */\n      0x00\n        /* \"#utility.yul\":10425:10434   */\n      dup4\n        /* \"#utility.yul\":10421:10438   */\n      add\n        /* \"#utility.yul\":10414:10461   */\n      mstore\n        /* \"#utility.yul\":10478:10609   */\n      tag_294\n        /* \"#utility.yul\":10604:10608   */\n      dup2\n        /* \"#utility.yul\":10478:10609   */\n      tag_200\n      jump\t// in\n    tag_294:\n        /* \"#utility.yul\":10470:10609   */\n      swap1\n      pop\n        /* \"#utility.yul\":10197:10616   */\n      swap2\n      swap1\n      pop\n      jump\t// out\n        /* \"#utility.yul\":10622:10842   */\n    tag_201:\n        /* \"#utility.yul\":10762:10796   */\n      0x426174746c65207175657374206973207374696c6c206f6e20636f6f6c646f77\n        /* \"#utility.yul\":10758:10759   */\n      0x00\n        /* \"#utility.yul\":10750:10756   */\n      dup3\n        /* \"#utility.yul\":10746:10760   */\n      add\n        /* \"#utility.yul\":10739:10797   */\n      mstore\n        /* \"#utility.yul\":10831:10834   */\n      0x6e00000000000000000000000000000000000000000000000000000000000000\n        /* \"#utility.yul\":10826:10828   */\n      0x20\n        /* \"#utility.yul\":10818:10824   */\n      dup3\n        /* \"#utility.yul\":10814:10829   */\n      add\n        /* \"#utility.yul\":10807:10835   */\n      mstore\n        /* \"#utility.yul\":10622:10842   */\n      pop\n      jump\t// out\n        /* \"#utility.yul\":10848:11214   */\n    tag_202:\n        /* \"#utility.yul\":10990:10993   */\n      0x00\n        /* \"#utility.yul\":11011:11078   */\n      tag_297\n        /* \"#utility.yul\":11075:11077   */\n      0x21\n        /* \"#utility.yul\":11070:11073   */\n      dup4\n        /* \"#utility.yul\":11011:11078   */\n      tag_188\n      jump\t// in\n    tag_297:\n        /* \"#utility.yul\":11004:11078   */\n      swap2\n      pop\n        /* \"#utility.yul\":11087:11180   */\n      tag_298\n        /* \"#utility.yul\":11176:11179   */\n      dup3\n        /* \"#utility.yul\":11087:11180   */\n      tag_201\n      jump\t// in\n    tag_298:\n        /* \"#utility.yul\":11205:11207   */\n      0x40\n        /* \"#utility.yul\":11200:11203   */\n      dup3\n        /* \"#utility.yul\":11196:11208   */\n      add\n        /* \"#utility.yul\":11189:11208   */\n      swap1\n      pop\n        /* \"#utility.yul\":10848:11214   */\n      swap2\n      swap1\n      pop\n      jump\t// out\n        /* \"#utility.yul\":11220:11639   */\n    tag_145:\n        /* \"#utility.yul\":11386:11390   */\n      0x00\n        /* \"#utility.yul\":11424:11426   */\n      0x20\n        /* \"#utility.yul\":11413:11422   */\n      dup3\n        /* \"#utility.yul\":11409:11427   */\n      add\n        /* \"#utility.yul\":11401:11427   */\n      swap1\n      pop\n        /* \"#utility.yul\":11473:11482   */\n      dup2\n        /* \"#utility.yul\":11467:11471   */\n      dup2\n        /* \"#utility.yul\":11463:11483   */\n      sub\n        /* \"#utility.yul\":11459:11460   */\n      0x00\n        /* \"#utility.yul\":11448:11457   */\n      dup4\n        /* \"#utility.yul\":11444:11461   */\n      add\n        /* \"#utility.yul\":11437:11484   */\n      mstore\n        /* \"#utility.yul\":11501:11632   */\n      tag_300\n        /* \"#utility.yul\":11627:11631   */\n      dup2\n        /* \"#utility.yul\":11501:11632   */\n      tag_202\n      jump\t// in\n    tag_300:\n        /* \"#utility.yul\":11493:11632   */\n      swap1\n      pop\n        /* \"#utility.yul\":11220:11639   */\n      swap2\n      swap1\n      pop\n      jump\t// out\n\n    auxdata: 0xa2646970667358221220d1da7bde214b88521542fe8d6c23afb55d5a933963c1bbccc7e49f744d9a686f64736f6c634300081a0033\n}\n",
				"bytecode": {
					"linkReferences": {},
					"object": "608060405260646009556064600a55348015610019575f80fd5b50604051611709380380611709833981810160405281019061003b9190610222565b815f73ffffffffffffffffffffffffffffffffffffffff168173ffffffffffffffffffffffffffffffffffffffff16036100ac575f6040517f1e4fbdf70000000000000000000000000000000000000000000000000000000081526004016100a3919061026f565b60405180910390fd5b6100bb8161010360201b60201c565b508060015f6101000a81548173ffffffffffffffffffffffffffffffffffffffff021916908373ffffffffffffffffffffffffffffffffffffffff1602179055505050610288565b5f805f9054906101000a900473ffffffffffffffffffffffffffffffffffffffff169050815f806101000a81548173ffffffffffffffffffffffffffffffffffffffff021916908373ffffffffffffffffffffffffffffffffffffffff1602179055508173ffffffffffffffffffffffffffffffffffffffff168173ffffffffffffffffffffffffffffffffffffffff167f8be0079c531659141344cd1fd0a4f28419497f9722a3daafe3b4186f6b6457e060405160405180910390a35050565b5f80fd5b5f73ffffffffffffffffffffffffffffffffffffffff82169050919050565b5f6101f1826101c8565b9050919050565b610201816101e7565b811461020b575f80fd5b50565b5f8151905061021c816101f8565b92915050565b5f8060408385031215610238576102376101c4565b5b5f6102458582860161020e565b92505060206102568582860161020e565b9150509250929050565b610269816101e7565b82525050565b5f6020820190506102825f830184610260565b92915050565b611474806102955f395ff3fe608060405234801561000f575f80fd5b506004361061012a575f3560e01c8063a5fd9381116100ab578063e4b1a19a1161006f578063e4b1a19a1461031c578063e4b8c4d41461034c578063f2fde38b14610368578063fbc1274d14610384578063fe5a45d0146103a25761012a565b8063a5fd938114610266578063b74e452b14610296578063bc6c22c6146102b4578063c1b6a1e8146102e4578063dec5d109146103005761012a565b8063715018a6116100f2578063715018a6146101c057806386c8a86f146101ca5780638d5b11ab146101fa5780638da5cb5b1461022a5780639e84477d146102485761012a565b80630db6dff71461012e578063210984611461014a578063423b1ca31461016657806355ccbff71461018457806357e2a625146101a2575b5f80fd5b61014860048036038101906101439190610f0f565b6103c0565b005b610164600480360381019061015f9190610f0f565b61040b565b005b61016e610456565b60405161017b9190610f49565b60405180910390f35b61018c61047b565b6040516101999190610f49565b60405180910390f35b6101aa6104a0565b6040516101b79190610f7a565b60405180910390f35b6101c86104a6565b005b6101e460048036038101906101df9190610f0f565b6104b9565b6040516101f19190610fed565b60405180910390f35b610214600480360381019061020f9190610f0f565b61055d565b6040516102219190610f7a565b60405180910390f35b610232610572565b60405161023f9190610f49565b60405180910390f35b610250610599565b60405161025d9190610f7a565b60405180910390f35b610280600480360381019061027b9190610f0f565b61059f565b60405161028d9190611015565b60405180910390f35b61029e61075e565b6040516102ab9190610f7a565b60405180910390f35b6102ce60048036038101906102c99190610f0f565b610773565b6040516102db9190610f7a565b60405180910390f35b6102fe60048036038101906102f99190610f0f565b610788565b005b61031a60048036038101906103159190610f0f565b6109cc565b005b61033660048036038101906103319190610f0f565b610c10565b6040516103439190610f7a565b60405180910390f35b61036660048036038101906103619190610f0f565b610c25565b005b610382600480360381019061037d9190610f0f565b610c70565b005b61038c610cf4565b6040516103999190611089565b60405180910390f35b6103aa610d19565b6040516103b79190610f49565b60405180910390f35b6103c8610d3e565b8060065f6101000a81548173ffffffffffffffffffffffffffffffffffffffff021916908373ffffffffffffffffffffffffffffffffffffffff16021790555050565b610413610d3e565b8060085f6101000a81548173ffffffffffffffffffffffffffffffffffffffff021916908373ffffffffffffffffffffffffffffffffffffffff16021790555050565b60065f9054906101000a900473ffffffffffffffffffffffffffffffffffffffff1681565b60075f9054906101000a900473ffffffffffffffffffffffffffffffffffffffff1681565b600a5481565b6104ae610d3e565b6104b75f610dc5565b565b6104c1610e8d565b60035f8373ffffffffffffffffffffffffffffffffffffffff1673ffffffffffffffffffffffffffffffffffffffff1681526020019081526020015f206040518060600160405290815f82015f9054906101000a900460ff161515151581526020015f820160019054906101000a900460ff161515151581526020015f820160029054906101000a900460ff1615151515815250509050919050565b6004602052805f5260405f205f915090505481565b5f805f9054906101000a900473ffffffffffffffffffffffffffffffffffffffff16905090565b60095481565b5f60085f9054906101000a900473ffffffffffffffffffffffffffffffffffffffff1673ffffffffffffffffffffffffffffffffffffffff163373ffffffffffffffffffffffffffffffffffffffff161461062f576040517f08c379a0000000000000000000000000000000000000000000000000000000008152600401610626906110fc565b60405180910390fd5b61063761075e565b60025f8473ffffffffffffffffffffffffffffffffffffffff1673ffffffffffffffffffffffffffffffffffffffff1681526020019081526020015f2054106106b5576040517f08c379a00000000000000000000000000000000000000000000000000000000081526004016106ac90611164565b60405180910390fd5b6106bd61075e565b60025f8473ffffffffffffffffffffffffffffffffffffffff1673ffffffffffffffffffffffffffffffffffffffff1681526020019081526020015f2081905550600160035f8473ffffffffffffffffffffffffffffffffffffffff1673ffffffffffffffffffffffffffffffffffffffff1681526020019081526020015f205f015f6101000a81548160ff02191690831515021790555060019050919050565b5f620151804261076e91906111af565b905090565b6002602052805f5260405f205f915090505481565b60075f9054906101000a900473ffffffffffffffffffffffffffffffffffffffff1673ffffffffffffffffffffffffffffffffffffffff163373ffffffffffffffffffffffffffffffffffffffff1614610817576040517f08c379a000000000000000000000000000000000000000000000000000000000815260040161080e9061124f565b60405180910390fd5b61081f61075e565b60055f8373ffffffffffffffffffffffffffffffffffffffff1673ffffffffffffffffffffffffffffffffffffffff1681526020019081526020015f20541061089d576040517f08c379a0000000000000000000000000000000000000000000000000000000008152600401610894906112dd565b60405180910390fd5b6108a561075e565b60055f8373ffffffffffffffffffffffffffffffffffffffff1673ffffffffffffffffffffffffffffffffffffffff1681526020019081526020015f2081905550600160035f8373ffffffffffffffffffffffffffffffffffffffff1673ffffffffffffffffffffffffffffffffffffffff1681526020019081526020015f205f0160016101000a81548160ff02191690831515021790555060015f9054906101000a900473ffffffffffffffffffffffffffffffffffffffff1673ffffffffffffffffffffffffffffffffffffffff166340c10f1982600a546040518363ffffffff1660e01b815260040161099c9291906112fb565b5f604051808303815f87803b1580156109b3575f80fd5b505af11580156109c5573d5f803e3d5ffd5b5050505050565b60065f9054906101000a900473ffffffffffffffffffffffffffffffffffffffff1673ffffffffffffffffffffffffffffffffffffffff163373ffffffffffffffffffffffffffffffffffffffff1614610a5b576040517f08c379a0000000000000000000000000000000000000000000000000000000008152600401610a5290611392565b60405180910390fd5b610a6361075e565b60045f8373ffffffffffffffffffffffffffffffffffffffff1673ffffffffffffffffffffffffffffffffffffffff1681526020019081526020015f205410610ae1576040517f08c379a0000000000000000000000000000000000000000000000000000000008152600401610ad890611420565b60405180910390fd5b610ae961075e565b60045f8373ffffffffffffffffffffffffffffffffffffffff1673ffffffffffffffffffffffffffffffffffffffff1681526020019081526020015f2081905550600160035f8373ffffffffffffffffffffffffffffffffffffffff1673ffffffffffffffffffffffffffffffffffffffff1681526020019081526020015f205f0160026101000a81548160ff02191690831515021790555060015f9054906101000a900473ffffffffffffffffffffffffffffffffffffffff1673ffffffffffffffffffffffffffffffffffffffff166340c10f19826009546040518363ffffffff1660e01b8152600401610be09291906112fb565b5f604051808303815f87803b158015610bf7575f80fd5b505af1158015610c09573d5f803e3d5ffd5b5050505050565b6005602052805f5260405f205f915090505481565b610c2d610d3e565b8060075f6101000a81548173ffffffffffffffffffffffffffffffffffffffff021916908373ffffffffffffffffffffffffffffffffffffffff16021790555050565b610c78610d3e565b5f73ffffffffffffffffffffffffffffffffffffffff168173ffffffffffffffffffffffffffffffffffffffff1603610ce8575f6040517f1e4fbdf7000000000000000000000000000000000000000000000000000000008152600401610cdf9190610f49565b60405180910390fd5b610cf181610dc5565b50565b60015f9054906101000a900473ffffffffffffffffffffffffffffffffffffffff1681565b60085f9054906101000a900473ffffffffffffffffffffffffffffffffffffffff1681565b610d46610e86565b73ffffffffffffffffffffffffffffffffffffffff16610d64610572565b73ffffffffffffffffffffffffffffffffffffffff1614610dc357610d87610e86565b6040517f118cdaa7000000000000000000000000000000000000000000000000000000008152600401610dba9190610f49565b60405180910390fd5b565b5f805f9054906101000a900473ffffffffffffffffffffffffffffffffffffffff169050815f806101000a81548173ffffffffffffffffffffffffffffffffffffffff021916908373ffffffffffffffffffffffffffffffffffffffff1602179055508173ffffffffffffffffffffffffffffffffffffffff168173ffffffffffffffffffffffffffffffffffffffff167f8be0079c531659141344cd1fd0a4f28419497f9722a3daafe3b4186f6b6457e060405160405180910390a35050565b5f33905090565b60405180606001604052805f151581526020015f151581526020015f151581525090565b5f80fd5b5f73ffffffffffffffffffffffffffffffffffffffff82169050919050565b5f610ede82610eb5565b9050919050565b610eee81610ed4565b8114610ef8575f80fd5b50565b5f81359050610f0981610ee5565b92915050565b5f60208284031215610f2457610f23610eb1565b5b5f610f3184828501610efb565b91505092915050565b610f4381610ed4565b82525050565b5f602082019050610f5c5f830184610f3a565b92915050565b5f819050919050565b610f7481610f62565b82525050565b5f602082019050610f8d5f830184610f6b565b92915050565b5f8115159050919050565b610fa781610f93565b82525050565b606082015f820151610fc15f850182610f9e565b506020820151610fd46020850182610f9e565b506040820151610fe76040850182610f9e565b50505050565b5f6060820190506110005f830184610fad565b92915050565b61100f81610f93565b82525050565b5f6020820190506110285f830184611006565b92915050565b5f819050919050565b5f61105161104c61104784610eb5565b61102e565b610eb5565b9050919050565b5f61106282611037565b9050919050565b5f61107382611058565b9050919050565b61108381611069565b82525050565b5f60208201905061109c5f83018461107a565b92915050565b5f82825260208201905092915050565b7f616c7265616479206461696c7920636865636b656400000000000000000000005f82015250565b5f6110e66015836110a2565b91506110f1826110b2565b602082019050919050565b5f6020820190508181035f830152611113816110da565b9050919050565b7f5175657374206973207374696c6c206f6e20636f6f6c646f776e0000000000005f82015250565b5f61114e601a836110a2565b91506111598261111a565b602082019050919050565b5f6020820190508181035f83015261117b81611142565b9050919050565b7f4e487b71000000000000000000000000000000000000000000000000000000005f52601260045260245ffd5b5f6111b982610f62565b91506111c483610f62565b9250826111d4576111d3611182565b5b828204905092915050565b7f4f6e6c7920746865206578706c6f726520636f6e74726163742063616e2065785f8201527f65637574696f6e00000000000000000000000000000000000000000000000000602082015250565b5f6112396027836110a2565b9150611244826111df565b604082019050919050565b5f6020820190508181035f8301526112668161122d565b9050919050565b7f4578706c6f7265207175657374206973207374696c6c206f6e20636f6f6c646f5f8201527f776e000000000000000000000000000000000000000000000000000000000000602082015250565b5f6112c76022836110a2565b91506112d28261126d565b604082019050919050565b5f6020820190508181035f8301526112f4816112bb565b9050919050565b5f60408201905061130e5f830185610f3a565b61131b6020830184610f6b565b9392505050565b7f4f6e6c792074686520626174746c6520636f6e74726163742063616e206578655f8201527f637574696f6e0000000000000000000000000000000000000000000000000000602082015250565b5f61137c6026836110a2565b915061138782611322565b604082019050919050565b5f6020820190508181035f8301526113a981611370565b9050919050565b7f426174746c65207175657374206973207374696c6c206f6e20636f6f6c646f775f8201527f6e00000000000000000000000000000000000000000000000000000000000000602082015250565b5f61140a6021836110a2565b9150611415826113b0565b604082019050919050565b5f6020820190508181035f830152611437816113fe565b905091905056fea2646970667358221220d1da7bde214b88521542fe8d6c23afb55d5a933963c1bbccc7e49f744d9a686f64736f6c634300081a0033",
					"opcodes": "PUSH1 0x80 PUSH1 0x40 MSTORE PUSH1 0x64 PUSH1 0x9 SSTORE PUSH1 0x64 PUSH1 0xA SSTORE CALLVALUE DUP1 ISZERO PUSH2 0x19 JUMPI PUSH0 DUP1 REVERT JUMPDEST POP PUSH1 0x40 MLOAD PUSH2 0x1709 CODESIZE SUB DUP1 PUSH2 0x1709 DUP4 CODECOPY DUP2 DUP2 ADD PUSH1 0x40 MSTORE DUP2 ADD SWAP1 PUSH2 0x3B SWAP2 SWAP1 PUSH2 0x222 JUMP JUMPDEST DUP2 PUSH0 PUSH20 0xFFFFFFFFFFFFFFFFFFFFFFFFFFFFFFFFFFFFFFFF AND DUP2 PUSH20 0xFFFFFFFFFFFFFFFFFFFFFFFFFFFFFFFFFFFFFFFF AND SUB PUSH2 0xAC JUMPI PUSH0 PUSH1 0x40 MLOAD PUSH32 0x1E4FBDF700000000000000000000000000000000000000000000000000000000 DUP2 MSTORE PUSH1 0x4 ADD PUSH2 0xA3 SWAP2 SWAP1 PUSH2 0x26F JUMP JUMPDEST PUSH1 0x40 MLOAD DUP1 SWAP2 SUB SWAP1 REVERT JUMPDEST PUSH2 0xBB DUP2 PUSH2 0x103 PUSH1 0x20 SHL PUSH1 0x20 SHR JUMP JUMPDEST POP DUP1 PUSH1 0x1 PUSH0 PUSH2 0x100 EXP DUP2 SLOAD DUP2 PUSH20 0xFFFFFFFFFFFFFFFFFFFFFFFFFFFFFFFFFFFFFFFF MUL NOT AND SWAP1 DUP4 PUSH20 0xFFFFFFFFFFFFFFFFFFFFFFFFFFFFFFFFFFFFFFFF AND MUL OR SWAP1 SSTORE POP POP POP PUSH2 0x288 JUMP JUMPDEST PUSH0 DUP1 PUSH0 SWAP1 SLOAD SWAP1 PUSH2 0x100 EXP SWAP1 DIV PUSH20 0xFFFFFFFFFFFFFFFFFFFFFFFFFFFFFFFFFFFFFFFF AND SWAP1 POP DUP2 PUSH0 DUP1 PUSH2 0x100 EXP DUP2 SLOAD DUP2 PUSH20 0xFFFFFFFFFFFFFFFFFFFFFFFFFFFFFFFFFFFFFFFF MUL NOT AND SWAP1 DUP4 PUSH20 0xFFFFFFFFFFFFFFFFFFFFFFFFFFFFFFFFFFFFFFFF AND MUL OR SWAP1 SSTORE POP DUP2 PUSH20 0xFFFFFFFFFFFFFFFFFFFFFFFFFFFFFFFFFFFFFFFF AND DUP2 PUSH20 0xFFFFFFFFFFFFFFFFFFFFFFFFFFFFFFFFFFFFFFFF AND PUSH32 0x8BE0079C531659141344CD1FD0A4F28419497F9722A3DAAFE3B4186F6B6457E0 PUSH1 0x40 MLOAD PUSH1 0x40 MLOAD DUP1 SWAP2 SUB SWAP1 LOG3 POP POP JUMP JUMPDEST PUSH0 DUP1 REVERT JUMPDEST PUSH0 PUSH20 0xFFFFFFFFFFFFFFFFFFFFFFFFFFFFFFFFFFFFFFFF DUP3 AND SWAP1 POP SWAP2 SWAP1 POP JUMP JUMPDEST PUSH0 PUSH2 0x1F1 DUP3 PUSH2 0x1C8 JUMP JUMPDEST SWAP1 POP SWAP2 SWAP1 POP JUMP JUMPDEST PUSH2 0x201 DUP2 PUSH2 0x1E7 JUMP JUMPDEST DUP2 EQ PUSH2 0x20B JUMPI PUSH0 DUP1 REVERT JUMPDEST POP JUMP JUMPDEST PUSH0 DUP2 MLOAD SWAP1 POP PUSH2 0x21C DUP2 PUSH2 0x1F8 JUMP JUMPDEST SWAP3 SWAP2 POP POP JUMP JUMPDEST PUSH0 DUP1 PUSH1 0x40 DUP4 DUP6 SUB SLT ISZERO PUSH2 0x238 JUMPI PUSH2 0x237 PUSH2 0x1C4 JUMP JUMPDEST JUMPDEST PUSH0 PUSH2 0x245 DUP6 DUP3 DUP7 ADD PUSH2 0x20E JUMP JUMPDEST SWAP3 POP POP PUSH1 0x20 PUSH2 0x256 DUP6 DUP3 DUP7 ADD PUSH2 0x20E JUMP JUMPDEST SWAP2 POP POP SWAP3 POP SWAP3 SWAP1 POP JUMP JUMPDEST PUSH2 0x269 DUP2 PUSH2 0x1E7 JUMP JUMPDEST DUP3 MSTORE POP POP JUMP JUMPDEST PUSH0 PUSH1 0x20 DUP3 ADD SWAP1 POP PUSH2 0x282 PUSH0 DUP4 ADD DUP5 PUSH2 0x260 JUMP JUMPDEST SWAP3 SWAP2 POP POP JUMP JUMPDEST PUSH2 0x1474 DUP1 PUSH2 0x295 PUSH0 CODECOPY PUSH0 RETURN INVALID PUSH1 0x80 PUSH1 0x40 MSTORE CALLVALUE DUP1 ISZERO PUSH2 0xF JUMPI PUSH0 DUP1 REVERT JUMPDEST POP PUSH1 0x4 CALLDATASIZE LT PUSH2 0x12A JUMPI PUSH0 CALLDATALOAD PUSH1 0xE0 SHR DUP1 PUSH4 0xA5FD9381 GT PUSH2 0xAB JUMPI DUP1 PUSH4 0xE4B1A19A GT PUSH2 0x6F JUMPI DUP1 PUSH4 0xE4B1A19A EQ PUSH2 0x31C JUMPI DUP1 PUSH4 0xE4B8C4D4 EQ PUSH2 0x34C JUMPI DUP1 PUSH4 0xF2FDE38B EQ PUSH2 0x368 JUMPI DUP1 PUSH4 0xFBC1274D EQ PUSH2 0x384 JUMPI DUP1 PUSH4 0xFE5A45D0 EQ PUSH2 0x3A2 JUMPI PUSH2 0x12A JUMP JUMPDEST DUP1 PUSH4 0xA5FD9381 EQ PUSH2 0x266 JUMPI DUP1 PUSH4 0xB74E452B EQ PUSH2 0x296 JUMPI DUP1 PUSH4 0xBC6C22C6 EQ PUSH2 0x2B4 JUMPI DUP1 PUSH4 0xC1B6A1E8 EQ PUSH2 0x2E4 JUMPI DUP1 PUSH4 0xDEC5D109 EQ PUSH2 0x300 JUMPI PUSH2 0x12A JUMP JUMPDEST DUP1 PUSH4 0x715018A6 GT PUSH2 0xF2 JUMPI DUP1 PUSH4 0x715018A6 EQ PUSH2 0x1C0 JUMPI DUP1 PUSH4 0x86C8A86F EQ PUSH2 0x1CA JUMPI DUP1 PUSH4 0x8D5B11AB EQ PUSH2 0x1FA JUMPI DUP1 PUSH4 0x8DA5CB5B EQ PUSH2 0x22A JUMPI DUP1 PUSH4 0x9E84477D EQ PUSH2 0x248 JUMPI PUSH2 0x12A JUMP JUMPDEST DUP1 PUSH4 0xDB6DFF7 EQ PUSH2 0x12E JUMPI DUP1 PUSH4 0x21098461 EQ PUSH2 0x14A JUMPI DUP1 PUSH4 0x423B1CA3 EQ PUSH2 0x166 JUMPI DUP1 PUSH4 0x55CCBFF7 EQ PUSH2 0x184 JUMPI DUP1 PUSH4 0x57E2A625 EQ PUSH2 0x1A2 JUMPI JUMPDEST PUSH0 DUP1 REVERT JUMPDEST PUSH2 0x148 PUSH1 0x4 DUP1 CALLDATASIZE SUB DUP2 ADD SWAP1 PUSH2 0x143 SWAP2 SWAP1 PUSH2 0xF0F JUMP JUMPDEST PUSH2 0x3C0 JUMP JUMPDEST STOP JUMPDEST PUSH2 0x164 PUSH1 0x4 DUP1 CALLDATASIZE SUB DUP2 ADD SWAP1 PUSH2 0x15F SWAP2 SWAP1 PUSH2 0xF0F JUMP JUMPDEST PUSH2 0x40B JUMP JUMPDEST STOP JUMPDEST PUSH2 0x16E PUSH2 0x456 JUMP JUMPDEST PUSH1 0x40 MLOAD PUSH2 0x17B SWAP2 SWAP1 PUSH2 0xF49 JUMP JUMPDEST PUSH1 0x40 MLOAD DUP1 SWAP2 SUB SWAP1 RETURN JUMPDEST PUSH2 0x18C PUSH2 0x47B JUMP JUMPDEST PUSH1 0x40 MLOAD PUSH2 0x199 SWAP2 SWAP1 PUSH2 0xF49 JUMP JUMPDEST PUSH1 0x40 MLOAD DUP1 SWAP2 SUB SWAP1 RETURN JUMPDEST PUSH2 0x1AA PUSH2 0x4A0 JUMP JUMPDEST PUSH1 0x40 MLOAD PUSH2 0x1B7 SWAP2 SWAP1 PUSH2 0xF7A JUMP JUMPDEST PUSH1 0x40 MLOAD DUP1 SWAP2 SUB SWAP1 RETURN JUMPDEST PUSH2 0x1C8 PUSH2 0x4A6 JUMP JUMPDEST STOP JUMPDEST PUSH2 0x1E4 PUSH1 0x4 DUP1 CALLDATASIZE SUB DUP2 ADD SWAP1 PUSH2 0x1DF SWAP2 SWAP1 PUSH2 0xF0F JUMP JUMPDEST PUSH2 0x4B9 JUMP JUMPDEST PUSH1 0x40 MLOAD PUSH2 0x1F1 SWAP2 SWAP1 PUSH2 0xFED JUMP JUMPDEST PUSH1 0x40 MLOAD DUP1 SWAP2 SUB SWAP1 RETURN JUMPDEST PUSH2 0x214 PUSH1 0x4 DUP1 CALLDATASIZE SUB DUP2 ADD SWAP1 PUSH2 0x20F SWAP2 SWAP1 PUSH2 0xF0F JUMP JUMPDEST PUSH2 0x55D JUMP JUMPDEST PUSH1 0x40 MLOAD PUSH2 0x221 SWAP2 SWAP1 PUSH2 0xF7A JUMP JUMPDEST PUSH1 0x40 MLOAD DUP1 SWAP2 SUB SWAP1 RETURN JUMPDEST PUSH2 0x232 PUSH2 0x572 JUMP JUMPDEST PUSH1 0x40 MLOAD PUSH2 0x23F SWAP2 SWAP1 PUSH2 0xF49 JUMP JUMPDEST PUSH1 0x40 MLOAD DUP1 SWAP2 SUB SWAP1 RETURN JUMPDEST PUSH2 0x250 PUSH2 0x599 JUMP JUMPDEST PUSH1 0x40 MLOAD PUSH2 0x25D SWAP2 SWAP1 PUSH2 0xF7A JUMP JUMPDEST PUSH1 0x40 MLOAD DUP1 SWAP2 SUB SWAP1 RETURN JUMPDEST PUSH2 0x280 PUSH1 0x4 DUP1 CALLDATASIZE SUB DUP2 ADD SWAP1 PUSH2 0x27B SWAP2 SWAP1 PUSH2 0xF0F JUMP JUMPDEST PUSH2 0x59F JUMP JUMPDEST PUSH1 0x40 MLOAD PUSH2 0x28D SWAP2 SWAP1 PUSH2 0x1015 JUMP JUMPDEST PUSH1 0x40 MLOAD DUP1 SWAP2 SUB SWAP1 RETURN JUMPDEST PUSH2 0x29E PUSH2 0x75E JUMP JUMPDEST PUSH1 0x40 MLOAD PUSH2 0x2AB SWAP2 SWAP1 PUSH2 0xF7A JUMP JUMPDEST PUSH1 0x40 MLOAD DUP1 SWAP2 SUB SWAP1 RETURN JUMPDEST PUSH2 0x2CE PUSH1 0x4 DUP1 CALLDATASIZE SUB DUP2 ADD SWAP1 PUSH2 0x2C9 SWAP2 SWAP1 PUSH2 0xF0F JUMP JUMPDEST PUSH2 0x773 JUMP JUMPDEST PUSH1 0x40 MLOAD PUSH2 0x2DB SWAP2 SWAP1 PUSH2 0xF7A JUMP JUMPDEST PUSH1 0x40 MLOAD DUP1 SWAP2 SUB SWAP1 RETURN JUMPDEST PUSH2 0x2FE PUSH1 0x4 DUP1 CALLDATASIZE SUB DUP2 ADD SWAP1 PUSH2 0x2F9 SWAP2 SWAP1 PUSH2 0xF0F JUMP JUMPDEST PUSH2 0x788 JUMP JUMPDEST STOP JUMPDEST PUSH2 0x31A PUSH1 0x4 DUP1 CALLDATASIZE SUB DUP2 ADD SWAP1 PUSH2 0x315 SWAP2 SWAP1 PUSH2 0xF0F JUMP JUMPDEST PUSH2 0x9CC JUMP JUMPDEST STOP JUMPDEST PUSH2 0x336 PUSH1 0x4 DUP1 CALLDATASIZE SUB DUP2 ADD SWAP1 PUSH2 0x331 SWAP2 SWAP1 PUSH2 0xF0F JUMP JUMPDEST PUSH2 0xC10 JUMP JUMPDEST PUSH1 0x40 MLOAD PUSH2 0x343 SWAP2 SWAP1 PUSH2 0xF7A JUMP JUMPDEST PUSH1 0x40 MLOAD DUP1 SWAP2 SUB SWAP1 RETURN JUMPDEST PUSH2 0x366 PUSH1 0x4 DUP1 CALLDATASIZE SUB DUP2 ADD SWAP1 PUSH2 0x361 SWAP2 SWAP1 PUSH2 0xF0F JUMP JUMPDEST PUSH2 0xC25 JUMP JUMPDEST STOP JUMPDEST PUSH2 0x382 PUSH1 0x4 DUP1 CALLDATASIZE SUB DUP2 ADD SWAP1 PUSH2 0x37D SWAP2 SWAP1 PUSH2 0xF0F JUMP JUMPDEST PUSH2 0xC70 JUMP JUMPDEST STOP JUMPDEST PUSH2 0x38C PUSH2 0xCF4 JUMP JUMPDEST PUSH1 0x40 MLOAD PUSH2 0x399 SWAP2 SWAP1 PUSH2 0x1089 JUMP JUMPDEST PUSH1 0x40 MLOAD DUP1 SWAP2 SUB SWAP1 RETURN JUMPDEST PUSH2 0x3AA PUSH2 0xD19 JUMP JUMPDEST PUSH1 0x40 MLOAD PUSH2 0x3B7 SWAP2 SWAP1 PUSH2 0xF49 JUMP JUMPDEST PUSH1 0x40 MLOAD DUP1 SWAP2 SUB SWAP1 RETURN JUMPDEST PUSH2 0x3C8 PUSH2 0xD3E JUMP JUMPDEST DUP1 PUSH1 0x6 PUSH0 PUSH2 0x100 EXP DUP2 SLOAD DUP2 PUSH20 0xFFFFFFFFFFFFFFFFFFFFFFFFFFFFFFFFFFFFFFFF MUL NOT AND SWAP1 DUP4 PUSH20 0xFFFFFFFFFFFFFFFFFFFFFFFFFFFFFFFFFFFFFFFF AND MUL OR SWAP1 SSTORE POP POP JUMP JUMPDEST PUSH2 0x413 PUSH2 0xD3E JUMP JUMPDEST DUP1 PUSH1 0x8 PUSH0 PUSH2 0x100 EXP DUP2 SLOAD DUP2 PUSH20 0xFFFFFFFFFFFFFFFFFFFFFFFFFFFFFFFFFFFFFFFF MUL NOT AND SWAP1 DUP4 PUSH20 0xFFFFFFFFFFFFFFFFFFFFFFFFFFFFFFFFFFFFFFFF AND MUL OR SWAP1 SSTORE POP POP JUMP JUMPDEST PUSH1 0x6 PUSH0 SWAP1 SLOAD SWAP1 PUSH2 0x100 EXP SWAP1 DIV PUSH20 0xFFFFFFFFFFFFFFFFFFFFFFFFFFFFFFFFFFFFFFFF AND DUP2 JUMP JUMPDEST PUSH1 0x7 PUSH0 SWAP1 SLOAD SWAP1 PUSH2 0x100 EXP SWAP1 DIV PUSH20 0xFFFFFFFFFFFFFFFFFFFFFFFFFFFFFFFFFFFFFFFF AND DUP2 JUMP JUMPDEST PUSH1 0xA SLOAD DUP2 JUMP JUMPDEST PUSH2 0x4AE PUSH2 0xD3E JUMP JUMPDEST PUSH2 0x4B7 PUSH0 PUSH2 0xDC5 JUMP JUMPDEST JUMP JUMPDEST PUSH2 0x4C1 PUSH2 0xE8D JUMP JUMPDEST PUSH1 0x3 PUSH0 DUP4 PUSH20 0xFFFFFFFFFFFFFFFFFFFFFFFFFFFFFFFFFFFFFFFF AND PUSH20 0xFFFFFFFFFFFFFFFFFFFFFFFFFFFFFFFFFFFFFFFF AND DUP2 MSTORE PUSH1 0x20 ADD SWAP1 DUP2 MSTORE PUSH1 0x20 ADD PUSH0 KECCAK256 PUSH1 0x40 MLOAD DUP1 PUSH1 0x60 ADD PUSH1 0x40 MSTORE SWAP1 DUP2 PUSH0 DUP3 ADD PUSH0 SWAP1 SLOAD SWAP1 PUSH2 0x100 EXP SWAP1 DIV PUSH1 0xFF AND ISZERO ISZERO ISZERO ISZERO DUP2 MSTORE PUSH1 0x20 ADD PUSH0 DUP3 ADD PUSH1 0x1 SWAP1 SLOAD SWAP1 PUSH2 0x100 EXP SWAP1 DIV PUSH1 0xFF AND ISZERO ISZERO ISZERO ISZERO DUP2 MSTORE PUSH1 0x20 ADD PUSH0 DUP3 ADD PUSH1 0x2 SWAP1 SLOAD SWAP1 PUSH2 0x100 EXP SWAP1 DIV PUSH1 0xFF AND ISZERO ISZERO ISZERO ISZERO DUP2 MSTORE POP POP SWAP1 POP SWAP2 SWAP1 POP JUMP JUMPDEST PUSH1 0x4 PUSH1 0x20 MSTORE DUP1 PUSH0 MSTORE PUSH1 0x40 PUSH0 KECCAK256 PUSH0 SWAP2 POP SWAP1 POP SLOAD DUP2 JUMP JUMPDEST PUSH0 DUP1 PUSH0 SWAP1 SLOAD SWAP1 PUSH2 0x100 EXP SWAP1 DIV PUSH20 0xFFFFFFFFFFFFFFFFFFFFFFFFFFFFFFFFFFFFFFFF AND SWAP1 POP SWAP1 JUMP JUMPDEST PUSH1 0x9 SLOAD DUP2 JUMP JUMPDEST PUSH0 PUSH1 0x8 PUSH0 SWAP1 SLOAD SWAP1 PUSH2 0x100 EXP SWAP1 DIV PUSH20 0xFFFFFFFFFFFFFFFFFFFFFFFFFFFFFFFFFFFFFFFF AND PUSH20 0xFFFFFFFFFFFFFFFFFFFFFFFFFFFFFFFFFFFFFFFF AND CALLER PUSH20 0xFFFFFFFFFFFFFFFFFFFFFFFFFFFFFFFFFFFFFFFF AND EQ PUSH2 0x62F JUMPI PUSH1 0x40 MLOAD PUSH32 0x8C379A000000000000000000000000000000000000000000000000000000000 DUP2 MSTORE PUSH1 0x4 ADD PUSH2 0x626 SWAP1 PUSH2 0x10FC JUMP JUMPDEST PUSH1 0x40 MLOAD DUP1 SWAP2 SUB SWAP1 REVERT JUMPDEST PUSH2 0x637 PUSH2 0x75E JUMP JUMPDEST PUSH1 0x2 PUSH0 DUP5 PUSH20 0xFFFFFFFFFFFFFFFFFFFFFFFFFFFFFFFFFFFFFFFF AND PUSH20 0xFFFFFFFFFFFFFFFFFFFFFFFFFFFFFFFFFFFFFFFF AND DUP2 MSTORE PUSH1 0x20 ADD SWAP1 DUP2 MSTORE PUSH1 0x20 ADD PUSH0 KECCAK256 SLOAD LT PUSH2 0x6B5 JUMPI PUSH1 0x40 MLOAD PUSH32 0x8C379A000000000000000000000000000000000000000000000000000000000 DUP2 MSTORE PUSH1 0x4 ADD PUSH2 0x6AC SWAP1 PUSH2 0x1164 JUMP JUMPDEST PUSH1 0x40 MLOAD DUP1 SWAP2 SUB SWAP1 REVERT JUMPDEST PUSH2 0x6BD PUSH2 0x75E JUMP JUMPDEST PUSH1 0x2 PUSH0 DUP5 PUSH20 0xFFFFFFFFFFFFFFFFFFFFFFFFFFFFFFFFFFFFFFFF AND PUSH20 0xFFFFFFFFFFFFFFFFFFFFFFFFFFFFFFFFFFFFFFFF AND DUP2 MSTORE PUSH1 0x20 ADD SWAP1 DUP2 MSTORE PUSH1 0x20 ADD PUSH0 KECCAK256 DUP2 SWAP1 SSTORE POP PUSH1 0x1 PUSH1 0x3 PUSH0 DUP5 PUSH20 0xFFFFFFFFFFFFFFFFFFFFFFFFFFFFFFFFFFFFFFFF AND PUSH20 0xFFFFFFFFFFFFFFFFFFFFFFFFFFFFFFFFFFFFFFFF AND DUP2 MSTORE PUSH1 0x20 ADD SWAP1 DUP2 MSTORE PUSH1 0x20 ADD PUSH0 KECCAK256 PUSH0 ADD PUSH0 PUSH2 0x100 EXP DUP2 SLOAD DUP2 PUSH1 0xFF MUL NOT AND SWAP1 DUP4 ISZERO ISZERO MUL OR SWAP1 SSTORE POP PUSH1 0x1 SWAP1 POP SWAP2 SWAP1 POP JUMP JUMPDEST PUSH0 PUSH3 0x15180 TIMESTAMP PUSH2 0x76E SWAP2 SWAP1 PUSH2 0x11AF JUMP JUMPDEST SWAP1 POP SWAP1 JUMP JUMPDEST PUSH1 0x2 PUSH1 0x20 MSTORE DUP1 PUSH0 MSTORE PUSH1 0x40 PUSH0 KECCAK256 PUSH0 SWAP2 POP SWAP1 POP SLOAD DUP2 JUMP JUMPDEST PUSH1 0x7 PUSH0 SWAP1 SLOAD SWAP1 PUSH2 0x100 EXP SWAP1 DIV PUSH20 0xFFFFFFFFFFFFFFFFFFFFFFFFFFFFFFFFFFFFFFFF AND PUSH20 0xFFFFFFFFFFFFFFFFFFFFFFFFFFFFFFFFFFFFFFFF AND CALLER PUSH20 0xFFFFFFFFFFFFFFFFFFFFFFFFFFFFFFFFFFFFFFFF AND EQ PUSH2 0x817 JUMPI PUSH1 0x40 MLOAD PUSH32 0x8C379A000000000000000000000000000000000000000000000000000000000 DUP2 MSTORE PUSH1 0x4 ADD PUSH2 0x80E SWAP1 PUSH2 0x124F JUMP JUMPDEST PUSH1 0x40 MLOAD DUP1 SWAP2 SUB SWAP1 REVERT JUMPDEST PUSH2 0x81F PUSH2 0x75E JUMP JUMPDEST PUSH1 0x5 PUSH0 DUP4 PUSH20 0xFFFFFFFFFFFFFFFFFFFFFFFFFFFFFFFFFFFFFFFF AND PUSH20 0xFFFFFFFFFFFFFFFFFFFFFFFFFFFFFFFFFFFFFFFF AND DUP2 MSTORE PUSH1 0x20 ADD SWAP1 DUP2 MSTORE PUSH1 0x20 ADD PUSH0 KECCAK256 SLOAD LT PUSH2 0x89D JUMPI PUSH1 0x40 MLOAD PUSH32 0x8C379A000000000000000000000000000000000000000000000000000000000 DUP2 MSTORE PUSH1 0x4 ADD PUSH2 0x894 SWAP1 PUSH2 0x12DD JUMP JUMPDEST PUSH1 0x40 MLOAD DUP1 SWAP2 SUB SWAP1 REVERT JUMPDEST PUSH2 0x8A5 PUSH2 0x75E JUMP JUMPDEST PUSH1 0x5 PUSH0 DUP4 PUSH20 0xFFFFFFFFFFFFFFFFFFFFFFFFFFFFFFFFFFFFFFFF AND PUSH20 0xFFFFFFFFFFFFFFFFFFFFFFFFFFFFFFFFFFFFFFFF AND DUP2 MSTORE PUSH1 0x20 ADD SWAP1 DUP2 MSTORE PUSH1 0x20 ADD PUSH0 KECCAK256 DUP2 SWAP1 SSTORE POP PUSH1 0x1 PUSH1 0x3 PUSH0 DUP4 PUSH20 0xFFFFFFFFFFFFFFFFFFFFFFFFFFFFFFFFFFFFFFFF AND PUSH20 0xFFFFFFFFFFFFFFFFFFFFFFFFFFFFFFFFFFFFFFFF AND DUP2 MSTORE PUSH1 0x20 ADD SWAP1 DUP2 MSTORE PUSH1 0x20 ADD PUSH0 KECCAK256 PUSH0 ADD PUSH1 0x1 PUSH2 0x100 EXP DUP2 SLOAD DUP2 PUSH1 0xFF MUL NOT AND SWAP1 DUP4 ISZERO ISZERO MUL OR SWAP1 SSTORE POP PUSH1 0x1 PUSH0 SWAP1 SLOAD SWAP1 PUSH2 0x100 EXP SWAP1 DIV PUSH20 0xFFFFFFFFFFFFFFFFFFFFFFFFFFFFFFFFFFFFFFFF AND PUSH20 0xFFFFFFFFFFFFFFFFFFFFFFFFFFFFFFFFFFFFFFFF AND PUSH4 0x40C10F19 DUP3 PUSH1 0xA SLOAD PUSH1 0x40 MLOAD DUP4 PUSH4 0xFFFFFFFF AND PUSH1 0xE0 SHL DUP2 MSTORE PUSH1 0x4 ADD PUSH2 0x99C SWAP3 SWAP2 SWAP1 PUSH2 0x12FB JUMP JUMPDEST PUSH0 PUSH1 0x40 MLOAD DUP1 DUP4 SUB DUP2 PUSH0 DUP8 DUP1 EXTCODESIZE ISZERO DUP1 ISZERO PUSH2 0x9B3 JUMPI PUSH0 DUP1 REVERT JUMPDEST POP GAS CALL ISZERO DUP1 ISZERO PUSH2 0x9C5 JUMPI RETURNDATASIZE PUSH0 DUP1 RETURNDATACOPY RETURNDATASIZE PUSH0 REVERT JUMPDEST POP POP POP POP POP JUMP JUMPDEST PUSH1 0x6 PUSH0 SWAP1 SLOAD SWAP1 PUSH2 0x100 EXP SWAP1 DIV PUSH20 0xFFFFFFFFFFFFFFFFFFFFFFFFFFFFFFFFFFFFFFFF AND PUSH20 0xFFFFFFFFFFFFFFFFFFFFFFFFFFFFFFFFFFFFFFFF AND CALLER PUSH20 0xFFFFFFFFFFFFFFFFFFFFFFFFFFFFFFFFFFFFFFFF AND EQ PUSH2 0xA5B JUMPI PUSH1 0x40 MLOAD PUSH32 0x8C379A000000000000000000000000000000000000000000000000000000000 DUP2 MSTORE PUSH1 0x4 ADD PUSH2 0xA52 SWAP1 PUSH2 0x1392 JUMP JUMPDEST PUSH1 0x40 MLOAD DUP1 SWAP2 SUB SWAP1 REVERT JUMPDEST PUSH2 0xA63 PUSH2 0x75E JUMP JUMPDEST PUSH1 0x4 PUSH0 DUP4 PUSH20 0xFFFFFFFFFFFFFFFFFFFFFFFFFFFFFFFFFFFFFFFF AND PUSH20 0xFFFFFFFFFFFFFFFFFFFFFFFFFFFFFFFFFFFFFFFF AND DUP2 MSTORE PUSH1 0x20 ADD SWAP1 DUP2 MSTORE PUSH1 0x20 ADD PUSH0 KECCAK256 SLOAD LT PUSH2 0xAE1 JUMPI PUSH1 0x40 MLOAD PUSH32 0x8C379A000000000000000000000000000000000000000000000000000000000 DUP2 MSTORE PUSH1 0x4 ADD PUSH2 0xAD8 SWAP1 PUSH2 0x1420 JUMP JUMPDEST PUSH1 0x40 MLOAD DUP1 SWAP2 SUB SWAP1 REVERT JUMPDEST PUSH2 0xAE9 PUSH2 0x75E JUMP JUMPDEST PUSH1 0x4 PUSH0 DUP4 PUSH20 0xFFFFFFFFFFFFFFFFFFFFFFFFFFFFFFFFFFFFFFFF AND PUSH20 0xFFFFFFFFFFFFFFFFFFFFFFFFFFFFFFFFFFFFFFFF AND DUP2 MSTORE PUSH1 0x20 ADD SWAP1 DUP2 MSTORE PUSH1 0x20 ADD PUSH0 KECCAK256 DUP2 SWAP1 SSTORE POP PUSH1 0x1 PUSH1 0x3 PUSH0 DUP4 PUSH20 0xFFFFFFFFFFFFFFFFFFFFFFFFFFFFFFFFFFFFFFFF AND PUSH20 0xFFFFFFFFFFFFFFFFFFFFFFFFFFFFFFFFFFFFFFFF AND DUP2 MSTORE PUSH1 0x20 ADD SWAP1 DUP2 MSTORE PUSH1 0x20 ADD PUSH0 KECCAK256 PUSH0 ADD PUSH1 0x2 PUSH2 0x100 EXP DUP2 SLOAD DUP2 PUSH1 0xFF MUL NOT AND SWAP1 DUP4 ISZERO ISZERO MUL OR SWAP1 SSTORE POP PUSH1 0x1 PUSH0 SWAP1 SLOAD SWAP1 PUSH2 0x100 EXP SWAP1 DIV PUSH20 0xFFFFFFFFFFFFFFFFFFFFFFFFFFFFFFFFFFFFFFFF AND PUSH20 0xFFFFFFFFFFFFFFFFFFFFFFFFFFFFFFFFFFFFFFFF AND PUSH4 0x40C10F19 DUP3 PUSH1 0x9 SLOAD PUSH1 0x40 MLOAD DUP4 PUSH4 0xFFFFFFFF AND PUSH1 0xE0 SHL DUP2 MSTORE PUSH1 0x4 ADD PUSH2 0xBE0 SWAP3 SWAP2 SWAP1 PUSH2 0x12FB JUMP JUMPDEST PUSH0 PUSH1 0x40 MLOAD DUP1 DUP4 SUB DUP2 PUSH0 DUP8 DUP1 EXTCODESIZE ISZERO DUP1 ISZERO PUSH2 0xBF7 JUMPI PUSH0 DUP1 REVERT JUMPDEST POP GAS CALL ISZERO DUP1 ISZERO PUSH2 0xC09 JUMPI RETURNDATASIZE PUSH0 DUP1 RETURNDATACOPY RETURNDATASIZE PUSH0 REVERT JUMPDEST POP POP POP POP POP JUMP JUMPDEST PUSH1 0x5 PUSH1 0x20 MSTORE DUP1 PUSH0 MSTORE PUSH1 0x40 PUSH0 KECCAK256 PUSH0 SWAP2 POP SWAP1 POP SLOAD DUP2 JUMP JUMPDEST PUSH2 0xC2D PUSH2 0xD3E JUMP JUMPDEST DUP1 PUSH1 0x7 PUSH0 PUSH2 0x100 EXP DUP2 SLOAD DUP2 PUSH20 0xFFFFFFFFFFFFFFFFFFFFFFFFFFFFFFFFFFFFFFFF MUL NOT AND SWAP1 DUP4 PUSH20 0xFFFFFFFFFFFFFFFFFFFFFFFFFFFFFFFFFFFFFFFF AND MUL OR SWAP1 SSTORE POP POP JUMP JUMPDEST PUSH2 0xC78 PUSH2 0xD3E JUMP JUMPDEST PUSH0 PUSH20 0xFFFFFFFFFFFFFFFFFFFFFFFFFFFFFFFFFFFFFFFF AND DUP2 PUSH20 0xFFFFFFFFFFFFFFFFFFFFFFFFFFFFFFFFFFFFFFFF AND SUB PUSH2 0xCE8 JUMPI PUSH0 PUSH1 0x40 MLOAD PUSH32 0x1E4FBDF700000000000000000000000000000000000000000000000000000000 DUP2 MSTORE PUSH1 0x4 ADD PUSH2 0xCDF SWAP2 SWAP1 PUSH2 0xF49 JUMP JUMPDEST PUSH1 0x40 MLOAD DUP1 SWAP2 SUB SWAP1 REVERT JUMPDEST PUSH2 0xCF1 DUP2 PUSH2 0xDC5 JUMP JUMPDEST POP JUMP JUMPDEST PUSH1 0x1 PUSH0 SWAP1 SLOAD SWAP1 PUSH2 0x100 EXP SWAP1 DIV PUSH20 0xFFFFFFFFFFFFFFFFFFFFFFFFFFFFFFFFFFFFFFFF AND DUP2 JUMP JUMPDEST PUSH1 0x8 PUSH0 SWAP1 SLOAD SWAP1 PUSH2 0x100 EXP SWAP1 DIV PUSH20 0xFFFFFFFFFFFFFFFFFFFFFFFFFFFFFFFFFFFFFFFF AND DUP2 JUMP JUMPDEST PUSH2 0xD46 PUSH2 0xE86 JUMP JUMPDEST PUSH20 0xFFFFFFFFFFFFFFFFFFFFFFFFFFFFFFFFFFFFFFFF AND PUSH2 0xD64 PUSH2 0x572 JUMP JUMPDEST PUSH20 0xFFFFFFFFFFFFFFFFFFFFFFFFFFFFFFFFFFFFFFFF AND EQ PUSH2 0xDC3 JUMPI PUSH2 0xD87 PUSH2 0xE86 JUMP JUMPDEST PUSH1 0x40 MLOAD PUSH32 0x118CDAA700000000000000000000000000000000000000000000000000000000 DUP2 MSTORE PUSH1 0x4 ADD PUSH2 0xDBA SWAP2 SWAP1 PUSH2 0xF49 JUMP JUMPDEST PUSH1 0x40 MLOAD DUP1 SWAP2 SUB SWAP1 REVERT JUMPDEST JUMP JUMPDEST PUSH0 DUP1 PUSH0 SWAP1 SLOAD SWAP1 PUSH2 0x100 EXP SWAP1 DIV PUSH20 0xFFFFFFFFFFFFFFFFFFFFFFFFFFFFFFFFFFFFFFFF AND SWAP1 POP DUP2 PUSH0 DUP1 PUSH2 0x100 EXP DUP2 SLOAD DUP2 PUSH20 0xFFFFFFFFFFFFFFFFFFFFFFFFFFFFFFFFFFFFFFFF MUL NOT AND SWAP1 DUP4 PUSH20 0xFFFFFFFFFFFFFFFFFFFFFFFFFFFFFFFFFFFFFFFF AND MUL OR SWAP1 SSTORE POP DUP2 PUSH20 0xFFFFFFFFFFFFFFFFFFFFFFFFFFFFFFFFFFFFFFFF AND DUP2 PUSH20 0xFFFFFFFFFFFFFFFFFFFFFFFFFFFFFFFFFFFFFFFF AND PUSH32 0x8BE0079C531659141344CD1FD0A4F28419497F9722A3DAAFE3B4186F6B6457E0 PUSH1 0x40 MLOAD PUSH1 0x40 MLOAD DUP1 SWAP2 SUB SWAP1 LOG3 POP POP JUMP JUMPDEST PUSH0 CALLER SWAP1 POP SWAP1 JUMP JUMPDEST PUSH1 0x40 MLOAD DUP1 PUSH1 0x60 ADD PUSH1 0x40 MSTORE DUP1 PUSH0 ISZERO ISZERO DUP2 MSTORE PUSH1 0x20 ADD PUSH0 ISZERO ISZERO DUP2 MSTORE PUSH1 0x20 ADD PUSH0 ISZERO ISZERO DUP2 MSTORE POP SWAP1 JUMP JUMPDEST PUSH0 DUP1 REVERT JUMPDEST PUSH0 PUSH20 0xFFFFFFFFFFFFFFFFFFFFFFFFFFFFFFFFFFFFFFFF DUP3 AND SWAP1 POP SWAP2 SWAP1 POP JUMP JUMPDEST PUSH0 PUSH2 0xEDE DUP3 PUSH2 0xEB5 JUMP JUMPDEST SWAP1 POP SWAP2 SWAP1 POP JUMP JUMPDEST PUSH2 0xEEE DUP2 PUSH2 0xED4 JUMP JUMPDEST DUP2 EQ PUSH2 0xEF8 JUMPI PUSH0 DUP1 REVERT JUMPDEST POP JUMP JUMPDEST PUSH0 DUP2 CALLDATALOAD SWAP1 POP PUSH2 0xF09 DUP2 PUSH2 0xEE5 JUMP JUMPDEST SWAP3 SWAP2 POP POP JUMP JUMPDEST PUSH0 PUSH1 0x20 DUP3 DUP5 SUB SLT ISZERO PUSH2 0xF24 JUMPI PUSH2 0xF23 PUSH2 0xEB1 JUMP JUMPDEST JUMPDEST PUSH0 PUSH2 0xF31 DUP5 DUP3 DUP6 ADD PUSH2 0xEFB JUMP JUMPDEST SWAP2 POP POP SWAP3 SWAP2 POP POP JUMP JUMPDEST PUSH2 0xF43 DUP2 PUSH2 0xED4 JUMP JUMPDEST DUP3 MSTORE POP POP JUMP JUMPDEST PUSH0 PUSH1 0x20 DUP3 ADD SWAP1 POP PUSH2 0xF5C PUSH0 DUP4 ADD DUP5 PUSH2 0xF3A JUMP JUMPDEST SWAP3 SWAP2 POP POP JUMP JUMPDEST PUSH0 DUP2 SWAP1 POP SWAP2 SWAP1 POP JUMP JUMPDEST PUSH2 0xF74 DUP2 PUSH2 0xF62 JUMP JUMPDEST DUP3 MSTORE POP POP JUMP JUMPDEST PUSH0 PUSH1 0x20 DUP3 ADD SWAP1 POP PUSH2 0xF8D PUSH0 DUP4 ADD DUP5 PUSH2 0xF6B JUMP JUMPDEST SWAP3 SWAP2 POP POP JUMP JUMPDEST PUSH0 DUP2 ISZERO ISZERO SWAP1 POP SWAP2 SWAP1 POP JUMP JUMPDEST PUSH2 0xFA7 DUP2 PUSH2 0xF93 JUMP JUMPDEST DUP3 MSTORE POP POP JUMP JUMPDEST PUSH1 0x60 DUP3 ADD PUSH0 DUP3 ADD MLOAD PUSH2 0xFC1 PUSH0 DUP6 ADD DUP3 PUSH2 0xF9E JUMP JUMPDEST POP PUSH1 0x20 DUP3 ADD MLOAD PUSH2 0xFD4 PUSH1 0x20 DUP6 ADD DUP3 PUSH2 0xF9E JUMP JUMPDEST POP PUSH1 0x40 DUP3 ADD MLOAD PUSH2 0xFE7 PUSH1 0x40 DUP6 ADD DUP3 PUSH2 0xF9E JUMP JUMPDEST POP POP POP POP JUMP JUMPDEST PUSH0 PUSH1 0x60 DUP3 ADD SWAP1 POP PUSH2 0x1000 PUSH0 DUP4 ADD DUP5 PUSH2 0xFAD JUMP JUMPDEST SWAP3 SWAP2 POP POP JUMP JUMPDEST PUSH2 0x100F DUP2 PUSH2 0xF93 JUMP JUMPDEST DUP3 MSTORE POP POP JUMP JUMPDEST PUSH0 PUSH1 0x20 DUP3 ADD SWAP1 POP PUSH2 0x1028 PUSH0 DUP4 ADD DUP5 PUSH2 0x1006 JUMP JUMPDEST SWAP3 SWAP2 POP POP JUMP JUMPDEST PUSH0 DUP2 SWAP1 POP SWAP2 SWAP1 POP JUMP JUMPDEST PUSH0 PUSH2 0x1051 PUSH2 0x104C PUSH2 0x1047 DUP5 PUSH2 0xEB5 JUMP JUMPDEST PUSH2 0x102E JUMP JUMPDEST PUSH2 0xEB5 JUMP JUMPDEST SWAP1 POP SWAP2 SWAP1 POP JUMP JUMPDEST PUSH0 PUSH2 0x1062 DUP3 PUSH2 0x1037 JUMP JUMPDEST SWAP1 POP SWAP2 SWAP1 POP JUMP JUMPDEST PUSH0 PUSH2 0x1073 DUP3 PUSH2 0x1058 JUMP JUMPDEST SWAP1 POP SWAP2 SWAP1 POP JUMP JUMPDEST PUSH2 0x1083 DUP2 PUSH2 0x1069 JUMP JUMPDEST DUP3 MSTORE POP POP JUMP JUMPDEST PUSH0 PUSH1 0x20 DUP3 ADD SWAP1 POP PUSH2 0x109C PUSH0 DUP4 ADD DUP5 PUSH2 0x107A JUMP JUMPDEST SWAP3 SWAP2 POP POP JUMP JUMPDEST PUSH0 DUP3 DUP3 MSTORE PUSH1 0x20 DUP3 ADD SWAP1 POP SWAP3 SWAP2 POP POP JUMP JUMPDEST PUSH32 0x616C7265616479206461696C7920636865636B65640000000000000000000000 PUSH0 DUP3 ADD MSTORE POP JUMP JUMPDEST PUSH0 PUSH2 0x10E6 PUSH1 0x15 DUP4 PUSH2 0x10A2 JUMP JUMPDEST SWAP2 POP PUSH2 0x10F1 DUP3 PUSH2 0x10B2 JUMP JUMPDEST PUSH1 0x20 DUP3 ADD SWAP1 POP SWAP2 SWAP1 POP JUMP JUMPDEST PUSH0 PUSH1 0x20 DUP3 ADD SWAP1 POP DUP2 DUP2 SUB PUSH0 DUP4 ADD MSTORE PUSH2 0x1113 DUP2 PUSH2 0x10DA JUMP JUMPDEST SWAP1 POP SWAP2 SWAP1 POP JUMP JUMPDEST PUSH32 0x5175657374206973207374696C6C206F6E20636F6F6C646F776E000000000000 PUSH0 DUP3 ADD MSTORE POP JUMP JUMPDEST PUSH0 PUSH2 0x114E PUSH1 0x1A DUP4 PUSH2 0x10A2 JUMP JUMPDEST SWAP2 POP PUSH2 0x1159 DUP3 PUSH2 0x111A JUMP JUMPDEST PUSH1 0x20 DUP3 ADD SWAP1 POP SWAP2 SWAP1 POP JUMP JUMPDEST PUSH0 PUSH1 0x20 DUP3 ADD SWAP1 POP DUP2 DUP2 SUB PUSH0 DUP4 ADD MSTORE PUSH2 0x117B DUP2 PUSH2 0x1142 JUMP JUMPDEST SWAP1 POP SWAP2 SWAP1 POP JUMP JUMPDEST PUSH32 0x4E487B7100000000000000000000000000000000000000000000000000000000 PUSH0 MSTORE PUSH1 0x12 PUSH1 0x4 MSTORE PUSH1 0x24 PUSH0 REVERT JUMPDEST PUSH0 PUSH2 0x11B9 DUP3 PUSH2 0xF62 JUMP JUMPDEST SWAP2 POP PUSH2 0x11C4 DUP4 PUSH2 0xF62 JUMP JUMPDEST SWAP3 POP DUP3 PUSH2 0x11D4 JUMPI PUSH2 0x11D3 PUSH2 0x1182 JUMP JUMPDEST JUMPDEST DUP3 DUP3 DIV SWAP1 POP SWAP3 SWAP2 POP POP JUMP JUMPDEST PUSH32 0x4F6E6C7920746865206578706C6F726520636F6E74726163742063616E206578 PUSH0 DUP3 ADD MSTORE PUSH32 0x65637574696F6E00000000000000000000000000000000000000000000000000 PUSH1 0x20 DUP3 ADD MSTORE POP JUMP JUMPDEST PUSH0 PUSH2 0x1239 PUSH1 0x27 DUP4 PUSH2 0x10A2 JUMP JUMPDEST SWAP2 POP PUSH2 0x1244 DUP3 PUSH2 0x11DF JUMP JUMPDEST PUSH1 0x40 DUP3 ADD SWAP1 POP SWAP2 SWAP1 POP JUMP JUMPDEST PUSH0 PUSH1 0x20 DUP3 ADD SWAP1 POP DUP2 DUP2 SUB PUSH0 DUP4 ADD MSTORE PUSH2 0x1266 DUP2 PUSH2 0x122D JUMP JUMPDEST SWAP1 POP SWAP2 SWAP1 POP JUMP JUMPDEST PUSH32 0x4578706C6F7265207175657374206973207374696C6C206F6E20636F6F6C646F PUSH0 DUP3 ADD MSTORE PUSH32 0x776E000000000000000000000000000000000000000000000000000000000000 PUSH1 0x20 DUP3 ADD MSTORE POP JUMP JUMPDEST PUSH0 PUSH2 0x12C7 PUSH1 0x22 DUP4 PUSH2 0x10A2 JUMP JUMPDEST SWAP2 POP PUSH2 0x12D2 DUP3 PUSH2 0x126D JUMP JUMPDEST PUSH1 0x40 DUP3 ADD SWAP1 POP SWAP2 SWAP1 POP JUMP JUMPDEST PUSH0 PUSH1 0x20 DUP3 ADD SWAP1 POP DUP2 DUP2 SUB PUSH0 DUP4 ADD MSTORE PUSH2 0x12F4 DUP2 PUSH2 0x12BB JUMP JUMPDEST SWAP1 POP SWAP2 SWAP1 POP JUMP JUMPDEST PUSH0 PUSH1 0x40 DUP3 ADD SWAP1 POP PUSH2 0x130E PUSH0 DUP4 ADD DUP6 PUSH2 0xF3A JUMP JUMPDEST PUSH2 0x131B PUSH1 0x20 DUP4 ADD DUP5 PUSH2 0xF6B JUMP JUMPDEST SWAP4 SWAP3 POP POP POP JUMP JUMPDEST PUSH32 0x4F6E6C792074686520626174746C6520636F6E74726163742063616E20657865 PUSH0 DUP3 ADD MSTORE PUSH32 0x637574696F6E0000000000000000000000000000000000000000000000000000 PUSH1 0x20 DUP3 ADD MSTORE POP JUMP JUMPDEST PUSH0 PUSH2 0x137C PUSH1 0x26 DUP4 PUSH2 0x10A2 JUMP JUMPDEST SWAP2 POP PUSH2 0x1387 DUP3 PUSH2 0x1322 JUMP JUMPDEST PUSH1 0x40 DUP3 ADD SWAP1 POP SWAP2 SWAP1 POP JUMP JUMPDEST PUSH0 PUSH1 0x20 DUP3 ADD SWAP1 POP DUP2 DUP2 SUB PUSH0 DUP4 ADD MSTORE PUSH2 0x13A9 DUP2 PUSH2 0x1370 JUMP JUMPDEST SWAP1 POP SWAP2 SWAP1 POP JUMP JUMPDEST PUSH32 0x426174746C65207175657374206973207374696C6C206F6E20636F6F6C646F77 PUSH0 DUP3 ADD MSTORE PUSH32 0x6E00000000000000000000000000000000000000000000000000000000000000 PUSH1 0x20 DUP3 ADD MSTORE POP JUMP JUMPDEST PUSH0 PUSH2 0x140A PUSH1 0x21 DUP4 PUSH2 0x10A2 JUMP JUMPDEST SWAP2 POP PUSH2 0x1415 DUP3 PUSH2 0x13B0 JUMP JUMPDEST PUSH1 0x40 DUP3 ADD SWAP1 POP SWAP2 SWAP1 POP JUMP JUMPDEST PUSH0 PUSH1 0x20 DUP3 ADD SWAP1 POP DUP2 DUP2 SUB PUSH0 DUP4 ADD MSTORE PUSH2 0x1437 DUP2 PUSH2 0x13FE JUMP JUMPDEST SWAP1 POP SWAP2 SWAP1 POP JUMP INVALID LOG2 PUSH5 0x6970667358 0x22 SLT KECCAK256 0xD1 0xDA PUSH28 0xDE214B88521542FE8D6C23AFB55D5A933963C1BBCCC7E49F744D9A68 PUSH16 0x64736F6C634300081A00330000000000 "
				},
				"gasEstimates": {
					"creation": {
						"codeDepositCost": "1047200",
						"executionCost": "infinite",
						"totalCost": "infinite"
					},
					"external": {
						"battleCheck(address)": "infinite",
						"battleContract()": "2576",
						"battleReward()": "2536",
						"dailyCheck(address)": "infinite",
						"dailyCheckContract()": "2618",
						"drinkContract()": "infinite",
						"exploreCheck(address)": "infinite",
						"exploreContract()": "2598",
						"exploreReward()": "2537",
						"getQuestData(address)": "infinite",
						"lastBattleCompletionTime(address)": "2869",
						"lastCheckCompletionTime(address)": "2869",
						"lastExploreCompletionTime(address)": "2824",
						"owner()": "2604",
						"renounceOwnership()": "infinite",
						"setBattleContract(address)": "infinite",
						"setDailyCheckContract(address)": "infinite",
						"setExploreContract(address)": "infinite",
						"today()": "infinite",
						"transferOwnership(address)": "infinite"
					},
					"internal": {
						"requestTokens(uint256)": "infinite"
					}
				},
				"methodIdentifiers": {
					"battleCheck(address)": "dec5d109",
					"battleContract()": "423b1ca3",
					"battleReward()": "9e84477d",
					"dailyCheck(address)": "a5fd9381",
					"dailyCheckContract()": "fe5a45d0",
					"drinkContract()": "fbc1274d",
					"exploreCheck(address)": "c1b6a1e8",
					"exploreContract()": "55ccbff7",
					"exploreReward()": "57e2a625",
					"getQuestData(address)": "86c8a86f",
					"lastBattleCompletionTime(address)": "8d5b11ab",
					"lastCheckCompletionTime(address)": "bc6c22c6",
					"lastExploreCompletionTime(address)": "e4b1a19a",
					"owner()": "8da5cb5b",
					"renounceOwnership()": "715018a6",
					"setBattleContract(address)": "0db6dff7",
					"setDailyCheckContract(address)": "21098461",
					"setExploreContract(address)": "e4b8c4d4",
					"today()": "b74e452b",
					"transferOwnership(address)": "f2fde38b"
				}
			},
			"storageLayout": {
				"storage": [
					{
						"astId": 8,
						"contract": "contents/Quest.sol:Quest",
						"label": "_owner",
						"offset": 0,
						"slot": "0",
						"type": "t_address"
					},
					{
						"astId": 254,
						"contract": "contents/Quest.sol:Quest",
						"label": "drinkContract",
						"offset": 0,
						"slot": "1",
						"type": "t_contract(IDragonDrink)238"
					},
					{
						"astId": 258,
						"contract": "contents/Quest.sol:Quest",
						"label": "lastCheckCompletionTime",
						"offset": 0,
						"slot": "2",
						"type": "t_mapping(t_address,t_uint256)"
					},
					{
						"astId": 263,
						"contract": "contents/Quest.sol:Quest",
						"label": "hasCompletedQuest",
						"offset": 0,
						"slot": "3",
						"type": "t_mapping(t_address,t_struct(QuestData)251_storage)"
					},
					{
						"astId": 267,
						"contract": "contents/Quest.sol:Quest",
						"label": "lastBattleCompletionTime",
						"offset": 0,
						"slot": "4",
						"type": "t_mapping(t_address,t_uint256)"
					},
					{
						"astId": 271,
						"contract": "contents/Quest.sol:Quest",
						"label": "lastExploreCompletionTime",
						"offset": 0,
						"slot": "5",
						"type": "t_mapping(t_address,t_uint256)"
					},
					{
						"astId": 273,
						"contract": "contents/Quest.sol:Quest",
						"label": "battleContract",
						"offset": 0,
						"slot": "6",
						"type": "t_address"
					},
					{
						"astId": 275,
						"contract": "contents/Quest.sol:Quest",
						"label": "exploreContract",
						"offset": 0,
						"slot": "7",
						"type": "t_address"
					},
					{
						"astId": 277,
						"contract": "contents/Quest.sol:Quest",
						"label": "dailyCheckContract",
						"offset": 0,
						"slot": "8",
						"type": "t_address"
					},
					{
						"astId": 280,
						"contract": "contents/Quest.sol:Quest",
						"label": "battleReward",
						"offset": 0,
						"slot": "9",
						"type": "t_uint256"
					},
					{
						"astId": 283,
						"contract": "contents/Quest.sol:Quest",
						"label": "exploreReward",
						"offset": 0,
						"slot": "10",
						"type": "t_uint256"
					}
				],
				"types": {
					"t_address": {
						"encoding": "inplace",
						"label": "address",
						"numberOfBytes": "20"
					},
					"t_bool": {
						"encoding": "inplace",
						"label": "bool",
						"numberOfBytes": "1"
					},
					"t_contract(IDragonDrink)238": {
						"encoding": "inplace",
						"label": "contract IDragonDrink",
						"numberOfBytes": "20"
					},
					"t_mapping(t_address,t_struct(QuestData)251_storage)": {
						"encoding": "mapping",
						"key": "t_address",
						"label": "mapping(address => struct Quest.QuestData)",
						"numberOfBytes": "32",
						"value": "t_struct(QuestData)251_storage"
					},
					"t_mapping(t_address,t_uint256)": {
						"encoding": "mapping",
						"key": "t_address",
						"label": "mapping(address => uint256)",
						"numberOfBytes": "32",
						"value": "t_uint256"
					},
					"t_struct(QuestData)251_storage": {
						"encoding": "inplace",
						"label": "struct Quest.QuestData",
						"members": [
							{
								"astId": 246,
								"contract": "contents/Quest.sol:Quest",
								"label": "dailyCheck",
								"offset": 0,
								"slot": "0",
								"type": "t_bool"
							},
							{
								"astId": 248,
								"contract": "contents/Quest.sol:Quest",
								"label": "exploration",
								"offset": 1,
								"slot": "0",
								"type": "t_bool"
							},
							{
								"astId": 250,
								"contract": "contents/Quest.sol:Quest",
								"label": "battle",
								"offset": 2,
								"slot": "0",
								"type": "t_bool"
							}
						],
						"numberOfBytes": "32"
					},
					"t_uint256": {
						"encoding": "inplace",
						"label": "uint256",
						"numberOfBytes": "32"
					}
				}
			},
			"userdoc": {
				"kind": "user",
				"methods": {},
				"version": 1
			}
		}
	}
}