{
	"contents/Exploration.sol": {
		"Exploration": {
			"abi": [
				{
					"inputs": [
						{
							"internalType": "address",
							"name": "_tokenContract",
							"type": "address"
						},
						{
							"internalType": "address",
							"name": "_questContract",
							"type": "address"
						},
						{
							"internalType": "address",
							"name": "_drinkContract",
							"type": "address"
						}
					],
					"stateMutability": "nonpayable",
					"type": "constructor"
				},
				{
					"inputs": [
						{
							"internalType": "address",
							"name": "owner",
							"type": "address"
						}
					],
					"name": "OwnableInvalidOwner",
					"type": "error"
				},
				{
					"inputs": [
						{
							"internalType": "address",
							"name": "account",
							"type": "address"
						}
					],
					"name": "OwnableUnauthorizedAccount",
					"type": "error"
				},
				{
					"anonymous": false,
					"inputs": [
						{
							"indexed": true,
							"internalType": "address",
							"name": "previousOwner",
							"type": "address"
						},
						{
							"indexed": true,
							"internalType": "address",
							"name": "newOwner",
							"type": "address"
						}
					],
					"name": "OwnershipTransferred",
					"type": "event"
				},
				{
					"inputs": [],
					"name": "dailyExploreLimit",
					"outputs": [
						{
							"internalType": "uint256",
							"name": "",
							"type": "uint256"
						}
					],
					"stateMutability": "view",
					"type": "function"
				},
				{
					"inputs": [],
					"name": "drinkContract",
					"outputs": [
						{
							"internalType": "contract IDragonDrink",
							"name": "",
							"type": "address"
						}
					],
					"stateMutability": "view",
					"type": "function"
				},
				{
					"inputs": [],
					"name": "explore",
					"outputs": [],
					"stateMutability": "nonpayable",
					"type": "function"
				},
				{
					"inputs": [],
					"name": "minAdultToken",
					"outputs": [
						{
							"internalType": "uint256",
							"name": "",
							"type": "uint256"
						}
					],
					"stateMutability": "view",
					"type": "function"
				},
				{
					"inputs": [],
					"name": "owner",
					"outputs": [
						{
							"internalType": "address",
							"name": "",
							"type": "address"
						}
					],
					"stateMutability": "view",
					"type": "function"
				},
				{
					"inputs": [],
					"name": "questContract",
					"outputs": [
						{
							"internalType": "contract IQuest",
							"name": "",
							"type": "address"
						}
					],
					"stateMutability": "view",
					"type": "function"
				},
				{
					"inputs": [],
					"name": "renounceOwnership",
					"outputs": [],
					"stateMutability": "nonpayable",
					"type": "function"
				},
				{
					"inputs": [
						{
							"internalType": "uint256",
							"name": "limit",
							"type": "uint256"
						}
					],
					"name": "setDailyExploreLimit",
					"outputs": [],
					"stateMutability": "nonpayable",
					"type": "function"
				},
				{
					"inputs": [
						{
							"internalType": "uint256",
							"name": "_minAdultToken",
							"type": "uint256"
						}
					],
					"name": "setMinAdultToken",
					"outputs": [],
					"stateMutability": "nonpayable",
					"type": "function"
				},
				{
					"inputs": [],
					"name": "tokenContract",
					"outputs": [
						{
							"internalType": "contract IToken",
							"name": "",
							"type": "address"
						}
					],
					"stateMutability": "view",
					"type": "function"
				},
				{
					"inputs": [
						{
							"internalType": "address",
							"name": "newOwner",
							"type": "address"
						}
					],
					"name": "transferOwnership",
					"outputs": [],
					"stateMutability": "nonpayable",
					"type": "function"
				}
			],
			"devdoc": {
				"errors": {
					"OwnableInvalidOwner(address)": [
						{
							"details": "The owner is not a valid owner account. (eg. `address(0)`)"
						}
					],
					"OwnableUnauthorizedAccount(address)": [
						{
							"details": "The caller account is not authorized to perform an operation."
						}
					]
				},
				"kind": "dev",
				"methods": {
					"owner()": {
						"details": "Returns the address of the current owner."
					},
					"renounceOwnership()": {
						"details": "Leaves the contract without owner. It will not be possible to call `onlyOwner` functions. Can only be called by the current owner. NOTE: Renouncing ownership will leave the contract without an owner, thereby disabling any functionality that is only available to the owner."
					},
					"transferOwnership(address)": {
						"details": "Transfers ownership of the contract to a new account (`newOwner`). Can only be called by the current owner."
					}
				},
				"version": 1
			},
			"evm": {
				"assembly": "    /* \"contents/Exploration.sol\":231:3072  contract Exploration is Ownable{... */\n  mstore(0x40, 0x80)\n    /* \"contents/Exploration.sol\":534:535  1 */\n  0x01\n    /* \"contents/Exploration.sol\":499:535  uint256 public dailyExploreLimit = 1 */\n  0x06\n  sstore\n    /* \"contents/Exploration.sol\":573:574  5 */\n  0x05\n    /* \"contents/Exploration.sol\":542:574  uint256 public minAdultToken = 5 */\n  0x07\n  sstore\n    /* \"contents/Exploration.sol\":583:847  constructor(address _tokenContract, address _questContract, address _drinkContract) Ownable(msg.sender){... */\n  callvalue\n  dup1\n  iszero\n  tag_1\n  jumpi\n  0x00\n  dup1\n  revert\ntag_1:\n  pop\n  mload(0x40)\n  sub(codesize, bytecodeSize)\n  dup1\n  bytecodeSize\n  dup4\n  codecopy\n  dup2\n  dup2\n  add\n  0x40\n  mstore\n  dup2\n  add\n  swap1\n  tag_2\n  swap2\n  swap1\n  tag_3\n  jump\t// in\ntag_2:\n    /* \"contents/Exploration.sol\":675:685  msg.sender */\n  caller\n    /* \"@openzeppelin/contracts/access/Ownable.sol\":1297:1298  0 */\n  0x00\n    /* \"@openzeppelin/contracts/access/Ownable.sol\":1273:1299  initialOwner == address(0) */\n  0xffffffffffffffffffffffffffffffffffffffff\n  and\n    /* \"@openzeppelin/contracts/access/Ownable.sol\":1273:1285  initialOwner */\n  dup2\n    /* \"@openzeppelin/contracts/access/Ownable.sol\":1273:1299  initialOwner == address(0) */\n  0xffffffffffffffffffffffffffffffffffffffff\n  and\n  sub\n    /* \"@openzeppelin/contracts/access/Ownable.sol\":1269:1364  if (initialOwner == address(0)) {... */\n  tag_7\n  jumpi\n    /* \"@openzeppelin/contracts/access/Ownable.sol\":1350:1351  0 */\n  0x00\n    /* \"@openzeppelin/contracts/access/Ownable.sol\":1322:1353  OwnableInvalidOwner(address(0)) */\n  mload(0x40)\n  0x1e4fbdf700000000000000000000000000000000000000000000000000000000\n  dup2\n  mstore\n  0x04\n  add\n  tag_8\n  swap2\n  swap1\n  tag_9\n  jump\t// in\ntag_8:\n  mload(0x40)\n  dup1\n  swap2\n  sub\n  swap1\n  revert\n    /* \"@openzeppelin/contracts/access/Ownable.sol\":1269:1364  if (initialOwner == address(0)) {... */\ntag_7:\n    /* \"@openzeppelin/contracts/access/Ownable.sol\":1373:1405  _transferOwnership(initialOwner) */\n  tag_10\n    /* \"@openzeppelin/contracts/access/Ownable.sol\":1392:1404  initialOwner */\n  dup2\n    /* \"@openzeppelin/contracts/access/Ownable.sol\":1373:1391  _transferOwnership */\n  shl(0x20, tag_11)\n    /* \"@openzeppelin/contracts/access/Ownable.sol\":1373:1405  _transferOwnership(initialOwner) */\n  0x20\n  shr\n  jump\t// in\ntag_10:\n    /* \"@openzeppelin/contracts/access/Ownable.sol\":1225:1412  constructor(address initialOwner) {... */\n  pop\n    /* \"contents/Exploration.sol\":720:734  _tokenContract */\n  dup3\n    /* \"contents/Exploration.sol\":697:710  tokenContract */\n  0x01\n  0x00\n    /* \"contents/Exploration.sol\":697:735  tokenContract = IToken(_tokenContract) */\n  0x0100\n  exp\n  dup2\n  sload\n  dup2\n  0xffffffffffffffffffffffffffffffffffffffff\n  mul\n  not\n  and\n  swap1\n  dup4\n  0xffffffffffffffffffffffffffffffffffffffff\n  and\n  mul\n  or\n  swap1\n  sstore\n  pop\n    /* \"contents/Exploration.sol\":769:783  _questContract */\n  dup2\n    /* \"contents/Exploration.sol\":746:759  questContract */\n  0x02\n  0x00\n    /* \"contents/Exploration.sol\":746:784  questContract = IQuest(_questContract) */\n  0x0100\n  exp\n  dup2\n  sload\n  dup2\n  0xffffffffffffffffffffffffffffffffffffffff\n  mul\n  not\n  and\n  swap1\n  dup4\n  0xffffffffffffffffffffffffffffffffffffffff\n  and\n  mul\n  or\n  swap1\n  sstore\n  pop\n    /* \"contents/Exploration.sol\":824:838  _drinkContract */\n  dup1\n    /* \"contents/Exploration.sol\":795:808  drinkContract */\n  0x03\n  0x00\n    /* \"contents/Exploration.sol\":795:839  drinkContract = IDragonDrink(_drinkContract) */\n  0x0100\n  exp\n  dup2\n  sload\n  dup2\n  0xffffffffffffffffffffffffffffffffffffffff\n  mul\n  not\n  and\n  swap1\n  dup4\n  0xffffffffffffffffffffffffffffffffffffffff\n  and\n  mul\n  or\n  swap1\n  sstore\n  pop\n    /* \"contents/Exploration.sol\":583:847  constructor(address _tokenContract, address _questContract, address _drinkContract) Ownable(msg.sender){... */\n  pop\n  pop\n  pop\n    /* \"contents/Exploration.sol\":231:3072  contract Exploration is Ownable{... */\n  jump(tag_13)\n    /* \"@openzeppelin/contracts/access/Ownable.sol\":2912:3099  function _transferOwnership(address newOwner) internal virtual {... */\ntag_11:\n    /* \"@openzeppelin/contracts/access/Ownable.sol\":2985:3001  address oldOwner */\n  0x00\n    /* \"@openzeppelin/contracts/access/Ownable.sol\":3004:3010  _owner */\n  dup1\n  0x00\n  swap1\n  sload\n  swap1\n  0x0100\n  exp\n  swap1\n  div\n  0xffffffffffffffffffffffffffffffffffffffff\n  and\n    /* \"@openzeppelin/contracts/access/Ownable.sol\":2985:3010  address oldOwner = _owner */\n  swap1\n  pop\n    /* \"@openzeppelin/contracts/access/Ownable.sol\":3029:3037  newOwner */\n  dup2\n    /* \"@openzeppelin/contracts/access/Ownable.sol\":3020:3026  _owner */\n  0x00\n  dup1\n    /* \"@openzeppelin/contracts/access/Ownable.sol\":3020:3037  _owner = newOwner */\n  0x0100\n  exp\n  dup2\n  sload\n  dup2\n  0xffffffffffffffffffffffffffffffffffffffff\n  mul\n  not\n  and\n  swap1\n  dup4\n  0xffffffffffffffffffffffffffffffffffffffff\n  and\n  mul\n  or\n  swap1\n  sstore\n  pop\n    /* \"@openzeppelin/contracts/access/Ownable.sol\":3083:3091  newOwner */\n  dup2\n    /* \"@openzeppelin/contracts/access/Ownable.sol\":3052:3092  OwnershipTransferred(oldOwner, newOwner) */\n  0xffffffffffffffffffffffffffffffffffffffff\n  and\n    /* \"@openzeppelin/contracts/access/Ownable.sol\":3073:3081  oldOwner */\n  dup2\n    /* \"@openzeppelin/contracts/access/Ownable.sol\":3052:3092  OwnershipTransferred(oldOwner, newOwner) */\n  0xffffffffffffffffffffffffffffffffffffffff\n  and\n  0x8be0079c531659141344cd1fd0a4f28419497f9722a3daafe3b4186f6b6457e0\n  mload(0x40)\n  mload(0x40)\n  dup1\n  swap2\n  sub\n  swap1\n  log3\n    /* \"@openzeppelin/contracts/access/Ownable.sol\":2975:3099  {... */\n  pop\n    /* \"@openzeppelin/contracts/access/Ownable.sol\":2912:3099  function _transferOwnership(address newOwner) internal virtual {... */\n  pop\n  jump\t// out\n    /* \"#utility.yul\":88:205   */\ntag_16:\n    /* \"#utility.yul\":197:198   */\n  0x00\n    /* \"#utility.yul\":194:195   */\n  dup1\n    /* \"#utility.yul\":187:199   */\n  revert\n    /* \"#utility.yul\":334:460   */\ntag_18:\n    /* \"#utility.yul\":371:378   */\n  0x00\n    /* \"#utility.yul\":411:453   */\n  0xffffffffffffffffffffffffffffffffffffffff\n    /* \"#utility.yul\":404:409   */\n  dup3\n    /* \"#utility.yul\":400:454   */\n  and\n    /* \"#utility.yul\":389:454   */\n  swap1\n  pop\n    /* \"#utility.yul\":334:460   */\n  swap2\n  swap1\n  pop\n  jump\t// out\n    /* \"#utility.yul\":466:562   */\ntag_19:\n    /* \"#utility.yul\":503:510   */\n  0x00\n    /* \"#utility.yul\":532:556   */\n  tag_29\n    /* \"#utility.yul\":550:555   */\n  dup3\n    /* \"#utility.yul\":532:556   */\n  tag_18\n  jump\t// in\ntag_29:\n    /* \"#utility.yul\":521:556   */\n  swap1\n  pop\n    /* \"#utility.yul\":466:562   */\n  swap2\n  swap1\n  pop\n  jump\t// out\n    /* \"#utility.yul\":568:690   */\ntag_20:\n    /* \"#utility.yul\":641:665   */\n  tag_31\n    /* \"#utility.yul\":659:664   */\n  dup2\n    /* \"#utility.yul\":641:665   */\n  tag_19\n  jump\t// in\ntag_31:\n    /* \"#utility.yul\":634:639   */\n  dup2\n    /* \"#utility.yul\":631:666   */\n  eq\n    /* \"#utility.yul\":621:684   */\n  tag_32\n  jumpi\n    /* \"#utility.yul\":680:681   */\n  0x00\n    /* \"#utility.yul\":677:678   */\n  dup1\n    /* \"#utility.yul\":670:682   */\n  revert\n    /* \"#utility.yul\":621:684   */\ntag_32:\n    /* \"#utility.yul\":568:690   */\n  pop\n  jump\t// out\n    /* \"#utility.yul\":696:839   */\ntag_21:\n    /* \"#utility.yul\":753:758   */\n  0x00\n    /* \"#utility.yul\":784:790   */\n  dup2\n    /* \"#utility.yul\":778:791   */\n  mload\n    /* \"#utility.yul\":769:791   */\n  swap1\n  pop\n    /* \"#utility.yul\":800:833   */\n  tag_34\n    /* \"#utility.yul\":827:832   */\n  dup2\n    /* \"#utility.yul\":800:833   */\n  tag_20\n  jump\t// in\ntag_34:\n    /* \"#utility.yul\":696:839   */\n  swap3\n  swap2\n  pop\n  pop\n  jump\t// out\n    /* \"#utility.yul\":845:1508   */\ntag_3:\n    /* \"#utility.yul\":933:939   */\n  0x00\n    /* \"#utility.yul\":941:947   */\n  dup1\n    /* \"#utility.yul\":949:955   */\n  0x00\n    /* \"#utility.yul\":998:1000   */\n  0x60\n    /* \"#utility.yul\":986:995   */\n  dup5\n    /* \"#utility.yul\":977:984   */\n  dup7\n    /* \"#utility.yul\":973:996   */\n  sub\n    /* \"#utility.yul\":969:1001   */\n  slt\n    /* \"#utility.yul\":966:1085   */\n  iszero\n  tag_36\n  jumpi\n    /* \"#utility.yul\":1004:1083   */\n  tag_37\n  tag_16\n  jump\t// in\ntag_37:\n    /* \"#utility.yul\":966:1085   */\ntag_36:\n    /* \"#utility.yul\":1124:1125   */\n  0x00\n    /* \"#utility.yul\":1149:1213   */\n  tag_38\n    /* \"#utility.yul\":1205:1212   */\n  dup7\n    /* \"#utility.yul\":1196:1202   */\n  dup3\n    /* \"#utility.yul\":1185:1194   */\n  dup8\n    /* \"#utility.yul\":1181:1203   */\n  add\n    /* \"#utility.yul\":1149:1213   */\n  tag_21\n  jump\t// in\ntag_38:\n    /* \"#utility.yul\":1139:1213   */\n  swap4\n  pop\n    /* \"#utility.yul\":1095:1223   */\n  pop\n    /* \"#utility.yul\":1262:1264   */\n  0x20\n    /* \"#utility.yul\":1288:1352   */\n  tag_39\n    /* \"#utility.yul\":1344:1351   */\n  dup7\n    /* \"#utility.yul\":1335:1341   */\n  dup3\n    /* \"#utility.yul\":1324:1333   */\n  dup8\n    /* \"#utility.yul\":1320:1342   */\n  add\n    /* \"#utility.yul\":1288:1352   */\n  tag_21\n  jump\t// in\ntag_39:\n    /* \"#utility.yul\":1278:1352   */\n  swap3\n  pop\n    /* \"#utility.yul\":1233:1362   */\n  pop\n    /* \"#utility.yul\":1401:1403   */\n  0x40\n    /* \"#utility.yul\":1427:1491   */\n  tag_40\n    /* \"#utility.yul\":1483:1490   */\n  dup7\n    /* \"#utility.yul\":1474:1480   */\n  dup3\n    /* \"#utility.yul\":1463:1472   */\n  dup8\n    /* \"#utility.yul\":1459:1481   */\n  add\n    /* \"#utility.yul\":1427:1491   */\n  tag_21\n  jump\t// in\ntag_40:\n    /* \"#utility.yul\":1417:1491   */\n  swap2\n  pop\n    /* \"#utility.yul\":1372:1501   */\n  pop\n    /* \"#utility.yul\":845:1508   */\n  swap3\n  pop\n  swap3\n  pop\n  swap3\n  jump\t// out\n    /* \"#utility.yul\":1514:1632   */\ntag_22:\n    /* \"#utility.yul\":1601:1625   */\n  tag_42\n    /* \"#utility.yul\":1619:1624   */\n  dup2\n    /* \"#utility.yul\":1601:1625   */\n  tag_19\n  jump\t// in\ntag_42:\n    /* \"#utility.yul\":1596:1599   */\n  dup3\n    /* \"#utility.yul\":1589:1626   */\n  mstore\n    /* \"#utility.yul\":1514:1632   */\n  pop\n  pop\n  jump\t// out\n    /* \"#utility.yul\":1638:1860   */\ntag_9:\n    /* \"#utility.yul\":1731:1735   */\n  0x00\n    /* \"#utility.yul\":1769:1771   */\n  0x20\n    /* \"#utility.yul\":1758:1767   */\n  dup3\n    /* \"#utility.yul\":1754:1772   */\n  add\n    /* \"#utility.yul\":1746:1772   */\n  swap1\n  pop\n    /* \"#utility.yul\":1782:1853   */\n  tag_44\n    /* \"#utility.yul\":1850:1851   */\n  0x00\n    /* \"#utility.yul\":1839:1848   */\n  dup4\n    /* \"#utility.yul\":1835:1852   */\n  add\n    /* \"#utility.yul\":1826:1832   */\n  dup5\n    /* \"#utility.yul\":1782:1853   */\n  tag_22\n  jump\t// in\ntag_44:\n    /* \"#utility.yul\":1638:1860   */\n  swap3\n  swap2\n  pop\n  pop\n  jump\t// out\n    /* \"contents/Exploration.sol\":231:3072  contract Exploration is Ownable{... */\ntag_13:\n  dataSize(sub_0)\n  dup1\n  dataOffset(sub_0)\n  0x00\n  codecopy\n  0x00\n  return\nstop\n\nsub_0: assembly {\n        /* \"contents/Exploration.sol\":231:3072  contract Exploration is Ownable{... */\n      mstore(0x40, 0x80)\n      callvalue\n      dup1\n      iszero\n      tag_1\n      jumpi\n      0x00\n      dup1\n      revert\n    tag_1:\n      pop\n      jumpi(tag_2, lt(calldatasize, 0x04))\n      shr(0xe0, calldataload(0x00))\n      dup1\n      0x6e8eb1e8\n      gt\n      tag_14\n      jumpi\n      dup1\n      0x6e8eb1e8\n      eq\n      tag_8\n      jumpi\n      dup1\n      0x715018a6\n      eq\n      tag_9\n      jumpi\n      dup1\n      0x8da5cb5b\n      eq\n      tag_10\n      jumpi\n      dup1\n      0xcb175898\n      eq\n      tag_11\n      jumpi\n      dup1\n      0xf2fde38b\n      eq\n      tag_12\n      jumpi\n      dup1\n      0xfbc1274d\n      eq\n      tag_13\n      jumpi\n      jump(tag_2)\n    tag_14:\n      dup1\n      0x345cbc48\n      eq\n      tag_3\n      jumpi\n      dup1\n      0x37984ce0\n      eq\n      tag_4\n      jumpi\n      dup1\n      0x5271c083\n      eq\n      tag_5\n      jumpi\n      dup1\n      0x55a373d6\n      eq\n      tag_6\n      jumpi\n      dup1\n      0x6a6940cc\n      eq\n      tag_7\n      jumpi\n    tag_2:\n      0x00\n      dup1\n      revert\n        /* \"contents/Exploration.sol\":1202:1762  function explore() external resetDailyExploreCount(msg.sender) exploreLimitCheck(msg.sender) {... */\n    tag_3:\n      tag_15\n      tag_16\n      jump\t// in\n    tag_15:\n      stop\n        /* \"contents/Exploration.sol\":499:535  uint256 public dailyExploreLimit = 1 */\n    tag_4:\n      tag_17\n      tag_18\n      jump\t// in\n    tag_17:\n      mload(0x40)\n      tag_19\n      swap2\n      swap1\n      tag_20\n      jump\t// in\n    tag_19:\n      mload(0x40)\n      dup1\n      swap2\n      sub\n      swap1\n      return\n        /* \"contents/Exploration.sol\":2728:2846  function setMinAdultToken(uint256 _minAdultToken) external onlyOwner {... */\n    tag_5:\n      tag_21\n      0x04\n      dup1\n      calldatasize\n      sub\n      dup2\n      add\n      swap1\n      tag_22\n      swap2\n      swap1\n      tag_23\n      jump\t// in\n    tag_22:\n      tag_24\n      jump\t// in\n    tag_21:\n      stop\n        /* \"contents/Exploration.sol\":269:296  IToken public tokenContract */\n    tag_6:\n      tag_25\n      tag_26\n      jump\t// in\n    tag_25:\n      mload(0x40)\n      tag_27\n      swap2\n      swap1\n      tag_28\n      jump\t// in\n    tag_27:\n      mload(0x40)\n      dup1\n      swap2\n      sub\n      swap1\n      return\n        /* \"contents/Exploration.sol\":303:330  IQuest public questContract */\n    tag_7:\n      tag_29\n      tag_30\n      jump\t// in\n    tag_29:\n      mload(0x40)\n      tag_31\n      swap2\n      swap1\n      tag_32\n      jump\t// in\n    tag_31:\n      mload(0x40)\n      dup1\n      swap2\n      sub\n      swap1\n      return\n        /* \"contents/Exploration.sol\":2854:2962  function setDailyExploreLimit(uint256 limit) external onlyOwner {... */\n    tag_8:\n      tag_33\n      0x04\n      dup1\n      calldatasize\n      sub\n      dup2\n      add\n      swap1\n      tag_34\n      swap2\n      swap1\n      tag_23\n      jump\t// in\n    tag_34:\n      tag_35\n      jump\t// in\n    tag_33:\n      stop\n        /* \"@openzeppelin/contracts/access/Ownable.sol\":2293:2394  function renounceOwnership() public virtual onlyOwner {... */\n    tag_9:\n      tag_36\n      tag_37\n      jump\t// in\n    tag_36:\n      stop\n        /* \"@openzeppelin/contracts/access/Ownable.sol\":1638:1723  function owner() public view virtual returns (address) {... */\n    tag_10:\n      tag_38\n      tag_39\n      jump\t// in\n    tag_38:\n      mload(0x40)\n      tag_40\n      swap2\n      swap1\n      tag_41\n      jump\t// in\n    tag_40:\n      mload(0x40)\n      dup1\n      swap2\n      sub\n      swap1\n      return\n        /* \"contents/Exploration.sol\":542:574  uint256 public minAdultToken = 5 */\n    tag_11:\n      tag_42\n      tag_43\n      jump\t// in\n    tag_42:\n      mload(0x40)\n      tag_44\n      swap2\n      swap1\n      tag_20\n      jump\t// in\n    tag_44:\n      mload(0x40)\n      dup1\n      swap2\n      sub\n      swap1\n      return\n        /* \"@openzeppelin/contracts/access/Ownable.sol\":2543:2758  function transferOwnership(address newOwner) public virtual onlyOwner {... */\n    tag_12:\n      tag_45\n      0x04\n      dup1\n      calldatasize\n      sub\n      dup2\n      add\n      swap1\n      tag_46\n      swap2\n      swap1\n      tag_47\n      jump\t// in\n    tag_46:\n      tag_48\n      jump\t// in\n    tag_45:\n      stop\n        /* \"contents/Exploration.sol\":337:370  IDragonDrink public drinkContract */\n    tag_13:\n      tag_49\n      tag_50\n      jump\t// in\n    tag_49:\n      mload(0x40)\n      tag_51\n      swap2\n      swap1\n      tag_52\n      jump\t// in\n    tag_51:\n      mload(0x40)\n      dup1\n      swap2\n      sub\n      swap1\n      return\n        /* \"contents/Exploration.sol\":1202:1762  function explore() external resetDailyExploreCount(msg.sender) exploreLimitCheck(msg.sender) {... */\n    tag_16:\n        /* \"contents/Exploration.sol\":1253:1263  msg.sender */\n      caller\n        /* \"contents/Exploration.sol\":1110:1117  today() */\n      tag_54\n        /* \"contents/Exploration.sol\":1110:1115  today */\n      tag_55\n        /* \"contents/Exploration.sol\":1110:1117  today() */\n      jump\t// in\n    tag_54:\n        /* \"contents/Exploration.sol\":1084:1099  lastExploreTime */\n      0x05\n        /* \"contents/Exploration.sol\":1084:1107  lastExploreTime[player] */\n      0x00\n        /* \"contents/Exploration.sol\":1100:1106  player */\n      dup4\n        /* \"contents/Exploration.sol\":1084:1107  lastExploreTime[player] */\n      0xffffffffffffffffffffffffffffffffffffffff\n      and\n      0xffffffffffffffffffffffffffffffffffffffff\n      and\n      dup2\n      mstore\n      0x20\n      add\n      swap1\n      dup2\n      mstore\n      0x20\n      add\n      0x00\n      keccak256\n      sload\n        /* \"contents/Exploration.sol\":1084:1117  lastExploreTime[player] < today() */\n      lt\n        /* \"contents/Exploration.sol\":1080:1175  if (lastExploreTime[player] < today()) {... */\n      iszero\n      tag_56\n      jumpi\n        /* \"contents/Exploration.sol\":1162:1163  0 */\n      0x00\n        /* \"contents/Exploration.sol\":1134:1151  dailyExploreCount */\n      0x04\n        /* \"contents/Exploration.sol\":1134:1159  dailyExploreCount[player] */\n      0x00\n        /* \"contents/Exploration.sol\":1152:1158  player */\n      dup4\n        /* \"contents/Exploration.sol\":1134:1159  dailyExploreCount[player] */\n      0xffffffffffffffffffffffffffffffffffffffff\n      and\n      0xffffffffffffffffffffffffffffffffffffffff\n      and\n      dup2\n      mstore\n      0x20\n      add\n      swap1\n      dup2\n      mstore\n      0x20\n      add\n      0x00\n      keccak256\n        /* \"contents/Exploration.sol\":1134:1163  dailyExploreCount[player] = 0 */\n      dup2\n      swap1\n      sstore\n      pop\n        /* \"contents/Exploration.sol\":1080:1175  if (lastExploreTime[player] < today()) {... */\n    tag_56:\n        /* \"contents/Exploration.sol\":1283:1293  msg.sender */\n      caller\n        /* \"contents/Exploration.sol\":945:962  dailyExploreLimit */\n      sload(0x06)\n        /* \"contents/Exploration.sol\":917:934  dailyExploreCount */\n      0x04\n        /* \"contents/Exploration.sol\":917:942  dailyExploreCount[player] */\n      0x00\n        /* \"contents/Exploration.sol\":935:941  player */\n      dup4\n        /* \"contents/Exploration.sol\":917:942  dailyExploreCount[player] */\n      0xffffffffffffffffffffffffffffffffffffffff\n      and\n      0xffffffffffffffffffffffffffffffffffffffff\n      and\n      dup2\n      mstore\n      0x20\n      add\n      swap1\n      dup2\n      mstore\n      0x20\n      add\n      0x00\n      keccak256\n      sload\n        /* \"contents/Exploration.sol\":917:962  dailyExploreCount[player] < dailyExploreLimit */\n      lt\n        /* \"contents/Exploration.sol\":909:993  require(dailyExploreCount[player] < dailyExploreLimit, \"Daily battle limit reached\") */\n      tag_58\n      jumpi\n      mload(0x40)\n      0x08c379a000000000000000000000000000000000000000000000000000000000\n      dup2\n      mstore\n      0x04\n      add\n      tag_59\n      swap1\n      tag_60\n      jump\t// in\n    tag_59:\n      mload(0x40)\n      dup1\n      swap2\n      sub\n      swap1\n      revert\n    tag_58:\n        /* \"contents/Exploration.sol\":1314:1339  hasAdultToken(msg.sender) */\n      tag_62\n        /* \"contents/Exploration.sol\":1328:1338  msg.sender */\n      caller\n        /* \"contents/Exploration.sol\":1314:1327  hasAdultToken */\n      tag_63\n        /* \"contents/Exploration.sol\":1314:1339  hasAdultToken(msg.sender) */\n      jump\t// in\n    tag_62:\n        /* \"contents/Exploration.sol\":1306:1392  require(hasAdultToken(msg.sender), \"You must own at least five adult NFT to explore.\") */\n      tag_64\n      jumpi\n      mload(0x40)\n      0x08c379a000000000000000000000000000000000000000000000000000000000\n      dup2\n      mstore\n      0x04\n      add\n      tag_65\n      swap1\n      tag_66\n      jump\t// in\n    tag_65:\n      mload(0x40)\n      dup1\n      swap2\n      sub\n      swap1\n      revert\n    tag_64:\n        /* \"contents/Exploration.sol\":1435:1442  today() */\n      tag_67\n        /* \"contents/Exploration.sol\":1435:1440  today */\n      tag_55\n        /* \"contents/Exploration.sol\":1435:1442  today() */\n      jump\t// in\n    tag_67:\n        /* \"contents/Exploration.sol\":1405:1420  lastExploreTime */\n      0x05\n        /* \"contents/Exploration.sol\":1405:1432  lastExploreTime[msg.sender] */\n      0x00\n        /* \"contents/Exploration.sol\":1421:1431  msg.sender */\n      caller\n        /* \"contents/Exploration.sol\":1405:1432  lastExploreTime[msg.sender] */\n      0xffffffffffffffffffffffffffffffffffffffff\n      and\n      0xffffffffffffffffffffffffffffffffffffffff\n      and\n      dup2\n      mstore\n      0x20\n      add\n      swap1\n      dup2\n      mstore\n      0x20\n      add\n      0x00\n      keccak256\n        /* \"contents/Exploration.sol\":1405:1442  lastExploreTime[msg.sender] = today() */\n      dup2\n      swap1\n      sstore\n      pop\n        /* \"contents/Exploration.sol\":1453:1470  dailyExploreCount */\n      0x04\n        /* \"contents/Exploration.sol\":1453:1482  dailyExploreCount[msg.sender] */\n      0x00\n        /* \"contents/Exploration.sol\":1471:1481  msg.sender */\n      caller\n        /* \"contents/Exploration.sol\":1453:1482  dailyExploreCount[msg.sender] */\n      0xffffffffffffffffffffffffffffffffffffffff\n      and\n      0xffffffffffffffffffffffffffffffffffffffff\n      and\n      dup2\n      mstore\n      0x20\n      add\n      swap1\n      dup2\n      mstore\n      0x20\n      add\n      0x00\n      keccak256\n      0x00\n        /* \"contents/Exploration.sol\":1453:1484  dailyExploreCount[msg.sender]++ */\n      dup2\n      sload\n      dup1\n      swap3\n      swap2\n      swap1\n      tag_68\n      swap1\n      tag_69\n      jump\t// in\n    tag_68:\n      swap2\n      swap1\n      pop\n      sstore\n      pop\n        /* \"contents/Exploration.sol\":1497:1511  bool questData */\n      0x00\n        /* \"contents/Exploration.sol\":1514:1527  questContract */\n      0x02\n      0x00\n      swap1\n      sload\n      swap1\n      0x0100\n      exp\n      swap1\n      div\n      0xffffffffffffffffffffffffffffffffffffffff\n      and\n        /* \"contents/Exploration.sol\":1514:1546  questContract.getBattleCompleted */\n      0xffffffffffffffffffffffffffffffffffffffff\n      and\n      0x2cbae7fa\n        /* \"contents/Exploration.sol\":1547:1557  msg.sender */\n      caller\n        /* \"contents/Exploration.sol\":1514:1558  questContract.getBattleCompleted(msg.sender) */\n      mload(0x40)\n      dup3\n      0xffffffff\n      and\n      0xe0\n      shl\n      dup2\n      mstore\n      0x04\n      add\n      tag_70\n      swap2\n      swap1\n      tag_41\n      jump\t// in\n    tag_70:\n      0x20\n      mload(0x40)\n      dup1\n      dup4\n      sub\n      dup2\n      dup7\n      gas\n      staticcall\n      iszero\n      dup1\n      iszero\n      tag_72\n      jumpi\n      returndatasize\n      0x00\n      dup1\n      returndatacopy\n      revert(0x00, returndatasize)\n    tag_72:\n      pop\n      pop\n      pop\n      pop\n      mload(0x40)\n      returndatasize\n      not(0x1f)\n      0x1f\n      dup3\n      add\n      and\n      dup3\n      add\n      dup1\n      0x40\n      mstore\n      pop\n      dup2\n      add\n      swap1\n      tag_73\n      swap2\n      swap1\n      tag_74\n      jump\t// in\n    tag_73:\n        /* \"contents/Exploration.sol\":1497:1558  bool questData = questContract.getBattleCompleted(msg.sender) */\n      swap1\n      pop\n        /* \"contents/Exploration.sol\":1573:1582  questData */\n      dup1\n        /* \"contents/Exploration.sol\":1569:1649  if(!questData) {... */\n      tag_75\n      jumpi\n        /* \"contents/Exploration.sol\":1599:1612  questContract */\n      0x02\n      0x00\n      swap1\n      sload\n      swap1\n      0x0100\n      exp\n      swap1\n      div\n      0xffffffffffffffffffffffffffffffffffffffff\n      and\n        /* \"contents/Exploration.sol\":1599:1625  questContract.exploreCheck */\n      0xffffffffffffffffffffffffffffffffffffffff\n      and\n      0xc1b6a1e8\n        /* \"contents/Exploration.sol\":1626:1636  msg.sender */\n      caller\n        /* \"contents/Exploration.sol\":1599:1637  questContract.exploreCheck(msg.sender) */\n      mload(0x40)\n      dup3\n      0xffffffff\n      and\n      0xe0\n      shl\n      dup2\n      mstore\n      0x04\n      add\n      tag_76\n      swap2\n      swap1\n      tag_41\n      jump\t// in\n    tag_76:\n      0x00\n      mload(0x40)\n      dup1\n      dup4\n      sub\n      dup2\n      0x00\n      dup8\n      dup1\n      extcodesize\n      iszero\n      dup1\n      iszero\n      tag_77\n      jumpi\n      0x00\n      dup1\n      revert\n    tag_77:\n      pop\n      gas\n      call\n      iszero\n      dup1\n      iszero\n      tag_79\n      jumpi\n      returndatasize\n      0x00\n      dup1\n      returndatacopy\n      revert(0x00, returndatasize)\n    tag_79:\n      pop\n      pop\n      pop\n      pop\n        /* \"contents/Exploration.sol\":1569:1649  if(!questData) {... */\n    tag_75:\n        /* \"contents/Exploration.sol\":1669:1683  uint256 reward */\n      0x00\n        /* \"contents/Exploration.sol\":1686:1703  getRandomReward() */\n      tag_80\n        /* \"contents/Exploration.sol\":1686:1701  getRandomReward */\n      tag_81\n        /* \"contents/Exploration.sol\":1686:1703  getRandomReward() */\n      jump\t// in\n    tag_80:\n        /* \"contents/Exploration.sol\":1669:1703  uint256 reward = getRandomReward() */\n      swap1\n      pop\n        /* \"contents/Exploration.sol\":1716:1729  drinkContract */\n      0x03\n      0x00\n      swap1\n      sload\n      swap1\n      0x0100\n      exp\n      swap1\n      div\n      0xffffffffffffffffffffffffffffffffffffffff\n      and\n        /* \"contents/Exploration.sol\":1716:1734  drinkContract.mint */\n      0xffffffffffffffffffffffffffffffffffffffff\n      and\n      0x40c10f19\n        /* \"contents/Exploration.sol\":1735:1745  msg.sender */\n      caller\n        /* \"contents/Exploration.sol\":1747:1753  reward */\n      dup4\n        /* \"contents/Exploration.sol\":1716:1754  drinkContract.mint(msg.sender, reward) */\n      mload(0x40)\n      dup4\n      0xffffffff\n      and\n      0xe0\n      shl\n      dup2\n      mstore\n      0x04\n      add\n      tag_82\n      swap3\n      swap2\n      swap1\n      tag_83\n      jump\t// in\n    tag_82:\n      0x00\n      mload(0x40)\n      dup1\n      dup4\n      sub\n      dup2\n      0x00\n      dup8\n      dup1\n      extcodesize\n      iszero\n      dup1\n      iszero\n      tag_84\n      jumpi\n      0x00\n      dup1\n      revert\n    tag_84:\n      pop\n      gas\n      call\n      iszero\n      dup1\n      iszero\n      tag_86\n      jumpi\n      returndatasize\n      0x00\n      dup1\n      returndatacopy\n      revert(0x00, returndatasize)\n    tag_86:\n      pop\n      pop\n      pop\n      pop\n        /* \"contents/Exploration.sol\":1295:1762  {... */\n      pop\n      pop\n        /* \"contents/Exploration.sol\":1185:1186  _ */\n      pop\n        /* \"contents/Exploration.sol\":1202:1762  function explore() external resetDailyExploreCount(msg.sender) exploreLimitCheck(msg.sender) {... */\n      pop\n      jump\t// out\n        /* \"contents/Exploration.sol\":499:535  uint256 public dailyExploreLimit = 1 */\n    tag_18:\n      sload(0x06)\n      dup2\n      jump\t// out\n        /* \"contents/Exploration.sol\":2728:2846  function setMinAdultToken(uint256 _minAdultToken) external onlyOwner {... */\n    tag_24:\n        /* \"@openzeppelin/contracts/access/Ownable.sol\":1531:1544  _checkOwner() */\n      tag_88\n        /* \"@openzeppelin/contracts/access/Ownable.sol\":1531:1542  _checkOwner */\n      tag_89\n        /* \"@openzeppelin/contracts/access/Ownable.sol\":1531:1544  _checkOwner() */\n      jump\t// in\n    tag_88:\n        /* \"contents/Exploration.sol\":2824:2838  _minAdultToken */\n      dup1\n        /* \"contents/Exploration.sol\":2808:2821  minAdultToken */\n      0x07\n        /* \"contents/Exploration.sol\":2808:2838  minAdultToken = _minAdultToken */\n      dup2\n      swap1\n      sstore\n      pop\n        /* \"contents/Exploration.sol\":2728:2846  function setMinAdultToken(uint256 _minAdultToken) external onlyOwner {... */\n      pop\n      jump\t// out\n        /* \"contents/Exploration.sol\":269:296  IToken public tokenContract */\n    tag_26:\n      0x01\n      0x00\n      swap1\n      sload\n      swap1\n      0x0100\n      exp\n      swap1\n      div\n      0xffffffffffffffffffffffffffffffffffffffff\n      and\n      dup2\n      jump\t// out\n        /* \"contents/Exploration.sol\":303:330  IQuest public questContract */\n    tag_30:\n      0x02\n      0x00\n      swap1\n      sload\n      swap1\n      0x0100\n      exp\n      swap1\n      div\n      0xffffffffffffffffffffffffffffffffffffffff\n      and\n      dup2\n      jump\t// out\n        /* \"contents/Exploration.sol\":2854:2962  function setDailyExploreLimit(uint256 limit) external onlyOwner {... */\n    tag_35:\n        /* \"@openzeppelin/contracts/access/Ownable.sol\":1531:1544  _checkOwner() */\n      tag_92\n        /* \"@openzeppelin/contracts/access/Ownable.sol\":1531:1542  _checkOwner */\n      tag_89\n        /* \"@openzeppelin/contracts/access/Ownable.sol\":1531:1544  _checkOwner() */\n      jump\t// in\n    tag_92:\n        /* \"contents/Exploration.sol\":2949:2954  limit */\n      dup1\n        /* \"contents/Exploration.sol\":2929:2946  dailyExploreLimit */\n      0x06\n        /* \"contents/Exploration.sol\":2929:2954  dailyExploreLimit = limit */\n      dup2\n      swap1\n      sstore\n      pop\n        /* \"contents/Exploration.sol\":2854:2962  function setDailyExploreLimit(uint256 limit) external onlyOwner {... */\n      pop\n      jump\t// out\n        /* \"@openzeppelin/contracts/access/Ownable.sol\":2293:2394  function renounceOwnership() public virtual onlyOwner {... */\n    tag_37:\n        /* \"@openzeppelin/contracts/access/Ownable.sol\":1531:1544  _checkOwner() */\n      tag_95\n        /* \"@openzeppelin/contracts/access/Ownable.sol\":1531:1542  _checkOwner */\n      tag_89\n        /* \"@openzeppelin/contracts/access/Ownable.sol\":1531:1544  _checkOwner() */\n      jump\t// in\n    tag_95:\n        /* \"@openzeppelin/contracts/access/Ownable.sol\":2357:2387  _transferOwnership(address(0)) */\n      tag_97\n        /* \"@openzeppelin/contracts/access/Ownable.sol\":2384:2385  0 */\n      0x00\n        /* \"@openzeppelin/contracts/access/Ownable.sol\":2357:2375  _transferOwnership */\n      tag_98\n        /* \"@openzeppelin/contracts/access/Ownable.sol\":2357:2387  _transferOwnership(address(0)) */\n      jump\t// in\n    tag_97:\n        /* \"@openzeppelin/contracts/access/Ownable.sol\":2293:2394  function renounceOwnership() public virtual onlyOwner {... */\n      jump\t// out\n        /* \"@openzeppelin/contracts/access/Ownable.sol\":1638:1723  function owner() public view virtual returns (address) {... */\n    tag_39:\n        /* \"@openzeppelin/contracts/access/Ownable.sol\":1684:1691  address */\n      0x00\n        /* \"@openzeppelin/contracts/access/Ownable.sol\":1710:1716  _owner */\n      dup1\n      0x00\n      swap1\n      sload\n      swap1\n      0x0100\n      exp\n      swap1\n      div\n      0xffffffffffffffffffffffffffffffffffffffff\n      and\n        /* \"@openzeppelin/contracts/access/Ownable.sol\":1703:1716  return _owner */\n      swap1\n      pop\n        /* \"@openzeppelin/contracts/access/Ownable.sol\":1638:1723  function owner() public view virtual returns (address) {... */\n      swap1\n      jump\t// out\n        /* \"contents/Exploration.sol\":542:574  uint256 public minAdultToken = 5 */\n    tag_43:\n      sload(0x07)\n      dup2\n      jump\t// out\n        /* \"@openzeppelin/contracts/access/Ownable.sol\":2543:2758  function transferOwnership(address newOwner) public virtual onlyOwner {... */\n    tag_48:\n        /* \"@openzeppelin/contracts/access/Ownable.sol\":1531:1544  _checkOwner() */\n      tag_101\n        /* \"@openzeppelin/contracts/access/Ownable.sol\":1531:1542  _checkOwner */\n      tag_89\n        /* \"@openzeppelin/contracts/access/Ownable.sol\":1531:1544  _checkOwner() */\n      jump\t// in\n    tag_101:\n        /* \"@openzeppelin/contracts/access/Ownable.sol\":2647:2648  0 */\n      0x00\n        /* \"@openzeppelin/contracts/access/Ownable.sol\":2627:2649  newOwner == address(0) */\n      0xffffffffffffffffffffffffffffffffffffffff\n      and\n        /* \"@openzeppelin/contracts/access/Ownable.sol\":2627:2635  newOwner */\n      dup2\n        /* \"@openzeppelin/contracts/access/Ownable.sol\":2627:2649  newOwner == address(0) */\n      0xffffffffffffffffffffffffffffffffffffffff\n      and\n      sub\n        /* \"@openzeppelin/contracts/access/Ownable.sol\":2623:2714  if (newOwner == address(0)) {... */\n      tag_103\n      jumpi\n        /* \"@openzeppelin/contracts/access/Ownable.sol\":2700:2701  0 */\n      0x00\n        /* \"@openzeppelin/contracts/access/Ownable.sol\":2672:2703  OwnableInvalidOwner(address(0)) */\n      mload(0x40)\n      0x1e4fbdf700000000000000000000000000000000000000000000000000000000\n      dup2\n      mstore\n      0x04\n      add\n      tag_104\n      swap2\n      swap1\n      tag_41\n      jump\t// in\n    tag_104:\n      mload(0x40)\n      dup1\n      swap2\n      sub\n      swap1\n      revert\n        /* \"@openzeppelin/contracts/access/Ownable.sol\":2623:2714  if (newOwner == address(0)) {... */\n    tag_103:\n        /* \"@openzeppelin/contracts/access/Ownable.sol\":2723:2751  _transferOwnership(newOwner) */\n      tag_105\n        /* \"@openzeppelin/contracts/access/Ownable.sol\":2742:2750  newOwner */\n      dup2\n        /* \"@openzeppelin/contracts/access/Ownable.sol\":2723:2741  _transferOwnership */\n      tag_98\n        /* \"@openzeppelin/contracts/access/Ownable.sol\":2723:2751  _transferOwnership(newOwner) */\n      jump\t// in\n    tag_105:\n        /* \"@openzeppelin/contracts/access/Ownable.sol\":2543:2758  function transferOwnership(address newOwner) public virtual onlyOwner {... */\n      pop\n      jump\t// out\n        /* \"contents/Exploration.sol\":337:370  IDragonDrink public drinkContract */\n    tag_50:\n      0x03\n      0x00\n      swap1\n      sload\n      swap1\n      0x0100\n      exp\n      swap1\n      div\n      0xffffffffffffffffffffffffffffffffffffffff\n      and\n      dup2\n      jump\t// out\n        /* \"contents/Exploration.sol\":2970:3069  function today() internal view returns (uint256) {... */\n    tag_55:\n        /* \"contents/Exploration.sol\":3010:3017  uint256 */\n      0x00\n        /* \"contents/Exploration.sol\":3055:3061  1 days */\n      0x015180\n        /* \"contents/Exploration.sol\":3037:3052  block.timestamp */\n      timestamp\n        /* \"contents/Exploration.sol\":3037:3061  block.timestamp / 1 days */\n      tag_107\n      swap2\n      swap1\n      tag_108\n      jump\t// in\n    tag_107:\n        /* \"contents/Exploration.sol\":3030:3061  return block.timestamp / 1 days */\n      swap1\n      pop\n        /* \"contents/Exploration.sol\":2970:3069  function today() internal view returns (uint256) {... */\n      swap1\n      jump\t// out\n        /* \"contents/Exploration.sol\":1774:2347  function hasAdultToken(address user) internal view returns(bool){... */\n    tag_63:\n        /* \"contents/Exploration.sol\":1833:1837  bool */\n      0x00\n        /* \"contents/Exploration.sol\":1849:1874  uint256[] memory tokenIds */\n      dup1\n        /* \"contents/Exploration.sol\":1877:1890  tokenContract */\n      0x01\n      0x00\n      swap1\n      sload\n      swap1\n      0x0100\n      exp\n      swap1\n      div\n      0xffffffffffffffffffffffffffffffffffffffff\n      and\n        /* \"contents/Exploration.sol\":1877:1904  tokenContract.getUserNftIds */\n      0xffffffffffffffffffffffffffffffffffffffff\n      and\n      0x92f2ff80\n        /* \"contents/Exploration.sol\":1905:1909  user */\n      dup5\n        /* \"contents/Exploration.sol\":1877:1910  tokenContract.getUserNftIds(user) */\n      mload(0x40)\n      dup3\n      0xffffffff\n      and\n      0xe0\n      shl\n      dup2\n      mstore\n      0x04\n      add\n      tag_110\n      swap2\n      swap1\n      tag_41\n      jump\t// in\n    tag_110:\n      0x00\n      mload(0x40)\n      dup1\n      dup4\n      sub\n      dup2\n      dup7\n      gas\n      staticcall\n      iszero\n      dup1\n      iszero\n      tag_112\n      jumpi\n      returndatasize\n      0x00\n      dup1\n      returndatacopy\n      revert(0x00, returndatasize)\n    tag_112:\n      pop\n      pop\n      pop\n      pop\n      mload(0x40)\n      returndatasize\n      0x00\n      dup3\n      returndatacopy\n      returndatasize\n      not(0x1f)\n      0x1f\n      dup3\n      add\n      and\n      dup3\n      add\n      dup1\n      0x40\n      mstore\n      pop\n      dup2\n      add\n      swap1\n      tag_113\n      swap2\n      swap1\n      tag_114\n      jump\t// in\n    tag_113:\n        /* \"contents/Exploration.sol\":1849:1910  uint256[] memory tokenIds = tokenContract.getUserNftIds(user) */\n      swap1\n      pop\n        /* \"contents/Exploration.sol\":1921:1939  uint256 adultCount */\n      0x00\n        /* \"contents/Exploration.sol\":1960:1969  uint256 i */\n      dup1\n        /* \"contents/Exploration.sol\":1955:2317  for (uint256 i = 0; i < tokenIds.length; i++) {... */\n    tag_115:\n        /* \"contents/Exploration.sol\":1979:1987  tokenIds */\n      dup3\n        /* \"contents/Exploration.sol\":1979:1994  tokenIds.length */\n      mload\n        /* \"contents/Exploration.sol\":1975:1976  i */\n      dup2\n        /* \"contents/Exploration.sol\":1975:1994  i < tokenIds.length */\n      lt\n        /* \"contents/Exploration.sol\":1955:2317  for (uint256 i = 0; i < tokenIds.length; i++) {... */\n      iszero\n      tag_116\n      jumpi\n        /* \"contents/Exploration.sol\":2017:2048  IToken.GrowthStage currentStage */\n      0x00\n        /* \"contents/Exploration.sol\":2054:2067  tokenContract */\n      0x01\n      0x00\n      swap1\n      sload\n      swap1\n      0x0100\n      exp\n      swap1\n      div\n      0xffffffffffffffffffffffffffffffffffffffff\n      and\n        /* \"contents/Exploration.sol\":2054:2081  tokenContract.getGrowthInfo */\n      0xffffffffffffffffffffffffffffffffffffffff\n      and\n      0xb564ea86\n        /* \"contents/Exploration.sol\":2082:2090  tokenIds */\n      dup6\n        /* \"contents/Exploration.sol\":2091:2092  i */\n      dup5\n        /* \"contents/Exploration.sol\":2082:2093  tokenIds[i] */\n      dup2\n      mload\n      dup2\n      lt\n      tag_118\n      jumpi\n      tag_119\n      tag_120\n      jump\t// in\n    tag_119:\n    tag_118:\n      0x20\n      mul\n      0x20\n      add\n      add\n      mload\n        /* \"contents/Exploration.sol\":2054:2094  tokenContract.getGrowthInfo(tokenIds[i]) */\n      mload(0x40)\n      dup3\n      0xffffffff\n      and\n      0xe0\n      shl\n      dup2\n      mstore\n      0x04\n      add\n      tag_121\n      swap2\n      swap1\n      tag_20\n      jump\t// in\n    tag_121:\n      0x40\n      dup1\n      mload\n      dup1\n      dup4\n      sub\n      dup2\n      dup7\n      gas\n      staticcall\n      iszero\n      dup1\n      iszero\n      tag_123\n      jumpi\n      returndatasize\n      0x00\n      dup1\n      returndatacopy\n      revert(0x00, returndatasize)\n    tag_123:\n      pop\n      pop\n      pop\n      pop\n      mload(0x40)\n      returndatasize\n      not(0x1f)\n      0x1f\n      dup3\n      add\n      and\n      dup3\n      add\n      dup1\n      0x40\n      mstore\n      pop\n      dup2\n      add\n      swap1\n      tag_124\n      swap2\n      swap1\n      tag_125\n      jump\t// in\n    tag_124:\n        /* \"contents/Exploration.sol\":2016:2094  (IToken.GrowthStage currentStage, ) = tokenContract.getGrowthInfo(tokenIds[i]) */\n      pop\n      swap1\n      pop\n        /* \"contents/Exploration.sol\":2129:2153  IToken.GrowthStage.Adult */\n      0x03\n        /* \"contents/Exploration.sol\":2113:2153  currentStage == IToken.GrowthStage.Adult */\n      dup1\n      dup2\n      gt\n      iszero\n      tag_126\n      jumpi\n      tag_127\n      tag_128\n      jump\t// in\n    tag_127:\n    tag_126:\n        /* \"contents/Exploration.sol\":2113:2125  currentStage */\n      dup2\n        /* \"contents/Exploration.sol\":2113:2153  currentStage == IToken.GrowthStage.Adult */\n      0x03\n      dup2\n      gt\n      iszero\n      tag_129\n      jumpi\n      tag_130\n      tag_128\n      jump\t// in\n    tag_130:\n    tag_129:\n      sub\n        /* \"contents/Exploration.sol\":2109:2306  if (currentStage == IToken.GrowthStage.Adult) {... */\n      tag_131\n      jumpi\n        /* \"contents/Exploration.sol\":2174:2186  adultCount++ */\n      dup3\n      dup1\n      tag_132\n      swap1\n      tag_69\n      jump\t// in\n    tag_132:\n      swap4\n      pop\n      pop\n        /* \"contents/Exploration.sol\":2222:2235  minAdultToken */\n      sload(0x07)\n        /* \"contents/Exploration.sol\":2208:2218  adultCount */\n      dup4\n        /* \"contents/Exploration.sol\":2208:2235  adultCount >= minAdultToken */\n      lt\n        /* \"contents/Exploration.sol\":2205:2291  if(adultCount >= minAdultToken) {... */\n      tag_133\n      jumpi\n        /* \"contents/Exploration.sol\":2267:2271  true */\n      0x01\n        /* \"contents/Exploration.sol\":2260:2271  return true */\n      swap5\n      pop\n      pop\n      pop\n      pop\n      pop\n      jump(tag_109)\n        /* \"contents/Exploration.sol\":2205:2291  if(adultCount >= minAdultToken) {... */\n    tag_133:\n        /* \"contents/Exploration.sol\":2109:2306  if (currentStage == IToken.GrowthStage.Adult) {... */\n    tag_131:\n        /* \"contents/Exploration.sol\":2001:2317  {... */\n      pop\n        /* \"contents/Exploration.sol\":1996:1999  i++ */\n      dup1\n      dup1\n      0x01\n      add\n      swap2\n      pop\n      pop\n        /* \"contents/Exploration.sol\":1955:2317  for (uint256 i = 0; i < tokenIds.length; i++) {... */\n      jump(tag_115)\n    tag_116:\n      pop\n        /* \"contents/Exploration.sol\":2334:2339  false */\n      0x00\n        /* \"contents/Exploration.sol\":2327:2339  return false */\n      swap3\n      pop\n      pop\n      pop\n        /* \"contents/Exploration.sol\":1774:2347  function hasAdultToken(address user) internal view returns(bool){... */\n    tag_109:\n      swap2\n      swap1\n      pop\n      jump\t// out\n        /* \"contents/Exploration.sol\":2355:2720  function getRandomReward() internal view returns(uint256) {... */\n    tag_81:\n        /* \"contents/Exploration.sol\":2404:2411  uint256 */\n      0x00\n        /* \"contents/Exploration.sol\":2424:2443  uint256 randomValue */\n      dup1\n        /* \"contents/Exploration.sol\":2532:2535  100 */\n      0x64\n        /* \"contents/Exploration.sol\":2481:2496  block.timestamp */\n      timestamp\n        /* \"contents/Exploration.sol\":2498:2514  block.prevrandao */\n      prevrandao\n        /* \"contents/Exploration.sol\":2516:2526  msg.sender */\n      caller\n        /* \"contents/Exploration.sol\":2464:2527  abi.encodePacked(block.timestamp, block.prevrandao, msg.sender) */\n      add(0x20, mload(0x40))\n      tag_135\n      swap4\n      swap3\n      swap2\n      swap1\n      tag_136\n      jump\t// in\n    tag_135:\n      mload(0x40)\n      0x20\n      dup2\n      dup4\n      sub\n      sub\n      dup2\n      mstore\n      swap1\n      0x40\n      mstore\n        /* \"contents/Exploration.sol\":2454:2528  keccak256(abi.encodePacked(block.timestamp, block.prevrandao, msg.sender)) */\n      dup1\n      mload\n      swap1\n      0x20\n      add\n      keccak256\n        /* \"contents/Exploration.sol\":2446:2529  uint256(keccak256(abi.encodePacked(block.timestamp, block.prevrandao, msg.sender))) */\n      0x00\n      shr\n        /* \"contents/Exploration.sol\":2446:2535  uint256(keccak256(abi.encodePacked(block.timestamp, block.prevrandao, msg.sender))) % 100 */\n      tag_137\n      swap2\n      swap1\n      tag_138\n      jump\t// in\n    tag_137:\n        /* \"contents/Exploration.sol\":2424:2535  uint256 randomValue = uint256(keccak256(abi.encodePacked(block.timestamp, block.prevrandao, msg.sender))) % 100 */\n      swap1\n      pop\n        /* \"contents/Exploration.sol\":2565:2567  70 */\n      0x46\n        /* \"contents/Exploration.sol\":2551:2562  randomValue */\n      dup2\n        /* \"contents/Exploration.sol\":2551:2567  randomValue < 70 */\n      lt\n        /* \"contents/Exploration.sol\":2548:2713  if(randomValue < 70) {... */\n      iszero\n      tag_139\n      jumpi\n        /* \"contents/Exploration.sol\":2591:2594  100 */\n      0x64\n        /* \"contents/Exploration.sol\":2584:2594  return 100 */\n      swap2\n      pop\n      pop\n      jump(tag_134)\n        /* \"contents/Exploration.sol\":2548:2713  if(randomValue < 70) {... */\n    tag_139:\n        /* \"contents/Exploration.sol\":2629:2631  95 */\n      0x5f\n        /* \"contents/Exploration.sol\":2615:2626  randomValue */\n      dup2\n        /* \"contents/Exploration.sol\":2615:2631  randomValue < 95 */\n      lt\n        /* \"contents/Exploration.sol\":2612:2713  if(randomValue < 95) {... */\n      iszero\n      tag_141\n      jumpi\n        /* \"contents/Exploration.sol\":2655:2658  200 */\n      0xc8\n        /* \"contents/Exploration.sol\":2648:2658  return 200 */\n      swap2\n      pop\n      pop\n      jump(tag_134)\n        /* \"contents/Exploration.sol\":2612:2713  if(randomValue < 95) {... */\n    tag_141:\n        /* \"contents/Exploration.sol\":2698:2701  300 */\n      0x012c\n        /* \"contents/Exploration.sol\":2691:2701  return 300 */\n      swap2\n      pop\n      pop\n        /* \"contents/Exploration.sol\":2355:2720  function getRandomReward() internal view returns(uint256) {... */\n    tag_134:\n      swap1\n      jump\t// out\n        /* \"@openzeppelin/contracts/access/Ownable.sol\":1796:1958  function _checkOwner() internal view virtual {... */\n    tag_89:\n        /* \"@openzeppelin/contracts/access/Ownable.sol\":1866:1878  _msgSender() */\n      tag_144\n        /* \"@openzeppelin/contracts/access/Ownable.sol\":1866:1876  _msgSender */\n      tag_145\n        /* \"@openzeppelin/contracts/access/Ownable.sol\":1866:1878  _msgSender() */\n      jump\t// in\n    tag_144:\n        /* \"@openzeppelin/contracts/access/Ownable.sol\":1855:1878  owner() != _msgSender() */\n      0xffffffffffffffffffffffffffffffffffffffff\n      and\n        /* \"@openzeppelin/contracts/access/Ownable.sol\":1855:1862  owner() */\n      tag_146\n        /* \"@openzeppelin/contracts/access/Ownable.sol\":1855:1860  owner */\n      tag_39\n        /* \"@openzeppelin/contracts/access/Ownable.sol\":1855:1862  owner() */\n      jump\t// in\n    tag_146:\n        /* \"@openzeppelin/contracts/access/Ownable.sol\":1855:1878  owner() != _msgSender() */\n      0xffffffffffffffffffffffffffffffffffffffff\n      and\n      eq\n        /* \"@openzeppelin/contracts/access/Ownable.sol\":1851:1952  if (owner() != _msgSender()) {... */\n      tag_147\n      jumpi\n        /* \"@openzeppelin/contracts/access/Ownable.sol\":1928:1940  _msgSender() */\n      tag_148\n        /* \"@openzeppelin/contracts/access/Ownable.sol\":1928:1938  _msgSender */\n      tag_145\n        /* \"@openzeppelin/contracts/access/Ownable.sol\":1928:1940  _msgSender() */\n      jump\t// in\n    tag_148:\n        /* \"@openzeppelin/contracts/access/Ownable.sol\":1901:1941  OwnableUnauthorizedAccount(_msgSender()) */\n      mload(0x40)\n      0x118cdaa700000000000000000000000000000000000000000000000000000000\n      dup2\n      mstore\n      0x04\n      add\n      tag_149\n      swap2\n      swap1\n      tag_41\n      jump\t// in\n    tag_149:\n      mload(0x40)\n      dup1\n      swap2\n      sub\n      swap1\n      revert\n        /* \"@openzeppelin/contracts/access/Ownable.sol\":1851:1952  if (owner() != _msgSender()) {... */\n    tag_147:\n        /* \"@openzeppelin/contracts/access/Ownable.sol\":1796:1958  function _checkOwner() internal view virtual {... */\n      jump\t// out\n        /* \"@openzeppelin/contracts/access/Ownable.sol\":2912:3099  function _transferOwnership(address newOwner) internal virtual {... */\n    tag_98:\n        /* \"@openzeppelin/contracts/access/Ownable.sol\":2985:3001  address oldOwner */\n      0x00\n        /* \"@openzeppelin/contracts/access/Ownable.sol\":3004:3010  _owner */\n      dup1\n      0x00\n      swap1\n      sload\n      swap1\n      0x0100\n      exp\n      swap1\n      div\n      0xffffffffffffffffffffffffffffffffffffffff\n      and\n        /* \"@openzeppelin/contracts/access/Ownable.sol\":2985:3010  address oldOwner = _owner */\n      swap1\n      pop\n        /* \"@openzeppelin/contracts/access/Ownable.sol\":3029:3037  newOwner */\n      dup2\n        /* \"@openzeppelin/contracts/access/Ownable.sol\":3020:3026  _owner */\n      0x00\n      dup1\n        /* \"@openzeppelin/contracts/access/Ownable.sol\":3020:3037  _owner = newOwner */\n      0x0100\n      exp\n      dup2\n      sload\n      dup2\n      0xffffffffffffffffffffffffffffffffffffffff\n      mul\n      not\n      and\n      swap1\n      dup4\n      0xffffffffffffffffffffffffffffffffffffffff\n      and\n      mul\n      or\n      swap1\n      sstore\n      pop\n        /* \"@openzeppelin/contracts/access/Ownable.sol\":3083:3091  newOwner */\n      dup2\n        /* \"@openzeppelin/contracts/access/Ownable.sol\":3052:3092  OwnershipTransferred(oldOwner, newOwner) */\n      0xffffffffffffffffffffffffffffffffffffffff\n      and\n        /* \"@openzeppelin/contracts/access/Ownable.sol\":3073:3081  oldOwner */\n      dup2\n        /* \"@openzeppelin/contracts/access/Ownable.sol\":3052:3092  OwnershipTransferred(oldOwner, newOwner) */\n      0xffffffffffffffffffffffffffffffffffffffff\n      and\n      0x8be0079c531659141344cd1fd0a4f28419497f9722a3daafe3b4186f6b6457e0\n      mload(0x40)\n      mload(0x40)\n      dup1\n      swap2\n      sub\n      swap1\n      log3\n        /* \"@openzeppelin/contracts/access/Ownable.sol\":2975:3099  {... */\n      pop\n        /* \"@openzeppelin/contracts/access/Ownable.sol\":2912:3099  function _transferOwnership(address newOwner) internal virtual {... */\n      pop\n      jump\t// out\n        /* \"@openzeppelin/contracts/utils/Context.sol\":656:752  function _msgSender() internal view virtual returns (address) {... */\n    tag_145:\n        /* \"@openzeppelin/contracts/utils/Context.sol\":709:716  address */\n      0x00\n        /* \"@openzeppelin/contracts/utils/Context.sol\":735:745  msg.sender */\n      caller\n        /* \"@openzeppelin/contracts/utils/Context.sol\":728:745  return msg.sender */\n      swap1\n      pop\n        /* \"@openzeppelin/contracts/utils/Context.sol\":656:752  function _msgSender() internal view virtual returns (address) {... */\n      swap1\n      jump\t// out\n        /* \"#utility.yul\":7:84   */\n    tag_152:\n        /* \"#utility.yul\":44:51   */\n      0x00\n        /* \"#utility.yul\":73:78   */\n      dup2\n        /* \"#utility.yul\":62:78   */\n      swap1\n      pop\n        /* \"#utility.yul\":7:84   */\n      swap2\n      swap1\n      pop\n      jump\t// out\n        /* \"#utility.yul\":90:208   */\n    tag_153:\n        /* \"#utility.yul\":177:201   */\n      tag_204\n        /* \"#utility.yul\":195:200   */\n      dup2\n        /* \"#utility.yul\":177:201   */\n      tag_152\n      jump\t// in\n    tag_204:\n        /* \"#utility.yul\":172:175   */\n      dup3\n        /* \"#utility.yul\":165:202   */\n      mstore\n        /* \"#utility.yul\":90:208   */\n      pop\n      pop\n      jump\t// out\n        /* \"#utility.yul\":214:436   */\n    tag_20:\n        /* \"#utility.yul\":307:311   */\n      0x00\n        /* \"#utility.yul\":345:347   */\n      0x20\n        /* \"#utility.yul\":334:343   */\n      dup3\n        /* \"#utility.yul\":330:348   */\n      add\n        /* \"#utility.yul\":322:348   */\n      swap1\n      pop\n        /* \"#utility.yul\":358:429   */\n      tag_206\n        /* \"#utility.yul\":426:427   */\n      0x00\n        /* \"#utility.yul\":415:424   */\n      dup4\n        /* \"#utility.yul\":411:428   */\n      add\n        /* \"#utility.yul\":402:408   */\n      dup5\n        /* \"#utility.yul\":358:429   */\n      tag_153\n      jump\t// in\n    tag_206:\n        /* \"#utility.yul\":214:436   */\n      swap3\n      swap2\n      pop\n      pop\n      jump\t// out\n        /* \"#utility.yul\":442:517   */\n    tag_154:\n        /* \"#utility.yul\":475:481   */\n      0x00\n        /* \"#utility.yul\":508:510   */\n      0x40\n        /* \"#utility.yul\":502:511   */\n      mload\n        /* \"#utility.yul\":492:511   */\n      swap1\n      pop\n        /* \"#utility.yul\":442:517   */\n      swap1\n      jump\t// out\n        /* \"#utility.yul\":523:640   */\n    tag_155:\n        /* \"#utility.yul\":632:633   */\n      0x00\n        /* \"#utility.yul\":629:630   */\n      dup1\n        /* \"#utility.yul\":622:634   */\n      revert\n        /* \"#utility.yul\":646:763   */\n    tag_156:\n        /* \"#utility.yul\":755:756   */\n      0x00\n        /* \"#utility.yul\":752:753   */\n      dup1\n        /* \"#utility.yul\":745:757   */\n      revert\n        /* \"#utility.yul\":769:891   */\n    tag_157:\n        /* \"#utility.yul\":842:866   */\n      tag_211\n        /* \"#utility.yul\":860:865   */\n      dup2\n        /* \"#utility.yul\":842:866   */\n      tag_152\n      jump\t// in\n    tag_211:\n        /* \"#utility.yul\":835:840   */\n      dup2\n        /* \"#utility.yul\":832:867   */\n      eq\n        /* \"#utility.yul\":822:885   */\n      tag_212\n      jumpi\n        /* \"#utility.yul\":881:882   */\n      0x00\n        /* \"#utility.yul\":878:879   */\n      dup1\n        /* \"#utility.yul\":871:883   */\n      revert\n        /* \"#utility.yul\":822:885   */\n    tag_212:\n        /* \"#utility.yul\":769:891   */\n      pop\n      jump\t// out\n        /* \"#utility.yul\":897:1036   */\n    tag_158:\n        /* \"#utility.yul\":943:948   */\n      0x00\n        /* \"#utility.yul\":981:987   */\n      dup2\n        /* \"#utility.yul\":968:988   */\n      calldataload\n        /* \"#utility.yul\":959:988   */\n      swap1\n      pop\n        /* \"#utility.yul\":997:1030   */\n      tag_214\n        /* \"#utility.yul\":1024:1029   */\n      dup2\n        /* \"#utility.yul\":997:1030   */\n      tag_157\n      jump\t// in\n    tag_214:\n        /* \"#utility.yul\":897:1036   */\n      swap3\n      swap2\n      pop\n      pop\n      jump\t// out\n        /* \"#utility.yul\":1042:1371   */\n    tag_23:\n        /* \"#utility.yul\":1101:1107   */\n      0x00\n        /* \"#utility.yul\":1150:1152   */\n      0x20\n        /* \"#utility.yul\":1138:1147   */\n      dup3\n        /* \"#utility.yul\":1129:1136   */\n      dup5\n        /* \"#utility.yul\":1125:1148   */\n      sub\n        /* \"#utility.yul\":1121:1153   */\n      slt\n        /* \"#utility.yul\":1118:1237   */\n      iszero\n      tag_216\n      jumpi\n        /* \"#utility.yul\":1156:1235   */\n      tag_217\n      tag_155\n      jump\t// in\n    tag_217:\n        /* \"#utility.yul\":1118:1237   */\n    tag_216:\n        /* \"#utility.yul\":1276:1277   */\n      0x00\n        /* \"#utility.yul\":1301:1354   */\n      tag_218\n        /* \"#utility.yul\":1346:1353   */\n      dup5\n        /* \"#utility.yul\":1337:1343   */\n      dup3\n        /* \"#utility.yul\":1326:1335   */\n      dup6\n        /* \"#utility.yul\":1322:1344   */\n      add\n        /* \"#utility.yul\":1301:1354   */\n      tag_158\n      jump\t// in\n    tag_218:\n        /* \"#utility.yul\":1291:1354   */\n      swap2\n      pop\n        /* \"#utility.yul\":1247:1364   */\n      pop\n        /* \"#utility.yul\":1042:1371   */\n      swap3\n      swap2\n      pop\n      pop\n      jump\t// out\n        /* \"#utility.yul\":1377:1503   */\n    tag_159:\n        /* \"#utility.yul\":1414:1421   */\n      0x00\n        /* \"#utility.yul\":1454:1496   */\n      0xffffffffffffffffffffffffffffffffffffffff\n        /* \"#utility.yul\":1447:1452   */\n      dup3\n        /* \"#utility.yul\":1443:1497   */\n      and\n        /* \"#utility.yul\":1432:1497   */\n      swap1\n      pop\n        /* \"#utility.yul\":1377:1503   */\n      swap2\n      swap1\n      pop\n      jump\t// out\n        /* \"#utility.yul\":1509:1569   */\n    tag_160:\n        /* \"#utility.yul\":1537:1540   */\n      0x00\n        /* \"#utility.yul\":1558:1563   */\n      dup2\n        /* \"#utility.yul\":1551:1563   */\n      swap1\n      pop\n        /* \"#utility.yul\":1509:1569   */\n      swap2\n      swap1\n      pop\n      jump\t// out\n        /* \"#utility.yul\":1575:1717   */\n    tag_161:\n        /* \"#utility.yul\":1625:1634   */\n      0x00\n        /* \"#utility.yul\":1658:1711   */\n      tag_222\n        /* \"#utility.yul\":1676:1710   */\n      tag_223\n        /* \"#utility.yul\":1685:1709   */\n      tag_224\n        /* \"#utility.yul\":1703:1708   */\n      dup5\n        /* \"#utility.yul\":1685:1709   */\n      tag_159\n      jump\t// in\n    tag_224:\n        /* \"#utility.yul\":1676:1710   */\n      tag_160\n      jump\t// in\n    tag_223:\n        /* \"#utility.yul\":1658:1711   */\n      tag_159\n      jump\t// in\n    tag_222:\n        /* \"#utility.yul\":1645:1711   */\n      swap1\n      pop\n        /* \"#utility.yul\":1575:1717   */\n      swap2\n      swap1\n      pop\n      jump\t// out\n        /* \"#utility.yul\":1723:1849   */\n    tag_162:\n        /* \"#utility.yul\":1773:1782   */\n      0x00\n        /* \"#utility.yul\":1806:1843   */\n      tag_226\n        /* \"#utility.yul\":1837:1842   */\n      dup3\n        /* \"#utility.yul\":1806:1843   */\n      tag_161\n      jump\t// in\n    tag_226:\n        /* \"#utility.yul\":1793:1843   */\n      swap1\n      pop\n        /* \"#utility.yul\":1723:1849   */\n      swap2\n      swap1\n      pop\n      jump\t// out\n        /* \"#utility.yul\":1855:1995   */\n    tag_163:\n        /* \"#utility.yul\":1919:1928   */\n      0x00\n        /* \"#utility.yul\":1952:1989   */\n      tag_228\n        /* \"#utility.yul\":1983:1988   */\n      dup3\n        /* \"#utility.yul\":1952:1989   */\n      tag_162\n      jump\t// in\n    tag_228:\n        /* \"#utility.yul\":1939:1989   */\n      swap1\n      pop\n        /* \"#utility.yul\":1855:1995   */\n      swap2\n      swap1\n      pop\n      jump\t// out\n        /* \"#utility.yul\":2001:2160   */\n    tag_164:\n        /* \"#utility.yul\":2102:2153   */\n      tag_230\n        /* \"#utility.yul\":2147:2152   */\n      dup2\n        /* \"#utility.yul\":2102:2153   */\n      tag_163\n      jump\t// in\n    tag_230:\n        /* \"#utility.yul\":2097:2100   */\n      dup3\n        /* \"#utility.yul\":2090:2154   */\n      mstore\n        /* \"#utility.yul\":2001:2160   */\n      pop\n      pop\n      jump\t// out\n        /* \"#utility.yul\":2166:2416   */\n    tag_28:\n        /* \"#utility.yul\":2273:2277   */\n      0x00\n        /* \"#utility.yul\":2311:2313   */\n      0x20\n        /* \"#utility.yul\":2300:2309   */\n      dup3\n        /* \"#utility.yul\":2296:2314   */\n      add\n        /* \"#utility.yul\":2288:2314   */\n      swap1\n      pop\n        /* \"#utility.yul\":2324:2409   */\n      tag_232\n        /* \"#utility.yul\":2406:2407   */\n      0x00\n        /* \"#utility.yul\":2395:2404   */\n      dup4\n        /* \"#utility.yul\":2391:2408   */\n      add\n        /* \"#utility.yul\":2382:2388   */\n      dup5\n        /* \"#utility.yul\":2324:2409   */\n      tag_164\n      jump\t// in\n    tag_232:\n        /* \"#utility.yul\":2166:2416   */\n      swap3\n      swap2\n      pop\n      pop\n      jump\t// out\n        /* \"#utility.yul\":2422:2562   */\n    tag_165:\n        /* \"#utility.yul\":2486:2495   */\n      0x00\n        /* \"#utility.yul\":2519:2556   */\n      tag_234\n        /* \"#utility.yul\":2550:2555   */\n      dup3\n        /* \"#utility.yul\":2519:2556   */\n      tag_162\n      jump\t// in\n    tag_234:\n        /* \"#utility.yul\":2506:2556   */\n      swap1\n      pop\n        /* \"#utility.yul\":2422:2562   */\n      swap2\n      swap1\n      pop\n      jump\t// out\n        /* \"#utility.yul\":2568:2727   */\n    tag_166:\n        /* \"#utility.yul\":2669:2720   */\n      tag_236\n        /* \"#utility.yul\":2714:2719   */\n      dup2\n        /* \"#utility.yul\":2669:2720   */\n      tag_165\n      jump\t// in\n    tag_236:\n        /* \"#utility.yul\":2664:2667   */\n      dup3\n        /* \"#utility.yul\":2657:2721   */\n      mstore\n        /* \"#utility.yul\":2568:2727   */\n      pop\n      pop\n      jump\t// out\n        /* \"#utility.yul\":2733:2983   */\n    tag_32:\n        /* \"#utility.yul\":2840:2844   */\n      0x00\n        /* \"#utility.yul\":2878:2880   */\n      0x20\n        /* \"#utility.yul\":2867:2876   */\n      dup3\n        /* \"#utility.yul\":2863:2881   */\n      add\n        /* \"#utility.yul\":2855:2881   */\n      swap1\n      pop\n        /* \"#utility.yul\":2891:2976   */\n      tag_238\n        /* \"#utility.yul\":2973:2974   */\n      0x00\n        /* \"#utility.yul\":2962:2971   */\n      dup4\n        /* \"#utility.yul\":2958:2975   */\n      add\n        /* \"#utility.yul\":2949:2955   */\n      dup5\n        /* \"#utility.yul\":2891:2976   */\n      tag_166\n      jump\t// in\n    tag_238:\n        /* \"#utility.yul\":2733:2983   */\n      swap3\n      swap2\n      pop\n      pop\n      jump\t// out\n        /* \"#utility.yul\":2989:3085   */\n    tag_167:\n        /* \"#utility.yul\":3026:3033   */\n      0x00\n        /* \"#utility.yul\":3055:3079   */\n      tag_240\n        /* \"#utility.yul\":3073:3078   */\n      dup3\n        /* \"#utility.yul\":3055:3079   */\n      tag_159\n      jump\t// in\n    tag_240:\n        /* \"#utility.yul\":3044:3079   */\n      swap1\n      pop\n        /* \"#utility.yul\":2989:3085   */\n      swap2\n      swap1\n      pop\n      jump\t// out\n        /* \"#utility.yul\":3091:3209   */\n    tag_168:\n        /* \"#utility.yul\":3178:3202   */\n      tag_242\n        /* \"#utility.yul\":3196:3201   */\n      dup2\n        /* \"#utility.yul\":3178:3202   */\n      tag_167\n      jump\t// in\n    tag_242:\n        /* \"#utility.yul\":3173:3176   */\n      dup3\n        /* \"#utility.yul\":3166:3203   */\n      mstore\n        /* \"#utility.yul\":3091:3209   */\n      pop\n      pop\n      jump\t// out\n        /* \"#utility.yul\":3215:3437   */\n    tag_41:\n        /* \"#utility.yul\":3308:3312   */\n      0x00\n        /* \"#utility.yul\":3346:3348   */\n      0x20\n        /* \"#utility.yul\":3335:3344   */\n      dup3\n        /* \"#utility.yul\":3331:3349   */\n      add\n        /* \"#utility.yul\":3323:3349   */\n      swap1\n      pop\n        /* \"#utility.yul\":3359:3430   */\n      tag_244\n        /* \"#utility.yul\":3427:3428   */\n      0x00\n        /* \"#utility.yul\":3416:3425   */\n      dup4\n        /* \"#utility.yul\":3412:3429   */\n      add\n        /* \"#utility.yul\":3403:3409   */\n      dup5\n        /* \"#utility.yul\":3359:3430   */\n      tag_168\n      jump\t// in\n    tag_244:\n        /* \"#utility.yul\":3215:3437   */\n      swap3\n      swap2\n      pop\n      pop\n      jump\t// out\n        /* \"#utility.yul\":3443:3565   */\n    tag_169:\n        /* \"#utility.yul\":3516:3540   */\n      tag_246\n        /* \"#utility.yul\":3534:3539   */\n      dup2\n        /* \"#utility.yul\":3516:3540   */\n      tag_167\n      jump\t// in\n    tag_246:\n        /* \"#utility.yul\":3509:3514   */\n      dup2\n        /* \"#utility.yul\":3506:3541   */\n      eq\n        /* \"#utility.yul\":3496:3559   */\n      tag_247\n      jumpi\n        /* \"#utility.yul\":3555:3556   */\n      0x00\n        /* \"#utility.yul\":3552:3553   */\n      dup1\n        /* \"#utility.yul\":3545:3557   */\n      revert\n        /* \"#utility.yul\":3496:3559   */\n    tag_247:\n        /* \"#utility.yul\":3443:3565   */\n      pop\n      jump\t// out\n        /* \"#utility.yul\":3571:3710   */\n    tag_170:\n        /* \"#utility.yul\":3617:3622   */\n      0x00\n        /* \"#utility.yul\":3655:3661   */\n      dup2\n        /* \"#utility.yul\":3642:3662   */\n      calldataload\n        /* \"#utility.yul\":3633:3662   */\n      swap1\n      pop\n        /* \"#utility.yul\":3671:3704   */\n      tag_249\n        /* \"#utility.yul\":3698:3703   */\n      dup2\n        /* \"#utility.yul\":3671:3704   */\n      tag_169\n      jump\t// in\n    tag_249:\n        /* \"#utility.yul\":3571:3710   */\n      swap3\n      swap2\n      pop\n      pop\n      jump\t// out\n        /* \"#utility.yul\":3716:4045   */\n    tag_47:\n        /* \"#utility.yul\":3775:3781   */\n      0x00\n        /* \"#utility.yul\":3824:3826   */\n      0x20\n        /* \"#utility.yul\":3812:3821   */\n      dup3\n        /* \"#utility.yul\":3803:3810   */\n      dup5\n        /* \"#utility.yul\":3799:3822   */\n      sub\n        /* \"#utility.yul\":3795:3827   */\n      slt\n        /* \"#utility.yul\":3792:3911   */\n      iszero\n      tag_251\n      jumpi\n        /* \"#utility.yul\":3830:3909   */\n      tag_252\n      tag_155\n      jump\t// in\n    tag_252:\n        /* \"#utility.yul\":3792:3911   */\n    tag_251:\n        /* \"#utility.yul\":3950:3951   */\n      0x00\n        /* \"#utility.yul\":3975:4028   */\n      tag_253\n        /* \"#utility.yul\":4020:4027   */\n      dup5\n        /* \"#utility.yul\":4011:4017   */\n      dup3\n        /* \"#utility.yul\":4000:4009   */\n      dup6\n        /* \"#utility.yul\":3996:4018   */\n      add\n        /* \"#utility.yul\":3975:4028   */\n      tag_170\n      jump\t// in\n    tag_253:\n        /* \"#utility.yul\":3965:4028   */\n      swap2\n      pop\n        /* \"#utility.yul\":3921:4038   */\n      pop\n        /* \"#utility.yul\":3716:4045   */\n      swap3\n      swap2\n      pop\n      pop\n      jump\t// out\n        /* \"#utility.yul\":4051:4197   */\n    tag_171:\n        /* \"#utility.yul\":4121:4130   */\n      0x00\n        /* \"#utility.yul\":4154:4191   */\n      tag_255\n        /* \"#utility.yul\":4185:4190   */\n      dup3\n        /* \"#utility.yul\":4154:4191   */\n      tag_162\n      jump\t// in\n    tag_255:\n        /* \"#utility.yul\":4141:4191   */\n      swap1\n      pop\n        /* \"#utility.yul\":4051:4197   */\n      swap2\n      swap1\n      pop\n      jump\t// out\n        /* \"#utility.yul\":4203:4374   */\n    tag_172:\n        /* \"#utility.yul\":4310:4367   */\n      tag_257\n        /* \"#utility.yul\":4361:4366   */\n      dup2\n        /* \"#utility.yul\":4310:4367   */\n      tag_171\n      jump\t// in\n    tag_257:\n        /* \"#utility.yul\":4305:4308   */\n      dup3\n        /* \"#utility.yul\":4298:4368   */\n      mstore\n        /* \"#utility.yul\":4203:4374   */\n      pop\n      pop\n      jump\t// out\n        /* \"#utility.yul\":4380:4642   */\n    tag_52:\n        /* \"#utility.yul\":4493:4497   */\n      0x00\n        /* \"#utility.yul\":4531:4533   */\n      0x20\n        /* \"#utility.yul\":4520:4529   */\n      dup3\n        /* \"#utility.yul\":4516:4534   */\n      add\n        /* \"#utility.yul\":4508:4534   */\n      swap1\n      pop\n        /* \"#utility.yul\":4544:4635   */\n      tag_259\n        /* \"#utility.yul\":4632:4633   */\n      0x00\n        /* \"#utility.yul\":4621:4630   */\n      dup4\n        /* \"#utility.yul\":4617:4634   */\n      add\n        /* \"#utility.yul\":4608:4614   */\n      dup5\n        /* \"#utility.yul\":4544:4635   */\n      tag_172\n      jump\t// in\n    tag_259:\n        /* \"#utility.yul\":4380:4642   */\n      swap3\n      swap2\n      pop\n      pop\n      jump\t// out\n        /* \"#utility.yul\":4648:4817   */\n    tag_173:\n        /* \"#utility.yul\":4732:4743   */\n      0x00\n        /* \"#utility.yul\":4766:4772   */\n      dup3\n        /* \"#utility.yul\":4761:4764   */\n      dup3\n        /* \"#utility.yul\":4754:4773   */\n      mstore\n        /* \"#utility.yul\":4806:4810   */\n      0x20\n        /* \"#utility.yul\":4801:4804   */\n      dup3\n        /* \"#utility.yul\":4797:4811   */\n      add\n        /* \"#utility.yul\":4782:4811   */\n      swap1\n      pop\n        /* \"#utility.yul\":4648:4817   */\n      swap3\n      swap2\n      pop\n      pop\n      jump\t// out\n        /* \"#utility.yul\":4823:4999   */\n    tag_174:\n        /* \"#utility.yul\":4963:4991   */\n      0x4461696c7920626174746c65206c696d69742072656163686564000000000000\n        /* \"#utility.yul\":4959:4960   */\n      0x00\n        /* \"#utility.yul\":4951:4957   */\n      dup3\n        /* \"#utility.yul\":4947:4961   */\n      add\n        /* \"#utility.yul\":4940:4992   */\n      mstore\n        /* \"#utility.yul\":4823:4999   */\n      pop\n      jump\t// out\n        /* \"#utility.yul\":5005:5371   */\n    tag_175:\n        /* \"#utility.yul\":5147:5150   */\n      0x00\n        /* \"#utility.yul\":5168:5235   */\n      tag_263\n        /* \"#utility.yul\":5232:5234   */\n      0x1a\n        /* \"#utility.yul\":5227:5230   */\n      dup4\n        /* \"#utility.yul\":5168:5235   */\n      tag_173\n      jump\t// in\n    tag_263:\n        /* \"#utility.yul\":5161:5235   */\n      swap2\n      pop\n        /* \"#utility.yul\":5244:5337   */\n      tag_264\n        /* \"#utility.yul\":5333:5336   */\n      dup3\n        /* \"#utility.yul\":5244:5337   */\n      tag_174\n      jump\t// in\n    tag_264:\n        /* \"#utility.yul\":5362:5364   */\n      0x20\n        /* \"#utility.yul\":5357:5360   */\n      dup3\n        /* \"#utility.yul\":5353:5365   */\n      add\n        /* \"#utility.yul\":5346:5365   */\n      swap1\n      pop\n        /* \"#utility.yul\":5005:5371   */\n      swap2\n      swap1\n      pop\n      jump\t// out\n        /* \"#utility.yul\":5377:5796   */\n    tag_60:\n        /* \"#utility.yul\":5543:5547   */\n      0x00\n        /* \"#utility.yul\":5581:5583   */\n      0x20\n        /* \"#utility.yul\":5570:5579   */\n      dup3\n        /* \"#utility.yul\":5566:5584   */\n      add\n        /* \"#utility.yul\":5558:5584   */\n      swap1\n      pop\n        /* \"#utility.yul\":5630:5639   */\n      dup2\n        /* \"#utility.yul\":5624:5628   */\n      dup2\n        /* \"#utility.yul\":5620:5640   */\n      sub\n        /* \"#utility.yul\":5616:5617   */\n      0x00\n        /* \"#utility.yul\":5605:5614   */\n      dup4\n        /* \"#utility.yul\":5601:5618   */\n      add\n        /* \"#utility.yul\":5594:5641   */\n      mstore\n        /* \"#utility.yul\":5658:5789   */\n      tag_266\n        /* \"#utility.yul\":5784:5788   */\n      dup2\n        /* \"#utility.yul\":5658:5789   */\n      tag_175\n      jump\t// in\n    tag_266:\n        /* \"#utility.yul\":5650:5789   */\n      swap1\n      pop\n        /* \"#utility.yul\":5377:5796   */\n      swap2\n      swap1\n      pop\n      jump\t// out\n        /* \"#utility.yul\":5802:6037   */\n    tag_176:\n        /* \"#utility.yul\":5942:5976   */\n      0x596f75206d757374206f776e206174206c656173742066697665206164756c74\n        /* \"#utility.yul\":5938:5939   */\n      0x00\n        /* \"#utility.yul\":5930:5936   */\n      dup3\n        /* \"#utility.yul\":5926:5940   */\n      add\n        /* \"#utility.yul\":5919:5977   */\n      mstore\n        /* \"#utility.yul\":6011:6029   */\n      0x204e465420746f206578706c6f72652e00000000000000000000000000000000\n        /* \"#utility.yul\":6006:6008   */\n      0x20\n        /* \"#utility.yul\":5998:6004   */\n      dup3\n        /* \"#utility.yul\":5994:6009   */\n      add\n        /* \"#utility.yul\":5987:6030   */\n      mstore\n        /* \"#utility.yul\":5802:6037   */\n      pop\n      jump\t// out\n        /* \"#utility.yul\":6043:6409   */\n    tag_177:\n        /* \"#utility.yul\":6185:6188   */\n      0x00\n        /* \"#utility.yul\":6206:6273   */\n      tag_269\n        /* \"#utility.yul\":6270:6272   */\n      0x30\n        /* \"#utility.yul\":6265:6268   */\n      dup4\n        /* \"#utility.yul\":6206:6273   */\n      tag_173\n      jump\t// in\n    tag_269:\n        /* \"#utility.yul\":6199:6273   */\n      swap2\n      pop\n        /* \"#utility.yul\":6282:6375   */\n      tag_270\n        /* \"#utility.yul\":6371:6374   */\n      dup3\n        /* \"#utility.yul\":6282:6375   */\n      tag_176\n      jump\t// in\n    tag_270:\n        /* \"#utility.yul\":6400:6402   */\n      0x40\n        /* \"#utility.yul\":6395:6398   */\n      dup3\n        /* \"#utility.yul\":6391:6403   */\n      add\n        /* \"#utility.yul\":6384:6403   */\n      swap1\n      pop\n        /* \"#utility.yul\":6043:6409   */\n      swap2\n      swap1\n      pop\n      jump\t// out\n        /* \"#utility.yul\":6415:6834   */\n    tag_66:\n        /* \"#utility.yul\":6581:6585   */\n      0x00\n        /* \"#utility.yul\":6619:6621   */\n      0x20\n        /* \"#utility.yul\":6608:6617   */\n      dup3\n        /* \"#utility.yul\":6604:6622   */\n      add\n        /* \"#utility.yul\":6596:6622   */\n      swap1\n      pop\n        /* \"#utility.yul\":6668:6677   */\n      dup2\n        /* \"#utility.yul\":6662:6666   */\n      dup2\n        /* \"#utility.yul\":6658:6678   */\n      sub\n        /* \"#utility.yul\":6654:6655   */\n      0x00\n        /* \"#utility.yul\":6643:6652   */\n      dup4\n        /* \"#utility.yul\":6639:6656   */\n      add\n        /* \"#utility.yul\":6632:6679   */\n      mstore\n        /* \"#utility.yul\":6696:6827   */\n      tag_272\n        /* \"#utility.yul\":6822:6826   */\n      dup2\n        /* \"#utility.yul\":6696:6827   */\n      tag_177\n      jump\t// in\n    tag_272:\n        /* \"#utility.yul\":6688:6827   */\n      swap1\n      pop\n        /* \"#utility.yul\":6415:6834   */\n      swap2\n      swap1\n      pop\n      jump\t// out\n        /* \"#utility.yul\":6840:7020   */\n    tag_178:\n        /* \"#utility.yul\":6888:6965   */\n      0x4e487b7100000000000000000000000000000000000000000000000000000000\n        /* \"#utility.yul\":6885:6886   */\n      0x00\n        /* \"#utility.yul\":6878:6966   */\n      mstore\n        /* \"#utility.yul\":6985:6989   */\n      0x11\n        /* \"#utility.yul\":6982:6983   */\n      0x04\n        /* \"#utility.yul\":6975:6990   */\n      mstore\n        /* \"#utility.yul\":7009:7013   */\n      0x24\n        /* \"#utility.yul\":7006:7007   */\n      0x00\n        /* \"#utility.yul\":6999:7014   */\n      revert\n        /* \"#utility.yul\":7026:7259   */\n    tag_69:\n        /* \"#utility.yul\":7065:7068   */\n      0x00\n        /* \"#utility.yul\":7088:7112   */\n      tag_275\n        /* \"#utility.yul\":7106:7111   */\n      dup3\n        /* \"#utility.yul\":7088:7112   */\n      tag_152\n      jump\t// in\n    tag_275:\n        /* \"#utility.yul\":7079:7112   */\n      swap2\n      pop\n        /* \"#utility.yul\":7134:7200   */\n      0xffffffffffffffffffffffffffffffffffffffffffffffffffffffffffffffff\n        /* \"#utility.yul\":7127:7132   */\n      dup3\n        /* \"#utility.yul\":7124:7201   */\n      sub\n        /* \"#utility.yul\":7121:7224   */\n      tag_276\n      jumpi\n        /* \"#utility.yul\":7204:7222   */\n      tag_277\n      tag_178\n      jump\t// in\n    tag_277:\n        /* \"#utility.yul\":7121:7224   */\n    tag_276:\n        /* \"#utility.yul\":7251:7252   */\n      0x01\n        /* \"#utility.yul\":7244:7249   */\n      dup3\n        /* \"#utility.yul\":7240:7253   */\n      add\n        /* \"#utility.yul\":7233:7253   */\n      swap1\n      pop\n        /* \"#utility.yul\":7026:7259   */\n      swap2\n      swap1\n      pop\n      jump\t// out\n        /* \"#utility.yul\":7265:7355   */\n    tag_179:\n        /* \"#utility.yul\":7299:7306   */\n      0x00\n        /* \"#utility.yul\":7342:7347   */\n      dup2\n        /* \"#utility.yul\":7335:7348   */\n      iszero\n        /* \"#utility.yul\":7328:7349   */\n      iszero\n        /* \"#utility.yul\":7317:7349   */\n      swap1\n      pop\n        /* \"#utility.yul\":7265:7355   */\n      swap2\n      swap1\n      pop\n      jump\t// out\n        /* \"#utility.yul\":7361:7477   */\n    tag_180:\n        /* \"#utility.yul\":7431:7452   */\n      tag_280\n        /* \"#utility.yul\":7446:7451   */\n      dup2\n        /* \"#utility.yul\":7431:7452   */\n      tag_179\n      jump\t// in\n    tag_280:\n        /* \"#utility.yul\":7424:7429   */\n      dup2\n        /* \"#utility.yul\":7421:7453   */\n      eq\n        /* \"#utility.yul\":7411:7471   */\n      tag_281\n      jumpi\n        /* \"#utility.yul\":7467:7468   */\n      0x00\n        /* \"#utility.yul\":7464:7465   */\n      dup1\n        /* \"#utility.yul\":7457:7469   */\n      revert\n        /* \"#utility.yul\":7411:7471   */\n    tag_281:\n        /* \"#utility.yul\":7361:7477   */\n      pop\n      jump\t// out\n        /* \"#utility.yul\":7483:7620   */\n    tag_181:\n        /* \"#utility.yul\":7537:7542   */\n      0x00\n        /* \"#utility.yul\":7568:7574   */\n      dup2\n        /* \"#utility.yul\":7562:7575   */\n      mload\n        /* \"#utility.yul\":7553:7575   */\n      swap1\n      pop\n        /* \"#utility.yul\":7584:7614   */\n      tag_283\n        /* \"#utility.yul\":7608:7613   */\n      dup2\n        /* \"#utility.yul\":7584:7614   */\n      tag_180\n      jump\t// in\n    tag_283:\n        /* \"#utility.yul\":7483:7620   */\n      swap3\n      swap2\n      pop\n      pop\n      jump\t// out\n        /* \"#utility.yul\":7626:7971   */\n    tag_74:\n        /* \"#utility.yul\":7693:7699   */\n      0x00\n        /* \"#utility.yul\":7742:7744   */\n      0x20\n        /* \"#utility.yul\":7730:7739   */\n      dup3\n        /* \"#utility.yul\":7721:7728   */\n      dup5\n        /* \"#utility.yul\":7717:7740   */\n      sub\n        /* \"#utility.yul\":7713:7745   */\n      slt\n        /* \"#utility.yul\":7710:7829   */\n      iszero\n      tag_285\n      jumpi\n        /* \"#utility.yul\":7748:7827   */\n      tag_286\n      tag_155\n      jump\t// in\n    tag_286:\n        /* \"#utility.yul\":7710:7829   */\n    tag_285:\n        /* \"#utility.yul\":7868:7869   */\n      0x00\n        /* \"#utility.yul\":7893:7954   */\n      tag_287\n        /* \"#utility.yul\":7946:7953   */\n      dup5\n        /* \"#utility.yul\":7937:7943   */\n      dup3\n        /* \"#utility.yul\":7926:7935   */\n      dup6\n        /* \"#utility.yul\":7922:7944   */\n      add\n        /* \"#utility.yul\":7893:7954   */\n      tag_181\n      jump\t// in\n    tag_287:\n        /* \"#utility.yul\":7883:7954   */\n      swap2\n      pop\n        /* \"#utility.yul\":7839:7964   */\n      pop\n        /* \"#utility.yul\":7626:7971   */\n      swap3\n      swap2\n      pop\n      pop\n      jump\t// out\n        /* \"#utility.yul\":7977:8309   */\n    tag_83:\n        /* \"#utility.yul\":8098:8102   */\n      0x00\n        /* \"#utility.yul\":8136:8138   */\n      0x40\n        /* \"#utility.yul\":8125:8134   */\n      dup3\n        /* \"#utility.yul\":8121:8139   */\n      add\n        /* \"#utility.yul\":8113:8139   */\n      swap1\n      pop\n        /* \"#utility.yul\":8149:8220   */\n      tag_289\n        /* \"#utility.yul\":8217:8218   */\n      0x00\n        /* \"#utility.yul\":8206:8215   */\n      dup4\n        /* \"#utility.yul\":8202:8219   */\n      add\n        /* \"#utility.yul\":8193:8199   */\n      dup6\n        /* \"#utility.yul\":8149:8220   */\n      tag_168\n      jump\t// in\n    tag_289:\n        /* \"#utility.yul\":8230:8302   */\n      tag_290\n        /* \"#utility.yul\":8298:8300   */\n      0x20\n        /* \"#utility.yul\":8287:8296   */\n      dup4\n        /* \"#utility.yul\":8283:8301   */\n      add\n        /* \"#utility.yul\":8274:8280   */\n      dup5\n        /* \"#utility.yul\":8230:8302   */\n      tag_153\n      jump\t// in\n    tag_290:\n        /* \"#utility.yul\":7977:8309   */\n      swap4\n      swap3\n      pop\n      pop\n      pop\n      jump\t// out\n        /* \"#utility.yul\":8315:8495   */\n    tag_182:\n        /* \"#utility.yul\":8363:8440   */\n      0x4e487b7100000000000000000000000000000000000000000000000000000000\n        /* \"#utility.yul\":8360:8361   */\n      0x00\n        /* \"#utility.yul\":8353:8441   */\n      mstore\n        /* \"#utility.yul\":8460:8464   */\n      0x12\n        /* \"#utility.yul\":8457:8458   */\n      0x04\n        /* \"#utility.yul\":8450:8465   */\n      mstore\n        /* \"#utility.yul\":8484:8488   */\n      0x24\n        /* \"#utility.yul\":8481:8482   */\n      0x00\n        /* \"#utility.yul\":8474:8489   */\n      revert\n        /* \"#utility.yul\":8501:8686   */\n    tag_108:\n        /* \"#utility.yul\":8541:8542   */\n      0x00\n        /* \"#utility.yul\":8558:8578   */\n      tag_293\n        /* \"#utility.yul\":8576:8577   */\n      dup3\n        /* \"#utility.yul\":8558:8578   */\n      tag_152\n      jump\t// in\n    tag_293:\n        /* \"#utility.yul\":8553:8578   */\n      swap2\n      pop\n        /* \"#utility.yul\":8592:8612   */\n      tag_294\n        /* \"#utility.yul\":8610:8611   */\n      dup4\n        /* \"#utility.yul\":8592:8612   */\n      tag_152\n      jump\t// in\n    tag_294:\n        /* \"#utility.yul\":8587:8612   */\n      swap3\n      pop\n        /* \"#utility.yul\":8631:8632   */\n      dup3\n        /* \"#utility.yul\":8621:8656   */\n      tag_295\n      jumpi\n        /* \"#utility.yul\":8636:8654   */\n      tag_296\n      tag_182\n      jump\t// in\n    tag_296:\n        /* \"#utility.yul\":8621:8656   */\n    tag_295:\n        /* \"#utility.yul\":8678:8679   */\n      dup3\n        /* \"#utility.yul\":8675:8676   */\n      dup3\n        /* \"#utility.yul\":8671:8680   */\n      div\n        /* \"#utility.yul\":8666:8680   */\n      swap1\n      pop\n        /* \"#utility.yul\":8501:8686   */\n      swap3\n      swap2\n      pop\n      pop\n      jump\t// out\n        /* \"#utility.yul\":8692:8809   */\n    tag_183:\n        /* \"#utility.yul\":8801:8802   */\n      0x00\n        /* \"#utility.yul\":8798:8799   */\n      dup1\n        /* \"#utility.yul\":8791:8803   */\n      revert\n        /* \"#utility.yul\":8815:8917   */\n    tag_184:\n        /* \"#utility.yul\":8856:8862   */\n      0x00\n        /* \"#utility.yul\":8907:8909   */\n      0x1f\n        /* \"#utility.yul\":8903:8910   */\n      not\n        /* \"#utility.yul\":8898:8900   */\n      0x1f\n        /* \"#utility.yul\":8891:8896   */\n      dup4\n        /* \"#utility.yul\":8887:8901   */\n      add\n        /* \"#utility.yul\":8883:8911   */\n      and\n        /* \"#utility.yul\":8873:8911   */\n      swap1\n      pop\n        /* \"#utility.yul\":8815:8917   */\n      swap2\n      swap1\n      pop\n      jump\t// out\n        /* \"#utility.yul\":8923:9103   */\n    tag_185:\n        /* \"#utility.yul\":8971:9048   */\n      0x4e487b7100000000000000000000000000000000000000000000000000000000\n        /* \"#utility.yul\":8968:8969   */\n      0x00\n        /* \"#utility.yul\":8961:9049   */\n      mstore\n        /* \"#utility.yul\":9068:9072   */\n      0x41\n        /* \"#utility.yul\":9065:9066   */\n      0x04\n        /* \"#utility.yul\":9058:9073   */\n      mstore\n        /* \"#utility.yul\":9092:9096   */\n      0x24\n        /* \"#utility.yul\":9089:9090   */\n      0x00\n        /* \"#utility.yul\":9082:9097   */\n      revert\n        /* \"#utility.yul\":9109:9390   */\n    tag_186:\n        /* \"#utility.yul\":9192:9219   */\n      tag_301\n        /* \"#utility.yul\":9214:9218   */\n      dup3\n        /* \"#utility.yul\":9192:9219   */\n      tag_184\n      jump\t// in\n    tag_301:\n        /* \"#utility.yul\":9184:9190   */\n      dup2\n        /* \"#utility.yul\":9180:9220   */\n      add\n        /* \"#utility.yul\":9322:9328   */\n      dup2\n        /* \"#utility.yul\":9310:9320   */\n      dup2\n        /* \"#utility.yul\":9307:9329   */\n      lt\n        /* \"#utility.yul\":9286:9304   */\n      0xffffffffffffffff\n        /* \"#utility.yul\":9274:9284   */\n      dup3\n        /* \"#utility.yul\":9271:9305   */\n      gt\n        /* \"#utility.yul\":9268:9330   */\n      or\n        /* \"#utility.yul\":9265:9353   */\n      iszero\n      tag_302\n      jumpi\n        /* \"#utility.yul\":9333:9351   */\n      tag_303\n      tag_185\n      jump\t// in\n    tag_303:\n        /* \"#utility.yul\":9265:9353   */\n    tag_302:\n        /* \"#utility.yul\":9373:9383   */\n      dup1\n        /* \"#utility.yul\":9369:9371   */\n      0x40\n        /* \"#utility.yul\":9362:9384   */\n      mstore\n        /* \"#utility.yul\":9152:9390   */\n      pop\n        /* \"#utility.yul\":9109:9390   */\n      pop\n      pop\n      jump\t// out\n        /* \"#utility.yul\":9396:9525   */\n    tag_187:\n        /* \"#utility.yul\":9430:9436   */\n      0x00\n        /* \"#utility.yul\":9457:9477   */\n      tag_305\n      tag_154\n      jump\t// in\n    tag_305:\n        /* \"#utility.yul\":9447:9477   */\n      swap1\n      pop\n        /* \"#utility.yul\":9486:9519   */\n      tag_306\n        /* \"#utility.yul\":9514:9518   */\n      dup3\n        /* \"#utility.yul\":9506:9512   */\n      dup3\n        /* \"#utility.yul\":9486:9519   */\n      tag_186\n      jump\t// in\n    tag_306:\n        /* \"#utility.yul\":9396:9525   */\n      swap2\n      swap1\n      pop\n      jump\t// out\n        /* \"#utility.yul\":9531:9842   */\n    tag_188:\n        /* \"#utility.yul\":9608:9612   */\n      0x00\n        /* \"#utility.yul\":9698:9716   */\n      0xffffffffffffffff\n        /* \"#utility.yul\":9690:9696   */\n      dup3\n        /* \"#utility.yul\":9687:9717   */\n      gt\n        /* \"#utility.yul\":9684:9740   */\n      iszero\n      tag_308\n      jumpi\n        /* \"#utility.yul\":9720:9738   */\n      tag_309\n      tag_185\n      jump\t// in\n    tag_309:\n        /* \"#utility.yul\":9684:9740   */\n    tag_308:\n        /* \"#utility.yul\":9770:9774   */\n      0x20\n        /* \"#utility.yul\":9762:9768   */\n      dup3\n        /* \"#utility.yul\":9758:9775   */\n      mul\n        /* \"#utility.yul\":9750:9775   */\n      swap1\n      pop\n        /* \"#utility.yul\":9830:9834   */\n      0x20\n        /* \"#utility.yul\":9824:9828   */\n      dup2\n        /* \"#utility.yul\":9820:9835   */\n      add\n        /* \"#utility.yul\":9812:9835   */\n      swap1\n      pop\n        /* \"#utility.yul\":9531:9842   */\n      swap2\n      swap1\n      pop\n      jump\t// out\n        /* \"#utility.yul\":9848:9965   */\n    tag_189:\n        /* \"#utility.yul\":9957:9958   */\n      0x00\n        /* \"#utility.yul\":9954:9955   */\n      dup1\n        /* \"#utility.yul\":9947:9959   */\n      revert\n        /* \"#utility.yul\":9971:10114   */\n    tag_190:\n        /* \"#utility.yul\":10028:10033   */\n      0x00\n        /* \"#utility.yul\":10059:10065   */\n      dup2\n        /* \"#utility.yul\":10053:10066   */\n      mload\n        /* \"#utility.yul\":10044:10066   */\n      swap1\n      pop\n        /* \"#utility.yul\":10075:10108   */\n      tag_312\n        /* \"#utility.yul\":10102:10107   */\n      dup2\n        /* \"#utility.yul\":10075:10108   */\n      tag_157\n      jump\t// in\n    tag_312:\n        /* \"#utility.yul\":9971:10114   */\n      swap3\n      swap2\n      pop\n      pop\n      jump\t// out\n        /* \"#utility.yul\":10137:10869   */\n    tag_191:\n        /* \"#utility.yul\":10244:10249   */\n      0x00\n        /* \"#utility.yul\":10269:10350   */\n      tag_314\n        /* \"#utility.yul\":10285:10349   */\n      tag_315\n        /* \"#utility.yul\":10342:10348   */\n      dup5\n        /* \"#utility.yul\":10285:10349   */\n      tag_188\n      jump\t// in\n    tag_315:\n        /* \"#utility.yul\":10269:10350   */\n      tag_187\n      jump\t// in\n    tag_314:\n        /* \"#utility.yul\":10260:10350   */\n      swap1\n      pop\n        /* \"#utility.yul\":10370:10375   */\n      dup1\n        /* \"#utility.yul\":10399:10405   */\n      dup4\n        /* \"#utility.yul\":10392:10397   */\n      dup3\n        /* \"#utility.yul\":10385:10406   */\n      mstore\n        /* \"#utility.yul\":10433:10437   */\n      0x20\n        /* \"#utility.yul\":10426:10431   */\n      dup3\n        /* \"#utility.yul\":10422:10438   */\n      add\n        /* \"#utility.yul\":10415:10438   */\n      swap1\n      pop\n        /* \"#utility.yul\":10486:10490   */\n      0x20\n        /* \"#utility.yul\":10478:10484   */\n      dup5\n        /* \"#utility.yul\":10474:10491   */\n      mul\n        /* \"#utility.yul\":10466:10472   */\n      dup4\n        /* \"#utility.yul\":10462:10492   */\n      add\n        /* \"#utility.yul\":10515:10518   */\n      dup6\n        /* \"#utility.yul\":10507:10513   */\n      dup2\n        /* \"#utility.yul\":10504:10519   */\n      gt\n        /* \"#utility.yul\":10501:10623   */\n      iszero\n      tag_316\n      jumpi\n        /* \"#utility.yul\":10534:10613   */\n      tag_317\n      tag_189\n      jump\t// in\n    tag_317:\n        /* \"#utility.yul\":10501:10623   */\n    tag_316:\n        /* \"#utility.yul\":10649:10655   */\n      dup4\n        /* \"#utility.yul\":10632:10863   */\n    tag_318:\n        /* \"#utility.yul\":10666:10672   */\n      dup2\n        /* \"#utility.yul\":10661:10664   */\n      dup2\n        /* \"#utility.yul\":10658:10673   */\n      lt\n        /* \"#utility.yul\":10632:10863   */\n      iszero\n      tag_320\n      jumpi\n        /* \"#utility.yul\":10741:10744   */\n      dup1\n        /* \"#utility.yul\":10770:10818   */\n      tag_321\n        /* \"#utility.yul\":10814:10817   */\n      dup9\n        /* \"#utility.yul\":10802:10812   */\n      dup3\n        /* \"#utility.yul\":10770:10818   */\n      tag_190\n      jump\t// in\n    tag_321:\n        /* \"#utility.yul\":10765:10768   */\n      dup5\n        /* \"#utility.yul\":10758:10819   */\n      mstore\n        /* \"#utility.yul\":10848:10852   */\n      0x20\n        /* \"#utility.yul\":10843:10846   */\n      dup5\n        /* \"#utility.yul\":10839:10853   */\n      add\n        /* \"#utility.yul\":10832:10853   */\n      swap4\n      pop\n        /* \"#utility.yul\":10708:10863   */\n      pop\n        /* \"#utility.yul\":10692:10696   */\n      0x20\n        /* \"#utility.yul\":10687:10690   */\n      dup2\n        /* \"#utility.yul\":10683:10697   */\n      add\n        /* \"#utility.yul\":10676:10697   */\n      swap1\n      pop\n        /* \"#utility.yul\":10632:10863   */\n      jump(tag_318)\n    tag_320:\n        /* \"#utility.yul\":10636:10657   */\n      pop\n        /* \"#utility.yul\":10250:10869   */\n      pop\n      pop\n        /* \"#utility.yul\":10137:10869   */\n      swap4\n      swap3\n      pop\n      pop\n      pop\n      jump\t// out\n        /* \"#utility.yul\":10892:11277   */\n    tag_192:\n        /* \"#utility.yul\":10974:10979   */\n      0x00\n        /* \"#utility.yul\":11023:11026   */\n      dup3\n        /* \"#utility.yul\":11016:11020   */\n      0x1f\n        /* \"#utility.yul\":11008:11014   */\n      dup4\n        /* \"#utility.yul\":11004:11021   */\n      add\n        /* \"#utility.yul\":11000:11027   */\n      slt\n        /* \"#utility.yul\":10990:11112   */\n      tag_323\n      jumpi\n        /* \"#utility.yul\":11031:11110   */\n      tag_324\n      tag_183\n      jump\t// in\n    tag_324:\n        /* \"#utility.yul\":10990:11112   */\n    tag_323:\n        /* \"#utility.yul\":11141:11147   */\n      dup2\n        /* \"#utility.yul\":11135:11148   */\n      mload\n        /* \"#utility.yul\":11166:11271   */\n      tag_325\n        /* \"#utility.yul\":11267:11270   */\n      dup5\n        /* \"#utility.yul\":11259:11265   */\n      dup3\n        /* \"#utility.yul\":11252:11256   */\n      0x20\n        /* \"#utility.yul\":11244:11250   */\n      dup7\n        /* \"#utility.yul\":11240:11257   */\n      add\n        /* \"#utility.yul\":11166:11271   */\n      tag_191\n      jump\t// in\n    tag_325:\n        /* \"#utility.yul\":11157:11271   */\n      swap2\n      pop\n        /* \"#utility.yul\":10980:11277   */\n      pop\n        /* \"#utility.yul\":10892:11277   */\n      swap3\n      swap2\n      pop\n      pop\n      jump\t// out\n        /* \"#utility.yul\":11283:11837   */\n    tag_114:\n        /* \"#utility.yul\":11378:11384   */\n      0x00\n        /* \"#utility.yul\":11427:11429   */\n      0x20\n        /* \"#utility.yul\":11415:11424   */\n      dup3\n        /* \"#utility.yul\":11406:11413   */\n      dup5\n        /* \"#utility.yul\":11402:11425   */\n      sub\n        /* \"#utility.yul\":11398:11430   */\n      slt\n        /* \"#utility.yul\":11395:11514   */\n      iszero\n      tag_327\n      jumpi\n        /* \"#utility.yul\":11433:11512   */\n      tag_328\n      tag_155\n      jump\t// in\n    tag_328:\n        /* \"#utility.yul\":11395:11514   */\n    tag_327:\n        /* \"#utility.yul\":11574:11575   */\n      0x00\n        /* \"#utility.yul\":11563:11572   */\n      dup3\n        /* \"#utility.yul\":11559:11576   */\n      add\n        /* \"#utility.yul\":11553:11577   */\n      mload\n        /* \"#utility.yul\":11604:11622   */\n      0xffffffffffffffff\n        /* \"#utility.yul\":11596:11602   */\n      dup2\n        /* \"#utility.yul\":11593:11623   */\n      gt\n        /* \"#utility.yul\":11590:11707   */\n      iszero\n      tag_329\n      jumpi\n        /* \"#utility.yul\":11626:11705   */\n      tag_330\n      tag_156\n      jump\t// in\n    tag_330:\n        /* \"#utility.yul\":11590:11707   */\n    tag_329:\n        /* \"#utility.yul\":11731:11820   */\n      tag_331\n        /* \"#utility.yul\":11812:11819   */\n      dup5\n        /* \"#utility.yul\":11803:11809   */\n      dup3\n        /* \"#utility.yul\":11792:11801   */\n      dup6\n        /* \"#utility.yul\":11788:11810   */\n      add\n        /* \"#utility.yul\":11731:11820   */\n      tag_192\n      jump\t// in\n    tag_331:\n        /* \"#utility.yul\":11721:11820   */\n      swap2\n      pop\n        /* \"#utility.yul\":11524:11830   */\n      pop\n        /* \"#utility.yul\":11283:11837   */\n      swap3\n      swap2\n      pop\n      pop\n      jump\t// out\n        /* \"#utility.yul\":11843:12023   */\n    tag_120:\n        /* \"#utility.yul\":11891:11968   */\n      0x4e487b7100000000000000000000000000000000000000000000000000000000\n        /* \"#utility.yul\":11888:11889   */\n      0x00\n        /* \"#utility.yul\":11881:11969   */\n      mstore\n        /* \"#utility.yul\":11988:11992   */\n      0x32\n        /* \"#utility.yul\":11985:11986   */\n      0x04\n        /* \"#utility.yul\":11978:11993   */\n      mstore\n        /* \"#utility.yul\":12012:12016   */\n      0x24\n        /* \"#utility.yul\":12009:12010   */\n      0x00\n        /* \"#utility.yul\":12002:12017   */\n      revert\n        /* \"#utility.yul\":12029:12143   */\n    tag_193:\n        /* \"#utility.yul\":12117:12118   */\n      0x04\n        /* \"#utility.yul\":12110:12115   */\n      dup2\n        /* \"#utility.yul\":12107:12119   */\n      lt\n        /* \"#utility.yul\":12097:12137   */\n      tag_334\n      jumpi\n        /* \"#utility.yul\":12133:12134   */\n      0x00\n        /* \"#utility.yul\":12130:12131   */\n      dup1\n        /* \"#utility.yul\":12123:12135   */\n      revert\n        /* \"#utility.yul\":12097:12137   */\n    tag_334:\n        /* \"#utility.yul\":12029:12143   */\n      pop\n      jump\t// out\n        /* \"#utility.yul\":12149:12322   */\n    tag_194:\n        /* \"#utility.yul\":12221:12226   */\n      0x00\n        /* \"#utility.yul\":12252:12258   */\n      dup2\n        /* \"#utility.yul\":12246:12259   */\n      mload\n        /* \"#utility.yul\":12237:12259   */\n      swap1\n      pop\n        /* \"#utility.yul\":12268:12316   */\n      tag_336\n        /* \"#utility.yul\":12310:12315   */\n      dup2\n        /* \"#utility.yul\":12268:12316   */\n      tag_193\n      jump\t// in\n    tag_336:\n        /* \"#utility.yul\":12149:12322   */\n      swap3\n      swap2\n      pop\n      pop\n      jump\t// out\n        /* \"#utility.yul\":12328:12865   */\n    tag_125:\n        /* \"#utility.yul\":12422:12428   */\n      0x00\n        /* \"#utility.yul\":12430:12436   */\n      dup1\n        /* \"#utility.yul\":12479:12481   */\n      0x40\n        /* \"#utility.yul\":12467:12476   */\n      dup4\n        /* \"#utility.yul\":12458:12465   */\n      dup6\n        /* \"#utility.yul\":12454:12477   */\n      sub\n        /* \"#utility.yul\":12450:12482   */\n      slt\n        /* \"#utility.yul\":12447:12566   */\n      iszero\n      tag_338\n      jumpi\n        /* \"#utility.yul\":12485:12564   */\n      tag_339\n      tag_155\n      jump\t// in\n    tag_339:\n        /* \"#utility.yul\":12447:12566   */\n    tag_338:\n        /* \"#utility.yul\":12605:12606   */\n      0x00\n        /* \"#utility.yul\":12630:12709   */\n      tag_340\n        /* \"#utility.yul\":12701:12708   */\n      dup6\n        /* \"#utility.yul\":12692:12698   */\n      dup3\n        /* \"#utility.yul\":12681:12690   */\n      dup7\n        /* \"#utility.yul\":12677:12699   */\n      add\n        /* \"#utility.yul\":12630:12709   */\n      tag_194\n      jump\t// in\n    tag_340:\n        /* \"#utility.yul\":12620:12709   */\n      swap3\n      pop\n        /* \"#utility.yul\":12576:12719   */\n      pop\n        /* \"#utility.yul\":12758:12760   */\n      0x20\n        /* \"#utility.yul\":12784:12848   */\n      tag_341\n        /* \"#utility.yul\":12840:12847   */\n      dup6\n        /* \"#utility.yul\":12831:12837   */\n      dup3\n        /* \"#utility.yul\":12820:12829   */\n      dup7\n        /* \"#utility.yul\":12816:12838   */\n      add\n        /* \"#utility.yul\":12784:12848   */\n      tag_190\n      jump\t// in\n    tag_341:\n        /* \"#utility.yul\":12774:12848   */\n      swap2\n      pop\n        /* \"#utility.yul\":12729:12858   */\n      pop\n        /* \"#utility.yul\":12328:12865   */\n      swap3\n      pop\n      swap3\n      swap1\n      pop\n      jump\t// out\n        /* \"#utility.yul\":12871:13051   */\n    tag_128:\n        /* \"#utility.yul\":12919:12996   */\n      0x4e487b7100000000000000000000000000000000000000000000000000000000\n        /* \"#utility.yul\":12916:12917   */\n      0x00\n        /* \"#utility.yul\":12909:12997   */\n      mstore\n        /* \"#utility.yul\":13016:13020   */\n      0x21\n        /* \"#utility.yul\":13013:13014   */\n      0x04\n        /* \"#utility.yul\":13006:13021   */\n      mstore\n        /* \"#utility.yul\":13040:13044   */\n      0x24\n        /* \"#utility.yul\":13037:13038   */\n      0x00\n        /* \"#utility.yul\":13030:13045   */\n      revert\n        /* \"#utility.yul\":13057:13136   */\n    tag_195:\n        /* \"#utility.yul\":13096:13103   */\n      0x00\n        /* \"#utility.yul\":13125:13130   */\n      dup2\n        /* \"#utility.yul\":13114:13130   */\n      swap1\n      pop\n        /* \"#utility.yul\":13057:13136   */\n      swap2\n      swap1\n      pop\n      jump\t// out\n        /* \"#utility.yul\":13142:13299   */\n    tag_196:\n        /* \"#utility.yul\":13247:13292   */\n      tag_345\n        /* \"#utility.yul\":13267:13291   */\n      tag_346\n        /* \"#utility.yul\":13285:13290   */\n      dup3\n        /* \"#utility.yul\":13267:13291   */\n      tag_152\n      jump\t// in\n    tag_346:\n        /* \"#utility.yul\":13247:13292   */\n      tag_195\n      jump\t// in\n    tag_345:\n        /* \"#utility.yul\":13242:13245   */\n      dup3\n        /* \"#utility.yul\":13235:13293   */\n      mstore\n        /* \"#utility.yul\":13142:13299   */\n      pop\n      pop\n      jump\t// out\n        /* \"#utility.yul\":13305:13399   */\n    tag_197:\n        /* \"#utility.yul\":13338:13346   */\n      0x00\n        /* \"#utility.yul\":13386:13391   */\n      dup2\n        /* \"#utility.yul\":13382:13384   */\n      0x60\n        /* \"#utility.yul\":13378:13392   */\n      shl\n        /* \"#utility.yul\":13357:13392   */\n      swap1\n      pop\n        /* \"#utility.yul\":13305:13399   */\n      swap2\n      swap1\n      pop\n      jump\t// out\n        /* \"#utility.yul\":13405:13499   */\n    tag_198:\n        /* \"#utility.yul\":13444:13451   */\n      0x00\n        /* \"#utility.yul\":13473:13493   */\n      tag_349\n        /* \"#utility.yul\":13487:13492   */\n      dup3\n        /* \"#utility.yul\":13473:13493   */\n      tag_197\n      jump\t// in\n    tag_349:\n        /* \"#utility.yul\":13462:13493   */\n      swap1\n      pop\n        /* \"#utility.yul\":13405:13499   */\n      swap2\n      swap1\n      pop\n      jump\t// out\n        /* \"#utility.yul\":13505:13605   */\n    tag_199:\n        /* \"#utility.yul\":13544:13551   */\n      0x00\n        /* \"#utility.yul\":13573:13599   */\n      tag_351\n        /* \"#utility.yul\":13593:13598   */\n      dup3\n        /* \"#utility.yul\":13573:13599   */\n      tag_198\n      jump\t// in\n    tag_351:\n        /* \"#utility.yul\":13562:13599   */\n      swap1\n      pop\n        /* \"#utility.yul\":13505:13605   */\n      swap2\n      swap1\n      pop\n      jump\t// out\n        /* \"#utility.yul\":13611:13768   */\n    tag_200:\n        /* \"#utility.yul\":13716:13761   */\n      tag_353\n        /* \"#utility.yul\":13736:13760   */\n      tag_354\n        /* \"#utility.yul\":13754:13759   */\n      dup3\n        /* \"#utility.yul\":13736:13760   */\n      tag_167\n      jump\t// in\n    tag_354:\n        /* \"#utility.yul\":13716:13761   */\n      tag_199\n      jump\t// in\n    tag_353:\n        /* \"#utility.yul\":13711:13714   */\n      dup3\n        /* \"#utility.yul\":13704:13762   */\n      mstore\n        /* \"#utility.yul\":13611:13768   */\n      pop\n      pop\n      jump\t// out\n        /* \"#utility.yul\":13774:14312   */\n    tag_136:\n        /* \"#utility.yul\":13942:13945   */\n      0x00\n        /* \"#utility.yul\":13957:14032   */\n      tag_356\n        /* \"#utility.yul\":14028:14031   */\n      dup3\n        /* \"#utility.yul\":14019:14025   */\n      dup7\n        /* \"#utility.yul\":13957:14032   */\n      tag_196\n      jump\t// in\n    tag_356:\n        /* \"#utility.yul\":14057:14059   */\n      0x20\n        /* \"#utility.yul\":14052:14055   */\n      dup3\n        /* \"#utility.yul\":14048:14060   */\n      add\n        /* \"#utility.yul\":14041:14060   */\n      swap2\n      pop\n        /* \"#utility.yul\":14070:14145   */\n      tag_357\n        /* \"#utility.yul\":14141:14144   */\n      dup3\n        /* \"#utility.yul\":14132:14138   */\n      dup6\n        /* \"#utility.yul\":14070:14145   */\n      tag_196\n      jump\t// in\n    tag_357:\n        /* \"#utility.yul\":14170:14172   */\n      0x20\n        /* \"#utility.yul\":14165:14168   */\n      dup3\n        /* \"#utility.yul\":14161:14173   */\n      add\n        /* \"#utility.yul\":14154:14173   */\n      swap2\n      pop\n        /* \"#utility.yul\":14183:14258   */\n      tag_358\n        /* \"#utility.yul\":14254:14257   */\n      dup3\n        /* \"#utility.yul\":14245:14251   */\n      dup5\n        /* \"#utility.yul\":14183:14258   */\n      tag_200\n      jump\t// in\n    tag_358:\n        /* \"#utility.yul\":14283:14285   */\n      0x14\n        /* \"#utility.yul\":14278:14281   */\n      dup3\n        /* \"#utility.yul\":14274:14286   */\n      add\n        /* \"#utility.yul\":14267:14286   */\n      swap2\n      pop\n        /* \"#utility.yul\":14303:14306   */\n      dup2\n        /* \"#utility.yul\":14296:14306   */\n      swap1\n      pop\n        /* \"#utility.yul\":13774:14312   */\n      swap5\n      swap4\n      pop\n      pop\n      pop\n      pop\n      jump\t// out\n        /* \"#utility.yul\":14318:14494   */\n    tag_138:\n        /* \"#utility.yul\":14350:14351   */\n      0x00\n        /* \"#utility.yul\":14367:14387   */\n      tag_360\n        /* \"#utility.yul\":14385:14386   */\n      dup3\n        /* \"#utility.yul\":14367:14387   */\n      tag_152\n      jump\t// in\n    tag_360:\n        /* \"#utility.yul\":14362:14387   */\n      swap2\n      pop\n        /* \"#utility.yul\":14401:14421   */\n      tag_361\n        /* \"#utility.yul\":14419:14420   */\n      dup4\n        /* \"#utility.yul\":14401:14421   */\n      tag_152\n      jump\t// in\n    tag_361:\n        /* \"#utility.yul\":14396:14421   */\n      swap3\n      pop\n        /* \"#utility.yul\":14440:14441   */\n      dup3\n        /* \"#utility.yul\":14430:14465   */\n      tag_362\n      jumpi\n        /* \"#utility.yul\":14445:14463   */\n      tag_363\n      tag_182\n      jump\t// in\n    tag_363:\n        /* \"#utility.yul\":14430:14465   */\n    tag_362:\n        /* \"#utility.yul\":14486:14487   */\n      dup3\n        /* \"#utility.yul\":14483:14484   */\n      dup3\n        /* \"#utility.yul\":14479:14488   */\n      mod\n        /* \"#utility.yul\":14474:14488   */\n      swap1\n      pop\n        /* \"#utility.yul\":14318:14494   */\n      swap3\n      swap2\n      pop\n      pop\n      jump\t// out\n\n    auxdata: 0xa2646970667358221220bf545811ca0fda6a9f4f8eb62f3da998bdd06f0d07e8f2fc0ab1ebfe7d3364c864736f6c634300081a0033\n}\n",
				"bytecode": {
					"linkReferences": {},
					"object": "608060405260016006556005600755348015610019575f80fd5b50604051611596380380611596833981810160405281019061003b91906102a3565b335f73ffffffffffffffffffffffffffffffffffffffff168173ffffffffffffffffffffffffffffffffffffffff16036100ac575f6040517f1e4fbdf70000000000000000000000000000000000000000000000000000000081526004016100a39190610302565b60405180910390fd5b6100bb8161018460201b60201c565b508260015f6101000a81548173ffffffffffffffffffffffffffffffffffffffff021916908373ffffffffffffffffffffffffffffffffffffffff1602179055508160025f6101000a81548173ffffffffffffffffffffffffffffffffffffffff021916908373ffffffffffffffffffffffffffffffffffffffff1602179055508060035f6101000a81548173ffffffffffffffffffffffffffffffffffffffff021916908373ffffffffffffffffffffffffffffffffffffffff16021790555050505061031b565b5f805f9054906101000a900473ffffffffffffffffffffffffffffffffffffffff169050815f806101000a81548173ffffffffffffffffffffffffffffffffffffffff021916908373ffffffffffffffffffffffffffffffffffffffff1602179055508173ffffffffffffffffffffffffffffffffffffffff168173ffffffffffffffffffffffffffffffffffffffff167f8be0079c531659141344cd1fd0a4f28419497f9722a3daafe3b4186f6b6457e060405160405180910390a35050565b5f80fd5b5f73ffffffffffffffffffffffffffffffffffffffff82169050919050565b5f61027282610249565b9050919050565b61028281610268565b811461028c575f80fd5b50565b5f8151905061029d81610279565b92915050565b5f805f606084860312156102ba576102b9610245565b5b5f6102c78682870161028f565b93505060206102d88682870161028f565b92505060406102e98682870161028f565b9150509250925092565b6102fc81610268565b82525050565b5f6020820190506103155f8301846102f3565b92915050565b61126e806103285f395ff3fe608060405234801561000f575f80fd5b50600436106100a7575f3560e01c80636e8eb1e81161006f5780636e8eb1e81461012b578063715018a6146101475780638da5cb5b14610151578063cb1758981461016f578063f2fde38b1461018d578063fbc1274d146101a9576100a7565b8063345cbc48146100ab57806337984ce0146100b55780635271c083146100d357806355a373d6146100ef5780636a6940cc1461010d575b5f80fd5b6100b36101c7565b005b6100bd61057f565b6040516100ca9190610a91565b60405180910390f35b6100ed60048036038101906100e89190610ae5565b610585565b005b6100f7610597565b6040516101049190610b8a565b60405180910390f35b6101156105bc565b6040516101229190610bc3565b60405180910390f35b61014560048036038101906101409190610ae5565b6105e1565b005b61014f6105f3565b005b610159610606565b6040516101669190610bfc565b60405180910390f35b61017761062d565b6040516101849190610a91565b60405180910390f35b6101a760048036038101906101a29190610c3f565b610633565b005b6101b16106b7565b6040516101be9190610c8a565b60405180910390f35b336101d06106dc565b60055f8373ffffffffffffffffffffffffffffffffffffffff1673ffffffffffffffffffffffffffffffffffffffff1681526020019081526020015f20541015610257575f60045f8373ffffffffffffffffffffffffffffffffffffffff1673ffffffffffffffffffffffffffffffffffffffff1681526020019081526020015f20819055505b3360065460045f8373ffffffffffffffffffffffffffffffffffffffff1673ffffffffffffffffffffffffffffffffffffffff1681526020019081526020015f2054106102d9576040517f08c379a00000000000000000000000000000000000000000000000000000000081526004016102d090610cfd565b60405180910390fd5b6102e2336106f1565b610321576040517f08c379a000000000000000000000000000000000000000000000000000000000815260040161031890610d8b565b60405180910390fd5b6103296106dc565b60055f3373ffffffffffffffffffffffffffffffffffffffff1673ffffffffffffffffffffffffffffffffffffffff1681526020019081526020015f208190555060045f3373ffffffffffffffffffffffffffffffffffffffff1673ffffffffffffffffffffffffffffffffffffffff1681526020019081526020015f205f8154809291906103b790610dd6565b91905055505f60025f9054906101000a900473ffffffffffffffffffffffffffffffffffffffff1673ffffffffffffffffffffffffffffffffffffffff16632cbae7fa336040518263ffffffff1660e01b81526004016104179190610bfc565b602060405180830381865afa158015610432573d5f803e3d5ffd5b505050506040513d601f19601f820116820180604052508101906104569190610e52565b9050806104e55760025f9054906101000a900473ffffffffffffffffffffffffffffffffffffffff1673ffffffffffffffffffffffffffffffffffffffff1663c1b6a1e8336040518263ffffffff1660e01b81526004016104b79190610bfc565b5f604051808303815f87803b1580156104ce575f80fd5b505af11580156104e0573d5f803e3d5ffd5b505050505b5f6104ee6108bd565b905060035f9054906101000a900473ffffffffffffffffffffffffffffffffffffffff1673ffffffffffffffffffffffffffffffffffffffff166340c10f1933836040518363ffffffff1660e01b815260040161054c929190610e7d565b5f604051808303815f87803b158015610563575f80fd5b505af1158015610575573d5f803e3d5ffd5b5050505050505050565b60065481565b61058d61092a565b8060078190555050565b60015f9054906101000a900473ffffffffffffffffffffffffffffffffffffffff1681565b60025f9054906101000a900473ffffffffffffffffffffffffffffffffffffffff1681565b6105e961092a565b8060068190555050565b6105fb61092a565b6106045f6109b1565b565b5f805f9054906101000a900473ffffffffffffffffffffffffffffffffffffffff16905090565b60075481565b61063b61092a565b5f73ffffffffffffffffffffffffffffffffffffffff168173ffffffffffffffffffffffffffffffffffffffff16036106ab575f6040517f1e4fbdf70000000000000000000000000000000000000000000000000000000081526004016106a29190610bfc565b60405180910390fd5b6106b4816109b1565b50565b60035f9054906101000a900473ffffffffffffffffffffffffffffffffffffffff1681565b5f62015180426106ec9190610ed1565b905090565b5f8060015f9054906101000a900473ffffffffffffffffffffffffffffffffffffffff1673ffffffffffffffffffffffffffffffffffffffff166392f2ff80846040518263ffffffff1660e01b815260040161074d9190610bfc565b5f60405180830381865afa158015610767573d5f803e3d5ffd5b505050506040513d5f823e3d601f19601f8201168201806040525081019061078f9190611065565b90505f805b82518110156108b1575f60015f9054906101000a900473ffffffffffffffffffffffffffffffffffffffff1673ffffffffffffffffffffffffffffffffffffffff1663b564ea868584815181106107ee576107ed6110ac565b5b60200260200101516040518263ffffffff1660e01b81526004016108129190610a91565b6040805180830381865afa15801561082c573d5f803e3d5ffd5b505050506040513d601f19601f8201168201806040525081019061085091906110fc565b5090506003808111156108665761086561113a565b5b8160038111156108795761087861113a565b5b036108a357828061088990610dd6565b93505060075483106108a25760019450505050506108b8565b5b508080600101915050610794565b505f925050505b919050565b5f8060644244336040516020016108d6939291906111cc565b604051602081830303815290604052805190602001205f1c6108f89190611208565b9050604681101561090d576064915050610927565b605f8110156109205760c8915050610927565b61012c9150505b90565b610932610a72565b73ffffffffffffffffffffffffffffffffffffffff16610950610606565b73ffffffffffffffffffffffffffffffffffffffff16146109af57610973610a72565b6040517f118cdaa70000000000000000000000000000000000000000000000000000000081526004016109a69190610bfc565b60405180910390fd5b565b5f805f9054906101000a900473ffffffffffffffffffffffffffffffffffffffff169050815f806101000a81548173ffffffffffffffffffffffffffffffffffffffff021916908373ffffffffffffffffffffffffffffffffffffffff1602179055508173ffffffffffffffffffffffffffffffffffffffff168173ffffffffffffffffffffffffffffffffffffffff167f8be0079c531659141344cd1fd0a4f28419497f9722a3daafe3b4186f6b6457e060405160405180910390a35050565b5f33905090565b5f819050919050565b610a8b81610a79565b82525050565b5f602082019050610aa45f830184610a82565b92915050565b5f604051905090565b5f80fd5b5f80fd5b610ac481610a79565b8114610ace575f80fd5b50565b5f81359050610adf81610abb565b92915050565b5f60208284031215610afa57610af9610ab3565b5b5f610b0784828501610ad1565b91505092915050565b5f73ffffffffffffffffffffffffffffffffffffffff82169050919050565b5f819050919050565b5f610b52610b4d610b4884610b10565b610b2f565b610b10565b9050919050565b5f610b6382610b38565b9050919050565b5f610b7482610b59565b9050919050565b610b8481610b6a565b82525050565b5f602082019050610b9d5f830184610b7b565b92915050565b5f610bad82610b59565b9050919050565b610bbd81610ba3565b82525050565b5f602082019050610bd65f830184610bb4565b92915050565b5f610be682610b10565b9050919050565b610bf681610bdc565b82525050565b5f602082019050610c0f5f830184610bed565b92915050565b610c1e81610bdc565b8114610c28575f80fd5b50565b5f81359050610c3981610c15565b92915050565b5f60208284031215610c5457610c53610ab3565b5b5f610c6184828501610c2b565b91505092915050565b5f610c7482610b59565b9050919050565b610c8481610c6a565b82525050565b5f602082019050610c9d5f830184610c7b565b92915050565b5f82825260208201905092915050565b7f4461696c7920626174746c65206c696d697420726561636865640000000000005f82015250565b5f610ce7601a83610ca3565b9150610cf282610cb3565b602082019050919050565b5f6020820190508181035f830152610d1481610cdb565b9050919050565b7f596f75206d757374206f776e206174206c656173742066697665206164756c745f8201527f204e465420746f206578706c6f72652e00000000000000000000000000000000602082015250565b5f610d75603083610ca3565b9150610d8082610d1b565b604082019050919050565b5f6020820190508181035f830152610da281610d69565b9050919050565b7f4e487b71000000000000000000000000000000000000000000000000000000005f52601160045260245ffd5b5f610de082610a79565b91507fffffffffffffffffffffffffffffffffffffffffffffffffffffffffffffffff8203610e1257610e11610da9565b5b600182019050919050565b5f8115159050919050565b610e3181610e1d565b8114610e3b575f80fd5b50565b5f81519050610e4c81610e28565b92915050565b5f60208284031215610e6757610e66610ab3565b5b5f610e7484828501610e3e565b91505092915050565b5f604082019050610e905f830185610bed565b610e9d6020830184610a82565b9392505050565b7f4e487b71000000000000000000000000000000000000000000000000000000005f52601260045260245ffd5b5f610edb82610a79565b9150610ee683610a79565b925082610ef657610ef5610ea4565b5b828204905092915050565b5f80fd5b5f601f19601f8301169050919050565b7f4e487b71000000000000000000000000000000000000000000000000000000005f52604160045260245ffd5b610f4b82610f05565b810181811067ffffffffffffffff82111715610f6a57610f69610f15565b5b80604052505050565b5f610f7c610aaa565b9050610f888282610f42565b919050565b5f67ffffffffffffffff821115610fa757610fa6610f15565b5b602082029050602081019050919050565b5f80fd5b5f81519050610fca81610abb565b92915050565b5f610fe2610fdd84610f8d565b610f73565b9050808382526020820190506020840283018581111561100557611004610fb8565b5b835b8181101561102e578061101a8882610fbc565b845260208401935050602081019050611007565b5050509392505050565b5f82601f83011261104c5761104b610f01565b5b815161105c848260208601610fd0565b91505092915050565b5f6020828403121561107a57611079610ab3565b5b5f82015167ffffffffffffffff81111561109757611096610ab7565b5b6110a384828501611038565b91505092915050565b7f4e487b71000000000000000000000000000000000000000000000000000000005f52603260045260245ffd5b600481106110e5575f80fd5b50565b5f815190506110f6816110d9565b92915050565b5f806040838503121561111257611111610ab3565b5b5f61111f858286016110e8565b925050602061113085828601610fbc565b9150509250929050565b7f4e487b71000000000000000000000000000000000000000000000000000000005f52602160045260245ffd5b5f819050919050565b61118161117c82610a79565b611167565b82525050565b5f8160601b9050919050565b5f61119d82611187565b9050919050565b5f6111ae82611193565b9050919050565b6111c66111c182610bdc565b6111a4565b82525050565b5f6111d78286611170565b6020820191506111e78285611170565b6020820191506111f782846111b5565b601482019150819050949350505050565b5f61121282610a79565b915061121d83610a79565b92508261122d5761122c610ea4565b5b82820690509291505056fea2646970667358221220bf545811ca0fda6a9f4f8eb62f3da998bdd06f0d07e8f2fc0ab1ebfe7d3364c864736f6c634300081a0033",
					"opcodes": "PUSH1 0x80 PUSH1 0x40 MSTORE PUSH1 0x1 PUSH1 0x6 SSTORE PUSH1 0x5 PUSH1 0x7 SSTORE CALLVALUE DUP1 ISZERO PUSH2 0x19 JUMPI PUSH0 DUP1 REVERT JUMPDEST POP PUSH1 0x40 MLOAD PUSH2 0x1596 CODESIZE SUB DUP1 PUSH2 0x1596 DUP4 CODECOPY DUP2 DUP2 ADD PUSH1 0x40 MSTORE DUP2 ADD SWAP1 PUSH2 0x3B SWAP2 SWAP1 PUSH2 0x2A3 JUMP JUMPDEST CALLER PUSH0 PUSH20 0xFFFFFFFFFFFFFFFFFFFFFFFFFFFFFFFFFFFFFFFF AND DUP2 PUSH20 0xFFFFFFFFFFFFFFFFFFFFFFFFFFFFFFFFFFFFFFFF AND SUB PUSH2 0xAC JUMPI PUSH0 PUSH1 0x40 MLOAD PUSH32 0x1E4FBDF700000000000000000000000000000000000000000000000000000000 DUP2 MSTORE PUSH1 0x4 ADD PUSH2 0xA3 SWAP2 SWAP1 PUSH2 0x302 JUMP JUMPDEST PUSH1 0x40 MLOAD DUP1 SWAP2 SUB SWAP1 REVERT JUMPDEST PUSH2 0xBB DUP2 PUSH2 0x184 PUSH1 0x20 SHL PUSH1 0x20 SHR JUMP JUMPDEST POP DUP3 PUSH1 0x1 PUSH0 PUSH2 0x100 EXP DUP2 SLOAD DUP2 PUSH20 0xFFFFFFFFFFFFFFFFFFFFFFFFFFFFFFFFFFFFFFFF MUL NOT AND SWAP1 DUP4 PUSH20 0xFFFFFFFFFFFFFFFFFFFFFFFFFFFFFFFFFFFFFFFF AND MUL OR SWAP1 SSTORE POP DUP2 PUSH1 0x2 PUSH0 PUSH2 0x100 EXP DUP2 SLOAD DUP2 PUSH20 0xFFFFFFFFFFFFFFFFFFFFFFFFFFFFFFFFFFFFFFFF MUL NOT AND SWAP1 DUP4 PUSH20 0xFFFFFFFFFFFFFFFFFFFFFFFFFFFFFFFFFFFFFFFF AND MUL OR SWAP1 SSTORE POP DUP1 PUSH1 0x3 PUSH0 PUSH2 0x100 EXP DUP2 SLOAD DUP2 PUSH20 0xFFFFFFFFFFFFFFFFFFFFFFFFFFFFFFFFFFFFFFFF MUL NOT AND SWAP1 DUP4 PUSH20 0xFFFFFFFFFFFFFFFFFFFFFFFFFFFFFFFFFFFFFFFF AND MUL OR SWAP1 SSTORE POP POP POP POP PUSH2 0x31B JUMP JUMPDEST PUSH0 DUP1 PUSH0 SWAP1 SLOAD SWAP1 PUSH2 0x100 EXP SWAP1 DIV PUSH20 0xFFFFFFFFFFFFFFFFFFFFFFFFFFFFFFFFFFFFFFFF AND SWAP1 POP DUP2 PUSH0 DUP1 PUSH2 0x100 EXP DUP2 SLOAD DUP2 PUSH20 0xFFFFFFFFFFFFFFFFFFFFFFFFFFFFFFFFFFFFFFFF MUL NOT AND SWAP1 DUP4 PUSH20 0xFFFFFFFFFFFFFFFFFFFFFFFFFFFFFFFFFFFFFFFF AND MUL OR SWAP1 SSTORE POP DUP2 PUSH20 0xFFFFFFFFFFFFFFFFFFFFFFFFFFFFFFFFFFFFFFFF AND DUP2 PUSH20 0xFFFFFFFFFFFFFFFFFFFFFFFFFFFFFFFFFFFFFFFF AND PUSH32 0x8BE0079C531659141344CD1FD0A4F28419497F9722A3DAAFE3B4186F6B6457E0 PUSH1 0x40 MLOAD PUSH1 0x40 MLOAD DUP1 SWAP2 SUB SWAP1 LOG3 POP POP JUMP JUMPDEST PUSH0 DUP1 REVERT JUMPDEST PUSH0 PUSH20 0xFFFFFFFFFFFFFFFFFFFFFFFFFFFFFFFFFFFFFFFF DUP3 AND SWAP1 POP SWAP2 SWAP1 POP JUMP JUMPDEST PUSH0 PUSH2 0x272 DUP3 PUSH2 0x249 JUMP JUMPDEST SWAP1 POP SWAP2 SWAP1 POP JUMP JUMPDEST PUSH2 0x282 DUP2 PUSH2 0x268 JUMP JUMPDEST DUP2 EQ PUSH2 0x28C JUMPI PUSH0 DUP1 REVERT JUMPDEST POP JUMP JUMPDEST PUSH0 DUP2 MLOAD SWAP1 POP PUSH2 0x29D DUP2 PUSH2 0x279 JUMP JUMPDEST SWAP3 SWAP2 POP POP JUMP JUMPDEST PUSH0 DUP1 PUSH0 PUSH1 0x60 DUP5 DUP7 SUB SLT ISZERO PUSH2 0x2BA JUMPI PUSH2 0x2B9 PUSH2 0x245 JUMP JUMPDEST JUMPDEST PUSH0 PUSH2 0x2C7 DUP7 DUP3 DUP8 ADD PUSH2 0x28F JUMP JUMPDEST SWAP4 POP POP PUSH1 0x20 PUSH2 0x2D8 DUP7 DUP3 DUP8 ADD PUSH2 0x28F JUMP JUMPDEST SWAP3 POP POP PUSH1 0x40 PUSH2 0x2E9 DUP7 DUP3 DUP8 ADD PUSH2 0x28F JUMP JUMPDEST SWAP2 POP POP SWAP3 POP SWAP3 POP SWAP3 JUMP JUMPDEST PUSH2 0x2FC DUP2 PUSH2 0x268 JUMP JUMPDEST DUP3 MSTORE POP POP JUMP JUMPDEST PUSH0 PUSH1 0x20 DUP3 ADD SWAP1 POP PUSH2 0x315 PUSH0 DUP4 ADD DUP5 PUSH2 0x2F3 JUMP JUMPDEST SWAP3 SWAP2 POP POP JUMP JUMPDEST PUSH2 0x126E DUP1 PUSH2 0x328 PUSH0 CODECOPY PUSH0 RETURN INVALID PUSH1 0x80 PUSH1 0x40 MSTORE CALLVALUE DUP1 ISZERO PUSH2 0xF JUMPI PUSH0 DUP1 REVERT JUMPDEST POP PUSH1 0x4 CALLDATASIZE LT PUSH2 0xA7 JUMPI PUSH0 CALLDATALOAD PUSH1 0xE0 SHR DUP1 PUSH4 0x6E8EB1E8 GT PUSH2 0x6F JUMPI DUP1 PUSH4 0x6E8EB1E8 EQ PUSH2 0x12B JUMPI DUP1 PUSH4 0x715018A6 EQ PUSH2 0x147 JUMPI DUP1 PUSH4 0x8DA5CB5B EQ PUSH2 0x151 JUMPI DUP1 PUSH4 0xCB175898 EQ PUSH2 0x16F JUMPI DUP1 PUSH4 0xF2FDE38B EQ PUSH2 0x18D JUMPI DUP1 PUSH4 0xFBC1274D EQ PUSH2 0x1A9 JUMPI PUSH2 0xA7 JUMP JUMPDEST DUP1 PUSH4 0x345CBC48 EQ PUSH2 0xAB JUMPI DUP1 PUSH4 0x37984CE0 EQ PUSH2 0xB5 JUMPI DUP1 PUSH4 0x5271C083 EQ PUSH2 0xD3 JUMPI DUP1 PUSH4 0x55A373D6 EQ PUSH2 0xEF JUMPI DUP1 PUSH4 0x6A6940CC EQ PUSH2 0x10D JUMPI JUMPDEST PUSH0 DUP1 REVERT JUMPDEST PUSH2 0xB3 PUSH2 0x1C7 JUMP JUMPDEST STOP JUMPDEST PUSH2 0xBD PUSH2 0x57F JUMP JUMPDEST PUSH1 0x40 MLOAD PUSH2 0xCA SWAP2 SWAP1 PUSH2 0xA91 JUMP JUMPDEST PUSH1 0x40 MLOAD DUP1 SWAP2 SUB SWAP1 RETURN JUMPDEST PUSH2 0xED PUSH1 0x4 DUP1 CALLDATASIZE SUB DUP2 ADD SWAP1 PUSH2 0xE8 SWAP2 SWAP1 PUSH2 0xAE5 JUMP JUMPDEST PUSH2 0x585 JUMP JUMPDEST STOP JUMPDEST PUSH2 0xF7 PUSH2 0x597 JUMP JUMPDEST PUSH1 0x40 MLOAD PUSH2 0x104 SWAP2 SWAP1 PUSH2 0xB8A JUMP JUMPDEST PUSH1 0x40 MLOAD DUP1 SWAP2 SUB SWAP1 RETURN JUMPDEST PUSH2 0x115 PUSH2 0x5BC JUMP JUMPDEST PUSH1 0x40 MLOAD PUSH2 0x122 SWAP2 SWAP1 PUSH2 0xBC3 JUMP JUMPDEST PUSH1 0x40 MLOAD DUP1 SWAP2 SUB SWAP1 RETURN JUMPDEST PUSH2 0x145 PUSH1 0x4 DUP1 CALLDATASIZE SUB DUP2 ADD SWAP1 PUSH2 0x140 SWAP2 SWAP1 PUSH2 0xAE5 JUMP JUMPDEST PUSH2 0x5E1 JUMP JUMPDEST STOP JUMPDEST PUSH2 0x14F PUSH2 0x5F3 JUMP JUMPDEST STOP JUMPDEST PUSH2 0x159 PUSH2 0x606 JUMP JUMPDEST PUSH1 0x40 MLOAD PUSH2 0x166 SWAP2 SWAP1 PUSH2 0xBFC JUMP JUMPDEST PUSH1 0x40 MLOAD DUP1 SWAP2 SUB SWAP1 RETURN JUMPDEST PUSH2 0x177 PUSH2 0x62D JUMP JUMPDEST PUSH1 0x40 MLOAD PUSH2 0x184 SWAP2 SWAP1 PUSH2 0xA91 JUMP JUMPDEST PUSH1 0x40 MLOAD DUP1 SWAP2 SUB SWAP1 RETURN JUMPDEST PUSH2 0x1A7 PUSH1 0x4 DUP1 CALLDATASIZE SUB DUP2 ADD SWAP1 PUSH2 0x1A2 SWAP2 SWAP1 PUSH2 0xC3F JUMP JUMPDEST PUSH2 0x633 JUMP JUMPDEST STOP JUMPDEST PUSH2 0x1B1 PUSH2 0x6B7 JUMP JUMPDEST PUSH1 0x40 MLOAD PUSH2 0x1BE SWAP2 SWAP1 PUSH2 0xC8A JUMP JUMPDEST PUSH1 0x40 MLOAD DUP1 SWAP2 SUB SWAP1 RETURN JUMPDEST CALLER PUSH2 0x1D0 PUSH2 0x6DC JUMP JUMPDEST PUSH1 0x5 PUSH0 DUP4 PUSH20 0xFFFFFFFFFFFFFFFFFFFFFFFFFFFFFFFFFFFFFFFF AND PUSH20 0xFFFFFFFFFFFFFFFFFFFFFFFFFFFFFFFFFFFFFFFF AND DUP2 MSTORE PUSH1 0x20 ADD SWAP1 DUP2 MSTORE PUSH1 0x20 ADD PUSH0 KECCAK256 SLOAD LT ISZERO PUSH2 0x257 JUMPI PUSH0 PUSH1 0x4 PUSH0 DUP4 PUSH20 0xFFFFFFFFFFFFFFFFFFFFFFFFFFFFFFFFFFFFFFFF AND PUSH20 0xFFFFFFFFFFFFFFFFFFFFFFFFFFFFFFFFFFFFFFFF AND DUP2 MSTORE PUSH1 0x20 ADD SWAP1 DUP2 MSTORE PUSH1 0x20 ADD PUSH0 KECCAK256 DUP2 SWAP1 SSTORE POP JUMPDEST CALLER PUSH1 0x6 SLOAD PUSH1 0x4 PUSH0 DUP4 PUSH20 0xFFFFFFFFFFFFFFFFFFFFFFFFFFFFFFFFFFFFFFFF AND PUSH20 0xFFFFFFFFFFFFFFFFFFFFFFFFFFFFFFFFFFFFFFFF AND DUP2 MSTORE PUSH1 0x20 ADD SWAP1 DUP2 MSTORE PUSH1 0x20 ADD PUSH0 KECCAK256 SLOAD LT PUSH2 0x2D9 JUMPI PUSH1 0x40 MLOAD PUSH32 0x8C379A000000000000000000000000000000000000000000000000000000000 DUP2 MSTORE PUSH1 0x4 ADD PUSH2 0x2D0 SWAP1 PUSH2 0xCFD JUMP JUMPDEST PUSH1 0x40 MLOAD DUP1 SWAP2 SUB SWAP1 REVERT JUMPDEST PUSH2 0x2E2 CALLER PUSH2 0x6F1 JUMP JUMPDEST PUSH2 0x321 JUMPI PUSH1 0x40 MLOAD PUSH32 0x8C379A000000000000000000000000000000000000000000000000000000000 DUP2 MSTORE PUSH1 0x4 ADD PUSH2 0x318 SWAP1 PUSH2 0xD8B JUMP JUMPDEST PUSH1 0x40 MLOAD DUP1 SWAP2 SUB SWAP1 REVERT JUMPDEST PUSH2 0x329 PUSH2 0x6DC JUMP JUMPDEST PUSH1 0x5 PUSH0 CALLER PUSH20 0xFFFFFFFFFFFFFFFFFFFFFFFFFFFFFFFFFFFFFFFF AND PUSH20 0xFFFFFFFFFFFFFFFFFFFFFFFFFFFFFFFFFFFFFFFF AND DUP2 MSTORE PUSH1 0x20 ADD SWAP1 DUP2 MSTORE PUSH1 0x20 ADD PUSH0 KECCAK256 DUP2 SWAP1 SSTORE POP PUSH1 0x4 PUSH0 CALLER PUSH20 0xFFFFFFFFFFFFFFFFFFFFFFFFFFFFFFFFFFFFFFFF AND PUSH20 0xFFFFFFFFFFFFFFFFFFFFFFFFFFFFFFFFFFFFFFFF AND DUP2 MSTORE PUSH1 0x20 ADD SWAP1 DUP2 MSTORE PUSH1 0x20 ADD PUSH0 KECCAK256 PUSH0 DUP2 SLOAD DUP1 SWAP3 SWAP2 SWAP1 PUSH2 0x3B7 SWAP1 PUSH2 0xDD6 JUMP JUMPDEST SWAP2 SWAP1 POP SSTORE POP PUSH0 PUSH1 0x2 PUSH0 SWAP1 SLOAD SWAP1 PUSH2 0x100 EXP SWAP1 DIV PUSH20 0xFFFFFFFFFFFFFFFFFFFFFFFFFFFFFFFFFFFFFFFF AND PUSH20 0xFFFFFFFFFFFFFFFFFFFFFFFFFFFFFFFFFFFFFFFF AND PUSH4 0x2CBAE7FA CALLER PUSH1 0x40 MLOAD DUP3 PUSH4 0xFFFFFFFF AND PUSH1 0xE0 SHL DUP2 MSTORE PUSH1 0x4 ADD PUSH2 0x417 SWAP2 SWAP1 PUSH2 0xBFC JUMP JUMPDEST PUSH1 0x20 PUSH1 0x40 MLOAD DUP1 DUP4 SUB DUP2 DUP7 GAS STATICCALL ISZERO DUP1 ISZERO PUSH2 0x432 JUMPI RETURNDATASIZE PUSH0 DUP1 RETURNDATACOPY RETURNDATASIZE PUSH0 REVERT JUMPDEST POP POP POP POP PUSH1 0x40 MLOAD RETURNDATASIZE PUSH1 0x1F NOT PUSH1 0x1F DUP3 ADD AND DUP3 ADD DUP1 PUSH1 0x40 MSTORE POP DUP2 ADD SWAP1 PUSH2 0x456 SWAP2 SWAP1 PUSH2 0xE52 JUMP JUMPDEST SWAP1 POP DUP1 PUSH2 0x4E5 JUMPI PUSH1 0x2 PUSH0 SWAP1 SLOAD SWAP1 PUSH2 0x100 EXP SWAP1 DIV PUSH20 0xFFFFFFFFFFFFFFFFFFFFFFFFFFFFFFFFFFFFFFFF AND PUSH20 0xFFFFFFFFFFFFFFFFFFFFFFFFFFFFFFFFFFFFFFFF AND PUSH4 0xC1B6A1E8 CALLER PUSH1 0x40 MLOAD DUP3 PUSH4 0xFFFFFFFF AND PUSH1 0xE0 SHL DUP2 MSTORE PUSH1 0x4 ADD PUSH2 0x4B7 SWAP2 SWAP1 PUSH2 0xBFC JUMP JUMPDEST PUSH0 PUSH1 0x40 MLOAD DUP1 DUP4 SUB DUP2 PUSH0 DUP8 DUP1 EXTCODESIZE ISZERO DUP1 ISZERO PUSH2 0x4CE JUMPI PUSH0 DUP1 REVERT JUMPDEST POP GAS CALL ISZERO DUP1 ISZERO PUSH2 0x4E0 JUMPI RETURNDATASIZE PUSH0 DUP1 RETURNDATACOPY RETURNDATASIZE PUSH0 REVERT JUMPDEST POP POP POP POP JUMPDEST PUSH0 PUSH2 0x4EE PUSH2 0x8BD JUMP JUMPDEST SWAP1 POP PUSH1 0x3 PUSH0 SWAP1 SLOAD SWAP1 PUSH2 0x100 EXP SWAP1 DIV PUSH20 0xFFFFFFFFFFFFFFFFFFFFFFFFFFFFFFFFFFFFFFFF AND PUSH20 0xFFFFFFFFFFFFFFFFFFFFFFFFFFFFFFFFFFFFFFFF AND PUSH4 0x40C10F19 CALLER DUP4 PUSH1 0x40 MLOAD DUP4 PUSH4 0xFFFFFFFF AND PUSH1 0xE0 SHL DUP2 MSTORE PUSH1 0x4 ADD PUSH2 0x54C SWAP3 SWAP2 SWAP1 PUSH2 0xE7D JUMP JUMPDEST PUSH0 PUSH1 0x40 MLOAD DUP1 DUP4 SUB DUP2 PUSH0 DUP8 DUP1 EXTCODESIZE ISZERO DUP1 ISZERO PUSH2 0x563 JUMPI PUSH0 DUP1 REVERT JUMPDEST POP GAS CALL ISZERO DUP1 ISZERO PUSH2 0x575 JUMPI RETURNDATASIZE PUSH0 DUP1 RETURNDATACOPY RETURNDATASIZE PUSH0 REVERT JUMPDEST POP POP POP POP POP POP POP POP JUMP JUMPDEST PUSH1 0x6 SLOAD DUP2 JUMP JUMPDEST PUSH2 0x58D PUSH2 0x92A JUMP JUMPDEST DUP1 PUSH1 0x7 DUP2 SWAP1 SSTORE POP POP JUMP JUMPDEST PUSH1 0x1 PUSH0 SWAP1 SLOAD SWAP1 PUSH2 0x100 EXP SWAP1 DIV PUSH20 0xFFFFFFFFFFFFFFFFFFFFFFFFFFFFFFFFFFFFFFFF AND DUP2 JUMP JUMPDEST PUSH1 0x2 PUSH0 SWAP1 SLOAD SWAP1 PUSH2 0x100 EXP SWAP1 DIV PUSH20 0xFFFFFFFFFFFFFFFFFFFFFFFFFFFFFFFFFFFFFFFF AND DUP2 JUMP JUMPDEST PUSH2 0x5E9 PUSH2 0x92A JUMP JUMPDEST DUP1 PUSH1 0x6 DUP2 SWAP1 SSTORE POP POP JUMP JUMPDEST PUSH2 0x5FB PUSH2 0x92A JUMP JUMPDEST PUSH2 0x604 PUSH0 PUSH2 0x9B1 JUMP JUMPDEST JUMP JUMPDEST PUSH0 DUP1 PUSH0 SWAP1 SLOAD SWAP1 PUSH2 0x100 EXP SWAP1 DIV PUSH20 0xFFFFFFFFFFFFFFFFFFFFFFFFFFFFFFFFFFFFFFFF AND SWAP1 POP SWAP1 JUMP JUMPDEST PUSH1 0x7 SLOAD DUP2 JUMP JUMPDEST PUSH2 0x63B PUSH2 0x92A JUMP JUMPDEST PUSH0 PUSH20 0xFFFFFFFFFFFFFFFFFFFFFFFFFFFFFFFFFFFFFFFF AND DUP2 PUSH20 0xFFFFFFFFFFFFFFFFFFFFFFFFFFFFFFFFFFFFFFFF AND SUB PUSH2 0x6AB JUMPI PUSH0 PUSH1 0x40 MLOAD PUSH32 0x1E4FBDF700000000000000000000000000000000000000000000000000000000 DUP2 MSTORE PUSH1 0x4 ADD PUSH2 0x6A2 SWAP2 SWAP1 PUSH2 0xBFC JUMP JUMPDEST PUSH1 0x40 MLOAD DUP1 SWAP2 SUB SWAP1 REVERT JUMPDEST PUSH2 0x6B4 DUP2 PUSH2 0x9B1 JUMP JUMPDEST POP JUMP JUMPDEST PUSH1 0x3 PUSH0 SWAP1 SLOAD SWAP1 PUSH2 0x100 EXP SWAP1 DIV PUSH20 0xFFFFFFFFFFFFFFFFFFFFFFFFFFFFFFFFFFFFFFFF AND DUP2 JUMP JUMPDEST PUSH0 PUSH3 0x15180 TIMESTAMP PUSH2 0x6EC SWAP2 SWAP1 PUSH2 0xED1 JUMP JUMPDEST SWAP1 POP SWAP1 JUMP JUMPDEST PUSH0 DUP1 PUSH1 0x1 PUSH0 SWAP1 SLOAD SWAP1 PUSH2 0x100 EXP SWAP1 DIV PUSH20 0xFFFFFFFFFFFFFFFFFFFFFFFFFFFFFFFFFFFFFFFF AND PUSH20 0xFFFFFFFFFFFFFFFFFFFFFFFFFFFFFFFFFFFFFFFF AND PUSH4 0x92F2FF80 DUP5 PUSH1 0x40 MLOAD DUP3 PUSH4 0xFFFFFFFF AND PUSH1 0xE0 SHL DUP2 MSTORE PUSH1 0x4 ADD PUSH2 0x74D SWAP2 SWAP1 PUSH2 0xBFC JUMP JUMPDEST PUSH0 PUSH1 0x40 MLOAD DUP1 DUP4 SUB DUP2 DUP7 GAS STATICCALL ISZERO DUP1 ISZERO PUSH2 0x767 JUMPI RETURNDATASIZE PUSH0 DUP1 RETURNDATACOPY RETURNDATASIZE PUSH0 REVERT JUMPDEST POP POP POP POP PUSH1 0x40 MLOAD RETURNDATASIZE PUSH0 DUP3 RETURNDATACOPY RETURNDATASIZE PUSH1 0x1F NOT PUSH1 0x1F DUP3 ADD AND DUP3 ADD DUP1 PUSH1 0x40 MSTORE POP DUP2 ADD SWAP1 PUSH2 0x78F SWAP2 SWAP1 PUSH2 0x1065 JUMP JUMPDEST SWAP1 POP PUSH0 DUP1 JUMPDEST DUP3 MLOAD DUP2 LT ISZERO PUSH2 0x8B1 JUMPI PUSH0 PUSH1 0x1 PUSH0 SWAP1 SLOAD SWAP1 PUSH2 0x100 EXP SWAP1 DIV PUSH20 0xFFFFFFFFFFFFFFFFFFFFFFFFFFFFFFFFFFFFFFFF AND PUSH20 0xFFFFFFFFFFFFFFFFFFFFFFFFFFFFFFFFFFFFFFFF AND PUSH4 0xB564EA86 DUP6 DUP5 DUP2 MLOAD DUP2 LT PUSH2 0x7EE JUMPI PUSH2 0x7ED PUSH2 0x10AC JUMP JUMPDEST JUMPDEST PUSH1 0x20 MUL PUSH1 0x20 ADD ADD MLOAD PUSH1 0x40 MLOAD DUP3 PUSH4 0xFFFFFFFF AND PUSH1 0xE0 SHL DUP2 MSTORE PUSH1 0x4 ADD PUSH2 0x812 SWAP2 SWAP1 PUSH2 0xA91 JUMP JUMPDEST PUSH1 0x40 DUP1 MLOAD DUP1 DUP4 SUB DUP2 DUP7 GAS STATICCALL ISZERO DUP1 ISZERO PUSH2 0x82C JUMPI RETURNDATASIZE PUSH0 DUP1 RETURNDATACOPY RETURNDATASIZE PUSH0 REVERT JUMPDEST POP POP POP POP PUSH1 0x40 MLOAD RETURNDATASIZE PUSH1 0x1F NOT PUSH1 0x1F DUP3 ADD AND DUP3 ADD DUP1 PUSH1 0x40 MSTORE POP DUP2 ADD SWAP1 PUSH2 0x850 SWAP2 SWAP1 PUSH2 0x10FC JUMP JUMPDEST POP SWAP1 POP PUSH1 0x3 DUP1 DUP2 GT ISZERO PUSH2 0x866 JUMPI PUSH2 0x865 PUSH2 0x113A JUMP JUMPDEST JUMPDEST DUP2 PUSH1 0x3 DUP2 GT ISZERO PUSH2 0x879 JUMPI PUSH2 0x878 PUSH2 0x113A JUMP JUMPDEST JUMPDEST SUB PUSH2 0x8A3 JUMPI DUP3 DUP1 PUSH2 0x889 SWAP1 PUSH2 0xDD6 JUMP JUMPDEST SWAP4 POP POP PUSH1 0x7 SLOAD DUP4 LT PUSH2 0x8A2 JUMPI PUSH1 0x1 SWAP5 POP POP POP POP POP PUSH2 0x8B8 JUMP JUMPDEST JUMPDEST POP DUP1 DUP1 PUSH1 0x1 ADD SWAP2 POP POP PUSH2 0x794 JUMP JUMPDEST POP PUSH0 SWAP3 POP POP POP JUMPDEST SWAP2 SWAP1 POP JUMP JUMPDEST PUSH0 DUP1 PUSH1 0x64 TIMESTAMP PREVRANDAO CALLER PUSH1 0x40 MLOAD PUSH1 0x20 ADD PUSH2 0x8D6 SWAP4 SWAP3 SWAP2 SWAP1 PUSH2 0x11CC JUMP JUMPDEST PUSH1 0x40 MLOAD PUSH1 0x20 DUP2 DUP4 SUB SUB DUP2 MSTORE SWAP1 PUSH1 0x40 MSTORE DUP1 MLOAD SWAP1 PUSH1 0x20 ADD KECCAK256 PUSH0 SHR PUSH2 0x8F8 SWAP2 SWAP1 PUSH2 0x1208 JUMP JUMPDEST SWAP1 POP PUSH1 0x46 DUP2 LT ISZERO PUSH2 0x90D JUMPI PUSH1 0x64 SWAP2 POP POP PUSH2 0x927 JUMP JUMPDEST PUSH1 0x5F DUP2 LT ISZERO PUSH2 0x920 JUMPI PUSH1 0xC8 SWAP2 POP POP PUSH2 0x927 JUMP JUMPDEST PUSH2 0x12C SWAP2 POP POP JUMPDEST SWAP1 JUMP JUMPDEST PUSH2 0x932 PUSH2 0xA72 JUMP JUMPDEST PUSH20 0xFFFFFFFFFFFFFFFFFFFFFFFFFFFFFFFFFFFFFFFF AND PUSH2 0x950 PUSH2 0x606 JUMP JUMPDEST PUSH20 0xFFFFFFFFFFFFFFFFFFFFFFFFFFFFFFFFFFFFFFFF AND EQ PUSH2 0x9AF JUMPI PUSH2 0x973 PUSH2 0xA72 JUMP JUMPDEST PUSH1 0x40 MLOAD PUSH32 0x118CDAA700000000000000000000000000000000000000000000000000000000 DUP2 MSTORE PUSH1 0x4 ADD PUSH2 0x9A6 SWAP2 SWAP1 PUSH2 0xBFC JUMP JUMPDEST PUSH1 0x40 MLOAD DUP1 SWAP2 SUB SWAP1 REVERT JUMPDEST JUMP JUMPDEST PUSH0 DUP1 PUSH0 SWAP1 SLOAD SWAP1 PUSH2 0x100 EXP SWAP1 DIV PUSH20 0xFFFFFFFFFFFFFFFFFFFFFFFFFFFFFFFFFFFFFFFF AND SWAP1 POP DUP2 PUSH0 DUP1 PUSH2 0x100 EXP DUP2 SLOAD DUP2 PUSH20 0xFFFFFFFFFFFFFFFFFFFFFFFFFFFFFFFFFFFFFFFF MUL NOT AND SWAP1 DUP4 PUSH20 0xFFFFFFFFFFFFFFFFFFFFFFFFFFFFFFFFFFFFFFFF AND MUL OR SWAP1 SSTORE POP DUP2 PUSH20 0xFFFFFFFFFFFFFFFFFFFFFFFFFFFFFFFFFFFFFFFF AND DUP2 PUSH20 0xFFFFFFFFFFFFFFFFFFFFFFFFFFFFFFFFFFFFFFFF AND PUSH32 0x8BE0079C531659141344CD1FD0A4F28419497F9722A3DAAFE3B4186F6B6457E0 PUSH1 0x40 MLOAD PUSH1 0x40 MLOAD DUP1 SWAP2 SUB SWAP1 LOG3 POP POP JUMP JUMPDEST PUSH0 CALLER SWAP1 POP SWAP1 JUMP JUMPDEST PUSH0 DUP2 SWAP1 POP SWAP2 SWAP1 POP JUMP JUMPDEST PUSH2 0xA8B DUP2 PUSH2 0xA79 JUMP JUMPDEST DUP3 MSTORE POP POP JUMP JUMPDEST PUSH0 PUSH1 0x20 DUP3 ADD SWAP1 POP PUSH2 0xAA4 PUSH0 DUP4 ADD DUP5 PUSH2 0xA82 JUMP JUMPDEST SWAP3 SWAP2 POP POP JUMP JUMPDEST PUSH0 PUSH1 0x40 MLOAD SWAP1 POP SWAP1 JUMP JUMPDEST PUSH0 DUP1 REVERT JUMPDEST PUSH0 DUP1 REVERT JUMPDEST PUSH2 0xAC4 DUP2 PUSH2 0xA79 JUMP JUMPDEST DUP2 EQ PUSH2 0xACE JUMPI PUSH0 DUP1 REVERT JUMPDEST POP JUMP JUMPDEST PUSH0 DUP2 CALLDATALOAD SWAP1 POP PUSH2 0xADF DUP2 PUSH2 0xABB JUMP JUMPDEST SWAP3 SWAP2 POP POP JUMP JUMPDEST PUSH0 PUSH1 0x20 DUP3 DUP5 SUB SLT ISZERO PUSH2 0xAFA JUMPI PUSH2 0xAF9 PUSH2 0xAB3 JUMP JUMPDEST JUMPDEST PUSH0 PUSH2 0xB07 DUP5 DUP3 DUP6 ADD PUSH2 0xAD1 JUMP JUMPDEST SWAP2 POP POP SWAP3 SWAP2 POP POP JUMP JUMPDEST PUSH0 PUSH20 0xFFFFFFFFFFFFFFFFFFFFFFFFFFFFFFFFFFFFFFFF DUP3 AND SWAP1 POP SWAP2 SWAP1 POP JUMP JUMPDEST PUSH0 DUP2 SWAP1 POP SWAP2 SWAP1 POP JUMP JUMPDEST PUSH0 PUSH2 0xB52 PUSH2 0xB4D PUSH2 0xB48 DUP5 PUSH2 0xB10 JUMP JUMPDEST PUSH2 0xB2F JUMP JUMPDEST PUSH2 0xB10 JUMP JUMPDEST SWAP1 POP SWAP2 SWAP1 POP JUMP JUMPDEST PUSH0 PUSH2 0xB63 DUP3 PUSH2 0xB38 JUMP JUMPDEST SWAP1 POP SWAP2 SWAP1 POP JUMP JUMPDEST PUSH0 PUSH2 0xB74 DUP3 PUSH2 0xB59 JUMP JUMPDEST SWAP1 POP SWAP2 SWAP1 POP JUMP JUMPDEST PUSH2 0xB84 DUP2 PUSH2 0xB6A JUMP JUMPDEST DUP3 MSTORE POP POP JUMP JUMPDEST PUSH0 PUSH1 0x20 DUP3 ADD SWAP1 POP PUSH2 0xB9D PUSH0 DUP4 ADD DUP5 PUSH2 0xB7B JUMP JUMPDEST SWAP3 SWAP2 POP POP JUMP JUMPDEST PUSH0 PUSH2 0xBAD DUP3 PUSH2 0xB59 JUMP JUMPDEST SWAP1 POP SWAP2 SWAP1 POP JUMP JUMPDEST PUSH2 0xBBD DUP2 PUSH2 0xBA3 JUMP JUMPDEST DUP3 MSTORE POP POP JUMP JUMPDEST PUSH0 PUSH1 0x20 DUP3 ADD SWAP1 POP PUSH2 0xBD6 PUSH0 DUP4 ADD DUP5 PUSH2 0xBB4 JUMP JUMPDEST SWAP3 SWAP2 POP POP JUMP JUMPDEST PUSH0 PUSH2 0xBE6 DUP3 PUSH2 0xB10 JUMP JUMPDEST SWAP1 POP SWAP2 SWAP1 POP JUMP JUMPDEST PUSH2 0xBF6 DUP2 PUSH2 0xBDC JUMP JUMPDEST DUP3 MSTORE POP POP JUMP JUMPDEST PUSH0 PUSH1 0x20 DUP3 ADD SWAP1 POP PUSH2 0xC0F PUSH0 DUP4 ADD DUP5 PUSH2 0xBED JUMP JUMPDEST SWAP3 SWAP2 POP POP JUMP JUMPDEST PUSH2 0xC1E DUP2 PUSH2 0xBDC JUMP JUMPDEST DUP2 EQ PUSH2 0xC28 JUMPI PUSH0 DUP1 REVERT JUMPDEST POP JUMP JUMPDEST PUSH0 DUP2 CALLDATALOAD SWAP1 POP PUSH2 0xC39 DUP2 PUSH2 0xC15 JUMP JUMPDEST SWAP3 SWAP2 POP POP JUMP JUMPDEST PUSH0 PUSH1 0x20 DUP3 DUP5 SUB SLT ISZERO PUSH2 0xC54 JUMPI PUSH2 0xC53 PUSH2 0xAB3 JUMP JUMPDEST JUMPDEST PUSH0 PUSH2 0xC61 DUP5 DUP3 DUP6 ADD PUSH2 0xC2B JUMP JUMPDEST SWAP2 POP POP SWAP3 SWAP2 POP POP JUMP JUMPDEST PUSH0 PUSH2 0xC74 DUP3 PUSH2 0xB59 JUMP JUMPDEST SWAP1 POP SWAP2 SWAP1 POP JUMP JUMPDEST PUSH2 0xC84 DUP2 PUSH2 0xC6A JUMP JUMPDEST DUP3 MSTORE POP POP JUMP JUMPDEST PUSH0 PUSH1 0x20 DUP3 ADD SWAP1 POP PUSH2 0xC9D PUSH0 DUP4 ADD DUP5 PUSH2 0xC7B JUMP JUMPDEST SWAP3 SWAP2 POP POP JUMP JUMPDEST PUSH0 DUP3 DUP3 MSTORE PUSH1 0x20 DUP3 ADD SWAP1 POP SWAP3 SWAP2 POP POP JUMP JUMPDEST PUSH32 0x4461696C7920626174746C65206C696D69742072656163686564000000000000 PUSH0 DUP3 ADD MSTORE POP JUMP JUMPDEST PUSH0 PUSH2 0xCE7 PUSH1 0x1A DUP4 PUSH2 0xCA3 JUMP JUMPDEST SWAP2 POP PUSH2 0xCF2 DUP3 PUSH2 0xCB3 JUMP JUMPDEST PUSH1 0x20 DUP3 ADD SWAP1 POP SWAP2 SWAP1 POP JUMP JUMPDEST PUSH0 PUSH1 0x20 DUP3 ADD SWAP1 POP DUP2 DUP2 SUB PUSH0 DUP4 ADD MSTORE PUSH2 0xD14 DUP2 PUSH2 0xCDB JUMP JUMPDEST SWAP1 POP SWAP2 SWAP1 POP JUMP JUMPDEST PUSH32 0x596F75206D757374206F776E206174206C656173742066697665206164756C74 PUSH0 DUP3 ADD MSTORE PUSH32 0x204E465420746F206578706C6F72652E00000000000000000000000000000000 PUSH1 0x20 DUP3 ADD MSTORE POP JUMP JUMPDEST PUSH0 PUSH2 0xD75 PUSH1 0x30 DUP4 PUSH2 0xCA3 JUMP JUMPDEST SWAP2 POP PUSH2 0xD80 DUP3 PUSH2 0xD1B JUMP JUMPDEST PUSH1 0x40 DUP3 ADD SWAP1 POP SWAP2 SWAP1 POP JUMP JUMPDEST PUSH0 PUSH1 0x20 DUP3 ADD SWAP1 POP DUP2 DUP2 SUB PUSH0 DUP4 ADD MSTORE PUSH2 0xDA2 DUP2 PUSH2 0xD69 JUMP JUMPDEST SWAP1 POP SWAP2 SWAP1 POP JUMP JUMPDEST PUSH32 0x4E487B7100000000000000000000000000000000000000000000000000000000 PUSH0 MSTORE PUSH1 0x11 PUSH1 0x4 MSTORE PUSH1 0x24 PUSH0 REVERT JUMPDEST PUSH0 PUSH2 0xDE0 DUP3 PUSH2 0xA79 JUMP JUMPDEST SWAP2 POP PUSH32 0xFFFFFFFFFFFFFFFFFFFFFFFFFFFFFFFFFFFFFFFFFFFFFFFFFFFFFFFFFFFFFFFF DUP3 SUB PUSH2 0xE12 JUMPI PUSH2 0xE11 PUSH2 0xDA9 JUMP JUMPDEST JUMPDEST PUSH1 0x1 DUP3 ADD SWAP1 POP SWAP2 SWAP1 POP JUMP JUMPDEST PUSH0 DUP2 ISZERO ISZERO SWAP1 POP SWAP2 SWAP1 POP JUMP JUMPDEST PUSH2 0xE31 DUP2 PUSH2 0xE1D JUMP JUMPDEST DUP2 EQ PUSH2 0xE3B JUMPI PUSH0 DUP1 REVERT JUMPDEST POP JUMP JUMPDEST PUSH0 DUP2 MLOAD SWAP1 POP PUSH2 0xE4C DUP2 PUSH2 0xE28 JUMP JUMPDEST SWAP3 SWAP2 POP POP JUMP JUMPDEST PUSH0 PUSH1 0x20 DUP3 DUP5 SUB SLT ISZERO PUSH2 0xE67 JUMPI PUSH2 0xE66 PUSH2 0xAB3 JUMP JUMPDEST JUMPDEST PUSH0 PUSH2 0xE74 DUP5 DUP3 DUP6 ADD PUSH2 0xE3E JUMP JUMPDEST SWAP2 POP POP SWAP3 SWAP2 POP POP JUMP JUMPDEST PUSH0 PUSH1 0x40 DUP3 ADD SWAP1 POP PUSH2 0xE90 PUSH0 DUP4 ADD DUP6 PUSH2 0xBED JUMP JUMPDEST PUSH2 0xE9D PUSH1 0x20 DUP4 ADD DUP5 PUSH2 0xA82 JUMP JUMPDEST SWAP4 SWAP3 POP POP POP JUMP JUMPDEST PUSH32 0x4E487B7100000000000000000000000000000000000000000000000000000000 PUSH0 MSTORE PUSH1 0x12 PUSH1 0x4 MSTORE PUSH1 0x24 PUSH0 REVERT JUMPDEST PUSH0 PUSH2 0xEDB DUP3 PUSH2 0xA79 JUMP JUMPDEST SWAP2 POP PUSH2 0xEE6 DUP4 PUSH2 0xA79 JUMP JUMPDEST SWAP3 POP DUP3 PUSH2 0xEF6 JUMPI PUSH2 0xEF5 PUSH2 0xEA4 JUMP JUMPDEST JUMPDEST DUP3 DUP3 DIV SWAP1 POP SWAP3 SWAP2 POP POP JUMP JUMPDEST PUSH0 DUP1 REVERT JUMPDEST PUSH0 PUSH1 0x1F NOT PUSH1 0x1F DUP4 ADD AND SWAP1 POP SWAP2 SWAP1 POP JUMP JUMPDEST PUSH32 0x4E487B7100000000000000000000000000000000000000000000000000000000 PUSH0 MSTORE PUSH1 0x41 PUSH1 0x4 MSTORE PUSH1 0x24 PUSH0 REVERT JUMPDEST PUSH2 0xF4B DUP3 PUSH2 0xF05 JUMP JUMPDEST DUP2 ADD DUP2 DUP2 LT PUSH8 0xFFFFFFFFFFFFFFFF DUP3 GT OR ISZERO PUSH2 0xF6A JUMPI PUSH2 0xF69 PUSH2 0xF15 JUMP JUMPDEST JUMPDEST DUP1 PUSH1 0x40 MSTORE POP POP POP JUMP JUMPDEST PUSH0 PUSH2 0xF7C PUSH2 0xAAA JUMP JUMPDEST SWAP1 POP PUSH2 0xF88 DUP3 DUP3 PUSH2 0xF42 JUMP JUMPDEST SWAP2 SWAP1 POP JUMP JUMPDEST PUSH0 PUSH8 0xFFFFFFFFFFFFFFFF DUP3 GT ISZERO PUSH2 0xFA7 JUMPI PUSH2 0xFA6 PUSH2 0xF15 JUMP JUMPDEST JUMPDEST PUSH1 0x20 DUP3 MUL SWAP1 POP PUSH1 0x20 DUP2 ADD SWAP1 POP SWAP2 SWAP1 POP JUMP JUMPDEST PUSH0 DUP1 REVERT JUMPDEST PUSH0 DUP2 MLOAD SWAP1 POP PUSH2 0xFCA DUP2 PUSH2 0xABB JUMP JUMPDEST SWAP3 SWAP2 POP POP JUMP JUMPDEST PUSH0 PUSH2 0xFE2 PUSH2 0xFDD DUP5 PUSH2 0xF8D JUMP JUMPDEST PUSH2 0xF73 JUMP JUMPDEST SWAP1 POP DUP1 DUP4 DUP3 MSTORE PUSH1 0x20 DUP3 ADD SWAP1 POP PUSH1 0x20 DUP5 MUL DUP4 ADD DUP6 DUP2 GT ISZERO PUSH2 0x1005 JUMPI PUSH2 0x1004 PUSH2 0xFB8 JUMP JUMPDEST JUMPDEST DUP4 JUMPDEST DUP2 DUP2 LT ISZERO PUSH2 0x102E JUMPI DUP1 PUSH2 0x101A DUP9 DUP3 PUSH2 0xFBC JUMP JUMPDEST DUP5 MSTORE PUSH1 0x20 DUP5 ADD SWAP4 POP POP PUSH1 0x20 DUP2 ADD SWAP1 POP PUSH2 0x1007 JUMP JUMPDEST POP POP POP SWAP4 SWAP3 POP POP POP JUMP JUMPDEST PUSH0 DUP3 PUSH1 0x1F DUP4 ADD SLT PUSH2 0x104C JUMPI PUSH2 0x104B PUSH2 0xF01 JUMP JUMPDEST JUMPDEST DUP2 MLOAD PUSH2 0x105C DUP5 DUP3 PUSH1 0x20 DUP7 ADD PUSH2 0xFD0 JUMP JUMPDEST SWAP2 POP POP SWAP3 SWAP2 POP POP JUMP JUMPDEST PUSH0 PUSH1 0x20 DUP3 DUP5 SUB SLT ISZERO PUSH2 0x107A JUMPI PUSH2 0x1079 PUSH2 0xAB3 JUMP JUMPDEST JUMPDEST PUSH0 DUP3 ADD MLOAD PUSH8 0xFFFFFFFFFFFFFFFF DUP2 GT ISZERO PUSH2 0x1097 JUMPI PUSH2 0x1096 PUSH2 0xAB7 JUMP JUMPDEST JUMPDEST PUSH2 0x10A3 DUP5 DUP3 DUP6 ADD PUSH2 0x1038 JUMP JUMPDEST SWAP2 POP POP SWAP3 SWAP2 POP POP JUMP JUMPDEST PUSH32 0x4E487B7100000000000000000000000000000000000000000000000000000000 PUSH0 MSTORE PUSH1 0x32 PUSH1 0x4 MSTORE PUSH1 0x24 PUSH0 REVERT JUMPDEST PUSH1 0x4 DUP2 LT PUSH2 0x10E5 JUMPI PUSH0 DUP1 REVERT JUMPDEST POP JUMP JUMPDEST PUSH0 DUP2 MLOAD SWAP1 POP PUSH2 0x10F6 DUP2 PUSH2 0x10D9 JUMP JUMPDEST SWAP3 SWAP2 POP POP JUMP JUMPDEST PUSH0 DUP1 PUSH1 0x40 DUP4 DUP6 SUB SLT ISZERO PUSH2 0x1112 JUMPI PUSH2 0x1111 PUSH2 0xAB3 JUMP JUMPDEST JUMPDEST PUSH0 PUSH2 0x111F DUP6 DUP3 DUP7 ADD PUSH2 0x10E8 JUMP JUMPDEST SWAP3 POP POP PUSH1 0x20 PUSH2 0x1130 DUP6 DUP3 DUP7 ADD PUSH2 0xFBC JUMP JUMPDEST SWAP2 POP POP SWAP3 POP SWAP3 SWAP1 POP JUMP JUMPDEST PUSH32 0x4E487B7100000000000000000000000000000000000000000000000000000000 PUSH0 MSTORE PUSH1 0x21 PUSH1 0x4 MSTORE PUSH1 0x24 PUSH0 REVERT JUMPDEST PUSH0 DUP2 SWAP1 POP SWAP2 SWAP1 POP JUMP JUMPDEST PUSH2 0x1181 PUSH2 0x117C DUP3 PUSH2 0xA79 JUMP JUMPDEST PUSH2 0x1167 JUMP JUMPDEST DUP3 MSTORE POP POP JUMP JUMPDEST PUSH0 DUP2 PUSH1 0x60 SHL SWAP1 POP SWAP2 SWAP1 POP JUMP JUMPDEST PUSH0 PUSH2 0x119D DUP3 PUSH2 0x1187 JUMP JUMPDEST SWAP1 POP SWAP2 SWAP1 POP JUMP JUMPDEST PUSH0 PUSH2 0x11AE DUP3 PUSH2 0x1193 JUMP JUMPDEST SWAP1 POP SWAP2 SWAP1 POP JUMP JUMPDEST PUSH2 0x11C6 PUSH2 0x11C1 DUP3 PUSH2 0xBDC JUMP JUMPDEST PUSH2 0x11A4 JUMP JUMPDEST DUP3 MSTORE POP POP JUMP JUMPDEST PUSH0 PUSH2 0x11D7 DUP3 DUP7 PUSH2 0x1170 JUMP JUMPDEST PUSH1 0x20 DUP3 ADD SWAP2 POP PUSH2 0x11E7 DUP3 DUP6 PUSH2 0x1170 JUMP JUMPDEST PUSH1 0x20 DUP3 ADD SWAP2 POP PUSH2 0x11F7 DUP3 DUP5 PUSH2 0x11B5 JUMP JUMPDEST PUSH1 0x14 DUP3 ADD SWAP2 POP DUP2 SWAP1 POP SWAP5 SWAP4 POP POP POP POP JUMP JUMPDEST PUSH0 PUSH2 0x1212 DUP3 PUSH2 0xA79 JUMP JUMPDEST SWAP2 POP PUSH2 0x121D DUP4 PUSH2 0xA79 JUMP JUMPDEST SWAP3 POP DUP3 PUSH2 0x122D JUMPI PUSH2 0x122C PUSH2 0xEA4 JUMP JUMPDEST JUMPDEST DUP3 DUP3 MOD SWAP1 POP SWAP3 SWAP2 POP POP JUMP INVALID LOG2 PUSH5 0x6970667358 0x22 SLT KECCAK256 0xBF SLOAD PC GT 0xCA 0xF 0xDA PUSH11 0x9F4F8EB62F3DA998BDD06F 0xD SMOD 0xE8 CALLCODE 0xFC EXP 0xB1 0xEB INVALID PUSH30 0x3364C864736F6C634300081A003300000000000000000000000000000000 "
				},
				"gasEstimates": {
					"creation": {
						"codeDepositCost": "943600",
						"executionCost": "infinite",
						"totalCost": "infinite"
					},
					"external": {
						"dailyExploreLimit()": "2448",
						"drinkContract()": "infinite",
						"explore()": "infinite",
						"minAdultToken()": "2491",
						"owner()": "2559",
						"questContract()": "infinite",
						"renounceOwnership()": "infinite",
						"setDailyExploreLimit(uint256)": "infinite",
						"setMinAdultToken(uint256)": "infinite",
						"tokenContract()": "infinite",
						"transferOwnership(address)": "infinite"
					},
					"internal": {
						"getRandomReward()": "infinite",
						"hasAdultToken(address)": "infinite",
						"today()": "infinite"
					}
				},
				"methodIdentifiers": {
					"dailyExploreLimit()": "37984ce0",
					"drinkContract()": "fbc1274d",
					"explore()": "345cbc48",
					"minAdultToken()": "cb175898",
					"owner()": "8da5cb5b",
					"questContract()": "6a6940cc",
					"renounceOwnership()": "715018a6",
					"setDailyExploreLimit(uint256)": "6e8eb1e8",
					"setMinAdultToken(uint256)": "5271c083",
					"tokenContract()": "55a373d6",
					"transferOwnership(address)": "f2fde38b"
				}
			},
			"storageLayout": {
				"storage": [
					{
						"astId": 8,
						"contract": "contents/Exploration.sol:Exploration",
						"label": "_owner",
						"offset": 0,
						"slot": "0",
						"type": "t_address"
					},
					{
						"astId": 331,
						"contract": "contents/Exploration.sol:Exploration",
						"label": "tokenContract",
						"offset": 0,
						"slot": "1",
						"type": "t_contract(IToken)320"
					},
					{
						"astId": 334,
						"contract": "contents/Exploration.sol:Exploration",
						"label": "questContract",
						"offset": 0,
						"slot": "2",
						"type": "t_contract(IQuest)287"
					},
					{
						"astId": 337,
						"contract": "contents/Exploration.sol:Exploration",
						"label": "drinkContract",
						"offset": 0,
						"slot": "3",
						"type": "t_contract(IDragonDrink)246"
					},
					{
						"astId": 341,
						"contract": "contents/Exploration.sol:Exploration",
						"label": "dailyExploreCount",
						"offset": 0,
						"slot": "4",
						"type": "t_mapping(t_address,t_uint256)"
					},
					{
						"astId": 345,
						"contract": "contents/Exploration.sol:Exploration",
						"label": "lastExploreTime",
						"offset": 0,
						"slot": "5",
						"type": "t_mapping(t_address,t_uint256)"
					},
					{
						"astId": 348,
						"contract": "contents/Exploration.sol:Exploration",
						"label": "dailyExploreLimit",
						"offset": 0,
						"slot": "6",
						"type": "t_uint256"
					},
					{
						"astId": 351,
						"contract": "contents/Exploration.sol:Exploration",
						"label": "minAdultToken",
						"offset": 0,
						"slot": "7",
						"type": "t_uint256"
					}
				],
				"types": {
					"t_address": {
						"encoding": "inplace",
						"label": "address",
						"numberOfBytes": "20"
					},
					"t_contract(IDragonDrink)246": {
						"encoding": "inplace",
						"label": "contract IDragonDrink",
						"numberOfBytes": "20"
					},
					"t_contract(IQuest)287": {
						"encoding": "inplace",
						"label": "contract IQuest",
						"numberOfBytes": "20"
					},
					"t_contract(IToken)320": {
						"encoding": "inplace",
						"label": "contract IToken",
						"numberOfBytes": "20"
					},
					"t_mapping(t_address,t_uint256)": {
						"encoding": "mapping",
						"key": "t_address",
						"label": "mapping(address => uint256)",
						"numberOfBytes": "32",
						"value": "t_uint256"
					},
					"t_uint256": {
						"encoding": "inplace",
						"label": "uint256",
						"numberOfBytes": "32"
					}
				}
			},
			"userdoc": {
				"kind": "user",
				"methods": {},
				"version": 1
			}
		}
	}
}