{
	"contracts/TokenBase.sol": {
		"TokenBase": {
			"abi": [
				{
					"inputs": [
						{
							"internalType": "string",
							"name": "name",
							"type": "string"
						},
						{
							"internalType": "string",
							"name": "symbol",
							"type": "string"
						}
					],
					"stateMutability": "nonpayable",
					"type": "constructor"
				},
				{
					"inputs": [
						{
							"internalType": "address",
							"name": "sender",
							"type": "address"
						},
						{
							"internalType": "uint256",
							"name": "tokenId",
							"type": "uint256"
						},
						{
							"internalType": "address",
							"name": "owner",
							"type": "address"
						}
					],
					"name": "ERC721IncorrectOwner",
					"type": "error"
				},
				{
					"inputs": [
						{
							"internalType": "address",
							"name": "operator",
							"type": "address"
						},
						{
							"internalType": "uint256",
							"name": "tokenId",
							"type": "uint256"
						}
					],
					"name": "ERC721InsufficientApproval",
					"type": "error"
				},
				{
					"inputs": [
						{
							"internalType": "address",
							"name": "approver",
							"type": "address"
						}
					],
					"name": "ERC721InvalidApprover",
					"type": "error"
				},
				{
					"inputs": [
						{
							"internalType": "address",
							"name": "operator",
							"type": "address"
						}
					],
					"name": "ERC721InvalidOperator",
					"type": "error"
				},
				{
					"inputs": [
						{
							"internalType": "address",
							"name": "owner",
							"type": "address"
						}
					],
					"name": "ERC721InvalidOwner",
					"type": "error"
				},
				{
					"inputs": [
						{
							"internalType": "address",
							"name": "receiver",
							"type": "address"
						}
					],
					"name": "ERC721InvalidReceiver",
					"type": "error"
				},
				{
					"inputs": [
						{
							"internalType": "address",
							"name": "sender",
							"type": "address"
						}
					],
					"name": "ERC721InvalidSender",
					"type": "error"
				},
				{
					"inputs": [
						{
							"internalType": "uint256",
							"name": "tokenId",
							"type": "uint256"
						}
					],
					"name": "ERC721NonexistentToken",
					"type": "error"
				},
				{
					"anonymous": false,
					"inputs": [
						{
							"indexed": true,
							"internalType": "address",
							"name": "owner",
							"type": "address"
						},
						{
							"indexed": true,
							"internalType": "address",
							"name": "approved",
							"type": "address"
						},
						{
							"indexed": true,
							"internalType": "uint256",
							"name": "tokenId",
							"type": "uint256"
						}
					],
					"name": "Approval",
					"type": "event"
				},
				{
					"anonymous": false,
					"inputs": [
						{
							"indexed": true,
							"internalType": "address",
							"name": "owner",
							"type": "address"
						},
						{
							"indexed": true,
							"internalType": "address",
							"name": "operator",
							"type": "address"
						},
						{
							"indexed": false,
							"internalType": "bool",
							"name": "approved",
							"type": "bool"
						}
					],
					"name": "ApprovalForAll",
					"type": "event"
				},
				{
					"anonymous": false,
					"inputs": [
						{
							"indexed": false,
							"internalType": "uint256",
							"name": "_fromTokenId",
							"type": "uint256"
						},
						{
							"indexed": false,
							"internalType": "uint256",
							"name": "_toTokenId",
							"type": "uint256"
						}
					],
					"name": "BatchMetadataUpdate",
					"type": "event"
				},
				{
					"anonymous": false,
					"inputs": [
						{
							"indexed": false,
							"internalType": "uint256",
							"name": "_tokenId",
							"type": "uint256"
						}
					],
					"name": "MetadataUpdate",
					"type": "event"
				},
				{
					"anonymous": false,
					"inputs": [
						{
							"indexed": true,
							"internalType": "address",
							"name": "from",
							"type": "address"
						},
						{
							"indexed": true,
							"internalType": "address",
							"name": "to",
							"type": "address"
						},
						{
							"indexed": true,
							"internalType": "uint256",
							"name": "tokenId",
							"type": "uint256"
						}
					],
					"name": "Transfer",
					"type": "event"
				},
				{
					"inputs": [
						{
							"internalType": "address",
							"name": "to",
							"type": "address"
						},
						{
							"internalType": "uint256",
							"name": "tokenId",
							"type": "uint256"
						}
					],
					"name": "approve",
					"outputs": [],
					"stateMutability": "nonpayable",
					"type": "function"
				},
				{
					"inputs": [
						{
							"internalType": "address",
							"name": "owner",
							"type": "address"
						}
					],
					"name": "balanceOf",
					"outputs": [
						{
							"internalType": "uint256",
							"name": "",
							"type": "uint256"
						}
					],
					"stateMutability": "view",
					"type": "function"
				},
				{
					"inputs": [
						{
							"internalType": "uint256",
							"name": "tokenId",
							"type": "uint256"
						}
					],
					"name": "evolve",
					"outputs": [],
					"stateMutability": "nonpayable",
					"type": "function"
				},
				{
					"inputs": [
						{
							"internalType": "uint256",
							"name": "tokenId",
							"type": "uint256"
						}
					],
					"name": "feeding",
					"outputs": [],
					"stateMutability": "nonpayable",
					"type": "function"
				},
				{
					"inputs": [
						{
							"internalType": "uint256",
							"name": "tokenId",
							"type": "uint256"
						}
					],
					"name": "getApproved",
					"outputs": [
						{
							"internalType": "address",
							"name": "",
							"type": "address"
						}
					],
					"stateMutability": "view",
					"type": "function"
				},
				{
					"inputs": [
						{
							"internalType": "uint256",
							"name": "tokenId",
							"type": "uint256"
						}
					],
					"name": "getGrowthInfo",
					"outputs": [
						{
							"internalType": "enum TokenBase.GrowthStage",
							"name": "currentStage",
							"type": "uint8"
						},
						{
							"internalType": "uint256",
							"name": "timeRemaining",
							"type": "uint256"
						}
					],
					"stateMutability": "view",
					"type": "function"
				},
				{
					"inputs": [
						{
							"internalType": "uint256",
							"name": "",
							"type": "uint256"
						}
					],
					"name": "growthTime",
					"outputs": [
						{
							"internalType": "uint256",
							"name": "hatch",
							"type": "uint256"
						},
						{
							"internalType": "uint256",
							"name": "hatchling",
							"type": "uint256"
						},
						{
							"internalType": "uint256",
							"name": "adult",
							"type": "uint256"
						}
					],
					"stateMutability": "view",
					"type": "function"
				},
				{
					"inputs": [
						{
							"internalType": "address",
							"name": "owner",
							"type": "address"
						},
						{
							"internalType": "address",
							"name": "operator",
							"type": "address"
						}
					],
					"name": "isApprovedForAll",
					"outputs": [
						{
							"internalType": "bool",
							"name": "",
							"type": "bool"
						}
					],
					"stateMutability": "view",
					"type": "function"
				},
				{
					"inputs": [],
					"name": "name",
					"outputs": [
						{
							"internalType": "string",
							"name": "",
							"type": "string"
						}
					],
					"stateMutability": "view",
					"type": "function"
				},
				{
					"inputs": [
						{
							"internalType": "uint256",
							"name": "tokenId",
							"type": "uint256"
						}
					],
					"name": "ownerOf",
					"outputs": [
						{
							"internalType": "address",
							"name": "",
							"type": "address"
						}
					],
					"stateMutability": "view",
					"type": "function"
				},
				{
					"inputs": [
						{
							"internalType": "address",
							"name": "from",
							"type": "address"
						},
						{
							"internalType": "address",
							"name": "to",
							"type": "address"
						},
						{
							"internalType": "uint256",
							"name": "tokenId",
							"type": "uint256"
						}
					],
					"name": "safeTransferFrom",
					"outputs": [],
					"stateMutability": "nonpayable",
					"type": "function"
				},
				{
					"inputs": [
						{
							"internalType": "address",
							"name": "from",
							"type": "address"
						},
						{
							"internalType": "address",
							"name": "to",
							"type": "address"
						},
						{
							"internalType": "uint256",
							"name": "tokenId",
							"type": "uint256"
						},
						{
							"internalType": "bytes",
							"name": "data",
							"type": "bytes"
						}
					],
					"name": "safeTransferFrom",
					"outputs": [],
					"stateMutability": "nonpayable",
					"type": "function"
				},
				{
					"inputs": [
						{
							"internalType": "address",
							"name": "operator",
							"type": "address"
						},
						{
							"internalType": "bool",
							"name": "approved",
							"type": "bool"
						}
					],
					"name": "setApprovalForAll",
					"outputs": [],
					"stateMutability": "nonpayable",
					"type": "function"
				},
				{
					"inputs": [
						{
							"internalType": "uint256",
							"name": "tokenId",
							"type": "uint256"
						},
						{
							"internalType": "string",
							"name": "url",
							"type": "string"
						}
					],
					"name": "setTokenURI",
					"outputs": [],
					"stateMutability": "nonpayable",
					"type": "function"
				},
				{
					"inputs": [
						{
							"internalType": "bytes4",
							"name": "interfaceId",
							"type": "bytes4"
						}
					],
					"name": "supportsInterface",
					"outputs": [
						{
							"internalType": "bool",
							"name": "",
							"type": "bool"
						}
					],
					"stateMutability": "view",
					"type": "function"
				},
				{
					"inputs": [],
					"name": "symbol",
					"outputs": [
						{
							"internalType": "string",
							"name": "",
							"type": "string"
						}
					],
					"stateMutability": "view",
					"type": "function"
				},
				{
					"inputs": [
						{
							"internalType": "uint256",
							"name": "tokenId",
							"type": "uint256"
						}
					],
					"name": "tokenURI",
					"outputs": [
						{
							"internalType": "string",
							"name": "",
							"type": "string"
						}
					],
					"stateMutability": "view",
					"type": "function"
				},
				{
					"inputs": [
						{
							"internalType": "address",
							"name": "from",
							"type": "address"
						},
						{
							"internalType": "address",
							"name": "to",
							"type": "address"
						},
						{
							"internalType": "uint256",
							"name": "tokenId",
							"type": "uint256"
						}
					],
					"name": "transferFrom",
					"outputs": [],
					"stateMutability": "nonpayable",
					"type": "function"
				}
			],
			"devdoc": {
				"errors": {
					"ERC721IncorrectOwner(address,uint256,address)": [
						{
							"details": "Indicates an error related to the ownership over a particular token. Used in transfers.",
							"params": {
								"owner": "Address of the current owner of a token.",
								"sender": "Address whose tokens are being transferred.",
								"tokenId": "Identifier number of a token."
							}
						}
					],
					"ERC721InsufficientApproval(address,uint256)": [
						{
							"details": "Indicates a failure with the `operator`’s approval. Used in transfers.",
							"params": {
								"operator": "Address that may be allowed to operate on tokens without being their owner.",
								"tokenId": "Identifier number of a token."
							}
						}
					],
					"ERC721InvalidApprover(address)": [
						{
							"details": "Indicates a failure with the `approver` of a token to be approved. Used in approvals.",
							"params": {
								"approver": "Address initiating an approval operation."
							}
						}
					],
					"ERC721InvalidOperator(address)": [
						{
							"details": "Indicates a failure with the `operator` to be approved. Used in approvals.",
							"params": {
								"operator": "Address that may be allowed to operate on tokens without being their owner."
							}
						}
					],
					"ERC721InvalidOwner(address)": [
						{
							"details": "Indicates that an address can't be an owner. For example, `address(0)` is a forbidden owner in EIP-20. Used in balance queries.",
							"params": {
								"owner": "Address of the current owner of a token."
							}
						}
					],
					"ERC721InvalidReceiver(address)": [
						{
							"details": "Indicates a failure with the token `receiver`. Used in transfers.",
							"params": {
								"receiver": "Address to which tokens are being transferred."
							}
						}
					],
					"ERC721InvalidSender(address)": [
						{
							"details": "Indicates a failure with the token `sender`. Used in transfers.",
							"params": {
								"sender": "Address whose tokens are being transferred."
							}
						}
					],
					"ERC721NonexistentToken(uint256)": [
						{
							"details": "Indicates a `tokenId` whose `owner` is the zero address.",
							"params": {
								"tokenId": "Identifier number of a token."
							}
						}
					]
				},
				"events": {
					"Approval(address,address,uint256)": {
						"details": "Emitted when `owner` enables `approved` to manage the `tokenId` token."
					},
					"ApprovalForAll(address,address,bool)": {
						"details": "Emitted when `owner` enables or disables (`approved`) `operator` to manage all of its assets."
					},
					"BatchMetadataUpdate(uint256,uint256)": {
						"details": "This event emits when the metadata of a range of tokens is changed. So that the third-party platforms such as NFT market could timely update the images and related attributes of the NFTs."
					},
					"MetadataUpdate(uint256)": {
						"details": "This event emits when the metadata of a token is changed. So that the third-party platforms such as NFT market could timely update the images and related attributes of the NFT."
					},
					"Transfer(address,address,uint256)": {
						"details": "Emitted when `tokenId` token is transferred from `from` to `to`."
					}
				},
				"kind": "dev",
				"methods": {
					"approve(address,uint256)": {
						"details": "See {IERC721-approve}."
					},
					"balanceOf(address)": {
						"details": "See {IERC721-balanceOf}."
					},
					"getApproved(uint256)": {
						"details": "See {IERC721-getApproved}."
					},
					"isApprovedForAll(address,address)": {
						"details": "See {IERC721-isApprovedForAll}."
					},
					"name()": {
						"details": "See {IERC721Metadata-name}."
					},
					"ownerOf(uint256)": {
						"details": "See {IERC721-ownerOf}."
					},
					"safeTransferFrom(address,address,uint256)": {
						"details": "See {IERC721-safeTransferFrom}."
					},
					"safeTransferFrom(address,address,uint256,bytes)": {
						"details": "See {IERC721-safeTransferFrom}."
					},
					"setApprovalForAll(address,bool)": {
						"details": "See {IERC721-setApprovalForAll}."
					},
					"symbol()": {
						"details": "See {IERC721Metadata-symbol}."
					},
					"transferFrom(address,address,uint256)": {
						"details": "See {IERC721-transferFrom}."
					}
				},
				"version": 1
			},
			"evm": {
				"assembly": "    /* \"contracts/TokenBase.sol\":202:5487  contract TokenBase is ERC721, ERC721URIStorage {... */\n  mstore(0x40, 0x80)\n    /* \"contracts/TokenBase.sol\":992:1076  constructor(string memory name, string memory symbol) ERC721(name,symbol) {... */\n  callvalue\n  dup1\n  iszero\n  tag_1\n  jumpi\n  0x00\n  dup1\n  revert\ntag_1:\n  pop\n  mload(0x40)\n  sub(codesize, bytecodeSize)\n  dup1\n  bytecodeSize\n  dup4\n  codecopy\n  dup2\n  dup2\n  add\n  0x40\n  mstore\n  dup2\n  add\n  swap1\n  tag_2\n  swap2\n  swap1\n  tag_3\n  jump\t// in\ntag_2:\n    /* \"contracts/TokenBase.sol\":1053:1057  name */\n  dup2\n    /* \"contracts/TokenBase.sol\":1058:1064  symbol */\n  dup2\n    /* \"@openzeppelin/contracts/token/ERC721/ERC721.sol\":1455:1460  name_ */\n  dup2\n    /* \"@openzeppelin/contracts/token/ERC721/ERC721.sol\":1447:1452  _name */\n  0x00\n    /* \"@openzeppelin/contracts/token/ERC721/ERC721.sol\":1447:1460  _name = name_ */\n  swap1\n  dup2\n  tag_7\n  swap2\n  swap1\n  tag_8\n  jump\t// in\ntag_7:\n  pop\n    /* \"@openzeppelin/contracts/token/ERC721/ERC721.sol\":1480:1487  symbol_ */\n  dup1\n    /* \"@openzeppelin/contracts/token/ERC721/ERC721.sol\":1470:1477  _symbol */\n  0x01\n    /* \"@openzeppelin/contracts/token/ERC721/ERC721.sol\":1470:1487  _symbol = symbol_ */\n  swap1\n  dup2\n  tag_9\n  swap2\n  swap1\n  tag_8\n  jump\t// in\ntag_9:\n  pop\n    /* \"@openzeppelin/contracts/token/ERC721/ERC721.sol\":1381:1494  constructor(string memory name_, string memory symbol_) {... */\n  pop\n  pop\n    /* \"contracts/TokenBase.sol\":992:1076  constructor(string memory name, string memory symbol) ERC721(name,symbol) {... */\n  pop\n  pop\n    /* \"contracts/TokenBase.sol\":202:5487  contract TokenBase is ERC721, ERC721URIStorage {... */\n  jump(tag_11)\n    /* \"#utility.yul\":7:82   */\ntag_12:\n    /* \"#utility.yul\":40:46   */\n  0x00\n    /* \"#utility.yul\":73:75   */\n  0x40\n    /* \"#utility.yul\":67:76   */\n  mload\n    /* \"#utility.yul\":57:76   */\n  swap1\n  pop\n    /* \"#utility.yul\":7:82   */\n  swap1\n  jump\t// out\n    /* \"#utility.yul\":88:205   */\ntag_13:\n    /* \"#utility.yul\":197:198   */\n  0x00\n    /* \"#utility.yul\":194:195   */\n  dup1\n    /* \"#utility.yul\":187:199   */\n  revert\n    /* \"#utility.yul\":211:328   */\ntag_14:\n    /* \"#utility.yul\":320:321   */\n  0x00\n    /* \"#utility.yul\":317:318   */\n  dup1\n    /* \"#utility.yul\":310:322   */\n  revert\n    /* \"#utility.yul\":334:451   */\ntag_15:\n    /* \"#utility.yul\":443:444   */\n  0x00\n    /* \"#utility.yul\":440:441   */\n  dup1\n    /* \"#utility.yul\":433:445   */\n  revert\n    /* \"#utility.yul\":457:574   */\ntag_16:\n    /* \"#utility.yul\":566:567   */\n  0x00\n    /* \"#utility.yul\":563:564   */\n  dup1\n    /* \"#utility.yul\":556:568   */\n  revert\n    /* \"#utility.yul\":580:682   */\ntag_17:\n    /* \"#utility.yul\":621:627   */\n  0x00\n    /* \"#utility.yul\":672:674   */\n  0x1f\n    /* \"#utility.yul\":668:675   */\n  not\n    /* \"#utility.yul\":663:665   */\n  0x1f\n    /* \"#utility.yul\":656:661   */\n  dup4\n    /* \"#utility.yul\":652:666   */\n  add\n    /* \"#utility.yul\":648:676   */\n  and\n    /* \"#utility.yul\":638:676   */\n  swap1\n  pop\n    /* \"#utility.yul\":580:682   */\n  swap2\n  swap1\n  pop\n  jump\t// out\n    /* \"#utility.yul\":688:868   */\ntag_18:\n    /* \"#utility.yul\":736:813   */\n  0x4e487b7100000000000000000000000000000000000000000000000000000000\n    /* \"#utility.yul\":733:734   */\n  0x00\n    /* \"#utility.yul\":726:814   */\n  mstore\n    /* \"#utility.yul\":833:837   */\n  0x41\n    /* \"#utility.yul\":830:831   */\n  0x04\n    /* \"#utility.yul\":823:838   */\n  mstore\n    /* \"#utility.yul\":857:861   */\n  0x24\n    /* \"#utility.yul\":854:855   */\n  0x00\n    /* \"#utility.yul\":847:862   */\n  revert\n    /* \"#utility.yul\":874:1155   */\ntag_19:\n    /* \"#utility.yul\":957:984   */\n  tag_53\n    /* \"#utility.yul\":979:983   */\n  dup3\n    /* \"#utility.yul\":957:984   */\n  tag_17\n  jump\t// in\ntag_53:\n    /* \"#utility.yul\":949:955   */\n  dup2\n    /* \"#utility.yul\":945:985   */\n  add\n    /* \"#utility.yul\":1087:1093   */\n  dup2\n    /* \"#utility.yul\":1075:1085   */\n  dup2\n    /* \"#utility.yul\":1072:1094   */\n  lt\n    /* \"#utility.yul\":1051:1069   */\n  0xffffffffffffffff\n    /* \"#utility.yul\":1039:1049   */\n  dup3\n    /* \"#utility.yul\":1036:1070   */\n  gt\n    /* \"#utility.yul\":1033:1095   */\n  or\n    /* \"#utility.yul\":1030:1118   */\n  iszero\n  tag_54\n  jumpi\n    /* \"#utility.yul\":1098:1116   */\n  tag_55\n  tag_18\n  jump\t// in\ntag_55:\n    /* \"#utility.yul\":1030:1118   */\ntag_54:\n    /* \"#utility.yul\":1138:1148   */\n  dup1\n    /* \"#utility.yul\":1134:1136   */\n  0x40\n    /* \"#utility.yul\":1127:1149   */\n  mstore\n    /* \"#utility.yul\":917:1155   */\n  pop\n    /* \"#utility.yul\":874:1155   */\n  pop\n  pop\n  jump\t// out\n    /* \"#utility.yul\":1161:1290   */\ntag_20:\n    /* \"#utility.yul\":1195:1201   */\n  0x00\n    /* \"#utility.yul\":1222:1242   */\n  tag_57\n  tag_12\n  jump\t// in\ntag_57:\n    /* \"#utility.yul\":1212:1242   */\n  swap1\n  pop\n    /* \"#utility.yul\":1251:1284   */\n  tag_58\n    /* \"#utility.yul\":1279:1283   */\n  dup3\n    /* \"#utility.yul\":1271:1277   */\n  dup3\n    /* \"#utility.yul\":1251:1284   */\n  tag_19\n  jump\t// in\ntag_58:\n    /* \"#utility.yul\":1161:1290   */\n  swap2\n  swap1\n  pop\n  jump\t// out\n    /* \"#utility.yul\":1296:1604   */\ntag_21:\n    /* \"#utility.yul\":1358:1362   */\n  0x00\n    /* \"#utility.yul\":1448:1466   */\n  0xffffffffffffffff\n    /* \"#utility.yul\":1440:1446   */\n  dup3\n    /* \"#utility.yul\":1437:1467   */\n  gt\n    /* \"#utility.yul\":1434:1490   */\n  iszero\n  tag_60\n  jumpi\n    /* \"#utility.yul\":1470:1488   */\n  tag_61\n  tag_18\n  jump\t// in\ntag_61:\n    /* \"#utility.yul\":1434:1490   */\ntag_60:\n    /* \"#utility.yul\":1508:1537   */\n  tag_62\n    /* \"#utility.yul\":1530:1536   */\n  dup3\n    /* \"#utility.yul\":1508:1537   */\n  tag_17\n  jump\t// in\ntag_62:\n    /* \"#utility.yul\":1500:1537   */\n  swap1\n  pop\n    /* \"#utility.yul\":1592:1596   */\n  0x20\n    /* \"#utility.yul\":1586:1590   */\n  dup2\n    /* \"#utility.yul\":1582:1597   */\n  add\n    /* \"#utility.yul\":1574:1597   */\n  swap1\n  pop\n    /* \"#utility.yul\":1296:1604   */\n  swap2\n  swap1\n  pop\n  jump\t// out\n    /* \"#utility.yul\":1610:1856   */\ntag_22:\n    /* \"#utility.yul\":1691:1692   */\n  0x00\n    /* \"#utility.yul\":1701:1814   */\ntag_64:\n    /* \"#utility.yul\":1715:1721   */\n  dup4\n    /* \"#utility.yul\":1712:1713   */\n  dup2\n    /* \"#utility.yul\":1709:1722   */\n  lt\n    /* \"#utility.yul\":1701:1814   */\n  iszero\n  tag_66\n  jumpi\n    /* \"#utility.yul\":1800:1801   */\n  dup1\n    /* \"#utility.yul\":1795:1798   */\n  dup3\n    /* \"#utility.yul\":1791:1802   */\n  add\n    /* \"#utility.yul\":1785:1803   */\n  mload\n    /* \"#utility.yul\":1781:1782   */\n  dup2\n    /* \"#utility.yul\":1776:1779   */\n  dup5\n    /* \"#utility.yul\":1772:1783   */\n  add\n    /* \"#utility.yul\":1765:1804   */\n  mstore\n    /* \"#utility.yul\":1737:1739   */\n  0x20\n    /* \"#utility.yul\":1734:1735   */\n  dup2\n    /* \"#utility.yul\":1730:1740   */\n  add\n    /* \"#utility.yul\":1725:1740   */\n  swap1\n  pop\n    /* \"#utility.yul\":1701:1814   */\n  jump(tag_64)\ntag_66:\n    /* \"#utility.yul\":1848:1849   */\n  0x00\n    /* \"#utility.yul\":1839:1845   */\n  dup5\n    /* \"#utility.yul\":1834:1837   */\n  dup5\n    /* \"#utility.yul\":1830:1846   */\n  add\n    /* \"#utility.yul\":1823:1850   */\n  mstore\n    /* \"#utility.yul\":1672:1856   */\n  pop\n    /* \"#utility.yul\":1610:1856   */\n  pop\n  pop\n  pop\n  jump\t// out\n    /* \"#utility.yul\":1862:2296   */\ntag_23:\n    /* \"#utility.yul\":1951:1956   */\n  0x00\n    /* \"#utility.yul\":1976:2042   */\n  tag_68\n    /* \"#utility.yul\":1992:2041   */\n  tag_69\n    /* \"#utility.yul\":2034:2040   */\n  dup5\n    /* \"#utility.yul\":1992:2041   */\n  tag_21\n  jump\t// in\ntag_69:\n    /* \"#utility.yul\":1976:2042   */\n  tag_20\n  jump\t// in\ntag_68:\n    /* \"#utility.yul\":1967:2042   */\n  swap1\n  pop\n    /* \"#utility.yul\":2065:2071   */\n  dup3\n    /* \"#utility.yul\":2058:2063   */\n  dup2\n    /* \"#utility.yul\":2051:2072   */\n  mstore\n    /* \"#utility.yul\":2103:2107   */\n  0x20\n    /* \"#utility.yul\":2096:2101   */\n  dup2\n    /* \"#utility.yul\":2092:2108   */\n  add\n    /* \"#utility.yul\":2141:2144   */\n  dup5\n    /* \"#utility.yul\":2132:2138   */\n  dup5\n    /* \"#utility.yul\":2127:2130   */\n  dup5\n    /* \"#utility.yul\":2123:2139   */\n  add\n    /* \"#utility.yul\":2120:2145   */\n  gt\n    /* \"#utility.yul\":2117:2229   */\n  iszero\n  tag_70\n  jumpi\n    /* \"#utility.yul\":2148:2227   */\n  tag_71\n  tag_16\n  jump\t// in\ntag_71:\n    /* \"#utility.yul\":2117:2229   */\ntag_70:\n    /* \"#utility.yul\":2238:2290   */\n  tag_72\n    /* \"#utility.yul\":2283:2289   */\n  dup5\n    /* \"#utility.yul\":2278:2281   */\n  dup3\n    /* \"#utility.yul\":2273:2276   */\n  dup6\n    /* \"#utility.yul\":2238:2290   */\n  tag_22\n  jump\t// in\ntag_72:\n    /* \"#utility.yul\":1957:2296   */\n  pop\n    /* \"#utility.yul\":1862:2296   */\n  swap4\n  swap3\n  pop\n  pop\n  pop\n  jump\t// out\n    /* \"#utility.yul\":2316:2671   */\ntag_24:\n    /* \"#utility.yul\":2383:2388   */\n  0x00\n    /* \"#utility.yul\":2432:2435   */\n  dup3\n    /* \"#utility.yul\":2425:2429   */\n  0x1f\n    /* \"#utility.yul\":2417:2423   */\n  dup4\n    /* \"#utility.yul\":2413:2430   */\n  add\n    /* \"#utility.yul\":2409:2436   */\n  slt\n    /* \"#utility.yul\":2399:2521   */\n  tag_74\n  jumpi\n    /* \"#utility.yul\":2440:2519   */\n  tag_75\n  tag_15\n  jump\t// in\ntag_75:\n    /* \"#utility.yul\":2399:2521   */\ntag_74:\n    /* \"#utility.yul\":2550:2556   */\n  dup2\n    /* \"#utility.yul\":2544:2557   */\n  mload\n    /* \"#utility.yul\":2575:2665   */\n  tag_76\n    /* \"#utility.yul\":2661:2664   */\n  dup5\n    /* \"#utility.yul\":2653:2659   */\n  dup3\n    /* \"#utility.yul\":2646:2650   */\n  0x20\n    /* \"#utility.yul\":2638:2644   */\n  dup7\n    /* \"#utility.yul\":2634:2651   */\n  add\n    /* \"#utility.yul\":2575:2665   */\n  tag_23\n  jump\t// in\ntag_76:\n    /* \"#utility.yul\":2566:2665   */\n  swap2\n  pop\n    /* \"#utility.yul\":2389:2671   */\n  pop\n    /* \"#utility.yul\":2316:2671   */\n  swap3\n  swap2\n  pop\n  pop\n  jump\t// out\n    /* \"#utility.yul\":2677:3530   */\ntag_3:\n    /* \"#utility.yul\":2776:2782   */\n  0x00\n    /* \"#utility.yul\":2784:2790   */\n  dup1\n    /* \"#utility.yul\":2833:2835   */\n  0x40\n    /* \"#utility.yul\":2821:2830   */\n  dup4\n    /* \"#utility.yul\":2812:2819   */\n  dup6\n    /* \"#utility.yul\":2808:2831   */\n  sub\n    /* \"#utility.yul\":2804:2836   */\n  slt\n    /* \"#utility.yul\":2801:2920   */\n  iszero\n  tag_78\n  jumpi\n    /* \"#utility.yul\":2839:2918   */\n  tag_79\n  tag_13\n  jump\t// in\ntag_79:\n    /* \"#utility.yul\":2801:2920   */\ntag_78:\n    /* \"#utility.yul\":2980:2981   */\n  0x00\n    /* \"#utility.yul\":2969:2978   */\n  dup4\n    /* \"#utility.yul\":2965:2982   */\n  add\n    /* \"#utility.yul\":2959:2983   */\n  mload\n    /* \"#utility.yul\":3010:3028   */\n  0xffffffffffffffff\n    /* \"#utility.yul\":3002:3008   */\n  dup2\n    /* \"#utility.yul\":2999:3029   */\n  gt\n    /* \"#utility.yul\":2996:3113   */\n  iszero\n  tag_80\n  jumpi\n    /* \"#utility.yul\":3032:3111   */\n  tag_81\n  tag_14\n  jump\t// in\ntag_81:\n    /* \"#utility.yul\":2996:3113   */\ntag_80:\n    /* \"#utility.yul\":3137:3211   */\n  tag_82\n    /* \"#utility.yul\":3203:3210   */\n  dup6\n    /* \"#utility.yul\":3194:3200   */\n  dup3\n    /* \"#utility.yul\":3183:3192   */\n  dup7\n    /* \"#utility.yul\":3179:3201   */\n  add\n    /* \"#utility.yul\":3137:3211   */\n  tag_24\n  jump\t// in\ntag_82:\n    /* \"#utility.yul\":3127:3211   */\n  swap3\n  pop\n    /* \"#utility.yul\":2930:3221   */\n  pop\n    /* \"#utility.yul\":3281:3283   */\n  0x20\n    /* \"#utility.yul\":3270:3279   */\n  dup4\n    /* \"#utility.yul\":3266:3284   */\n  add\n    /* \"#utility.yul\":3260:3285   */\n  mload\n    /* \"#utility.yul\":3312:3330   */\n  0xffffffffffffffff\n    /* \"#utility.yul\":3304:3310   */\n  dup2\n    /* \"#utility.yul\":3301:3331   */\n  gt\n    /* \"#utility.yul\":3298:3415   */\n  iszero\n  tag_83\n  jumpi\n    /* \"#utility.yul\":3334:3413   */\n  tag_84\n  tag_14\n  jump\t// in\ntag_84:\n    /* \"#utility.yul\":3298:3415   */\ntag_83:\n    /* \"#utility.yul\":3439:3513   */\n  tag_85\n    /* \"#utility.yul\":3505:3512   */\n  dup6\n    /* \"#utility.yul\":3496:3502   */\n  dup3\n    /* \"#utility.yul\":3485:3494   */\n  dup7\n    /* \"#utility.yul\":3481:3503   */\n  add\n    /* \"#utility.yul\":3439:3513   */\n  tag_24\n  jump\t// in\ntag_85:\n    /* \"#utility.yul\":3429:3513   */\n  swap2\n  pop\n    /* \"#utility.yul\":3231:3523   */\n  pop\n    /* \"#utility.yul\":2677:3530   */\n  swap3\n  pop\n  swap3\n  swap1\n  pop\n  jump\t// out\n    /* \"#utility.yul\":3536:3635   */\ntag_25:\n    /* \"#utility.yul\":3588:3594   */\n  0x00\n    /* \"#utility.yul\":3622:3627   */\n  dup2\n    /* \"#utility.yul\":3616:3628   */\n  mload\n    /* \"#utility.yul\":3606:3628   */\n  swap1\n  pop\n    /* \"#utility.yul\":3536:3635   */\n  swap2\n  swap1\n  pop\n  jump\t// out\n    /* \"#utility.yul\":3641:3821   */\ntag_26:\n    /* \"#utility.yul\":3689:3766   */\n  0x4e487b7100000000000000000000000000000000000000000000000000000000\n    /* \"#utility.yul\":3686:3687   */\n  0x00\n    /* \"#utility.yul\":3679:3767   */\n  mstore\n    /* \"#utility.yul\":3786:3790   */\n  0x22\n    /* \"#utility.yul\":3783:3784   */\n  0x04\n    /* \"#utility.yul\":3776:3791   */\n  mstore\n    /* \"#utility.yul\":3810:3814   */\n  0x24\n    /* \"#utility.yul\":3807:3808   */\n  0x00\n    /* \"#utility.yul\":3800:3815   */\n  revert\n    /* \"#utility.yul\":3827:4147   */\ntag_27:\n    /* \"#utility.yul\":3871:3877   */\n  0x00\n    /* \"#utility.yul\":3908:3909   */\n  0x02\n    /* \"#utility.yul\":3902:3906   */\n  dup3\n    /* \"#utility.yul\":3898:3910   */\n  div\n    /* \"#utility.yul\":3888:3910   */\n  swap1\n  pop\n    /* \"#utility.yul\":3955:3956   */\n  0x01\n    /* \"#utility.yul\":3949:3953   */\n  dup3\n    /* \"#utility.yul\":3945:3957   */\n  and\n    /* \"#utility.yul\":3976:3994   */\n  dup1\n    /* \"#utility.yul\":3966:4047   */\n  tag_89\n  jumpi\n    /* \"#utility.yul\":4032:4036   */\n  0x7f\n    /* \"#utility.yul\":4024:4030   */\n  dup3\n    /* \"#utility.yul\":4020:4037   */\n  and\n    /* \"#utility.yul\":4010:4037   */\n  swap2\n  pop\n    /* \"#utility.yul\":3966:4047   */\ntag_89:\n    /* \"#utility.yul\":4094:4096   */\n  0x20\n    /* \"#utility.yul\":4086:4092   */\n  dup3\n    /* \"#utility.yul\":4083:4097   */\n  lt\n    /* \"#utility.yul\":4063:4081   */\n  dup2\n    /* \"#utility.yul\":4060:4098   */\n  sub\n    /* \"#utility.yul\":4057:4141   */\n  tag_90\n  jumpi\n    /* \"#utility.yul\":4113:4131   */\n  tag_91\n  tag_26\n  jump\t// in\ntag_91:\n    /* \"#utility.yul\":4057:4141   */\ntag_90:\n    /* \"#utility.yul\":3878:4147   */\n  pop\n    /* \"#utility.yul\":3827:4147   */\n  swap2\n  swap1\n  pop\n  jump\t// out\n    /* \"#utility.yul\":4153:4294   */\ntag_28:\n    /* \"#utility.yul\":4202:4206   */\n  0x00\n    /* \"#utility.yul\":4225:4228   */\n  dup2\n    /* \"#utility.yul\":4217:4228   */\n  swap1\n  pop\n    /* \"#utility.yul\":4248:4251   */\n  dup2\n    /* \"#utility.yul\":4245:4246   */\n  0x00\n    /* \"#utility.yul\":4238:4252   */\n  mstore\n    /* \"#utility.yul\":4282:4286   */\n  0x20\n    /* \"#utility.yul\":4279:4280   */\n  0x00\n    /* \"#utility.yul\":4269:4287   */\n  keccak256\n    /* \"#utility.yul\":4261:4287   */\n  swap1\n  pop\n    /* \"#utility.yul\":4153:4294   */\n  swap2\n  swap1\n  pop\n  jump\t// out\n    /* \"#utility.yul\":4300:4393   */\ntag_29:\n    /* \"#utility.yul\":4337:4343   */\n  0x00\n    /* \"#utility.yul\":4384:4386   */\n  0x20\n    /* \"#utility.yul\":4379:4381   */\n  0x1f\n    /* \"#utility.yul\":4372:4377   */\n  dup4\n    /* \"#utility.yul\":4368:4382   */\n  add\n    /* \"#utility.yul\":4364:4387   */\n  div\n    /* \"#utility.yul\":4354:4387   */\n  swap1\n  pop\n    /* \"#utility.yul\":4300:4393   */\n  swap2\n  swap1\n  pop\n  jump\t// out\n    /* \"#utility.yul\":4399:4506   */\ntag_30:\n    /* \"#utility.yul\":4443:4451   */\n  0x00\n    /* \"#utility.yul\":4493:4498   */\n  dup3\n    /* \"#utility.yul\":4487:4491   */\n  dup3\n    /* \"#utility.yul\":4483:4499   */\n  shl\n    /* \"#utility.yul\":4462:4499   */\n  swap1\n  pop\n    /* \"#utility.yul\":4399:4506   */\n  swap3\n  swap2\n  pop\n  pop\n  jump\t// out\n    /* \"#utility.yul\":4512:4905   */\ntag_31:\n    /* \"#utility.yul\":4581:4587   */\n  0x00\n    /* \"#utility.yul\":4631:4632   */\n  0x08\n    /* \"#utility.yul\":4619:4629   */\n  dup4\n    /* \"#utility.yul\":4615:4633   */\n  mul\n    /* \"#utility.yul\":4654:4751   */\n  tag_96\n    /* \"#utility.yul\":4684:4750   */\n  0xffffffffffffffffffffffffffffffffffffffffffffffffffffffffffffffff\n    /* \"#utility.yul\":4673:4682   */\n  dup3\n    /* \"#utility.yul\":4654:4751   */\n  tag_30\n  jump\t// in\ntag_96:\n    /* \"#utility.yul\":4772:4811   */\n  tag_97\n    /* \"#utility.yul\":4802:4810   */\n  dup7\n    /* \"#utility.yul\":4791:4800   */\n  dup4\n    /* \"#utility.yul\":4772:4811   */\n  tag_30\n  jump\t// in\ntag_97:\n    /* \"#utility.yul\":4760:4811   */\n  swap6\n  pop\n    /* \"#utility.yul\":4844:4848   */\n  dup1\n    /* \"#utility.yul\":4840:4849   */\n  not\n    /* \"#utility.yul\":4833:4838   */\n  dup5\n    /* \"#utility.yul\":4829:4850   */\n  and\n    /* \"#utility.yul\":4820:4850   */\n  swap4\n  pop\n    /* \"#utility.yul\":4893:4897   */\n  dup1\n    /* \"#utility.yul\":4883:4891   */\n  dup7\n    /* \"#utility.yul\":4879:4898   */\n  and\n    /* \"#utility.yul\":4872:4877   */\n  dup5\n    /* \"#utility.yul\":4869:4899   */\n  or\n    /* \"#utility.yul\":4859:4899   */\n  swap3\n  pop\n    /* \"#utility.yul\":4588:4905   */\n  pop\n  pop\n    /* \"#utility.yul\":4512:4905   */\n  swap4\n  swap3\n  pop\n  pop\n  pop\n  jump\t// out\n    /* \"#utility.yul\":4911:4988   */\ntag_32:\n    /* \"#utility.yul\":4948:4955   */\n  0x00\n    /* \"#utility.yul\":4977:4982   */\n  dup2\n    /* \"#utility.yul\":4966:4982   */\n  swap1\n  pop\n    /* \"#utility.yul\":4911:4988   */\n  swap2\n  swap1\n  pop\n  jump\t// out\n    /* \"#utility.yul\":4994:5054   */\ntag_33:\n    /* \"#utility.yul\":5022:5025   */\n  0x00\n    /* \"#utility.yul\":5043:5048   */\n  dup2\n    /* \"#utility.yul\":5036:5048   */\n  swap1\n  pop\n    /* \"#utility.yul\":4994:5054   */\n  swap2\n  swap1\n  pop\n  jump\t// out\n    /* \"#utility.yul\":5060:5202   */\ntag_34:\n    /* \"#utility.yul\":5110:5119   */\n  0x00\n    /* \"#utility.yul\":5143:5196   */\n  tag_101\n    /* \"#utility.yul\":5161:5195   */\n  tag_102\n    /* \"#utility.yul\":5170:5194   */\n  tag_103\n    /* \"#utility.yul\":5188:5193   */\n  dup5\n    /* \"#utility.yul\":5170:5194   */\n  tag_32\n  jump\t// in\ntag_103:\n    /* \"#utility.yul\":5161:5195   */\n  tag_33\n  jump\t// in\ntag_102:\n    /* \"#utility.yul\":5143:5196   */\n  tag_32\n  jump\t// in\ntag_101:\n    /* \"#utility.yul\":5130:5196   */\n  swap1\n  pop\n    /* \"#utility.yul\":5060:5202   */\n  swap2\n  swap1\n  pop\n  jump\t// out\n    /* \"#utility.yul\":5208:5283   */\ntag_35:\n    /* \"#utility.yul\":5251:5254   */\n  0x00\n    /* \"#utility.yul\":5272:5277   */\n  dup2\n    /* \"#utility.yul\":5265:5277   */\n  swap1\n  pop\n    /* \"#utility.yul\":5208:5283   */\n  swap2\n  swap1\n  pop\n  jump\t// out\n    /* \"#utility.yul\":5289:5558   */\ntag_36:\n    /* \"#utility.yul\":5399:5438   */\n  tag_106\n    /* \"#utility.yul\":5430:5437   */\n  dup4\n    /* \"#utility.yul\":5399:5438   */\n  tag_34\n  jump\t// in\ntag_106:\n    /* \"#utility.yul\":5460:5551   */\n  tag_107\n    /* \"#utility.yul\":5509:5550   */\n  tag_108\n    /* \"#utility.yul\":5533:5549   */\n  dup3\n    /* \"#utility.yul\":5509:5550   */\n  tag_35\n  jump\t// in\ntag_108:\n    /* \"#utility.yul\":5501:5507   */\n  dup5\n    /* \"#utility.yul\":5494:5498   */\n  dup5\n    /* \"#utility.yul\":5488:5499   */\n  sload\n    /* \"#utility.yul\":5460:5551   */\n  tag_31\n  jump\t// in\ntag_107:\n    /* \"#utility.yul\":5454:5458   */\n  dup3\n    /* \"#utility.yul\":5447:5552   */\n  sstore\n    /* \"#utility.yul\":5365:5558   */\n  pop\n    /* \"#utility.yul\":5289:5558   */\n  pop\n  pop\n  pop\n  jump\t// out\n    /* \"#utility.yul\":5564:5637   */\ntag_37:\n    /* \"#utility.yul\":5609:5612   */\n  0x00\n    /* \"#utility.yul\":5564:5637   */\n  swap1\n  jump\t// out\n    /* \"#utility.yul\":5643:5832   */\ntag_38:\n    /* \"#utility.yul\":5720:5752   */\n  tag_111\n  tag_37\n  jump\t// in\ntag_111:\n    /* \"#utility.yul\":5761:5826   */\n  tag_112\n    /* \"#utility.yul\":5819:5825   */\n  dup2\n    /* \"#utility.yul\":5811:5817   */\n  dup5\n    /* \"#utility.yul\":5805:5809   */\n  dup5\n    /* \"#utility.yul\":5761:5826   */\n  tag_36\n  jump\t// in\ntag_112:\n    /* \"#utility.yul\":5696:5832   */\n  pop\n    /* \"#utility.yul\":5643:5832   */\n  pop\n  pop\n  jump\t// out\n    /* \"#utility.yul\":5838:6024   */\ntag_39:\n    /* \"#utility.yul\":5898:6018   */\ntag_114:\n    /* \"#utility.yul\":5915:5918   */\n  dup2\n    /* \"#utility.yul\":5908:5913   */\n  dup2\n    /* \"#utility.yul\":5905:5919   */\n  lt\n    /* \"#utility.yul\":5898:6018   */\n  iszero\n  tag_116\n  jumpi\n    /* \"#utility.yul\":5969:6008   */\n  tag_117\n    /* \"#utility.yul\":6006:6007   */\n  0x00\n    /* \"#utility.yul\":5999:6004   */\n  dup3\n    /* \"#utility.yul\":5969:6008   */\n  tag_38\n  jump\t// in\ntag_117:\n    /* \"#utility.yul\":5942:5943   */\n  0x01\n    /* \"#utility.yul\":5935:5940   */\n  dup2\n    /* \"#utility.yul\":5931:5944   */\n  add\n    /* \"#utility.yul\":5922:5944   */\n  swap1\n  pop\n    /* \"#utility.yul\":5898:6018   */\n  jump(tag_114)\ntag_116:\n    /* \"#utility.yul\":5838:6024   */\n  pop\n  pop\n  jump\t// out\n    /* \"#utility.yul\":6030:6573   */\ntag_40:\n    /* \"#utility.yul\":6131:6133   */\n  0x1f\n    /* \"#utility.yul\":6126:6129   */\n  dup3\n    /* \"#utility.yul\":6123:6134   */\n  gt\n    /* \"#utility.yul\":6120:6566   */\n  iszero\n  tag_119\n  jumpi\n    /* \"#utility.yul\":6165:6203   */\n  tag_120\n    /* \"#utility.yul\":6197:6202   */\n  dup2\n    /* \"#utility.yul\":6165:6203   */\n  tag_28\n  jump\t// in\ntag_120:\n    /* \"#utility.yul\":6249:6278   */\n  tag_121\n    /* \"#utility.yul\":6267:6277   */\n  dup5\n    /* \"#utility.yul\":6249:6278   */\n  tag_29\n  jump\t// in\ntag_121:\n    /* \"#utility.yul\":6239:6247   */\n  dup2\n    /* \"#utility.yul\":6235:6279   */\n  add\n    /* \"#utility.yul\":6432:6434   */\n  0x20\n    /* \"#utility.yul\":6420:6430   */\n  dup6\n    /* \"#utility.yul\":6417:6435   */\n  lt\n    /* \"#utility.yul\":6414:6463   */\n  iszero\n  tag_122\n  jumpi\n    /* \"#utility.yul\":6453:6461   */\n  dup2\n    /* \"#utility.yul\":6438:6461   */\n  swap1\n  pop\n    /* \"#utility.yul\":6414:6463   */\ntag_122:\n    /* \"#utility.yul\":6476:6556   */\n  tag_123\n    /* \"#utility.yul\":6532:6554   */\n  tag_124\n    /* \"#utility.yul\":6550:6553   */\n  dup6\n    /* \"#utility.yul\":6532:6554   */\n  tag_29\n  jump\t// in\ntag_124:\n    /* \"#utility.yul\":6522:6530   */\n  dup4\n    /* \"#utility.yul\":6518:6555   */\n  add\n    /* \"#utility.yul\":6505:6516   */\n  dup3\n    /* \"#utility.yul\":6476:6556   */\n  tag_39\n  jump\t// in\ntag_123:\n    /* \"#utility.yul\":6135:6566   */\n  pop\n  pop\n    /* \"#utility.yul\":6120:6566   */\ntag_119:\n    /* \"#utility.yul\":6030:6573   */\n  pop\n  pop\n  pop\n  jump\t// out\n    /* \"#utility.yul\":6579:6696   */\ntag_41:\n    /* \"#utility.yul\":6633:6641   */\n  0x00\n    /* \"#utility.yul\":6683:6688   */\n  dup3\n    /* \"#utility.yul\":6677:6681   */\n  dup3\n    /* \"#utility.yul\":6673:6689   */\n  shr\n    /* \"#utility.yul\":6652:6689   */\n  swap1\n  pop\n    /* \"#utility.yul\":6579:6696   */\n  swap3\n  swap2\n  pop\n  pop\n  jump\t// out\n    /* \"#utility.yul\":6702:6871   */\ntag_42:\n    /* \"#utility.yul\":6746:6752   */\n  0x00\n    /* \"#utility.yul\":6779:6830   */\n  tag_127\n    /* \"#utility.yul\":6827:6828   */\n  0x00\n    /* \"#utility.yul\":6823:6829   */\n  not\n    /* \"#utility.yul\":6815:6820   */\n  dup5\n    /* \"#utility.yul\":6812:6813   */\n  0x08\n    /* \"#utility.yul\":6808:6821   */\n  mul\n    /* \"#utility.yul\":6779:6830   */\n  tag_41\n  jump\t// in\ntag_127:\n    /* \"#utility.yul\":6775:6831   */\n  not\n    /* \"#utility.yul\":6860:6864   */\n  dup1\n    /* \"#utility.yul\":6854:6858   */\n  dup4\n    /* \"#utility.yul\":6850:6865   */\n  and\n    /* \"#utility.yul\":6840:6865   */\n  swap2\n  pop\n    /* \"#utility.yul\":6753:6871   */\n  pop\n    /* \"#utility.yul\":6702:6871   */\n  swap3\n  swap2\n  pop\n  pop\n  jump\t// out\n    /* \"#utility.yul\":6876:7171   */\ntag_43:\n    /* \"#utility.yul\":6952:6956   */\n  0x00\n    /* \"#utility.yul\":7098:7127   */\n  tag_129\n    /* \"#utility.yul\":7123:7126   */\n  dup4\n    /* \"#utility.yul\":7117:7121   */\n  dup4\n    /* \"#utility.yul\":7098:7127   */\n  tag_42\n  jump\t// in\ntag_129:\n    /* \"#utility.yul\":7090:7127   */\n  swap2\n  pop\n    /* \"#utility.yul\":7160:7163   */\n  dup3\n    /* \"#utility.yul\":7157:7158   */\n  0x02\n    /* \"#utility.yul\":7153:7164   */\n  mul\n    /* \"#utility.yul\":7147:7151   */\n  dup3\n    /* \"#utility.yul\":7144:7165   */\n  or\n    /* \"#utility.yul\":7136:7165   */\n  swap1\n  pop\n    /* \"#utility.yul\":6876:7171   */\n  swap3\n  swap2\n  pop\n  pop\n  jump\t// out\n    /* \"#utility.yul\":7176:8571   */\ntag_8:\n    /* \"#utility.yul\":7293:7330   */\n  tag_131\n    /* \"#utility.yul\":7326:7329   */\n  dup3\n    /* \"#utility.yul\":7293:7330   */\n  tag_25\n  jump\t// in\ntag_131:\n    /* \"#utility.yul\":7395:7413   */\n  0xffffffffffffffff\n    /* \"#utility.yul\":7387:7393   */\n  dup2\n    /* \"#utility.yul\":7384:7414   */\n  gt\n    /* \"#utility.yul\":7381:7437   */\n  iszero\n  tag_132\n  jumpi\n    /* \"#utility.yul\":7417:7435   */\n  tag_133\n  tag_18\n  jump\t// in\ntag_133:\n    /* \"#utility.yul\":7381:7437   */\ntag_132:\n    /* \"#utility.yul\":7461:7499   */\n  tag_134\n    /* \"#utility.yul\":7493:7497   */\n  dup3\n    /* \"#utility.yul\":7487:7498   */\n  sload\n    /* \"#utility.yul\":7461:7499   */\n  tag_27\n  jump\t// in\ntag_134:\n    /* \"#utility.yul\":7546:7613   */\n  tag_135\n    /* \"#utility.yul\":7606:7612   */\n  dup3\n    /* \"#utility.yul\":7598:7604   */\n  dup3\n    /* \"#utility.yul\":7592:7596   */\n  dup6\n    /* \"#utility.yul\":7546:7613   */\n  tag_40\n  jump\t// in\ntag_135:\n    /* \"#utility.yul\":7640:7641   */\n  0x00\n    /* \"#utility.yul\":7664:7668   */\n  0x20\n    /* \"#utility.yul\":7651:7668   */\n  swap1\n  pop\n    /* \"#utility.yul\":7696:7698   */\n  0x1f\n    /* \"#utility.yul\":7688:7694   */\n  dup4\n    /* \"#utility.yul\":7685:7699   */\n  gt\n    /* \"#utility.yul\":7713:7714   */\n  0x01\n    /* \"#utility.yul\":7708:8326   */\n  dup2\n  eq\n  tag_137\n  jumpi\n    /* \"#utility.yul\":8370:8371   */\n  0x00\n    /* \"#utility.yul\":8387:8393   */\n  dup5\n    /* \"#utility.yul\":8384:8461   */\n  iszero\n  tag_138\n  jumpi\n    /* \"#utility.yul\":8436:8445   */\n  dup3\n    /* \"#utility.yul\":8431:8434   */\n  dup8\n    /* \"#utility.yul\":8427:8446   */\n  add\n    /* \"#utility.yul\":8421:8447   */\n  mload\n    /* \"#utility.yul\":8412:8447   */\n  swap1\n  pop\n    /* \"#utility.yul\":8384:8461   */\ntag_138:\n    /* \"#utility.yul\":8487:8554   */\n  tag_139\n    /* \"#utility.yul\":8547:8553   */\n  dup6\n    /* \"#utility.yul\":8540:8545   */\n  dup3\n    /* \"#utility.yul\":8487:8554   */\n  tag_43\n  jump\t// in\ntag_139:\n    /* \"#utility.yul\":8481:8485   */\n  dup7\n    /* \"#utility.yul\":8474:8555   */\n  sstore\n    /* \"#utility.yul\":8343:8565   */\n  pop\n    /* \"#utility.yul\":7678:8565   */\n  jump(tag_136)\n    /* \"#utility.yul\":7708:8326   */\ntag_137:\n    /* \"#utility.yul\":7760:7764   */\n  0x1f\n    /* \"#utility.yul\":7756:7765   */\n  not\n    /* \"#utility.yul\":7748:7754   */\n  dup5\n    /* \"#utility.yul\":7744:7766   */\n  and\n    /* \"#utility.yul\":7794:7831   */\n  tag_140\n    /* \"#utility.yul\":7826:7830   */\n  dup7\n    /* \"#utility.yul\":7794:7831   */\n  tag_28\n  jump\t// in\ntag_140:\n    /* \"#utility.yul\":7853:7854   */\n  0x00\n    /* \"#utility.yul\":7867:8075   */\ntag_141:\n    /* \"#utility.yul\":7881:7888   */\n  dup3\n    /* \"#utility.yul\":7878:7879   */\n  dup2\n    /* \"#utility.yul\":7875:7889   */\n  lt\n    /* \"#utility.yul\":7867:8075   */\n  iszero\n  tag_143\n  jumpi\n    /* \"#utility.yul\":7960:7969   */\n  dup5\n    /* \"#utility.yul\":7955:7958   */\n  dup10\n    /* \"#utility.yul\":7951:7970   */\n  add\n    /* \"#utility.yul\":7945:7971   */\n  mload\n    /* \"#utility.yul\":7937:7943   */\n  dup3\n    /* \"#utility.yul\":7930:7972   */\n  sstore\n    /* \"#utility.yul\":8011:8012   */\n  0x01\n    /* \"#utility.yul\":8003:8009   */\n  dup3\n    /* \"#utility.yul\":7999:8013   */\n  add\n    /* \"#utility.yul\":7989:8013   */\n  swap2\n  pop\n    /* \"#utility.yul\":8058:8060   */\n  0x20\n    /* \"#utility.yul\":8047:8056   */\n  dup6\n    /* \"#utility.yul\":8043:8061   */\n  add\n    /* \"#utility.yul\":8030:8061   */\n  swap5\n  pop\n    /* \"#utility.yul\":7904:7908   */\n  0x20\n    /* \"#utility.yul\":7901:7902   */\n  dup2\n    /* \"#utility.yul\":7897:7909   */\n  add\n    /* \"#utility.yul\":7892:7909   */\n  swap1\n  pop\n    /* \"#utility.yul\":7867:8075   */\n  jump(tag_141)\ntag_143:\n    /* \"#utility.yul\":8103:8109   */\n  dup7\n    /* \"#utility.yul\":8094:8101   */\n  dup4\n    /* \"#utility.yul\":8091:8110   */\n  lt\n    /* \"#utility.yul\":8088:8267   */\n  iszero\n  tag_144\n  jumpi\n    /* \"#utility.yul\":8161:8170   */\n  dup5\n    /* \"#utility.yul\":8156:8159   */\n  dup10\n    /* \"#utility.yul\":8152:8171   */\n  add\n    /* \"#utility.yul\":8146:8172   */\n  mload\n    /* \"#utility.yul\":8204:8252   */\n  tag_145\n    /* \"#utility.yul\":8246:8250   */\n  0x1f\n    /* \"#utility.yul\":8238:8244   */\n  dup10\n    /* \"#utility.yul\":8234:8251   */\n  and\n    /* \"#utility.yul\":8223:8232   */\n  dup3\n    /* \"#utility.yul\":8204:8252   */\n  tag_42\n  jump\t// in\ntag_145:\n    /* \"#utility.yul\":8196:8202   */\n  dup4\n    /* \"#utility.yul\":8189:8253   */\n  sstore\n    /* \"#utility.yul\":8111:8267   */\n  pop\n    /* \"#utility.yul\":8088:8267   */\ntag_144:\n    /* \"#utility.yul\":8313:8314   */\n  0x01\n    /* \"#utility.yul\":8309:8310   */\n  0x02\n    /* \"#utility.yul\":8301:8307   */\n  dup9\n    /* \"#utility.yul\":8297:8311   */\n  mul\n    /* \"#utility.yul\":8293:8315   */\n  add\n    /* \"#utility.yul\":8287:8291   */\n  dup9\n    /* \"#utility.yul\":8280:8316   */\n  sstore\n    /* \"#utility.yul\":7715:8326   */\n  pop\n  pop\n  pop\n    /* \"#utility.yul\":7678:8565   */\ntag_136:\n  pop\n    /* \"#utility.yul\":7268:8571   */\n  pop\n  pop\n  pop\n    /* \"#utility.yul\":7176:8571   */\n  pop\n  pop\n  jump\t// out\n    /* \"contracts/TokenBase.sol\":202:5487  contract TokenBase is ERC721, ERC721URIStorage {... */\ntag_11:\n  dataSize(sub_0)\n  dup1\n  dataOffset(sub_0)\n  0x00\n  codecopy\n  0x00\n  return\nstop\n\nsub_0: assembly {\n        /* \"contracts/TokenBase.sol\":202:5487  contract TokenBase is ERC721, ERC721URIStorage {... */\n      mstore(0x40, 0x80)\n      callvalue\n      dup1\n      iszero\n      tag_1\n      jumpi\n      0x00\n      dup1\n      revert\n    tag_1:\n      pop\n      jumpi(tag_2, lt(calldatasize, 0x04))\n      shr(0xe0, calldataload(0x00))\n      dup1\n      0x70a08231\n      gt\n      tag_21\n      jumpi\n      dup1\n      0xb88d4fde\n      gt\n      tag_22\n      jumpi\n      dup1\n      0xb88d4fde\n      eq\n      tag_16\n      jumpi\n      dup1\n      0xc87b56dd\n      eq\n      tag_17\n      jumpi\n      dup1\n      0xe6e2d08e\n      eq\n      tag_18\n      jumpi\n      dup1\n      0xe985e9c5\n      eq\n      tag_19\n      jumpi\n      dup1\n      0xf119f567\n      eq\n      tag_20\n      jumpi\n      jump(tag_2)\n    tag_22:\n      dup1\n      0x70a08231\n      eq\n      tag_12\n      jumpi\n      dup1\n      0x95d89b41\n      eq\n      tag_13\n      jumpi\n      dup1\n      0xa22cb465\n      eq\n      tag_14\n      jumpi\n      dup1\n      0xb564ea86\n      eq\n      tag_15\n      jumpi\n      jump(tag_2)\n    tag_21:\n      dup1\n      0x095ea7b3\n      gt\n      tag_23\n      jumpi\n      dup1\n      0x095ea7b3\n      eq\n      tag_7\n      jumpi\n      dup1\n      0x162094c4\n      eq\n      tag_8\n      jumpi\n      dup1\n      0x23b872dd\n      eq\n      tag_9\n      jumpi\n      dup1\n      0x42842e0e\n      eq\n      tag_10\n      jumpi\n      dup1\n      0x6352211e\n      eq\n      tag_11\n      jumpi\n      jump(tag_2)\n    tag_23:\n      dup1\n      0xe00064\n      eq\n      tag_3\n      jumpi\n      dup1\n      0x01ffc9a7\n      eq\n      tag_4\n      jumpi\n      dup1\n      0x06fdde03\n      eq\n      tag_5\n      jumpi\n      dup1\n      0x081812fc\n      eq\n      tag_6\n      jumpi\n    tag_2:\n      0x00\n      dup1\n      revert\n        /* \"contracts/TokenBase.sol\":2483:3466  function feeding(uint256 tokenId) external{... */\n    tag_3:\n      tag_24\n      0x04\n      dup1\n      calldatasize\n      sub\n      dup2\n      add\n      swap1\n      tag_25\n      swap2\n      swap1\n      tag_26\n      jump\t// in\n    tag_25:\n      tag_27\n      jump\t// in\n    tag_24:\n      stop\n        /* \"contracts/TokenBase.sol\":5272:5484  function supportsInterface(bytes4 interfaceId)... */\n    tag_4:\n      tag_28\n      0x04\n      dup1\n      calldatasize\n      sub\n      dup2\n      add\n      swap1\n      tag_29\n      swap2\n      swap1\n      tag_30\n      jump\t// in\n    tag_29:\n      tag_31\n      jump\t// in\n    tag_28:\n      mload(0x40)\n      tag_32\n      swap2\n      swap1\n      tag_33\n      jump\t// in\n    tag_32:\n      mload(0x40)\n      dup1\n      swap2\n      sub\n      swap1\n      return\n        /* \"@openzeppelin/contracts/token/ERC721/ERC721.sol\":2365:2454  function name() public view virtual returns (string memory) {... */\n    tag_5:\n      tag_34\n      tag_35\n      jump\t// in\n    tag_34:\n      mload(0x40)\n      tag_36\n      swap2\n      swap1\n      tag_37\n      jump\t// in\n    tag_36:\n      mload(0x40)\n      dup1\n      swap2\n      sub\n      swap1\n      return\n        /* \"@openzeppelin/contracts/token/ERC721/ERC721.sol\":3497:3651  function getApproved(uint256 tokenId) public view virtual returns (address) {... */\n    tag_6:\n      tag_38\n      0x04\n      dup1\n      calldatasize\n      sub\n      dup2\n      add\n      swap1\n      tag_39\n      swap2\n      swap1\n      tag_26\n      jump\t// in\n    tag_39:\n      tag_40\n      jump\t// in\n    tag_38:\n      mload(0x40)\n      tag_41\n      swap2\n      swap1\n      tag_42\n      jump\t// in\n    tag_41:\n      mload(0x40)\n      dup1\n      swap2\n      sub\n      swap1\n      return\n        /* \"@openzeppelin/contracts/token/ERC721/ERC721.sol\":3323:3436  function approve(address to, uint256 tokenId) public virtual {... */\n    tag_7:\n      tag_43\n      0x04\n      dup1\n      calldatasize\n      sub\n      dup2\n      add\n      swap1\n      tag_44\n      swap2\n      swap1\n      tag_45\n      jump\t// in\n    tag_44:\n      tag_46\n      jump\t// in\n    tag_43:\n      stop\n        /* \"contracts/TokenBase.sol\":4951:5062  function setTokenURI(uint256 tokenId, string calldata url) external {... */\n    tag_8:\n      tag_47\n      0x04\n      dup1\n      calldatasize\n      sub\n      dup2\n      add\n      swap1\n      tag_48\n      swap2\n      swap1\n      tag_49\n      jump\t// in\n    tag_48:\n      tag_50\n      jump\t// in\n    tag_47:\n      stop\n        /* \"@openzeppelin/contracts/token/ERC721/ERC721.sol\":4143:4721  function transferFrom(address from, address to, uint256 tokenId) public virtual {... */\n    tag_9:\n      tag_51\n      0x04\n      dup1\n      calldatasize\n      sub\n      dup2\n      add\n      swap1\n      tag_52\n      swap2\n      swap1\n      tag_53\n      jump\t// in\n    tag_52:\n      tag_54\n      jump\t// in\n    tag_51:\n      stop\n        /* \"@openzeppelin/contracts/token/ERC721/ERC721.sol\":4787:4919  function safeTransferFrom(address from, address to, uint256 tokenId) public {... */\n    tag_10:\n      tag_55\n      0x04\n      dup1\n      calldatasize\n      sub\n      dup2\n      add\n      swap1\n      tag_56\n      swap2\n      swap1\n      tag_53\n      jump\t// in\n    tag_56:\n      tag_57\n      jump\t// in\n    tag_55:\n      stop\n        /* \"@openzeppelin/contracts/token/ERC721/ERC721.sol\":2185:2303  function ownerOf(uint256 tokenId) public view virtual returns (address) {... */\n    tag_11:\n      tag_58\n      0x04\n      dup1\n      calldatasize\n      sub\n      dup2\n      add\n      swap1\n      tag_59\n      swap2\n      swap1\n      tag_26\n      jump\t// in\n    tag_59:\n      tag_60\n      jump\t// in\n    tag_58:\n      mload(0x40)\n      tag_61\n      swap2\n      swap1\n      tag_42\n      jump\t// in\n    tag_61:\n      mload(0x40)\n      dup1\n      swap2\n      sub\n      swap1\n      return\n        /* \"@openzeppelin/contracts/token/ERC721/ERC721.sol\":1920:2128  function balanceOf(address owner) public view virtual returns (uint256) {... */\n    tag_12:\n      tag_62\n      0x04\n      dup1\n      calldatasize\n      sub\n      dup2\n      add\n      swap1\n      tag_63\n      swap2\n      swap1\n      tag_64\n      jump\t// in\n    tag_63:\n      tag_65\n      jump\t// in\n    tag_62:\n      mload(0x40)\n      tag_66\n      swap2\n      swap1\n      tag_67\n      jump\t// in\n    tag_66:\n      mload(0x40)\n      dup1\n      swap2\n      sub\n      swap1\n      return\n        /* \"@openzeppelin/contracts/token/ERC721/ERC721.sol\":2518:2611  function symbol() public view virtual returns (string memory) {... */\n    tag_13:\n      tag_68\n      tag_69\n      jump\t// in\n    tag_68:\n      mload(0x40)\n      tag_70\n      swap2\n      swap1\n      tag_37\n      jump\t// in\n    tag_70:\n      mload(0x40)\n      dup1\n      swap2\n      sub\n      swap1\n      return\n        /* \"@openzeppelin/contracts/token/ERC721/ERC721.sol\":3718:3862  function setApprovalForAll(address operator, bool approved) public virtual {... */\n    tag_14:\n      tag_71\n      0x04\n      dup1\n      calldatasize\n      sub\n      dup2\n      add\n      swap1\n      tag_72\n      swap2\n      swap1\n      tag_73\n      jump\t// in\n    tag_72:\n      tag_74\n      jump\t// in\n    tag_71:\n      stop\n        /* \"contracts/TokenBase.sol\":3474:4205  function getGrowthInfo(uint256 tokenId) external view returns(GrowthStage currentStage, uint256 timeRemaining){... */\n    tag_15:\n      tag_75\n      0x04\n      dup1\n      calldatasize\n      sub\n      dup2\n      add\n      swap1\n      tag_76\n      swap2\n      swap1\n      tag_26\n      jump\t// in\n    tag_76:\n      tag_77\n      jump\t// in\n    tag_75:\n      mload(0x40)\n      tag_78\n      swap3\n      swap2\n      swap1\n      tag_79\n      jump\t// in\n    tag_78:\n      mload(0x40)\n      dup1\n      swap2\n      sub\n      swap1\n      return\n        /* \"@openzeppelin/contracts/token/ERC721/ERC721.sol\":4985:5193  function safeTransferFrom(address from, address to, uint256 tokenId, bytes memory data) public virtual {... */\n    tag_16:\n      tag_80\n      0x04\n      dup1\n      calldatasize\n      sub\n      dup2\n      add\n      swap1\n      tag_81\n      swap2\n      swap1\n      tag_82\n      jump\t// in\n    tag_81:\n      tag_83\n      jump\t// in\n    tag_80:\n      stop\n        /* \"contracts/TokenBase.sol\":5070:5260  function tokenURI(uint256 tokenId)... */\n    tag_17:\n      tag_84\n      0x04\n      dup1\n      calldatasize\n      sub\n      dup2\n      add\n      swap1\n      tag_85\n      swap2\n      swap1\n      tag_26\n      jump\t// in\n    tag_85:\n      tag_86\n      jump\t// in\n    tag_84:\n      mload(0x40)\n      tag_87\n      swap2\n      swap1\n      tag_37\n      jump\t// in\n    tag_87:\n      mload(0x40)\n      dup1\n      swap2\n      sub\n      swap1\n      return\n        /* \"contracts/TokenBase.sol\":850:898  mapping(uint256 => GrowthTime) public growthTime */\n    tag_18:\n      tag_88\n      0x04\n      dup1\n      calldatasize\n      sub\n      dup2\n      add\n      swap1\n      tag_89\n      swap2\n      swap1\n      tag_26\n      jump\t// in\n    tag_89:\n      tag_90\n      jump\t// in\n    tag_88:\n      mload(0x40)\n      tag_91\n      swap4\n      swap3\n      swap2\n      swap1\n      tag_92\n      jump\t// in\n    tag_91:\n      mload(0x40)\n      dup1\n      swap2\n      sub\n      swap1\n      return\n        /* \"@openzeppelin/contracts/token/ERC721/ERC721.sol\":3928:4081  function isApprovedForAll(address owner, address operator) public view virtual returns (bool) {... */\n    tag_19:\n      tag_93\n      0x04\n      dup1\n      calldatasize\n      sub\n      dup2\n      add\n      swap1\n      tag_94\n      swap2\n      swap1\n      tag_95\n      jump\t// in\n    tag_94:\n      tag_96\n      jump\t// in\n    tag_93:\n      mload(0x40)\n      tag_97\n      swap2\n      swap1\n      tag_33\n      jump\t// in\n    tag_97:\n      mload(0x40)\n      dup1\n      swap2\n      sub\n      swap1\n      return\n        /* \"contracts/TokenBase.sol\":1084:1926  function evolve(uint256 tokenId) external {... */\n    tag_20:\n      tag_98\n      0x04\n      dup1\n      calldatasize\n      sub\n      dup2\n      add\n      swap1\n      tag_99\n      swap2\n      swap1\n      tag_26\n      jump\t// in\n    tag_99:\n      tag_100\n      jump\t// in\n    tag_98:\n      stop\n        /* \"contracts/TokenBase.sol\":2483:3466  function feeding(uint256 tokenId) external{... */\n    tag_27:\n        /* \"contracts/TokenBase.sol\":2569:2586  GrowthStage.Adult */\n      0x03\n        /* \"contracts/TokenBase.sol\":2544:2586  growthStages[tokenId] != GrowthStage.Adult */\n      dup1\n      dup2\n      gt\n      iszero\n      tag_102\n      jumpi\n      tag_103\n      tag_104\n      jump\t// in\n    tag_103:\n    tag_102:\n        /* \"contracts/TokenBase.sol\":2544:2556  growthStages */\n      0x07\n        /* \"contracts/TokenBase.sol\":2544:2565  growthStages[tokenId] */\n      0x00\n        /* \"contracts/TokenBase.sol\":2557:2564  tokenId */\n      dup4\n        /* \"contracts/TokenBase.sol\":2544:2565  growthStages[tokenId] */\n      dup2\n      mstore\n      0x20\n      add\n      swap1\n      dup2\n      mstore\n      0x20\n      add\n      0x00\n      keccak256\n      0x00\n      swap1\n      sload\n      swap1\n      0x0100\n      exp\n      swap1\n      div\n      0xff\n      and\n        /* \"contracts/TokenBase.sol\":2544:2586  growthStages[tokenId] != GrowthStage.Adult */\n      0x03\n      dup2\n      gt\n      iszero\n      tag_105\n      jumpi\n      tag_106\n      tag_104\n      jump\t// in\n    tag_106:\n    tag_105:\n      sub\n        /* \"contracts/TokenBase.sol\":2536:2613  require(growthStages[tokenId] != GrowthStage.Adult, \"token is already adult\") */\n      tag_107\n      jumpi\n      mload(0x40)\n      0x08c379a000000000000000000000000000000000000000000000000000000000\n      dup2\n      mstore\n      0x04\n      add\n      tag_108\n      swap1\n      tag_109\n      jump\t// in\n    tag_108:\n      mload(0x40)\n      dup1\n      swap2\n      sub\n      swap1\n      revert\n    tag_107:\n        /* \"contracts/TokenBase.sol\":2626:2650  GrowthStage currentStage */\n      0x00\n        /* \"contracts/TokenBase.sol\":2653:2665  growthStages */\n      0x07\n        /* \"contracts/TokenBase.sol\":2653:2674  growthStages[tokenId] */\n      0x00\n        /* \"contracts/TokenBase.sol\":2666:2673  tokenId */\n      dup4\n        /* \"contracts/TokenBase.sol\":2653:2674  growthStages[tokenId] */\n      dup2\n      mstore\n      0x20\n      add\n      swap1\n      dup2\n      mstore\n      0x20\n      add\n      0x00\n      keccak256\n      0x00\n      swap1\n      sload\n      swap1\n      0x0100\n      exp\n      swap1\n      div\n      0xff\n      and\n        /* \"contracts/TokenBase.sol\":2626:2674  GrowthStage currentStage = growthStages[tokenId] */\n      swap1\n      pop\n        /* \"contracts/TokenBase.sol\":2707:2722  GrowthStage.Egg */\n      0x00\n        /* \"contracts/TokenBase.sol\":2691:2722  currentStage == GrowthStage.Egg */\n      0x03\n      dup2\n      gt\n      iszero\n      tag_110\n      jumpi\n      tag_111\n      tag_104\n      jump\t// in\n    tag_111:\n    tag_110:\n        /* \"contracts/TokenBase.sol\":2691:2703  currentStage */\n      dup2\n        /* \"contracts/TokenBase.sol\":2691:2722  currentStage == GrowthStage.Egg */\n      0x03\n      dup2\n      gt\n      iszero\n      tag_112\n      jumpi\n      tag_113\n      tag_104\n      jump\t// in\n    tag_113:\n    tag_112:\n      sub\n        /* \"contracts/TokenBase.sol\":2687:3457  if (currentStage == GrowthStage.Egg) {... */\n      tag_114\n      jumpi\n        /* \"contracts/TokenBase.sol\":2772:2779  3 hours */\n      0x2a30\n        /* \"contracts/TokenBase.sol\":2743:2753  growthTime */\n      0x0a\n        /* \"contracts/TokenBase.sol\":2743:2762  growthTime[tokenId] */\n      0x00\n        /* \"contracts/TokenBase.sol\":2754:2761  tokenId */\n      dup5\n        /* \"contracts/TokenBase.sol\":2743:2762  growthTime[tokenId] */\n      dup2\n      mstore\n      0x20\n      add\n      swap1\n      dup2\n      mstore\n      0x20\n      add\n      0x00\n      keccak256\n        /* \"contracts/TokenBase.sol\":2743:2768  growthTime[tokenId].hatch */\n      0x00\n      add\n      sload\n        /* \"contracts/TokenBase.sol\":2743:2779  growthTime[tokenId].hatch >= 3 hours */\n      lt\n        /* \"contracts/TokenBase.sol\":2739:2922  if (growthTime[tokenId].hatch >= 3 hours) {... */\n      tag_115\n      jumpi\n        /* \"contracts/TokenBase.sol\":2829:2836  3 hours */\n      0x2a30\n        /* \"contracts/TokenBase.sol\":2800:2810  growthTime */\n      0x0a\n        /* \"contracts/TokenBase.sol\":2800:2819  growthTime[tokenId] */\n      0x00\n        /* \"contracts/TokenBase.sol\":2811:2818  tokenId */\n      dup5\n        /* \"contracts/TokenBase.sol\":2800:2819  growthTime[tokenId] */\n      dup2\n      mstore\n      0x20\n      add\n      swap1\n      dup2\n      mstore\n      0x20\n      add\n      0x00\n      keccak256\n        /* \"contracts/TokenBase.sol\":2800:2825  growthTime[tokenId].hatch */\n      0x00\n      add\n      0x00\n        /* \"contracts/TokenBase.sol\":2800:2836  growthTime[tokenId].hatch -= 3 hours */\n      dup3\n      dup3\n      sload\n      tag_116\n      swap2\n      swap1\n      tag_117\n      jump\t// in\n    tag_116:\n      swap3\n      pop\n      pop\n      dup2\n      swap1\n      sstore\n      pop\n        /* \"contracts/TokenBase.sol\":2739:2922  if (growthTime[tokenId].hatch >= 3 hours) {... */\n      jump(tag_118)\n    tag_115:\n        /* \"contracts/TokenBase.sol\":2905:2906  0 */\n      0x00\n        /* \"contracts/TokenBase.sol\":2877:2887  growthTime */\n      0x0a\n        /* \"contracts/TokenBase.sol\":2877:2896  growthTime[tokenId] */\n      0x00\n        /* \"contracts/TokenBase.sol\":2888:2895  tokenId */\n      dup5\n        /* \"contracts/TokenBase.sol\":2877:2896  growthTime[tokenId] */\n      dup2\n      mstore\n      0x20\n      add\n      swap1\n      dup2\n      mstore\n      0x20\n      add\n      0x00\n      keccak256\n        /* \"contracts/TokenBase.sol\":2877:2902  growthTime[tokenId].hatch */\n      0x00\n      add\n        /* \"contracts/TokenBase.sol\":2877:2906  growthTime[tokenId].hatch = 0 */\n      dup2\n      swap1\n      sstore\n      pop\n        /* \"contracts/TokenBase.sol\":2739:2922  if (growthTime[tokenId].hatch >= 3 hours) {... */\n    tag_118:\n        /* \"contracts/TokenBase.sol\":2687:3457  if (currentStage == GrowthStage.Egg) {... */\n      jump(tag_119)\n    tag_114:\n        /* \"contracts/TokenBase.sol\":2959:2976  GrowthStage.Hatch */\n      0x01\n        /* \"contracts/TokenBase.sol\":2943:2976  currentStage == GrowthStage.Hatch */\n      0x03\n      dup2\n      gt\n      iszero\n      tag_120\n      jumpi\n      tag_121\n      tag_104\n      jump\t// in\n    tag_121:\n    tag_120:\n        /* \"contracts/TokenBase.sol\":2943:2955  currentStage */\n      dup2\n        /* \"contracts/TokenBase.sol\":2943:2976  currentStage == GrowthStage.Hatch */\n      0x03\n      dup2\n      gt\n      iszero\n      tag_122\n      jumpi\n      tag_123\n      tag_104\n      jump\t// in\n    tag_123:\n    tag_122:\n      sub\n        /* \"contracts/TokenBase.sol\":2939:3457  if (currentStage == GrowthStage.Hatch) {... */\n      tag_124\n      jumpi\n        /* \"contracts/TokenBase.sol\":3030:3037  3 hours */\n      0x2a30\n        /* \"contracts/TokenBase.sol\":2997:3007  growthTime */\n      0x0a\n        /* \"contracts/TokenBase.sol\":2997:3016  growthTime[tokenId] */\n      0x00\n        /* \"contracts/TokenBase.sol\":3008:3015  tokenId */\n      dup5\n        /* \"contracts/TokenBase.sol\":2997:3016  growthTime[tokenId] */\n      dup2\n      mstore\n      0x20\n      add\n      swap1\n      dup2\n      mstore\n      0x20\n      add\n      0x00\n      keccak256\n        /* \"contracts/TokenBase.sol\":2997:3026  growthTime[tokenId].hatchling */\n      0x01\n      add\n      sload\n        /* \"contracts/TokenBase.sol\":2997:3037  growthTime[tokenId].hatchling >= 3 hours */\n      lt\n        /* \"contracts/TokenBase.sol\":2993:3188  if (growthTime[tokenId].hatchling >= 3 hours) {... */\n      tag_125\n      jumpi\n        /* \"contracts/TokenBase.sol\":3091:3098  3 hours */\n      0x2a30\n        /* \"contracts/TokenBase.sol\":3058:3068  growthTime */\n      0x0a\n        /* \"contracts/TokenBase.sol\":3058:3077  growthTime[tokenId] */\n      0x00\n        /* \"contracts/TokenBase.sol\":3069:3076  tokenId */\n      dup5\n        /* \"contracts/TokenBase.sol\":3058:3077  growthTime[tokenId] */\n      dup2\n      mstore\n      0x20\n      add\n      swap1\n      dup2\n      mstore\n      0x20\n      add\n      0x00\n      keccak256\n        /* \"contracts/TokenBase.sol\":3058:3087  growthTime[tokenId].hatchling */\n      0x01\n      add\n      0x00\n        /* \"contracts/TokenBase.sol\":3058:3098  growthTime[tokenId].hatchling -= 3 hours */\n      dup3\n      dup3\n      sload\n      tag_126\n      swap2\n      swap1\n      tag_117\n      jump\t// in\n    tag_126:\n      swap3\n      pop\n      pop\n      dup2\n      swap1\n      sstore\n      pop\n        /* \"contracts/TokenBase.sol\":2993:3188  if (growthTime[tokenId].hatchling >= 3 hours) {... */\n      jump(tag_127)\n    tag_125:\n        /* \"contracts/TokenBase.sol\":3171:3172  0 */\n      0x00\n        /* \"contracts/TokenBase.sol\":3139:3149  growthTime */\n      0x0a\n        /* \"contracts/TokenBase.sol\":3139:3158  growthTime[tokenId] */\n      0x00\n        /* \"contracts/TokenBase.sol\":3150:3157  tokenId */\n      dup5\n        /* \"contracts/TokenBase.sol\":3139:3158  growthTime[tokenId] */\n      dup2\n      mstore\n      0x20\n      add\n      swap1\n      dup2\n      mstore\n      0x20\n      add\n      0x00\n      keccak256\n        /* \"contracts/TokenBase.sol\":3139:3168  growthTime[tokenId].hatchling */\n      0x01\n      add\n        /* \"contracts/TokenBase.sol\":3139:3172  growthTime[tokenId].hatchling = 0 */\n      dup2\n      swap1\n      sstore\n      pop\n        /* \"contracts/TokenBase.sol\":2993:3188  if (growthTime[tokenId].hatchling >= 3 hours) {... */\n    tag_127:\n        /* \"contracts/TokenBase.sol\":2939:3457  if (currentStage == GrowthStage.Hatch) {... */\n      jump(tag_128)\n    tag_124:\n        /* \"contracts/TokenBase.sol\":3225:3246  GrowthStage.Hatchling */\n      0x02\n        /* \"contracts/TokenBase.sol\":3209:3246  currentStage == GrowthStage.Hatchling */\n      0x03\n      dup2\n      gt\n      iszero\n      tag_129\n      jumpi\n      tag_130\n      tag_104\n      jump\t// in\n    tag_130:\n    tag_129:\n        /* \"contracts/TokenBase.sol\":3209:3221  currentStage */\n      dup2\n        /* \"contracts/TokenBase.sol\":3209:3246  currentStage == GrowthStage.Hatchling */\n      0x03\n      dup2\n      gt\n      iszero\n      tag_131\n      jumpi\n      tag_132\n      tag_104\n      jump\t// in\n    tag_132:\n    tag_131:\n      sub\n        /* \"contracts/TokenBase.sol\":3205:3457  if (currentStage == GrowthStage.Hatchling) {... */\n      tag_133\n      jumpi\n        /* \"contracts/TokenBase.sol\":3296:3303  3 hours */\n      0x2a30\n        /* \"contracts/TokenBase.sol\":3267:3277  growthTime */\n      0x0a\n        /* \"contracts/TokenBase.sol\":3267:3286  growthTime[tokenId] */\n      0x00\n        /* \"contracts/TokenBase.sol\":3278:3285  tokenId */\n      dup5\n        /* \"contracts/TokenBase.sol\":3267:3286  growthTime[tokenId] */\n      dup2\n      mstore\n      0x20\n      add\n      swap1\n      dup2\n      mstore\n      0x20\n      add\n      0x00\n      keccak256\n        /* \"contracts/TokenBase.sol\":3267:3292  growthTime[tokenId].adult */\n      0x02\n      add\n      sload\n        /* \"contracts/TokenBase.sol\":3267:3303  growthTime[tokenId].adult >= 3 hours */\n      lt\n        /* \"contracts/TokenBase.sol\":3263:3446  if (growthTime[tokenId].adult >= 3 hours) {... */\n      tag_134\n      jumpi\n        /* \"contracts/TokenBase.sol\":3353:3360  3 hours */\n      0x2a30\n        /* \"contracts/TokenBase.sol\":3324:3334  growthTime */\n      0x0a\n        /* \"contracts/TokenBase.sol\":3324:3343  growthTime[tokenId] */\n      0x00\n        /* \"contracts/TokenBase.sol\":3335:3342  tokenId */\n      dup5\n        /* \"contracts/TokenBase.sol\":3324:3343  growthTime[tokenId] */\n      dup2\n      mstore\n      0x20\n      add\n      swap1\n      dup2\n      mstore\n      0x20\n      add\n      0x00\n      keccak256\n        /* \"contracts/TokenBase.sol\":3324:3349  growthTime[tokenId].adult */\n      0x02\n      add\n      0x00\n        /* \"contracts/TokenBase.sol\":3324:3360  growthTime[tokenId].adult -= 3 hours */\n      dup3\n      dup3\n      sload\n      tag_135\n      swap2\n      swap1\n      tag_117\n      jump\t// in\n    tag_135:\n      swap3\n      pop\n      pop\n      dup2\n      swap1\n      sstore\n      pop\n        /* \"contracts/TokenBase.sol\":3263:3446  if (growthTime[tokenId].adult >= 3 hours) {... */\n      jump(tag_136)\n    tag_134:\n        /* \"contracts/TokenBase.sol\":3429:3430  0 */\n      0x00\n        /* \"contracts/TokenBase.sol\":3401:3411  growthTime */\n      0x0a\n        /* \"contracts/TokenBase.sol\":3401:3420  growthTime[tokenId] */\n      0x00\n        /* \"contracts/TokenBase.sol\":3412:3419  tokenId */\n      dup5\n        /* \"contracts/TokenBase.sol\":3401:3420  growthTime[tokenId] */\n      dup2\n      mstore\n      0x20\n      add\n      swap1\n      dup2\n      mstore\n      0x20\n      add\n      0x00\n      keccak256\n        /* \"contracts/TokenBase.sol\":3401:3426  growthTime[tokenId].adult */\n      0x02\n      add\n        /* \"contracts/TokenBase.sol\":3401:3430  growthTime[tokenId].adult = 0 */\n      dup2\n      swap1\n      sstore\n      pop\n        /* \"contracts/TokenBase.sol\":3263:3446  if (growthTime[tokenId].adult >= 3 hours) {... */\n    tag_136:\n        /* \"contracts/TokenBase.sol\":3205:3457  if (currentStage == GrowthStage.Hatchling) {... */\n    tag_133:\n        /* \"contracts/TokenBase.sol\":2939:3457  if (currentStage == GrowthStage.Hatch) {... */\n    tag_128:\n        /* \"contracts/TokenBase.sol\":2687:3457  if (currentStage == GrowthStage.Egg) {... */\n    tag_119:\n        /* \"contracts/TokenBase.sol\":2525:3466  {... */\n      pop\n        /* \"contracts/TokenBase.sol\":2483:3466  function feeding(uint256 tokenId) external{... */\n      pop\n      jump\t// out\n        /* \"contracts/TokenBase.sol\":5272:5484  function supportsInterface(bytes4 interfaceId)... */\n    tag_31:\n        /* \"contracts/TokenBase.sol\":5411:5415  bool */\n      0x00\n        /* \"contracts/TokenBase.sol\":5440:5476  super.supportsInterface(interfaceId) */\n      tag_138\n        /* \"contracts/TokenBase.sol\":5464:5475  interfaceId */\n      dup3\n        /* \"contracts/TokenBase.sol\":5440:5463  super.supportsInterface */\n      tag_139\n        /* \"contracts/TokenBase.sol\":5440:5476  super.supportsInterface(interfaceId) */\n      jump\t// in\n    tag_138:\n        /* \"contracts/TokenBase.sol\":5433:5476  return super.supportsInterface(interfaceId) */\n      swap1\n      pop\n        /* \"contracts/TokenBase.sol\":5272:5484  function supportsInterface(bytes4 interfaceId)... */\n      swap2\n      swap1\n      pop\n      jump\t// out\n        /* \"@openzeppelin/contracts/token/ERC721/ERC721.sol\":2365:2454  function name() public view virtual returns (string memory) {... */\n    tag_35:\n        /* \"@openzeppelin/contracts/token/ERC721/ERC721.sol\":2410:2423  string memory */\n      0x60\n        /* \"@openzeppelin/contracts/token/ERC721/ERC721.sol\":2442:2447  _name */\n      0x00\n        /* \"@openzeppelin/contracts/token/ERC721/ERC721.sol\":2435:2447  return _name */\n      dup1\n      sload\n      tag_141\n      swap1\n      tag_142\n      jump\t// in\n    tag_141:\n      dup1\n      0x1f\n      add\n      0x20\n      dup1\n      swap2\n      div\n      mul\n      0x20\n      add\n      mload(0x40)\n      swap1\n      dup2\n      add\n      0x40\n      mstore\n      dup1\n      swap3\n      swap2\n      swap1\n      dup2\n      dup2\n      mstore\n      0x20\n      add\n      dup3\n      dup1\n      sload\n      tag_143\n      swap1\n      tag_142\n      jump\t// in\n    tag_143:\n      dup1\n      iszero\n      tag_144\n      jumpi\n      dup1\n      0x1f\n      lt\n      tag_145\n      jumpi\n      0x0100\n      dup1\n      dup4\n      sload\n      div\n      mul\n      dup4\n      mstore\n      swap2\n      0x20\n      add\n      swap2\n      jump(tag_144)\n    tag_145:\n      dup3\n      add\n      swap2\n      swap1\n      0x00\n      mstore\n      keccak256(0x00, 0x20)\n      swap1\n    tag_146:\n      dup2\n      sload\n      dup2\n      mstore\n      swap1\n      0x01\n      add\n      swap1\n      0x20\n      add\n      dup1\n      dup4\n      gt\n      tag_146\n      jumpi\n      dup3\n      swap1\n      sub\n      0x1f\n      and\n      dup3\n      add\n      swap2\n    tag_144:\n      pop\n      pop\n      pop\n      pop\n      pop\n      swap1\n      pop\n        /* \"@openzeppelin/contracts/token/ERC721/ERC721.sol\":2365:2454  function name() public view virtual returns (string memory) {... */\n      swap1\n      jump\t// out\n        /* \"@openzeppelin/contracts/token/ERC721/ERC721.sol\":3497:3651  function getApproved(uint256 tokenId) public view virtual returns (address) {... */\n    tag_40:\n        /* \"@openzeppelin/contracts/token/ERC721/ERC721.sol\":3564:3571  address */\n      0x00\n        /* \"@openzeppelin/contracts/token/ERC721/ERC721.sol\":3583:3605  _requireOwned(tokenId) */\n      tag_148\n        /* \"@openzeppelin/contracts/token/ERC721/ERC721.sol\":3597:3604  tokenId */\n      dup3\n        /* \"@openzeppelin/contracts/token/ERC721/ERC721.sol\":3583:3596  _requireOwned */\n      tag_149\n        /* \"@openzeppelin/contracts/token/ERC721/ERC721.sol\":3583:3605  _requireOwned(tokenId) */\n      jump\t// in\n    tag_148:\n      pop\n        /* \"@openzeppelin/contracts/token/ERC721/ERC721.sol\":3623:3644  _getApproved(tokenId) */\n      tag_150\n        /* \"@openzeppelin/contracts/token/ERC721/ERC721.sol\":3636:3643  tokenId */\n      dup3\n        /* \"@openzeppelin/contracts/token/ERC721/ERC721.sol\":3623:3635  _getApproved */\n      tag_151\n        /* \"@openzeppelin/contracts/token/ERC721/ERC721.sol\":3623:3644  _getApproved(tokenId) */\n      jump\t// in\n    tag_150:\n        /* \"@openzeppelin/contracts/token/ERC721/ERC721.sol\":3616:3644  return _getApproved(tokenId) */\n      swap1\n      pop\n        /* \"@openzeppelin/contracts/token/ERC721/ERC721.sol\":3497:3651  function getApproved(uint256 tokenId) public view virtual returns (address) {... */\n      swap2\n      swap1\n      pop\n      jump\t// out\n        /* \"@openzeppelin/contracts/token/ERC721/ERC721.sol\":3323:3436  function approve(address to, uint256 tokenId) public virtual {... */\n    tag_46:\n        /* \"@openzeppelin/contracts/token/ERC721/ERC721.sol\":3394:3429  _approve(to, tokenId, _msgSender()) */\n      tag_153\n        /* \"@openzeppelin/contracts/token/ERC721/ERC721.sol\":3403:3405  to */\n      dup3\n        /* \"@openzeppelin/contracts/token/ERC721/ERC721.sol\":3407:3414  tokenId */\n      dup3\n        /* \"@openzeppelin/contracts/token/ERC721/ERC721.sol\":3416:3428  _msgSender() */\n      tag_154\n        /* \"@openzeppelin/contracts/token/ERC721/ERC721.sol\":3416:3426  _msgSender */\n      tag_155\n        /* \"@openzeppelin/contracts/token/ERC721/ERC721.sol\":3416:3428  _msgSender() */\n      jump\t// in\n    tag_154:\n        /* \"@openzeppelin/contracts/token/ERC721/ERC721.sol\":3394:3402  _approve */\n      tag_156\n        /* \"@openzeppelin/contracts/token/ERC721/ERC721.sol\":3394:3429  _approve(to, tokenId, _msgSender()) */\n      jump\t// in\n    tag_153:\n        /* \"@openzeppelin/contracts/token/ERC721/ERC721.sol\":3323:3436  function approve(address to, uint256 tokenId) public virtual {... */\n      pop\n      pop\n      jump\t// out\n        /* \"contracts/TokenBase.sol\":4951:5062  function setTokenURI(uint256 tokenId, string calldata url) external {... */\n    tag_50:\n        /* \"contracts/TokenBase.sol\":5051:5054  url */\n      dup2\n      dup2\n        /* \"contracts/TokenBase.sol\":5030:5039  _tokenURI */\n      0x08\n        /* \"contracts/TokenBase.sol\":5030:5048  _tokenURI[tokenId] */\n      0x00\n        /* \"contracts/TokenBase.sol\":5040:5047  tokenId */\n      dup7\n        /* \"contracts/TokenBase.sol\":5030:5048  _tokenURI[tokenId] */\n      dup2\n      mstore\n      0x20\n      add\n      swap1\n      dup2\n      mstore\n      0x20\n      add\n      0x00\n      keccak256\n        /* \"contracts/TokenBase.sol\":5030:5054  _tokenURI[tokenId] = url */\n      swap2\n      dup3\n      tag_158\n      swap3\n      swap2\n      swap1\n      tag_159\n      jump\t// in\n    tag_158:\n      pop\n        /* \"contracts/TokenBase.sol\":4951:5062  function setTokenURI(uint256 tokenId, string calldata url) external {... */\n      pop\n      pop\n      pop\n      jump\t// out\n        /* \"@openzeppelin/contracts/token/ERC721/ERC721.sol\":4143:4721  function transferFrom(address from, address to, uint256 tokenId) public virtual {... */\n    tag_54:\n        /* \"@openzeppelin/contracts/token/ERC721/ERC721.sol\":4251:4252  0 */\n      0x00\n        /* \"@openzeppelin/contracts/token/ERC721/ERC721.sol\":4237:4253  to == address(0) */\n      0xffffffffffffffffffffffffffffffffffffffff\n      and\n        /* \"@openzeppelin/contracts/token/ERC721/ERC721.sol\":4237:4239  to */\n      dup3\n        /* \"@openzeppelin/contracts/token/ERC721/ERC721.sol\":4237:4253  to == address(0) */\n      0xffffffffffffffffffffffffffffffffffffffff\n      and\n      sub\n        /* \"@openzeppelin/contracts/token/ERC721/ERC721.sol\":4233:4320  if (to == address(0)) {... */\n      tag_161\n      jumpi\n        /* \"@openzeppelin/contracts/token/ERC721/ERC721.sol\":4306:4307  0 */\n      0x00\n        /* \"@openzeppelin/contracts/token/ERC721/ERC721.sol\":4276:4309  ERC721InvalidReceiver(address(0)) */\n      mload(0x40)\n      0x64a0ae9200000000000000000000000000000000000000000000000000000000\n      dup2\n      mstore\n      0x04\n      add\n      tag_162\n      swap2\n      swap1\n      tag_42\n      jump\t// in\n    tag_162:\n      mload(0x40)\n      dup1\n      swap2\n      sub\n      swap1\n      revert\n        /* \"@openzeppelin/contracts/token/ERC721/ERC721.sol\":4233:4320  if (to == address(0)) {... */\n    tag_161:\n        /* \"@openzeppelin/contracts/token/ERC721/ERC721.sol\":4538:4559  address previousOwner */\n      0x00\n        /* \"@openzeppelin/contracts/token/ERC721/ERC721.sol\":4562:4596  _update(to, tokenId, _msgSender()) */\n      tag_163\n        /* \"@openzeppelin/contracts/token/ERC721/ERC721.sol\":4570:4572  to */\n      dup4\n        /* \"@openzeppelin/contracts/token/ERC721/ERC721.sol\":4574:4581  tokenId */\n      dup4\n        /* \"@openzeppelin/contracts/token/ERC721/ERC721.sol\":4583:4595  _msgSender() */\n      tag_164\n        /* \"@openzeppelin/contracts/token/ERC721/ERC721.sol\":4583:4593  _msgSender */\n      tag_155\n        /* \"@openzeppelin/contracts/token/ERC721/ERC721.sol\":4583:4595  _msgSender() */\n      jump\t// in\n    tag_164:\n        /* \"@openzeppelin/contracts/token/ERC721/ERC721.sol\":4562:4569  _update */\n      tag_165\n        /* \"@openzeppelin/contracts/token/ERC721/ERC721.sol\":4562:4596  _update(to, tokenId, _msgSender()) */\n      jump\t// in\n    tag_163:\n        /* \"@openzeppelin/contracts/token/ERC721/ERC721.sol\":4538:4596  address previousOwner = _update(to, tokenId, _msgSender()) */\n      swap1\n      pop\n        /* \"@openzeppelin/contracts/token/ERC721/ERC721.sol\":4627:4631  from */\n      dup4\n        /* \"@openzeppelin/contracts/token/ERC721/ERC721.sol\":4610:4631  previousOwner != from */\n      0xffffffffffffffffffffffffffffffffffffffff\n      and\n        /* \"@openzeppelin/contracts/token/ERC721/ERC721.sol\":4610:4623  previousOwner */\n      dup2\n        /* \"@openzeppelin/contracts/token/ERC721/ERC721.sol\":4610:4631  previousOwner != from */\n      0xffffffffffffffffffffffffffffffffffffffff\n      and\n      eq\n        /* \"@openzeppelin/contracts/token/ERC721/ERC721.sol\":4606:4715  if (previousOwner != from) {... */\n      tag_166\n      jumpi\n        /* \"@openzeppelin/contracts/token/ERC721/ERC721.sol\":4675:4679  from */\n      dup4\n        /* \"@openzeppelin/contracts/token/ERC721/ERC721.sol\":4681:4688  tokenId */\n      dup3\n        /* \"@openzeppelin/contracts/token/ERC721/ERC721.sol\":4690:4703  previousOwner */\n      dup3\n        /* \"@openzeppelin/contracts/token/ERC721/ERC721.sol\":4654:4704  ERC721IncorrectOwner(from, tokenId, previousOwner) */\n      mload(0x40)\n      0x64283d7b00000000000000000000000000000000000000000000000000000000\n      dup2\n      mstore\n      0x04\n      add\n      tag_167\n      swap4\n      swap3\n      swap2\n      swap1\n      tag_168\n      jump\t// in\n    tag_167:\n      mload(0x40)\n      dup1\n      swap2\n      sub\n      swap1\n      revert\n        /* \"@openzeppelin/contracts/token/ERC721/ERC721.sol\":4606:4715  if (previousOwner != from) {... */\n    tag_166:\n        /* \"@openzeppelin/contracts/token/ERC721/ERC721.sol\":4223:4721  {... */\n      pop\n        /* \"@openzeppelin/contracts/token/ERC721/ERC721.sol\":4143:4721  function transferFrom(address from, address to, uint256 tokenId) public virtual {... */\n      pop\n      pop\n      pop\n      jump\t// out\n        /* \"@openzeppelin/contracts/token/ERC721/ERC721.sol\":4787:4919  function safeTransferFrom(address from, address to, uint256 tokenId) public {... */\n    tag_57:\n        /* \"@openzeppelin/contracts/token/ERC721/ERC721.sol\":4873:4912  safeTransferFrom(from, to, tokenId, \"\") */\n      tag_170\n        /* \"@openzeppelin/contracts/token/ERC721/ERC721.sol\":4890:4894  from */\n      dup4\n        /* \"@openzeppelin/contracts/token/ERC721/ERC721.sol\":4896:4898  to */\n      dup4\n        /* \"@openzeppelin/contracts/token/ERC721/ERC721.sol\":4900:4907  tokenId */\n      dup4\n        /* \"@openzeppelin/contracts/token/ERC721/ERC721.sol\":4873:4912  safeTransferFrom(from, to, tokenId, \"\") */\n      mload(0x40)\n      dup1\n      0x20\n      add\n      0x40\n      mstore\n      dup1\n      0x00\n      dup2\n      mstore\n      pop\n        /* \"@openzeppelin/contracts/token/ERC721/ERC721.sol\":4873:4889  safeTransferFrom */\n      tag_83\n        /* \"@openzeppelin/contracts/token/ERC721/ERC721.sol\":4873:4912  safeTransferFrom(from, to, tokenId, \"\") */\n      jump\t// in\n    tag_170:\n        /* \"@openzeppelin/contracts/token/ERC721/ERC721.sol\":4787:4919  function safeTransferFrom(address from, address to, uint256 tokenId) public {... */\n      pop\n      pop\n      pop\n      jump\t// out\n        /* \"@openzeppelin/contracts/token/ERC721/ERC721.sol\":2185:2303  function ownerOf(uint256 tokenId) public view virtual returns (address) {... */\n    tag_60:\n        /* \"@openzeppelin/contracts/token/ERC721/ERC721.sol\":2248:2255  address */\n      0x00\n        /* \"@openzeppelin/contracts/token/ERC721/ERC721.sol\":2274:2296  _requireOwned(tokenId) */\n      tag_172\n        /* \"@openzeppelin/contracts/token/ERC721/ERC721.sol\":2288:2295  tokenId */\n      dup3\n        /* \"@openzeppelin/contracts/token/ERC721/ERC721.sol\":2274:2287  _requireOwned */\n      tag_149\n        /* \"@openzeppelin/contracts/token/ERC721/ERC721.sol\":2274:2296  _requireOwned(tokenId) */\n      jump\t// in\n    tag_172:\n        /* \"@openzeppelin/contracts/token/ERC721/ERC721.sol\":2267:2296  return _requireOwned(tokenId) */\n      swap1\n      pop\n        /* \"@openzeppelin/contracts/token/ERC721/ERC721.sol\":2185:2303  function ownerOf(uint256 tokenId) public view virtual returns (address) {... */\n      swap2\n      swap1\n      pop\n      jump\t// out\n        /* \"@openzeppelin/contracts/token/ERC721/ERC721.sol\":1920:2128  function balanceOf(address owner) public view virtual returns (uint256) {... */\n    tag_65:\n        /* \"@openzeppelin/contracts/token/ERC721/ERC721.sol\":1983:1990  uint256 */\n      0x00\n        /* \"@openzeppelin/contracts/token/ERC721/ERC721.sol\":2023:2024  0 */\n      dup1\n        /* \"@openzeppelin/contracts/token/ERC721/ERC721.sol\":2006:2025  owner == address(0) */\n      0xffffffffffffffffffffffffffffffffffffffff\n      and\n        /* \"@openzeppelin/contracts/token/ERC721/ERC721.sol\":2006:2011  owner */\n      dup3\n        /* \"@openzeppelin/contracts/token/ERC721/ERC721.sol\":2006:2025  owner == address(0) */\n      0xffffffffffffffffffffffffffffffffffffffff\n      and\n      sub\n        /* \"@openzeppelin/contracts/token/ERC721/ERC721.sol\":2002:2089  if (owner == address(0)) {... */\n      tag_174\n      jumpi\n        /* \"@openzeppelin/contracts/token/ERC721/ERC721.sol\":2075:2076  0 */\n      0x00\n        /* \"@openzeppelin/contracts/token/ERC721/ERC721.sol\":2048:2078  ERC721InvalidOwner(address(0)) */\n      mload(0x40)\n      0x89c62b6400000000000000000000000000000000000000000000000000000000\n      dup2\n      mstore\n      0x04\n      add\n      tag_175\n      swap2\n      swap1\n      tag_42\n      jump\t// in\n    tag_175:\n      mload(0x40)\n      dup1\n      swap2\n      sub\n      swap1\n      revert\n        /* \"@openzeppelin/contracts/token/ERC721/ERC721.sol\":2002:2089  if (owner == address(0)) {... */\n    tag_174:\n        /* \"@openzeppelin/contracts/token/ERC721/ERC721.sol\":2105:2114  _balances */\n      0x03\n        /* \"@openzeppelin/contracts/token/ERC721/ERC721.sol\":2105:2121  _balances[owner] */\n      0x00\n        /* \"@openzeppelin/contracts/token/ERC721/ERC721.sol\":2115:2120  owner */\n      dup4\n        /* \"@openzeppelin/contracts/token/ERC721/ERC721.sol\":2105:2121  _balances[owner] */\n      0xffffffffffffffffffffffffffffffffffffffff\n      and\n      0xffffffffffffffffffffffffffffffffffffffff\n      and\n      dup2\n      mstore\n      0x20\n      add\n      swap1\n      dup2\n      mstore\n      0x20\n      add\n      0x00\n      keccak256\n      sload\n        /* \"@openzeppelin/contracts/token/ERC721/ERC721.sol\":2098:2121  return _balances[owner] */\n      swap1\n      pop\n        /* \"@openzeppelin/contracts/token/ERC721/ERC721.sol\":1920:2128  function balanceOf(address owner) public view virtual returns (uint256) {... */\n      swap2\n      swap1\n      pop\n      jump\t// out\n        /* \"@openzeppelin/contracts/token/ERC721/ERC721.sol\":2518:2611  function symbol() public view virtual returns (string memory) {... */\n    tag_69:\n        /* \"@openzeppelin/contracts/token/ERC721/ERC721.sol\":2565:2578  string memory */\n      0x60\n        /* \"@openzeppelin/contracts/token/ERC721/ERC721.sol\":2597:2604  _symbol */\n      0x01\n        /* \"@openzeppelin/contracts/token/ERC721/ERC721.sol\":2590:2604  return _symbol */\n      dup1\n      sload\n      tag_177\n      swap1\n      tag_142\n      jump\t// in\n    tag_177:\n      dup1\n      0x1f\n      add\n      0x20\n      dup1\n      swap2\n      div\n      mul\n      0x20\n      add\n      mload(0x40)\n      swap1\n      dup2\n      add\n      0x40\n      mstore\n      dup1\n      swap3\n      swap2\n      swap1\n      dup2\n      dup2\n      mstore\n      0x20\n      add\n      dup3\n      dup1\n      sload\n      tag_178\n      swap1\n      tag_142\n      jump\t// in\n    tag_178:\n      dup1\n      iszero\n      tag_179\n      jumpi\n      dup1\n      0x1f\n      lt\n      tag_180\n      jumpi\n      0x0100\n      dup1\n      dup4\n      sload\n      div\n      mul\n      dup4\n      mstore\n      swap2\n      0x20\n      add\n      swap2\n      jump(tag_179)\n    tag_180:\n      dup3\n      add\n      swap2\n      swap1\n      0x00\n      mstore\n      keccak256(0x00, 0x20)\n      swap1\n    tag_181:\n      dup2\n      sload\n      dup2\n      mstore\n      swap1\n      0x01\n      add\n      swap1\n      0x20\n      add\n      dup1\n      dup4\n      gt\n      tag_181\n      jumpi\n      dup3\n      swap1\n      sub\n      0x1f\n      and\n      dup3\n      add\n      swap2\n    tag_179:\n      pop\n      pop\n      pop\n      pop\n      pop\n      swap1\n      pop\n        /* \"@openzeppelin/contracts/token/ERC721/ERC721.sol\":2518:2611  function symbol() public view virtual returns (string memory) {... */\n      swap1\n      jump\t// out\n        /* \"@openzeppelin/contracts/token/ERC721/ERC721.sol\":3718:3862  function setApprovalForAll(address operator, bool approved) public virtual {... */\n    tag_74:\n        /* \"@openzeppelin/contracts/token/ERC721/ERC721.sol\":3803:3855  _setApprovalForAll(_msgSender(), operator, approved) */\n      tag_183\n        /* \"@openzeppelin/contracts/token/ERC721/ERC721.sol\":3822:3834  _msgSender() */\n      tag_184\n        /* \"@openzeppelin/contracts/token/ERC721/ERC721.sol\":3822:3832  _msgSender */\n      tag_155\n        /* \"@openzeppelin/contracts/token/ERC721/ERC721.sol\":3822:3834  _msgSender() */\n      jump\t// in\n    tag_184:\n        /* \"@openzeppelin/contracts/token/ERC721/ERC721.sol\":3836:3844  operator */\n      dup4\n        /* \"@openzeppelin/contracts/token/ERC721/ERC721.sol\":3846:3854  approved */\n      dup4\n        /* \"@openzeppelin/contracts/token/ERC721/ERC721.sol\":3803:3821  _setApprovalForAll */\n      tag_185\n        /* \"@openzeppelin/contracts/token/ERC721/ERC721.sol\":3803:3855  _setApprovalForAll(_msgSender(), operator, approved) */\n      jump\t// in\n    tag_183:\n        /* \"@openzeppelin/contracts/token/ERC721/ERC721.sol\":3718:3862  function setApprovalForAll(address operator, bool approved) public virtual {... */\n      pop\n      pop\n      jump\t// out\n        /* \"contracts/TokenBase.sol\":3474:4205  function getGrowthInfo(uint256 tokenId) external view returns(GrowthStage currentStage, uint256 timeRemaining){... */\n    tag_77:\n        /* \"contracts/TokenBase.sol\":3536:3560  GrowthStage currentStage */\n      0x00\n        /* \"contracts/TokenBase.sol\":3562:3583  uint256 timeRemaining */\n      dup1\n        /* \"contracts/TokenBase.sol\":3610:3622  growthStages */\n      0x07\n        /* \"contracts/TokenBase.sol\":3610:3631  growthStages[tokenId] */\n      0x00\n        /* \"contracts/TokenBase.sol\":3623:3630  tokenId */\n      dup5\n        /* \"contracts/TokenBase.sol\":3610:3631  growthStages[tokenId] */\n      dup2\n      mstore\n      0x20\n      add\n      swap1\n      dup2\n      mstore\n      0x20\n      add\n      0x00\n      keccak256\n      0x00\n      swap1\n      sload\n      swap1\n      0x0100\n      exp\n      swap1\n      div\n      0xff\n      and\n        /* \"contracts/TokenBase.sol\":3595:3631  currentStage = growthStages[tokenId] */\n      swap2\n      pop\n        /* \"contracts/TokenBase.sol\":3642:3661  uint256 currentTime */\n      0x00\n        /* \"contracts/TokenBase.sol\":3664:3679  block.timestamp */\n      timestamp\n        /* \"contracts/TokenBase.sol\":3642:3679  uint256 currentTime = block.timestamp */\n      swap1\n      pop\n        /* \"contracts/TokenBase.sol\":3711:3726  GrowthStage.Egg */\n      0x00\n        /* \"contracts/TokenBase.sol\":3695:3726  currentStage == GrowthStage.Egg */\n      0x03\n      dup2\n      gt\n      iszero\n      tag_187\n      jumpi\n      tag_188\n      tag_104\n      jump\t// in\n    tag_188:\n    tag_187:\n        /* \"contracts/TokenBase.sol\":3695:3707  currentStage */\n      dup4\n        /* \"contracts/TokenBase.sol\":3695:3726  currentStage == GrowthStage.Egg */\n      0x03\n      dup2\n      gt\n      iszero\n      tag_189\n      jumpi\n      tag_190\n      tag_104\n      jump\t// in\n    tag_190:\n    tag_189:\n      sub\n        /* \"contracts/TokenBase.sol\":3692:4120  if(currentStage == GrowthStage.Egg) {... */\n      tag_191\n      jumpi\n        /* \"contracts/TokenBase.sol\":3787:3798  currentTime */\n      dup1\n        /* \"contracts/TokenBase.sol\":3759:3769  growthTime */\n      0x0a\n        /* \"contracts/TokenBase.sol\":3759:3778  growthTime[tokenId] */\n      0x00\n        /* \"contracts/TokenBase.sol\":3770:3777  tokenId */\n      dup7\n        /* \"contracts/TokenBase.sol\":3759:3778  growthTime[tokenId] */\n      dup2\n      mstore\n      0x20\n      add\n      swap1\n      dup2\n      mstore\n      0x20\n      add\n      0x00\n      keccak256\n        /* \"contracts/TokenBase.sol\":3759:3784  growthTime[tokenId].hatch */\n      0x00\n      add\n      sload\n        /* \"contracts/TokenBase.sol\":3759:3798  growthTime[tokenId].hatch - currentTime */\n      tag_192\n      swap2\n      swap1\n      tag_117\n      jump\t// in\n    tag_192:\n        /* \"contracts/TokenBase.sol\":3743:3798  timeRemaining = growthTime[tokenId].hatch - currentTime */\n      swap2\n      pop\n        /* \"contracts/TokenBase.sol\":3692:4120  if(currentStage == GrowthStage.Egg) {... */\n      jump(tag_193)\n    tag_191:\n        /* \"contracts/TokenBase.sol\":3835:3852  GrowthStage.Hatch */\n      0x01\n        /* \"contracts/TokenBase.sol\":3819:3852  currentStage == GrowthStage.Hatch */\n      0x03\n      dup2\n      gt\n      iszero\n      tag_194\n      jumpi\n      tag_195\n      tag_104\n      jump\t// in\n    tag_195:\n    tag_194:\n        /* \"contracts/TokenBase.sol\":3819:3831  currentStage */\n      dup4\n        /* \"contracts/TokenBase.sol\":3819:3852  currentStage == GrowthStage.Hatch */\n      0x03\n      dup2\n      gt\n      iszero\n      tag_196\n      jumpi\n      tag_197\n      tag_104\n      jump\t// in\n    tag_197:\n    tag_196:\n      sub\n        /* \"contracts/TokenBase.sol\":3816:4120  if(currentStage == GrowthStage.Hatch) {... */\n      tag_198\n      jumpi\n        /* \"contracts/TokenBase.sol\":3917:3928  currentTime */\n      dup1\n        /* \"contracts/TokenBase.sol\":3885:3895  growthTime */\n      0x0a\n        /* \"contracts/TokenBase.sol\":3885:3904  growthTime[tokenId] */\n      0x00\n        /* \"contracts/TokenBase.sol\":3896:3903  tokenId */\n      dup7\n        /* \"contracts/TokenBase.sol\":3885:3904  growthTime[tokenId] */\n      dup2\n      mstore\n      0x20\n      add\n      swap1\n      dup2\n      mstore\n      0x20\n      add\n      0x00\n      keccak256\n        /* \"contracts/TokenBase.sol\":3885:3914  growthTime[tokenId].hatchling */\n      0x01\n      add\n      sload\n        /* \"contracts/TokenBase.sol\":3885:3928  growthTime[tokenId].hatchling - currentTime */\n      tag_199\n      swap2\n      swap1\n      tag_117\n      jump\t// in\n    tag_199:\n        /* \"contracts/TokenBase.sol\":3869:3928  timeRemaining = growthTime[tokenId].hatchling - currentTime */\n      swap2\n      pop\n        /* \"contracts/TokenBase.sol\":3816:4120  if(currentStage == GrowthStage.Hatch) {... */\n      jump(tag_200)\n    tag_198:\n        /* \"contracts/TokenBase.sol\":3965:3986  GrowthStage.Hatchling */\n      0x02\n        /* \"contracts/TokenBase.sol\":3949:3986  currentStage == GrowthStage.Hatchling */\n      0x03\n      dup2\n      gt\n      iszero\n      tag_201\n      jumpi\n      tag_202\n      tag_104\n      jump\t// in\n    tag_202:\n    tag_201:\n        /* \"contracts/TokenBase.sol\":3949:3961  currentStage */\n      dup4\n        /* \"contracts/TokenBase.sol\":3949:3986  currentStage == GrowthStage.Hatchling */\n      0x03\n      dup2\n      gt\n      iszero\n      tag_203\n      jumpi\n      tag_204\n      tag_104\n      jump\t// in\n    tag_204:\n    tag_203:\n      sub\n        /* \"contracts/TokenBase.sol\":3946:4120  if(currentStage == GrowthStage.Hatchling) {... */\n      tag_205\n      jumpi\n        /* \"contracts/TokenBase.sol\":4047:4058  currentTime */\n      dup1\n        /* \"contracts/TokenBase.sol\":4019:4029  growthTime */\n      0x0a\n        /* \"contracts/TokenBase.sol\":4019:4038  growthTime[tokenId] */\n      0x00\n        /* \"contracts/TokenBase.sol\":4030:4037  tokenId */\n      dup7\n        /* \"contracts/TokenBase.sol\":4019:4038  growthTime[tokenId] */\n      dup2\n      mstore\n      0x20\n      add\n      swap1\n      dup2\n      mstore\n      0x20\n      add\n      0x00\n      keccak256\n        /* \"contracts/TokenBase.sol\":4019:4044  growthTime[tokenId].adult */\n      0x02\n      add\n      sload\n        /* \"contracts/TokenBase.sol\":4019:4058  growthTime[tokenId].adult - currentTime */\n      tag_206\n      swap2\n      swap1\n      tag_117\n      jump\t// in\n    tag_206:\n        /* \"contracts/TokenBase.sol\":4003:4058  timeRemaining = growthTime[tokenId].adult - currentTime */\n      swap2\n      pop\n        /* \"contracts/TokenBase.sol\":3946:4120  if(currentStage == GrowthStage.Hatchling) {... */\n      jump(tag_207)\n    tag_205:\n        /* \"contracts/TokenBase.sol\":4107:4108  0 */\n      0x00\n        /* \"contracts/TokenBase.sol\":4091:4108  timeRemaining = 0 */\n      swap2\n      pop\n        /* \"contracts/TokenBase.sol\":3946:4120  if(currentStage == GrowthStage.Hatchling) {... */\n    tag_207:\n        /* \"contracts/TokenBase.sol\":3816:4120  if(currentStage == GrowthStage.Hatch) {... */\n    tag_200:\n        /* \"contracts/TokenBase.sol\":3692:4120  if(currentStage == GrowthStage.Egg) {... */\n    tag_193:\n        /* \"contracts/TokenBase.sol\":4151:4152  0 */\n      0x00\n        /* \"contracts/TokenBase.sol\":4135:4148  timeRemaining */\n      dup3\n        /* \"contracts/TokenBase.sol\":4135:4152  timeRemaining < 0 */\n      lt\n        /* \"contracts/TokenBase.sol\":4132:4198  if(timeRemaining < 0) {... */\n      iszero\n      tag_208\n      jumpi\n        /* \"contracts/TokenBase.sol\":4185:4186  0 */\n      0x00\n        /* \"contracts/TokenBase.sol\":4169:4186  timeRemaining = 0 */\n      swap2\n      pop\n        /* \"contracts/TokenBase.sol\":4132:4198  if(timeRemaining < 0) {... */\n    tag_208:\n        /* \"contracts/TokenBase.sol\":3584:4205  {... */\n      pop\n        /* \"contracts/TokenBase.sol\":3474:4205  function getGrowthInfo(uint256 tokenId) external view returns(GrowthStage currentStage, uint256 timeRemaining){... */\n      swap2\n      pop\n      swap2\n      jump\t// out\n        /* \"@openzeppelin/contracts/token/ERC721/ERC721.sol\":4985:5193  function safeTransferFrom(address from, address to, uint256 tokenId, bytes memory data) public virtual {... */\n    tag_83:\n        /* \"@openzeppelin/contracts/token/ERC721/ERC721.sol\":5098:5129  transferFrom(from, to, tokenId) */\n      tag_210\n        /* \"@openzeppelin/contracts/token/ERC721/ERC721.sol\":5111:5115  from */\n      dup5\n        /* \"@openzeppelin/contracts/token/ERC721/ERC721.sol\":5117:5119  to */\n      dup5\n        /* \"@openzeppelin/contracts/token/ERC721/ERC721.sol\":5121:5128  tokenId */\n      dup5\n        /* \"@openzeppelin/contracts/token/ERC721/ERC721.sol\":5098:5110  transferFrom */\n      tag_54\n        /* \"@openzeppelin/contracts/token/ERC721/ERC721.sol\":5098:5129  transferFrom(from, to, tokenId) */\n      jump\t// in\n    tag_210:\n        /* \"@openzeppelin/contracts/token/ERC721/ERC721.sol\":5139:5186  _checkOnERC721Received(from, to, tokenId, data) */\n      tag_211\n        /* \"@openzeppelin/contracts/token/ERC721/ERC721.sol\":5162:5166  from */\n      dup5\n        /* \"@openzeppelin/contracts/token/ERC721/ERC721.sol\":5168:5170  to */\n      dup5\n        /* \"@openzeppelin/contracts/token/ERC721/ERC721.sol\":5172:5179  tokenId */\n      dup5\n        /* \"@openzeppelin/contracts/token/ERC721/ERC721.sol\":5181:5185  data */\n      dup5\n        /* \"@openzeppelin/contracts/token/ERC721/ERC721.sol\":5139:5161  _checkOnERC721Received */\n      tag_212\n        /* \"@openzeppelin/contracts/token/ERC721/ERC721.sol\":5139:5186  _checkOnERC721Received(from, to, tokenId, data) */\n      jump\t// in\n    tag_211:\n        /* \"@openzeppelin/contracts/token/ERC721/ERC721.sol\":4985:5193  function safeTransferFrom(address from, address to, uint256 tokenId, bytes memory data) public virtual {... */\n      pop\n      pop\n      pop\n      pop\n      jump\t// out\n        /* \"contracts/TokenBase.sol\":5070:5260  function tokenURI(uint256 tokenId)... */\n    tag_86:\n        /* \"contracts/TokenBase.sol\":5196:5209  string memory */\n      0x60\n        /* \"contracts/TokenBase.sol\":5234:5243  _tokenURI */\n      0x08\n        /* \"contracts/TokenBase.sol\":5234:5252  _tokenURI[tokenId] */\n      0x00\n        /* \"contracts/TokenBase.sol\":5244:5251  tokenId */\n      dup4\n        /* \"contracts/TokenBase.sol\":5234:5252  _tokenURI[tokenId] */\n      dup2\n      mstore\n      0x20\n      add\n      swap1\n      dup2\n      mstore\n      0x20\n      add\n      0x00\n      keccak256\n        /* \"contracts/TokenBase.sol\":5227:5252  return _tokenURI[tokenId] */\n      dup1\n      sload\n      tag_214\n      swap1\n      tag_142\n      jump\t// in\n    tag_214:\n      dup1\n      0x1f\n      add\n      0x20\n      dup1\n      swap2\n      div\n      mul\n      0x20\n      add\n      mload(0x40)\n      swap1\n      dup2\n      add\n      0x40\n      mstore\n      dup1\n      swap3\n      swap2\n      swap1\n      dup2\n      dup2\n      mstore\n      0x20\n      add\n      dup3\n      dup1\n      sload\n      tag_215\n      swap1\n      tag_142\n      jump\t// in\n    tag_215:\n      dup1\n      iszero\n      tag_216\n      jumpi\n      dup1\n      0x1f\n      lt\n      tag_217\n      jumpi\n      0x0100\n      dup1\n      dup4\n      sload\n      div\n      mul\n      dup4\n      mstore\n      swap2\n      0x20\n      add\n      swap2\n      jump(tag_216)\n    tag_217:\n      dup3\n      add\n      swap2\n      swap1\n      0x00\n      mstore\n      keccak256(0x00, 0x20)\n      swap1\n    tag_218:\n      dup2\n      sload\n      dup2\n      mstore\n      swap1\n      0x01\n      add\n      swap1\n      0x20\n      add\n      dup1\n      dup4\n      gt\n      tag_218\n      jumpi\n      dup3\n      swap1\n      sub\n      0x1f\n      and\n      dup3\n      add\n      swap2\n    tag_216:\n      pop\n      pop\n      pop\n      pop\n      pop\n      swap1\n      pop\n        /* \"contracts/TokenBase.sol\":5070:5260  function tokenURI(uint256 tokenId)... */\n      swap2\n      swap1\n      pop\n      jump\t// out\n        /* \"contracts/TokenBase.sol\":850:898  mapping(uint256 => GrowthTime) public growthTime */\n    tag_90:\n      mstore(0x20, 0x0a)\n      dup1\n      0x00\n      mstore\n      keccak256(0x00, 0x40)\n      0x00\n      swap2\n      pop\n      swap1\n      pop\n      dup1\n      0x00\n      add\n      sload\n      swap1\n      dup1\n      0x01\n      add\n      sload\n      swap1\n      dup1\n      0x02\n      add\n      sload\n      swap1\n      pop\n      dup4\n      jump\t// out\n        /* \"@openzeppelin/contracts/token/ERC721/ERC721.sol\":3928:4081  function isApprovedForAll(address owner, address operator) public view virtual returns (bool) {... */\n    tag_96:\n        /* \"@openzeppelin/contracts/token/ERC721/ERC721.sol\":4016:4020  bool */\n      0x00\n        /* \"@openzeppelin/contracts/token/ERC721/ERC721.sol\":4039:4057  _operatorApprovals */\n      0x05\n        /* \"@openzeppelin/contracts/token/ERC721/ERC721.sol\":4039:4064  _operatorApprovals[owner] */\n      0x00\n        /* \"@openzeppelin/contracts/token/ERC721/ERC721.sol\":4058:4063  owner */\n      dup5\n        /* \"@openzeppelin/contracts/token/ERC721/ERC721.sol\":4039:4064  _operatorApprovals[owner] */\n      0xffffffffffffffffffffffffffffffffffffffff\n      and\n      0xffffffffffffffffffffffffffffffffffffffff\n      and\n      dup2\n      mstore\n      0x20\n      add\n      swap1\n      dup2\n      mstore\n      0x20\n      add\n      0x00\n      keccak256\n        /* \"@openzeppelin/contracts/token/ERC721/ERC721.sol\":4039:4074  _operatorApprovals[owner][operator] */\n      0x00\n        /* \"@openzeppelin/contracts/token/ERC721/ERC721.sol\":4065:4073  operator */\n      dup4\n        /* \"@openzeppelin/contracts/token/ERC721/ERC721.sol\":4039:4074  _operatorApprovals[owner][operator] */\n      0xffffffffffffffffffffffffffffffffffffffff\n      and\n      0xffffffffffffffffffffffffffffffffffffffff\n      and\n      dup2\n      mstore\n      0x20\n      add\n      swap1\n      dup2\n      mstore\n      0x20\n      add\n      0x00\n      keccak256\n      0x00\n      swap1\n      sload\n      swap1\n      0x0100\n      exp\n      swap1\n      div\n      0xff\n      and\n        /* \"@openzeppelin/contracts/token/ERC721/ERC721.sol\":4032:4074  return _operatorApprovals[owner][operator] */\n      swap1\n      pop\n        /* \"@openzeppelin/contracts/token/ERC721/ERC721.sol\":3928:4081  function isApprovedForAll(address owner, address operator) public view virtual returns (bool) {... */\n      swap3\n      swap2\n      pop\n      pop\n      jump\t// out\n        /* \"contracts/TokenBase.sol\":1084:1926  function evolve(uint256 tokenId) external {... */\n    tag_100:\n        /* \"contracts/TokenBase.sol\":1137:1161  GrowthStage currentStage */\n      0x00\n        /* \"contracts/TokenBase.sol\":1164:1176  growthStages */\n      0x07\n        /* \"contracts/TokenBase.sol\":1164:1185  growthStages[tokenId] */\n      0x00\n        /* \"contracts/TokenBase.sol\":1177:1184  tokenId */\n      dup4\n        /* \"contracts/TokenBase.sol\":1164:1185  growthStages[tokenId] */\n      dup2\n      mstore\n      0x20\n      add\n      swap1\n      dup2\n      mstore\n      0x20\n      add\n      0x00\n      keccak256\n      0x00\n      swap1\n      sload\n      swap1\n      0x0100\n      exp\n      swap1\n      div\n      0xff\n      and\n        /* \"contracts/TokenBase.sol\":1137:1185  GrowthStage currentStage = growthStages[tokenId] */\n      swap1\n      pop\n        /* \"contracts/TokenBase.sol\":1217:1232  GrowthStage.Egg */\n      0x00\n        /* \"contracts/TokenBase.sol\":1201:1232  currentStage == GrowthStage.Egg */\n      0x03\n      dup2\n      gt\n      iszero\n      tag_221\n      jumpi\n      tag_222\n      tag_104\n      jump\t// in\n    tag_222:\n    tag_221:\n        /* \"contracts/TokenBase.sol\":1201:1213  currentStage */\n      dup2\n        /* \"contracts/TokenBase.sol\":1201:1232  currentStage == GrowthStage.Egg */\n      0x03\n      dup2\n      gt\n      iszero\n      tag_223\n      jumpi\n      tag_224\n      tag_104\n      jump\t// in\n    tag_224:\n    tag_223:\n      eq\n        /* \"contracts/TokenBase.sol\":1201:1280  currentStage == GrowthStage.Egg && block.timestamp >= growthTime[tokenId].hatch */\n      dup1\n      iszero\n      tag_225\n      jumpi\n      pop\n        /* \"contracts/TokenBase.sol\":1255:1265  growthTime */\n      0x0a\n        /* \"contracts/TokenBase.sol\":1255:1274  growthTime[tokenId] */\n      0x00\n        /* \"contracts/TokenBase.sol\":1266:1273  tokenId */\n      dup4\n        /* \"contracts/TokenBase.sol\":1255:1274  growthTime[tokenId] */\n      dup2\n      mstore\n      0x20\n      add\n      swap1\n      dup2\n      mstore\n      0x20\n      add\n      0x00\n      keccak256\n        /* \"contracts/TokenBase.sol\":1255:1280  growthTime[tokenId].hatch */\n      0x00\n      add\n      sload\n        /* \"contracts/TokenBase.sol\":1236:1251  block.timestamp */\n      timestamp\n        /* \"contracts/TokenBase.sol\":1236:1280  block.timestamp >= growthTime[tokenId].hatch */\n      lt\n      iszero\n        /* \"contracts/TokenBase.sol\":1201:1280  currentStage == GrowthStage.Egg && block.timestamp >= growthTime[tokenId].hatch */\n    tag_225:\n        /* \"contracts/TokenBase.sol\":1198:1887  if(currentStage == GrowthStage.Egg && block.timestamp >= growthTime[tokenId].hatch) {... */\n      iszero\n      tag_226\n      jumpi\n        /* \"contracts/TokenBase.sol\":1321:1338  GrowthStage.Hatch */\n      0x01\n        /* \"contracts/TokenBase.sol\":1297:1309  growthStages */\n      0x07\n        /* \"contracts/TokenBase.sol\":1297:1318  growthStages[tokenId] */\n      0x00\n        /* \"contracts/TokenBase.sol\":1310:1317  tokenId */\n      dup5\n        /* \"contracts/TokenBase.sol\":1297:1318  growthStages[tokenId] */\n      dup2\n      mstore\n      0x20\n      add\n      swap1\n      dup2\n      mstore\n      0x20\n      add\n      0x00\n      keccak256\n      0x00\n        /* \"contracts/TokenBase.sol\":1297:1338  growthStages[tokenId] = GrowthStage.Hatch */\n      0x0100\n      exp\n      dup2\n      sload\n      dup2\n      0xff\n      mul\n      not\n      and\n      swap1\n      dup4\n      0x03\n      dup2\n      gt\n      iszero\n      tag_227\n      jumpi\n      tag_228\n      tag_104\n      jump\t// in\n    tag_228:\n    tag_227:\n      mul\n      or\n      swap1\n      sstore\n      pop\n        /* \"contracts/TokenBase.sol\":1399:1405  2 days */\n      0x02a300\n        /* \"contracts/TokenBase.sol\":1381:1396  block.timestamp */\n      timestamp\n        /* \"contracts/TokenBase.sol\":1381:1405  block.timestamp + 2 days */\n      tag_229\n      swap2\n      swap1\n      tag_230\n      jump\t// in\n    tag_229:\n        /* \"contracts/TokenBase.sol\":1353:1363  growthTime */\n      0x0a\n        /* \"contracts/TokenBase.sol\":1353:1372  growthTime[tokenId] */\n      0x00\n        /* \"contracts/TokenBase.sol\":1364:1371  tokenId */\n      dup5\n        /* \"contracts/TokenBase.sol\":1353:1372  growthTime[tokenId] */\n      dup2\n      mstore\n      0x20\n      add\n      swap1\n      dup2\n      mstore\n      0x20\n      add\n      0x00\n      keccak256\n        /* \"contracts/TokenBase.sol\":1353:1378  growthTime[tokenId].hatch */\n      0x00\n      add\n        /* \"contracts/TokenBase.sol\":1353:1405  growthTime[tokenId].hatch = block.timestamp + 2 days */\n      dup2\n      swap1\n      sstore\n      pop\n        /* \"contracts/TokenBase.sol\":1198:1887  if(currentStage == GrowthStage.Egg && block.timestamp >= growthTime[tokenId].hatch) {... */\n      jump(tag_231)\n    tag_226:\n        /* \"contracts/TokenBase.sol\":1442:1459  GrowthStage.Hatch */\n      0x01\n        /* \"contracts/TokenBase.sol\":1426:1459  currentStage == GrowthStage.Hatch */\n      0x03\n      dup2\n      gt\n      iszero\n      tag_232\n      jumpi\n      tag_233\n      tag_104\n      jump\t// in\n    tag_233:\n    tag_232:\n        /* \"contracts/TokenBase.sol\":1426:1438  currentStage */\n      dup2\n        /* \"contracts/TokenBase.sol\":1426:1459  currentStage == GrowthStage.Hatch */\n      0x03\n      dup2\n      gt\n      iszero\n      tag_234\n      jumpi\n      tag_235\n      tag_104\n      jump\t// in\n    tag_235:\n    tag_234:\n      eq\n        /* \"contracts/TokenBase.sol\":1426:1511  currentStage == GrowthStage.Hatch && block.timestamp >= growthTime[tokenId].hatchling */\n      dup1\n      iszero\n      tag_236\n      jumpi\n      pop\n        /* \"contracts/TokenBase.sol\":1482:1492  growthTime */\n      0x0a\n        /* \"contracts/TokenBase.sol\":1482:1501  growthTime[tokenId] */\n      0x00\n        /* \"contracts/TokenBase.sol\":1493:1500  tokenId */\n      dup4\n        /* \"contracts/TokenBase.sol\":1482:1501  growthTime[tokenId] */\n      dup2\n      mstore\n      0x20\n      add\n      swap1\n      dup2\n      mstore\n      0x20\n      add\n      0x00\n      keccak256\n        /* \"contracts/TokenBase.sol\":1482:1511  growthTime[tokenId].hatchling */\n      0x01\n      add\n      sload\n        /* \"contracts/TokenBase.sol\":1463:1478  block.timestamp */\n      timestamp\n        /* \"contracts/TokenBase.sol\":1463:1511  block.timestamp >= growthTime[tokenId].hatchling */\n      lt\n      iszero\n        /* \"contracts/TokenBase.sol\":1426:1511  currentStage == GrowthStage.Hatch && block.timestamp >= growthTime[tokenId].hatchling */\n    tag_236:\n        /* \"contracts/TokenBase.sol\":1423:1887  if(currentStage == GrowthStage.Hatch && block.timestamp >= growthTime[tokenId].hatchling) {... */\n      iszero\n      tag_237\n      jumpi\n        /* \"contracts/TokenBase.sol\":1552:1573  GrowthStage.Hatchling */\n      0x02\n        /* \"contracts/TokenBase.sol\":1528:1540  growthStages */\n      0x07\n        /* \"contracts/TokenBase.sol\":1528:1549  growthStages[tokenId] */\n      0x00\n        /* \"contracts/TokenBase.sol\":1541:1548  tokenId */\n      dup5\n        /* \"contracts/TokenBase.sol\":1528:1549  growthStages[tokenId] */\n      dup2\n      mstore\n      0x20\n      add\n      swap1\n      dup2\n      mstore\n      0x20\n      add\n      0x00\n      keccak256\n      0x00\n        /* \"contracts/TokenBase.sol\":1528:1573  growthStages[tokenId] = GrowthStage.Hatchling */\n      0x0100\n      exp\n      dup2\n      sload\n      dup2\n      0xff\n      mul\n      not\n      and\n      swap1\n      dup4\n      0x03\n      dup2\n      gt\n      iszero\n      tag_238\n      jumpi\n      tag_239\n      tag_104\n      jump\t// in\n    tag_239:\n    tag_238:\n      mul\n      or\n      swap1\n      sstore\n      pop\n        /* \"contracts/TokenBase.sol\":1638:1644  2 days */\n      0x02a300\n        /* \"contracts/TokenBase.sol\":1620:1635  block.timestamp */\n      timestamp\n        /* \"contracts/TokenBase.sol\":1620:1644  block.timestamp + 2 days */\n      tag_240\n      swap2\n      swap1\n      tag_230\n      jump\t// in\n    tag_240:\n        /* \"contracts/TokenBase.sol\":1588:1598  growthTime */\n      0x0a\n        /* \"contracts/TokenBase.sol\":1588:1607  growthTime[tokenId] */\n      0x00\n        /* \"contracts/TokenBase.sol\":1599:1606  tokenId */\n      dup5\n        /* \"contracts/TokenBase.sol\":1588:1607  growthTime[tokenId] */\n      dup2\n      mstore\n      0x20\n      add\n      swap1\n      dup2\n      mstore\n      0x20\n      add\n      0x00\n      keccak256\n        /* \"contracts/TokenBase.sol\":1588:1617  growthTime[tokenId].hatchling */\n      0x01\n      add\n        /* \"contracts/TokenBase.sol\":1588:1644  growthTime[tokenId].hatchling = block.timestamp + 2 days */\n      dup2\n      swap1\n      sstore\n      pop\n        /* \"contracts/TokenBase.sol\":1423:1887  if(currentStage == GrowthStage.Hatch && block.timestamp >= growthTime[tokenId].hatchling) {... */\n      jump(tag_241)\n    tag_237:\n        /* \"contracts/TokenBase.sol\":1681:1702  GrowthStage.Hatchling */\n      0x02\n        /* \"contracts/TokenBase.sol\":1665:1702  currentStage == GrowthStage.Hatchling */\n      0x03\n      dup2\n      gt\n      iszero\n      tag_242\n      jumpi\n      tag_243\n      tag_104\n      jump\t// in\n    tag_243:\n    tag_242:\n        /* \"contracts/TokenBase.sol\":1665:1677  currentStage */\n      dup2\n        /* \"contracts/TokenBase.sol\":1665:1702  currentStage == GrowthStage.Hatchling */\n      0x03\n      dup2\n      gt\n      iszero\n      tag_244\n      jumpi\n      tag_245\n      tag_104\n      jump\t// in\n    tag_245:\n    tag_244:\n      eq\n        /* \"contracts/TokenBase.sol\":1665:1750  currentStage == GrowthStage.Hatchling && block.timestamp >= growthTime[tokenId].adult */\n      dup1\n      iszero\n      tag_246\n      jumpi\n      pop\n        /* \"contracts/TokenBase.sol\":1725:1735  growthTime */\n      0x0a\n        /* \"contracts/TokenBase.sol\":1725:1744  growthTime[tokenId] */\n      0x00\n        /* \"contracts/TokenBase.sol\":1736:1743  tokenId */\n      dup4\n        /* \"contracts/TokenBase.sol\":1725:1744  growthTime[tokenId] */\n      dup2\n      mstore\n      0x20\n      add\n      swap1\n      dup2\n      mstore\n      0x20\n      add\n      0x00\n      keccak256\n        /* \"contracts/TokenBase.sol\":1725:1750  growthTime[tokenId].adult */\n      0x02\n      add\n      sload\n        /* \"contracts/TokenBase.sol\":1706:1721  block.timestamp */\n      timestamp\n        /* \"contracts/TokenBase.sol\":1706:1750  block.timestamp >= growthTime[tokenId].adult */\n      lt\n      iszero\n        /* \"contracts/TokenBase.sol\":1665:1750  currentStage == GrowthStage.Hatchling && block.timestamp >= growthTime[tokenId].adult */\n    tag_246:\n        /* \"contracts/TokenBase.sol\":1662:1887  if(currentStage == GrowthStage.Hatchling && block.timestamp >= growthTime[tokenId].adult) {... */\n      iszero\n      tag_247\n      jumpi\n        /* \"contracts/TokenBase.sol\":1791:1808  GrowthStage.Adult */\n      0x03\n        /* \"contracts/TokenBase.sol\":1767:1779  growthStages */\n      0x07\n        /* \"contracts/TokenBase.sol\":1767:1788  growthStages[tokenId] */\n      0x00\n        /* \"contracts/TokenBase.sol\":1780:1787  tokenId */\n      dup5\n        /* \"contracts/TokenBase.sol\":1767:1788  growthStages[tokenId] */\n      dup2\n      mstore\n      0x20\n      add\n      swap1\n      dup2\n      mstore\n      0x20\n      add\n      0x00\n      keccak256\n      0x00\n        /* \"contracts/TokenBase.sol\":1767:1808  growthStages[tokenId] = GrowthStage.Adult */\n      0x0100\n      exp\n      dup2\n      sload\n      dup2\n      0xff\n      mul\n      not\n      and\n      swap1\n      dup4\n      0x03\n      dup2\n      gt\n      iszero\n      tag_248\n      jumpi\n      tag_249\n      tag_104\n      jump\t// in\n    tag_249:\n    tag_248:\n      mul\n      or\n      swap1\n      sstore\n      pop\n        /* \"contracts/TokenBase.sol\":1869:1875  3 days */\n      0x03f480\n        /* \"contracts/TokenBase.sol\":1851:1866  block.timestamp */\n      timestamp\n        /* \"contracts/TokenBase.sol\":1851:1875  block.timestamp + 3 days */\n      tag_250\n      swap2\n      swap1\n      tag_230\n      jump\t// in\n    tag_250:\n        /* \"contracts/TokenBase.sol\":1823:1833  growthTime */\n      0x0a\n        /* \"contracts/TokenBase.sol\":1823:1842  growthTime[tokenId] */\n      0x00\n        /* \"contracts/TokenBase.sol\":1834:1841  tokenId */\n      dup5\n        /* \"contracts/TokenBase.sol\":1823:1842  growthTime[tokenId] */\n      dup2\n      mstore\n      0x20\n      add\n      swap1\n      dup2\n      mstore\n      0x20\n      add\n      0x00\n      keccak256\n        /* \"contracts/TokenBase.sol\":1823:1848  growthTime[tokenId].adult */\n      0x02\n      add\n        /* \"contracts/TokenBase.sol\":1823:1875  growthTime[tokenId].adult = block.timestamp + 3 days */\n      dup2\n      swap1\n      sstore\n      pop\n        /* \"contracts/TokenBase.sol\":1662:1887  if(currentStage == GrowthStage.Hatchling && block.timestamp >= growthTime[tokenId].adult) {... */\n    tag_247:\n        /* \"contracts/TokenBase.sol\":1423:1887  if(currentStage == GrowthStage.Hatch && block.timestamp >= growthTime[tokenId].hatchling) {... */\n    tag_241:\n        /* \"contracts/TokenBase.sol\":1198:1887  if(currentStage == GrowthStage.Egg && block.timestamp >= growthTime[tokenId].hatch) {... */\n    tag_231:\n        /* \"contracts/TokenBase.sol\":1897:1918  updateGrowth(tokenId) */\n      tag_251\n        /* \"contracts/TokenBase.sol\":1910:1917  tokenId */\n      dup3\n        /* \"contracts/TokenBase.sol\":1897:1909  updateGrowth */\n      tag_252\n        /* \"contracts/TokenBase.sol\":1897:1918  updateGrowth(tokenId) */\n      jump\t// in\n    tag_251:\n        /* \"contracts/TokenBase.sol\":1126:1926  {... */\n      pop\n        /* \"contracts/TokenBase.sol\":1084:1926  function evolve(uint256 tokenId) external {... */\n      pop\n      jump\t// out\n        /* \"@openzeppelin/contracts/token/ERC721/extensions/ERC721URIStorage.sol\":937:1144  function supportsInterface(bytes4 interfaceId) public view virtual override(ERC721, IERC165) returns (bool) {... */\n    tag_139:\n        /* \"@openzeppelin/contracts/token/ERC721/extensions/ERC721URIStorage.sol\":1039:1043  bool */\n      0x00\n        /* \"@openzeppelin/contracts/token/ERC721/extensions/ERC721URIStorage.sol\":760:770  0x49064906 */\n      0x49064906\n        /* \"@openzeppelin/contracts/token/ERC721/extensions/ERC721URIStorage.sol\":753:771  bytes4(0x49064906) */\n      0xe0\n      shl\n        /* \"@openzeppelin/contracts/token/ERC721/extensions/ERC721URIStorage.sol\":1062:1097  interfaceId == ERC4906_INTERFACE_ID */\n      not(0xffffffffffffffffffffffffffffffffffffffffffffffffffffffff)\n      and\n        /* \"@openzeppelin/contracts/token/ERC721/extensions/ERC721URIStorage.sol\":1062:1073  interfaceId */\n      dup3\n        /* \"@openzeppelin/contracts/token/ERC721/extensions/ERC721URIStorage.sol\":1062:1097  interfaceId == ERC4906_INTERFACE_ID */\n      not(0xffffffffffffffffffffffffffffffffffffffffffffffffffffffff)\n      and\n      eq\n        /* \"@openzeppelin/contracts/token/ERC721/extensions/ERC721URIStorage.sol\":1062:1137  interfaceId == ERC4906_INTERFACE_ID || super.supportsInterface(interfaceId) */\n      dup1\n      tag_254\n      jumpi\n      pop\n        /* \"@openzeppelin/contracts/token/ERC721/extensions/ERC721URIStorage.sol\":1101:1137  super.supportsInterface(interfaceId) */\n      tag_255\n        /* \"@openzeppelin/contracts/token/ERC721/extensions/ERC721URIStorage.sol\":1125:1136  interfaceId */\n      dup3\n        /* \"@openzeppelin/contracts/token/ERC721/extensions/ERC721URIStorage.sol\":1101:1124  super.supportsInterface */\n      tag_256\n        /* \"@openzeppelin/contracts/token/ERC721/extensions/ERC721URIStorage.sol\":1101:1137  super.supportsInterface(interfaceId) */\n      jump\t// in\n    tag_255:\n        /* \"@openzeppelin/contracts/token/ERC721/extensions/ERC721URIStorage.sol\":1062:1137  interfaceId == ERC4906_INTERFACE_ID || super.supportsInterface(interfaceId) */\n    tag_254:\n        /* \"@openzeppelin/contracts/token/ERC721/extensions/ERC721URIStorage.sol\":1055:1137  return interfaceId == ERC4906_INTERFACE_ID || super.supportsInterface(interfaceId) */\n      swap1\n      pop\n        /* \"@openzeppelin/contracts/token/ERC721/extensions/ERC721URIStorage.sol\":937:1144  function supportsInterface(bytes4 interfaceId) public view virtual override(ERC721, IERC165) returns (bool) {... */\n      swap2\n      swap1\n      pop\n      jump\t// out\n        /* \"@openzeppelin/contracts/token/ERC721/ERC721.sol\":16138:16379  function _requireOwned(uint256 tokenId) internal view returns (address) {... */\n    tag_149:\n        /* \"@openzeppelin/contracts/token/ERC721/ERC721.sol\":16201:16208  address */\n      0x00\n        /* \"@openzeppelin/contracts/token/ERC721/ERC721.sol\":16220:16233  address owner */\n      dup1\n        /* \"@openzeppelin/contracts/token/ERC721/ERC721.sol\":16236:16253  _ownerOf(tokenId) */\n      tag_258\n        /* \"@openzeppelin/contracts/token/ERC721/ERC721.sol\":16245:16252  tokenId */\n      dup4\n        /* \"@openzeppelin/contracts/token/ERC721/ERC721.sol\":16236:16244  _ownerOf */\n      tag_259\n        /* \"@openzeppelin/contracts/token/ERC721/ERC721.sol\":16236:16253  _ownerOf(tokenId) */\n      jump\t// in\n    tag_258:\n        /* \"@openzeppelin/contracts/token/ERC721/ERC721.sol\":16220:16253  address owner = _ownerOf(tokenId) */\n      swap1\n      pop\n        /* \"@openzeppelin/contracts/token/ERC721/ERC721.sol\":16284:16285  0 */\n      0x00\n        /* \"@openzeppelin/contracts/token/ERC721/ERC721.sol\":16267:16286  owner == address(0) */\n      0xffffffffffffffffffffffffffffffffffffffff\n      and\n        /* \"@openzeppelin/contracts/token/ERC721/ERC721.sol\":16267:16272  owner */\n      dup2\n        /* \"@openzeppelin/contracts/token/ERC721/ERC721.sol\":16267:16286  owner == address(0) */\n      0xffffffffffffffffffffffffffffffffffffffff\n      and\n      sub\n        /* \"@openzeppelin/contracts/token/ERC721/ERC721.sol\":16263:16351  if (owner == address(0)) {... */\n      tag_260\n      jumpi\n        /* \"@openzeppelin/contracts/token/ERC721/ERC721.sol\":16332:16339  tokenId */\n      dup3\n        /* \"@openzeppelin/contracts/token/ERC721/ERC721.sol\":16309:16340  ERC721NonexistentToken(tokenId) */\n      mload(0x40)\n      0x7e27328900000000000000000000000000000000000000000000000000000000\n      dup2\n      mstore\n      0x04\n      add\n      tag_261\n      swap2\n      swap1\n      tag_67\n      jump\t// in\n    tag_261:\n      mload(0x40)\n      dup1\n      swap2\n      sub\n      swap1\n      revert\n        /* \"@openzeppelin/contracts/token/ERC721/ERC721.sol\":16263:16351  if (owner == address(0)) {... */\n    tag_260:\n        /* \"@openzeppelin/contracts/token/ERC721/ERC721.sol\":16367:16372  owner */\n      dup1\n        /* \"@openzeppelin/contracts/token/ERC721/ERC721.sol\":16360:16372  return owner */\n      swap2\n      pop\n      pop\n        /* \"@openzeppelin/contracts/token/ERC721/ERC721.sol\":16138:16379  function _requireOwned(uint256 tokenId) internal view returns (address) {... */\n      swap2\n      swap1\n      pop\n      jump\t// out\n        /* \"@openzeppelin/contracts/token/ERC721/ERC721.sol\":5938:6065  function _getApproved(uint256 tokenId) internal view virtual returns (address) {... */\n    tag_151:\n        /* \"@openzeppelin/contracts/token/ERC721/ERC721.sol\":6008:6015  address */\n      0x00\n        /* \"@openzeppelin/contracts/token/ERC721/ERC721.sol\":6034:6049  _tokenApprovals */\n      0x04\n        /* \"@openzeppelin/contracts/token/ERC721/ERC721.sol\":6034:6058  _tokenApprovals[tokenId] */\n      0x00\n        /* \"@openzeppelin/contracts/token/ERC721/ERC721.sol\":6050:6057  tokenId */\n      dup4\n        /* \"@openzeppelin/contracts/token/ERC721/ERC721.sol\":6034:6058  _tokenApprovals[tokenId] */\n      dup2\n      mstore\n      0x20\n      add\n      swap1\n      dup2\n      mstore\n      0x20\n      add\n      0x00\n      keccak256\n      0x00\n      swap1\n      sload\n      swap1\n      0x0100\n      exp\n      swap1\n      div\n      0xffffffffffffffffffffffffffffffffffffffff\n      and\n        /* \"@openzeppelin/contracts/token/ERC721/ERC721.sol\":6027:6058  return _tokenApprovals[tokenId] */\n      swap1\n      pop\n        /* \"@openzeppelin/contracts/token/ERC721/ERC721.sol\":5938:6065  function _getApproved(uint256 tokenId) internal view virtual returns (address) {... */\n      swap2\n      swap1\n      pop\n      jump\t// out\n        /* \"@openzeppelin/contracts/utils/Context.sol\":656:752  function _msgSender() internal view virtual returns (address) {... */\n    tag_155:\n        /* \"@openzeppelin/contracts/utils/Context.sol\":709:716  address */\n      0x00\n        /* \"@openzeppelin/contracts/utils/Context.sol\":735:745  msg.sender */\n      caller\n        /* \"@openzeppelin/contracts/utils/Context.sol\":728:745  return msg.sender */\n      swap1\n      pop\n        /* \"@openzeppelin/contracts/utils/Context.sol\":656:752  function _msgSender() internal view virtual returns (address) {... */\n      swap1\n      jump\t// out\n        /* \"@openzeppelin/contracts/token/ERC721/ERC721.sol\":14418:14538  function _approve(address to, uint256 tokenId, address auth) internal {... */\n    tag_156:\n        /* \"@openzeppelin/contracts/token/ERC721/ERC721.sol\":14498:14531  _approve(to, tokenId, auth, true) */\n      tag_265\n        /* \"@openzeppelin/contracts/token/ERC721/ERC721.sol\":14507:14509  to */\n      dup4\n        /* \"@openzeppelin/contracts/token/ERC721/ERC721.sol\":14511:14518  tokenId */\n      dup4\n        /* \"@openzeppelin/contracts/token/ERC721/ERC721.sol\":14520:14524  auth */\n      dup4\n        /* \"@openzeppelin/contracts/token/ERC721/ERC721.sol\":14526:14530  true */\n      0x01\n        /* \"@openzeppelin/contracts/token/ERC721/ERC721.sol\":14498:14506  _approve */\n      tag_266\n        /* \"@openzeppelin/contracts/token/ERC721/ERC721.sol\":14498:14531  _approve(to, tokenId, auth, true) */\n      jump\t// in\n    tag_265:\n        /* \"@openzeppelin/contracts/token/ERC721/ERC721.sol\":14418:14538  function _approve(address to, uint256 tokenId, address auth) internal {... */\n      pop\n      pop\n      pop\n      jump\t// out\n        /* \"@openzeppelin/contracts/token/ERC721/ERC721.sol\":8838:9633  function _update(address to, uint256 tokenId, address auth) internal virtual returns (address) {... */\n    tag_165:\n        /* \"@openzeppelin/contracts/token/ERC721/ERC721.sol\":8924:8931  address */\n      0x00\n        /* \"@openzeppelin/contracts/token/ERC721/ERC721.sol\":8943:8955  address from */\n      dup1\n        /* \"@openzeppelin/contracts/token/ERC721/ERC721.sol\":8958:8975  _ownerOf(tokenId) */\n      tag_268\n        /* \"@openzeppelin/contracts/token/ERC721/ERC721.sol\":8967:8974  tokenId */\n      dup5\n        /* \"@openzeppelin/contracts/token/ERC721/ERC721.sol\":8958:8966  _ownerOf */\n      tag_259\n        /* \"@openzeppelin/contracts/token/ERC721/ERC721.sol\":8958:8975  _ownerOf(tokenId) */\n      jump\t// in\n    tag_268:\n        /* \"@openzeppelin/contracts/token/ERC721/ERC721.sol\":8943:8975  address from = _ownerOf(tokenId) */\n      swap1\n      pop\n        /* \"@openzeppelin/contracts/token/ERC721/ERC721.sol\":9051:9052  0 */\n      0x00\n        /* \"@openzeppelin/contracts/token/ERC721/ERC721.sol\":9035:9053  auth != address(0) */\n      0xffffffffffffffffffffffffffffffffffffffff\n      and\n        /* \"@openzeppelin/contracts/token/ERC721/ERC721.sol\":9035:9039  auth */\n      dup4\n        /* \"@openzeppelin/contracts/token/ERC721/ERC721.sol\":9035:9053  auth != address(0) */\n      0xffffffffffffffffffffffffffffffffffffffff\n      and\n      eq\n        /* \"@openzeppelin/contracts/token/ERC721/ERC721.sol\":9031:9117  if (auth != address(0)) {... */\n      tag_269\n      jumpi\n        /* \"@openzeppelin/contracts/token/ERC721/ERC721.sol\":9069:9106  _checkAuthorized(from, auth, tokenId) */\n      tag_270\n        /* \"@openzeppelin/contracts/token/ERC721/ERC721.sol\":9086:9090  from */\n      dup2\n        /* \"@openzeppelin/contracts/token/ERC721/ERC721.sol\":9092:9096  auth */\n      dup5\n        /* \"@openzeppelin/contracts/token/ERC721/ERC721.sol\":9098:9105  tokenId */\n      dup7\n        /* \"@openzeppelin/contracts/token/ERC721/ERC721.sol\":9069:9085  _checkAuthorized */\n      tag_271\n        /* \"@openzeppelin/contracts/token/ERC721/ERC721.sol\":9069:9106  _checkAuthorized(from, auth, tokenId) */\n      jump\t// in\n    tag_270:\n        /* \"@openzeppelin/contracts/token/ERC721/ERC721.sol\":9031:9117  if (auth != address(0)) {... */\n    tag_269:\n        /* \"@openzeppelin/contracts/token/ERC721/ERC721.sol\":9177:9178  0 */\n      0x00\n        /* \"@openzeppelin/contracts/token/ERC721/ERC721.sol\":9161:9179  from != address(0) */\n      0xffffffffffffffffffffffffffffffffffffffff\n      and\n        /* \"@openzeppelin/contracts/token/ERC721/ERC721.sol\":9161:9165  from */\n      dup2\n        /* \"@openzeppelin/contracts/token/ERC721/ERC721.sol\":9161:9179  from != address(0) */\n      0xffffffffffffffffffffffffffffffffffffffff\n      and\n      eq\n        /* \"@openzeppelin/contracts/token/ERC721/ERC721.sol\":9157:9413  if (from != address(0)) {... */\n      tag_272\n      jumpi\n        /* \"@openzeppelin/contracts/token/ERC721/ERC721.sol\":9277:9325  _approve(address(0), tokenId, address(0), false) */\n      tag_273\n        /* \"@openzeppelin/contracts/token/ERC721/ERC721.sol\":9294:9295  0 */\n      0x00\n        /* \"@openzeppelin/contracts/token/ERC721/ERC721.sol\":9298:9305  tokenId */\n      dup6\n        /* \"@openzeppelin/contracts/token/ERC721/ERC721.sol\":9315:9316  0 */\n      0x00\n        /* \"@openzeppelin/contracts/token/ERC721/ERC721.sol\":9319:9324  false */\n      dup1\n        /* \"@openzeppelin/contracts/token/ERC721/ERC721.sol\":9277:9285  _approve */\n      tag_266\n        /* \"@openzeppelin/contracts/token/ERC721/ERC721.sol\":9277:9325  _approve(address(0), tokenId, address(0), false) */\n      jump\t// in\n    tag_273:\n        /* \"@openzeppelin/contracts/token/ERC721/ERC721.sol\":9387:9388  1 */\n      0x01\n        /* \"@openzeppelin/contracts/token/ERC721/ERC721.sol\":9368:9377  _balances */\n      0x03\n        /* \"@openzeppelin/contracts/token/ERC721/ERC721.sol\":9368:9383  _balances[from] */\n      0x00\n        /* \"@openzeppelin/contracts/token/ERC721/ERC721.sol\":9378:9382  from */\n      dup4\n        /* \"@openzeppelin/contracts/token/ERC721/ERC721.sol\":9368:9383  _balances[from] */\n      0xffffffffffffffffffffffffffffffffffffffff\n      and\n      0xffffffffffffffffffffffffffffffffffffffff\n      and\n      dup2\n      mstore\n      0x20\n      add\n      swap1\n      dup2\n      mstore\n      0x20\n      add\n      0x00\n      keccak256\n      0x00\n        /* \"@openzeppelin/contracts/token/ERC721/ERC721.sol\":9368:9388  _balances[from] -= 1 */\n      dup3\n      dup3\n      sload\n      sub\n      swap3\n      pop\n      pop\n      dup2\n      swap1\n      sstore\n      pop\n        /* \"@openzeppelin/contracts/token/ERC721/ERC721.sol\":9157:9413  if (from != address(0)) {... */\n    tag_272:\n        /* \"@openzeppelin/contracts/token/ERC721/ERC721.sol\":9441:9442  0 */\n      0x00\n        /* \"@openzeppelin/contracts/token/ERC721/ERC721.sol\":9427:9443  to != address(0) */\n      0xffffffffffffffffffffffffffffffffffffffff\n      and\n        /* \"@openzeppelin/contracts/token/ERC721/ERC721.sol\":9427:9429  to */\n      dup6\n        /* \"@openzeppelin/contracts/token/ERC721/ERC721.sol\":9427:9443  to != address(0) */\n      0xffffffffffffffffffffffffffffffffffffffff\n      and\n      eq\n        /* \"@openzeppelin/contracts/token/ERC721/ERC721.sol\":9423:9530  if (to != address(0)) {... */\n      tag_274\n      jumpi\n        /* \"@openzeppelin/contracts/token/ERC721/ERC721.sol\":9504:9505  1 */\n      0x01\n        /* \"@openzeppelin/contracts/token/ERC721/ERC721.sol\":9487:9496  _balances */\n      0x03\n        /* \"@openzeppelin/contracts/token/ERC721/ERC721.sol\":9487:9500  _balances[to] */\n      0x00\n        /* \"@openzeppelin/contracts/token/ERC721/ERC721.sol\":9497:9499  to */\n      dup8\n        /* \"@openzeppelin/contracts/token/ERC721/ERC721.sol\":9487:9500  _balances[to] */\n      0xffffffffffffffffffffffffffffffffffffffff\n      and\n      0xffffffffffffffffffffffffffffffffffffffff\n      and\n      dup2\n      mstore\n      0x20\n      add\n      swap1\n      dup2\n      mstore\n      0x20\n      add\n      0x00\n      keccak256\n      0x00\n        /* \"@openzeppelin/contracts/token/ERC721/ERC721.sol\":9487:9505  _balances[to] += 1 */\n      dup3\n      dup3\n      sload\n      add\n      swap3\n      pop\n      pop\n      dup2\n      swap1\n      sstore\n      pop\n        /* \"@openzeppelin/contracts/token/ERC721/ERC721.sol\":9423:9530  if (to != address(0)) {... */\n    tag_274:\n        /* \"@openzeppelin/contracts/token/ERC721/ERC721.sol\":9559:9561  to */\n      dup5\n        /* \"@openzeppelin/contracts/token/ERC721/ERC721.sol\":9540:9547  _owners */\n      0x02\n        /* \"@openzeppelin/contracts/token/ERC721/ERC721.sol\":9540:9556  _owners[tokenId] */\n      0x00\n        /* \"@openzeppelin/contracts/token/ERC721/ERC721.sol\":9548:9555  tokenId */\n      dup7\n        /* \"@openzeppelin/contracts/token/ERC721/ERC721.sol\":9540:9556  _owners[tokenId] */\n      dup2\n      mstore\n      0x20\n      add\n      swap1\n      dup2\n      mstore\n      0x20\n      add\n      0x00\n      keccak256\n      0x00\n        /* \"@openzeppelin/contracts/token/ERC721/ERC721.sol\":9540:9561  _owners[tokenId] = to */\n      0x0100\n      exp\n      dup2\n      sload\n      dup2\n      0xffffffffffffffffffffffffffffffffffffffff\n      mul\n      not\n      and\n      swap1\n      dup4\n      0xffffffffffffffffffffffffffffffffffffffff\n      and\n      mul\n      or\n      swap1\n      sstore\n      pop\n        /* \"@openzeppelin/contracts/token/ERC721/ERC721.sol\":9596:9603  tokenId */\n      dup4\n        /* \"@openzeppelin/contracts/token/ERC721/ERC721.sol\":9592:9594  to */\n      dup6\n        /* \"@openzeppelin/contracts/token/ERC721/ERC721.sol\":9577:9604  Transfer(from, to, tokenId) */\n      0xffffffffffffffffffffffffffffffffffffffff\n      and\n        /* \"@openzeppelin/contracts/token/ERC721/ERC721.sol\":9586:9590  from */\n      dup3\n        /* \"@openzeppelin/contracts/token/ERC721/ERC721.sol\":9577:9604  Transfer(from, to, tokenId) */\n      0xffffffffffffffffffffffffffffffffffffffff\n      and\n      0xddf252ad1be2c89b69c2b068fc378daa952ba7f163c4a11628f55a4df523b3ef\n      mload(0x40)\n      mload(0x40)\n      dup1\n      swap2\n      sub\n      swap1\n      log4\n        /* \"@openzeppelin/contracts/token/ERC721/ERC721.sol\":9622:9626  from */\n      dup1\n        /* \"@openzeppelin/contracts/token/ERC721/ERC721.sol\":9615:9626  return from */\n      swap2\n      pop\n      pop\n        /* \"@openzeppelin/contracts/token/ERC721/ERC721.sol\":8838:9633  function _update(address to, uint256 tokenId, address auth) internal virtual returns (address) {... */\n      swap4\n      swap3\n      pop\n      pop\n      pop\n      jump\t// out\n        /* \"@openzeppelin/contracts/token/ERC721/ERC721.sol\":15591:15903  function _setApprovalForAll(address owner, address operator, bool approved) internal virtual {... */\n    tag_185:\n        /* \"@openzeppelin/contracts/token/ERC721/ERC721.sol\":15718:15719  0 */\n      0x00\n        /* \"@openzeppelin/contracts/token/ERC721/ERC721.sol\":15698:15720  operator == address(0) */\n      0xffffffffffffffffffffffffffffffffffffffff\n      and\n        /* \"@openzeppelin/contracts/token/ERC721/ERC721.sol\":15698:15706  operator */\n      dup3\n        /* \"@openzeppelin/contracts/token/ERC721/ERC721.sol\":15698:15720  operator == address(0) */\n      0xffffffffffffffffffffffffffffffffffffffff\n      and\n      sub\n        /* \"@openzeppelin/contracts/token/ERC721/ERC721.sol\":15694:15785  if (operator == address(0)) {... */\n      tag_276\n      jumpi\n        /* \"@openzeppelin/contracts/token/ERC721/ERC721.sol\":15765:15773  operator */\n      dup2\n        /* \"@openzeppelin/contracts/token/ERC721/ERC721.sol\":15743:15774  ERC721InvalidOperator(operator) */\n      mload(0x40)\n      0x5b08ba1800000000000000000000000000000000000000000000000000000000\n      dup2\n      mstore\n      0x04\n      add\n      tag_277\n      swap2\n      swap1\n      tag_42\n      jump\t// in\n    tag_277:\n      mload(0x40)\n      dup1\n      swap2\n      sub\n      swap1\n      revert\n        /* \"@openzeppelin/contracts/token/ERC721/ERC721.sol\":15694:15785  if (operator == address(0)) {... */\n    tag_276:\n        /* \"@openzeppelin/contracts/token/ERC721/ERC721.sol\":15832:15840  approved */\n      dup1\n        /* \"@openzeppelin/contracts/token/ERC721/ERC721.sol\":15794:15812  _operatorApprovals */\n      0x05\n        /* \"@openzeppelin/contracts/token/ERC721/ERC721.sol\":15794:15819  _operatorApprovals[owner] */\n      0x00\n        /* \"@openzeppelin/contracts/token/ERC721/ERC721.sol\":15813:15818  owner */\n      dup6\n        /* \"@openzeppelin/contracts/token/ERC721/ERC721.sol\":15794:15819  _operatorApprovals[owner] */\n      0xffffffffffffffffffffffffffffffffffffffff\n      and\n      0xffffffffffffffffffffffffffffffffffffffff\n      and\n      dup2\n      mstore\n      0x20\n      add\n      swap1\n      dup2\n      mstore\n      0x20\n      add\n      0x00\n      keccak256\n        /* \"@openzeppelin/contracts/token/ERC721/ERC721.sol\":15794:15829  _operatorApprovals[owner][operator] */\n      0x00\n        /* \"@openzeppelin/contracts/token/ERC721/ERC721.sol\":15820:15828  operator */\n      dup5\n        /* \"@openzeppelin/contracts/token/ERC721/ERC721.sol\":15794:15829  _operatorApprovals[owner][operator] */\n      0xffffffffffffffffffffffffffffffffffffffff\n      and\n      0xffffffffffffffffffffffffffffffffffffffff\n      and\n      dup2\n      mstore\n      0x20\n      add\n      swap1\n      dup2\n      mstore\n      0x20\n      add\n      0x00\n      keccak256\n      0x00\n        /* \"@openzeppelin/contracts/token/ERC721/ERC721.sol\":15794:15840  _operatorApprovals[owner][operator] = approved */\n      0x0100\n      exp\n      dup2\n      sload\n      dup2\n      0xff\n      mul\n      not\n      and\n      swap1\n      dup4\n      iszero\n      iszero\n      mul\n      or\n      swap1\n      sstore\n      pop\n        /* \"@openzeppelin/contracts/token/ERC721/ERC721.sol\":15877:15885  operator */\n      dup2\n        /* \"@openzeppelin/contracts/token/ERC721/ERC721.sol\":15855:15896  ApprovalForAll(owner, operator, approved) */\n      0xffffffffffffffffffffffffffffffffffffffff\n      and\n        /* \"@openzeppelin/contracts/token/ERC721/ERC721.sol\":15870:15875  owner */\n      dup4\n        /* \"@openzeppelin/contracts/token/ERC721/ERC721.sol\":15855:15896  ApprovalForAll(owner, operator, approved) */\n      0xffffffffffffffffffffffffffffffffffffffff\n      and\n      0x17307eab39ab6107e8899845ad3d59bd9653f200f220920489ca2b5937696c31\n        /* \"@openzeppelin/contracts/token/ERC721/ERC721.sol\":15887:15895  approved */\n      dup4\n        /* \"@openzeppelin/contracts/token/ERC721/ERC721.sol\":15855:15896  ApprovalForAll(owner, operator, approved) */\n      mload(0x40)\n      tag_278\n      swap2\n      swap1\n      tag_33\n      jump\t// in\n    tag_278:\n      mload(0x40)\n      dup1\n      swap2\n      sub\n      swap1\n      log3\n        /* \"@openzeppelin/contracts/token/ERC721/ERC721.sol\":15591:15903  function _setApprovalForAll(address owner, address operator, bool approved) internal virtual {... */\n      pop\n      pop\n      pop\n      jump\t// out\n        /* \"@openzeppelin/contracts/token/ERC721/ERC721.sol\":16918:17700  function _checkOnERC721Received(address from, address to, uint256 tokenId, bytes memory data) private {... */\n    tag_212:\n        /* \"@openzeppelin/contracts/token/ERC721/ERC721.sol\":17051:17052  0 */\n      0x00\n        /* \"@openzeppelin/contracts/token/ERC721/ERC721.sol\":17034:17036  to */\n      dup4\n        /* \"@openzeppelin/contracts/token/ERC721/ERC721.sol\":17034:17048  to.code.length */\n      0xffffffffffffffffffffffffffffffffffffffff\n      and\n      extcodesize\n        /* \"@openzeppelin/contracts/token/ERC721/ERC721.sol\":17034:17052  to.code.length > 0 */\n      gt\n        /* \"@openzeppelin/contracts/token/ERC721/ERC721.sol\":17030:17694  if (to.code.length > 0) {... */\n      iszero\n      tag_280\n      jumpi\n        /* \"@openzeppelin/contracts/token/ERC721/ERC721.sol\":17088:17090  to */\n      dup3\n        /* \"@openzeppelin/contracts/token/ERC721/ERC721.sol\":17072:17108  IERC721Receiver(to).onERC721Received */\n      0xffffffffffffffffffffffffffffffffffffffff\n      and\n      0x150b7a02\n        /* \"@openzeppelin/contracts/token/ERC721/ERC721.sol\":17109:17121  _msgSender() */\n      tag_281\n        /* \"@openzeppelin/contracts/token/ERC721/ERC721.sol\":17109:17119  _msgSender */\n      tag_155\n        /* \"@openzeppelin/contracts/token/ERC721/ERC721.sol\":17109:17121  _msgSender() */\n      jump\t// in\n    tag_281:\n        /* \"@openzeppelin/contracts/token/ERC721/ERC721.sol\":17123:17127  from */\n      dup7\n        /* \"@openzeppelin/contracts/token/ERC721/ERC721.sol\":17129:17136  tokenId */\n      dup6\n        /* \"@openzeppelin/contracts/token/ERC721/ERC721.sol\":17138:17142  data */\n      dup6\n        /* \"@openzeppelin/contracts/token/ERC721/ERC721.sol\":17072:17143  IERC721Receiver(to).onERC721Received(_msgSender(), from, tokenId, data) */\n      mload(0x40)\n      dup6\n      0xffffffff\n      and\n      0xe0\n      shl\n      dup2\n      mstore\n      0x04\n      add\n      tag_282\n      swap5\n      swap4\n      swap3\n      swap2\n      swap1\n      tag_283\n      jump\t// in\n    tag_282:\n      0x20\n      mload(0x40)\n      dup1\n      dup4\n      sub\n      dup2\n      0x00\n      dup8\n      gas\n      call\n      swap3\n      pop\n      pop\n      pop\n      dup1\n      iszero\n      tag_284\n      jumpi\n      pop\n      mload(0x40)\n      returndatasize\n      not(0x1f)\n      0x1f\n      dup3\n      add\n      and\n      dup3\n      add\n      dup1\n      0x40\n      mstore\n      pop\n      dup2\n      add\n      swap1\n      tag_285\n      swap2\n      swap1\n      tag_286\n      jump\t// in\n    tag_285:\n      0x01\n    tag_284:\n        /* \"@openzeppelin/contracts/token/ERC721/ERC721.sol\":17068:17684  try IERC721Receiver(to).onERC721Received(_msgSender(), from, tokenId, data) returns (bytes4 retval) {... */\n      tag_287\n      jumpi\n      returndatasize\n      dup1\n      0x00\n      dup2\n      eq\n      tag_292\n      jumpi\n      mload(0x40)\n      swap2\n      pop\n      and(add(returndatasize, 0x3f), not(0x1f))\n      dup3\n      add\n      0x40\n      mstore\n      returndatasize\n      dup3\n      mstore\n      returndatasize\n      0x00\n      0x20\n      dup5\n      add\n      returndatacopy\n      jump(tag_291)\n    tag_292:\n      0x60\n      swap2\n      pop\n    tag_291:\n      pop\n        /* \"@openzeppelin/contracts/token/ERC721/ERC721.sol\":17398:17399  0 */\n      0x00\n        /* \"@openzeppelin/contracts/token/ERC721/ERC721.sol\":17381:17387  reason */\n      dup2\n        /* \"@openzeppelin/contracts/token/ERC721/ERC721.sol\":17381:17394  reason.length */\n      mload\n        /* \"@openzeppelin/contracts/token/ERC721/ERC721.sol\":17381:17399  reason.length == 0 */\n      sub\n        /* \"@openzeppelin/contracts/token/ERC721/ERC721.sol\":17377:17670  if (reason.length == 0) {... */\n      tag_293\n      jumpi\n        /* \"@openzeppelin/contracts/token/ERC721/ERC721.sol\":17452:17454  to */\n      dup4\n        /* \"@openzeppelin/contracts/token/ERC721/ERC721.sol\":17430:17455  ERC721InvalidReceiver(to) */\n      mload(0x40)\n      0x64a0ae9200000000000000000000000000000000000000000000000000000000\n      dup2\n      mstore\n      0x04\n      add\n      tag_294\n      swap2\n      swap1\n      tag_42\n      jump\t// in\n    tag_294:\n      mload(0x40)\n      dup1\n      swap2\n      sub\n      swap1\n      revert\n        /* \"@openzeppelin/contracts/token/ERC721/ERC721.sol\":17377:17670  if (reason.length == 0) {... */\n    tag_293:\n        /* \"@openzeppelin/contracts/token/ERC721/ERC721.sol\":17622:17628  reason */\n      dup1\n        /* \"@openzeppelin/contracts/token/ERC721/ERC721.sol\":17616:17629  mload(reason) */\n      mload\n        /* \"@openzeppelin/contracts/token/ERC721/ERC721.sol\":17607:17613  reason */\n      dup2\n        /* \"@openzeppelin/contracts/token/ERC721/ERC721.sol\":17603:17605  32 */\n      0x20\n        /* \"@openzeppelin/contracts/token/ERC721/ERC721.sol\":17599:17614  add(32, reason) */\n      add\n        /* \"@openzeppelin/contracts/token/ERC721/ERC721.sol\":17592:17630  revert(add(32, reason), mload(reason)) */\n      revert\n        /* \"@openzeppelin/contracts/token/ERC721/ERC721.sol\":17068:17684  try IERC721Receiver(to).onERC721Received(_msgSender(), from, tokenId, data) returns (bytes4 retval) {... */\n    tag_287:\n        /* \"@openzeppelin/contracts/token/ERC721/ERC721.sol\":17200:17241  IERC721Receiver.onERC721Received.selector */\n      shl(0xe0, 0x150b7a02)\n        /* \"@openzeppelin/contracts/token/ERC721/ERC721.sol\":17190:17241  retval != IERC721Receiver.onERC721Received.selector */\n      not(0xffffffffffffffffffffffffffffffffffffffffffffffffffffffff)\n      and\n        /* \"@openzeppelin/contracts/token/ERC721/ERC721.sol\":17190:17196  retval */\n      dup2\n        /* \"@openzeppelin/contracts/token/ERC721/ERC721.sol\":17190:17241  retval != IERC721Receiver.onERC721Received.selector */\n      not(0xffffffffffffffffffffffffffffffffffffffffffffffffffffffff)\n      and\n      eq\n        /* \"@openzeppelin/contracts/token/ERC721/ERC721.sol\":17186:17316  if (retval != IERC721Receiver.onERC721Received.selector) {... */\n      tag_297\n      jumpi\n        /* \"@openzeppelin/contracts/token/ERC721/ERC721.sol\":17294:17296  to */\n      dup4\n        /* \"@openzeppelin/contracts/token/ERC721/ERC721.sol\":17272:17297  ERC721InvalidReceiver(to) */\n      mload(0x40)\n      0x64a0ae9200000000000000000000000000000000000000000000000000000000\n      dup2\n      mstore\n      0x04\n      add\n      tag_298\n      swap2\n      swap1\n      tag_42\n      jump\t// in\n    tag_298:\n      mload(0x40)\n      dup1\n      swap2\n      sub\n      swap1\n      revert\n        /* \"@openzeppelin/contracts/token/ERC721/ERC721.sol\":17186:17316  if (retval != IERC721Receiver.onERC721Received.selector) {... */\n    tag_297:\n        /* \"@openzeppelin/contracts/token/ERC721/ERC721.sol\":17144:17330  returns (bytes4 retval) {... */\n      pop\n        /* \"@openzeppelin/contracts/token/ERC721/ERC721.sol\":17030:17694  if (to.code.length > 0) {... */\n    tag_280:\n        /* \"@openzeppelin/contracts/token/ERC721/ERC721.sol\":16918:17700  function _checkOnERC721Received(address from, address to, uint256 tokenId, bytes memory data) private {... */\n      pop\n      pop\n      pop\n      pop\n      jump\t// out\n        /* \"contracts/TokenBase.sol\":1934:2475  function updateGrowth(uint256 tokenId) internal {... */\n    tag_252:\n        /* \"contracts/TokenBase.sol\":1993:2017  GrowthStage currentStage */\n      0x00\n        /* \"contracts/TokenBase.sol\":2020:2032  growthStages */\n      0x07\n        /* \"contracts/TokenBase.sol\":2020:2041  growthStages[tokenId] */\n      0x00\n        /* \"contracts/TokenBase.sol\":2033:2040  tokenId */\n      dup4\n        /* \"contracts/TokenBase.sol\":2020:2041  growthStages[tokenId] */\n      dup2\n      mstore\n      0x20\n      add\n      swap1\n      dup2\n      mstore\n      0x20\n      add\n      0x00\n      keccak256\n      0x00\n      swap1\n      sload\n      swap1\n      0x0100\n      exp\n      swap1\n      div\n      0xff\n      and\n        /* \"contracts/TokenBase.sol\":1993:2041  GrowthStage currentStage = growthStages[tokenId] */\n      swap1\n      pop\n        /* \"contracts/TokenBase.sol\":2074:2089  GrowthStage.Egg */\n      0x00\n        /* \"contracts/TokenBase.sol\":2058:2089  currentStage == GrowthStage.Egg */\n      0x03\n      dup2\n      gt\n      iszero\n      tag_300\n      jumpi\n      tag_301\n      tag_104\n      jump\t// in\n    tag_301:\n    tag_300:\n        /* \"contracts/TokenBase.sol\":2058:2070  currentStage */\n      dup2\n        /* \"contracts/TokenBase.sol\":2058:2089  currentStage == GrowthStage.Egg */\n      0x03\n      dup2\n      gt\n      iszero\n      tag_302\n      jumpi\n      tag_303\n      tag_104\n      jump\t// in\n    tag_303:\n    tag_302:\n      sub\n        /* \"contracts/TokenBase.sol\":2054:2468  if (currentStage == GrowthStage.Egg) {... */\n      tag_304\n      jumpi\n        /* \"contracts/TokenBase.sol\":2106:2136  tokens[tokenId].growth = \"egg\" */\n      mload(0x40)\n      dup1\n      0x40\n      add\n      0x40\n      mstore\n      dup1\n      0x03\n      dup2\n      mstore\n      0x20\n      add\n      0x6567670000000000000000000000000000000000000000000000000000000000\n      dup2\n      mstore\n      pop\n        /* \"contracts/TokenBase.sol\":2106:2112  tokens */\n      0x09\n        /* \"contracts/TokenBase.sol\":2106:2121  tokens[tokenId] */\n      0x00\n        /* \"contracts/TokenBase.sol\":2113:2120  tokenId */\n      dup5\n        /* \"contracts/TokenBase.sol\":2106:2121  tokens[tokenId] */\n      dup2\n      mstore\n      0x20\n      add\n      swap1\n      dup2\n      mstore\n      0x20\n      add\n      0x00\n      keccak256\n        /* \"contracts/TokenBase.sol\":2106:2128  tokens[tokenId].growth */\n      0x05\n      add\n        /* \"contracts/TokenBase.sol\":2106:2136  tokens[tokenId].growth = \"egg\" */\n      swap1\n      dup2\n      tag_305\n      swap2\n      swap1\n      tag_306\n      jump\t// in\n    tag_305:\n      pop\n        /* \"contracts/TokenBase.sol\":2054:2468  if (currentStage == GrowthStage.Egg) {... */\n      jump(tag_307)\n    tag_304:\n        /* \"contracts/TokenBase.sol\":2174:2191  GrowthStage.Hatch */\n      0x01\n        /* \"contracts/TokenBase.sol\":2158:2191  currentStage == GrowthStage.Hatch */\n      0x03\n      dup2\n      gt\n      iszero\n      tag_308\n      jumpi\n      tag_309\n      tag_104\n      jump\t// in\n    tag_309:\n    tag_308:\n        /* \"contracts/TokenBase.sol\":2158:2170  currentStage */\n      dup2\n        /* \"contracts/TokenBase.sol\":2158:2191  currentStage == GrowthStage.Hatch */\n      0x03\n      dup2\n      gt\n      iszero\n      tag_310\n      jumpi\n      tag_311\n      tag_104\n      jump\t// in\n    tag_311:\n    tag_310:\n      sub\n        /* \"contracts/TokenBase.sol\":2154:2468  if (currentStage == GrowthStage.Hatch) {... */\n      tag_312\n      jumpi\n        /* \"contracts/TokenBase.sol\":2208:2240  tokens[tokenId].growth = \"hatch\" */\n      mload(0x40)\n      dup1\n      0x40\n      add\n      0x40\n      mstore\n      dup1\n      0x05\n      dup2\n      mstore\n      0x20\n      add\n      0x6861746368000000000000000000000000000000000000000000000000000000\n      dup2\n      mstore\n      pop\n        /* \"contracts/TokenBase.sol\":2208:2214  tokens */\n      0x09\n        /* \"contracts/TokenBase.sol\":2208:2223  tokens[tokenId] */\n      0x00\n        /* \"contracts/TokenBase.sol\":2215:2222  tokenId */\n      dup5\n        /* \"contracts/TokenBase.sol\":2208:2223  tokens[tokenId] */\n      dup2\n      mstore\n      0x20\n      add\n      swap1\n      dup2\n      mstore\n      0x20\n      add\n      0x00\n      keccak256\n        /* \"contracts/TokenBase.sol\":2208:2230  tokens[tokenId].growth */\n      0x05\n      add\n        /* \"contracts/TokenBase.sol\":2208:2240  tokens[tokenId].growth = \"hatch\" */\n      swap1\n      dup2\n      tag_313\n      swap2\n      swap1\n      tag_306\n      jump\t// in\n    tag_313:\n      pop\n        /* \"contracts/TokenBase.sol\":2154:2468  if (currentStage == GrowthStage.Hatch) {... */\n      jump(tag_314)\n    tag_312:\n        /* \"contracts/TokenBase.sol\":2278:2299  GrowthStage.Hatchling */\n      0x02\n        /* \"contracts/TokenBase.sol\":2262:2299  currentStage == GrowthStage.Hatchling */\n      0x03\n      dup2\n      gt\n      iszero\n      tag_315\n      jumpi\n      tag_316\n      tag_104\n      jump\t// in\n    tag_316:\n    tag_315:\n        /* \"contracts/TokenBase.sol\":2262:2274  currentStage */\n      dup2\n        /* \"contracts/TokenBase.sol\":2262:2299  currentStage == GrowthStage.Hatchling */\n      0x03\n      dup2\n      gt\n      iszero\n      tag_317\n      jumpi\n      tag_318\n      tag_104\n      jump\t// in\n    tag_318:\n    tag_317:\n      sub\n        /* \"contracts/TokenBase.sol\":2258:2468  if (currentStage == GrowthStage.Hatchling) {... */\n      tag_319\n      jumpi\n        /* \"contracts/TokenBase.sol\":2316:2352  tokens[tokenId].growth = \"hatchling\" */\n      mload(0x40)\n      dup1\n      0x40\n      add\n      0x40\n      mstore\n      dup1\n      0x09\n      dup2\n      mstore\n      0x20\n      add\n      0x68617463686c696e670000000000000000000000000000000000000000000000\n      dup2\n      mstore\n      pop\n        /* \"contracts/TokenBase.sol\":2316:2322  tokens */\n      0x09\n        /* \"contracts/TokenBase.sol\":2316:2331  tokens[tokenId] */\n      0x00\n        /* \"contracts/TokenBase.sol\":2323:2330  tokenId */\n      dup5\n        /* \"contracts/TokenBase.sol\":2316:2331  tokens[tokenId] */\n      dup2\n      mstore\n      0x20\n      add\n      swap1\n      dup2\n      mstore\n      0x20\n      add\n      0x00\n      keccak256\n        /* \"contracts/TokenBase.sol\":2316:2338  tokens[tokenId].growth */\n      0x05\n      add\n        /* \"contracts/TokenBase.sol\":2316:2352  tokens[tokenId].growth = \"hatchling\" */\n      swap1\n      dup2\n      tag_320\n      swap2\n      swap1\n      tag_306\n      jump\t// in\n    tag_320:\n      pop\n        /* \"contracts/TokenBase.sol\":2258:2468  if (currentStage == GrowthStage.Hatchling) {... */\n      jump(tag_321)\n    tag_319:\n        /* \"contracts/TokenBase.sol\":2390:2407  GrowthStage.Adult */\n      0x03\n        /* \"contracts/TokenBase.sol\":2374:2407  currentStage == GrowthStage.Adult */\n      dup1\n      dup2\n      gt\n      iszero\n      tag_322\n      jumpi\n      tag_323\n      tag_104\n      jump\t// in\n    tag_323:\n    tag_322:\n        /* \"contracts/TokenBase.sol\":2374:2386  currentStage */\n      dup2\n        /* \"contracts/TokenBase.sol\":2374:2407  currentStage == GrowthStage.Adult */\n      0x03\n      dup2\n      gt\n      iszero\n      tag_324\n      jumpi\n      tag_325\n      tag_104\n      jump\t// in\n    tag_325:\n    tag_324:\n      sub\n        /* \"contracts/TokenBase.sol\":2370:2468  if (currentStage == GrowthStage.Adult) {... */\n      tag_326\n      jumpi\n        /* \"contracts/TokenBase.sol\":2424:2456  tokens[tokenId].growth = \"adult\" */\n      mload(0x40)\n      dup1\n      0x40\n      add\n      0x40\n      mstore\n      dup1\n      0x05\n      dup2\n      mstore\n      0x20\n      add\n      0x6164756c74000000000000000000000000000000000000000000000000000000\n      dup2\n      mstore\n      pop\n        /* \"contracts/TokenBase.sol\":2424:2430  tokens */\n      0x09\n        /* \"contracts/TokenBase.sol\":2424:2439  tokens[tokenId] */\n      0x00\n        /* \"contracts/TokenBase.sol\":2431:2438  tokenId */\n      dup5\n        /* \"contracts/TokenBase.sol\":2424:2439  tokens[tokenId] */\n      dup2\n      mstore\n      0x20\n      add\n      swap1\n      dup2\n      mstore\n      0x20\n      add\n      0x00\n      keccak256\n        /* \"contracts/TokenBase.sol\":2424:2446  tokens[tokenId].growth */\n      0x05\n      add\n        /* \"contracts/TokenBase.sol\":2424:2456  tokens[tokenId].growth = \"adult\" */\n      swap1\n      dup2\n      tag_327\n      swap2\n      swap1\n      tag_306\n      jump\t// in\n    tag_327:\n      pop\n        /* \"contracts/TokenBase.sol\":2370:2468  if (currentStage == GrowthStage.Adult) {... */\n    tag_326:\n        /* \"contracts/TokenBase.sol\":2258:2468  if (currentStage == GrowthStage.Hatchling) {... */\n    tag_321:\n        /* \"contracts/TokenBase.sol\":2154:2468  if (currentStage == GrowthStage.Hatch) {... */\n    tag_314:\n        /* \"contracts/TokenBase.sol\":2054:2468  if (currentStage == GrowthStage.Egg) {... */\n    tag_307:\n        /* \"contracts/TokenBase.sol\":1982:2475  {... */\n      pop\n        /* \"contracts/TokenBase.sol\":1934:2475  function updateGrowth(uint256 tokenId) internal {... */\n      pop\n      jump\t// out\n        /* \"@openzeppelin/contracts/token/ERC721/ERC721.sol\":1561:1861  function supportsInterface(bytes4 interfaceId) public view virtual override(ERC165, IERC165) returns (bool) {... */\n    tag_256:\n        /* \"@openzeppelin/contracts/token/ERC721/ERC721.sol\":1663:1667  bool */\n      0x00\n        /* \"@openzeppelin/contracts/token/ERC721/ERC721.sol\":1713:1738  type(IERC721).interfaceId */\n      0x80ac58cd00000000000000000000000000000000000000000000000000000000\n        /* \"@openzeppelin/contracts/token/ERC721/ERC721.sol\":1698:1738  interfaceId == type(IERC721).interfaceId */\n      not(0xffffffffffffffffffffffffffffffffffffffffffffffffffffffff)\n      and\n        /* \"@openzeppelin/contracts/token/ERC721/ERC721.sol\":1698:1709  interfaceId */\n      dup3\n        /* \"@openzeppelin/contracts/token/ERC721/ERC721.sol\":1698:1738  interfaceId == type(IERC721).interfaceId */\n      not(0xffffffffffffffffffffffffffffffffffffffffffffffffffffffff)\n      and\n      eq\n        /* \"@openzeppelin/contracts/token/ERC721/ERC721.sol\":1698:1802  interfaceId == type(IERC721).interfaceId ||... */\n      dup1\n      tag_329\n      jumpi\n      pop\n        /* \"@openzeppelin/contracts/token/ERC721/ERC721.sol\":1769:1802  type(IERC721Metadata).interfaceId */\n      0x5b5e139f00000000000000000000000000000000000000000000000000000000\n        /* \"@openzeppelin/contracts/token/ERC721/ERC721.sol\":1754:1802  interfaceId == type(IERC721Metadata).interfaceId */\n      not(0xffffffffffffffffffffffffffffffffffffffffffffffffffffffff)\n      and\n        /* \"@openzeppelin/contracts/token/ERC721/ERC721.sol\":1754:1765  interfaceId */\n      dup3\n        /* \"@openzeppelin/contracts/token/ERC721/ERC721.sol\":1754:1802  interfaceId == type(IERC721Metadata).interfaceId */\n      not(0xffffffffffffffffffffffffffffffffffffffffffffffffffffffff)\n      and\n      eq\n        /* \"@openzeppelin/contracts/token/ERC721/ERC721.sol\":1698:1802  interfaceId == type(IERC721).interfaceId ||... */\n    tag_329:\n        /* \"@openzeppelin/contracts/token/ERC721/ERC721.sol\":1698:1854  interfaceId == type(IERC721).interfaceId ||... */\n      dup1\n      tag_330\n      jumpi\n      pop\n        /* \"@openzeppelin/contracts/token/ERC721/ERC721.sol\":1818:1854  super.supportsInterface(interfaceId) */\n      tag_331\n        /* \"@openzeppelin/contracts/token/ERC721/ERC721.sol\":1842:1853  interfaceId */\n      dup3\n        /* \"@openzeppelin/contracts/token/ERC721/ERC721.sol\":1818:1841  super.supportsInterface */\n      tag_332\n        /* \"@openzeppelin/contracts/token/ERC721/ERC721.sol\":1818:1854  super.supportsInterface(interfaceId) */\n      jump\t// in\n    tag_331:\n        /* \"@openzeppelin/contracts/token/ERC721/ERC721.sol\":1698:1854  interfaceId == type(IERC721).interfaceId ||... */\n    tag_330:\n        /* \"@openzeppelin/contracts/token/ERC721/ERC721.sol\":1679:1854  return... */\n      swap1\n      pop\n        /* \"@openzeppelin/contracts/token/ERC721/ERC721.sol\":1561:1861  function supportsInterface(bytes4 interfaceId) public view virtual override(ERC165, IERC165) returns (bool) {... */\n      swap2\n      swap1\n      pop\n      jump\t// out\n        /* \"@openzeppelin/contracts/token/ERC721/ERC721.sol\":5707:5822  function _ownerOf(uint256 tokenId) internal view virtual returns (address) {... */\n    tag_259:\n        /* \"@openzeppelin/contracts/token/ERC721/ERC721.sol\":5773:5780  address */\n      0x00\n        /* \"@openzeppelin/contracts/token/ERC721/ERC721.sol\":5799:5806  _owners */\n      0x02\n        /* \"@openzeppelin/contracts/token/ERC721/ERC721.sol\":5799:5815  _owners[tokenId] */\n      0x00\n        /* \"@openzeppelin/contracts/token/ERC721/ERC721.sol\":5807:5814  tokenId */\n      dup4\n        /* \"@openzeppelin/contracts/token/ERC721/ERC721.sol\":5799:5815  _owners[tokenId] */\n      dup2\n      mstore\n      0x20\n      add\n      swap1\n      dup2\n      mstore\n      0x20\n      add\n      0x00\n      keccak256\n      0x00\n      swap1\n      sload\n      swap1\n      0x0100\n      exp\n      swap1\n      div\n      0xffffffffffffffffffffffffffffffffffffffff\n      and\n        /* \"@openzeppelin/contracts/token/ERC721/ERC721.sol\":5792:5815  return _owners[tokenId] */\n      swap1\n      pop\n        /* \"@openzeppelin/contracts/token/ERC721/ERC721.sol\":5707:5822  function _ownerOf(uint256 tokenId) internal view virtual returns (address) {... */\n      swap2\n      swap1\n      pop\n      jump\t// out\n        /* \"@openzeppelin/contracts/token/ERC721/ERC721.sol\":14720:15382  function _approve(address to, uint256 tokenId, address auth, bool emitEvent) internal virtual {... */\n    tag_266:\n        /* \"@openzeppelin/contracts/token/ERC721/ERC721.sol\":14880:14889  emitEvent */\n      dup1\n        /* \"@openzeppelin/contracts/token/ERC721/ERC721.sol\":14880:14911  emitEvent || auth != address(0) */\n      dup1\n      tag_335\n      jumpi\n      pop\n        /* \"@openzeppelin/contracts/token/ERC721/ERC721.sol\":14909:14910  0 */\n      0x00\n        /* \"@openzeppelin/contracts/token/ERC721/ERC721.sol\":14893:14911  auth != address(0) */\n      0xffffffffffffffffffffffffffffffffffffffff\n      and\n        /* \"@openzeppelin/contracts/token/ERC721/ERC721.sol\":14893:14897  auth */\n      dup3\n        /* \"@openzeppelin/contracts/token/ERC721/ERC721.sol\":14893:14911  auth != address(0) */\n      0xffffffffffffffffffffffffffffffffffffffff\n      and\n      eq\n      iszero\n        /* \"@openzeppelin/contracts/token/ERC721/ERC721.sol\":14880:14911  emitEvent || auth != address(0) */\n    tag_335:\n        /* \"@openzeppelin/contracts/token/ERC721/ERC721.sol\":14876:15336  if (emitEvent || auth != address(0)) {... */\n      iszero\n      tag_336\n      jumpi\n        /* \"@openzeppelin/contracts/token/ERC721/ERC721.sol\":14927:14940  address owner */\n      0x00\n        /* \"@openzeppelin/contracts/token/ERC721/ERC721.sol\":14943:14965  _requireOwned(tokenId) */\n      tag_337\n        /* \"@openzeppelin/contracts/token/ERC721/ERC721.sol\":14957:14964  tokenId */\n      dup5\n        /* \"@openzeppelin/contracts/token/ERC721/ERC721.sol\":14943:14956  _requireOwned */\n      tag_149\n        /* \"@openzeppelin/contracts/token/ERC721/ERC721.sol\":14943:14965  _requireOwned(tokenId) */\n      jump\t// in\n    tag_337:\n        /* \"@openzeppelin/contracts/token/ERC721/ERC721.sol\":14927:14965  address owner = _requireOwned(tokenId) */\n      swap1\n      pop\n        /* \"@openzeppelin/contracts/token/ERC721/ERC721.sol\":15109:15110  0 */\n      0x00\n        /* \"@openzeppelin/contracts/token/ERC721/ERC721.sol\":15093:15111  auth != address(0) */\n      0xffffffffffffffffffffffffffffffffffffffff\n      and\n        /* \"@openzeppelin/contracts/token/ERC721/ERC721.sol\":15093:15097  auth */\n      dup4\n        /* \"@openzeppelin/contracts/token/ERC721/ERC721.sol\":15093:15111  auth != address(0) */\n      0xffffffffffffffffffffffffffffffffffffffff\n      and\n      eq\n      iszero\n        /* \"@openzeppelin/contracts/token/ERC721/ERC721.sol\":15093:15128  auth != address(0) && owner != auth */\n      dup1\n      iszero\n      tag_338\n      jumpi\n      pop\n        /* \"@openzeppelin/contracts/token/ERC721/ERC721.sol\":15124:15128  auth */\n      dup3\n        /* \"@openzeppelin/contracts/token/ERC721/ERC721.sol\":15115:15128  owner != auth */\n      0xffffffffffffffffffffffffffffffffffffffff\n      and\n        /* \"@openzeppelin/contracts/token/ERC721/ERC721.sol\":15115:15120  owner */\n      dup2\n        /* \"@openzeppelin/contracts/token/ERC721/ERC721.sol\":15115:15128  owner != auth */\n      0xffffffffffffffffffffffffffffffffffffffff\n      and\n      eq\n      iszero\n        /* \"@openzeppelin/contracts/token/ERC721/ERC721.sol\":15093:15128  auth != address(0) && owner != auth */\n    tag_338:\n        /* \"@openzeppelin/contracts/token/ERC721/ERC721.sol\":15093:15162  auth != address(0) && owner != auth && !isApprovedForAll(owner, auth) */\n      dup1\n      iszero\n      tag_339\n      jumpi\n      pop\n        /* \"@openzeppelin/contracts/token/ERC721/ERC721.sol\":15133:15162  isApprovedForAll(owner, auth) */\n      tag_340\n        /* \"@openzeppelin/contracts/token/ERC721/ERC721.sol\":15150:15155  owner */\n      dup2\n        /* \"@openzeppelin/contracts/token/ERC721/ERC721.sol\":15157:15161  auth */\n      dup5\n        /* \"@openzeppelin/contracts/token/ERC721/ERC721.sol\":15133:15149  isApprovedForAll */\n      tag_96\n        /* \"@openzeppelin/contracts/token/ERC721/ERC721.sol\":15133:15162  isApprovedForAll(owner, auth) */\n      jump\t// in\n    tag_340:\n        /* \"@openzeppelin/contracts/token/ERC721/ERC721.sol\":15132:15162  !isApprovedForAll(owner, auth) */\n      iszero\n        /* \"@openzeppelin/contracts/token/ERC721/ERC721.sol\":15093:15162  auth != address(0) && owner != auth && !isApprovedForAll(owner, auth) */\n    tag_339:\n        /* \"@openzeppelin/contracts/token/ERC721/ERC721.sol\":15089:15231  if (auth != address(0) && owner != auth && !isApprovedForAll(owner, auth)) {... */\n      iszero\n      tag_341\n      jumpi\n        /* \"@openzeppelin/contracts/token/ERC721/ERC721.sol\":15211:15215  auth */\n      dup3\n        /* \"@openzeppelin/contracts/token/ERC721/ERC721.sol\":15189:15216  ERC721InvalidApprover(auth) */\n      mload(0x40)\n      0xa9fbf51f00000000000000000000000000000000000000000000000000000000\n      dup2\n      mstore\n      0x04\n      add\n      tag_342\n      swap2\n      swap1\n      tag_42\n      jump\t// in\n    tag_342:\n      mload(0x40)\n      dup1\n      swap2\n      sub\n      swap1\n      revert\n        /* \"@openzeppelin/contracts/token/ERC721/ERC721.sol\":15089:15231  if (auth != address(0) && owner != auth && !isApprovedForAll(owner, auth)) {... */\n    tag_341:\n        /* \"@openzeppelin/contracts/token/ERC721/ERC721.sol\":15249:15258  emitEvent */\n      dup2\n        /* \"@openzeppelin/contracts/token/ERC721/ERC721.sol\":15245:15326  if (emitEvent) {... */\n      iszero\n      tag_343\n      jumpi\n        /* \"@openzeppelin/contracts/token/ERC721/ERC721.sol\":15303:15310  tokenId */\n      dup4\n        /* \"@openzeppelin/contracts/token/ERC721/ERC721.sol\":15299:15301  to */\n      dup6\n        /* \"@openzeppelin/contracts/token/ERC721/ERC721.sol\":15283:15311  Approval(owner, to, tokenId) */\n      0xffffffffffffffffffffffffffffffffffffffff\n      and\n        /* \"@openzeppelin/contracts/token/ERC721/ERC721.sol\":15292:15297  owner */\n      dup3\n        /* \"@openzeppelin/contracts/token/ERC721/ERC721.sol\":15283:15311  Approval(owner, to, tokenId) */\n      0xffffffffffffffffffffffffffffffffffffffff\n      and\n      0x8c5be1e5ebec7d5bd14f71427d1e84f3dd0314c0f7b2291e5b200ac8c7c3b925\n      mload(0x40)\n      mload(0x40)\n      dup1\n      swap2\n      sub\n      swap1\n      log4\n        /* \"@openzeppelin/contracts/token/ERC721/ERC721.sol\":15245:15326  if (emitEvent) {... */\n    tag_343:\n        /* \"@openzeppelin/contracts/token/ERC721/ERC721.sol\":14913:15336  {... */\n      pop\n        /* \"@openzeppelin/contracts/token/ERC721/ERC721.sol\":14876:15336  if (emitEvent || auth != address(0)) {... */\n    tag_336:\n        /* \"@openzeppelin/contracts/token/ERC721/ERC721.sol\":15373:15375  to */\n      dup4\n        /* \"@openzeppelin/contracts/token/ERC721/ERC721.sol\":15346:15361  _tokenApprovals */\n      0x04\n        /* \"@openzeppelin/contracts/token/ERC721/ERC721.sol\":15346:15370  _tokenApprovals[tokenId] */\n      0x00\n        /* \"@openzeppelin/contracts/token/ERC721/ERC721.sol\":15362:15369  tokenId */\n      dup6\n        /* \"@openzeppelin/contracts/token/ERC721/ERC721.sol\":15346:15370  _tokenApprovals[tokenId] */\n      dup2\n      mstore\n      0x20\n      add\n      swap1\n      dup2\n      mstore\n      0x20\n      add\n      0x00\n      keccak256\n      0x00\n        /* \"@openzeppelin/contracts/token/ERC721/ERC721.sol\":15346:15375  _tokenApprovals[tokenId] = to */\n      0x0100\n      exp\n      dup2\n      sload\n      dup2\n      0xffffffffffffffffffffffffffffffffffffffff\n      mul\n      not\n      and\n      swap1\n      dup4\n      0xffffffffffffffffffffffffffffffffffffffff\n      and\n      mul\n      or\n      swap1\n      sstore\n      pop\n        /* \"@openzeppelin/contracts/token/ERC721/ERC721.sol\":14720:15382  function _approve(address to, uint256 tokenId, address auth, bool emitEvent) internal virtual {... */\n      pop\n      pop\n      pop\n      pop\n      jump\t// out\n        /* \"@openzeppelin/contracts/token/ERC721/ERC721.sol\":7082:7450  function _checkAuthorized(address owner, address spender, uint256 tokenId) internal view virtual {... */\n    tag_271:\n        /* \"@openzeppelin/contracts/token/ERC721/ERC721.sol\":7194:7232  _isAuthorized(owner, spender, tokenId) */\n      tag_345\n        /* \"@openzeppelin/contracts/token/ERC721/ERC721.sol\":7208:7213  owner */\n      dup4\n        /* \"@openzeppelin/contracts/token/ERC721/ERC721.sol\":7215:7222  spender */\n      dup4\n        /* \"@openzeppelin/contracts/token/ERC721/ERC721.sol\":7224:7231  tokenId */\n      dup4\n        /* \"@openzeppelin/contracts/token/ERC721/ERC721.sol\":7194:7207  _isAuthorized */\n      tag_346\n        /* \"@openzeppelin/contracts/token/ERC721/ERC721.sol\":7194:7232  _isAuthorized(owner, spender, tokenId) */\n      jump\t// in\n    tag_345:\n        /* \"@openzeppelin/contracts/token/ERC721/ERC721.sol\":7189:7444  if (!_isAuthorized(owner, spender, tokenId)) {... */\n      tag_347\n      jumpi\n        /* \"@openzeppelin/contracts/token/ERC721/ERC721.sol\":7269:7270  0 */\n      0x00\n        /* \"@openzeppelin/contracts/token/ERC721/ERC721.sol\":7252:7271  owner == address(0) */\n      0xffffffffffffffffffffffffffffffffffffffff\n      and\n        /* \"@openzeppelin/contracts/token/ERC721/ERC721.sol\":7252:7257  owner */\n      dup4\n        /* \"@openzeppelin/contracts/token/ERC721/ERC721.sol\":7252:7271  owner == address(0) */\n      0xffffffffffffffffffffffffffffffffffffffff\n      and\n      sub\n        /* \"@openzeppelin/contracts/token/ERC721/ERC721.sol\":7248:7434  if (owner == address(0)) {... */\n      tag_348\n      jumpi\n        /* \"@openzeppelin/contracts/token/ERC721/ERC721.sol\":7321:7328  tokenId */\n      dup1\n        /* \"@openzeppelin/contracts/token/ERC721/ERC721.sol\":7298:7329  ERC721NonexistentToken(tokenId) */\n      mload(0x40)\n      0x7e27328900000000000000000000000000000000000000000000000000000000\n      dup2\n      mstore\n      0x04\n      add\n      tag_349\n      swap2\n      swap1\n      tag_67\n      jump\t// in\n    tag_349:\n      mload(0x40)\n      dup1\n      swap2\n      sub\n      swap1\n      revert\n        /* \"@openzeppelin/contracts/token/ERC721/ERC721.sol\":7248:7434  if (owner == address(0)) {... */\n    tag_348:\n        /* \"@openzeppelin/contracts/token/ERC721/ERC721.sol\":7402:7409  spender */\n      dup2\n        /* \"@openzeppelin/contracts/token/ERC721/ERC721.sol\":7411:7418  tokenId */\n      dup2\n        /* \"@openzeppelin/contracts/token/ERC721/ERC721.sol\":7375:7419  ERC721InsufficientApproval(spender, tokenId) */\n      mload(0x40)\n      0x177e802f00000000000000000000000000000000000000000000000000000000\n      dup2\n      mstore\n      0x04\n      add\n      tag_351\n      swap3\n      swap2\n      swap1\n      tag_352\n      jump\t// in\n    tag_351:\n      mload(0x40)\n      dup1\n      swap2\n      sub\n      swap1\n      revert\n        /* \"@openzeppelin/contracts/token/ERC721/ERC721.sol\":7189:7444  if (!_isAuthorized(owner, spender, tokenId)) {... */\n    tag_347:\n        /* \"@openzeppelin/contracts/token/ERC721/ERC721.sol\":7082:7450  function _checkAuthorized(address owner, address spender, uint256 tokenId) internal view virtual {... */\n      pop\n      pop\n      pop\n      jump\t// out\n        /* \"@openzeppelin/contracts/utils/introspection/ERC165.sol\":762:908  function supportsInterface(bytes4 interfaceId) public view virtual returns (bool) {... */\n    tag_332:\n        /* \"@openzeppelin/contracts/utils/introspection/ERC165.sol\":838:842  bool */\n      0x00\n        /* \"@openzeppelin/contracts/utils/introspection/ERC165.sol\":876:901  type(IERC165).interfaceId */\n      0x01ffc9a700000000000000000000000000000000000000000000000000000000\n        /* \"@openzeppelin/contracts/utils/introspection/ERC165.sol\":861:901  interfaceId == type(IERC165).interfaceId */\n      not(0xffffffffffffffffffffffffffffffffffffffffffffffffffffffff)\n      and\n        /* \"@openzeppelin/contracts/utils/introspection/ERC165.sol\":861:872  interfaceId */\n      dup3\n        /* \"@openzeppelin/contracts/utils/introspection/ERC165.sol\":861:901  interfaceId == type(IERC165).interfaceId */\n      not(0xffffffffffffffffffffffffffffffffffffffffffffffffffffffff)\n      and\n      eq\n        /* \"@openzeppelin/contracts/utils/introspection/ERC165.sol\":854:901  return interfaceId == type(IERC165).interfaceId */\n      swap1\n      pop\n        /* \"@openzeppelin/contracts/utils/introspection/ERC165.sol\":762:908  function supportsInterface(bytes4 interfaceId) public view virtual returns (bool) {... */\n      swap2\n      swap1\n      pop\n      jump\t// out\n        /* \"@openzeppelin/contracts/token/ERC721/ERC721.sol\":6376:6648  function _isAuthorized(address owner, address spender, uint256 tokenId) internal view virtual returns (bool) {... */\n    tag_346:\n        /* \"@openzeppelin/contracts/token/ERC721/ERC721.sol\":6479:6483  bool */\n      0x00\n        /* \"@openzeppelin/contracts/token/ERC721/ERC721.sol\":6533:6534  0 */\n      dup1\n        /* \"@openzeppelin/contracts/token/ERC721/ERC721.sol\":6514:6535  spender != address(0) */\n      0xffffffffffffffffffffffffffffffffffffffff\n      and\n        /* \"@openzeppelin/contracts/token/ERC721/ERC721.sol\":6514:6521  spender */\n      dup4\n        /* \"@openzeppelin/contracts/token/ERC721/ERC721.sol\":6514:6535  spender != address(0) */\n      0xffffffffffffffffffffffffffffffffffffffff\n      and\n      eq\n      iszero\n        /* \"@openzeppelin/contracts/token/ERC721/ERC721.sol\":6514:6641  spender != address(0) &&... */\n      dup1\n      iszero\n      tag_355\n      jumpi\n      pop\n        /* \"@openzeppelin/contracts/token/ERC721/ERC721.sol\":6561:6568  spender */\n      dup3\n        /* \"@openzeppelin/contracts/token/ERC721/ERC721.sol\":6552:6568  owner == spender */\n      0xffffffffffffffffffffffffffffffffffffffff\n      and\n        /* \"@openzeppelin/contracts/token/ERC721/ERC721.sol\":6552:6557  owner */\n      dup5\n        /* \"@openzeppelin/contracts/token/ERC721/ERC721.sol\":6552:6568  owner == spender */\n      0xffffffffffffffffffffffffffffffffffffffff\n      and\n      eq\n        /* \"@openzeppelin/contracts/token/ERC721/ERC721.sol\":6552:6604  owner == spender || isApprovedForAll(owner, spender) */\n      dup1\n      tag_356\n      jumpi\n      pop\n        /* \"@openzeppelin/contracts/token/ERC721/ERC721.sol\":6572:6604  isApprovedForAll(owner, spender) */\n      tag_357\n        /* \"@openzeppelin/contracts/token/ERC721/ERC721.sol\":6589:6594  owner */\n      dup5\n        /* \"@openzeppelin/contracts/token/ERC721/ERC721.sol\":6596:6603  spender */\n      dup5\n        /* \"@openzeppelin/contracts/token/ERC721/ERC721.sol\":6572:6588  isApprovedForAll */\n      tag_96\n        /* \"@openzeppelin/contracts/token/ERC721/ERC721.sol\":6572:6604  isApprovedForAll(owner, spender) */\n      jump\t// in\n    tag_357:\n        /* \"@openzeppelin/contracts/token/ERC721/ERC721.sol\":6552:6604  owner == spender || isApprovedForAll(owner, spender) */\n    tag_356:\n        /* \"@openzeppelin/contracts/token/ERC721/ERC721.sol\":6552:6640  owner == spender || isApprovedForAll(owner, spender) || _getApproved(tokenId) == spender */\n      dup1\n      tag_358\n      jumpi\n      pop\n        /* \"@openzeppelin/contracts/token/ERC721/ERC721.sol\":6633:6640  spender */\n      dup3\n        /* \"@openzeppelin/contracts/token/ERC721/ERC721.sol\":6608:6640  _getApproved(tokenId) == spender */\n      0xffffffffffffffffffffffffffffffffffffffff\n      and\n        /* \"@openzeppelin/contracts/token/ERC721/ERC721.sol\":6608:6629  _getApproved(tokenId) */\n      tag_359\n        /* \"@openzeppelin/contracts/token/ERC721/ERC721.sol\":6621:6628  tokenId */\n      dup4\n        /* \"@openzeppelin/contracts/token/ERC721/ERC721.sol\":6608:6620  _getApproved */\n      tag_151\n        /* \"@openzeppelin/contracts/token/ERC721/ERC721.sol\":6608:6629  _getApproved(tokenId) */\n      jump\t// in\n    tag_359:\n        /* \"@openzeppelin/contracts/token/ERC721/ERC721.sol\":6608:6640  _getApproved(tokenId) == spender */\n      0xffffffffffffffffffffffffffffffffffffffff\n      and\n      eq\n        /* \"@openzeppelin/contracts/token/ERC721/ERC721.sol\":6552:6640  owner == spender || isApprovedForAll(owner, spender) || _getApproved(tokenId) == spender */\n    tag_358:\n        /* \"@openzeppelin/contracts/token/ERC721/ERC721.sol\":6514:6641  spender != address(0) &&... */\n    tag_355:\n        /* \"@openzeppelin/contracts/token/ERC721/ERC721.sol\":6495:6641  return... */\n      swap1\n      pop\n        /* \"@openzeppelin/contracts/token/ERC721/ERC721.sol\":6376:6648  function _isAuthorized(address owner, address spender, uint256 tokenId) internal view virtual returns (bool) {... */\n      swap4\n      swap3\n      pop\n      pop\n      pop\n      jump\t// out\n        /* \"#utility.yul\":7:82   */\n    tag_360:\n        /* \"#utility.yul\":40:46   */\n      0x00\n        /* \"#utility.yul\":73:75   */\n      0x40\n        /* \"#utility.yul\":67:76   */\n      mload\n        /* \"#utility.yul\":57:76   */\n      swap1\n      pop\n        /* \"#utility.yul\":7:82   */\n      swap1\n      jump\t// out\n        /* \"#utility.yul\":88:205   */\n    tag_361:\n        /* \"#utility.yul\":197:198   */\n      0x00\n        /* \"#utility.yul\":194:195   */\n      dup1\n        /* \"#utility.yul\":187:199   */\n      revert\n        /* \"#utility.yul\":211:328   */\n    tag_362:\n        /* \"#utility.yul\":320:321   */\n      0x00\n        /* \"#utility.yul\":317:318   */\n      dup1\n        /* \"#utility.yul\":310:322   */\n      revert\n        /* \"#utility.yul\":334:411   */\n    tag_363:\n        /* \"#utility.yul\":371:378   */\n      0x00\n        /* \"#utility.yul\":400:405   */\n      dup2\n        /* \"#utility.yul\":389:405   */\n      swap1\n      pop\n        /* \"#utility.yul\":334:411   */\n      swap2\n      swap1\n      pop\n      jump\t// out\n        /* \"#utility.yul\":417:539   */\n    tag_364:\n        /* \"#utility.yul\":490:514   */\n      tag_430\n        /* \"#utility.yul\":508:513   */\n      dup2\n        /* \"#utility.yul\":490:514   */\n      tag_363\n      jump\t// in\n    tag_430:\n        /* \"#utility.yul\":483:488   */\n      dup2\n        /* \"#utility.yul\":480:515   */\n      eq\n        /* \"#utility.yul\":470:533   */\n      tag_431\n      jumpi\n        /* \"#utility.yul\":529:530   */\n      0x00\n        /* \"#utility.yul\":526:527   */\n      dup1\n        /* \"#utility.yul\":519:531   */\n      revert\n        /* \"#utility.yul\":470:533   */\n    tag_431:\n        /* \"#utility.yul\":417:539   */\n      pop\n      jump\t// out\n        /* \"#utility.yul\":545:684   */\n    tag_365:\n        /* \"#utility.yul\":591:596   */\n      0x00\n        /* \"#utility.yul\":629:635   */\n      dup2\n        /* \"#utility.yul\":616:636   */\n      calldataload\n        /* \"#utility.yul\":607:636   */\n      swap1\n      pop\n        /* \"#utility.yul\":645:678   */\n      tag_433\n        /* \"#utility.yul\":672:677   */\n      dup2\n        /* \"#utility.yul\":645:678   */\n      tag_364\n      jump\t// in\n    tag_433:\n        /* \"#utility.yul\":545:684   */\n      swap3\n      swap2\n      pop\n      pop\n      jump\t// out\n        /* \"#utility.yul\":690:1019   */\n    tag_26:\n        /* \"#utility.yul\":749:755   */\n      0x00\n        /* \"#utility.yul\":798:800   */\n      0x20\n        /* \"#utility.yul\":786:795   */\n      dup3\n        /* \"#utility.yul\":777:784   */\n      dup5\n        /* \"#utility.yul\":773:796   */\n      sub\n        /* \"#utility.yul\":769:801   */\n      slt\n        /* \"#utility.yul\":766:885   */\n      iszero\n      tag_435\n      jumpi\n        /* \"#utility.yul\":804:883   */\n      tag_436\n      tag_361\n      jump\t// in\n    tag_436:\n        /* \"#utility.yul\":766:885   */\n    tag_435:\n        /* \"#utility.yul\":924:925   */\n      0x00\n        /* \"#utility.yul\":949:1002   */\n      tag_437\n        /* \"#utility.yul\":994:1001   */\n      dup5\n        /* \"#utility.yul\":985:991   */\n      dup3\n        /* \"#utility.yul\":974:983   */\n      dup6\n        /* \"#utility.yul\":970:992   */\n      add\n        /* \"#utility.yul\":949:1002   */\n      tag_365\n      jump\t// in\n    tag_437:\n        /* \"#utility.yul\":939:1002   */\n      swap2\n      pop\n        /* \"#utility.yul\":895:1012   */\n      pop\n        /* \"#utility.yul\":690:1019   */\n      swap3\n      swap2\n      pop\n      pop\n      jump\t// out\n        /* \"#utility.yul\":1025:1174   */\n    tag_366:\n        /* \"#utility.yul\":1061:1068   */\n      0x00\n        /* \"#utility.yul\":1101:1167   */\n      0xffffffff00000000000000000000000000000000000000000000000000000000\n        /* \"#utility.yul\":1094:1099   */\n      dup3\n        /* \"#utility.yul\":1090:1168   */\n      and\n        /* \"#utility.yul\":1079:1168   */\n      swap1\n      pop\n        /* \"#utility.yul\":1025:1174   */\n      swap2\n      swap1\n      pop\n      jump\t// out\n        /* \"#utility.yul\":1180:1300   */\n    tag_367:\n        /* \"#utility.yul\":1252:1275   */\n      tag_440\n        /* \"#utility.yul\":1269:1274   */\n      dup2\n        /* \"#utility.yul\":1252:1275   */\n      tag_366\n      jump\t// in\n    tag_440:\n        /* \"#utility.yul\":1245:1250   */\n      dup2\n        /* \"#utility.yul\":1242:1276   */\n      eq\n        /* \"#utility.yul\":1232:1294   */\n      tag_441\n      jumpi\n        /* \"#utility.yul\":1290:1291   */\n      0x00\n        /* \"#utility.yul\":1287:1288   */\n      dup1\n        /* \"#utility.yul\":1280:1292   */\n      revert\n        /* \"#utility.yul\":1232:1294   */\n    tag_441:\n        /* \"#utility.yul\":1180:1300   */\n      pop\n      jump\t// out\n        /* \"#utility.yul\":1306:1443   */\n    tag_368:\n        /* \"#utility.yul\":1351:1356   */\n      0x00\n        /* \"#utility.yul\":1389:1395   */\n      dup2\n        /* \"#utility.yul\":1376:1396   */\n      calldataload\n        /* \"#utility.yul\":1367:1396   */\n      swap1\n      pop\n        /* \"#utility.yul\":1405:1437   */\n      tag_443\n        /* \"#utility.yul\":1431:1436   */\n      dup2\n        /* \"#utility.yul\":1405:1437   */\n      tag_367\n      jump\t// in\n    tag_443:\n        /* \"#utility.yul\":1306:1443   */\n      swap3\n      swap2\n      pop\n      pop\n      jump\t// out\n        /* \"#utility.yul\":1449:1776   */\n    tag_30:\n        /* \"#utility.yul\":1507:1513   */\n      0x00\n        /* \"#utility.yul\":1556:1558   */\n      0x20\n        /* \"#utility.yul\":1544:1553   */\n      dup3\n        /* \"#utility.yul\":1535:1542   */\n      dup5\n        /* \"#utility.yul\":1531:1554   */\n      sub\n        /* \"#utility.yul\":1527:1559   */\n      slt\n        /* \"#utility.yul\":1524:1643   */\n      iszero\n      tag_445\n      jumpi\n        /* \"#utility.yul\":1562:1641   */\n      tag_446\n      tag_361\n      jump\t// in\n    tag_446:\n        /* \"#utility.yul\":1524:1643   */\n    tag_445:\n        /* \"#utility.yul\":1682:1683   */\n      0x00\n        /* \"#utility.yul\":1707:1759   */\n      tag_447\n        /* \"#utility.yul\":1751:1758   */\n      dup5\n        /* \"#utility.yul\":1742:1748   */\n      dup3\n        /* \"#utility.yul\":1731:1740   */\n      dup6\n        /* \"#utility.yul\":1727:1749   */\n      add\n        /* \"#utility.yul\":1707:1759   */\n      tag_368\n      jump\t// in\n    tag_447:\n        /* \"#utility.yul\":1697:1759   */\n      swap2\n      pop\n        /* \"#utility.yul\":1653:1769   */\n      pop\n        /* \"#utility.yul\":1449:1776   */\n      swap3\n      swap2\n      pop\n      pop\n      jump\t// out\n        /* \"#utility.yul\":1782:1872   */\n    tag_369:\n        /* \"#utility.yul\":1816:1823   */\n      0x00\n        /* \"#utility.yul\":1859:1864   */\n      dup2\n        /* \"#utility.yul\":1852:1865   */\n      iszero\n        /* \"#utility.yul\":1845:1866   */\n      iszero\n        /* \"#utility.yul\":1834:1866   */\n      swap1\n      pop\n        /* \"#utility.yul\":1782:1872   */\n      swap2\n      swap1\n      pop\n      jump\t// out\n        /* \"#utility.yul\":1878:1987   */\n    tag_370:\n        /* \"#utility.yul\":1959:1980   */\n      tag_450\n        /* \"#utility.yul\":1974:1979   */\n      dup2\n        /* \"#utility.yul\":1959:1980   */\n      tag_369\n      jump\t// in\n    tag_450:\n        /* \"#utility.yul\":1954:1957   */\n      dup3\n        /* \"#utility.yul\":1947:1981   */\n      mstore\n        /* \"#utility.yul\":1878:1987   */\n      pop\n      pop\n      jump\t// out\n        /* \"#utility.yul\":1993:2203   */\n    tag_33:\n        /* \"#utility.yul\":2080:2084   */\n      0x00\n        /* \"#utility.yul\":2118:2120   */\n      0x20\n        /* \"#utility.yul\":2107:2116   */\n      dup3\n        /* \"#utility.yul\":2103:2121   */\n      add\n        /* \"#utility.yul\":2095:2121   */\n      swap1\n      pop\n        /* \"#utility.yul\":2131:2196   */\n      tag_452\n        /* \"#utility.yul\":2193:2194   */\n      0x00\n        /* \"#utility.yul\":2182:2191   */\n      dup4\n        /* \"#utility.yul\":2178:2195   */\n      add\n        /* \"#utility.yul\":2169:2175   */\n      dup5\n        /* \"#utility.yul\":2131:2196   */\n      tag_370\n      jump\t// in\n    tag_452:\n        /* \"#utility.yul\":1993:2203   */\n      swap3\n      swap2\n      pop\n      pop\n      jump\t// out\n        /* \"#utility.yul\":2209:2308   */\n    tag_371:\n        /* \"#utility.yul\":2261:2267   */\n      0x00\n        /* \"#utility.yul\":2295:2300   */\n      dup2\n        /* \"#utility.yul\":2289:2301   */\n      mload\n        /* \"#utility.yul\":2279:2301   */\n      swap1\n      pop\n        /* \"#utility.yul\":2209:2308   */\n      swap2\n      swap1\n      pop\n      jump\t// out\n        /* \"#utility.yul\":2314:2483   */\n    tag_372:\n        /* \"#utility.yul\":2398:2409   */\n      0x00\n        /* \"#utility.yul\":2432:2438   */\n      dup3\n        /* \"#utility.yul\":2427:2430   */\n      dup3\n        /* \"#utility.yul\":2420:2439   */\n      mstore\n        /* \"#utility.yul\":2472:2476   */\n      0x20\n        /* \"#utility.yul\":2467:2470   */\n      dup3\n        /* \"#utility.yul\":2463:2477   */\n      add\n        /* \"#utility.yul\":2448:2477   */\n      swap1\n      pop\n        /* \"#utility.yul\":2314:2483   */\n      swap3\n      swap2\n      pop\n      pop\n      jump\t// out\n        /* \"#utility.yul\":2489:2735   */\n    tag_373:\n        /* \"#utility.yul\":2570:2571   */\n      0x00\n        /* \"#utility.yul\":2580:2693   */\n    tag_456:\n        /* \"#utility.yul\":2594:2600   */\n      dup4\n        /* \"#utility.yul\":2591:2592   */\n      dup2\n        /* \"#utility.yul\":2588:2601   */\n      lt\n        /* \"#utility.yul\":2580:2693   */\n      iszero\n      tag_458\n      jumpi\n        /* \"#utility.yul\":2679:2680   */\n      dup1\n        /* \"#utility.yul\":2674:2677   */\n      dup3\n        /* \"#utility.yul\":2670:2681   */\n      add\n        /* \"#utility.yul\":2664:2682   */\n      mload\n        /* \"#utility.yul\":2660:2661   */\n      dup2\n        /* \"#utility.yul\":2655:2658   */\n      dup5\n        /* \"#utility.yul\":2651:2662   */\n      add\n        /* \"#utility.yul\":2644:2683   */\n      mstore\n        /* \"#utility.yul\":2616:2618   */\n      0x20\n        /* \"#utility.yul\":2613:2614   */\n      dup2\n        /* \"#utility.yul\":2609:2619   */\n      add\n        /* \"#utility.yul\":2604:2619   */\n      swap1\n      pop\n        /* \"#utility.yul\":2580:2693   */\n      jump(tag_456)\n    tag_458:\n        /* \"#utility.yul\":2727:2728   */\n      0x00\n        /* \"#utility.yul\":2718:2724   */\n      dup5\n        /* \"#utility.yul\":2713:2716   */\n      dup5\n        /* \"#utility.yul\":2709:2725   */\n      add\n        /* \"#utility.yul\":2702:2729   */\n      mstore\n        /* \"#utility.yul\":2551:2735   */\n      pop\n        /* \"#utility.yul\":2489:2735   */\n      pop\n      pop\n      pop\n      jump\t// out\n        /* \"#utility.yul\":2741:2843   */\n    tag_374:\n        /* \"#utility.yul\":2782:2788   */\n      0x00\n        /* \"#utility.yul\":2833:2835   */\n      0x1f\n        /* \"#utility.yul\":2829:2836   */\n      not\n        /* \"#utility.yul\":2824:2826   */\n      0x1f\n        /* \"#utility.yul\":2817:2822   */\n      dup4\n        /* \"#utility.yul\":2813:2827   */\n      add\n        /* \"#utility.yul\":2809:2837   */\n      and\n        /* \"#utility.yul\":2799:2837   */\n      swap1\n      pop\n        /* \"#utility.yul\":2741:2843   */\n      swap2\n      swap1\n      pop\n      jump\t// out\n        /* \"#utility.yul\":2849:3226   */\n    tag_375:\n        /* \"#utility.yul\":2937:2940   */\n      0x00\n        /* \"#utility.yul\":2965:3004   */\n      tag_461\n        /* \"#utility.yul\":2998:3003   */\n      dup3\n        /* \"#utility.yul\":2965:3004   */\n      tag_371\n      jump\t// in\n    tag_461:\n        /* \"#utility.yul\":3020:3091   */\n      tag_462\n        /* \"#utility.yul\":3084:3090   */\n      dup2\n        /* \"#utility.yul\":3079:3082   */\n      dup6\n        /* \"#utility.yul\":3020:3091   */\n      tag_372\n      jump\t// in\n    tag_462:\n        /* \"#utility.yul\":3013:3091   */\n      swap4\n      pop\n        /* \"#utility.yul\":3100:3165   */\n      tag_463\n        /* \"#utility.yul\":3158:3164   */\n      dup2\n        /* \"#utility.yul\":3153:3156   */\n      dup6\n        /* \"#utility.yul\":3146:3150   */\n      0x20\n        /* \"#utility.yul\":3139:3144   */\n      dup7\n        /* \"#utility.yul\":3135:3151   */\n      add\n        /* \"#utility.yul\":3100:3165   */\n      tag_373\n      jump\t// in\n    tag_463:\n        /* \"#utility.yul\":3190:3219   */\n      tag_464\n        /* \"#utility.yul\":3212:3218   */\n      dup2\n        /* \"#utility.yul\":3190:3219   */\n      tag_374\n      jump\t// in\n    tag_464:\n        /* \"#utility.yul\":3185:3188   */\n      dup5\n        /* \"#utility.yul\":3181:3220   */\n      add\n        /* \"#utility.yul\":3174:3220   */\n      swap2\n      pop\n        /* \"#utility.yul\":2941:3226   */\n      pop\n        /* \"#utility.yul\":2849:3226   */\n      swap3\n      swap2\n      pop\n      pop\n      jump\t// out\n        /* \"#utility.yul\":3232:3545   */\n    tag_37:\n        /* \"#utility.yul\":3345:3349   */\n      0x00\n        /* \"#utility.yul\":3383:3385   */\n      0x20\n        /* \"#utility.yul\":3372:3381   */\n      dup3\n        /* \"#utility.yul\":3368:3386   */\n      add\n        /* \"#utility.yul\":3360:3386   */\n      swap1\n      pop\n        /* \"#utility.yul\":3432:3441   */\n      dup2\n        /* \"#utility.yul\":3426:3430   */\n      dup2\n        /* \"#utility.yul\":3422:3442   */\n      sub\n        /* \"#utility.yul\":3418:3419   */\n      0x00\n        /* \"#utility.yul\":3407:3416   */\n      dup4\n        /* \"#utility.yul\":3403:3420   */\n      add\n        /* \"#utility.yul\":3396:3443   */\n      mstore\n        /* \"#utility.yul\":3460:3538   */\n      tag_466\n        /* \"#utility.yul\":3533:3537   */\n      dup2\n        /* \"#utility.yul\":3524:3530   */\n      dup5\n        /* \"#utility.yul\":3460:3538   */\n      tag_375\n      jump\t// in\n    tag_466:\n        /* \"#utility.yul\":3452:3538   */\n      swap1\n      pop\n        /* \"#utility.yul\":3232:3545   */\n      swap3\n      swap2\n      pop\n      pop\n      jump\t// out\n        /* \"#utility.yul\":3551:3677   */\n    tag_376:\n        /* \"#utility.yul\":3588:3595   */\n      0x00\n        /* \"#utility.yul\":3628:3670   */\n      0xffffffffffffffffffffffffffffffffffffffff\n        /* \"#utility.yul\":3621:3626   */\n      dup3\n        /* \"#utility.yul\":3617:3671   */\n      and\n        /* \"#utility.yul\":3606:3671   */\n      swap1\n      pop\n        /* \"#utility.yul\":3551:3677   */\n      swap2\n      swap1\n      pop\n      jump\t// out\n        /* \"#utility.yul\":3683:3779   */\n    tag_377:\n        /* \"#utility.yul\":3720:3727   */\n      0x00\n        /* \"#utility.yul\":3749:3773   */\n      tag_469\n        /* \"#utility.yul\":3767:3772   */\n      dup3\n        /* \"#utility.yul\":3749:3773   */\n      tag_376\n      jump\t// in\n    tag_469:\n        /* \"#utility.yul\":3738:3773   */\n      swap1\n      pop\n        /* \"#utility.yul\":3683:3779   */\n      swap2\n      swap1\n      pop\n      jump\t// out\n        /* \"#utility.yul\":3785:3903   */\n    tag_378:\n        /* \"#utility.yul\":3872:3896   */\n      tag_471\n        /* \"#utility.yul\":3890:3895   */\n      dup2\n        /* \"#utility.yul\":3872:3896   */\n      tag_377\n      jump\t// in\n    tag_471:\n        /* \"#utility.yul\":3867:3870   */\n      dup3\n        /* \"#utility.yul\":3860:3897   */\n      mstore\n        /* \"#utility.yul\":3785:3903   */\n      pop\n      pop\n      jump\t// out\n        /* \"#utility.yul\":3909:4131   */\n    tag_42:\n        /* \"#utility.yul\":4002:4006   */\n      0x00\n        /* \"#utility.yul\":4040:4042   */\n      0x20\n        /* \"#utility.yul\":4029:4038   */\n      dup3\n        /* \"#utility.yul\":4025:4043   */\n      add\n        /* \"#utility.yul\":4017:4043   */\n      swap1\n      pop\n        /* \"#utility.yul\":4053:4124   */\n      tag_473\n        /* \"#utility.yul\":4121:4122   */\n      0x00\n        /* \"#utility.yul\":4110:4119   */\n      dup4\n        /* \"#utility.yul\":4106:4123   */\n      add\n        /* \"#utility.yul\":4097:4103   */\n      dup5\n        /* \"#utility.yul\":4053:4124   */\n      tag_378\n      jump\t// in\n    tag_473:\n        /* \"#utility.yul\":3909:4131   */\n      swap3\n      swap2\n      pop\n      pop\n      jump\t// out\n        /* \"#utility.yul\":4137:4259   */\n    tag_379:\n        /* \"#utility.yul\":4210:4234   */\n      tag_475\n        /* \"#utility.yul\":4228:4233   */\n      dup2\n        /* \"#utility.yul\":4210:4234   */\n      tag_377\n      jump\t// in\n    tag_475:\n        /* \"#utility.yul\":4203:4208   */\n      dup2\n        /* \"#utility.yul\":4200:4235   */\n      eq\n        /* \"#utility.yul\":4190:4253   */\n      tag_476\n      jumpi\n        /* \"#utility.yul\":4249:4250   */\n      0x00\n        /* \"#utility.yul\":4246:4247   */\n      dup1\n        /* \"#utility.yul\":4239:4251   */\n      revert\n        /* \"#utility.yul\":4190:4253   */\n    tag_476:\n        /* \"#utility.yul\":4137:4259   */\n      pop\n      jump\t// out\n        /* \"#utility.yul\":4265:4404   */\n    tag_380:\n        /* \"#utility.yul\":4311:4316   */\n      0x00\n        /* \"#utility.yul\":4349:4355   */\n      dup2\n        /* \"#utility.yul\":4336:4356   */\n      calldataload\n        /* \"#utility.yul\":4327:4356   */\n      swap1\n      pop\n        /* \"#utility.yul\":4365:4398   */\n      tag_478\n        /* \"#utility.yul\":4392:4397   */\n      dup2\n        /* \"#utility.yul\":4365:4398   */\n      tag_379\n      jump\t// in\n    tag_478:\n        /* \"#utility.yul\":4265:4404   */\n      swap3\n      swap2\n      pop\n      pop\n      jump\t// out\n        /* \"#utility.yul\":4410:4884   */\n    tag_45:\n        /* \"#utility.yul\":4478:4484   */\n      0x00\n        /* \"#utility.yul\":4486:4492   */\n      dup1\n        /* \"#utility.yul\":4535:4537   */\n      0x40\n        /* \"#utility.yul\":4523:4532   */\n      dup4\n        /* \"#utility.yul\":4514:4521   */\n      dup6\n        /* \"#utility.yul\":4510:4533   */\n      sub\n        /* \"#utility.yul\":4506:4538   */\n      slt\n        /* \"#utility.yul\":4503:4622   */\n      iszero\n      tag_480\n      jumpi\n        /* \"#utility.yul\":4541:4620   */\n      tag_481\n      tag_361\n      jump\t// in\n    tag_481:\n        /* \"#utility.yul\":4503:4622   */\n    tag_480:\n        /* \"#utility.yul\":4661:4662   */\n      0x00\n        /* \"#utility.yul\":4686:4739   */\n      tag_482\n        /* \"#utility.yul\":4731:4738   */\n      dup6\n        /* \"#utility.yul\":4722:4728   */\n      dup3\n        /* \"#utility.yul\":4711:4720   */\n      dup7\n        /* \"#utility.yul\":4707:4729   */\n      add\n        /* \"#utility.yul\":4686:4739   */\n      tag_380\n      jump\t// in\n    tag_482:\n        /* \"#utility.yul\":4676:4739   */\n      swap3\n      pop\n        /* \"#utility.yul\":4632:4749   */\n      pop\n        /* \"#utility.yul\":4788:4790   */\n      0x20\n        /* \"#utility.yul\":4814:4867   */\n      tag_483\n        /* \"#utility.yul\":4859:4866   */\n      dup6\n        /* \"#utility.yul\":4850:4856   */\n      dup3\n        /* \"#utility.yul\":4839:4848   */\n      dup7\n        /* \"#utility.yul\":4835:4857   */\n      add\n        /* \"#utility.yul\":4814:4867   */\n      tag_365\n      jump\t// in\n    tag_483:\n        /* \"#utility.yul\":4804:4867   */\n      swap2\n      pop\n        /* \"#utility.yul\":4759:4877   */\n      pop\n        /* \"#utility.yul\":4410:4884   */\n      swap3\n      pop\n      swap3\n      swap1\n      pop\n      jump\t// out\n        /* \"#utility.yul\":4890:5007   */\n    tag_381:\n        /* \"#utility.yul\":4999:5000   */\n      0x00\n        /* \"#utility.yul\":4996:4997   */\n      dup1\n        /* \"#utility.yul\":4989:5001   */\n      revert\n        /* \"#utility.yul\":5013:5130   */\n    tag_382:\n        /* \"#utility.yul\":5122:5123   */\n      0x00\n        /* \"#utility.yul\":5119:5120   */\n      dup1\n        /* \"#utility.yul\":5112:5124   */\n      revert\n        /* \"#utility.yul\":5136:5253   */\n    tag_383:\n        /* \"#utility.yul\":5245:5246   */\n      0x00\n        /* \"#utility.yul\":5242:5243   */\n      dup1\n        /* \"#utility.yul\":5235:5247   */\n      revert\n        /* \"#utility.yul\":5273:5826   */\n    tag_384:\n        /* \"#utility.yul\":5331:5339   */\n      0x00\n        /* \"#utility.yul\":5341:5347   */\n      dup1\n        /* \"#utility.yul\":5391:5394   */\n      dup4\n        /* \"#utility.yul\":5384:5388   */\n      0x1f\n        /* \"#utility.yul\":5376:5382   */\n      dup5\n        /* \"#utility.yul\":5372:5389   */\n      add\n        /* \"#utility.yul\":5368:5395   */\n      slt\n        /* \"#utility.yul\":5358:5480   */\n      tag_488\n      jumpi\n        /* \"#utility.yul\":5399:5478   */\n      tag_489\n      tag_381\n      jump\t// in\n    tag_489:\n        /* \"#utility.yul\":5358:5480   */\n    tag_488:\n        /* \"#utility.yul\":5512:5518   */\n      dup3\n        /* \"#utility.yul\":5499:5519   */\n      calldataload\n        /* \"#utility.yul\":5489:5519   */\n      swap1\n      pop\n        /* \"#utility.yul\":5542:5560   */\n      0xffffffffffffffff\n        /* \"#utility.yul\":5534:5540   */\n      dup2\n        /* \"#utility.yul\":5531:5561   */\n      gt\n        /* \"#utility.yul\":5528:5645   */\n      iszero\n      tag_490\n      jumpi\n        /* \"#utility.yul\":5564:5643   */\n      tag_491\n      tag_382\n      jump\t// in\n    tag_491:\n        /* \"#utility.yul\":5528:5645   */\n    tag_490:\n        /* \"#utility.yul\":5678:5682   */\n      0x20\n        /* \"#utility.yul\":5670:5676   */\n      dup4\n        /* \"#utility.yul\":5666:5683   */\n      add\n        /* \"#utility.yul\":5654:5683   */\n      swap2\n      pop\n        /* \"#utility.yul\":5732:5735   */\n      dup4\n        /* \"#utility.yul\":5724:5728   */\n      0x01\n        /* \"#utility.yul\":5716:5722   */\n      dup3\n        /* \"#utility.yul\":5712:5729   */\n      mul\n        /* \"#utility.yul\":5702:5710   */\n      dup4\n        /* \"#utility.yul\":5698:5730   */\n      add\n        /* \"#utility.yul\":5695:5736   */\n      gt\n        /* \"#utility.yul\":5692:5820   */\n      iszero\n      tag_492\n      jumpi\n        /* \"#utility.yul\":5739:5818   */\n      tag_493\n      tag_383\n      jump\t// in\n    tag_493:\n        /* \"#utility.yul\":5692:5820   */\n    tag_492:\n        /* \"#utility.yul\":5273:5826   */\n      swap3\n      pop\n      swap3\n      swap1\n      pop\n      jump\t// out\n        /* \"#utility.yul\":5832:6506   */\n    tag_49:\n        /* \"#utility.yul\":5912:5918   */\n      0x00\n        /* \"#utility.yul\":5920:5926   */\n      dup1\n        /* \"#utility.yul\":5928:5934   */\n      0x00\n        /* \"#utility.yul\":5977:5979   */\n      0x40\n        /* \"#utility.yul\":5965:5974   */\n      dup5\n        /* \"#utility.yul\":5956:5963   */\n      dup7\n        /* \"#utility.yul\":5952:5975   */\n      sub\n        /* \"#utility.yul\":5948:5980   */\n      slt\n        /* \"#utility.yul\":5945:6064   */\n      iszero\n      tag_495\n      jumpi\n        /* \"#utility.yul\":5983:6062   */\n      tag_496\n      tag_361\n      jump\t// in\n    tag_496:\n        /* \"#utility.yul\":5945:6064   */\n    tag_495:\n        /* \"#utility.yul\":6103:6104   */\n      0x00\n        /* \"#utility.yul\":6128:6181   */\n      tag_497\n        /* \"#utility.yul\":6173:6180   */\n      dup7\n        /* \"#utility.yul\":6164:6170   */\n      dup3\n        /* \"#utility.yul\":6153:6162   */\n      dup8\n        /* \"#utility.yul\":6149:6171   */\n      add\n        /* \"#utility.yul\":6128:6181   */\n      tag_365\n      jump\t// in\n    tag_497:\n        /* \"#utility.yul\":6118:6181   */\n      swap4\n      pop\n        /* \"#utility.yul\":6074:6191   */\n      pop\n        /* \"#utility.yul\":6258:6260   */\n      0x20\n        /* \"#utility.yul\":6247:6256   */\n      dup5\n        /* \"#utility.yul\":6243:6261   */\n      add\n        /* \"#utility.yul\":6230:6262   */\n      calldataload\n        /* \"#utility.yul\":6289:6307   */\n      0xffffffffffffffff\n        /* \"#utility.yul\":6281:6287   */\n      dup2\n        /* \"#utility.yul\":6278:6308   */\n      gt\n        /* \"#utility.yul\":6275:6392   */\n      iszero\n      tag_498\n      jumpi\n        /* \"#utility.yul\":6311:6390   */\n      tag_499\n      tag_362\n      jump\t// in\n    tag_499:\n        /* \"#utility.yul\":6275:6392   */\n    tag_498:\n        /* \"#utility.yul\":6424:6489   */\n      tag_500\n        /* \"#utility.yul\":6481:6488   */\n      dup7\n        /* \"#utility.yul\":6472:6478   */\n      dup3\n        /* \"#utility.yul\":6461:6470   */\n      dup8\n        /* \"#utility.yul\":6457:6479   */\n      add\n        /* \"#utility.yul\":6424:6489   */\n      tag_384\n      jump\t// in\n    tag_500:\n        /* \"#utility.yul\":6406:6489   */\n      swap3\n      pop\n      swap3\n      pop\n        /* \"#utility.yul\":6201:6499   */\n      pop\n        /* \"#utility.yul\":5832:6506   */\n      swap3\n      pop\n      swap3\n      pop\n      swap3\n      jump\t// out\n        /* \"#utility.yul\":6512:7131   */\n    tag_53:\n        /* \"#utility.yul\":6589:6595   */\n      0x00\n        /* \"#utility.yul\":6597:6603   */\n      dup1\n        /* \"#utility.yul\":6605:6611   */\n      0x00\n        /* \"#utility.yul\":6654:6656   */\n      0x60\n        /* \"#utility.yul\":6642:6651   */\n      dup5\n        /* \"#utility.yul\":6633:6640   */\n      dup7\n        /* \"#utility.yul\":6629:6652   */\n      sub\n        /* \"#utility.yul\":6625:6657   */\n      slt\n        /* \"#utility.yul\":6622:6741   */\n      iszero\n      tag_502\n      jumpi\n        /* \"#utility.yul\":6660:6739   */\n      tag_503\n      tag_361\n      jump\t// in\n    tag_503:\n        /* \"#utility.yul\":6622:6741   */\n    tag_502:\n        /* \"#utility.yul\":6780:6781   */\n      0x00\n        /* \"#utility.yul\":6805:6858   */\n      tag_504\n        /* \"#utility.yul\":6850:6857   */\n      dup7\n        /* \"#utility.yul\":6841:6847   */\n      dup3\n        /* \"#utility.yul\":6830:6839   */\n      dup8\n        /* \"#utility.yul\":6826:6848   */\n      add\n        /* \"#utility.yul\":6805:6858   */\n      tag_380\n      jump\t// in\n    tag_504:\n        /* \"#utility.yul\":6795:6858   */\n      swap4\n      pop\n        /* \"#utility.yul\":6751:6868   */\n      pop\n        /* \"#utility.yul\":6907:6909   */\n      0x20\n        /* \"#utility.yul\":6933:6986   */\n      tag_505\n        /* \"#utility.yul\":6978:6985   */\n      dup7\n        /* \"#utility.yul\":6969:6975   */\n      dup3\n        /* \"#utility.yul\":6958:6967   */\n      dup8\n        /* \"#utility.yul\":6954:6976   */\n      add\n        /* \"#utility.yul\":6933:6986   */\n      tag_380\n      jump\t// in\n    tag_505:\n        /* \"#utility.yul\":6923:6986   */\n      swap3\n      pop\n        /* \"#utility.yul\":6878:6996   */\n      pop\n        /* \"#utility.yul\":7035:7037   */\n      0x40\n        /* \"#utility.yul\":7061:7114   */\n      tag_506\n        /* \"#utility.yul\":7106:7113   */\n      dup7\n        /* \"#utility.yul\":7097:7103   */\n      dup3\n        /* \"#utility.yul\":7086:7095   */\n      dup8\n        /* \"#utility.yul\":7082:7104   */\n      add\n        /* \"#utility.yul\":7061:7114   */\n      tag_365\n      jump\t// in\n    tag_506:\n        /* \"#utility.yul\":7051:7114   */\n      swap2\n      pop\n        /* \"#utility.yul\":7006:7124   */\n      pop\n        /* \"#utility.yul\":6512:7131   */\n      swap3\n      pop\n      swap3\n      pop\n      swap3\n      jump\t// out\n        /* \"#utility.yul\":7137:7466   */\n    tag_64:\n        /* \"#utility.yul\":7196:7202   */\n      0x00\n        /* \"#utility.yul\":7245:7247   */\n      0x20\n        /* \"#utility.yul\":7233:7242   */\n      dup3\n        /* \"#utility.yul\":7224:7231   */\n      dup5\n        /* \"#utility.yul\":7220:7243   */\n      sub\n        /* \"#utility.yul\":7216:7248   */\n      slt\n        /* \"#utility.yul\":7213:7332   */\n      iszero\n      tag_508\n      jumpi\n        /* \"#utility.yul\":7251:7330   */\n      tag_509\n      tag_361\n      jump\t// in\n    tag_509:\n        /* \"#utility.yul\":7213:7332   */\n    tag_508:\n        /* \"#utility.yul\":7371:7372   */\n      0x00\n        /* \"#utility.yul\":7396:7449   */\n      tag_510\n        /* \"#utility.yul\":7441:7448   */\n      dup5\n        /* \"#utility.yul\":7432:7438   */\n      dup3\n        /* \"#utility.yul\":7421:7430   */\n      dup6\n        /* \"#utility.yul\":7417:7439   */\n      add\n        /* \"#utility.yul\":7396:7449   */\n      tag_380\n      jump\t// in\n    tag_510:\n        /* \"#utility.yul\":7386:7449   */\n      swap2\n      pop\n        /* \"#utility.yul\":7342:7459   */\n      pop\n        /* \"#utility.yul\":7137:7466   */\n      swap3\n      swap2\n      pop\n      pop\n      jump\t// out\n        /* \"#utility.yul\":7472:7590   */\n    tag_385:\n        /* \"#utility.yul\":7559:7583   */\n      tag_512\n        /* \"#utility.yul\":7577:7582   */\n      dup2\n        /* \"#utility.yul\":7559:7583   */\n      tag_363\n      jump\t// in\n    tag_512:\n        /* \"#utility.yul\":7554:7557   */\n      dup3\n        /* \"#utility.yul\":7547:7584   */\n      mstore\n        /* \"#utility.yul\":7472:7590   */\n      pop\n      pop\n      jump\t// out\n        /* \"#utility.yul\":7596:7818   */\n    tag_67:\n        /* \"#utility.yul\":7689:7693   */\n      0x00\n        /* \"#utility.yul\":7727:7729   */\n      0x20\n        /* \"#utility.yul\":7716:7725   */\n      dup3\n        /* \"#utility.yul\":7712:7730   */\n      add\n        /* \"#utility.yul\":7704:7730   */\n      swap1\n      pop\n        /* \"#utility.yul\":7740:7811   */\n      tag_514\n        /* \"#utility.yul\":7808:7809   */\n      0x00\n        /* \"#utility.yul\":7797:7806   */\n      dup4\n        /* \"#utility.yul\":7793:7810   */\n      add\n        /* \"#utility.yul\":7784:7790   */\n      dup5\n        /* \"#utility.yul\":7740:7811   */\n      tag_385\n      jump\t// in\n    tag_514:\n        /* \"#utility.yul\":7596:7818   */\n      swap3\n      swap2\n      pop\n      pop\n      jump\t// out\n        /* \"#utility.yul\":7824:7940   */\n    tag_386:\n        /* \"#utility.yul\":7894:7915   */\n      tag_516\n        /* \"#utility.yul\":7909:7914   */\n      dup2\n        /* \"#utility.yul\":7894:7915   */\n      tag_369\n      jump\t// in\n    tag_516:\n        /* \"#utility.yul\":7887:7892   */\n      dup2\n        /* \"#utility.yul\":7884:7916   */\n      eq\n        /* \"#utility.yul\":7874:7934   */\n      tag_517\n      jumpi\n        /* \"#utility.yul\":7930:7931   */\n      0x00\n        /* \"#utility.yul\":7927:7928   */\n      dup1\n        /* \"#utility.yul\":7920:7932   */\n      revert\n        /* \"#utility.yul\":7874:7934   */\n    tag_517:\n        /* \"#utility.yul\":7824:7940   */\n      pop\n      jump\t// out\n        /* \"#utility.yul\":7946:8079   */\n    tag_387:\n        /* \"#utility.yul\":7989:7994   */\n      0x00\n        /* \"#utility.yul\":8027:8033   */\n      dup2\n        /* \"#utility.yul\":8014:8034   */\n      calldataload\n        /* \"#utility.yul\":8005:8034   */\n      swap1\n      pop\n        /* \"#utility.yul\":8043:8073   */\n      tag_519\n        /* \"#utility.yul\":8067:8072   */\n      dup2\n        /* \"#utility.yul\":8043:8073   */\n      tag_386\n      jump\t// in\n    tag_519:\n        /* \"#utility.yul\":7946:8079   */\n      swap3\n      swap2\n      pop\n      pop\n      jump\t// out\n        /* \"#utility.yul\":8085:8553   */\n    tag_73:\n        /* \"#utility.yul\":8150:8156   */\n      0x00\n        /* \"#utility.yul\":8158:8164   */\n      dup1\n        /* \"#utility.yul\":8207:8209   */\n      0x40\n        /* \"#utility.yul\":8195:8204   */\n      dup4\n        /* \"#utility.yul\":8186:8193   */\n      dup6\n        /* \"#utility.yul\":8182:8205   */\n      sub\n        /* \"#utility.yul\":8178:8210   */\n      slt\n        /* \"#utility.yul\":8175:8294   */\n      iszero\n      tag_521\n      jumpi\n        /* \"#utility.yul\":8213:8292   */\n      tag_522\n      tag_361\n      jump\t// in\n    tag_522:\n        /* \"#utility.yul\":8175:8294   */\n    tag_521:\n        /* \"#utility.yul\":8333:8334   */\n      0x00\n        /* \"#utility.yul\":8358:8411   */\n      tag_523\n        /* \"#utility.yul\":8403:8410   */\n      dup6\n        /* \"#utility.yul\":8394:8400   */\n      dup3\n        /* \"#utility.yul\":8383:8392   */\n      dup7\n        /* \"#utility.yul\":8379:8401   */\n      add\n        /* \"#utility.yul\":8358:8411   */\n      tag_380\n      jump\t// in\n    tag_523:\n        /* \"#utility.yul\":8348:8411   */\n      swap3\n      pop\n        /* \"#utility.yul\":8304:8421   */\n      pop\n        /* \"#utility.yul\":8460:8462   */\n      0x20\n        /* \"#utility.yul\":8486:8536   */\n      tag_524\n        /* \"#utility.yul\":8528:8535   */\n      dup6\n        /* \"#utility.yul\":8519:8525   */\n      dup3\n        /* \"#utility.yul\":8508:8517   */\n      dup7\n        /* \"#utility.yul\":8504:8526   */\n      add\n        /* \"#utility.yul\":8486:8536   */\n      tag_387\n      jump\t// in\n    tag_524:\n        /* \"#utility.yul\":8476:8536   */\n      swap2\n      pop\n        /* \"#utility.yul\":8431:8546   */\n      pop\n        /* \"#utility.yul\":8085:8553   */\n      swap3\n      pop\n      swap3\n      swap1\n      pop\n      jump\t// out\n        /* \"#utility.yul\":8559:8739   */\n    tag_104:\n        /* \"#utility.yul\":8607:8684   */\n      0x4e487b7100000000000000000000000000000000000000000000000000000000\n        /* \"#utility.yul\":8604:8605   */\n      0x00\n        /* \"#utility.yul\":8597:8685   */\n      mstore\n        /* \"#utility.yul\":8704:8708   */\n      0x21\n        /* \"#utility.yul\":8701:8702   */\n      0x04\n        /* \"#utility.yul\":8694:8709   */\n      mstore\n        /* \"#utility.yul\":8728:8732   */\n      0x24\n        /* \"#utility.yul\":8725:8726   */\n      0x00\n        /* \"#utility.yul\":8718:8733   */\n      revert\n        /* \"#utility.yul\":8745:8866   */\n    tag_388:\n        /* \"#utility.yul\":8834:8835   */\n      0x04\n        /* \"#utility.yul\":8827:8832   */\n      dup2\n        /* \"#utility.yul\":8824:8836   */\n      lt\n        /* \"#utility.yul\":8814:8860   */\n      tag_527\n      jumpi\n        /* \"#utility.yul\":8840:8858   */\n      tag_528\n      tag_104\n      jump\t// in\n    tag_528:\n        /* \"#utility.yul\":8814:8860   */\n    tag_527:\n        /* \"#utility.yul\":8745:8866   */\n      pop\n      jump\t// out\n        /* \"#utility.yul\":8872:9015   */\n    tag_389:\n        /* \"#utility.yul\":8925:8932   */\n      0x00\n        /* \"#utility.yul\":8954:8959   */\n      dup2\n        /* \"#utility.yul\":8943:8959   */\n      swap1\n      pop\n        /* \"#utility.yul\":8960:9009   */\n      tag_530\n        /* \"#utility.yul\":9003:9008   */\n      dup3\n        /* \"#utility.yul\":8960:9009   */\n      tag_388\n      jump\t// in\n    tag_530:\n        /* \"#utility.yul\":8872:9015   */\n      swap2\n      swap1\n      pop\n      jump\t// out\n        /* \"#utility.yul\":9021:9164   */\n    tag_390:\n        /* \"#utility.yul\":9085:9094   */\n      0x00\n        /* \"#utility.yul\":9118:9158   */\n      tag_532\n        /* \"#utility.yul\":9152:9157   */\n      dup3\n        /* \"#utility.yul\":9118:9158   */\n      tag_389\n      jump\t// in\n    tag_532:\n        /* \"#utility.yul\":9105:9158   */\n      swap1\n      pop\n        /* \"#utility.yul\":9021:9164   */\n      swap2\n      swap1\n      pop\n      jump\t// out\n        /* \"#utility.yul\":9170:9329   */\n    tag_391:\n        /* \"#utility.yul\":9271:9322   */\n      tag_534\n        /* \"#utility.yul\":9316:9321   */\n      dup2\n        /* \"#utility.yul\":9271:9322   */\n      tag_390\n      jump\t// in\n    tag_534:\n        /* \"#utility.yul\":9266:9269   */\n      dup3\n        /* \"#utility.yul\":9259:9323   */\n      mstore\n        /* \"#utility.yul\":9170:9329   */\n      pop\n      pop\n      jump\t// out\n        /* \"#utility.yul\":9335:9695   */\n    tag_79:\n        /* \"#utility.yul\":9470:9474   */\n      0x00\n        /* \"#utility.yul\":9508:9510   */\n      0x40\n        /* \"#utility.yul\":9497:9506   */\n      dup3\n        /* \"#utility.yul\":9493:9511   */\n      add\n        /* \"#utility.yul\":9485:9511   */\n      swap1\n      pop\n        /* \"#utility.yul\":9521:9606   */\n      tag_536\n        /* \"#utility.yul\":9603:9604   */\n      0x00\n        /* \"#utility.yul\":9592:9601   */\n      dup4\n        /* \"#utility.yul\":9588:9605   */\n      add\n        /* \"#utility.yul\":9579:9585   */\n      dup6\n        /* \"#utility.yul\":9521:9606   */\n      tag_391\n      jump\t// in\n    tag_536:\n        /* \"#utility.yul\":9616:9688   */\n      tag_537\n        /* \"#utility.yul\":9684:9686   */\n      0x20\n        /* \"#utility.yul\":9673:9682   */\n      dup4\n        /* \"#utility.yul\":9669:9687   */\n      add\n        /* \"#utility.yul\":9660:9666   */\n      dup5\n        /* \"#utility.yul\":9616:9688   */\n      tag_385\n      jump\t// in\n    tag_537:\n        /* \"#utility.yul\":9335:9695   */\n      swap4\n      swap3\n      pop\n      pop\n      pop\n      jump\t// out\n        /* \"#utility.yul\":9701:9818   */\n    tag_392:\n        /* \"#utility.yul\":9810:9811   */\n      0x00\n        /* \"#utility.yul\":9807:9808   */\n      dup1\n        /* \"#utility.yul\":9800:9812   */\n      revert\n        /* \"#utility.yul\":9824:10004   */\n    tag_393:\n        /* \"#utility.yul\":9872:9949   */\n      0x4e487b7100000000000000000000000000000000000000000000000000000000\n        /* \"#utility.yul\":9869:9870   */\n      0x00\n        /* \"#utility.yul\":9862:9950   */\n      mstore\n        /* \"#utility.yul\":9969:9973   */\n      0x41\n        /* \"#utility.yul\":9966:9967   */\n      0x04\n        /* \"#utility.yul\":9959:9974   */\n      mstore\n        /* \"#utility.yul\":9993:9997   */\n      0x24\n        /* \"#utility.yul\":9990:9991   */\n      0x00\n        /* \"#utility.yul\":9983:9998   */\n      revert\n        /* \"#utility.yul\":10010:10291   */\n    tag_394:\n        /* \"#utility.yul\":10093:10120   */\n      tag_541\n        /* \"#utility.yul\":10115:10119   */\n      dup3\n        /* \"#utility.yul\":10093:10120   */\n      tag_374\n      jump\t// in\n    tag_541:\n        /* \"#utility.yul\":10085:10091   */\n      dup2\n        /* \"#utility.yul\":10081:10121   */\n      add\n        /* \"#utility.yul\":10223:10229   */\n      dup2\n        /* \"#utility.yul\":10211:10221   */\n      dup2\n        /* \"#utility.yul\":10208:10230   */\n      lt\n        /* \"#utility.yul\":10187:10205   */\n      0xffffffffffffffff\n        /* \"#utility.yul\":10175:10185   */\n      dup3\n        /* \"#utility.yul\":10172:10206   */\n      gt\n        /* \"#utility.yul\":10169:10231   */\n      or\n        /* \"#utility.yul\":10166:10254   */\n      iszero\n      tag_542\n      jumpi\n        /* \"#utility.yul\":10234:10252   */\n      tag_543\n      tag_393\n      jump\t// in\n    tag_543:\n        /* \"#utility.yul\":10166:10254   */\n    tag_542:\n        /* \"#utility.yul\":10274:10284   */\n      dup1\n        /* \"#utility.yul\":10270:10272   */\n      0x40\n        /* \"#utility.yul\":10263:10285   */\n      mstore\n        /* \"#utility.yul\":10053:10291   */\n      pop\n        /* \"#utility.yul\":10010:10291   */\n      pop\n      pop\n      jump\t// out\n        /* \"#utility.yul\":10297:10426   */\n    tag_395:\n        /* \"#utility.yul\":10331:10337   */\n      0x00\n        /* \"#utility.yul\":10358:10378   */\n      tag_545\n      tag_360\n      jump\t// in\n    tag_545:\n        /* \"#utility.yul\":10348:10378   */\n      swap1\n      pop\n        /* \"#utility.yul\":10387:10420   */\n      tag_546\n        /* \"#utility.yul\":10415:10419   */\n      dup3\n        /* \"#utility.yul\":10407:10413   */\n      dup3\n        /* \"#utility.yul\":10387:10420   */\n      tag_394\n      jump\t// in\n    tag_546:\n        /* \"#utility.yul\":10297:10426   */\n      swap2\n      swap1\n      pop\n      jump\t// out\n        /* \"#utility.yul\":10432:10739   */\n    tag_396:\n        /* \"#utility.yul\":10493:10497   */\n      0x00\n        /* \"#utility.yul\":10583:10601   */\n      0xffffffffffffffff\n        /* \"#utility.yul\":10575:10581   */\n      dup3\n        /* \"#utility.yul\":10572:10602   */\n      gt\n        /* \"#utility.yul\":10569:10625   */\n      iszero\n      tag_548\n      jumpi\n        /* \"#utility.yul\":10605:10623   */\n      tag_549\n      tag_393\n      jump\t// in\n    tag_549:\n        /* \"#utility.yul\":10569:10625   */\n    tag_548:\n        /* \"#utility.yul\":10643:10672   */\n      tag_550\n        /* \"#utility.yul\":10665:10671   */\n      dup3\n        /* \"#utility.yul\":10643:10672   */\n      tag_374\n      jump\t// in\n    tag_550:\n        /* \"#utility.yul\":10635:10672   */\n      swap1\n      pop\n        /* \"#utility.yul\":10727:10731   */\n      0x20\n        /* \"#utility.yul\":10721:10725   */\n      dup2\n        /* \"#utility.yul\":10717:10732   */\n      add\n        /* \"#utility.yul\":10709:10732   */\n      swap1\n      pop\n        /* \"#utility.yul\":10432:10739   */\n      swap2\n      swap1\n      pop\n      jump\t// out\n        /* \"#utility.yul\":10745:10891   */\n    tag_397:\n        /* \"#utility.yul\":10842:10848   */\n      dup3\n        /* \"#utility.yul\":10837:10840   */\n      dup2\n        /* \"#utility.yul\":10832:10835   */\n      dup4\n        /* \"#utility.yul\":10819:10849   */\n      calldatacopy\n        /* \"#utility.yul\":10883:10884   */\n      0x00\n        /* \"#utility.yul\":10874:10880   */\n      dup4\n        /* \"#utility.yul\":10869:10872   */\n      dup4\n        /* \"#utility.yul\":10865:10881   */\n      add\n        /* \"#utility.yul\":10858:10885   */\n      mstore\n        /* \"#utility.yul\":10745:10891   */\n      pop\n      pop\n      pop\n      jump\t// out\n        /* \"#utility.yul\":10897:11320   */\n    tag_398:\n        /* \"#utility.yul\":10974:10979   */\n      0x00\n        /* \"#utility.yul\":10999:11064   */\n      tag_553\n        /* \"#utility.yul\":11015:11063   */\n      tag_554\n        /* \"#utility.yul\":11056:11062   */\n      dup5\n        /* \"#utility.yul\":11015:11063   */\n      tag_396\n      jump\t// in\n    tag_554:\n        /* \"#utility.yul\":10999:11064   */\n      tag_395\n      jump\t// in\n    tag_553:\n        /* \"#utility.yul\":10990:11064   */\n      swap1\n      pop\n        /* \"#utility.yul\":11087:11093   */\n      dup3\n        /* \"#utility.yul\":11080:11085   */\n      dup2\n        /* \"#utility.yul\":11073:11094   */\n      mstore\n        /* \"#utility.yul\":11125:11129   */\n      0x20\n        /* \"#utility.yul\":11118:11123   */\n      dup2\n        /* \"#utility.yul\":11114:11130   */\n      add\n        /* \"#utility.yul\":11163:11166   */\n      dup5\n        /* \"#utility.yul\":11154:11160   */\n      dup5\n        /* \"#utility.yul\":11149:11152   */\n      dup5\n        /* \"#utility.yul\":11145:11161   */\n      add\n        /* \"#utility.yul\":11142:11167   */\n      gt\n        /* \"#utility.yul\":11139:11251   */\n      iszero\n      tag_555\n      jumpi\n        /* \"#utility.yul\":11170:11249   */\n      tag_556\n      tag_392\n      jump\t// in\n    tag_556:\n        /* \"#utility.yul\":11139:11251   */\n    tag_555:\n        /* \"#utility.yul\":11260:11314   */\n      tag_557\n        /* \"#utility.yul\":11307:11313   */\n      dup5\n        /* \"#utility.yul\":11302:11305   */\n      dup3\n        /* \"#utility.yul\":11297:11300   */\n      dup6\n        /* \"#utility.yul\":11260:11314   */\n      tag_397\n      jump\t// in\n    tag_557:\n        /* \"#utility.yul\":10980:11320   */\n      pop\n        /* \"#utility.yul\":10897:11320   */\n      swap4\n      swap3\n      pop\n      pop\n      pop\n      jump\t// out\n        /* \"#utility.yul\":11339:11677   */\n    tag_399:\n        /* \"#utility.yul\":11394:11399   */\n      0x00\n        /* \"#utility.yul\":11443:11446   */\n      dup3\n        /* \"#utility.yul\":11436:11440   */\n      0x1f\n        /* \"#utility.yul\":11428:11434   */\n      dup4\n        /* \"#utility.yul\":11424:11441   */\n      add\n        /* \"#utility.yul\":11420:11447   */\n      slt\n        /* \"#utility.yul\":11410:11532   */\n      tag_559\n      jumpi\n        /* \"#utility.yul\":11451:11530   */\n      tag_560\n      tag_381\n      jump\t// in\n    tag_560:\n        /* \"#utility.yul\":11410:11532   */\n    tag_559:\n        /* \"#utility.yul\":11568:11574   */\n      dup2\n        /* \"#utility.yul\":11555:11575   */\n      calldataload\n        /* \"#utility.yul\":11593:11671   */\n      tag_561\n        /* \"#utility.yul\":11667:11670   */\n      dup5\n        /* \"#utility.yul\":11659:11665   */\n      dup3\n        /* \"#utility.yul\":11652:11656   */\n      0x20\n        /* \"#utility.yul\":11644:11650   */\n      dup7\n        /* \"#utility.yul\":11640:11657   */\n      add\n        /* \"#utility.yul\":11593:11671   */\n      tag_398\n      jump\t// in\n    tag_561:\n        /* \"#utility.yul\":11584:11671   */\n      swap2\n      pop\n        /* \"#utility.yul\":11400:11677   */\n      pop\n        /* \"#utility.yul\":11339:11677   */\n      swap3\n      swap2\n      pop\n      pop\n      jump\t// out\n        /* \"#utility.yul\":11683:12626   */\n    tag_82:\n        /* \"#utility.yul\":11778:11784   */\n      0x00\n        /* \"#utility.yul\":11786:11792   */\n      dup1\n        /* \"#utility.yul\":11794:11800   */\n      0x00\n        /* \"#utility.yul\":11802:11808   */\n      dup1\n        /* \"#utility.yul\":11851:11854   */\n      0x80\n        /* \"#utility.yul\":11839:11848   */\n      dup6\n        /* \"#utility.yul\":11830:11837   */\n      dup8\n        /* \"#utility.yul\":11826:11849   */\n      sub\n        /* \"#utility.yul\":11822:11855   */\n      slt\n        /* \"#utility.yul\":11819:11939   */\n      iszero\n      tag_563\n      jumpi\n        /* \"#utility.yul\":11858:11937   */\n      tag_564\n      tag_361\n      jump\t// in\n    tag_564:\n        /* \"#utility.yul\":11819:11939   */\n    tag_563:\n        /* \"#utility.yul\":11978:11979   */\n      0x00\n        /* \"#utility.yul\":12003:12056   */\n      tag_565\n        /* \"#utility.yul\":12048:12055   */\n      dup8\n        /* \"#utility.yul\":12039:12045   */\n      dup3\n        /* \"#utility.yul\":12028:12037   */\n      dup9\n        /* \"#utility.yul\":12024:12046   */\n      add\n        /* \"#utility.yul\":12003:12056   */\n      tag_380\n      jump\t// in\n    tag_565:\n        /* \"#utility.yul\":11993:12056   */\n      swap5\n      pop\n        /* \"#utility.yul\":11949:12066   */\n      pop\n        /* \"#utility.yul\":12105:12107   */\n      0x20\n        /* \"#utility.yul\":12131:12184   */\n      tag_566\n        /* \"#utility.yul\":12176:12183   */\n      dup8\n        /* \"#utility.yul\":12167:12173   */\n      dup3\n        /* \"#utility.yul\":12156:12165   */\n      dup9\n        /* \"#utility.yul\":12152:12174   */\n      add\n        /* \"#utility.yul\":12131:12184   */\n      tag_380\n      jump\t// in\n    tag_566:\n        /* \"#utility.yul\":12121:12184   */\n      swap4\n      pop\n        /* \"#utility.yul\":12076:12194   */\n      pop\n        /* \"#utility.yul\":12233:12235   */\n      0x40\n        /* \"#utility.yul\":12259:12312   */\n      tag_567\n        /* \"#utility.yul\":12304:12311   */\n      dup8\n        /* \"#utility.yul\":12295:12301   */\n      dup3\n        /* \"#utility.yul\":12284:12293   */\n      dup9\n        /* \"#utility.yul\":12280:12302   */\n      add\n        /* \"#utility.yul\":12259:12312   */\n      tag_365\n      jump\t// in\n    tag_567:\n        /* \"#utility.yul\":12249:12312   */\n      swap3\n      pop\n        /* \"#utility.yul\":12204:12322   */\n      pop\n        /* \"#utility.yul\":12389:12391   */\n      0x60\n        /* \"#utility.yul\":12378:12387   */\n      dup6\n        /* \"#utility.yul\":12374:12392   */\n      add\n        /* \"#utility.yul\":12361:12393   */\n      calldataload\n        /* \"#utility.yul\":12420:12438   */\n      0xffffffffffffffff\n        /* \"#utility.yul\":12412:12418   */\n      dup2\n        /* \"#utility.yul\":12409:12439   */\n      gt\n        /* \"#utility.yul\":12406:12523   */\n      iszero\n      tag_568\n      jumpi\n        /* \"#utility.yul\":12442:12521   */\n      tag_569\n      tag_362\n      jump\t// in\n    tag_569:\n        /* \"#utility.yul\":12406:12523   */\n    tag_568:\n        /* \"#utility.yul\":12547:12609   */\n      tag_570\n        /* \"#utility.yul\":12601:12608   */\n      dup8\n        /* \"#utility.yul\":12592:12598   */\n      dup3\n        /* \"#utility.yul\":12581:12590   */\n      dup9\n        /* \"#utility.yul\":12577:12599   */\n      add\n        /* \"#utility.yul\":12547:12609   */\n      tag_399\n      jump\t// in\n    tag_570:\n        /* \"#utility.yul\":12537:12609   */\n      swap2\n      pop\n        /* \"#utility.yul\":12332:12619   */\n      pop\n        /* \"#utility.yul\":11683:12626   */\n      swap3\n      swap6\n      swap2\n      swap5\n      pop\n      swap3\n      pop\n      jump\t// out\n        /* \"#utility.yul\":12632:13074   */\n    tag_92:\n        /* \"#utility.yul\":12781:12785   */\n      0x00\n        /* \"#utility.yul\":12819:12821   */\n      0x60\n        /* \"#utility.yul\":12808:12817   */\n      dup3\n        /* \"#utility.yul\":12804:12822   */\n      add\n        /* \"#utility.yul\":12796:12822   */\n      swap1\n      pop\n        /* \"#utility.yul\":12832:12903   */\n      tag_572\n        /* \"#utility.yul\":12900:12901   */\n      0x00\n        /* \"#utility.yul\":12889:12898   */\n      dup4\n        /* \"#utility.yul\":12885:12902   */\n      add\n        /* \"#utility.yul\":12876:12882   */\n      dup7\n        /* \"#utility.yul\":12832:12903   */\n      tag_385\n      jump\t// in\n    tag_572:\n        /* \"#utility.yul\":12913:12985   */\n      tag_573\n        /* \"#utility.yul\":12981:12983   */\n      0x20\n        /* \"#utility.yul\":12970:12979   */\n      dup4\n        /* \"#utility.yul\":12966:12984   */\n      add\n        /* \"#utility.yul\":12957:12963   */\n      dup6\n        /* \"#utility.yul\":12913:12985   */\n      tag_385\n      jump\t// in\n    tag_573:\n        /* \"#utility.yul\":12995:13067   */\n      tag_574\n        /* \"#utility.yul\":13063:13065   */\n      0x40\n        /* \"#utility.yul\":13052:13061   */\n      dup4\n        /* \"#utility.yul\":13048:13066   */\n      add\n        /* \"#utility.yul\":13039:13045   */\n      dup5\n        /* \"#utility.yul\":12995:13067   */\n      tag_385\n      jump\t// in\n    tag_574:\n        /* \"#utility.yul\":12632:13074   */\n      swap5\n      swap4\n      pop\n      pop\n      pop\n      pop\n      jump\t// out\n        /* \"#utility.yul\":13080:13554   */\n    tag_95:\n        /* \"#utility.yul\":13148:13154   */\n      0x00\n        /* \"#utility.yul\":13156:13162   */\n      dup1\n        /* \"#utility.yul\":13205:13207   */\n      0x40\n        /* \"#utility.yul\":13193:13202   */\n      dup4\n        /* \"#utility.yul\":13184:13191   */\n      dup6\n        /* \"#utility.yul\":13180:13203   */\n      sub\n        /* \"#utility.yul\":13176:13208   */\n      slt\n        /* \"#utility.yul\":13173:13292   */\n      iszero\n      tag_576\n      jumpi\n        /* \"#utility.yul\":13211:13290   */\n      tag_577\n      tag_361\n      jump\t// in\n    tag_577:\n        /* \"#utility.yul\":13173:13292   */\n    tag_576:\n        /* \"#utility.yul\":13331:13332   */\n      0x00\n        /* \"#utility.yul\":13356:13409   */\n      tag_578\n        /* \"#utility.yul\":13401:13408   */\n      dup6\n        /* \"#utility.yul\":13392:13398   */\n      dup3\n        /* \"#utility.yul\":13381:13390   */\n      dup7\n        /* \"#utility.yul\":13377:13399   */\n      add\n        /* \"#utility.yul\":13356:13409   */\n      tag_380\n      jump\t// in\n    tag_578:\n        /* \"#utility.yul\":13346:13409   */\n      swap3\n      pop\n        /* \"#utility.yul\":13302:13419   */\n      pop\n        /* \"#utility.yul\":13458:13460   */\n      0x20\n        /* \"#utility.yul\":13484:13537   */\n      tag_579\n        /* \"#utility.yul\":13529:13536   */\n      dup6\n        /* \"#utility.yul\":13520:13526   */\n      dup3\n        /* \"#utility.yul\":13509:13518   */\n      dup7\n        /* \"#utility.yul\":13505:13527   */\n      add\n        /* \"#utility.yul\":13484:13537   */\n      tag_380\n      jump\t// in\n    tag_579:\n        /* \"#utility.yul\":13474:13537   */\n      swap2\n      pop\n        /* \"#utility.yul\":13429:13547   */\n      pop\n        /* \"#utility.yul\":13080:13554   */\n      swap3\n      pop\n      swap3\n      swap1\n      pop\n      jump\t// out\n        /* \"#utility.yul\":13560:13732   */\n    tag_400:\n        /* \"#utility.yul\":13700:13724   */\n      0x746f6b656e20697320616c7265616479206164756c7400000000000000000000\n        /* \"#utility.yul\":13696:13697   */\n      0x00\n        /* \"#utility.yul\":13688:13694   */\n      dup3\n        /* \"#utility.yul\":13684:13698   */\n      add\n        /* \"#utility.yul\":13677:13725   */\n      mstore\n        /* \"#utility.yul\":13560:13732   */\n      pop\n      jump\t// out\n        /* \"#utility.yul\":13738:14104   */\n    tag_401:\n        /* \"#utility.yul\":13880:13883   */\n      0x00\n        /* \"#utility.yul\":13901:13968   */\n      tag_582\n        /* \"#utility.yul\":13965:13967   */\n      0x16\n        /* \"#utility.yul\":13960:13963   */\n      dup4\n        /* \"#utility.yul\":13901:13968   */\n      tag_372\n      jump\t// in\n    tag_582:\n        /* \"#utility.yul\":13894:13968   */\n      swap2\n      pop\n        /* \"#utility.yul\":13977:14070   */\n      tag_583\n        /* \"#utility.yul\":14066:14069   */\n      dup3\n        /* \"#utility.yul\":13977:14070   */\n      tag_400\n      jump\t// in\n    tag_583:\n        /* \"#utility.yul\":14095:14097   */\n      0x20\n        /* \"#utility.yul\":14090:14093   */\n      dup3\n        /* \"#utility.yul\":14086:14098   */\n      add\n        /* \"#utility.yul\":14079:14098   */\n      swap1\n      pop\n        /* \"#utility.yul\":13738:14104   */\n      swap2\n      swap1\n      pop\n      jump\t// out\n        /* \"#utility.yul\":14110:14529   */\n    tag_109:\n        /* \"#utility.yul\":14276:14280   */\n      0x00\n        /* \"#utility.yul\":14314:14316   */\n      0x20\n        /* \"#utility.yul\":14303:14312   */\n      dup3\n        /* \"#utility.yul\":14299:14317   */\n      add\n        /* \"#utility.yul\":14291:14317   */\n      swap1\n      pop\n        /* \"#utility.yul\":14363:14372   */\n      dup2\n        /* \"#utility.yul\":14357:14361   */\n      dup2\n        /* \"#utility.yul\":14353:14373   */\n      sub\n        /* \"#utility.yul\":14349:14350   */\n      0x00\n        /* \"#utility.yul\":14338:14347   */\n      dup4\n        /* \"#utility.yul\":14334:14351   */\n      add\n        /* \"#utility.yul\":14327:14374   */\n      mstore\n        /* \"#utility.yul\":14391:14522   */\n      tag_585\n        /* \"#utility.yul\":14517:14521   */\n      dup2\n        /* \"#utility.yul\":14391:14522   */\n      tag_401\n      jump\t// in\n    tag_585:\n        /* \"#utility.yul\":14383:14522   */\n      swap1\n      pop\n        /* \"#utility.yul\":14110:14529   */\n      swap2\n      swap1\n      pop\n      jump\t// out\n        /* \"#utility.yul\":14535:14715   */\n    tag_402:\n        /* \"#utility.yul\":14583:14660   */\n      0x4e487b7100000000000000000000000000000000000000000000000000000000\n        /* \"#utility.yul\":14580:14581   */\n      0x00\n        /* \"#utility.yul\":14573:14661   */\n      mstore\n        /* \"#utility.yul\":14680:14684   */\n      0x11\n        /* \"#utility.yul\":14677:14678   */\n      0x04\n        /* \"#utility.yul\":14670:14685   */\n      mstore\n        /* \"#utility.yul\":14704:14708   */\n      0x24\n        /* \"#utility.yul\":14701:14702   */\n      0x00\n        /* \"#utility.yul\":14694:14709   */\n      revert\n        /* \"#utility.yul\":14721:14915   */\n    tag_117:\n        /* \"#utility.yul\":14761:14765   */\n      0x00\n        /* \"#utility.yul\":14781:14801   */\n      tag_588\n        /* \"#utility.yul\":14799:14800   */\n      dup3\n        /* \"#utility.yul\":14781:14801   */\n      tag_363\n      jump\t// in\n    tag_588:\n        /* \"#utility.yul\":14776:14801   */\n      swap2\n      pop\n        /* \"#utility.yul\":14815:14835   */\n      tag_589\n        /* \"#utility.yul\":14833:14834   */\n      dup4\n        /* \"#utility.yul\":14815:14835   */\n      tag_363\n      jump\t// in\n    tag_589:\n        /* \"#utility.yul\":14810:14835   */\n      swap3\n      pop\n        /* \"#utility.yul\":14859:14860   */\n      dup3\n        /* \"#utility.yul\":14856:14857   */\n      dup3\n        /* \"#utility.yul\":14852:14861   */\n      sub\n        /* \"#utility.yul\":14844:14861   */\n      swap1\n      pop\n        /* \"#utility.yul\":14883:14884   */\n      dup2\n        /* \"#utility.yul\":14877:14881   */\n      dup2\n        /* \"#utility.yul\":14874:14885   */\n      gt\n        /* \"#utility.yul\":14871:14908   */\n      iszero\n      tag_590\n      jumpi\n        /* \"#utility.yul\":14888:14906   */\n      tag_591\n      tag_402\n      jump\t// in\n    tag_591:\n        /* \"#utility.yul\":14871:14908   */\n    tag_590:\n        /* \"#utility.yul\":14721:14915   */\n      swap3\n      swap2\n      pop\n      pop\n      jump\t// out\n        /* \"#utility.yul\":14921:15101   */\n    tag_403:\n        /* \"#utility.yul\":14969:15046   */\n      0x4e487b7100000000000000000000000000000000000000000000000000000000\n        /* \"#utility.yul\":14966:14967   */\n      0x00\n        /* \"#utility.yul\":14959:15047   */\n      mstore\n        /* \"#utility.yul\":15066:15070   */\n      0x22\n        /* \"#utility.yul\":15063:15064   */\n      0x04\n        /* \"#utility.yul\":15056:15071   */\n      mstore\n        /* \"#utility.yul\":15090:15094   */\n      0x24\n        /* \"#utility.yul\":15087:15088   */\n      0x00\n        /* \"#utility.yul\":15080:15095   */\n      revert\n        /* \"#utility.yul\":15107:15427   */\n    tag_142:\n        /* \"#utility.yul\":15151:15157   */\n      0x00\n        /* \"#utility.yul\":15188:15189   */\n      0x02\n        /* \"#utility.yul\":15182:15186   */\n      dup3\n        /* \"#utility.yul\":15178:15190   */\n      div\n        /* \"#utility.yul\":15168:15190   */\n      swap1\n      pop\n        /* \"#utility.yul\":15235:15236   */\n      0x01\n        /* \"#utility.yul\":15229:15233   */\n      dup3\n        /* \"#utility.yul\":15225:15237   */\n      and\n        /* \"#utility.yul\":15256:15274   */\n      dup1\n        /* \"#utility.yul\":15246:15327   */\n      tag_594\n      jumpi\n        /* \"#utility.yul\":15312:15316   */\n      0x7f\n        /* \"#utility.yul\":15304:15310   */\n      dup3\n        /* \"#utility.yul\":15300:15317   */\n      and\n        /* \"#utility.yul\":15290:15317   */\n      swap2\n      pop\n        /* \"#utility.yul\":15246:15327   */\n    tag_594:\n        /* \"#utility.yul\":15374:15376   */\n      0x20\n        /* \"#utility.yul\":15366:15372   */\n      dup3\n        /* \"#utility.yul\":15363:15377   */\n      lt\n        /* \"#utility.yul\":15343:15361   */\n      dup2\n        /* \"#utility.yul\":15340:15378   */\n      sub\n        /* \"#utility.yul\":15337:15421   */\n      tag_595\n      jumpi\n        /* \"#utility.yul\":15393:15411   */\n      tag_596\n      tag_403\n      jump\t// in\n    tag_596:\n        /* \"#utility.yul\":15337:15421   */\n    tag_595:\n        /* \"#utility.yul\":15158:15427   */\n      pop\n        /* \"#utility.yul\":15107:15427   */\n      swap2\n      swap1\n      pop\n      jump\t// out\n        /* \"#utility.yul\":15433:15530   */\n    tag_404:\n        /* \"#utility.yul\":15492:15498   */\n      0x00\n        /* \"#utility.yul\":15520:15523   */\n      dup3\n        /* \"#utility.yul\":15510:15523   */\n      swap1\n      pop\n        /* \"#utility.yul\":15433:15530   */\n      swap3\n      swap2\n      pop\n      pop\n      jump\t// out\n        /* \"#utility.yul\":15536:15677   */\n    tag_405:\n        /* \"#utility.yul\":15585:15589   */\n      0x00\n        /* \"#utility.yul\":15608:15611   */\n      dup2\n        /* \"#utility.yul\":15600:15611   */\n      swap1\n      pop\n        /* \"#utility.yul\":15631:15634   */\n      dup2\n        /* \"#utility.yul\":15628:15629   */\n      0x00\n        /* \"#utility.yul\":15621:15635   */\n      mstore\n        /* \"#utility.yul\":15665:15669   */\n      0x20\n        /* \"#utility.yul\":15662:15663   */\n      0x00\n        /* \"#utility.yul\":15652:15670   */\n      keccak256\n        /* \"#utility.yul\":15644:15670   */\n      swap1\n      pop\n        /* \"#utility.yul\":15536:15677   */\n      swap2\n      swap1\n      pop\n      jump\t// out\n        /* \"#utility.yul\":15683:15776   */\n    tag_406:\n        /* \"#utility.yul\":15720:15726   */\n      0x00\n        /* \"#utility.yul\":15767:15769   */\n      0x20\n        /* \"#utility.yul\":15762:15764   */\n      0x1f\n        /* \"#utility.yul\":15755:15760   */\n      dup4\n        /* \"#utility.yul\":15751:15765   */\n      add\n        /* \"#utility.yul\":15747:15770   */\n      div\n        /* \"#utility.yul\":15737:15770   */\n      swap1\n      pop\n        /* \"#utility.yul\":15683:15776   */\n      swap2\n      swap1\n      pop\n      jump\t// out\n        /* \"#utility.yul\":15782:15889   */\n    tag_407:\n        /* \"#utility.yul\":15826:15834   */\n      0x00\n        /* \"#utility.yul\":15876:15881   */\n      dup3\n        /* \"#utility.yul\":15870:15874   */\n      dup3\n        /* \"#utility.yul\":15866:15882   */\n      shl\n        /* \"#utility.yul\":15845:15882   */\n      swap1\n      pop\n        /* \"#utility.yul\":15782:15889   */\n      swap3\n      swap2\n      pop\n      pop\n      jump\t// out\n        /* \"#utility.yul\":15895:16288   */\n    tag_408:\n        /* \"#utility.yul\":15964:15970   */\n      0x00\n        /* \"#utility.yul\":16014:16015   */\n      0x08\n        /* \"#utility.yul\":16002:16012   */\n      dup4\n        /* \"#utility.yul\":15998:16016   */\n      mul\n        /* \"#utility.yul\":16037:16134   */\n      tag_602\n        /* \"#utility.yul\":16067:16133   */\n      0xffffffffffffffffffffffffffffffffffffffffffffffffffffffffffffffff\n        /* \"#utility.yul\":16056:16065   */\n      dup3\n        /* \"#utility.yul\":16037:16134   */\n      tag_407\n      jump\t// in\n    tag_602:\n        /* \"#utility.yul\":16155:16194   */\n      tag_603\n        /* \"#utility.yul\":16185:16193   */\n      dup7\n        /* \"#utility.yul\":16174:16183   */\n      dup4\n        /* \"#utility.yul\":16155:16194   */\n      tag_407\n      jump\t// in\n    tag_603:\n        /* \"#utility.yul\":16143:16194   */\n      swap6\n      pop\n        /* \"#utility.yul\":16227:16231   */\n      dup1\n        /* \"#utility.yul\":16223:16232   */\n      not\n        /* \"#utility.yul\":16216:16221   */\n      dup5\n        /* \"#utility.yul\":16212:16233   */\n      and\n        /* \"#utility.yul\":16203:16233   */\n      swap4\n      pop\n        /* \"#utility.yul\":16276:16280   */\n      dup1\n        /* \"#utility.yul\":16266:16274   */\n      dup7\n        /* \"#utility.yul\":16262:16281   */\n      and\n        /* \"#utility.yul\":16255:16260   */\n      dup5\n        /* \"#utility.yul\":16252:16282   */\n      or\n        /* \"#utility.yul\":16242:16282   */\n      swap3\n      pop\n        /* \"#utility.yul\":15971:16288   */\n      pop\n      pop\n        /* \"#utility.yul\":15895:16288   */\n      swap4\n      swap3\n      pop\n      pop\n      pop\n      jump\t// out\n        /* \"#utility.yul\":16294:16354   */\n    tag_409:\n        /* \"#utility.yul\":16322:16325   */\n      0x00\n        /* \"#utility.yul\":16343:16348   */\n      dup2\n        /* \"#utility.yul\":16336:16348   */\n      swap1\n      pop\n        /* \"#utility.yul\":16294:16354   */\n      swap2\n      swap1\n      pop\n      jump\t// out\n        /* \"#utility.yul\":16360:16502   */\n    tag_410:\n        /* \"#utility.yul\":16410:16419   */\n      0x00\n        /* \"#utility.yul\":16443:16496   */\n      tag_606\n        /* \"#utility.yul\":16461:16495   */\n      tag_607\n        /* \"#utility.yul\":16470:16494   */\n      tag_608\n        /* \"#utility.yul\":16488:16493   */\n      dup5\n        /* \"#utility.yul\":16470:16494   */\n      tag_363\n      jump\t// in\n    tag_608:\n        /* \"#utility.yul\":16461:16495   */\n      tag_409\n      jump\t// in\n    tag_607:\n        /* \"#utility.yul\":16443:16496   */\n      tag_363\n      jump\t// in\n    tag_606:\n        /* \"#utility.yul\":16430:16496   */\n      swap1\n      pop\n        /* \"#utility.yul\":16360:16502   */\n      swap2\n      swap1\n      pop\n      jump\t// out\n        /* \"#utility.yul\":16508:16583   */\n    tag_411:\n        /* \"#utility.yul\":16551:16554   */\n      0x00\n        /* \"#utility.yul\":16572:16577   */\n      dup2\n        /* \"#utility.yul\":16565:16577   */\n      swap1\n      pop\n        /* \"#utility.yul\":16508:16583   */\n      swap2\n      swap1\n      pop\n      jump\t// out\n        /* \"#utility.yul\":16589:16858   */\n    tag_412:\n        /* \"#utility.yul\":16699:16738   */\n      tag_611\n        /* \"#utility.yul\":16730:16737   */\n      dup4\n        /* \"#utility.yul\":16699:16738   */\n      tag_410\n      jump\t// in\n    tag_611:\n        /* \"#utility.yul\":16760:16851   */\n      tag_612\n        /* \"#utility.yul\":16809:16850   */\n      tag_613\n        /* \"#utility.yul\":16833:16849   */\n      dup3\n        /* \"#utility.yul\":16809:16850   */\n      tag_411\n      jump\t// in\n    tag_613:\n        /* \"#utility.yul\":16801:16807   */\n      dup5\n        /* \"#utility.yul\":16794:16798   */\n      dup5\n        /* \"#utility.yul\":16788:16799   */\n      sload\n        /* \"#utility.yul\":16760:16851   */\n      tag_408\n      jump\t// in\n    tag_612:\n        /* \"#utility.yul\":16754:16758   */\n      dup3\n        /* \"#utility.yul\":16747:16852   */\n      sstore\n        /* \"#utility.yul\":16665:16858   */\n      pop\n        /* \"#utility.yul\":16589:16858   */\n      pop\n      pop\n      pop\n      jump\t// out\n        /* \"#utility.yul\":16864:16937   */\n    tag_413:\n        /* \"#utility.yul\":16909:16912   */\n      0x00\n        /* \"#utility.yul\":16864:16937   */\n      swap1\n      jump\t// out\n        /* \"#utility.yul\":16943:17132   */\n    tag_414:\n        /* \"#utility.yul\":17020:17052   */\n      tag_616\n      tag_413\n      jump\t// in\n    tag_616:\n        /* \"#utility.yul\":17061:17126   */\n      tag_617\n        /* \"#utility.yul\":17119:17125   */\n      dup2\n        /* \"#utility.yul\":17111:17117   */\n      dup5\n        /* \"#utility.yul\":17105:17109   */\n      dup5\n        /* \"#utility.yul\":17061:17126   */\n      tag_412\n      jump\t// in\n    tag_617:\n        /* \"#utility.yul\":16996:17132   */\n      pop\n        /* \"#utility.yul\":16943:17132   */\n      pop\n      pop\n      jump\t// out\n        /* \"#utility.yul\":17138:17324   */\n    tag_415:\n        /* \"#utility.yul\":17198:17318   */\n    tag_619:\n        /* \"#utility.yul\":17215:17218   */\n      dup2\n        /* \"#utility.yul\":17208:17213   */\n      dup2\n        /* \"#utility.yul\":17205:17219   */\n      lt\n        /* \"#utility.yul\":17198:17318   */\n      iszero\n      tag_621\n      jumpi\n        /* \"#utility.yul\":17269:17308   */\n      tag_622\n        /* \"#utility.yul\":17306:17307   */\n      0x00\n        /* \"#utility.yul\":17299:17304   */\n      dup3\n        /* \"#utility.yul\":17269:17308   */\n      tag_414\n      jump\t// in\n    tag_622:\n        /* \"#utility.yul\":17242:17243   */\n      0x01\n        /* \"#utility.yul\":17235:17240   */\n      dup2\n        /* \"#utility.yul\":17231:17244   */\n      add\n        /* \"#utility.yul\":17222:17244   */\n      swap1\n      pop\n        /* \"#utility.yul\":17198:17318   */\n      jump(tag_619)\n    tag_621:\n        /* \"#utility.yul\":17138:17324   */\n      pop\n      pop\n      jump\t// out\n        /* \"#utility.yul\":17330:17873   */\n    tag_416:\n        /* \"#utility.yul\":17431:17433   */\n      0x1f\n        /* \"#utility.yul\":17426:17429   */\n      dup3\n        /* \"#utility.yul\":17423:17434   */\n      gt\n        /* \"#utility.yul\":17420:17866   */\n      iszero\n      tag_624\n      jumpi\n        /* \"#utility.yul\":17465:17503   */\n      tag_625\n        /* \"#utility.yul\":17497:17502   */\n      dup2\n        /* \"#utility.yul\":17465:17503   */\n      tag_405\n      jump\t// in\n    tag_625:\n        /* \"#utility.yul\":17549:17578   */\n      tag_626\n        /* \"#utility.yul\":17567:17577   */\n      dup5\n        /* \"#utility.yul\":17549:17578   */\n      tag_406\n      jump\t// in\n    tag_626:\n        /* \"#utility.yul\":17539:17547   */\n      dup2\n        /* \"#utility.yul\":17535:17579   */\n      add\n        /* \"#utility.yul\":17732:17734   */\n      0x20\n        /* \"#utility.yul\":17720:17730   */\n      dup6\n        /* \"#utility.yul\":17717:17735   */\n      lt\n        /* \"#utility.yul\":17714:17763   */\n      iszero\n      tag_627\n      jumpi\n        /* \"#utility.yul\":17753:17761   */\n      dup2\n        /* \"#utility.yul\":17738:17761   */\n      swap1\n      pop\n        /* \"#utility.yul\":17714:17763   */\n    tag_627:\n        /* \"#utility.yul\":17776:17856   */\n      tag_628\n        /* \"#utility.yul\":17832:17854   */\n      tag_629\n        /* \"#utility.yul\":17850:17853   */\n      dup6\n        /* \"#utility.yul\":17832:17854   */\n      tag_406\n      jump\t// in\n    tag_629:\n        /* \"#utility.yul\":17822:17830   */\n      dup4\n        /* \"#utility.yul\":17818:17855   */\n      add\n        /* \"#utility.yul\":17805:17816   */\n      dup3\n        /* \"#utility.yul\":17776:17856   */\n      tag_415\n      jump\t// in\n    tag_628:\n        /* \"#utility.yul\":17435:17866   */\n      pop\n      pop\n        /* \"#utility.yul\":17420:17866   */\n    tag_624:\n        /* \"#utility.yul\":17330:17873   */\n      pop\n      pop\n      pop\n      jump\t// out\n        /* \"#utility.yul\":17879:17996   */\n    tag_417:\n        /* \"#utility.yul\":17933:17941   */\n      0x00\n        /* \"#utility.yul\":17983:17988   */\n      dup3\n        /* \"#utility.yul\":17977:17981   */\n      dup3\n        /* \"#utility.yul\":17973:17989   */\n      shr\n        /* \"#utility.yul\":17952:17989   */\n      swap1\n      pop\n        /* \"#utility.yul\":17879:17996   */\n      swap3\n      swap2\n      pop\n      pop\n      jump\t// out\n        /* \"#utility.yul\":18002:18171   */\n    tag_418:\n        /* \"#utility.yul\":18046:18052   */\n      0x00\n        /* \"#utility.yul\":18079:18130   */\n      tag_632\n        /* \"#utility.yul\":18127:18128   */\n      0x00\n        /* \"#utility.yul\":18123:18129   */\n      not\n        /* \"#utility.yul\":18115:18120   */\n      dup5\n        /* \"#utility.yul\":18112:18113   */\n      0x08\n        /* \"#utility.yul\":18108:18121   */\n      mul\n        /* \"#utility.yul\":18079:18130   */\n      tag_417\n      jump\t// in\n    tag_632:\n        /* \"#utility.yul\":18075:18131   */\n      not\n        /* \"#utility.yul\":18160:18164   */\n      dup1\n        /* \"#utility.yul\":18154:18158   */\n      dup4\n        /* \"#utility.yul\":18150:18165   */\n      and\n        /* \"#utility.yul\":18140:18165   */\n      swap2\n      pop\n        /* \"#utility.yul\":18053:18171   */\n      pop\n        /* \"#utility.yul\":18002:18171   */\n      swap3\n      swap2\n      pop\n      pop\n      jump\t// out\n        /* \"#utility.yul\":18176:18471   */\n    tag_419:\n        /* \"#utility.yul\":18252:18256   */\n      0x00\n        /* \"#utility.yul\":18398:18427   */\n      tag_634\n        /* \"#utility.yul\":18423:18426   */\n      dup4\n        /* \"#utility.yul\":18417:18421   */\n      dup4\n        /* \"#utility.yul\":18398:18427   */\n      tag_418\n      jump\t// in\n    tag_634:\n        /* \"#utility.yul\":18390:18427   */\n      swap2\n      pop\n        /* \"#utility.yul\":18460:18463   */\n      dup3\n        /* \"#utility.yul\":18457:18458   */\n      0x02\n        /* \"#utility.yul\":18453:18464   */\n      mul\n        /* \"#utility.yul\":18447:18451   */\n      dup3\n        /* \"#utility.yul\":18444:18465   */\n      or\n        /* \"#utility.yul\":18436:18465   */\n      swap1\n      pop\n        /* \"#utility.yul\":18176:18471   */\n      swap3\n      swap2\n      pop\n      pop\n      jump\t// out\n        /* \"#utility.yul\":18476:19879   */\n    tag_159:\n        /* \"#utility.yul\":18600:18644   */\n      tag_636\n        /* \"#utility.yul\":18640:18643   */\n      dup4\n        /* \"#utility.yul\":18635:18638   */\n      dup4\n        /* \"#utility.yul\":18600:18644   */\n      tag_404\n      jump\t// in\n    tag_636:\n        /* \"#utility.yul\":18709:18727   */\n      0xffffffffffffffff\n        /* \"#utility.yul\":18701:18707   */\n      dup2\n        /* \"#utility.yul\":18698:18728   */\n      gt\n        /* \"#utility.yul\":18695:18751   */\n      iszero\n      tag_637\n      jumpi\n        /* \"#utility.yul\":18731:18749   */\n      tag_638\n      tag_393\n      jump\t// in\n    tag_638:\n        /* \"#utility.yul\":18695:18751   */\n    tag_637:\n        /* \"#utility.yul\":18775:18813   */\n      tag_639\n        /* \"#utility.yul\":18807:18811   */\n      dup3\n        /* \"#utility.yul\":18801:18812   */\n      sload\n        /* \"#utility.yul\":18775:18813   */\n      tag_142\n      jump\t// in\n    tag_639:\n        /* \"#utility.yul\":18860:18927   */\n      tag_640\n        /* \"#utility.yul\":18920:18926   */\n      dup3\n        /* \"#utility.yul\":18912:18918   */\n      dup3\n        /* \"#utility.yul\":18906:18910   */\n      dup6\n        /* \"#utility.yul\":18860:18927   */\n      tag_416\n      jump\t// in\n    tag_640:\n        /* \"#utility.yul\":18954:18955   */\n      0x00\n        /* \"#utility.yul\":18983:18985   */\n      0x1f\n        /* \"#utility.yul\":18975:18981   */\n      dup4\n        /* \"#utility.yul\":18972:18986   */\n      gt\n        /* \"#utility.yul\":19000:19001   */\n      0x01\n        /* \"#utility.yul\":18995:19627   */\n      dup2\n      eq\n      tag_642\n      jumpi\n        /* \"#utility.yul\":19671:19672   */\n      0x00\n        /* \"#utility.yul\":19688:19694   */\n      dup5\n        /* \"#utility.yul\":19685:19769   */\n      iszero\n      tag_643\n      jumpi\n        /* \"#utility.yul\":19744:19753   */\n      dup3\n        /* \"#utility.yul\":19739:19742   */\n      dup8\n        /* \"#utility.yul\":19735:19754   */\n      add\n        /* \"#utility.yul\":19722:19755   */\n      calldataload\n        /* \"#utility.yul\":19713:19755   */\n      swap1\n      pop\n        /* \"#utility.yul\":19685:19769   */\n    tag_643:\n        /* \"#utility.yul\":19795:19862   */\n      tag_644\n        /* \"#utility.yul\":19855:19861   */\n      dup6\n        /* \"#utility.yul\":19848:19853   */\n      dup3\n        /* \"#utility.yul\":19795:19862   */\n      tag_419\n      jump\t// in\n    tag_644:\n        /* \"#utility.yul\":19789:19793   */\n      dup7\n        /* \"#utility.yul\":19782:19863   */\n      sstore\n        /* \"#utility.yul\":19644:19873   */\n      pop\n        /* \"#utility.yul\":18965:19873   */\n      jump(tag_641)\n        /* \"#utility.yul\":18995:19627   */\n    tag_642:\n        /* \"#utility.yul\":19047:19051   */\n      0x1f\n        /* \"#utility.yul\":19043:19052   */\n      not\n        /* \"#utility.yul\":19035:19041   */\n      dup5\n        /* \"#utility.yul\":19031:19053   */\n      and\n        /* \"#utility.yul\":19081:19118   */\n      tag_645\n        /* \"#utility.yul\":19113:19117   */\n      dup7\n        /* \"#utility.yul\":19081:19118   */\n      tag_405\n      jump\t// in\n    tag_645:\n        /* \"#utility.yul\":19140:19141   */\n      0x00\n        /* \"#utility.yul\":19154:19369   */\n    tag_646:\n        /* \"#utility.yul\":19168:19175   */\n      dup3\n        /* \"#utility.yul\":19165:19166   */\n      dup2\n        /* \"#utility.yul\":19162:19176   */\n      lt\n        /* \"#utility.yul\":19154:19369   */\n      iszero\n      tag_648\n      jumpi\n        /* \"#utility.yul\":19254:19263   */\n      dup5\n        /* \"#utility.yul\":19249:19252   */\n      dup10\n        /* \"#utility.yul\":19245:19264   */\n      add\n        /* \"#utility.yul\":19232:19265   */\n      calldataload\n        /* \"#utility.yul\":19224:19230   */\n      dup3\n        /* \"#utility.yul\":19217:19266   */\n      sstore\n        /* \"#utility.yul\":19305:19306   */\n      0x01\n        /* \"#utility.yul\":19297:19303   */\n      dup3\n        /* \"#utility.yul\":19293:19307   */\n      add\n        /* \"#utility.yul\":19283:19307   */\n      swap2\n      pop\n        /* \"#utility.yul\":19352:19354   */\n      0x20\n        /* \"#utility.yul\":19341:19350   */\n      dup6\n        /* \"#utility.yul\":19337:19355   */\n      add\n        /* \"#utility.yul\":19324:19355   */\n      swap5\n      pop\n        /* \"#utility.yul\":19191:19195   */\n      0x20\n        /* \"#utility.yul\":19188:19189   */\n      dup2\n        /* \"#utility.yul\":19184:19196   */\n      add\n        /* \"#utility.yul\":19179:19196   */\n      swap1\n      pop\n        /* \"#utility.yul\":19154:19369   */\n      jump(tag_646)\n    tag_648:\n        /* \"#utility.yul\":19397:19403   */\n      dup7\n        /* \"#utility.yul\":19388:19395   */\n      dup4\n        /* \"#utility.yul\":19385:19404   */\n      lt\n        /* \"#utility.yul\":19382:19568   */\n      iszero\n      tag_649\n      jumpi\n        /* \"#utility.yul\":19462:19471   */\n      dup5\n        /* \"#utility.yul\":19457:19460   */\n      dup10\n        /* \"#utility.yul\":19453:19472   */\n      add\n        /* \"#utility.yul\":19440:19473   */\n      calldataload\n        /* \"#utility.yul\":19505:19553   */\n      tag_650\n        /* \"#utility.yul\":19547:19551   */\n      0x1f\n        /* \"#utility.yul\":19539:19545   */\n      dup10\n        /* \"#utility.yul\":19535:19552   */\n      and\n        /* \"#utility.yul\":19524:19533   */\n      dup3\n        /* \"#utility.yul\":19505:19553   */\n      tag_418\n      jump\t// in\n    tag_650:\n        /* \"#utility.yul\":19497:19503   */\n      dup4\n        /* \"#utility.yul\":19490:19554   */\n      sstore\n        /* \"#utility.yul\":19405:19568   */\n      pop\n        /* \"#utility.yul\":19382:19568   */\n    tag_649:\n        /* \"#utility.yul\":19614:19615   */\n      0x01\n        /* \"#utility.yul\":19610:19611   */\n      0x02\n        /* \"#utility.yul\":19602:19608   */\n      dup9\n        /* \"#utility.yul\":19598:19612   */\n      mul\n        /* \"#utility.yul\":19594:19616   */\n      add\n        /* \"#utility.yul\":19588:19592   */\n      dup9\n        /* \"#utility.yul\":19581:19617   */\n      sstore\n        /* \"#utility.yul\":19002:19627   */\n      pop\n      pop\n      pop\n        /* \"#utility.yul\":18965:19873   */\n    tag_641:\n      pop\n        /* \"#utility.yul\":18575:19879   */\n      pop\n      pop\n      pop\n        /* \"#utility.yul\":18476:19879   */\n      pop\n      pop\n      pop\n      jump\t// out\n        /* \"#utility.yul\":19885:20327   */\n    tag_168:\n        /* \"#utility.yul\":20034:20038   */\n      0x00\n        /* \"#utility.yul\":20072:20074   */\n      0x60\n        /* \"#utility.yul\":20061:20070   */\n      dup3\n        /* \"#utility.yul\":20057:20075   */\n      add\n        /* \"#utility.yul\":20049:20075   */\n      swap1\n      pop\n        /* \"#utility.yul\":20085:20156   */\n      tag_652\n        /* \"#utility.yul\":20153:20154   */\n      0x00\n        /* \"#utility.yul\":20142:20151   */\n      dup4\n        /* \"#utility.yul\":20138:20155   */\n      add\n        /* \"#utility.yul\":20129:20135   */\n      dup7\n        /* \"#utility.yul\":20085:20156   */\n      tag_378\n      jump\t// in\n    tag_652:\n        /* \"#utility.yul\":20166:20238   */\n      tag_653\n        /* \"#utility.yul\":20234:20236   */\n      0x20\n        /* \"#utility.yul\":20223:20232   */\n      dup4\n        /* \"#utility.yul\":20219:20237   */\n      add\n        /* \"#utility.yul\":20210:20216   */\n      dup6\n        /* \"#utility.yul\":20166:20238   */\n      tag_385\n      jump\t// in\n    tag_653:\n        /* \"#utility.yul\":20248:20320   */\n      tag_654\n        /* \"#utility.yul\":20316:20318   */\n      0x40\n        /* \"#utility.yul\":20305:20314   */\n      dup4\n        /* \"#utility.yul\":20301:20319   */\n      add\n        /* \"#utility.yul\":20292:20298   */\n      dup5\n        /* \"#utility.yul\":20248:20320   */\n      tag_378\n      jump\t// in\n    tag_654:\n        /* \"#utility.yul\":19885:20327   */\n      swap5\n      swap4\n      pop\n      pop\n      pop\n      pop\n      jump\t// out\n        /* \"#utility.yul\":20333:20524   */\n    tag_230:\n        /* \"#utility.yul\":20373:20376   */\n      0x00\n        /* \"#utility.yul\":20392:20412   */\n      tag_656\n        /* \"#utility.yul\":20410:20411   */\n      dup3\n        /* \"#utility.yul\":20392:20412   */\n      tag_363\n      jump\t// in\n    tag_656:\n        /* \"#utility.yul\":20387:20412   */\n      swap2\n      pop\n        /* \"#utility.yul\":20426:20446   */\n      tag_657\n        /* \"#utility.yul\":20444:20445   */\n      dup4\n        /* \"#utility.yul\":20426:20446   */\n      tag_363\n      jump\t// in\n    tag_657:\n        /* \"#utility.yul\":20421:20446   */\n      swap3\n      pop\n        /* \"#utility.yul\":20469:20470   */\n      dup3\n        /* \"#utility.yul\":20466:20467   */\n      dup3\n        /* \"#utility.yul\":20462:20471   */\n      add\n        /* \"#utility.yul\":20455:20471   */\n      swap1\n      pop\n        /* \"#utility.yul\":20490:20493   */\n      dup1\n        /* \"#utility.yul\":20487:20488   */\n      dup3\n        /* \"#utility.yul\":20484:20494   */\n      gt\n        /* \"#utility.yul\":20481:20517   */\n      iszero\n      tag_658\n      jumpi\n        /* \"#utility.yul\":20497:20515   */\n      tag_659\n      tag_402\n      jump\t// in\n    tag_659:\n        /* \"#utility.yul\":20481:20517   */\n    tag_658:\n        /* \"#utility.yul\":20333:20524   */\n      swap3\n      swap2\n      pop\n      pop\n      jump\t// out\n        /* \"#utility.yul\":20530:20628   */\n    tag_420:\n        /* \"#utility.yul\":20581:20587   */\n      0x00\n        /* \"#utility.yul\":20615:20620   */\n      dup2\n        /* \"#utility.yul\":20609:20621   */\n      mload\n        /* \"#utility.yul\":20599:20621   */\n      swap1\n      pop\n        /* \"#utility.yul\":20530:20628   */\n      swap2\n      swap1\n      pop\n      jump\t// out\n        /* \"#utility.yul\":20634:20802   */\n    tag_421:\n        /* \"#utility.yul\":20717:20728   */\n      0x00\n        /* \"#utility.yul\":20751:20757   */\n      dup3\n        /* \"#utility.yul\":20746:20749   */\n      dup3\n        /* \"#utility.yul\":20739:20758   */\n      mstore\n        /* \"#utility.yul\":20791:20795   */\n      0x20\n        /* \"#utility.yul\":20786:20789   */\n      dup3\n        /* \"#utility.yul\":20782:20796   */\n      add\n        /* \"#utility.yul\":20767:20796   */\n      swap1\n      pop\n        /* \"#utility.yul\":20634:20802   */\n      swap3\n      swap2\n      pop\n      pop\n      jump\t// out\n        /* \"#utility.yul\":20808:21181   */\n    tag_422:\n        /* \"#utility.yul\":20894:20897   */\n      0x00\n        /* \"#utility.yul\":20922:20960   */\n      tag_663\n        /* \"#utility.yul\":20954:20959   */\n      dup3\n        /* \"#utility.yul\":20922:20960   */\n      tag_420\n      jump\t// in\n    tag_663:\n        /* \"#utility.yul\":20976:21046   */\n      tag_664\n        /* \"#utility.yul\":21039:21045   */\n      dup2\n        /* \"#utility.yul\":21034:21037   */\n      dup6\n        /* \"#utility.yul\":20976:21046   */\n      tag_421\n      jump\t// in\n    tag_664:\n        /* \"#utility.yul\":20969:21046   */\n      swap4\n      pop\n        /* \"#utility.yul\":21055:21120   */\n      tag_665\n        /* \"#utility.yul\":21113:21119   */\n      dup2\n        /* \"#utility.yul\":21108:21111   */\n      dup6\n        /* \"#utility.yul\":21101:21105   */\n      0x20\n        /* \"#utility.yul\":21094:21099   */\n      dup7\n        /* \"#utility.yul\":21090:21106   */\n      add\n        /* \"#utility.yul\":21055:21120   */\n      tag_373\n      jump\t// in\n    tag_665:\n        /* \"#utility.yul\":21145:21174   */\n      tag_666\n        /* \"#utility.yul\":21167:21173   */\n      dup2\n        /* \"#utility.yul\":21145:21174   */\n      tag_374\n      jump\t// in\n    tag_666:\n        /* \"#utility.yul\":21140:21143   */\n      dup5\n        /* \"#utility.yul\":21136:21175   */\n      add\n        /* \"#utility.yul\":21129:21175   */\n      swap2\n      pop\n        /* \"#utility.yul\":20898:21181   */\n      pop\n        /* \"#utility.yul\":20808:21181   */\n      swap3\n      swap2\n      pop\n      pop\n      jump\t// out\n        /* \"#utility.yul\":21187:21827   */\n    tag_283:\n        /* \"#utility.yul\":21382:21386   */\n      0x00\n        /* \"#utility.yul\":21420:21423   */\n      0x80\n        /* \"#utility.yul\":21409:21418   */\n      dup3\n        /* \"#utility.yul\":21405:21424   */\n      add\n        /* \"#utility.yul\":21397:21424   */\n      swap1\n      pop\n        /* \"#utility.yul\":21434:21505   */\n      tag_668\n        /* \"#utility.yul\":21502:21503   */\n      0x00\n        /* \"#utility.yul\":21491:21500   */\n      dup4\n        /* \"#utility.yul\":21487:21504   */\n      add\n        /* \"#utility.yul\":21478:21484   */\n      dup8\n        /* \"#utility.yul\":21434:21505   */\n      tag_378\n      jump\t// in\n    tag_668:\n        /* \"#utility.yul\":21515:21587   */\n      tag_669\n        /* \"#utility.yul\":21583:21585   */\n      0x20\n        /* \"#utility.yul\":21572:21581   */\n      dup4\n        /* \"#utility.yul\":21568:21586   */\n      add\n        /* \"#utility.yul\":21559:21565   */\n      dup7\n        /* \"#utility.yul\":21515:21587   */\n      tag_378\n      jump\t// in\n    tag_669:\n        /* \"#utility.yul\":21597:21669   */\n      tag_670\n        /* \"#utility.yul\":21665:21667   */\n      0x40\n        /* \"#utility.yul\":21654:21663   */\n      dup4\n        /* \"#utility.yul\":21650:21668   */\n      add\n        /* \"#utility.yul\":21641:21647   */\n      dup6\n        /* \"#utility.yul\":21597:21669   */\n      tag_385\n      jump\t// in\n    tag_670:\n        /* \"#utility.yul\":21716:21725   */\n      dup2\n        /* \"#utility.yul\":21710:21714   */\n      dup2\n        /* \"#utility.yul\":21706:21726   */\n      sub\n        /* \"#utility.yul\":21701:21703   */\n      0x60\n        /* \"#utility.yul\":21690:21699   */\n      dup4\n        /* \"#utility.yul\":21686:21704   */\n      add\n        /* \"#utility.yul\":21679:21727   */\n      mstore\n        /* \"#utility.yul\":21744:21820   */\n      tag_671\n        /* \"#utility.yul\":21815:21819   */\n      dup2\n        /* \"#utility.yul\":21806:21812   */\n      dup5\n        /* \"#utility.yul\":21744:21820   */\n      tag_422\n      jump\t// in\n    tag_671:\n        /* \"#utility.yul\":21736:21820   */\n      swap1\n      pop\n        /* \"#utility.yul\":21187:21827   */\n      swap6\n      swap5\n      pop\n      pop\n      pop\n      pop\n      pop\n      jump\t// out\n        /* \"#utility.yul\":21833:21974   */\n    tag_423:\n        /* \"#utility.yul\":21889:21894   */\n      0x00\n        /* \"#utility.yul\":21920:21926   */\n      dup2\n        /* \"#utility.yul\":21914:21927   */\n      mload\n        /* \"#utility.yul\":21905:21927   */\n      swap1\n      pop\n        /* \"#utility.yul\":21936:21968   */\n      tag_673\n        /* \"#utility.yul\":21962:21967   */\n      dup2\n        /* \"#utility.yul\":21936:21968   */\n      tag_367\n      jump\t// in\n    tag_673:\n        /* \"#utility.yul\":21833:21974   */\n      swap3\n      swap2\n      pop\n      pop\n      jump\t// out\n        /* \"#utility.yul\":21980:22329   */\n    tag_286:\n        /* \"#utility.yul\":22049:22055   */\n      0x00\n        /* \"#utility.yul\":22098:22100   */\n      0x20\n        /* \"#utility.yul\":22086:22095   */\n      dup3\n        /* \"#utility.yul\":22077:22084   */\n      dup5\n        /* \"#utility.yul\":22073:22096   */\n      sub\n        /* \"#utility.yul\":22069:22101   */\n      slt\n        /* \"#utility.yul\":22066:22185   */\n      iszero\n      tag_675\n      jumpi\n        /* \"#utility.yul\":22104:22183   */\n      tag_676\n      tag_361\n      jump\t// in\n    tag_676:\n        /* \"#utility.yul\":22066:22185   */\n    tag_675:\n        /* \"#utility.yul\":22224:22225   */\n      0x00\n        /* \"#utility.yul\":22249:22312   */\n      tag_677\n        /* \"#utility.yul\":22304:22311   */\n      dup5\n        /* \"#utility.yul\":22295:22301   */\n      dup3\n        /* \"#utility.yul\":22284:22293   */\n      dup6\n        /* \"#utility.yul\":22280:22302   */\n      add\n        /* \"#utility.yul\":22249:22312   */\n      tag_423\n      jump\t// in\n    tag_677:\n        /* \"#utility.yul\":22239:22312   */\n      swap2\n      pop\n        /* \"#utility.yul\":22195:22322   */\n      pop\n        /* \"#utility.yul\":21980:22329   */\n      swap3\n      swap2\n      pop\n      pop\n      jump\t// out\n        /* \"#utility.yul\":22335:23730   */\n    tag_306:\n        /* \"#utility.yul\":22452:22489   */\n      tag_679\n        /* \"#utility.yul\":22485:22488   */\n      dup3\n        /* \"#utility.yul\":22452:22489   */\n      tag_371\n      jump\t// in\n    tag_679:\n        /* \"#utility.yul\":22554:22572   */\n      0xffffffffffffffff\n        /* \"#utility.yul\":22546:22552   */\n      dup2\n        /* \"#utility.yul\":22543:22573   */\n      gt\n        /* \"#utility.yul\":22540:22596   */\n      iszero\n      tag_680\n      jumpi\n        /* \"#utility.yul\":22576:22594   */\n      tag_681\n      tag_393\n      jump\t// in\n    tag_681:\n        /* \"#utility.yul\":22540:22596   */\n    tag_680:\n        /* \"#utility.yul\":22620:22658   */\n      tag_682\n        /* \"#utility.yul\":22652:22656   */\n      dup3\n        /* \"#utility.yul\":22646:22657   */\n      sload\n        /* \"#utility.yul\":22620:22658   */\n      tag_142\n      jump\t// in\n    tag_682:\n        /* \"#utility.yul\":22705:22772   */\n      tag_683\n        /* \"#utility.yul\":22765:22771   */\n      dup3\n        /* \"#utility.yul\":22757:22763   */\n      dup3\n        /* \"#utility.yul\":22751:22755   */\n      dup6\n        /* \"#utility.yul\":22705:22772   */\n      tag_416\n      jump\t// in\n    tag_683:\n        /* \"#utility.yul\":22799:22800   */\n      0x00\n        /* \"#utility.yul\":22823:22827   */\n      0x20\n        /* \"#utility.yul\":22810:22827   */\n      swap1\n      pop\n        /* \"#utility.yul\":22855:22857   */\n      0x1f\n        /* \"#utility.yul\":22847:22853   */\n      dup4\n        /* \"#utility.yul\":22844:22858   */\n      gt\n        /* \"#utility.yul\":22872:22873   */\n      0x01\n        /* \"#utility.yul\":22867:23485   */\n      dup2\n      eq\n      tag_685\n      jumpi\n        /* \"#utility.yul\":23529:23530   */\n      0x00\n        /* \"#utility.yul\":23546:23552   */\n      dup5\n        /* \"#utility.yul\":23543:23620   */\n      iszero\n      tag_686\n      jumpi\n        /* \"#utility.yul\":23595:23604   */\n      dup3\n        /* \"#utility.yul\":23590:23593   */\n      dup8\n        /* \"#utility.yul\":23586:23605   */\n      add\n        /* \"#utility.yul\":23580:23606   */\n      mload\n        /* \"#utility.yul\":23571:23606   */\n      swap1\n      pop\n        /* \"#utility.yul\":23543:23620   */\n    tag_686:\n        /* \"#utility.yul\":23646:23713   */\n      tag_687\n        /* \"#utility.yul\":23706:23712   */\n      dup6\n        /* \"#utility.yul\":23699:23704   */\n      dup3\n        /* \"#utility.yul\":23646:23713   */\n      tag_419\n      jump\t// in\n    tag_687:\n        /* \"#utility.yul\":23640:23644   */\n      dup7\n        /* \"#utility.yul\":23633:23714   */\n      sstore\n        /* \"#utility.yul\":23502:23724   */\n      pop\n        /* \"#utility.yul\":22837:23724   */\n      jump(tag_684)\n        /* \"#utility.yul\":22867:23485   */\n    tag_685:\n        /* \"#utility.yul\":22919:22923   */\n      0x1f\n        /* \"#utility.yul\":22915:22924   */\n      not\n        /* \"#utility.yul\":22907:22913   */\n      dup5\n        /* \"#utility.yul\":22903:22925   */\n      and\n        /* \"#utility.yul\":22953:22990   */\n      tag_688\n        /* \"#utility.yul\":22985:22989   */\n      dup7\n        /* \"#utility.yul\":22953:22990   */\n      tag_405\n      jump\t// in\n    tag_688:\n        /* \"#utility.yul\":23012:23013   */\n      0x00\n        /* \"#utility.yul\":23026:23234   */\n    tag_689:\n        /* \"#utility.yul\":23040:23047   */\n      dup3\n        /* \"#utility.yul\":23037:23038   */\n      dup2\n        /* \"#utility.yul\":23034:23048   */\n      lt\n        /* \"#utility.yul\":23026:23234   */\n      iszero\n      tag_691\n      jumpi\n        /* \"#utility.yul\":23119:23128   */\n      dup5\n        /* \"#utility.yul\":23114:23117   */\n      dup10\n        /* \"#utility.yul\":23110:23129   */\n      add\n        /* \"#utility.yul\":23104:23130   */\n      mload\n        /* \"#utility.yul\":23096:23102   */\n      dup3\n        /* \"#utility.yul\":23089:23131   */\n      sstore\n        /* \"#utility.yul\":23170:23171   */\n      0x01\n        /* \"#utility.yul\":23162:23168   */\n      dup3\n        /* \"#utility.yul\":23158:23172   */\n      add\n        /* \"#utility.yul\":23148:23172   */\n      swap2\n      pop\n        /* \"#utility.yul\":23217:23219   */\n      0x20\n        /* \"#utility.yul\":23206:23215   */\n      dup6\n        /* \"#utility.yul\":23202:23220   */\n      add\n        /* \"#utility.yul\":23189:23220   */\n      swap5\n      pop\n        /* \"#utility.yul\":23063:23067   */\n      0x20\n        /* \"#utility.yul\":23060:23061   */\n      dup2\n        /* \"#utility.yul\":23056:23068   */\n      add\n        /* \"#utility.yul\":23051:23068   */\n      swap1\n      pop\n        /* \"#utility.yul\":23026:23234   */\n      jump(tag_689)\n    tag_691:\n        /* \"#utility.yul\":23262:23268   */\n      dup7\n        /* \"#utility.yul\":23253:23260   */\n      dup4\n        /* \"#utility.yul\":23250:23269   */\n      lt\n        /* \"#utility.yul\":23247:23426   */\n      iszero\n      tag_692\n      jumpi\n        /* \"#utility.yul\":23320:23329   */\n      dup5\n        /* \"#utility.yul\":23315:23318   */\n      dup10\n        /* \"#utility.yul\":23311:23330   */\n      add\n        /* \"#utility.yul\":23305:23331   */\n      mload\n        /* \"#utility.yul\":23363:23411   */\n      tag_693\n        /* \"#utility.yul\":23405:23409   */\n      0x1f\n        /* \"#utility.yul\":23397:23403   */\n      dup10\n        /* \"#utility.yul\":23393:23410   */\n      and\n        /* \"#utility.yul\":23382:23391   */\n      dup3\n        /* \"#utility.yul\":23363:23411   */\n      tag_418\n      jump\t// in\n    tag_693:\n        /* \"#utility.yul\":23355:23361   */\n      dup4\n        /* \"#utility.yul\":23348:23412   */\n      sstore\n        /* \"#utility.yul\":23270:23426   */\n      pop\n        /* \"#utility.yul\":23247:23426   */\n    tag_692:\n        /* \"#utility.yul\":23472:23473   */\n      0x01\n        /* \"#utility.yul\":23468:23469   */\n      0x02\n        /* \"#utility.yul\":23460:23466   */\n      dup9\n        /* \"#utility.yul\":23456:23470   */\n      mul\n        /* \"#utility.yul\":23452:23474   */\n      add\n        /* \"#utility.yul\":23446:23450   */\n      dup9\n        /* \"#utility.yul\":23439:23475   */\n      sstore\n        /* \"#utility.yul\":22874:23485   */\n      pop\n      pop\n      pop\n        /* \"#utility.yul\":22837:23724   */\n    tag_684:\n      pop\n        /* \"#utility.yul\":22427:23730   */\n      pop\n      pop\n      pop\n        /* \"#utility.yul\":22335:23730   */\n      pop\n      pop\n      jump\t// out\n        /* \"#utility.yul\":23736:24068   */\n    tag_352:\n        /* \"#utility.yul\":23857:23861   */\n      0x00\n        /* \"#utility.yul\":23895:23897   */\n      0x40\n        /* \"#utility.yul\":23884:23893   */\n      dup3\n        /* \"#utility.yul\":23880:23898   */\n      add\n        /* \"#utility.yul\":23872:23898   */\n      swap1\n      pop\n        /* \"#utility.yul\":23908:23979   */\n      tag_695\n        /* \"#utility.yul\":23976:23977   */\n      0x00\n        /* \"#utility.yul\":23965:23974   */\n      dup4\n        /* \"#utility.yul\":23961:23978   */\n      add\n        /* \"#utility.yul\":23952:23958   */\n      dup6\n        /* \"#utility.yul\":23908:23979   */\n      tag_378\n      jump\t// in\n    tag_695:\n        /* \"#utility.yul\":23989:24061   */\n      tag_696\n        /* \"#utility.yul\":24057:24059   */\n      0x20\n        /* \"#utility.yul\":24046:24055   */\n      dup4\n        /* \"#utility.yul\":24042:24060   */\n      add\n        /* \"#utility.yul\":24033:24039   */\n      dup5\n        /* \"#utility.yul\":23989:24061   */\n      tag_385\n      jump\t// in\n    tag_696:\n        /* \"#utility.yul\":23736:24068   */\n      swap4\n      swap3\n      pop\n      pop\n      pop\n      jump\t// out\n\n    auxdata: 0xa2646970667358221220681f432369c9fb9089034f6d5a5d2ecef5dcaacb3dc765fe929b14fa9a5e2f0464736f6c63430008180033\n}\n",
				"bytecode": {
					"linkReferences": {},
					"object": "608060405234801562000010575f80fd5b5060405162002e9838038062002e988339818101604052810190620000369190620001ea565b8181815f9081620000489190620004a4565b5080600190816200005a9190620004a4565b505050505062000588565b5f604051905090565b5f80fd5b5f80fd5b5f80fd5b5f80fd5b5f601f19601f8301169050919050565b7f4e487b71000000000000000000000000000000000000000000000000000000005f52604160045260245ffd5b620000c6826200007e565b810181811067ffffffffffffffff82111715620000e857620000e76200008e565b5b80604052505050565b5f620000fc62000065565b90506200010a8282620000bb565b919050565b5f67ffffffffffffffff8211156200012c576200012b6200008e565b5b62000137826200007e565b9050602081019050919050565b5f5b838110156200016357808201518184015260208101905062000146565b5f8484015250505050565b5f620001846200017e846200010f565b620000f1565b905082815260208101848484011115620001a357620001a26200007a565b5b620001b084828562000144565b509392505050565b5f82601f830112620001cf57620001ce62000076565b5b8151620001e18482602086016200016e565b91505092915050565b5f80604083850312156200020357620002026200006e565b5b5f83015167ffffffffffffffff81111562000223576200022262000072565b5b6200023185828601620001b8565b925050602083015167ffffffffffffffff81111562000255576200025462000072565b5b6200026385828601620001b8565b9150509250929050565b5f81519050919050565b7f4e487b71000000000000000000000000000000000000000000000000000000005f52602260045260245ffd5b5f6002820490506001821680620002bc57607f821691505b602082108103620002d257620002d162000277565b5b50919050565b5f819050815f5260205f209050919050565b5f6020601f8301049050919050565b5f82821b905092915050565b5f60088302620003367fffffffffffffffffffffffffffffffffffffffffffffffffffffffffffffffff82620002f9565b620003428683620002f9565b95508019841693508086168417925050509392505050565b5f819050919050565b5f819050919050565b5f6200038c6200038662000380846200035a565b62000363565b6200035a565b9050919050565b5f819050919050565b620003a7836200036c565b620003bf620003b68262000393565b84845462000305565b825550505050565b5f90565b620003d5620003c7565b620003e28184846200039c565b505050565b5b818110156200040957620003fd5f82620003cb565b600181019050620003e8565b5050565b601f82111562000458576200042281620002d8565b6200042d84620002ea565b810160208510156200043d578190505b620004556200044c85620002ea565b830182620003e7565b50505b505050565b5f82821c905092915050565b5f6200047a5f19846008026200045d565b1980831691505092915050565b5f62000494838362000469565b9150826002028217905092915050565b620004af826200026d565b67ffffffffffffffff811115620004cb57620004ca6200008e565b5b620004d78254620002a4565b620004e48282856200040d565b5f60209050601f8311600181146200051a575f841562000505578287015190505b62000511858262000487565b86555062000580565b601f1984166200052a86620002d8565b5f5b8281101562000553578489015182556001820191506020850194506020810190506200052c565b868310156200057357848901516200056f601f89168262000469565b8355505b6001600288020188555050505b505050505050565b61290280620005965f395ff3fe608060405234801561000f575f80fd5b5060043610610113575f3560e01c806370a08231116100a0578063b88d4fde1161006f578063b88d4fde146102ec578063c87b56dd14610308578063e6e2d08e14610338578063e985e9c51461036a578063f119f5671461039a57610113565b806370a082311461025157806395d89b4114610281578063a22cb4651461029f578063b564ea86146102bb57610113565b8063095ea7b3116100e7578063095ea7b3146101b1578063162094c4146101cd57806323b872dd146101e957806342842e0e146102055780636352211e1461022157610113565b8062e000641461011757806301ffc9a71461013357806306fdde0314610163578063081812fc14610181575b5f80fd5b610131600480360381019061012c9190611c34565b6103b6565b005b61014d60048036038101906101489190611cb4565b610623565b60405161015a9190611cf9565b60405180910390f35b61016b610634565b6040516101789190611d9c565b60405180910390f35b61019b60048036038101906101969190611c34565b6106c3565b6040516101a89190611dfb565b60405180910390f35b6101cb60048036038101906101c69190611e3e565b6106de565b005b6101e760048036038101906101e29190611edd565b6106f4565b005b61020360048036038101906101fe9190611f3a565b61071a565b005b61021f600480360381019061021a9190611f3a565b610819565b005b61023b60048036038101906102369190611c34565b610838565b6040516102489190611dfb565b60405180910390f35b61026b60048036038101906102669190611f8a565b610849565b6040516102789190611fc4565b60405180910390f35b6102896108ff565b6040516102969190611d9c565b60405180910390f35b6102b960048036038101906102b49190612007565b61098f565b005b6102d560048036038101906102d09190611c34565b6109a5565b6040516102e39291906120b8565b60405180910390f35b61030660048036038101906103019190612207565b610ada565b005b610322600480360381019061031d9190611c34565b610af7565b60405161032f9190611d9c565b60405180910390f35b610352600480360381019061034d9190611c34565b610b98565b60405161036193929190612287565b60405180910390f35b610384600480360381019061037f91906122bc565b610bbe565b6040516103919190611cf9565b60405180910390f35b6103b460048036038101906103af9190611c34565b610c4c565b005b6003808111156103c9576103c8612045565b5b60075f8381526020019081526020015f205f9054906101000a900460ff1660038111156103f9576103f8612045565b5b03610439576040517f08c379a000000000000000000000000000000000000000000000000000000000815260040161043090612344565b60405180910390fd5b5f60075f8381526020019081526020015f205f9054906101000a900460ff1690505f600381111561046d5761046c612045565b5b8160038111156104805761047f612045565b5b036104ef57612a30600a5f8481526020019081526020015f205f0154106104d157612a30600a5f8481526020019081526020015f205f015f8282546104c5919061238f565b925050819055506104ea565b5f600a5f8481526020019081526020015f205f01819055505b61061f565b6001600381111561050357610502612045565b5b81600381111561051657610515612045565b5b0361058857612a30600a5f8481526020019081526020015f20600101541061056957612a30600a5f8481526020019081526020015f206001015f82825461055d919061238f565b92505081905550610583565b5f600a5f8481526020019081526020015f20600101819055505b61061e565b6002600381111561059c5761059b612045565b5b8160038111156105af576105ae612045565b5b0361061d57612a30600a5f8481526020019081526020015f20600201541061060257612a30600a5f8481526020019081526020015f206002015f8282546105f6919061238f565b9250508190555061061c565b5f600a5f8481526020019081526020015f20600201819055505b5b5b5b5050565b5f61062d82610e8b565b9050919050565b60605f8054610642906123ef565b80601f016020809104026020016040519081016040528092919081815260200182805461066e906123ef565b80156106b95780601f10610690576101008083540402835291602001916106b9565b820191905f5260205f20905b81548152906001019060200180831161069c57829003601f168201915b5050505050905090565b5f6106cd82610eeb565b506106d782610f71565b9050919050565b6106f082826106eb610faa565b610fb1565b5050565b818160085f8681526020019081526020015f2091826107149291906125c6565b50505050565b5f73ffffffffffffffffffffffffffffffffffffffff168273ffffffffffffffffffffffffffffffffffffffff160361078a575f6040517f64a0ae920000000000000000000000000000000000000000000000000000000081526004016107819190611dfb565b60405180910390fd5b5f61079d8383610798610faa565b610fc3565b90508373ffffffffffffffffffffffffffffffffffffffff168173ffffffffffffffffffffffffffffffffffffffff1614610813578382826040517f64283d7b00000000000000000000000000000000000000000000000000000000815260040161080a93929190612693565b60405180910390fd5b50505050565b61083383838360405180602001604052805f815250610ada565b505050565b5f61084282610eeb565b9050919050565b5f8073ffffffffffffffffffffffffffffffffffffffff168273ffffffffffffffffffffffffffffffffffffffff16036108ba575f6040517f89c62b640000000000000000000000000000000000000000000000000000000081526004016108b19190611dfb565b60405180910390fd5b60035f8373ffffffffffffffffffffffffffffffffffffffff1673ffffffffffffffffffffffffffffffffffffffff1681526020019081526020015f20549050919050565b60606001805461090e906123ef565b80601f016020809104026020016040519081016040528092919081815260200182805461093a906123ef565b80156109855780601f1061095c57610100808354040283529160200191610985565b820191905f5260205f20905b81548152906001019060200180831161096857829003601f168201915b5050505050905090565b6109a161099a610faa565b83836111ce565b5050565b5f8060075f8481526020019081526020015f205f9054906101000a900460ff1691505f4290505f60038111156109de576109dd612045565b5b8360038111156109f1576109f0612045565b5b03610a1c5780600a5f8681526020019081526020015f205f0154610a15919061238f565b9150610ac8565b60016003811115610a3057610a2f612045565b5b836003811115610a4357610a42612045565b5b03610a6f5780600a5f8681526020019081526020015f2060010154610a68919061238f565b9150610ac7565b60026003811115610a8357610a82612045565b5b836003811115610a9657610a95612045565b5b03610ac25780600a5f8681526020019081526020015f2060020154610abb919061238f565b9150610ac6565b5f91505b5b5b5f821015610ad4575f91505b50915091565b610ae584848461071a565b610af184848484611337565b50505050565b606060085f8381526020019081526020015f208054610b15906123ef565b80601f0160208091040260200160405190810160405280929190818152602001828054610b41906123ef565b8015610b8c5780601f10610b6357610100808354040283529160200191610b8c565b820191905f5260205f20905b815481529060010190602001808311610b6f57829003601f168201915b50505050509050919050565b600a602052805f5260405f205f91509050805f0154908060010154908060020154905083565b5f60055f8473ffffffffffffffffffffffffffffffffffffffff1673ffffffffffffffffffffffffffffffffffffffff1681526020019081526020015f205f8373ffffffffffffffffffffffffffffffffffffffff1673ffffffffffffffffffffffffffffffffffffffff1681526020019081526020015f205f9054906101000a900460ff16905092915050565b5f60075f8381526020019081526020015f205f9054906101000a900460ff1690505f6003811115610c8057610c7f612045565b5b816003811115610c9357610c92612045565b5b148015610cb35750600a5f8381526020019081526020015f205f01544210155b15610d1c57600160075f8481526020019081526020015f205f6101000a81548160ff02191690836003811115610cec57610ceb612045565b5b02179055506202a30042610d0091906126c8565b600a5f8481526020019081526020015f205f0181905550610e7e565b60016003811115610d3057610d2f612045565b5b816003811115610d4357610d42612045565b5b148015610d645750600a5f8381526020019081526020015f20600101544210155b15610dce57600260075f8481526020019081526020015f205f6101000a81548160ff02191690836003811115610d9d57610d9c612045565b5b02179055506202a30042610db191906126c8565b600a5f8481526020019081526020015f2060010181905550610e7d565b60026003811115610de257610de1612045565b5b816003811115610df557610df4612045565b5b148015610e165750600a5f8381526020019081526020015f20600201544210155b15610e7c57600360075f8481526020019081526020015f205f6101000a81548160ff02191690836003811115610e4f57610e4e612045565b5b02179055506203f48042610e6391906126c8565b600a5f8481526020019081526020015f20600201819055505b5b5b610e87826114e9565b5050565b5f634906490660e01b7bffffffffffffffffffffffffffffffffffffffffffffffffffffffff1916827bffffffffffffffffffffffffffffffffffffffffffffffffffffffff19161480610ee45750610ee38261172b565b5b9050919050565b5f80610ef68361180c565b90505f73ffffffffffffffffffffffffffffffffffffffff168173ffffffffffffffffffffffffffffffffffffffff1603610f6857826040517f7e273289000000000000000000000000000000000000000000000000000000008152600401610f5f9190611fc4565b60405180910390fd5b80915050919050565b5f60045f8381526020019081526020015f205f9054906101000a900473ffffffffffffffffffffffffffffffffffffffff169050919050565b5f33905090565b610fbe8383836001611845565b505050565b5f80610fce8461180c565b90505f73ffffffffffffffffffffffffffffffffffffffff168373ffffffffffffffffffffffffffffffffffffffff161461100f5761100e818486611a04565b5b5f73ffffffffffffffffffffffffffffffffffffffff168173ffffffffffffffffffffffffffffffffffffffff161461109a5761104e5f855f80611845565b600160035f8373ffffffffffffffffffffffffffffffffffffffff1673ffffffffffffffffffffffffffffffffffffffff1681526020019081526020015f205f82825403925050819055505b5f73ffffffffffffffffffffffffffffffffffffffff168573ffffffffffffffffffffffffffffffffffffffff161461111957600160035f8773ffffffffffffffffffffffffffffffffffffffff1673ffffffffffffffffffffffffffffffffffffffff1681526020019081526020015f205f82825401925050819055505b8460025f8681526020019081526020015f205f6101000a81548173ffffffffffffffffffffffffffffffffffffffff021916908373ffffffffffffffffffffffffffffffffffffffff160217905550838573ffffffffffffffffffffffffffffffffffffffff168273ffffffffffffffffffffffffffffffffffffffff167fddf252ad1be2c89b69c2b068fc378daa952ba7f163c4a11628f55a4df523b3ef60405160405180910390a4809150509392505050565b5f73ffffffffffffffffffffffffffffffffffffffff168273ffffffffffffffffffffffffffffffffffffffff160361123e57816040517f5b08ba180000000000000000000000000000000000000000000000000000000081526004016112359190611dfb565b60405180910390fd5b8060055f8573ffffffffffffffffffffffffffffffffffffffff1673ffffffffffffffffffffffffffffffffffffffff1681526020019081526020015f205f8473ffffffffffffffffffffffffffffffffffffffff1673ffffffffffffffffffffffffffffffffffffffff1681526020019081526020015f205f6101000a81548160ff0219169083151502179055508173ffffffffffffffffffffffffffffffffffffffff168373ffffffffffffffffffffffffffffffffffffffff167f17307eab39ab6107e8899845ad3d59bd9653f200f220920489ca2b5937696c318360405161132a9190611cf9565b60405180910390a3505050565b5f8373ffffffffffffffffffffffffffffffffffffffff163b11156114e3578273ffffffffffffffffffffffffffffffffffffffff1663150b7a0261137a610faa565b8685856040518563ffffffff1660e01b815260040161139c949392919061274d565b6020604051808303815f875af19250505080156113d757506040513d601f19601f820116820180604052508101906113d491906127ab565b60015b611458573d805f8114611405576040519150601f19603f3d011682016040523d82523d5f602084013e61140a565b606091505b505f81510361145057836040517f64a0ae920000000000000000000000000000000000000000000000000000000081526004016114479190611dfb565b60405180910390fd5b805181602001fd5b63150b7a0260e01b7bffffffffffffffffffffffffffffffffffffffffffffffffffffffff1916817bffffffffffffffffffffffffffffffffffffffffffffffffffffffff1916146114e157836040517f64a0ae920000000000000000000000000000000000000000000000000000000081526004016114d89190611dfb565b60405180910390fd5b505b50505050565b5f60075f8381526020019081526020015f205f9054906101000a900460ff1690505f600381111561151d5761151c612045565b5b8160038111156115305761152f612045565b5b03611591576040518060400160405280600381526020017f656767000000000000000000000000000000000000000000000000000000000081525060095f8481526020019081526020015f20600501908161158b91906127d6565b50611727565b600160038111156115a5576115a4612045565b5b8160038111156115b8576115b7612045565b5b03611619576040518060400160405280600581526020017f686174636800000000000000000000000000000000000000000000000000000081525060095f8481526020019081526020015f20600501908161161391906127d6565b50611726565b6002600381111561162d5761162c612045565b5b8160038111156116405761163f612045565b5b036116a1576040518060400160405280600981526020017f68617463686c696e67000000000000000000000000000000000000000000000081525060095f8481526020019081526020015f20600501908161169b91906127d6565b50611725565b6003808111156116b4576116b3612045565b5b8160038111156116c7576116c6612045565b5b03611724576040518060400160405280600581526020017f6164756c7400000000000000000000000000000000000000000000000000000081525060095f8481526020019081526020015f20600501908161172291906127d6565b505b5b5b5b5050565b5f7f80ac58cd000000000000000000000000000000000000000000000000000000007bffffffffffffffffffffffffffffffffffffffffffffffffffffffff1916827bffffffffffffffffffffffffffffffffffffffffffffffffffffffff191614806117f557507f5b5e139f000000000000000000000000000000000000000000000000000000007bffffffffffffffffffffffffffffffffffffffffffffffffffffffff1916827bffffffffffffffffffffffffffffffffffffffffffffffffffffffff1916145b80611805575061180482611ac7565b5b9050919050565b5f60025f8381526020019081526020015f205f9054906101000a900473ffffffffffffffffffffffffffffffffffffffff169050919050565b808061187d57505f73ffffffffffffffffffffffffffffffffffffffff168273ffffffffffffffffffffffffffffffffffffffff1614155b156119af575f61188c84610eeb565b90505f73ffffffffffffffffffffffffffffffffffffffff168373ffffffffffffffffffffffffffffffffffffffff16141580156118f657508273ffffffffffffffffffffffffffffffffffffffff168173ffffffffffffffffffffffffffffffffffffffff1614155b801561190957506119078184610bbe565b155b1561194b57826040517fa9fbf51f0000000000000000000000000000000000000000000000000000000081526004016119429190611dfb565b60405180910390fd5b81156119ad57838573ffffffffffffffffffffffffffffffffffffffff168273ffffffffffffffffffffffffffffffffffffffff167f8c5be1e5ebec7d5bd14f71427d1e84f3dd0314c0f7b2291e5b200ac8c7c3b92560405160405180910390a45b505b8360045f8581526020019081526020015f205f6101000a81548173ffffffffffffffffffffffffffffffffffffffff021916908373ffffffffffffffffffffffffffffffffffffffff16021790555050505050565b611a0f838383611b30565b611ac2575f73ffffffffffffffffffffffffffffffffffffffff168373ffffffffffffffffffffffffffffffffffffffff1603611a8357806040517f7e273289000000000000000000000000000000000000000000000000000000008152600401611a7a9190611fc4565b60405180910390fd5b81816040517f177e802f000000000000000000000000000000000000000000000000000000008152600401611ab99291906128a5565b60405180910390fd5b505050565b5f7f01ffc9a7000000000000000000000000000000000000000000000000000000007bffffffffffffffffffffffffffffffffffffffffffffffffffffffff1916827bffffffffffffffffffffffffffffffffffffffffffffffffffffffff1916149050919050565b5f8073ffffffffffffffffffffffffffffffffffffffff168373ffffffffffffffffffffffffffffffffffffffff1614158015611be757508273ffffffffffffffffffffffffffffffffffffffff168473ffffffffffffffffffffffffffffffffffffffff161480611ba85750611ba78484610bbe565b5b80611be657508273ffffffffffffffffffffffffffffffffffffffff16611bce83610f71565b73ffffffffffffffffffffffffffffffffffffffff16145b5b90509392505050565b5f604051905090565b5f80fd5b5f80fd5b5f819050919050565b611c1381611c01565b8114611c1d575f80fd5b50565b5f81359050611c2e81611c0a565b92915050565b5f60208284031215611c4957611c48611bf9565b5b5f611c5684828501611c20565b91505092915050565b5f7fffffffff0000000000000000000000000000000000000000000000000000000082169050919050565b611c9381611c5f565b8114611c9d575f80fd5b50565b5f81359050611cae81611c8a565b92915050565b5f60208284031215611cc957611cc8611bf9565b5b5f611cd684828501611ca0565b91505092915050565b5f8115159050919050565b611cf381611cdf565b82525050565b5f602082019050611d0c5f830184611cea565b92915050565b5f81519050919050565b5f82825260208201905092915050565b5f5b83811015611d49578082015181840152602081019050611d2e565b5f8484015250505050565b5f601f19601f8301169050919050565b5f611d6e82611d12565b611d788185611d1c565b9350611d88818560208601611d2c565b611d9181611d54565b840191505092915050565b5f6020820190508181035f830152611db48184611d64565b905092915050565b5f73ffffffffffffffffffffffffffffffffffffffff82169050919050565b5f611de582611dbc565b9050919050565b611df581611ddb565b82525050565b5f602082019050611e0e5f830184611dec565b92915050565b611e1d81611ddb565b8114611e27575f80fd5b50565b5f81359050611e3881611e14565b92915050565b5f8060408385031215611e5457611e53611bf9565b5b5f611e6185828601611e2a565b9250506020611e7285828601611c20565b9150509250929050565b5f80fd5b5f80fd5b5f80fd5b5f8083601f840112611e9d57611e9c611e7c565b5b8235905067ffffffffffffffff811115611eba57611eb9611e80565b5b602083019150836001820283011115611ed657611ed5611e84565b5b9250929050565b5f805f60408486031215611ef457611ef3611bf9565b5b5f611f0186828701611c20565b935050602084013567ffffffffffffffff811115611f2257611f21611bfd565b5b611f2e86828701611e88565b92509250509250925092565b5f805f60608486031215611f5157611f50611bf9565b5b5f611f5e86828701611e2a565b9350506020611f6f86828701611e2a565b9250506040611f8086828701611c20565b9150509250925092565b5f60208284031215611f9f57611f9e611bf9565b5b5f611fac84828501611e2a565b91505092915050565b611fbe81611c01565b82525050565b5f602082019050611fd75f830184611fb5565b92915050565b611fe681611cdf565b8114611ff0575f80fd5b50565b5f8135905061200181611fdd565b92915050565b5f806040838503121561201d5761201c611bf9565b5b5f61202a85828601611e2a565b925050602061203b85828601611ff3565b9150509250929050565b7f4e487b71000000000000000000000000000000000000000000000000000000005f52602160045260245ffd5b6004811061208357612082612045565b5b50565b5f81905061209382612072565b919050565b5f6120a282612086565b9050919050565b6120b281612098565b82525050565b5f6040820190506120cb5f8301856120a9565b6120d86020830184611fb5565b9392505050565b5f80fd5b7f4e487b71000000000000000000000000000000000000000000000000000000005f52604160045260245ffd5b61211982611d54565b810181811067ffffffffffffffff82111715612138576121376120e3565b5b80604052505050565b5f61214a611bf0565b90506121568282612110565b919050565b5f67ffffffffffffffff821115612175576121746120e3565b5b61217e82611d54565b9050602081019050919050565b828183375f83830152505050565b5f6121ab6121a68461215b565b612141565b9050828152602081018484840111156121c7576121c66120df565b5b6121d284828561218b565b509392505050565b5f82601f8301126121ee576121ed611e7c565b5b81356121fe848260208601612199565b91505092915050565b5f805f806080858703121561221f5761221e611bf9565b5b5f61222c87828801611e2a565b945050602061223d87828801611e2a565b935050604061224e87828801611c20565b925050606085013567ffffffffffffffff81111561226f5761226e611bfd565b5b61227b878288016121da565b91505092959194509250565b5f60608201905061229a5f830186611fb5565b6122a76020830185611fb5565b6122b46040830184611fb5565b949350505050565b5f80604083850312156122d2576122d1611bf9565b5b5f6122df85828601611e2a565b92505060206122f085828601611e2a565b9150509250929050565b7f746f6b656e20697320616c7265616479206164756c74000000000000000000005f82015250565b5f61232e601683611d1c565b9150612339826122fa565b602082019050919050565b5f6020820190508181035f83015261235b81612322565b9050919050565b7f4e487b71000000000000000000000000000000000000000000000000000000005f52601160045260245ffd5b5f61239982611c01565b91506123a483611c01565b92508282039050818111156123bc576123bb612362565b5b92915050565b7f4e487b71000000000000000000000000000000000000000000000000000000005f52602260045260245ffd5b5f600282049050600182168061240657607f821691505b602082108103612419576124186123c2565b5b50919050565b5f82905092915050565b5f819050815f5260205f209050919050565b5f6020601f8301049050919050565b5f82821b905092915050565b5f600883026124857fffffffffffffffffffffffffffffffffffffffffffffffffffffffffffffffff8261244a565b61248f868361244a565b95508019841693508086168417925050509392505050565b5f819050919050565b5f6124ca6124c56124c084611c01565b6124a7565b611c01565b9050919050565b5f819050919050565b6124e3836124b0565b6124f76124ef826124d1565b848454612456565b825550505050565b5f90565b61250b6124ff565b6125168184846124da565b505050565b5b818110156125395761252e5f82612503565b60018101905061251c565b5050565b601f82111561257e5761254f81612429565b6125588461243b565b81016020851015612567578190505b61257b6125738561243b565b83018261251b565b50505b505050565b5f82821c905092915050565b5f61259e5f1984600802612583565b1980831691505092915050565b5f6125b6838361258f565b9150826002028217905092915050565b6125d0838361241f565b67ffffffffffffffff8111156125e9576125e86120e3565b5b6125f382546123ef565b6125fe82828561253d565b5f601f83116001811461262b575f8415612619578287013590505b61262385826125ab565b86555061268a565b601f19841661263986612429565b5f5b828110156126605784890135825560018201915060208501945060208101905061263b565b8683101561267d5784890135612679601f89168261258f565b8355505b6001600288020188555050505b50505050505050565b5f6060820190506126a65f830186611dec565b6126b36020830185611fb5565b6126c06040830184611dec565b949350505050565b5f6126d282611c01565b91506126dd83611c01565b92508282019050808211156126f5576126f4612362565b5b92915050565b5f81519050919050565b5f82825260208201905092915050565b5f61271f826126fb565b6127298185612705565b9350612739818560208601611d2c565b61274281611d54565b840191505092915050565b5f6080820190506127605f830187611dec565b61276d6020830186611dec565b61277a6040830185611fb5565b818103606083015261278c8184612715565b905095945050505050565b5f815190506127a581611c8a565b92915050565b5f602082840312156127c0576127bf611bf9565b5b5f6127cd84828501612797565b91505092915050565b6127df82611d12565b67ffffffffffffffff8111156127f8576127f76120e3565b5b61280282546123ef565b61280d82828561253d565b5f60209050601f83116001811461283e575f841561282c578287015190505b61283685826125ab565b86555061289d565b601f19841661284c86612429565b5f5b828110156128735784890151825560018201915060208501945060208101905061284e565b86831015612890578489015161288c601f89168261258f565b8355505b6001600288020188555050505b505050505050565b5f6040820190506128b85f830185611dec565b6128c56020830184611fb5565b939250505056fea2646970667358221220681f432369c9fb9089034f6d5a5d2ecef5dcaacb3dc765fe929b14fa9a5e2f0464736f6c63430008180033",
					"opcodes": "PUSH1 0x80 PUSH1 0x40 MSTORE CALLVALUE DUP1 ISZERO PUSH3 0x10 JUMPI PUSH0 DUP1 REVERT JUMPDEST POP PUSH1 0x40 MLOAD PUSH3 0x2E98 CODESIZE SUB DUP1 PUSH3 0x2E98 DUP4 CODECOPY DUP2 DUP2 ADD PUSH1 0x40 MSTORE DUP2 ADD SWAP1 PUSH3 0x36 SWAP2 SWAP1 PUSH3 0x1EA JUMP JUMPDEST DUP2 DUP2 DUP2 PUSH0 SWAP1 DUP2 PUSH3 0x48 SWAP2 SWAP1 PUSH3 0x4A4 JUMP JUMPDEST POP DUP1 PUSH1 0x1 SWAP1 DUP2 PUSH3 0x5A SWAP2 SWAP1 PUSH3 0x4A4 JUMP JUMPDEST POP POP POP POP POP PUSH3 0x588 JUMP JUMPDEST PUSH0 PUSH1 0x40 MLOAD SWAP1 POP SWAP1 JUMP JUMPDEST PUSH0 DUP1 REVERT JUMPDEST PUSH0 DUP1 REVERT JUMPDEST PUSH0 DUP1 REVERT JUMPDEST PUSH0 DUP1 REVERT JUMPDEST PUSH0 PUSH1 0x1F NOT PUSH1 0x1F DUP4 ADD AND SWAP1 POP SWAP2 SWAP1 POP JUMP JUMPDEST PUSH32 0x4E487B7100000000000000000000000000000000000000000000000000000000 PUSH0 MSTORE PUSH1 0x41 PUSH1 0x4 MSTORE PUSH1 0x24 PUSH0 REVERT JUMPDEST PUSH3 0xC6 DUP3 PUSH3 0x7E JUMP JUMPDEST DUP2 ADD DUP2 DUP2 LT PUSH8 0xFFFFFFFFFFFFFFFF DUP3 GT OR ISZERO PUSH3 0xE8 JUMPI PUSH3 0xE7 PUSH3 0x8E JUMP JUMPDEST JUMPDEST DUP1 PUSH1 0x40 MSTORE POP POP POP JUMP JUMPDEST PUSH0 PUSH3 0xFC PUSH3 0x65 JUMP JUMPDEST SWAP1 POP PUSH3 0x10A DUP3 DUP3 PUSH3 0xBB JUMP JUMPDEST SWAP2 SWAP1 POP JUMP JUMPDEST PUSH0 PUSH8 0xFFFFFFFFFFFFFFFF DUP3 GT ISZERO PUSH3 0x12C JUMPI PUSH3 0x12B PUSH3 0x8E JUMP JUMPDEST JUMPDEST PUSH3 0x137 DUP3 PUSH3 0x7E JUMP JUMPDEST SWAP1 POP PUSH1 0x20 DUP2 ADD SWAP1 POP SWAP2 SWAP1 POP JUMP JUMPDEST PUSH0 JUMPDEST DUP4 DUP2 LT ISZERO PUSH3 0x163 JUMPI DUP1 DUP3 ADD MLOAD DUP2 DUP5 ADD MSTORE PUSH1 0x20 DUP2 ADD SWAP1 POP PUSH3 0x146 JUMP JUMPDEST PUSH0 DUP5 DUP5 ADD MSTORE POP POP POP POP JUMP JUMPDEST PUSH0 PUSH3 0x184 PUSH3 0x17E DUP5 PUSH3 0x10F JUMP JUMPDEST PUSH3 0xF1 JUMP JUMPDEST SWAP1 POP DUP3 DUP2 MSTORE PUSH1 0x20 DUP2 ADD DUP5 DUP5 DUP5 ADD GT ISZERO PUSH3 0x1A3 JUMPI PUSH3 0x1A2 PUSH3 0x7A JUMP JUMPDEST JUMPDEST PUSH3 0x1B0 DUP5 DUP3 DUP6 PUSH3 0x144 JUMP JUMPDEST POP SWAP4 SWAP3 POP POP POP JUMP JUMPDEST PUSH0 DUP3 PUSH1 0x1F DUP4 ADD SLT PUSH3 0x1CF JUMPI PUSH3 0x1CE PUSH3 0x76 JUMP JUMPDEST JUMPDEST DUP2 MLOAD PUSH3 0x1E1 DUP5 DUP3 PUSH1 0x20 DUP7 ADD PUSH3 0x16E JUMP JUMPDEST SWAP2 POP POP SWAP3 SWAP2 POP POP JUMP JUMPDEST PUSH0 DUP1 PUSH1 0x40 DUP4 DUP6 SUB SLT ISZERO PUSH3 0x203 JUMPI PUSH3 0x202 PUSH3 0x6E JUMP JUMPDEST JUMPDEST PUSH0 DUP4 ADD MLOAD PUSH8 0xFFFFFFFFFFFFFFFF DUP2 GT ISZERO PUSH3 0x223 JUMPI PUSH3 0x222 PUSH3 0x72 JUMP JUMPDEST JUMPDEST PUSH3 0x231 DUP6 DUP3 DUP7 ADD PUSH3 0x1B8 JUMP JUMPDEST SWAP3 POP POP PUSH1 0x20 DUP4 ADD MLOAD PUSH8 0xFFFFFFFFFFFFFFFF DUP2 GT ISZERO PUSH3 0x255 JUMPI PUSH3 0x254 PUSH3 0x72 JUMP JUMPDEST JUMPDEST PUSH3 0x263 DUP6 DUP3 DUP7 ADD PUSH3 0x1B8 JUMP JUMPDEST SWAP2 POP POP SWAP3 POP SWAP3 SWAP1 POP JUMP JUMPDEST PUSH0 DUP2 MLOAD SWAP1 POP SWAP2 SWAP1 POP JUMP JUMPDEST PUSH32 0x4E487B7100000000000000000000000000000000000000000000000000000000 PUSH0 MSTORE PUSH1 0x22 PUSH1 0x4 MSTORE PUSH1 0x24 PUSH0 REVERT JUMPDEST PUSH0 PUSH1 0x2 DUP3 DIV SWAP1 POP PUSH1 0x1 DUP3 AND DUP1 PUSH3 0x2BC JUMPI PUSH1 0x7F DUP3 AND SWAP2 POP JUMPDEST PUSH1 0x20 DUP3 LT DUP2 SUB PUSH3 0x2D2 JUMPI PUSH3 0x2D1 PUSH3 0x277 JUMP JUMPDEST JUMPDEST POP SWAP2 SWAP1 POP JUMP JUMPDEST PUSH0 DUP2 SWAP1 POP DUP2 PUSH0 MSTORE PUSH1 0x20 PUSH0 KECCAK256 SWAP1 POP SWAP2 SWAP1 POP JUMP JUMPDEST PUSH0 PUSH1 0x20 PUSH1 0x1F DUP4 ADD DIV SWAP1 POP SWAP2 SWAP1 POP JUMP JUMPDEST PUSH0 DUP3 DUP3 SHL SWAP1 POP SWAP3 SWAP2 POP POP JUMP JUMPDEST PUSH0 PUSH1 0x8 DUP4 MUL PUSH3 0x336 PUSH32 0xFFFFFFFFFFFFFFFFFFFFFFFFFFFFFFFFFFFFFFFFFFFFFFFFFFFFFFFFFFFFFFFF DUP3 PUSH3 0x2F9 JUMP JUMPDEST PUSH3 0x342 DUP7 DUP4 PUSH3 0x2F9 JUMP JUMPDEST SWAP6 POP DUP1 NOT DUP5 AND SWAP4 POP DUP1 DUP7 AND DUP5 OR SWAP3 POP POP POP SWAP4 SWAP3 POP POP POP JUMP JUMPDEST PUSH0 DUP2 SWAP1 POP SWAP2 SWAP1 POP JUMP JUMPDEST PUSH0 DUP2 SWAP1 POP SWAP2 SWAP1 POP JUMP JUMPDEST PUSH0 PUSH3 0x38C PUSH3 0x386 PUSH3 0x380 DUP5 PUSH3 0x35A JUMP JUMPDEST PUSH3 0x363 JUMP JUMPDEST PUSH3 0x35A JUMP JUMPDEST SWAP1 POP SWAP2 SWAP1 POP JUMP JUMPDEST PUSH0 DUP2 SWAP1 POP SWAP2 SWAP1 POP JUMP JUMPDEST PUSH3 0x3A7 DUP4 PUSH3 0x36C JUMP JUMPDEST PUSH3 0x3BF PUSH3 0x3B6 DUP3 PUSH3 0x393 JUMP JUMPDEST DUP5 DUP5 SLOAD PUSH3 0x305 JUMP JUMPDEST DUP3 SSTORE POP POP POP POP JUMP JUMPDEST PUSH0 SWAP1 JUMP JUMPDEST PUSH3 0x3D5 PUSH3 0x3C7 JUMP JUMPDEST PUSH3 0x3E2 DUP2 DUP5 DUP5 PUSH3 0x39C JUMP JUMPDEST POP POP POP JUMP JUMPDEST JUMPDEST DUP2 DUP2 LT ISZERO PUSH3 0x409 JUMPI PUSH3 0x3FD PUSH0 DUP3 PUSH3 0x3CB JUMP JUMPDEST PUSH1 0x1 DUP2 ADD SWAP1 POP PUSH3 0x3E8 JUMP JUMPDEST POP POP JUMP JUMPDEST PUSH1 0x1F DUP3 GT ISZERO PUSH3 0x458 JUMPI PUSH3 0x422 DUP2 PUSH3 0x2D8 JUMP JUMPDEST PUSH3 0x42D DUP5 PUSH3 0x2EA JUMP JUMPDEST DUP2 ADD PUSH1 0x20 DUP6 LT ISZERO PUSH3 0x43D JUMPI DUP2 SWAP1 POP JUMPDEST PUSH3 0x455 PUSH3 0x44C DUP6 PUSH3 0x2EA JUMP JUMPDEST DUP4 ADD DUP3 PUSH3 0x3E7 JUMP JUMPDEST POP POP JUMPDEST POP POP POP JUMP JUMPDEST PUSH0 DUP3 DUP3 SHR SWAP1 POP SWAP3 SWAP2 POP POP JUMP JUMPDEST PUSH0 PUSH3 0x47A PUSH0 NOT DUP5 PUSH1 0x8 MUL PUSH3 0x45D JUMP JUMPDEST NOT DUP1 DUP4 AND SWAP2 POP POP SWAP3 SWAP2 POP POP JUMP JUMPDEST PUSH0 PUSH3 0x494 DUP4 DUP4 PUSH3 0x469 JUMP JUMPDEST SWAP2 POP DUP3 PUSH1 0x2 MUL DUP3 OR SWAP1 POP SWAP3 SWAP2 POP POP JUMP JUMPDEST PUSH3 0x4AF DUP3 PUSH3 0x26D JUMP JUMPDEST PUSH8 0xFFFFFFFFFFFFFFFF DUP2 GT ISZERO PUSH3 0x4CB JUMPI PUSH3 0x4CA PUSH3 0x8E JUMP JUMPDEST JUMPDEST PUSH3 0x4D7 DUP3 SLOAD PUSH3 0x2A4 JUMP JUMPDEST PUSH3 0x4E4 DUP3 DUP3 DUP6 PUSH3 0x40D JUMP JUMPDEST PUSH0 PUSH1 0x20 SWAP1 POP PUSH1 0x1F DUP4 GT PUSH1 0x1 DUP2 EQ PUSH3 0x51A JUMPI PUSH0 DUP5 ISZERO PUSH3 0x505 JUMPI DUP3 DUP8 ADD MLOAD SWAP1 POP JUMPDEST PUSH3 0x511 DUP6 DUP3 PUSH3 0x487 JUMP JUMPDEST DUP7 SSTORE POP PUSH3 0x580 JUMP JUMPDEST PUSH1 0x1F NOT DUP5 AND PUSH3 0x52A DUP7 PUSH3 0x2D8 JUMP JUMPDEST PUSH0 JUMPDEST DUP3 DUP2 LT ISZERO PUSH3 0x553 JUMPI DUP5 DUP10 ADD MLOAD DUP3 SSTORE PUSH1 0x1 DUP3 ADD SWAP2 POP PUSH1 0x20 DUP6 ADD SWAP5 POP PUSH1 0x20 DUP2 ADD SWAP1 POP PUSH3 0x52C JUMP JUMPDEST DUP7 DUP4 LT ISZERO PUSH3 0x573 JUMPI DUP5 DUP10 ADD MLOAD PUSH3 0x56F PUSH1 0x1F DUP10 AND DUP3 PUSH3 0x469 JUMP JUMPDEST DUP4 SSTORE POP JUMPDEST PUSH1 0x1 PUSH1 0x2 DUP9 MUL ADD DUP9 SSTORE POP POP POP JUMPDEST POP POP POP POP POP POP JUMP JUMPDEST PUSH2 0x2902 DUP1 PUSH3 0x596 PUSH0 CODECOPY PUSH0 RETURN INVALID PUSH1 0x80 PUSH1 0x40 MSTORE CALLVALUE DUP1 ISZERO PUSH2 0xF JUMPI PUSH0 DUP1 REVERT JUMPDEST POP PUSH1 0x4 CALLDATASIZE LT PUSH2 0x113 JUMPI PUSH0 CALLDATALOAD PUSH1 0xE0 SHR DUP1 PUSH4 0x70A08231 GT PUSH2 0xA0 JUMPI DUP1 PUSH4 0xB88D4FDE GT PUSH2 0x6F JUMPI DUP1 PUSH4 0xB88D4FDE EQ PUSH2 0x2EC JUMPI DUP1 PUSH4 0xC87B56DD EQ PUSH2 0x308 JUMPI DUP1 PUSH4 0xE6E2D08E EQ PUSH2 0x338 JUMPI DUP1 PUSH4 0xE985E9C5 EQ PUSH2 0x36A JUMPI DUP1 PUSH4 0xF119F567 EQ PUSH2 0x39A JUMPI PUSH2 0x113 JUMP JUMPDEST DUP1 PUSH4 0x70A08231 EQ PUSH2 0x251 JUMPI DUP1 PUSH4 0x95D89B41 EQ PUSH2 0x281 JUMPI DUP1 PUSH4 0xA22CB465 EQ PUSH2 0x29F JUMPI DUP1 PUSH4 0xB564EA86 EQ PUSH2 0x2BB JUMPI PUSH2 0x113 JUMP JUMPDEST DUP1 PUSH4 0x95EA7B3 GT PUSH2 0xE7 JUMPI DUP1 PUSH4 0x95EA7B3 EQ PUSH2 0x1B1 JUMPI DUP1 PUSH4 0x162094C4 EQ PUSH2 0x1CD JUMPI DUP1 PUSH4 0x23B872DD EQ PUSH2 0x1E9 JUMPI DUP1 PUSH4 0x42842E0E EQ PUSH2 0x205 JUMPI DUP1 PUSH4 0x6352211E EQ PUSH2 0x221 JUMPI PUSH2 0x113 JUMP JUMPDEST DUP1 PUSH3 0xE00064 EQ PUSH2 0x117 JUMPI DUP1 PUSH4 0x1FFC9A7 EQ PUSH2 0x133 JUMPI DUP1 PUSH4 0x6FDDE03 EQ PUSH2 0x163 JUMPI DUP1 PUSH4 0x81812FC EQ PUSH2 0x181 JUMPI JUMPDEST PUSH0 DUP1 REVERT JUMPDEST PUSH2 0x131 PUSH1 0x4 DUP1 CALLDATASIZE SUB DUP2 ADD SWAP1 PUSH2 0x12C SWAP2 SWAP1 PUSH2 0x1C34 JUMP JUMPDEST PUSH2 0x3B6 JUMP JUMPDEST STOP JUMPDEST PUSH2 0x14D PUSH1 0x4 DUP1 CALLDATASIZE SUB DUP2 ADD SWAP1 PUSH2 0x148 SWAP2 SWAP1 PUSH2 0x1CB4 JUMP JUMPDEST PUSH2 0x623 JUMP JUMPDEST PUSH1 0x40 MLOAD PUSH2 0x15A SWAP2 SWAP1 PUSH2 0x1CF9 JUMP JUMPDEST PUSH1 0x40 MLOAD DUP1 SWAP2 SUB SWAP1 RETURN JUMPDEST PUSH2 0x16B PUSH2 0x634 JUMP JUMPDEST PUSH1 0x40 MLOAD PUSH2 0x178 SWAP2 SWAP1 PUSH2 0x1D9C JUMP JUMPDEST PUSH1 0x40 MLOAD DUP1 SWAP2 SUB SWAP1 RETURN JUMPDEST PUSH2 0x19B PUSH1 0x4 DUP1 CALLDATASIZE SUB DUP2 ADD SWAP1 PUSH2 0x196 SWAP2 SWAP1 PUSH2 0x1C34 JUMP JUMPDEST PUSH2 0x6C3 JUMP JUMPDEST PUSH1 0x40 MLOAD PUSH2 0x1A8 SWAP2 SWAP1 PUSH2 0x1DFB JUMP JUMPDEST PUSH1 0x40 MLOAD DUP1 SWAP2 SUB SWAP1 RETURN JUMPDEST PUSH2 0x1CB PUSH1 0x4 DUP1 CALLDATASIZE SUB DUP2 ADD SWAP1 PUSH2 0x1C6 SWAP2 SWAP1 PUSH2 0x1E3E JUMP JUMPDEST PUSH2 0x6DE JUMP JUMPDEST STOP JUMPDEST PUSH2 0x1E7 PUSH1 0x4 DUP1 CALLDATASIZE SUB DUP2 ADD SWAP1 PUSH2 0x1E2 SWAP2 SWAP1 PUSH2 0x1EDD JUMP JUMPDEST PUSH2 0x6F4 JUMP JUMPDEST STOP JUMPDEST PUSH2 0x203 PUSH1 0x4 DUP1 CALLDATASIZE SUB DUP2 ADD SWAP1 PUSH2 0x1FE SWAP2 SWAP1 PUSH2 0x1F3A JUMP JUMPDEST PUSH2 0x71A JUMP JUMPDEST STOP JUMPDEST PUSH2 0x21F PUSH1 0x4 DUP1 CALLDATASIZE SUB DUP2 ADD SWAP1 PUSH2 0x21A SWAP2 SWAP1 PUSH2 0x1F3A JUMP JUMPDEST PUSH2 0x819 JUMP JUMPDEST STOP JUMPDEST PUSH2 0x23B PUSH1 0x4 DUP1 CALLDATASIZE SUB DUP2 ADD SWAP1 PUSH2 0x236 SWAP2 SWAP1 PUSH2 0x1C34 JUMP JUMPDEST PUSH2 0x838 JUMP JUMPDEST PUSH1 0x40 MLOAD PUSH2 0x248 SWAP2 SWAP1 PUSH2 0x1DFB JUMP JUMPDEST PUSH1 0x40 MLOAD DUP1 SWAP2 SUB SWAP1 RETURN JUMPDEST PUSH2 0x26B PUSH1 0x4 DUP1 CALLDATASIZE SUB DUP2 ADD SWAP1 PUSH2 0x266 SWAP2 SWAP1 PUSH2 0x1F8A JUMP JUMPDEST PUSH2 0x849 JUMP JUMPDEST PUSH1 0x40 MLOAD PUSH2 0x278 SWAP2 SWAP1 PUSH2 0x1FC4 JUMP JUMPDEST PUSH1 0x40 MLOAD DUP1 SWAP2 SUB SWAP1 RETURN JUMPDEST PUSH2 0x289 PUSH2 0x8FF JUMP JUMPDEST PUSH1 0x40 MLOAD PUSH2 0x296 SWAP2 SWAP1 PUSH2 0x1D9C JUMP JUMPDEST PUSH1 0x40 MLOAD DUP1 SWAP2 SUB SWAP1 RETURN JUMPDEST PUSH2 0x2B9 PUSH1 0x4 DUP1 CALLDATASIZE SUB DUP2 ADD SWAP1 PUSH2 0x2B4 SWAP2 SWAP1 PUSH2 0x2007 JUMP JUMPDEST PUSH2 0x98F JUMP JUMPDEST STOP JUMPDEST PUSH2 0x2D5 PUSH1 0x4 DUP1 CALLDATASIZE SUB DUP2 ADD SWAP1 PUSH2 0x2D0 SWAP2 SWAP1 PUSH2 0x1C34 JUMP JUMPDEST PUSH2 0x9A5 JUMP JUMPDEST PUSH1 0x40 MLOAD PUSH2 0x2E3 SWAP3 SWAP2 SWAP1 PUSH2 0x20B8 JUMP JUMPDEST PUSH1 0x40 MLOAD DUP1 SWAP2 SUB SWAP1 RETURN JUMPDEST PUSH2 0x306 PUSH1 0x4 DUP1 CALLDATASIZE SUB DUP2 ADD SWAP1 PUSH2 0x301 SWAP2 SWAP1 PUSH2 0x2207 JUMP JUMPDEST PUSH2 0xADA JUMP JUMPDEST STOP JUMPDEST PUSH2 0x322 PUSH1 0x4 DUP1 CALLDATASIZE SUB DUP2 ADD SWAP1 PUSH2 0x31D SWAP2 SWAP1 PUSH2 0x1C34 JUMP JUMPDEST PUSH2 0xAF7 JUMP JUMPDEST PUSH1 0x40 MLOAD PUSH2 0x32F SWAP2 SWAP1 PUSH2 0x1D9C JUMP JUMPDEST PUSH1 0x40 MLOAD DUP1 SWAP2 SUB SWAP1 RETURN JUMPDEST PUSH2 0x352 PUSH1 0x4 DUP1 CALLDATASIZE SUB DUP2 ADD SWAP1 PUSH2 0x34D SWAP2 SWAP1 PUSH2 0x1C34 JUMP JUMPDEST PUSH2 0xB98 JUMP JUMPDEST PUSH1 0x40 MLOAD PUSH2 0x361 SWAP4 SWAP3 SWAP2 SWAP1 PUSH2 0x2287 JUMP JUMPDEST PUSH1 0x40 MLOAD DUP1 SWAP2 SUB SWAP1 RETURN JUMPDEST PUSH2 0x384 PUSH1 0x4 DUP1 CALLDATASIZE SUB DUP2 ADD SWAP1 PUSH2 0x37F SWAP2 SWAP1 PUSH2 0x22BC JUMP JUMPDEST PUSH2 0xBBE JUMP JUMPDEST PUSH1 0x40 MLOAD PUSH2 0x391 SWAP2 SWAP1 PUSH2 0x1CF9 JUMP JUMPDEST PUSH1 0x40 MLOAD DUP1 SWAP2 SUB SWAP1 RETURN JUMPDEST PUSH2 0x3B4 PUSH1 0x4 DUP1 CALLDATASIZE SUB DUP2 ADD SWAP1 PUSH2 0x3AF SWAP2 SWAP1 PUSH2 0x1C34 JUMP JUMPDEST PUSH2 0xC4C JUMP JUMPDEST STOP JUMPDEST PUSH1 0x3 DUP1 DUP2 GT ISZERO PUSH2 0x3C9 JUMPI PUSH2 0x3C8 PUSH2 0x2045 JUMP JUMPDEST JUMPDEST PUSH1 0x7 PUSH0 DUP4 DUP2 MSTORE PUSH1 0x20 ADD SWAP1 DUP2 MSTORE PUSH1 0x20 ADD PUSH0 KECCAK256 PUSH0 SWAP1 SLOAD SWAP1 PUSH2 0x100 EXP SWAP1 DIV PUSH1 0xFF AND PUSH1 0x3 DUP2 GT ISZERO PUSH2 0x3F9 JUMPI PUSH2 0x3F8 PUSH2 0x2045 JUMP JUMPDEST JUMPDEST SUB PUSH2 0x439 JUMPI PUSH1 0x40 MLOAD PUSH32 0x8C379A000000000000000000000000000000000000000000000000000000000 DUP2 MSTORE PUSH1 0x4 ADD PUSH2 0x430 SWAP1 PUSH2 0x2344 JUMP JUMPDEST PUSH1 0x40 MLOAD DUP1 SWAP2 SUB SWAP1 REVERT JUMPDEST PUSH0 PUSH1 0x7 PUSH0 DUP4 DUP2 MSTORE PUSH1 0x20 ADD SWAP1 DUP2 MSTORE PUSH1 0x20 ADD PUSH0 KECCAK256 PUSH0 SWAP1 SLOAD SWAP1 PUSH2 0x100 EXP SWAP1 DIV PUSH1 0xFF AND SWAP1 POP PUSH0 PUSH1 0x3 DUP2 GT ISZERO PUSH2 0x46D JUMPI PUSH2 0x46C PUSH2 0x2045 JUMP JUMPDEST JUMPDEST DUP2 PUSH1 0x3 DUP2 GT ISZERO PUSH2 0x480 JUMPI PUSH2 0x47F PUSH2 0x2045 JUMP JUMPDEST JUMPDEST SUB PUSH2 0x4EF JUMPI PUSH2 0x2A30 PUSH1 0xA PUSH0 DUP5 DUP2 MSTORE PUSH1 0x20 ADD SWAP1 DUP2 MSTORE PUSH1 0x20 ADD PUSH0 KECCAK256 PUSH0 ADD SLOAD LT PUSH2 0x4D1 JUMPI PUSH2 0x2A30 PUSH1 0xA PUSH0 DUP5 DUP2 MSTORE PUSH1 0x20 ADD SWAP1 DUP2 MSTORE PUSH1 0x20 ADD PUSH0 KECCAK256 PUSH0 ADD PUSH0 DUP3 DUP3 SLOAD PUSH2 0x4C5 SWAP2 SWAP1 PUSH2 0x238F JUMP JUMPDEST SWAP3 POP POP DUP2 SWAP1 SSTORE POP PUSH2 0x4EA JUMP JUMPDEST PUSH0 PUSH1 0xA PUSH0 DUP5 DUP2 MSTORE PUSH1 0x20 ADD SWAP1 DUP2 MSTORE PUSH1 0x20 ADD PUSH0 KECCAK256 PUSH0 ADD DUP2 SWAP1 SSTORE POP JUMPDEST PUSH2 0x61F JUMP JUMPDEST PUSH1 0x1 PUSH1 0x3 DUP2 GT ISZERO PUSH2 0x503 JUMPI PUSH2 0x502 PUSH2 0x2045 JUMP JUMPDEST JUMPDEST DUP2 PUSH1 0x3 DUP2 GT ISZERO PUSH2 0x516 JUMPI PUSH2 0x515 PUSH2 0x2045 JUMP JUMPDEST JUMPDEST SUB PUSH2 0x588 JUMPI PUSH2 0x2A30 PUSH1 0xA PUSH0 DUP5 DUP2 MSTORE PUSH1 0x20 ADD SWAP1 DUP2 MSTORE PUSH1 0x20 ADD PUSH0 KECCAK256 PUSH1 0x1 ADD SLOAD LT PUSH2 0x569 JUMPI PUSH2 0x2A30 PUSH1 0xA PUSH0 DUP5 DUP2 MSTORE PUSH1 0x20 ADD SWAP1 DUP2 MSTORE PUSH1 0x20 ADD PUSH0 KECCAK256 PUSH1 0x1 ADD PUSH0 DUP3 DUP3 SLOAD PUSH2 0x55D SWAP2 SWAP1 PUSH2 0x238F JUMP JUMPDEST SWAP3 POP POP DUP2 SWAP1 SSTORE POP PUSH2 0x583 JUMP JUMPDEST PUSH0 PUSH1 0xA PUSH0 DUP5 DUP2 MSTORE PUSH1 0x20 ADD SWAP1 DUP2 MSTORE PUSH1 0x20 ADD PUSH0 KECCAK256 PUSH1 0x1 ADD DUP2 SWAP1 SSTORE POP JUMPDEST PUSH2 0x61E JUMP JUMPDEST PUSH1 0x2 PUSH1 0x3 DUP2 GT ISZERO PUSH2 0x59C JUMPI PUSH2 0x59B PUSH2 0x2045 JUMP JUMPDEST JUMPDEST DUP2 PUSH1 0x3 DUP2 GT ISZERO PUSH2 0x5AF JUMPI PUSH2 0x5AE PUSH2 0x2045 JUMP JUMPDEST JUMPDEST SUB PUSH2 0x61D JUMPI PUSH2 0x2A30 PUSH1 0xA PUSH0 DUP5 DUP2 MSTORE PUSH1 0x20 ADD SWAP1 DUP2 MSTORE PUSH1 0x20 ADD PUSH0 KECCAK256 PUSH1 0x2 ADD SLOAD LT PUSH2 0x602 JUMPI PUSH2 0x2A30 PUSH1 0xA PUSH0 DUP5 DUP2 MSTORE PUSH1 0x20 ADD SWAP1 DUP2 MSTORE PUSH1 0x20 ADD PUSH0 KECCAK256 PUSH1 0x2 ADD PUSH0 DUP3 DUP3 SLOAD PUSH2 0x5F6 SWAP2 SWAP1 PUSH2 0x238F JUMP JUMPDEST SWAP3 POP POP DUP2 SWAP1 SSTORE POP PUSH2 0x61C JUMP JUMPDEST PUSH0 PUSH1 0xA PUSH0 DUP5 DUP2 MSTORE PUSH1 0x20 ADD SWAP1 DUP2 MSTORE PUSH1 0x20 ADD PUSH0 KECCAK256 PUSH1 0x2 ADD DUP2 SWAP1 SSTORE POP JUMPDEST JUMPDEST JUMPDEST JUMPDEST POP POP JUMP JUMPDEST PUSH0 PUSH2 0x62D DUP3 PUSH2 0xE8B JUMP JUMPDEST SWAP1 POP SWAP2 SWAP1 POP JUMP JUMPDEST PUSH1 0x60 PUSH0 DUP1 SLOAD PUSH2 0x642 SWAP1 PUSH2 0x23EF JUMP JUMPDEST DUP1 PUSH1 0x1F ADD PUSH1 0x20 DUP1 SWAP2 DIV MUL PUSH1 0x20 ADD PUSH1 0x40 MLOAD SWAP1 DUP2 ADD PUSH1 0x40 MSTORE DUP1 SWAP3 SWAP2 SWAP1 DUP2 DUP2 MSTORE PUSH1 0x20 ADD DUP3 DUP1 SLOAD PUSH2 0x66E SWAP1 PUSH2 0x23EF JUMP JUMPDEST DUP1 ISZERO PUSH2 0x6B9 JUMPI DUP1 PUSH1 0x1F LT PUSH2 0x690 JUMPI PUSH2 0x100 DUP1 DUP4 SLOAD DIV MUL DUP4 MSTORE SWAP2 PUSH1 0x20 ADD SWAP2 PUSH2 0x6B9 JUMP JUMPDEST DUP3 ADD SWAP2 SWAP1 PUSH0 MSTORE PUSH1 0x20 PUSH0 KECCAK256 SWAP1 JUMPDEST DUP2 SLOAD DUP2 MSTORE SWAP1 PUSH1 0x1 ADD SWAP1 PUSH1 0x20 ADD DUP1 DUP4 GT PUSH2 0x69C JUMPI DUP3 SWAP1 SUB PUSH1 0x1F AND DUP3 ADD SWAP2 JUMPDEST POP POP POP POP POP SWAP1 POP SWAP1 JUMP JUMPDEST PUSH0 PUSH2 0x6CD DUP3 PUSH2 0xEEB JUMP JUMPDEST POP PUSH2 0x6D7 DUP3 PUSH2 0xF71 JUMP JUMPDEST SWAP1 POP SWAP2 SWAP1 POP JUMP JUMPDEST PUSH2 0x6F0 DUP3 DUP3 PUSH2 0x6EB PUSH2 0xFAA JUMP JUMPDEST PUSH2 0xFB1 JUMP JUMPDEST POP POP JUMP JUMPDEST DUP2 DUP2 PUSH1 0x8 PUSH0 DUP7 DUP2 MSTORE PUSH1 0x20 ADD SWAP1 DUP2 MSTORE PUSH1 0x20 ADD PUSH0 KECCAK256 SWAP2 DUP3 PUSH2 0x714 SWAP3 SWAP2 SWAP1 PUSH2 0x25C6 JUMP JUMPDEST POP POP POP POP JUMP JUMPDEST PUSH0 PUSH20 0xFFFFFFFFFFFFFFFFFFFFFFFFFFFFFFFFFFFFFFFF AND DUP3 PUSH20 0xFFFFFFFFFFFFFFFFFFFFFFFFFFFFFFFFFFFFFFFF AND SUB PUSH2 0x78A JUMPI PUSH0 PUSH1 0x40 MLOAD PUSH32 0x64A0AE9200000000000000000000000000000000000000000000000000000000 DUP2 MSTORE PUSH1 0x4 ADD PUSH2 0x781 SWAP2 SWAP1 PUSH2 0x1DFB JUMP JUMPDEST PUSH1 0x40 MLOAD DUP1 SWAP2 SUB SWAP1 REVERT JUMPDEST PUSH0 PUSH2 0x79D DUP4 DUP4 PUSH2 0x798 PUSH2 0xFAA JUMP JUMPDEST PUSH2 0xFC3 JUMP JUMPDEST SWAP1 POP DUP4 PUSH20 0xFFFFFFFFFFFFFFFFFFFFFFFFFFFFFFFFFFFFFFFF AND DUP2 PUSH20 0xFFFFFFFFFFFFFFFFFFFFFFFFFFFFFFFFFFFFFFFF AND EQ PUSH2 0x813 JUMPI DUP4 DUP3 DUP3 PUSH1 0x40 MLOAD PUSH32 0x64283D7B00000000000000000000000000000000000000000000000000000000 DUP2 MSTORE PUSH1 0x4 ADD PUSH2 0x80A SWAP4 SWAP3 SWAP2 SWAP1 PUSH2 0x2693 JUMP JUMPDEST PUSH1 0x40 MLOAD DUP1 SWAP2 SUB SWAP1 REVERT JUMPDEST POP POP POP POP JUMP JUMPDEST PUSH2 0x833 DUP4 DUP4 DUP4 PUSH1 0x40 MLOAD DUP1 PUSH1 0x20 ADD PUSH1 0x40 MSTORE DUP1 PUSH0 DUP2 MSTORE POP PUSH2 0xADA JUMP JUMPDEST POP POP POP JUMP JUMPDEST PUSH0 PUSH2 0x842 DUP3 PUSH2 0xEEB JUMP JUMPDEST SWAP1 POP SWAP2 SWAP1 POP JUMP JUMPDEST PUSH0 DUP1 PUSH20 0xFFFFFFFFFFFFFFFFFFFFFFFFFFFFFFFFFFFFFFFF AND DUP3 PUSH20 0xFFFFFFFFFFFFFFFFFFFFFFFFFFFFFFFFFFFFFFFF AND SUB PUSH2 0x8BA JUMPI PUSH0 PUSH1 0x40 MLOAD PUSH32 0x89C62B6400000000000000000000000000000000000000000000000000000000 DUP2 MSTORE PUSH1 0x4 ADD PUSH2 0x8B1 SWAP2 SWAP1 PUSH2 0x1DFB JUMP JUMPDEST PUSH1 0x40 MLOAD DUP1 SWAP2 SUB SWAP1 REVERT JUMPDEST PUSH1 0x3 PUSH0 DUP4 PUSH20 0xFFFFFFFFFFFFFFFFFFFFFFFFFFFFFFFFFFFFFFFF AND PUSH20 0xFFFFFFFFFFFFFFFFFFFFFFFFFFFFFFFFFFFFFFFF AND DUP2 MSTORE PUSH1 0x20 ADD SWAP1 DUP2 MSTORE PUSH1 0x20 ADD PUSH0 KECCAK256 SLOAD SWAP1 POP SWAP2 SWAP1 POP JUMP JUMPDEST PUSH1 0x60 PUSH1 0x1 DUP1 SLOAD PUSH2 0x90E SWAP1 PUSH2 0x23EF JUMP JUMPDEST DUP1 PUSH1 0x1F ADD PUSH1 0x20 DUP1 SWAP2 DIV MUL PUSH1 0x20 ADD PUSH1 0x40 MLOAD SWAP1 DUP2 ADD PUSH1 0x40 MSTORE DUP1 SWAP3 SWAP2 SWAP1 DUP2 DUP2 MSTORE PUSH1 0x20 ADD DUP3 DUP1 SLOAD PUSH2 0x93A SWAP1 PUSH2 0x23EF JUMP JUMPDEST DUP1 ISZERO PUSH2 0x985 JUMPI DUP1 PUSH1 0x1F LT PUSH2 0x95C JUMPI PUSH2 0x100 DUP1 DUP4 SLOAD DIV MUL DUP4 MSTORE SWAP2 PUSH1 0x20 ADD SWAP2 PUSH2 0x985 JUMP JUMPDEST DUP3 ADD SWAP2 SWAP1 PUSH0 MSTORE PUSH1 0x20 PUSH0 KECCAK256 SWAP1 JUMPDEST DUP2 SLOAD DUP2 MSTORE SWAP1 PUSH1 0x1 ADD SWAP1 PUSH1 0x20 ADD DUP1 DUP4 GT PUSH2 0x968 JUMPI DUP3 SWAP1 SUB PUSH1 0x1F AND DUP3 ADD SWAP2 JUMPDEST POP POP POP POP POP SWAP1 POP SWAP1 JUMP JUMPDEST PUSH2 0x9A1 PUSH2 0x99A PUSH2 0xFAA JUMP JUMPDEST DUP4 DUP4 PUSH2 0x11CE JUMP JUMPDEST POP POP JUMP JUMPDEST PUSH0 DUP1 PUSH1 0x7 PUSH0 DUP5 DUP2 MSTORE PUSH1 0x20 ADD SWAP1 DUP2 MSTORE PUSH1 0x20 ADD PUSH0 KECCAK256 PUSH0 SWAP1 SLOAD SWAP1 PUSH2 0x100 EXP SWAP1 DIV PUSH1 0xFF AND SWAP2 POP PUSH0 TIMESTAMP SWAP1 POP PUSH0 PUSH1 0x3 DUP2 GT ISZERO PUSH2 0x9DE JUMPI PUSH2 0x9DD PUSH2 0x2045 JUMP JUMPDEST JUMPDEST DUP4 PUSH1 0x3 DUP2 GT ISZERO PUSH2 0x9F1 JUMPI PUSH2 0x9F0 PUSH2 0x2045 JUMP JUMPDEST JUMPDEST SUB PUSH2 0xA1C JUMPI DUP1 PUSH1 0xA PUSH0 DUP7 DUP2 MSTORE PUSH1 0x20 ADD SWAP1 DUP2 MSTORE PUSH1 0x20 ADD PUSH0 KECCAK256 PUSH0 ADD SLOAD PUSH2 0xA15 SWAP2 SWAP1 PUSH2 0x238F JUMP JUMPDEST SWAP2 POP PUSH2 0xAC8 JUMP JUMPDEST PUSH1 0x1 PUSH1 0x3 DUP2 GT ISZERO PUSH2 0xA30 JUMPI PUSH2 0xA2F PUSH2 0x2045 JUMP JUMPDEST JUMPDEST DUP4 PUSH1 0x3 DUP2 GT ISZERO PUSH2 0xA43 JUMPI PUSH2 0xA42 PUSH2 0x2045 JUMP JUMPDEST JUMPDEST SUB PUSH2 0xA6F JUMPI DUP1 PUSH1 0xA PUSH0 DUP7 DUP2 MSTORE PUSH1 0x20 ADD SWAP1 DUP2 MSTORE PUSH1 0x20 ADD PUSH0 KECCAK256 PUSH1 0x1 ADD SLOAD PUSH2 0xA68 SWAP2 SWAP1 PUSH2 0x238F JUMP JUMPDEST SWAP2 POP PUSH2 0xAC7 JUMP JUMPDEST PUSH1 0x2 PUSH1 0x3 DUP2 GT ISZERO PUSH2 0xA83 JUMPI PUSH2 0xA82 PUSH2 0x2045 JUMP JUMPDEST JUMPDEST DUP4 PUSH1 0x3 DUP2 GT ISZERO PUSH2 0xA96 JUMPI PUSH2 0xA95 PUSH2 0x2045 JUMP JUMPDEST JUMPDEST SUB PUSH2 0xAC2 JUMPI DUP1 PUSH1 0xA PUSH0 DUP7 DUP2 MSTORE PUSH1 0x20 ADD SWAP1 DUP2 MSTORE PUSH1 0x20 ADD PUSH0 KECCAK256 PUSH1 0x2 ADD SLOAD PUSH2 0xABB SWAP2 SWAP1 PUSH2 0x238F JUMP JUMPDEST SWAP2 POP PUSH2 0xAC6 JUMP JUMPDEST PUSH0 SWAP2 POP JUMPDEST JUMPDEST JUMPDEST PUSH0 DUP3 LT ISZERO PUSH2 0xAD4 JUMPI PUSH0 SWAP2 POP JUMPDEST POP SWAP2 POP SWAP2 JUMP JUMPDEST PUSH2 0xAE5 DUP5 DUP5 DUP5 PUSH2 0x71A JUMP JUMPDEST PUSH2 0xAF1 DUP5 DUP5 DUP5 DUP5 PUSH2 0x1337 JUMP JUMPDEST POP POP POP POP JUMP JUMPDEST PUSH1 0x60 PUSH1 0x8 PUSH0 DUP4 DUP2 MSTORE PUSH1 0x20 ADD SWAP1 DUP2 MSTORE PUSH1 0x20 ADD PUSH0 KECCAK256 DUP1 SLOAD PUSH2 0xB15 SWAP1 PUSH2 0x23EF JUMP JUMPDEST DUP1 PUSH1 0x1F ADD PUSH1 0x20 DUP1 SWAP2 DIV MUL PUSH1 0x20 ADD PUSH1 0x40 MLOAD SWAP1 DUP2 ADD PUSH1 0x40 MSTORE DUP1 SWAP3 SWAP2 SWAP1 DUP2 DUP2 MSTORE PUSH1 0x20 ADD DUP3 DUP1 SLOAD PUSH2 0xB41 SWAP1 PUSH2 0x23EF JUMP JUMPDEST DUP1 ISZERO PUSH2 0xB8C JUMPI DUP1 PUSH1 0x1F LT PUSH2 0xB63 JUMPI PUSH2 0x100 DUP1 DUP4 SLOAD DIV MUL DUP4 MSTORE SWAP2 PUSH1 0x20 ADD SWAP2 PUSH2 0xB8C JUMP JUMPDEST DUP3 ADD SWAP2 SWAP1 PUSH0 MSTORE PUSH1 0x20 PUSH0 KECCAK256 SWAP1 JUMPDEST DUP2 SLOAD DUP2 MSTORE SWAP1 PUSH1 0x1 ADD SWAP1 PUSH1 0x20 ADD DUP1 DUP4 GT PUSH2 0xB6F JUMPI DUP3 SWAP1 SUB PUSH1 0x1F AND DUP3 ADD SWAP2 JUMPDEST POP POP POP POP POP SWAP1 POP SWAP2 SWAP1 POP JUMP JUMPDEST PUSH1 0xA PUSH1 0x20 MSTORE DUP1 PUSH0 MSTORE PUSH1 0x40 PUSH0 KECCAK256 PUSH0 SWAP2 POP SWAP1 POP DUP1 PUSH0 ADD SLOAD SWAP1 DUP1 PUSH1 0x1 ADD SLOAD SWAP1 DUP1 PUSH1 0x2 ADD SLOAD SWAP1 POP DUP4 JUMP JUMPDEST PUSH0 PUSH1 0x5 PUSH0 DUP5 PUSH20 0xFFFFFFFFFFFFFFFFFFFFFFFFFFFFFFFFFFFFFFFF AND PUSH20 0xFFFFFFFFFFFFFFFFFFFFFFFFFFFFFFFFFFFFFFFF AND DUP2 MSTORE PUSH1 0x20 ADD SWAP1 DUP2 MSTORE PUSH1 0x20 ADD PUSH0 KECCAK256 PUSH0 DUP4 PUSH20 0xFFFFFFFFFFFFFFFFFFFFFFFFFFFFFFFFFFFFFFFF AND PUSH20 0xFFFFFFFFFFFFFFFFFFFFFFFFFFFFFFFFFFFFFFFF AND DUP2 MSTORE PUSH1 0x20 ADD SWAP1 DUP2 MSTORE PUSH1 0x20 ADD PUSH0 KECCAK256 PUSH0 SWAP1 SLOAD SWAP1 PUSH2 0x100 EXP SWAP1 DIV PUSH1 0xFF AND SWAP1 POP SWAP3 SWAP2 POP POP JUMP JUMPDEST PUSH0 PUSH1 0x7 PUSH0 DUP4 DUP2 MSTORE PUSH1 0x20 ADD SWAP1 DUP2 MSTORE PUSH1 0x20 ADD PUSH0 KECCAK256 PUSH0 SWAP1 SLOAD SWAP1 PUSH2 0x100 EXP SWAP1 DIV PUSH1 0xFF AND SWAP1 POP PUSH0 PUSH1 0x3 DUP2 GT ISZERO PUSH2 0xC80 JUMPI PUSH2 0xC7F PUSH2 0x2045 JUMP JUMPDEST JUMPDEST DUP2 PUSH1 0x3 DUP2 GT ISZERO PUSH2 0xC93 JUMPI PUSH2 0xC92 PUSH2 0x2045 JUMP JUMPDEST JUMPDEST EQ DUP1 ISZERO PUSH2 0xCB3 JUMPI POP PUSH1 0xA PUSH0 DUP4 DUP2 MSTORE PUSH1 0x20 ADD SWAP1 DUP2 MSTORE PUSH1 0x20 ADD PUSH0 KECCAK256 PUSH0 ADD SLOAD TIMESTAMP LT ISZERO JUMPDEST ISZERO PUSH2 0xD1C JUMPI PUSH1 0x1 PUSH1 0x7 PUSH0 DUP5 DUP2 MSTORE PUSH1 0x20 ADD SWAP1 DUP2 MSTORE PUSH1 0x20 ADD PUSH0 KECCAK256 PUSH0 PUSH2 0x100 EXP DUP2 SLOAD DUP2 PUSH1 0xFF MUL NOT AND SWAP1 DUP4 PUSH1 0x3 DUP2 GT ISZERO PUSH2 0xCEC JUMPI PUSH2 0xCEB PUSH2 0x2045 JUMP JUMPDEST JUMPDEST MUL OR SWAP1 SSTORE POP PUSH3 0x2A300 TIMESTAMP PUSH2 0xD00 SWAP2 SWAP1 PUSH2 0x26C8 JUMP JUMPDEST PUSH1 0xA PUSH0 DUP5 DUP2 MSTORE PUSH1 0x20 ADD SWAP1 DUP2 MSTORE PUSH1 0x20 ADD PUSH0 KECCAK256 PUSH0 ADD DUP2 SWAP1 SSTORE POP PUSH2 0xE7E JUMP JUMPDEST PUSH1 0x1 PUSH1 0x3 DUP2 GT ISZERO PUSH2 0xD30 JUMPI PUSH2 0xD2F PUSH2 0x2045 JUMP JUMPDEST JUMPDEST DUP2 PUSH1 0x3 DUP2 GT ISZERO PUSH2 0xD43 JUMPI PUSH2 0xD42 PUSH2 0x2045 JUMP JUMPDEST JUMPDEST EQ DUP1 ISZERO PUSH2 0xD64 JUMPI POP PUSH1 0xA PUSH0 DUP4 DUP2 MSTORE PUSH1 0x20 ADD SWAP1 DUP2 MSTORE PUSH1 0x20 ADD PUSH0 KECCAK256 PUSH1 0x1 ADD SLOAD TIMESTAMP LT ISZERO JUMPDEST ISZERO PUSH2 0xDCE JUMPI PUSH1 0x2 PUSH1 0x7 PUSH0 DUP5 DUP2 MSTORE PUSH1 0x20 ADD SWAP1 DUP2 MSTORE PUSH1 0x20 ADD PUSH0 KECCAK256 PUSH0 PUSH2 0x100 EXP DUP2 SLOAD DUP2 PUSH1 0xFF MUL NOT AND SWAP1 DUP4 PUSH1 0x3 DUP2 GT ISZERO PUSH2 0xD9D JUMPI PUSH2 0xD9C PUSH2 0x2045 JUMP JUMPDEST JUMPDEST MUL OR SWAP1 SSTORE POP PUSH3 0x2A300 TIMESTAMP PUSH2 0xDB1 SWAP2 SWAP1 PUSH2 0x26C8 JUMP JUMPDEST PUSH1 0xA PUSH0 DUP5 DUP2 MSTORE PUSH1 0x20 ADD SWAP1 DUP2 MSTORE PUSH1 0x20 ADD PUSH0 KECCAK256 PUSH1 0x1 ADD DUP2 SWAP1 SSTORE POP PUSH2 0xE7D JUMP JUMPDEST PUSH1 0x2 PUSH1 0x3 DUP2 GT ISZERO PUSH2 0xDE2 JUMPI PUSH2 0xDE1 PUSH2 0x2045 JUMP JUMPDEST JUMPDEST DUP2 PUSH1 0x3 DUP2 GT ISZERO PUSH2 0xDF5 JUMPI PUSH2 0xDF4 PUSH2 0x2045 JUMP JUMPDEST JUMPDEST EQ DUP1 ISZERO PUSH2 0xE16 JUMPI POP PUSH1 0xA PUSH0 DUP4 DUP2 MSTORE PUSH1 0x20 ADD SWAP1 DUP2 MSTORE PUSH1 0x20 ADD PUSH0 KECCAK256 PUSH1 0x2 ADD SLOAD TIMESTAMP LT ISZERO JUMPDEST ISZERO PUSH2 0xE7C JUMPI PUSH1 0x3 PUSH1 0x7 PUSH0 DUP5 DUP2 MSTORE PUSH1 0x20 ADD SWAP1 DUP2 MSTORE PUSH1 0x20 ADD PUSH0 KECCAK256 PUSH0 PUSH2 0x100 EXP DUP2 SLOAD DUP2 PUSH1 0xFF MUL NOT AND SWAP1 DUP4 PUSH1 0x3 DUP2 GT ISZERO PUSH2 0xE4F JUMPI PUSH2 0xE4E PUSH2 0x2045 JUMP JUMPDEST JUMPDEST MUL OR SWAP1 SSTORE POP PUSH3 0x3F480 TIMESTAMP PUSH2 0xE63 SWAP2 SWAP1 PUSH2 0x26C8 JUMP JUMPDEST PUSH1 0xA PUSH0 DUP5 DUP2 MSTORE PUSH1 0x20 ADD SWAP1 DUP2 MSTORE PUSH1 0x20 ADD PUSH0 KECCAK256 PUSH1 0x2 ADD DUP2 SWAP1 SSTORE POP JUMPDEST JUMPDEST JUMPDEST PUSH2 0xE87 DUP3 PUSH2 0x14E9 JUMP JUMPDEST POP POP JUMP JUMPDEST PUSH0 PUSH4 0x49064906 PUSH1 0xE0 SHL PUSH28 0xFFFFFFFFFFFFFFFFFFFFFFFFFFFFFFFFFFFFFFFFFFFFFFFFFFFFFFFF NOT AND DUP3 PUSH28 0xFFFFFFFFFFFFFFFFFFFFFFFFFFFFFFFFFFFFFFFFFFFFFFFFFFFFFFFF NOT AND EQ DUP1 PUSH2 0xEE4 JUMPI POP PUSH2 0xEE3 DUP3 PUSH2 0x172B JUMP JUMPDEST JUMPDEST SWAP1 POP SWAP2 SWAP1 POP JUMP JUMPDEST PUSH0 DUP1 PUSH2 0xEF6 DUP4 PUSH2 0x180C JUMP JUMPDEST SWAP1 POP PUSH0 PUSH20 0xFFFFFFFFFFFFFFFFFFFFFFFFFFFFFFFFFFFFFFFF AND DUP2 PUSH20 0xFFFFFFFFFFFFFFFFFFFFFFFFFFFFFFFFFFFFFFFF AND SUB PUSH2 0xF68 JUMPI DUP3 PUSH1 0x40 MLOAD PUSH32 0x7E27328900000000000000000000000000000000000000000000000000000000 DUP2 MSTORE PUSH1 0x4 ADD PUSH2 0xF5F SWAP2 SWAP1 PUSH2 0x1FC4 JUMP JUMPDEST PUSH1 0x40 MLOAD DUP1 SWAP2 SUB SWAP1 REVERT JUMPDEST DUP1 SWAP2 POP POP SWAP2 SWAP1 POP JUMP JUMPDEST PUSH0 PUSH1 0x4 PUSH0 DUP4 DUP2 MSTORE PUSH1 0x20 ADD SWAP1 DUP2 MSTORE PUSH1 0x20 ADD PUSH0 KECCAK256 PUSH0 SWAP1 SLOAD SWAP1 PUSH2 0x100 EXP SWAP1 DIV PUSH20 0xFFFFFFFFFFFFFFFFFFFFFFFFFFFFFFFFFFFFFFFF AND SWAP1 POP SWAP2 SWAP1 POP JUMP JUMPDEST PUSH0 CALLER SWAP1 POP SWAP1 JUMP JUMPDEST PUSH2 0xFBE DUP4 DUP4 DUP4 PUSH1 0x1 PUSH2 0x1845 JUMP JUMPDEST POP POP POP JUMP JUMPDEST PUSH0 DUP1 PUSH2 0xFCE DUP5 PUSH2 0x180C JUMP JUMPDEST SWAP1 POP PUSH0 PUSH20 0xFFFFFFFFFFFFFFFFFFFFFFFFFFFFFFFFFFFFFFFF AND DUP4 PUSH20 0xFFFFFFFFFFFFFFFFFFFFFFFFFFFFFFFFFFFFFFFF AND EQ PUSH2 0x100F JUMPI PUSH2 0x100E DUP2 DUP5 DUP7 PUSH2 0x1A04 JUMP JUMPDEST JUMPDEST PUSH0 PUSH20 0xFFFFFFFFFFFFFFFFFFFFFFFFFFFFFFFFFFFFFFFF AND DUP2 PUSH20 0xFFFFFFFFFFFFFFFFFFFFFFFFFFFFFFFFFFFFFFFF AND EQ PUSH2 0x109A JUMPI PUSH2 0x104E PUSH0 DUP6 PUSH0 DUP1 PUSH2 0x1845 JUMP JUMPDEST PUSH1 0x1 PUSH1 0x3 PUSH0 DUP4 PUSH20 0xFFFFFFFFFFFFFFFFFFFFFFFFFFFFFFFFFFFFFFFF AND PUSH20 0xFFFFFFFFFFFFFFFFFFFFFFFFFFFFFFFFFFFFFFFF AND DUP2 MSTORE PUSH1 0x20 ADD SWAP1 DUP2 MSTORE PUSH1 0x20 ADD PUSH0 KECCAK256 PUSH0 DUP3 DUP3 SLOAD SUB SWAP3 POP POP DUP2 SWAP1 SSTORE POP JUMPDEST PUSH0 PUSH20 0xFFFFFFFFFFFFFFFFFFFFFFFFFFFFFFFFFFFFFFFF AND DUP6 PUSH20 0xFFFFFFFFFFFFFFFFFFFFFFFFFFFFFFFFFFFFFFFF AND EQ PUSH2 0x1119 JUMPI PUSH1 0x1 PUSH1 0x3 PUSH0 DUP8 PUSH20 0xFFFFFFFFFFFFFFFFFFFFFFFFFFFFFFFFFFFFFFFF AND PUSH20 0xFFFFFFFFFFFFFFFFFFFFFFFFFFFFFFFFFFFFFFFF AND DUP2 MSTORE PUSH1 0x20 ADD SWAP1 DUP2 MSTORE PUSH1 0x20 ADD PUSH0 KECCAK256 PUSH0 DUP3 DUP3 SLOAD ADD SWAP3 POP POP DUP2 SWAP1 SSTORE POP JUMPDEST DUP5 PUSH1 0x2 PUSH0 DUP7 DUP2 MSTORE PUSH1 0x20 ADD SWAP1 DUP2 MSTORE PUSH1 0x20 ADD PUSH0 KECCAK256 PUSH0 PUSH2 0x100 EXP DUP2 SLOAD DUP2 PUSH20 0xFFFFFFFFFFFFFFFFFFFFFFFFFFFFFFFFFFFFFFFF MUL NOT AND SWAP1 DUP4 PUSH20 0xFFFFFFFFFFFFFFFFFFFFFFFFFFFFFFFFFFFFFFFF AND MUL OR SWAP1 SSTORE POP DUP4 DUP6 PUSH20 0xFFFFFFFFFFFFFFFFFFFFFFFFFFFFFFFFFFFFFFFF AND DUP3 PUSH20 0xFFFFFFFFFFFFFFFFFFFFFFFFFFFFFFFFFFFFFFFF AND PUSH32 0xDDF252AD1BE2C89B69C2B068FC378DAA952BA7F163C4A11628F55A4DF523B3EF PUSH1 0x40 MLOAD PUSH1 0x40 MLOAD DUP1 SWAP2 SUB SWAP1 LOG4 DUP1 SWAP2 POP POP SWAP4 SWAP3 POP POP POP JUMP JUMPDEST PUSH0 PUSH20 0xFFFFFFFFFFFFFFFFFFFFFFFFFFFFFFFFFFFFFFFF AND DUP3 PUSH20 0xFFFFFFFFFFFFFFFFFFFFFFFFFFFFFFFFFFFFFFFF AND SUB PUSH2 0x123E JUMPI DUP2 PUSH1 0x40 MLOAD PUSH32 0x5B08BA1800000000000000000000000000000000000000000000000000000000 DUP2 MSTORE PUSH1 0x4 ADD PUSH2 0x1235 SWAP2 SWAP1 PUSH2 0x1DFB JUMP JUMPDEST PUSH1 0x40 MLOAD DUP1 SWAP2 SUB SWAP1 REVERT JUMPDEST DUP1 PUSH1 0x5 PUSH0 DUP6 PUSH20 0xFFFFFFFFFFFFFFFFFFFFFFFFFFFFFFFFFFFFFFFF AND PUSH20 0xFFFFFFFFFFFFFFFFFFFFFFFFFFFFFFFFFFFFFFFF AND DUP2 MSTORE PUSH1 0x20 ADD SWAP1 DUP2 MSTORE PUSH1 0x20 ADD PUSH0 KECCAK256 PUSH0 DUP5 PUSH20 0xFFFFFFFFFFFFFFFFFFFFFFFFFFFFFFFFFFFFFFFF AND PUSH20 0xFFFFFFFFFFFFFFFFFFFFFFFFFFFFFFFFFFFFFFFF AND DUP2 MSTORE PUSH1 0x20 ADD SWAP1 DUP2 MSTORE PUSH1 0x20 ADD PUSH0 KECCAK256 PUSH0 PUSH2 0x100 EXP DUP2 SLOAD DUP2 PUSH1 0xFF MUL NOT AND SWAP1 DUP4 ISZERO ISZERO MUL OR SWAP1 SSTORE POP DUP2 PUSH20 0xFFFFFFFFFFFFFFFFFFFFFFFFFFFFFFFFFFFFFFFF AND DUP4 PUSH20 0xFFFFFFFFFFFFFFFFFFFFFFFFFFFFFFFFFFFFFFFF AND PUSH32 0x17307EAB39AB6107E8899845AD3D59BD9653F200F220920489CA2B5937696C31 DUP4 PUSH1 0x40 MLOAD PUSH2 0x132A SWAP2 SWAP1 PUSH2 0x1CF9 JUMP JUMPDEST PUSH1 0x40 MLOAD DUP1 SWAP2 SUB SWAP1 LOG3 POP POP POP JUMP JUMPDEST PUSH0 DUP4 PUSH20 0xFFFFFFFFFFFFFFFFFFFFFFFFFFFFFFFFFFFFFFFF AND EXTCODESIZE GT ISZERO PUSH2 0x14E3 JUMPI DUP3 PUSH20 0xFFFFFFFFFFFFFFFFFFFFFFFFFFFFFFFFFFFFFFFF AND PUSH4 0x150B7A02 PUSH2 0x137A PUSH2 0xFAA JUMP JUMPDEST DUP7 DUP6 DUP6 PUSH1 0x40 MLOAD DUP6 PUSH4 0xFFFFFFFF AND PUSH1 0xE0 SHL DUP2 MSTORE PUSH1 0x4 ADD PUSH2 0x139C SWAP5 SWAP4 SWAP3 SWAP2 SWAP1 PUSH2 0x274D JUMP JUMPDEST PUSH1 0x20 PUSH1 0x40 MLOAD DUP1 DUP4 SUB DUP2 PUSH0 DUP8 GAS CALL SWAP3 POP POP POP DUP1 ISZERO PUSH2 0x13D7 JUMPI POP PUSH1 0x40 MLOAD RETURNDATASIZE PUSH1 0x1F NOT PUSH1 0x1F DUP3 ADD AND DUP3 ADD DUP1 PUSH1 0x40 MSTORE POP DUP2 ADD SWAP1 PUSH2 0x13D4 SWAP2 SWAP1 PUSH2 0x27AB JUMP JUMPDEST PUSH1 0x1 JUMPDEST PUSH2 0x1458 JUMPI RETURNDATASIZE DUP1 PUSH0 DUP2 EQ PUSH2 0x1405 JUMPI PUSH1 0x40 MLOAD SWAP2 POP PUSH1 0x1F NOT PUSH1 0x3F RETURNDATASIZE ADD AND DUP3 ADD PUSH1 0x40 MSTORE RETURNDATASIZE DUP3 MSTORE RETURNDATASIZE PUSH0 PUSH1 0x20 DUP5 ADD RETURNDATACOPY PUSH2 0x140A JUMP JUMPDEST PUSH1 0x60 SWAP2 POP JUMPDEST POP PUSH0 DUP2 MLOAD SUB PUSH2 0x1450 JUMPI DUP4 PUSH1 0x40 MLOAD PUSH32 0x64A0AE9200000000000000000000000000000000000000000000000000000000 DUP2 MSTORE PUSH1 0x4 ADD PUSH2 0x1447 SWAP2 SWAP1 PUSH2 0x1DFB JUMP JUMPDEST PUSH1 0x40 MLOAD DUP1 SWAP2 SUB SWAP1 REVERT JUMPDEST DUP1 MLOAD DUP2 PUSH1 0x20 ADD REVERT JUMPDEST PUSH4 0x150B7A02 PUSH1 0xE0 SHL PUSH28 0xFFFFFFFFFFFFFFFFFFFFFFFFFFFFFFFFFFFFFFFFFFFFFFFFFFFFFFFF NOT AND DUP2 PUSH28 0xFFFFFFFFFFFFFFFFFFFFFFFFFFFFFFFFFFFFFFFFFFFFFFFFFFFFFFFF NOT AND EQ PUSH2 0x14E1 JUMPI DUP4 PUSH1 0x40 MLOAD PUSH32 0x64A0AE9200000000000000000000000000000000000000000000000000000000 DUP2 MSTORE PUSH1 0x4 ADD PUSH2 0x14D8 SWAP2 SWAP1 PUSH2 0x1DFB JUMP JUMPDEST PUSH1 0x40 MLOAD DUP1 SWAP2 SUB SWAP1 REVERT JUMPDEST POP JUMPDEST POP POP POP POP JUMP JUMPDEST PUSH0 PUSH1 0x7 PUSH0 DUP4 DUP2 MSTORE PUSH1 0x20 ADD SWAP1 DUP2 MSTORE PUSH1 0x20 ADD PUSH0 KECCAK256 PUSH0 SWAP1 SLOAD SWAP1 PUSH2 0x100 EXP SWAP1 DIV PUSH1 0xFF AND SWAP1 POP PUSH0 PUSH1 0x3 DUP2 GT ISZERO PUSH2 0x151D JUMPI PUSH2 0x151C PUSH2 0x2045 JUMP JUMPDEST JUMPDEST DUP2 PUSH1 0x3 DUP2 GT ISZERO PUSH2 0x1530 JUMPI PUSH2 0x152F PUSH2 0x2045 JUMP JUMPDEST JUMPDEST SUB PUSH2 0x1591 JUMPI PUSH1 0x40 MLOAD DUP1 PUSH1 0x40 ADD PUSH1 0x40 MSTORE DUP1 PUSH1 0x3 DUP2 MSTORE PUSH1 0x20 ADD PUSH32 0x6567670000000000000000000000000000000000000000000000000000000000 DUP2 MSTORE POP PUSH1 0x9 PUSH0 DUP5 DUP2 MSTORE PUSH1 0x20 ADD SWAP1 DUP2 MSTORE PUSH1 0x20 ADD PUSH0 KECCAK256 PUSH1 0x5 ADD SWAP1 DUP2 PUSH2 0x158B SWAP2 SWAP1 PUSH2 0x27D6 JUMP JUMPDEST POP PUSH2 0x1727 JUMP JUMPDEST PUSH1 0x1 PUSH1 0x3 DUP2 GT ISZERO PUSH2 0x15A5 JUMPI PUSH2 0x15A4 PUSH2 0x2045 JUMP JUMPDEST JUMPDEST DUP2 PUSH1 0x3 DUP2 GT ISZERO PUSH2 0x15B8 JUMPI PUSH2 0x15B7 PUSH2 0x2045 JUMP JUMPDEST JUMPDEST SUB PUSH2 0x1619 JUMPI PUSH1 0x40 MLOAD DUP1 PUSH1 0x40 ADD PUSH1 0x40 MSTORE DUP1 PUSH1 0x5 DUP2 MSTORE PUSH1 0x20 ADD PUSH32 0x6861746368000000000000000000000000000000000000000000000000000000 DUP2 MSTORE POP PUSH1 0x9 PUSH0 DUP5 DUP2 MSTORE PUSH1 0x20 ADD SWAP1 DUP2 MSTORE PUSH1 0x20 ADD PUSH0 KECCAK256 PUSH1 0x5 ADD SWAP1 DUP2 PUSH2 0x1613 SWAP2 SWAP1 PUSH2 0x27D6 JUMP JUMPDEST POP PUSH2 0x1726 JUMP JUMPDEST PUSH1 0x2 PUSH1 0x3 DUP2 GT ISZERO PUSH2 0x162D JUMPI PUSH2 0x162C PUSH2 0x2045 JUMP JUMPDEST JUMPDEST DUP2 PUSH1 0x3 DUP2 GT ISZERO PUSH2 0x1640 JUMPI PUSH2 0x163F PUSH2 0x2045 JUMP JUMPDEST JUMPDEST SUB PUSH2 0x16A1 JUMPI PUSH1 0x40 MLOAD DUP1 PUSH1 0x40 ADD PUSH1 0x40 MSTORE DUP1 PUSH1 0x9 DUP2 MSTORE PUSH1 0x20 ADD PUSH32 0x68617463686C696E670000000000000000000000000000000000000000000000 DUP2 MSTORE POP PUSH1 0x9 PUSH0 DUP5 DUP2 MSTORE PUSH1 0x20 ADD SWAP1 DUP2 MSTORE PUSH1 0x20 ADD PUSH0 KECCAK256 PUSH1 0x5 ADD SWAP1 DUP2 PUSH2 0x169B SWAP2 SWAP1 PUSH2 0x27D6 JUMP JUMPDEST POP PUSH2 0x1725 JUMP JUMPDEST PUSH1 0x3 DUP1 DUP2 GT ISZERO PUSH2 0x16B4 JUMPI PUSH2 0x16B3 PUSH2 0x2045 JUMP JUMPDEST JUMPDEST DUP2 PUSH1 0x3 DUP2 GT ISZERO PUSH2 0x16C7 JUMPI PUSH2 0x16C6 PUSH2 0x2045 JUMP JUMPDEST JUMPDEST SUB PUSH2 0x1724 JUMPI PUSH1 0x40 MLOAD DUP1 PUSH1 0x40 ADD PUSH1 0x40 MSTORE DUP1 PUSH1 0x5 DUP2 MSTORE PUSH1 0x20 ADD PUSH32 0x6164756C74000000000000000000000000000000000000000000000000000000 DUP2 MSTORE POP PUSH1 0x9 PUSH0 DUP5 DUP2 MSTORE PUSH1 0x20 ADD SWAP1 DUP2 MSTORE PUSH1 0x20 ADD PUSH0 KECCAK256 PUSH1 0x5 ADD SWAP1 DUP2 PUSH2 0x1722 SWAP2 SWAP1 PUSH2 0x27D6 JUMP JUMPDEST POP JUMPDEST JUMPDEST JUMPDEST JUMPDEST POP POP JUMP JUMPDEST PUSH0 PUSH32 0x80AC58CD00000000000000000000000000000000000000000000000000000000 PUSH28 0xFFFFFFFFFFFFFFFFFFFFFFFFFFFFFFFFFFFFFFFFFFFFFFFFFFFFFFFF NOT AND DUP3 PUSH28 0xFFFFFFFFFFFFFFFFFFFFFFFFFFFFFFFFFFFFFFFFFFFFFFFFFFFFFFFF NOT AND EQ DUP1 PUSH2 0x17F5 JUMPI POP PUSH32 0x5B5E139F00000000000000000000000000000000000000000000000000000000 PUSH28 0xFFFFFFFFFFFFFFFFFFFFFFFFFFFFFFFFFFFFFFFFFFFFFFFFFFFFFFFF NOT AND DUP3 PUSH28 0xFFFFFFFFFFFFFFFFFFFFFFFFFFFFFFFFFFFFFFFFFFFFFFFFFFFFFFFF NOT AND EQ JUMPDEST DUP1 PUSH2 0x1805 JUMPI POP PUSH2 0x1804 DUP3 PUSH2 0x1AC7 JUMP JUMPDEST JUMPDEST SWAP1 POP SWAP2 SWAP1 POP JUMP JUMPDEST PUSH0 PUSH1 0x2 PUSH0 DUP4 DUP2 MSTORE PUSH1 0x20 ADD SWAP1 DUP2 MSTORE PUSH1 0x20 ADD PUSH0 KECCAK256 PUSH0 SWAP1 SLOAD SWAP1 PUSH2 0x100 EXP SWAP1 DIV PUSH20 0xFFFFFFFFFFFFFFFFFFFFFFFFFFFFFFFFFFFFFFFF AND SWAP1 POP SWAP2 SWAP1 POP JUMP JUMPDEST DUP1 DUP1 PUSH2 0x187D JUMPI POP PUSH0 PUSH20 0xFFFFFFFFFFFFFFFFFFFFFFFFFFFFFFFFFFFFFFFF AND DUP3 PUSH20 0xFFFFFFFFFFFFFFFFFFFFFFFFFFFFFFFFFFFFFFFF AND EQ ISZERO JUMPDEST ISZERO PUSH2 0x19AF JUMPI PUSH0 PUSH2 0x188C DUP5 PUSH2 0xEEB JUMP JUMPDEST SWAP1 POP PUSH0 PUSH20 0xFFFFFFFFFFFFFFFFFFFFFFFFFFFFFFFFFFFFFFFF AND DUP4 PUSH20 0xFFFFFFFFFFFFFFFFFFFFFFFFFFFFFFFFFFFFFFFF AND EQ ISZERO DUP1 ISZERO PUSH2 0x18F6 JUMPI POP DUP3 PUSH20 0xFFFFFFFFFFFFFFFFFFFFFFFFFFFFFFFFFFFFFFFF AND DUP2 PUSH20 0xFFFFFFFFFFFFFFFFFFFFFFFFFFFFFFFFFFFFFFFF AND EQ ISZERO JUMPDEST DUP1 ISZERO PUSH2 0x1909 JUMPI POP PUSH2 0x1907 DUP2 DUP5 PUSH2 0xBBE JUMP JUMPDEST ISZERO JUMPDEST ISZERO PUSH2 0x194B JUMPI DUP3 PUSH1 0x40 MLOAD PUSH32 0xA9FBF51F00000000000000000000000000000000000000000000000000000000 DUP2 MSTORE PUSH1 0x4 ADD PUSH2 0x1942 SWAP2 SWAP1 PUSH2 0x1DFB JUMP JUMPDEST PUSH1 0x40 MLOAD DUP1 SWAP2 SUB SWAP1 REVERT JUMPDEST DUP2 ISZERO PUSH2 0x19AD JUMPI DUP4 DUP6 PUSH20 0xFFFFFFFFFFFFFFFFFFFFFFFFFFFFFFFFFFFFFFFF AND DUP3 PUSH20 0xFFFFFFFFFFFFFFFFFFFFFFFFFFFFFFFFFFFFFFFF AND PUSH32 0x8C5BE1E5EBEC7D5BD14F71427D1E84F3DD0314C0F7B2291E5B200AC8C7C3B925 PUSH1 0x40 MLOAD PUSH1 0x40 MLOAD DUP1 SWAP2 SUB SWAP1 LOG4 JUMPDEST POP JUMPDEST DUP4 PUSH1 0x4 PUSH0 DUP6 DUP2 MSTORE PUSH1 0x20 ADD SWAP1 DUP2 MSTORE PUSH1 0x20 ADD PUSH0 KECCAK256 PUSH0 PUSH2 0x100 EXP DUP2 SLOAD DUP2 PUSH20 0xFFFFFFFFFFFFFFFFFFFFFFFFFFFFFFFFFFFFFFFF MUL NOT AND SWAP1 DUP4 PUSH20 0xFFFFFFFFFFFFFFFFFFFFFFFFFFFFFFFFFFFFFFFF AND MUL OR SWAP1 SSTORE POP POP POP POP POP JUMP JUMPDEST PUSH2 0x1A0F DUP4 DUP4 DUP4 PUSH2 0x1B30 JUMP JUMPDEST PUSH2 0x1AC2 JUMPI PUSH0 PUSH20 0xFFFFFFFFFFFFFFFFFFFFFFFFFFFFFFFFFFFFFFFF AND DUP4 PUSH20 0xFFFFFFFFFFFFFFFFFFFFFFFFFFFFFFFFFFFFFFFF AND SUB PUSH2 0x1A83 JUMPI DUP1 PUSH1 0x40 MLOAD PUSH32 0x7E27328900000000000000000000000000000000000000000000000000000000 DUP2 MSTORE PUSH1 0x4 ADD PUSH2 0x1A7A SWAP2 SWAP1 PUSH2 0x1FC4 JUMP JUMPDEST PUSH1 0x40 MLOAD DUP1 SWAP2 SUB SWAP1 REVERT JUMPDEST DUP2 DUP2 PUSH1 0x40 MLOAD PUSH32 0x177E802F00000000000000000000000000000000000000000000000000000000 DUP2 MSTORE PUSH1 0x4 ADD PUSH2 0x1AB9 SWAP3 SWAP2 SWAP1 PUSH2 0x28A5 JUMP JUMPDEST PUSH1 0x40 MLOAD DUP1 SWAP2 SUB SWAP1 REVERT JUMPDEST POP POP POP JUMP JUMPDEST PUSH0 PUSH32 0x1FFC9A700000000000000000000000000000000000000000000000000000000 PUSH28 0xFFFFFFFFFFFFFFFFFFFFFFFFFFFFFFFFFFFFFFFFFFFFFFFFFFFFFFFF NOT AND DUP3 PUSH28 0xFFFFFFFFFFFFFFFFFFFFFFFFFFFFFFFFFFFFFFFFFFFFFFFFFFFFFFFF NOT AND EQ SWAP1 POP SWAP2 SWAP1 POP JUMP JUMPDEST PUSH0 DUP1 PUSH20 0xFFFFFFFFFFFFFFFFFFFFFFFFFFFFFFFFFFFFFFFF AND DUP4 PUSH20 0xFFFFFFFFFFFFFFFFFFFFFFFFFFFFFFFFFFFFFFFF AND EQ ISZERO DUP1 ISZERO PUSH2 0x1BE7 JUMPI POP DUP3 PUSH20 0xFFFFFFFFFFFFFFFFFFFFFFFFFFFFFFFFFFFFFFFF AND DUP5 PUSH20 0xFFFFFFFFFFFFFFFFFFFFFFFFFFFFFFFFFFFFFFFF AND EQ DUP1 PUSH2 0x1BA8 JUMPI POP PUSH2 0x1BA7 DUP5 DUP5 PUSH2 0xBBE JUMP JUMPDEST JUMPDEST DUP1 PUSH2 0x1BE6 JUMPI POP DUP3 PUSH20 0xFFFFFFFFFFFFFFFFFFFFFFFFFFFFFFFFFFFFFFFF AND PUSH2 0x1BCE DUP4 PUSH2 0xF71 JUMP JUMPDEST PUSH20 0xFFFFFFFFFFFFFFFFFFFFFFFFFFFFFFFFFFFFFFFF AND EQ JUMPDEST JUMPDEST SWAP1 POP SWAP4 SWAP3 POP POP POP JUMP JUMPDEST PUSH0 PUSH1 0x40 MLOAD SWAP1 POP SWAP1 JUMP JUMPDEST PUSH0 DUP1 REVERT JUMPDEST PUSH0 DUP1 REVERT JUMPDEST PUSH0 DUP2 SWAP1 POP SWAP2 SWAP1 POP JUMP JUMPDEST PUSH2 0x1C13 DUP2 PUSH2 0x1C01 JUMP JUMPDEST DUP2 EQ PUSH2 0x1C1D JUMPI PUSH0 DUP1 REVERT JUMPDEST POP JUMP JUMPDEST PUSH0 DUP2 CALLDATALOAD SWAP1 POP PUSH2 0x1C2E DUP2 PUSH2 0x1C0A JUMP JUMPDEST SWAP3 SWAP2 POP POP JUMP JUMPDEST PUSH0 PUSH1 0x20 DUP3 DUP5 SUB SLT ISZERO PUSH2 0x1C49 JUMPI PUSH2 0x1C48 PUSH2 0x1BF9 JUMP JUMPDEST JUMPDEST PUSH0 PUSH2 0x1C56 DUP5 DUP3 DUP6 ADD PUSH2 0x1C20 JUMP JUMPDEST SWAP2 POP POP SWAP3 SWAP2 POP POP JUMP JUMPDEST PUSH0 PUSH32 0xFFFFFFFF00000000000000000000000000000000000000000000000000000000 DUP3 AND SWAP1 POP SWAP2 SWAP1 POP JUMP JUMPDEST PUSH2 0x1C93 DUP2 PUSH2 0x1C5F JUMP JUMPDEST DUP2 EQ PUSH2 0x1C9D JUMPI PUSH0 DUP1 REVERT JUMPDEST POP JUMP JUMPDEST PUSH0 DUP2 CALLDATALOAD SWAP1 POP PUSH2 0x1CAE DUP2 PUSH2 0x1C8A JUMP JUMPDEST SWAP3 SWAP2 POP POP JUMP JUMPDEST PUSH0 PUSH1 0x20 DUP3 DUP5 SUB SLT ISZERO PUSH2 0x1CC9 JUMPI PUSH2 0x1CC8 PUSH2 0x1BF9 JUMP JUMPDEST JUMPDEST PUSH0 PUSH2 0x1CD6 DUP5 DUP3 DUP6 ADD PUSH2 0x1CA0 JUMP JUMPDEST SWAP2 POP POP SWAP3 SWAP2 POP POP JUMP JUMPDEST PUSH0 DUP2 ISZERO ISZERO SWAP1 POP SWAP2 SWAP1 POP JUMP JUMPDEST PUSH2 0x1CF3 DUP2 PUSH2 0x1CDF JUMP JUMPDEST DUP3 MSTORE POP POP JUMP JUMPDEST PUSH0 PUSH1 0x20 DUP3 ADD SWAP1 POP PUSH2 0x1D0C PUSH0 DUP4 ADD DUP5 PUSH2 0x1CEA JUMP JUMPDEST SWAP3 SWAP2 POP POP JUMP JUMPDEST PUSH0 DUP2 MLOAD SWAP1 POP SWAP2 SWAP1 POP JUMP JUMPDEST PUSH0 DUP3 DUP3 MSTORE PUSH1 0x20 DUP3 ADD SWAP1 POP SWAP3 SWAP2 POP POP JUMP JUMPDEST PUSH0 JUMPDEST DUP4 DUP2 LT ISZERO PUSH2 0x1D49 JUMPI DUP1 DUP3 ADD MLOAD DUP2 DUP5 ADD MSTORE PUSH1 0x20 DUP2 ADD SWAP1 POP PUSH2 0x1D2E JUMP JUMPDEST PUSH0 DUP5 DUP5 ADD MSTORE POP POP POP POP JUMP JUMPDEST PUSH0 PUSH1 0x1F NOT PUSH1 0x1F DUP4 ADD AND SWAP1 POP SWAP2 SWAP1 POP JUMP JUMPDEST PUSH0 PUSH2 0x1D6E DUP3 PUSH2 0x1D12 JUMP JUMPDEST PUSH2 0x1D78 DUP2 DUP6 PUSH2 0x1D1C JUMP JUMPDEST SWAP4 POP PUSH2 0x1D88 DUP2 DUP6 PUSH1 0x20 DUP7 ADD PUSH2 0x1D2C JUMP JUMPDEST PUSH2 0x1D91 DUP2 PUSH2 0x1D54 JUMP JUMPDEST DUP5 ADD SWAP2 POP POP SWAP3 SWAP2 POP POP JUMP JUMPDEST PUSH0 PUSH1 0x20 DUP3 ADD SWAP1 POP DUP2 DUP2 SUB PUSH0 DUP4 ADD MSTORE PUSH2 0x1DB4 DUP2 DUP5 PUSH2 0x1D64 JUMP JUMPDEST SWAP1 POP SWAP3 SWAP2 POP POP JUMP JUMPDEST PUSH0 PUSH20 0xFFFFFFFFFFFFFFFFFFFFFFFFFFFFFFFFFFFFFFFF DUP3 AND SWAP1 POP SWAP2 SWAP1 POP JUMP JUMPDEST PUSH0 PUSH2 0x1DE5 DUP3 PUSH2 0x1DBC JUMP JUMPDEST SWAP1 POP SWAP2 SWAP1 POP JUMP JUMPDEST PUSH2 0x1DF5 DUP2 PUSH2 0x1DDB JUMP JUMPDEST DUP3 MSTORE POP POP JUMP JUMPDEST PUSH0 PUSH1 0x20 DUP3 ADD SWAP1 POP PUSH2 0x1E0E PUSH0 DUP4 ADD DUP5 PUSH2 0x1DEC JUMP JUMPDEST SWAP3 SWAP2 POP POP JUMP JUMPDEST PUSH2 0x1E1D DUP2 PUSH2 0x1DDB JUMP JUMPDEST DUP2 EQ PUSH2 0x1E27 JUMPI PUSH0 DUP1 REVERT JUMPDEST POP JUMP JUMPDEST PUSH0 DUP2 CALLDATALOAD SWAP1 POP PUSH2 0x1E38 DUP2 PUSH2 0x1E14 JUMP JUMPDEST SWAP3 SWAP2 POP POP JUMP JUMPDEST PUSH0 DUP1 PUSH1 0x40 DUP4 DUP6 SUB SLT ISZERO PUSH2 0x1E54 JUMPI PUSH2 0x1E53 PUSH2 0x1BF9 JUMP JUMPDEST JUMPDEST PUSH0 PUSH2 0x1E61 DUP6 DUP3 DUP7 ADD PUSH2 0x1E2A JUMP JUMPDEST SWAP3 POP POP PUSH1 0x20 PUSH2 0x1E72 DUP6 DUP3 DUP7 ADD PUSH2 0x1C20 JUMP JUMPDEST SWAP2 POP POP SWAP3 POP SWAP3 SWAP1 POP JUMP JUMPDEST PUSH0 DUP1 REVERT JUMPDEST PUSH0 DUP1 REVERT JUMPDEST PUSH0 DUP1 REVERT JUMPDEST PUSH0 DUP1 DUP4 PUSH1 0x1F DUP5 ADD SLT PUSH2 0x1E9D JUMPI PUSH2 0x1E9C PUSH2 0x1E7C JUMP JUMPDEST JUMPDEST DUP3 CALLDATALOAD SWAP1 POP PUSH8 0xFFFFFFFFFFFFFFFF DUP2 GT ISZERO PUSH2 0x1EBA JUMPI PUSH2 0x1EB9 PUSH2 0x1E80 JUMP JUMPDEST JUMPDEST PUSH1 0x20 DUP4 ADD SWAP2 POP DUP4 PUSH1 0x1 DUP3 MUL DUP4 ADD GT ISZERO PUSH2 0x1ED6 JUMPI PUSH2 0x1ED5 PUSH2 0x1E84 JUMP JUMPDEST JUMPDEST SWAP3 POP SWAP3 SWAP1 POP JUMP JUMPDEST PUSH0 DUP1 PUSH0 PUSH1 0x40 DUP5 DUP7 SUB SLT ISZERO PUSH2 0x1EF4 JUMPI PUSH2 0x1EF3 PUSH2 0x1BF9 JUMP JUMPDEST JUMPDEST PUSH0 PUSH2 0x1F01 DUP7 DUP3 DUP8 ADD PUSH2 0x1C20 JUMP JUMPDEST SWAP4 POP POP PUSH1 0x20 DUP5 ADD CALLDATALOAD PUSH8 0xFFFFFFFFFFFFFFFF DUP2 GT ISZERO PUSH2 0x1F22 JUMPI PUSH2 0x1F21 PUSH2 0x1BFD JUMP JUMPDEST JUMPDEST PUSH2 0x1F2E DUP7 DUP3 DUP8 ADD PUSH2 0x1E88 JUMP JUMPDEST SWAP3 POP SWAP3 POP POP SWAP3 POP SWAP3 POP SWAP3 JUMP JUMPDEST PUSH0 DUP1 PUSH0 PUSH1 0x60 DUP5 DUP7 SUB SLT ISZERO PUSH2 0x1F51 JUMPI PUSH2 0x1F50 PUSH2 0x1BF9 JUMP JUMPDEST JUMPDEST PUSH0 PUSH2 0x1F5E DUP7 DUP3 DUP8 ADD PUSH2 0x1E2A JUMP JUMPDEST SWAP4 POP POP PUSH1 0x20 PUSH2 0x1F6F DUP7 DUP3 DUP8 ADD PUSH2 0x1E2A JUMP JUMPDEST SWAP3 POP POP PUSH1 0x40 PUSH2 0x1F80 DUP7 DUP3 DUP8 ADD PUSH2 0x1C20 JUMP JUMPDEST SWAP2 POP POP SWAP3 POP SWAP3 POP SWAP3 JUMP JUMPDEST PUSH0 PUSH1 0x20 DUP3 DUP5 SUB SLT ISZERO PUSH2 0x1F9F JUMPI PUSH2 0x1F9E PUSH2 0x1BF9 JUMP JUMPDEST JUMPDEST PUSH0 PUSH2 0x1FAC DUP5 DUP3 DUP6 ADD PUSH2 0x1E2A JUMP JUMPDEST SWAP2 POP POP SWAP3 SWAP2 POP POP JUMP JUMPDEST PUSH2 0x1FBE DUP2 PUSH2 0x1C01 JUMP JUMPDEST DUP3 MSTORE POP POP JUMP JUMPDEST PUSH0 PUSH1 0x20 DUP3 ADD SWAP1 POP PUSH2 0x1FD7 PUSH0 DUP4 ADD DUP5 PUSH2 0x1FB5 JUMP JUMPDEST SWAP3 SWAP2 POP POP JUMP JUMPDEST PUSH2 0x1FE6 DUP2 PUSH2 0x1CDF JUMP JUMPDEST DUP2 EQ PUSH2 0x1FF0 JUMPI PUSH0 DUP1 REVERT JUMPDEST POP JUMP JUMPDEST PUSH0 DUP2 CALLDATALOAD SWAP1 POP PUSH2 0x2001 DUP2 PUSH2 0x1FDD JUMP JUMPDEST SWAP3 SWAP2 POP POP JUMP JUMPDEST PUSH0 DUP1 PUSH1 0x40 DUP4 DUP6 SUB SLT ISZERO PUSH2 0x201D JUMPI PUSH2 0x201C PUSH2 0x1BF9 JUMP JUMPDEST JUMPDEST PUSH0 PUSH2 0x202A DUP6 DUP3 DUP7 ADD PUSH2 0x1E2A JUMP JUMPDEST SWAP3 POP POP PUSH1 0x20 PUSH2 0x203B DUP6 DUP3 DUP7 ADD PUSH2 0x1FF3 JUMP JUMPDEST SWAP2 POP POP SWAP3 POP SWAP3 SWAP1 POP JUMP JUMPDEST PUSH32 0x4E487B7100000000000000000000000000000000000000000000000000000000 PUSH0 MSTORE PUSH1 0x21 PUSH1 0x4 MSTORE PUSH1 0x24 PUSH0 REVERT JUMPDEST PUSH1 0x4 DUP2 LT PUSH2 0x2083 JUMPI PUSH2 0x2082 PUSH2 0x2045 JUMP JUMPDEST JUMPDEST POP JUMP JUMPDEST PUSH0 DUP2 SWAP1 POP PUSH2 0x2093 DUP3 PUSH2 0x2072 JUMP JUMPDEST SWAP2 SWAP1 POP JUMP JUMPDEST PUSH0 PUSH2 0x20A2 DUP3 PUSH2 0x2086 JUMP JUMPDEST SWAP1 POP SWAP2 SWAP1 POP JUMP JUMPDEST PUSH2 0x20B2 DUP2 PUSH2 0x2098 JUMP JUMPDEST DUP3 MSTORE POP POP JUMP JUMPDEST PUSH0 PUSH1 0x40 DUP3 ADD SWAP1 POP PUSH2 0x20CB PUSH0 DUP4 ADD DUP6 PUSH2 0x20A9 JUMP JUMPDEST PUSH2 0x20D8 PUSH1 0x20 DUP4 ADD DUP5 PUSH2 0x1FB5 JUMP JUMPDEST SWAP4 SWAP3 POP POP POP JUMP JUMPDEST PUSH0 DUP1 REVERT JUMPDEST PUSH32 0x4E487B7100000000000000000000000000000000000000000000000000000000 PUSH0 MSTORE PUSH1 0x41 PUSH1 0x4 MSTORE PUSH1 0x24 PUSH0 REVERT JUMPDEST PUSH2 0x2119 DUP3 PUSH2 0x1D54 JUMP JUMPDEST DUP2 ADD DUP2 DUP2 LT PUSH8 0xFFFFFFFFFFFFFFFF DUP3 GT OR ISZERO PUSH2 0x2138 JUMPI PUSH2 0x2137 PUSH2 0x20E3 JUMP JUMPDEST JUMPDEST DUP1 PUSH1 0x40 MSTORE POP POP POP JUMP JUMPDEST PUSH0 PUSH2 0x214A PUSH2 0x1BF0 JUMP JUMPDEST SWAP1 POP PUSH2 0x2156 DUP3 DUP3 PUSH2 0x2110 JUMP JUMPDEST SWAP2 SWAP1 POP JUMP JUMPDEST PUSH0 PUSH8 0xFFFFFFFFFFFFFFFF DUP3 GT ISZERO PUSH2 0x2175 JUMPI PUSH2 0x2174 PUSH2 0x20E3 JUMP JUMPDEST JUMPDEST PUSH2 0x217E DUP3 PUSH2 0x1D54 JUMP JUMPDEST SWAP1 POP PUSH1 0x20 DUP2 ADD SWAP1 POP SWAP2 SWAP1 POP JUMP JUMPDEST DUP3 DUP2 DUP4 CALLDATACOPY PUSH0 DUP4 DUP4 ADD MSTORE POP POP POP JUMP JUMPDEST PUSH0 PUSH2 0x21AB PUSH2 0x21A6 DUP5 PUSH2 0x215B JUMP JUMPDEST PUSH2 0x2141 JUMP JUMPDEST SWAP1 POP DUP3 DUP2 MSTORE PUSH1 0x20 DUP2 ADD DUP5 DUP5 DUP5 ADD GT ISZERO PUSH2 0x21C7 JUMPI PUSH2 0x21C6 PUSH2 0x20DF JUMP JUMPDEST JUMPDEST PUSH2 0x21D2 DUP5 DUP3 DUP6 PUSH2 0x218B JUMP JUMPDEST POP SWAP4 SWAP3 POP POP POP JUMP JUMPDEST PUSH0 DUP3 PUSH1 0x1F DUP4 ADD SLT PUSH2 0x21EE JUMPI PUSH2 0x21ED PUSH2 0x1E7C JUMP JUMPDEST JUMPDEST DUP2 CALLDATALOAD PUSH2 0x21FE DUP5 DUP3 PUSH1 0x20 DUP7 ADD PUSH2 0x2199 JUMP JUMPDEST SWAP2 POP POP SWAP3 SWAP2 POP POP JUMP JUMPDEST PUSH0 DUP1 PUSH0 DUP1 PUSH1 0x80 DUP6 DUP8 SUB SLT ISZERO PUSH2 0x221F JUMPI PUSH2 0x221E PUSH2 0x1BF9 JUMP JUMPDEST JUMPDEST PUSH0 PUSH2 0x222C DUP8 DUP3 DUP9 ADD PUSH2 0x1E2A JUMP JUMPDEST SWAP5 POP POP PUSH1 0x20 PUSH2 0x223D DUP8 DUP3 DUP9 ADD PUSH2 0x1E2A JUMP JUMPDEST SWAP4 POP POP PUSH1 0x40 PUSH2 0x224E DUP8 DUP3 DUP9 ADD PUSH2 0x1C20 JUMP JUMPDEST SWAP3 POP POP PUSH1 0x60 DUP6 ADD CALLDATALOAD PUSH8 0xFFFFFFFFFFFFFFFF DUP2 GT ISZERO PUSH2 0x226F JUMPI PUSH2 0x226E PUSH2 0x1BFD JUMP JUMPDEST JUMPDEST PUSH2 0x227B DUP8 DUP3 DUP9 ADD PUSH2 0x21DA JUMP JUMPDEST SWAP2 POP POP SWAP3 SWAP6 SWAP2 SWAP5 POP SWAP3 POP JUMP JUMPDEST PUSH0 PUSH1 0x60 DUP3 ADD SWAP1 POP PUSH2 0x229A PUSH0 DUP4 ADD DUP7 PUSH2 0x1FB5 JUMP JUMPDEST PUSH2 0x22A7 PUSH1 0x20 DUP4 ADD DUP6 PUSH2 0x1FB5 JUMP JUMPDEST PUSH2 0x22B4 PUSH1 0x40 DUP4 ADD DUP5 PUSH2 0x1FB5 JUMP JUMPDEST SWAP5 SWAP4 POP POP POP POP JUMP JUMPDEST PUSH0 DUP1 PUSH1 0x40 DUP4 DUP6 SUB SLT ISZERO PUSH2 0x22D2 JUMPI PUSH2 0x22D1 PUSH2 0x1BF9 JUMP JUMPDEST JUMPDEST PUSH0 PUSH2 0x22DF DUP6 DUP3 DUP7 ADD PUSH2 0x1E2A JUMP JUMPDEST SWAP3 POP POP PUSH1 0x20 PUSH2 0x22F0 DUP6 DUP3 DUP7 ADD PUSH2 0x1E2A JUMP JUMPDEST SWAP2 POP POP SWAP3 POP SWAP3 SWAP1 POP JUMP JUMPDEST PUSH32 0x746F6B656E20697320616C7265616479206164756C7400000000000000000000 PUSH0 DUP3 ADD MSTORE POP JUMP JUMPDEST PUSH0 PUSH2 0x232E PUSH1 0x16 DUP4 PUSH2 0x1D1C JUMP JUMPDEST SWAP2 POP PUSH2 0x2339 DUP3 PUSH2 0x22FA JUMP JUMPDEST PUSH1 0x20 DUP3 ADD SWAP1 POP SWAP2 SWAP1 POP JUMP JUMPDEST PUSH0 PUSH1 0x20 DUP3 ADD SWAP1 POP DUP2 DUP2 SUB PUSH0 DUP4 ADD MSTORE PUSH2 0x235B DUP2 PUSH2 0x2322 JUMP JUMPDEST SWAP1 POP SWAP2 SWAP1 POP JUMP JUMPDEST PUSH32 0x4E487B7100000000000000000000000000000000000000000000000000000000 PUSH0 MSTORE PUSH1 0x11 PUSH1 0x4 MSTORE PUSH1 0x24 PUSH0 REVERT JUMPDEST PUSH0 PUSH2 0x2399 DUP3 PUSH2 0x1C01 JUMP JUMPDEST SWAP2 POP PUSH2 0x23A4 DUP4 PUSH2 0x1C01 JUMP JUMPDEST SWAP3 POP DUP3 DUP3 SUB SWAP1 POP DUP2 DUP2 GT ISZERO PUSH2 0x23BC JUMPI PUSH2 0x23BB PUSH2 0x2362 JUMP JUMPDEST JUMPDEST SWAP3 SWAP2 POP POP JUMP JUMPDEST PUSH32 0x4E487B7100000000000000000000000000000000000000000000000000000000 PUSH0 MSTORE PUSH1 0x22 PUSH1 0x4 MSTORE PUSH1 0x24 PUSH0 REVERT JUMPDEST PUSH0 PUSH1 0x2 DUP3 DIV SWAP1 POP PUSH1 0x1 DUP3 AND DUP1 PUSH2 0x2406 JUMPI PUSH1 0x7F DUP3 AND SWAP2 POP JUMPDEST PUSH1 0x20 DUP3 LT DUP2 SUB PUSH2 0x2419 JUMPI PUSH2 0x2418 PUSH2 0x23C2 JUMP JUMPDEST JUMPDEST POP SWAP2 SWAP1 POP JUMP JUMPDEST PUSH0 DUP3 SWAP1 POP SWAP3 SWAP2 POP POP JUMP JUMPDEST PUSH0 DUP2 SWAP1 POP DUP2 PUSH0 MSTORE PUSH1 0x20 PUSH0 KECCAK256 SWAP1 POP SWAP2 SWAP1 POP JUMP JUMPDEST PUSH0 PUSH1 0x20 PUSH1 0x1F DUP4 ADD DIV SWAP1 POP SWAP2 SWAP1 POP JUMP JUMPDEST PUSH0 DUP3 DUP3 SHL SWAP1 POP SWAP3 SWAP2 POP POP JUMP JUMPDEST PUSH0 PUSH1 0x8 DUP4 MUL PUSH2 0x2485 PUSH32 0xFFFFFFFFFFFFFFFFFFFFFFFFFFFFFFFFFFFFFFFFFFFFFFFFFFFFFFFFFFFFFFFF DUP3 PUSH2 0x244A JUMP JUMPDEST PUSH2 0x248F DUP7 DUP4 PUSH2 0x244A JUMP JUMPDEST SWAP6 POP DUP1 NOT DUP5 AND SWAP4 POP DUP1 DUP7 AND DUP5 OR SWAP3 POP POP POP SWAP4 SWAP3 POP POP POP JUMP JUMPDEST PUSH0 DUP2 SWAP1 POP SWAP2 SWAP1 POP JUMP JUMPDEST PUSH0 PUSH2 0x24CA PUSH2 0x24C5 PUSH2 0x24C0 DUP5 PUSH2 0x1C01 JUMP JUMPDEST PUSH2 0x24A7 JUMP JUMPDEST PUSH2 0x1C01 JUMP JUMPDEST SWAP1 POP SWAP2 SWAP1 POP JUMP JUMPDEST PUSH0 DUP2 SWAP1 POP SWAP2 SWAP1 POP JUMP JUMPDEST PUSH2 0x24E3 DUP4 PUSH2 0x24B0 JUMP JUMPDEST PUSH2 0x24F7 PUSH2 0x24EF DUP3 PUSH2 0x24D1 JUMP JUMPDEST DUP5 DUP5 SLOAD PUSH2 0x2456 JUMP JUMPDEST DUP3 SSTORE POP POP POP POP JUMP JUMPDEST PUSH0 SWAP1 JUMP JUMPDEST PUSH2 0x250B PUSH2 0x24FF JUMP JUMPDEST PUSH2 0x2516 DUP2 DUP5 DUP5 PUSH2 0x24DA JUMP JUMPDEST POP POP POP JUMP JUMPDEST JUMPDEST DUP2 DUP2 LT ISZERO PUSH2 0x2539 JUMPI PUSH2 0x252E PUSH0 DUP3 PUSH2 0x2503 JUMP JUMPDEST PUSH1 0x1 DUP2 ADD SWAP1 POP PUSH2 0x251C JUMP JUMPDEST POP POP JUMP JUMPDEST PUSH1 0x1F DUP3 GT ISZERO PUSH2 0x257E JUMPI PUSH2 0x254F DUP2 PUSH2 0x2429 JUMP JUMPDEST PUSH2 0x2558 DUP5 PUSH2 0x243B JUMP JUMPDEST DUP2 ADD PUSH1 0x20 DUP6 LT ISZERO PUSH2 0x2567 JUMPI DUP2 SWAP1 POP JUMPDEST PUSH2 0x257B PUSH2 0x2573 DUP6 PUSH2 0x243B JUMP JUMPDEST DUP4 ADD DUP3 PUSH2 0x251B JUMP JUMPDEST POP POP JUMPDEST POP POP POP JUMP JUMPDEST PUSH0 DUP3 DUP3 SHR SWAP1 POP SWAP3 SWAP2 POP POP JUMP JUMPDEST PUSH0 PUSH2 0x259E PUSH0 NOT DUP5 PUSH1 0x8 MUL PUSH2 0x2583 JUMP JUMPDEST NOT DUP1 DUP4 AND SWAP2 POP POP SWAP3 SWAP2 POP POP JUMP JUMPDEST PUSH0 PUSH2 0x25B6 DUP4 DUP4 PUSH2 0x258F JUMP JUMPDEST SWAP2 POP DUP3 PUSH1 0x2 MUL DUP3 OR SWAP1 POP SWAP3 SWAP2 POP POP JUMP JUMPDEST PUSH2 0x25D0 DUP4 DUP4 PUSH2 0x241F JUMP JUMPDEST PUSH8 0xFFFFFFFFFFFFFFFF DUP2 GT ISZERO PUSH2 0x25E9 JUMPI PUSH2 0x25E8 PUSH2 0x20E3 JUMP JUMPDEST JUMPDEST PUSH2 0x25F3 DUP3 SLOAD PUSH2 0x23EF JUMP JUMPDEST PUSH2 0x25FE DUP3 DUP3 DUP6 PUSH2 0x253D JUMP JUMPDEST PUSH0 PUSH1 0x1F DUP4 GT PUSH1 0x1 DUP2 EQ PUSH2 0x262B JUMPI PUSH0 DUP5 ISZERO PUSH2 0x2619 JUMPI DUP3 DUP8 ADD CALLDATALOAD SWAP1 POP JUMPDEST PUSH2 0x2623 DUP6 DUP3 PUSH2 0x25AB JUMP JUMPDEST DUP7 SSTORE POP PUSH2 0x268A JUMP JUMPDEST PUSH1 0x1F NOT DUP5 AND PUSH2 0x2639 DUP7 PUSH2 0x2429 JUMP JUMPDEST PUSH0 JUMPDEST DUP3 DUP2 LT ISZERO PUSH2 0x2660 JUMPI DUP5 DUP10 ADD CALLDATALOAD DUP3 SSTORE PUSH1 0x1 DUP3 ADD SWAP2 POP PUSH1 0x20 DUP6 ADD SWAP5 POP PUSH1 0x20 DUP2 ADD SWAP1 POP PUSH2 0x263B JUMP JUMPDEST DUP7 DUP4 LT ISZERO PUSH2 0x267D JUMPI DUP5 DUP10 ADD CALLDATALOAD PUSH2 0x2679 PUSH1 0x1F DUP10 AND DUP3 PUSH2 0x258F JUMP JUMPDEST DUP4 SSTORE POP JUMPDEST PUSH1 0x1 PUSH1 0x2 DUP9 MUL ADD DUP9 SSTORE POP POP POP JUMPDEST POP POP POP POP POP POP POP JUMP JUMPDEST PUSH0 PUSH1 0x60 DUP3 ADD SWAP1 POP PUSH2 0x26A6 PUSH0 DUP4 ADD DUP7 PUSH2 0x1DEC JUMP JUMPDEST PUSH2 0x26B3 PUSH1 0x20 DUP4 ADD DUP6 PUSH2 0x1FB5 JUMP JUMPDEST PUSH2 0x26C0 PUSH1 0x40 DUP4 ADD DUP5 PUSH2 0x1DEC JUMP JUMPDEST SWAP5 SWAP4 POP POP POP POP JUMP JUMPDEST PUSH0 PUSH2 0x26D2 DUP3 PUSH2 0x1C01 JUMP JUMPDEST SWAP2 POP PUSH2 0x26DD DUP4 PUSH2 0x1C01 JUMP JUMPDEST SWAP3 POP DUP3 DUP3 ADD SWAP1 POP DUP1 DUP3 GT ISZERO PUSH2 0x26F5 JUMPI PUSH2 0x26F4 PUSH2 0x2362 JUMP JUMPDEST JUMPDEST SWAP3 SWAP2 POP POP JUMP JUMPDEST PUSH0 DUP2 MLOAD SWAP1 POP SWAP2 SWAP1 POP JUMP JUMPDEST PUSH0 DUP3 DUP3 MSTORE PUSH1 0x20 DUP3 ADD SWAP1 POP SWAP3 SWAP2 POP POP JUMP JUMPDEST PUSH0 PUSH2 0x271F DUP3 PUSH2 0x26FB JUMP JUMPDEST PUSH2 0x2729 DUP2 DUP6 PUSH2 0x2705 JUMP JUMPDEST SWAP4 POP PUSH2 0x2739 DUP2 DUP6 PUSH1 0x20 DUP7 ADD PUSH2 0x1D2C JUMP JUMPDEST PUSH2 0x2742 DUP2 PUSH2 0x1D54 JUMP JUMPDEST DUP5 ADD SWAP2 POP POP SWAP3 SWAP2 POP POP JUMP JUMPDEST PUSH0 PUSH1 0x80 DUP3 ADD SWAP1 POP PUSH2 0x2760 PUSH0 DUP4 ADD DUP8 PUSH2 0x1DEC JUMP JUMPDEST PUSH2 0x276D PUSH1 0x20 DUP4 ADD DUP7 PUSH2 0x1DEC JUMP JUMPDEST PUSH2 0x277A PUSH1 0x40 DUP4 ADD DUP6 PUSH2 0x1FB5 JUMP JUMPDEST DUP2 DUP2 SUB PUSH1 0x60 DUP4 ADD MSTORE PUSH2 0x278C DUP2 DUP5 PUSH2 0x2715 JUMP JUMPDEST SWAP1 POP SWAP6 SWAP5 POP POP POP POP POP JUMP JUMPDEST PUSH0 DUP2 MLOAD SWAP1 POP PUSH2 0x27A5 DUP2 PUSH2 0x1C8A JUMP JUMPDEST SWAP3 SWAP2 POP POP JUMP JUMPDEST PUSH0 PUSH1 0x20 DUP3 DUP5 SUB SLT ISZERO PUSH2 0x27C0 JUMPI PUSH2 0x27BF PUSH2 0x1BF9 JUMP JUMPDEST JUMPDEST PUSH0 PUSH2 0x27CD DUP5 DUP3 DUP6 ADD PUSH2 0x2797 JUMP JUMPDEST SWAP2 POP POP SWAP3 SWAP2 POP POP JUMP JUMPDEST PUSH2 0x27DF DUP3 PUSH2 0x1D12 JUMP JUMPDEST PUSH8 0xFFFFFFFFFFFFFFFF DUP2 GT ISZERO PUSH2 0x27F8 JUMPI PUSH2 0x27F7 PUSH2 0x20E3 JUMP JUMPDEST JUMPDEST PUSH2 0x2802 DUP3 SLOAD PUSH2 0x23EF JUMP JUMPDEST PUSH2 0x280D DUP3 DUP3 DUP6 PUSH2 0x253D JUMP JUMPDEST PUSH0 PUSH1 0x20 SWAP1 POP PUSH1 0x1F DUP4 GT PUSH1 0x1 DUP2 EQ PUSH2 0x283E JUMPI PUSH0 DUP5 ISZERO PUSH2 0x282C JUMPI DUP3 DUP8 ADD MLOAD SWAP1 POP JUMPDEST PUSH2 0x2836 DUP6 DUP3 PUSH2 0x25AB JUMP JUMPDEST DUP7 SSTORE POP PUSH2 0x289D JUMP JUMPDEST PUSH1 0x1F NOT DUP5 AND PUSH2 0x284C DUP7 PUSH2 0x2429 JUMP JUMPDEST PUSH0 JUMPDEST DUP3 DUP2 LT ISZERO PUSH2 0x2873 JUMPI DUP5 DUP10 ADD MLOAD DUP3 SSTORE PUSH1 0x1 DUP3 ADD SWAP2 POP PUSH1 0x20 DUP6 ADD SWAP5 POP PUSH1 0x20 DUP2 ADD SWAP1 POP PUSH2 0x284E JUMP JUMPDEST DUP7 DUP4 LT ISZERO PUSH2 0x2890 JUMPI DUP5 DUP10 ADD MLOAD PUSH2 0x288C PUSH1 0x1F DUP10 AND DUP3 PUSH2 0x258F JUMP JUMPDEST DUP4 SSTORE POP JUMPDEST PUSH1 0x1 PUSH1 0x2 DUP9 MUL ADD DUP9 SSTORE POP POP POP JUMPDEST POP POP POP POP POP POP JUMP JUMPDEST PUSH0 PUSH1 0x40 DUP3 ADD SWAP1 POP PUSH2 0x28B8 PUSH0 DUP4 ADD DUP6 PUSH2 0x1DEC JUMP JUMPDEST PUSH2 0x28C5 PUSH1 0x20 DUP4 ADD DUP5 PUSH2 0x1FB5 JUMP JUMPDEST SWAP4 SWAP3 POP POP POP JUMP INVALID LOG2 PUSH5 0x6970667358 0x22 SLT KECCAK256 PUSH9 0x1F432369C9FB908903 0x4F PUSH14 0x5A5D2ECEF5DCAACB3DC765FE929B EQ STATICCALL SWAP11 MCOPY 0x2F DIV PUSH5 0x736F6C6343 STOP ADDMOD XOR STOP CALLER "
				},
				"gasEstimates": {
					"creation": {
						"codeDepositCost": "2099600",
						"executionCost": "infinite",
						"totalCost": "infinite"
					},
					"external": {
						"approve(address,uint256)": "infinite",
						"balanceOf(address)": "infinite",
						"evolve(uint256)": "infinite",
						"feeding(uint256)": "infinite",
						"getApproved(uint256)": "infinite",
						"getGrowthInfo(uint256)": "infinite",
						"growthTime(uint256)": "infinite",
						"isApprovedForAll(address,address)": "infinite",
						"name()": "infinite",
						"ownerOf(uint256)": "infinite",
						"safeTransferFrom(address,address,uint256)": "infinite",
						"safeTransferFrom(address,address,uint256,bytes)": "infinite",
						"setApprovalForAll(address,bool)": "infinite",
						"setTokenURI(uint256,string)": "infinite",
						"supportsInterface(bytes4)": "945",
						"symbol()": "infinite",
						"tokenURI(uint256)": "infinite",
						"transferFrom(address,address,uint256)": "infinite"
					},
					"internal": {
						"mintToken(uint256,uint256,uint256,string calldata,address)": "infinite",
						"updateGrowth(uint256)": "infinite"
					}
				},
				"methodIdentifiers": {
					"approve(address,uint256)": "095ea7b3",
					"balanceOf(address)": "70a08231",
					"evolve(uint256)": "f119f567",
					"feeding(uint256)": "00e00064",
					"getApproved(uint256)": "081812fc",
					"getGrowthInfo(uint256)": "b564ea86",
					"growthTime(uint256)": "e6e2d08e",
					"isApprovedForAll(address,address)": "e985e9c5",
					"name()": "06fdde03",
					"ownerOf(uint256)": "6352211e",
					"safeTransferFrom(address,address,uint256)": "42842e0e",
					"safeTransferFrom(address,address,uint256,bytes)": "b88d4fde",
					"setApprovalForAll(address,bool)": "a22cb465",
					"setTokenURI(uint256,string)": "162094c4",
					"supportsInterface(bytes4)": "01ffc9a7",
					"symbol()": "95d89b41",
					"tokenURI(uint256)": "c87b56dd",
					"transferFrom(address,address,uint256)": "23b872dd"
				}
			},
			"storageLayout": {
				"storage": [
					{
						"astId": 201,
						"contract": "contracts/TokenBase.sol:TokenBase",
						"label": "_name",
						"offset": 0,
						"slot": "0",
						"type": "t_string_storage"
					},
					{
						"astId": 203,
						"contract": "contracts/TokenBase.sol:TokenBase",
						"label": "_symbol",
						"offset": 0,
						"slot": "1",
						"type": "t_string_storage"
					},
					{
						"astId": 207,
						"contract": "contracts/TokenBase.sol:TokenBase",
						"label": "_owners",
						"offset": 0,
						"slot": "2",
						"type": "t_mapping(t_uint256,t_address)"
					},
					{
						"astId": 211,
						"contract": "contracts/TokenBase.sol:TokenBase",
						"label": "_balances",
						"offset": 0,
						"slot": "3",
						"type": "t_mapping(t_address,t_uint256)"
					},
					{
						"astId": 215,
						"contract": "contracts/TokenBase.sol:TokenBase",
						"label": "_tokenApprovals",
						"offset": 0,
						"slot": "4",
						"type": "t_mapping(t_uint256,t_address)"
					},
					{
						"astId": 221,
						"contract": "contracts/TokenBase.sol:TokenBase",
						"label": "_operatorApprovals",
						"offset": 0,
						"slot": "5",
						"type": "t_mapping(t_address,t_mapping(t_address,t_bool))"
					},
					{
						"astId": 1340,
						"contract": "contracts/TokenBase.sol:TokenBase",
						"label": "_tokenURIs",
						"offset": 0,
						"slot": "6",
						"type": "t_mapping(t_uint256,t_string_storage)"
					},
					{
						"astId": 2964,
						"contract": "contracts/TokenBase.sol:TokenBase",
						"label": "growthStages",
						"offset": 0,
						"slot": "7",
						"type": "t_mapping(t_uint256,t_enum(GrowthStage)2959)"
					},
					{
						"astId": 2968,
						"contract": "contracts/TokenBase.sol:TokenBase",
						"label": "_tokenURI",
						"offset": 0,
						"slot": "8",
						"type": "t_mapping(t_uint256,t_string_storage)"
					},
					{
						"astId": 2993,
						"contract": "contracts/TokenBase.sol:TokenBase",
						"label": "tokens",
						"offset": 0,
						"slot": "9",
						"type": "t_mapping(t_uint256,t_struct(Token)2981_storage)"
					},
					{
						"astId": 2998,
						"contract": "contracts/TokenBase.sol:TokenBase",
						"label": "growthTime",
						"offset": 0,
						"slot": "10",
						"type": "t_mapping(t_uint256,t_struct(GrowthTime)2988_storage)"
					},
					{
						"astId": 3003,
						"contract": "contracts/TokenBase.sol:TokenBase",
						"label": "userTokens",
						"offset": 0,
						"slot": "11",
						"type": "t_mapping(t_address,t_array(t_uint256)dyn_storage)"
					},
					{
						"astId": 3005,
						"contract": "contracts/TokenBase.sol:TokenBase",
						"label": "newTokenId",
						"offset": 0,
						"slot": "12",
						"type": "t_uint256"
					}
				],
				"types": {
					"t_address": {
						"encoding": "inplace",
						"label": "address",
						"numberOfBytes": "20"
					},
					"t_array(t_uint256)dyn_storage": {
						"base": "t_uint256",
						"encoding": "dynamic_array",
						"label": "uint256[]",
						"numberOfBytes": "32"
					},
					"t_bool": {
						"encoding": "inplace",
						"label": "bool",
						"numberOfBytes": "1"
					},
					"t_enum(GrowthStage)2959": {
						"encoding": "inplace",
						"label": "enum TokenBase.GrowthStage",
						"numberOfBytes": "1"
					},
					"t_mapping(t_address,t_array(t_uint256)dyn_storage)": {
						"encoding": "mapping",
						"key": "t_address",
						"label": "mapping(address => uint256[])",
						"numberOfBytes": "32",
						"value": "t_array(t_uint256)dyn_storage"
					},
					"t_mapping(t_address,t_bool)": {
						"encoding": "mapping",
						"key": "t_address",
						"label": "mapping(address => bool)",
						"numberOfBytes": "32",
						"value": "t_bool"
					},
					"t_mapping(t_address,t_mapping(t_address,t_bool))": {
						"encoding": "mapping",
						"key": "t_address",
						"label": "mapping(address => mapping(address => bool))",
						"numberOfBytes": "32",
						"value": "t_mapping(t_address,t_bool)"
					},
					"t_mapping(t_address,t_uint256)": {
						"encoding": "mapping",
						"key": "t_address",
						"label": "mapping(address => uint256)",
						"numberOfBytes": "32",
						"value": "t_uint256"
					},
					"t_mapping(t_uint256,t_address)": {
						"encoding": "mapping",
						"key": "t_uint256",
						"label": "mapping(uint256 => address)",
						"numberOfBytes": "32",
						"value": "t_address"
					},
					"t_mapping(t_uint256,t_enum(GrowthStage)2959)": {
						"encoding": "mapping",
						"key": "t_uint256",
						"label": "mapping(uint256 => enum TokenBase.GrowthStage)",
						"numberOfBytes": "32",
						"value": "t_enum(GrowthStage)2959"
					},
					"t_mapping(t_uint256,t_string_storage)": {
						"encoding": "mapping",
						"key": "t_uint256",
						"label": "mapping(uint256 => string)",
						"numberOfBytes": "32",
						"value": "t_string_storage"
					},
					"t_mapping(t_uint256,t_struct(GrowthTime)2988_storage)": {
						"encoding": "mapping",
						"key": "t_uint256",
						"label": "mapping(uint256 => struct TokenBase.GrowthTime)",
						"numberOfBytes": "32",
						"value": "t_struct(GrowthTime)2988_storage"
					},
					"t_mapping(t_uint256,t_struct(Token)2981_storage)": {
						"encoding": "mapping",
						"key": "t_uint256",
						"label": "mapping(uint256 => struct TokenBase.Token)",
						"numberOfBytes": "32",
						"value": "t_struct(Token)2981_storage"
					},
					"t_string_storage": {
						"encoding": "bytes",
						"label": "string",
						"numberOfBytes": "32"
					},
					"t_struct(GrowthTime)2988_storage": {
						"encoding": "inplace",
						"label": "struct TokenBase.GrowthTime",
						"members": [
							{
								"astId": 2983,
								"contract": "contracts/TokenBase.sol:TokenBase",
								"label": "hatch",
								"offset": 0,
								"slot": "0",
								"type": "t_uint256"
							},
							{
								"astId": 2985,
								"contract": "contracts/TokenBase.sol:TokenBase",
								"label": "hatchling",
								"offset": 0,
								"slot": "1",
								"type": "t_uint256"
							},
							{
								"astId": 2987,
								"contract": "contracts/TokenBase.sol:TokenBase",
								"label": "adult",
								"offset": 0,
								"slot": "2",
								"type": "t_uint256"
							}
						],
						"numberOfBytes": "96"
					},
					"t_struct(Token)2981_storage": {
						"encoding": "inplace",
						"label": "struct TokenBase.Token",
						"members": [
							{
								"astId": 2970,
								"contract": "contracts/TokenBase.sol:TokenBase",
								"label": "gender",
								"offset": 0,
								"slot": "0",
								"type": "t_uint256"
							},
							{
								"astId": 2972,
								"contract": "contracts/TokenBase.sol:TokenBase",
								"label": "husbandId",
								"offset": 0,
								"slot": "1",
								"type": "t_uint256"
							},
							{
								"astId": 2974,
								"contract": "contracts/TokenBase.sol:TokenBase",
								"label": "wifeId",
								"offset": 0,
								"slot": "2",
								"type": "t_uint256"
							},
							{
								"astId": 2976,
								"contract": "contracts/TokenBase.sol:TokenBase",
								"label": "generation",
								"offset": 0,
								"slot": "3",
								"type": "t_uint256"
							},
							{
								"astId": 2978,
								"contract": "contracts/TokenBase.sol:TokenBase",
								"label": "birth",
								"offset": 0,
								"slot": "4",
								"type": "t_uint256"
							},
							{
								"astId": 2980,
								"contract": "contracts/TokenBase.sol:TokenBase",
								"label": "growth",
								"offset": 0,
								"slot": "5",
								"type": "t_string_storage"
							}
						],
						"numberOfBytes": "192"
					},
					"t_uint256": {
						"encoding": "inplace",
						"label": "uint256",
						"numberOfBytes": "32"
					}
				}
			},
			"userdoc": {
				"kind": "user",
				"methods": {},
				"version": 1
			}
		}
	}
}