{
	"uupsContract/TokenTypeManager.sol": {
		"TokenTypeManager": {
			"abi": [
				{
					"inputs": [
						{
							"internalType": "address",
							"name": "initialOwner",
							"type": "address"
						}
					],
					"stateMutability": "nonpayable",
					"type": "constructor"
				},
				{
					"inputs": [
						{
							"internalType": "address",
							"name": "owner",
							"type": "address"
						}
					],
					"name": "OwnableInvalidOwner",
					"type": "error"
				},
				{
					"inputs": [
						{
							"internalType": "address",
							"name": "account",
							"type": "address"
						}
					],
					"name": "OwnableUnauthorizedAccount",
					"type": "error"
				},
				{
					"anonymous": false,
					"inputs": [
						{
							"indexed": true,
							"internalType": "address",
							"name": "previousOwner",
							"type": "address"
						},
						{
							"indexed": true,
							"internalType": "address",
							"name": "newOwner",
							"type": "address"
						}
					],
					"name": "OwnershipTransferred",
					"type": "event"
				},
				{
					"anonymous": false,
					"inputs": [
						{
							"indexed": false,
							"internalType": "string",
							"name": "tokenType",
							"type": "string"
						}
					],
					"name": "TokenTypeAdded",
					"type": "event"
				},
				{
					"anonymous": false,
					"inputs": [
						{
							"indexed": false,
							"internalType": "string",
							"name": "tokenType",
							"type": "string"
						}
					],
					"name": "TokenTypeRemoved",
					"type": "event"
				},
				{
					"inputs": [
						{
							"internalType": "string",
							"name": "_tokenType",
							"type": "string"
						}
					],
					"name": "addTokenType",
					"outputs": [],
					"stateMutability": "nonpayable",
					"type": "function"
				},
				{
					"inputs": [],
					"name": "getAllowedTokenTypes",
					"outputs": [
						{
							"internalType": "string[]",
							"name": "",
							"type": "string[]"
						}
					],
					"stateMutability": "view",
					"type": "function"
				},
				{
					"inputs": [
						{
							"internalType": "string",
							"name": "_tokenType",
							"type": "string"
						}
					],
					"name": "isAllowedTokenType",
					"outputs": [
						{
							"internalType": "bool",
							"name": "",
							"type": "bool"
						}
					],
					"stateMutability": "view",
					"type": "function"
				},
				{
					"inputs": [],
					"name": "owner",
					"outputs": [
						{
							"internalType": "address",
							"name": "",
							"type": "address"
						}
					],
					"stateMutability": "view",
					"type": "function"
				},
				{
					"inputs": [
						{
							"internalType": "string",
							"name": "_tokenType",
							"type": "string"
						}
					],
					"name": "removeTokenType",
					"outputs": [],
					"stateMutability": "nonpayable",
					"type": "function"
				},
				{
					"inputs": [],
					"name": "renounceOwnership",
					"outputs": [],
					"stateMutability": "nonpayable",
					"type": "function"
				},
				{
					"inputs": [
						{
							"internalType": "address",
							"name": "newOwner",
							"type": "address"
						}
					],
					"name": "transferOwnership",
					"outputs": [],
					"stateMutability": "nonpayable",
					"type": "function"
				}
			],
			"devdoc": {
				"errors": {
					"OwnableInvalidOwner(address)": [
						{
							"details": "The owner is not a valid owner account. (eg. `address(0)`)"
						}
					],
					"OwnableUnauthorizedAccount(address)": [
						{
							"details": "The caller account is not authorized to perform an operation."
						}
					]
				},
				"kind": "dev",
				"methods": {
					"owner()": {
						"details": "Returns the address of the current owner."
					},
					"renounceOwnership()": {
						"details": "Leaves the contract without owner. It will not be possible to call `onlyOwner` functions. Can only be called by the current owner. NOTE: Renouncing ownership will leave the contract without an owner, thereby disabling any functionality that is only available to the owner."
					},
					"transferOwnership(address)": {
						"details": "Transfers ownership of the contract to a new account (`newOwner`). Can only be called by the current owner."
					}
				},
				"version": 1
			},
			"evm": {
				"assembly": "    /* \"uupsContract/TokenTypeManager.sol\":117:1512  contract TokenTypeManager is Ownable {... */\n  mstore(0x40, 0x80)\n    /* \"uupsContract/TokenTypeManager.sol\":298:361  constructor(address initialOwner) Ownable(initialOwner){... */\n  callvalue\n  dup1\n  iszero\n  tag_1\n  jumpi\n  0x00\n  dup1\n  revert\ntag_1:\n  pop\n  mload(0x40)\n  sub(codesize, bytecodeSize)\n  dup1\n  bytecodeSize\n  dup4\n  codecopy\n  dup2\n  dup2\n  add\n  0x40\n  mstore\n  dup2\n  add\n  swap1\n  tag_2\n  swap2\n  swap1\n  tag_3\n  jump\t// in\ntag_2:\n    /* \"uupsContract/TokenTypeManager.sol\":340:352  initialOwner */\n  dup1\n    /* \"@openzeppelin/contracts/access/Ownable.sol\":1297:1298  0 */\n  0x00\n    /* \"@openzeppelin/contracts/access/Ownable.sol\":1273:1299  initialOwner == address(0) */\n  0xffffffffffffffffffffffffffffffffffffffff\n  and\n    /* \"@openzeppelin/contracts/access/Ownable.sol\":1273:1285  initialOwner */\n  dup2\n    /* \"@openzeppelin/contracts/access/Ownable.sol\":1273:1299  initialOwner == address(0) */\n  0xffffffffffffffffffffffffffffffffffffffff\n  and\n  sub\n    /* \"@openzeppelin/contracts/access/Ownable.sol\":1269:1364  if (initialOwner == address(0)) {... */\n  tag_7\n  jumpi\n    /* \"@openzeppelin/contracts/access/Ownable.sol\":1350:1351  0 */\n  0x00\n    /* \"@openzeppelin/contracts/access/Ownable.sol\":1322:1353  OwnableInvalidOwner(address(0)) */\n  mload(0x40)\n  0x1e4fbdf700000000000000000000000000000000000000000000000000000000\n  dup2\n  mstore\n  0x04\n  add\n  tag_8\n  swap2\n  swap1\n  tag_9\n  jump\t// in\ntag_8:\n  mload(0x40)\n  dup1\n  swap2\n  sub\n  swap1\n  revert\n    /* \"@openzeppelin/contracts/access/Ownable.sol\":1269:1364  if (initialOwner == address(0)) {... */\ntag_7:\n    /* \"@openzeppelin/contracts/access/Ownable.sol\":1373:1405  _transferOwnership(initialOwner) */\n  tag_10\n    /* \"@openzeppelin/contracts/access/Ownable.sol\":1392:1404  initialOwner */\n  dup2\n    /* \"@openzeppelin/contracts/access/Ownable.sol\":1373:1391  _transferOwnership */\n  shl(0x20, tag_11)\n    /* \"@openzeppelin/contracts/access/Ownable.sol\":1373:1405  _transferOwnership(initialOwner) */\n  0x20\n  shr\n  jump\t// in\ntag_10:\n    /* \"@openzeppelin/contracts/access/Ownable.sol\":1225:1412  constructor(address initialOwner) {... */\n  pop\n    /* \"uupsContract/TokenTypeManager.sol\":298:361  constructor(address initialOwner) Ownable(initialOwner){... */\n  pop\n    /* \"uupsContract/TokenTypeManager.sol\":117:1512  contract TokenTypeManager is Ownable {... */\n  jump(tag_13)\n    /* \"@openzeppelin/contracts/access/Ownable.sol\":2912:3099  function _transferOwnership(address newOwner) internal virtual {... */\ntag_11:\n    /* \"@openzeppelin/contracts/access/Ownable.sol\":2985:3001  address oldOwner */\n  0x00\n    /* \"@openzeppelin/contracts/access/Ownable.sol\":3004:3010  _owner */\n  dup1\n  0x00\n  swap1\n  sload\n  swap1\n  0x0100\n  exp\n  swap1\n  div\n  0xffffffffffffffffffffffffffffffffffffffff\n  and\n    /* \"@openzeppelin/contracts/access/Ownable.sol\":2985:3010  address oldOwner = _owner */\n  swap1\n  pop\n    /* \"@openzeppelin/contracts/access/Ownable.sol\":3029:3037  newOwner */\n  dup2\n    /* \"@openzeppelin/contracts/access/Ownable.sol\":3020:3026  _owner */\n  0x00\n  dup1\n    /* \"@openzeppelin/contracts/access/Ownable.sol\":3020:3037  _owner = newOwner */\n  0x0100\n  exp\n  dup2\n  sload\n  dup2\n  0xffffffffffffffffffffffffffffffffffffffff\n  mul\n  not\n  and\n  swap1\n  dup4\n  0xffffffffffffffffffffffffffffffffffffffff\n  and\n  mul\n  or\n  swap1\n  sstore\n  pop\n    /* \"@openzeppelin/contracts/access/Ownable.sol\":3083:3091  newOwner */\n  dup2\n    /* \"@openzeppelin/contracts/access/Ownable.sol\":3052:3092  OwnershipTransferred(oldOwner, newOwner) */\n  0xffffffffffffffffffffffffffffffffffffffff\n  and\n    /* \"@openzeppelin/contracts/access/Ownable.sol\":3073:3081  oldOwner */\n  dup2\n    /* \"@openzeppelin/contracts/access/Ownable.sol\":3052:3092  OwnershipTransferred(oldOwner, newOwner) */\n  0xffffffffffffffffffffffffffffffffffffffff\n  and\n  0x8be0079c531659141344cd1fd0a4f28419497f9722a3daafe3b4186f6b6457e0\n  mload(0x40)\n  mload(0x40)\n  dup1\n  swap2\n  sub\n  swap1\n  log3\n    /* \"@openzeppelin/contracts/access/Ownable.sol\":2975:3099  {... */\n  pop\n    /* \"@openzeppelin/contracts/access/Ownable.sol\":2912:3099  function _transferOwnership(address newOwner) internal virtual {... */\n  pop\n  jump\t// out\n    /* \"#utility.yul\":88:205   */\ntag_16:\n    /* \"#utility.yul\":197:198   */\n  0x00\n    /* \"#utility.yul\":194:195   */\n  dup1\n    /* \"#utility.yul\":187:199   */\n  revert\n    /* \"#utility.yul\":334:460   */\ntag_18:\n    /* \"#utility.yul\":371:378   */\n  0x00\n    /* \"#utility.yul\":411:453   */\n  0xffffffffffffffffffffffffffffffffffffffff\n    /* \"#utility.yul\":404:409   */\n  dup3\n    /* \"#utility.yul\":400:454   */\n  and\n    /* \"#utility.yul\":389:454   */\n  swap1\n  pop\n    /* \"#utility.yul\":334:460   */\n  swap2\n  swap1\n  pop\n  jump\t// out\n    /* \"#utility.yul\":466:562   */\ntag_19:\n    /* \"#utility.yul\":503:510   */\n  0x00\n    /* \"#utility.yul\":532:556   */\n  tag_29\n    /* \"#utility.yul\":550:555   */\n  dup3\n    /* \"#utility.yul\":532:556   */\n  tag_18\n  jump\t// in\ntag_29:\n    /* \"#utility.yul\":521:556   */\n  swap1\n  pop\n    /* \"#utility.yul\":466:562   */\n  swap2\n  swap1\n  pop\n  jump\t// out\n    /* \"#utility.yul\":568:690   */\ntag_20:\n    /* \"#utility.yul\":641:665   */\n  tag_31\n    /* \"#utility.yul\":659:664   */\n  dup2\n    /* \"#utility.yul\":641:665   */\n  tag_19\n  jump\t// in\ntag_31:\n    /* \"#utility.yul\":634:639   */\n  dup2\n    /* \"#utility.yul\":631:666   */\n  eq\n    /* \"#utility.yul\":621:684   */\n  tag_32\n  jumpi\n    /* \"#utility.yul\":680:681   */\n  0x00\n    /* \"#utility.yul\":677:678   */\n  dup1\n    /* \"#utility.yul\":670:682   */\n  revert\n    /* \"#utility.yul\":621:684   */\ntag_32:\n    /* \"#utility.yul\":568:690   */\n  pop\n  jump\t// out\n    /* \"#utility.yul\":696:839   */\ntag_21:\n    /* \"#utility.yul\":753:758   */\n  0x00\n    /* \"#utility.yul\":784:790   */\n  dup2\n    /* \"#utility.yul\":778:791   */\n  mload\n    /* \"#utility.yul\":769:791   */\n  swap1\n  pop\n    /* \"#utility.yul\":800:833   */\n  tag_34\n    /* \"#utility.yul\":827:832   */\n  dup2\n    /* \"#utility.yul\":800:833   */\n  tag_20\n  jump\t// in\ntag_34:\n    /* \"#utility.yul\":696:839   */\n  swap3\n  swap2\n  pop\n  pop\n  jump\t// out\n    /* \"#utility.yul\":845:1196   */\ntag_3:\n    /* \"#utility.yul\":915:921   */\n  0x00\n    /* \"#utility.yul\":964:966   */\n  0x20\n    /* \"#utility.yul\":952:961   */\n  dup3\n    /* \"#utility.yul\":943:950   */\n  dup5\n    /* \"#utility.yul\":939:962   */\n  sub\n    /* \"#utility.yul\":935:967   */\n  slt\n    /* \"#utility.yul\":932:1051   */\n  iszero\n  tag_36\n  jumpi\n    /* \"#utility.yul\":970:1049   */\n  tag_37\n  tag_16\n  jump\t// in\ntag_37:\n    /* \"#utility.yul\":932:1051   */\ntag_36:\n    /* \"#utility.yul\":1090:1091   */\n  0x00\n    /* \"#utility.yul\":1115:1179   */\n  tag_38\n    /* \"#utility.yul\":1171:1178   */\n  dup5\n    /* \"#utility.yul\":1162:1168   */\n  dup3\n    /* \"#utility.yul\":1151:1160   */\n  dup6\n    /* \"#utility.yul\":1147:1169   */\n  add\n    /* \"#utility.yul\":1115:1179   */\n  tag_21\n  jump\t// in\ntag_38:\n    /* \"#utility.yul\":1105:1179   */\n  swap2\n  pop\n    /* \"#utility.yul\":1061:1189   */\n  pop\n    /* \"#utility.yul\":845:1196   */\n  swap3\n  swap2\n  pop\n  pop\n  jump\t// out\n    /* \"#utility.yul\":1202:1320   */\ntag_22:\n    /* \"#utility.yul\":1289:1313   */\n  tag_40\n    /* \"#utility.yul\":1307:1312   */\n  dup2\n    /* \"#utility.yul\":1289:1313   */\n  tag_19\n  jump\t// in\ntag_40:\n    /* \"#utility.yul\":1284:1287   */\n  dup3\n    /* \"#utility.yul\":1277:1314   */\n  mstore\n    /* \"#utility.yul\":1202:1320   */\n  pop\n  pop\n  jump\t// out\n    /* \"#utility.yul\":1326:1548   */\ntag_9:\n    /* \"#utility.yul\":1419:1423   */\n  0x00\n    /* \"#utility.yul\":1457:1459   */\n  0x20\n    /* \"#utility.yul\":1446:1455   */\n  dup3\n    /* \"#utility.yul\":1442:1460   */\n  add\n    /* \"#utility.yul\":1434:1460   */\n  swap1\n  pop\n    /* \"#utility.yul\":1470:1541   */\n  tag_42\n    /* \"#utility.yul\":1538:1539   */\n  0x00\n    /* \"#utility.yul\":1527:1536   */\n  dup4\n    /* \"#utility.yul\":1523:1540   */\n  add\n    /* \"#utility.yul\":1514:1520   */\n  dup5\n    /* \"#utility.yul\":1470:1541   */\n  tag_22\n  jump\t// in\ntag_42:\n    /* \"#utility.yul\":1326:1548   */\n  swap3\n  swap2\n  pop\n  pop\n  jump\t// out\n    /* \"uupsContract/TokenTypeManager.sol\":117:1512  contract TokenTypeManager is Ownable {... */\ntag_13:\n  dataSize(sub_0)\n  dup1\n  dataOffset(sub_0)\n  0x00\n  codecopy\n  0x00\n  return\nstop\n\nsub_0: assembly {\n        /* \"uupsContract/TokenTypeManager.sol\":117:1512  contract TokenTypeManager is Ownable {... */\n      mstore(0x40, 0x80)\n      callvalue\n      dup1\n      iszero\n      tag_1\n      jumpi\n      0x00\n      dup1\n      revert\n    tag_1:\n      pop\n      jumpi(tag_2, lt(calldatasize, 0x04))\n      shr(0xe0, calldataload(0x00))\n      dup1\n      0xa8fd9cf3\n      gt\n      tag_10\n      jumpi\n      dup1\n      0xa8fd9cf3\n      eq\n      tag_6\n      jumpi\n      dup1\n      0xc031babb\n      eq\n      tag_7\n      jumpi\n      dup1\n      0xccba16bb\n      eq\n      tag_8\n      jumpi\n      dup1\n      0xf2fde38b\n      eq\n      tag_9\n      jumpi\n      jump(tag_2)\n    tag_10:\n      dup1\n      0x1a10c902\n      eq\n      tag_3\n      jumpi\n      dup1\n      0x715018a6\n      eq\n      tag_4\n      jumpi\n      dup1\n      0x8da5cb5b\n      eq\n      tag_5\n      jumpi\n    tag_2:\n      0x00\n      dup1\n      revert\n        /* \"uupsContract/TokenTypeManager.sol\":1394:1509  function getAllowedTokenTypes() external view returns (string[] memory) {... */\n    tag_3:\n      tag_11\n      tag_12\n      jump\t// in\n    tag_11:\n      mload(0x40)\n      tag_13\n      swap2\n      swap1\n      tag_14\n      jump\t// in\n    tag_13:\n      mload(0x40)\n      dup1\n      swap2\n      sub\n      swap1\n      return\n        /* \"@openzeppelin/contracts/access/Ownable.sol\":2293:2394  function renounceOwnership() public virtual onlyOwner {... */\n    tag_4:\n      tag_15\n      tag_16\n      jump\t// in\n    tag_15:\n      stop\n        /* \"@openzeppelin/contracts/access/Ownable.sol\":1638:1723  function owner() public view virtual returns (address) {... */\n    tag_5:\n      tag_17\n      tag_18\n      jump\t// in\n    tag_17:\n      mload(0x40)\n      tag_19\n      swap2\n      swap1\n      tag_20\n      jump\t// in\n    tag_19:\n      mload(0x40)\n      dup1\n      swap2\n      sub\n      swap1\n      return\n        /* \"uupsContract/TokenTypeManager.sol\":369:533  function addTokenType(string calldata _tokenType) external onlyOwner {... */\n    tag_6:\n      tag_21\n      0x04\n      dup1\n      calldatasize\n      sub\n      dup2\n      add\n      swap1\n      tag_22\n      swap2\n      swap1\n      tag_23\n      jump\t// in\n    tag_22:\n      tag_24\n      jump\t// in\n    tag_21:\n      stop\n        /* \"uupsContract/TokenTypeManager.sol\":541:1030  function removeTokenType(string calldata _tokenType) external onlyOwner {... */\n    tag_7:\n      tag_25\n      0x04\n      dup1\n      calldatasize\n      sub\n      dup2\n      add\n      swap1\n      tag_26\n      swap2\n      swap1\n      tag_23\n      jump\t// in\n    tag_26:\n      tag_27\n      jump\t// in\n    tag_25:\n      stop\n        /* \"uupsContract/TokenTypeManager.sol\":1038:1386  function isAllowedTokenType(string calldata _tokenType) external view returns (bool) {... */\n    tag_8:\n      tag_28\n      0x04\n      dup1\n      calldatasize\n      sub\n      dup2\n      add\n      swap1\n      tag_29\n      swap2\n      swap1\n      tag_23\n      jump\t// in\n    tag_29:\n      tag_30\n      jump\t// in\n    tag_28:\n      mload(0x40)\n      tag_31\n      swap2\n      swap1\n      tag_32\n      jump\t// in\n    tag_31:\n      mload(0x40)\n      dup1\n      swap2\n      sub\n      swap1\n      return\n        /* \"@openzeppelin/contracts/access/Ownable.sol\":2543:2758  function transferOwnership(address newOwner) public virtual onlyOwner {... */\n    tag_9:\n      tag_33\n      0x04\n      dup1\n      calldatasize\n      sub\n      dup2\n      add\n      swap1\n      tag_34\n      swap2\n      swap1\n      tag_35\n      jump\t// in\n    tag_34:\n      tag_36\n      jump\t// in\n    tag_33:\n      stop\n        /* \"uupsContract/TokenTypeManager.sol\":1394:1509  function getAllowedTokenTypes() external view returns (string[] memory) {... */\n    tag_12:\n        /* \"uupsContract/TokenTypeManager.sol\":1449:1464  string[] memory */\n      0x60\n        /* \"uupsContract/TokenTypeManager.sol\":1484:1501  allowedTokenTypes */\n      0x01\n        /* \"uupsContract/TokenTypeManager.sol\":1477:1501  return allowedTokenTypes */\n      dup1\n      sload\n      dup1\n      0x20\n      mul\n      0x20\n      add\n      mload(0x40)\n      swap1\n      dup2\n      add\n      0x40\n      mstore\n      dup1\n      swap3\n      swap2\n      swap1\n      dup2\n      dup2\n      mstore\n      0x20\n      add\n      0x00\n      swap1\n    tag_38:\n      dup3\n      dup3\n      lt\n      iszero\n      tag_39\n      jumpi\n      dup4\n      dup3\n      swap1\n      0x00\n      mstore\n      keccak256(0x00, 0x20)\n      add\n      dup1\n      sload\n      tag_41\n      swap1\n      tag_42\n      jump\t// in\n    tag_41:\n      dup1\n      0x1f\n      add\n      0x20\n      dup1\n      swap2\n      div\n      mul\n      0x20\n      add\n      mload(0x40)\n      swap1\n      dup2\n      add\n      0x40\n      mstore\n      dup1\n      swap3\n      swap2\n      swap1\n      dup2\n      dup2\n      mstore\n      0x20\n      add\n      dup3\n      dup1\n      sload\n      tag_43\n      swap1\n      tag_42\n      jump\t// in\n    tag_43:\n      dup1\n      iszero\n      tag_44\n      jumpi\n      dup1\n      0x1f\n      lt\n      tag_45\n      jumpi\n      0x0100\n      dup1\n      dup4\n      sload\n      div\n      mul\n      dup4\n      mstore\n      swap2\n      0x20\n      add\n      swap2\n      jump(tag_44)\n    tag_45:\n      dup3\n      add\n      swap2\n      swap1\n      0x00\n      mstore\n      keccak256(0x00, 0x20)\n      swap1\n    tag_46:\n      dup2\n      sload\n      dup2\n      mstore\n      swap1\n      0x01\n      add\n      swap1\n      0x20\n      add\n      dup1\n      dup4\n      gt\n      tag_46\n      jumpi\n      dup3\n      swap1\n      sub\n      0x1f\n      and\n      dup3\n      add\n      swap2\n    tag_44:\n      pop\n      pop\n      pop\n      pop\n      pop\n      dup2\n      mstore\n      0x20\n      add\n      swap1\n      0x01\n      add\n      swap1\n      jump(tag_38)\n    tag_39:\n      pop\n      pop\n      pop\n      pop\n      swap1\n      pop\n        /* \"uupsContract/TokenTypeManager.sol\":1394:1509  function getAllowedTokenTypes() external view returns (string[] memory) {... */\n      swap1\n      jump\t// out\n        /* \"@openzeppelin/contracts/access/Ownable.sol\":2293:2394  function renounceOwnership() public virtual onlyOwner {... */\n    tag_16:\n        /* \"@openzeppelin/contracts/access/Ownable.sol\":1531:1544  _checkOwner() */\n      tag_48\n        /* \"@openzeppelin/contracts/access/Ownable.sol\":1531:1542  _checkOwner */\n      tag_49\n        /* \"@openzeppelin/contracts/access/Ownable.sol\":1531:1544  _checkOwner() */\n      jump\t// in\n    tag_48:\n        /* \"@openzeppelin/contracts/access/Ownable.sol\":2357:2387  _transferOwnership(address(0)) */\n      tag_51\n        /* \"@openzeppelin/contracts/access/Ownable.sol\":2384:2385  0 */\n      0x00\n        /* \"@openzeppelin/contracts/access/Ownable.sol\":2357:2375  _transferOwnership */\n      tag_52\n        /* \"@openzeppelin/contracts/access/Ownable.sol\":2357:2387  _transferOwnership(address(0)) */\n      jump\t// in\n    tag_51:\n        /* \"@openzeppelin/contracts/access/Ownable.sol\":2293:2394  function renounceOwnership() public virtual onlyOwner {... */\n      jump\t// out\n        /* \"@openzeppelin/contracts/access/Ownable.sol\":1638:1723  function owner() public view virtual returns (address) {... */\n    tag_18:\n        /* \"@openzeppelin/contracts/access/Ownable.sol\":1684:1691  address */\n      0x00\n        /* \"@openzeppelin/contracts/access/Ownable.sol\":1710:1716  _owner */\n      dup1\n      0x00\n      swap1\n      sload\n      swap1\n      0x0100\n      exp\n      swap1\n      div\n      0xffffffffffffffffffffffffffffffffffffffff\n      and\n        /* \"@openzeppelin/contracts/access/Ownable.sol\":1703:1716  return _owner */\n      swap1\n      pop\n        /* \"@openzeppelin/contracts/access/Ownable.sol\":1638:1723  function owner() public view virtual returns (address) {... */\n      swap1\n      jump\t// out\n        /* \"uupsContract/TokenTypeManager.sol\":369:533  function addTokenType(string calldata _tokenType) external onlyOwner {... */\n    tag_24:\n        /* \"@openzeppelin/contracts/access/Ownable.sol\":1531:1544  _checkOwner() */\n      tag_55\n        /* \"@openzeppelin/contracts/access/Ownable.sol\":1531:1542  _checkOwner */\n      tag_49\n        /* \"@openzeppelin/contracts/access/Ownable.sol\":1531:1544  _checkOwner() */\n      jump\t// in\n    tag_55:\n        /* \"uupsContract/TokenTypeManager.sol\":449:466  allowedTokenTypes */\n      0x01\n        /* \"uupsContract/TokenTypeManager.sol\":472:482  _tokenType */\n      dup3\n      dup3\n        /* \"uupsContract/TokenTypeManager.sol\":449:483  allowedTokenTypes.push(_tokenType) */\n      swap1\n      swap2\n      dup1\n      0x01\n      dup2\n      sload\n      add\n      dup1\n      dup3\n      sstore\n      dup1\n      swap2\n      pop\n      pop\n      0x01\n      swap1\n      sub\n      swap1\n      0x00\n      mstore\n      keccak256(0x00, 0x20)\n      add\n      0x00\n      swap1\n      swap2\n      swap3\n      swap1\n      swap2\n      swap3\n      swap1\n      swap2\n      swap3\n      swap1\n      swap2\n      swap3\n      pop\n      swap2\n      dup3\n      tag_58\n      swap3\n      swap2\n      swap1\n      tag_59\n      jump\t// in\n    tag_58:\n      pop\n        /* \"uupsContract/TokenTypeManager.sol\":499:525  TokenTypeAdded(_tokenType) */\n      0x06599b5a9752a1e5f2e358c22707404a5e56a6674192b037494f17caa8df3f43\n        /* \"uupsContract/TokenTypeManager.sol\":514:524  _tokenType */\n      dup3\n      dup3\n        /* \"uupsContract/TokenTypeManager.sol\":499:525  TokenTypeAdded(_tokenType) */\n      mload(0x40)\n      tag_60\n      swap3\n      swap2\n      swap1\n      tag_61\n      jump\t// in\n    tag_60:\n      mload(0x40)\n      dup1\n      swap2\n      sub\n      swap1\n      log1\n        /* \"uupsContract/TokenTypeManager.sol\":369:533  function addTokenType(string calldata _tokenType) external onlyOwner {... */\n      pop\n      pop\n      jump\t// out\n        /* \"uupsContract/TokenTypeManager.sol\":541:1030  function removeTokenType(string calldata _tokenType) external onlyOwner {... */\n    tag_27:\n        /* \"@openzeppelin/contracts/access/Ownable.sol\":1531:1544  _checkOwner() */\n      tag_63\n        /* \"@openzeppelin/contracts/access/Ownable.sol\":1531:1542  _checkOwner */\n      tag_49\n        /* \"@openzeppelin/contracts/access/Ownable.sol\":1531:1544  _checkOwner() */\n      jump\t// in\n    tag_63:\n        /* \"uupsContract/TokenTypeManager.sol\":629:635  uint i */\n      0x00\n        /* \"uupsContract/TokenTypeManager.sol\":624:1023  for (uint i = 0; i < allowedTokenTypes.length; i++) {... */\n    tag_65:\n        /* \"uupsContract/TokenTypeManager.sol\":645:662  allowedTokenTypes */\n      0x01\n        /* \"uupsContract/TokenTypeManager.sol\":645:669  allowedTokenTypes.length */\n      dup1\n      sload\n      swap1\n      pop\n        /* \"uupsContract/TokenTypeManager.sol\":641:642  i */\n      dup2\n        /* \"uupsContract/TokenTypeManager.sol\":641:669  i < allowedTokenTypes.length */\n      lt\n        /* \"uupsContract/TokenTypeManager.sol\":624:1023  for (uint i = 0; i < allowedTokenTypes.length; i++) {... */\n      iszero\n      tag_66\n      jumpi\n        /* \"uupsContract/TokenTypeManager.sol\":775:785  _tokenType */\n      dup3\n      dup3\n        /* \"uupsContract/TokenTypeManager.sol\":758:786  abi.encodePacked(_tokenType) */\n      add(0x20, mload(0x40))\n      tag_68\n      swap3\n      swap2\n      swap1\n      tag_69\n      jump\t// in\n    tag_68:\n      mload(0x40)\n      0x20\n      dup2\n      dup4\n      sub\n      sub\n      dup2\n      mstore\n      swap1\n      0x40\n      mstore\n        /* \"uupsContract/TokenTypeManager.sol\":748:787  keccak256(abi.encodePacked(_tokenType)) */\n      dup1\n      mload\n      swap1\n      0x20\n      add\n      keccak256\n        /* \"uupsContract/TokenTypeManager.sol\":722:739  allowedTokenTypes */\n      0x01\n        /* \"uupsContract/TokenTypeManager.sol\":740:741  i */\n      dup3\n        /* \"uupsContract/TokenTypeManager.sol\":722:742  allowedTokenTypes[i] */\n      dup2\n      sload\n      dup2\n      lt\n      tag_70\n      jumpi\n      tag_71\n      tag_72\n      jump\t// in\n    tag_71:\n    tag_70:\n      swap1\n      0x00\n      mstore\n      keccak256(0x00, 0x20)\n      add\n        /* \"uupsContract/TokenTypeManager.sol\":705:743  abi.encodePacked(allowedTokenTypes[i]) */\n      add(0x20, mload(0x40))\n      tag_74\n      swap2\n      swap1\n      tag_75\n      jump\t// in\n    tag_74:\n      mload(0x40)\n      0x20\n      dup2\n      dup4\n      sub\n      sub\n      dup2\n      mstore\n      swap1\n      0x40\n      mstore\n        /* \"uupsContract/TokenTypeManager.sol\":695:744  keccak256(abi.encodePacked(allowedTokenTypes[i])) */\n      dup1\n      mload\n      swap1\n      0x20\n      add\n      keccak256\n        /* \"uupsContract/TokenTypeManager.sol\":695:787  keccak256(abi.encodePacked(allowedTokenTypes[i])) == keccak256(abi.encodePacked(_tokenType)) */\n      sub\n        /* \"uupsContract/TokenTypeManager.sol\":691:1012  if (keccak256(abi.encodePacked(allowedTokenTypes[i])) == keccak256(abi.encodePacked(_tokenType))) {... */\n      tag_76\n      jumpi\n        /* \"uupsContract/TokenTypeManager.sol\":831:848  allowedTokenTypes */\n      0x01\n        /* \"uupsContract/TokenTypeManager.sol\":876:877  1 */\n      dup1\n        /* \"uupsContract/TokenTypeManager.sol\":849:866  allowedTokenTypes */\n      dup1\n        /* \"uupsContract/TokenTypeManager.sol\":849:873  allowedTokenTypes.length */\n      dup1\n      sload\n      swap1\n      pop\n        /* \"uupsContract/TokenTypeManager.sol\":849:877  allowedTokenTypes.length - 1 */\n      tag_77\n      swap2\n      swap1\n      tag_78\n      jump\t// in\n    tag_77:\n        /* \"uupsContract/TokenTypeManager.sol\":831:878  allowedTokenTypes[allowedTokenTypes.length - 1] */\n      dup2\n      sload\n      dup2\n      lt\n      tag_79\n      jumpi\n      tag_80\n      tag_72\n      jump\t// in\n    tag_80:\n    tag_79:\n      swap1\n      0x00\n      mstore\n      keccak256(0x00, 0x20)\n      add\n        /* \"uupsContract/TokenTypeManager.sol\":808:825  allowedTokenTypes */\n      0x01\n        /* \"uupsContract/TokenTypeManager.sol\":826:827  i */\n      dup3\n        /* \"uupsContract/TokenTypeManager.sol\":808:828  allowedTokenTypes[i] */\n      dup2\n      sload\n      dup2\n      lt\n      tag_82\n      jumpi\n      tag_83\n      tag_72\n      jump\t// in\n    tag_83:\n    tag_82:\n      swap1\n      0x00\n      mstore\n      keccak256(0x00, 0x20)\n      add\n        /* \"uupsContract/TokenTypeManager.sol\":808:878  allowedTokenTypes[i] = allowedTokenTypes[allowedTokenTypes.length - 1] */\n      swap1\n      dup2\n      tag_85\n      swap2\n      swap1\n      tag_86\n      jump\t// in\n    tag_85:\n      pop\n        /* \"uupsContract/TokenTypeManager.sol\":897:914  allowedTokenTypes */\n      0x01\n        /* \"uupsContract/TokenTypeManager.sol\":897:920  allowedTokenTypes.pop() */\n      dup1\n      sload\n      dup1\n      tag_87\n      jumpi\n      tag_88\n      tag_89\n      jump\t// in\n    tag_88:\n    tag_87:\n      0x01\n      swap1\n      sub\n      dup2\n      dup2\n      swap1\n      0x00\n      mstore\n      keccak256(0x00, 0x20)\n      add\n      0x00\n      tag_91\n      swap2\n      swap1\n      tag_92\n      jump\t// in\n    tag_91:\n      swap1\n      sstore\n        /* \"uupsContract/TokenTypeManager.sol\":944:972  TokenTypeRemoved(_tokenType) */\n      0xe97b68a0959e526c5c550702887358551e1144aea91c957abbbd84ca557eee43\n        /* \"uupsContract/TokenTypeManager.sol\":961:971  _tokenType */\n      dup4\n      dup4\n        /* \"uupsContract/TokenTypeManager.sol\":944:972  TokenTypeRemoved(_tokenType) */\n      mload(0x40)\n      tag_93\n      swap3\n      swap2\n      swap1\n      tag_61\n      jump\t// in\n    tag_93:\n      mload(0x40)\n      dup1\n      swap2\n      sub\n      swap1\n      log1\n        /* \"uupsContract/TokenTypeManager.sol\":991:996  break */\n      jump(tag_66)\n        /* \"uupsContract/TokenTypeManager.sol\":691:1012  if (keccak256(abi.encodePacked(allowedTokenTypes[i])) == keccak256(abi.encodePacked(_tokenType))) {... */\n    tag_76:\n        /* \"uupsContract/TokenTypeManager.sol\":671:674  i++ */\n      dup1\n      dup1\n      0x01\n      add\n      swap2\n      pop\n      pop\n        /* \"uupsContract/TokenTypeManager.sol\":624:1023  for (uint i = 0; i < allowedTokenTypes.length; i++) {... */\n      jump(tag_65)\n    tag_66:\n      pop\n        /* \"uupsContract/TokenTypeManager.sol\":541:1030  function removeTokenType(string calldata _tokenType) external onlyOwner {... */\n      pop\n      pop\n      jump\t// out\n        /* \"uupsContract/TokenTypeManager.sol\":1038:1386  function isAllowedTokenType(string calldata _tokenType) external view returns (bool) {... */\n    tag_30:\n        /* \"uupsContract/TokenTypeManager.sol\":1117:1121  bool */\n      0x00\n        /* \"uupsContract/TokenTypeManager.sol\":1139:1145  uint i */\n      dup1\n        /* \"uupsContract/TokenTypeManager.sol\":1148:1149  0 */\n      0x00\n        /* \"uupsContract/TokenTypeManager.sol\":1139:1149  uint i = 0 */\n      swap1\n      pop\n        /* \"uupsContract/TokenTypeManager.sol\":1134:1356  for (uint i = 0; i < allowedTokenTypes.length; i++) {... */\n    tag_95:\n        /* \"uupsContract/TokenTypeManager.sol\":1155:1172  allowedTokenTypes */\n      0x01\n        /* \"uupsContract/TokenTypeManager.sol\":1155:1179  allowedTokenTypes.length */\n      dup1\n      sload\n      swap1\n      pop\n        /* \"uupsContract/TokenTypeManager.sol\":1151:1152  i */\n      dup2\n        /* \"uupsContract/TokenTypeManager.sol\":1151:1179  i < allowedTokenTypes.length */\n      lt\n        /* \"uupsContract/TokenTypeManager.sol\":1134:1356  for (uint i = 0; i < allowedTokenTypes.length; i++) {... */\n      iszero\n      tag_96\n      jumpi\n        /* \"uupsContract/TokenTypeManager.sol\":1285:1295  _tokenType */\n      dup4\n      dup4\n        /* \"uupsContract/TokenTypeManager.sol\":1268:1296  abi.encodePacked(_tokenType) */\n      add(0x20, mload(0x40))\n      tag_98\n      swap3\n      swap2\n      swap1\n      tag_69\n      jump\t// in\n    tag_98:\n      mload(0x40)\n      0x20\n      dup2\n      dup4\n      sub\n      sub\n      dup2\n      mstore\n      swap1\n      0x40\n      mstore\n        /* \"uupsContract/TokenTypeManager.sol\":1258:1297  keccak256(abi.encodePacked(_tokenType)) */\n      dup1\n      mload\n      swap1\n      0x20\n      add\n      keccak256\n        /* \"uupsContract/TokenTypeManager.sol\":1232:1249  allowedTokenTypes */\n      0x01\n        /* \"uupsContract/TokenTypeManager.sol\":1250:1251  i */\n      dup3\n        /* \"uupsContract/TokenTypeManager.sol\":1232:1252  allowedTokenTypes[i] */\n      dup2\n      sload\n      dup2\n      lt\n      tag_99\n      jumpi\n      tag_100\n      tag_72\n      jump\t// in\n    tag_100:\n    tag_99:\n      swap1\n      0x00\n      mstore\n      keccak256(0x00, 0x20)\n      add\n        /* \"uupsContract/TokenTypeManager.sol\":1215:1253  abi.encodePacked(allowedTokenTypes[i]) */\n      add(0x20, mload(0x40))\n      tag_102\n      swap2\n      swap1\n      tag_75\n      jump\t// in\n    tag_102:\n      mload(0x40)\n      0x20\n      dup2\n      dup4\n      sub\n      sub\n      dup2\n      mstore\n      swap1\n      0x40\n      mstore\n        /* \"uupsContract/TokenTypeManager.sol\":1205:1254  keccak256(abi.encodePacked(allowedTokenTypes[i])) */\n      dup1\n      mload\n      swap1\n      0x20\n      add\n      keccak256\n        /* \"uupsContract/TokenTypeManager.sol\":1205:1297  keccak256(abi.encodePacked(allowedTokenTypes[i])) == keccak256(abi.encodePacked(_tokenType)) */\n      sub\n        /* \"uupsContract/TokenTypeManager.sol\":1201:1345  if (keccak256(abi.encodePacked(allowedTokenTypes[i])) == keccak256(abi.encodePacked(_tokenType))) {... */\n      tag_103\n      jumpi\n        /* \"uupsContract/TokenTypeManager.sol\":1325:1329  true */\n      0x01\n        /* \"uupsContract/TokenTypeManager.sol\":1318:1329  return true */\n      swap2\n      pop\n      pop\n      jump(tag_94)\n        /* \"uupsContract/TokenTypeManager.sol\":1201:1345  if (keccak256(abi.encodePacked(allowedTokenTypes[i])) == keccak256(abi.encodePacked(_tokenType))) {... */\n    tag_103:\n        /* \"uupsContract/TokenTypeManager.sol\":1181:1184  i++ */\n      dup1\n      dup1\n      0x01\n      add\n      swap2\n      pop\n      pop\n        /* \"uupsContract/TokenTypeManager.sol\":1134:1356  for (uint i = 0; i < allowedTokenTypes.length; i++) {... */\n      jump(tag_95)\n    tag_96:\n      pop\n        /* \"uupsContract/TokenTypeManager.sol\":1373:1378  false */\n      0x00\n        /* \"uupsContract/TokenTypeManager.sol\":1366:1378  return false */\n      swap1\n      pop\n        /* \"uupsContract/TokenTypeManager.sol\":1038:1386  function isAllowedTokenType(string calldata _tokenType) external view returns (bool) {... */\n    tag_94:\n      swap3\n      swap2\n      pop\n      pop\n      jump\t// out\n        /* \"@openzeppelin/contracts/access/Ownable.sol\":2543:2758  function transferOwnership(address newOwner) public virtual onlyOwner {... */\n    tag_36:\n        /* \"@openzeppelin/contracts/access/Ownable.sol\":1531:1544  _checkOwner() */\n      tag_105\n        /* \"@openzeppelin/contracts/access/Ownable.sol\":1531:1542  _checkOwner */\n      tag_49\n        /* \"@openzeppelin/contracts/access/Ownable.sol\":1531:1544  _checkOwner() */\n      jump\t// in\n    tag_105:\n        /* \"@openzeppelin/contracts/access/Ownable.sol\":2647:2648  0 */\n      0x00\n        /* \"@openzeppelin/contracts/access/Ownable.sol\":2627:2649  newOwner == address(0) */\n      0xffffffffffffffffffffffffffffffffffffffff\n      and\n        /* \"@openzeppelin/contracts/access/Ownable.sol\":2627:2635  newOwner */\n      dup2\n        /* \"@openzeppelin/contracts/access/Ownable.sol\":2627:2649  newOwner == address(0) */\n      0xffffffffffffffffffffffffffffffffffffffff\n      and\n      sub\n        /* \"@openzeppelin/contracts/access/Ownable.sol\":2623:2714  if (newOwner == address(0)) {... */\n      tag_107\n      jumpi\n        /* \"@openzeppelin/contracts/access/Ownable.sol\":2700:2701  0 */\n      0x00\n        /* \"@openzeppelin/contracts/access/Ownable.sol\":2672:2703  OwnableInvalidOwner(address(0)) */\n      mload(0x40)\n      0x1e4fbdf700000000000000000000000000000000000000000000000000000000\n      dup2\n      mstore\n      0x04\n      add\n      tag_108\n      swap2\n      swap1\n      tag_20\n      jump\t// in\n    tag_108:\n      mload(0x40)\n      dup1\n      swap2\n      sub\n      swap1\n      revert\n        /* \"@openzeppelin/contracts/access/Ownable.sol\":2623:2714  if (newOwner == address(0)) {... */\n    tag_107:\n        /* \"@openzeppelin/contracts/access/Ownable.sol\":2723:2751  _transferOwnership(newOwner) */\n      tag_109\n        /* \"@openzeppelin/contracts/access/Ownable.sol\":2742:2750  newOwner */\n      dup2\n        /* \"@openzeppelin/contracts/access/Ownable.sol\":2723:2741  _transferOwnership */\n      tag_52\n        /* \"@openzeppelin/contracts/access/Ownable.sol\":2723:2751  _transferOwnership(newOwner) */\n      jump\t// in\n    tag_109:\n        /* \"@openzeppelin/contracts/access/Ownable.sol\":2543:2758  function transferOwnership(address newOwner) public virtual onlyOwner {... */\n      pop\n      jump\t// out\n        /* \"@openzeppelin/contracts/access/Ownable.sol\":1796:1958  function _checkOwner() internal view virtual {... */\n    tag_49:\n        /* \"@openzeppelin/contracts/access/Ownable.sol\":1866:1878  _msgSender() */\n      tag_111\n        /* \"@openzeppelin/contracts/access/Ownable.sol\":1866:1876  _msgSender */\n      tag_112\n        /* \"@openzeppelin/contracts/access/Ownable.sol\":1866:1878  _msgSender() */\n      jump\t// in\n    tag_111:\n        /* \"@openzeppelin/contracts/access/Ownable.sol\":1855:1878  owner() != _msgSender() */\n      0xffffffffffffffffffffffffffffffffffffffff\n      and\n        /* \"@openzeppelin/contracts/access/Ownable.sol\":1855:1862  owner() */\n      tag_113\n        /* \"@openzeppelin/contracts/access/Ownable.sol\":1855:1860  owner */\n      tag_18\n        /* \"@openzeppelin/contracts/access/Ownable.sol\":1855:1862  owner() */\n      jump\t// in\n    tag_113:\n        /* \"@openzeppelin/contracts/access/Ownable.sol\":1855:1878  owner() != _msgSender() */\n      0xffffffffffffffffffffffffffffffffffffffff\n      and\n      eq\n        /* \"@openzeppelin/contracts/access/Ownable.sol\":1851:1952  if (owner() != _msgSender()) {... */\n      tag_114\n      jumpi\n        /* \"@openzeppelin/contracts/access/Ownable.sol\":1928:1940  _msgSender() */\n      tag_115\n        /* \"@openzeppelin/contracts/access/Ownable.sol\":1928:1938  _msgSender */\n      tag_112\n        /* \"@openzeppelin/contracts/access/Ownable.sol\":1928:1940  _msgSender() */\n      jump\t// in\n    tag_115:\n        /* \"@openzeppelin/contracts/access/Ownable.sol\":1901:1941  OwnableUnauthorizedAccount(_msgSender()) */\n      mload(0x40)\n      0x118cdaa700000000000000000000000000000000000000000000000000000000\n      dup2\n      mstore\n      0x04\n      add\n      tag_116\n      swap2\n      swap1\n      tag_20\n      jump\t// in\n    tag_116:\n      mload(0x40)\n      dup1\n      swap2\n      sub\n      swap1\n      revert\n        /* \"@openzeppelin/contracts/access/Ownable.sol\":1851:1952  if (owner() != _msgSender()) {... */\n    tag_114:\n        /* \"@openzeppelin/contracts/access/Ownable.sol\":1796:1958  function _checkOwner() internal view virtual {... */\n      jump\t// out\n        /* \"@openzeppelin/contracts/access/Ownable.sol\":2912:3099  function _transferOwnership(address newOwner) internal virtual {... */\n    tag_52:\n        /* \"@openzeppelin/contracts/access/Ownable.sol\":2985:3001  address oldOwner */\n      0x00\n        /* \"@openzeppelin/contracts/access/Ownable.sol\":3004:3010  _owner */\n      dup1\n      0x00\n      swap1\n      sload\n      swap1\n      0x0100\n      exp\n      swap1\n      div\n      0xffffffffffffffffffffffffffffffffffffffff\n      and\n        /* \"@openzeppelin/contracts/access/Ownable.sol\":2985:3010  address oldOwner = _owner */\n      swap1\n      pop\n        /* \"@openzeppelin/contracts/access/Ownable.sol\":3029:3037  newOwner */\n      dup2\n        /* \"@openzeppelin/contracts/access/Ownable.sol\":3020:3026  _owner */\n      0x00\n      dup1\n        /* \"@openzeppelin/contracts/access/Ownable.sol\":3020:3037  _owner = newOwner */\n      0x0100\n      exp\n      dup2\n      sload\n      dup2\n      0xffffffffffffffffffffffffffffffffffffffff\n      mul\n      not\n      and\n      swap1\n      dup4\n      0xffffffffffffffffffffffffffffffffffffffff\n      and\n      mul\n      or\n      swap1\n      sstore\n      pop\n        /* \"@openzeppelin/contracts/access/Ownable.sol\":3083:3091  newOwner */\n      dup2\n        /* \"@openzeppelin/contracts/access/Ownable.sol\":3052:3092  OwnershipTransferred(oldOwner, newOwner) */\n      0xffffffffffffffffffffffffffffffffffffffff\n      and\n        /* \"@openzeppelin/contracts/access/Ownable.sol\":3073:3081  oldOwner */\n      dup2\n        /* \"@openzeppelin/contracts/access/Ownable.sol\":3052:3092  OwnershipTransferred(oldOwner, newOwner) */\n      0xffffffffffffffffffffffffffffffffffffffff\n      and\n      0x8be0079c531659141344cd1fd0a4f28419497f9722a3daafe3b4186f6b6457e0\n      mload(0x40)\n      mload(0x40)\n      dup1\n      swap2\n      sub\n      swap1\n      log3\n        /* \"@openzeppelin/contracts/access/Ownable.sol\":2975:3099  {... */\n      pop\n        /* \"@openzeppelin/contracts/access/Ownable.sol\":2912:3099  function _transferOwnership(address newOwner) internal virtual {... */\n      pop\n      jump\t// out\n        /* \"@openzeppelin/contracts/utils/Context.sol\":656:752  function _msgSender() internal view virtual returns (address) {... */\n    tag_112:\n        /* \"@openzeppelin/contracts/utils/Context.sol\":709:716  address */\n      0x00\n        /* \"@openzeppelin/contracts/utils/Context.sol\":735:745  msg.sender */\n      caller\n        /* \"@openzeppelin/contracts/utils/Context.sol\":728:745  return msg.sender */\n      swap1\n      pop\n        /* \"@openzeppelin/contracts/utils/Context.sol\":656:752  function _msgSender() internal view virtual returns (address) {... */\n      swap1\n      jump\t// out\n    tag_92:\n      pop\n      dup1\n      sload\n      tag_119\n      swap1\n      tag_42\n      jump\t// in\n    tag_119:\n      0x00\n      dup3\n      sstore\n      dup1\n      0x1f\n      lt\n      tag_121\n      jumpi\n      pop\n      jump(tag_120)\n    tag_121:\n      0x1f\n      add\n      0x20\n      swap1\n      div\n      swap1\n      0x00\n      mstore\n      keccak256(0x00, 0x20)\n      swap1\n      dup2\n      add\n      swap1\n      tag_122\n      swap2\n      swap1\n      tag_123\n      jump\t// in\n    tag_122:\n    tag_120:\n      pop\n      jump\t// out\n    tag_123:\n    tag_124:\n      dup1\n      dup3\n      gt\n      iszero\n      tag_125\n      jumpi\n      0x00\n      dup2\n      0x00\n      swap1\n      sstore\n      pop\n      0x01\n      add\n      jump(tag_124)\n    tag_125:\n      pop\n      swap1\n      jump\t// out\n        /* \"#utility.yul\":7:131   */\n    tag_126:\n        /* \"#utility.yul\":84:90   */\n      0x00\n        /* \"#utility.yul\":118:123   */\n      dup2\n        /* \"#utility.yul\":112:124   */\n      mload\n        /* \"#utility.yul\":102:124   */\n      swap1\n      pop\n        /* \"#utility.yul\":7:131   */\n      swap2\n      swap1\n      pop\n      jump\t// out\n        /* \"#utility.yul\":137:331   */\n    tag_127:\n        /* \"#utility.yul\":246:257   */\n      0x00\n        /* \"#utility.yul\":280:286   */\n      dup3\n        /* \"#utility.yul\":275:278   */\n      dup3\n        /* \"#utility.yul\":268:287   */\n      mstore\n        /* \"#utility.yul\":320:324   */\n      0x20\n        /* \"#utility.yul\":315:318   */\n      dup3\n        /* \"#utility.yul\":311:325   */\n      add\n        /* \"#utility.yul\":296:325   */\n      swap1\n      pop\n        /* \"#utility.yul\":137:331   */\n      swap3\n      swap2\n      pop\n      pop\n      jump\t// out\n        /* \"#utility.yul\":337:479   */\n    tag_128:\n        /* \"#utility.yul\":414:418   */\n      0x00\n        /* \"#utility.yul\":437:440   */\n      dup2\n        /* \"#utility.yul\":429:440   */\n      swap1\n      pop\n        /* \"#utility.yul\":467:471   */\n      0x20\n        /* \"#utility.yul\":462:465   */\n      dup3\n        /* \"#utility.yul\":458:472   */\n      add\n        /* \"#utility.yul\":450:472   */\n      swap1\n      pop\n        /* \"#utility.yul\":337:479   */\n      swap2\n      swap1\n      pop\n      jump\t// out\n        /* \"#utility.yul\":485:584   */\n    tag_129:\n        /* \"#utility.yul\":537:543   */\n      0x00\n        /* \"#utility.yul\":571:576   */\n      dup2\n        /* \"#utility.yul\":565:577   */\n      mload\n        /* \"#utility.yul\":555:577   */\n      swap1\n      pop\n        /* \"#utility.yul\":485:584   */\n      swap2\n      swap1\n      pop\n      jump\t// out\n        /* \"#utility.yul\":590:749   */\n    tag_130:\n        /* \"#utility.yul\":664:675   */\n      0x00\n        /* \"#utility.yul\":698:704   */\n      dup3\n        /* \"#utility.yul\":693:696   */\n      dup3\n        /* \"#utility.yul\":686:705   */\n      mstore\n        /* \"#utility.yul\":738:742   */\n      0x20\n        /* \"#utility.yul\":733:736   */\n      dup3\n        /* \"#utility.yul\":729:743   */\n      add\n        /* \"#utility.yul\":714:743   */\n      swap1\n      pop\n        /* \"#utility.yul\":590:749   */\n      swap3\n      swap2\n      pop\n      pop\n      jump\t// out\n        /* \"#utility.yul\":755:894   */\n    tag_131:\n        /* \"#utility.yul\":844:850   */\n      dup3\n        /* \"#utility.yul\":839:842   */\n      dup2\n        /* \"#utility.yul\":834:837   */\n      dup4\n        /* \"#utility.yul\":828:851   */\n      mcopy\n        /* \"#utility.yul\":885:886   */\n      0x00\n        /* \"#utility.yul\":876:882   */\n      dup4\n        /* \"#utility.yul\":871:874   */\n      dup4\n        /* \"#utility.yul\":867:883   */\n      add\n        /* \"#utility.yul\":860:887   */\n      mstore\n        /* \"#utility.yul\":755:894   */\n      pop\n      pop\n      pop\n      jump\t// out\n        /* \"#utility.yul\":900:1002   */\n    tag_132:\n        /* \"#utility.yul\":941:947   */\n      0x00\n        /* \"#utility.yul\":992:994   */\n      0x1f\n        /* \"#utility.yul\":988:995   */\n      not\n        /* \"#utility.yul\":983:985   */\n      0x1f\n        /* \"#utility.yul\":976:981   */\n      dup4\n        /* \"#utility.yul\":972:986   */\n      add\n        /* \"#utility.yul\":968:996   */\n      and\n        /* \"#utility.yul\":958:996   */\n      swap1\n      pop\n        /* \"#utility.yul\":900:1002   */\n      swap2\n      swap1\n      pop\n      jump\t// out\n        /* \"#utility.yul\":1008:1365   */\n    tag_133:\n        /* \"#utility.yul\":1086:1089   */\n      0x00\n        /* \"#utility.yul\":1114:1153   */\n      tag_188\n        /* \"#utility.yul\":1147:1152   */\n      dup3\n        /* \"#utility.yul\":1114:1153   */\n      tag_129\n      jump\t// in\n    tag_188:\n        /* \"#utility.yul\":1169:1230   */\n      tag_189\n        /* \"#utility.yul\":1223:1229   */\n      dup2\n        /* \"#utility.yul\":1218:1221   */\n      dup6\n        /* \"#utility.yul\":1169:1230   */\n      tag_130\n      jump\t// in\n    tag_189:\n        /* \"#utility.yul\":1162:1230   */\n      swap4\n      pop\n        /* \"#utility.yul\":1239:1304   */\n      tag_190\n        /* \"#utility.yul\":1297:1303   */\n      dup2\n        /* \"#utility.yul\":1292:1295   */\n      dup6\n        /* \"#utility.yul\":1285:1289   */\n      0x20\n        /* \"#utility.yul\":1278:1283   */\n      dup7\n        /* \"#utility.yul\":1274:1290   */\n      add\n        /* \"#utility.yul\":1239:1304   */\n      tag_131\n      jump\t// in\n    tag_190:\n        /* \"#utility.yul\":1329:1358   */\n      tag_191\n        /* \"#utility.yul\":1351:1357   */\n      dup2\n        /* \"#utility.yul\":1329:1358   */\n      tag_132\n      jump\t// in\n    tag_191:\n        /* \"#utility.yul\":1324:1327   */\n      dup5\n        /* \"#utility.yul\":1320:1359   */\n      add\n        /* \"#utility.yul\":1313:1359   */\n      swap2\n      pop\n        /* \"#utility.yul\":1090:1365   */\n      pop\n        /* \"#utility.yul\":1008:1365   */\n      swap3\n      swap2\n      pop\n      pop\n      jump\t// out\n        /* \"#utility.yul\":1371:1567   */\n    tag_134:\n        /* \"#utility.yul\":1460:1470   */\n      0x00\n        /* \"#utility.yul\":1495:1561   */\n      tag_193\n        /* \"#utility.yul\":1557:1560   */\n      dup4\n        /* \"#utility.yul\":1549:1555   */\n      dup4\n        /* \"#utility.yul\":1495:1561   */\n      tag_133\n      jump\t// in\n    tag_193:\n        /* \"#utility.yul\":1481:1561   */\n      swap1\n      pop\n        /* \"#utility.yul\":1371:1567   */\n      swap3\n      swap2\n      pop\n      pop\n      jump\t// out\n        /* \"#utility.yul\":1573:1696   */\n    tag_135:\n        /* \"#utility.yul\":1653:1657   */\n      0x00\n        /* \"#utility.yul\":1685:1689   */\n      0x20\n        /* \"#utility.yul\":1680:1683   */\n      dup3\n        /* \"#utility.yul\":1676:1690   */\n      add\n        /* \"#utility.yul\":1668:1690   */\n      swap1\n      pop\n        /* \"#utility.yul\":1573:1696   */\n      swap2\n      swap1\n      pop\n      jump\t// out\n        /* \"#utility.yul\":1730:2721   */\n    tag_136:\n        /* \"#utility.yul\":1869:1872   */\n      0x00\n        /* \"#utility.yul\":1898:1962   */\n      tag_196\n        /* \"#utility.yul\":1956:1961   */\n      dup3\n        /* \"#utility.yul\":1898:1962   */\n      tag_126\n      jump\t// in\n    tag_196:\n        /* \"#utility.yul\":1978:2074   */\n      tag_197\n        /* \"#utility.yul\":2067:2073   */\n      dup2\n        /* \"#utility.yul\":2062:2065   */\n      dup6\n        /* \"#utility.yul\":1978:2074   */\n      tag_127\n      jump\t// in\n    tag_197:\n        /* \"#utility.yul\":1971:2074   */\n      swap4\n      pop\n        /* \"#utility.yul\":2100:2103   */\n      dup4\n        /* \"#utility.yul\":2145:2149   */\n      0x20\n        /* \"#utility.yul\":2137:2143   */\n      dup3\n        /* \"#utility.yul\":2133:2150   */\n      mul\n        /* \"#utility.yul\":2128:2131   */\n      dup6\n        /* \"#utility.yul\":2124:2151   */\n      add\n        /* \"#utility.yul\":2175:2241   */\n      tag_198\n        /* \"#utility.yul\":2235:2240   */\n      dup6\n        /* \"#utility.yul\":2175:2241   */\n      tag_128\n      jump\t// in\n    tag_198:\n        /* \"#utility.yul\":2264:2271   */\n      dup1\n        /* \"#utility.yul\":2295:2296   */\n      0x00\n        /* \"#utility.yul\":2280:2676   */\n    tag_199:\n        /* \"#utility.yul\":2305:2311   */\n      dup6\n        /* \"#utility.yul\":2302:2303   */\n      dup2\n        /* \"#utility.yul\":2299:2312   */\n      lt\n        /* \"#utility.yul\":2280:2676   */\n      iszero\n      tag_201\n      jumpi\n        /* \"#utility.yul\":2376:2385   */\n      dup5\n        /* \"#utility.yul\":2370:2374   */\n      dup5\n        /* \"#utility.yul\":2366:2386   */\n      sub\n        /* \"#utility.yul\":2361:2364   */\n      dup10\n        /* \"#utility.yul\":2354:2387   */\n      mstore\n        /* \"#utility.yul\":2427:2433   */\n      dup2\n        /* \"#utility.yul\":2421:2434   */\n      mload\n        /* \"#utility.yul\":2455:2539   */\n      tag_202\n        /* \"#utility.yul\":2534:2538   */\n      dup6\n        /* \"#utility.yul\":2519:2532   */\n      dup3\n        /* \"#utility.yul\":2455:2539   */\n      tag_134\n      jump\t// in\n    tag_202:\n        /* \"#utility.yul\":2447:2539   */\n      swap5\n      pop\n        /* \"#utility.yul\":2562:2632   */\n      tag_203\n        /* \"#utility.yul\":2625:2631   */\n      dup4\n        /* \"#utility.yul\":2562:2632   */\n      tag_135\n      jump\t// in\n    tag_203:\n        /* \"#utility.yul\":2552:2632   */\n      swap3\n      pop\n        /* \"#utility.yul\":2661:2665   */\n      0x20\n        /* \"#utility.yul\":2656:2659   */\n      dup11\n        /* \"#utility.yul\":2652:2666   */\n      add\n        /* \"#utility.yul\":2645:2666   */\n      swap10\n      pop\n        /* \"#utility.yul\":2340:2676   */\n      pop\n        /* \"#utility.yul\":2327:2328   */\n      0x01\n        /* \"#utility.yul\":2324:2325   */\n      dup2\n        /* \"#utility.yul\":2320:2329   */\n      add\n        /* \"#utility.yul\":2315:2329   */\n      swap1\n      pop\n        /* \"#utility.yul\":2280:2676   */\n      jump(tag_199)\n    tag_201:\n        /* \"#utility.yul\":2284:2298   */\n      pop\n        /* \"#utility.yul\":2692:2696   */\n      dup3\n        /* \"#utility.yul\":2685:2696   */\n      swap8\n      pop\n        /* \"#utility.yul\":2712:2715   */\n      dup8\n        /* \"#utility.yul\":2705:2715   */\n      swap6\n      pop\n        /* \"#utility.yul\":1874:2721   */\n      pop\n      pop\n      pop\n      pop\n      pop\n        /* \"#utility.yul\":1730:2721   */\n      swap3\n      swap2\n      pop\n      pop\n      jump\t// out\n        /* \"#utility.yul\":2727:3140   */\n    tag_14:\n        /* \"#utility.yul\":2890:2894   */\n      0x00\n        /* \"#utility.yul\":2928:2930   */\n      0x20\n        /* \"#utility.yul\":2917:2926   */\n      dup3\n        /* \"#utility.yul\":2913:2931   */\n      add\n        /* \"#utility.yul\":2905:2931   */\n      swap1\n      pop\n        /* \"#utility.yul\":2977:2986   */\n      dup2\n        /* \"#utility.yul\":2971:2975   */\n      dup2\n        /* \"#utility.yul\":2967:2987   */\n      sub\n        /* \"#utility.yul\":2963:2964   */\n      0x00\n        /* \"#utility.yul\":2952:2961   */\n      dup4\n        /* \"#utility.yul\":2948:2965   */\n      add\n        /* \"#utility.yul\":2941:2988   */\n      mstore\n        /* \"#utility.yul\":3005:3133   */\n      tag_205\n        /* \"#utility.yul\":3128:3132   */\n      dup2\n        /* \"#utility.yul\":3119:3125   */\n      dup5\n        /* \"#utility.yul\":3005:3133   */\n      tag_136\n      jump\t// in\n    tag_205:\n        /* \"#utility.yul\":2997:3133   */\n      swap1\n      pop\n        /* \"#utility.yul\":2727:3140   */\n      swap3\n      swap2\n      pop\n      pop\n      jump\t// out\n        /* \"#utility.yul\":3146:3272   */\n    tag_137:\n        /* \"#utility.yul\":3183:3190   */\n      0x00\n        /* \"#utility.yul\":3223:3265   */\n      0xffffffffffffffffffffffffffffffffffffffff\n        /* \"#utility.yul\":3216:3221   */\n      dup3\n        /* \"#utility.yul\":3212:3266   */\n      and\n        /* \"#utility.yul\":3201:3266   */\n      swap1\n      pop\n        /* \"#utility.yul\":3146:3272   */\n      swap2\n      swap1\n      pop\n      jump\t// out\n        /* \"#utility.yul\":3278:3374   */\n    tag_138:\n        /* \"#utility.yul\":3315:3322   */\n      0x00\n        /* \"#utility.yul\":3344:3368   */\n      tag_208\n        /* \"#utility.yul\":3362:3367   */\n      dup3\n        /* \"#utility.yul\":3344:3368   */\n      tag_137\n      jump\t// in\n    tag_208:\n        /* \"#utility.yul\":3333:3368   */\n      swap1\n      pop\n        /* \"#utility.yul\":3278:3374   */\n      swap2\n      swap1\n      pop\n      jump\t// out\n        /* \"#utility.yul\":3380:3498   */\n    tag_139:\n        /* \"#utility.yul\":3467:3491   */\n      tag_210\n        /* \"#utility.yul\":3485:3490   */\n      dup2\n        /* \"#utility.yul\":3467:3491   */\n      tag_138\n      jump\t// in\n    tag_210:\n        /* \"#utility.yul\":3462:3465   */\n      dup3\n        /* \"#utility.yul\":3455:3492   */\n      mstore\n        /* \"#utility.yul\":3380:3498   */\n      pop\n      pop\n      jump\t// out\n        /* \"#utility.yul\":3504:3726   */\n    tag_20:\n        /* \"#utility.yul\":3597:3601   */\n      0x00\n        /* \"#utility.yul\":3635:3637   */\n      0x20\n        /* \"#utility.yul\":3624:3633   */\n      dup3\n        /* \"#utility.yul\":3620:3638   */\n      add\n        /* \"#utility.yul\":3612:3638   */\n      swap1\n      pop\n        /* \"#utility.yul\":3648:3719   */\n      tag_212\n        /* \"#utility.yul\":3716:3717   */\n      0x00\n        /* \"#utility.yul\":3705:3714   */\n      dup4\n        /* \"#utility.yul\":3701:3718   */\n      add\n        /* \"#utility.yul\":3692:3698   */\n      dup5\n        /* \"#utility.yul\":3648:3719   */\n      tag_139\n      jump\t// in\n    tag_212:\n        /* \"#utility.yul\":3504:3726   */\n      swap3\n      swap2\n      pop\n      pop\n      jump\t// out\n        /* \"#utility.yul\":3813:3930   */\n    tag_141:\n        /* \"#utility.yul\":3922:3923   */\n      0x00\n        /* \"#utility.yul\":3919:3920   */\n      dup1\n        /* \"#utility.yul\":3912:3924   */\n      revert\n        /* \"#utility.yul\":3936:4053   */\n    tag_142:\n        /* \"#utility.yul\":4045:4046   */\n      0x00\n        /* \"#utility.yul\":4042:4043   */\n      dup1\n        /* \"#utility.yul\":4035:4047   */\n      revert\n        /* \"#utility.yul\":4059:4176   */\n    tag_143:\n        /* \"#utility.yul\":4168:4169   */\n      0x00\n        /* \"#utility.yul\":4165:4166   */\n      dup1\n        /* \"#utility.yul\":4158:4170   */\n      revert\n        /* \"#utility.yul\":4182:4299   */\n    tag_144:\n        /* \"#utility.yul\":4291:4292   */\n      0x00\n        /* \"#utility.yul\":4288:4289   */\n      dup1\n        /* \"#utility.yul\":4281:4293   */\n      revert\n        /* \"#utility.yul\":4305:4422   */\n    tag_145:\n        /* \"#utility.yul\":4414:4415   */\n      0x00\n        /* \"#utility.yul\":4411:4412   */\n      dup1\n        /* \"#utility.yul\":4404:4416   */\n      revert\n        /* \"#utility.yul\":4442:4995   */\n    tag_146:\n        /* \"#utility.yul\":4500:4508   */\n      0x00\n        /* \"#utility.yul\":4510:4516   */\n      dup1\n        /* \"#utility.yul\":4560:4563   */\n      dup4\n        /* \"#utility.yul\":4553:4557   */\n      0x1f\n        /* \"#utility.yul\":4545:4551   */\n      dup5\n        /* \"#utility.yul\":4541:4558   */\n      add\n        /* \"#utility.yul\":4537:4564   */\n      slt\n        /* \"#utility.yul\":4527:4649   */\n      tag_220\n      jumpi\n        /* \"#utility.yul\":4568:4647   */\n      tag_221\n      tag_143\n      jump\t// in\n    tag_221:\n        /* \"#utility.yul\":4527:4649   */\n    tag_220:\n        /* \"#utility.yul\":4681:4687   */\n      dup3\n        /* \"#utility.yul\":4668:4688   */\n      calldataload\n        /* \"#utility.yul\":4658:4688   */\n      swap1\n      pop\n        /* \"#utility.yul\":4711:4729   */\n      0xffffffffffffffff\n        /* \"#utility.yul\":4703:4709   */\n      dup2\n        /* \"#utility.yul\":4700:4730   */\n      gt\n        /* \"#utility.yul\":4697:4814   */\n      iszero\n      tag_222\n      jumpi\n        /* \"#utility.yul\":4733:4812   */\n      tag_223\n      tag_144\n      jump\t// in\n    tag_223:\n        /* \"#utility.yul\":4697:4814   */\n    tag_222:\n        /* \"#utility.yul\":4847:4851   */\n      0x20\n        /* \"#utility.yul\":4839:4845   */\n      dup4\n        /* \"#utility.yul\":4835:4852   */\n      add\n        /* \"#utility.yul\":4823:4852   */\n      swap2\n      pop\n        /* \"#utility.yul\":4901:4904   */\n      dup4\n        /* \"#utility.yul\":4893:4897   */\n      0x01\n        /* \"#utility.yul\":4885:4891   */\n      dup3\n        /* \"#utility.yul\":4881:4898   */\n      mul\n        /* \"#utility.yul\":4871:4879   */\n      dup4\n        /* \"#utility.yul\":4867:4899   */\n      add\n        /* \"#utility.yul\":4864:4905   */\n      gt\n        /* \"#utility.yul\":4861:4989   */\n      iszero\n      tag_224\n      jumpi\n        /* \"#utility.yul\":4908:4987   */\n      tag_225\n      tag_145\n      jump\t// in\n    tag_225:\n        /* \"#utility.yul\":4861:4989   */\n    tag_224:\n        /* \"#utility.yul\":4442:4995   */\n      swap3\n      pop\n      swap3\n      swap1\n      pop\n      jump\t// out\n        /* \"#utility.yul\":5001:5530   */\n    tag_23:\n        /* \"#utility.yul\":5072:5078   */\n      0x00\n        /* \"#utility.yul\":5080:5086   */\n      dup1\n        /* \"#utility.yul\":5129:5131   */\n      0x20\n        /* \"#utility.yul\":5117:5126   */\n      dup4\n        /* \"#utility.yul\":5108:5115   */\n      dup6\n        /* \"#utility.yul\":5104:5127   */\n      sub\n        /* \"#utility.yul\":5100:5132   */\n      slt\n        /* \"#utility.yul\":5097:5216   */\n      iszero\n      tag_227\n      jumpi\n        /* \"#utility.yul\":5135:5214   */\n      tag_228\n      tag_141\n      jump\t// in\n    tag_228:\n        /* \"#utility.yul\":5097:5216   */\n    tag_227:\n        /* \"#utility.yul\":5283:5284   */\n      0x00\n        /* \"#utility.yul\":5272:5281   */\n      dup4\n        /* \"#utility.yul\":5268:5285   */\n      add\n        /* \"#utility.yul\":5255:5286   */\n      calldataload\n        /* \"#utility.yul\":5313:5331   */\n      0xffffffffffffffff\n        /* \"#utility.yul\":5305:5311   */\n      dup2\n        /* \"#utility.yul\":5302:5332   */\n      gt\n        /* \"#utility.yul\":5299:5416   */\n      iszero\n      tag_229\n      jumpi\n        /* \"#utility.yul\":5335:5414   */\n      tag_230\n      tag_142\n      jump\t// in\n    tag_230:\n        /* \"#utility.yul\":5299:5416   */\n    tag_229:\n        /* \"#utility.yul\":5448:5513   */\n      tag_231\n        /* \"#utility.yul\":5505:5512   */\n      dup6\n        /* \"#utility.yul\":5496:5502   */\n      dup3\n        /* \"#utility.yul\":5485:5494   */\n      dup7\n        /* \"#utility.yul\":5481:5503   */\n      add\n        /* \"#utility.yul\":5448:5513   */\n      tag_146\n      jump\t// in\n    tag_231:\n        /* \"#utility.yul\":5430:5513   */\n      swap3\n      pop\n      swap3\n      pop\n        /* \"#utility.yul\":5226:5523   */\n      pop\n        /* \"#utility.yul\":5001:5530   */\n      swap3\n      pop\n      swap3\n      swap1\n      pop\n      jump\t// out\n        /* \"#utility.yul\":5536:5626   */\n    tag_147:\n        /* \"#utility.yul\":5570:5577   */\n      0x00\n        /* \"#utility.yul\":5613:5618   */\n      dup2\n        /* \"#utility.yul\":5606:5619   */\n      iszero\n        /* \"#utility.yul\":5599:5620   */\n      iszero\n        /* \"#utility.yul\":5588:5620   */\n      swap1\n      pop\n        /* \"#utility.yul\":5536:5626   */\n      swap2\n      swap1\n      pop\n      jump\t// out\n        /* \"#utility.yul\":5632:5741   */\n    tag_148:\n        /* \"#utility.yul\":5713:5734   */\n      tag_234\n        /* \"#utility.yul\":5728:5733   */\n      dup2\n        /* \"#utility.yul\":5713:5734   */\n      tag_147\n      jump\t// in\n    tag_234:\n        /* \"#utility.yul\":5708:5711   */\n      dup3\n        /* \"#utility.yul\":5701:5735   */\n      mstore\n        /* \"#utility.yul\":5632:5741   */\n      pop\n      pop\n      jump\t// out\n        /* \"#utility.yul\":5747:5957   */\n    tag_32:\n        /* \"#utility.yul\":5834:5838   */\n      0x00\n        /* \"#utility.yul\":5872:5874   */\n      0x20\n        /* \"#utility.yul\":5861:5870   */\n      dup3\n        /* \"#utility.yul\":5857:5875   */\n      add\n        /* \"#utility.yul\":5849:5875   */\n      swap1\n      pop\n        /* \"#utility.yul\":5885:5950   */\n      tag_236\n        /* \"#utility.yul\":5947:5948   */\n      0x00\n        /* \"#utility.yul\":5936:5945   */\n      dup4\n        /* \"#utility.yul\":5932:5949   */\n      add\n        /* \"#utility.yul\":5923:5929   */\n      dup5\n        /* \"#utility.yul\":5885:5950   */\n      tag_148\n      jump\t// in\n    tag_236:\n        /* \"#utility.yul\":5747:5957   */\n      swap3\n      swap2\n      pop\n      pop\n      jump\t// out\n        /* \"#utility.yul\":5963:6085   */\n    tag_149:\n        /* \"#utility.yul\":6036:6060   */\n      tag_238\n        /* \"#utility.yul\":6054:6059   */\n      dup2\n        /* \"#utility.yul\":6036:6060   */\n      tag_138\n      jump\t// in\n    tag_238:\n        /* \"#utility.yul\":6029:6034   */\n      dup2\n        /* \"#utility.yul\":6026:6061   */\n      eq\n        /* \"#utility.yul\":6016:6079   */\n      tag_239\n      jumpi\n        /* \"#utility.yul\":6075:6076   */\n      0x00\n        /* \"#utility.yul\":6072:6073   */\n      dup1\n        /* \"#utility.yul\":6065:6077   */\n      revert\n        /* \"#utility.yul\":6016:6079   */\n    tag_239:\n        /* \"#utility.yul\":5963:6085   */\n      pop\n      jump\t// out\n        /* \"#utility.yul\":6091:6230   */\n    tag_150:\n        /* \"#utility.yul\":6137:6142   */\n      0x00\n        /* \"#utility.yul\":6175:6181   */\n      dup2\n        /* \"#utility.yul\":6162:6182   */\n      calldataload\n        /* \"#utility.yul\":6153:6182   */\n      swap1\n      pop\n        /* \"#utility.yul\":6191:6224   */\n      tag_241\n        /* \"#utility.yul\":6218:6223   */\n      dup2\n        /* \"#utility.yul\":6191:6224   */\n      tag_149\n      jump\t// in\n    tag_241:\n        /* \"#utility.yul\":6091:6230   */\n      swap3\n      swap2\n      pop\n      pop\n      jump\t// out\n        /* \"#utility.yul\":6236:6565   */\n    tag_35:\n        /* \"#utility.yul\":6295:6301   */\n      0x00\n        /* \"#utility.yul\":6344:6346   */\n      0x20\n        /* \"#utility.yul\":6332:6341   */\n      dup3\n        /* \"#utility.yul\":6323:6330   */\n      dup5\n        /* \"#utility.yul\":6319:6342   */\n      sub\n        /* \"#utility.yul\":6315:6347   */\n      slt\n        /* \"#utility.yul\":6312:6431   */\n      iszero\n      tag_243\n      jumpi\n        /* \"#utility.yul\":6350:6429   */\n      tag_244\n      tag_141\n      jump\t// in\n    tag_244:\n        /* \"#utility.yul\":6312:6431   */\n    tag_243:\n        /* \"#utility.yul\":6470:6471   */\n      0x00\n        /* \"#utility.yul\":6495:6548   */\n      tag_245\n        /* \"#utility.yul\":6540:6547   */\n      dup5\n        /* \"#utility.yul\":6531:6537   */\n      dup3\n        /* \"#utility.yul\":6520:6529   */\n      dup6\n        /* \"#utility.yul\":6516:6538   */\n      add\n        /* \"#utility.yul\":6495:6548   */\n      tag_150\n      jump\t// in\n    tag_245:\n        /* \"#utility.yul\":6485:6548   */\n      swap2\n      pop\n        /* \"#utility.yul\":6441:6558   */\n      pop\n        /* \"#utility.yul\":6236:6565   */\n      swap3\n      swap2\n      pop\n      pop\n      jump\t// out\n        /* \"#utility.yul\":6571:6751   */\n    tag_151:\n        /* \"#utility.yul\":6619:6696   */\n      0x4e487b7100000000000000000000000000000000000000000000000000000000\n        /* \"#utility.yul\":6616:6617   */\n      0x00\n        /* \"#utility.yul\":6609:6697   */\n      mstore\n        /* \"#utility.yul\":6716:6720   */\n      0x22\n        /* \"#utility.yul\":6713:6714   */\n      0x04\n        /* \"#utility.yul\":6706:6721   */\n      mstore\n        /* \"#utility.yul\":6740:6744   */\n      0x24\n        /* \"#utility.yul\":6737:6738   */\n      0x00\n        /* \"#utility.yul\":6730:6745   */\n      revert\n        /* \"#utility.yul\":6757:7077   */\n    tag_42:\n        /* \"#utility.yul\":6801:6807   */\n      0x00\n        /* \"#utility.yul\":6838:6839   */\n      0x02\n        /* \"#utility.yul\":6832:6836   */\n      dup3\n        /* \"#utility.yul\":6828:6840   */\n      div\n        /* \"#utility.yul\":6818:6840   */\n      swap1\n      pop\n        /* \"#utility.yul\":6885:6886   */\n      0x01\n        /* \"#utility.yul\":6879:6883   */\n      dup3\n        /* \"#utility.yul\":6875:6887   */\n      and\n        /* \"#utility.yul\":6906:6924   */\n      dup1\n        /* \"#utility.yul\":6896:6977   */\n      tag_248\n      jumpi\n        /* \"#utility.yul\":6962:6966   */\n      0x7f\n        /* \"#utility.yul\":6954:6960   */\n      dup3\n        /* \"#utility.yul\":6950:6967   */\n      and\n        /* \"#utility.yul\":6940:6967   */\n      swap2\n      pop\n        /* \"#utility.yul\":6896:6977   */\n    tag_248:\n        /* \"#utility.yul\":7024:7026   */\n      0x20\n        /* \"#utility.yul\":7016:7022   */\n      dup3\n        /* \"#utility.yul\":7013:7027   */\n      lt\n        /* \"#utility.yul\":6993:7011   */\n      dup2\n        /* \"#utility.yul\":6990:7028   */\n      sub\n        /* \"#utility.yul\":6987:7071   */\n      tag_249\n      jumpi\n        /* \"#utility.yul\":7043:7061   */\n      tag_250\n      tag_151\n      jump\t// in\n    tag_250:\n        /* \"#utility.yul\":6987:7071   */\n    tag_249:\n        /* \"#utility.yul\":6808:7077   */\n      pop\n        /* \"#utility.yul\":6757:7077   */\n      swap2\n      swap1\n      pop\n      jump\t// out\n        /* \"#utility.yul\":7083:7180   */\n    tag_152:\n        /* \"#utility.yul\":7142:7148   */\n      0x00\n        /* \"#utility.yul\":7170:7173   */\n      dup3\n        /* \"#utility.yul\":7160:7173   */\n      swap1\n      pop\n        /* \"#utility.yul\":7083:7180   */\n      swap3\n      swap2\n      pop\n      pop\n      jump\t// out\n        /* \"#utility.yul\":7186:7366   */\n    tag_153:\n        /* \"#utility.yul\":7234:7311   */\n      0x4e487b7100000000000000000000000000000000000000000000000000000000\n        /* \"#utility.yul\":7231:7232   */\n      0x00\n        /* \"#utility.yul\":7224:7312   */\n      mstore\n        /* \"#utility.yul\":7331:7335   */\n      0x41\n        /* \"#utility.yul\":7328:7329   */\n      0x04\n        /* \"#utility.yul\":7321:7336   */\n      mstore\n        /* \"#utility.yul\":7355:7359   */\n      0x24\n        /* \"#utility.yul\":7352:7353   */\n      0x00\n        /* \"#utility.yul\":7345:7360   */\n      revert\n        /* \"#utility.yul\":7372:7513   */\n    tag_154:\n        /* \"#utility.yul\":7421:7425   */\n      0x00\n        /* \"#utility.yul\":7444:7447   */\n      dup2\n        /* \"#utility.yul\":7436:7447   */\n      swap1\n      pop\n        /* \"#utility.yul\":7467:7470   */\n      dup2\n        /* \"#utility.yul\":7464:7465   */\n      0x00\n        /* \"#utility.yul\":7457:7471   */\n      mstore\n        /* \"#utility.yul\":7501:7505   */\n      0x20\n        /* \"#utility.yul\":7498:7499   */\n      0x00\n        /* \"#utility.yul\":7488:7506   */\n      keccak256\n        /* \"#utility.yul\":7480:7506   */\n      swap1\n      pop\n        /* \"#utility.yul\":7372:7513   */\n      swap2\n      swap1\n      pop\n      jump\t// out\n        /* \"#utility.yul\":7519:7612   */\n    tag_155:\n        /* \"#utility.yul\":7556:7562   */\n      0x00\n        /* \"#utility.yul\":7603:7605   */\n      0x20\n        /* \"#utility.yul\":7598:7600   */\n      0x1f\n        /* \"#utility.yul\":7591:7596   */\n      dup4\n        /* \"#utility.yul\":7587:7601   */\n      add\n        /* \"#utility.yul\":7583:7606   */\n      div\n        /* \"#utility.yul\":7573:7606   */\n      swap1\n      pop\n        /* \"#utility.yul\":7519:7612   */\n      swap2\n      swap1\n      pop\n      jump\t// out\n        /* \"#utility.yul\":7618:7725   */\n    tag_156:\n        /* \"#utility.yul\":7662:7670   */\n      0x00\n        /* \"#utility.yul\":7712:7717   */\n      dup3\n        /* \"#utility.yul\":7706:7710   */\n      dup3\n        /* \"#utility.yul\":7702:7718   */\n      shl\n        /* \"#utility.yul\":7681:7718   */\n      swap1\n      pop\n        /* \"#utility.yul\":7618:7725   */\n      swap3\n      swap2\n      pop\n      pop\n      jump\t// out\n        /* \"#utility.yul\":7731:8124   */\n    tag_157:\n        /* \"#utility.yul\":7800:7806   */\n      0x00\n        /* \"#utility.yul\":7850:7851   */\n      0x08\n        /* \"#utility.yul\":7838:7848   */\n      dup4\n        /* \"#utility.yul\":7834:7852   */\n      mul\n        /* \"#utility.yul\":7873:7970   */\n      tag_257\n        /* \"#utility.yul\":7903:7969   */\n      0xffffffffffffffffffffffffffffffffffffffffffffffffffffffffffffffff\n        /* \"#utility.yul\":7892:7901   */\n      dup3\n        /* \"#utility.yul\":7873:7970   */\n      tag_156\n      jump\t// in\n    tag_257:\n        /* \"#utility.yul\":7991:8030   */\n      tag_258\n        /* \"#utility.yul\":8021:8029   */\n      dup7\n        /* \"#utility.yul\":8010:8019   */\n      dup4\n        /* \"#utility.yul\":7991:8030   */\n      tag_156\n      jump\t// in\n    tag_258:\n        /* \"#utility.yul\":7979:8030   */\n      swap6\n      pop\n        /* \"#utility.yul\":8063:8067   */\n      dup1\n        /* \"#utility.yul\":8059:8068   */\n      not\n        /* \"#utility.yul\":8052:8057   */\n      dup5\n        /* \"#utility.yul\":8048:8069   */\n      and\n        /* \"#utility.yul\":8039:8069   */\n      swap4\n      pop\n        /* \"#utility.yul\":8112:8116   */\n      dup1\n        /* \"#utility.yul\":8102:8110   */\n      dup7\n        /* \"#utility.yul\":8098:8117   */\n      and\n        /* \"#utility.yul\":8091:8096   */\n      dup5\n        /* \"#utility.yul\":8088:8118   */\n      or\n        /* \"#utility.yul\":8078:8118   */\n      swap3\n      pop\n        /* \"#utility.yul\":7807:8124   */\n      pop\n      pop\n        /* \"#utility.yul\":7731:8124   */\n      swap4\n      swap3\n      pop\n      pop\n      pop\n      jump\t// out\n        /* \"#utility.yul\":8130:8207   */\n    tag_158:\n        /* \"#utility.yul\":8167:8174   */\n      0x00\n        /* \"#utility.yul\":8196:8201   */\n      dup2\n        /* \"#utility.yul\":8185:8201   */\n      swap1\n      pop\n        /* \"#utility.yul\":8130:8207   */\n      swap2\n      swap1\n      pop\n      jump\t// out\n        /* \"#utility.yul\":8213:8273   */\n    tag_159:\n        /* \"#utility.yul\":8241:8244   */\n      0x00\n        /* \"#utility.yul\":8262:8267   */\n      dup2\n        /* \"#utility.yul\":8255:8267   */\n      swap1\n      pop\n        /* \"#utility.yul\":8213:8273   */\n      swap2\n      swap1\n      pop\n      jump\t// out\n        /* \"#utility.yul\":8279:8421   */\n    tag_160:\n        /* \"#utility.yul\":8329:8338   */\n      0x00\n        /* \"#utility.yul\":8362:8415   */\n      tag_262\n        /* \"#utility.yul\":8380:8414   */\n      tag_263\n        /* \"#utility.yul\":8389:8413   */\n      tag_264\n        /* \"#utility.yul\":8407:8412   */\n      dup5\n        /* \"#utility.yul\":8389:8413   */\n      tag_158\n      jump\t// in\n    tag_264:\n        /* \"#utility.yul\":8380:8414   */\n      tag_159\n      jump\t// in\n    tag_263:\n        /* \"#utility.yul\":8362:8415   */\n      tag_158\n      jump\t// in\n    tag_262:\n        /* \"#utility.yul\":8349:8415   */\n      swap1\n      pop\n        /* \"#utility.yul\":8279:8421   */\n      swap2\n      swap1\n      pop\n      jump\t// out\n        /* \"#utility.yul\":8427:8502   */\n    tag_161:\n        /* \"#utility.yul\":8470:8473   */\n      0x00\n        /* \"#utility.yul\":8491:8496   */\n      dup2\n        /* \"#utility.yul\":8484:8496   */\n      swap1\n      pop\n        /* \"#utility.yul\":8427:8502   */\n      swap2\n      swap1\n      pop\n      jump\t// out\n        /* \"#utility.yul\":8508:8777   */\n    tag_162:\n        /* \"#utility.yul\":8618:8657   */\n      tag_267\n        /* \"#utility.yul\":8649:8656   */\n      dup4\n        /* \"#utility.yul\":8618:8657   */\n      tag_160\n      jump\t// in\n    tag_267:\n        /* \"#utility.yul\":8679:8770   */\n      tag_268\n        /* \"#utility.yul\":8728:8769   */\n      tag_269\n        /* \"#utility.yul\":8752:8768   */\n      dup3\n        /* \"#utility.yul\":8728:8769   */\n      tag_161\n      jump\t// in\n    tag_269:\n        /* \"#utility.yul\":8720:8726   */\n      dup5\n        /* \"#utility.yul\":8713:8717   */\n      dup5\n        /* \"#utility.yul\":8707:8718   */\n      sload\n        /* \"#utility.yul\":8679:8770   */\n      tag_157\n      jump\t// in\n    tag_268:\n        /* \"#utility.yul\":8673:8677   */\n      dup3\n        /* \"#utility.yul\":8666:8771   */\n      sstore\n        /* \"#utility.yul\":8584:8777   */\n      pop\n        /* \"#utility.yul\":8508:8777   */\n      pop\n      pop\n      pop\n      jump\t// out\n        /* \"#utility.yul\":8783:8856   */\n    tag_163:\n        /* \"#utility.yul\":8828:8831   */\n      0x00\n        /* \"#utility.yul\":8783:8856   */\n      swap1\n      jump\t// out\n        /* \"#utility.yul\":8862:9051   */\n    tag_164:\n        /* \"#utility.yul\":8939:8971   */\n      tag_272\n      tag_163\n      jump\t// in\n    tag_272:\n        /* \"#utility.yul\":8980:9045   */\n      tag_273\n        /* \"#utility.yul\":9038:9044   */\n      dup2\n        /* \"#utility.yul\":9030:9036   */\n      dup5\n        /* \"#utility.yul\":9024:9028   */\n      dup5\n        /* \"#utility.yul\":8980:9045   */\n      tag_162\n      jump\t// in\n    tag_273:\n        /* \"#utility.yul\":8915:9051   */\n      pop\n        /* \"#utility.yul\":8862:9051   */\n      pop\n      pop\n      jump\t// out\n        /* \"#utility.yul\":9057:9243   */\n    tag_165:\n        /* \"#utility.yul\":9117:9237   */\n    tag_275:\n        /* \"#utility.yul\":9134:9137   */\n      dup2\n        /* \"#utility.yul\":9127:9132   */\n      dup2\n        /* \"#utility.yul\":9124:9138   */\n      lt\n        /* \"#utility.yul\":9117:9237   */\n      iszero\n      tag_277\n      jumpi\n        /* \"#utility.yul\":9188:9227   */\n      tag_278\n        /* \"#utility.yul\":9225:9226   */\n      0x00\n        /* \"#utility.yul\":9218:9223   */\n      dup3\n        /* \"#utility.yul\":9188:9227   */\n      tag_164\n      jump\t// in\n    tag_278:\n        /* \"#utility.yul\":9161:9162   */\n      0x01\n        /* \"#utility.yul\":9154:9159   */\n      dup2\n        /* \"#utility.yul\":9150:9163   */\n      add\n        /* \"#utility.yul\":9141:9163   */\n      swap1\n      pop\n        /* \"#utility.yul\":9117:9237   */\n      jump(tag_275)\n    tag_277:\n        /* \"#utility.yul\":9057:9243   */\n      pop\n      pop\n      jump\t// out\n        /* \"#utility.yul\":9249:9792   */\n    tag_166:\n        /* \"#utility.yul\":9350:9352   */\n      0x1f\n        /* \"#utility.yul\":9345:9348   */\n      dup3\n        /* \"#utility.yul\":9342:9353   */\n      gt\n        /* \"#utility.yul\":9339:9785   */\n      iszero\n      tag_280\n      jumpi\n        /* \"#utility.yul\":9384:9422   */\n      tag_281\n        /* \"#utility.yul\":9416:9421   */\n      dup2\n        /* \"#utility.yul\":9384:9422   */\n      tag_154\n      jump\t// in\n    tag_281:\n        /* \"#utility.yul\":9468:9497   */\n      tag_282\n        /* \"#utility.yul\":9486:9496   */\n      dup5\n        /* \"#utility.yul\":9468:9497   */\n      tag_155\n      jump\t// in\n    tag_282:\n        /* \"#utility.yul\":9458:9466   */\n      dup2\n        /* \"#utility.yul\":9454:9498   */\n      add\n        /* \"#utility.yul\":9651:9653   */\n      0x20\n        /* \"#utility.yul\":9639:9649   */\n      dup6\n        /* \"#utility.yul\":9636:9654   */\n      lt\n        /* \"#utility.yul\":9633:9682   */\n      iszero\n      tag_283\n      jumpi\n        /* \"#utility.yul\":9672:9680   */\n      dup2\n        /* \"#utility.yul\":9657:9680   */\n      swap1\n      pop\n        /* \"#utility.yul\":9633:9682   */\n    tag_283:\n        /* \"#utility.yul\":9695:9775   */\n      tag_284\n        /* \"#utility.yul\":9751:9773   */\n      tag_285\n        /* \"#utility.yul\":9769:9772   */\n      dup6\n        /* \"#utility.yul\":9751:9773   */\n      tag_155\n      jump\t// in\n    tag_285:\n        /* \"#utility.yul\":9741:9749   */\n      dup4\n        /* \"#utility.yul\":9737:9774   */\n      add\n        /* \"#utility.yul\":9724:9735   */\n      dup3\n        /* \"#utility.yul\":9695:9775   */\n      tag_165\n      jump\t// in\n    tag_284:\n        /* \"#utility.yul\":9354:9785   */\n      pop\n      pop\n        /* \"#utility.yul\":9339:9785   */\n    tag_280:\n        /* \"#utility.yul\":9249:9792   */\n      pop\n      pop\n      pop\n      jump\t// out\n        /* \"#utility.yul\":9798:9915   */\n    tag_167:\n        /* \"#utility.yul\":9852:9860   */\n      0x00\n        /* \"#utility.yul\":9902:9907   */\n      dup3\n        /* \"#utility.yul\":9896:9900   */\n      dup3\n        /* \"#utility.yul\":9892:9908   */\n      shr\n        /* \"#utility.yul\":9871:9908   */\n      swap1\n      pop\n        /* \"#utility.yul\":9798:9915   */\n      swap3\n      swap2\n      pop\n      pop\n      jump\t// out\n        /* \"#utility.yul\":9921:10090   */\n    tag_168:\n        /* \"#utility.yul\":9965:9971   */\n      0x00\n        /* \"#utility.yul\":9998:10049   */\n      tag_288\n        /* \"#utility.yul\":10046:10047   */\n      0x00\n        /* \"#utility.yul\":10042:10048   */\n      not\n        /* \"#utility.yul\":10034:10039   */\n      dup5\n        /* \"#utility.yul\":10031:10032   */\n      0x08\n        /* \"#utility.yul\":10027:10040   */\n      mul\n        /* \"#utility.yul\":9998:10049   */\n      tag_167\n      jump\t// in\n    tag_288:\n        /* \"#utility.yul\":9994:10050   */\n      not\n        /* \"#utility.yul\":10079:10083   */\n      dup1\n        /* \"#utility.yul\":10073:10077   */\n      dup4\n        /* \"#utility.yul\":10069:10084   */\n      and\n        /* \"#utility.yul\":10059:10084   */\n      swap2\n      pop\n        /* \"#utility.yul\":9972:10090   */\n      pop\n        /* \"#utility.yul\":9921:10090   */\n      swap3\n      swap2\n      pop\n      pop\n      jump\t// out\n        /* \"#utility.yul\":10095:10390   */\n    tag_169:\n        /* \"#utility.yul\":10171:10175   */\n      0x00\n        /* \"#utility.yul\":10317:10346   */\n      tag_290\n        /* \"#utility.yul\":10342:10345   */\n      dup4\n        /* \"#utility.yul\":10336:10340   */\n      dup4\n        /* \"#utility.yul\":10317:10346   */\n      tag_168\n      jump\t// in\n    tag_290:\n        /* \"#utility.yul\":10309:10346   */\n      swap2\n      pop\n        /* \"#utility.yul\":10379:10382   */\n      dup3\n        /* \"#utility.yul\":10376:10377   */\n      0x02\n        /* \"#utility.yul\":10372:10383   */\n      mul\n        /* \"#utility.yul\":10366:10370   */\n      dup3\n        /* \"#utility.yul\":10363:10384   */\n      or\n        /* \"#utility.yul\":10355:10384   */\n      swap1\n      pop\n        /* \"#utility.yul\":10095:10390   */\n      swap3\n      swap2\n      pop\n      pop\n      jump\t// out\n        /* \"#utility.yul\":10395:11798   */\n    tag_59:\n        /* \"#utility.yul\":10519:10563   */\n      tag_292\n        /* \"#utility.yul\":10559:10562   */\n      dup4\n        /* \"#utility.yul\":10554:10557   */\n      dup4\n        /* \"#utility.yul\":10519:10563   */\n      tag_152\n      jump\t// in\n    tag_292:\n        /* \"#utility.yul\":10628:10646   */\n      0xffffffffffffffff\n        /* \"#utility.yul\":10620:10626   */\n      dup2\n        /* \"#utility.yul\":10617:10647   */\n      gt\n        /* \"#utility.yul\":10614:10670   */\n      iszero\n      tag_293\n      jumpi\n        /* \"#utility.yul\":10650:10668   */\n      tag_294\n      tag_153\n      jump\t// in\n    tag_294:\n        /* \"#utility.yul\":10614:10670   */\n    tag_293:\n        /* \"#utility.yul\":10694:10732   */\n      tag_295\n        /* \"#utility.yul\":10726:10730   */\n      dup3\n        /* \"#utility.yul\":10720:10731   */\n      sload\n        /* \"#utility.yul\":10694:10732   */\n      tag_42\n      jump\t// in\n    tag_295:\n        /* \"#utility.yul\":10779:10846   */\n      tag_296\n        /* \"#utility.yul\":10839:10845   */\n      dup3\n        /* \"#utility.yul\":10831:10837   */\n      dup3\n        /* \"#utility.yul\":10825:10829   */\n      dup6\n        /* \"#utility.yul\":10779:10846   */\n      tag_166\n      jump\t// in\n    tag_296:\n        /* \"#utility.yul\":10873:10874   */\n      0x00\n        /* \"#utility.yul\":10902:10904   */\n      0x1f\n        /* \"#utility.yul\":10894:10900   */\n      dup4\n        /* \"#utility.yul\":10891:10905   */\n      gt\n        /* \"#utility.yul\":10919:10920   */\n      0x01\n        /* \"#utility.yul\":10914:11546   */\n      dup2\n      eq\n      tag_298\n      jumpi\n        /* \"#utility.yul\":11590:11591   */\n      0x00\n        /* \"#utility.yul\":11607:11613   */\n      dup5\n        /* \"#utility.yul\":11604:11688   */\n      iszero\n      tag_299\n      jumpi\n        /* \"#utility.yul\":11663:11672   */\n      dup3\n        /* \"#utility.yul\":11658:11661   */\n      dup8\n        /* \"#utility.yul\":11654:11673   */\n      add\n        /* \"#utility.yul\":11641:11674   */\n      calldataload\n        /* \"#utility.yul\":11632:11674   */\n      swap1\n      pop\n        /* \"#utility.yul\":11604:11688   */\n    tag_299:\n        /* \"#utility.yul\":11714:11781   */\n      tag_300\n        /* \"#utility.yul\":11774:11780   */\n      dup6\n        /* \"#utility.yul\":11767:11772   */\n      dup3\n        /* \"#utility.yul\":11714:11781   */\n      tag_169\n      jump\t// in\n    tag_300:\n        /* \"#utility.yul\":11708:11712   */\n      dup7\n        /* \"#utility.yul\":11701:11782   */\n      sstore\n        /* \"#utility.yul\":11563:11792   */\n      pop\n        /* \"#utility.yul\":10884:11792   */\n      jump(tag_297)\n        /* \"#utility.yul\":10914:11546   */\n    tag_298:\n        /* \"#utility.yul\":10966:10970   */\n      0x1f\n        /* \"#utility.yul\":10962:10971   */\n      not\n        /* \"#utility.yul\":10954:10960   */\n      dup5\n        /* \"#utility.yul\":10950:10972   */\n      and\n        /* \"#utility.yul\":11000:11037   */\n      tag_301\n        /* \"#utility.yul\":11032:11036   */\n      dup7\n        /* \"#utility.yul\":11000:11037   */\n      tag_154\n      jump\t// in\n    tag_301:\n        /* \"#utility.yul\":11059:11060   */\n      0x00\n        /* \"#utility.yul\":11073:11288   */\n    tag_302:\n        /* \"#utility.yul\":11087:11094   */\n      dup3\n        /* \"#utility.yul\":11084:11085   */\n      dup2\n        /* \"#utility.yul\":11081:11095   */\n      lt\n        /* \"#utility.yul\":11073:11288   */\n      iszero\n      tag_304\n      jumpi\n        /* \"#utility.yul\":11173:11182   */\n      dup5\n        /* \"#utility.yul\":11168:11171   */\n      dup10\n        /* \"#utility.yul\":11164:11183   */\n      add\n        /* \"#utility.yul\":11151:11184   */\n      calldataload\n        /* \"#utility.yul\":11143:11149   */\n      dup3\n        /* \"#utility.yul\":11136:11185   */\n      sstore\n        /* \"#utility.yul\":11224:11225   */\n      0x01\n        /* \"#utility.yul\":11216:11222   */\n      dup3\n        /* \"#utility.yul\":11212:11226   */\n      add\n        /* \"#utility.yul\":11202:11226   */\n      swap2\n      pop\n        /* \"#utility.yul\":11271:11273   */\n      0x20\n        /* \"#utility.yul\":11260:11269   */\n      dup6\n        /* \"#utility.yul\":11256:11274   */\n      add\n        /* \"#utility.yul\":11243:11274   */\n      swap5\n      pop\n        /* \"#utility.yul\":11110:11114   */\n      0x20\n        /* \"#utility.yul\":11107:11108   */\n      dup2\n        /* \"#utility.yul\":11103:11115   */\n      add\n        /* \"#utility.yul\":11098:11115   */\n      swap1\n      pop\n        /* \"#utility.yul\":11073:11288   */\n      jump(tag_302)\n    tag_304:\n        /* \"#utility.yul\":11316:11322   */\n      dup7\n        /* \"#utility.yul\":11307:11314   */\n      dup4\n        /* \"#utility.yul\":11304:11323   */\n      lt\n        /* \"#utility.yul\":11301:11487   */\n      iszero\n      tag_305\n      jumpi\n        /* \"#utility.yul\":11381:11390   */\n      dup5\n        /* \"#utility.yul\":11376:11379   */\n      dup10\n        /* \"#utility.yul\":11372:11391   */\n      add\n        /* \"#utility.yul\":11359:11392   */\n      calldataload\n        /* \"#utility.yul\":11424:11472   */\n      tag_306\n        /* \"#utility.yul\":11466:11470   */\n      0x1f\n        /* \"#utility.yul\":11458:11464   */\n      dup10\n        /* \"#utility.yul\":11454:11471   */\n      and\n        /* \"#utility.yul\":11443:11452   */\n      dup3\n        /* \"#utility.yul\":11424:11472   */\n      tag_168\n      jump\t// in\n    tag_306:\n        /* \"#utility.yul\":11416:11422   */\n      dup4\n        /* \"#utility.yul\":11409:11473   */\n      sstore\n        /* \"#utility.yul\":11324:11487   */\n      pop\n        /* \"#utility.yul\":11301:11487   */\n    tag_305:\n        /* \"#utility.yul\":11533:11534   */\n      0x01\n        /* \"#utility.yul\":11529:11530   */\n      0x02\n        /* \"#utility.yul\":11521:11527   */\n      dup9\n        /* \"#utility.yul\":11517:11531   */\n      mul\n        /* \"#utility.yul\":11513:11535   */\n      add\n        /* \"#utility.yul\":11507:11511   */\n      dup9\n        /* \"#utility.yul\":11500:11536   */\n      sstore\n        /* \"#utility.yul\":10921:11546   */\n      pop\n      pop\n      pop\n        /* \"#utility.yul\":10884:11792   */\n    tag_297:\n      pop\n        /* \"#utility.yul\":10494:11798   */\n      pop\n      pop\n      pop\n        /* \"#utility.yul\":10395:11798   */\n      pop\n      pop\n      pop\n      jump\t// out\n        /* \"#utility.yul\":11804:11973   */\n    tag_170:\n        /* \"#utility.yul\":11888:11899   */\n      0x00\n        /* \"#utility.yul\":11922:11928   */\n      dup3\n        /* \"#utility.yul\":11917:11920   */\n      dup3\n        /* \"#utility.yul\":11910:11929   */\n      mstore\n        /* \"#utility.yul\":11962:11966   */\n      0x20\n        /* \"#utility.yul\":11957:11960   */\n      dup3\n        /* \"#utility.yul\":11953:11967   */\n      add\n        /* \"#utility.yul\":11938:11967   */\n      swap1\n      pop\n        /* \"#utility.yul\":11804:11973   */\n      swap3\n      swap2\n      pop\n      pop\n      jump\t// out\n        /* \"#utility.yul\":11979:12127   */\n    tag_171:\n        /* \"#utility.yul\":12077:12083   */\n      dup3\n        /* \"#utility.yul\":12072:12075   */\n      dup2\n        /* \"#utility.yul\":12067:12070   */\n      dup4\n        /* \"#utility.yul\":12054:12084   */\n      calldatacopy\n        /* \"#utility.yul\":12118:12119   */\n      0x00\n        /* \"#utility.yul\":12109:12115   */\n      dup4\n        /* \"#utility.yul\":12104:12107   */\n      dup4\n        /* \"#utility.yul\":12100:12116   */\n      add\n        /* \"#utility.yul\":12093:12120   */\n      mstore\n        /* \"#utility.yul\":11979:12127   */\n      pop\n      pop\n      pop\n      jump\t// out\n        /* \"#utility.yul\":12157:12474   */\n    tag_172:\n        /* \"#utility.yul\":12255:12258   */\n      0x00\n        /* \"#utility.yul\":12276:12347   */\n      tag_310\n        /* \"#utility.yul\":12340:12346   */\n      dup4\n        /* \"#utility.yul\":12335:12338   */\n      dup6\n        /* \"#utility.yul\":12276:12347   */\n      tag_170\n      jump\t// in\n    tag_310:\n        /* \"#utility.yul\":12269:12347   */\n      swap4\n      pop\n        /* \"#utility.yul\":12357:12413   */\n      tag_311\n        /* \"#utility.yul\":12406:12412   */\n      dup4\n        /* \"#utility.yul\":12401:12404   */\n      dup6\n        /* \"#utility.yul\":12394:12399   */\n      dup5\n        /* \"#utility.yul\":12357:12413   */\n      tag_171\n      jump\t// in\n    tag_311:\n        /* \"#utility.yul\":12438:12467   */\n      tag_312\n        /* \"#utility.yul\":12460:12466   */\n      dup4\n        /* \"#utility.yul\":12438:12467   */\n      tag_132\n      jump\t// in\n    tag_312:\n        /* \"#utility.yul\":12433:12436   */\n      dup5\n        /* \"#utility.yul\":12429:12468   */\n      add\n        /* \"#utility.yul\":12422:12468   */\n      swap1\n      pop\n        /* \"#utility.yul\":12157:12474   */\n      swap4\n      swap3\n      pop\n      pop\n      pop\n      jump\t// out\n        /* \"#utility.yul\":12480:12813   */\n    tag_61:\n        /* \"#utility.yul\":12603:12607   */\n      0x00\n        /* \"#utility.yul\":12641:12643   */\n      0x20\n        /* \"#utility.yul\":12630:12639   */\n      dup3\n        /* \"#utility.yul\":12626:12644   */\n      add\n        /* \"#utility.yul\":12618:12644   */\n      swap1\n      pop\n        /* \"#utility.yul\":12690:12699   */\n      dup2\n        /* \"#utility.yul\":12684:12688   */\n      dup2\n        /* \"#utility.yul\":12680:12700   */\n      sub\n        /* \"#utility.yul\":12676:12677   */\n      0x00\n        /* \"#utility.yul\":12665:12674   */\n      dup4\n        /* \"#utility.yul\":12661:12678   */\n      add\n        /* \"#utility.yul\":12654:12701   */\n      mstore\n        /* \"#utility.yul\":12718:12806   */\n      tag_314\n        /* \"#utility.yul\":12801:12805   */\n      dup2\n        /* \"#utility.yul\":12792:12798   */\n      dup5\n        /* \"#utility.yul\":12784:12790   */\n      dup7\n        /* \"#utility.yul\":12718:12806   */\n      tag_172\n      jump\t// in\n    tag_314:\n        /* \"#utility.yul\":12710:12806   */\n      swap1\n      pop\n        /* \"#utility.yul\":12480:12813   */\n      swap4\n      swap3\n      pop\n      pop\n      pop\n      jump\t// out\n        /* \"#utility.yul\":12819:12967   */\n    tag_173:\n        /* \"#utility.yul\":12921:12932   */\n      0x00\n        /* \"#utility.yul\":12958:12961   */\n      dup2\n        /* \"#utility.yul\":12943:12961   */\n      swap1\n      pop\n        /* \"#utility.yul\":12819:12967   */\n      swap3\n      swap2\n      pop\n      pop\n      jump\t// out\n        /* \"#utility.yul\":12997:13327   */\n    tag_174:\n        /* \"#utility.yul\":13113:13116   */\n      0x00\n        /* \"#utility.yul\":13134:13223   */\n      tag_317\n        /* \"#utility.yul\":13216:13222   */\n      dup4\n        /* \"#utility.yul\":13211:13214   */\n      dup6\n        /* \"#utility.yul\":13134:13223   */\n      tag_173\n      jump\t// in\n    tag_317:\n        /* \"#utility.yul\":13127:13223   */\n      swap4\n      pop\n        /* \"#utility.yul\":13233:13289   */\n      tag_318\n        /* \"#utility.yul\":13282:13288   */\n      dup4\n        /* \"#utility.yul\":13277:13280   */\n      dup6\n        /* \"#utility.yul\":13270:13275   */\n      dup5\n        /* \"#utility.yul\":13233:13289   */\n      tag_171\n      jump\t// in\n    tag_318:\n        /* \"#utility.yul\":13314:13320   */\n      dup3\n        /* \"#utility.yul\":13309:13312   */\n      dup5\n        /* \"#utility.yul\":13305:13321   */\n      add\n        /* \"#utility.yul\":13298:13321   */\n      swap1\n      pop\n        /* \"#utility.yul\":12997:13327   */\n      swap4\n      swap3\n      pop\n      pop\n      pop\n      jump\t// out\n        /* \"#utility.yul\":13333:13628   */\n    tag_69:\n        /* \"#utility.yul\":13475:13478   */\n      0x00\n        /* \"#utility.yul\":13497:13602   */\n      tag_320\n        /* \"#utility.yul\":13598:13601   */\n      dup3\n        /* \"#utility.yul\":13589:13595   */\n      dup5\n        /* \"#utility.yul\":13581:13587   */\n      dup7\n        /* \"#utility.yul\":13497:13602   */\n      tag_174\n      jump\t// in\n    tag_320:\n        /* \"#utility.yul\":13490:13602   */\n      swap2\n      pop\n        /* \"#utility.yul\":13619:13622   */\n      dup2\n        /* \"#utility.yul\":13612:13622   */\n      swap1\n      pop\n        /* \"#utility.yul\":13333:13628   */\n      swap4\n      swap3\n      pop\n      pop\n      pop\n      jump\t// out\n        /* \"#utility.yul\":13634:13814   */\n    tag_72:\n        /* \"#utility.yul\":13682:13759   */\n      0x4e487b7100000000000000000000000000000000000000000000000000000000\n        /* \"#utility.yul\":13679:13680   */\n      0x00\n        /* \"#utility.yul\":13672:13760   */\n      mstore\n        /* \"#utility.yul\":13779:13783   */\n      0x32\n        /* \"#utility.yul\":13776:13777   */\n      0x04\n        /* \"#utility.yul\":13769:13784   */\n      mstore\n        /* \"#utility.yul\":13803:13807   */\n      0x24\n        /* \"#utility.yul\":13800:13801   */\n      0x00\n        /* \"#utility.yul\":13793:13808   */\n      revert\n        /* \"#utility.yul\":13844:14718   */\n    tag_175:\n        /* \"#utility.yul\":13947:13950   */\n      0x00\n        /* \"#utility.yul\":13984:13989   */\n      dup2\n        /* \"#utility.yul\":13978:13990   */\n      sload\n        /* \"#utility.yul\":14013:14049   */\n      tag_323\n        /* \"#utility.yul\":14039:14048   */\n      dup2\n        /* \"#utility.yul\":14013:14049   */\n      tag_42\n      jump\t// in\n    tag_323:\n        /* \"#utility.yul\":14065:14154   */\n      tag_324\n        /* \"#utility.yul\":14147:14153   */\n      dup2\n        /* \"#utility.yul\":14142:14145   */\n      dup7\n        /* \"#utility.yul\":14065:14154   */\n      tag_173\n      jump\t// in\n    tag_324:\n        /* \"#utility.yul\":14058:14154   */\n      swap5\n      pop\n        /* \"#utility.yul\":14185:14186   */\n      0x01\n        /* \"#utility.yul\":14174:14183   */\n      dup3\n        /* \"#utility.yul\":14170:14187   */\n      and\n        /* \"#utility.yul\":14201:14202   */\n      0x00\n        /* \"#utility.yul\":14196:14362   */\n      dup2\n      eq\n      tag_326\n      jumpi\n        /* \"#utility.yul\":14376:14377   */\n      0x01\n        /* \"#utility.yul\":14371:14712   */\n      dup2\n      eq\n      tag_327\n      jumpi\n        /* \"#utility.yul\":14163:14712   */\n      jump(tag_325)\n        /* \"#utility.yul\":14196:14362   */\n    tag_326:\n        /* \"#utility.yul\":14280:14284   */\n      0xff\n        /* \"#utility.yul\":14276:14285   */\n      not\n        /* \"#utility.yul\":14265:14274   */\n      dup4\n        /* \"#utility.yul\":14261:14286   */\n      and\n        /* \"#utility.yul\":14256:14259   */\n      dup7\n        /* \"#utility.yul\":14249:14287   */\n      mstore\n        /* \"#utility.yul\":14342:14348   */\n      dup2\n        /* \"#utility.yul\":14335:14349   */\n      iszero\n        /* \"#utility.yul\":14328:14350   */\n      iszero\n        /* \"#utility.yul\":14320:14326   */\n      dup3\n        /* \"#utility.yul\":14316:14351   */\n      mul\n        /* \"#utility.yul\":14311:14314   */\n      dup7\n        /* \"#utility.yul\":14307:14352   */\n      add\n        /* \"#utility.yul\":14300:14352   */\n      swap4\n      pop\n        /* \"#utility.yul\":14196:14362   */\n      jump(tag_325)\n        /* \"#utility.yul\":14371:14712   */\n    tag_327:\n        /* \"#utility.yul\":14438:14476   */\n      tag_328\n        /* \"#utility.yul\":14470:14475   */\n      dup6\n        /* \"#utility.yul\":14438:14476   */\n      tag_154\n      jump\t// in\n    tag_328:\n        /* \"#utility.yul\":14498:14499   */\n      0x00\n        /* \"#utility.yul\":14512:14666   */\n    tag_329:\n        /* \"#utility.yul\":14526:14532   */\n      dup4\n        /* \"#utility.yul\":14523:14524   */\n      dup2\n        /* \"#utility.yul\":14520:14533   */\n      lt\n        /* \"#utility.yul\":14512:14666   */\n      iszero\n      tag_331\n      jumpi\n        /* \"#utility.yul\":14600:14607   */\n      dup2\n        /* \"#utility.yul\":14594:14608   */\n      sload\n        /* \"#utility.yul\":14590:14591   */\n      dup2\n        /* \"#utility.yul\":14585:14588   */\n      dup10\n        /* \"#utility.yul\":14581:14592   */\n      add\n        /* \"#utility.yul\":14574:14609   */\n      mstore\n        /* \"#utility.yul\":14650:14651   */\n      0x01\n        /* \"#utility.yul\":14641:14648   */\n      dup3\n        /* \"#utility.yul\":14637:14652   */\n      add\n        /* \"#utility.yul\":14626:14652   */\n      swap2\n      pop\n        /* \"#utility.yul\":14548:14552   */\n      0x20\n        /* \"#utility.yul\":14545:14546   */\n      dup2\n        /* \"#utility.yul\":14541:14553   */\n      add\n        /* \"#utility.yul\":14536:14553   */\n      swap1\n      pop\n        /* \"#utility.yul\":14512:14666   */\n      jump(tag_329)\n    tag_331:\n        /* \"#utility.yul\":14695:14701   */\n      dup4\n        /* \"#utility.yul\":14690:14693   */\n      dup9\n        /* \"#utility.yul\":14686:14702   */\n      add\n        /* \"#utility.yul\":14679:14702   */\n      swap6\n      pop\n        /* \"#utility.yul\":14378:14712   */\n      pop\n      pop\n        /* \"#utility.yul\":14163:14712   */\n    tag_325:\n      pop\n        /* \"#utility.yul\":13951:14718   */\n      pop\n      pop\n        /* \"#utility.yul\":13844:14718   */\n      swap3\n      swap2\n      pop\n      pop\n      jump\t// out\n        /* \"#utility.yul\":14724:14993   */\n    tag_75:\n        /* \"#utility.yul\":14853:14856   */\n      0x00\n        /* \"#utility.yul\":14875:14967   */\n      tag_333\n        /* \"#utility.yul\":14963:14966   */\n      dup3\n        /* \"#utility.yul\":14954:14960   */\n      dup5\n        /* \"#utility.yul\":14875:14967   */\n      tag_175\n      jump\t// in\n    tag_333:\n        /* \"#utility.yul\":14868:14967   */\n      swap2\n      pop\n        /* \"#utility.yul\":14984:14987   */\n      dup2\n        /* \"#utility.yul\":14977:14987   */\n      swap1\n      pop\n        /* \"#utility.yul\":14724:14993   */\n      swap3\n      swap2\n      pop\n      pop\n      jump\t// out\n        /* \"#utility.yul\":14999:15179   */\n    tag_176:\n        /* \"#utility.yul\":15047:15124   */\n      0x4e487b7100000000000000000000000000000000000000000000000000000000\n        /* \"#utility.yul\":15044:15045   */\n      0x00\n        /* \"#utility.yul\":15037:15125   */\n      mstore\n        /* \"#utility.yul\":15144:15148   */\n      0x11\n        /* \"#utility.yul\":15141:15142   */\n      0x04\n        /* \"#utility.yul\":15134:15149   */\n      mstore\n        /* \"#utility.yul\":15168:15172   */\n      0x24\n        /* \"#utility.yul\":15165:15166   */\n      0x00\n        /* \"#utility.yul\":15158:15173   */\n      revert\n        /* \"#utility.yul\":15185:15379   */\n    tag_78:\n        /* \"#utility.yul\":15225:15229   */\n      0x00\n        /* \"#utility.yul\":15245:15265   */\n      tag_336\n        /* \"#utility.yul\":15263:15264   */\n      dup3\n        /* \"#utility.yul\":15245:15265   */\n      tag_158\n      jump\t// in\n    tag_336:\n        /* \"#utility.yul\":15240:15265   */\n      swap2\n      pop\n        /* \"#utility.yul\":15279:15299   */\n      tag_337\n        /* \"#utility.yul\":15297:15298   */\n      dup4\n        /* \"#utility.yul\":15279:15299   */\n      tag_158\n      jump\t// in\n    tag_337:\n        /* \"#utility.yul\":15274:15299   */\n      swap3\n      pop\n        /* \"#utility.yul\":15323:15324   */\n      dup3\n        /* \"#utility.yul\":15320:15321   */\n      dup3\n        /* \"#utility.yul\":15316:15325   */\n      sub\n        /* \"#utility.yul\":15308:15325   */\n      swap1\n      pop\n        /* \"#utility.yul\":15347:15348   */\n      dup2\n        /* \"#utility.yul\":15341:15345   */\n      dup2\n        /* \"#utility.yul\":15338:15349   */\n      gt\n        /* \"#utility.yul\":15335:15372   */\n      iszero\n      tag_338\n      jumpi\n        /* \"#utility.yul\":15352:15370   */\n      tag_339\n      tag_176\n      jump\t// in\n    tag_339:\n        /* \"#utility.yul\":15335:15372   */\n    tag_338:\n        /* \"#utility.yul\":15185:15379   */\n      swap3\n      swap2\n      pop\n      pop\n      jump\t// out\n        /* \"#utility.yul\":15385:15538   */\n    tag_177:\n        /* \"#utility.yul\":15438:15444   */\n      0x00\n        /* \"#utility.yul\":15472:15477   */\n      dup2\n        /* \"#utility.yul\":15466:15478   */\n      sload\n        /* \"#utility.yul\":15456:15478   */\n      swap1\n      pop\n        /* \"#utility.yul\":15498:15531   */\n      tag_341\n        /* \"#utility.yul\":15524:15530   */\n      dup2\n        /* \"#utility.yul\":15498:15531   */\n      tag_42\n      jump\t// in\n    tag_341:\n        /* \"#utility.yul\":15488:15531   */\n      swap1\n      pop\n        /* \"#utility.yul\":15385:15538   */\n      swap2\n      swap1\n      pop\n      jump\t// out\n        /* \"#utility.yul\":15544:15689   */\n    tag_178:\n        /* \"#utility.yul\":15597:15601   */\n      0x00\n        /* \"#utility.yul\":15620:15623   */\n      dup2\n        /* \"#utility.yul\":15612:15623   */\n      swap1\n      pop\n        /* \"#utility.yul\":15643:15646   */\n      dup2\n        /* \"#utility.yul\":15640:15641   */\n      0x00\n        /* \"#utility.yul\":15633:15647   */\n      mstore\n        /* \"#utility.yul\":15677:15681   */\n      0x20\n        /* \"#utility.yul\":15674:15675   */\n      0x00\n        /* \"#utility.yul\":15664:15682   */\n      keccak256\n        /* \"#utility.yul\":15656:15682   */\n      swap1\n      pop\n        /* \"#utility.yul\":15544:15689   */\n      swap2\n      swap1\n      pop\n      jump\t// out\n        /* \"#utility.yul\":15695:17158   */\n    tag_86:\n        /* \"#utility.yul\":15810:15813   */\n      dup2\n        /* \"#utility.yul\":15804:15808   */\n      dup2\n        /* \"#utility.yul\":15801:15814   */\n      sub\n        /* \"#utility.yul\":15798:15824   */\n      tag_344\n      jumpi\n        /* \"#utility.yul\":15817:15822   */\n      pop\n      pop\n      jump(tag_343)\n        /* \"#utility.yul\":15798:15824   */\n    tag_344:\n        /* \"#utility.yul\":15848:15886   */\n      tag_345\n        /* \"#utility.yul\":15882:15885   */\n      dup3\n        /* \"#utility.yul\":15848:15886   */\n      tag_177\n      jump\t// in\n    tag_345:\n        /* \"#utility.yul\":15951:15969   */\n      0xffffffffffffffff\n        /* \"#utility.yul\":15943:15949   */\n      dup2\n        /* \"#utility.yul\":15940:15970   */\n      gt\n        /* \"#utility.yul\":15937:15993   */\n      iszero\n      tag_346\n      jumpi\n        /* \"#utility.yul\":15973:15991   */\n      tag_347\n      tag_153\n      jump\t// in\n    tag_347:\n        /* \"#utility.yul\":15937:15993   */\n    tag_346:\n        /* \"#utility.yul\":16017:16055   */\n      tag_348\n        /* \"#utility.yul\":16049:16053   */\n      dup3\n        /* \"#utility.yul\":16043:16054   */\n      sload\n        /* \"#utility.yul\":16017:16055   */\n      tag_42\n      jump\t// in\n    tag_348:\n        /* \"#utility.yul\":16102:16169   */\n      tag_349\n        /* \"#utility.yul\":16162:16168   */\n      dup3\n        /* \"#utility.yul\":16154:16160   */\n      dup3\n        /* \"#utility.yul\":16148:16152   */\n      dup6\n        /* \"#utility.yul\":16102:16169   */\n      tag_166\n      jump\t// in\n    tag_349:\n        /* \"#utility.yul\":16196:16197   */\n      0x00\n        /* \"#utility.yul\":16225:16227   */\n      0x1f\n        /* \"#utility.yul\":16217:16223   */\n      dup4\n        /* \"#utility.yul\":16214:16228   */\n      gt\n        /* \"#utility.yul\":16242:16243   */\n      0x01\n        /* \"#utility.yul\":16237:16913   */\n      dup2\n      eq\n      tag_351\n      jumpi\n        /* \"#utility.yul\":16957:16958   */\n      0x00\n        /* \"#utility.yul\":16974:16980   */\n      dup5\n        /* \"#utility.yul\":16971:17048   */\n      iszero\n      tag_352\n      jumpi\n        /* \"#utility.yul\":17023:17032   */\n      dup3\n        /* \"#utility.yul\":17018:17021   */\n      dup8\n        /* \"#utility.yul\":17014:17033   */\n      add\n        /* \"#utility.yul\":17008:17034   */\n      sload\n        /* \"#utility.yul\":16999:17034   */\n      swap1\n      pop\n        /* \"#utility.yul\":16971:17048   */\n    tag_352:\n        /* \"#utility.yul\":17074:17141   */\n      tag_353\n        /* \"#utility.yul\":17134:17140   */\n      dup6\n        /* \"#utility.yul\":17127:17132   */\n      dup3\n        /* \"#utility.yul\":17074:17141   */\n      tag_169\n      jump\t// in\n    tag_353:\n        /* \"#utility.yul\":17068:17072   */\n      dup7\n        /* \"#utility.yul\":17061:17142   */\n      sstore\n        /* \"#utility.yul\":16930:17152   */\n      pop\n        /* \"#utility.yul\":16207:17152   */\n      jump(tag_350)\n        /* \"#utility.yul\":16237:16913   */\n    tag_351:\n        /* \"#utility.yul\":16289:16293   */\n      0x1f\n        /* \"#utility.yul\":16285:16294   */\n      not\n        /* \"#utility.yul\":16277:16283   */\n      dup5\n        /* \"#utility.yul\":16273:16295   */\n      and\n        /* \"#utility.yul\":16315:16355   */\n      tag_354\n        /* \"#utility.yul\":16351:16354   */\n      dup8\n        /* \"#utility.yul\":16315:16355   */\n      tag_178\n      jump\t// in\n    tag_354:\n        /* \"#utility.yul\":16308:16355   */\n      swap7\n      pop\n        /* \"#utility.yul\":16382:16419   */\n      tag_355\n        /* \"#utility.yul\":16414:16418   */\n      dup7\n        /* \"#utility.yul\":16382:16419   */\n      tag_154\n      jump\t// in\n    tag_355:\n        /* \"#utility.yul\":16441:16442   */\n      0x00\n        /* \"#utility.yul\":16455:16662   */\n    tag_356:\n        /* \"#utility.yul\":16469:16476   */\n      dup3\n        /* \"#utility.yul\":16466:16467   */\n      dup2\n        /* \"#utility.yul\":16463:16477   */\n      lt\n        /* \"#utility.yul\":16455:16662   */\n      iszero\n      tag_358\n      jumpi\n        /* \"#utility.yul\":16548:16557   */\n      dup5\n        /* \"#utility.yul\":16543:16546   */\n      dup10\n        /* \"#utility.yul\":16539:16558   */\n      add\n        /* \"#utility.yul\":16533:16559   */\n      sload\n        /* \"#utility.yul\":16525:16531   */\n      dup3\n        /* \"#utility.yul\":16518:16560   */\n      sstore\n        /* \"#utility.yul\":16599:16600   */\n      0x01\n        /* \"#utility.yul\":16591:16597   */\n      dup3\n        /* \"#utility.yul\":16587:16601   */\n      add\n        /* \"#utility.yul\":16577:16601   */\n      swap2\n      pop\n        /* \"#utility.yul\":16646:16647   */\n      0x01\n        /* \"#utility.yul\":16635:16644   */\n      dup6\n        /* \"#utility.yul\":16631:16648   */\n      add\n        /* \"#utility.yul\":16618:16648   */\n      swap5\n      pop\n        /* \"#utility.yul\":16492:16496   */\n      0x20\n        /* \"#utility.yul\":16489:16490   */\n      dup2\n        /* \"#utility.yul\":16485:16497   */\n      add\n        /* \"#utility.yul\":16480:16497   */\n      swap1\n      pop\n        /* \"#utility.yul\":16455:16662   */\n      jump(tag_356)\n    tag_358:\n        /* \"#utility.yul\":16690:16696   */\n      dup7\n        /* \"#utility.yul\":16681:16688   */\n      dup4\n        /* \"#utility.yul\":16678:16697   */\n      lt\n        /* \"#utility.yul\":16675:16854   */\n      iszero\n      tag_359\n      jumpi\n        /* \"#utility.yul\":16748:16757   */\n      dup5\n        /* \"#utility.yul\":16743:16746   */\n      dup10\n        /* \"#utility.yul\":16739:16758   */\n      add\n        /* \"#utility.yul\":16733:16759   */\n      sload\n        /* \"#utility.yul\":16791:16839   */\n      tag_360\n        /* \"#utility.yul\":16833:16837   */\n      0x1f\n        /* \"#utility.yul\":16825:16831   */\n      dup10\n        /* \"#utility.yul\":16821:16838   */\n      and\n        /* \"#utility.yul\":16810:16819   */\n      dup3\n        /* \"#utility.yul\":16791:16839   */\n      tag_168\n      jump\t// in\n    tag_360:\n        /* \"#utility.yul\":16783:16789   */\n      dup4\n        /* \"#utility.yul\":16776:16840   */\n      sstore\n        /* \"#utility.yul\":16698:16854   */\n      pop\n        /* \"#utility.yul\":16675:16854   */\n    tag_359:\n        /* \"#utility.yul\":16900:16901   */\n      0x01\n        /* \"#utility.yul\":16896:16897   */\n      0x02\n        /* \"#utility.yul\":16888:16894   */\n      dup9\n        /* \"#utility.yul\":16884:16898   */\n      mul\n        /* \"#utility.yul\":16880:16902   */\n      add\n        /* \"#utility.yul\":16874:16878   */\n      dup9\n        /* \"#utility.yul\":16867:16903   */\n      sstore\n        /* \"#utility.yul\":16244:16913   */\n      pop\n      pop\n      pop\n        /* \"#utility.yul\":16207:17152   */\n    tag_350:\n      pop\n        /* \"#utility.yul\":15788:17158   */\n      pop\n      pop\n      pop\n        /* \"#utility.yul\":15695:17158   */\n      pop\n      pop\n    tag_343:\n      jump\t// out\n        /* \"#utility.yul\":17164:17344   */\n    tag_89:\n        /* \"#utility.yul\":17212:17289   */\n      0x4e487b7100000000000000000000000000000000000000000000000000000000\n        /* \"#utility.yul\":17209:17210   */\n      0x00\n        /* \"#utility.yul\":17202:17290   */\n      mstore\n        /* \"#utility.yul\":17309:17313   */\n      0x31\n        /* \"#utility.yul\":17306:17307   */\n      0x04\n        /* \"#utility.yul\":17299:17314   */\n      mstore\n        /* \"#utility.yul\":17333:17337   */\n      0x24\n        /* \"#utility.yul\":17330:17331   */\n      0x00\n        /* \"#utility.yul\":17323:17338   */\n      revert\n\n    auxdata: 0xa26469706673582212202b7e7bbbcdc5fa9620948feb26753550b021d1d200a501f45640601203449c6364736f6c634300081a0033\n}\n",
				"bytecode": {
					"linkReferences": {},
					"object": "608060405234801561000f575f80fd5b50604051611260380380611260833981810160405281019061003191906101d7565b805f73ffffffffffffffffffffffffffffffffffffffff168173ffffffffffffffffffffffffffffffffffffffff16036100a2575f6040517f1e4fbdf70000000000000000000000000000000000000000000000000000000081526004016100999190610211565b60405180910390fd5b6100b1816100b860201b60201c565b505061022a565b5f805f9054906101000a900473ffffffffffffffffffffffffffffffffffffffff169050815f806101000a81548173ffffffffffffffffffffffffffffffffffffffff021916908373ffffffffffffffffffffffffffffffffffffffff1602179055508173ffffffffffffffffffffffffffffffffffffffff168173ffffffffffffffffffffffffffffffffffffffff167f8be0079c531659141344cd1fd0a4f28419497f9722a3daafe3b4186f6b6457e060405160405180910390a35050565b5f80fd5b5f73ffffffffffffffffffffffffffffffffffffffff82169050919050565b5f6101a68261017d565b9050919050565b6101b68161019c565b81146101c0575f80fd5b50565b5f815190506101d1816101ad565b92915050565b5f602082840312156101ec576101eb610179565b5b5f6101f9848285016101c3565b91505092915050565b61020b8161019c565b82525050565b5f6020820190506102245f830184610202565b92915050565b611029806102375f395ff3fe608060405234801561000f575f80fd5b506004361061007b575f3560e01c8063a8fd9cf311610059578063a8fd9cf3146100c5578063c031babb146100e1578063ccba16bb146100fd578063f2fde38b1461012d5761007b565b80631a10c9021461007f578063715018a61461009d5780638da5cb5b146100a7575b5f80fd5b610087610149565b604051610094919061082a565b60405180910390f35b6100a561021d565b005b6100af610230565b6040516100bc9190610889565b60405180910390f35b6100df60048036038101906100da919061090b565b610257565b005b6100fb60048036038101906100f6919061090b565b6102d7565b005b6101176004803603810190610112919061090b565b61042f565b6040516101249190610970565b60405180910390f35b610147600480360381019061014291906109b3565b6104d4565b005b60606001805480602002602001604051908101604052809291908181526020015f905b82821015610214578382905f5260205f2001805461018990610a0b565b80601f01602080910402602001604051908101604052809291908181526020018280546101b590610a0b565b80156102005780601f106101d757610100808354040283529160200191610200565b820191905f5260205f20905b8154815290600101906020018083116101e357829003601f168201915b50505050508152602001906001019061016c565b50505050905090565b610225610558565b61022e5f6105df565b565b5f805f9054906101000a900473ffffffffffffffffffffffffffffffffffffffff16905090565b61025f610558565b6001828290918060018154018082558091505060019003905f5260205f20015f909192909192909192909192509182610299929190610c18565b507f06599b5a9752a1e5f2e358c22707404a5e56a6674192b037494f17caa8df3f4382826040516102cb929190610d2f565b60405180910390a15050565b6102df610558565b5f5b60018054905081101561042a578282604051602001610301929190610d7f565b604051602081830303815290604052805190602001206001828154811061032b5761032a610d97565b5b905f5260205f20016040516020016103439190610e44565b604051602081830303815290604052805190602001200361041d5760018080805490506103709190610e87565b8154811061038157610380610d97565b5b905f5260205f20016001828154811061039d5761039c610d97565b5b905f5260205f200190816103b19190610ee1565b5060018054806103c4576103c3610fc6565b5b600190038181905f5260205f20015f6103dd91906106a7565b90557fe97b68a0959e526c5c550702887358551e1144aea91c957abbbd84ca557eee438383604051610410929190610d2f565b60405180910390a161042a565b80806001019150506102e1565b505050565b5f805f90505b6001805490508110156104c9578383604051602001610455929190610d7f565b604051602081830303815290604052805190602001206001828154811061047f5761047e610d97565b5b905f5260205f20016040516020016104979190610e44565b60405160208183030381529060405280519060200120036104bc5760019150506104ce565b8080600101915050610435565b505f90505b92915050565b6104dc610558565b5f73ffffffffffffffffffffffffffffffffffffffff168173ffffffffffffffffffffffffffffffffffffffff160361054c575f6040517f1e4fbdf70000000000000000000000000000000000000000000000000000000081526004016105439190610889565b60405180910390fd5b610555816105df565b50565b6105606106a0565b73ffffffffffffffffffffffffffffffffffffffff1661057e610230565b73ffffffffffffffffffffffffffffffffffffffff16146105dd576105a16106a0565b6040517f118cdaa70000000000000000000000000000000000000000000000000000000081526004016105d49190610889565b60405180910390fd5b565b5f805f9054906101000a900473ffffffffffffffffffffffffffffffffffffffff169050815f806101000a81548173ffffffffffffffffffffffffffffffffffffffff021916908373ffffffffffffffffffffffffffffffffffffffff1602179055508173ffffffffffffffffffffffffffffffffffffffff168173ffffffffffffffffffffffffffffffffffffffff167f8be0079c531659141344cd1fd0a4f28419497f9722a3daafe3b4186f6b6457e060405160405180910390a35050565b5f33905090565b5080546106b390610a0b565b5f825580601f106106c457506106e1565b601f0160209004905f5260205f20908101906106e091906106e4565b5b50565b5b808211156106fb575f815f9055506001016106e5565b5090565b5f81519050919050565b5f82825260208201905092915050565b5f819050602082019050919050565b5f81519050919050565b5f82825260208201905092915050565b8281835e5f83830152505050565b5f601f19601f8301169050919050565b5f61076a82610728565b6107748185610732565b9350610784818560208601610742565b61078d81610750565b840191505092915050565b5f6107a38383610760565b905092915050565b5f602082019050919050565b5f6107c1826106ff565b6107cb8185610709565b9350836020820285016107dd85610719565b805f5b8581101561081857848403895281516107f98582610798565b9450610804836107ab565b925060208a019950506001810190506107e0565b50829750879550505050505092915050565b5f6020820190508181035f83015261084281846107b7565b905092915050565b5f73ffffffffffffffffffffffffffffffffffffffff82169050919050565b5f6108738261084a565b9050919050565b61088381610869565b82525050565b5f60208201905061089c5f83018461087a565b92915050565b5f80fd5b5f80fd5b5f80fd5b5f80fd5b5f80fd5b5f8083601f8401126108cb576108ca6108aa565b5b8235905067ffffffffffffffff8111156108e8576108e76108ae565b5b602083019150836001820283011115610904576109036108b2565b5b9250929050565b5f8060208385031215610921576109206108a2565b5b5f83013567ffffffffffffffff81111561093e5761093d6108a6565b5b61094a858286016108b6565b92509250509250929050565b5f8115159050919050565b61096a81610956565b82525050565b5f6020820190506109835f830184610961565b92915050565b61099281610869565b811461099c575f80fd5b50565b5f813590506109ad81610989565b92915050565b5f602082840312156109c8576109c76108a2565b5b5f6109d58482850161099f565b91505092915050565b7f4e487b71000000000000000000000000000000000000000000000000000000005f52602260045260245ffd5b5f6002820490506001821680610a2257607f821691505b602082108103610a3557610a346109de565b5b50919050565b5f82905092915050565b7f4e487b71000000000000000000000000000000000000000000000000000000005f52604160045260245ffd5b5f819050815f5260205f209050919050565b5f6020601f8301049050919050565b5f82821b905092915050565b5f60088302610ace7fffffffffffffffffffffffffffffffffffffffffffffffffffffffffffffffff82610a93565b610ad88683610a93565b95508019841693508086168417925050509392505050565b5f819050919050565b5f819050919050565b5f610b1c610b17610b1284610af0565b610af9565b610af0565b9050919050565b5f819050919050565b610b3583610b02565b610b49610b4182610b23565b848454610a9f565b825550505050565b5f90565b610b5d610b51565b610b68818484610b2c565b505050565b5b81811015610b8b57610b805f82610b55565b600181019050610b6e565b5050565b601f821115610bd057610ba181610a72565b610baa84610a84565b81016020851015610bb9578190505b610bcd610bc585610a84565b830182610b6d565b50505b505050565b5f82821c905092915050565b5f610bf05f1984600802610bd5565b1980831691505092915050565b5f610c088383610be1565b9150826002028217905092915050565b610c228383610a3b565b67ffffffffffffffff811115610c3b57610c3a610a45565b5b610c458254610a0b565b610c50828285610b8f565b5f601f831160018114610c7d575f8415610c6b578287013590505b610c758582610bfd565b865550610cdc565b601f198416610c8b86610a72565b5f5b82811015610cb257848901358255600182019150602085019450602081019050610c8d565b86831015610ccf5784890135610ccb601f891682610be1565b8355505b6001600288020188555050505b50505050505050565b5f82825260208201905092915050565b828183375f83830152505050565b5f610d0e8385610ce5565b9350610d1b838584610cf5565b610d2483610750565b840190509392505050565b5f6020820190508181035f830152610d48818486610d03565b90509392505050565b5f81905092915050565b5f610d668385610d51565b9350610d73838584610cf5565b82840190509392505050565b5f610d8b828486610d5b565b91508190509392505050565b7f4e487b71000000000000000000000000000000000000000000000000000000005f52603260045260245ffd5b5f8154610dd081610a0b565b610dda8186610d51565b9450600182165f8114610df45760018114610e0957610e3b565b60ff1983168652811515820286019350610e3b565b610e1285610a72565b5f5b83811015610e3357815481890152600182019150602081019050610e14565b838801955050505b50505092915050565b5f610e4f8284610dc4565b915081905092915050565b7f4e487b71000000000000000000000000000000000000000000000000000000005f52601160045260245ffd5b5f610e9182610af0565b9150610e9c83610af0565b9250828203905081811115610eb457610eb3610e5a565b5b92915050565b5f81549050610ec881610a0b565b9050919050565b5f819050815f5260205f209050919050565b818103610eef575050610fc4565b610ef882610eba565b67ffffffffffffffff811115610f1157610f10610a45565b5b610f1b8254610a0b565b610f26828285610b8f565b5f601f831160018114610f53575f8415610f41578287015490505b610f4b8582610bfd565b865550610fbd565b601f198416610f6187610ecf565b9650610f6c86610a72565b5f5b82811015610f9357848901548255600182019150600185019450602081019050610f6e565b86831015610fb05784890154610fac601f891682610be1565b8355505b6001600288020188555050505b5050505050505b565b7f4e487b71000000000000000000000000000000000000000000000000000000005f52603160045260245ffdfea26469706673582212202b7e7bbbcdc5fa9620948feb26753550b021d1d200a501f45640601203449c6364736f6c634300081a0033",
					"opcodes": "PUSH1 0x80 PUSH1 0x40 MSTORE CALLVALUE DUP1 ISZERO PUSH2 0xF JUMPI PUSH0 DUP1 REVERT JUMPDEST POP PUSH1 0x40 MLOAD PUSH2 0x1260 CODESIZE SUB DUP1 PUSH2 0x1260 DUP4 CODECOPY DUP2 DUP2 ADD PUSH1 0x40 MSTORE DUP2 ADD SWAP1 PUSH2 0x31 SWAP2 SWAP1 PUSH2 0x1D7 JUMP JUMPDEST DUP1 PUSH0 PUSH20 0xFFFFFFFFFFFFFFFFFFFFFFFFFFFFFFFFFFFFFFFF AND DUP2 PUSH20 0xFFFFFFFFFFFFFFFFFFFFFFFFFFFFFFFFFFFFFFFF AND SUB PUSH2 0xA2 JUMPI PUSH0 PUSH1 0x40 MLOAD PUSH32 0x1E4FBDF700000000000000000000000000000000000000000000000000000000 DUP2 MSTORE PUSH1 0x4 ADD PUSH2 0x99 SWAP2 SWAP1 PUSH2 0x211 JUMP JUMPDEST PUSH1 0x40 MLOAD DUP1 SWAP2 SUB SWAP1 REVERT JUMPDEST PUSH2 0xB1 DUP2 PUSH2 0xB8 PUSH1 0x20 SHL PUSH1 0x20 SHR JUMP JUMPDEST POP POP PUSH2 0x22A JUMP JUMPDEST PUSH0 DUP1 PUSH0 SWAP1 SLOAD SWAP1 PUSH2 0x100 EXP SWAP1 DIV PUSH20 0xFFFFFFFFFFFFFFFFFFFFFFFFFFFFFFFFFFFFFFFF AND SWAP1 POP DUP2 PUSH0 DUP1 PUSH2 0x100 EXP DUP2 SLOAD DUP2 PUSH20 0xFFFFFFFFFFFFFFFFFFFFFFFFFFFFFFFFFFFFFFFF MUL NOT AND SWAP1 DUP4 PUSH20 0xFFFFFFFFFFFFFFFFFFFFFFFFFFFFFFFFFFFFFFFF AND MUL OR SWAP1 SSTORE POP DUP2 PUSH20 0xFFFFFFFFFFFFFFFFFFFFFFFFFFFFFFFFFFFFFFFF AND DUP2 PUSH20 0xFFFFFFFFFFFFFFFFFFFFFFFFFFFFFFFFFFFFFFFF AND PUSH32 0x8BE0079C531659141344CD1FD0A4F28419497F9722A3DAAFE3B4186F6B6457E0 PUSH1 0x40 MLOAD PUSH1 0x40 MLOAD DUP1 SWAP2 SUB SWAP1 LOG3 POP POP JUMP JUMPDEST PUSH0 DUP1 REVERT JUMPDEST PUSH0 PUSH20 0xFFFFFFFFFFFFFFFFFFFFFFFFFFFFFFFFFFFFFFFF DUP3 AND SWAP1 POP SWAP2 SWAP1 POP JUMP JUMPDEST PUSH0 PUSH2 0x1A6 DUP3 PUSH2 0x17D JUMP JUMPDEST SWAP1 POP SWAP2 SWAP1 POP JUMP JUMPDEST PUSH2 0x1B6 DUP2 PUSH2 0x19C JUMP JUMPDEST DUP2 EQ PUSH2 0x1C0 JUMPI PUSH0 DUP1 REVERT JUMPDEST POP JUMP JUMPDEST PUSH0 DUP2 MLOAD SWAP1 POP PUSH2 0x1D1 DUP2 PUSH2 0x1AD JUMP JUMPDEST SWAP3 SWAP2 POP POP JUMP JUMPDEST PUSH0 PUSH1 0x20 DUP3 DUP5 SUB SLT ISZERO PUSH2 0x1EC JUMPI PUSH2 0x1EB PUSH2 0x179 JUMP JUMPDEST JUMPDEST PUSH0 PUSH2 0x1F9 DUP5 DUP3 DUP6 ADD PUSH2 0x1C3 JUMP JUMPDEST SWAP2 POP POP SWAP3 SWAP2 POP POP JUMP JUMPDEST PUSH2 0x20B DUP2 PUSH2 0x19C JUMP JUMPDEST DUP3 MSTORE POP POP JUMP JUMPDEST PUSH0 PUSH1 0x20 DUP3 ADD SWAP1 POP PUSH2 0x224 PUSH0 DUP4 ADD DUP5 PUSH2 0x202 JUMP JUMPDEST SWAP3 SWAP2 POP POP JUMP JUMPDEST PUSH2 0x1029 DUP1 PUSH2 0x237 PUSH0 CODECOPY PUSH0 RETURN INVALID PUSH1 0x80 PUSH1 0x40 MSTORE CALLVALUE DUP1 ISZERO PUSH2 0xF JUMPI PUSH0 DUP1 REVERT JUMPDEST POP PUSH1 0x4 CALLDATASIZE LT PUSH2 0x7B JUMPI PUSH0 CALLDATALOAD PUSH1 0xE0 SHR DUP1 PUSH4 0xA8FD9CF3 GT PUSH2 0x59 JUMPI DUP1 PUSH4 0xA8FD9CF3 EQ PUSH2 0xC5 JUMPI DUP1 PUSH4 0xC031BABB EQ PUSH2 0xE1 JUMPI DUP1 PUSH4 0xCCBA16BB EQ PUSH2 0xFD JUMPI DUP1 PUSH4 0xF2FDE38B EQ PUSH2 0x12D JUMPI PUSH2 0x7B JUMP JUMPDEST DUP1 PUSH4 0x1A10C902 EQ PUSH2 0x7F JUMPI DUP1 PUSH4 0x715018A6 EQ PUSH2 0x9D JUMPI DUP1 PUSH4 0x8DA5CB5B EQ PUSH2 0xA7 JUMPI JUMPDEST PUSH0 DUP1 REVERT JUMPDEST PUSH2 0x87 PUSH2 0x149 JUMP JUMPDEST PUSH1 0x40 MLOAD PUSH2 0x94 SWAP2 SWAP1 PUSH2 0x82A JUMP JUMPDEST PUSH1 0x40 MLOAD DUP1 SWAP2 SUB SWAP1 RETURN JUMPDEST PUSH2 0xA5 PUSH2 0x21D JUMP JUMPDEST STOP JUMPDEST PUSH2 0xAF PUSH2 0x230 JUMP JUMPDEST PUSH1 0x40 MLOAD PUSH2 0xBC SWAP2 SWAP1 PUSH2 0x889 JUMP JUMPDEST PUSH1 0x40 MLOAD DUP1 SWAP2 SUB SWAP1 RETURN JUMPDEST PUSH2 0xDF PUSH1 0x4 DUP1 CALLDATASIZE SUB DUP2 ADD SWAP1 PUSH2 0xDA SWAP2 SWAP1 PUSH2 0x90B JUMP JUMPDEST PUSH2 0x257 JUMP JUMPDEST STOP JUMPDEST PUSH2 0xFB PUSH1 0x4 DUP1 CALLDATASIZE SUB DUP2 ADD SWAP1 PUSH2 0xF6 SWAP2 SWAP1 PUSH2 0x90B JUMP JUMPDEST PUSH2 0x2D7 JUMP JUMPDEST STOP JUMPDEST PUSH2 0x117 PUSH1 0x4 DUP1 CALLDATASIZE SUB DUP2 ADD SWAP1 PUSH2 0x112 SWAP2 SWAP1 PUSH2 0x90B JUMP JUMPDEST PUSH2 0x42F JUMP JUMPDEST PUSH1 0x40 MLOAD PUSH2 0x124 SWAP2 SWAP1 PUSH2 0x970 JUMP JUMPDEST PUSH1 0x40 MLOAD DUP1 SWAP2 SUB SWAP1 RETURN JUMPDEST PUSH2 0x147 PUSH1 0x4 DUP1 CALLDATASIZE SUB DUP2 ADD SWAP1 PUSH2 0x142 SWAP2 SWAP1 PUSH2 0x9B3 JUMP JUMPDEST PUSH2 0x4D4 JUMP JUMPDEST STOP JUMPDEST PUSH1 0x60 PUSH1 0x1 DUP1 SLOAD DUP1 PUSH1 0x20 MUL PUSH1 0x20 ADD PUSH1 0x40 MLOAD SWAP1 DUP2 ADD PUSH1 0x40 MSTORE DUP1 SWAP3 SWAP2 SWAP1 DUP2 DUP2 MSTORE PUSH1 0x20 ADD PUSH0 SWAP1 JUMPDEST DUP3 DUP3 LT ISZERO PUSH2 0x214 JUMPI DUP4 DUP3 SWAP1 PUSH0 MSTORE PUSH1 0x20 PUSH0 KECCAK256 ADD DUP1 SLOAD PUSH2 0x189 SWAP1 PUSH2 0xA0B JUMP JUMPDEST DUP1 PUSH1 0x1F ADD PUSH1 0x20 DUP1 SWAP2 DIV MUL PUSH1 0x20 ADD PUSH1 0x40 MLOAD SWAP1 DUP2 ADD PUSH1 0x40 MSTORE DUP1 SWAP3 SWAP2 SWAP1 DUP2 DUP2 MSTORE PUSH1 0x20 ADD DUP3 DUP1 SLOAD PUSH2 0x1B5 SWAP1 PUSH2 0xA0B JUMP JUMPDEST DUP1 ISZERO PUSH2 0x200 JUMPI DUP1 PUSH1 0x1F LT PUSH2 0x1D7 JUMPI PUSH2 0x100 DUP1 DUP4 SLOAD DIV MUL DUP4 MSTORE SWAP2 PUSH1 0x20 ADD SWAP2 PUSH2 0x200 JUMP JUMPDEST DUP3 ADD SWAP2 SWAP1 PUSH0 MSTORE PUSH1 0x20 PUSH0 KECCAK256 SWAP1 JUMPDEST DUP2 SLOAD DUP2 MSTORE SWAP1 PUSH1 0x1 ADD SWAP1 PUSH1 0x20 ADD DUP1 DUP4 GT PUSH2 0x1E3 JUMPI DUP3 SWAP1 SUB PUSH1 0x1F AND DUP3 ADD SWAP2 JUMPDEST POP POP POP POP POP DUP2 MSTORE PUSH1 0x20 ADD SWAP1 PUSH1 0x1 ADD SWAP1 PUSH2 0x16C JUMP JUMPDEST POP POP POP POP SWAP1 POP SWAP1 JUMP JUMPDEST PUSH2 0x225 PUSH2 0x558 JUMP JUMPDEST PUSH2 0x22E PUSH0 PUSH2 0x5DF JUMP JUMPDEST JUMP JUMPDEST PUSH0 DUP1 PUSH0 SWAP1 SLOAD SWAP1 PUSH2 0x100 EXP SWAP1 DIV PUSH20 0xFFFFFFFFFFFFFFFFFFFFFFFFFFFFFFFFFFFFFFFF AND SWAP1 POP SWAP1 JUMP JUMPDEST PUSH2 0x25F PUSH2 0x558 JUMP JUMPDEST PUSH1 0x1 DUP3 DUP3 SWAP1 SWAP2 DUP1 PUSH1 0x1 DUP2 SLOAD ADD DUP1 DUP3 SSTORE DUP1 SWAP2 POP POP PUSH1 0x1 SWAP1 SUB SWAP1 PUSH0 MSTORE PUSH1 0x20 PUSH0 KECCAK256 ADD PUSH0 SWAP1 SWAP2 SWAP3 SWAP1 SWAP2 SWAP3 SWAP1 SWAP2 SWAP3 SWAP1 SWAP2 SWAP3 POP SWAP2 DUP3 PUSH2 0x299 SWAP3 SWAP2 SWAP1 PUSH2 0xC18 JUMP JUMPDEST POP PUSH32 0x6599B5A9752A1E5F2E358C22707404A5E56A6674192B037494F17CAA8DF3F43 DUP3 DUP3 PUSH1 0x40 MLOAD PUSH2 0x2CB SWAP3 SWAP2 SWAP1 PUSH2 0xD2F JUMP JUMPDEST PUSH1 0x40 MLOAD DUP1 SWAP2 SUB SWAP1 LOG1 POP POP JUMP JUMPDEST PUSH2 0x2DF PUSH2 0x558 JUMP JUMPDEST PUSH0 JUMPDEST PUSH1 0x1 DUP1 SLOAD SWAP1 POP DUP2 LT ISZERO PUSH2 0x42A JUMPI DUP3 DUP3 PUSH1 0x40 MLOAD PUSH1 0x20 ADD PUSH2 0x301 SWAP3 SWAP2 SWAP1 PUSH2 0xD7F JUMP JUMPDEST PUSH1 0x40 MLOAD PUSH1 0x20 DUP2 DUP4 SUB SUB DUP2 MSTORE SWAP1 PUSH1 0x40 MSTORE DUP1 MLOAD SWAP1 PUSH1 0x20 ADD KECCAK256 PUSH1 0x1 DUP3 DUP2 SLOAD DUP2 LT PUSH2 0x32B JUMPI PUSH2 0x32A PUSH2 0xD97 JUMP JUMPDEST JUMPDEST SWAP1 PUSH0 MSTORE PUSH1 0x20 PUSH0 KECCAK256 ADD PUSH1 0x40 MLOAD PUSH1 0x20 ADD PUSH2 0x343 SWAP2 SWAP1 PUSH2 0xE44 JUMP JUMPDEST PUSH1 0x40 MLOAD PUSH1 0x20 DUP2 DUP4 SUB SUB DUP2 MSTORE SWAP1 PUSH1 0x40 MSTORE DUP1 MLOAD SWAP1 PUSH1 0x20 ADD KECCAK256 SUB PUSH2 0x41D JUMPI PUSH1 0x1 DUP1 DUP1 DUP1 SLOAD SWAP1 POP PUSH2 0x370 SWAP2 SWAP1 PUSH2 0xE87 JUMP JUMPDEST DUP2 SLOAD DUP2 LT PUSH2 0x381 JUMPI PUSH2 0x380 PUSH2 0xD97 JUMP JUMPDEST JUMPDEST SWAP1 PUSH0 MSTORE PUSH1 0x20 PUSH0 KECCAK256 ADD PUSH1 0x1 DUP3 DUP2 SLOAD DUP2 LT PUSH2 0x39D JUMPI PUSH2 0x39C PUSH2 0xD97 JUMP JUMPDEST JUMPDEST SWAP1 PUSH0 MSTORE PUSH1 0x20 PUSH0 KECCAK256 ADD SWAP1 DUP2 PUSH2 0x3B1 SWAP2 SWAP1 PUSH2 0xEE1 JUMP JUMPDEST POP PUSH1 0x1 DUP1 SLOAD DUP1 PUSH2 0x3C4 JUMPI PUSH2 0x3C3 PUSH2 0xFC6 JUMP JUMPDEST JUMPDEST PUSH1 0x1 SWAP1 SUB DUP2 DUP2 SWAP1 PUSH0 MSTORE PUSH1 0x20 PUSH0 KECCAK256 ADD PUSH0 PUSH2 0x3DD SWAP2 SWAP1 PUSH2 0x6A7 JUMP JUMPDEST SWAP1 SSTORE PUSH32 0xE97B68A0959E526C5C550702887358551E1144AEA91C957ABBBD84CA557EEE43 DUP4 DUP4 PUSH1 0x40 MLOAD PUSH2 0x410 SWAP3 SWAP2 SWAP1 PUSH2 0xD2F JUMP JUMPDEST PUSH1 0x40 MLOAD DUP1 SWAP2 SUB SWAP1 LOG1 PUSH2 0x42A JUMP JUMPDEST DUP1 DUP1 PUSH1 0x1 ADD SWAP2 POP POP PUSH2 0x2E1 JUMP JUMPDEST POP POP POP JUMP JUMPDEST PUSH0 DUP1 PUSH0 SWAP1 POP JUMPDEST PUSH1 0x1 DUP1 SLOAD SWAP1 POP DUP2 LT ISZERO PUSH2 0x4C9 JUMPI DUP4 DUP4 PUSH1 0x40 MLOAD PUSH1 0x20 ADD PUSH2 0x455 SWAP3 SWAP2 SWAP1 PUSH2 0xD7F JUMP JUMPDEST PUSH1 0x40 MLOAD PUSH1 0x20 DUP2 DUP4 SUB SUB DUP2 MSTORE SWAP1 PUSH1 0x40 MSTORE DUP1 MLOAD SWAP1 PUSH1 0x20 ADD KECCAK256 PUSH1 0x1 DUP3 DUP2 SLOAD DUP2 LT PUSH2 0x47F JUMPI PUSH2 0x47E PUSH2 0xD97 JUMP JUMPDEST JUMPDEST SWAP1 PUSH0 MSTORE PUSH1 0x20 PUSH0 KECCAK256 ADD PUSH1 0x40 MLOAD PUSH1 0x20 ADD PUSH2 0x497 SWAP2 SWAP1 PUSH2 0xE44 JUMP JUMPDEST PUSH1 0x40 MLOAD PUSH1 0x20 DUP2 DUP4 SUB SUB DUP2 MSTORE SWAP1 PUSH1 0x40 MSTORE DUP1 MLOAD SWAP1 PUSH1 0x20 ADD KECCAK256 SUB PUSH2 0x4BC JUMPI PUSH1 0x1 SWAP2 POP POP PUSH2 0x4CE JUMP JUMPDEST DUP1 DUP1 PUSH1 0x1 ADD SWAP2 POP POP PUSH2 0x435 JUMP JUMPDEST POP PUSH0 SWAP1 POP JUMPDEST SWAP3 SWAP2 POP POP JUMP JUMPDEST PUSH2 0x4DC PUSH2 0x558 JUMP JUMPDEST PUSH0 PUSH20 0xFFFFFFFFFFFFFFFFFFFFFFFFFFFFFFFFFFFFFFFF AND DUP2 PUSH20 0xFFFFFFFFFFFFFFFFFFFFFFFFFFFFFFFFFFFFFFFF AND SUB PUSH2 0x54C JUMPI PUSH0 PUSH1 0x40 MLOAD PUSH32 0x1E4FBDF700000000000000000000000000000000000000000000000000000000 DUP2 MSTORE PUSH1 0x4 ADD PUSH2 0x543 SWAP2 SWAP1 PUSH2 0x889 JUMP JUMPDEST PUSH1 0x40 MLOAD DUP1 SWAP2 SUB SWAP1 REVERT JUMPDEST PUSH2 0x555 DUP2 PUSH2 0x5DF JUMP JUMPDEST POP JUMP JUMPDEST PUSH2 0x560 PUSH2 0x6A0 JUMP JUMPDEST PUSH20 0xFFFFFFFFFFFFFFFFFFFFFFFFFFFFFFFFFFFFFFFF AND PUSH2 0x57E PUSH2 0x230 JUMP JUMPDEST PUSH20 0xFFFFFFFFFFFFFFFFFFFFFFFFFFFFFFFFFFFFFFFF AND EQ PUSH2 0x5DD JUMPI PUSH2 0x5A1 PUSH2 0x6A0 JUMP JUMPDEST PUSH1 0x40 MLOAD PUSH32 0x118CDAA700000000000000000000000000000000000000000000000000000000 DUP2 MSTORE PUSH1 0x4 ADD PUSH2 0x5D4 SWAP2 SWAP1 PUSH2 0x889 JUMP JUMPDEST PUSH1 0x40 MLOAD DUP1 SWAP2 SUB SWAP1 REVERT JUMPDEST JUMP JUMPDEST PUSH0 DUP1 PUSH0 SWAP1 SLOAD SWAP1 PUSH2 0x100 EXP SWAP1 DIV PUSH20 0xFFFFFFFFFFFFFFFFFFFFFFFFFFFFFFFFFFFFFFFF AND SWAP1 POP DUP2 PUSH0 DUP1 PUSH2 0x100 EXP DUP2 SLOAD DUP2 PUSH20 0xFFFFFFFFFFFFFFFFFFFFFFFFFFFFFFFFFFFFFFFF MUL NOT AND SWAP1 DUP4 PUSH20 0xFFFFFFFFFFFFFFFFFFFFFFFFFFFFFFFFFFFFFFFF AND MUL OR SWAP1 SSTORE POP DUP2 PUSH20 0xFFFFFFFFFFFFFFFFFFFFFFFFFFFFFFFFFFFFFFFF AND DUP2 PUSH20 0xFFFFFFFFFFFFFFFFFFFFFFFFFFFFFFFFFFFFFFFF AND PUSH32 0x8BE0079C531659141344CD1FD0A4F28419497F9722A3DAAFE3B4186F6B6457E0 PUSH1 0x40 MLOAD PUSH1 0x40 MLOAD DUP1 SWAP2 SUB SWAP1 LOG3 POP POP JUMP JUMPDEST PUSH0 CALLER SWAP1 POP SWAP1 JUMP JUMPDEST POP DUP1 SLOAD PUSH2 0x6B3 SWAP1 PUSH2 0xA0B JUMP JUMPDEST PUSH0 DUP3 SSTORE DUP1 PUSH1 0x1F LT PUSH2 0x6C4 JUMPI POP PUSH2 0x6E1 JUMP JUMPDEST PUSH1 0x1F ADD PUSH1 0x20 SWAP1 DIV SWAP1 PUSH0 MSTORE PUSH1 0x20 PUSH0 KECCAK256 SWAP1 DUP2 ADD SWAP1 PUSH2 0x6E0 SWAP2 SWAP1 PUSH2 0x6E4 JUMP JUMPDEST JUMPDEST POP JUMP JUMPDEST JUMPDEST DUP1 DUP3 GT ISZERO PUSH2 0x6FB JUMPI PUSH0 DUP2 PUSH0 SWAP1 SSTORE POP PUSH1 0x1 ADD PUSH2 0x6E5 JUMP JUMPDEST POP SWAP1 JUMP JUMPDEST PUSH0 DUP2 MLOAD SWAP1 POP SWAP2 SWAP1 POP JUMP JUMPDEST PUSH0 DUP3 DUP3 MSTORE PUSH1 0x20 DUP3 ADD SWAP1 POP SWAP3 SWAP2 POP POP JUMP JUMPDEST PUSH0 DUP2 SWAP1 POP PUSH1 0x20 DUP3 ADD SWAP1 POP SWAP2 SWAP1 POP JUMP JUMPDEST PUSH0 DUP2 MLOAD SWAP1 POP SWAP2 SWAP1 POP JUMP JUMPDEST PUSH0 DUP3 DUP3 MSTORE PUSH1 0x20 DUP3 ADD SWAP1 POP SWAP3 SWAP2 POP POP JUMP JUMPDEST DUP3 DUP2 DUP4 MCOPY PUSH0 DUP4 DUP4 ADD MSTORE POP POP POP JUMP JUMPDEST PUSH0 PUSH1 0x1F NOT PUSH1 0x1F DUP4 ADD AND SWAP1 POP SWAP2 SWAP1 POP JUMP JUMPDEST PUSH0 PUSH2 0x76A DUP3 PUSH2 0x728 JUMP JUMPDEST PUSH2 0x774 DUP2 DUP6 PUSH2 0x732 JUMP JUMPDEST SWAP4 POP PUSH2 0x784 DUP2 DUP6 PUSH1 0x20 DUP7 ADD PUSH2 0x742 JUMP JUMPDEST PUSH2 0x78D DUP2 PUSH2 0x750 JUMP JUMPDEST DUP5 ADD SWAP2 POP POP SWAP3 SWAP2 POP POP JUMP JUMPDEST PUSH0 PUSH2 0x7A3 DUP4 DUP4 PUSH2 0x760 JUMP JUMPDEST SWAP1 POP SWAP3 SWAP2 POP POP JUMP JUMPDEST PUSH0 PUSH1 0x20 DUP3 ADD SWAP1 POP SWAP2 SWAP1 POP JUMP JUMPDEST PUSH0 PUSH2 0x7C1 DUP3 PUSH2 0x6FF JUMP JUMPDEST PUSH2 0x7CB DUP2 DUP6 PUSH2 0x709 JUMP JUMPDEST SWAP4 POP DUP4 PUSH1 0x20 DUP3 MUL DUP6 ADD PUSH2 0x7DD DUP6 PUSH2 0x719 JUMP JUMPDEST DUP1 PUSH0 JUMPDEST DUP6 DUP2 LT ISZERO PUSH2 0x818 JUMPI DUP5 DUP5 SUB DUP10 MSTORE DUP2 MLOAD PUSH2 0x7F9 DUP6 DUP3 PUSH2 0x798 JUMP JUMPDEST SWAP5 POP PUSH2 0x804 DUP4 PUSH2 0x7AB JUMP JUMPDEST SWAP3 POP PUSH1 0x20 DUP11 ADD SWAP10 POP POP PUSH1 0x1 DUP2 ADD SWAP1 POP PUSH2 0x7E0 JUMP JUMPDEST POP DUP3 SWAP8 POP DUP8 SWAP6 POP POP POP POP POP POP SWAP3 SWAP2 POP POP JUMP JUMPDEST PUSH0 PUSH1 0x20 DUP3 ADD SWAP1 POP DUP2 DUP2 SUB PUSH0 DUP4 ADD MSTORE PUSH2 0x842 DUP2 DUP5 PUSH2 0x7B7 JUMP JUMPDEST SWAP1 POP SWAP3 SWAP2 POP POP JUMP JUMPDEST PUSH0 PUSH20 0xFFFFFFFFFFFFFFFFFFFFFFFFFFFFFFFFFFFFFFFF DUP3 AND SWAP1 POP SWAP2 SWAP1 POP JUMP JUMPDEST PUSH0 PUSH2 0x873 DUP3 PUSH2 0x84A JUMP JUMPDEST SWAP1 POP SWAP2 SWAP1 POP JUMP JUMPDEST PUSH2 0x883 DUP2 PUSH2 0x869 JUMP JUMPDEST DUP3 MSTORE POP POP JUMP JUMPDEST PUSH0 PUSH1 0x20 DUP3 ADD SWAP1 POP PUSH2 0x89C PUSH0 DUP4 ADD DUP5 PUSH2 0x87A JUMP JUMPDEST SWAP3 SWAP2 POP POP JUMP JUMPDEST PUSH0 DUP1 REVERT JUMPDEST PUSH0 DUP1 REVERT JUMPDEST PUSH0 DUP1 REVERT JUMPDEST PUSH0 DUP1 REVERT JUMPDEST PUSH0 DUP1 REVERT JUMPDEST PUSH0 DUP1 DUP4 PUSH1 0x1F DUP5 ADD SLT PUSH2 0x8CB JUMPI PUSH2 0x8CA PUSH2 0x8AA JUMP JUMPDEST JUMPDEST DUP3 CALLDATALOAD SWAP1 POP PUSH8 0xFFFFFFFFFFFFFFFF DUP2 GT ISZERO PUSH2 0x8E8 JUMPI PUSH2 0x8E7 PUSH2 0x8AE JUMP JUMPDEST JUMPDEST PUSH1 0x20 DUP4 ADD SWAP2 POP DUP4 PUSH1 0x1 DUP3 MUL DUP4 ADD GT ISZERO PUSH2 0x904 JUMPI PUSH2 0x903 PUSH2 0x8B2 JUMP JUMPDEST JUMPDEST SWAP3 POP SWAP3 SWAP1 POP JUMP JUMPDEST PUSH0 DUP1 PUSH1 0x20 DUP4 DUP6 SUB SLT ISZERO PUSH2 0x921 JUMPI PUSH2 0x920 PUSH2 0x8A2 JUMP JUMPDEST JUMPDEST PUSH0 DUP4 ADD CALLDATALOAD PUSH8 0xFFFFFFFFFFFFFFFF DUP2 GT ISZERO PUSH2 0x93E JUMPI PUSH2 0x93D PUSH2 0x8A6 JUMP JUMPDEST JUMPDEST PUSH2 0x94A DUP6 DUP3 DUP7 ADD PUSH2 0x8B6 JUMP JUMPDEST SWAP3 POP SWAP3 POP POP SWAP3 POP SWAP3 SWAP1 POP JUMP JUMPDEST PUSH0 DUP2 ISZERO ISZERO SWAP1 POP SWAP2 SWAP1 POP JUMP JUMPDEST PUSH2 0x96A DUP2 PUSH2 0x956 JUMP JUMPDEST DUP3 MSTORE POP POP JUMP JUMPDEST PUSH0 PUSH1 0x20 DUP3 ADD SWAP1 POP PUSH2 0x983 PUSH0 DUP4 ADD DUP5 PUSH2 0x961 JUMP JUMPDEST SWAP3 SWAP2 POP POP JUMP JUMPDEST PUSH2 0x992 DUP2 PUSH2 0x869 JUMP JUMPDEST DUP2 EQ PUSH2 0x99C JUMPI PUSH0 DUP1 REVERT JUMPDEST POP JUMP JUMPDEST PUSH0 DUP2 CALLDATALOAD SWAP1 POP PUSH2 0x9AD DUP2 PUSH2 0x989 JUMP JUMPDEST SWAP3 SWAP2 POP POP JUMP JUMPDEST PUSH0 PUSH1 0x20 DUP3 DUP5 SUB SLT ISZERO PUSH2 0x9C8 JUMPI PUSH2 0x9C7 PUSH2 0x8A2 JUMP JUMPDEST JUMPDEST PUSH0 PUSH2 0x9D5 DUP5 DUP3 DUP6 ADD PUSH2 0x99F JUMP JUMPDEST SWAP2 POP POP SWAP3 SWAP2 POP POP JUMP JUMPDEST PUSH32 0x4E487B7100000000000000000000000000000000000000000000000000000000 PUSH0 MSTORE PUSH1 0x22 PUSH1 0x4 MSTORE PUSH1 0x24 PUSH0 REVERT JUMPDEST PUSH0 PUSH1 0x2 DUP3 DIV SWAP1 POP PUSH1 0x1 DUP3 AND DUP1 PUSH2 0xA22 JUMPI PUSH1 0x7F DUP3 AND SWAP2 POP JUMPDEST PUSH1 0x20 DUP3 LT DUP2 SUB PUSH2 0xA35 JUMPI PUSH2 0xA34 PUSH2 0x9DE JUMP JUMPDEST JUMPDEST POP SWAP2 SWAP1 POP JUMP JUMPDEST PUSH0 DUP3 SWAP1 POP SWAP3 SWAP2 POP POP JUMP JUMPDEST PUSH32 0x4E487B7100000000000000000000000000000000000000000000000000000000 PUSH0 MSTORE PUSH1 0x41 PUSH1 0x4 MSTORE PUSH1 0x24 PUSH0 REVERT JUMPDEST PUSH0 DUP2 SWAP1 POP DUP2 PUSH0 MSTORE PUSH1 0x20 PUSH0 KECCAK256 SWAP1 POP SWAP2 SWAP1 POP JUMP JUMPDEST PUSH0 PUSH1 0x20 PUSH1 0x1F DUP4 ADD DIV SWAP1 POP SWAP2 SWAP1 POP JUMP JUMPDEST PUSH0 DUP3 DUP3 SHL SWAP1 POP SWAP3 SWAP2 POP POP JUMP JUMPDEST PUSH0 PUSH1 0x8 DUP4 MUL PUSH2 0xACE PUSH32 0xFFFFFFFFFFFFFFFFFFFFFFFFFFFFFFFFFFFFFFFFFFFFFFFFFFFFFFFFFFFFFFFF DUP3 PUSH2 0xA93 JUMP JUMPDEST PUSH2 0xAD8 DUP7 DUP4 PUSH2 0xA93 JUMP JUMPDEST SWAP6 POP DUP1 NOT DUP5 AND SWAP4 POP DUP1 DUP7 AND DUP5 OR SWAP3 POP POP POP SWAP4 SWAP3 POP POP POP JUMP JUMPDEST PUSH0 DUP2 SWAP1 POP SWAP2 SWAP1 POP JUMP JUMPDEST PUSH0 DUP2 SWAP1 POP SWAP2 SWAP1 POP JUMP JUMPDEST PUSH0 PUSH2 0xB1C PUSH2 0xB17 PUSH2 0xB12 DUP5 PUSH2 0xAF0 JUMP JUMPDEST PUSH2 0xAF9 JUMP JUMPDEST PUSH2 0xAF0 JUMP JUMPDEST SWAP1 POP SWAP2 SWAP1 POP JUMP JUMPDEST PUSH0 DUP2 SWAP1 POP SWAP2 SWAP1 POP JUMP JUMPDEST PUSH2 0xB35 DUP4 PUSH2 0xB02 JUMP JUMPDEST PUSH2 0xB49 PUSH2 0xB41 DUP3 PUSH2 0xB23 JUMP JUMPDEST DUP5 DUP5 SLOAD PUSH2 0xA9F JUMP JUMPDEST DUP3 SSTORE POP POP POP POP JUMP JUMPDEST PUSH0 SWAP1 JUMP JUMPDEST PUSH2 0xB5D PUSH2 0xB51 JUMP JUMPDEST PUSH2 0xB68 DUP2 DUP5 DUP5 PUSH2 0xB2C JUMP JUMPDEST POP POP POP JUMP JUMPDEST JUMPDEST DUP2 DUP2 LT ISZERO PUSH2 0xB8B JUMPI PUSH2 0xB80 PUSH0 DUP3 PUSH2 0xB55 JUMP JUMPDEST PUSH1 0x1 DUP2 ADD SWAP1 POP PUSH2 0xB6E JUMP JUMPDEST POP POP JUMP JUMPDEST PUSH1 0x1F DUP3 GT ISZERO PUSH2 0xBD0 JUMPI PUSH2 0xBA1 DUP2 PUSH2 0xA72 JUMP JUMPDEST PUSH2 0xBAA DUP5 PUSH2 0xA84 JUMP JUMPDEST DUP2 ADD PUSH1 0x20 DUP6 LT ISZERO PUSH2 0xBB9 JUMPI DUP2 SWAP1 POP JUMPDEST PUSH2 0xBCD PUSH2 0xBC5 DUP6 PUSH2 0xA84 JUMP JUMPDEST DUP4 ADD DUP3 PUSH2 0xB6D JUMP JUMPDEST POP POP JUMPDEST POP POP POP JUMP JUMPDEST PUSH0 DUP3 DUP3 SHR SWAP1 POP SWAP3 SWAP2 POP POP JUMP JUMPDEST PUSH0 PUSH2 0xBF0 PUSH0 NOT DUP5 PUSH1 0x8 MUL PUSH2 0xBD5 JUMP JUMPDEST NOT DUP1 DUP4 AND SWAP2 POP POP SWAP3 SWAP2 POP POP JUMP JUMPDEST PUSH0 PUSH2 0xC08 DUP4 DUP4 PUSH2 0xBE1 JUMP JUMPDEST SWAP2 POP DUP3 PUSH1 0x2 MUL DUP3 OR SWAP1 POP SWAP3 SWAP2 POP POP JUMP JUMPDEST PUSH2 0xC22 DUP4 DUP4 PUSH2 0xA3B JUMP JUMPDEST PUSH8 0xFFFFFFFFFFFFFFFF DUP2 GT ISZERO PUSH2 0xC3B JUMPI PUSH2 0xC3A PUSH2 0xA45 JUMP JUMPDEST JUMPDEST PUSH2 0xC45 DUP3 SLOAD PUSH2 0xA0B JUMP JUMPDEST PUSH2 0xC50 DUP3 DUP3 DUP6 PUSH2 0xB8F JUMP JUMPDEST PUSH0 PUSH1 0x1F DUP4 GT PUSH1 0x1 DUP2 EQ PUSH2 0xC7D JUMPI PUSH0 DUP5 ISZERO PUSH2 0xC6B JUMPI DUP3 DUP8 ADD CALLDATALOAD SWAP1 POP JUMPDEST PUSH2 0xC75 DUP6 DUP3 PUSH2 0xBFD JUMP JUMPDEST DUP7 SSTORE POP PUSH2 0xCDC JUMP JUMPDEST PUSH1 0x1F NOT DUP5 AND PUSH2 0xC8B DUP7 PUSH2 0xA72 JUMP JUMPDEST PUSH0 JUMPDEST DUP3 DUP2 LT ISZERO PUSH2 0xCB2 JUMPI DUP5 DUP10 ADD CALLDATALOAD DUP3 SSTORE PUSH1 0x1 DUP3 ADD SWAP2 POP PUSH1 0x20 DUP6 ADD SWAP5 POP PUSH1 0x20 DUP2 ADD SWAP1 POP PUSH2 0xC8D JUMP JUMPDEST DUP7 DUP4 LT ISZERO PUSH2 0xCCF JUMPI DUP5 DUP10 ADD CALLDATALOAD PUSH2 0xCCB PUSH1 0x1F DUP10 AND DUP3 PUSH2 0xBE1 JUMP JUMPDEST DUP4 SSTORE POP JUMPDEST PUSH1 0x1 PUSH1 0x2 DUP9 MUL ADD DUP9 SSTORE POP POP POP JUMPDEST POP POP POP POP POP POP POP JUMP JUMPDEST PUSH0 DUP3 DUP3 MSTORE PUSH1 0x20 DUP3 ADD SWAP1 POP SWAP3 SWAP2 POP POP JUMP JUMPDEST DUP3 DUP2 DUP4 CALLDATACOPY PUSH0 DUP4 DUP4 ADD MSTORE POP POP POP JUMP JUMPDEST PUSH0 PUSH2 0xD0E DUP4 DUP6 PUSH2 0xCE5 JUMP JUMPDEST SWAP4 POP PUSH2 0xD1B DUP4 DUP6 DUP5 PUSH2 0xCF5 JUMP JUMPDEST PUSH2 0xD24 DUP4 PUSH2 0x750 JUMP JUMPDEST DUP5 ADD SWAP1 POP SWAP4 SWAP3 POP POP POP JUMP JUMPDEST PUSH0 PUSH1 0x20 DUP3 ADD SWAP1 POP DUP2 DUP2 SUB PUSH0 DUP4 ADD MSTORE PUSH2 0xD48 DUP2 DUP5 DUP7 PUSH2 0xD03 JUMP JUMPDEST SWAP1 POP SWAP4 SWAP3 POP POP POP JUMP JUMPDEST PUSH0 DUP2 SWAP1 POP SWAP3 SWAP2 POP POP JUMP JUMPDEST PUSH0 PUSH2 0xD66 DUP4 DUP6 PUSH2 0xD51 JUMP JUMPDEST SWAP4 POP PUSH2 0xD73 DUP4 DUP6 DUP5 PUSH2 0xCF5 JUMP JUMPDEST DUP3 DUP5 ADD SWAP1 POP SWAP4 SWAP3 POP POP POP JUMP JUMPDEST PUSH0 PUSH2 0xD8B DUP3 DUP5 DUP7 PUSH2 0xD5B JUMP JUMPDEST SWAP2 POP DUP2 SWAP1 POP SWAP4 SWAP3 POP POP POP JUMP JUMPDEST PUSH32 0x4E487B7100000000000000000000000000000000000000000000000000000000 PUSH0 MSTORE PUSH1 0x32 PUSH1 0x4 MSTORE PUSH1 0x24 PUSH0 REVERT JUMPDEST PUSH0 DUP2 SLOAD PUSH2 0xDD0 DUP2 PUSH2 0xA0B JUMP JUMPDEST PUSH2 0xDDA DUP2 DUP7 PUSH2 0xD51 JUMP JUMPDEST SWAP5 POP PUSH1 0x1 DUP3 AND PUSH0 DUP2 EQ PUSH2 0xDF4 JUMPI PUSH1 0x1 DUP2 EQ PUSH2 0xE09 JUMPI PUSH2 0xE3B JUMP JUMPDEST PUSH1 0xFF NOT DUP4 AND DUP7 MSTORE DUP2 ISZERO ISZERO DUP3 MUL DUP7 ADD SWAP4 POP PUSH2 0xE3B JUMP JUMPDEST PUSH2 0xE12 DUP6 PUSH2 0xA72 JUMP JUMPDEST PUSH0 JUMPDEST DUP4 DUP2 LT ISZERO PUSH2 0xE33 JUMPI DUP2 SLOAD DUP2 DUP10 ADD MSTORE PUSH1 0x1 DUP3 ADD SWAP2 POP PUSH1 0x20 DUP2 ADD SWAP1 POP PUSH2 0xE14 JUMP JUMPDEST DUP4 DUP9 ADD SWAP6 POP POP POP JUMPDEST POP POP POP SWAP3 SWAP2 POP POP JUMP JUMPDEST PUSH0 PUSH2 0xE4F DUP3 DUP5 PUSH2 0xDC4 JUMP JUMPDEST SWAP2 POP DUP2 SWAP1 POP SWAP3 SWAP2 POP POP JUMP JUMPDEST PUSH32 0x4E487B7100000000000000000000000000000000000000000000000000000000 PUSH0 MSTORE PUSH1 0x11 PUSH1 0x4 MSTORE PUSH1 0x24 PUSH0 REVERT JUMPDEST PUSH0 PUSH2 0xE91 DUP3 PUSH2 0xAF0 JUMP JUMPDEST SWAP2 POP PUSH2 0xE9C DUP4 PUSH2 0xAF0 JUMP JUMPDEST SWAP3 POP DUP3 DUP3 SUB SWAP1 POP DUP2 DUP2 GT ISZERO PUSH2 0xEB4 JUMPI PUSH2 0xEB3 PUSH2 0xE5A JUMP JUMPDEST JUMPDEST SWAP3 SWAP2 POP POP JUMP JUMPDEST PUSH0 DUP2 SLOAD SWAP1 POP PUSH2 0xEC8 DUP2 PUSH2 0xA0B JUMP JUMPDEST SWAP1 POP SWAP2 SWAP1 POP JUMP JUMPDEST PUSH0 DUP2 SWAP1 POP DUP2 PUSH0 MSTORE PUSH1 0x20 PUSH0 KECCAK256 SWAP1 POP SWAP2 SWAP1 POP JUMP JUMPDEST DUP2 DUP2 SUB PUSH2 0xEEF JUMPI POP POP PUSH2 0xFC4 JUMP JUMPDEST PUSH2 0xEF8 DUP3 PUSH2 0xEBA JUMP JUMPDEST PUSH8 0xFFFFFFFFFFFFFFFF DUP2 GT ISZERO PUSH2 0xF11 JUMPI PUSH2 0xF10 PUSH2 0xA45 JUMP JUMPDEST JUMPDEST PUSH2 0xF1B DUP3 SLOAD PUSH2 0xA0B JUMP JUMPDEST PUSH2 0xF26 DUP3 DUP3 DUP6 PUSH2 0xB8F JUMP JUMPDEST PUSH0 PUSH1 0x1F DUP4 GT PUSH1 0x1 DUP2 EQ PUSH2 0xF53 JUMPI PUSH0 DUP5 ISZERO PUSH2 0xF41 JUMPI DUP3 DUP8 ADD SLOAD SWAP1 POP JUMPDEST PUSH2 0xF4B DUP6 DUP3 PUSH2 0xBFD JUMP JUMPDEST DUP7 SSTORE POP PUSH2 0xFBD JUMP JUMPDEST PUSH1 0x1F NOT DUP5 AND PUSH2 0xF61 DUP8 PUSH2 0xECF JUMP JUMPDEST SWAP7 POP PUSH2 0xF6C DUP7 PUSH2 0xA72 JUMP JUMPDEST PUSH0 JUMPDEST DUP3 DUP2 LT ISZERO PUSH2 0xF93 JUMPI DUP5 DUP10 ADD SLOAD DUP3 SSTORE PUSH1 0x1 DUP3 ADD SWAP2 POP PUSH1 0x1 DUP6 ADD SWAP5 POP PUSH1 0x20 DUP2 ADD SWAP1 POP PUSH2 0xF6E JUMP JUMPDEST DUP7 DUP4 LT ISZERO PUSH2 0xFB0 JUMPI DUP5 DUP10 ADD SLOAD PUSH2 0xFAC PUSH1 0x1F DUP10 AND DUP3 PUSH2 0xBE1 JUMP JUMPDEST DUP4 SSTORE POP JUMPDEST PUSH1 0x1 PUSH1 0x2 DUP9 MUL ADD DUP9 SSTORE POP POP POP JUMPDEST POP POP POP POP POP POP JUMPDEST JUMP JUMPDEST PUSH32 0x4E487B7100000000000000000000000000000000000000000000000000000000 PUSH0 MSTORE PUSH1 0x31 PUSH1 0x4 MSTORE PUSH1 0x24 PUSH0 REVERT INVALID LOG2 PUSH5 0x6970667358 0x22 SLT KECCAK256 0x2B PUSH31 0x7BBBCDC5FA9620948FEB26753550B021D1D200A501F45640601203449C6364 PUSH20 0x6F6C634300081A00330000000000000000000000 "
				},
				"gasEstimates": {
					"creation": {
						"codeDepositCost": "827400",
						"executionCost": "infinite",
						"totalCost": "infinite"
					},
					"external": {
						"addTokenType(string)": "infinite",
						"getAllowedTokenTypes()": "infinite",
						"isAllowedTokenType(string)": "infinite",
						"owner()": "2560",
						"removeTokenType(string)": "infinite",
						"renounceOwnership()": "infinite",
						"transferOwnership(address)": "infinite"
					}
				},
				"methodIdentifiers": {
					"addTokenType(string)": "a8fd9cf3",
					"getAllowedTokenTypes()": "1a10c902",
					"isAllowedTokenType(string)": "ccba16bb",
					"owner()": "8da5cb5b",
					"removeTokenType(string)": "c031babb",
					"renounceOwnership()": "715018a6",
					"transferOwnership(address)": "f2fde38b"
				}
			},
			"storageLayout": {
				"storage": [
					{
						"astId": 8,
						"contract": "uupsContract/TokenTypeManager.sol:TokenTypeManager",
						"label": "_owner",
						"offset": 0,
						"slot": "0",
						"type": "t_address"
					},
					{
						"astId": 185,
						"contract": "uupsContract/TokenTypeManager.sol:TokenTypeManager",
						"label": "allowedTokenTypes",
						"offset": 0,
						"slot": "1",
						"type": "t_array(t_string_storage)dyn_storage"
					}
				],
				"types": {
					"t_address": {
						"encoding": "inplace",
						"label": "address",
						"numberOfBytes": "20"
					},
					"t_array(t_string_storage)dyn_storage": {
						"base": "t_string_storage",
						"encoding": "dynamic_array",
						"label": "string[]",
						"numberOfBytes": "32"
					},
					"t_string_storage": {
						"encoding": "bytes",
						"label": "string",
						"numberOfBytes": "32"
					}
				}
			},
			"userdoc": {
				"kind": "user",
				"methods": {},
				"version": 1
			}
		}
	}
}