{
	"data": {
		"bytecode": {
			"linkReferences": {},
			"object": "6080604052348015600e575f80fd5b50614d6d8061001c5f395ff3fe608060405234801561000f575f80fd5b50600436106101d7575f3560e01c80638da5cb5b11610102578063c87b56dd116100a0578063edeb4bbe1161006f578063edeb4bbe1461055f578063f119f5671461057d578063f28ca1dd14610599578063f2fde38b146105b7576101d7565b8063c87b56dd146104c5578063d547cfb7146104f5578063e0df5b6f14610513578063e985e9c51461052f576101d7565b8063a22cb465116100dc578063a22cb46514610440578063b564ea861461045c578063b88d4fde1461048d578063bd9ba9e8146104a9576101d7565b80638da5cb5b146103d457806395d89b41146103f257806399683c2214610410576101d7565b80632016a0d21161017a578063616c0c4811610149578063616c0c48146103395780636352211e1461036a57806370a082311461039a578063715018a6146103ca576101d7565b80632016a0d2146102c957806323b872dd146102e557806339e3aa7e1461030157806342842e0e1461031d576101d7565b8063081812fc116101b6578063081812fc14610245578063095ea7b31461027557806318d217c3146102915780631bc80eff146102ad576101d7565b8062e00064146101db57806301ffc9a7146101f757806306fdde0314610227575b5f80fd5b6101f560048036038101906101f0919061361e565b6105d3565b005b610211600480360381019061020c919061369e565b6107ce565b60405161021e91906136e3565b60405180910390f35b61022f6107df565b60405161023c919061376c565b60405180910390f35b61025f600480360381019061025a919061361e565b61087c565b60405161026c91906137cb565b60405180910390f35b61028f600480360381019061028a919061380e565b610897565b005b6102ab60048036038101906102a691906138ad565b6108ad565b005b6102c760048036038101906102c2919061361e565b6108cb565b005b6102e360048036038101906102de9190613a20565b610ade565b005b6102ff60048036038101906102fa9190613abc565b610c65565b005b61031b600480360381019061031691906138ad565b610d64565b005b61033760048036038101906103329190613abc565b610d82565b005b610353600480360381019061034e919061361e565b610da1565b604051610361929190613b1b565b60405180910390f35b610384600480360381019061037f919061361e565b610dd5565b60405161039191906137cb565b60405180910390f35b6103b460048036038101906103af9190613b42565b610de6565b6040516103c19190613b6d565b60405180910390f35b6103d2610eaa565b005b6103dc610ebd565b6040516103e991906137cb565b60405180910390f35b6103fa610ef2565b604051610407919061376c565b60405180910390f35b61042a60048036038101906104259190613b86565b610f90565b6040516104379190613b6d565b60405180910390f35b61045a60048036038101906104559190613c21565b61118e565b005b6104766004803603810190610471919061361e565b6111a4565b604051610484929190613cd2565b60405180910390f35b6104a760048036038101906104a29190613d97565b6112ca565b005b6104c360048036038101906104be91906138ad565b6112e7565b005b6104df60048036038101906104da919061361e565b611305565b6040516104ec919061376c565b60405180910390f35b6104fd61176f565b60405161050a919061376c565b60405180910390f35b61052d600480360381019061052891906138ad565b6117fb565b005b61054960048036038101906105449190613e17565b611819565b60405161055691906136e3565b60405180910390f35b6105676118b5565b604051610574919061376c565b60405180910390f35b6105976004803603810190610592919061361e565b611941565b005b6105a1611ccb565b6040516105ae919061376c565b60405180910390f35b6105d160048036038101906105cc9190613b42565b611d57565b005b3373ffffffffffffffffffffffffffffffffffffffff166105f382610dd5565b73ffffffffffffffffffffffffffffffffffffffff1614610649576040517f08c379a000000000000000000000000000000000000000000000000000000000815260040161064090613e9f565b60405180910390fd5b5f60015f8381526020019081526020015f205f9054906101000a900460ff1690505f60025f8481526020019081526020015f2090505f4290505f600381111561069557610694613c5f565b5b8360038111156106a8576106a7613c5f565b5b036106c9576106bd81835f0154612a30611ddb565b825f018190555061079a565b600160038111156106dd576106dc613c5f565b5b8360038111156106f0576106ef613c5f565b5b0361071357610706818360010154612a30611ddb565b8260010181905550610799565b6002600381111561072757610726613c5f565b5b83600381111561073a57610739613c5f565b5b0361075d57610750818360020154612a30611ddb565b8260020181905550610798565b6040517f08c379a000000000000000000000000000000000000000000000000000000000815260040161078f90613f07565b60405180910390fd5b5b5b80847f21eeee734b533a3b3a112f894043a967ba558d457ef10b84aa8d9025690f600460405160405180910390a350505050565b5f6107d882611e0a565b9050919050565b60605f6107ea611e6a565b9050805f0180546107fa90613f52565b80601f016020809104026020016040519081016040528092919081815260200182805461082690613f52565b80156108715780601f1061084857610100808354040283529160200191610871565b820191905f5260205f20905b81548152906001019060200180831161085457829003601f168201915b505050505091505090565b5f61088682611e91565b5061089082611f17565b9050919050565b6108a982826108a4611f5e565b611f65565b5050565b6108b5611f77565b8181600791826108c6929190614129565b505050565b6108d3611f77565b5f60015f8381526020019081526020015f205f9054906101000a900460ff1690505f600381111561090757610906613c5f565b5b81600381111561091a57610919613c5f565b5b036109a2576001805f8481526020019081526020015f205f6101000a81548160ff0219169083600381111561095257610951613c5f565b5b021790555061095f611ffe565b5f808481526020019081526020015f20600101819055506202a300426109859190614223565b60025f8481526020019081526020015f2060010181905550610ada565b600160038111156109b6576109b5613c5f565b5b8160038111156109c9576109c8613c5f565b5b03610a3357600260015f8481526020019081526020015f205f6101000a81548160ff02191690836003811115610a0257610a01613c5f565b5b02179055506203f48042610a169190614223565b60025f8481526020019081526020015f2060020181905550610ad9565b60026003811115610a4757610a46613c5f565b5b816003811115610a5a57610a59613c5f565b5b03610a9d57600360015f8481526020019081526020015f205f6101000a81548160ff02191690836003811115610a9357610a92613c5f565b5b0217905550610ad8565b6040517f08c379a0000000000000000000000000000000000000000000000000000000008152600401610acf906142a0565b60405180910390fd5b5b5b5050565b5f610ae7612062565b90505f815f0160089054906101000a900460ff161590505f825f015f9054906101000a900467ffffffffffffffff1690505f808267ffffffffffffffff16148015610b2f5750825b90505f60018367ffffffffffffffff16148015610b6257505f3073ffffffffffffffffffffffffffffffffffffffff163b145b905081158015610b70575080155b15610ba7576040517ff92ee8a900000000000000000000000000000000000000000000000000000000815260040160405180910390fd5b6001855f015f6101000a81548167ffffffffffffffff021916908367ffffffffffffffff1602179055508315610bf4576001855f0160086101000a81548160ff0219169083151502179055505b610c0089898989612089565b8315610c5a575f855f0160086101000a81548160ff0219169083151502179055507fc7f505b2f371ae2175ee4913f4499e1f2633a7b5936321eed1cdaeb6115181d26001604051610c51919061430a565b60405180910390a15b505050505050505050565b5f73ffffffffffffffffffffffffffffffffffffffff168273ffffffffffffffffffffffffffffffffffffffff1603610cd5575f6040517f64a0ae92000000000000000000000000000000000000000000000000000000008152600401610ccc91906137cb565b60405180910390fd5b5f610ce88383610ce3611f5e565b61226d565b90508373ffffffffffffffffffffffffffffffffffffffff168173ffffffffffffffffffffffffffffffffffffffff1614610d5e578382826040517f64283d7b000000000000000000000000000000000000000000000000000000008152600401610d5593929190614323565b60405180910390fd5b50505050565b610d6c611f77565b818160099182610d7d929190614129565b505050565b610d9c83838360405180602001604052805f8152506112ca565b505050565b5f80600b5f8481526020019081526020015f205f01549150600b5f8481526020019081526020015f20600101549050915091565b5f610ddf82611e91565b9050919050565b5f80610df0611e6a565b90505f73ffffffffffffffffffffffffffffffffffffffff168373ffffffffffffffffffffffffffffffffffffffff1603610e62575f6040517f89c62b64000000000000000000000000000000000000000000000000000000008152600401610e5991906137cb565b60405180910390fd5b806003015f8473ffffffffffffffffffffffffffffffffffffffff1673ffffffffffffffffffffffffffffffffffffffff1681526020019081526020015f2054915050919050565b610eb2611f77565b610ebb5f61248a565b565b5f80610ec761255b565b9050805f015f9054906101000a900473ffffffffffffffffffffffffffffffffffffffff1691505090565b60605f610efd611e6a565b9050806001018054610f0e90613f52565b80601f0160208091040260200160405190810160405280929190818152602001828054610f3a90613f52565b8015610f855780601f10610f5c57610100808354040283529160200191610f85565b820191905f5260205f20905b815481529060010190602001808311610f6857829003601f168201915b505050505091505090565b5f3373ffffffffffffffffffffffffffffffffffffffff16610fb184610dd5565b73ffffffffffffffffffffffffffffffffffffffff1614801561100757503373ffffffffffffffffffffffffffffffffffffffff16610fef83610dd5565b73ffffffffffffffffffffffffffffffffffffffff16145b611046576040517f08c379a000000000000000000000000000000000000000000000000000000000815260040161103d90613e9f565b60405180910390fd5b6110508383612582565b15611090576040517f08c379a0000000000000000000000000000000000000000000000000000000008152600401611087906143a2565b60405180910390fd5b611099836125f2565b80156110aa57506110a9826125f2565b5b6110e9576040517f08c379a00000000000000000000000000000000000000000000000000000000081526004016110e09061440a565b60405180910390fd5b6110f38383612610565b611132576040517f08c379a000000000000000000000000000000000000000000000000000000000815260040161112990614472565b60405180910390fd5b61113b8361264d565b6111448261264d565b5f6111518686868661269f565b90508083857f57f2b9f5c840c33473a81f7a678b3b71541515153fe9c4ccb4d909c5ca3f7d4460405160405180910390a480915050949350505050565b6111a0611199611f5e565b8383612715565b5050565b5f8060015f8481526020019081526020015f205f9054906101000a900460ff1691505f4290505f8060038111156111de576111dd613c5f565b5b8460038111156111f1576111f0613c5f565b5b036112115760025f8681526020019081526020015f205f015490506112a7565b6001600381111561122557611224613c5f565b5b84600381111561123857611237613c5f565b5b036112595760025f8681526020019081526020015f206001015490506112a6565b6002600381111561126d5761126c613c5f565b5b8460038111156112805761127f613c5f565b5b036112a15760025f8681526020019081526020015f206002015490506112a5565b5f90505b5b5b8181116112b4575f6112c1565b81816112c09190614490565b5b92505050915091565b6112d5848484610c65565b6112e18484848461288c565b50505050565b6112ef611f77565b818160089182611300929190614129565b505050565b60605f6006805461131590613f52565b9050111561134f57600661132883612a3e565b60405160200161133992919061457d565b604051602081830303815290604052905061176a565b60605f600381111561136457611363613c5f565b5b60015f8581526020019081526020015f205f9054906101000a900460ff16600381111561139457611393613c5f565b5b036113d1575f808481526020019081526020015f205f016040516020016113bb91906145ea565b6040516020818303038152906040529050611723565b60605f808581526020019081526020015f206005015f9054906101000a900460ff161561148c5760015f808681526020019081526020015f20600401541461144e576040518060400160405280600181526020017f6200000000000000000000000000000000000000000000000000000000000000815250611485565b6040518060400160405280600181526020017f67000000000000000000000000000000000000000000000000000000000000008152505b90506114c5565b6040518060400160405280600181526020017f6e0000000000000000000000000000000000000000000000000000000000000081525090505b5f60015f808781526020019081526020015f20600101541461151c576040518060400160405280600181526020017f6600000000000000000000000000000000000000000000000000000000000000815250611553565b6040518060400160405280600181526020017f6d000000000000000000000000000000000000000000000000000000000000008152505b905060606001600381111561156b5761156a613c5f565b5b60015f8881526020019081526020015f205f9054906101000a900460ff16600381111561159b5761159a613c5f565b5b036115dd576040518060400160405280600581526020017f686174636800000000000000000000000000000000000000000000000000000081525090506116e6565b600260038111156115f1576115f0613c5f565b5b60015f8881526020019081526020015f205f9054906101000a900460ff16600381111561162157611620613c5f565b5b03611663576040518060400160405280600981526020017f68617463686c696e67000000000000000000000000000000000000000000000081525090506116e5565b60038081111561167657611675613c5f565b5b60015f8881526020019081526020015f205f9054906101000a900460ff1660038111156116a6576116a5613c5f565b5b036116e4576040518060400160405280600581526020017f6164756c7400000000000000000000000000000000000000000000000000000081525090505b5b5b5f808781526020019081526020015f205f0183838360405160200161170e9493929190614655565b60405160208183030381529060405293505050505b61172c83612a3e565b60078260095f808881526020019081526020015f205f01604051602001611757959493929190614873565b6040516020818303038152906040529150505b919050565b6006805461177c90613f52565b80601f01602080910402602001604051908101604052809291908181526020018280546117a890613f52565b80156117f35780601f106117ca576101008083540402835291602001916117f3565b820191905f5260205f20905b8154815290600101906020018083116117d657829003601f168201915b505050505081565b611803611f77565b818160069182611814929190614129565b505050565b5f80611823611e6a565b9050806005015f8573ffffffffffffffffffffffffffffffffffffffff1673ffffffffffffffffffffffffffffffffffffffff1681526020019081526020015f205f8473ffffffffffffffffffffffffffffffffffffffff1673ffffffffffffffffffffffffffffffffffffffff1681526020019081526020015f205f9054906101000a900460ff1691505092915050565b600880546118c290613f52565b80601f01602080910402602001604051908101604052809291908181526020018280546118ee90613f52565b80156119395780601f1061191057610100808354040283529160200191611939565b820191905f5260205f20905b81548152906001019060200180831161191c57829003601f168201915b505050505081565b3373ffffffffffffffffffffffffffffffffffffffff1661196182610dd5565b73ffffffffffffffffffffffffffffffffffffffff16146119b7576040517f08c379a00000000000000000000000000000000000000000000000000000000081526004016119ae90613e9f565b60405180910390fd5b5f60015f8381526020019081526020015f205f9054906101000a900460ff1690505f4290505f60038111156119ef576119ee613c5f565b5b826003811115611a0257611a01613c5f565b5b148015611a22575060025f8481526020019081526020015f205f01548110155b15611ae0576001805f8581526020019081526020015f205f6101000a81548160ff02191690836003811115611a5a57611a59613c5f565b5b0217905550611a67611ffe565b5f808581526020019081526020015f20600101819055506202a30081611a8d9190614223565b60025f8581526020019081526020015f2060010181905550827f75d0c2d3465e305d01011d67a4faaa50f6c6b307e33d72194a4ba97acce86975604051611ad390614933565b60405180910390a2611cc6565b60016003811115611af457611af3613c5f565b5b826003811115611b0757611b06613c5f565b5b148015611b28575060025f8481526020019081526020015f20600101548110155b15611bc857600260015f8581526020019081526020015f205f6101000a81548160ff02191690836003811115611b6157611b60613c5f565b5b02179055506203f48081611b759190614223565b60025f8581526020019081526020015f2060020181905550827f75d0c2d3465e305d01011d67a4faaa50f6c6b307e33d72194a4ba97acce86975604051611bbb9061499b565b60405180910390a2611cc5565b60026003811115611bdc57611bdb613c5f565b5b826003811115611bef57611bee613c5f565b5b148015611c10575060025f8481526020019081526020015f20600201548110155b15611c8957600360015f8581526020019081526020015f205f6101000a81548160ff02191690836003811115611c4957611c48613c5f565b5b0217905550827f75d0c2d3465e305d01011d67a4faaa50f6c6b307e33d72194a4ba97acce86975604051611c7c90614a03565b60405180910390a2611cc4565b6040517f08c379a0000000000000000000000000000000000000000000000000000000008152600401611cbb906142a0565b60405180910390fd5b5b5b505050565b60078054611cd890613f52565b80601f0160208091040260200160405190810160405280929190818152602001828054611d0490613f52565b8015611d4f5780601f10611d2657610100808354040283529160200191611d4f565b820191905f5260205f20905b815481529060010190602001808311611d3257829003601f168201915b505050505081565b611d5f611f77565b5f73ffffffffffffffffffffffffffffffffffffffff168173ffffffffffffffffffffffffffffffffffffffff1603611dcf575f6040517f1e4fbdf7000000000000000000000000000000000000000000000000000000008152600401611dc691906137cb565b60405180910390fd5b611dd88161248a565b50565b5f8184611de89190614223565b8311611df45783611e01565b8183611e009190614490565b5b90509392505050565b5f634906490660e01b7bffffffffffffffffffffffffffffffffffffffffffffffffffffffff1916827bffffffffffffffffffffffffffffffffffffffffffffffffffffffff19161480611e635750611e6282612b08565b5b9050919050565b5f7f80bb2b638cc20bc4d0a60d66940f3ab4a00c1d7b313497ca82fb0b4ab0079300905090565b5f80611e9c83612be9565b90505f73ffffffffffffffffffffffffffffffffffffffff168173ffffffffffffffffffffffffffffffffffffffff1603611f0e57826040517f7e273289000000000000000000000000000000000000000000000000000000008152600401611f059190613b6d565b60405180910390fd5b80915050919050565b5f80611f21611e6a565b9050806004015f8481526020019081526020015f205f9054906101000a900473ffffffffffffffffffffffffffffffffffffffff16915050919050565b5f33905090565b611f728383836001612c30565b505050565b611f7f611f5e565b73ffffffffffffffffffffffffffffffffffffffff16611f9d610ebd565b73ffffffffffffffffffffffffffffffffffffffff1614611ffc57611fc0611f5e565b6040517f118cdaa7000000000000000000000000000000000000000000000000000000008152600401611ff391906137cb565b60405180910390fd5b565b5f60055f81548092919061201190614a21565b919050555060016002423360055460405160200161203193929190614acd565b604051602081830303815290604052805190602001205f1c6120539190614b36565b61205d9190614223565b905090565b5f7ff0c57e16840df040f15088dc2f81fe391c3923bec73e23a9662efc9c229c6a00905090565b5f612092612062565b90505f815f0160089054906101000a900460ff161590505f825f015f9054906101000a900467ffffffffffffffff1690505f808267ffffffffffffffff161480156120da5750825b90505f60018367ffffffffffffffff1614801561210d57505f3073ffffffffffffffffffffffffffffffffffffffff163b145b90508115801561211b575080155b15612152576040517ff92ee8a900000000000000000000000000000000000000000000000000000000815260040160405180910390fd5b6001855f015f6101000a81548167ffffffffffffffff021916908367ffffffffffffffff160217905550831561219f576001855f0160086101000a81548160ff0219169083151502179055505b6121a98787612dfd565b6121b1612e13565b6121ba89612e1d565b5f6005819055505f60048190555087600a5f6101000a81548173ffffffffffffffffffffffffffffffffffffffff021916908373ffffffffffffffffffffffffffffffffffffffff1602179055508315612262575f855f0160086101000a81548160ff0219169083151502179055507fc7f505b2f371ae2175ee4913f4499e1f2633a7b5936321eed1cdaeb6115181d26001604051612259919061430a565b60405180910390a15b505050505050505050565b5f80612277611e6a565b90505f61228385612be9565b90505f73ffffffffffffffffffffffffffffffffffffffff168473ffffffffffffffffffffffffffffffffffffffff16146122c4576122c3818587612e31565b5b5f73ffffffffffffffffffffffffffffffffffffffff168173ffffffffffffffffffffffffffffffffffffffff1614612351576123035f865f80612c30565b6001826003015f8373ffffffffffffffffffffffffffffffffffffffff1673ffffffffffffffffffffffffffffffffffffffff1681526020019081526020015f205f82825403925050819055505b5f73ffffffffffffffffffffffffffffffffffffffff168673ffffffffffffffffffffffffffffffffffffffff16146123d2576001826003015f8873ffffffffffffffffffffffffffffffffffffffff1673ffffffffffffffffffffffffffffffffffffffff1681526020019081526020015f205f82825401925050819055505b85826002015f8781526020019081526020015f205f6101000a81548173ffffffffffffffffffffffffffffffffffffffff021916908373ffffffffffffffffffffffffffffffffffffffff160217905550848673ffffffffffffffffffffffffffffffffffffffff168273ffffffffffffffffffffffffffffffffffffffff167fddf252ad1be2c89b69c2b068fc378daa952ba7f163c4a11628f55a4df523b3ef60405160405180910390a480925050509392505050565b5f61249361255b565b90505f815f015f9054906101000a900473ffffffffffffffffffffffffffffffffffffffff16905082825f015f6101000a81548173ffffffffffffffffffffffffffffffffffffffff021916908373ffffffffffffffffffffffffffffffffffffffff1602179055508273ffffffffffffffffffffffffffffffffffffffff168173ffffffffffffffffffffffffffffffffffffffff167f8be0079c531659141344cd1fd0a4f28419497f9722a3daafe3b4186f6b6457e060405160405180910390a3505050565b5f7f9016d09d72d40fdae2fd8ceac6b6234c7706214fd39c1cd1e609a0528c199300905090565b5f805f808581526020019081526020015f2090505f805f8581526020019081526020015f2090506001826004015414806125c0575060018160040154145b6125e6578060020154826002015414806125e1575080600301548260030154145b6125e8565b5f5b9250505092915050565b5f42600b5f8481526020019081526020015f205f0154109050919050565b5f805f808581526020019081526020015f2090505f805f8581526020019081526020015f2090508060010154826001015414159250505092915050565b600b5f8281526020019081526020015f206001015f81548092919061267190614a21565b91905055506203f480426126859190614223565b600b5f8381526020019081526020015f205f018190555050565b5f805f808581526020019081526020015f2090505f805f8581526020019081526020015f2090505f81600401548360040154116126e05781600401546126e6565b82600401545b90505f612704898989896001876126fd9190614223565b335f612ef4565b905080945050505050949350505050565b5f61271e611e6a565b90505f73ffffffffffffffffffffffffffffffffffffffff168373ffffffffffffffffffffffffffffffffffffffff160361279057826040517f5b08ba1800000000000000000000000000000000000000000000000000000000815260040161278791906137cb565b60405180910390fd5b81816005015f8673ffffffffffffffffffffffffffffffffffffffff1673ffffffffffffffffffffffffffffffffffffffff1681526020019081526020015f205f8573ffffffffffffffffffffffffffffffffffffffff1673ffffffffffffffffffffffffffffffffffffffff1681526020019081526020015f205f6101000a81548160ff0219169083151502179055508273ffffffffffffffffffffffffffffffffffffffff168473ffffffffffffffffffffffffffffffffffffffff167f17307eab39ab6107e8899845ad3d59bd9653f200f220920489ca2b5937696c318460405161287e91906136e3565b60405180910390a350505050565b5f8373ffffffffffffffffffffffffffffffffffffffff163b1115612a38578273ffffffffffffffffffffffffffffffffffffffff1663150b7a026128cf611f5e565b8685856040518563ffffffff1660e01b81526004016128f19493929190614bb8565b6020604051808303815f875af192505050801561292c57506040513d601f19601f820116820180604052508101906129299190614c16565b60015b6129ad573d805f811461295a576040519150601f19603f3d011682016040523d82523d5f602084013e61295f565b606091505b505f8151036129a557836040517f64a0ae9200000000000000000000000000000000000000000000000000000000815260040161299c91906137cb565b60405180910390fd5b805181602001fd5b63150b7a0260e01b7bffffffffffffffffffffffffffffffffffffffffffffffffffffffff1916817bffffffffffffffffffffffffffffffffffffffffffffffffffffffff191614612a3657836040517f64a0ae92000000000000000000000000000000000000000000000000000000008152600401612a2d91906137cb565b60405180910390fd5b505b50505050565b60605f6001612a4c84613118565b0190505f8167ffffffffffffffff811115612a6a57612a696138fc565b5b6040519080825280601f01601f191660200182016040528015612a9c5781602001600182028036833780820191505090505b5090505f82602001820190505b600115612afd578080600190039150507f3031323334353637383961626364656600000000000000000000000000000000600a86061a8153600a8581612af257612af1614b09565b5b0494505f8503612aa9575b819350505050919050565b5f7f80ac58cd000000000000000000000000000000000000000000000000000000007bffffffffffffffffffffffffffffffffffffffffffffffffffffffff1916827bffffffffffffffffffffffffffffffffffffffffffffffffffffffff19161480612bd257507f5b5e139f000000000000000000000000000000000000000000000000000000007bffffffffffffffffffffffffffffffffffffffffffffffffffffffff1916827bffffffffffffffffffffffffffffffffffffffffffffffffffffffff1916145b80612be25750612be182613269565b5b9050919050565b5f80612bf3611e6a565b9050806002015f8481526020019081526020015f205f9054906101000a900473ffffffffffffffffffffffffffffffffffffffff16915050919050565b5f612c39611e6a565b90508180612c7357505f73ffffffffffffffffffffffffffffffffffffffff168373ffffffffffffffffffffffffffffffffffffffff1614155b15612da5575f612c8285611e91565b90505f73ffffffffffffffffffffffffffffffffffffffff168473ffffffffffffffffffffffffffffffffffffffff1614158015612cec57508373ffffffffffffffffffffffffffffffffffffffff168173ffffffffffffffffffffffffffffffffffffffff1614155b8015612cff5750612cfd8185611819565b155b15612d4157836040517fa9fbf51f000000000000000000000000000000000000000000000000000000008152600401612d3891906137cb565b60405180910390fd5b8215612da357848673ffffffffffffffffffffffffffffffffffffffff168273ffffffffffffffffffffffffffffffffffffffff167f8c5be1e5ebec7d5bd14f71427d1e84f3dd0314c0f7b2291e5b200ac8c7c3b92560405160405180910390a45b505b84816004015f8681526020019081526020015f205f6101000a81548173ffffffffffffffffffffffffffffffffffffffff021916908373ffffffffffffffffffffffffffffffffffffffff1602179055505050505050565b612e056132d2565b612e0f8282613312565b5050565b612e1b6132d2565b565b612e256132d2565b612e2e8161334d565b50565b612e3c8383836133d1565b612eef575f73ffffffffffffffffffffffffffffffffffffffff168373ffffffffffffffffffffffffffffffffffffffff1603612eb057806040517f7e273289000000000000000000000000000000000000000000000000000000008152600401612ea79190613b6d565b60405180910390fd5b81816040517f177e802f000000000000000000000000000000000000000000000000000000008152600401612ee6929190614c41565b60405180910390fd5b505050565b5f8060045f8154612f0490614a21565b91905081905590506040518060e001604052808a8a8080601f0160208091040260200160405190810160405280939291908181526020018383808284375f81840152601f19601f8201169050808301925050505050505081526020015f81526020018881526020018781526020018681526020018415158152602001428152505f808381526020019081526020015f205f820151815f019081612fa79190614c68565b506020820151816001015560408201518160020155606082015181600301556080820151816004015560a0820151816005015f6101000a81548160ff02191690831515021790555060c082015181600601559050506202a3004261300b9190614223565b60025f8381526020019081526020015f205f01819055505f60015f8381526020019081526020015f205f6101000a81548160ff0219169083600381111561305557613054613c5f565b5b02179055506130648482613491565b60035f8573ffffffffffffffffffffffffffffffffffffffff1673ffffffffffffffffffffffffffffffffffffffff1681526020019081526020015f2081908060018154018082558091505060019003905f5260205f20015f9091909190915055808473ffffffffffffffffffffffffffffffffffffffff167fb9144c96c86541f6fa89c9f2f02495cccf4b08cd6643e26d34ee00aa586558a860405160405180910390a380915050979650505050505050565b5f805f90507a184f03e93ff9f4daa797ed6e38ed64bf6a1f0100000000000000008310613174577a184f03e93ff9f4daa797ed6e38ed64bf6a1f010000000000000000838161316a57613169614b09565b5b0492506040810190505b6d04ee2d6d415b85acef810000000083106131b1576d04ee2d6d415b85acef810000000083816131a7576131a6614b09565b5b0492506020810190505b662386f26fc1000083106131e057662386f26fc1000083816131d6576131d5614b09565b5b0492506010810190505b6305f5e1008310613209576305f5e10083816131ff576131fe614b09565b5b0492506008810190505b612710831061322e57612710838161322457613223614b09565b5b0492506004810190505b60648310613251576064838161324757613246614b09565b5b0492506002810190505b600a8310613260576001810190505b80915050919050565b5f7f01ffc9a7000000000000000000000000000000000000000000000000000000007bffffffffffffffffffffffffffffffffffffffffffffffffffffffff1916827bffffffffffffffffffffffffffffffffffffffffffffffffffffffff1916149050919050565b6132da6134ae565b613310576040517fd7e6bcf800000000000000000000000000000000000000000000000000000000815260040160405180910390fd5b565b61331a6132d2565b5f613323611e6a565b905082815f0190816133359190614c68565b50818160010190816133479190614c68565b50505050565b6133556132d2565b5f73ffffffffffffffffffffffffffffffffffffffff168173ffffffffffffffffffffffffffffffffffffffff16036133c5575f6040517f1e4fbdf70000000000000000000000000000000000000000000000000000000081526004016133bc91906137cb565b60405180910390fd5b6133ce8161248a565b50565b5f8073ffffffffffffffffffffffffffffffffffffffff168373ffffffffffffffffffffffffffffffffffffffff161415801561348857508273ffffffffffffffffffffffffffffffffffffffff168473ffffffffffffffffffffffffffffffffffffffff16148061344957506134488484611819565b5b8061348757508273ffffffffffffffffffffffffffffffffffffffff1661346f83611f17565b73ffffffffffffffffffffffffffffffffffffffff16145b5b90509392505050565b6134aa828260405180602001604052805f8152506134cc565b5050565b5f6134b7612062565b5f0160089054906101000a900460ff16905090565b6134d683836134e7565b6134e25f84848461288c565b505050565b5f73ffffffffffffffffffffffffffffffffffffffff168273ffffffffffffffffffffffffffffffffffffffff1603613557575f6040517f64a0ae9200000000000000000000000000000000000000000000000000000000815260040161354e91906137cb565b60405180910390fd5b5f61356383835f61226d565b90505f73ffffffffffffffffffffffffffffffffffffffff168173ffffffffffffffffffffffffffffffffffffffff16146135d5575f6040517f73c6ac6e0000000000000000000000000000000000000000000000000000000081526004016135cc91906137cb565b60405180910390fd5b505050565b5f604051905090565b5f80fd5b5f80fd5b5f819050919050565b6135fd816135eb565b8114613607575f80fd5b50565b5f81359050613618816135f4565b92915050565b5f60208284031215613633576136326135e3565b5b5f6136408482850161360a565b91505092915050565b5f7fffffffff0000000000000000000000000000000000000000000000000000000082169050919050565b61367d81613649565b8114613687575f80fd5b50565b5f8135905061369881613674565b92915050565b5f602082840312156136b3576136b26135e3565b5b5f6136c08482850161368a565b91505092915050565b5f8115159050919050565b6136dd816136c9565b82525050565b5f6020820190506136f65f8301846136d4565b92915050565b5f81519050919050565b5f82825260208201905092915050565b8281835e5f83830152505050565b5f601f19601f8301169050919050565b5f61373e826136fc565b6137488185613706565b9350613758818560208601613716565b61376181613724565b840191505092915050565b5f6020820190508181035f8301526137848184613734565b905092915050565b5f73ffffffffffffffffffffffffffffffffffffffff82169050919050565b5f6137b58261378c565b9050919050565b6137c5816137ab565b82525050565b5f6020820190506137de5f8301846137bc565b92915050565b6137ed816137ab565b81146137f7575f80fd5b50565b5f81359050613808816137e4565b92915050565b5f8060408385031215613824576138236135e3565b5b5f613831858286016137fa565b92505060206138428582860161360a565b9150509250929050565b5f80fd5b5f80fd5b5f80fd5b5f8083601f84011261386d5761386c61384c565b5b8235905067ffffffffffffffff81111561388a57613889613850565b5b6020830191508360018202830111156138a6576138a5613854565b5b9250929050565b5f80602083850312156138c3576138c26135e3565b5b5f83013567ffffffffffffffff8111156138e0576138df6135e7565b5b6138ec85828601613858565b92509250509250929050565b5f80fd5b7f4e487b71000000000000000000000000000000000000000000000000000000005f52604160045260245ffd5b61393282613724565b810181811067ffffffffffffffff82111715613951576139506138fc565b5b80604052505050565b5f6139636135da565b905061396f8282613929565b919050565b5f67ffffffffffffffff82111561398e5761398d6138fc565b5b61399782613724565b9050602081019050919050565b828183375f83830152505050565b5f6139c46139bf84613974565b61395a565b9050828152602081018484840111156139e0576139df6138f8565b5b6139eb8482856139a4565b509392505050565b5f82601f830112613a0757613a0661384c565b5b8135613a178482602086016139b2565b91505092915050565b5f805f8060808587031215613a3857613a376135e3565b5b5f613a45878288016137fa565b9450506020613a56878288016137fa565b935050604085013567ffffffffffffffff811115613a7757613a766135e7565b5b613a83878288016139f3565b925050606085013567ffffffffffffffff811115613aa457613aa36135e7565b5b613ab0878288016139f3565b91505092959194509250565b5f805f60608486031215613ad357613ad26135e3565b5b5f613ae0868287016137fa565b9350506020613af1868287016137fa565b9250506040613b028682870161360a565b9150509250925092565b613b15816135eb565b82525050565b5f604082019050613b2e5f830185613b0c565b613b3b6020830184613b0c565b9392505050565b5f60208284031215613b5757613b566135e3565b5b5f613b64848285016137fa565b91505092915050565b5f602082019050613b805f830184613b0c565b92915050565b5f805f8060608587031215613b9e57613b9d6135e3565b5b5f85013567ffffffffffffffff811115613bbb57613bba6135e7565b5b613bc787828801613858565b94509450506020613bda8782880161360a565b9250506040613beb8782880161360a565b91505092959194509250565b613c00816136c9565b8114613c0a575f80fd5b50565b5f81359050613c1b81613bf7565b92915050565b5f8060408385031215613c3757613c366135e3565b5b5f613c44858286016137fa565b9250506020613c5585828601613c0d565b9150509250929050565b7f4e487b71000000000000000000000000000000000000000000000000000000005f52602160045260245ffd5b60048110613c9d57613c9c613c5f565b5b50565b5f819050613cad82613c8c565b919050565b5f613cbc82613ca0565b9050919050565b613ccc81613cb2565b82525050565b5f604082019050613ce55f830185613cc3565b613cf26020830184613b0c565b9392505050565b5f67ffffffffffffffff821115613d1357613d126138fc565b5b613d1c82613724565b9050602081019050919050565b5f613d3b613d3684613cf9565b61395a565b905082815260208101848484011115613d5757613d566138f8565b5b613d628482856139a4565b509392505050565b5f82601f830112613d7e57613d7d61384c565b5b8135613d8e848260208601613d29565b91505092915050565b5f805f8060808587031215613daf57613dae6135e3565b5b5f613dbc878288016137fa565b9450506020613dcd878288016137fa565b9350506040613dde8782880161360a565b925050606085013567ffffffffffffffff811115613dff57613dfe6135e7565b5b613e0b87828801613d6a565b91505092959194509250565b5f8060408385031215613e2d57613e2c6135e3565b5b5f613e3a858286016137fa565b9250506020613e4b858286016137fa565b9150509250929050565b7f4e6f74206f776e657200000000000000000000000000000000000000000000005f82015250565b5f613e89600983613706565b9150613e9482613e55565b602082019050919050565b5f6020820190508181035f830152613eb681613e7d565b9050919050565b7f496e76616c69642067726f7774682073746167650000000000000000000000005f82015250565b5f613ef1601483613706565b9150613efc82613ebd565b602082019050919050565b5f6020820190508181035f830152613f1e81613ee5565b9050919050565b7f4e487b71000000000000000000000000000000000000000000000000000000005f52602260045260245ffd5b5f6002820490506001821680613f6957607f821691505b602082108103613f7c57613f7b613f25565b5b50919050565b5f82905092915050565b5f819050815f5260205f209050919050565b5f6020601f8301049050919050565b5f82821b905092915050565b5f60088302613fe87fffffffffffffffffffffffffffffffffffffffffffffffffffffffffffffffff82613fad565b613ff28683613fad565b95508019841693508086168417925050509392505050565b5f819050919050565b5f61402d614028614023846135eb565b61400a565b6135eb565b9050919050565b5f819050919050565b61404683614013565b61405a61405282614034565b848454613fb9565b825550505050565b5f90565b61406e614062565b61407981848461403d565b505050565b5b8181101561409c576140915f82614066565b60018101905061407f565b5050565b601f8211156140e1576140b281613f8c565b6140bb84613f9e565b810160208510156140ca578190505b6140de6140d685613f9e565b83018261407e565b50505b505050565b5f82821c905092915050565b5f6141015f19846008026140e6565b1980831691505092915050565b5f61411983836140f2565b9150826002028217905092915050565b6141338383613f82565b67ffffffffffffffff81111561414c5761414b6138fc565b5b6141568254613f52565b6141618282856140a0565b5f601f83116001811461418e575f841561417c578287013590505b614186858261410e565b8655506141ed565b601f19841661419c86613f8c565b5f5b828110156141c35784890135825560018201915060208501945060208101905061419e565b868310156141e057848901356141dc601f8916826140f2565b8355505b6001600288020188555050505b50505050505050565b7f4e487b71000000000000000000000000000000000000000000000000000000005f52601160045260245ffd5b5f61422d826135eb565b9150614238836135eb565b92508282019050808211156142505761424f6141f6565b5b92915050565b7f556e61626c6520746f2065766f6c7665000000000000000000000000000000005f82015250565b5f61428a601083613706565b915061429582614256565b602082019050919050565b5f6020820190508181035f8301526142b78161427e565b9050919050565b5f819050919050565b5f67ffffffffffffffff82169050919050565b5f6142f46142ef6142ea846142be565b61400a565b6142c7565b9050919050565b614304816142da565b82525050565b5f60208201905061431d5f8301846142fb565b92915050565b5f6060820190506143365f8301866137bc565b6143436020830185613b0c565b61435060408301846137bc565b949350505050565b7f496e6365737400000000000000000000000000000000000000000000000000005f82015250565b5f61438c600683613706565b915061439782614358565b602082019050919050565b5f6020820190508181035f8301526143b981614380565b9050919050565b7f4272656564696e67206e6f7420616c6c6f7765642079657400000000000000005f82015250565b5f6143f4601883613706565b91506143ff826143c0565b602082019050919050565b5f6020820190508181035f830152614421816143e8565b9050919050565b7f53616d652067656e6465720000000000000000000000000000000000000000005f82015250565b5f61445c600b83613706565b915061446782614428565b602082019050919050565b5f6020820190508181035f83015261448981614450565b9050919050565b5f61449a826135eb565b91506144a5836135eb565b92508282039050818111156144bd576144bc6141f6565b5b92915050565b5f81905092915050565b5f81546144d981613f52565b6144e381866144c3565b9450600182165f81146144fd576001811461451257614544565b60ff1983168652811515820286019350614544565b61451b85613f8c565b5f5b8381101561453c5781548189015260018201915060208101905061451d565b838801955050505b50505092915050565b5f614557826136fc565b61456181856144c3565b9350614571818560208601613716565b80840191505092915050565b5f61458882856144cd565b9150614594828461454d565b91508190509392505050565b7f5f656767000000000000000000000000000000000000000000000000000000005f82015250565b5f6145d46004836144c3565b91506145df826145a0565b600482019050919050565b5f6145f582846144cd565b9150614600826145c8565b915081905092915050565b7f5f000000000000000000000000000000000000000000000000000000000000005f82015250565b5f61463f6001836144c3565b915061464a8261460b565b600182019050919050565b5f61466082876144cd565b915061466b82614633565b9150614677828661454d565b915061468282614633565b915061468e828561454d565b915061469982614633565b91506146a5828461454d565b915081905095945050505050565b7f646174613a6170706c69636174696f6e2f6a736f6e3b757466382c7b226e616d5f8201527f65223a2022447261676f6e202300000000000000000000000000000000000000602082015250565b5f61470d602d836144c3565b9150614718826146b3565b602d82019050919050565b7f222c2265787465726e616c5f75726c223a2268747470733a2f2f6769746875625f8201527f2e636f6d2f626368736f6c2f43727970746f447261676f6e222c22696d61676560208201527f223a220000000000000000000000000000000000000000000000000000000000604082015250565b5f6147a36043836144c3565b91506147ae82614723565b604382019050919050565b7f222c2261747472696275746573223a5b7b2274726169745f74797065223a22445f8201527f7261676f6e222c2276616c7565223a2200000000000000000000000000000000602082015250565b5f6148136030836144c3565b915061481e826147b9565b603082019050919050565b7f227d5d7d000000000000000000000000000000000000000000000000000000005f82015250565b5f61485d6004836144c3565b915061486882614829565b600482019050919050565b5f61487d82614701565b9150614889828861454d565b915061489482614797565b91506148a082876144cd565b91506148ac828661454d565b91506148b882856144cd565b91506148c382614807565b91506148cf82846144cd565b91506148da82614851565b91508190509695505050505050565b7f48617463680000000000000000000000000000000000000000000000000000005f82015250565b5f61491d600583613706565b9150614928826148e9565b602082019050919050565b5f6020820190508181035f83015261494a81614911565b9050919050565b7f48617463686c696e6700000000000000000000000000000000000000000000005f82015250565b5f614985600983613706565b915061499082614951565b602082019050919050565b5f6020820190508181035f8301526149b281614979565b9050919050565b7f4164756c740000000000000000000000000000000000000000000000000000005f82015250565b5f6149ed600583613706565b91506149f8826149b9565b602082019050919050565b5f6020820190508181035f830152614a1a816149e1565b9050919050565b5f614a2b826135eb565b91507fffffffffffffffffffffffffffffffffffffffffffffffffffffffffffffffff8203614a5d57614a5c6141f6565b5b600182019050919050565b5f819050919050565b614a82614a7d826135eb565b614a68565b82525050565b5f8160601b9050919050565b5f614a9e82614a88565b9050919050565b5f614aaf82614a94565b9050919050565b614ac7614ac2826137ab565b614aa5565b82525050565b5f614ad88286614a71565b602082019150614ae88285614ab6565b601482019150614af88284614a71565b602082019150819050949350505050565b7f4e487b71000000000000000000000000000000000000000000000000000000005f52601260045260245ffd5b5f614b40826135eb565b9150614b4b836135eb565b925082614b5b57614b5a614b09565b5b828206905092915050565b5f81519050919050565b5f82825260208201905092915050565b5f614b8a82614b66565b614b948185614b70565b9350614ba4818560208601613716565b614bad81613724565b840191505092915050565b5f608082019050614bcb5f8301876137bc565b614bd860208301866137bc565b614be56040830185613b0c565b8181036060830152614bf78184614b80565b905095945050505050565b5f81519050614c1081613674565b92915050565b5f60208284031215614c2b57614c2a6135e3565b5b5f614c3884828501614c02565b91505092915050565b5f604082019050614c545f8301856137bc565b614c616020830184613b0c565b9392505050565b614c71826136fc565b67ffffffffffffffff811115614c8a57614c896138fc565b5b614c948254613f52565b614c9f8282856140a0565b5f60209050601f831160018114614cd0575f8415614cbe578287015190505b614cc8858261410e565b865550614d2f565b601f198416614cde86613f8c565b5f5b82811015614d0557848901518255600182019150602085019450602081019050614ce0565b86831015614d225784890151614d1e601f8916826140f2565b8355505b6001600288020188555050505b50505050505056fea26469706673582212203d71f3203ee8fbae346a25d2a457267e8e0d358e44f1066770418e4dad695c8364736f6c634300081a0033",
			"opcodes": "PUSH1 0x80 PUSH1 0x40 MSTORE CALLVALUE DUP1 ISZERO PUSH1 0xE JUMPI PUSH0 DUP1 REVERT JUMPDEST POP PUSH2 0x4D6D DUP1 PUSH2 0x1C PUSH0 CODECOPY PUSH0 RETURN INVALID PUSH1 0x80 PUSH1 0x40 MSTORE CALLVALUE DUP1 ISZERO PUSH2 0xF JUMPI PUSH0 DUP1 REVERT JUMPDEST POP PUSH1 0x4 CALLDATASIZE LT PUSH2 0x1D7 JUMPI PUSH0 CALLDATALOAD PUSH1 0xE0 SHR DUP1 PUSH4 0x8DA5CB5B GT PUSH2 0x102 JUMPI DUP1 PUSH4 0xC87B56DD GT PUSH2 0xA0 JUMPI DUP1 PUSH4 0xEDEB4BBE GT PUSH2 0x6F JUMPI DUP1 PUSH4 0xEDEB4BBE EQ PUSH2 0x55F JUMPI DUP1 PUSH4 0xF119F567 EQ PUSH2 0x57D JUMPI DUP1 PUSH4 0xF28CA1DD EQ PUSH2 0x599 JUMPI DUP1 PUSH4 0xF2FDE38B EQ PUSH2 0x5B7 JUMPI PUSH2 0x1D7 JUMP JUMPDEST DUP1 PUSH4 0xC87B56DD EQ PUSH2 0x4C5 JUMPI DUP1 PUSH4 0xD547CFB7 EQ PUSH2 0x4F5 JUMPI DUP1 PUSH4 0xE0DF5B6F EQ PUSH2 0x513 JUMPI DUP1 PUSH4 0xE985E9C5 EQ PUSH2 0x52F JUMPI PUSH2 0x1D7 JUMP JUMPDEST DUP1 PUSH4 0xA22CB465 GT PUSH2 0xDC JUMPI DUP1 PUSH4 0xA22CB465 EQ PUSH2 0x440 JUMPI DUP1 PUSH4 0xB564EA86 EQ PUSH2 0x45C JUMPI DUP1 PUSH4 0xB88D4FDE EQ PUSH2 0x48D JUMPI DUP1 PUSH4 0xBD9BA9E8 EQ PUSH2 0x4A9 JUMPI PUSH2 0x1D7 JUMP JUMPDEST DUP1 PUSH4 0x8DA5CB5B EQ PUSH2 0x3D4 JUMPI DUP1 PUSH4 0x95D89B41 EQ PUSH2 0x3F2 JUMPI DUP1 PUSH4 0x99683C22 EQ PUSH2 0x410 JUMPI PUSH2 0x1D7 JUMP JUMPDEST DUP1 PUSH4 0x2016A0D2 GT PUSH2 0x17A JUMPI DUP1 PUSH4 0x616C0C48 GT PUSH2 0x149 JUMPI DUP1 PUSH4 0x616C0C48 EQ PUSH2 0x339 JUMPI DUP1 PUSH4 0x6352211E EQ PUSH2 0x36A JUMPI DUP1 PUSH4 0x70A08231 EQ PUSH2 0x39A JUMPI DUP1 PUSH4 0x715018A6 EQ PUSH2 0x3CA JUMPI PUSH2 0x1D7 JUMP JUMPDEST DUP1 PUSH4 0x2016A0D2 EQ PUSH2 0x2C9 JUMPI DUP1 PUSH4 0x23B872DD EQ PUSH2 0x2E5 JUMPI DUP1 PUSH4 0x39E3AA7E EQ PUSH2 0x301 JUMPI DUP1 PUSH4 0x42842E0E EQ PUSH2 0x31D JUMPI PUSH2 0x1D7 JUMP JUMPDEST DUP1 PUSH4 0x81812FC GT PUSH2 0x1B6 JUMPI DUP1 PUSH4 0x81812FC EQ PUSH2 0x245 JUMPI DUP1 PUSH4 0x95EA7B3 EQ PUSH2 0x275 JUMPI DUP1 PUSH4 0x18D217C3 EQ PUSH2 0x291 JUMPI DUP1 PUSH4 0x1BC80EFF EQ PUSH2 0x2AD JUMPI PUSH2 0x1D7 JUMP JUMPDEST DUP1 PUSH3 0xE00064 EQ PUSH2 0x1DB JUMPI DUP1 PUSH4 0x1FFC9A7 EQ PUSH2 0x1F7 JUMPI DUP1 PUSH4 0x6FDDE03 EQ PUSH2 0x227 JUMPI JUMPDEST PUSH0 DUP1 REVERT JUMPDEST PUSH2 0x1F5 PUSH1 0x4 DUP1 CALLDATASIZE SUB DUP2 ADD SWAP1 PUSH2 0x1F0 SWAP2 SWAP1 PUSH2 0x361E JUMP JUMPDEST PUSH2 0x5D3 JUMP JUMPDEST STOP JUMPDEST PUSH2 0x211 PUSH1 0x4 DUP1 CALLDATASIZE SUB DUP2 ADD SWAP1 PUSH2 0x20C SWAP2 SWAP1 PUSH2 0x369E JUMP JUMPDEST PUSH2 0x7CE JUMP JUMPDEST PUSH1 0x40 MLOAD PUSH2 0x21E SWAP2 SWAP1 PUSH2 0x36E3 JUMP JUMPDEST PUSH1 0x40 MLOAD DUP1 SWAP2 SUB SWAP1 RETURN JUMPDEST PUSH2 0x22F PUSH2 0x7DF JUMP JUMPDEST PUSH1 0x40 MLOAD PUSH2 0x23C SWAP2 SWAP1 PUSH2 0x376C JUMP JUMPDEST PUSH1 0x40 MLOAD DUP1 SWAP2 SUB SWAP1 RETURN JUMPDEST PUSH2 0x25F PUSH1 0x4 DUP1 CALLDATASIZE SUB DUP2 ADD SWAP1 PUSH2 0x25A SWAP2 SWAP1 PUSH2 0x361E JUMP JUMPDEST PUSH2 0x87C JUMP JUMPDEST PUSH1 0x40 MLOAD PUSH2 0x26C SWAP2 SWAP1 PUSH2 0x37CB JUMP JUMPDEST PUSH1 0x40 MLOAD DUP1 SWAP2 SUB SWAP1 RETURN JUMPDEST PUSH2 0x28F PUSH1 0x4 DUP1 CALLDATASIZE SUB DUP2 ADD SWAP1 PUSH2 0x28A SWAP2 SWAP1 PUSH2 0x380E JUMP JUMPDEST PUSH2 0x897 JUMP JUMPDEST STOP JUMPDEST PUSH2 0x2AB PUSH1 0x4 DUP1 CALLDATASIZE SUB DUP2 ADD SWAP1 PUSH2 0x2A6 SWAP2 SWAP1 PUSH2 0x38AD JUMP JUMPDEST PUSH2 0x8AD JUMP JUMPDEST STOP JUMPDEST PUSH2 0x2C7 PUSH1 0x4 DUP1 CALLDATASIZE SUB DUP2 ADD SWAP1 PUSH2 0x2C2 SWAP2 SWAP1 PUSH2 0x361E JUMP JUMPDEST PUSH2 0x8CB JUMP JUMPDEST STOP JUMPDEST PUSH2 0x2E3 PUSH1 0x4 DUP1 CALLDATASIZE SUB DUP2 ADD SWAP1 PUSH2 0x2DE SWAP2 SWAP1 PUSH2 0x3A20 JUMP JUMPDEST PUSH2 0xADE JUMP JUMPDEST STOP JUMPDEST PUSH2 0x2FF PUSH1 0x4 DUP1 CALLDATASIZE SUB DUP2 ADD SWAP1 PUSH2 0x2FA SWAP2 SWAP1 PUSH2 0x3ABC JUMP JUMPDEST PUSH2 0xC65 JUMP JUMPDEST STOP JUMPDEST PUSH2 0x31B PUSH1 0x4 DUP1 CALLDATASIZE SUB DUP2 ADD SWAP1 PUSH2 0x316 SWAP2 SWAP1 PUSH2 0x38AD JUMP JUMPDEST PUSH2 0xD64 JUMP JUMPDEST STOP JUMPDEST PUSH2 0x337 PUSH1 0x4 DUP1 CALLDATASIZE SUB DUP2 ADD SWAP1 PUSH2 0x332 SWAP2 SWAP1 PUSH2 0x3ABC JUMP JUMPDEST PUSH2 0xD82 JUMP JUMPDEST STOP JUMPDEST PUSH2 0x353 PUSH1 0x4 DUP1 CALLDATASIZE SUB DUP2 ADD SWAP1 PUSH2 0x34E SWAP2 SWAP1 PUSH2 0x361E JUMP JUMPDEST PUSH2 0xDA1 JUMP JUMPDEST PUSH1 0x40 MLOAD PUSH2 0x361 SWAP3 SWAP2 SWAP1 PUSH2 0x3B1B JUMP JUMPDEST PUSH1 0x40 MLOAD DUP1 SWAP2 SUB SWAP1 RETURN JUMPDEST PUSH2 0x384 PUSH1 0x4 DUP1 CALLDATASIZE SUB DUP2 ADD SWAP1 PUSH2 0x37F SWAP2 SWAP1 PUSH2 0x361E JUMP JUMPDEST PUSH2 0xDD5 JUMP JUMPDEST PUSH1 0x40 MLOAD PUSH2 0x391 SWAP2 SWAP1 PUSH2 0x37CB JUMP JUMPDEST PUSH1 0x40 MLOAD DUP1 SWAP2 SUB SWAP1 RETURN JUMPDEST PUSH2 0x3B4 PUSH1 0x4 DUP1 CALLDATASIZE SUB DUP2 ADD SWAP1 PUSH2 0x3AF SWAP2 SWAP1 PUSH2 0x3B42 JUMP JUMPDEST PUSH2 0xDE6 JUMP JUMPDEST PUSH1 0x40 MLOAD PUSH2 0x3C1 SWAP2 SWAP1 PUSH2 0x3B6D JUMP JUMPDEST PUSH1 0x40 MLOAD DUP1 SWAP2 SUB SWAP1 RETURN JUMPDEST PUSH2 0x3D2 PUSH2 0xEAA JUMP JUMPDEST STOP JUMPDEST PUSH2 0x3DC PUSH2 0xEBD JUMP JUMPDEST PUSH1 0x40 MLOAD PUSH2 0x3E9 SWAP2 SWAP1 PUSH2 0x37CB JUMP JUMPDEST PUSH1 0x40 MLOAD DUP1 SWAP2 SUB SWAP1 RETURN JUMPDEST PUSH2 0x3FA PUSH2 0xEF2 JUMP JUMPDEST PUSH1 0x40 MLOAD PUSH2 0x407 SWAP2 SWAP1 PUSH2 0x376C JUMP JUMPDEST PUSH1 0x40 MLOAD DUP1 SWAP2 SUB SWAP1 RETURN JUMPDEST PUSH2 0x42A PUSH1 0x4 DUP1 CALLDATASIZE SUB DUP2 ADD SWAP1 PUSH2 0x425 SWAP2 SWAP1 PUSH2 0x3B86 JUMP JUMPDEST PUSH2 0xF90 JUMP JUMPDEST PUSH1 0x40 MLOAD PUSH2 0x437 SWAP2 SWAP1 PUSH2 0x3B6D JUMP JUMPDEST PUSH1 0x40 MLOAD DUP1 SWAP2 SUB SWAP1 RETURN JUMPDEST PUSH2 0x45A PUSH1 0x4 DUP1 CALLDATASIZE SUB DUP2 ADD SWAP1 PUSH2 0x455 SWAP2 SWAP1 PUSH2 0x3C21 JUMP JUMPDEST PUSH2 0x118E JUMP JUMPDEST STOP JUMPDEST PUSH2 0x476 PUSH1 0x4 DUP1 CALLDATASIZE SUB DUP2 ADD SWAP1 PUSH2 0x471 SWAP2 SWAP1 PUSH2 0x361E JUMP JUMPDEST PUSH2 0x11A4 JUMP JUMPDEST PUSH1 0x40 MLOAD PUSH2 0x484 SWAP3 SWAP2 SWAP1 PUSH2 0x3CD2 JUMP JUMPDEST PUSH1 0x40 MLOAD DUP1 SWAP2 SUB SWAP1 RETURN JUMPDEST PUSH2 0x4A7 PUSH1 0x4 DUP1 CALLDATASIZE SUB DUP2 ADD SWAP1 PUSH2 0x4A2 SWAP2 SWAP1 PUSH2 0x3D97 JUMP JUMPDEST PUSH2 0x12CA JUMP JUMPDEST STOP JUMPDEST PUSH2 0x4C3 PUSH1 0x4 DUP1 CALLDATASIZE SUB DUP2 ADD SWAP1 PUSH2 0x4BE SWAP2 SWAP1 PUSH2 0x38AD JUMP JUMPDEST PUSH2 0x12E7 JUMP JUMPDEST STOP JUMPDEST PUSH2 0x4DF PUSH1 0x4 DUP1 CALLDATASIZE SUB DUP2 ADD SWAP1 PUSH2 0x4DA SWAP2 SWAP1 PUSH2 0x361E JUMP JUMPDEST PUSH2 0x1305 JUMP JUMPDEST PUSH1 0x40 MLOAD PUSH2 0x4EC SWAP2 SWAP1 PUSH2 0x376C JUMP JUMPDEST PUSH1 0x40 MLOAD DUP1 SWAP2 SUB SWAP1 RETURN JUMPDEST PUSH2 0x4FD PUSH2 0x176F JUMP JUMPDEST PUSH1 0x40 MLOAD PUSH2 0x50A SWAP2 SWAP1 PUSH2 0x376C JUMP JUMPDEST PUSH1 0x40 MLOAD DUP1 SWAP2 SUB SWAP1 RETURN JUMPDEST PUSH2 0x52D PUSH1 0x4 DUP1 CALLDATASIZE SUB DUP2 ADD SWAP1 PUSH2 0x528 SWAP2 SWAP1 PUSH2 0x38AD JUMP JUMPDEST PUSH2 0x17FB JUMP JUMPDEST STOP JUMPDEST PUSH2 0x549 PUSH1 0x4 DUP1 CALLDATASIZE SUB DUP2 ADD SWAP1 PUSH2 0x544 SWAP2 SWAP1 PUSH2 0x3E17 JUMP JUMPDEST PUSH2 0x1819 JUMP JUMPDEST PUSH1 0x40 MLOAD PUSH2 0x556 SWAP2 SWAP1 PUSH2 0x36E3 JUMP JUMPDEST PUSH1 0x40 MLOAD DUP1 SWAP2 SUB SWAP1 RETURN JUMPDEST PUSH2 0x567 PUSH2 0x18B5 JUMP JUMPDEST PUSH1 0x40 MLOAD PUSH2 0x574 SWAP2 SWAP1 PUSH2 0x376C JUMP JUMPDEST PUSH1 0x40 MLOAD DUP1 SWAP2 SUB SWAP1 RETURN JUMPDEST PUSH2 0x597 PUSH1 0x4 DUP1 CALLDATASIZE SUB DUP2 ADD SWAP1 PUSH2 0x592 SWAP2 SWAP1 PUSH2 0x361E JUMP JUMPDEST PUSH2 0x1941 JUMP JUMPDEST STOP JUMPDEST PUSH2 0x5A1 PUSH2 0x1CCB JUMP JUMPDEST PUSH1 0x40 MLOAD PUSH2 0x5AE SWAP2 SWAP1 PUSH2 0x376C JUMP JUMPDEST PUSH1 0x40 MLOAD DUP1 SWAP2 SUB SWAP1 RETURN JUMPDEST PUSH2 0x5D1 PUSH1 0x4 DUP1 CALLDATASIZE SUB DUP2 ADD SWAP1 PUSH2 0x5CC SWAP2 SWAP1 PUSH2 0x3B42 JUMP JUMPDEST PUSH2 0x1D57 JUMP JUMPDEST STOP JUMPDEST CALLER PUSH20 0xFFFFFFFFFFFFFFFFFFFFFFFFFFFFFFFFFFFFFFFF AND PUSH2 0x5F3 DUP3 PUSH2 0xDD5 JUMP JUMPDEST PUSH20 0xFFFFFFFFFFFFFFFFFFFFFFFFFFFFFFFFFFFFFFFF AND EQ PUSH2 0x649 JUMPI PUSH1 0x40 MLOAD PUSH32 0x8C379A000000000000000000000000000000000000000000000000000000000 DUP2 MSTORE PUSH1 0x4 ADD PUSH2 0x640 SWAP1 PUSH2 0x3E9F JUMP JUMPDEST PUSH1 0x40 MLOAD DUP1 SWAP2 SUB SWAP1 REVERT JUMPDEST PUSH0 PUSH1 0x1 PUSH0 DUP4 DUP2 MSTORE PUSH1 0x20 ADD SWAP1 DUP2 MSTORE PUSH1 0x20 ADD PUSH0 KECCAK256 PUSH0 SWAP1 SLOAD SWAP1 PUSH2 0x100 EXP SWAP1 DIV PUSH1 0xFF AND SWAP1 POP PUSH0 PUSH1 0x2 PUSH0 DUP5 DUP2 MSTORE PUSH1 0x20 ADD SWAP1 DUP2 MSTORE PUSH1 0x20 ADD PUSH0 KECCAK256 SWAP1 POP PUSH0 TIMESTAMP SWAP1 POP PUSH0 PUSH1 0x3 DUP2 GT ISZERO PUSH2 0x695 JUMPI PUSH2 0x694 PUSH2 0x3C5F JUMP JUMPDEST JUMPDEST DUP4 PUSH1 0x3 DUP2 GT ISZERO PUSH2 0x6A8 JUMPI PUSH2 0x6A7 PUSH2 0x3C5F JUMP JUMPDEST JUMPDEST SUB PUSH2 0x6C9 JUMPI PUSH2 0x6BD DUP2 DUP4 PUSH0 ADD SLOAD PUSH2 0x2A30 PUSH2 0x1DDB JUMP JUMPDEST DUP3 PUSH0 ADD DUP2 SWAP1 SSTORE POP PUSH2 0x79A JUMP JUMPDEST PUSH1 0x1 PUSH1 0x3 DUP2 GT ISZERO PUSH2 0x6DD JUMPI PUSH2 0x6DC PUSH2 0x3C5F JUMP JUMPDEST JUMPDEST DUP4 PUSH1 0x3 DUP2 GT ISZERO PUSH2 0x6F0 JUMPI PUSH2 0x6EF PUSH2 0x3C5F JUMP JUMPDEST JUMPDEST SUB PUSH2 0x713 JUMPI PUSH2 0x706 DUP2 DUP4 PUSH1 0x1 ADD SLOAD PUSH2 0x2A30 PUSH2 0x1DDB JUMP JUMPDEST DUP3 PUSH1 0x1 ADD DUP2 SWAP1 SSTORE POP PUSH2 0x799 JUMP JUMPDEST PUSH1 0x2 PUSH1 0x3 DUP2 GT ISZERO PUSH2 0x727 JUMPI PUSH2 0x726 PUSH2 0x3C5F JUMP JUMPDEST JUMPDEST DUP4 PUSH1 0x3 DUP2 GT ISZERO PUSH2 0x73A JUMPI PUSH2 0x739 PUSH2 0x3C5F JUMP JUMPDEST JUMPDEST SUB PUSH2 0x75D JUMPI PUSH2 0x750 DUP2 DUP4 PUSH1 0x2 ADD SLOAD PUSH2 0x2A30 PUSH2 0x1DDB JUMP JUMPDEST DUP3 PUSH1 0x2 ADD DUP2 SWAP1 SSTORE POP PUSH2 0x798 JUMP JUMPDEST PUSH1 0x40 MLOAD PUSH32 0x8C379A000000000000000000000000000000000000000000000000000000000 DUP2 MSTORE PUSH1 0x4 ADD PUSH2 0x78F SWAP1 PUSH2 0x3F07 JUMP JUMPDEST PUSH1 0x40 MLOAD DUP1 SWAP2 SUB SWAP1 REVERT JUMPDEST JUMPDEST JUMPDEST DUP1 DUP5 PUSH32 0x21EEEE734B533A3B3A112F894043A967BA558D457EF10B84AA8D9025690F6004 PUSH1 0x40 MLOAD PUSH1 0x40 MLOAD DUP1 SWAP2 SUB SWAP1 LOG3 POP POP POP POP JUMP JUMPDEST PUSH0 PUSH2 0x7D8 DUP3 PUSH2 0x1E0A JUMP JUMPDEST SWAP1 POP SWAP2 SWAP1 POP JUMP JUMPDEST PUSH1 0x60 PUSH0 PUSH2 0x7EA PUSH2 0x1E6A JUMP JUMPDEST SWAP1 POP DUP1 PUSH0 ADD DUP1 SLOAD PUSH2 0x7FA SWAP1 PUSH2 0x3F52 JUMP JUMPDEST DUP1 PUSH1 0x1F ADD PUSH1 0x20 DUP1 SWAP2 DIV MUL PUSH1 0x20 ADD PUSH1 0x40 MLOAD SWAP1 DUP2 ADD PUSH1 0x40 MSTORE DUP1 SWAP3 SWAP2 SWAP1 DUP2 DUP2 MSTORE PUSH1 0x20 ADD DUP3 DUP1 SLOAD PUSH2 0x826 SWAP1 PUSH2 0x3F52 JUMP JUMPDEST DUP1 ISZERO PUSH2 0x871 JUMPI DUP1 PUSH1 0x1F LT PUSH2 0x848 JUMPI PUSH2 0x100 DUP1 DUP4 SLOAD DIV MUL DUP4 MSTORE SWAP2 PUSH1 0x20 ADD SWAP2 PUSH2 0x871 JUMP JUMPDEST DUP3 ADD SWAP2 SWAP1 PUSH0 MSTORE PUSH1 0x20 PUSH0 KECCAK256 SWAP1 JUMPDEST DUP2 SLOAD DUP2 MSTORE SWAP1 PUSH1 0x1 ADD SWAP1 PUSH1 0x20 ADD DUP1 DUP4 GT PUSH2 0x854 JUMPI DUP3 SWAP1 SUB PUSH1 0x1F AND DUP3 ADD SWAP2 JUMPDEST POP POP POP POP POP SWAP2 POP POP SWAP1 JUMP JUMPDEST PUSH0 PUSH2 0x886 DUP3 PUSH2 0x1E91 JUMP JUMPDEST POP PUSH2 0x890 DUP3 PUSH2 0x1F17 JUMP JUMPDEST SWAP1 POP SWAP2 SWAP1 POP JUMP JUMPDEST PUSH2 0x8A9 DUP3 DUP3 PUSH2 0x8A4 PUSH2 0x1F5E JUMP JUMPDEST PUSH2 0x1F65 JUMP JUMPDEST POP POP JUMP JUMPDEST PUSH2 0x8B5 PUSH2 0x1F77 JUMP JUMPDEST DUP2 DUP2 PUSH1 0x7 SWAP2 DUP3 PUSH2 0x8C6 SWAP3 SWAP2 SWAP1 PUSH2 0x4129 JUMP JUMPDEST POP POP POP JUMP JUMPDEST PUSH2 0x8D3 PUSH2 0x1F77 JUMP JUMPDEST PUSH0 PUSH1 0x1 PUSH0 DUP4 DUP2 MSTORE PUSH1 0x20 ADD SWAP1 DUP2 MSTORE PUSH1 0x20 ADD PUSH0 KECCAK256 PUSH0 SWAP1 SLOAD SWAP1 PUSH2 0x100 EXP SWAP1 DIV PUSH1 0xFF AND SWAP1 POP PUSH0 PUSH1 0x3 DUP2 GT ISZERO PUSH2 0x907 JUMPI PUSH2 0x906 PUSH2 0x3C5F JUMP JUMPDEST JUMPDEST DUP2 PUSH1 0x3 DUP2 GT ISZERO PUSH2 0x91A JUMPI PUSH2 0x919 PUSH2 0x3C5F JUMP JUMPDEST JUMPDEST SUB PUSH2 0x9A2 JUMPI PUSH1 0x1 DUP1 PUSH0 DUP5 DUP2 MSTORE PUSH1 0x20 ADD SWAP1 DUP2 MSTORE PUSH1 0x20 ADD PUSH0 KECCAK256 PUSH0 PUSH2 0x100 EXP DUP2 SLOAD DUP2 PUSH1 0xFF MUL NOT AND SWAP1 DUP4 PUSH1 0x3 DUP2 GT ISZERO PUSH2 0x952 JUMPI PUSH2 0x951 PUSH2 0x3C5F JUMP JUMPDEST JUMPDEST MUL OR SWAP1 SSTORE POP PUSH2 0x95F PUSH2 0x1FFE JUMP JUMPDEST PUSH0 DUP1 DUP5 DUP2 MSTORE PUSH1 0x20 ADD SWAP1 DUP2 MSTORE PUSH1 0x20 ADD PUSH0 KECCAK256 PUSH1 0x1 ADD DUP2 SWAP1 SSTORE POP PUSH3 0x2A300 TIMESTAMP PUSH2 0x985 SWAP2 SWAP1 PUSH2 0x4223 JUMP JUMPDEST PUSH1 0x2 PUSH0 DUP5 DUP2 MSTORE PUSH1 0x20 ADD SWAP1 DUP2 MSTORE PUSH1 0x20 ADD PUSH0 KECCAK256 PUSH1 0x1 ADD DUP2 SWAP1 SSTORE POP PUSH2 0xADA JUMP JUMPDEST PUSH1 0x1 PUSH1 0x3 DUP2 GT ISZERO PUSH2 0x9B6 JUMPI PUSH2 0x9B5 PUSH2 0x3C5F JUMP JUMPDEST JUMPDEST DUP2 PUSH1 0x3 DUP2 GT ISZERO PUSH2 0x9C9 JUMPI PUSH2 0x9C8 PUSH2 0x3C5F JUMP JUMPDEST JUMPDEST SUB PUSH2 0xA33 JUMPI PUSH1 0x2 PUSH1 0x1 PUSH0 DUP5 DUP2 MSTORE PUSH1 0x20 ADD SWAP1 DUP2 MSTORE PUSH1 0x20 ADD PUSH0 KECCAK256 PUSH0 PUSH2 0x100 EXP DUP2 SLOAD DUP2 PUSH1 0xFF MUL NOT AND SWAP1 DUP4 PUSH1 0x3 DUP2 GT ISZERO PUSH2 0xA02 JUMPI PUSH2 0xA01 PUSH2 0x3C5F JUMP JUMPDEST JUMPDEST MUL OR SWAP1 SSTORE POP PUSH3 0x3F480 TIMESTAMP PUSH2 0xA16 SWAP2 SWAP1 PUSH2 0x4223 JUMP JUMPDEST PUSH1 0x2 PUSH0 DUP5 DUP2 MSTORE PUSH1 0x20 ADD SWAP1 DUP2 MSTORE PUSH1 0x20 ADD PUSH0 KECCAK256 PUSH1 0x2 ADD DUP2 SWAP1 SSTORE POP PUSH2 0xAD9 JUMP JUMPDEST PUSH1 0x2 PUSH1 0x3 DUP2 GT ISZERO PUSH2 0xA47 JUMPI PUSH2 0xA46 PUSH2 0x3C5F JUMP JUMPDEST JUMPDEST DUP2 PUSH1 0x3 DUP2 GT ISZERO PUSH2 0xA5A JUMPI PUSH2 0xA59 PUSH2 0x3C5F JUMP JUMPDEST JUMPDEST SUB PUSH2 0xA9D JUMPI PUSH1 0x3 PUSH1 0x1 PUSH0 DUP5 DUP2 MSTORE PUSH1 0x20 ADD SWAP1 DUP2 MSTORE PUSH1 0x20 ADD PUSH0 KECCAK256 PUSH0 PUSH2 0x100 EXP DUP2 SLOAD DUP2 PUSH1 0xFF MUL NOT AND SWAP1 DUP4 PUSH1 0x3 DUP2 GT ISZERO PUSH2 0xA93 JUMPI PUSH2 0xA92 PUSH2 0x3C5F JUMP JUMPDEST JUMPDEST MUL OR SWAP1 SSTORE POP PUSH2 0xAD8 JUMP JUMPDEST PUSH1 0x40 MLOAD PUSH32 0x8C379A000000000000000000000000000000000000000000000000000000000 DUP2 MSTORE PUSH1 0x4 ADD PUSH2 0xACF SWAP1 PUSH2 0x42A0 JUMP JUMPDEST PUSH1 0x40 MLOAD DUP1 SWAP2 SUB SWAP1 REVERT JUMPDEST JUMPDEST JUMPDEST POP POP JUMP JUMPDEST PUSH0 PUSH2 0xAE7 PUSH2 0x2062 JUMP JUMPDEST SWAP1 POP PUSH0 DUP2 PUSH0 ADD PUSH1 0x8 SWAP1 SLOAD SWAP1 PUSH2 0x100 EXP SWAP1 DIV PUSH1 0xFF AND ISZERO SWAP1 POP PUSH0 DUP3 PUSH0 ADD PUSH0 SWAP1 SLOAD SWAP1 PUSH2 0x100 EXP SWAP1 DIV PUSH8 0xFFFFFFFFFFFFFFFF AND SWAP1 POP PUSH0 DUP1 DUP3 PUSH8 0xFFFFFFFFFFFFFFFF AND EQ DUP1 ISZERO PUSH2 0xB2F JUMPI POP DUP3 JUMPDEST SWAP1 POP PUSH0 PUSH1 0x1 DUP4 PUSH8 0xFFFFFFFFFFFFFFFF AND EQ DUP1 ISZERO PUSH2 0xB62 JUMPI POP PUSH0 ADDRESS PUSH20 0xFFFFFFFFFFFFFFFFFFFFFFFFFFFFFFFFFFFFFFFF AND EXTCODESIZE EQ JUMPDEST SWAP1 POP DUP2 ISZERO DUP1 ISZERO PUSH2 0xB70 JUMPI POP DUP1 ISZERO JUMPDEST ISZERO PUSH2 0xBA7 JUMPI PUSH1 0x40 MLOAD PUSH32 0xF92EE8A900000000000000000000000000000000000000000000000000000000 DUP2 MSTORE PUSH1 0x4 ADD PUSH1 0x40 MLOAD DUP1 SWAP2 SUB SWAP1 REVERT JUMPDEST PUSH1 0x1 DUP6 PUSH0 ADD PUSH0 PUSH2 0x100 EXP DUP2 SLOAD DUP2 PUSH8 0xFFFFFFFFFFFFFFFF MUL NOT AND SWAP1 DUP4 PUSH8 0xFFFFFFFFFFFFFFFF AND MUL OR SWAP1 SSTORE POP DUP4 ISZERO PUSH2 0xBF4 JUMPI PUSH1 0x1 DUP6 PUSH0 ADD PUSH1 0x8 PUSH2 0x100 EXP DUP2 SLOAD DUP2 PUSH1 0xFF MUL NOT AND SWAP1 DUP4 ISZERO ISZERO MUL OR SWAP1 SSTORE POP JUMPDEST PUSH2 0xC00 DUP10 DUP10 DUP10 DUP10 PUSH2 0x2089 JUMP JUMPDEST DUP4 ISZERO PUSH2 0xC5A JUMPI PUSH0 DUP6 PUSH0 ADD PUSH1 0x8 PUSH2 0x100 EXP DUP2 SLOAD DUP2 PUSH1 0xFF MUL NOT AND SWAP1 DUP4 ISZERO ISZERO MUL OR SWAP1 SSTORE POP PUSH32 0xC7F505B2F371AE2175EE4913F4499E1F2633A7B5936321EED1CDAEB6115181D2 PUSH1 0x1 PUSH1 0x40 MLOAD PUSH2 0xC51 SWAP2 SWAP1 PUSH2 0x430A JUMP JUMPDEST PUSH1 0x40 MLOAD DUP1 SWAP2 SUB SWAP1 LOG1 JUMPDEST POP POP POP POP POP POP POP POP POP JUMP JUMPDEST PUSH0 PUSH20 0xFFFFFFFFFFFFFFFFFFFFFFFFFFFFFFFFFFFFFFFF AND DUP3 PUSH20 0xFFFFFFFFFFFFFFFFFFFFFFFFFFFFFFFFFFFFFFFF AND SUB PUSH2 0xCD5 JUMPI PUSH0 PUSH1 0x40 MLOAD PUSH32 0x64A0AE9200000000000000000000000000000000000000000000000000000000 DUP2 MSTORE PUSH1 0x4 ADD PUSH2 0xCCC SWAP2 SWAP1 PUSH2 0x37CB JUMP JUMPDEST PUSH1 0x40 MLOAD DUP1 SWAP2 SUB SWAP1 REVERT JUMPDEST PUSH0 PUSH2 0xCE8 DUP4 DUP4 PUSH2 0xCE3 PUSH2 0x1F5E JUMP JUMPDEST PUSH2 0x226D JUMP JUMPDEST SWAP1 POP DUP4 PUSH20 0xFFFFFFFFFFFFFFFFFFFFFFFFFFFFFFFFFFFFFFFF AND DUP2 PUSH20 0xFFFFFFFFFFFFFFFFFFFFFFFFFFFFFFFFFFFFFFFF AND EQ PUSH2 0xD5E JUMPI DUP4 DUP3 DUP3 PUSH1 0x40 MLOAD PUSH32 0x64283D7B00000000000000000000000000000000000000000000000000000000 DUP2 MSTORE PUSH1 0x4 ADD PUSH2 0xD55 SWAP4 SWAP3 SWAP2 SWAP1 PUSH2 0x4323 JUMP JUMPDEST PUSH1 0x40 MLOAD DUP1 SWAP2 SUB SWAP1 REVERT JUMPDEST POP POP POP POP JUMP JUMPDEST PUSH2 0xD6C PUSH2 0x1F77 JUMP JUMPDEST DUP2 DUP2 PUSH1 0x9 SWAP2 DUP3 PUSH2 0xD7D SWAP3 SWAP2 SWAP1 PUSH2 0x4129 JUMP JUMPDEST POP POP POP JUMP JUMPDEST PUSH2 0xD9C DUP4 DUP4 DUP4 PUSH1 0x40 MLOAD DUP1 PUSH1 0x20 ADD PUSH1 0x40 MSTORE DUP1 PUSH0 DUP2 MSTORE POP PUSH2 0x12CA JUMP JUMPDEST POP POP POP JUMP JUMPDEST PUSH0 DUP1 PUSH1 0xB PUSH0 DUP5 DUP2 MSTORE PUSH1 0x20 ADD SWAP1 DUP2 MSTORE PUSH1 0x20 ADD PUSH0 KECCAK256 PUSH0 ADD SLOAD SWAP2 POP PUSH1 0xB PUSH0 DUP5 DUP2 MSTORE PUSH1 0x20 ADD SWAP1 DUP2 MSTORE PUSH1 0x20 ADD PUSH0 KECCAK256 PUSH1 0x1 ADD SLOAD SWAP1 POP SWAP2 POP SWAP2 JUMP JUMPDEST PUSH0 PUSH2 0xDDF DUP3 PUSH2 0x1E91 JUMP JUMPDEST SWAP1 POP SWAP2 SWAP1 POP JUMP JUMPDEST PUSH0 DUP1 PUSH2 0xDF0 PUSH2 0x1E6A JUMP JUMPDEST SWAP1 POP PUSH0 PUSH20 0xFFFFFFFFFFFFFFFFFFFFFFFFFFFFFFFFFFFFFFFF AND DUP4 PUSH20 0xFFFFFFFFFFFFFFFFFFFFFFFFFFFFFFFFFFFFFFFF AND SUB PUSH2 0xE62 JUMPI PUSH0 PUSH1 0x40 MLOAD PUSH32 0x89C62B6400000000000000000000000000000000000000000000000000000000 DUP2 MSTORE PUSH1 0x4 ADD PUSH2 0xE59 SWAP2 SWAP1 PUSH2 0x37CB JUMP JUMPDEST PUSH1 0x40 MLOAD DUP1 SWAP2 SUB SWAP1 REVERT JUMPDEST DUP1 PUSH1 0x3 ADD PUSH0 DUP5 PUSH20 0xFFFFFFFFFFFFFFFFFFFFFFFFFFFFFFFFFFFFFFFF AND PUSH20 0xFFFFFFFFFFFFFFFFFFFFFFFFFFFFFFFFFFFFFFFF AND DUP2 MSTORE PUSH1 0x20 ADD SWAP1 DUP2 MSTORE PUSH1 0x20 ADD PUSH0 KECCAK256 SLOAD SWAP2 POP POP SWAP2 SWAP1 POP JUMP JUMPDEST PUSH2 0xEB2 PUSH2 0x1F77 JUMP JUMPDEST PUSH2 0xEBB PUSH0 PUSH2 0x248A JUMP JUMPDEST JUMP JUMPDEST PUSH0 DUP1 PUSH2 0xEC7 PUSH2 0x255B JUMP JUMPDEST SWAP1 POP DUP1 PUSH0 ADD PUSH0 SWAP1 SLOAD SWAP1 PUSH2 0x100 EXP SWAP1 DIV PUSH20 0xFFFFFFFFFFFFFFFFFFFFFFFFFFFFFFFFFFFFFFFF AND SWAP2 POP POP SWAP1 JUMP JUMPDEST PUSH1 0x60 PUSH0 PUSH2 0xEFD PUSH2 0x1E6A JUMP JUMPDEST SWAP1 POP DUP1 PUSH1 0x1 ADD DUP1 SLOAD PUSH2 0xF0E SWAP1 PUSH2 0x3F52 JUMP JUMPDEST DUP1 PUSH1 0x1F ADD PUSH1 0x20 DUP1 SWAP2 DIV MUL PUSH1 0x20 ADD PUSH1 0x40 MLOAD SWAP1 DUP2 ADD PUSH1 0x40 MSTORE DUP1 SWAP3 SWAP2 SWAP1 DUP2 DUP2 MSTORE PUSH1 0x20 ADD DUP3 DUP1 SLOAD PUSH2 0xF3A SWAP1 PUSH2 0x3F52 JUMP JUMPDEST DUP1 ISZERO PUSH2 0xF85 JUMPI DUP1 PUSH1 0x1F LT PUSH2 0xF5C JUMPI PUSH2 0x100 DUP1 DUP4 SLOAD DIV MUL DUP4 MSTORE SWAP2 PUSH1 0x20 ADD SWAP2 PUSH2 0xF85 JUMP JUMPDEST DUP3 ADD SWAP2 SWAP1 PUSH0 MSTORE PUSH1 0x20 PUSH0 KECCAK256 SWAP1 JUMPDEST DUP2 SLOAD DUP2 MSTORE SWAP1 PUSH1 0x1 ADD SWAP1 PUSH1 0x20 ADD DUP1 DUP4 GT PUSH2 0xF68 JUMPI DUP3 SWAP1 SUB PUSH1 0x1F AND DUP3 ADD SWAP2 JUMPDEST POP POP POP POP POP SWAP2 POP POP SWAP1 JUMP JUMPDEST PUSH0 CALLER PUSH20 0xFFFFFFFFFFFFFFFFFFFFFFFFFFFFFFFFFFFFFFFF AND PUSH2 0xFB1 DUP5 PUSH2 0xDD5 JUMP JUMPDEST PUSH20 0xFFFFFFFFFFFFFFFFFFFFFFFFFFFFFFFFFFFFFFFF AND EQ DUP1 ISZERO PUSH2 0x1007 JUMPI POP CALLER PUSH20 0xFFFFFFFFFFFFFFFFFFFFFFFFFFFFFFFFFFFFFFFF AND PUSH2 0xFEF DUP4 PUSH2 0xDD5 JUMP JUMPDEST PUSH20 0xFFFFFFFFFFFFFFFFFFFFFFFFFFFFFFFFFFFFFFFF AND EQ JUMPDEST PUSH2 0x1046 JUMPI PUSH1 0x40 MLOAD PUSH32 0x8C379A000000000000000000000000000000000000000000000000000000000 DUP2 MSTORE PUSH1 0x4 ADD PUSH2 0x103D SWAP1 PUSH2 0x3E9F JUMP JUMPDEST PUSH1 0x40 MLOAD DUP1 SWAP2 SUB SWAP1 REVERT JUMPDEST PUSH2 0x1050 DUP4 DUP4 PUSH2 0x2582 JUMP JUMPDEST ISZERO PUSH2 0x1090 JUMPI PUSH1 0x40 MLOAD PUSH32 0x8C379A000000000000000000000000000000000000000000000000000000000 DUP2 MSTORE PUSH1 0x4 ADD PUSH2 0x1087 SWAP1 PUSH2 0x43A2 JUMP JUMPDEST PUSH1 0x40 MLOAD DUP1 SWAP2 SUB SWAP1 REVERT JUMPDEST PUSH2 0x1099 DUP4 PUSH2 0x25F2 JUMP JUMPDEST DUP1 ISZERO PUSH2 0x10AA JUMPI POP PUSH2 0x10A9 DUP3 PUSH2 0x25F2 JUMP JUMPDEST JUMPDEST PUSH2 0x10E9 JUMPI PUSH1 0x40 MLOAD PUSH32 0x8C379A000000000000000000000000000000000000000000000000000000000 DUP2 MSTORE PUSH1 0x4 ADD PUSH2 0x10E0 SWAP1 PUSH2 0x440A JUMP JUMPDEST PUSH1 0x40 MLOAD DUP1 SWAP2 SUB SWAP1 REVERT JUMPDEST PUSH2 0x10F3 DUP4 DUP4 PUSH2 0x2610 JUMP JUMPDEST PUSH2 0x1132 JUMPI PUSH1 0x40 MLOAD PUSH32 0x8C379A000000000000000000000000000000000000000000000000000000000 DUP2 MSTORE PUSH1 0x4 ADD PUSH2 0x1129 SWAP1 PUSH2 0x4472 JUMP JUMPDEST PUSH1 0x40 MLOAD DUP1 SWAP2 SUB SWAP1 REVERT JUMPDEST PUSH2 0x113B DUP4 PUSH2 0x264D JUMP JUMPDEST PUSH2 0x1144 DUP3 PUSH2 0x264D JUMP JUMPDEST PUSH0 PUSH2 0x1151 DUP7 DUP7 DUP7 DUP7 PUSH2 0x269F JUMP JUMPDEST SWAP1 POP DUP1 DUP4 DUP6 PUSH32 0x57F2B9F5C840C33473A81F7A678B3B71541515153FE9C4CCB4D909C5CA3F7D44 PUSH1 0x40 MLOAD PUSH1 0x40 MLOAD DUP1 SWAP2 SUB SWAP1 LOG4 DUP1 SWAP2 POP POP SWAP5 SWAP4 POP POP POP POP JUMP JUMPDEST PUSH2 0x11A0 PUSH2 0x1199 PUSH2 0x1F5E JUMP JUMPDEST DUP4 DUP4 PUSH2 0x2715 JUMP JUMPDEST POP POP JUMP JUMPDEST PUSH0 DUP1 PUSH1 0x1 PUSH0 DUP5 DUP2 MSTORE PUSH1 0x20 ADD SWAP1 DUP2 MSTORE PUSH1 0x20 ADD PUSH0 KECCAK256 PUSH0 SWAP1 SLOAD SWAP1 PUSH2 0x100 EXP SWAP1 DIV PUSH1 0xFF AND SWAP2 POP PUSH0 TIMESTAMP SWAP1 POP PUSH0 DUP1 PUSH1 0x3 DUP2 GT ISZERO PUSH2 0x11DE JUMPI PUSH2 0x11DD PUSH2 0x3C5F JUMP JUMPDEST JUMPDEST DUP5 PUSH1 0x3 DUP2 GT ISZERO PUSH2 0x11F1 JUMPI PUSH2 0x11F0 PUSH2 0x3C5F JUMP JUMPDEST JUMPDEST SUB PUSH2 0x1211 JUMPI PUSH1 0x2 PUSH0 DUP7 DUP2 MSTORE PUSH1 0x20 ADD SWAP1 DUP2 MSTORE PUSH1 0x20 ADD PUSH0 KECCAK256 PUSH0 ADD SLOAD SWAP1 POP PUSH2 0x12A7 JUMP JUMPDEST PUSH1 0x1 PUSH1 0x3 DUP2 GT ISZERO PUSH2 0x1225 JUMPI PUSH2 0x1224 PUSH2 0x3C5F JUMP JUMPDEST JUMPDEST DUP5 PUSH1 0x3 DUP2 GT ISZERO PUSH2 0x1238 JUMPI PUSH2 0x1237 PUSH2 0x3C5F JUMP JUMPDEST JUMPDEST SUB PUSH2 0x1259 JUMPI PUSH1 0x2 PUSH0 DUP7 DUP2 MSTORE PUSH1 0x20 ADD SWAP1 DUP2 MSTORE PUSH1 0x20 ADD PUSH0 KECCAK256 PUSH1 0x1 ADD SLOAD SWAP1 POP PUSH2 0x12A6 JUMP JUMPDEST PUSH1 0x2 PUSH1 0x3 DUP2 GT ISZERO PUSH2 0x126D JUMPI PUSH2 0x126C PUSH2 0x3C5F JUMP JUMPDEST JUMPDEST DUP5 PUSH1 0x3 DUP2 GT ISZERO PUSH2 0x1280 JUMPI PUSH2 0x127F PUSH2 0x3C5F JUMP JUMPDEST JUMPDEST SUB PUSH2 0x12A1 JUMPI PUSH1 0x2 PUSH0 DUP7 DUP2 MSTORE PUSH1 0x20 ADD SWAP1 DUP2 MSTORE PUSH1 0x20 ADD PUSH0 KECCAK256 PUSH1 0x2 ADD SLOAD SWAP1 POP PUSH2 0x12A5 JUMP JUMPDEST PUSH0 SWAP1 POP JUMPDEST JUMPDEST JUMPDEST DUP2 DUP2 GT PUSH2 0x12B4 JUMPI PUSH0 PUSH2 0x12C1 JUMP JUMPDEST DUP2 DUP2 PUSH2 0x12C0 SWAP2 SWAP1 PUSH2 0x4490 JUMP JUMPDEST JUMPDEST SWAP3 POP POP POP SWAP2 POP SWAP2 JUMP JUMPDEST PUSH2 0x12D5 DUP5 DUP5 DUP5 PUSH2 0xC65 JUMP JUMPDEST PUSH2 0x12E1 DUP5 DUP5 DUP5 DUP5 PUSH2 0x288C JUMP JUMPDEST POP POP POP POP JUMP JUMPDEST PUSH2 0x12EF PUSH2 0x1F77 JUMP JUMPDEST DUP2 DUP2 PUSH1 0x8 SWAP2 DUP3 PUSH2 0x1300 SWAP3 SWAP2 SWAP1 PUSH2 0x4129 JUMP JUMPDEST POP POP POP JUMP JUMPDEST PUSH1 0x60 PUSH0 PUSH1 0x6 DUP1 SLOAD PUSH2 0x1315 SWAP1 PUSH2 0x3F52 JUMP JUMPDEST SWAP1 POP GT ISZERO PUSH2 0x134F JUMPI PUSH1 0x6 PUSH2 0x1328 DUP4 PUSH2 0x2A3E JUMP JUMPDEST PUSH1 0x40 MLOAD PUSH1 0x20 ADD PUSH2 0x1339 SWAP3 SWAP2 SWAP1 PUSH2 0x457D JUMP JUMPDEST PUSH1 0x40 MLOAD PUSH1 0x20 DUP2 DUP4 SUB SUB DUP2 MSTORE SWAP1 PUSH1 0x40 MSTORE SWAP1 POP PUSH2 0x176A JUMP JUMPDEST PUSH1 0x60 PUSH0 PUSH1 0x3 DUP2 GT ISZERO PUSH2 0x1364 JUMPI PUSH2 0x1363 PUSH2 0x3C5F JUMP JUMPDEST JUMPDEST PUSH1 0x1 PUSH0 DUP6 DUP2 MSTORE PUSH1 0x20 ADD SWAP1 DUP2 MSTORE PUSH1 0x20 ADD PUSH0 KECCAK256 PUSH0 SWAP1 SLOAD SWAP1 PUSH2 0x100 EXP SWAP1 DIV PUSH1 0xFF AND PUSH1 0x3 DUP2 GT ISZERO PUSH2 0x1394 JUMPI PUSH2 0x1393 PUSH2 0x3C5F JUMP JUMPDEST JUMPDEST SUB PUSH2 0x13D1 JUMPI PUSH0 DUP1 DUP5 DUP2 MSTORE PUSH1 0x20 ADD SWAP1 DUP2 MSTORE PUSH1 0x20 ADD PUSH0 KECCAK256 PUSH0 ADD PUSH1 0x40 MLOAD PUSH1 0x20 ADD PUSH2 0x13BB SWAP2 SWAP1 PUSH2 0x45EA JUMP JUMPDEST PUSH1 0x40 MLOAD PUSH1 0x20 DUP2 DUP4 SUB SUB DUP2 MSTORE SWAP1 PUSH1 0x40 MSTORE SWAP1 POP PUSH2 0x1723 JUMP JUMPDEST PUSH1 0x60 PUSH0 DUP1 DUP6 DUP2 MSTORE PUSH1 0x20 ADD SWAP1 DUP2 MSTORE PUSH1 0x20 ADD PUSH0 KECCAK256 PUSH1 0x5 ADD PUSH0 SWAP1 SLOAD SWAP1 PUSH2 0x100 EXP SWAP1 DIV PUSH1 0xFF AND ISZERO PUSH2 0x148C JUMPI PUSH1 0x1 PUSH0 DUP1 DUP7 DUP2 MSTORE PUSH1 0x20 ADD SWAP1 DUP2 MSTORE PUSH1 0x20 ADD PUSH0 KECCAK256 PUSH1 0x4 ADD SLOAD EQ PUSH2 0x144E JUMPI PUSH1 0x40 MLOAD DUP1 PUSH1 0x40 ADD PUSH1 0x40 MSTORE DUP1 PUSH1 0x1 DUP2 MSTORE PUSH1 0x20 ADD PUSH32 0x6200000000000000000000000000000000000000000000000000000000000000 DUP2 MSTORE POP PUSH2 0x1485 JUMP JUMPDEST PUSH1 0x40 MLOAD DUP1 PUSH1 0x40 ADD PUSH1 0x40 MSTORE DUP1 PUSH1 0x1 DUP2 MSTORE PUSH1 0x20 ADD PUSH32 0x6700000000000000000000000000000000000000000000000000000000000000 DUP2 MSTORE POP JUMPDEST SWAP1 POP PUSH2 0x14C5 JUMP JUMPDEST PUSH1 0x40 MLOAD DUP1 PUSH1 0x40 ADD PUSH1 0x40 MSTORE DUP1 PUSH1 0x1 DUP2 MSTORE PUSH1 0x20 ADD PUSH32 0x6E00000000000000000000000000000000000000000000000000000000000000 DUP2 MSTORE POP SWAP1 POP JUMPDEST PUSH0 PUSH1 0x1 PUSH0 DUP1 DUP8 DUP2 MSTORE PUSH1 0x20 ADD SWAP1 DUP2 MSTORE PUSH1 0x20 ADD PUSH0 KECCAK256 PUSH1 0x1 ADD SLOAD EQ PUSH2 0x151C JUMPI PUSH1 0x40 MLOAD DUP1 PUSH1 0x40 ADD PUSH1 0x40 MSTORE DUP1 PUSH1 0x1 DUP2 MSTORE PUSH1 0x20 ADD PUSH32 0x6600000000000000000000000000000000000000000000000000000000000000 DUP2 MSTORE POP PUSH2 0x1553 JUMP JUMPDEST PUSH1 0x40 MLOAD DUP1 PUSH1 0x40 ADD PUSH1 0x40 MSTORE DUP1 PUSH1 0x1 DUP2 MSTORE PUSH1 0x20 ADD PUSH32 0x6D00000000000000000000000000000000000000000000000000000000000000 DUP2 MSTORE POP JUMPDEST SWAP1 POP PUSH1 0x60 PUSH1 0x1 PUSH1 0x3 DUP2 GT ISZERO PUSH2 0x156B JUMPI PUSH2 0x156A PUSH2 0x3C5F JUMP JUMPDEST JUMPDEST PUSH1 0x1 PUSH0 DUP9 DUP2 MSTORE PUSH1 0x20 ADD SWAP1 DUP2 MSTORE PUSH1 0x20 ADD PUSH0 KECCAK256 PUSH0 SWAP1 SLOAD SWAP1 PUSH2 0x100 EXP SWAP1 DIV PUSH1 0xFF AND PUSH1 0x3 DUP2 GT ISZERO PUSH2 0x159B JUMPI PUSH2 0x159A PUSH2 0x3C5F JUMP JUMPDEST JUMPDEST SUB PUSH2 0x15DD JUMPI PUSH1 0x40 MLOAD DUP1 PUSH1 0x40 ADD PUSH1 0x40 MSTORE DUP1 PUSH1 0x5 DUP2 MSTORE PUSH1 0x20 ADD PUSH32 0x6861746368000000000000000000000000000000000000000000000000000000 DUP2 MSTORE POP SWAP1 POP PUSH2 0x16E6 JUMP JUMPDEST PUSH1 0x2 PUSH1 0x3 DUP2 GT ISZERO PUSH2 0x15F1 JUMPI PUSH2 0x15F0 PUSH2 0x3C5F JUMP JUMPDEST JUMPDEST PUSH1 0x1 PUSH0 DUP9 DUP2 MSTORE PUSH1 0x20 ADD SWAP1 DUP2 MSTORE PUSH1 0x20 ADD PUSH0 KECCAK256 PUSH0 SWAP1 SLOAD SWAP1 PUSH2 0x100 EXP SWAP1 DIV PUSH1 0xFF AND PUSH1 0x3 DUP2 GT ISZERO PUSH2 0x1621 JUMPI PUSH2 0x1620 PUSH2 0x3C5F JUMP JUMPDEST JUMPDEST SUB PUSH2 0x1663 JUMPI PUSH1 0x40 MLOAD DUP1 PUSH1 0x40 ADD PUSH1 0x40 MSTORE DUP1 PUSH1 0x9 DUP2 MSTORE PUSH1 0x20 ADD PUSH32 0x68617463686C696E670000000000000000000000000000000000000000000000 DUP2 MSTORE POP SWAP1 POP PUSH2 0x16E5 JUMP JUMPDEST PUSH1 0x3 DUP1 DUP2 GT ISZERO PUSH2 0x1676 JUMPI PUSH2 0x1675 PUSH2 0x3C5F JUMP JUMPDEST JUMPDEST PUSH1 0x1 PUSH0 DUP9 DUP2 MSTORE PUSH1 0x20 ADD SWAP1 DUP2 MSTORE PUSH1 0x20 ADD PUSH0 KECCAK256 PUSH0 SWAP1 SLOAD SWAP1 PUSH2 0x100 EXP SWAP1 DIV PUSH1 0xFF AND PUSH1 0x3 DUP2 GT ISZERO PUSH2 0x16A6 JUMPI PUSH2 0x16A5 PUSH2 0x3C5F JUMP JUMPDEST JUMPDEST SUB PUSH2 0x16E4 JUMPI PUSH1 0x40 MLOAD DUP1 PUSH1 0x40 ADD PUSH1 0x40 MSTORE DUP1 PUSH1 0x5 DUP2 MSTORE PUSH1 0x20 ADD PUSH32 0x6164756C74000000000000000000000000000000000000000000000000000000 DUP2 MSTORE POP SWAP1 POP JUMPDEST JUMPDEST JUMPDEST PUSH0 DUP1 DUP8 DUP2 MSTORE PUSH1 0x20 ADD SWAP1 DUP2 MSTORE PUSH1 0x20 ADD PUSH0 KECCAK256 PUSH0 ADD DUP4 DUP4 DUP4 PUSH1 0x40 MLOAD PUSH1 0x20 ADD PUSH2 0x170E SWAP5 SWAP4 SWAP3 SWAP2 SWAP1 PUSH2 0x4655 JUMP JUMPDEST PUSH1 0x40 MLOAD PUSH1 0x20 DUP2 DUP4 SUB SUB DUP2 MSTORE SWAP1 PUSH1 0x40 MSTORE SWAP4 POP POP POP POP JUMPDEST PUSH2 0x172C DUP4 PUSH2 0x2A3E JUMP JUMPDEST PUSH1 0x7 DUP3 PUSH1 0x9 PUSH0 DUP1 DUP9 DUP2 MSTORE PUSH1 0x20 ADD SWAP1 DUP2 MSTORE PUSH1 0x20 ADD PUSH0 KECCAK256 PUSH0 ADD PUSH1 0x40 MLOAD PUSH1 0x20 ADD PUSH2 0x1757 SWAP6 SWAP5 SWAP4 SWAP3 SWAP2 SWAP1 PUSH2 0x4873 JUMP JUMPDEST PUSH1 0x40 MLOAD PUSH1 0x20 DUP2 DUP4 SUB SUB DUP2 MSTORE SWAP1 PUSH1 0x40 MSTORE SWAP2 POP POP JUMPDEST SWAP2 SWAP1 POP JUMP JUMPDEST PUSH1 0x6 DUP1 SLOAD PUSH2 0x177C SWAP1 PUSH2 0x3F52 JUMP JUMPDEST DUP1 PUSH1 0x1F ADD PUSH1 0x20 DUP1 SWAP2 DIV MUL PUSH1 0x20 ADD PUSH1 0x40 MLOAD SWAP1 DUP2 ADD PUSH1 0x40 MSTORE DUP1 SWAP3 SWAP2 SWAP1 DUP2 DUP2 MSTORE PUSH1 0x20 ADD DUP3 DUP1 SLOAD PUSH2 0x17A8 SWAP1 PUSH2 0x3F52 JUMP JUMPDEST DUP1 ISZERO PUSH2 0x17F3 JUMPI DUP1 PUSH1 0x1F LT PUSH2 0x17CA JUMPI PUSH2 0x100 DUP1 DUP4 SLOAD DIV MUL DUP4 MSTORE SWAP2 PUSH1 0x20 ADD SWAP2 PUSH2 0x17F3 JUMP JUMPDEST DUP3 ADD SWAP2 SWAP1 PUSH0 MSTORE PUSH1 0x20 PUSH0 KECCAK256 SWAP1 JUMPDEST DUP2 SLOAD DUP2 MSTORE SWAP1 PUSH1 0x1 ADD SWAP1 PUSH1 0x20 ADD DUP1 DUP4 GT PUSH2 0x17D6 JUMPI DUP3 SWAP1 SUB PUSH1 0x1F AND DUP3 ADD SWAP2 JUMPDEST POP POP POP POP POP DUP2 JUMP JUMPDEST PUSH2 0x1803 PUSH2 0x1F77 JUMP JUMPDEST DUP2 DUP2 PUSH1 0x6 SWAP2 DUP3 PUSH2 0x1814 SWAP3 SWAP2 SWAP1 PUSH2 0x4129 JUMP JUMPDEST POP POP POP JUMP JUMPDEST PUSH0 DUP1 PUSH2 0x1823 PUSH2 0x1E6A JUMP JUMPDEST SWAP1 POP DUP1 PUSH1 0x5 ADD PUSH0 DUP6 PUSH20 0xFFFFFFFFFFFFFFFFFFFFFFFFFFFFFFFFFFFFFFFF AND PUSH20 0xFFFFFFFFFFFFFFFFFFFFFFFFFFFFFFFFFFFFFFFF AND DUP2 MSTORE PUSH1 0x20 ADD SWAP1 DUP2 MSTORE PUSH1 0x20 ADD PUSH0 KECCAK256 PUSH0 DUP5 PUSH20 0xFFFFFFFFFFFFFFFFFFFFFFFFFFFFFFFFFFFFFFFF AND PUSH20 0xFFFFFFFFFFFFFFFFFFFFFFFFFFFFFFFFFFFFFFFF AND DUP2 MSTORE PUSH1 0x20 ADD SWAP1 DUP2 MSTORE PUSH1 0x20 ADD PUSH0 KECCAK256 PUSH0 SWAP1 SLOAD SWAP1 PUSH2 0x100 EXP SWAP1 DIV PUSH1 0xFF AND SWAP2 POP POP SWAP3 SWAP2 POP POP JUMP JUMPDEST PUSH1 0x8 DUP1 SLOAD PUSH2 0x18C2 SWAP1 PUSH2 0x3F52 JUMP JUMPDEST DUP1 PUSH1 0x1F ADD PUSH1 0x20 DUP1 SWAP2 DIV MUL PUSH1 0x20 ADD PUSH1 0x40 MLOAD SWAP1 DUP2 ADD PUSH1 0x40 MSTORE DUP1 SWAP3 SWAP2 SWAP1 DUP2 DUP2 MSTORE PUSH1 0x20 ADD DUP3 DUP1 SLOAD PUSH2 0x18EE SWAP1 PUSH2 0x3F52 JUMP JUMPDEST DUP1 ISZERO PUSH2 0x1939 JUMPI DUP1 PUSH1 0x1F LT PUSH2 0x1910 JUMPI PUSH2 0x100 DUP1 DUP4 SLOAD DIV MUL DUP4 MSTORE SWAP2 PUSH1 0x20 ADD SWAP2 PUSH2 0x1939 JUMP JUMPDEST DUP3 ADD SWAP2 SWAP1 PUSH0 MSTORE PUSH1 0x20 PUSH0 KECCAK256 SWAP1 JUMPDEST DUP2 SLOAD DUP2 MSTORE SWAP1 PUSH1 0x1 ADD SWAP1 PUSH1 0x20 ADD DUP1 DUP4 GT PUSH2 0x191C JUMPI DUP3 SWAP1 SUB PUSH1 0x1F AND DUP3 ADD SWAP2 JUMPDEST POP POP POP POP POP DUP2 JUMP JUMPDEST CALLER PUSH20 0xFFFFFFFFFFFFFFFFFFFFFFFFFFFFFFFFFFFFFFFF AND PUSH2 0x1961 DUP3 PUSH2 0xDD5 JUMP JUMPDEST PUSH20 0xFFFFFFFFFFFFFFFFFFFFFFFFFFFFFFFFFFFFFFFF AND EQ PUSH2 0x19B7 JUMPI PUSH1 0x40 MLOAD PUSH32 0x8C379A000000000000000000000000000000000000000000000000000000000 DUP2 MSTORE PUSH1 0x4 ADD PUSH2 0x19AE SWAP1 PUSH2 0x3E9F JUMP JUMPDEST PUSH1 0x40 MLOAD DUP1 SWAP2 SUB SWAP1 REVERT JUMPDEST PUSH0 PUSH1 0x1 PUSH0 DUP4 DUP2 MSTORE PUSH1 0x20 ADD SWAP1 DUP2 MSTORE PUSH1 0x20 ADD PUSH0 KECCAK256 PUSH0 SWAP1 SLOAD SWAP1 PUSH2 0x100 EXP SWAP1 DIV PUSH1 0xFF AND SWAP1 POP PUSH0 TIMESTAMP SWAP1 POP PUSH0 PUSH1 0x3 DUP2 GT ISZERO PUSH2 0x19EF JUMPI PUSH2 0x19EE PUSH2 0x3C5F JUMP JUMPDEST JUMPDEST DUP3 PUSH1 0x3 DUP2 GT ISZERO PUSH2 0x1A02 JUMPI PUSH2 0x1A01 PUSH2 0x3C5F JUMP JUMPDEST JUMPDEST EQ DUP1 ISZERO PUSH2 0x1A22 JUMPI POP PUSH1 0x2 PUSH0 DUP5 DUP2 MSTORE PUSH1 0x20 ADD SWAP1 DUP2 MSTORE PUSH1 0x20 ADD PUSH0 KECCAK256 PUSH0 ADD SLOAD DUP2 LT ISZERO JUMPDEST ISZERO PUSH2 0x1AE0 JUMPI PUSH1 0x1 DUP1 PUSH0 DUP6 DUP2 MSTORE PUSH1 0x20 ADD SWAP1 DUP2 MSTORE PUSH1 0x20 ADD PUSH0 KECCAK256 PUSH0 PUSH2 0x100 EXP DUP2 SLOAD DUP2 PUSH1 0xFF MUL NOT AND SWAP1 DUP4 PUSH1 0x3 DUP2 GT ISZERO PUSH2 0x1A5A JUMPI PUSH2 0x1A59 PUSH2 0x3C5F JUMP JUMPDEST JUMPDEST MUL OR SWAP1 SSTORE POP PUSH2 0x1A67 PUSH2 0x1FFE JUMP JUMPDEST PUSH0 DUP1 DUP6 DUP2 MSTORE PUSH1 0x20 ADD SWAP1 DUP2 MSTORE PUSH1 0x20 ADD PUSH0 KECCAK256 PUSH1 0x1 ADD DUP2 SWAP1 SSTORE POP PUSH3 0x2A300 DUP2 PUSH2 0x1A8D SWAP2 SWAP1 PUSH2 0x4223 JUMP JUMPDEST PUSH1 0x2 PUSH0 DUP6 DUP2 MSTORE PUSH1 0x20 ADD SWAP1 DUP2 MSTORE PUSH1 0x20 ADD PUSH0 KECCAK256 PUSH1 0x1 ADD DUP2 SWAP1 SSTORE POP DUP3 PUSH32 0x75D0C2D3465E305D01011D67A4FAAA50F6C6B307E33D72194A4BA97ACCE86975 PUSH1 0x40 MLOAD PUSH2 0x1AD3 SWAP1 PUSH2 0x4933 JUMP JUMPDEST PUSH1 0x40 MLOAD DUP1 SWAP2 SUB SWAP1 LOG2 PUSH2 0x1CC6 JUMP JUMPDEST PUSH1 0x1 PUSH1 0x3 DUP2 GT ISZERO PUSH2 0x1AF4 JUMPI PUSH2 0x1AF3 PUSH2 0x3C5F JUMP JUMPDEST JUMPDEST DUP3 PUSH1 0x3 DUP2 GT ISZERO PUSH2 0x1B07 JUMPI PUSH2 0x1B06 PUSH2 0x3C5F JUMP JUMPDEST JUMPDEST EQ DUP1 ISZERO PUSH2 0x1B28 JUMPI POP PUSH1 0x2 PUSH0 DUP5 DUP2 MSTORE PUSH1 0x20 ADD SWAP1 DUP2 MSTORE PUSH1 0x20 ADD PUSH0 KECCAK256 PUSH1 0x1 ADD SLOAD DUP2 LT ISZERO JUMPDEST ISZERO PUSH2 0x1BC8 JUMPI PUSH1 0x2 PUSH1 0x1 PUSH0 DUP6 DUP2 MSTORE PUSH1 0x20 ADD SWAP1 DUP2 MSTORE PUSH1 0x20 ADD PUSH0 KECCAK256 PUSH0 PUSH2 0x100 EXP DUP2 SLOAD DUP2 PUSH1 0xFF MUL NOT AND SWAP1 DUP4 PUSH1 0x3 DUP2 GT ISZERO PUSH2 0x1B61 JUMPI PUSH2 0x1B60 PUSH2 0x3C5F JUMP JUMPDEST JUMPDEST MUL OR SWAP1 SSTORE POP PUSH3 0x3F480 DUP2 PUSH2 0x1B75 SWAP2 SWAP1 PUSH2 0x4223 JUMP JUMPDEST PUSH1 0x2 PUSH0 DUP6 DUP2 MSTORE PUSH1 0x20 ADD SWAP1 DUP2 MSTORE PUSH1 0x20 ADD PUSH0 KECCAK256 PUSH1 0x2 ADD DUP2 SWAP1 SSTORE POP DUP3 PUSH32 0x75D0C2D3465E305D01011D67A4FAAA50F6C6B307E33D72194A4BA97ACCE86975 PUSH1 0x40 MLOAD PUSH2 0x1BBB SWAP1 PUSH2 0x499B JUMP JUMPDEST PUSH1 0x40 MLOAD DUP1 SWAP2 SUB SWAP1 LOG2 PUSH2 0x1CC5 JUMP JUMPDEST PUSH1 0x2 PUSH1 0x3 DUP2 GT ISZERO PUSH2 0x1BDC JUMPI PUSH2 0x1BDB PUSH2 0x3C5F JUMP JUMPDEST JUMPDEST DUP3 PUSH1 0x3 DUP2 GT ISZERO PUSH2 0x1BEF JUMPI PUSH2 0x1BEE PUSH2 0x3C5F JUMP JUMPDEST JUMPDEST EQ DUP1 ISZERO PUSH2 0x1C10 JUMPI POP PUSH1 0x2 PUSH0 DUP5 DUP2 MSTORE PUSH1 0x20 ADD SWAP1 DUP2 MSTORE PUSH1 0x20 ADD PUSH0 KECCAK256 PUSH1 0x2 ADD SLOAD DUP2 LT ISZERO JUMPDEST ISZERO PUSH2 0x1C89 JUMPI PUSH1 0x3 PUSH1 0x1 PUSH0 DUP6 DUP2 MSTORE PUSH1 0x20 ADD SWAP1 DUP2 MSTORE PUSH1 0x20 ADD PUSH0 KECCAK256 PUSH0 PUSH2 0x100 EXP DUP2 SLOAD DUP2 PUSH1 0xFF MUL NOT AND SWAP1 DUP4 PUSH1 0x3 DUP2 GT ISZERO PUSH2 0x1C49 JUMPI PUSH2 0x1C48 PUSH2 0x3C5F JUMP JUMPDEST JUMPDEST MUL OR SWAP1 SSTORE POP DUP3 PUSH32 0x75D0C2D3465E305D01011D67A4FAAA50F6C6B307E33D72194A4BA97ACCE86975 PUSH1 0x40 MLOAD PUSH2 0x1C7C SWAP1 PUSH2 0x4A03 JUMP JUMPDEST PUSH1 0x40 MLOAD DUP1 SWAP2 SUB SWAP1 LOG2 PUSH2 0x1CC4 JUMP JUMPDEST PUSH1 0x40 MLOAD PUSH32 0x8C379A000000000000000000000000000000000000000000000000000000000 DUP2 MSTORE PUSH1 0x4 ADD PUSH2 0x1CBB SWAP1 PUSH2 0x42A0 JUMP JUMPDEST PUSH1 0x40 MLOAD DUP1 SWAP2 SUB SWAP1 REVERT JUMPDEST JUMPDEST JUMPDEST POP POP POP JUMP JUMPDEST PUSH1 0x7 DUP1 SLOAD PUSH2 0x1CD8 SWAP1 PUSH2 0x3F52 JUMP JUMPDEST DUP1 PUSH1 0x1F ADD PUSH1 0x20 DUP1 SWAP2 DIV MUL PUSH1 0x20 ADD PUSH1 0x40 MLOAD SWAP1 DUP2 ADD PUSH1 0x40 MSTORE DUP1 SWAP3 SWAP2 SWAP1 DUP2 DUP2 MSTORE PUSH1 0x20 ADD DUP3 DUP1 SLOAD PUSH2 0x1D04 SWAP1 PUSH2 0x3F52 JUMP JUMPDEST DUP1 ISZERO PUSH2 0x1D4F JUMPI DUP1 PUSH1 0x1F LT PUSH2 0x1D26 JUMPI PUSH2 0x100 DUP1 DUP4 SLOAD DIV MUL DUP4 MSTORE SWAP2 PUSH1 0x20 ADD SWAP2 PUSH2 0x1D4F JUMP JUMPDEST DUP3 ADD SWAP2 SWAP1 PUSH0 MSTORE PUSH1 0x20 PUSH0 KECCAK256 SWAP1 JUMPDEST DUP2 SLOAD DUP2 MSTORE SWAP1 PUSH1 0x1 ADD SWAP1 PUSH1 0x20 ADD DUP1 DUP4 GT PUSH2 0x1D32 JUMPI DUP3 SWAP1 SUB PUSH1 0x1F AND DUP3 ADD SWAP2 JUMPDEST POP POP POP POP POP DUP2 JUMP JUMPDEST PUSH2 0x1D5F PUSH2 0x1F77 JUMP JUMPDEST PUSH0 PUSH20 0xFFFFFFFFFFFFFFFFFFFFFFFFFFFFFFFFFFFFFFFF AND DUP2 PUSH20 0xFFFFFFFFFFFFFFFFFFFFFFFFFFFFFFFFFFFFFFFF AND SUB PUSH2 0x1DCF JUMPI PUSH0 PUSH1 0x40 MLOAD PUSH32 0x1E4FBDF700000000000000000000000000000000000000000000000000000000 DUP2 MSTORE PUSH1 0x4 ADD PUSH2 0x1DC6 SWAP2 SWAP1 PUSH2 0x37CB JUMP JUMPDEST PUSH1 0x40 MLOAD DUP1 SWAP2 SUB SWAP1 REVERT JUMPDEST PUSH2 0x1DD8 DUP2 PUSH2 0x248A JUMP JUMPDEST POP JUMP JUMPDEST PUSH0 DUP2 DUP5 PUSH2 0x1DE8 SWAP2 SWAP1 PUSH2 0x4223 JUMP JUMPDEST DUP4 GT PUSH2 0x1DF4 JUMPI DUP4 PUSH2 0x1E01 JUMP JUMPDEST DUP2 DUP4 PUSH2 0x1E00 SWAP2 SWAP1 PUSH2 0x4490 JUMP JUMPDEST JUMPDEST SWAP1 POP SWAP4 SWAP3 POP POP POP JUMP JUMPDEST PUSH0 PUSH4 0x49064906 PUSH1 0xE0 SHL PUSH28 0xFFFFFFFFFFFFFFFFFFFFFFFFFFFFFFFFFFFFFFFFFFFFFFFFFFFFFFFF NOT AND DUP3 PUSH28 0xFFFFFFFFFFFFFFFFFFFFFFFFFFFFFFFFFFFFFFFFFFFFFFFFFFFFFFFF NOT AND EQ DUP1 PUSH2 0x1E63 JUMPI POP PUSH2 0x1E62 DUP3 PUSH2 0x2B08 JUMP JUMPDEST JUMPDEST SWAP1 POP SWAP2 SWAP1 POP JUMP JUMPDEST PUSH0 PUSH32 0x80BB2B638CC20BC4D0A60D66940F3AB4A00C1D7B313497CA82FB0B4AB0079300 SWAP1 POP SWAP1 JUMP JUMPDEST PUSH0 DUP1 PUSH2 0x1E9C DUP4 PUSH2 0x2BE9 JUMP JUMPDEST SWAP1 POP PUSH0 PUSH20 0xFFFFFFFFFFFFFFFFFFFFFFFFFFFFFFFFFFFFFFFF AND DUP2 PUSH20 0xFFFFFFFFFFFFFFFFFFFFFFFFFFFFFFFFFFFFFFFF AND SUB PUSH2 0x1F0E JUMPI DUP3 PUSH1 0x40 MLOAD PUSH32 0x7E27328900000000000000000000000000000000000000000000000000000000 DUP2 MSTORE PUSH1 0x4 ADD PUSH2 0x1F05 SWAP2 SWAP1 PUSH2 0x3B6D JUMP JUMPDEST PUSH1 0x40 MLOAD DUP1 SWAP2 SUB SWAP1 REVERT JUMPDEST DUP1 SWAP2 POP POP SWAP2 SWAP1 POP JUMP JUMPDEST PUSH0 DUP1 PUSH2 0x1F21 PUSH2 0x1E6A JUMP JUMPDEST SWAP1 POP DUP1 PUSH1 0x4 ADD PUSH0 DUP5 DUP2 MSTORE PUSH1 0x20 ADD SWAP1 DUP2 MSTORE PUSH1 0x20 ADD PUSH0 KECCAK256 PUSH0 SWAP1 SLOAD SWAP1 PUSH2 0x100 EXP SWAP1 DIV PUSH20 0xFFFFFFFFFFFFFFFFFFFFFFFFFFFFFFFFFFFFFFFF AND SWAP2 POP POP SWAP2 SWAP1 POP JUMP JUMPDEST PUSH0 CALLER SWAP1 POP SWAP1 JUMP JUMPDEST PUSH2 0x1F72 DUP4 DUP4 DUP4 PUSH1 0x1 PUSH2 0x2C30 JUMP JUMPDEST POP POP POP JUMP JUMPDEST PUSH2 0x1F7F PUSH2 0x1F5E JUMP JUMPDEST PUSH20 0xFFFFFFFFFFFFFFFFFFFFFFFFFFFFFFFFFFFFFFFF AND PUSH2 0x1F9D PUSH2 0xEBD JUMP JUMPDEST PUSH20 0xFFFFFFFFFFFFFFFFFFFFFFFFFFFFFFFFFFFFFFFF AND EQ PUSH2 0x1FFC JUMPI PUSH2 0x1FC0 PUSH2 0x1F5E JUMP JUMPDEST PUSH1 0x40 MLOAD PUSH32 0x118CDAA700000000000000000000000000000000000000000000000000000000 DUP2 MSTORE PUSH1 0x4 ADD PUSH2 0x1FF3 SWAP2 SWAP1 PUSH2 0x37CB JUMP JUMPDEST PUSH1 0x40 MLOAD DUP1 SWAP2 SUB SWAP1 REVERT JUMPDEST JUMP JUMPDEST PUSH0 PUSH1 0x5 PUSH0 DUP2 SLOAD DUP1 SWAP3 SWAP2 SWAP1 PUSH2 0x2011 SWAP1 PUSH2 0x4A21 JUMP JUMPDEST SWAP2 SWAP1 POP SSTORE POP PUSH1 0x1 PUSH1 0x2 TIMESTAMP CALLER PUSH1 0x5 SLOAD PUSH1 0x40 MLOAD PUSH1 0x20 ADD PUSH2 0x2031 SWAP4 SWAP3 SWAP2 SWAP1 PUSH2 0x4ACD JUMP JUMPDEST PUSH1 0x40 MLOAD PUSH1 0x20 DUP2 DUP4 SUB SUB DUP2 MSTORE SWAP1 PUSH1 0x40 MSTORE DUP1 MLOAD SWAP1 PUSH1 0x20 ADD KECCAK256 PUSH0 SHR PUSH2 0x2053 SWAP2 SWAP1 PUSH2 0x4B36 JUMP JUMPDEST PUSH2 0x205D SWAP2 SWAP1 PUSH2 0x4223 JUMP JUMPDEST SWAP1 POP SWAP1 JUMP JUMPDEST PUSH0 PUSH32 0xF0C57E16840DF040F15088DC2F81FE391C3923BEC73E23A9662EFC9C229C6A00 SWAP1 POP SWAP1 JUMP JUMPDEST PUSH0 PUSH2 0x2092 PUSH2 0x2062 JUMP JUMPDEST SWAP1 POP PUSH0 DUP2 PUSH0 ADD PUSH1 0x8 SWAP1 SLOAD SWAP1 PUSH2 0x100 EXP SWAP1 DIV PUSH1 0xFF AND ISZERO SWAP1 POP PUSH0 DUP3 PUSH0 ADD PUSH0 SWAP1 SLOAD SWAP1 PUSH2 0x100 EXP SWAP1 DIV PUSH8 0xFFFFFFFFFFFFFFFF AND SWAP1 POP PUSH0 DUP1 DUP3 PUSH8 0xFFFFFFFFFFFFFFFF AND EQ DUP1 ISZERO PUSH2 0x20DA JUMPI POP DUP3 JUMPDEST SWAP1 POP PUSH0 PUSH1 0x1 DUP4 PUSH8 0xFFFFFFFFFFFFFFFF AND EQ DUP1 ISZERO PUSH2 0x210D JUMPI POP PUSH0 ADDRESS PUSH20 0xFFFFFFFFFFFFFFFFFFFFFFFFFFFFFFFFFFFFFFFF AND EXTCODESIZE EQ JUMPDEST SWAP1 POP DUP2 ISZERO DUP1 ISZERO PUSH2 0x211B JUMPI POP DUP1 ISZERO JUMPDEST ISZERO PUSH2 0x2152 JUMPI PUSH1 0x40 MLOAD PUSH32 0xF92EE8A900000000000000000000000000000000000000000000000000000000 DUP2 MSTORE PUSH1 0x4 ADD PUSH1 0x40 MLOAD DUP1 SWAP2 SUB SWAP1 REVERT JUMPDEST PUSH1 0x1 DUP6 PUSH0 ADD PUSH0 PUSH2 0x100 EXP DUP2 SLOAD DUP2 PUSH8 0xFFFFFFFFFFFFFFFF MUL NOT AND SWAP1 DUP4 PUSH8 0xFFFFFFFFFFFFFFFF AND MUL OR SWAP1 SSTORE POP DUP4 ISZERO PUSH2 0x219F JUMPI PUSH1 0x1 DUP6 PUSH0 ADD PUSH1 0x8 PUSH2 0x100 EXP DUP2 SLOAD DUP2 PUSH1 0xFF MUL NOT AND SWAP1 DUP4 ISZERO ISZERO MUL OR SWAP1 SSTORE POP JUMPDEST PUSH2 0x21A9 DUP8 DUP8 PUSH2 0x2DFD JUMP JUMPDEST PUSH2 0x21B1 PUSH2 0x2E13 JUMP JUMPDEST PUSH2 0x21BA DUP10 PUSH2 0x2E1D JUMP JUMPDEST PUSH0 PUSH1 0x5 DUP2 SWAP1 SSTORE POP PUSH0 PUSH1 0x4 DUP2 SWAP1 SSTORE POP DUP8 PUSH1 0xA PUSH0 PUSH2 0x100 EXP DUP2 SLOAD DUP2 PUSH20 0xFFFFFFFFFFFFFFFFFFFFFFFFFFFFFFFFFFFFFFFF MUL NOT AND SWAP1 DUP4 PUSH20 0xFFFFFFFFFFFFFFFFFFFFFFFFFFFFFFFFFFFFFFFF AND MUL OR SWAP1 SSTORE POP DUP4 ISZERO PUSH2 0x2262 JUMPI PUSH0 DUP6 PUSH0 ADD PUSH1 0x8 PUSH2 0x100 EXP DUP2 SLOAD DUP2 PUSH1 0xFF MUL NOT AND SWAP1 DUP4 ISZERO ISZERO MUL OR SWAP1 SSTORE POP PUSH32 0xC7F505B2F371AE2175EE4913F4499E1F2633A7B5936321EED1CDAEB6115181D2 PUSH1 0x1 PUSH1 0x40 MLOAD PUSH2 0x2259 SWAP2 SWAP1 PUSH2 0x430A JUMP JUMPDEST PUSH1 0x40 MLOAD DUP1 SWAP2 SUB SWAP1 LOG1 JUMPDEST POP POP POP POP POP POP POP POP POP JUMP JUMPDEST PUSH0 DUP1 PUSH2 0x2277 PUSH2 0x1E6A JUMP JUMPDEST SWAP1 POP PUSH0 PUSH2 0x2283 DUP6 PUSH2 0x2BE9 JUMP JUMPDEST SWAP1 POP PUSH0 PUSH20 0xFFFFFFFFFFFFFFFFFFFFFFFFFFFFFFFFFFFFFFFF AND DUP5 PUSH20 0xFFFFFFFFFFFFFFFFFFFFFFFFFFFFFFFFFFFFFFFF AND EQ PUSH2 0x22C4 JUMPI PUSH2 0x22C3 DUP2 DUP6 DUP8 PUSH2 0x2E31 JUMP JUMPDEST JUMPDEST PUSH0 PUSH20 0xFFFFFFFFFFFFFFFFFFFFFFFFFFFFFFFFFFFFFFFF AND DUP2 PUSH20 0xFFFFFFFFFFFFFFFFFFFFFFFFFFFFFFFFFFFFFFFF AND EQ PUSH2 0x2351 JUMPI PUSH2 0x2303 PUSH0 DUP7 PUSH0 DUP1 PUSH2 0x2C30 JUMP JUMPDEST PUSH1 0x1 DUP3 PUSH1 0x3 ADD PUSH0 DUP4 PUSH20 0xFFFFFFFFFFFFFFFFFFFFFFFFFFFFFFFFFFFFFFFF AND PUSH20 0xFFFFFFFFFFFFFFFFFFFFFFFFFFFFFFFFFFFFFFFF AND DUP2 MSTORE PUSH1 0x20 ADD SWAP1 DUP2 MSTORE PUSH1 0x20 ADD PUSH0 KECCAK256 PUSH0 DUP3 DUP3 SLOAD SUB SWAP3 POP POP DUP2 SWAP1 SSTORE POP JUMPDEST PUSH0 PUSH20 0xFFFFFFFFFFFFFFFFFFFFFFFFFFFFFFFFFFFFFFFF AND DUP7 PUSH20 0xFFFFFFFFFFFFFFFFFFFFFFFFFFFFFFFFFFFFFFFF AND EQ PUSH2 0x23D2 JUMPI PUSH1 0x1 DUP3 PUSH1 0x3 ADD PUSH0 DUP9 PUSH20 0xFFFFFFFFFFFFFFFFFFFFFFFFFFFFFFFFFFFFFFFF AND PUSH20 0xFFFFFFFFFFFFFFFFFFFFFFFFFFFFFFFFFFFFFFFF AND DUP2 MSTORE PUSH1 0x20 ADD SWAP1 DUP2 MSTORE PUSH1 0x20 ADD PUSH0 KECCAK256 PUSH0 DUP3 DUP3 SLOAD ADD SWAP3 POP POP DUP2 SWAP1 SSTORE POP JUMPDEST DUP6 DUP3 PUSH1 0x2 ADD PUSH0 DUP8 DUP2 MSTORE PUSH1 0x20 ADD SWAP1 DUP2 MSTORE PUSH1 0x20 ADD PUSH0 KECCAK256 PUSH0 PUSH2 0x100 EXP DUP2 SLOAD DUP2 PUSH20 0xFFFFFFFFFFFFFFFFFFFFFFFFFFFFFFFFFFFFFFFF MUL NOT AND SWAP1 DUP4 PUSH20 0xFFFFFFFFFFFFFFFFFFFFFFFFFFFFFFFFFFFFFFFF AND MUL OR SWAP1 SSTORE POP DUP5 DUP7 PUSH20 0xFFFFFFFFFFFFFFFFFFFFFFFFFFFFFFFFFFFFFFFF AND DUP3 PUSH20 0xFFFFFFFFFFFFFFFFFFFFFFFFFFFFFFFFFFFFFFFF AND PUSH32 0xDDF252AD1BE2C89B69C2B068FC378DAA952BA7F163C4A11628F55A4DF523B3EF PUSH1 0x40 MLOAD PUSH1 0x40 MLOAD DUP1 SWAP2 SUB SWAP1 LOG4 DUP1 SWAP3 POP POP POP SWAP4 SWAP3 POP POP POP JUMP JUMPDEST PUSH0 PUSH2 0x2493 PUSH2 0x255B JUMP JUMPDEST SWAP1 POP PUSH0 DUP2 PUSH0 ADD PUSH0 SWAP1 SLOAD SWAP1 PUSH2 0x100 EXP SWAP1 DIV PUSH20 0xFFFFFFFFFFFFFFFFFFFFFFFFFFFFFFFFFFFFFFFF AND SWAP1 POP DUP3 DUP3 PUSH0 ADD PUSH0 PUSH2 0x100 EXP DUP2 SLOAD DUP2 PUSH20 0xFFFFFFFFFFFFFFFFFFFFFFFFFFFFFFFFFFFFFFFF MUL NOT AND SWAP1 DUP4 PUSH20 0xFFFFFFFFFFFFFFFFFFFFFFFFFFFFFFFFFFFFFFFF AND MUL OR SWAP1 SSTORE POP DUP3 PUSH20 0xFFFFFFFFFFFFFFFFFFFFFFFFFFFFFFFFFFFFFFFF AND DUP2 PUSH20 0xFFFFFFFFFFFFFFFFFFFFFFFFFFFFFFFFFFFFFFFF AND PUSH32 0x8BE0079C531659141344CD1FD0A4F28419497F9722A3DAAFE3B4186F6B6457E0 PUSH1 0x40 MLOAD PUSH1 0x40 MLOAD DUP1 SWAP2 SUB SWAP1 LOG3 POP POP POP JUMP JUMPDEST PUSH0 PUSH32 0x9016D09D72D40FDAE2FD8CEAC6B6234C7706214FD39C1CD1E609A0528C199300 SWAP1 POP SWAP1 JUMP JUMPDEST PUSH0 DUP1 PUSH0 DUP1 DUP6 DUP2 MSTORE PUSH1 0x20 ADD SWAP1 DUP2 MSTORE PUSH1 0x20 ADD PUSH0 KECCAK256 SWAP1 POP PUSH0 DUP1 PUSH0 DUP6 DUP2 MSTORE PUSH1 0x20 ADD SWAP1 DUP2 MSTORE PUSH1 0x20 ADD PUSH0 KECCAK256 SWAP1 POP PUSH1 0x1 DUP3 PUSH1 0x4 ADD SLOAD EQ DUP1 PUSH2 0x25C0 JUMPI POP PUSH1 0x1 DUP2 PUSH1 0x4 ADD SLOAD EQ JUMPDEST PUSH2 0x25E6 JUMPI DUP1 PUSH1 0x2 ADD SLOAD DUP3 PUSH1 0x2 ADD SLOAD EQ DUP1 PUSH2 0x25E1 JUMPI POP DUP1 PUSH1 0x3 ADD SLOAD DUP3 PUSH1 0x3 ADD SLOAD EQ JUMPDEST PUSH2 0x25E8 JUMP JUMPDEST PUSH0 JUMPDEST SWAP3 POP POP POP SWAP3 SWAP2 POP POP JUMP JUMPDEST PUSH0 TIMESTAMP PUSH1 0xB PUSH0 DUP5 DUP2 MSTORE PUSH1 0x20 ADD SWAP1 DUP2 MSTORE PUSH1 0x20 ADD PUSH0 KECCAK256 PUSH0 ADD SLOAD LT SWAP1 POP SWAP2 SWAP1 POP JUMP JUMPDEST PUSH0 DUP1 PUSH0 DUP1 DUP6 DUP2 MSTORE PUSH1 0x20 ADD SWAP1 DUP2 MSTORE PUSH1 0x20 ADD PUSH0 KECCAK256 SWAP1 POP PUSH0 DUP1 PUSH0 DUP6 DUP2 MSTORE PUSH1 0x20 ADD SWAP1 DUP2 MSTORE PUSH1 0x20 ADD PUSH0 KECCAK256 SWAP1 POP DUP1 PUSH1 0x1 ADD SLOAD DUP3 PUSH1 0x1 ADD SLOAD EQ ISZERO SWAP3 POP POP POP SWAP3 SWAP2 POP POP JUMP JUMPDEST PUSH1 0xB PUSH0 DUP3 DUP2 MSTORE PUSH1 0x20 ADD SWAP1 DUP2 MSTORE PUSH1 0x20 ADD PUSH0 KECCAK256 PUSH1 0x1 ADD PUSH0 DUP2 SLOAD DUP1 SWAP3 SWAP2 SWAP1 PUSH2 0x2671 SWAP1 PUSH2 0x4A21 JUMP JUMPDEST SWAP2 SWAP1 POP SSTORE POP PUSH3 0x3F480 TIMESTAMP PUSH2 0x2685 SWAP2 SWAP1 PUSH2 0x4223 JUMP JUMPDEST PUSH1 0xB PUSH0 DUP4 DUP2 MSTORE PUSH1 0x20 ADD SWAP1 DUP2 MSTORE PUSH1 0x20 ADD PUSH0 KECCAK256 PUSH0 ADD DUP2 SWAP1 SSTORE POP POP JUMP JUMPDEST PUSH0 DUP1 PUSH0 DUP1 DUP6 DUP2 MSTORE PUSH1 0x20 ADD SWAP1 DUP2 MSTORE PUSH1 0x20 ADD PUSH0 KECCAK256 SWAP1 POP PUSH0 DUP1 PUSH0 DUP6 DUP2 MSTORE PUSH1 0x20 ADD SWAP1 DUP2 MSTORE PUSH1 0x20 ADD PUSH0 KECCAK256 SWAP1 POP PUSH0 DUP2 PUSH1 0x4 ADD SLOAD DUP4 PUSH1 0x4 ADD SLOAD GT PUSH2 0x26E0 JUMPI DUP2 PUSH1 0x4 ADD SLOAD PUSH2 0x26E6 JUMP JUMPDEST DUP3 PUSH1 0x4 ADD SLOAD JUMPDEST SWAP1 POP PUSH0 PUSH2 0x2704 DUP10 DUP10 DUP10 DUP10 PUSH1 0x1 DUP8 PUSH2 0x26FD SWAP2 SWAP1 PUSH2 0x4223 JUMP JUMPDEST CALLER PUSH0 PUSH2 0x2EF4 JUMP JUMPDEST SWAP1 POP DUP1 SWAP5 POP POP POP POP POP SWAP5 SWAP4 POP POP POP POP JUMP JUMPDEST PUSH0 PUSH2 0x271E PUSH2 0x1E6A JUMP JUMPDEST SWAP1 POP PUSH0 PUSH20 0xFFFFFFFFFFFFFFFFFFFFFFFFFFFFFFFFFFFFFFFF AND DUP4 PUSH20 0xFFFFFFFFFFFFFFFFFFFFFFFFFFFFFFFFFFFFFFFF AND SUB PUSH2 0x2790 JUMPI DUP3 PUSH1 0x40 MLOAD PUSH32 0x5B08BA1800000000000000000000000000000000000000000000000000000000 DUP2 MSTORE PUSH1 0x4 ADD PUSH2 0x2787 SWAP2 SWAP1 PUSH2 0x37CB JUMP JUMPDEST PUSH1 0x40 MLOAD DUP1 SWAP2 SUB SWAP1 REVERT JUMPDEST DUP2 DUP2 PUSH1 0x5 ADD PUSH0 DUP7 PUSH20 0xFFFFFFFFFFFFFFFFFFFFFFFFFFFFFFFFFFFFFFFF AND PUSH20 0xFFFFFFFFFFFFFFFFFFFFFFFFFFFFFFFFFFFFFFFF AND DUP2 MSTORE PUSH1 0x20 ADD SWAP1 DUP2 MSTORE PUSH1 0x20 ADD PUSH0 KECCAK256 PUSH0 DUP6 PUSH20 0xFFFFFFFFFFFFFFFFFFFFFFFFFFFFFFFFFFFFFFFF AND PUSH20 0xFFFFFFFFFFFFFFFFFFFFFFFFFFFFFFFFFFFFFFFF AND DUP2 MSTORE PUSH1 0x20 ADD SWAP1 DUP2 MSTORE PUSH1 0x20 ADD PUSH0 KECCAK256 PUSH0 PUSH2 0x100 EXP DUP2 SLOAD DUP2 PUSH1 0xFF MUL NOT AND SWAP1 DUP4 ISZERO ISZERO MUL OR SWAP1 SSTORE POP DUP3 PUSH20 0xFFFFFFFFFFFFFFFFFFFFFFFFFFFFFFFFFFFFFFFF AND DUP5 PUSH20 0xFFFFFFFFFFFFFFFFFFFFFFFFFFFFFFFFFFFFFFFF AND PUSH32 0x17307EAB39AB6107E8899845AD3D59BD9653F200F220920489CA2B5937696C31 DUP5 PUSH1 0x40 MLOAD PUSH2 0x287E SWAP2 SWAP1 PUSH2 0x36E3 JUMP JUMPDEST PUSH1 0x40 MLOAD DUP1 SWAP2 SUB SWAP1 LOG3 POP POP POP POP JUMP JUMPDEST PUSH0 DUP4 PUSH20 0xFFFFFFFFFFFFFFFFFFFFFFFFFFFFFFFFFFFFFFFF AND EXTCODESIZE GT ISZERO PUSH2 0x2A38 JUMPI DUP3 PUSH20 0xFFFFFFFFFFFFFFFFFFFFFFFFFFFFFFFFFFFFFFFF AND PUSH4 0x150B7A02 PUSH2 0x28CF PUSH2 0x1F5E JUMP JUMPDEST DUP7 DUP6 DUP6 PUSH1 0x40 MLOAD DUP6 PUSH4 0xFFFFFFFF AND PUSH1 0xE0 SHL DUP2 MSTORE PUSH1 0x4 ADD PUSH2 0x28F1 SWAP5 SWAP4 SWAP3 SWAP2 SWAP1 PUSH2 0x4BB8 JUMP JUMPDEST PUSH1 0x20 PUSH1 0x40 MLOAD DUP1 DUP4 SUB DUP2 PUSH0 DUP8 GAS CALL SWAP3 POP POP POP DUP1 ISZERO PUSH2 0x292C JUMPI POP PUSH1 0x40 MLOAD RETURNDATASIZE PUSH1 0x1F NOT PUSH1 0x1F DUP3 ADD AND DUP3 ADD DUP1 PUSH1 0x40 MSTORE POP DUP2 ADD SWAP1 PUSH2 0x2929 SWAP2 SWAP1 PUSH2 0x4C16 JUMP JUMPDEST PUSH1 0x1 JUMPDEST PUSH2 0x29AD JUMPI RETURNDATASIZE DUP1 PUSH0 DUP2 EQ PUSH2 0x295A JUMPI PUSH1 0x40 MLOAD SWAP2 POP PUSH1 0x1F NOT PUSH1 0x3F RETURNDATASIZE ADD AND DUP3 ADD PUSH1 0x40 MSTORE RETURNDATASIZE DUP3 MSTORE RETURNDATASIZE PUSH0 PUSH1 0x20 DUP5 ADD RETURNDATACOPY PUSH2 0x295F JUMP JUMPDEST PUSH1 0x60 SWAP2 POP JUMPDEST POP PUSH0 DUP2 MLOAD SUB PUSH2 0x29A5 JUMPI DUP4 PUSH1 0x40 MLOAD PUSH32 0x64A0AE9200000000000000000000000000000000000000000000000000000000 DUP2 MSTORE PUSH1 0x4 ADD PUSH2 0x299C SWAP2 SWAP1 PUSH2 0x37CB JUMP JUMPDEST PUSH1 0x40 MLOAD DUP1 SWAP2 SUB SWAP1 REVERT JUMPDEST DUP1 MLOAD DUP2 PUSH1 0x20 ADD REVERT JUMPDEST PUSH4 0x150B7A02 PUSH1 0xE0 SHL PUSH28 0xFFFFFFFFFFFFFFFFFFFFFFFFFFFFFFFFFFFFFFFFFFFFFFFFFFFFFFFF NOT AND DUP2 PUSH28 0xFFFFFFFFFFFFFFFFFFFFFFFFFFFFFFFFFFFFFFFFFFFFFFFFFFFFFFFF NOT AND EQ PUSH2 0x2A36 JUMPI DUP4 PUSH1 0x40 MLOAD PUSH32 0x64A0AE9200000000000000000000000000000000000000000000000000000000 DUP2 MSTORE PUSH1 0x4 ADD PUSH2 0x2A2D SWAP2 SWAP1 PUSH2 0x37CB JUMP JUMPDEST PUSH1 0x40 MLOAD DUP1 SWAP2 SUB SWAP1 REVERT JUMPDEST POP JUMPDEST POP POP POP POP JUMP JUMPDEST PUSH1 0x60 PUSH0 PUSH1 0x1 PUSH2 0x2A4C DUP5 PUSH2 0x3118 JUMP JUMPDEST ADD SWAP1 POP PUSH0 DUP2 PUSH8 0xFFFFFFFFFFFFFFFF DUP2 GT ISZERO PUSH2 0x2A6A JUMPI PUSH2 0x2A69 PUSH2 0x38FC JUMP JUMPDEST JUMPDEST PUSH1 0x40 MLOAD SWAP1 DUP1 DUP3 MSTORE DUP1 PUSH1 0x1F ADD PUSH1 0x1F NOT AND PUSH1 0x20 ADD DUP3 ADD PUSH1 0x40 MSTORE DUP1 ISZERO PUSH2 0x2A9C JUMPI DUP2 PUSH1 0x20 ADD PUSH1 0x1 DUP3 MUL DUP1 CALLDATASIZE DUP4 CALLDATACOPY DUP1 DUP3 ADD SWAP2 POP POP SWAP1 POP JUMPDEST POP SWAP1 POP PUSH0 DUP3 PUSH1 0x20 ADD DUP3 ADD SWAP1 POP JUMPDEST PUSH1 0x1 ISZERO PUSH2 0x2AFD JUMPI DUP1 DUP1 PUSH1 0x1 SWAP1 SUB SWAP2 POP POP PUSH32 0x3031323334353637383961626364656600000000000000000000000000000000 PUSH1 0xA DUP7 MOD BYTE DUP2 MSTORE8 PUSH1 0xA DUP6 DUP2 PUSH2 0x2AF2 JUMPI PUSH2 0x2AF1 PUSH2 0x4B09 JUMP JUMPDEST JUMPDEST DIV SWAP5 POP PUSH0 DUP6 SUB PUSH2 0x2AA9 JUMPI JUMPDEST DUP2 SWAP4 POP POP POP POP SWAP2 SWAP1 POP JUMP JUMPDEST PUSH0 PUSH32 0x80AC58CD00000000000000000000000000000000000000000000000000000000 PUSH28 0xFFFFFFFFFFFFFFFFFFFFFFFFFFFFFFFFFFFFFFFFFFFFFFFFFFFFFFFF NOT AND DUP3 PUSH28 0xFFFFFFFFFFFFFFFFFFFFFFFFFFFFFFFFFFFFFFFFFFFFFFFFFFFFFFFF NOT AND EQ DUP1 PUSH2 0x2BD2 JUMPI POP PUSH32 0x5B5E139F00000000000000000000000000000000000000000000000000000000 PUSH28 0xFFFFFFFFFFFFFFFFFFFFFFFFFFFFFFFFFFFFFFFFFFFFFFFFFFFFFFFF NOT AND DUP3 PUSH28 0xFFFFFFFFFFFFFFFFFFFFFFFFFFFFFFFFFFFFFFFFFFFFFFFFFFFFFFFF NOT AND EQ JUMPDEST DUP1 PUSH2 0x2BE2 JUMPI POP PUSH2 0x2BE1 DUP3 PUSH2 0x3269 JUMP JUMPDEST JUMPDEST SWAP1 POP SWAP2 SWAP1 POP JUMP JUMPDEST PUSH0 DUP1 PUSH2 0x2BF3 PUSH2 0x1E6A JUMP JUMPDEST SWAP1 POP DUP1 PUSH1 0x2 ADD PUSH0 DUP5 DUP2 MSTORE PUSH1 0x20 ADD SWAP1 DUP2 MSTORE PUSH1 0x20 ADD PUSH0 KECCAK256 PUSH0 SWAP1 SLOAD SWAP1 PUSH2 0x100 EXP SWAP1 DIV PUSH20 0xFFFFFFFFFFFFFFFFFFFFFFFFFFFFFFFFFFFFFFFF AND SWAP2 POP POP SWAP2 SWAP1 POP JUMP JUMPDEST PUSH0 PUSH2 0x2C39 PUSH2 0x1E6A JUMP JUMPDEST SWAP1 POP DUP2 DUP1 PUSH2 0x2C73 JUMPI POP PUSH0 PUSH20 0xFFFFFFFFFFFFFFFFFFFFFFFFFFFFFFFFFFFFFFFF AND DUP4 PUSH20 0xFFFFFFFFFFFFFFFFFFFFFFFFFFFFFFFFFFFFFFFF AND EQ ISZERO JUMPDEST ISZERO PUSH2 0x2DA5 JUMPI PUSH0 PUSH2 0x2C82 DUP6 PUSH2 0x1E91 JUMP JUMPDEST SWAP1 POP PUSH0 PUSH20 0xFFFFFFFFFFFFFFFFFFFFFFFFFFFFFFFFFFFFFFFF AND DUP5 PUSH20 0xFFFFFFFFFFFFFFFFFFFFFFFFFFFFFFFFFFFFFFFF AND EQ ISZERO DUP1 ISZERO PUSH2 0x2CEC JUMPI POP DUP4 PUSH20 0xFFFFFFFFFFFFFFFFFFFFFFFFFFFFFFFFFFFFFFFF AND DUP2 PUSH20 0xFFFFFFFFFFFFFFFFFFFFFFFFFFFFFFFFFFFFFFFF AND EQ ISZERO JUMPDEST DUP1 ISZERO PUSH2 0x2CFF JUMPI POP PUSH2 0x2CFD DUP2 DUP6 PUSH2 0x1819 JUMP JUMPDEST ISZERO JUMPDEST ISZERO PUSH2 0x2D41 JUMPI DUP4 PUSH1 0x40 MLOAD PUSH32 0xA9FBF51F00000000000000000000000000000000000000000000000000000000 DUP2 MSTORE PUSH1 0x4 ADD PUSH2 0x2D38 SWAP2 SWAP1 PUSH2 0x37CB JUMP JUMPDEST PUSH1 0x40 MLOAD DUP1 SWAP2 SUB SWAP1 REVERT JUMPDEST DUP3 ISZERO PUSH2 0x2DA3 JUMPI DUP5 DUP7 PUSH20 0xFFFFFFFFFFFFFFFFFFFFFFFFFFFFFFFFFFFFFFFF AND DUP3 PUSH20 0xFFFFFFFFFFFFFFFFFFFFFFFFFFFFFFFFFFFFFFFF AND PUSH32 0x8C5BE1E5EBEC7D5BD14F71427D1E84F3DD0314C0F7B2291E5B200AC8C7C3B925 PUSH1 0x40 MLOAD PUSH1 0x40 MLOAD DUP1 SWAP2 SUB SWAP1 LOG4 JUMPDEST POP JUMPDEST DUP5 DUP2 PUSH1 0x4 ADD PUSH0 DUP7 DUP2 MSTORE PUSH1 0x20 ADD SWAP1 DUP2 MSTORE PUSH1 0x20 ADD PUSH0 KECCAK256 PUSH0 PUSH2 0x100 EXP DUP2 SLOAD DUP2 PUSH20 0xFFFFFFFFFFFFFFFFFFFFFFFFFFFFFFFFFFFFFFFF MUL NOT AND SWAP1 DUP4 PUSH20 0xFFFFFFFFFFFFFFFFFFFFFFFFFFFFFFFFFFFFFFFF AND MUL OR SWAP1 SSTORE POP POP POP POP POP POP JUMP JUMPDEST PUSH2 0x2E05 PUSH2 0x32D2 JUMP JUMPDEST PUSH2 0x2E0F DUP3 DUP3 PUSH2 0x3312 JUMP JUMPDEST POP POP JUMP JUMPDEST PUSH2 0x2E1B PUSH2 0x32D2 JUMP JUMPDEST JUMP JUMPDEST PUSH2 0x2E25 PUSH2 0x32D2 JUMP JUMPDEST PUSH2 0x2E2E DUP2 PUSH2 0x334D JUMP JUMPDEST POP JUMP JUMPDEST PUSH2 0x2E3C DUP4 DUP4 DUP4 PUSH2 0x33D1 JUMP JUMPDEST PUSH2 0x2EEF JUMPI PUSH0 PUSH20 0xFFFFFFFFFFFFFFFFFFFFFFFFFFFFFFFFFFFFFFFF AND DUP4 PUSH20 0xFFFFFFFFFFFFFFFFFFFFFFFFFFFFFFFFFFFFFFFF AND SUB PUSH2 0x2EB0 JUMPI DUP1 PUSH1 0x40 MLOAD PUSH32 0x7E27328900000000000000000000000000000000000000000000000000000000 DUP2 MSTORE PUSH1 0x4 ADD PUSH2 0x2EA7 SWAP2 SWAP1 PUSH2 0x3B6D JUMP JUMPDEST PUSH1 0x40 MLOAD DUP1 SWAP2 SUB SWAP1 REVERT JUMPDEST DUP2 DUP2 PUSH1 0x40 MLOAD PUSH32 0x177E802F00000000000000000000000000000000000000000000000000000000 DUP2 MSTORE PUSH1 0x4 ADD PUSH2 0x2EE6 SWAP3 SWAP2 SWAP1 PUSH2 0x4C41 JUMP JUMPDEST PUSH1 0x40 MLOAD DUP1 SWAP2 SUB SWAP1 REVERT JUMPDEST POP POP POP JUMP JUMPDEST PUSH0 DUP1 PUSH1 0x4 PUSH0 DUP2 SLOAD PUSH2 0x2F04 SWAP1 PUSH2 0x4A21 JUMP JUMPDEST SWAP2 SWAP1 POP DUP2 SWAP1 SSTORE SWAP1 POP PUSH1 0x40 MLOAD DUP1 PUSH1 0xE0 ADD PUSH1 0x40 MSTORE DUP1 DUP11 DUP11 DUP1 DUP1 PUSH1 0x1F ADD PUSH1 0x20 DUP1 SWAP2 DIV MUL PUSH1 0x20 ADD PUSH1 0x40 MLOAD SWAP1 DUP2 ADD PUSH1 0x40 MSTORE DUP1 SWAP4 SWAP3 SWAP2 SWAP1 DUP2 DUP2 MSTORE PUSH1 0x20 ADD DUP4 DUP4 DUP1 DUP3 DUP5 CALLDATACOPY PUSH0 DUP2 DUP5 ADD MSTORE PUSH1 0x1F NOT PUSH1 0x1F DUP3 ADD AND SWAP1 POP DUP1 DUP4 ADD SWAP3 POP POP POP POP POP POP POP DUP2 MSTORE PUSH1 0x20 ADD PUSH0 DUP2 MSTORE PUSH1 0x20 ADD DUP9 DUP2 MSTORE PUSH1 0x20 ADD DUP8 DUP2 MSTORE PUSH1 0x20 ADD DUP7 DUP2 MSTORE PUSH1 0x20 ADD DUP5 ISZERO ISZERO DUP2 MSTORE PUSH1 0x20 ADD TIMESTAMP DUP2 MSTORE POP PUSH0 DUP1 DUP4 DUP2 MSTORE PUSH1 0x20 ADD SWAP1 DUP2 MSTORE PUSH1 0x20 ADD PUSH0 KECCAK256 PUSH0 DUP3 ADD MLOAD DUP2 PUSH0 ADD SWAP1 DUP2 PUSH2 0x2FA7 SWAP2 SWAP1 PUSH2 0x4C68 JUMP JUMPDEST POP PUSH1 0x20 DUP3 ADD MLOAD DUP2 PUSH1 0x1 ADD SSTORE PUSH1 0x40 DUP3 ADD MLOAD DUP2 PUSH1 0x2 ADD SSTORE PUSH1 0x60 DUP3 ADD MLOAD DUP2 PUSH1 0x3 ADD SSTORE PUSH1 0x80 DUP3 ADD MLOAD DUP2 PUSH1 0x4 ADD SSTORE PUSH1 0xA0 DUP3 ADD MLOAD DUP2 PUSH1 0x5 ADD PUSH0 PUSH2 0x100 EXP DUP2 SLOAD DUP2 PUSH1 0xFF MUL NOT AND SWAP1 DUP4 ISZERO ISZERO MUL OR SWAP1 SSTORE POP PUSH1 0xC0 DUP3 ADD MLOAD DUP2 PUSH1 0x6 ADD SSTORE SWAP1 POP POP PUSH3 0x2A300 TIMESTAMP PUSH2 0x300B SWAP2 SWAP1 PUSH2 0x4223 JUMP JUMPDEST PUSH1 0x2 PUSH0 DUP4 DUP2 MSTORE PUSH1 0x20 ADD SWAP1 DUP2 MSTORE PUSH1 0x20 ADD PUSH0 KECCAK256 PUSH0 ADD DUP2 SWAP1 SSTORE POP PUSH0 PUSH1 0x1 PUSH0 DUP4 DUP2 MSTORE PUSH1 0x20 ADD SWAP1 DUP2 MSTORE PUSH1 0x20 ADD PUSH0 KECCAK256 PUSH0 PUSH2 0x100 EXP DUP2 SLOAD DUP2 PUSH1 0xFF MUL NOT AND SWAP1 DUP4 PUSH1 0x3 DUP2 GT ISZERO PUSH2 0x3055 JUMPI PUSH2 0x3054 PUSH2 0x3C5F JUMP JUMPDEST JUMPDEST MUL OR SWAP1 SSTORE POP PUSH2 0x3064 DUP5 DUP3 PUSH2 0x3491 JUMP JUMPDEST PUSH1 0x3 PUSH0 DUP6 PUSH20 0xFFFFFFFFFFFFFFFFFFFFFFFFFFFFFFFFFFFFFFFF AND PUSH20 0xFFFFFFFFFFFFFFFFFFFFFFFFFFFFFFFFFFFFFFFF AND DUP2 MSTORE PUSH1 0x20 ADD SWAP1 DUP2 MSTORE PUSH1 0x20 ADD PUSH0 KECCAK256 DUP2 SWAP1 DUP1 PUSH1 0x1 DUP2 SLOAD ADD DUP1 DUP3 SSTORE DUP1 SWAP2 POP POP PUSH1 0x1 SWAP1 SUB SWAP1 PUSH0 MSTORE PUSH1 0x20 PUSH0 KECCAK256 ADD PUSH0 SWAP1 SWAP2 SWAP1 SWAP2 SWAP1 SWAP2 POP SSTORE DUP1 DUP5 PUSH20 0xFFFFFFFFFFFFFFFFFFFFFFFFFFFFFFFFFFFFFFFF AND PUSH32 0xB9144C96C86541F6FA89C9F2F02495CCCF4B08CD6643E26D34EE00AA586558A8 PUSH1 0x40 MLOAD PUSH1 0x40 MLOAD DUP1 SWAP2 SUB SWAP1 LOG3 DUP1 SWAP2 POP POP SWAP8 SWAP7 POP POP POP POP POP POP POP JUMP JUMPDEST PUSH0 DUP1 PUSH0 SWAP1 POP PUSH27 0x184F03E93FF9F4DAA797ED6E38ED64BF6A1F010000000000000000 DUP4 LT PUSH2 0x3174 JUMPI PUSH27 0x184F03E93FF9F4DAA797ED6E38ED64BF6A1F010000000000000000 DUP4 DUP2 PUSH2 0x316A JUMPI PUSH2 0x3169 PUSH2 0x4B09 JUMP JUMPDEST JUMPDEST DIV SWAP3 POP PUSH1 0x40 DUP2 ADD SWAP1 POP JUMPDEST PUSH14 0x4EE2D6D415B85ACEF8100000000 DUP4 LT PUSH2 0x31B1 JUMPI PUSH14 0x4EE2D6D415B85ACEF8100000000 DUP4 DUP2 PUSH2 0x31A7 JUMPI PUSH2 0x31A6 PUSH2 0x4B09 JUMP JUMPDEST JUMPDEST DIV SWAP3 POP PUSH1 0x20 DUP2 ADD SWAP1 POP JUMPDEST PUSH7 0x2386F26FC10000 DUP4 LT PUSH2 0x31E0 JUMPI PUSH7 0x2386F26FC10000 DUP4 DUP2 PUSH2 0x31D6 JUMPI PUSH2 0x31D5 PUSH2 0x4B09 JUMP JUMPDEST JUMPDEST DIV SWAP3 POP PUSH1 0x10 DUP2 ADD SWAP1 POP JUMPDEST PUSH4 0x5F5E100 DUP4 LT PUSH2 0x3209 JUMPI PUSH4 0x5F5E100 DUP4 DUP2 PUSH2 0x31FF JUMPI PUSH2 0x31FE PUSH2 0x4B09 JUMP JUMPDEST JUMPDEST DIV SWAP3 POP PUSH1 0x8 DUP2 ADD SWAP1 POP JUMPDEST PUSH2 0x2710 DUP4 LT PUSH2 0x322E JUMPI PUSH2 0x2710 DUP4 DUP2 PUSH2 0x3224 JUMPI PUSH2 0x3223 PUSH2 0x4B09 JUMP JUMPDEST JUMPDEST DIV SWAP3 POP PUSH1 0x4 DUP2 ADD SWAP1 POP JUMPDEST PUSH1 0x64 DUP4 LT PUSH2 0x3251 JUMPI PUSH1 0x64 DUP4 DUP2 PUSH2 0x3247 JUMPI PUSH2 0x3246 PUSH2 0x4B09 JUMP JUMPDEST JUMPDEST DIV SWAP3 POP PUSH1 0x2 DUP2 ADD SWAP1 POP JUMPDEST PUSH1 0xA DUP4 LT PUSH2 0x3260 JUMPI PUSH1 0x1 DUP2 ADD SWAP1 POP JUMPDEST DUP1 SWAP2 POP POP SWAP2 SWAP1 POP JUMP JUMPDEST PUSH0 PUSH32 0x1FFC9A700000000000000000000000000000000000000000000000000000000 PUSH28 0xFFFFFFFFFFFFFFFFFFFFFFFFFFFFFFFFFFFFFFFFFFFFFFFFFFFFFFFF NOT AND DUP3 PUSH28 0xFFFFFFFFFFFFFFFFFFFFFFFFFFFFFFFFFFFFFFFFFFFFFFFFFFFFFFFF NOT AND EQ SWAP1 POP SWAP2 SWAP1 POP JUMP JUMPDEST PUSH2 0x32DA PUSH2 0x34AE JUMP JUMPDEST PUSH2 0x3310 JUMPI PUSH1 0x40 MLOAD PUSH32 0xD7E6BCF800000000000000000000000000000000000000000000000000000000 DUP2 MSTORE PUSH1 0x4 ADD PUSH1 0x40 MLOAD DUP1 SWAP2 SUB SWAP1 REVERT JUMPDEST JUMP JUMPDEST PUSH2 0x331A PUSH2 0x32D2 JUMP JUMPDEST PUSH0 PUSH2 0x3323 PUSH2 0x1E6A JUMP JUMPDEST SWAP1 POP DUP3 DUP2 PUSH0 ADD SWAP1 DUP2 PUSH2 0x3335 SWAP2 SWAP1 PUSH2 0x4C68 JUMP JUMPDEST POP DUP2 DUP2 PUSH1 0x1 ADD SWAP1 DUP2 PUSH2 0x3347 SWAP2 SWAP1 PUSH2 0x4C68 JUMP JUMPDEST POP POP POP POP JUMP JUMPDEST PUSH2 0x3355 PUSH2 0x32D2 JUMP JUMPDEST PUSH0 PUSH20 0xFFFFFFFFFFFFFFFFFFFFFFFFFFFFFFFFFFFFFFFF AND DUP2 PUSH20 0xFFFFFFFFFFFFFFFFFFFFFFFFFFFFFFFFFFFFFFFF AND SUB PUSH2 0x33C5 JUMPI PUSH0 PUSH1 0x40 MLOAD PUSH32 0x1E4FBDF700000000000000000000000000000000000000000000000000000000 DUP2 MSTORE PUSH1 0x4 ADD PUSH2 0x33BC SWAP2 SWAP1 PUSH2 0x37CB JUMP JUMPDEST PUSH1 0x40 MLOAD DUP1 SWAP2 SUB SWAP1 REVERT JUMPDEST PUSH2 0x33CE DUP2 PUSH2 0x248A JUMP JUMPDEST POP JUMP JUMPDEST PUSH0 DUP1 PUSH20 0xFFFFFFFFFFFFFFFFFFFFFFFFFFFFFFFFFFFFFFFF AND DUP4 PUSH20 0xFFFFFFFFFFFFFFFFFFFFFFFFFFFFFFFFFFFFFFFF AND EQ ISZERO DUP1 ISZERO PUSH2 0x3488 JUMPI POP DUP3 PUSH20 0xFFFFFFFFFFFFFFFFFFFFFFFFFFFFFFFFFFFFFFFF AND DUP5 PUSH20 0xFFFFFFFFFFFFFFFFFFFFFFFFFFFFFFFFFFFFFFFF AND EQ DUP1 PUSH2 0x3449 JUMPI POP PUSH2 0x3448 DUP5 DUP5 PUSH2 0x1819 JUMP JUMPDEST JUMPDEST DUP1 PUSH2 0x3487 JUMPI POP DUP3 PUSH20 0xFFFFFFFFFFFFFFFFFFFFFFFFFFFFFFFFFFFFFFFF AND PUSH2 0x346F DUP4 PUSH2 0x1F17 JUMP JUMPDEST PUSH20 0xFFFFFFFFFFFFFFFFFFFFFFFFFFFFFFFFFFFFFFFF AND EQ JUMPDEST JUMPDEST SWAP1 POP SWAP4 SWAP3 POP POP POP JUMP JUMPDEST PUSH2 0x34AA DUP3 DUP3 PUSH1 0x40 MLOAD DUP1 PUSH1 0x20 ADD PUSH1 0x40 MSTORE DUP1 PUSH0 DUP2 MSTORE POP PUSH2 0x34CC JUMP JUMPDEST POP POP JUMP JUMPDEST PUSH0 PUSH2 0x34B7 PUSH2 0x2062 JUMP JUMPDEST PUSH0 ADD PUSH1 0x8 SWAP1 SLOAD SWAP1 PUSH2 0x100 EXP SWAP1 DIV PUSH1 0xFF AND SWAP1 POP SWAP1 JUMP JUMPDEST PUSH2 0x34D6 DUP4 DUP4 PUSH2 0x34E7 JUMP JUMPDEST PUSH2 0x34E2 PUSH0 DUP5 DUP5 DUP5 PUSH2 0x288C JUMP JUMPDEST POP POP POP JUMP JUMPDEST PUSH0 PUSH20 0xFFFFFFFFFFFFFFFFFFFFFFFFFFFFFFFFFFFFFFFF AND DUP3 PUSH20 0xFFFFFFFFFFFFFFFFFFFFFFFFFFFFFFFFFFFFFFFF AND SUB PUSH2 0x3557 JUMPI PUSH0 PUSH1 0x40 MLOAD PUSH32 0x64A0AE9200000000000000000000000000000000000000000000000000000000 DUP2 MSTORE PUSH1 0x4 ADD PUSH2 0x354E SWAP2 SWAP1 PUSH2 0x37CB JUMP JUMPDEST PUSH1 0x40 MLOAD DUP1 SWAP2 SUB SWAP1 REVERT JUMPDEST PUSH0 PUSH2 0x3563 DUP4 DUP4 PUSH0 PUSH2 0x226D JUMP JUMPDEST SWAP1 POP PUSH0 PUSH20 0xFFFFFFFFFFFFFFFFFFFFFFFFFFFFFFFFFFFFFFFF AND DUP2 PUSH20 0xFFFFFFFFFFFFFFFFFFFFFFFFFFFFFFFFFFFFFFFF AND EQ PUSH2 0x35D5 JUMPI PUSH0 PUSH1 0x40 MLOAD PUSH32 0x73C6AC6E00000000000000000000000000000000000000000000000000000000 DUP2 MSTORE PUSH1 0x4 ADD PUSH2 0x35CC SWAP2 SWAP1 PUSH2 0x37CB JUMP JUMPDEST PUSH1 0x40 MLOAD DUP1 SWAP2 SUB SWAP1 REVERT JUMPDEST POP POP POP JUMP JUMPDEST PUSH0 PUSH1 0x40 MLOAD SWAP1 POP SWAP1 JUMP JUMPDEST PUSH0 DUP1 REVERT JUMPDEST PUSH0 DUP1 REVERT JUMPDEST PUSH0 DUP2 SWAP1 POP SWAP2 SWAP1 POP JUMP JUMPDEST PUSH2 0x35FD DUP2 PUSH2 0x35EB JUMP JUMPDEST DUP2 EQ PUSH2 0x3607 JUMPI PUSH0 DUP1 REVERT JUMPDEST POP JUMP JUMPDEST PUSH0 DUP2 CALLDATALOAD SWAP1 POP PUSH2 0x3618 DUP2 PUSH2 0x35F4 JUMP JUMPDEST SWAP3 SWAP2 POP POP JUMP JUMPDEST PUSH0 PUSH1 0x20 DUP3 DUP5 SUB SLT ISZERO PUSH2 0x3633 JUMPI PUSH2 0x3632 PUSH2 0x35E3 JUMP JUMPDEST JUMPDEST PUSH0 PUSH2 0x3640 DUP5 DUP3 DUP6 ADD PUSH2 0x360A JUMP JUMPDEST SWAP2 POP POP SWAP3 SWAP2 POP POP JUMP JUMPDEST PUSH0 PUSH32 0xFFFFFFFF00000000000000000000000000000000000000000000000000000000 DUP3 AND SWAP1 POP SWAP2 SWAP1 POP JUMP JUMPDEST PUSH2 0x367D DUP2 PUSH2 0x3649 JUMP JUMPDEST DUP2 EQ PUSH2 0x3687 JUMPI PUSH0 DUP1 REVERT JUMPDEST POP JUMP JUMPDEST PUSH0 DUP2 CALLDATALOAD SWAP1 POP PUSH2 0x3698 DUP2 PUSH2 0x3674 JUMP JUMPDEST SWAP3 SWAP2 POP POP JUMP JUMPDEST PUSH0 PUSH1 0x20 DUP3 DUP5 SUB SLT ISZERO PUSH2 0x36B3 JUMPI PUSH2 0x36B2 PUSH2 0x35E3 JUMP JUMPDEST JUMPDEST PUSH0 PUSH2 0x36C0 DUP5 DUP3 DUP6 ADD PUSH2 0x368A JUMP JUMPDEST SWAP2 POP POP SWAP3 SWAP2 POP POP JUMP JUMPDEST PUSH0 DUP2 ISZERO ISZERO SWAP1 POP SWAP2 SWAP1 POP JUMP JUMPDEST PUSH2 0x36DD DUP2 PUSH2 0x36C9 JUMP JUMPDEST DUP3 MSTORE POP POP JUMP JUMPDEST PUSH0 PUSH1 0x20 DUP3 ADD SWAP1 POP PUSH2 0x36F6 PUSH0 DUP4 ADD DUP5 PUSH2 0x36D4 JUMP JUMPDEST SWAP3 SWAP2 POP POP JUMP JUMPDEST PUSH0 DUP2 MLOAD SWAP1 POP SWAP2 SWAP1 POP JUMP JUMPDEST PUSH0 DUP3 DUP3 MSTORE PUSH1 0x20 DUP3 ADD SWAP1 POP SWAP3 SWAP2 POP POP JUMP JUMPDEST DUP3 DUP2 DUP4 MCOPY PUSH0 DUP4 DUP4 ADD MSTORE POP POP POP JUMP JUMPDEST PUSH0 PUSH1 0x1F NOT PUSH1 0x1F DUP4 ADD AND SWAP1 POP SWAP2 SWAP1 POP JUMP JUMPDEST PUSH0 PUSH2 0x373E DUP3 PUSH2 0x36FC JUMP JUMPDEST PUSH2 0x3748 DUP2 DUP6 PUSH2 0x3706 JUMP JUMPDEST SWAP4 POP PUSH2 0x3758 DUP2 DUP6 PUSH1 0x20 DUP7 ADD PUSH2 0x3716 JUMP JUMPDEST PUSH2 0x3761 DUP2 PUSH2 0x3724 JUMP JUMPDEST DUP5 ADD SWAP2 POP POP SWAP3 SWAP2 POP POP JUMP JUMPDEST PUSH0 PUSH1 0x20 DUP3 ADD SWAP1 POP DUP2 DUP2 SUB PUSH0 DUP4 ADD MSTORE PUSH2 0x3784 DUP2 DUP5 PUSH2 0x3734 JUMP JUMPDEST SWAP1 POP SWAP3 SWAP2 POP POP JUMP JUMPDEST PUSH0 PUSH20 0xFFFFFFFFFFFFFFFFFFFFFFFFFFFFFFFFFFFFFFFF DUP3 AND SWAP1 POP SWAP2 SWAP1 POP JUMP JUMPDEST PUSH0 PUSH2 0x37B5 DUP3 PUSH2 0x378C JUMP JUMPDEST SWAP1 POP SWAP2 SWAP1 POP JUMP JUMPDEST PUSH2 0x37C5 DUP2 PUSH2 0x37AB JUMP JUMPDEST DUP3 MSTORE POP POP JUMP JUMPDEST PUSH0 PUSH1 0x20 DUP3 ADD SWAP1 POP PUSH2 0x37DE PUSH0 DUP4 ADD DUP5 PUSH2 0x37BC JUMP JUMPDEST SWAP3 SWAP2 POP POP JUMP JUMPDEST PUSH2 0x37ED DUP2 PUSH2 0x37AB JUMP JUMPDEST DUP2 EQ PUSH2 0x37F7 JUMPI PUSH0 DUP1 REVERT JUMPDEST POP JUMP JUMPDEST PUSH0 DUP2 CALLDATALOAD SWAP1 POP PUSH2 0x3808 DUP2 PUSH2 0x37E4 JUMP JUMPDEST SWAP3 SWAP2 POP POP JUMP JUMPDEST PUSH0 DUP1 PUSH1 0x40 DUP4 DUP6 SUB SLT ISZERO PUSH2 0x3824 JUMPI PUSH2 0x3823 PUSH2 0x35E3 JUMP JUMPDEST JUMPDEST PUSH0 PUSH2 0x3831 DUP6 DUP3 DUP7 ADD PUSH2 0x37FA JUMP JUMPDEST SWAP3 POP POP PUSH1 0x20 PUSH2 0x3842 DUP6 DUP3 DUP7 ADD PUSH2 0x360A JUMP JUMPDEST SWAP2 POP POP SWAP3 POP SWAP3 SWAP1 POP JUMP JUMPDEST PUSH0 DUP1 REVERT JUMPDEST PUSH0 DUP1 REVERT JUMPDEST PUSH0 DUP1 REVERT JUMPDEST PUSH0 DUP1 DUP4 PUSH1 0x1F DUP5 ADD SLT PUSH2 0x386D JUMPI PUSH2 0x386C PUSH2 0x384C JUMP JUMPDEST JUMPDEST DUP3 CALLDATALOAD SWAP1 POP PUSH8 0xFFFFFFFFFFFFFFFF DUP2 GT ISZERO PUSH2 0x388A JUMPI PUSH2 0x3889 PUSH2 0x3850 JUMP JUMPDEST JUMPDEST PUSH1 0x20 DUP4 ADD SWAP2 POP DUP4 PUSH1 0x1 DUP3 MUL DUP4 ADD GT ISZERO PUSH2 0x38A6 JUMPI PUSH2 0x38A5 PUSH2 0x3854 JUMP JUMPDEST JUMPDEST SWAP3 POP SWAP3 SWAP1 POP JUMP JUMPDEST PUSH0 DUP1 PUSH1 0x20 DUP4 DUP6 SUB SLT ISZERO PUSH2 0x38C3 JUMPI PUSH2 0x38C2 PUSH2 0x35E3 JUMP JUMPDEST JUMPDEST PUSH0 DUP4 ADD CALLDATALOAD PUSH8 0xFFFFFFFFFFFFFFFF DUP2 GT ISZERO PUSH2 0x38E0 JUMPI PUSH2 0x38DF PUSH2 0x35E7 JUMP JUMPDEST JUMPDEST PUSH2 0x38EC DUP6 DUP3 DUP7 ADD PUSH2 0x3858 JUMP JUMPDEST SWAP3 POP SWAP3 POP POP SWAP3 POP SWAP3 SWAP1 POP JUMP JUMPDEST PUSH0 DUP1 REVERT JUMPDEST PUSH32 0x4E487B7100000000000000000000000000000000000000000000000000000000 PUSH0 MSTORE PUSH1 0x41 PUSH1 0x4 MSTORE PUSH1 0x24 PUSH0 REVERT JUMPDEST PUSH2 0x3932 DUP3 PUSH2 0x3724 JUMP JUMPDEST DUP2 ADD DUP2 DUP2 LT PUSH8 0xFFFFFFFFFFFFFFFF DUP3 GT OR ISZERO PUSH2 0x3951 JUMPI PUSH2 0x3950 PUSH2 0x38FC JUMP JUMPDEST JUMPDEST DUP1 PUSH1 0x40 MSTORE POP POP POP JUMP JUMPDEST PUSH0 PUSH2 0x3963 PUSH2 0x35DA JUMP JUMPDEST SWAP1 POP PUSH2 0x396F DUP3 DUP3 PUSH2 0x3929 JUMP JUMPDEST SWAP2 SWAP1 POP JUMP JUMPDEST PUSH0 PUSH8 0xFFFFFFFFFFFFFFFF DUP3 GT ISZERO PUSH2 0x398E JUMPI PUSH2 0x398D PUSH2 0x38FC JUMP JUMPDEST JUMPDEST PUSH2 0x3997 DUP3 PUSH2 0x3724 JUMP JUMPDEST SWAP1 POP PUSH1 0x20 DUP2 ADD SWAP1 POP SWAP2 SWAP1 POP JUMP JUMPDEST DUP3 DUP2 DUP4 CALLDATACOPY PUSH0 DUP4 DUP4 ADD MSTORE POP POP POP JUMP JUMPDEST PUSH0 PUSH2 0x39C4 PUSH2 0x39BF DUP5 PUSH2 0x3974 JUMP JUMPDEST PUSH2 0x395A JUMP JUMPDEST SWAP1 POP DUP3 DUP2 MSTORE PUSH1 0x20 DUP2 ADD DUP5 DUP5 DUP5 ADD GT ISZERO PUSH2 0x39E0 JUMPI PUSH2 0x39DF PUSH2 0x38F8 JUMP JUMPDEST JUMPDEST PUSH2 0x39EB DUP5 DUP3 DUP6 PUSH2 0x39A4 JUMP JUMPDEST POP SWAP4 SWAP3 POP POP POP JUMP JUMPDEST PUSH0 DUP3 PUSH1 0x1F DUP4 ADD SLT PUSH2 0x3A07 JUMPI PUSH2 0x3A06 PUSH2 0x384C JUMP JUMPDEST JUMPDEST DUP2 CALLDATALOAD PUSH2 0x3A17 DUP5 DUP3 PUSH1 0x20 DUP7 ADD PUSH2 0x39B2 JUMP JUMPDEST SWAP2 POP POP SWAP3 SWAP2 POP POP JUMP JUMPDEST PUSH0 DUP1 PUSH0 DUP1 PUSH1 0x80 DUP6 DUP8 SUB SLT ISZERO PUSH2 0x3A38 JUMPI PUSH2 0x3A37 PUSH2 0x35E3 JUMP JUMPDEST JUMPDEST PUSH0 PUSH2 0x3A45 DUP8 DUP3 DUP9 ADD PUSH2 0x37FA JUMP JUMPDEST SWAP5 POP POP PUSH1 0x20 PUSH2 0x3A56 DUP8 DUP3 DUP9 ADD PUSH2 0x37FA JUMP JUMPDEST SWAP4 POP POP PUSH1 0x40 DUP6 ADD CALLDATALOAD PUSH8 0xFFFFFFFFFFFFFFFF DUP2 GT ISZERO PUSH2 0x3A77 JUMPI PUSH2 0x3A76 PUSH2 0x35E7 JUMP JUMPDEST JUMPDEST PUSH2 0x3A83 DUP8 DUP3 DUP9 ADD PUSH2 0x39F3 JUMP JUMPDEST SWAP3 POP POP PUSH1 0x60 DUP6 ADD CALLDATALOAD PUSH8 0xFFFFFFFFFFFFFFFF DUP2 GT ISZERO PUSH2 0x3AA4 JUMPI PUSH2 0x3AA3 PUSH2 0x35E7 JUMP JUMPDEST JUMPDEST PUSH2 0x3AB0 DUP8 DUP3 DUP9 ADD PUSH2 0x39F3 JUMP JUMPDEST SWAP2 POP POP SWAP3 SWAP6 SWAP2 SWAP5 POP SWAP3 POP JUMP JUMPDEST PUSH0 DUP1 PUSH0 PUSH1 0x60 DUP5 DUP7 SUB SLT ISZERO PUSH2 0x3AD3 JUMPI PUSH2 0x3AD2 PUSH2 0x35E3 JUMP JUMPDEST JUMPDEST PUSH0 PUSH2 0x3AE0 DUP7 DUP3 DUP8 ADD PUSH2 0x37FA JUMP JUMPDEST SWAP4 POP POP PUSH1 0x20 PUSH2 0x3AF1 DUP7 DUP3 DUP8 ADD PUSH2 0x37FA JUMP JUMPDEST SWAP3 POP POP PUSH1 0x40 PUSH2 0x3B02 DUP7 DUP3 DUP8 ADD PUSH2 0x360A JUMP JUMPDEST SWAP2 POP POP SWAP3 POP SWAP3 POP SWAP3 JUMP JUMPDEST PUSH2 0x3B15 DUP2 PUSH2 0x35EB JUMP JUMPDEST DUP3 MSTORE POP POP JUMP JUMPDEST PUSH0 PUSH1 0x40 DUP3 ADD SWAP1 POP PUSH2 0x3B2E PUSH0 DUP4 ADD DUP6 PUSH2 0x3B0C JUMP JUMPDEST PUSH2 0x3B3B PUSH1 0x20 DUP4 ADD DUP5 PUSH2 0x3B0C JUMP JUMPDEST SWAP4 SWAP3 POP POP POP JUMP JUMPDEST PUSH0 PUSH1 0x20 DUP3 DUP5 SUB SLT ISZERO PUSH2 0x3B57 JUMPI PUSH2 0x3B56 PUSH2 0x35E3 JUMP JUMPDEST JUMPDEST PUSH0 PUSH2 0x3B64 DUP5 DUP3 DUP6 ADD PUSH2 0x37FA JUMP JUMPDEST SWAP2 POP POP SWAP3 SWAP2 POP POP JUMP JUMPDEST PUSH0 PUSH1 0x20 DUP3 ADD SWAP1 POP PUSH2 0x3B80 PUSH0 DUP4 ADD DUP5 PUSH2 0x3B0C JUMP JUMPDEST SWAP3 SWAP2 POP POP JUMP JUMPDEST PUSH0 DUP1 PUSH0 DUP1 PUSH1 0x60 DUP6 DUP8 SUB SLT ISZERO PUSH2 0x3B9E JUMPI PUSH2 0x3B9D PUSH2 0x35E3 JUMP JUMPDEST JUMPDEST PUSH0 DUP6 ADD CALLDATALOAD PUSH8 0xFFFFFFFFFFFFFFFF DUP2 GT ISZERO PUSH2 0x3BBB JUMPI PUSH2 0x3BBA PUSH2 0x35E7 JUMP JUMPDEST JUMPDEST PUSH2 0x3BC7 DUP8 DUP3 DUP9 ADD PUSH2 0x3858 JUMP JUMPDEST SWAP5 POP SWAP5 POP POP PUSH1 0x20 PUSH2 0x3BDA DUP8 DUP3 DUP9 ADD PUSH2 0x360A JUMP JUMPDEST SWAP3 POP POP PUSH1 0x40 PUSH2 0x3BEB DUP8 DUP3 DUP9 ADD PUSH2 0x360A JUMP JUMPDEST SWAP2 POP POP SWAP3 SWAP6 SWAP2 SWAP5 POP SWAP3 POP JUMP JUMPDEST PUSH2 0x3C00 DUP2 PUSH2 0x36C9 JUMP JUMPDEST DUP2 EQ PUSH2 0x3C0A JUMPI PUSH0 DUP1 REVERT JUMPDEST POP JUMP JUMPDEST PUSH0 DUP2 CALLDATALOAD SWAP1 POP PUSH2 0x3C1B DUP2 PUSH2 0x3BF7 JUMP JUMPDEST SWAP3 SWAP2 POP POP JUMP JUMPDEST PUSH0 DUP1 PUSH1 0x40 DUP4 DUP6 SUB SLT ISZERO PUSH2 0x3C37 JUMPI PUSH2 0x3C36 PUSH2 0x35E3 JUMP JUMPDEST JUMPDEST PUSH0 PUSH2 0x3C44 DUP6 DUP3 DUP7 ADD PUSH2 0x37FA JUMP JUMPDEST SWAP3 POP POP PUSH1 0x20 PUSH2 0x3C55 DUP6 DUP3 DUP7 ADD PUSH2 0x3C0D JUMP JUMPDEST SWAP2 POP POP SWAP3 POP SWAP3 SWAP1 POP JUMP JUMPDEST PUSH32 0x4E487B7100000000000000000000000000000000000000000000000000000000 PUSH0 MSTORE PUSH1 0x21 PUSH1 0x4 MSTORE PUSH1 0x24 PUSH0 REVERT JUMPDEST PUSH1 0x4 DUP2 LT PUSH2 0x3C9D JUMPI PUSH2 0x3C9C PUSH2 0x3C5F JUMP JUMPDEST JUMPDEST POP JUMP JUMPDEST PUSH0 DUP2 SWAP1 POP PUSH2 0x3CAD DUP3 PUSH2 0x3C8C JUMP JUMPDEST SWAP2 SWAP1 POP JUMP JUMPDEST PUSH0 PUSH2 0x3CBC DUP3 PUSH2 0x3CA0 JUMP JUMPDEST SWAP1 POP SWAP2 SWAP1 POP JUMP JUMPDEST PUSH2 0x3CCC DUP2 PUSH2 0x3CB2 JUMP JUMPDEST DUP3 MSTORE POP POP JUMP JUMPDEST PUSH0 PUSH1 0x40 DUP3 ADD SWAP1 POP PUSH2 0x3CE5 PUSH0 DUP4 ADD DUP6 PUSH2 0x3CC3 JUMP JUMPDEST PUSH2 0x3CF2 PUSH1 0x20 DUP4 ADD DUP5 PUSH2 0x3B0C JUMP JUMPDEST SWAP4 SWAP3 POP POP POP JUMP JUMPDEST PUSH0 PUSH8 0xFFFFFFFFFFFFFFFF DUP3 GT ISZERO PUSH2 0x3D13 JUMPI PUSH2 0x3D12 PUSH2 0x38FC JUMP JUMPDEST JUMPDEST PUSH2 0x3D1C DUP3 PUSH2 0x3724 JUMP JUMPDEST SWAP1 POP PUSH1 0x20 DUP2 ADD SWAP1 POP SWAP2 SWAP1 POP JUMP JUMPDEST PUSH0 PUSH2 0x3D3B PUSH2 0x3D36 DUP5 PUSH2 0x3CF9 JUMP JUMPDEST PUSH2 0x395A JUMP JUMPDEST SWAP1 POP DUP3 DUP2 MSTORE PUSH1 0x20 DUP2 ADD DUP5 DUP5 DUP5 ADD GT ISZERO PUSH2 0x3D57 JUMPI PUSH2 0x3D56 PUSH2 0x38F8 JUMP JUMPDEST JUMPDEST PUSH2 0x3D62 DUP5 DUP3 DUP6 PUSH2 0x39A4 JUMP JUMPDEST POP SWAP4 SWAP3 POP POP POP JUMP JUMPDEST PUSH0 DUP3 PUSH1 0x1F DUP4 ADD SLT PUSH2 0x3D7E JUMPI PUSH2 0x3D7D PUSH2 0x384C JUMP JUMPDEST JUMPDEST DUP2 CALLDATALOAD PUSH2 0x3D8E DUP5 DUP3 PUSH1 0x20 DUP7 ADD PUSH2 0x3D29 JUMP JUMPDEST SWAP2 POP POP SWAP3 SWAP2 POP POP JUMP JUMPDEST PUSH0 DUP1 PUSH0 DUP1 PUSH1 0x80 DUP6 DUP8 SUB SLT ISZERO PUSH2 0x3DAF JUMPI PUSH2 0x3DAE PUSH2 0x35E3 JUMP JUMPDEST JUMPDEST PUSH0 PUSH2 0x3DBC DUP8 DUP3 DUP9 ADD PUSH2 0x37FA JUMP JUMPDEST SWAP5 POP POP PUSH1 0x20 PUSH2 0x3DCD DUP8 DUP3 DUP9 ADD PUSH2 0x37FA JUMP JUMPDEST SWAP4 POP POP PUSH1 0x40 PUSH2 0x3DDE DUP8 DUP3 DUP9 ADD PUSH2 0x360A JUMP JUMPDEST SWAP3 POP POP PUSH1 0x60 DUP6 ADD CALLDATALOAD PUSH8 0xFFFFFFFFFFFFFFFF DUP2 GT ISZERO PUSH2 0x3DFF JUMPI PUSH2 0x3DFE PUSH2 0x35E7 JUMP JUMPDEST JUMPDEST PUSH2 0x3E0B DUP8 DUP3 DUP9 ADD PUSH2 0x3D6A JUMP JUMPDEST SWAP2 POP POP SWAP3 SWAP6 SWAP2 SWAP5 POP SWAP3 POP JUMP JUMPDEST PUSH0 DUP1 PUSH1 0x40 DUP4 DUP6 SUB SLT ISZERO PUSH2 0x3E2D JUMPI PUSH2 0x3E2C PUSH2 0x35E3 JUMP JUMPDEST JUMPDEST PUSH0 PUSH2 0x3E3A DUP6 DUP3 DUP7 ADD PUSH2 0x37FA JUMP JUMPDEST SWAP3 POP POP PUSH1 0x20 PUSH2 0x3E4B DUP6 DUP3 DUP7 ADD PUSH2 0x37FA JUMP JUMPDEST SWAP2 POP POP SWAP3 POP SWAP3 SWAP1 POP JUMP JUMPDEST PUSH32 0x4E6F74206F776E65720000000000000000000000000000000000000000000000 PUSH0 DUP3 ADD MSTORE POP JUMP JUMPDEST PUSH0 PUSH2 0x3E89 PUSH1 0x9 DUP4 PUSH2 0x3706 JUMP JUMPDEST SWAP2 POP PUSH2 0x3E94 DUP3 PUSH2 0x3E55 JUMP JUMPDEST PUSH1 0x20 DUP3 ADD SWAP1 POP SWAP2 SWAP1 POP JUMP JUMPDEST PUSH0 PUSH1 0x20 DUP3 ADD SWAP1 POP DUP2 DUP2 SUB PUSH0 DUP4 ADD MSTORE PUSH2 0x3EB6 DUP2 PUSH2 0x3E7D JUMP JUMPDEST SWAP1 POP SWAP2 SWAP1 POP JUMP JUMPDEST PUSH32 0x496E76616C69642067726F777468207374616765000000000000000000000000 PUSH0 DUP3 ADD MSTORE POP JUMP JUMPDEST PUSH0 PUSH2 0x3EF1 PUSH1 0x14 DUP4 PUSH2 0x3706 JUMP JUMPDEST SWAP2 POP PUSH2 0x3EFC DUP3 PUSH2 0x3EBD JUMP JUMPDEST PUSH1 0x20 DUP3 ADD SWAP1 POP SWAP2 SWAP1 POP JUMP JUMPDEST PUSH0 PUSH1 0x20 DUP3 ADD SWAP1 POP DUP2 DUP2 SUB PUSH0 DUP4 ADD MSTORE PUSH2 0x3F1E DUP2 PUSH2 0x3EE5 JUMP JUMPDEST SWAP1 POP SWAP2 SWAP1 POP JUMP JUMPDEST PUSH32 0x4E487B7100000000000000000000000000000000000000000000000000000000 PUSH0 MSTORE PUSH1 0x22 PUSH1 0x4 MSTORE PUSH1 0x24 PUSH0 REVERT JUMPDEST PUSH0 PUSH1 0x2 DUP3 DIV SWAP1 POP PUSH1 0x1 DUP3 AND DUP1 PUSH2 0x3F69 JUMPI PUSH1 0x7F DUP3 AND SWAP2 POP JUMPDEST PUSH1 0x20 DUP3 LT DUP2 SUB PUSH2 0x3F7C JUMPI PUSH2 0x3F7B PUSH2 0x3F25 JUMP JUMPDEST JUMPDEST POP SWAP2 SWAP1 POP JUMP JUMPDEST PUSH0 DUP3 SWAP1 POP SWAP3 SWAP2 POP POP JUMP JUMPDEST PUSH0 DUP2 SWAP1 POP DUP2 PUSH0 MSTORE PUSH1 0x20 PUSH0 KECCAK256 SWAP1 POP SWAP2 SWAP1 POP JUMP JUMPDEST PUSH0 PUSH1 0x20 PUSH1 0x1F DUP4 ADD DIV SWAP1 POP SWAP2 SWAP1 POP JUMP JUMPDEST PUSH0 DUP3 DUP3 SHL SWAP1 POP SWAP3 SWAP2 POP POP JUMP JUMPDEST PUSH0 PUSH1 0x8 DUP4 MUL PUSH2 0x3FE8 PUSH32 0xFFFFFFFFFFFFFFFFFFFFFFFFFFFFFFFFFFFFFFFFFFFFFFFFFFFFFFFFFFFFFFFF DUP3 PUSH2 0x3FAD JUMP JUMPDEST PUSH2 0x3FF2 DUP7 DUP4 PUSH2 0x3FAD JUMP JUMPDEST SWAP6 POP DUP1 NOT DUP5 AND SWAP4 POP DUP1 DUP7 AND DUP5 OR SWAP3 POP POP POP SWAP4 SWAP3 POP POP POP JUMP JUMPDEST PUSH0 DUP2 SWAP1 POP SWAP2 SWAP1 POP JUMP JUMPDEST PUSH0 PUSH2 0x402D PUSH2 0x4028 PUSH2 0x4023 DUP5 PUSH2 0x35EB JUMP JUMPDEST PUSH2 0x400A JUMP JUMPDEST PUSH2 0x35EB JUMP JUMPDEST SWAP1 POP SWAP2 SWAP1 POP JUMP JUMPDEST PUSH0 DUP2 SWAP1 POP SWAP2 SWAP1 POP JUMP JUMPDEST PUSH2 0x4046 DUP4 PUSH2 0x4013 JUMP JUMPDEST PUSH2 0x405A PUSH2 0x4052 DUP3 PUSH2 0x4034 JUMP JUMPDEST DUP5 DUP5 SLOAD PUSH2 0x3FB9 JUMP JUMPDEST DUP3 SSTORE POP POP POP POP JUMP JUMPDEST PUSH0 SWAP1 JUMP JUMPDEST PUSH2 0x406E PUSH2 0x4062 JUMP JUMPDEST PUSH2 0x4079 DUP2 DUP5 DUP5 PUSH2 0x403D JUMP JUMPDEST POP POP POP JUMP JUMPDEST JUMPDEST DUP2 DUP2 LT ISZERO PUSH2 0x409C JUMPI PUSH2 0x4091 PUSH0 DUP3 PUSH2 0x4066 JUMP JUMPDEST PUSH1 0x1 DUP2 ADD SWAP1 POP PUSH2 0x407F JUMP JUMPDEST POP POP JUMP JUMPDEST PUSH1 0x1F DUP3 GT ISZERO PUSH2 0x40E1 JUMPI PUSH2 0x40B2 DUP2 PUSH2 0x3F8C JUMP JUMPDEST PUSH2 0x40BB DUP5 PUSH2 0x3F9E JUMP JUMPDEST DUP2 ADD PUSH1 0x20 DUP6 LT ISZERO PUSH2 0x40CA JUMPI DUP2 SWAP1 POP JUMPDEST PUSH2 0x40DE PUSH2 0x40D6 DUP6 PUSH2 0x3F9E JUMP JUMPDEST DUP4 ADD DUP3 PUSH2 0x407E JUMP JUMPDEST POP POP JUMPDEST POP POP POP JUMP JUMPDEST PUSH0 DUP3 DUP3 SHR SWAP1 POP SWAP3 SWAP2 POP POP JUMP JUMPDEST PUSH0 PUSH2 0x4101 PUSH0 NOT DUP5 PUSH1 0x8 MUL PUSH2 0x40E6 JUMP JUMPDEST NOT DUP1 DUP4 AND SWAP2 POP POP SWAP3 SWAP2 POP POP JUMP JUMPDEST PUSH0 PUSH2 0x4119 DUP4 DUP4 PUSH2 0x40F2 JUMP JUMPDEST SWAP2 POP DUP3 PUSH1 0x2 MUL DUP3 OR SWAP1 POP SWAP3 SWAP2 POP POP JUMP JUMPDEST PUSH2 0x4133 DUP4 DUP4 PUSH2 0x3F82 JUMP JUMPDEST PUSH8 0xFFFFFFFFFFFFFFFF DUP2 GT ISZERO PUSH2 0x414C JUMPI PUSH2 0x414B PUSH2 0x38FC JUMP JUMPDEST JUMPDEST PUSH2 0x4156 DUP3 SLOAD PUSH2 0x3F52 JUMP JUMPDEST PUSH2 0x4161 DUP3 DUP3 DUP6 PUSH2 0x40A0 JUMP JUMPDEST PUSH0 PUSH1 0x1F DUP4 GT PUSH1 0x1 DUP2 EQ PUSH2 0x418E JUMPI PUSH0 DUP5 ISZERO PUSH2 0x417C JUMPI DUP3 DUP8 ADD CALLDATALOAD SWAP1 POP JUMPDEST PUSH2 0x4186 DUP6 DUP3 PUSH2 0x410E JUMP JUMPDEST DUP7 SSTORE POP PUSH2 0x41ED JUMP JUMPDEST PUSH1 0x1F NOT DUP5 AND PUSH2 0x419C DUP7 PUSH2 0x3F8C JUMP JUMPDEST PUSH0 JUMPDEST DUP3 DUP2 LT ISZERO PUSH2 0x41C3 JUMPI DUP5 DUP10 ADD CALLDATALOAD DUP3 SSTORE PUSH1 0x1 DUP3 ADD SWAP2 POP PUSH1 0x20 DUP6 ADD SWAP5 POP PUSH1 0x20 DUP2 ADD SWAP1 POP PUSH2 0x419E JUMP JUMPDEST DUP7 DUP4 LT ISZERO PUSH2 0x41E0 JUMPI DUP5 DUP10 ADD CALLDATALOAD PUSH2 0x41DC PUSH1 0x1F DUP10 AND DUP3 PUSH2 0x40F2 JUMP JUMPDEST DUP4 SSTORE POP JUMPDEST PUSH1 0x1 PUSH1 0x2 DUP9 MUL ADD DUP9 SSTORE POP POP POP JUMPDEST POP POP POP POP POP POP POP JUMP JUMPDEST PUSH32 0x4E487B7100000000000000000000000000000000000000000000000000000000 PUSH0 MSTORE PUSH1 0x11 PUSH1 0x4 MSTORE PUSH1 0x24 PUSH0 REVERT JUMPDEST PUSH0 PUSH2 0x422D DUP3 PUSH2 0x35EB JUMP JUMPDEST SWAP2 POP PUSH2 0x4238 DUP4 PUSH2 0x35EB JUMP JUMPDEST SWAP3 POP DUP3 DUP3 ADD SWAP1 POP DUP1 DUP3 GT ISZERO PUSH2 0x4250 JUMPI PUSH2 0x424F PUSH2 0x41F6 JUMP JUMPDEST JUMPDEST SWAP3 SWAP2 POP POP JUMP JUMPDEST PUSH32 0x556E61626C6520746F2065766F6C766500000000000000000000000000000000 PUSH0 DUP3 ADD MSTORE POP JUMP JUMPDEST PUSH0 PUSH2 0x428A PUSH1 0x10 DUP4 PUSH2 0x3706 JUMP JUMPDEST SWAP2 POP PUSH2 0x4295 DUP3 PUSH2 0x4256 JUMP JUMPDEST PUSH1 0x20 DUP3 ADD SWAP1 POP SWAP2 SWAP1 POP JUMP JUMPDEST PUSH0 PUSH1 0x20 DUP3 ADD SWAP1 POP DUP2 DUP2 SUB PUSH0 DUP4 ADD MSTORE PUSH2 0x42B7 DUP2 PUSH2 0x427E JUMP JUMPDEST SWAP1 POP SWAP2 SWAP1 POP JUMP JUMPDEST PUSH0 DUP2 SWAP1 POP SWAP2 SWAP1 POP JUMP JUMPDEST PUSH0 PUSH8 0xFFFFFFFFFFFFFFFF DUP3 AND SWAP1 POP SWAP2 SWAP1 POP JUMP JUMPDEST PUSH0 PUSH2 0x42F4 PUSH2 0x42EF PUSH2 0x42EA DUP5 PUSH2 0x42BE JUMP JUMPDEST PUSH2 0x400A JUMP JUMPDEST PUSH2 0x42C7 JUMP JUMPDEST SWAP1 POP SWAP2 SWAP1 POP JUMP JUMPDEST PUSH2 0x4304 DUP2 PUSH2 0x42DA JUMP JUMPDEST DUP3 MSTORE POP POP JUMP JUMPDEST PUSH0 PUSH1 0x20 DUP3 ADD SWAP1 POP PUSH2 0x431D PUSH0 DUP4 ADD DUP5 PUSH2 0x42FB JUMP JUMPDEST SWAP3 SWAP2 POP POP JUMP JUMPDEST PUSH0 PUSH1 0x60 DUP3 ADD SWAP1 POP PUSH2 0x4336 PUSH0 DUP4 ADD DUP7 PUSH2 0x37BC JUMP JUMPDEST PUSH2 0x4343 PUSH1 0x20 DUP4 ADD DUP6 PUSH2 0x3B0C JUMP JUMPDEST PUSH2 0x4350 PUSH1 0x40 DUP4 ADD DUP5 PUSH2 0x37BC JUMP JUMPDEST SWAP5 SWAP4 POP POP POP POP JUMP JUMPDEST PUSH32 0x496E636573740000000000000000000000000000000000000000000000000000 PUSH0 DUP3 ADD MSTORE POP JUMP JUMPDEST PUSH0 PUSH2 0x438C PUSH1 0x6 DUP4 PUSH2 0x3706 JUMP JUMPDEST SWAP2 POP PUSH2 0x4397 DUP3 PUSH2 0x4358 JUMP JUMPDEST PUSH1 0x20 DUP3 ADD SWAP1 POP SWAP2 SWAP1 POP JUMP JUMPDEST PUSH0 PUSH1 0x20 DUP3 ADD SWAP1 POP DUP2 DUP2 SUB PUSH0 DUP4 ADD MSTORE PUSH2 0x43B9 DUP2 PUSH2 0x4380 JUMP JUMPDEST SWAP1 POP SWAP2 SWAP1 POP JUMP JUMPDEST PUSH32 0x4272656564696E67206E6F7420616C6C6F776564207965740000000000000000 PUSH0 DUP3 ADD MSTORE POP JUMP JUMPDEST PUSH0 PUSH2 0x43F4 PUSH1 0x18 DUP4 PUSH2 0x3706 JUMP JUMPDEST SWAP2 POP PUSH2 0x43FF DUP3 PUSH2 0x43C0 JUMP JUMPDEST PUSH1 0x20 DUP3 ADD SWAP1 POP SWAP2 SWAP1 POP JUMP JUMPDEST PUSH0 PUSH1 0x20 DUP3 ADD SWAP1 POP DUP2 DUP2 SUB PUSH0 DUP4 ADD MSTORE PUSH2 0x4421 DUP2 PUSH2 0x43E8 JUMP JUMPDEST SWAP1 POP SWAP2 SWAP1 POP JUMP JUMPDEST PUSH32 0x53616D652067656E646572000000000000000000000000000000000000000000 PUSH0 DUP3 ADD MSTORE POP JUMP JUMPDEST PUSH0 PUSH2 0x445C PUSH1 0xB DUP4 PUSH2 0x3706 JUMP JUMPDEST SWAP2 POP PUSH2 0x4467 DUP3 PUSH2 0x4428 JUMP JUMPDEST PUSH1 0x20 DUP3 ADD SWAP1 POP SWAP2 SWAP1 POP JUMP JUMPDEST PUSH0 PUSH1 0x20 DUP3 ADD SWAP1 POP DUP2 DUP2 SUB PUSH0 DUP4 ADD MSTORE PUSH2 0x4489 DUP2 PUSH2 0x4450 JUMP JUMPDEST SWAP1 POP SWAP2 SWAP1 POP JUMP JUMPDEST PUSH0 PUSH2 0x449A DUP3 PUSH2 0x35EB JUMP JUMPDEST SWAP2 POP PUSH2 0x44A5 DUP4 PUSH2 0x35EB JUMP JUMPDEST SWAP3 POP DUP3 DUP3 SUB SWAP1 POP DUP2 DUP2 GT ISZERO PUSH2 0x44BD JUMPI PUSH2 0x44BC PUSH2 0x41F6 JUMP JUMPDEST JUMPDEST SWAP3 SWAP2 POP POP JUMP JUMPDEST PUSH0 DUP2 SWAP1 POP SWAP3 SWAP2 POP POP JUMP JUMPDEST PUSH0 DUP2 SLOAD PUSH2 0x44D9 DUP2 PUSH2 0x3F52 JUMP JUMPDEST PUSH2 0x44E3 DUP2 DUP7 PUSH2 0x44C3 JUMP JUMPDEST SWAP5 POP PUSH1 0x1 DUP3 AND PUSH0 DUP2 EQ PUSH2 0x44FD JUMPI PUSH1 0x1 DUP2 EQ PUSH2 0x4512 JUMPI PUSH2 0x4544 JUMP JUMPDEST PUSH1 0xFF NOT DUP4 AND DUP7 MSTORE DUP2 ISZERO ISZERO DUP3 MUL DUP7 ADD SWAP4 POP PUSH2 0x4544 JUMP JUMPDEST PUSH2 0x451B DUP6 PUSH2 0x3F8C JUMP JUMPDEST PUSH0 JUMPDEST DUP4 DUP2 LT ISZERO PUSH2 0x453C JUMPI DUP2 SLOAD DUP2 DUP10 ADD MSTORE PUSH1 0x1 DUP3 ADD SWAP2 POP PUSH1 0x20 DUP2 ADD SWAP1 POP PUSH2 0x451D JUMP JUMPDEST DUP4 DUP9 ADD SWAP6 POP POP POP JUMPDEST POP POP POP SWAP3 SWAP2 POP POP JUMP JUMPDEST PUSH0 PUSH2 0x4557 DUP3 PUSH2 0x36FC JUMP JUMPDEST PUSH2 0x4561 DUP2 DUP6 PUSH2 0x44C3 JUMP JUMPDEST SWAP4 POP PUSH2 0x4571 DUP2 DUP6 PUSH1 0x20 DUP7 ADD PUSH2 0x3716 JUMP JUMPDEST DUP1 DUP5 ADD SWAP2 POP POP SWAP3 SWAP2 POP POP JUMP JUMPDEST PUSH0 PUSH2 0x4588 DUP3 DUP6 PUSH2 0x44CD JUMP JUMPDEST SWAP2 POP PUSH2 0x4594 DUP3 DUP5 PUSH2 0x454D JUMP JUMPDEST SWAP2 POP DUP2 SWAP1 POP SWAP4 SWAP3 POP POP POP JUMP JUMPDEST PUSH32 0x5F65676700000000000000000000000000000000000000000000000000000000 PUSH0 DUP3 ADD MSTORE POP JUMP JUMPDEST PUSH0 PUSH2 0x45D4 PUSH1 0x4 DUP4 PUSH2 0x44C3 JUMP JUMPDEST SWAP2 POP PUSH2 0x45DF DUP3 PUSH2 0x45A0 JUMP JUMPDEST PUSH1 0x4 DUP3 ADD SWAP1 POP SWAP2 SWAP1 POP JUMP JUMPDEST PUSH0 PUSH2 0x45F5 DUP3 DUP5 PUSH2 0x44CD JUMP JUMPDEST SWAP2 POP PUSH2 0x4600 DUP3 PUSH2 0x45C8 JUMP JUMPDEST SWAP2 POP DUP2 SWAP1 POP SWAP3 SWAP2 POP POP JUMP JUMPDEST PUSH32 0x5F00000000000000000000000000000000000000000000000000000000000000 PUSH0 DUP3 ADD MSTORE POP JUMP JUMPDEST PUSH0 PUSH2 0x463F PUSH1 0x1 DUP4 PUSH2 0x44C3 JUMP JUMPDEST SWAP2 POP PUSH2 0x464A DUP3 PUSH2 0x460B JUMP JUMPDEST PUSH1 0x1 DUP3 ADD SWAP1 POP SWAP2 SWAP1 POP JUMP JUMPDEST PUSH0 PUSH2 0x4660 DUP3 DUP8 PUSH2 0x44CD JUMP JUMPDEST SWAP2 POP PUSH2 0x466B DUP3 PUSH2 0x4633 JUMP JUMPDEST SWAP2 POP PUSH2 0x4677 DUP3 DUP7 PUSH2 0x454D JUMP JUMPDEST SWAP2 POP PUSH2 0x4682 DUP3 PUSH2 0x4633 JUMP JUMPDEST SWAP2 POP PUSH2 0x468E DUP3 DUP6 PUSH2 0x454D JUMP JUMPDEST SWAP2 POP PUSH2 0x4699 DUP3 PUSH2 0x4633 JUMP JUMPDEST SWAP2 POP PUSH2 0x46A5 DUP3 DUP5 PUSH2 0x454D JUMP JUMPDEST SWAP2 POP DUP2 SWAP1 POP SWAP6 SWAP5 POP POP POP POP POP JUMP JUMPDEST PUSH32 0x646174613A6170706C69636174696F6E2F6A736F6E3B757466382C7B226E616D PUSH0 DUP3 ADD MSTORE PUSH32 0x65223A2022447261676F6E202300000000000000000000000000000000000000 PUSH1 0x20 DUP3 ADD MSTORE POP JUMP JUMPDEST PUSH0 PUSH2 0x470D PUSH1 0x2D DUP4 PUSH2 0x44C3 JUMP JUMPDEST SWAP2 POP PUSH2 0x4718 DUP3 PUSH2 0x46B3 JUMP JUMPDEST PUSH1 0x2D DUP3 ADD SWAP1 POP SWAP2 SWAP1 POP JUMP JUMPDEST PUSH32 0x222C2265787465726E616C5F75726C223A2268747470733A2F2F676974687562 PUSH0 DUP3 ADD MSTORE PUSH32 0x2E636F6D2F626368736F6C2F43727970746F447261676F6E222C22696D616765 PUSH1 0x20 DUP3 ADD MSTORE PUSH32 0x223A220000000000000000000000000000000000000000000000000000000000 PUSH1 0x40 DUP3 ADD MSTORE POP JUMP JUMPDEST PUSH0 PUSH2 0x47A3 PUSH1 0x43 DUP4 PUSH2 0x44C3 JUMP JUMPDEST SWAP2 POP PUSH2 0x47AE DUP3 PUSH2 0x4723 JUMP JUMPDEST PUSH1 0x43 DUP3 ADD SWAP1 POP SWAP2 SWAP1 POP JUMP JUMPDEST PUSH32 0x222C2261747472696275746573223A5B7B2274726169745F74797065223A2244 PUSH0 DUP3 ADD MSTORE PUSH32 0x7261676F6E222C2276616C7565223A2200000000000000000000000000000000 PUSH1 0x20 DUP3 ADD MSTORE POP JUMP JUMPDEST PUSH0 PUSH2 0x4813 PUSH1 0x30 DUP4 PUSH2 0x44C3 JUMP JUMPDEST SWAP2 POP PUSH2 0x481E DUP3 PUSH2 0x47B9 JUMP JUMPDEST PUSH1 0x30 DUP3 ADD SWAP1 POP SWAP2 SWAP1 POP JUMP JUMPDEST PUSH32 0x227D5D7D00000000000000000000000000000000000000000000000000000000 PUSH0 DUP3 ADD MSTORE POP JUMP JUMPDEST PUSH0 PUSH2 0x485D PUSH1 0x4 DUP4 PUSH2 0x44C3 JUMP JUMPDEST SWAP2 POP PUSH2 0x4868 DUP3 PUSH2 0x4829 JUMP JUMPDEST PUSH1 0x4 DUP3 ADD SWAP1 POP SWAP2 SWAP1 POP JUMP JUMPDEST PUSH0 PUSH2 0x487D DUP3 PUSH2 0x4701 JUMP JUMPDEST SWAP2 POP PUSH2 0x4889 DUP3 DUP9 PUSH2 0x454D JUMP JUMPDEST SWAP2 POP PUSH2 0x4894 DUP3 PUSH2 0x4797 JUMP JUMPDEST SWAP2 POP PUSH2 0x48A0 DUP3 DUP8 PUSH2 0x44CD JUMP JUMPDEST SWAP2 POP PUSH2 0x48AC DUP3 DUP7 PUSH2 0x454D JUMP JUMPDEST SWAP2 POP PUSH2 0x48B8 DUP3 DUP6 PUSH2 0x44CD JUMP JUMPDEST SWAP2 POP PUSH2 0x48C3 DUP3 PUSH2 0x4807 JUMP JUMPDEST SWAP2 POP PUSH2 0x48CF DUP3 DUP5 PUSH2 0x44CD JUMP JUMPDEST SWAP2 POP PUSH2 0x48DA DUP3 PUSH2 0x4851 JUMP JUMPDEST SWAP2 POP DUP2 SWAP1 POP SWAP7 SWAP6 POP POP POP POP POP POP JUMP JUMPDEST PUSH32 0x4861746368000000000000000000000000000000000000000000000000000000 PUSH0 DUP3 ADD MSTORE POP JUMP JUMPDEST PUSH0 PUSH2 0x491D PUSH1 0x5 DUP4 PUSH2 0x3706 JUMP JUMPDEST SWAP2 POP PUSH2 0x4928 DUP3 PUSH2 0x48E9 JUMP JUMPDEST PUSH1 0x20 DUP3 ADD SWAP1 POP SWAP2 SWAP1 POP JUMP JUMPDEST PUSH0 PUSH1 0x20 DUP3 ADD SWAP1 POP DUP2 DUP2 SUB PUSH0 DUP4 ADD MSTORE PUSH2 0x494A DUP2 PUSH2 0x4911 JUMP JUMPDEST SWAP1 POP SWAP2 SWAP1 POP JUMP JUMPDEST PUSH32 0x48617463686C696E670000000000000000000000000000000000000000000000 PUSH0 DUP3 ADD MSTORE POP JUMP JUMPDEST PUSH0 PUSH2 0x4985 PUSH1 0x9 DUP4 PUSH2 0x3706 JUMP JUMPDEST SWAP2 POP PUSH2 0x4990 DUP3 PUSH2 0x4951 JUMP JUMPDEST PUSH1 0x20 DUP3 ADD SWAP1 POP SWAP2 SWAP1 POP JUMP JUMPDEST PUSH0 PUSH1 0x20 DUP3 ADD SWAP1 POP DUP2 DUP2 SUB PUSH0 DUP4 ADD MSTORE PUSH2 0x49B2 DUP2 PUSH2 0x4979 JUMP JUMPDEST SWAP1 POP SWAP2 SWAP1 POP JUMP JUMPDEST PUSH32 0x4164756C74000000000000000000000000000000000000000000000000000000 PUSH0 DUP3 ADD MSTORE POP JUMP JUMPDEST PUSH0 PUSH2 0x49ED PUSH1 0x5 DUP4 PUSH2 0x3706 JUMP JUMPDEST SWAP2 POP PUSH2 0x49F8 DUP3 PUSH2 0x49B9 JUMP JUMPDEST PUSH1 0x20 DUP3 ADD SWAP1 POP SWAP2 SWAP1 POP JUMP JUMPDEST PUSH0 PUSH1 0x20 DUP3 ADD SWAP1 POP DUP2 DUP2 SUB PUSH0 DUP4 ADD MSTORE PUSH2 0x4A1A DUP2 PUSH2 0x49E1 JUMP JUMPDEST SWAP1 POP SWAP2 SWAP1 POP JUMP JUMPDEST PUSH0 PUSH2 0x4A2B DUP3 PUSH2 0x35EB JUMP JUMPDEST SWAP2 POP PUSH32 0xFFFFFFFFFFFFFFFFFFFFFFFFFFFFFFFFFFFFFFFFFFFFFFFFFFFFFFFFFFFFFFFF DUP3 SUB PUSH2 0x4A5D JUMPI PUSH2 0x4A5C PUSH2 0x41F6 JUMP JUMPDEST JUMPDEST PUSH1 0x1 DUP3 ADD SWAP1 POP SWAP2 SWAP1 POP JUMP JUMPDEST PUSH0 DUP2 SWAP1 POP SWAP2 SWAP1 POP JUMP JUMPDEST PUSH2 0x4A82 PUSH2 0x4A7D DUP3 PUSH2 0x35EB JUMP JUMPDEST PUSH2 0x4A68 JUMP JUMPDEST DUP3 MSTORE POP POP JUMP JUMPDEST PUSH0 DUP2 PUSH1 0x60 SHL SWAP1 POP SWAP2 SWAP1 POP JUMP JUMPDEST PUSH0 PUSH2 0x4A9E DUP3 PUSH2 0x4A88 JUMP JUMPDEST SWAP1 POP SWAP2 SWAP1 POP JUMP JUMPDEST PUSH0 PUSH2 0x4AAF DUP3 PUSH2 0x4A94 JUMP JUMPDEST SWAP1 POP SWAP2 SWAP1 POP JUMP JUMPDEST PUSH2 0x4AC7 PUSH2 0x4AC2 DUP3 PUSH2 0x37AB JUMP JUMPDEST PUSH2 0x4AA5 JUMP JUMPDEST DUP3 MSTORE POP POP JUMP JUMPDEST PUSH0 PUSH2 0x4AD8 DUP3 DUP7 PUSH2 0x4A71 JUMP JUMPDEST PUSH1 0x20 DUP3 ADD SWAP2 POP PUSH2 0x4AE8 DUP3 DUP6 PUSH2 0x4AB6 JUMP JUMPDEST PUSH1 0x14 DUP3 ADD SWAP2 POP PUSH2 0x4AF8 DUP3 DUP5 PUSH2 0x4A71 JUMP JUMPDEST PUSH1 0x20 DUP3 ADD SWAP2 POP DUP2 SWAP1 POP SWAP5 SWAP4 POP POP POP POP JUMP JUMPDEST PUSH32 0x4E487B7100000000000000000000000000000000000000000000000000000000 PUSH0 MSTORE PUSH1 0x12 PUSH1 0x4 MSTORE PUSH1 0x24 PUSH0 REVERT JUMPDEST PUSH0 PUSH2 0x4B40 DUP3 PUSH2 0x35EB JUMP JUMPDEST SWAP2 POP PUSH2 0x4B4B DUP4 PUSH2 0x35EB JUMP JUMPDEST SWAP3 POP DUP3 PUSH2 0x4B5B JUMPI PUSH2 0x4B5A PUSH2 0x4B09 JUMP JUMPDEST JUMPDEST DUP3 DUP3 MOD SWAP1 POP SWAP3 SWAP2 POP POP JUMP JUMPDEST PUSH0 DUP2 MLOAD SWAP1 POP SWAP2 SWAP1 POP JUMP JUMPDEST PUSH0 DUP3 DUP3 MSTORE PUSH1 0x20 DUP3 ADD SWAP1 POP SWAP3 SWAP2 POP POP JUMP JUMPDEST PUSH0 PUSH2 0x4B8A DUP3 PUSH2 0x4B66 JUMP JUMPDEST PUSH2 0x4B94 DUP2 DUP6 PUSH2 0x4B70 JUMP JUMPDEST SWAP4 POP PUSH2 0x4BA4 DUP2 DUP6 PUSH1 0x20 DUP7 ADD PUSH2 0x3716 JUMP JUMPDEST PUSH2 0x4BAD DUP2 PUSH2 0x3724 JUMP JUMPDEST DUP5 ADD SWAP2 POP POP SWAP3 SWAP2 POP POP JUMP JUMPDEST PUSH0 PUSH1 0x80 DUP3 ADD SWAP1 POP PUSH2 0x4BCB PUSH0 DUP4 ADD DUP8 PUSH2 0x37BC JUMP JUMPDEST PUSH2 0x4BD8 PUSH1 0x20 DUP4 ADD DUP7 PUSH2 0x37BC JUMP JUMPDEST PUSH2 0x4BE5 PUSH1 0x40 DUP4 ADD DUP6 PUSH2 0x3B0C JUMP JUMPDEST DUP2 DUP2 SUB PUSH1 0x60 DUP4 ADD MSTORE PUSH2 0x4BF7 DUP2 DUP5 PUSH2 0x4B80 JUMP JUMPDEST SWAP1 POP SWAP6 SWAP5 POP POP POP POP POP JUMP JUMPDEST PUSH0 DUP2 MLOAD SWAP1 POP PUSH2 0x4C10 DUP2 PUSH2 0x3674 JUMP JUMPDEST SWAP3 SWAP2 POP POP JUMP JUMPDEST PUSH0 PUSH1 0x20 DUP3 DUP5 SUB SLT ISZERO PUSH2 0x4C2B JUMPI PUSH2 0x4C2A PUSH2 0x35E3 JUMP JUMPDEST JUMPDEST PUSH0 PUSH2 0x4C38 DUP5 DUP3 DUP6 ADD PUSH2 0x4C02 JUMP JUMPDEST SWAP2 POP POP SWAP3 SWAP2 POP POP JUMP JUMPDEST PUSH0 PUSH1 0x40 DUP3 ADD SWAP1 POP PUSH2 0x4C54 PUSH0 DUP4 ADD DUP6 PUSH2 0x37BC JUMP JUMPDEST PUSH2 0x4C61 PUSH1 0x20 DUP4 ADD DUP5 PUSH2 0x3B0C JUMP JUMPDEST SWAP4 SWAP3 POP POP POP JUMP JUMPDEST PUSH2 0x4C71 DUP3 PUSH2 0x36FC JUMP JUMPDEST PUSH8 0xFFFFFFFFFFFFFFFF DUP2 GT ISZERO PUSH2 0x4C8A JUMPI PUSH2 0x4C89 PUSH2 0x38FC JUMP JUMPDEST JUMPDEST PUSH2 0x4C94 DUP3 SLOAD PUSH2 0x3F52 JUMP JUMPDEST PUSH2 0x4C9F DUP3 DUP3 DUP6 PUSH2 0x40A0 JUMP JUMPDEST PUSH0 PUSH1 0x20 SWAP1 POP PUSH1 0x1F DUP4 GT PUSH1 0x1 DUP2 EQ PUSH2 0x4CD0 JUMPI PUSH0 DUP5 ISZERO PUSH2 0x4CBE JUMPI DUP3 DUP8 ADD MLOAD SWAP1 POP JUMPDEST PUSH2 0x4CC8 DUP6 DUP3 PUSH2 0x410E JUMP JUMPDEST DUP7 SSTORE POP PUSH2 0x4D2F JUMP JUMPDEST PUSH1 0x1F NOT DUP5 AND PUSH2 0x4CDE DUP7 PUSH2 0x3F8C JUMP JUMPDEST PUSH0 JUMPDEST DUP3 DUP2 LT ISZERO PUSH2 0x4D05 JUMPI DUP5 DUP10 ADD MLOAD DUP3 SSTORE PUSH1 0x1 DUP3 ADD SWAP2 POP PUSH1 0x20 DUP6 ADD SWAP5 POP PUSH1 0x20 DUP2 ADD SWAP1 POP PUSH2 0x4CE0 JUMP JUMPDEST DUP7 DUP4 LT ISZERO PUSH2 0x4D22 JUMPI DUP5 DUP10 ADD MLOAD PUSH2 0x4D1E PUSH1 0x1F DUP10 AND DUP3 PUSH2 0x40F2 JUMP JUMPDEST DUP4 SSTORE POP JUMPDEST PUSH1 0x1 PUSH1 0x2 DUP9 MUL ADD DUP9 SSTORE POP POP POP JUMPDEST POP POP POP POP POP POP JUMP INVALID LOG2 PUSH5 0x6970667358 0x22 SLT KECCAK256 RETURNDATASIZE PUSH18 0xF3203EE8FBAE346A25D2A457267E8E0D358E PREVRANDAO CALL MOD PUSH8 0x70418E4DAD695C83 PUSH5 0x736F6C6343 STOP ADDMOD BYTE STOP CALLER "
		},
		"gasEstimates": {
			"creation": {
				"codeDepositCost": "3964200",
				"executionCost": "4519",
				"totalCost": "3968719"
			},
			"external": {
				"approve(address,uint256)": "infinite",
				"balanceOf(address)": "infinite",
				"baseTokenURI()": "infinite",
				"breed(string,uint256,uint256)": "infinite",
				"dataURI()": "infinite",
				"evolve(uint256)": "infinite",
				"feeding(uint256)": "infinite",
				"forceEvolve(uint256)": "infinite",
				"getApproved(uint256)": "infinite",
				"getGrowthInfo(uint256)": "infinite",
				"getbreedData(uint256)": "infinite",
				"initialize(address,address,string,string)": "infinite",
				"isApprovedForAll(address,address)": "infinite",
				"metaDescription()": "infinite",
				"name()": "infinite",
				"owner()": "2613",
				"ownerOf(uint256)": "infinite",
				"renounceOwnership()": "infinite",
				"safeTransferFrom(address,address,uint256)": "infinite",
				"safeTransferFrom(address,address,uint256,bytes)": "infinite",
				"setApprovalForAll(address,bool)": "infinite",
				"setDataURI(string)": "infinite",
				"setImageExtension(string)": "infinite",
				"setMetaDescription(string)": "infinite",
				"setTokenURI(string)": "infinite",
				"supportsInterface(bytes4)": "968",
				"symbol()": "infinite",
				"tokenURI(uint256)": "infinite",
				"transferFrom(address,address,uint256)": "infinite",
				"transferOwnership(address)": "infinite"
			},
			"internal": {
				"_areDifferentGenders(uint256,uint256)": "4433",
				"_canBreed(uint256)": "2219",
				"_createChildToken(string calldata,uint256,uint256)": "infinite",
				"_isIncest(uint256,uint256)": "12944",
				"_updateBreedData(uint256)": "infinite"
			}
		},
		"methodIdentifiers": {
			"approve(address,uint256)": "095ea7b3",
			"balanceOf(address)": "70a08231",
			"baseTokenURI()": "d547cfb7",
			"breed(string,uint256,uint256)": "99683c22",
			"dataURI()": "f28ca1dd",
			"evolve(uint256)": "f119f567",
			"feeding(uint256)": "00e00064",
			"forceEvolve(uint256)": "1bc80eff",
			"getApproved(uint256)": "081812fc",
			"getGrowthInfo(uint256)": "b564ea86",
			"getbreedData(uint256)": "616c0c48",
			"initialize(address,address,string,string)": "2016a0d2",
			"isApprovedForAll(address,address)": "e985e9c5",
			"metaDescription()": "edeb4bbe",
			"name()": "06fdde03",
			"owner()": "8da5cb5b",
			"ownerOf(uint256)": "6352211e",
			"renounceOwnership()": "715018a6",
			"safeTransferFrom(address,address,uint256)": "42842e0e",
			"safeTransferFrom(address,address,uint256,bytes)": "b88d4fde",
			"setApprovalForAll(address,bool)": "a22cb465",
			"setDataURI(string)": "18d217c3",
			"setImageExtension(string)": "39e3aa7e",
			"setMetaDescription(string)": "bd9ba9e8",
			"setTokenURI(string)": "e0df5b6f",
			"supportsInterface(bytes4)": "01ffc9a7",
			"symbol()": "95d89b41",
			"tokenURI(uint256)": "c87b56dd",
			"transferFrom(address,address,uint256)": "23b872dd",
			"transferOwnership(address)": "f2fde38b"
		}
	},
	"abi": [
		{
			"inputs": [
				{
					"internalType": "address",
					"name": "sender",
					"type": "address"
				},
				{
					"internalType": "uint256",
					"name": "tokenId",
					"type": "uint256"
				},
				{
					"internalType": "address",
					"name": "owner",
					"type": "address"
				}
			],
			"name": "ERC721IncorrectOwner",
			"type": "error"
		},
		{
			"inputs": [
				{
					"internalType": "address",
					"name": "operator",
					"type": "address"
				},
				{
					"internalType": "uint256",
					"name": "tokenId",
					"type": "uint256"
				}
			],
			"name": "ERC721InsufficientApproval",
			"type": "error"
		},
		{
			"inputs": [
				{
					"internalType": "address",
					"name": "approver",
					"type": "address"
				}
			],
			"name": "ERC721InvalidApprover",
			"type": "error"
		},
		{
			"inputs": [
				{
					"internalType": "address",
					"name": "operator",
					"type": "address"
				}
			],
			"name": "ERC721InvalidOperator",
			"type": "error"
		},
		{
			"inputs": [
				{
					"internalType": "address",
					"name": "owner",
					"type": "address"
				}
			],
			"name": "ERC721InvalidOwner",
			"type": "error"
		},
		{
			"inputs": [
				{
					"internalType": "address",
					"name": "receiver",
					"type": "address"
				}
			],
			"name": "ERC721InvalidReceiver",
			"type": "error"
		},
		{
			"inputs": [
				{
					"internalType": "address",
					"name": "sender",
					"type": "address"
				}
			],
			"name": "ERC721InvalidSender",
			"type": "error"
		},
		{
			"inputs": [
				{
					"internalType": "uint256",
					"name": "tokenId",
					"type": "uint256"
				}
			],
			"name": "ERC721NonexistentToken",
			"type": "error"
		},
		{
			"inputs": [],
			"name": "InvalidInitialization",
			"type": "error"
		},
		{
			"inputs": [],
			"name": "NotInitializing",
			"type": "error"
		},
		{
			"inputs": [
				{
					"internalType": "address",
					"name": "owner",
					"type": "address"
				}
			],
			"name": "OwnableInvalidOwner",
			"type": "error"
		},
		{
			"inputs": [
				{
					"internalType": "address",
					"name": "account",
					"type": "address"
				}
			],
			"name": "OwnableUnauthorizedAccount",
			"type": "error"
		},
		{
			"anonymous": false,
			"inputs": [
				{
					"indexed": true,
					"internalType": "address",
					"name": "owner",
					"type": "address"
				},
				{
					"indexed": true,
					"internalType": "address",
					"name": "approved",
					"type": "address"
				},
				{
					"indexed": true,
					"internalType": "uint256",
					"name": "tokenId",
					"type": "uint256"
				}
			],
			"name": "Approval",
			"type": "event"
		},
		{
			"anonymous": false,
			"inputs": [
				{
					"indexed": true,
					"internalType": "address",
					"name": "owner",
					"type": "address"
				},
				{
					"indexed": true,
					"internalType": "address",
					"name": "operator",
					"type": "address"
				},
				{
					"indexed": false,
					"internalType": "bool",
					"name": "approved",
					"type": "bool"
				}
			],
			"name": "ApprovalForAll",
			"type": "event"
		},
		{
			"anonymous": false,
			"inputs": [
				{
					"indexed": false,
					"internalType": "uint256",
					"name": "_fromTokenId",
					"type": "uint256"
				},
				{
					"indexed": false,
					"internalType": "uint256",
					"name": "_toTokenId",
					"type": "uint256"
				}
			],
			"name": "BatchMetadataUpdate",
			"type": "event"
		},
		{
			"anonymous": false,
			"inputs": [
				{
					"indexed": false,
					"internalType": "uint64",
					"name": "version",
					"type": "uint64"
				}
			],
			"name": "Initialized",
			"type": "event"
		},
		{
			"anonymous": false,
			"inputs": [
				{
					"indexed": false,
					"internalType": "uint256",
					"name": "_tokenId",
					"type": "uint256"
				}
			],
			"name": "MetadataUpdate",
			"type": "event"
		},
		{
			"anonymous": false,
			"inputs": [
				{
					"indexed": true,
					"internalType": "address",
					"name": "previousOwner",
					"type": "address"
				},
				{
					"indexed": true,
					"internalType": "address",
					"name": "newOwner",
					"type": "address"
				}
			],
			"name": "OwnershipTransferred",
			"type": "event"
		},
		{
			"anonymous": false,
			"inputs": [
				{
					"indexed": true,
					"internalType": "uint256",
					"name": "husbandId",
					"type": "uint256"
				},
				{
					"indexed": true,
					"internalType": "uint256",
					"name": "wifeId",
					"type": "uint256"
				},
				{
					"indexed": true,
					"internalType": "uint256",
					"name": "childId",
					"type": "uint256"
				}
			],
			"name": "TokenBreed",
			"type": "event"
		},
		{
			"anonymous": false,
			"inputs": [
				{
					"indexed": true,
					"internalType": "uint256",
					"name": "tokenId",
					"type": "uint256"
				},
				{
					"indexed": false,
					"internalType": "string",
					"name": "newStage",
					"type": "string"
				}
			],
			"name": "TokenEvolved",
			"type": "event"
		},
		{
			"anonymous": false,
			"inputs": [
				{
					"indexed": true,
					"internalType": "uint256",
					"name": "tokenId",
					"type": "uint256"
				},
				{
					"indexed": true,
					"internalType": "uint256",
					"name": "newTime",
					"type": "uint256"
				}
			],
			"name": "TokenFeed",
			"type": "event"
		},
		{
			"anonymous": false,
			"inputs": [
				{
					"indexed": true,
					"internalType": "address",
					"name": "owner",
					"type": "address"
				},
				{
					"indexed": true,
					"internalType": "uint256",
					"name": "tokenId",
					"type": "uint256"
				}
			],
			"name": "TokenMinted",
			"type": "event"
		},
		{
			"anonymous": false,
			"inputs": [
				{
					"indexed": true,
					"internalType": "address",
					"name": "from",
					"type": "address"
				},
				{
					"indexed": true,
					"internalType": "address",
					"name": "to",
					"type": "address"
				},
				{
					"indexed": true,
					"internalType": "uint256",
					"name": "tokenId",
					"type": "uint256"
				}
			],
			"name": "Transfer",
			"type": "event"
		},
		{
			"inputs": [
				{
					"internalType": "address",
					"name": "to",
					"type": "address"
				},
				{
					"internalType": "uint256",
					"name": "tokenId",
					"type": "uint256"
				}
			],
			"name": "approve",
			"outputs": [],
			"stateMutability": "nonpayable",
			"type": "function"
		},
		{
			"inputs": [
				{
					"internalType": "address",
					"name": "owner",
					"type": "address"
				}
			],
			"name": "balanceOf",
			"outputs": [
				{
					"internalType": "uint256",
					"name": "",
					"type": "uint256"
				}
			],
			"stateMutability": "view",
			"type": "function"
		},
		{
			"inputs": [],
			"name": "baseTokenURI",
			"outputs": [
				{
					"internalType": "string",
					"name": "",
					"type": "string"
				}
			],
			"stateMutability": "view",
			"type": "function"
		},
		{
			"inputs": [
				{
					"internalType": "string",
					"name": "tokenType",
					"type": "string"
				},
				{
					"internalType": "uint256",
					"name": "husbandId",
					"type": "uint256"
				},
				{
					"internalType": "uint256",
					"name": "wifeId",
					"type": "uint256"
				}
			],
			"name": "breed",
			"outputs": [
				{
					"internalType": "uint256",
					"name": "",
					"type": "uint256"
				}
			],
			"stateMutability": "nonpayable",
			"type": "function"
		},
		{
			"inputs": [],
			"name": "dataURI",
			"outputs": [
				{
					"internalType": "string",
					"name": "",
					"type": "string"
				}
			],
			"stateMutability": "view",
			"type": "function"
		},
		{
			"inputs": [
				{
					"internalType": "uint256",
					"name": "tokenId",
					"type": "uint256"
				}
			],
			"name": "evolve",
			"outputs": [],
			"stateMutability": "nonpayable",
			"type": "function"
		},
		{
			"inputs": [
				{
					"internalType": "uint256",
					"name": "tokenId",
					"type": "uint256"
				}
			],
			"name": "feeding",
			"outputs": [],
			"stateMutability": "nonpayable",
			"type": "function"
		},
		{
			"inputs": [
				{
					"internalType": "uint256",
					"name": "tokenId",
					"type": "uint256"
				}
			],
			"name": "forceEvolve",
			"outputs": [],
			"stateMutability": "nonpayable",
			"type": "function"
		},
		{
			"inputs": [
				{
					"internalType": "uint256",
					"name": "tokenId",
					"type": "uint256"
				}
			],
			"name": "getApproved",
			"outputs": [
				{
					"internalType": "address",
					"name": "",
					"type": "address"
				}
			],
			"stateMutability": "view",
			"type": "function"
		},
		{
			"inputs": [
				{
					"internalType": "uint256",
					"name": "tokenId",
					"type": "uint256"
				}
			],
			"name": "getGrowthInfo",
			"outputs": [
				{
					"internalType": "enum TokenBase.GrowthStage",
					"name": "currentStage",
					"type": "uint8"
				},
				{
					"internalType": "uint256",
					"name": "timeRemaining",
					"type": "uint256"
				}
			],
			"stateMutability": "view",
			"type": "function"
		},
		{
			"inputs": [
				{
					"internalType": "uint256",
					"name": "tokenId",
					"type": "uint256"
				}
			],
			"name": "getbreedData",
			"outputs": [
				{
					"internalType": "uint256",
					"name": "releaseTime",
					"type": "uint256"
				},
				{
					"internalType": "uint256",
					"name": "count",
					"type": "uint256"
				}
			],
			"stateMutability": "view",
			"type": "function"
		},
		{
			"inputs": [
				{
					"internalType": "address",
					"name": "initialOwner",
					"type": "address"
				},
				{
					"internalType": "address",
					"name": "_tokenTypeManager",
					"type": "address"
				},
				{
					"internalType": "string",
					"name": "name",
					"type": "string"
				},
				{
					"internalType": "string",
					"name": "symbol",
					"type": "string"
				}
			],
			"name": "initialize",
			"outputs": [],
			"stateMutability": "nonpayable",
			"type": "function"
		},
		{
			"inputs": [
				{
					"internalType": "address",
					"name": "owner",
					"type": "address"
				},
				{
					"internalType": "address",
					"name": "operator",
					"type": "address"
				}
			],
			"name": "isApprovedForAll",
			"outputs": [
				{
					"internalType": "bool",
					"name": "",
					"type": "bool"
				}
			],
			"stateMutability": "view",
			"type": "function"
		},
		{
			"inputs": [],
			"name": "metaDescription",
			"outputs": [
				{
					"internalType": "string",
					"name": "",
					"type": "string"
				}
			],
			"stateMutability": "view",
			"type": "function"
		},
		{
			"inputs": [],
			"name": "name",
			"outputs": [
				{
					"internalType": "string",
					"name": "",
					"type": "string"
				}
			],
			"stateMutability": "view",
			"type": "function"
		},
		{
			"inputs": [],
			"name": "owner",
			"outputs": [
				{
					"internalType": "address",
					"name": "",
					"type": "address"
				}
			],
			"stateMutability": "view",
			"type": "function"
		},
		{
			"inputs": [
				{
					"internalType": "uint256",
					"name": "tokenId",
					"type": "uint256"
				}
			],
			"name": "ownerOf",
			"outputs": [
				{
					"internalType": "address",
					"name": "",
					"type": "address"
				}
			],
			"stateMutability": "view",
			"type": "function"
		},
		{
			"inputs": [],
			"name": "renounceOwnership",
			"outputs": [],
			"stateMutability": "nonpayable",
			"type": "function"
		},
		{
			"inputs": [
				{
					"internalType": "address",
					"name": "from",
					"type": "address"
				},
				{
					"internalType": "address",
					"name": "to",
					"type": "address"
				},
				{
					"internalType": "uint256",
					"name": "tokenId",
					"type": "uint256"
				}
			],
			"name": "safeTransferFrom",
			"outputs": [],
			"stateMutability": "nonpayable",
			"type": "function"
		},
		{
			"inputs": [
				{
					"internalType": "address",
					"name": "from",
					"type": "address"
				},
				{
					"internalType": "address",
					"name": "to",
					"type": "address"
				},
				{
					"internalType": "uint256",
					"name": "tokenId",
					"type": "uint256"
				},
				{
					"internalType": "bytes",
					"name": "data",
					"type": "bytes"
				}
			],
			"name": "safeTransferFrom",
			"outputs": [],
			"stateMutability": "nonpayable",
			"type": "function"
		},
		{
			"inputs": [
				{
					"internalType": "address",
					"name": "operator",
					"type": "address"
				},
				{
					"internalType": "bool",
					"name": "approved",
					"type": "bool"
				}
			],
			"name": "setApprovalForAll",
			"outputs": [],
			"stateMutability": "nonpayable",
			"type": "function"
		},
		{
			"inputs": [
				{
					"internalType": "string",
					"name": "_dataURI",
					"type": "string"
				}
			],
			"name": "setDataURI",
			"outputs": [],
			"stateMutability": "nonpayable",
			"type": "function"
		},
		{
			"inputs": [
				{
					"internalType": "string",
					"name": "_imgEx",
					"type": "string"
				}
			],
			"name": "setImageExtension",
			"outputs": [],
			"stateMutability": "nonpayable",
			"type": "function"
		},
		{
			"inputs": [
				{
					"internalType": "string",
					"name": "_metaDec",
					"type": "string"
				}
			],
			"name": "setMetaDescription",
			"outputs": [],
			"stateMutability": "nonpayable",
			"type": "function"
		},
		{
			"inputs": [
				{
					"internalType": "string",
					"name": "_tokenURI",
					"type": "string"
				}
			],
			"name": "setTokenURI",
			"outputs": [],
			"stateMutability": "nonpayable",
			"type": "function"
		},
		{
			"inputs": [
				{
					"internalType": "bytes4",
					"name": "interfaceId",
					"type": "bytes4"
				}
			],
			"name": "supportsInterface",
			"outputs": [
				{
					"internalType": "bool",
					"name": "",
					"type": "bool"
				}
			],
			"stateMutability": "view",
			"type": "function"
		},
		{
			"inputs": [],
			"name": "symbol",
			"outputs": [
				{
					"internalType": "string",
					"name": "",
					"type": "string"
				}
			],
			"stateMutability": "view",
			"type": "function"
		},
		{
			"inputs": [
				{
					"internalType": "uint256",
					"name": "tokenId",
					"type": "uint256"
				}
			],
			"name": "tokenURI",
			"outputs": [
				{
					"internalType": "string",
					"name": "",
					"type": "string"
				}
			],
			"stateMutability": "view",
			"type": "function"
		},
		{
			"inputs": [
				{
					"internalType": "address",
					"name": "from",
					"type": "address"
				},
				{
					"internalType": "address",
					"name": "to",
					"type": "address"
				},
				{
					"internalType": "uint256",
					"name": "tokenId",
					"type": "uint256"
				}
			],
			"name": "transferFrom",
			"outputs": [],
			"stateMutability": "nonpayable",
			"type": "function"
		},
		{
			"inputs": [
				{
					"internalType": "address",
					"name": "newOwner",
					"type": "address"
				}
			],
			"name": "transferOwnership",
			"outputs": [],
			"stateMutability": "nonpayable",
			"type": "function"
		}
	]
}