{
	"data": {
		"bytecode": {
			"linkReferences": {},
			"object": "608060405234801561000f575f80fd5b50604051616bd1380380616bd18339818101604052810190610031919061021e565b60405161003d906101a6565b604051809103905ff080158015610056573d5f803e3d5ffd5b5060015f6101000a81548173ffffffffffffffffffffffffffffffffffffffff021916908373ffffffffffffffffffffffffffffffffffffffff16021790555060015f9054906101000a900473ffffffffffffffffffffffffffffffffffffffff16632016a0d260e01b83836040516024016100d392919061030f565b604051602081830303815290604052907bffffffffffffffffffffffffffffffffffffffffffffffffffffffff19166020820180517bffffffffffffffffffffffffffffffffffffffffffffffffffffffff838183161783525050505060405161013c906101b3565b6101479291906103cc565b604051809103905ff080158015610160573d5f803e3d5ffd5b505f806101000a81548173ffffffffffffffffffffffffffffffffffffffff021916908373ffffffffffffffffffffffffffffffffffffffff16021790555050506103fa565b615f67806105d683390190565b6106948061653d83390190565b5f80fd5b5f73ffffffffffffffffffffffffffffffffffffffff82169050919050565b5f6101ed826101c4565b9050919050565b6101fd816101e3565b8114610207575f80fd5b50565b5f81519050610218816101f4565b92915050565b5f8060408385031215610234576102336101c0565b5b5f6102418582860161020a565b92505060206102528582860161020a565b9150509250929050565b610265816101e3565b82525050565b5f82825260208201905092915050565b7f447261676f6e00000000000000000000000000000000000000000000000000005f82015250565b5f6102af60068361026b565b91506102ba8261027b565b602082019050919050565b7f44000000000000000000000000000000000000000000000000000000000000005f82015250565b5f6102f960018361026b565b9150610304826102c5565b602082019050919050565b5f6080820190506103225f83018561025c565b61032f602083018461025c565b8181036040830152610340816102a3565b90508181036060830152610353816102ed565b90509392505050565b5f81519050919050565b5f82825260208201905092915050565b8281835e5f83830152505050565b5f601f19601f8301169050919050565b5f61039e8261035c565b6103a88185610366565b93506103b8818560208601610376565b6103c181610384565b840191505092915050565b5f6040820190506103df5f83018561025c565b81810360208301526103f18184610394565b90509392505050565b6101cf806104075f395ff3fe608060405234801561000f575f80fd5b5060043610610034575f3560e01c8063ec55688914610038578063fc0c546a14610056575b5f80fd5b610040610074565b60405161004d9190610136565b60405180910390f35b61005e610097565b60405161006b9190610180565b60405180910390f35b5f8054906101000a900473ffffffffffffffffffffffffffffffffffffffff1681565b60015f9054906101000a900473ffffffffffffffffffffffffffffffffffffffff1681565b5f73ffffffffffffffffffffffffffffffffffffffff82169050919050565b5f819050919050565b5f6100fe6100f96100f4846100bc565b6100db565b6100bc565b9050919050565b5f61010f826100e4565b9050919050565b5f61012082610105565b9050919050565b61013081610116565b82525050565b5f6020820190506101495f830184610127565b92915050565b5f610159826100e4565b9050919050565b5f61016a8261014f565b9050919050565b61017a81610160565b82525050565b5f6020820190506101935f830184610171565b9291505056fea2646970667358221220040bdd1c8fc5d972b62bc11a9b3a0dbda7b3a810c21482de3f24eb60c4ece7cd64736f6c634300081a003360a06040523073ffffffffffffffffffffffffffffffffffffffff1660809073ffffffffffffffffffffffffffffffffffffffff168152503480156041575f80fd5b50608051615eff6100685f395f8181612d1a01528181612d6f0152612f290152615eff5ff3fe608060405260043610610239575f3560e01c806372ec6c031161012d578063bd9ba9e8116100aa578063e985e9c51161006e578063e985e9c514610876578063edeb4bbe146108b2578063f119f567146108dc578063f28ca1dd14610904578063f2fde38b1461092e57610239565b8063bd9ba9e81461077f578063c87b56dd146107a7578063d547cfb7146107e3578063e0df5b6f1461080d578063e4b50cb81461083557610239565b806399683c22116100f157806399683c221461068c578063a22cb465146106c8578063ad3cb1cc146106f0578063b564ea861461071a578063b88d4fde1461075757610239565b806372ec6c03146105aa5780638da5cb5b146105d257806392f2ff80146105fc57806395d89b41146106385780639659867e1461066257610239565b806330adc1cb116101bb57806352d1902d1161017f57806352d1902d146104b5578063616c0c48146104df5780636352211e1461051c57806370a0823114610558578063715018a61461059457610239565b806330adc1cb146103f957806339e3aa7e146104215780633ffc03661461044957806342842e0e146104715780634f1ef2861461049957610239565b80630cf935f7116102025780630cf935f71461032f57806318d217c3146103595780631bc80eff146103815780632016a0d2146103a957806323b872dd146103d157610239565b8062e000641461023d57806301ffc9a71461026557806306fdde03146102a1578063081812fc146102cb578063095ea7b314610307575b5f80fd5b348015610248575f80fd5b50610263600480360381019061025e9190614426565b610956565b005b348015610270575f80fd5b5061028b600480360381019061028691906144a6565b610b51565b60405161029891906144eb565b60405180910390f35b3480156102ac575f80fd5b506102b5610b62565b6040516102c29190614574565b60405180910390f35b3480156102d6575f80fd5b506102f160048036038101906102ec9190614426565b610bff565b6040516102fe91906145d3565b60405180910390f35b348015610312575f80fd5b5061032d60048036038101906103289190614616565b610c1a565b005b34801561033a575f80fd5b50610343610c30565b60405161035091906144eb565b60405180910390f35b348015610364575f80fd5b5061037f600480360381019061037a91906146b5565b610c42565b005b34801561038c575f80fd5b506103a760048036038101906103a29190614426565b610c60565b005b3480156103b4575f80fd5b506103cf60048036038101906103ca9190614828565b610e73565b005b3480156103dc575f80fd5b506103f760048036038101906103f291906148c4565b611002565b005b348015610404575f80fd5b5061041f600480360381019061041a919061493e565b611101565b005b34801561042c575f80fd5b50610447600480360381019061044291906146b5565b611125565b005b348015610454575f80fd5b5061046f600480360381019061046a9190614969565b611143565b005b34801561047c575f80fd5b50610497600480360381019061049291906148c4565b611170565b005b6104b360048036038101906104ae9190614a64565b61118f565b005b3480156104c0575f80fd5b506104c96111ae565b6040516104d69190614ad6565b60405180910390f35b3480156104ea575f80fd5b5061050560048036038101906105009190614426565b6111df565b604051610513929190614afe565b60405180910390f35b348015610527575f80fd5b50610542600480360381019061053d9190614426565b611213565b60405161054f91906145d3565b60405180910390f35b348015610563575f80fd5b5061057e60048036038101906105799190614b25565b611224565b60405161058b9190614b50565b60405180910390f35b34801561059f575f80fd5b506105a86112e8565b005b3480156105b5575f80fd5b506105d060048036038101906105cb9190614969565b6112fb565b005b3480156105dd575f80fd5b506105e6611377565b6040516105f391906145d3565b60405180910390f35b348015610607575f80fd5b50610622600480360381019061061d9190614b25565b6113ac565b60405161062f9190614c20565b60405180910390f35b348015610643575f80fd5b5061064c61149a565b6040516106599190614574565b60405180910390f35b34801561066d575f80fd5b50610676611538565b6040516106839190614b50565b60405180910390f35b348015610697575f80fd5b506106b260048036038101906106ad9190614c40565b61153e565b6040516106bf9190614b50565b60405180910390f35b3480156106d3575f80fd5b506106ee60048036038101906106e99190614cb1565b61173c565b005b3480156106fb575f80fd5b50610704611752565b6040516107119190614574565b60405180910390f35b348015610725575f80fd5b50610740600480360381019061073b9190614426565b61178b565b60405161074e929190614d62565b60405180910390f35b348015610762575f80fd5b5061077d60048036038101906107789190614d89565b6118b1565b005b34801561078a575f80fd5b506107a560048036038101906107a091906146b5565b6118ce565b005b3480156107b2575f80fd5b506107cd60048036038101906107c89190614426565b6118ec565b6040516107da9190614574565b60405180910390f35b3480156107ee575f80fd5b506107f7611d56565b6040516108049190614574565b60405180910390f35b348015610818575f80fd5b50610833600480360381019061082e91906146b5565b611de2565b005b348015610840575f80fd5b5061085b60048036038101906108569190614426565b611e00565b60405161086d96959493929190614e09565b60405180910390f35b348015610881575f80fd5b5061089c60048036038101906108979190614e6f565b611ed6565b6040516108a991906144eb565b60405180910390f35b3480156108bd575f80fd5b506108c6611f72565b6040516108d39190614574565b60405180910390f35b3480156108e7575f80fd5b5061090260048036038101906108fd9190614426565b611ffe565b005b34801561090f575f80fd5b50610918612388565b6040516109259190614574565b60405180910390f35b348015610939575f80fd5b50610954600480360381019061094f9190614b25565b612414565b005b3373ffffffffffffffffffffffffffffffffffffffff1661097682611213565b73ffffffffffffffffffffffffffffffffffffffff16146109cc576040517f08c379a00000000000000000000000000000000000000000000000000000000081526004016109c390614ef7565b60405180910390fd5b5f60015f8381526020019081526020015f205f9054906101000a900460ff1690505f60025f8481526020019081526020015f2090505f4290505f6003811115610a1857610a17614cef565b5b836003811115610a2b57610a2a614cef565b5b03610a4c57610a4081835f0154612a30612498565b825f0181905550610b1d565b60016003811115610a6057610a5f614cef565b5b836003811115610a7357610a72614cef565b5b03610a9657610a89818360010154612a30612498565b8260010181905550610b1c565b60026003811115610aaa57610aa9614cef565b5b836003811115610abd57610abc614cef565b5b03610ae057610ad3818360020154612a30612498565b8260020181905550610b1b565b6040517f08c379a0000000000000000000000000000000000000000000000000000000008152600401610b1290614f5f565b60405180910390fd5b5b5b80847f21eeee734b533a3b3a112f894043a967ba558d457ef10b84aa8d9025690f600460405160405180910390a350505050565b5f610b5b826124c7565b9050919050565b60605f610b6d612527565b9050805f018054610b7d90614faa565b80601f0160208091040260200160405190810160405280929190818152602001828054610ba990614faa565b8015610bf45780601f10610bcb57610100808354040283529160200191610bf4565b820191905f5260205f20905b815481529060010190602001808311610bd757829003601f168201915b505050505091505090565b5f610c098261254e565b50610c13826125d4565b9050919050565b610c2c8282610c2761261b565b612622565b5050565b600d5f9054906101000a900460ff1681565b610c4a612634565b818160079182610c5b929190615181565b505050565b610c68612634565b5f60015f8381526020019081526020015f205f9054906101000a900460ff1690505f6003811115610c9c57610c9b614cef565b5b816003811115610caf57610cae614cef565b5b03610d37576001805f8481526020019081526020015f205f6101000a81548160ff02191690836003811115610ce757610ce6614cef565b5b0217905550610cf46126bb565b5f808481526020019081526020015f20600101819055506202a30042610d1a919061527b565b60025f8481526020019081526020015f2060010181905550610e6f565b60016003811115610d4b57610d4a614cef565b5b816003811115610d5e57610d5d614cef565b5b03610dc857600260015f8481526020019081526020015f205f6101000a81548160ff02191690836003811115610d9757610d96614cef565b5b02179055506203f48042610dab919061527b565b60025f8481526020019081526020015f2060020181905550610e6e565b60026003811115610ddc57610ddb614cef565b5b816003811115610def57610dee614cef565b5b03610e3257600360015f8481526020019081526020015f205f6101000a81548160ff02191690836003811115610e2857610e27614cef565b5b0217905550610e6d565b6040517f08c379a0000000000000000000000000000000000000000000000000000000008152600401610e64906152f8565b60405180910390fd5b5b5b5050565b5f610e7c61271f565b90505f815f0160089054906101000a900460ff161590505f825f015f9054906101000a900467ffffffffffffffff1690505f808267ffffffffffffffff16148015610ec45750825b90505f60018367ffffffffffffffff16148015610ef757505f3073ffffffffffffffffffffffffffffffffffffffff163b145b905081158015610f05575080155b15610f3c576040517ff92ee8a900000000000000000000000000000000000000000000000000000000815260040160405180910390fd5b6001855f015f6101000a81548167ffffffffffffffff021916908367ffffffffffffffff1602179055508315610f89576001855f0160086101000a81548160ff0219169083151502179055505b610f9589898989612746565b610f9d6128cd565b8315610ff7575f855f0160086101000a81548160ff0219169083151502179055507fc7f505b2f371ae2175ee4913f4499e1f2633a7b5936321eed1cdaeb6115181d26001604051610fee9190615362565b60405180910390a15b505050505050505050565b5f73ffffffffffffffffffffffffffffffffffffffff168273ffffffffffffffffffffffffffffffffffffffff1603611072575f6040517f64a0ae9200000000000000000000000000000000000000000000000000000000815260040161106991906145d3565b60405180910390fd5b5f611085838361108061261b565b6128d7565b90508373ffffffffffffffffffffffffffffffffffffffff168173ffffffffffffffffffffffffffffffffffffffff16146110fb578382826040517f64283d7b0000000000000000000000000000000000000000000000000000000081526004016110f29392919061537b565b60405180910390fd5b50505050565b611109612634565b80600d5f6101000a81548160ff02191690831515021790555050565b61112d612634565b81816009918261113e929190615181565b505050565b600c5f815480929190611155906153b0565b919050555061116a82825f806001885f612af4565b50505050565b61118a83838360405180602001604052805f8152506118b1565b505050565b611197612d18565b6111a082612dfe565b6111aa8282612e09565b5050565b5f6111b7612f27565b7f360894a13ba1a3210667c828492db98dca3e2076cc3735a920a3ca505d382bbc5f1b905090565b5f80600b5f8481526020019081526020015f205f01549150600b5f8481526020019081526020015f20600101549050915091565b5f61121d8261254e565b9050919050565b5f8061122e612527565b90505f73ffffffffffffffffffffffffffffffffffffffff168373ffffffffffffffffffffffffffffffffffffffff16036112a0575f6040517f89c62b6400000000000000000000000000000000000000000000000000000000815260040161129791906145d3565b60405180910390fd5b806003015f8473ffffffffffffffffffffffffffffffffffffffff1673ffffffffffffffffffffffffffffffffffffffff1681526020019081526020015f2054915050919050565b6112f0612634565b6112f95f612fae565b565b600d5f9054906101000a900460ff16611349576040517f08c379a000000000000000000000000000000000000000000000000000000000815260040161134090615441565b60405180910390fd5b600c5f81548092919061135b906153b0565b919050555061137182825f806001886001612af4565b50505050565b5f8061138161307f565b9050805f015f9054906101000a900473ffffffffffffffffffffffffffffffffffffffff1691505090565b60605f60045490505f808267ffffffffffffffff8111156113d0576113cf614704565b5b6040519080825280602002602001820160405280156113fe5781602001602082028036833780820191505090505b5090505f600190505b83811161148b578573ffffffffffffffffffffffffffffffffffffffff1661142e82611213565b73ffffffffffffffffffffffffffffffffffffffff1603611478578082848151811061145d5761145c61545f565b5b6020026020010181815250508280611474906153b0565b9350505b8080611483906153b0565b915050611407565b50818152809350505050919050565b60605f6114a5612527565b90508060010180546114b690614faa565b80601f01602080910402602001604051908101604052809291908181526020018280546114e290614faa565b801561152d5780601f106115045761010080835404028352916020019161152d565b820191905f5260205f20905b81548152906001019060200180831161151057829003601f168201915b505050505091505090565b600c5481565b5f3373ffffffffffffffffffffffffffffffffffffffff1661155f84611213565b73ffffffffffffffffffffffffffffffffffffffff161480156115b557503373ffffffffffffffffffffffffffffffffffffffff1661159d83611213565b73ffffffffffffffffffffffffffffffffffffffff16145b6115f4576040517f08c379a00000000000000000000000000000000000000000000000000000000081526004016115eb90614ef7565b60405180910390fd5b6115fe83836130a6565b1561163e576040517f08c379a0000000000000000000000000000000000000000000000000000000008152600401611635906154d6565b60405180910390fd5b61164783613116565b8015611658575061165782613116565b5b611697576040517f08c379a000000000000000000000000000000000000000000000000000000000815260040161168e9061553e565b60405180910390fd5b6116a18383613134565b6116e0576040517f08c379a00000000000000000000000000000000000000000000000000000000081526004016116d7906155a6565b60405180910390fd5b6116e983613171565b6116f282613171565b5f6116ff868686866131c3565b90508083857f57f2b9f5c840c33473a81f7a678b3b71541515153fe9c4ccb4d909c5ca3f7d4460405160405180910390a480915050949350505050565b61174e61174761261b565b8383613239565b5050565b6040518060400160405280600581526020017f352e302e3000000000000000000000000000000000000000000000000000000081525081565b5f8060015f8481526020019081526020015f205f9054906101000a900460ff1691505f4290505f8060038111156117c5576117c4614cef565b5b8460038111156117d8576117d7614cef565b5b036117f85760025f8681526020019081526020015f205f0154905061188e565b6001600381111561180c5761180b614cef565b5b84600381111561181f5761181e614cef565b5b036118405760025f8681526020019081526020015f2060010154905061188d565b6002600381111561185457611853614cef565b5b84600381111561186757611866614cef565b5b036118885760025f8681526020019081526020015f2060020154905061188c565b5f90505b5b5b81811161189b575f6118a8565b81816118a791906155c4565b5b92505050915091565b6118bc848484611002565b6118c8848484846133b0565b50505050565b6118d6612634565b8181600891826118e7929190615181565b505050565b60605f600680546118fc90614faa565b9050111561193657600661190f83613562565b6040516020016119209291906156b1565b6040516020818303038152906040529050611d51565b60605f600381111561194b5761194a614cef565b5b60015f8581526020019081526020015f205f9054906101000a900460ff16600381111561197b5761197a614cef565b5b036119b8575f808481526020019081526020015f205f016040516020016119a2919061571e565b6040516020818303038152906040529050611d0a565b60605f808581526020019081526020015f206005015f9054906101000a900460ff1615611a735760015f808681526020019081526020015f206004015414611a35576040518060400160405280600181526020017f6200000000000000000000000000000000000000000000000000000000000000815250611a6c565b6040518060400160405280600181526020017f67000000000000000000000000000000000000000000000000000000000000008152505b9050611aac565b6040518060400160405280600181526020017f6e0000000000000000000000000000000000000000000000000000000000000081525090505b5f60015f808781526020019081526020015f206001015414611b03576040518060400160405280600181526020017f6600000000000000000000000000000000000000000000000000000000000000815250611b3a565b6040518060400160405280600181526020017f6d000000000000000000000000000000000000000000000000000000000000008152505b9050606060016003811115611b5257611b51614cef565b5b60015f8881526020019081526020015f205f9054906101000a900460ff166003811115611b8257611b81614cef565b5b03611bc4576040518060400160405280600581526020017f68617463680000000000000000000000000000000000000000000000000000008152509050611ccd565b60026003811115611bd857611bd7614cef565b5b60015f8881526020019081526020015f205f9054906101000a900460ff166003811115611c0857611c07614cef565b5b03611c4a576040518060400160405280600981526020017f68617463686c696e6700000000000000000000000000000000000000000000008152509050611ccc565b600380811115611c5d57611c5c614cef565b5b60015f8881526020019081526020015f205f9054906101000a900460ff166003811115611c8d57611c8c614cef565b5b03611ccb576040518060400160405280600581526020017f6164756c7400000000000000000000000000000000000000000000000000000081525090505b5b5b5f808781526020019081526020015f205f01838383604051602001611cf59493929190615789565b60405160208183030381529060405293505050505b611d1383613562565b60078260095f808881526020019081526020015f205f01604051602001611d3e9594939291906159a7565b6040516020818303038152906040529150505b919050565b60068054611d6390614faa565b80601f0160208091040260200160405190810160405280929190818152602001828054611d8f90614faa565b8015611dda5780601f10611db157610100808354040283529160200191611dda565b820191905f5260205f20905b815481529060010190602001808311611dbd57829003601f168201915b505050505081565b611dea612634565b818160069182611dfb929190615181565b505050565b5f805f805f60605f805f8981526020019081526020015f20905080600101548160020154826003015483600401548460060154855f01808054611e4290614faa565b80601f0160208091040260200160405190810160405280929190818152602001828054611e6e90614faa565b8015611eb95780601f10611e9057610100808354040283529160200191611eb9565b820191905f5260205f20905b815481529060010190602001808311611e9c57829003601f168201915b505050505090509650965096509650965096505091939550919395565b5f80611ee0612527565b9050806005015f8573ffffffffffffffffffffffffffffffffffffffff1673ffffffffffffffffffffffffffffffffffffffff1681526020019081526020015f205f8473ffffffffffffffffffffffffffffffffffffffff1673ffffffffffffffffffffffffffffffffffffffff1681526020019081526020015f205f9054906101000a900460ff1691505092915050565b60088054611f7f90614faa565b80601f0160208091040260200160405190810160405280929190818152602001828054611fab90614faa565b8015611ff65780601f10611fcd57610100808354040283529160200191611ff6565b820191905f5260205f20905b815481529060010190602001808311611fd957829003601f168201915b505050505081565b3373ffffffffffffffffffffffffffffffffffffffff1661201e82611213565b73ffffffffffffffffffffffffffffffffffffffff1614612074576040517f08c379a000000000000000000000000000000000000000000000000000000000815260040161206b90614ef7565b60405180910390fd5b5f60015f8381526020019081526020015f205f9054906101000a900460ff1690505f4290505f60038111156120ac576120ab614cef565b5b8260038111156120bf576120be614cef565b5b1480156120df575060025f8481526020019081526020015f205f01548110155b1561219d576001805f8581526020019081526020015f205f6101000a81548160ff0219169083600381111561211757612116614cef565b5b02179055506121246126bb565b5f808581526020019081526020015f20600101819055506202a3008161214a919061527b565b60025f8581526020019081526020015f2060010181905550827f75d0c2d3465e305d01011d67a4faaa50f6c6b307e33d72194a4ba97acce8697560405161219090615a67565b60405180910390a2612383565b600160038111156121b1576121b0614cef565b5b8260038111156121c4576121c3614cef565b5b1480156121e5575060025f8481526020019081526020015f20600101548110155b1561228557600260015f8581526020019081526020015f205f6101000a81548160ff0219169083600381111561221e5761221d614cef565b5b02179055506203f48081612232919061527b565b60025f8581526020019081526020015f2060020181905550827f75d0c2d3465e305d01011d67a4faaa50f6c6b307e33d72194a4ba97acce8697560405161227890615acf565b60405180910390a2612382565b6002600381111561229957612298614cef565b5b8260038111156122ac576122ab614cef565b5b1480156122cd575060025f8481526020019081526020015f20600201548110155b1561234657600360015f8581526020019081526020015f205f6101000a81548160ff0219169083600381111561230657612305614cef565b5b0217905550827f75d0c2d3465e305d01011d67a4faaa50f6c6b307e33d72194a4ba97acce8697560405161233990615b37565b60405180910390a2612381565b6040517f08c379a0000000000000000000000000000000000000000000000000000000008152600401612378906152f8565b60405180910390fd5b5b5b505050565b6007805461239590614faa565b80601f01602080910402602001604051908101604052809291908181526020018280546123c190614faa565b801561240c5780601f106123e35761010080835404028352916020019161240c565b820191905f5260205f20905b8154815290600101906020018083116123ef57829003601f168201915b505050505081565b61241c612634565b5f73ffffffffffffffffffffffffffffffffffffffff168173ffffffffffffffffffffffffffffffffffffffff160361248c575f6040517f1e4fbdf700000000000000000000000000000000000000000000000000000000815260040161248391906145d3565b60405180910390fd5b61249581612fae565b50565b5f81846124a5919061527b565b83116124b157836124be565b81836124bd91906155c4565b5b90509392505050565b5f634906490660e01b7bffffffffffffffffffffffffffffffffffffffffffffffffffffffff1916827bffffffffffffffffffffffffffffffffffffffffffffffffffffffff19161480612520575061251f8261362c565b5b9050919050565b5f7f80bb2b638cc20bc4d0a60d66940f3ab4a00c1d7b313497ca82fb0b4ab0079300905090565b5f806125598361370d565b90505f73ffffffffffffffffffffffffffffffffffffffff168173ffffffffffffffffffffffffffffffffffffffff16036125cb57826040517f7e2732890000000000000000000000000000000000000000000000000000000081526004016125c29190614b50565b60405180910390fd5b80915050919050565b5f806125de612527565b9050806004015f8481526020019081526020015f205f9054906101000a900473ffffffffffffffffffffffffffffffffffffffff16915050919050565b5f33905090565b61262f8383836001613754565b505050565b61263c61261b565b73ffffffffffffffffffffffffffffffffffffffff1661265a611377565b73ffffffffffffffffffffffffffffffffffffffff16146126b95761267d61261b565b6040517f118cdaa70000000000000000000000000000000000000000000000000000000081526004016126b091906145d3565b60405180910390fd5b565b5f60055f8154809291906126ce906153b0565b91905055506001600242336005546040516020016126ee93929190615bba565b604051602081830303815290604052805190602001205f1c6127109190615c23565b61271a919061527b565b905090565b5f7ff0c57e16840df040f15088dc2f81fe391c3923bec73e23a9662efc9c229c6a00905090565b5f61274f61271f565b90505f815f0160089054906101000a900460ff161590505f825f015f9054906101000a900467ffffffffffffffff1690505f808267ffffffffffffffff161480156127975750825b90505f60018367ffffffffffffffff161480156127ca57505f3073ffffffffffffffffffffffffffffffffffffffff163b145b9050811580156127d8575080155b1561280f576040517ff92ee8a900000000000000000000000000000000000000000000000000000000815260040160405180910390fd5b6001855f015f6101000a81548167ffffffffffffffff021916908367ffffffffffffffff160217905550831561285c576001855f0160086101000a81548160ff0219169083151502179055505b61286889898989613921565b83156128c2575f855f0160086101000a81548160ff0219169083151502179055507fc7f505b2f371ae2175ee4913f4499e1f2633a7b5936321eed1cdaeb6115181d260016040516128b99190615362565b60405180910390a15b505050505050505050565b6128d5613b05565b565b5f806128e1612527565b90505f6128ed8561370d565b90505f73ffffffffffffffffffffffffffffffffffffffff168473ffffffffffffffffffffffffffffffffffffffff161461292e5761292d818587613b45565b5b5f73ffffffffffffffffffffffffffffffffffffffff168173ffffffffffffffffffffffffffffffffffffffff16146129bb5761296d5f865f80613754565b6001826003015f8373ffffffffffffffffffffffffffffffffffffffff1673ffffffffffffffffffffffffffffffffffffffff1681526020019081526020015f205f82825403925050819055505b5f73ffffffffffffffffffffffffffffffffffffffff168673ffffffffffffffffffffffffffffffffffffffff1614612a3c576001826003015f8873ffffffffffffffffffffffffffffffffffffffff1673ffffffffffffffffffffffffffffffffffffffff1681526020019081526020015f205f82825401925050819055505b85826002015f8781526020019081526020015f205f6101000a81548173ffffffffffffffffffffffffffffffffffffffff021916908373ffffffffffffffffffffffffffffffffffffffff160217905550848673ffffffffffffffffffffffffffffffffffffffff168273ffffffffffffffffffffffffffffffffffffffff167fddf252ad1be2c89b69c2b068fc378daa952ba7f163c4a11628f55a4df523b3ef60405160405180910390a480925050509392505050565b5f8060045f8154612b04906153b0565b91905081905590506040518060e001604052808a8a8080601f0160208091040260200160405190810160405280939291908181526020018383808284375f81840152601f19601f8201169050808301925050505050505081526020015f81526020018881526020018781526020018681526020018415158152602001428152505f808381526020019081526020015f205f820151815f019081612ba79190615c53565b506020820151816001015560408201518160020155606082015181600301556080820151816004015560a0820151816005015f6101000a81548160ff02191690831515021790555060c082015181600601559050506202a30042612c0b919061527b565b60025f8381526020019081526020015f205f01819055505f60015f8381526020019081526020015f205f6101000a81548160ff02191690836003811115612c5557612c54614cef565b5b0217905550612c648482613c08565b60035f8573ffffffffffffffffffffffffffffffffffffffff1673ffffffffffffffffffffffffffffffffffffffff1681526020019081526020015f2081908060018154018082558091505060019003905f5260205f20015f9091909190915055808473ffffffffffffffffffffffffffffffffffffffff167fb9144c96c86541f6fa89c9f2f02495cccf4b08cd6643e26d34ee00aa586558a860405160405180910390a380915050979650505050505050565b7f000000000000000000000000000000000000000000000000000000000000000073ffffffffffffffffffffffffffffffffffffffff163073ffffffffffffffffffffffffffffffffffffffff161480612dc557507f000000000000000000000000000000000000000000000000000000000000000073ffffffffffffffffffffffffffffffffffffffff16612dac613c25565b73ffffffffffffffffffffffffffffffffffffffff1614155b15612dfc576040517fe07c8dba00000000000000000000000000000000000000000000000000000000815260040160405180910390fd5b565b612e06612634565b50565b8173ffffffffffffffffffffffffffffffffffffffff166352d1902d6040518163ffffffff1660e01b8152600401602060405180830381865afa925050508015612e7157506040513d601f19601f82011682018060405250810190612e6e9190615d4c565b60015b612eb257816040517f4c9c8ce3000000000000000000000000000000000000000000000000000000008152600401612ea991906145d3565b60405180910390fd5b7f360894a13ba1a3210667c828492db98dca3e2076cc3735a920a3ca505d382bbc5f1b8114612f1857806040517faa1d49a4000000000000000000000000000000000000000000000000000000008152600401612f0f9190614ad6565b60405180910390fd5b612f228383613c78565b505050565b7f000000000000000000000000000000000000000000000000000000000000000073ffffffffffffffffffffffffffffffffffffffff163073ffffffffffffffffffffffffffffffffffffffff1614612fac576040517fe07c8dba00000000000000000000000000000000000000000000000000000000815260040160405180910390fd5b565b5f612fb761307f565b90505f815f015f9054906101000a900473ffffffffffffffffffffffffffffffffffffffff16905082825f015f6101000a81548173ffffffffffffffffffffffffffffffffffffffff021916908373ffffffffffffffffffffffffffffffffffffffff1602179055508273ffffffffffffffffffffffffffffffffffffffff168173ffffffffffffffffffffffffffffffffffffffff167f8be0079c531659141344cd1fd0a4f28419497f9722a3daafe3b4186f6b6457e060405160405180910390a3505050565b5f7f9016d09d72d40fdae2fd8ceac6b6234c7706214fd39c1cd1e609a0528c199300905090565b5f805f808581526020019081526020015f2090505f805f8581526020019081526020015f2090506001826004015414806130e4575060018160040154145b61310a57806002015482600201541480613105575080600301548260030154145b61310c565b5f5b9250505092915050565b5f42600b5f8481526020019081526020015f205f0154109050919050565b5f805f808581526020019081526020015f2090505f805f8581526020019081526020015f2090508060010154826001015414159250505092915050565b600b5f8281526020019081526020015f206001015f815480929190613195906153b0565b91905055506203f480426131a9919061527b565b600b5f8381526020019081526020015f205f018190555050565b5f805f808581526020019081526020015f2090505f805f8581526020019081526020015f2090505f816004015483600401541161320457816004015461320a565b82600401545b90505f61322889898989600187613221919061527b565b335f612af4565b905080945050505050949350505050565b5f613242612527565b90505f73ffffffffffffffffffffffffffffffffffffffff168373ffffffffffffffffffffffffffffffffffffffff16036132b457826040517f5b08ba180000000000000000000000000000000000000000000000000000000081526004016132ab91906145d3565b60405180910390fd5b81816005015f8673ffffffffffffffffffffffffffffffffffffffff1673ffffffffffffffffffffffffffffffffffffffff1681526020019081526020015f205f8573ffffffffffffffffffffffffffffffffffffffff1673ffffffffffffffffffffffffffffffffffffffff1681526020019081526020015f205f6101000a81548160ff0219169083151502179055508273ffffffffffffffffffffffffffffffffffffffff168473ffffffffffffffffffffffffffffffffffffffff167f17307eab39ab6107e8899845ad3d59bd9653f200f220920489ca2b5937696c31846040516133a291906144eb565b60405180910390a350505050565b5f8373ffffffffffffffffffffffffffffffffffffffff163b111561355c578273ffffffffffffffffffffffffffffffffffffffff1663150b7a026133f361261b565b8685856040518563ffffffff1660e01b81526004016134159493929190615dc9565b6020604051808303815f875af192505050801561345057506040513d601f19601f8201168201806040525081019061344d9190615e27565b60015b6134d1573d805f811461347e576040519150601f19603f3d011682016040523d82523d5f602084013e613483565b606091505b505f8151036134c957836040517f64a0ae920000000000000000000000000000000000000000000000000000000081526004016134c091906145d3565b60405180910390fd5b805181602001fd5b63150b7a0260e01b7bffffffffffffffffffffffffffffffffffffffffffffffffffffffff1916817bffffffffffffffffffffffffffffffffffffffffffffffffffffffff19161461355a57836040517f64a0ae9200000000000000000000000000000000000000000000000000000000815260040161355191906145d3565b60405180910390fd5b505b50505050565b60605f600161357084613cea565b0190505f8167ffffffffffffffff81111561358e5761358d614704565b5b6040519080825280601f01601f1916602001820160405280156135c05781602001600182028036833780820191505090505b5090505f82602001820190505b600115613621578080600190039150507f3031323334353637383961626364656600000000000000000000000000000000600a86061a8153600a858161361657613615615bf6565b5b0494505f85036135cd575b819350505050919050565b5f7f80ac58cd000000000000000000000000000000000000000000000000000000007bffffffffffffffffffffffffffffffffffffffffffffffffffffffff1916827bffffffffffffffffffffffffffffffffffffffffffffffffffffffff191614806136f657507f5b5e139f000000000000000000000000000000000000000000000000000000007bffffffffffffffffffffffffffffffffffffffffffffffffffffffff1916827bffffffffffffffffffffffffffffffffffffffffffffffffffffffff1916145b80613706575061370582613e3b565b5b9050919050565b5f80613717612527565b9050806002015f8481526020019081526020015f205f9054906101000a900473ffffffffffffffffffffffffffffffffffffffff16915050919050565b5f61375d612527565b9050818061379757505f73ffffffffffffffffffffffffffffffffffffffff168373ffffffffffffffffffffffffffffffffffffffff1614155b156138c9575f6137a68561254e565b90505f73ffffffffffffffffffffffffffffffffffffffff168473ffffffffffffffffffffffffffffffffffffffff161415801561381057508373ffffffffffffffffffffffffffffffffffffffff168173ffffffffffffffffffffffffffffffffffffffff1614155b801561382357506138218185611ed6565b155b1561386557836040517fa9fbf51f00000000000000000000000000000000000000000000000000000000815260040161385c91906145d3565b60405180910390fd5b82156138c757848673ffffffffffffffffffffffffffffffffffffffff168273ffffffffffffffffffffffffffffffffffffffff167f8c5be1e5ebec7d5bd14f71427d1e84f3dd0314c0f7b2291e5b200ac8c7c3b92560405160405180910390a45b505b84816004015f8681526020019081526020015f205f6101000a81548173ffffffffffffffffffffffffffffffffffffffff021916908373ffffffffffffffffffffffffffffffffffffffff1602179055505050505050565b5f61392a61271f565b90505f815f0160089054906101000a900460ff161590505f825f015f9054906101000a900467ffffffffffffffff1690505f808267ffffffffffffffff161480156139725750825b90505f60018367ffffffffffffffff161480156139a557505f3073ffffffffffffffffffffffffffffffffffffffff163b145b9050811580156139b3575080155b156139ea576040517ff92ee8a900000000000000000000000000000000000000000000000000000000815260040160405180910390fd5b6001855f015f6101000a81548167ffffffffffffffff021916908367ffffffffffffffff1602179055508315613a37576001855f0160086101000a81548160ff0219169083151502179055505b613a418787613ea4565b613a49613eba565b613a5289613ec4565b5f6005819055505f60048190555087600a5f6101000a81548173ffffffffffffffffffffffffffffffffffffffff021916908373ffffffffffffffffffffffffffffffffffffffff1602179055508315613afa575f855f0160086101000a81548160ff0219169083151502179055507fc7f505b2f371ae2175ee4913f4499e1f2633a7b5936321eed1cdaeb6115181d26001604051613af19190615362565b60405180910390a15b505050505050505050565b613b0d613ed8565b613b43576040517fd7e6bcf800000000000000000000000000000000000000000000000000000000815260040160405180910390fd5b565b613b50838383613ef6565b613c03575f73ffffffffffffffffffffffffffffffffffffffff168373ffffffffffffffffffffffffffffffffffffffff1603613bc457806040517f7e273289000000000000000000000000000000000000000000000000000000008152600401613bbb9190614b50565b60405180910390fd5b81816040517f177e802f000000000000000000000000000000000000000000000000000000008152600401613bfa929190615e52565b60405180910390fd5b505050565b613c21828260405180602001604052805f815250613fb6565b5050565b5f613c517f360894a13ba1a3210667c828492db98dca3e2076cc3735a920a3ca505d382bbc5f1b613fd1565b5f015f9054906101000a900473ffffffffffffffffffffffffffffffffffffffff16905090565b613c8182613fda565b8173ffffffffffffffffffffffffffffffffffffffff167fbc7cd75a20ee27fd9adebab32041f755214dbc6bffa90cc0225b39da2e5c2d3b60405160405180910390a25f81511115613cdd57613cd782826140a3565b50613ce6565b613ce5614123565b5b5050565b5f805f90507a184f03e93ff9f4daa797ed6e38ed64bf6a1f0100000000000000008310613d46577a184f03e93ff9f4daa797ed6e38ed64bf6a1f0100000000000000008381613d3c57613d3b615bf6565b5b0492506040810190505b6d04ee2d6d415b85acef81000000008310613d83576d04ee2d6d415b85acef81000000008381613d7957613d78615bf6565b5b0492506020810190505b662386f26fc100008310613db257662386f26fc100008381613da857613da7615bf6565b5b0492506010810190505b6305f5e1008310613ddb576305f5e1008381613dd157613dd0615bf6565b5b0492506008810190505b6127108310613e00576127108381613df657613df5615bf6565b5b0492506004810190505b60648310613e235760648381613e1957613e18615bf6565b5b0492506002810190505b600a8310613e32576001810190505b80915050919050565b5f7f01ffc9a7000000000000000000000000000000000000000000000000000000007bffffffffffffffffffffffffffffffffffffffffffffffffffffffff1916827bffffffffffffffffffffffffffffffffffffffffffffffffffffffff1916149050919050565b613eac613b05565b613eb6828261415f565b5050565b613ec2613b05565b565b613ecc613b05565b613ed58161419a565b50565b5f613ee161271f565b5f0160089054906101000a900460ff16905090565b5f8073ffffffffffffffffffffffffffffffffffffffff168373ffffffffffffffffffffffffffffffffffffffff1614158015613fad57508273ffffffffffffffffffffffffffffffffffffffff168473ffffffffffffffffffffffffffffffffffffffff161480613f6e5750613f6d8484611ed6565b5b80613fac57508273ffffffffffffffffffffffffffffffffffffffff16613f94836125d4565b73ffffffffffffffffffffffffffffffffffffffff16145b5b90509392505050565b613fc0838361421e565b613fcc5f8484846133b0565b505050565b5f819050919050565b5f8173ffffffffffffffffffffffffffffffffffffffff163b0361403557806040517f4c9c8ce300000000000000000000000000000000000000000000000000000000815260040161402c91906145d3565b60405180910390fd5b806140617f360894a13ba1a3210667c828492db98dca3e2076cc3735a920a3ca505d382bbc5f1b613fd1565b5f015f6101000a81548173ffffffffffffffffffffffffffffffffffffffff021916908373ffffffffffffffffffffffffffffffffffffffff16021790555050565b60605f808473ffffffffffffffffffffffffffffffffffffffff16846040516140cc9190615eb3565b5f60405180830381855af49150503d805f8114614104576040519150601f19603f3d011682016040523d82523d5f602084013e614109565b606091505b5091509150614119858383614311565b9250505092915050565b5f34111561415d576040517fb398979f00000000000000000000000000000000000000000000000000000000815260040160405180910390fd5b565b614167613b05565b5f614170612527565b905082815f0190816141829190615c53565b50818160010190816141949190615c53565b50505050565b6141a2613b05565b5f73ffffffffffffffffffffffffffffffffffffffff168173ffffffffffffffffffffffffffffffffffffffff1603614212575f6040517f1e4fbdf700000000000000000000000000000000000000000000000000000000815260040161420991906145d3565b60405180910390fd5b61421b81612fae565b50565b5f73ffffffffffffffffffffffffffffffffffffffff168273ffffffffffffffffffffffffffffffffffffffff160361428e575f6040517f64a0ae9200000000000000000000000000000000000000000000000000000000815260040161428591906145d3565b60405180910390fd5b5f61429a83835f6128d7565b90505f73ffffffffffffffffffffffffffffffffffffffff168173ffffffffffffffffffffffffffffffffffffffff161461430c575f6040517f73c6ac6e00000000000000000000000000000000000000000000000000000000815260040161430391906145d3565b60405180910390fd5b505050565b606082614326576143218261439e565b614396565b5f825114801561434c57505f8473ffffffffffffffffffffffffffffffffffffffff163b145b1561438e57836040517f9996b31500000000000000000000000000000000000000000000000000000000815260040161438591906145d3565b60405180910390fd5b819050614397565b5b9392505050565b5f815111156143b05780518082602001fd5b6040517f1425ea4200000000000000000000000000000000000000000000000000000000815260040160405180910390fd5b5f604051905090565b5f80fd5b5f80fd5b5f819050919050565b614405816143f3565b811461440f575f80fd5b50565b5f81359050614420816143fc565b92915050565b5f6020828403121561443b5761443a6143eb565b5b5f61444884828501614412565b91505092915050565b5f7fffffffff0000000000000000000000000000000000000000000000000000000082169050919050565b61448581614451565b811461448f575f80fd5b50565b5f813590506144a08161447c565b92915050565b5f602082840312156144bb576144ba6143eb565b5b5f6144c884828501614492565b91505092915050565b5f8115159050919050565b6144e5816144d1565b82525050565b5f6020820190506144fe5f8301846144dc565b92915050565b5f81519050919050565b5f82825260208201905092915050565b8281835e5f83830152505050565b5f601f19601f8301169050919050565b5f61454682614504565b614550818561450e565b935061456081856020860161451e565b6145698161452c565b840191505092915050565b5f6020820190508181035f83015261458c818461453c565b905092915050565b5f73ffffffffffffffffffffffffffffffffffffffff82169050919050565b5f6145bd82614594565b9050919050565b6145cd816145b3565b82525050565b5f6020820190506145e65f8301846145c4565b92915050565b6145f5816145b3565b81146145ff575f80fd5b50565b5f81359050614610816145ec565b92915050565b5f806040838503121561462c5761462b6143eb565b5b5f61463985828601614602565b925050602061464a85828601614412565b9150509250929050565b5f80fd5b5f80fd5b5f80fd5b5f8083601f84011261467557614674614654565b5b8235905067ffffffffffffffff81111561469257614691614658565b5b6020830191508360018202830111156146ae576146ad61465c565b5b9250929050565b5f80602083850312156146cb576146ca6143eb565b5b5f83013567ffffffffffffffff8111156146e8576146e76143ef565b5b6146f485828601614660565b92509250509250929050565b5f80fd5b7f4e487b71000000000000000000000000000000000000000000000000000000005f52604160045260245ffd5b61473a8261452c565b810181811067ffffffffffffffff8211171561475957614758614704565b5b80604052505050565b5f61476b6143e2565b90506147778282614731565b919050565b5f67ffffffffffffffff82111561479657614795614704565b5b61479f8261452c565b9050602081019050919050565b828183375f83830152505050565b5f6147cc6147c78461477c565b614762565b9050828152602081018484840111156147e8576147e7614700565b5b6147f38482856147ac565b509392505050565b5f82601f83011261480f5761480e614654565b5b813561481f8482602086016147ba565b91505092915050565b5f805f80608085870312156148405761483f6143eb565b5b5f61484d87828801614602565b945050602061485e87828801614602565b935050604085013567ffffffffffffffff81111561487f5761487e6143ef565b5b61488b878288016147fb565b925050606085013567ffffffffffffffff8111156148ac576148ab6143ef565b5b6148b8878288016147fb565b91505092959194509250565b5f805f606084860312156148db576148da6143eb565b5b5f6148e886828701614602565b93505060206148f986828701614602565b925050604061490a86828701614412565b9150509250925092565b61491d816144d1565b8114614927575f80fd5b50565b5f8135905061493881614914565b92915050565b5f60208284031215614953576149526143eb565b5b5f6149608482850161492a565b91505092915050565b5f805f604084860312156149805761497f6143eb565b5b5f61498d86828701614602565b935050602084013567ffffffffffffffff8111156149ae576149ad6143ef565b5b6149ba86828701614660565b92509250509250925092565b5f67ffffffffffffffff8211156149e0576149df614704565b5b6149e98261452c565b9050602081019050919050565b5f614a08614a03846149c6565b614762565b905082815260208101848484011115614a2457614a23614700565b5b614a2f8482856147ac565b509392505050565b5f82601f830112614a4b57614a4a614654565b5b8135614a5b8482602086016149f6565b91505092915050565b5f8060408385031215614a7a57614a796143eb565b5b5f614a8785828601614602565b925050602083013567ffffffffffffffff811115614aa857614aa76143ef565b5b614ab485828601614a37565b9150509250929050565b5f819050919050565b614ad081614abe565b82525050565b5f602082019050614ae95f830184614ac7565b92915050565b614af8816143f3565b82525050565b5f604082019050614b115f830185614aef565b614b1e6020830184614aef565b9392505050565b5f60208284031215614b3a57614b396143eb565b5b5f614b4784828501614602565b91505092915050565b5f602082019050614b635f830184614aef565b92915050565b5f81519050919050565b5f82825260208201905092915050565b5f819050602082019050919050565b614b9b816143f3565b82525050565b5f614bac8383614b92565b60208301905092915050565b5f602082019050919050565b5f614bce82614b69565b614bd88185614b73565b9350614be383614b83565b805f5b83811015614c13578151614bfa8882614ba1565b9750614c0583614bb8565b925050600181019050614be6565b5085935050505092915050565b5f6020820190508181035f830152614c388184614bc4565b905092915050565b5f805f8060608587031215614c5857614c576143eb565b5b5f85013567ffffffffffffffff811115614c7557614c746143ef565b5b614c8187828801614660565b94509450506020614c9487828801614412565b9250506040614ca587828801614412565b91505092959194509250565b5f8060408385031215614cc757614cc66143eb565b5b5f614cd485828601614602565b9250506020614ce58582860161492a565b9150509250929050565b7f4e487b71000000000000000000000000000000000000000000000000000000005f52602160045260245ffd5b60048110614d2d57614d2c614cef565b5b50565b5f819050614d3d82614d1c565b919050565b5f614d4c82614d30565b9050919050565b614d5c81614d42565b82525050565b5f604082019050614d755f830185614d53565b614d826020830184614aef565b9392505050565b5f805f8060808587031215614da157614da06143eb565b5b5f614dae87828801614602565b9450506020614dbf87828801614602565b9350506040614dd087828801614412565b925050606085013567ffffffffffffffff811115614df157614df06143ef565b5b614dfd87828801614a37565b91505092959194509250565b5f60c082019050614e1c5f830189614aef565b614e296020830188614aef565b614e366040830187614aef565b614e436060830186614aef565b614e506080830185614aef565b81810360a0830152614e62818461453c565b9050979650505050505050565b5f8060408385031215614e8557614e846143eb565b5b5f614e9285828601614602565b9250506020614ea385828601614602565b9150509250929050565b7f4e6f74206f776e657200000000000000000000000000000000000000000000005f82015250565b5f614ee160098361450e565b9150614eec82614ead565b602082019050919050565b5f6020820190508181035f830152614f0e81614ed5565b9050919050565b7f496e76616c69642067726f7774682073746167650000000000000000000000005f82015250565b5f614f4960148361450e565b9150614f5482614f15565b602082019050919050565b5f6020820190508181035f830152614f7681614f3d565b9050919050565b7f4e487b71000000000000000000000000000000000000000000000000000000005f52602260045260245ffd5b5f6002820490506001821680614fc157607f821691505b602082108103614fd457614fd3614f7d565b5b50919050565b5f82905092915050565b5f819050815f5260205f209050919050565b5f6020601f8301049050919050565b5f82821b905092915050565b5f600883026150407fffffffffffffffffffffffffffffffffffffffffffffffffffffffffffffffff82615005565b61504a8683615005565b95508019841693508086168417925050509392505050565b5f819050919050565b5f61508561508061507b846143f3565b615062565b6143f3565b9050919050565b5f819050919050565b61509e8361506b565b6150b26150aa8261508c565b848454615011565b825550505050565b5f90565b6150c66150ba565b6150d1818484615095565b505050565b5b818110156150f4576150e95f826150be565b6001810190506150d7565b5050565b601f8211156151395761510a81614fe4565b61511384614ff6565b81016020851015615122578190505b61513661512e85614ff6565b8301826150d6565b50505b505050565b5f82821c905092915050565b5f6151595f198460080261513e565b1980831691505092915050565b5f615171838361514a565b9150826002028217905092915050565b61518b8383614fda565b67ffffffffffffffff8111156151a4576151a3614704565b5b6151ae8254614faa565b6151b98282856150f8565b5f601f8311600181146151e6575f84156151d4578287013590505b6151de8582615166565b865550615245565b601f1984166151f486614fe4565b5f5b8281101561521b578489013582556001820191506020850194506020810190506151f6565b868310156152385784890135615234601f89168261514a565b8355505b6001600288020188555050505b50505050505050565b7f4e487b71000000000000000000000000000000000000000000000000000000005f52601160045260245ffd5b5f615285826143f3565b9150615290836143f3565b92508282019050808211156152a8576152a761524e565b5b92915050565b7f556e61626c6520746f2065766f6c7665000000000000000000000000000000005f82015250565b5f6152e260108361450e565b91506152ed826152ae565b602082019050919050565b5f6020820190508181035f83015261530f816152d6565b9050919050565b5f819050919050565b5f67ffffffffffffffff82169050919050565b5f61534c61534761534284615316565b615062565b61531f565b9050919050565b61535c81615332565b82525050565b5f6020820190506153755f830184615353565b92915050565b5f60608201905061538e5f8301866145c4565b61539b6020830185614aef565b6153a860408301846145c4565b949350505050565b5f6153ba826143f3565b91507fffffffffffffffffffffffffffffffffffffffffffffffffffffffffffffffff82036153ec576153eb61524e565b5b600182019050919050565b7f5072656d69756d206d696e74696e67206973206e6f7420656e61626c656400005f82015250565b5f61542b601e8361450e565b9150615436826153f7565b602082019050919050565b5f6020820190508181035f8301526154588161541f565b9050919050565b7f4e487b71000000000000000000000000000000000000000000000000000000005f52603260045260245ffd5b7f496e6365737400000000000000000000000000000000000000000000000000005f82015250565b5f6154c060068361450e565b91506154cb8261548c565b602082019050919050565b5f6020820190508181035f8301526154ed816154b4565b9050919050565b7f4272656564696e67206e6f7420616c6c6f7765642079657400000000000000005f82015250565b5f61552860188361450e565b9150615533826154f4565b602082019050919050565b5f6020820190508181035f8301526155558161551c565b9050919050565b7f53616d652067656e6465720000000000000000000000000000000000000000005f82015250565b5f615590600b8361450e565b915061559b8261555c565b602082019050919050565b5f6020820190508181035f8301526155bd81615584565b9050919050565b5f6155ce826143f3565b91506155d9836143f3565b92508282039050818111156155f1576155f061524e565b5b92915050565b5f81905092915050565b5f815461560d81614faa565b61561781866155f7565b9450600182165f8114615631576001811461564657615678565b60ff1983168652811515820286019350615678565b61564f85614fe4565b5f5b8381101561567057815481890152600182019150602081019050615651565b838801955050505b50505092915050565b5f61568b82614504565b61569581856155f7565b93506156a581856020860161451e565b80840191505092915050565b5f6156bc8285615601565b91506156c88284615681565b91508190509392505050565b7f5f656767000000000000000000000000000000000000000000000000000000005f82015250565b5f6157086004836155f7565b9150615713826156d4565b600482019050919050565b5f6157298284615601565b9150615734826156fc565b915081905092915050565b7f5f000000000000000000000000000000000000000000000000000000000000005f82015250565b5f6157736001836155f7565b915061577e8261573f565b600182019050919050565b5f6157948287615601565b915061579f82615767565b91506157ab8286615681565b91506157b682615767565b91506157c28285615681565b91506157cd82615767565b91506157d98284615681565b915081905095945050505050565b7f646174613a6170706c69636174696f6e2f6a736f6e3b757466382c7b226e616d5f8201527f65223a2022447261676f6e202300000000000000000000000000000000000000602082015250565b5f615841602d836155f7565b915061584c826157e7565b602d82019050919050565b7f222c2265787465726e616c5f75726c223a2268747470733a2f2f6769746875625f8201527f2e636f6d2f626368736f6c2f43727970746f447261676f6e222c22696d61676560208201527f223a220000000000000000000000000000000000000000000000000000000000604082015250565b5f6158d76043836155f7565b91506158e282615857565b604382019050919050565b7f222c2261747472696275746573223a5b7b2274726169745f74797065223a22445f8201527f7261676f6e222c2276616c7565223a2200000000000000000000000000000000602082015250565b5f6159476030836155f7565b9150615952826158ed565b603082019050919050565b7f227d5d7d000000000000000000000000000000000000000000000000000000005f82015250565b5f6159916004836155f7565b915061599c8261595d565b600482019050919050565b5f6159b182615835565b91506159bd8288615681565b91506159c8826158cb565b91506159d48287615601565b91506159e08286615681565b91506159ec8285615601565b91506159f78261593b565b9150615a038284615601565b9150615a0e82615985565b91508190509695505050505050565b7f48617463680000000000000000000000000000000000000000000000000000005f82015250565b5f615a5160058361450e565b9150615a5c82615a1d565b602082019050919050565b5f6020820190508181035f830152615a7e81615a45565b9050919050565b7f48617463686c696e6700000000000000000000000000000000000000000000005f82015250565b5f615ab960098361450e565b9150615ac482615a85565b602082019050919050565b5f6020820190508181035f830152615ae681615aad565b9050919050565b7f4164756c740000000000000000000000000000000000000000000000000000005f82015250565b5f615b2160058361450e565b9150615b2c82615aed565b602082019050919050565b5f6020820190508181035f830152615b4e81615b15565b9050919050565b5f819050919050565b615b6f615b6a826143f3565b615b55565b82525050565b5f8160601b9050919050565b5f615b8b82615b75565b9050919050565b5f615b9c82615b81565b9050919050565b615bb4615baf826145b3565b615b92565b82525050565b5f615bc58286615b5e565b602082019150615bd58285615ba3565b601482019150615be58284615b5e565b602082019150819050949350505050565b7f4e487b71000000000000000000000000000000000000000000000000000000005f52601260045260245ffd5b5f615c2d826143f3565b9150615c38836143f3565b925082615c4857615c47615bf6565b5b828206905092915050565b615c5c82614504565b67ffffffffffffffff811115615c7557615c74614704565b5b615c7f8254614faa565b615c8a8282856150f8565b5f60209050601f831160018114615cbb575f8415615ca9578287015190505b615cb38582615166565b865550615d1a565b601f198416615cc986614fe4565b5f5b82811015615cf057848901518255600182019150602085019450602081019050615ccb565b86831015615d0d5784890151615d09601f89168261514a565b8355505b6001600288020188555050505b505050505050565b615d2b81614abe565b8114615d35575f80fd5b50565b5f81519050615d4681615d22565b92915050565b5f60208284031215615d6157615d606143eb565b5b5f615d6e84828501615d38565b91505092915050565b5f81519050919050565b5f82825260208201905092915050565b5f615d9b82615d77565b615da58185615d81565b9350615db581856020860161451e565b615dbe8161452c565b840191505092915050565b5f608082019050615ddc5f8301876145c4565b615de960208301866145c4565b615df66040830185614aef565b8181036060830152615e088184615d91565b905095945050505050565b5f81519050615e218161447c565b92915050565b5f60208284031215615e3c57615e3b6143eb565b5b5f615e4984828501615e13565b91505092915050565b5f604082019050615e655f8301856145c4565b615e726020830184614aef565b9392505050565b5f81905092915050565b5f615e8d82615d77565b615e978185615e79565b9350615ea781856020860161451e565b80840191505092915050565b5f615ebe8284615e83565b91508190509291505056fea264697066735822122035f45a40d25729df558bdfeb33fccb1a9ec22868bd3c37a2f9970d05b09008f964736f6c634300081a00336080604052604051610694380380610694833981810160405281019061002591906104d8565b610035828261003c60201b60201c565b50506105b4565b61004b826100c060201b60201c565b8173ffffffffffffffffffffffffffffffffffffffff167fbc7cd75a20ee27fd9adebab32041f755214dbc6bffa90cc0225b39da2e5c2d3b60405160405180910390a25f815111156100ad576100a7828261018f60201b60201c565b506100bc565b6100bb61021560201b60201c565b5b5050565b5f8173ffffffffffffffffffffffffffffffffffffffff163b0361011b57806040517f4c9c8ce30000000000000000000000000000000000000000000000000000000081526004016101129190610541565b60405180910390fd5b8061014d7f360894a13ba1a3210667c828492db98dca3e2076cc3735a920a3ca505d382bbc5f1b61025160201b60201c565b5f015f6101000a81548173ffffffffffffffffffffffffffffffffffffffff021916908373ffffffffffffffffffffffffffffffffffffffff16021790555050565b60605f808473ffffffffffffffffffffffffffffffffffffffff16846040516101b8919061059e565b5f60405180830381855af49150503d805f81146101f0576040519150601f19603f3d011682016040523d82523d5f602084013e6101f5565b606091505b509150915061020b85838361025a60201b60201c565b9250505092915050565b5f34111561024f576040517fb398979f00000000000000000000000000000000000000000000000000000000815260040160405180910390fd5b565b5f819050919050565b60608261027557610270826102ed60201b60201c565b6102e5565b5f825114801561029b57505f8473ffffffffffffffffffffffffffffffffffffffff163b145b156102dd57836040517f9996b3150000000000000000000000000000000000000000000000000000000081526004016102d49190610541565b60405180910390fd5b8190506102e6565b5b9392505050565b5f815111156102ff5780518082602001fd5b6040517f1425ea4200000000000000000000000000000000000000000000000000000000815260040160405180910390fd5b5f604051905090565b5f80fd5b5f80fd5b5f73ffffffffffffffffffffffffffffffffffffffff82169050919050565b5f61036b82610342565b9050919050565b61037b81610361565b8114610385575f80fd5b50565b5f8151905061039681610372565b92915050565b5f80fd5b5f80fd5b5f601f19601f8301169050919050565b7f4e487b71000000000000000000000000000000000000000000000000000000005f52604160045260245ffd5b6103ea826103a4565b810181811067ffffffffffffffff82111715610409576104086103b4565b5b80604052505050565b5f61041b610331565b905061042782826103e1565b919050565b5f67ffffffffffffffff821115610446576104456103b4565b5b61044f826103a4565b9050602081019050919050565b8281835e5f83830152505050565b5f61047c6104778461042c565b610412565b905082815260208101848484011115610498576104976103a0565b5b6104a384828561045c565b509392505050565b5f82601f8301126104bf576104be61039c565b5b81516104cf84826020860161046a565b91505092915050565b5f80604083850312156104ee576104ed61033a565b5b5f6104fb85828601610388565b925050602083015167ffffffffffffffff81111561051c5761051b61033e565b5b610528858286016104ab565b9150509250929050565b61053b81610361565b82525050565b5f6020820190506105545f830184610532565b92915050565b5f81519050919050565b5f81905092915050565b5f6105788261055a565b6105828185610564565b935061059281856020860161045c565b80840191505092915050565b5f6105a9828461056e565b915081905092915050565b60d4806105c05f395ff3fe6080604052600a600c565b005b60186014601a565b6026565b565b5f60216044565b905090565b365f80375f80365f845af43d5f803e805f81146040573d5ff35b3d5ffd5b5f606e7f360894a13ba1a3210667c828492db98dca3e2076cc3735a920a3ca505d382bbc5f1b6095565b5f015f9054906101000a900473ffffffffffffffffffffffffffffffffffffffff16905090565b5f81905091905056fea26469706673582212205382cba1743ff060640d9d24d99893a0f625988ac6049033893c5a00af11ae8364736f6c634300081a0033",
			"opcodes": "PUSH1 0x80 PUSH1 0x40 MSTORE CALLVALUE DUP1 ISZERO PUSH2 0xF JUMPI PUSH0 DUP1 REVERT JUMPDEST POP PUSH1 0x40 MLOAD PUSH2 0x6BD1 CODESIZE SUB DUP1 PUSH2 0x6BD1 DUP4 CODECOPY DUP2 DUP2 ADD PUSH1 0x40 MSTORE DUP2 ADD SWAP1 PUSH2 0x31 SWAP2 SWAP1 PUSH2 0x21E JUMP JUMPDEST PUSH1 0x40 MLOAD PUSH2 0x3D SWAP1 PUSH2 0x1A6 JUMP JUMPDEST PUSH1 0x40 MLOAD DUP1 SWAP2 SUB SWAP1 PUSH0 CREATE DUP1 ISZERO DUP1 ISZERO PUSH2 0x56 JUMPI RETURNDATASIZE PUSH0 DUP1 RETURNDATACOPY RETURNDATASIZE PUSH0 REVERT JUMPDEST POP PUSH1 0x1 PUSH0 PUSH2 0x100 EXP DUP2 SLOAD DUP2 PUSH20 0xFFFFFFFFFFFFFFFFFFFFFFFFFFFFFFFFFFFFFFFF MUL NOT AND SWAP1 DUP4 PUSH20 0xFFFFFFFFFFFFFFFFFFFFFFFFFFFFFFFFFFFFFFFF AND MUL OR SWAP1 SSTORE POP PUSH1 0x1 PUSH0 SWAP1 SLOAD SWAP1 PUSH2 0x100 EXP SWAP1 DIV PUSH20 0xFFFFFFFFFFFFFFFFFFFFFFFFFFFFFFFFFFFFFFFF AND PUSH4 0x2016A0D2 PUSH1 0xE0 SHL DUP4 DUP4 PUSH1 0x40 MLOAD PUSH1 0x24 ADD PUSH2 0xD3 SWAP3 SWAP2 SWAP1 PUSH2 0x30F JUMP JUMPDEST PUSH1 0x40 MLOAD PUSH1 0x20 DUP2 DUP4 SUB SUB DUP2 MSTORE SWAP1 PUSH1 0x40 MSTORE SWAP1 PUSH28 0xFFFFFFFFFFFFFFFFFFFFFFFFFFFFFFFFFFFFFFFFFFFFFFFFFFFFFFFF NOT AND PUSH1 0x20 DUP3 ADD DUP1 MLOAD PUSH28 0xFFFFFFFFFFFFFFFFFFFFFFFFFFFFFFFFFFFFFFFFFFFFFFFFFFFFFFFF DUP4 DUP2 DUP4 AND OR DUP4 MSTORE POP POP POP POP PUSH1 0x40 MLOAD PUSH2 0x13C SWAP1 PUSH2 0x1B3 JUMP JUMPDEST PUSH2 0x147 SWAP3 SWAP2 SWAP1 PUSH2 0x3CC JUMP JUMPDEST PUSH1 0x40 MLOAD DUP1 SWAP2 SUB SWAP1 PUSH0 CREATE DUP1 ISZERO DUP1 ISZERO PUSH2 0x160 JUMPI RETURNDATASIZE PUSH0 DUP1 RETURNDATACOPY RETURNDATASIZE PUSH0 REVERT JUMPDEST POP PUSH0 DUP1 PUSH2 0x100 EXP DUP2 SLOAD DUP2 PUSH20 0xFFFFFFFFFFFFFFFFFFFFFFFFFFFFFFFFFFFFFFFF MUL NOT AND SWAP1 DUP4 PUSH20 0xFFFFFFFFFFFFFFFFFFFFFFFFFFFFFFFFFFFFFFFF AND MUL OR SWAP1 SSTORE POP POP POP PUSH2 0x3FA JUMP JUMPDEST PUSH2 0x5F67 DUP1 PUSH2 0x5D6 DUP4 CODECOPY ADD SWAP1 JUMP JUMPDEST PUSH2 0x694 DUP1 PUSH2 0x653D DUP4 CODECOPY ADD SWAP1 JUMP JUMPDEST PUSH0 DUP1 REVERT JUMPDEST PUSH0 PUSH20 0xFFFFFFFFFFFFFFFFFFFFFFFFFFFFFFFFFFFFFFFF DUP3 AND SWAP1 POP SWAP2 SWAP1 POP JUMP JUMPDEST PUSH0 PUSH2 0x1ED DUP3 PUSH2 0x1C4 JUMP JUMPDEST SWAP1 POP SWAP2 SWAP1 POP JUMP JUMPDEST PUSH2 0x1FD DUP2 PUSH2 0x1E3 JUMP JUMPDEST DUP2 EQ PUSH2 0x207 JUMPI PUSH0 DUP1 REVERT JUMPDEST POP JUMP JUMPDEST PUSH0 DUP2 MLOAD SWAP1 POP PUSH2 0x218 DUP2 PUSH2 0x1F4 JUMP JUMPDEST SWAP3 SWAP2 POP POP JUMP JUMPDEST PUSH0 DUP1 PUSH1 0x40 DUP4 DUP6 SUB SLT ISZERO PUSH2 0x234 JUMPI PUSH2 0x233 PUSH2 0x1C0 JUMP JUMPDEST JUMPDEST PUSH0 PUSH2 0x241 DUP6 DUP3 DUP7 ADD PUSH2 0x20A JUMP JUMPDEST SWAP3 POP POP PUSH1 0x20 PUSH2 0x252 DUP6 DUP3 DUP7 ADD PUSH2 0x20A JUMP JUMPDEST SWAP2 POP POP SWAP3 POP SWAP3 SWAP1 POP JUMP JUMPDEST PUSH2 0x265 DUP2 PUSH2 0x1E3 JUMP JUMPDEST DUP3 MSTORE POP POP JUMP JUMPDEST PUSH0 DUP3 DUP3 MSTORE PUSH1 0x20 DUP3 ADD SWAP1 POP SWAP3 SWAP2 POP POP JUMP JUMPDEST PUSH32 0x447261676F6E0000000000000000000000000000000000000000000000000000 PUSH0 DUP3 ADD MSTORE POP JUMP JUMPDEST PUSH0 PUSH2 0x2AF PUSH1 0x6 DUP4 PUSH2 0x26B JUMP JUMPDEST SWAP2 POP PUSH2 0x2BA DUP3 PUSH2 0x27B JUMP JUMPDEST PUSH1 0x20 DUP3 ADD SWAP1 POP SWAP2 SWAP1 POP JUMP JUMPDEST PUSH32 0x4400000000000000000000000000000000000000000000000000000000000000 PUSH0 DUP3 ADD MSTORE POP JUMP JUMPDEST PUSH0 PUSH2 0x2F9 PUSH1 0x1 DUP4 PUSH2 0x26B JUMP JUMPDEST SWAP2 POP PUSH2 0x304 DUP3 PUSH2 0x2C5 JUMP JUMPDEST PUSH1 0x20 DUP3 ADD SWAP1 POP SWAP2 SWAP1 POP JUMP JUMPDEST PUSH0 PUSH1 0x80 DUP3 ADD SWAP1 POP PUSH2 0x322 PUSH0 DUP4 ADD DUP6 PUSH2 0x25C JUMP JUMPDEST PUSH2 0x32F PUSH1 0x20 DUP4 ADD DUP5 PUSH2 0x25C JUMP JUMPDEST DUP2 DUP2 SUB PUSH1 0x40 DUP4 ADD MSTORE PUSH2 0x340 DUP2 PUSH2 0x2A3 JUMP JUMPDEST SWAP1 POP DUP2 DUP2 SUB PUSH1 0x60 DUP4 ADD MSTORE PUSH2 0x353 DUP2 PUSH2 0x2ED JUMP JUMPDEST SWAP1 POP SWAP4 SWAP3 POP POP POP JUMP JUMPDEST PUSH0 DUP2 MLOAD SWAP1 POP SWAP2 SWAP1 POP JUMP JUMPDEST PUSH0 DUP3 DUP3 MSTORE PUSH1 0x20 DUP3 ADD SWAP1 POP SWAP3 SWAP2 POP POP JUMP JUMPDEST DUP3 DUP2 DUP4 MCOPY PUSH0 DUP4 DUP4 ADD MSTORE POP POP POP JUMP JUMPDEST PUSH0 PUSH1 0x1F NOT PUSH1 0x1F DUP4 ADD AND SWAP1 POP SWAP2 SWAP1 POP JUMP JUMPDEST PUSH0 PUSH2 0x39E DUP3 PUSH2 0x35C JUMP JUMPDEST PUSH2 0x3A8 DUP2 DUP6 PUSH2 0x366 JUMP JUMPDEST SWAP4 POP PUSH2 0x3B8 DUP2 DUP6 PUSH1 0x20 DUP7 ADD PUSH2 0x376 JUMP JUMPDEST PUSH2 0x3C1 DUP2 PUSH2 0x384 JUMP JUMPDEST DUP5 ADD SWAP2 POP POP SWAP3 SWAP2 POP POP JUMP JUMPDEST PUSH0 PUSH1 0x40 DUP3 ADD SWAP1 POP PUSH2 0x3DF PUSH0 DUP4 ADD DUP6 PUSH2 0x25C JUMP JUMPDEST DUP2 DUP2 SUB PUSH1 0x20 DUP4 ADD MSTORE PUSH2 0x3F1 DUP2 DUP5 PUSH2 0x394 JUMP JUMPDEST SWAP1 POP SWAP4 SWAP3 POP POP POP JUMP JUMPDEST PUSH2 0x1CF DUP1 PUSH2 0x407 PUSH0 CODECOPY PUSH0 RETURN INVALID PUSH1 0x80 PUSH1 0x40 MSTORE CALLVALUE DUP1 ISZERO PUSH2 0xF JUMPI PUSH0 DUP1 REVERT JUMPDEST POP PUSH1 0x4 CALLDATASIZE LT PUSH2 0x34 JUMPI PUSH0 CALLDATALOAD PUSH1 0xE0 SHR DUP1 PUSH4 0xEC556889 EQ PUSH2 0x38 JUMPI DUP1 PUSH4 0xFC0C546A EQ PUSH2 0x56 JUMPI JUMPDEST PUSH0 DUP1 REVERT JUMPDEST PUSH2 0x40 PUSH2 0x74 JUMP JUMPDEST PUSH1 0x40 MLOAD PUSH2 0x4D SWAP2 SWAP1 PUSH2 0x136 JUMP JUMPDEST PUSH1 0x40 MLOAD DUP1 SWAP2 SUB SWAP1 RETURN JUMPDEST PUSH2 0x5E PUSH2 0x97 JUMP JUMPDEST PUSH1 0x40 MLOAD PUSH2 0x6B SWAP2 SWAP1 PUSH2 0x180 JUMP JUMPDEST PUSH1 0x40 MLOAD DUP1 SWAP2 SUB SWAP1 RETURN JUMPDEST PUSH0 DUP1 SLOAD SWAP1 PUSH2 0x100 EXP SWAP1 DIV PUSH20 0xFFFFFFFFFFFFFFFFFFFFFFFFFFFFFFFFFFFFFFFF AND DUP2 JUMP JUMPDEST PUSH1 0x1 PUSH0 SWAP1 SLOAD SWAP1 PUSH2 0x100 EXP SWAP1 DIV PUSH20 0xFFFFFFFFFFFFFFFFFFFFFFFFFFFFFFFFFFFFFFFF AND DUP2 JUMP JUMPDEST PUSH0 PUSH20 0xFFFFFFFFFFFFFFFFFFFFFFFFFFFFFFFFFFFFFFFF DUP3 AND SWAP1 POP SWAP2 SWAP1 POP JUMP JUMPDEST PUSH0 DUP2 SWAP1 POP SWAP2 SWAP1 POP JUMP JUMPDEST PUSH0 PUSH2 0xFE PUSH2 0xF9 PUSH2 0xF4 DUP5 PUSH2 0xBC JUMP JUMPDEST PUSH2 0xDB JUMP JUMPDEST PUSH2 0xBC JUMP JUMPDEST SWAP1 POP SWAP2 SWAP1 POP JUMP JUMPDEST PUSH0 PUSH2 0x10F DUP3 PUSH2 0xE4 JUMP JUMPDEST SWAP1 POP SWAP2 SWAP1 POP JUMP JUMPDEST PUSH0 PUSH2 0x120 DUP3 PUSH2 0x105 JUMP JUMPDEST SWAP1 POP SWAP2 SWAP1 POP JUMP JUMPDEST PUSH2 0x130 DUP2 PUSH2 0x116 JUMP JUMPDEST DUP3 MSTORE POP POP JUMP JUMPDEST PUSH0 PUSH1 0x20 DUP3 ADD SWAP1 POP PUSH2 0x149 PUSH0 DUP4 ADD DUP5 PUSH2 0x127 JUMP JUMPDEST SWAP3 SWAP2 POP POP JUMP JUMPDEST PUSH0 PUSH2 0x159 DUP3 PUSH2 0xE4 JUMP JUMPDEST SWAP1 POP SWAP2 SWAP1 POP JUMP JUMPDEST PUSH0 PUSH2 0x16A DUP3 PUSH2 0x14F JUMP JUMPDEST SWAP1 POP SWAP2 SWAP1 POP JUMP JUMPDEST PUSH2 0x17A DUP2 PUSH2 0x160 JUMP JUMPDEST DUP3 MSTORE POP POP JUMP JUMPDEST PUSH0 PUSH1 0x20 DUP3 ADD SWAP1 POP PUSH2 0x193 PUSH0 DUP4 ADD DUP5 PUSH2 0x171 JUMP JUMPDEST SWAP3 SWAP2 POP POP JUMP INVALID LOG2 PUSH5 0x6970667358 0x22 SLT KECCAK256 DIV SIGNEXTEND 0xDD SHR DUP16 0xC5 0xD9 PUSH19 0xB62BC11A9B3A0DBDA7B3A810C21482DE3F24EB PUSH1 0xC4 0xEC 0xE7 0xCD PUSH5 0x736F6C6343 STOP ADDMOD BYTE STOP CALLER PUSH1 0xA0 PUSH1 0x40 MSTORE ADDRESS PUSH20 0xFFFFFFFFFFFFFFFFFFFFFFFFFFFFFFFFFFFFFFFF AND PUSH1 0x80 SWAP1 PUSH20 0xFFFFFFFFFFFFFFFFFFFFFFFFFFFFFFFFFFFFFFFF AND DUP2 MSTORE POP CALLVALUE DUP1 ISZERO PUSH1 0x41 JUMPI PUSH0 DUP1 REVERT JUMPDEST POP PUSH1 0x80 MLOAD PUSH2 0x5EFF PUSH2 0x68 PUSH0 CODECOPY PUSH0 DUP2 DUP2 PUSH2 0x2D1A ADD MSTORE DUP2 DUP2 PUSH2 0x2D6F ADD MSTORE PUSH2 0x2F29 ADD MSTORE PUSH2 0x5EFF PUSH0 RETURN INVALID PUSH1 0x80 PUSH1 0x40 MSTORE PUSH1 0x4 CALLDATASIZE LT PUSH2 0x239 JUMPI PUSH0 CALLDATALOAD PUSH1 0xE0 SHR DUP1 PUSH4 0x72EC6C03 GT PUSH2 0x12D JUMPI DUP1 PUSH4 0xBD9BA9E8 GT PUSH2 0xAA JUMPI DUP1 PUSH4 0xE985E9C5 GT PUSH2 0x6E JUMPI DUP1 PUSH4 0xE985E9C5 EQ PUSH2 0x876 JUMPI DUP1 PUSH4 0xEDEB4BBE EQ PUSH2 0x8B2 JUMPI DUP1 PUSH4 0xF119F567 EQ PUSH2 0x8DC JUMPI DUP1 PUSH4 0xF28CA1DD EQ PUSH2 0x904 JUMPI DUP1 PUSH4 0xF2FDE38B EQ PUSH2 0x92E JUMPI PUSH2 0x239 JUMP JUMPDEST DUP1 PUSH4 0xBD9BA9E8 EQ PUSH2 0x77F JUMPI DUP1 PUSH4 0xC87B56DD EQ PUSH2 0x7A7 JUMPI DUP1 PUSH4 0xD547CFB7 EQ PUSH2 0x7E3 JUMPI DUP1 PUSH4 0xE0DF5B6F EQ PUSH2 0x80D JUMPI DUP1 PUSH4 0xE4B50CB8 EQ PUSH2 0x835 JUMPI PUSH2 0x239 JUMP JUMPDEST DUP1 PUSH4 0x99683C22 GT PUSH2 0xF1 JUMPI DUP1 PUSH4 0x99683C22 EQ PUSH2 0x68C JUMPI DUP1 PUSH4 0xA22CB465 EQ PUSH2 0x6C8 JUMPI DUP1 PUSH4 0xAD3CB1CC EQ PUSH2 0x6F0 JUMPI DUP1 PUSH4 0xB564EA86 EQ PUSH2 0x71A JUMPI DUP1 PUSH4 0xB88D4FDE EQ PUSH2 0x757 JUMPI PUSH2 0x239 JUMP JUMPDEST DUP1 PUSH4 0x72EC6C03 EQ PUSH2 0x5AA JUMPI DUP1 PUSH4 0x8DA5CB5B EQ PUSH2 0x5D2 JUMPI DUP1 PUSH4 0x92F2FF80 EQ PUSH2 0x5FC JUMPI DUP1 PUSH4 0x95D89B41 EQ PUSH2 0x638 JUMPI DUP1 PUSH4 0x9659867E EQ PUSH2 0x662 JUMPI PUSH2 0x239 JUMP JUMPDEST DUP1 PUSH4 0x30ADC1CB GT PUSH2 0x1BB JUMPI DUP1 PUSH4 0x52D1902D GT PUSH2 0x17F JUMPI DUP1 PUSH4 0x52D1902D EQ PUSH2 0x4B5 JUMPI DUP1 PUSH4 0x616C0C48 EQ PUSH2 0x4DF JUMPI DUP1 PUSH4 0x6352211E EQ PUSH2 0x51C JUMPI DUP1 PUSH4 0x70A08231 EQ PUSH2 0x558 JUMPI DUP1 PUSH4 0x715018A6 EQ PUSH2 0x594 JUMPI PUSH2 0x239 JUMP JUMPDEST DUP1 PUSH4 0x30ADC1CB EQ PUSH2 0x3F9 JUMPI DUP1 PUSH4 0x39E3AA7E EQ PUSH2 0x421 JUMPI DUP1 PUSH4 0x3FFC0366 EQ PUSH2 0x449 JUMPI DUP1 PUSH4 0x42842E0E EQ PUSH2 0x471 JUMPI DUP1 PUSH4 0x4F1EF286 EQ PUSH2 0x499 JUMPI PUSH2 0x239 JUMP JUMPDEST DUP1 PUSH4 0xCF935F7 GT PUSH2 0x202 JUMPI DUP1 PUSH4 0xCF935F7 EQ PUSH2 0x32F JUMPI DUP1 PUSH4 0x18D217C3 EQ PUSH2 0x359 JUMPI DUP1 PUSH4 0x1BC80EFF EQ PUSH2 0x381 JUMPI DUP1 PUSH4 0x2016A0D2 EQ PUSH2 0x3A9 JUMPI DUP1 PUSH4 0x23B872DD EQ PUSH2 0x3D1 JUMPI PUSH2 0x239 JUMP JUMPDEST DUP1 PUSH3 0xE00064 EQ PUSH2 0x23D JUMPI DUP1 PUSH4 0x1FFC9A7 EQ PUSH2 0x265 JUMPI DUP1 PUSH4 0x6FDDE03 EQ PUSH2 0x2A1 JUMPI DUP1 PUSH4 0x81812FC EQ PUSH2 0x2CB JUMPI DUP1 PUSH4 0x95EA7B3 EQ PUSH2 0x307 JUMPI JUMPDEST PUSH0 DUP1 REVERT JUMPDEST CALLVALUE DUP1 ISZERO PUSH2 0x248 JUMPI PUSH0 DUP1 REVERT JUMPDEST POP PUSH2 0x263 PUSH1 0x4 DUP1 CALLDATASIZE SUB DUP2 ADD SWAP1 PUSH2 0x25E SWAP2 SWAP1 PUSH2 0x4426 JUMP JUMPDEST PUSH2 0x956 JUMP JUMPDEST STOP JUMPDEST CALLVALUE DUP1 ISZERO PUSH2 0x270 JUMPI PUSH0 DUP1 REVERT JUMPDEST POP PUSH2 0x28B PUSH1 0x4 DUP1 CALLDATASIZE SUB DUP2 ADD SWAP1 PUSH2 0x286 SWAP2 SWAP1 PUSH2 0x44A6 JUMP JUMPDEST PUSH2 0xB51 JUMP JUMPDEST PUSH1 0x40 MLOAD PUSH2 0x298 SWAP2 SWAP1 PUSH2 0x44EB JUMP JUMPDEST PUSH1 0x40 MLOAD DUP1 SWAP2 SUB SWAP1 RETURN JUMPDEST CALLVALUE DUP1 ISZERO PUSH2 0x2AC JUMPI PUSH0 DUP1 REVERT JUMPDEST POP PUSH2 0x2B5 PUSH2 0xB62 JUMP JUMPDEST PUSH1 0x40 MLOAD PUSH2 0x2C2 SWAP2 SWAP1 PUSH2 0x4574 JUMP JUMPDEST PUSH1 0x40 MLOAD DUP1 SWAP2 SUB SWAP1 RETURN JUMPDEST CALLVALUE DUP1 ISZERO PUSH2 0x2D6 JUMPI PUSH0 DUP1 REVERT JUMPDEST POP PUSH2 0x2F1 PUSH1 0x4 DUP1 CALLDATASIZE SUB DUP2 ADD SWAP1 PUSH2 0x2EC SWAP2 SWAP1 PUSH2 0x4426 JUMP JUMPDEST PUSH2 0xBFF JUMP JUMPDEST PUSH1 0x40 MLOAD PUSH2 0x2FE SWAP2 SWAP1 PUSH2 0x45D3 JUMP JUMPDEST PUSH1 0x40 MLOAD DUP1 SWAP2 SUB SWAP1 RETURN JUMPDEST CALLVALUE DUP1 ISZERO PUSH2 0x312 JUMPI PUSH0 DUP1 REVERT JUMPDEST POP PUSH2 0x32D PUSH1 0x4 DUP1 CALLDATASIZE SUB DUP2 ADD SWAP1 PUSH2 0x328 SWAP2 SWAP1 PUSH2 0x4616 JUMP JUMPDEST PUSH2 0xC1A JUMP JUMPDEST STOP JUMPDEST CALLVALUE DUP1 ISZERO PUSH2 0x33A JUMPI PUSH0 DUP1 REVERT JUMPDEST POP PUSH2 0x343 PUSH2 0xC30 JUMP JUMPDEST PUSH1 0x40 MLOAD PUSH2 0x350 SWAP2 SWAP1 PUSH2 0x44EB JUMP JUMPDEST PUSH1 0x40 MLOAD DUP1 SWAP2 SUB SWAP1 RETURN JUMPDEST CALLVALUE DUP1 ISZERO PUSH2 0x364 JUMPI PUSH0 DUP1 REVERT JUMPDEST POP PUSH2 0x37F PUSH1 0x4 DUP1 CALLDATASIZE SUB DUP2 ADD SWAP1 PUSH2 0x37A SWAP2 SWAP1 PUSH2 0x46B5 JUMP JUMPDEST PUSH2 0xC42 JUMP JUMPDEST STOP JUMPDEST CALLVALUE DUP1 ISZERO PUSH2 0x38C JUMPI PUSH0 DUP1 REVERT JUMPDEST POP PUSH2 0x3A7 PUSH1 0x4 DUP1 CALLDATASIZE SUB DUP2 ADD SWAP1 PUSH2 0x3A2 SWAP2 SWAP1 PUSH2 0x4426 JUMP JUMPDEST PUSH2 0xC60 JUMP JUMPDEST STOP JUMPDEST CALLVALUE DUP1 ISZERO PUSH2 0x3B4 JUMPI PUSH0 DUP1 REVERT JUMPDEST POP PUSH2 0x3CF PUSH1 0x4 DUP1 CALLDATASIZE SUB DUP2 ADD SWAP1 PUSH2 0x3CA SWAP2 SWAP1 PUSH2 0x4828 JUMP JUMPDEST PUSH2 0xE73 JUMP JUMPDEST STOP JUMPDEST CALLVALUE DUP1 ISZERO PUSH2 0x3DC JUMPI PUSH0 DUP1 REVERT JUMPDEST POP PUSH2 0x3F7 PUSH1 0x4 DUP1 CALLDATASIZE SUB DUP2 ADD SWAP1 PUSH2 0x3F2 SWAP2 SWAP1 PUSH2 0x48C4 JUMP JUMPDEST PUSH2 0x1002 JUMP JUMPDEST STOP JUMPDEST CALLVALUE DUP1 ISZERO PUSH2 0x404 JUMPI PUSH0 DUP1 REVERT JUMPDEST POP PUSH2 0x41F PUSH1 0x4 DUP1 CALLDATASIZE SUB DUP2 ADD SWAP1 PUSH2 0x41A SWAP2 SWAP1 PUSH2 0x493E JUMP JUMPDEST PUSH2 0x1101 JUMP JUMPDEST STOP JUMPDEST CALLVALUE DUP1 ISZERO PUSH2 0x42C JUMPI PUSH0 DUP1 REVERT JUMPDEST POP PUSH2 0x447 PUSH1 0x4 DUP1 CALLDATASIZE SUB DUP2 ADD SWAP1 PUSH2 0x442 SWAP2 SWAP1 PUSH2 0x46B5 JUMP JUMPDEST PUSH2 0x1125 JUMP JUMPDEST STOP JUMPDEST CALLVALUE DUP1 ISZERO PUSH2 0x454 JUMPI PUSH0 DUP1 REVERT JUMPDEST POP PUSH2 0x46F PUSH1 0x4 DUP1 CALLDATASIZE SUB DUP2 ADD SWAP1 PUSH2 0x46A SWAP2 SWAP1 PUSH2 0x4969 JUMP JUMPDEST PUSH2 0x1143 JUMP JUMPDEST STOP JUMPDEST CALLVALUE DUP1 ISZERO PUSH2 0x47C JUMPI PUSH0 DUP1 REVERT JUMPDEST POP PUSH2 0x497 PUSH1 0x4 DUP1 CALLDATASIZE SUB DUP2 ADD SWAP1 PUSH2 0x492 SWAP2 SWAP1 PUSH2 0x48C4 JUMP JUMPDEST PUSH2 0x1170 JUMP JUMPDEST STOP JUMPDEST PUSH2 0x4B3 PUSH1 0x4 DUP1 CALLDATASIZE SUB DUP2 ADD SWAP1 PUSH2 0x4AE SWAP2 SWAP1 PUSH2 0x4A64 JUMP JUMPDEST PUSH2 0x118F JUMP JUMPDEST STOP JUMPDEST CALLVALUE DUP1 ISZERO PUSH2 0x4C0 JUMPI PUSH0 DUP1 REVERT JUMPDEST POP PUSH2 0x4C9 PUSH2 0x11AE JUMP JUMPDEST PUSH1 0x40 MLOAD PUSH2 0x4D6 SWAP2 SWAP1 PUSH2 0x4AD6 JUMP JUMPDEST PUSH1 0x40 MLOAD DUP1 SWAP2 SUB SWAP1 RETURN JUMPDEST CALLVALUE DUP1 ISZERO PUSH2 0x4EA JUMPI PUSH0 DUP1 REVERT JUMPDEST POP PUSH2 0x505 PUSH1 0x4 DUP1 CALLDATASIZE SUB DUP2 ADD SWAP1 PUSH2 0x500 SWAP2 SWAP1 PUSH2 0x4426 JUMP JUMPDEST PUSH2 0x11DF JUMP JUMPDEST PUSH1 0x40 MLOAD PUSH2 0x513 SWAP3 SWAP2 SWAP1 PUSH2 0x4AFE JUMP JUMPDEST PUSH1 0x40 MLOAD DUP1 SWAP2 SUB SWAP1 RETURN JUMPDEST CALLVALUE DUP1 ISZERO PUSH2 0x527 JUMPI PUSH0 DUP1 REVERT JUMPDEST POP PUSH2 0x542 PUSH1 0x4 DUP1 CALLDATASIZE SUB DUP2 ADD SWAP1 PUSH2 0x53D SWAP2 SWAP1 PUSH2 0x4426 JUMP JUMPDEST PUSH2 0x1213 JUMP JUMPDEST PUSH1 0x40 MLOAD PUSH2 0x54F SWAP2 SWAP1 PUSH2 0x45D3 JUMP JUMPDEST PUSH1 0x40 MLOAD DUP1 SWAP2 SUB SWAP1 RETURN JUMPDEST CALLVALUE DUP1 ISZERO PUSH2 0x563 JUMPI PUSH0 DUP1 REVERT JUMPDEST POP PUSH2 0x57E PUSH1 0x4 DUP1 CALLDATASIZE SUB DUP2 ADD SWAP1 PUSH2 0x579 SWAP2 SWAP1 PUSH2 0x4B25 JUMP JUMPDEST PUSH2 0x1224 JUMP JUMPDEST PUSH1 0x40 MLOAD PUSH2 0x58B SWAP2 SWAP1 PUSH2 0x4B50 JUMP JUMPDEST PUSH1 0x40 MLOAD DUP1 SWAP2 SUB SWAP1 RETURN JUMPDEST CALLVALUE DUP1 ISZERO PUSH2 0x59F JUMPI PUSH0 DUP1 REVERT JUMPDEST POP PUSH2 0x5A8 PUSH2 0x12E8 JUMP JUMPDEST STOP JUMPDEST CALLVALUE DUP1 ISZERO PUSH2 0x5B5 JUMPI PUSH0 DUP1 REVERT JUMPDEST POP PUSH2 0x5D0 PUSH1 0x4 DUP1 CALLDATASIZE SUB DUP2 ADD SWAP1 PUSH2 0x5CB SWAP2 SWAP1 PUSH2 0x4969 JUMP JUMPDEST PUSH2 0x12FB JUMP JUMPDEST STOP JUMPDEST CALLVALUE DUP1 ISZERO PUSH2 0x5DD JUMPI PUSH0 DUP1 REVERT JUMPDEST POP PUSH2 0x5E6 PUSH2 0x1377 JUMP JUMPDEST PUSH1 0x40 MLOAD PUSH2 0x5F3 SWAP2 SWAP1 PUSH2 0x45D3 JUMP JUMPDEST PUSH1 0x40 MLOAD DUP1 SWAP2 SUB SWAP1 RETURN JUMPDEST CALLVALUE DUP1 ISZERO PUSH2 0x607 JUMPI PUSH0 DUP1 REVERT JUMPDEST POP PUSH2 0x622 PUSH1 0x4 DUP1 CALLDATASIZE SUB DUP2 ADD SWAP1 PUSH2 0x61D SWAP2 SWAP1 PUSH2 0x4B25 JUMP JUMPDEST PUSH2 0x13AC JUMP JUMPDEST PUSH1 0x40 MLOAD PUSH2 0x62F SWAP2 SWAP1 PUSH2 0x4C20 JUMP JUMPDEST PUSH1 0x40 MLOAD DUP1 SWAP2 SUB SWAP1 RETURN JUMPDEST CALLVALUE DUP1 ISZERO PUSH2 0x643 JUMPI PUSH0 DUP1 REVERT JUMPDEST POP PUSH2 0x64C PUSH2 0x149A JUMP JUMPDEST PUSH1 0x40 MLOAD PUSH2 0x659 SWAP2 SWAP1 PUSH2 0x4574 JUMP JUMPDEST PUSH1 0x40 MLOAD DUP1 SWAP2 SUB SWAP1 RETURN JUMPDEST CALLVALUE DUP1 ISZERO PUSH2 0x66D JUMPI PUSH0 DUP1 REVERT JUMPDEST POP PUSH2 0x676 PUSH2 0x1538 JUMP JUMPDEST PUSH1 0x40 MLOAD PUSH2 0x683 SWAP2 SWAP1 PUSH2 0x4B50 JUMP JUMPDEST PUSH1 0x40 MLOAD DUP1 SWAP2 SUB SWAP1 RETURN JUMPDEST CALLVALUE DUP1 ISZERO PUSH2 0x697 JUMPI PUSH0 DUP1 REVERT JUMPDEST POP PUSH2 0x6B2 PUSH1 0x4 DUP1 CALLDATASIZE SUB DUP2 ADD SWAP1 PUSH2 0x6AD SWAP2 SWAP1 PUSH2 0x4C40 JUMP JUMPDEST PUSH2 0x153E JUMP JUMPDEST PUSH1 0x40 MLOAD PUSH2 0x6BF SWAP2 SWAP1 PUSH2 0x4B50 JUMP JUMPDEST PUSH1 0x40 MLOAD DUP1 SWAP2 SUB SWAP1 RETURN JUMPDEST CALLVALUE DUP1 ISZERO PUSH2 0x6D3 JUMPI PUSH0 DUP1 REVERT JUMPDEST POP PUSH2 0x6EE PUSH1 0x4 DUP1 CALLDATASIZE SUB DUP2 ADD SWAP1 PUSH2 0x6E9 SWAP2 SWAP1 PUSH2 0x4CB1 JUMP JUMPDEST PUSH2 0x173C JUMP JUMPDEST STOP JUMPDEST CALLVALUE DUP1 ISZERO PUSH2 0x6FB JUMPI PUSH0 DUP1 REVERT JUMPDEST POP PUSH2 0x704 PUSH2 0x1752 JUMP JUMPDEST PUSH1 0x40 MLOAD PUSH2 0x711 SWAP2 SWAP1 PUSH2 0x4574 JUMP JUMPDEST PUSH1 0x40 MLOAD DUP1 SWAP2 SUB SWAP1 RETURN JUMPDEST CALLVALUE DUP1 ISZERO PUSH2 0x725 JUMPI PUSH0 DUP1 REVERT JUMPDEST POP PUSH2 0x740 PUSH1 0x4 DUP1 CALLDATASIZE SUB DUP2 ADD SWAP1 PUSH2 0x73B SWAP2 SWAP1 PUSH2 0x4426 JUMP JUMPDEST PUSH2 0x178B JUMP JUMPDEST PUSH1 0x40 MLOAD PUSH2 0x74E SWAP3 SWAP2 SWAP1 PUSH2 0x4D62 JUMP JUMPDEST PUSH1 0x40 MLOAD DUP1 SWAP2 SUB SWAP1 RETURN JUMPDEST CALLVALUE DUP1 ISZERO PUSH2 0x762 JUMPI PUSH0 DUP1 REVERT JUMPDEST POP PUSH2 0x77D PUSH1 0x4 DUP1 CALLDATASIZE SUB DUP2 ADD SWAP1 PUSH2 0x778 SWAP2 SWAP1 PUSH2 0x4D89 JUMP JUMPDEST PUSH2 0x18B1 JUMP JUMPDEST STOP JUMPDEST CALLVALUE DUP1 ISZERO PUSH2 0x78A JUMPI PUSH0 DUP1 REVERT JUMPDEST POP PUSH2 0x7A5 PUSH1 0x4 DUP1 CALLDATASIZE SUB DUP2 ADD SWAP1 PUSH2 0x7A0 SWAP2 SWAP1 PUSH2 0x46B5 JUMP JUMPDEST PUSH2 0x18CE JUMP JUMPDEST STOP JUMPDEST CALLVALUE DUP1 ISZERO PUSH2 0x7B2 JUMPI PUSH0 DUP1 REVERT JUMPDEST POP PUSH2 0x7CD PUSH1 0x4 DUP1 CALLDATASIZE SUB DUP2 ADD SWAP1 PUSH2 0x7C8 SWAP2 SWAP1 PUSH2 0x4426 JUMP JUMPDEST PUSH2 0x18EC JUMP JUMPDEST PUSH1 0x40 MLOAD PUSH2 0x7DA SWAP2 SWAP1 PUSH2 0x4574 JUMP JUMPDEST PUSH1 0x40 MLOAD DUP1 SWAP2 SUB SWAP1 RETURN JUMPDEST CALLVALUE DUP1 ISZERO PUSH2 0x7EE JUMPI PUSH0 DUP1 REVERT JUMPDEST POP PUSH2 0x7F7 PUSH2 0x1D56 JUMP JUMPDEST PUSH1 0x40 MLOAD PUSH2 0x804 SWAP2 SWAP1 PUSH2 0x4574 JUMP JUMPDEST PUSH1 0x40 MLOAD DUP1 SWAP2 SUB SWAP1 RETURN JUMPDEST CALLVALUE DUP1 ISZERO PUSH2 0x818 JUMPI PUSH0 DUP1 REVERT JUMPDEST POP PUSH2 0x833 PUSH1 0x4 DUP1 CALLDATASIZE SUB DUP2 ADD SWAP1 PUSH2 0x82E SWAP2 SWAP1 PUSH2 0x46B5 JUMP JUMPDEST PUSH2 0x1DE2 JUMP JUMPDEST STOP JUMPDEST CALLVALUE DUP1 ISZERO PUSH2 0x840 JUMPI PUSH0 DUP1 REVERT JUMPDEST POP PUSH2 0x85B PUSH1 0x4 DUP1 CALLDATASIZE SUB DUP2 ADD SWAP1 PUSH2 0x856 SWAP2 SWAP1 PUSH2 0x4426 JUMP JUMPDEST PUSH2 0x1E00 JUMP JUMPDEST PUSH1 0x40 MLOAD PUSH2 0x86D SWAP7 SWAP6 SWAP5 SWAP4 SWAP3 SWAP2 SWAP1 PUSH2 0x4E09 JUMP JUMPDEST PUSH1 0x40 MLOAD DUP1 SWAP2 SUB SWAP1 RETURN JUMPDEST CALLVALUE DUP1 ISZERO PUSH2 0x881 JUMPI PUSH0 DUP1 REVERT JUMPDEST POP PUSH2 0x89C PUSH1 0x4 DUP1 CALLDATASIZE SUB DUP2 ADD SWAP1 PUSH2 0x897 SWAP2 SWAP1 PUSH2 0x4E6F JUMP JUMPDEST PUSH2 0x1ED6 JUMP JUMPDEST PUSH1 0x40 MLOAD PUSH2 0x8A9 SWAP2 SWAP1 PUSH2 0x44EB JUMP JUMPDEST PUSH1 0x40 MLOAD DUP1 SWAP2 SUB SWAP1 RETURN JUMPDEST CALLVALUE DUP1 ISZERO PUSH2 0x8BD JUMPI PUSH0 DUP1 REVERT JUMPDEST POP PUSH2 0x8C6 PUSH2 0x1F72 JUMP JUMPDEST PUSH1 0x40 MLOAD PUSH2 0x8D3 SWAP2 SWAP1 PUSH2 0x4574 JUMP JUMPDEST PUSH1 0x40 MLOAD DUP1 SWAP2 SUB SWAP1 RETURN JUMPDEST CALLVALUE DUP1 ISZERO PUSH2 0x8E7 JUMPI PUSH0 DUP1 REVERT JUMPDEST POP PUSH2 0x902 PUSH1 0x4 DUP1 CALLDATASIZE SUB DUP2 ADD SWAP1 PUSH2 0x8FD SWAP2 SWAP1 PUSH2 0x4426 JUMP JUMPDEST PUSH2 0x1FFE JUMP JUMPDEST STOP JUMPDEST CALLVALUE DUP1 ISZERO PUSH2 0x90F JUMPI PUSH0 DUP1 REVERT JUMPDEST POP PUSH2 0x918 PUSH2 0x2388 JUMP JUMPDEST PUSH1 0x40 MLOAD PUSH2 0x925 SWAP2 SWAP1 PUSH2 0x4574 JUMP JUMPDEST PUSH1 0x40 MLOAD DUP1 SWAP2 SUB SWAP1 RETURN JUMPDEST CALLVALUE DUP1 ISZERO PUSH2 0x939 JUMPI PUSH0 DUP1 REVERT JUMPDEST POP PUSH2 0x954 PUSH1 0x4 DUP1 CALLDATASIZE SUB DUP2 ADD SWAP1 PUSH2 0x94F SWAP2 SWAP1 PUSH2 0x4B25 JUMP JUMPDEST PUSH2 0x2414 JUMP JUMPDEST STOP JUMPDEST CALLER PUSH20 0xFFFFFFFFFFFFFFFFFFFFFFFFFFFFFFFFFFFFFFFF AND PUSH2 0x976 DUP3 PUSH2 0x1213 JUMP JUMPDEST PUSH20 0xFFFFFFFFFFFFFFFFFFFFFFFFFFFFFFFFFFFFFFFF AND EQ PUSH2 0x9CC JUMPI PUSH1 0x40 MLOAD PUSH32 0x8C379A000000000000000000000000000000000000000000000000000000000 DUP2 MSTORE PUSH1 0x4 ADD PUSH2 0x9C3 SWAP1 PUSH2 0x4EF7 JUMP JUMPDEST PUSH1 0x40 MLOAD DUP1 SWAP2 SUB SWAP1 REVERT JUMPDEST PUSH0 PUSH1 0x1 PUSH0 DUP4 DUP2 MSTORE PUSH1 0x20 ADD SWAP1 DUP2 MSTORE PUSH1 0x20 ADD PUSH0 KECCAK256 PUSH0 SWAP1 SLOAD SWAP1 PUSH2 0x100 EXP SWAP1 DIV PUSH1 0xFF AND SWAP1 POP PUSH0 PUSH1 0x2 PUSH0 DUP5 DUP2 MSTORE PUSH1 0x20 ADD SWAP1 DUP2 MSTORE PUSH1 0x20 ADD PUSH0 KECCAK256 SWAP1 POP PUSH0 TIMESTAMP SWAP1 POP PUSH0 PUSH1 0x3 DUP2 GT ISZERO PUSH2 0xA18 JUMPI PUSH2 0xA17 PUSH2 0x4CEF JUMP JUMPDEST JUMPDEST DUP4 PUSH1 0x3 DUP2 GT ISZERO PUSH2 0xA2B JUMPI PUSH2 0xA2A PUSH2 0x4CEF JUMP JUMPDEST JUMPDEST SUB PUSH2 0xA4C JUMPI PUSH2 0xA40 DUP2 DUP4 PUSH0 ADD SLOAD PUSH2 0x2A30 PUSH2 0x2498 JUMP JUMPDEST DUP3 PUSH0 ADD DUP2 SWAP1 SSTORE POP PUSH2 0xB1D JUMP JUMPDEST PUSH1 0x1 PUSH1 0x3 DUP2 GT ISZERO PUSH2 0xA60 JUMPI PUSH2 0xA5F PUSH2 0x4CEF JUMP JUMPDEST JUMPDEST DUP4 PUSH1 0x3 DUP2 GT ISZERO PUSH2 0xA73 JUMPI PUSH2 0xA72 PUSH2 0x4CEF JUMP JUMPDEST JUMPDEST SUB PUSH2 0xA96 JUMPI PUSH2 0xA89 DUP2 DUP4 PUSH1 0x1 ADD SLOAD PUSH2 0x2A30 PUSH2 0x2498 JUMP JUMPDEST DUP3 PUSH1 0x1 ADD DUP2 SWAP1 SSTORE POP PUSH2 0xB1C JUMP JUMPDEST PUSH1 0x2 PUSH1 0x3 DUP2 GT ISZERO PUSH2 0xAAA JUMPI PUSH2 0xAA9 PUSH2 0x4CEF JUMP JUMPDEST JUMPDEST DUP4 PUSH1 0x3 DUP2 GT ISZERO PUSH2 0xABD JUMPI PUSH2 0xABC PUSH2 0x4CEF JUMP JUMPDEST JUMPDEST SUB PUSH2 0xAE0 JUMPI PUSH2 0xAD3 DUP2 DUP4 PUSH1 0x2 ADD SLOAD PUSH2 0x2A30 PUSH2 0x2498 JUMP JUMPDEST DUP3 PUSH1 0x2 ADD DUP2 SWAP1 SSTORE POP PUSH2 0xB1B JUMP JUMPDEST PUSH1 0x40 MLOAD PUSH32 0x8C379A000000000000000000000000000000000000000000000000000000000 DUP2 MSTORE PUSH1 0x4 ADD PUSH2 0xB12 SWAP1 PUSH2 0x4F5F JUMP JUMPDEST PUSH1 0x40 MLOAD DUP1 SWAP2 SUB SWAP1 REVERT JUMPDEST JUMPDEST JUMPDEST DUP1 DUP5 PUSH32 0x21EEEE734B533A3B3A112F894043A967BA558D457EF10B84AA8D9025690F6004 PUSH1 0x40 MLOAD PUSH1 0x40 MLOAD DUP1 SWAP2 SUB SWAP1 LOG3 POP POP POP POP JUMP JUMPDEST PUSH0 PUSH2 0xB5B DUP3 PUSH2 0x24C7 JUMP JUMPDEST SWAP1 POP SWAP2 SWAP1 POP JUMP JUMPDEST PUSH1 0x60 PUSH0 PUSH2 0xB6D PUSH2 0x2527 JUMP JUMPDEST SWAP1 POP DUP1 PUSH0 ADD DUP1 SLOAD PUSH2 0xB7D SWAP1 PUSH2 0x4FAA JUMP JUMPDEST DUP1 PUSH1 0x1F ADD PUSH1 0x20 DUP1 SWAP2 DIV MUL PUSH1 0x20 ADD PUSH1 0x40 MLOAD SWAP1 DUP2 ADD PUSH1 0x40 MSTORE DUP1 SWAP3 SWAP2 SWAP1 DUP2 DUP2 MSTORE PUSH1 0x20 ADD DUP3 DUP1 SLOAD PUSH2 0xBA9 SWAP1 PUSH2 0x4FAA JUMP JUMPDEST DUP1 ISZERO PUSH2 0xBF4 JUMPI DUP1 PUSH1 0x1F LT PUSH2 0xBCB JUMPI PUSH2 0x100 DUP1 DUP4 SLOAD DIV MUL DUP4 MSTORE SWAP2 PUSH1 0x20 ADD SWAP2 PUSH2 0xBF4 JUMP JUMPDEST DUP3 ADD SWAP2 SWAP1 PUSH0 MSTORE PUSH1 0x20 PUSH0 KECCAK256 SWAP1 JUMPDEST DUP2 SLOAD DUP2 MSTORE SWAP1 PUSH1 0x1 ADD SWAP1 PUSH1 0x20 ADD DUP1 DUP4 GT PUSH2 0xBD7 JUMPI DUP3 SWAP1 SUB PUSH1 0x1F AND DUP3 ADD SWAP2 JUMPDEST POP POP POP POP POP SWAP2 POP POP SWAP1 JUMP JUMPDEST PUSH0 PUSH2 0xC09 DUP3 PUSH2 0x254E JUMP JUMPDEST POP PUSH2 0xC13 DUP3 PUSH2 0x25D4 JUMP JUMPDEST SWAP1 POP SWAP2 SWAP1 POP JUMP JUMPDEST PUSH2 0xC2C DUP3 DUP3 PUSH2 0xC27 PUSH2 0x261B JUMP JUMPDEST PUSH2 0x2622 JUMP JUMPDEST POP POP JUMP JUMPDEST PUSH1 0xD PUSH0 SWAP1 SLOAD SWAP1 PUSH2 0x100 EXP SWAP1 DIV PUSH1 0xFF AND DUP2 JUMP JUMPDEST PUSH2 0xC4A PUSH2 0x2634 JUMP JUMPDEST DUP2 DUP2 PUSH1 0x7 SWAP2 DUP3 PUSH2 0xC5B SWAP3 SWAP2 SWAP1 PUSH2 0x5181 JUMP JUMPDEST POP POP POP JUMP JUMPDEST PUSH2 0xC68 PUSH2 0x2634 JUMP JUMPDEST PUSH0 PUSH1 0x1 PUSH0 DUP4 DUP2 MSTORE PUSH1 0x20 ADD SWAP1 DUP2 MSTORE PUSH1 0x20 ADD PUSH0 KECCAK256 PUSH0 SWAP1 SLOAD SWAP1 PUSH2 0x100 EXP SWAP1 DIV PUSH1 0xFF AND SWAP1 POP PUSH0 PUSH1 0x3 DUP2 GT ISZERO PUSH2 0xC9C JUMPI PUSH2 0xC9B PUSH2 0x4CEF JUMP JUMPDEST JUMPDEST DUP2 PUSH1 0x3 DUP2 GT ISZERO PUSH2 0xCAF JUMPI PUSH2 0xCAE PUSH2 0x4CEF JUMP JUMPDEST JUMPDEST SUB PUSH2 0xD37 JUMPI PUSH1 0x1 DUP1 PUSH0 DUP5 DUP2 MSTORE PUSH1 0x20 ADD SWAP1 DUP2 MSTORE PUSH1 0x20 ADD PUSH0 KECCAK256 PUSH0 PUSH2 0x100 EXP DUP2 SLOAD DUP2 PUSH1 0xFF MUL NOT AND SWAP1 DUP4 PUSH1 0x3 DUP2 GT ISZERO PUSH2 0xCE7 JUMPI PUSH2 0xCE6 PUSH2 0x4CEF JUMP JUMPDEST JUMPDEST MUL OR SWAP1 SSTORE POP PUSH2 0xCF4 PUSH2 0x26BB JUMP JUMPDEST PUSH0 DUP1 DUP5 DUP2 MSTORE PUSH1 0x20 ADD SWAP1 DUP2 MSTORE PUSH1 0x20 ADD PUSH0 KECCAK256 PUSH1 0x1 ADD DUP2 SWAP1 SSTORE POP PUSH3 0x2A300 TIMESTAMP PUSH2 0xD1A SWAP2 SWAP1 PUSH2 0x527B JUMP JUMPDEST PUSH1 0x2 PUSH0 DUP5 DUP2 MSTORE PUSH1 0x20 ADD SWAP1 DUP2 MSTORE PUSH1 0x20 ADD PUSH0 KECCAK256 PUSH1 0x1 ADD DUP2 SWAP1 SSTORE POP PUSH2 0xE6F JUMP JUMPDEST PUSH1 0x1 PUSH1 0x3 DUP2 GT ISZERO PUSH2 0xD4B JUMPI PUSH2 0xD4A PUSH2 0x4CEF JUMP JUMPDEST JUMPDEST DUP2 PUSH1 0x3 DUP2 GT ISZERO PUSH2 0xD5E JUMPI PUSH2 0xD5D PUSH2 0x4CEF JUMP JUMPDEST JUMPDEST SUB PUSH2 0xDC8 JUMPI PUSH1 0x2 PUSH1 0x1 PUSH0 DUP5 DUP2 MSTORE PUSH1 0x20 ADD SWAP1 DUP2 MSTORE PUSH1 0x20 ADD PUSH0 KECCAK256 PUSH0 PUSH2 0x100 EXP DUP2 SLOAD DUP2 PUSH1 0xFF MUL NOT AND SWAP1 DUP4 PUSH1 0x3 DUP2 GT ISZERO PUSH2 0xD97 JUMPI PUSH2 0xD96 PUSH2 0x4CEF JUMP JUMPDEST JUMPDEST MUL OR SWAP1 SSTORE POP PUSH3 0x3F480 TIMESTAMP PUSH2 0xDAB SWAP2 SWAP1 PUSH2 0x527B JUMP JUMPDEST PUSH1 0x2 PUSH0 DUP5 DUP2 MSTORE PUSH1 0x20 ADD SWAP1 DUP2 MSTORE PUSH1 0x20 ADD PUSH0 KECCAK256 PUSH1 0x2 ADD DUP2 SWAP1 SSTORE POP PUSH2 0xE6E JUMP JUMPDEST PUSH1 0x2 PUSH1 0x3 DUP2 GT ISZERO PUSH2 0xDDC JUMPI PUSH2 0xDDB PUSH2 0x4CEF JUMP JUMPDEST JUMPDEST DUP2 PUSH1 0x3 DUP2 GT ISZERO PUSH2 0xDEF JUMPI PUSH2 0xDEE PUSH2 0x4CEF JUMP JUMPDEST JUMPDEST SUB PUSH2 0xE32 JUMPI PUSH1 0x3 PUSH1 0x1 PUSH0 DUP5 DUP2 MSTORE PUSH1 0x20 ADD SWAP1 DUP2 MSTORE PUSH1 0x20 ADD PUSH0 KECCAK256 PUSH0 PUSH2 0x100 EXP DUP2 SLOAD DUP2 PUSH1 0xFF MUL NOT AND SWAP1 DUP4 PUSH1 0x3 DUP2 GT ISZERO PUSH2 0xE28 JUMPI PUSH2 0xE27 PUSH2 0x4CEF JUMP JUMPDEST JUMPDEST MUL OR SWAP1 SSTORE POP PUSH2 0xE6D JUMP JUMPDEST PUSH1 0x40 MLOAD PUSH32 0x8C379A000000000000000000000000000000000000000000000000000000000 DUP2 MSTORE PUSH1 0x4 ADD PUSH2 0xE64 SWAP1 PUSH2 0x52F8 JUMP JUMPDEST PUSH1 0x40 MLOAD DUP1 SWAP2 SUB SWAP1 REVERT JUMPDEST JUMPDEST JUMPDEST POP POP JUMP JUMPDEST PUSH0 PUSH2 0xE7C PUSH2 0x271F JUMP JUMPDEST SWAP1 POP PUSH0 DUP2 PUSH0 ADD PUSH1 0x8 SWAP1 SLOAD SWAP1 PUSH2 0x100 EXP SWAP1 DIV PUSH1 0xFF AND ISZERO SWAP1 POP PUSH0 DUP3 PUSH0 ADD PUSH0 SWAP1 SLOAD SWAP1 PUSH2 0x100 EXP SWAP1 DIV PUSH8 0xFFFFFFFFFFFFFFFF AND SWAP1 POP PUSH0 DUP1 DUP3 PUSH8 0xFFFFFFFFFFFFFFFF AND EQ DUP1 ISZERO PUSH2 0xEC4 JUMPI POP DUP3 JUMPDEST SWAP1 POP PUSH0 PUSH1 0x1 DUP4 PUSH8 0xFFFFFFFFFFFFFFFF AND EQ DUP1 ISZERO PUSH2 0xEF7 JUMPI POP PUSH0 ADDRESS PUSH20 0xFFFFFFFFFFFFFFFFFFFFFFFFFFFFFFFFFFFFFFFF AND EXTCODESIZE EQ JUMPDEST SWAP1 POP DUP2 ISZERO DUP1 ISZERO PUSH2 0xF05 JUMPI POP DUP1 ISZERO JUMPDEST ISZERO PUSH2 0xF3C JUMPI PUSH1 0x40 MLOAD PUSH32 0xF92EE8A900000000000000000000000000000000000000000000000000000000 DUP2 MSTORE PUSH1 0x4 ADD PUSH1 0x40 MLOAD DUP1 SWAP2 SUB SWAP1 REVERT JUMPDEST PUSH1 0x1 DUP6 PUSH0 ADD PUSH0 PUSH2 0x100 EXP DUP2 SLOAD DUP2 PUSH8 0xFFFFFFFFFFFFFFFF MUL NOT AND SWAP1 DUP4 PUSH8 0xFFFFFFFFFFFFFFFF AND MUL OR SWAP1 SSTORE POP DUP4 ISZERO PUSH2 0xF89 JUMPI PUSH1 0x1 DUP6 PUSH0 ADD PUSH1 0x8 PUSH2 0x100 EXP DUP2 SLOAD DUP2 PUSH1 0xFF MUL NOT AND SWAP1 DUP4 ISZERO ISZERO MUL OR SWAP1 SSTORE POP JUMPDEST PUSH2 0xF95 DUP10 DUP10 DUP10 DUP10 PUSH2 0x2746 JUMP JUMPDEST PUSH2 0xF9D PUSH2 0x28CD JUMP JUMPDEST DUP4 ISZERO PUSH2 0xFF7 JUMPI PUSH0 DUP6 PUSH0 ADD PUSH1 0x8 PUSH2 0x100 EXP DUP2 SLOAD DUP2 PUSH1 0xFF MUL NOT AND SWAP1 DUP4 ISZERO ISZERO MUL OR SWAP1 SSTORE POP PUSH32 0xC7F505B2F371AE2175EE4913F4499E1F2633A7B5936321EED1CDAEB6115181D2 PUSH1 0x1 PUSH1 0x40 MLOAD PUSH2 0xFEE SWAP2 SWAP1 PUSH2 0x5362 JUMP JUMPDEST PUSH1 0x40 MLOAD DUP1 SWAP2 SUB SWAP1 LOG1 JUMPDEST POP POP POP POP POP POP POP POP POP JUMP JUMPDEST PUSH0 PUSH20 0xFFFFFFFFFFFFFFFFFFFFFFFFFFFFFFFFFFFFFFFF AND DUP3 PUSH20 0xFFFFFFFFFFFFFFFFFFFFFFFFFFFFFFFFFFFFFFFF AND SUB PUSH2 0x1072 JUMPI PUSH0 PUSH1 0x40 MLOAD PUSH32 0x64A0AE9200000000000000000000000000000000000000000000000000000000 DUP2 MSTORE PUSH1 0x4 ADD PUSH2 0x1069 SWAP2 SWAP1 PUSH2 0x45D3 JUMP JUMPDEST PUSH1 0x40 MLOAD DUP1 SWAP2 SUB SWAP1 REVERT JUMPDEST PUSH0 PUSH2 0x1085 DUP4 DUP4 PUSH2 0x1080 PUSH2 0x261B JUMP JUMPDEST PUSH2 0x28D7 JUMP JUMPDEST SWAP1 POP DUP4 PUSH20 0xFFFFFFFFFFFFFFFFFFFFFFFFFFFFFFFFFFFFFFFF AND DUP2 PUSH20 0xFFFFFFFFFFFFFFFFFFFFFFFFFFFFFFFFFFFFFFFF AND EQ PUSH2 0x10FB JUMPI DUP4 DUP3 DUP3 PUSH1 0x40 MLOAD PUSH32 0x64283D7B00000000000000000000000000000000000000000000000000000000 DUP2 MSTORE PUSH1 0x4 ADD PUSH2 0x10F2 SWAP4 SWAP3 SWAP2 SWAP1 PUSH2 0x537B JUMP JUMPDEST PUSH1 0x40 MLOAD DUP1 SWAP2 SUB SWAP1 REVERT JUMPDEST POP POP POP POP JUMP JUMPDEST PUSH2 0x1109 PUSH2 0x2634 JUMP JUMPDEST DUP1 PUSH1 0xD PUSH0 PUSH2 0x100 EXP DUP2 SLOAD DUP2 PUSH1 0xFF MUL NOT AND SWAP1 DUP4 ISZERO ISZERO MUL OR SWAP1 SSTORE POP POP JUMP JUMPDEST PUSH2 0x112D PUSH2 0x2634 JUMP JUMPDEST DUP2 DUP2 PUSH1 0x9 SWAP2 DUP3 PUSH2 0x113E SWAP3 SWAP2 SWAP1 PUSH2 0x5181 JUMP JUMPDEST POP POP POP JUMP JUMPDEST PUSH1 0xC PUSH0 DUP2 SLOAD DUP1 SWAP3 SWAP2 SWAP1 PUSH2 0x1155 SWAP1 PUSH2 0x53B0 JUMP JUMPDEST SWAP2 SWAP1 POP SSTORE POP PUSH2 0x116A DUP3 DUP3 PUSH0 DUP1 PUSH1 0x1 DUP9 PUSH0 PUSH2 0x2AF4 JUMP JUMPDEST POP POP POP POP JUMP JUMPDEST PUSH2 0x118A DUP4 DUP4 DUP4 PUSH1 0x40 MLOAD DUP1 PUSH1 0x20 ADD PUSH1 0x40 MSTORE DUP1 PUSH0 DUP2 MSTORE POP PUSH2 0x18B1 JUMP JUMPDEST POP POP POP JUMP JUMPDEST PUSH2 0x1197 PUSH2 0x2D18 JUMP JUMPDEST PUSH2 0x11A0 DUP3 PUSH2 0x2DFE JUMP JUMPDEST PUSH2 0x11AA DUP3 DUP3 PUSH2 0x2E09 JUMP JUMPDEST POP POP JUMP JUMPDEST PUSH0 PUSH2 0x11B7 PUSH2 0x2F27 JUMP JUMPDEST PUSH32 0x360894A13BA1A3210667C828492DB98DCA3E2076CC3735A920A3CA505D382BBC PUSH0 SHL SWAP1 POP SWAP1 JUMP JUMPDEST PUSH0 DUP1 PUSH1 0xB PUSH0 DUP5 DUP2 MSTORE PUSH1 0x20 ADD SWAP1 DUP2 MSTORE PUSH1 0x20 ADD PUSH0 KECCAK256 PUSH0 ADD SLOAD SWAP2 POP PUSH1 0xB PUSH0 DUP5 DUP2 MSTORE PUSH1 0x20 ADD SWAP1 DUP2 MSTORE PUSH1 0x20 ADD PUSH0 KECCAK256 PUSH1 0x1 ADD SLOAD SWAP1 POP SWAP2 POP SWAP2 JUMP JUMPDEST PUSH0 PUSH2 0x121D DUP3 PUSH2 0x254E JUMP JUMPDEST SWAP1 POP SWAP2 SWAP1 POP JUMP JUMPDEST PUSH0 DUP1 PUSH2 0x122E PUSH2 0x2527 JUMP JUMPDEST SWAP1 POP PUSH0 PUSH20 0xFFFFFFFFFFFFFFFFFFFFFFFFFFFFFFFFFFFFFFFF AND DUP4 PUSH20 0xFFFFFFFFFFFFFFFFFFFFFFFFFFFFFFFFFFFFFFFF AND SUB PUSH2 0x12A0 JUMPI PUSH0 PUSH1 0x40 MLOAD PUSH32 0x89C62B6400000000000000000000000000000000000000000000000000000000 DUP2 MSTORE PUSH1 0x4 ADD PUSH2 0x1297 SWAP2 SWAP1 PUSH2 0x45D3 JUMP JUMPDEST PUSH1 0x40 MLOAD DUP1 SWAP2 SUB SWAP1 REVERT JUMPDEST DUP1 PUSH1 0x3 ADD PUSH0 DUP5 PUSH20 0xFFFFFFFFFFFFFFFFFFFFFFFFFFFFFFFFFFFFFFFF AND PUSH20 0xFFFFFFFFFFFFFFFFFFFFFFFFFFFFFFFFFFFFFFFF AND DUP2 MSTORE PUSH1 0x20 ADD SWAP1 DUP2 MSTORE PUSH1 0x20 ADD PUSH0 KECCAK256 SLOAD SWAP2 POP POP SWAP2 SWAP1 POP JUMP JUMPDEST PUSH2 0x12F0 PUSH2 0x2634 JUMP JUMPDEST PUSH2 0x12F9 PUSH0 PUSH2 0x2FAE JUMP JUMPDEST JUMP JUMPDEST PUSH1 0xD PUSH0 SWAP1 SLOAD SWAP1 PUSH2 0x100 EXP SWAP1 DIV PUSH1 0xFF AND PUSH2 0x1349 JUMPI PUSH1 0x40 MLOAD PUSH32 0x8C379A000000000000000000000000000000000000000000000000000000000 DUP2 MSTORE PUSH1 0x4 ADD PUSH2 0x1340 SWAP1 PUSH2 0x5441 JUMP JUMPDEST PUSH1 0x40 MLOAD DUP1 SWAP2 SUB SWAP1 REVERT JUMPDEST PUSH1 0xC PUSH0 DUP2 SLOAD DUP1 SWAP3 SWAP2 SWAP1 PUSH2 0x135B SWAP1 PUSH2 0x53B0 JUMP JUMPDEST SWAP2 SWAP1 POP SSTORE POP PUSH2 0x1371 DUP3 DUP3 PUSH0 DUP1 PUSH1 0x1 DUP9 PUSH1 0x1 PUSH2 0x2AF4 JUMP JUMPDEST POP POP POP POP JUMP JUMPDEST PUSH0 DUP1 PUSH2 0x1381 PUSH2 0x307F JUMP JUMPDEST SWAP1 POP DUP1 PUSH0 ADD PUSH0 SWAP1 SLOAD SWAP1 PUSH2 0x100 EXP SWAP1 DIV PUSH20 0xFFFFFFFFFFFFFFFFFFFFFFFFFFFFFFFFFFFFFFFF AND SWAP2 POP POP SWAP1 JUMP JUMPDEST PUSH1 0x60 PUSH0 PUSH1 0x4 SLOAD SWAP1 POP PUSH0 DUP1 DUP3 PUSH8 0xFFFFFFFFFFFFFFFF DUP2 GT ISZERO PUSH2 0x13D0 JUMPI PUSH2 0x13CF PUSH2 0x4704 JUMP JUMPDEST JUMPDEST PUSH1 0x40 MLOAD SWAP1 DUP1 DUP3 MSTORE DUP1 PUSH1 0x20 MUL PUSH1 0x20 ADD DUP3 ADD PUSH1 0x40 MSTORE DUP1 ISZERO PUSH2 0x13FE JUMPI DUP2 PUSH1 0x20 ADD PUSH1 0x20 DUP3 MUL DUP1 CALLDATASIZE DUP4 CALLDATACOPY DUP1 DUP3 ADD SWAP2 POP POP SWAP1 POP JUMPDEST POP SWAP1 POP PUSH0 PUSH1 0x1 SWAP1 POP JUMPDEST DUP4 DUP2 GT PUSH2 0x148B JUMPI DUP6 PUSH20 0xFFFFFFFFFFFFFFFFFFFFFFFFFFFFFFFFFFFFFFFF AND PUSH2 0x142E DUP3 PUSH2 0x1213 JUMP JUMPDEST PUSH20 0xFFFFFFFFFFFFFFFFFFFFFFFFFFFFFFFFFFFFFFFF AND SUB PUSH2 0x1478 JUMPI DUP1 DUP3 DUP5 DUP2 MLOAD DUP2 LT PUSH2 0x145D JUMPI PUSH2 0x145C PUSH2 0x545F JUMP JUMPDEST JUMPDEST PUSH1 0x20 MUL PUSH1 0x20 ADD ADD DUP2 DUP2 MSTORE POP POP DUP3 DUP1 PUSH2 0x1474 SWAP1 PUSH2 0x53B0 JUMP JUMPDEST SWAP4 POP POP JUMPDEST DUP1 DUP1 PUSH2 0x1483 SWAP1 PUSH2 0x53B0 JUMP JUMPDEST SWAP2 POP POP PUSH2 0x1407 JUMP JUMPDEST POP DUP2 DUP2 MSTORE DUP1 SWAP4 POP POP POP POP SWAP2 SWAP1 POP JUMP JUMPDEST PUSH1 0x60 PUSH0 PUSH2 0x14A5 PUSH2 0x2527 JUMP JUMPDEST SWAP1 POP DUP1 PUSH1 0x1 ADD DUP1 SLOAD PUSH2 0x14B6 SWAP1 PUSH2 0x4FAA JUMP JUMPDEST DUP1 PUSH1 0x1F ADD PUSH1 0x20 DUP1 SWAP2 DIV MUL PUSH1 0x20 ADD PUSH1 0x40 MLOAD SWAP1 DUP2 ADD PUSH1 0x40 MSTORE DUP1 SWAP3 SWAP2 SWAP1 DUP2 DUP2 MSTORE PUSH1 0x20 ADD DUP3 DUP1 SLOAD PUSH2 0x14E2 SWAP1 PUSH2 0x4FAA JUMP JUMPDEST DUP1 ISZERO PUSH2 0x152D JUMPI DUP1 PUSH1 0x1F LT PUSH2 0x1504 JUMPI PUSH2 0x100 DUP1 DUP4 SLOAD DIV MUL DUP4 MSTORE SWAP2 PUSH1 0x20 ADD SWAP2 PUSH2 0x152D JUMP JUMPDEST DUP3 ADD SWAP2 SWAP1 PUSH0 MSTORE PUSH1 0x20 PUSH0 KECCAK256 SWAP1 JUMPDEST DUP2 SLOAD DUP2 MSTORE SWAP1 PUSH1 0x1 ADD SWAP1 PUSH1 0x20 ADD DUP1 DUP4 GT PUSH2 0x1510 JUMPI DUP3 SWAP1 SUB PUSH1 0x1F AND DUP3 ADD SWAP2 JUMPDEST POP POP POP POP POP SWAP2 POP POP SWAP1 JUMP JUMPDEST PUSH1 0xC SLOAD DUP2 JUMP JUMPDEST PUSH0 CALLER PUSH20 0xFFFFFFFFFFFFFFFFFFFFFFFFFFFFFFFFFFFFFFFF AND PUSH2 0x155F DUP5 PUSH2 0x1213 JUMP JUMPDEST PUSH20 0xFFFFFFFFFFFFFFFFFFFFFFFFFFFFFFFFFFFFFFFF AND EQ DUP1 ISZERO PUSH2 0x15B5 JUMPI POP CALLER PUSH20 0xFFFFFFFFFFFFFFFFFFFFFFFFFFFFFFFFFFFFFFFF AND PUSH2 0x159D DUP4 PUSH2 0x1213 JUMP JUMPDEST PUSH20 0xFFFFFFFFFFFFFFFFFFFFFFFFFFFFFFFFFFFFFFFF AND EQ JUMPDEST PUSH2 0x15F4 JUMPI PUSH1 0x40 MLOAD PUSH32 0x8C379A000000000000000000000000000000000000000000000000000000000 DUP2 MSTORE PUSH1 0x4 ADD PUSH2 0x15EB SWAP1 PUSH2 0x4EF7 JUMP JUMPDEST PUSH1 0x40 MLOAD DUP1 SWAP2 SUB SWAP1 REVERT JUMPDEST PUSH2 0x15FE DUP4 DUP4 PUSH2 0x30A6 JUMP JUMPDEST ISZERO PUSH2 0x163E JUMPI PUSH1 0x40 MLOAD PUSH32 0x8C379A000000000000000000000000000000000000000000000000000000000 DUP2 MSTORE PUSH1 0x4 ADD PUSH2 0x1635 SWAP1 PUSH2 0x54D6 JUMP JUMPDEST PUSH1 0x40 MLOAD DUP1 SWAP2 SUB SWAP1 REVERT JUMPDEST PUSH2 0x1647 DUP4 PUSH2 0x3116 JUMP JUMPDEST DUP1 ISZERO PUSH2 0x1658 JUMPI POP PUSH2 0x1657 DUP3 PUSH2 0x3116 JUMP JUMPDEST JUMPDEST PUSH2 0x1697 JUMPI PUSH1 0x40 MLOAD PUSH32 0x8C379A000000000000000000000000000000000000000000000000000000000 DUP2 MSTORE PUSH1 0x4 ADD PUSH2 0x168E SWAP1 PUSH2 0x553E JUMP JUMPDEST PUSH1 0x40 MLOAD DUP1 SWAP2 SUB SWAP1 REVERT JUMPDEST PUSH2 0x16A1 DUP4 DUP4 PUSH2 0x3134 JUMP JUMPDEST PUSH2 0x16E0 JUMPI PUSH1 0x40 MLOAD PUSH32 0x8C379A000000000000000000000000000000000000000000000000000000000 DUP2 MSTORE PUSH1 0x4 ADD PUSH2 0x16D7 SWAP1 PUSH2 0x55A6 JUMP JUMPDEST PUSH1 0x40 MLOAD DUP1 SWAP2 SUB SWAP1 REVERT JUMPDEST PUSH2 0x16E9 DUP4 PUSH2 0x3171 JUMP JUMPDEST PUSH2 0x16F2 DUP3 PUSH2 0x3171 JUMP JUMPDEST PUSH0 PUSH2 0x16FF DUP7 DUP7 DUP7 DUP7 PUSH2 0x31C3 JUMP JUMPDEST SWAP1 POP DUP1 DUP4 DUP6 PUSH32 0x57F2B9F5C840C33473A81F7A678B3B71541515153FE9C4CCB4D909C5CA3F7D44 PUSH1 0x40 MLOAD PUSH1 0x40 MLOAD DUP1 SWAP2 SUB SWAP1 LOG4 DUP1 SWAP2 POP POP SWAP5 SWAP4 POP POP POP POP JUMP JUMPDEST PUSH2 0x174E PUSH2 0x1747 PUSH2 0x261B JUMP JUMPDEST DUP4 DUP4 PUSH2 0x3239 JUMP JUMPDEST POP POP JUMP JUMPDEST PUSH1 0x40 MLOAD DUP1 PUSH1 0x40 ADD PUSH1 0x40 MSTORE DUP1 PUSH1 0x5 DUP2 MSTORE PUSH1 0x20 ADD PUSH32 0x352E302E30000000000000000000000000000000000000000000000000000000 DUP2 MSTORE POP DUP2 JUMP JUMPDEST PUSH0 DUP1 PUSH1 0x1 PUSH0 DUP5 DUP2 MSTORE PUSH1 0x20 ADD SWAP1 DUP2 MSTORE PUSH1 0x20 ADD PUSH0 KECCAK256 PUSH0 SWAP1 SLOAD SWAP1 PUSH2 0x100 EXP SWAP1 DIV PUSH1 0xFF AND SWAP2 POP PUSH0 TIMESTAMP SWAP1 POP PUSH0 DUP1 PUSH1 0x3 DUP2 GT ISZERO PUSH2 0x17C5 JUMPI PUSH2 0x17C4 PUSH2 0x4CEF JUMP JUMPDEST JUMPDEST DUP5 PUSH1 0x3 DUP2 GT ISZERO PUSH2 0x17D8 JUMPI PUSH2 0x17D7 PUSH2 0x4CEF JUMP JUMPDEST JUMPDEST SUB PUSH2 0x17F8 JUMPI PUSH1 0x2 PUSH0 DUP7 DUP2 MSTORE PUSH1 0x20 ADD SWAP1 DUP2 MSTORE PUSH1 0x20 ADD PUSH0 KECCAK256 PUSH0 ADD SLOAD SWAP1 POP PUSH2 0x188E JUMP JUMPDEST PUSH1 0x1 PUSH1 0x3 DUP2 GT ISZERO PUSH2 0x180C JUMPI PUSH2 0x180B PUSH2 0x4CEF JUMP JUMPDEST JUMPDEST DUP5 PUSH1 0x3 DUP2 GT ISZERO PUSH2 0x181F JUMPI PUSH2 0x181E PUSH2 0x4CEF JUMP JUMPDEST JUMPDEST SUB PUSH2 0x1840 JUMPI PUSH1 0x2 PUSH0 DUP7 DUP2 MSTORE PUSH1 0x20 ADD SWAP1 DUP2 MSTORE PUSH1 0x20 ADD PUSH0 KECCAK256 PUSH1 0x1 ADD SLOAD SWAP1 POP PUSH2 0x188D JUMP JUMPDEST PUSH1 0x2 PUSH1 0x3 DUP2 GT ISZERO PUSH2 0x1854 JUMPI PUSH2 0x1853 PUSH2 0x4CEF JUMP JUMPDEST JUMPDEST DUP5 PUSH1 0x3 DUP2 GT ISZERO PUSH2 0x1867 JUMPI PUSH2 0x1866 PUSH2 0x4CEF JUMP JUMPDEST JUMPDEST SUB PUSH2 0x1888 JUMPI PUSH1 0x2 PUSH0 DUP7 DUP2 MSTORE PUSH1 0x20 ADD SWAP1 DUP2 MSTORE PUSH1 0x20 ADD PUSH0 KECCAK256 PUSH1 0x2 ADD SLOAD SWAP1 POP PUSH2 0x188C JUMP JUMPDEST PUSH0 SWAP1 POP JUMPDEST JUMPDEST JUMPDEST DUP2 DUP2 GT PUSH2 0x189B JUMPI PUSH0 PUSH2 0x18A8 JUMP JUMPDEST DUP2 DUP2 PUSH2 0x18A7 SWAP2 SWAP1 PUSH2 0x55C4 JUMP JUMPDEST JUMPDEST SWAP3 POP POP POP SWAP2 POP SWAP2 JUMP JUMPDEST PUSH2 0x18BC DUP5 DUP5 DUP5 PUSH2 0x1002 JUMP JUMPDEST PUSH2 0x18C8 DUP5 DUP5 DUP5 DUP5 PUSH2 0x33B0 JUMP JUMPDEST POP POP POP POP JUMP JUMPDEST PUSH2 0x18D6 PUSH2 0x2634 JUMP JUMPDEST DUP2 DUP2 PUSH1 0x8 SWAP2 DUP3 PUSH2 0x18E7 SWAP3 SWAP2 SWAP1 PUSH2 0x5181 JUMP JUMPDEST POP POP POP JUMP JUMPDEST PUSH1 0x60 PUSH0 PUSH1 0x6 DUP1 SLOAD PUSH2 0x18FC SWAP1 PUSH2 0x4FAA JUMP JUMPDEST SWAP1 POP GT ISZERO PUSH2 0x1936 JUMPI PUSH1 0x6 PUSH2 0x190F DUP4 PUSH2 0x3562 JUMP JUMPDEST PUSH1 0x40 MLOAD PUSH1 0x20 ADD PUSH2 0x1920 SWAP3 SWAP2 SWAP1 PUSH2 0x56B1 JUMP JUMPDEST PUSH1 0x40 MLOAD PUSH1 0x20 DUP2 DUP4 SUB SUB DUP2 MSTORE SWAP1 PUSH1 0x40 MSTORE SWAP1 POP PUSH2 0x1D51 JUMP JUMPDEST PUSH1 0x60 PUSH0 PUSH1 0x3 DUP2 GT ISZERO PUSH2 0x194B JUMPI PUSH2 0x194A PUSH2 0x4CEF JUMP JUMPDEST JUMPDEST PUSH1 0x1 PUSH0 DUP6 DUP2 MSTORE PUSH1 0x20 ADD SWAP1 DUP2 MSTORE PUSH1 0x20 ADD PUSH0 KECCAK256 PUSH0 SWAP1 SLOAD SWAP1 PUSH2 0x100 EXP SWAP1 DIV PUSH1 0xFF AND PUSH1 0x3 DUP2 GT ISZERO PUSH2 0x197B JUMPI PUSH2 0x197A PUSH2 0x4CEF JUMP JUMPDEST JUMPDEST SUB PUSH2 0x19B8 JUMPI PUSH0 DUP1 DUP5 DUP2 MSTORE PUSH1 0x20 ADD SWAP1 DUP2 MSTORE PUSH1 0x20 ADD PUSH0 KECCAK256 PUSH0 ADD PUSH1 0x40 MLOAD PUSH1 0x20 ADD PUSH2 0x19A2 SWAP2 SWAP1 PUSH2 0x571E JUMP JUMPDEST PUSH1 0x40 MLOAD PUSH1 0x20 DUP2 DUP4 SUB SUB DUP2 MSTORE SWAP1 PUSH1 0x40 MSTORE SWAP1 POP PUSH2 0x1D0A JUMP JUMPDEST PUSH1 0x60 PUSH0 DUP1 DUP6 DUP2 MSTORE PUSH1 0x20 ADD SWAP1 DUP2 MSTORE PUSH1 0x20 ADD PUSH0 KECCAK256 PUSH1 0x5 ADD PUSH0 SWAP1 SLOAD SWAP1 PUSH2 0x100 EXP SWAP1 DIV PUSH1 0xFF AND ISZERO PUSH2 0x1A73 JUMPI PUSH1 0x1 PUSH0 DUP1 DUP7 DUP2 MSTORE PUSH1 0x20 ADD SWAP1 DUP2 MSTORE PUSH1 0x20 ADD PUSH0 KECCAK256 PUSH1 0x4 ADD SLOAD EQ PUSH2 0x1A35 JUMPI PUSH1 0x40 MLOAD DUP1 PUSH1 0x40 ADD PUSH1 0x40 MSTORE DUP1 PUSH1 0x1 DUP2 MSTORE PUSH1 0x20 ADD PUSH32 0x6200000000000000000000000000000000000000000000000000000000000000 DUP2 MSTORE POP PUSH2 0x1A6C JUMP JUMPDEST PUSH1 0x40 MLOAD DUP1 PUSH1 0x40 ADD PUSH1 0x40 MSTORE DUP1 PUSH1 0x1 DUP2 MSTORE PUSH1 0x20 ADD PUSH32 0x6700000000000000000000000000000000000000000000000000000000000000 DUP2 MSTORE POP JUMPDEST SWAP1 POP PUSH2 0x1AAC JUMP JUMPDEST PUSH1 0x40 MLOAD DUP1 PUSH1 0x40 ADD PUSH1 0x40 MSTORE DUP1 PUSH1 0x1 DUP2 MSTORE PUSH1 0x20 ADD PUSH32 0x6E00000000000000000000000000000000000000000000000000000000000000 DUP2 MSTORE POP SWAP1 POP JUMPDEST PUSH0 PUSH1 0x1 PUSH0 DUP1 DUP8 DUP2 MSTORE PUSH1 0x20 ADD SWAP1 DUP2 MSTORE PUSH1 0x20 ADD PUSH0 KECCAK256 PUSH1 0x1 ADD SLOAD EQ PUSH2 0x1B03 JUMPI PUSH1 0x40 MLOAD DUP1 PUSH1 0x40 ADD PUSH1 0x40 MSTORE DUP1 PUSH1 0x1 DUP2 MSTORE PUSH1 0x20 ADD PUSH32 0x6600000000000000000000000000000000000000000000000000000000000000 DUP2 MSTORE POP PUSH2 0x1B3A JUMP JUMPDEST PUSH1 0x40 MLOAD DUP1 PUSH1 0x40 ADD PUSH1 0x40 MSTORE DUP1 PUSH1 0x1 DUP2 MSTORE PUSH1 0x20 ADD PUSH32 0x6D00000000000000000000000000000000000000000000000000000000000000 DUP2 MSTORE POP JUMPDEST SWAP1 POP PUSH1 0x60 PUSH1 0x1 PUSH1 0x3 DUP2 GT ISZERO PUSH2 0x1B52 JUMPI PUSH2 0x1B51 PUSH2 0x4CEF JUMP JUMPDEST JUMPDEST PUSH1 0x1 PUSH0 DUP9 DUP2 MSTORE PUSH1 0x20 ADD SWAP1 DUP2 MSTORE PUSH1 0x20 ADD PUSH0 KECCAK256 PUSH0 SWAP1 SLOAD SWAP1 PUSH2 0x100 EXP SWAP1 DIV PUSH1 0xFF AND PUSH1 0x3 DUP2 GT ISZERO PUSH2 0x1B82 JUMPI PUSH2 0x1B81 PUSH2 0x4CEF JUMP JUMPDEST JUMPDEST SUB PUSH2 0x1BC4 JUMPI PUSH1 0x40 MLOAD DUP1 PUSH1 0x40 ADD PUSH1 0x40 MSTORE DUP1 PUSH1 0x5 DUP2 MSTORE PUSH1 0x20 ADD PUSH32 0x6861746368000000000000000000000000000000000000000000000000000000 DUP2 MSTORE POP SWAP1 POP PUSH2 0x1CCD JUMP JUMPDEST PUSH1 0x2 PUSH1 0x3 DUP2 GT ISZERO PUSH2 0x1BD8 JUMPI PUSH2 0x1BD7 PUSH2 0x4CEF JUMP JUMPDEST JUMPDEST PUSH1 0x1 PUSH0 DUP9 DUP2 MSTORE PUSH1 0x20 ADD SWAP1 DUP2 MSTORE PUSH1 0x20 ADD PUSH0 KECCAK256 PUSH0 SWAP1 SLOAD SWAP1 PUSH2 0x100 EXP SWAP1 DIV PUSH1 0xFF AND PUSH1 0x3 DUP2 GT ISZERO PUSH2 0x1C08 JUMPI PUSH2 0x1C07 PUSH2 0x4CEF JUMP JUMPDEST JUMPDEST SUB PUSH2 0x1C4A JUMPI PUSH1 0x40 MLOAD DUP1 PUSH1 0x40 ADD PUSH1 0x40 MSTORE DUP1 PUSH1 0x9 DUP2 MSTORE PUSH1 0x20 ADD PUSH32 0x68617463686C696E670000000000000000000000000000000000000000000000 DUP2 MSTORE POP SWAP1 POP PUSH2 0x1CCC JUMP JUMPDEST PUSH1 0x3 DUP1 DUP2 GT ISZERO PUSH2 0x1C5D JUMPI PUSH2 0x1C5C PUSH2 0x4CEF JUMP JUMPDEST JUMPDEST PUSH1 0x1 PUSH0 DUP9 DUP2 MSTORE PUSH1 0x20 ADD SWAP1 DUP2 MSTORE PUSH1 0x20 ADD PUSH0 KECCAK256 PUSH0 SWAP1 SLOAD SWAP1 PUSH2 0x100 EXP SWAP1 DIV PUSH1 0xFF AND PUSH1 0x3 DUP2 GT ISZERO PUSH2 0x1C8D JUMPI PUSH2 0x1C8C PUSH2 0x4CEF JUMP JUMPDEST JUMPDEST SUB PUSH2 0x1CCB JUMPI PUSH1 0x40 MLOAD DUP1 PUSH1 0x40 ADD PUSH1 0x40 MSTORE DUP1 PUSH1 0x5 DUP2 MSTORE PUSH1 0x20 ADD PUSH32 0x6164756C74000000000000000000000000000000000000000000000000000000 DUP2 MSTORE POP SWAP1 POP JUMPDEST JUMPDEST JUMPDEST PUSH0 DUP1 DUP8 DUP2 MSTORE PUSH1 0x20 ADD SWAP1 DUP2 MSTORE PUSH1 0x20 ADD PUSH0 KECCAK256 PUSH0 ADD DUP4 DUP4 DUP4 PUSH1 0x40 MLOAD PUSH1 0x20 ADD PUSH2 0x1CF5 SWAP5 SWAP4 SWAP3 SWAP2 SWAP1 PUSH2 0x5789 JUMP JUMPDEST PUSH1 0x40 MLOAD PUSH1 0x20 DUP2 DUP4 SUB SUB DUP2 MSTORE SWAP1 PUSH1 0x40 MSTORE SWAP4 POP POP POP POP JUMPDEST PUSH2 0x1D13 DUP4 PUSH2 0x3562 JUMP JUMPDEST PUSH1 0x7 DUP3 PUSH1 0x9 PUSH0 DUP1 DUP9 DUP2 MSTORE PUSH1 0x20 ADD SWAP1 DUP2 MSTORE PUSH1 0x20 ADD PUSH0 KECCAK256 PUSH0 ADD PUSH1 0x40 MLOAD PUSH1 0x20 ADD PUSH2 0x1D3E SWAP6 SWAP5 SWAP4 SWAP3 SWAP2 SWAP1 PUSH2 0x59A7 JUMP JUMPDEST PUSH1 0x40 MLOAD PUSH1 0x20 DUP2 DUP4 SUB SUB DUP2 MSTORE SWAP1 PUSH1 0x40 MSTORE SWAP2 POP POP JUMPDEST SWAP2 SWAP1 POP JUMP JUMPDEST PUSH1 0x6 DUP1 SLOAD PUSH2 0x1D63 SWAP1 PUSH2 0x4FAA JUMP JUMPDEST DUP1 PUSH1 0x1F ADD PUSH1 0x20 DUP1 SWAP2 DIV MUL PUSH1 0x20 ADD PUSH1 0x40 MLOAD SWAP1 DUP2 ADD PUSH1 0x40 MSTORE DUP1 SWAP3 SWAP2 SWAP1 DUP2 DUP2 MSTORE PUSH1 0x20 ADD DUP3 DUP1 SLOAD PUSH2 0x1D8F SWAP1 PUSH2 0x4FAA JUMP JUMPDEST DUP1 ISZERO PUSH2 0x1DDA JUMPI DUP1 PUSH1 0x1F LT PUSH2 0x1DB1 JUMPI PUSH2 0x100 DUP1 DUP4 SLOAD DIV MUL DUP4 MSTORE SWAP2 PUSH1 0x20 ADD SWAP2 PUSH2 0x1DDA JUMP JUMPDEST DUP3 ADD SWAP2 SWAP1 PUSH0 MSTORE PUSH1 0x20 PUSH0 KECCAK256 SWAP1 JUMPDEST DUP2 SLOAD DUP2 MSTORE SWAP1 PUSH1 0x1 ADD SWAP1 PUSH1 0x20 ADD DUP1 DUP4 GT PUSH2 0x1DBD JUMPI DUP3 SWAP1 SUB PUSH1 0x1F AND DUP3 ADD SWAP2 JUMPDEST POP POP POP POP POP DUP2 JUMP JUMPDEST PUSH2 0x1DEA PUSH2 0x2634 JUMP JUMPDEST DUP2 DUP2 PUSH1 0x6 SWAP2 DUP3 PUSH2 0x1DFB SWAP3 SWAP2 SWAP1 PUSH2 0x5181 JUMP JUMPDEST POP POP POP JUMP JUMPDEST PUSH0 DUP1 PUSH0 DUP1 PUSH0 PUSH1 0x60 PUSH0 DUP1 PUSH0 DUP10 DUP2 MSTORE PUSH1 0x20 ADD SWAP1 DUP2 MSTORE PUSH1 0x20 ADD PUSH0 KECCAK256 SWAP1 POP DUP1 PUSH1 0x1 ADD SLOAD DUP2 PUSH1 0x2 ADD SLOAD DUP3 PUSH1 0x3 ADD SLOAD DUP4 PUSH1 0x4 ADD SLOAD DUP5 PUSH1 0x6 ADD SLOAD DUP6 PUSH0 ADD DUP1 DUP1 SLOAD PUSH2 0x1E42 SWAP1 PUSH2 0x4FAA JUMP JUMPDEST DUP1 PUSH1 0x1F ADD PUSH1 0x20 DUP1 SWAP2 DIV MUL PUSH1 0x20 ADD PUSH1 0x40 MLOAD SWAP1 DUP2 ADD PUSH1 0x40 MSTORE DUP1 SWAP3 SWAP2 SWAP1 DUP2 DUP2 MSTORE PUSH1 0x20 ADD DUP3 DUP1 SLOAD PUSH2 0x1E6E SWAP1 PUSH2 0x4FAA JUMP JUMPDEST DUP1 ISZERO PUSH2 0x1EB9 JUMPI DUP1 PUSH1 0x1F LT PUSH2 0x1E90 JUMPI PUSH2 0x100 DUP1 DUP4 SLOAD DIV MUL DUP4 MSTORE SWAP2 PUSH1 0x20 ADD SWAP2 PUSH2 0x1EB9 JUMP JUMPDEST DUP3 ADD SWAP2 SWAP1 PUSH0 MSTORE PUSH1 0x20 PUSH0 KECCAK256 SWAP1 JUMPDEST DUP2 SLOAD DUP2 MSTORE SWAP1 PUSH1 0x1 ADD SWAP1 PUSH1 0x20 ADD DUP1 DUP4 GT PUSH2 0x1E9C JUMPI DUP3 SWAP1 SUB PUSH1 0x1F AND DUP3 ADD SWAP2 JUMPDEST POP POP POP POP POP SWAP1 POP SWAP7 POP SWAP7 POP SWAP7 POP SWAP7 POP SWAP7 POP SWAP7 POP POP SWAP2 SWAP4 SWAP6 POP SWAP2 SWAP4 SWAP6 JUMP JUMPDEST PUSH0 DUP1 PUSH2 0x1EE0 PUSH2 0x2527 JUMP JUMPDEST SWAP1 POP DUP1 PUSH1 0x5 ADD PUSH0 DUP6 PUSH20 0xFFFFFFFFFFFFFFFFFFFFFFFFFFFFFFFFFFFFFFFF AND PUSH20 0xFFFFFFFFFFFFFFFFFFFFFFFFFFFFFFFFFFFFFFFF AND DUP2 MSTORE PUSH1 0x20 ADD SWAP1 DUP2 MSTORE PUSH1 0x20 ADD PUSH0 KECCAK256 PUSH0 DUP5 PUSH20 0xFFFFFFFFFFFFFFFFFFFFFFFFFFFFFFFFFFFFFFFF AND PUSH20 0xFFFFFFFFFFFFFFFFFFFFFFFFFFFFFFFFFFFFFFFF AND DUP2 MSTORE PUSH1 0x20 ADD SWAP1 DUP2 MSTORE PUSH1 0x20 ADD PUSH0 KECCAK256 PUSH0 SWAP1 SLOAD SWAP1 PUSH2 0x100 EXP SWAP1 DIV PUSH1 0xFF AND SWAP2 POP POP SWAP3 SWAP2 POP POP JUMP JUMPDEST PUSH1 0x8 DUP1 SLOAD PUSH2 0x1F7F SWAP1 PUSH2 0x4FAA JUMP JUMPDEST DUP1 PUSH1 0x1F ADD PUSH1 0x20 DUP1 SWAP2 DIV MUL PUSH1 0x20 ADD PUSH1 0x40 MLOAD SWAP1 DUP2 ADD PUSH1 0x40 MSTORE DUP1 SWAP3 SWAP2 SWAP1 DUP2 DUP2 MSTORE PUSH1 0x20 ADD DUP3 DUP1 SLOAD PUSH2 0x1FAB SWAP1 PUSH2 0x4FAA JUMP JUMPDEST DUP1 ISZERO PUSH2 0x1FF6 JUMPI DUP1 PUSH1 0x1F LT PUSH2 0x1FCD JUMPI PUSH2 0x100 DUP1 DUP4 SLOAD DIV MUL DUP4 MSTORE SWAP2 PUSH1 0x20 ADD SWAP2 PUSH2 0x1FF6 JUMP JUMPDEST DUP3 ADD SWAP2 SWAP1 PUSH0 MSTORE PUSH1 0x20 PUSH0 KECCAK256 SWAP1 JUMPDEST DUP2 SLOAD DUP2 MSTORE SWAP1 PUSH1 0x1 ADD SWAP1 PUSH1 0x20 ADD DUP1 DUP4 GT PUSH2 0x1FD9 JUMPI DUP3 SWAP1 SUB PUSH1 0x1F AND DUP3 ADD SWAP2 JUMPDEST POP POP POP POP POP DUP2 JUMP JUMPDEST CALLER PUSH20 0xFFFFFFFFFFFFFFFFFFFFFFFFFFFFFFFFFFFFFFFF AND PUSH2 0x201E DUP3 PUSH2 0x1213 JUMP JUMPDEST PUSH20 0xFFFFFFFFFFFFFFFFFFFFFFFFFFFFFFFFFFFFFFFF AND EQ PUSH2 0x2074 JUMPI PUSH1 0x40 MLOAD PUSH32 0x8C379A000000000000000000000000000000000000000000000000000000000 DUP2 MSTORE PUSH1 0x4 ADD PUSH2 0x206B SWAP1 PUSH2 0x4EF7 JUMP JUMPDEST PUSH1 0x40 MLOAD DUP1 SWAP2 SUB SWAP1 REVERT JUMPDEST PUSH0 PUSH1 0x1 PUSH0 DUP4 DUP2 MSTORE PUSH1 0x20 ADD SWAP1 DUP2 MSTORE PUSH1 0x20 ADD PUSH0 KECCAK256 PUSH0 SWAP1 SLOAD SWAP1 PUSH2 0x100 EXP SWAP1 DIV PUSH1 0xFF AND SWAP1 POP PUSH0 TIMESTAMP SWAP1 POP PUSH0 PUSH1 0x3 DUP2 GT ISZERO PUSH2 0x20AC JUMPI PUSH2 0x20AB PUSH2 0x4CEF JUMP JUMPDEST JUMPDEST DUP3 PUSH1 0x3 DUP2 GT ISZERO PUSH2 0x20BF JUMPI PUSH2 0x20BE PUSH2 0x4CEF JUMP JUMPDEST JUMPDEST EQ DUP1 ISZERO PUSH2 0x20DF JUMPI POP PUSH1 0x2 PUSH0 DUP5 DUP2 MSTORE PUSH1 0x20 ADD SWAP1 DUP2 MSTORE PUSH1 0x20 ADD PUSH0 KECCAK256 PUSH0 ADD SLOAD DUP2 LT ISZERO JUMPDEST ISZERO PUSH2 0x219D JUMPI PUSH1 0x1 DUP1 PUSH0 DUP6 DUP2 MSTORE PUSH1 0x20 ADD SWAP1 DUP2 MSTORE PUSH1 0x20 ADD PUSH0 KECCAK256 PUSH0 PUSH2 0x100 EXP DUP2 SLOAD DUP2 PUSH1 0xFF MUL NOT AND SWAP1 DUP4 PUSH1 0x3 DUP2 GT ISZERO PUSH2 0x2117 JUMPI PUSH2 0x2116 PUSH2 0x4CEF JUMP JUMPDEST JUMPDEST MUL OR SWAP1 SSTORE POP PUSH2 0x2124 PUSH2 0x26BB JUMP JUMPDEST PUSH0 DUP1 DUP6 DUP2 MSTORE PUSH1 0x20 ADD SWAP1 DUP2 MSTORE PUSH1 0x20 ADD PUSH0 KECCAK256 PUSH1 0x1 ADD DUP2 SWAP1 SSTORE POP PUSH3 0x2A300 DUP2 PUSH2 0x214A SWAP2 SWAP1 PUSH2 0x527B JUMP JUMPDEST PUSH1 0x2 PUSH0 DUP6 DUP2 MSTORE PUSH1 0x20 ADD SWAP1 DUP2 MSTORE PUSH1 0x20 ADD PUSH0 KECCAK256 PUSH1 0x1 ADD DUP2 SWAP1 SSTORE POP DUP3 PUSH32 0x75D0C2D3465E305D01011D67A4FAAA50F6C6B307E33D72194A4BA97ACCE86975 PUSH1 0x40 MLOAD PUSH2 0x2190 SWAP1 PUSH2 0x5A67 JUMP JUMPDEST PUSH1 0x40 MLOAD DUP1 SWAP2 SUB SWAP1 LOG2 PUSH2 0x2383 JUMP JUMPDEST PUSH1 0x1 PUSH1 0x3 DUP2 GT ISZERO PUSH2 0x21B1 JUMPI PUSH2 0x21B0 PUSH2 0x4CEF JUMP JUMPDEST JUMPDEST DUP3 PUSH1 0x3 DUP2 GT ISZERO PUSH2 0x21C4 JUMPI PUSH2 0x21C3 PUSH2 0x4CEF JUMP JUMPDEST JUMPDEST EQ DUP1 ISZERO PUSH2 0x21E5 JUMPI POP PUSH1 0x2 PUSH0 DUP5 DUP2 MSTORE PUSH1 0x20 ADD SWAP1 DUP2 MSTORE PUSH1 0x20 ADD PUSH0 KECCAK256 PUSH1 0x1 ADD SLOAD DUP2 LT ISZERO JUMPDEST ISZERO PUSH2 0x2285 JUMPI PUSH1 0x2 PUSH1 0x1 PUSH0 DUP6 DUP2 MSTORE PUSH1 0x20 ADD SWAP1 DUP2 MSTORE PUSH1 0x20 ADD PUSH0 KECCAK256 PUSH0 PUSH2 0x100 EXP DUP2 SLOAD DUP2 PUSH1 0xFF MUL NOT AND SWAP1 DUP4 PUSH1 0x3 DUP2 GT ISZERO PUSH2 0x221E JUMPI PUSH2 0x221D PUSH2 0x4CEF JUMP JUMPDEST JUMPDEST MUL OR SWAP1 SSTORE POP PUSH3 0x3F480 DUP2 PUSH2 0x2232 SWAP2 SWAP1 PUSH2 0x527B JUMP JUMPDEST PUSH1 0x2 PUSH0 DUP6 DUP2 MSTORE PUSH1 0x20 ADD SWAP1 DUP2 MSTORE PUSH1 0x20 ADD PUSH0 KECCAK256 PUSH1 0x2 ADD DUP2 SWAP1 SSTORE POP DUP3 PUSH32 0x75D0C2D3465E305D01011D67A4FAAA50F6C6B307E33D72194A4BA97ACCE86975 PUSH1 0x40 MLOAD PUSH2 0x2278 SWAP1 PUSH2 0x5ACF JUMP JUMPDEST PUSH1 0x40 MLOAD DUP1 SWAP2 SUB SWAP1 LOG2 PUSH2 0x2382 JUMP JUMPDEST PUSH1 0x2 PUSH1 0x3 DUP2 GT ISZERO PUSH2 0x2299 JUMPI PUSH2 0x2298 PUSH2 0x4CEF JUMP JUMPDEST JUMPDEST DUP3 PUSH1 0x3 DUP2 GT ISZERO PUSH2 0x22AC JUMPI PUSH2 0x22AB PUSH2 0x4CEF JUMP JUMPDEST JUMPDEST EQ DUP1 ISZERO PUSH2 0x22CD JUMPI POP PUSH1 0x2 PUSH0 DUP5 DUP2 MSTORE PUSH1 0x20 ADD SWAP1 DUP2 MSTORE PUSH1 0x20 ADD PUSH0 KECCAK256 PUSH1 0x2 ADD SLOAD DUP2 LT ISZERO JUMPDEST ISZERO PUSH2 0x2346 JUMPI PUSH1 0x3 PUSH1 0x1 PUSH0 DUP6 DUP2 MSTORE PUSH1 0x20 ADD SWAP1 DUP2 MSTORE PUSH1 0x20 ADD PUSH0 KECCAK256 PUSH0 PUSH2 0x100 EXP DUP2 SLOAD DUP2 PUSH1 0xFF MUL NOT AND SWAP1 DUP4 PUSH1 0x3 DUP2 GT ISZERO PUSH2 0x2306 JUMPI PUSH2 0x2305 PUSH2 0x4CEF JUMP JUMPDEST JUMPDEST MUL OR SWAP1 SSTORE POP DUP3 PUSH32 0x75D0C2D3465E305D01011D67A4FAAA50F6C6B307E33D72194A4BA97ACCE86975 PUSH1 0x40 MLOAD PUSH2 0x2339 SWAP1 PUSH2 0x5B37 JUMP JUMPDEST PUSH1 0x40 MLOAD DUP1 SWAP2 SUB SWAP1 LOG2 PUSH2 0x2381 JUMP JUMPDEST PUSH1 0x40 MLOAD PUSH32 0x8C379A000000000000000000000000000000000000000000000000000000000 DUP2 MSTORE PUSH1 0x4 ADD PUSH2 0x2378 SWAP1 PUSH2 0x52F8 JUMP JUMPDEST PUSH1 0x40 MLOAD DUP1 SWAP2 SUB SWAP1 REVERT JUMPDEST JUMPDEST JUMPDEST POP POP POP JUMP JUMPDEST PUSH1 0x7 DUP1 SLOAD PUSH2 0x2395 SWAP1 PUSH2 0x4FAA JUMP JUMPDEST DUP1 PUSH1 0x1F ADD PUSH1 0x20 DUP1 SWAP2 DIV MUL PUSH1 0x20 ADD PUSH1 0x40 MLOAD SWAP1 DUP2 ADD PUSH1 0x40 MSTORE DUP1 SWAP3 SWAP2 SWAP1 DUP2 DUP2 MSTORE PUSH1 0x20 ADD DUP3 DUP1 SLOAD PUSH2 0x23C1 SWAP1 PUSH2 0x4FAA JUMP JUMPDEST DUP1 ISZERO PUSH2 0x240C JUMPI DUP1 PUSH1 0x1F LT PUSH2 0x23E3 JUMPI PUSH2 0x100 DUP1 DUP4 SLOAD DIV MUL DUP4 MSTORE SWAP2 PUSH1 0x20 ADD SWAP2 PUSH2 0x240C JUMP JUMPDEST DUP3 ADD SWAP2 SWAP1 PUSH0 MSTORE PUSH1 0x20 PUSH0 KECCAK256 SWAP1 JUMPDEST DUP2 SLOAD DUP2 MSTORE SWAP1 PUSH1 0x1 ADD SWAP1 PUSH1 0x20 ADD DUP1 DUP4 GT PUSH2 0x23EF JUMPI DUP3 SWAP1 SUB PUSH1 0x1F AND DUP3 ADD SWAP2 JUMPDEST POP POP POP POP POP DUP2 JUMP JUMPDEST PUSH2 0x241C PUSH2 0x2634 JUMP JUMPDEST PUSH0 PUSH20 0xFFFFFFFFFFFFFFFFFFFFFFFFFFFFFFFFFFFFFFFF AND DUP2 PUSH20 0xFFFFFFFFFFFFFFFFFFFFFFFFFFFFFFFFFFFFFFFF AND SUB PUSH2 0x248C JUMPI PUSH0 PUSH1 0x40 MLOAD PUSH32 0x1E4FBDF700000000000000000000000000000000000000000000000000000000 DUP2 MSTORE PUSH1 0x4 ADD PUSH2 0x2483 SWAP2 SWAP1 PUSH2 0x45D3 JUMP JUMPDEST PUSH1 0x40 MLOAD DUP1 SWAP2 SUB SWAP1 REVERT JUMPDEST PUSH2 0x2495 DUP2 PUSH2 0x2FAE JUMP JUMPDEST POP JUMP JUMPDEST PUSH0 DUP2 DUP5 PUSH2 0x24A5 SWAP2 SWAP1 PUSH2 0x527B JUMP JUMPDEST DUP4 GT PUSH2 0x24B1 JUMPI DUP4 PUSH2 0x24BE JUMP JUMPDEST DUP2 DUP4 PUSH2 0x24BD SWAP2 SWAP1 PUSH2 0x55C4 JUMP JUMPDEST JUMPDEST SWAP1 POP SWAP4 SWAP3 POP POP POP JUMP JUMPDEST PUSH0 PUSH4 0x49064906 PUSH1 0xE0 SHL PUSH28 0xFFFFFFFFFFFFFFFFFFFFFFFFFFFFFFFFFFFFFFFFFFFFFFFFFFFFFFFF NOT AND DUP3 PUSH28 0xFFFFFFFFFFFFFFFFFFFFFFFFFFFFFFFFFFFFFFFFFFFFFFFFFFFFFFFF NOT AND EQ DUP1 PUSH2 0x2520 JUMPI POP PUSH2 0x251F DUP3 PUSH2 0x362C JUMP JUMPDEST JUMPDEST SWAP1 POP SWAP2 SWAP1 POP JUMP JUMPDEST PUSH0 PUSH32 0x80BB2B638CC20BC4D0A60D66940F3AB4A00C1D7B313497CA82FB0B4AB0079300 SWAP1 POP SWAP1 JUMP JUMPDEST PUSH0 DUP1 PUSH2 0x2559 DUP4 PUSH2 0x370D JUMP JUMPDEST SWAP1 POP PUSH0 PUSH20 0xFFFFFFFFFFFFFFFFFFFFFFFFFFFFFFFFFFFFFFFF AND DUP2 PUSH20 0xFFFFFFFFFFFFFFFFFFFFFFFFFFFFFFFFFFFFFFFF AND SUB PUSH2 0x25CB JUMPI DUP3 PUSH1 0x40 MLOAD PUSH32 0x7E27328900000000000000000000000000000000000000000000000000000000 DUP2 MSTORE PUSH1 0x4 ADD PUSH2 0x25C2 SWAP2 SWAP1 PUSH2 0x4B50 JUMP JUMPDEST PUSH1 0x40 MLOAD DUP1 SWAP2 SUB SWAP1 REVERT JUMPDEST DUP1 SWAP2 POP POP SWAP2 SWAP1 POP JUMP JUMPDEST PUSH0 DUP1 PUSH2 0x25DE PUSH2 0x2527 JUMP JUMPDEST SWAP1 POP DUP1 PUSH1 0x4 ADD PUSH0 DUP5 DUP2 MSTORE PUSH1 0x20 ADD SWAP1 DUP2 MSTORE PUSH1 0x20 ADD PUSH0 KECCAK256 PUSH0 SWAP1 SLOAD SWAP1 PUSH2 0x100 EXP SWAP1 DIV PUSH20 0xFFFFFFFFFFFFFFFFFFFFFFFFFFFFFFFFFFFFFFFF AND SWAP2 POP POP SWAP2 SWAP1 POP JUMP JUMPDEST PUSH0 CALLER SWAP1 POP SWAP1 JUMP JUMPDEST PUSH2 0x262F DUP4 DUP4 DUP4 PUSH1 0x1 PUSH2 0x3754 JUMP JUMPDEST POP POP POP JUMP JUMPDEST PUSH2 0x263C PUSH2 0x261B JUMP JUMPDEST PUSH20 0xFFFFFFFFFFFFFFFFFFFFFFFFFFFFFFFFFFFFFFFF AND PUSH2 0x265A PUSH2 0x1377 JUMP JUMPDEST PUSH20 0xFFFFFFFFFFFFFFFFFFFFFFFFFFFFFFFFFFFFFFFF AND EQ PUSH2 0x26B9 JUMPI PUSH2 0x267D PUSH2 0x261B JUMP JUMPDEST PUSH1 0x40 MLOAD PUSH32 0x118CDAA700000000000000000000000000000000000000000000000000000000 DUP2 MSTORE PUSH1 0x4 ADD PUSH2 0x26B0 SWAP2 SWAP1 PUSH2 0x45D3 JUMP JUMPDEST PUSH1 0x40 MLOAD DUP1 SWAP2 SUB SWAP1 REVERT JUMPDEST JUMP JUMPDEST PUSH0 PUSH1 0x5 PUSH0 DUP2 SLOAD DUP1 SWAP3 SWAP2 SWAP1 PUSH2 0x26CE SWAP1 PUSH2 0x53B0 JUMP JUMPDEST SWAP2 SWAP1 POP SSTORE POP PUSH1 0x1 PUSH1 0x2 TIMESTAMP CALLER PUSH1 0x5 SLOAD PUSH1 0x40 MLOAD PUSH1 0x20 ADD PUSH2 0x26EE SWAP4 SWAP3 SWAP2 SWAP1 PUSH2 0x5BBA JUMP JUMPDEST PUSH1 0x40 MLOAD PUSH1 0x20 DUP2 DUP4 SUB SUB DUP2 MSTORE SWAP1 PUSH1 0x40 MSTORE DUP1 MLOAD SWAP1 PUSH1 0x20 ADD KECCAK256 PUSH0 SHR PUSH2 0x2710 SWAP2 SWAP1 PUSH2 0x5C23 JUMP JUMPDEST PUSH2 0x271A SWAP2 SWAP1 PUSH2 0x527B JUMP JUMPDEST SWAP1 POP SWAP1 JUMP JUMPDEST PUSH0 PUSH32 0xF0C57E16840DF040F15088DC2F81FE391C3923BEC73E23A9662EFC9C229C6A00 SWAP1 POP SWAP1 JUMP JUMPDEST PUSH0 PUSH2 0x274F PUSH2 0x271F JUMP JUMPDEST SWAP1 POP PUSH0 DUP2 PUSH0 ADD PUSH1 0x8 SWAP1 SLOAD SWAP1 PUSH2 0x100 EXP SWAP1 DIV PUSH1 0xFF AND ISZERO SWAP1 POP PUSH0 DUP3 PUSH0 ADD PUSH0 SWAP1 SLOAD SWAP1 PUSH2 0x100 EXP SWAP1 DIV PUSH8 0xFFFFFFFFFFFFFFFF AND SWAP1 POP PUSH0 DUP1 DUP3 PUSH8 0xFFFFFFFFFFFFFFFF AND EQ DUP1 ISZERO PUSH2 0x2797 JUMPI POP DUP3 JUMPDEST SWAP1 POP PUSH0 PUSH1 0x1 DUP4 PUSH8 0xFFFFFFFFFFFFFFFF AND EQ DUP1 ISZERO PUSH2 0x27CA JUMPI POP PUSH0 ADDRESS PUSH20 0xFFFFFFFFFFFFFFFFFFFFFFFFFFFFFFFFFFFFFFFF AND EXTCODESIZE EQ JUMPDEST SWAP1 POP DUP2 ISZERO DUP1 ISZERO PUSH2 0x27D8 JUMPI POP DUP1 ISZERO JUMPDEST ISZERO PUSH2 0x280F JUMPI PUSH1 0x40 MLOAD PUSH32 0xF92EE8A900000000000000000000000000000000000000000000000000000000 DUP2 MSTORE PUSH1 0x4 ADD PUSH1 0x40 MLOAD DUP1 SWAP2 SUB SWAP1 REVERT JUMPDEST PUSH1 0x1 DUP6 PUSH0 ADD PUSH0 PUSH2 0x100 EXP DUP2 SLOAD DUP2 PUSH8 0xFFFFFFFFFFFFFFFF MUL NOT AND SWAP1 DUP4 PUSH8 0xFFFFFFFFFFFFFFFF AND MUL OR SWAP1 SSTORE POP DUP4 ISZERO PUSH2 0x285C JUMPI PUSH1 0x1 DUP6 PUSH0 ADD PUSH1 0x8 PUSH2 0x100 EXP DUP2 SLOAD DUP2 PUSH1 0xFF MUL NOT AND SWAP1 DUP4 ISZERO ISZERO MUL OR SWAP1 SSTORE POP JUMPDEST PUSH2 0x2868 DUP10 DUP10 DUP10 DUP10 PUSH2 0x3921 JUMP JUMPDEST DUP4 ISZERO PUSH2 0x28C2 JUMPI PUSH0 DUP6 PUSH0 ADD PUSH1 0x8 PUSH2 0x100 EXP DUP2 SLOAD DUP2 PUSH1 0xFF MUL NOT AND SWAP1 DUP4 ISZERO ISZERO MUL OR SWAP1 SSTORE POP PUSH32 0xC7F505B2F371AE2175EE4913F4499E1F2633A7B5936321EED1CDAEB6115181D2 PUSH1 0x1 PUSH1 0x40 MLOAD PUSH2 0x28B9 SWAP2 SWAP1 PUSH2 0x5362 JUMP JUMPDEST PUSH1 0x40 MLOAD DUP1 SWAP2 SUB SWAP1 LOG1 JUMPDEST POP POP POP POP POP POP POP POP POP JUMP JUMPDEST PUSH2 0x28D5 PUSH2 0x3B05 JUMP JUMPDEST JUMP JUMPDEST PUSH0 DUP1 PUSH2 0x28E1 PUSH2 0x2527 JUMP JUMPDEST SWAP1 POP PUSH0 PUSH2 0x28ED DUP6 PUSH2 0x370D JUMP JUMPDEST SWAP1 POP PUSH0 PUSH20 0xFFFFFFFFFFFFFFFFFFFFFFFFFFFFFFFFFFFFFFFF AND DUP5 PUSH20 0xFFFFFFFFFFFFFFFFFFFFFFFFFFFFFFFFFFFFFFFF AND EQ PUSH2 0x292E JUMPI PUSH2 0x292D DUP2 DUP6 DUP8 PUSH2 0x3B45 JUMP JUMPDEST JUMPDEST PUSH0 PUSH20 0xFFFFFFFFFFFFFFFFFFFFFFFFFFFFFFFFFFFFFFFF AND DUP2 PUSH20 0xFFFFFFFFFFFFFFFFFFFFFFFFFFFFFFFFFFFFFFFF AND EQ PUSH2 0x29BB JUMPI PUSH2 0x296D PUSH0 DUP7 PUSH0 DUP1 PUSH2 0x3754 JUMP JUMPDEST PUSH1 0x1 DUP3 PUSH1 0x3 ADD PUSH0 DUP4 PUSH20 0xFFFFFFFFFFFFFFFFFFFFFFFFFFFFFFFFFFFFFFFF AND PUSH20 0xFFFFFFFFFFFFFFFFFFFFFFFFFFFFFFFFFFFFFFFF AND DUP2 MSTORE PUSH1 0x20 ADD SWAP1 DUP2 MSTORE PUSH1 0x20 ADD PUSH0 KECCAK256 PUSH0 DUP3 DUP3 SLOAD SUB SWAP3 POP POP DUP2 SWAP1 SSTORE POP JUMPDEST PUSH0 PUSH20 0xFFFFFFFFFFFFFFFFFFFFFFFFFFFFFFFFFFFFFFFF AND DUP7 PUSH20 0xFFFFFFFFFFFFFFFFFFFFFFFFFFFFFFFFFFFFFFFF AND EQ PUSH2 0x2A3C JUMPI PUSH1 0x1 DUP3 PUSH1 0x3 ADD PUSH0 DUP9 PUSH20 0xFFFFFFFFFFFFFFFFFFFFFFFFFFFFFFFFFFFFFFFF AND PUSH20 0xFFFFFFFFFFFFFFFFFFFFFFFFFFFFFFFFFFFFFFFF AND DUP2 MSTORE PUSH1 0x20 ADD SWAP1 DUP2 MSTORE PUSH1 0x20 ADD PUSH0 KECCAK256 PUSH0 DUP3 DUP3 SLOAD ADD SWAP3 POP POP DUP2 SWAP1 SSTORE POP JUMPDEST DUP6 DUP3 PUSH1 0x2 ADD PUSH0 DUP8 DUP2 MSTORE PUSH1 0x20 ADD SWAP1 DUP2 MSTORE PUSH1 0x20 ADD PUSH0 KECCAK256 PUSH0 PUSH2 0x100 EXP DUP2 SLOAD DUP2 PUSH20 0xFFFFFFFFFFFFFFFFFFFFFFFFFFFFFFFFFFFFFFFF MUL NOT AND SWAP1 DUP4 PUSH20 0xFFFFFFFFFFFFFFFFFFFFFFFFFFFFFFFFFFFFFFFF AND MUL OR SWAP1 SSTORE POP DUP5 DUP7 PUSH20 0xFFFFFFFFFFFFFFFFFFFFFFFFFFFFFFFFFFFFFFFF AND DUP3 PUSH20 0xFFFFFFFFFFFFFFFFFFFFFFFFFFFFFFFFFFFFFFFF AND PUSH32 0xDDF252AD1BE2C89B69C2B068FC378DAA952BA7F163C4A11628F55A4DF523B3EF PUSH1 0x40 MLOAD PUSH1 0x40 MLOAD DUP1 SWAP2 SUB SWAP1 LOG4 DUP1 SWAP3 POP POP POP SWAP4 SWAP3 POP POP POP JUMP JUMPDEST PUSH0 DUP1 PUSH1 0x4 PUSH0 DUP2 SLOAD PUSH2 0x2B04 SWAP1 PUSH2 0x53B0 JUMP JUMPDEST SWAP2 SWAP1 POP DUP2 SWAP1 SSTORE SWAP1 POP PUSH1 0x40 MLOAD DUP1 PUSH1 0xE0 ADD PUSH1 0x40 MSTORE DUP1 DUP11 DUP11 DUP1 DUP1 PUSH1 0x1F ADD PUSH1 0x20 DUP1 SWAP2 DIV MUL PUSH1 0x20 ADD PUSH1 0x40 MLOAD SWAP1 DUP2 ADD PUSH1 0x40 MSTORE DUP1 SWAP4 SWAP3 SWAP2 SWAP1 DUP2 DUP2 MSTORE PUSH1 0x20 ADD DUP4 DUP4 DUP1 DUP3 DUP5 CALLDATACOPY PUSH0 DUP2 DUP5 ADD MSTORE PUSH1 0x1F NOT PUSH1 0x1F DUP3 ADD AND SWAP1 POP DUP1 DUP4 ADD SWAP3 POP POP POP POP POP POP POP DUP2 MSTORE PUSH1 0x20 ADD PUSH0 DUP2 MSTORE PUSH1 0x20 ADD DUP9 DUP2 MSTORE PUSH1 0x20 ADD DUP8 DUP2 MSTORE PUSH1 0x20 ADD DUP7 DUP2 MSTORE PUSH1 0x20 ADD DUP5 ISZERO ISZERO DUP2 MSTORE PUSH1 0x20 ADD TIMESTAMP DUP2 MSTORE POP PUSH0 DUP1 DUP4 DUP2 MSTORE PUSH1 0x20 ADD SWAP1 DUP2 MSTORE PUSH1 0x20 ADD PUSH0 KECCAK256 PUSH0 DUP3 ADD MLOAD DUP2 PUSH0 ADD SWAP1 DUP2 PUSH2 0x2BA7 SWAP2 SWAP1 PUSH2 0x5C53 JUMP JUMPDEST POP PUSH1 0x20 DUP3 ADD MLOAD DUP2 PUSH1 0x1 ADD SSTORE PUSH1 0x40 DUP3 ADD MLOAD DUP2 PUSH1 0x2 ADD SSTORE PUSH1 0x60 DUP3 ADD MLOAD DUP2 PUSH1 0x3 ADD SSTORE PUSH1 0x80 DUP3 ADD MLOAD DUP2 PUSH1 0x4 ADD SSTORE PUSH1 0xA0 DUP3 ADD MLOAD DUP2 PUSH1 0x5 ADD PUSH0 PUSH2 0x100 EXP DUP2 SLOAD DUP2 PUSH1 0xFF MUL NOT AND SWAP1 DUP4 ISZERO ISZERO MUL OR SWAP1 SSTORE POP PUSH1 0xC0 DUP3 ADD MLOAD DUP2 PUSH1 0x6 ADD SSTORE SWAP1 POP POP PUSH3 0x2A300 TIMESTAMP PUSH2 0x2C0B SWAP2 SWAP1 PUSH2 0x527B JUMP JUMPDEST PUSH1 0x2 PUSH0 DUP4 DUP2 MSTORE PUSH1 0x20 ADD SWAP1 DUP2 MSTORE PUSH1 0x20 ADD PUSH0 KECCAK256 PUSH0 ADD DUP2 SWAP1 SSTORE POP PUSH0 PUSH1 0x1 PUSH0 DUP4 DUP2 MSTORE PUSH1 0x20 ADD SWAP1 DUP2 MSTORE PUSH1 0x20 ADD PUSH0 KECCAK256 PUSH0 PUSH2 0x100 EXP DUP2 SLOAD DUP2 PUSH1 0xFF MUL NOT AND SWAP1 DUP4 PUSH1 0x3 DUP2 GT ISZERO PUSH2 0x2C55 JUMPI PUSH2 0x2C54 PUSH2 0x4CEF JUMP JUMPDEST JUMPDEST MUL OR SWAP1 SSTORE POP PUSH2 0x2C64 DUP5 DUP3 PUSH2 0x3C08 JUMP JUMPDEST PUSH1 0x3 PUSH0 DUP6 PUSH20 0xFFFFFFFFFFFFFFFFFFFFFFFFFFFFFFFFFFFFFFFF AND PUSH20 0xFFFFFFFFFFFFFFFFFFFFFFFFFFFFFFFFFFFFFFFF AND DUP2 MSTORE PUSH1 0x20 ADD SWAP1 DUP2 MSTORE PUSH1 0x20 ADD PUSH0 KECCAK256 DUP2 SWAP1 DUP1 PUSH1 0x1 DUP2 SLOAD ADD DUP1 DUP3 SSTORE DUP1 SWAP2 POP POP PUSH1 0x1 SWAP1 SUB SWAP1 PUSH0 MSTORE PUSH1 0x20 PUSH0 KECCAK256 ADD PUSH0 SWAP1 SWAP2 SWAP1 SWAP2 SWAP1 SWAP2 POP SSTORE DUP1 DUP5 PUSH20 0xFFFFFFFFFFFFFFFFFFFFFFFFFFFFFFFFFFFFFFFF AND PUSH32 0xB9144C96C86541F6FA89C9F2F02495CCCF4B08CD6643E26D34EE00AA586558A8 PUSH1 0x40 MLOAD PUSH1 0x40 MLOAD DUP1 SWAP2 SUB SWAP1 LOG3 DUP1 SWAP2 POP POP SWAP8 SWAP7 POP POP POP POP POP POP POP JUMP JUMPDEST PUSH32 0x0 PUSH20 0xFFFFFFFFFFFFFFFFFFFFFFFFFFFFFFFFFFFFFFFF AND ADDRESS PUSH20 0xFFFFFFFFFFFFFFFFFFFFFFFFFFFFFFFFFFFFFFFF AND EQ DUP1 PUSH2 0x2DC5 JUMPI POP PUSH32 0x0 PUSH20 0xFFFFFFFFFFFFFFFFFFFFFFFFFFFFFFFFFFFFFFFF AND PUSH2 0x2DAC PUSH2 0x3C25 JUMP JUMPDEST PUSH20 0xFFFFFFFFFFFFFFFFFFFFFFFFFFFFFFFFFFFFFFFF AND EQ ISZERO JUMPDEST ISZERO PUSH2 0x2DFC JUMPI PUSH1 0x40 MLOAD PUSH32 0xE07C8DBA00000000000000000000000000000000000000000000000000000000 DUP2 MSTORE PUSH1 0x4 ADD PUSH1 0x40 MLOAD DUP1 SWAP2 SUB SWAP1 REVERT JUMPDEST JUMP JUMPDEST PUSH2 0x2E06 PUSH2 0x2634 JUMP JUMPDEST POP JUMP JUMPDEST DUP2 PUSH20 0xFFFFFFFFFFFFFFFFFFFFFFFFFFFFFFFFFFFFFFFF AND PUSH4 0x52D1902D PUSH1 0x40 MLOAD DUP2 PUSH4 0xFFFFFFFF AND PUSH1 0xE0 SHL DUP2 MSTORE PUSH1 0x4 ADD PUSH1 0x20 PUSH1 0x40 MLOAD DUP1 DUP4 SUB DUP2 DUP7 GAS STATICCALL SWAP3 POP POP POP DUP1 ISZERO PUSH2 0x2E71 JUMPI POP PUSH1 0x40 MLOAD RETURNDATASIZE PUSH1 0x1F NOT PUSH1 0x1F DUP3 ADD AND DUP3 ADD DUP1 PUSH1 0x40 MSTORE POP DUP2 ADD SWAP1 PUSH2 0x2E6E SWAP2 SWAP1 PUSH2 0x5D4C JUMP JUMPDEST PUSH1 0x1 JUMPDEST PUSH2 0x2EB2 JUMPI DUP2 PUSH1 0x40 MLOAD PUSH32 0x4C9C8CE300000000000000000000000000000000000000000000000000000000 DUP2 MSTORE PUSH1 0x4 ADD PUSH2 0x2EA9 SWAP2 SWAP1 PUSH2 0x45D3 JUMP JUMPDEST PUSH1 0x40 MLOAD DUP1 SWAP2 SUB SWAP1 REVERT JUMPDEST PUSH32 0x360894A13BA1A3210667C828492DB98DCA3E2076CC3735A920A3CA505D382BBC PUSH0 SHL DUP2 EQ PUSH2 0x2F18 JUMPI DUP1 PUSH1 0x40 MLOAD PUSH32 0xAA1D49A400000000000000000000000000000000000000000000000000000000 DUP2 MSTORE PUSH1 0x4 ADD PUSH2 0x2F0F SWAP2 SWAP1 PUSH2 0x4AD6 JUMP JUMPDEST PUSH1 0x40 MLOAD DUP1 SWAP2 SUB SWAP1 REVERT JUMPDEST PUSH2 0x2F22 DUP4 DUP4 PUSH2 0x3C78 JUMP JUMPDEST POP POP POP JUMP JUMPDEST PUSH32 0x0 PUSH20 0xFFFFFFFFFFFFFFFFFFFFFFFFFFFFFFFFFFFFFFFF AND ADDRESS PUSH20 0xFFFFFFFFFFFFFFFFFFFFFFFFFFFFFFFFFFFFFFFF AND EQ PUSH2 0x2FAC JUMPI PUSH1 0x40 MLOAD PUSH32 0xE07C8DBA00000000000000000000000000000000000000000000000000000000 DUP2 MSTORE PUSH1 0x4 ADD PUSH1 0x40 MLOAD DUP1 SWAP2 SUB SWAP1 REVERT JUMPDEST JUMP JUMPDEST PUSH0 PUSH2 0x2FB7 PUSH2 0x307F JUMP JUMPDEST SWAP1 POP PUSH0 DUP2 PUSH0 ADD PUSH0 SWAP1 SLOAD SWAP1 PUSH2 0x100 EXP SWAP1 DIV PUSH20 0xFFFFFFFFFFFFFFFFFFFFFFFFFFFFFFFFFFFFFFFF AND SWAP1 POP DUP3 DUP3 PUSH0 ADD PUSH0 PUSH2 0x100 EXP DUP2 SLOAD DUP2 PUSH20 0xFFFFFFFFFFFFFFFFFFFFFFFFFFFFFFFFFFFFFFFF MUL NOT AND SWAP1 DUP4 PUSH20 0xFFFFFFFFFFFFFFFFFFFFFFFFFFFFFFFFFFFFFFFF AND MUL OR SWAP1 SSTORE POP DUP3 PUSH20 0xFFFFFFFFFFFFFFFFFFFFFFFFFFFFFFFFFFFFFFFF AND DUP2 PUSH20 0xFFFFFFFFFFFFFFFFFFFFFFFFFFFFFFFFFFFFFFFF AND PUSH32 0x8BE0079C531659141344CD1FD0A4F28419497F9722A3DAAFE3B4186F6B6457E0 PUSH1 0x40 MLOAD PUSH1 0x40 MLOAD DUP1 SWAP2 SUB SWAP1 LOG3 POP POP POP JUMP JUMPDEST PUSH0 PUSH32 0x9016D09D72D40FDAE2FD8CEAC6B6234C7706214FD39C1CD1E609A0528C199300 SWAP1 POP SWAP1 JUMP JUMPDEST PUSH0 DUP1 PUSH0 DUP1 DUP6 DUP2 MSTORE PUSH1 0x20 ADD SWAP1 DUP2 MSTORE PUSH1 0x20 ADD PUSH0 KECCAK256 SWAP1 POP PUSH0 DUP1 PUSH0 DUP6 DUP2 MSTORE PUSH1 0x20 ADD SWAP1 DUP2 MSTORE PUSH1 0x20 ADD PUSH0 KECCAK256 SWAP1 POP PUSH1 0x1 DUP3 PUSH1 0x4 ADD SLOAD EQ DUP1 PUSH2 0x30E4 JUMPI POP PUSH1 0x1 DUP2 PUSH1 0x4 ADD SLOAD EQ JUMPDEST PUSH2 0x310A JUMPI DUP1 PUSH1 0x2 ADD SLOAD DUP3 PUSH1 0x2 ADD SLOAD EQ DUP1 PUSH2 0x3105 JUMPI POP DUP1 PUSH1 0x3 ADD SLOAD DUP3 PUSH1 0x3 ADD SLOAD EQ JUMPDEST PUSH2 0x310C JUMP JUMPDEST PUSH0 JUMPDEST SWAP3 POP POP POP SWAP3 SWAP2 POP POP JUMP JUMPDEST PUSH0 TIMESTAMP PUSH1 0xB PUSH0 DUP5 DUP2 MSTORE PUSH1 0x20 ADD SWAP1 DUP2 MSTORE PUSH1 0x20 ADD PUSH0 KECCAK256 PUSH0 ADD SLOAD LT SWAP1 POP SWAP2 SWAP1 POP JUMP JUMPDEST PUSH0 DUP1 PUSH0 DUP1 DUP6 DUP2 MSTORE PUSH1 0x20 ADD SWAP1 DUP2 MSTORE PUSH1 0x20 ADD PUSH0 KECCAK256 SWAP1 POP PUSH0 DUP1 PUSH0 DUP6 DUP2 MSTORE PUSH1 0x20 ADD SWAP1 DUP2 MSTORE PUSH1 0x20 ADD PUSH0 KECCAK256 SWAP1 POP DUP1 PUSH1 0x1 ADD SLOAD DUP3 PUSH1 0x1 ADD SLOAD EQ ISZERO SWAP3 POP POP POP SWAP3 SWAP2 POP POP JUMP JUMPDEST PUSH1 0xB PUSH0 DUP3 DUP2 MSTORE PUSH1 0x20 ADD SWAP1 DUP2 MSTORE PUSH1 0x20 ADD PUSH0 KECCAK256 PUSH1 0x1 ADD PUSH0 DUP2 SLOAD DUP1 SWAP3 SWAP2 SWAP1 PUSH2 0x3195 SWAP1 PUSH2 0x53B0 JUMP JUMPDEST SWAP2 SWAP1 POP SSTORE POP PUSH3 0x3F480 TIMESTAMP PUSH2 0x31A9 SWAP2 SWAP1 PUSH2 0x527B JUMP JUMPDEST PUSH1 0xB PUSH0 DUP4 DUP2 MSTORE PUSH1 0x20 ADD SWAP1 DUP2 MSTORE PUSH1 0x20 ADD PUSH0 KECCAK256 PUSH0 ADD DUP2 SWAP1 SSTORE POP POP JUMP JUMPDEST PUSH0 DUP1 PUSH0 DUP1 DUP6 DUP2 MSTORE PUSH1 0x20 ADD SWAP1 DUP2 MSTORE PUSH1 0x20 ADD PUSH0 KECCAK256 SWAP1 POP PUSH0 DUP1 PUSH0 DUP6 DUP2 MSTORE PUSH1 0x20 ADD SWAP1 DUP2 MSTORE PUSH1 0x20 ADD PUSH0 KECCAK256 SWAP1 POP PUSH0 DUP2 PUSH1 0x4 ADD SLOAD DUP4 PUSH1 0x4 ADD SLOAD GT PUSH2 0x3204 JUMPI DUP2 PUSH1 0x4 ADD SLOAD PUSH2 0x320A JUMP JUMPDEST DUP3 PUSH1 0x4 ADD SLOAD JUMPDEST SWAP1 POP PUSH0 PUSH2 0x3228 DUP10 DUP10 DUP10 DUP10 PUSH1 0x1 DUP8 PUSH2 0x3221 SWAP2 SWAP1 PUSH2 0x527B JUMP JUMPDEST CALLER PUSH0 PUSH2 0x2AF4 JUMP JUMPDEST SWAP1 POP DUP1 SWAP5 POP POP POP POP POP SWAP5 SWAP4 POP POP POP POP JUMP JUMPDEST PUSH0 PUSH2 0x3242 PUSH2 0x2527 JUMP JUMPDEST SWAP1 POP PUSH0 PUSH20 0xFFFFFFFFFFFFFFFFFFFFFFFFFFFFFFFFFFFFFFFF AND DUP4 PUSH20 0xFFFFFFFFFFFFFFFFFFFFFFFFFFFFFFFFFFFFFFFF AND SUB PUSH2 0x32B4 JUMPI DUP3 PUSH1 0x40 MLOAD PUSH32 0x5B08BA1800000000000000000000000000000000000000000000000000000000 DUP2 MSTORE PUSH1 0x4 ADD PUSH2 0x32AB SWAP2 SWAP1 PUSH2 0x45D3 JUMP JUMPDEST PUSH1 0x40 MLOAD DUP1 SWAP2 SUB SWAP1 REVERT JUMPDEST DUP2 DUP2 PUSH1 0x5 ADD PUSH0 DUP7 PUSH20 0xFFFFFFFFFFFFFFFFFFFFFFFFFFFFFFFFFFFFFFFF AND PUSH20 0xFFFFFFFFFFFFFFFFFFFFFFFFFFFFFFFFFFFFFFFF AND DUP2 MSTORE PUSH1 0x20 ADD SWAP1 DUP2 MSTORE PUSH1 0x20 ADD PUSH0 KECCAK256 PUSH0 DUP6 PUSH20 0xFFFFFFFFFFFFFFFFFFFFFFFFFFFFFFFFFFFFFFFF AND PUSH20 0xFFFFFFFFFFFFFFFFFFFFFFFFFFFFFFFFFFFFFFFF AND DUP2 MSTORE PUSH1 0x20 ADD SWAP1 DUP2 MSTORE PUSH1 0x20 ADD PUSH0 KECCAK256 PUSH0 PUSH2 0x100 EXP DUP2 SLOAD DUP2 PUSH1 0xFF MUL NOT AND SWAP1 DUP4 ISZERO ISZERO MUL OR SWAP1 SSTORE POP DUP3 PUSH20 0xFFFFFFFFFFFFFFFFFFFFFFFFFFFFFFFFFFFFFFFF AND DUP5 PUSH20 0xFFFFFFFFFFFFFFFFFFFFFFFFFFFFFFFFFFFFFFFF AND PUSH32 0x17307EAB39AB6107E8899845AD3D59BD9653F200F220920489CA2B5937696C31 DUP5 PUSH1 0x40 MLOAD PUSH2 0x33A2 SWAP2 SWAP1 PUSH2 0x44EB JUMP JUMPDEST PUSH1 0x40 MLOAD DUP1 SWAP2 SUB SWAP1 LOG3 POP POP POP POP JUMP JUMPDEST PUSH0 DUP4 PUSH20 0xFFFFFFFFFFFFFFFFFFFFFFFFFFFFFFFFFFFFFFFF AND EXTCODESIZE GT ISZERO PUSH2 0x355C JUMPI DUP3 PUSH20 0xFFFFFFFFFFFFFFFFFFFFFFFFFFFFFFFFFFFFFFFF AND PUSH4 0x150B7A02 PUSH2 0x33F3 PUSH2 0x261B JUMP JUMPDEST DUP7 DUP6 DUP6 PUSH1 0x40 MLOAD DUP6 PUSH4 0xFFFFFFFF AND PUSH1 0xE0 SHL DUP2 MSTORE PUSH1 0x4 ADD PUSH2 0x3415 SWAP5 SWAP4 SWAP3 SWAP2 SWAP1 PUSH2 0x5DC9 JUMP JUMPDEST PUSH1 0x20 PUSH1 0x40 MLOAD DUP1 DUP4 SUB DUP2 PUSH0 DUP8 GAS CALL SWAP3 POP POP POP DUP1 ISZERO PUSH2 0x3450 JUMPI POP PUSH1 0x40 MLOAD RETURNDATASIZE PUSH1 0x1F NOT PUSH1 0x1F DUP3 ADD AND DUP3 ADD DUP1 PUSH1 0x40 MSTORE POP DUP2 ADD SWAP1 PUSH2 0x344D SWAP2 SWAP1 PUSH2 0x5E27 JUMP JUMPDEST PUSH1 0x1 JUMPDEST PUSH2 0x34D1 JUMPI RETURNDATASIZE DUP1 PUSH0 DUP2 EQ PUSH2 0x347E JUMPI PUSH1 0x40 MLOAD SWAP2 POP PUSH1 0x1F NOT PUSH1 0x3F RETURNDATASIZE ADD AND DUP3 ADD PUSH1 0x40 MSTORE RETURNDATASIZE DUP3 MSTORE RETURNDATASIZE PUSH0 PUSH1 0x20 DUP5 ADD RETURNDATACOPY PUSH2 0x3483 JUMP JUMPDEST PUSH1 0x60 SWAP2 POP JUMPDEST POP PUSH0 DUP2 MLOAD SUB PUSH2 0x34C9 JUMPI DUP4 PUSH1 0x40 MLOAD PUSH32 0x64A0AE9200000000000000000000000000000000000000000000000000000000 DUP2 MSTORE PUSH1 0x4 ADD PUSH2 0x34C0 SWAP2 SWAP1 PUSH2 0x45D3 JUMP JUMPDEST PUSH1 0x40 MLOAD DUP1 SWAP2 SUB SWAP1 REVERT JUMPDEST DUP1 MLOAD DUP2 PUSH1 0x20 ADD REVERT JUMPDEST PUSH4 0x150B7A02 PUSH1 0xE0 SHL PUSH28 0xFFFFFFFFFFFFFFFFFFFFFFFFFFFFFFFFFFFFFFFFFFFFFFFFFFFFFFFF NOT AND DUP2 PUSH28 0xFFFFFFFFFFFFFFFFFFFFFFFFFFFFFFFFFFFFFFFFFFFFFFFFFFFFFFFF NOT AND EQ PUSH2 0x355A JUMPI DUP4 PUSH1 0x40 MLOAD PUSH32 0x64A0AE9200000000000000000000000000000000000000000000000000000000 DUP2 MSTORE PUSH1 0x4 ADD PUSH2 0x3551 SWAP2 SWAP1 PUSH2 0x45D3 JUMP JUMPDEST PUSH1 0x40 MLOAD DUP1 SWAP2 SUB SWAP1 REVERT JUMPDEST POP JUMPDEST POP POP POP POP JUMP JUMPDEST PUSH1 0x60 PUSH0 PUSH1 0x1 PUSH2 0x3570 DUP5 PUSH2 0x3CEA JUMP JUMPDEST ADD SWAP1 POP PUSH0 DUP2 PUSH8 0xFFFFFFFFFFFFFFFF DUP2 GT ISZERO PUSH2 0x358E JUMPI PUSH2 0x358D PUSH2 0x4704 JUMP JUMPDEST JUMPDEST PUSH1 0x40 MLOAD SWAP1 DUP1 DUP3 MSTORE DUP1 PUSH1 0x1F ADD PUSH1 0x1F NOT AND PUSH1 0x20 ADD DUP3 ADD PUSH1 0x40 MSTORE DUP1 ISZERO PUSH2 0x35C0 JUMPI DUP2 PUSH1 0x20 ADD PUSH1 0x1 DUP3 MUL DUP1 CALLDATASIZE DUP4 CALLDATACOPY DUP1 DUP3 ADD SWAP2 POP POP SWAP1 POP JUMPDEST POP SWAP1 POP PUSH0 DUP3 PUSH1 0x20 ADD DUP3 ADD SWAP1 POP JUMPDEST PUSH1 0x1 ISZERO PUSH2 0x3621 JUMPI DUP1 DUP1 PUSH1 0x1 SWAP1 SUB SWAP2 POP POP PUSH32 0x3031323334353637383961626364656600000000000000000000000000000000 PUSH1 0xA DUP7 MOD BYTE DUP2 MSTORE8 PUSH1 0xA DUP6 DUP2 PUSH2 0x3616 JUMPI PUSH2 0x3615 PUSH2 0x5BF6 JUMP JUMPDEST JUMPDEST DIV SWAP5 POP PUSH0 DUP6 SUB PUSH2 0x35CD JUMPI JUMPDEST DUP2 SWAP4 POP POP POP POP SWAP2 SWAP1 POP JUMP JUMPDEST PUSH0 PUSH32 0x80AC58CD00000000000000000000000000000000000000000000000000000000 PUSH28 0xFFFFFFFFFFFFFFFFFFFFFFFFFFFFFFFFFFFFFFFFFFFFFFFFFFFFFFFF NOT AND DUP3 PUSH28 0xFFFFFFFFFFFFFFFFFFFFFFFFFFFFFFFFFFFFFFFFFFFFFFFFFFFFFFFF NOT AND EQ DUP1 PUSH2 0x36F6 JUMPI POP PUSH32 0x5B5E139F00000000000000000000000000000000000000000000000000000000 PUSH28 0xFFFFFFFFFFFFFFFFFFFFFFFFFFFFFFFFFFFFFFFFFFFFFFFFFFFFFFFF NOT AND DUP3 PUSH28 0xFFFFFFFFFFFFFFFFFFFFFFFFFFFFFFFFFFFFFFFFFFFFFFFFFFFFFFFF NOT AND EQ JUMPDEST DUP1 PUSH2 0x3706 JUMPI POP PUSH2 0x3705 DUP3 PUSH2 0x3E3B JUMP JUMPDEST JUMPDEST SWAP1 POP SWAP2 SWAP1 POP JUMP JUMPDEST PUSH0 DUP1 PUSH2 0x3717 PUSH2 0x2527 JUMP JUMPDEST SWAP1 POP DUP1 PUSH1 0x2 ADD PUSH0 DUP5 DUP2 MSTORE PUSH1 0x20 ADD SWAP1 DUP2 MSTORE PUSH1 0x20 ADD PUSH0 KECCAK256 PUSH0 SWAP1 SLOAD SWAP1 PUSH2 0x100 EXP SWAP1 DIV PUSH20 0xFFFFFFFFFFFFFFFFFFFFFFFFFFFFFFFFFFFFFFFF AND SWAP2 POP POP SWAP2 SWAP1 POP JUMP JUMPDEST PUSH0 PUSH2 0x375D PUSH2 0x2527 JUMP JUMPDEST SWAP1 POP DUP2 DUP1 PUSH2 0x3797 JUMPI POP PUSH0 PUSH20 0xFFFFFFFFFFFFFFFFFFFFFFFFFFFFFFFFFFFFFFFF AND DUP4 PUSH20 0xFFFFFFFFFFFFFFFFFFFFFFFFFFFFFFFFFFFFFFFF AND EQ ISZERO JUMPDEST ISZERO PUSH2 0x38C9 JUMPI PUSH0 PUSH2 0x37A6 DUP6 PUSH2 0x254E JUMP JUMPDEST SWAP1 POP PUSH0 PUSH20 0xFFFFFFFFFFFFFFFFFFFFFFFFFFFFFFFFFFFFFFFF AND DUP5 PUSH20 0xFFFFFFFFFFFFFFFFFFFFFFFFFFFFFFFFFFFFFFFF AND EQ ISZERO DUP1 ISZERO PUSH2 0x3810 JUMPI POP DUP4 PUSH20 0xFFFFFFFFFFFFFFFFFFFFFFFFFFFFFFFFFFFFFFFF AND DUP2 PUSH20 0xFFFFFFFFFFFFFFFFFFFFFFFFFFFFFFFFFFFFFFFF AND EQ ISZERO JUMPDEST DUP1 ISZERO PUSH2 0x3823 JUMPI POP PUSH2 0x3821 DUP2 DUP6 PUSH2 0x1ED6 JUMP JUMPDEST ISZERO JUMPDEST ISZERO PUSH2 0x3865 JUMPI DUP4 PUSH1 0x40 MLOAD PUSH32 0xA9FBF51F00000000000000000000000000000000000000000000000000000000 DUP2 MSTORE PUSH1 0x4 ADD PUSH2 0x385C SWAP2 SWAP1 PUSH2 0x45D3 JUMP JUMPDEST PUSH1 0x40 MLOAD DUP1 SWAP2 SUB SWAP1 REVERT JUMPDEST DUP3 ISZERO PUSH2 0x38C7 JUMPI DUP5 DUP7 PUSH20 0xFFFFFFFFFFFFFFFFFFFFFFFFFFFFFFFFFFFFFFFF AND DUP3 PUSH20 0xFFFFFFFFFFFFFFFFFFFFFFFFFFFFFFFFFFFFFFFF AND PUSH32 0x8C5BE1E5EBEC7D5BD14F71427D1E84F3DD0314C0F7B2291E5B200AC8C7C3B925 PUSH1 0x40 MLOAD PUSH1 0x40 MLOAD DUP1 SWAP2 SUB SWAP1 LOG4 JUMPDEST POP JUMPDEST DUP5 DUP2 PUSH1 0x4 ADD PUSH0 DUP7 DUP2 MSTORE PUSH1 0x20 ADD SWAP1 DUP2 MSTORE PUSH1 0x20 ADD PUSH0 KECCAK256 PUSH0 PUSH2 0x100 EXP DUP2 SLOAD DUP2 PUSH20 0xFFFFFFFFFFFFFFFFFFFFFFFFFFFFFFFFFFFFFFFF MUL NOT AND SWAP1 DUP4 PUSH20 0xFFFFFFFFFFFFFFFFFFFFFFFFFFFFFFFFFFFFFFFF AND MUL OR SWAP1 SSTORE POP POP POP POP POP POP JUMP JUMPDEST PUSH0 PUSH2 0x392A PUSH2 0x271F JUMP JUMPDEST SWAP1 POP PUSH0 DUP2 PUSH0 ADD PUSH1 0x8 SWAP1 SLOAD SWAP1 PUSH2 0x100 EXP SWAP1 DIV PUSH1 0xFF AND ISZERO SWAP1 POP PUSH0 DUP3 PUSH0 ADD PUSH0 SWAP1 SLOAD SWAP1 PUSH2 0x100 EXP SWAP1 DIV PUSH8 0xFFFFFFFFFFFFFFFF AND SWAP1 POP PUSH0 DUP1 DUP3 PUSH8 0xFFFFFFFFFFFFFFFF AND EQ DUP1 ISZERO PUSH2 0x3972 JUMPI POP DUP3 JUMPDEST SWAP1 POP PUSH0 PUSH1 0x1 DUP4 PUSH8 0xFFFFFFFFFFFFFFFF AND EQ DUP1 ISZERO PUSH2 0x39A5 JUMPI POP PUSH0 ADDRESS PUSH20 0xFFFFFFFFFFFFFFFFFFFFFFFFFFFFFFFFFFFFFFFF AND EXTCODESIZE EQ JUMPDEST SWAP1 POP DUP2 ISZERO DUP1 ISZERO PUSH2 0x39B3 JUMPI POP DUP1 ISZERO JUMPDEST ISZERO PUSH2 0x39EA JUMPI PUSH1 0x40 MLOAD PUSH32 0xF92EE8A900000000000000000000000000000000000000000000000000000000 DUP2 MSTORE PUSH1 0x4 ADD PUSH1 0x40 MLOAD DUP1 SWAP2 SUB SWAP1 REVERT JUMPDEST PUSH1 0x1 DUP6 PUSH0 ADD PUSH0 PUSH2 0x100 EXP DUP2 SLOAD DUP2 PUSH8 0xFFFFFFFFFFFFFFFF MUL NOT AND SWAP1 DUP4 PUSH8 0xFFFFFFFFFFFFFFFF AND MUL OR SWAP1 SSTORE POP DUP4 ISZERO PUSH2 0x3A37 JUMPI PUSH1 0x1 DUP6 PUSH0 ADD PUSH1 0x8 PUSH2 0x100 EXP DUP2 SLOAD DUP2 PUSH1 0xFF MUL NOT AND SWAP1 DUP4 ISZERO ISZERO MUL OR SWAP1 SSTORE POP JUMPDEST PUSH2 0x3A41 DUP8 DUP8 PUSH2 0x3EA4 JUMP JUMPDEST PUSH2 0x3A49 PUSH2 0x3EBA JUMP JUMPDEST PUSH2 0x3A52 DUP10 PUSH2 0x3EC4 JUMP JUMPDEST PUSH0 PUSH1 0x5 DUP2 SWAP1 SSTORE POP PUSH0 PUSH1 0x4 DUP2 SWAP1 SSTORE POP DUP8 PUSH1 0xA PUSH0 PUSH2 0x100 EXP DUP2 SLOAD DUP2 PUSH20 0xFFFFFFFFFFFFFFFFFFFFFFFFFFFFFFFFFFFFFFFF MUL NOT AND SWAP1 DUP4 PUSH20 0xFFFFFFFFFFFFFFFFFFFFFFFFFFFFFFFFFFFFFFFF AND MUL OR SWAP1 SSTORE POP DUP4 ISZERO PUSH2 0x3AFA JUMPI PUSH0 DUP6 PUSH0 ADD PUSH1 0x8 PUSH2 0x100 EXP DUP2 SLOAD DUP2 PUSH1 0xFF MUL NOT AND SWAP1 DUP4 ISZERO ISZERO MUL OR SWAP1 SSTORE POP PUSH32 0xC7F505B2F371AE2175EE4913F4499E1F2633A7B5936321EED1CDAEB6115181D2 PUSH1 0x1 PUSH1 0x40 MLOAD PUSH2 0x3AF1 SWAP2 SWAP1 PUSH2 0x5362 JUMP JUMPDEST PUSH1 0x40 MLOAD DUP1 SWAP2 SUB SWAP1 LOG1 JUMPDEST POP POP POP POP POP POP POP POP POP JUMP JUMPDEST PUSH2 0x3B0D PUSH2 0x3ED8 JUMP JUMPDEST PUSH2 0x3B43 JUMPI PUSH1 0x40 MLOAD PUSH32 0xD7E6BCF800000000000000000000000000000000000000000000000000000000 DUP2 MSTORE PUSH1 0x4 ADD PUSH1 0x40 MLOAD DUP1 SWAP2 SUB SWAP1 REVERT JUMPDEST JUMP JUMPDEST PUSH2 0x3B50 DUP4 DUP4 DUP4 PUSH2 0x3EF6 JUMP JUMPDEST PUSH2 0x3C03 JUMPI PUSH0 PUSH20 0xFFFFFFFFFFFFFFFFFFFFFFFFFFFFFFFFFFFFFFFF AND DUP4 PUSH20 0xFFFFFFFFFFFFFFFFFFFFFFFFFFFFFFFFFFFFFFFF AND SUB PUSH2 0x3BC4 JUMPI DUP1 PUSH1 0x40 MLOAD PUSH32 0x7E27328900000000000000000000000000000000000000000000000000000000 DUP2 MSTORE PUSH1 0x4 ADD PUSH2 0x3BBB SWAP2 SWAP1 PUSH2 0x4B50 JUMP JUMPDEST PUSH1 0x40 MLOAD DUP1 SWAP2 SUB SWAP1 REVERT JUMPDEST DUP2 DUP2 PUSH1 0x40 MLOAD PUSH32 0x177E802F00000000000000000000000000000000000000000000000000000000 DUP2 MSTORE PUSH1 0x4 ADD PUSH2 0x3BFA SWAP3 SWAP2 SWAP1 PUSH2 0x5E52 JUMP JUMPDEST PUSH1 0x40 MLOAD DUP1 SWAP2 SUB SWAP1 REVERT JUMPDEST POP POP POP JUMP JUMPDEST PUSH2 0x3C21 DUP3 DUP3 PUSH1 0x40 MLOAD DUP1 PUSH1 0x20 ADD PUSH1 0x40 MSTORE DUP1 PUSH0 DUP2 MSTORE POP PUSH2 0x3FB6 JUMP JUMPDEST POP POP JUMP JUMPDEST PUSH0 PUSH2 0x3C51 PUSH32 0x360894A13BA1A3210667C828492DB98DCA3E2076CC3735A920A3CA505D382BBC PUSH0 SHL PUSH2 0x3FD1 JUMP JUMPDEST PUSH0 ADD PUSH0 SWAP1 SLOAD SWAP1 PUSH2 0x100 EXP SWAP1 DIV PUSH20 0xFFFFFFFFFFFFFFFFFFFFFFFFFFFFFFFFFFFFFFFF AND SWAP1 POP SWAP1 JUMP JUMPDEST PUSH2 0x3C81 DUP3 PUSH2 0x3FDA JUMP JUMPDEST DUP2 PUSH20 0xFFFFFFFFFFFFFFFFFFFFFFFFFFFFFFFFFFFFFFFF AND PUSH32 0xBC7CD75A20EE27FD9ADEBAB32041F755214DBC6BFFA90CC0225B39DA2E5C2D3B PUSH1 0x40 MLOAD PUSH1 0x40 MLOAD DUP1 SWAP2 SUB SWAP1 LOG2 PUSH0 DUP2 MLOAD GT ISZERO PUSH2 0x3CDD JUMPI PUSH2 0x3CD7 DUP3 DUP3 PUSH2 0x40A3 JUMP JUMPDEST POP PUSH2 0x3CE6 JUMP JUMPDEST PUSH2 0x3CE5 PUSH2 0x4123 JUMP JUMPDEST JUMPDEST POP POP JUMP JUMPDEST PUSH0 DUP1 PUSH0 SWAP1 POP PUSH27 0x184F03E93FF9F4DAA797ED6E38ED64BF6A1F010000000000000000 DUP4 LT PUSH2 0x3D46 JUMPI PUSH27 0x184F03E93FF9F4DAA797ED6E38ED64BF6A1F010000000000000000 DUP4 DUP2 PUSH2 0x3D3C JUMPI PUSH2 0x3D3B PUSH2 0x5BF6 JUMP JUMPDEST JUMPDEST DIV SWAP3 POP PUSH1 0x40 DUP2 ADD SWAP1 POP JUMPDEST PUSH14 0x4EE2D6D415B85ACEF8100000000 DUP4 LT PUSH2 0x3D83 JUMPI PUSH14 0x4EE2D6D415B85ACEF8100000000 DUP4 DUP2 PUSH2 0x3D79 JUMPI PUSH2 0x3D78 PUSH2 0x5BF6 JUMP JUMPDEST JUMPDEST DIV SWAP3 POP PUSH1 0x20 DUP2 ADD SWAP1 POP JUMPDEST PUSH7 0x2386F26FC10000 DUP4 LT PUSH2 0x3DB2 JUMPI PUSH7 0x2386F26FC10000 DUP4 DUP2 PUSH2 0x3DA8 JUMPI PUSH2 0x3DA7 PUSH2 0x5BF6 JUMP JUMPDEST JUMPDEST DIV SWAP3 POP PUSH1 0x10 DUP2 ADD SWAP1 POP JUMPDEST PUSH4 0x5F5E100 DUP4 LT PUSH2 0x3DDB JUMPI PUSH4 0x5F5E100 DUP4 DUP2 PUSH2 0x3DD1 JUMPI PUSH2 0x3DD0 PUSH2 0x5BF6 JUMP JUMPDEST JUMPDEST DIV SWAP3 POP PUSH1 0x8 DUP2 ADD SWAP1 POP JUMPDEST PUSH2 0x2710 DUP4 LT PUSH2 0x3E00 JUMPI PUSH2 0x2710 DUP4 DUP2 PUSH2 0x3DF6 JUMPI PUSH2 0x3DF5 PUSH2 0x5BF6 JUMP JUMPDEST JUMPDEST DIV SWAP3 POP PUSH1 0x4 DUP2 ADD SWAP1 POP JUMPDEST PUSH1 0x64 DUP4 LT PUSH2 0x3E23 JUMPI PUSH1 0x64 DUP4 DUP2 PUSH2 0x3E19 JUMPI PUSH2 0x3E18 PUSH2 0x5BF6 JUMP JUMPDEST JUMPDEST DIV SWAP3 POP PUSH1 0x2 DUP2 ADD SWAP1 POP JUMPDEST PUSH1 0xA DUP4 LT PUSH2 0x3E32 JUMPI PUSH1 0x1 DUP2 ADD SWAP1 POP JUMPDEST DUP1 SWAP2 POP POP SWAP2 SWAP1 POP JUMP JUMPDEST PUSH0 PUSH32 0x1FFC9A700000000000000000000000000000000000000000000000000000000 PUSH28 0xFFFFFFFFFFFFFFFFFFFFFFFFFFFFFFFFFFFFFFFFFFFFFFFFFFFFFFFF NOT AND DUP3 PUSH28 0xFFFFFFFFFFFFFFFFFFFFFFFFFFFFFFFFFFFFFFFFFFFFFFFFFFFFFFFF NOT AND EQ SWAP1 POP SWAP2 SWAP1 POP JUMP JUMPDEST PUSH2 0x3EAC PUSH2 0x3B05 JUMP JUMPDEST PUSH2 0x3EB6 DUP3 DUP3 PUSH2 0x415F JUMP JUMPDEST POP POP JUMP JUMPDEST PUSH2 0x3EC2 PUSH2 0x3B05 JUMP JUMPDEST JUMP JUMPDEST PUSH2 0x3ECC PUSH2 0x3B05 JUMP JUMPDEST PUSH2 0x3ED5 DUP2 PUSH2 0x419A JUMP JUMPDEST POP JUMP JUMPDEST PUSH0 PUSH2 0x3EE1 PUSH2 0x271F JUMP JUMPDEST PUSH0 ADD PUSH1 0x8 SWAP1 SLOAD SWAP1 PUSH2 0x100 EXP SWAP1 DIV PUSH1 0xFF AND SWAP1 POP SWAP1 JUMP JUMPDEST PUSH0 DUP1 PUSH20 0xFFFFFFFFFFFFFFFFFFFFFFFFFFFFFFFFFFFFFFFF AND DUP4 PUSH20 0xFFFFFFFFFFFFFFFFFFFFFFFFFFFFFFFFFFFFFFFF AND EQ ISZERO DUP1 ISZERO PUSH2 0x3FAD JUMPI POP DUP3 PUSH20 0xFFFFFFFFFFFFFFFFFFFFFFFFFFFFFFFFFFFFFFFF AND DUP5 PUSH20 0xFFFFFFFFFFFFFFFFFFFFFFFFFFFFFFFFFFFFFFFF AND EQ DUP1 PUSH2 0x3F6E JUMPI POP PUSH2 0x3F6D DUP5 DUP5 PUSH2 0x1ED6 JUMP JUMPDEST JUMPDEST DUP1 PUSH2 0x3FAC JUMPI POP DUP3 PUSH20 0xFFFFFFFFFFFFFFFFFFFFFFFFFFFFFFFFFFFFFFFF AND PUSH2 0x3F94 DUP4 PUSH2 0x25D4 JUMP JUMPDEST PUSH20 0xFFFFFFFFFFFFFFFFFFFFFFFFFFFFFFFFFFFFFFFF AND EQ JUMPDEST JUMPDEST SWAP1 POP SWAP4 SWAP3 POP POP POP JUMP JUMPDEST PUSH2 0x3FC0 DUP4 DUP4 PUSH2 0x421E JUMP JUMPDEST PUSH2 0x3FCC PUSH0 DUP5 DUP5 DUP5 PUSH2 0x33B0 JUMP JUMPDEST POP POP POP JUMP JUMPDEST PUSH0 DUP2 SWAP1 POP SWAP2 SWAP1 POP JUMP JUMPDEST PUSH0 DUP2 PUSH20 0xFFFFFFFFFFFFFFFFFFFFFFFFFFFFFFFFFFFFFFFF AND EXTCODESIZE SUB PUSH2 0x4035 JUMPI DUP1 PUSH1 0x40 MLOAD PUSH32 0x4C9C8CE300000000000000000000000000000000000000000000000000000000 DUP2 MSTORE PUSH1 0x4 ADD PUSH2 0x402C SWAP2 SWAP1 PUSH2 0x45D3 JUMP JUMPDEST PUSH1 0x40 MLOAD DUP1 SWAP2 SUB SWAP1 REVERT JUMPDEST DUP1 PUSH2 0x4061 PUSH32 0x360894A13BA1A3210667C828492DB98DCA3E2076CC3735A920A3CA505D382BBC PUSH0 SHL PUSH2 0x3FD1 JUMP JUMPDEST PUSH0 ADD PUSH0 PUSH2 0x100 EXP DUP2 SLOAD DUP2 PUSH20 0xFFFFFFFFFFFFFFFFFFFFFFFFFFFFFFFFFFFFFFFF MUL NOT AND SWAP1 DUP4 PUSH20 0xFFFFFFFFFFFFFFFFFFFFFFFFFFFFFFFFFFFFFFFF AND MUL OR SWAP1 SSTORE POP POP JUMP JUMPDEST PUSH1 0x60 PUSH0 DUP1 DUP5 PUSH20 0xFFFFFFFFFFFFFFFFFFFFFFFFFFFFFFFFFFFFFFFF AND DUP5 PUSH1 0x40 MLOAD PUSH2 0x40CC SWAP2 SWAP1 PUSH2 0x5EB3 JUMP JUMPDEST PUSH0 PUSH1 0x40 MLOAD DUP1 DUP4 SUB DUP2 DUP6 GAS DELEGATECALL SWAP2 POP POP RETURNDATASIZE DUP1 PUSH0 DUP2 EQ PUSH2 0x4104 JUMPI PUSH1 0x40 MLOAD SWAP2 POP PUSH1 0x1F NOT PUSH1 0x3F RETURNDATASIZE ADD AND DUP3 ADD PUSH1 0x40 MSTORE RETURNDATASIZE DUP3 MSTORE RETURNDATASIZE PUSH0 PUSH1 0x20 DUP5 ADD RETURNDATACOPY PUSH2 0x4109 JUMP JUMPDEST PUSH1 0x60 SWAP2 POP JUMPDEST POP SWAP2 POP SWAP2 POP PUSH2 0x4119 DUP6 DUP4 DUP4 PUSH2 0x4311 JUMP JUMPDEST SWAP3 POP POP POP SWAP3 SWAP2 POP POP JUMP JUMPDEST PUSH0 CALLVALUE GT ISZERO PUSH2 0x415D JUMPI PUSH1 0x40 MLOAD PUSH32 0xB398979F00000000000000000000000000000000000000000000000000000000 DUP2 MSTORE PUSH1 0x4 ADD PUSH1 0x40 MLOAD DUP1 SWAP2 SUB SWAP1 REVERT JUMPDEST JUMP JUMPDEST PUSH2 0x4167 PUSH2 0x3B05 JUMP JUMPDEST PUSH0 PUSH2 0x4170 PUSH2 0x2527 JUMP JUMPDEST SWAP1 POP DUP3 DUP2 PUSH0 ADD SWAP1 DUP2 PUSH2 0x4182 SWAP2 SWAP1 PUSH2 0x5C53 JUMP JUMPDEST POP DUP2 DUP2 PUSH1 0x1 ADD SWAP1 DUP2 PUSH2 0x4194 SWAP2 SWAP1 PUSH2 0x5C53 JUMP JUMPDEST POP POP POP POP JUMP JUMPDEST PUSH2 0x41A2 PUSH2 0x3B05 JUMP JUMPDEST PUSH0 PUSH20 0xFFFFFFFFFFFFFFFFFFFFFFFFFFFFFFFFFFFFFFFF AND DUP2 PUSH20 0xFFFFFFFFFFFFFFFFFFFFFFFFFFFFFFFFFFFFFFFF AND SUB PUSH2 0x4212 JUMPI PUSH0 PUSH1 0x40 MLOAD PUSH32 0x1E4FBDF700000000000000000000000000000000000000000000000000000000 DUP2 MSTORE PUSH1 0x4 ADD PUSH2 0x4209 SWAP2 SWAP1 PUSH2 0x45D3 JUMP JUMPDEST PUSH1 0x40 MLOAD DUP1 SWAP2 SUB SWAP1 REVERT JUMPDEST PUSH2 0x421B DUP2 PUSH2 0x2FAE JUMP JUMPDEST POP JUMP JUMPDEST PUSH0 PUSH20 0xFFFFFFFFFFFFFFFFFFFFFFFFFFFFFFFFFFFFFFFF AND DUP3 PUSH20 0xFFFFFFFFFFFFFFFFFFFFFFFFFFFFFFFFFFFFFFFF AND SUB PUSH2 0x428E JUMPI PUSH0 PUSH1 0x40 MLOAD PUSH32 0x64A0AE9200000000000000000000000000000000000000000000000000000000 DUP2 MSTORE PUSH1 0x4 ADD PUSH2 0x4285 SWAP2 SWAP1 PUSH2 0x45D3 JUMP JUMPDEST PUSH1 0x40 MLOAD DUP1 SWAP2 SUB SWAP1 REVERT JUMPDEST PUSH0 PUSH2 0x429A DUP4 DUP4 PUSH0 PUSH2 0x28D7 JUMP JUMPDEST SWAP1 POP PUSH0 PUSH20 0xFFFFFFFFFFFFFFFFFFFFFFFFFFFFFFFFFFFFFFFF AND DUP2 PUSH20 0xFFFFFFFFFFFFFFFFFFFFFFFFFFFFFFFFFFFFFFFF AND EQ PUSH2 0x430C JUMPI PUSH0 PUSH1 0x40 MLOAD PUSH32 0x73C6AC6E00000000000000000000000000000000000000000000000000000000 DUP2 MSTORE PUSH1 0x4 ADD PUSH2 0x4303 SWAP2 SWAP1 PUSH2 0x45D3 JUMP JUMPDEST PUSH1 0x40 MLOAD DUP1 SWAP2 SUB SWAP1 REVERT JUMPDEST POP POP POP JUMP JUMPDEST PUSH1 0x60 DUP3 PUSH2 0x4326 JUMPI PUSH2 0x4321 DUP3 PUSH2 0x439E JUMP JUMPDEST PUSH2 0x4396 JUMP JUMPDEST PUSH0 DUP3 MLOAD EQ DUP1 ISZERO PUSH2 0x434C JUMPI POP PUSH0 DUP5 PUSH20 0xFFFFFFFFFFFFFFFFFFFFFFFFFFFFFFFFFFFFFFFF AND EXTCODESIZE EQ JUMPDEST ISZERO PUSH2 0x438E JUMPI DUP4 PUSH1 0x40 MLOAD PUSH32 0x9996B31500000000000000000000000000000000000000000000000000000000 DUP2 MSTORE PUSH1 0x4 ADD PUSH2 0x4385 SWAP2 SWAP1 PUSH2 0x45D3 JUMP JUMPDEST PUSH1 0x40 MLOAD DUP1 SWAP2 SUB SWAP1 REVERT JUMPDEST DUP2 SWAP1 POP PUSH2 0x4397 JUMP JUMPDEST JUMPDEST SWAP4 SWAP3 POP POP POP JUMP JUMPDEST PUSH0 DUP2 MLOAD GT ISZERO PUSH2 0x43B0 JUMPI DUP1 MLOAD DUP1 DUP3 PUSH1 0x20 ADD REVERT JUMPDEST PUSH1 0x40 MLOAD PUSH32 0x1425EA4200000000000000000000000000000000000000000000000000000000 DUP2 MSTORE PUSH1 0x4 ADD PUSH1 0x40 MLOAD DUP1 SWAP2 SUB SWAP1 REVERT JUMPDEST PUSH0 PUSH1 0x40 MLOAD SWAP1 POP SWAP1 JUMP JUMPDEST PUSH0 DUP1 REVERT JUMPDEST PUSH0 DUP1 REVERT JUMPDEST PUSH0 DUP2 SWAP1 POP SWAP2 SWAP1 POP JUMP JUMPDEST PUSH2 0x4405 DUP2 PUSH2 0x43F3 JUMP JUMPDEST DUP2 EQ PUSH2 0x440F JUMPI PUSH0 DUP1 REVERT JUMPDEST POP JUMP JUMPDEST PUSH0 DUP2 CALLDATALOAD SWAP1 POP PUSH2 0x4420 DUP2 PUSH2 0x43FC JUMP JUMPDEST SWAP3 SWAP2 POP POP JUMP JUMPDEST PUSH0 PUSH1 0x20 DUP3 DUP5 SUB SLT ISZERO PUSH2 0x443B JUMPI PUSH2 0x443A PUSH2 0x43EB JUMP JUMPDEST JUMPDEST PUSH0 PUSH2 0x4448 DUP5 DUP3 DUP6 ADD PUSH2 0x4412 JUMP JUMPDEST SWAP2 POP POP SWAP3 SWAP2 POP POP JUMP JUMPDEST PUSH0 PUSH32 0xFFFFFFFF00000000000000000000000000000000000000000000000000000000 DUP3 AND SWAP1 POP SWAP2 SWAP1 POP JUMP JUMPDEST PUSH2 0x4485 DUP2 PUSH2 0x4451 JUMP JUMPDEST DUP2 EQ PUSH2 0x448F JUMPI PUSH0 DUP1 REVERT JUMPDEST POP JUMP JUMPDEST PUSH0 DUP2 CALLDATALOAD SWAP1 POP PUSH2 0x44A0 DUP2 PUSH2 0x447C JUMP JUMPDEST SWAP3 SWAP2 POP POP JUMP JUMPDEST PUSH0 PUSH1 0x20 DUP3 DUP5 SUB SLT ISZERO PUSH2 0x44BB JUMPI PUSH2 0x44BA PUSH2 0x43EB JUMP JUMPDEST JUMPDEST PUSH0 PUSH2 0x44C8 DUP5 DUP3 DUP6 ADD PUSH2 0x4492 JUMP JUMPDEST SWAP2 POP POP SWAP3 SWAP2 POP POP JUMP JUMPDEST PUSH0 DUP2 ISZERO ISZERO SWAP1 POP SWAP2 SWAP1 POP JUMP JUMPDEST PUSH2 0x44E5 DUP2 PUSH2 0x44D1 JUMP JUMPDEST DUP3 MSTORE POP POP JUMP JUMPDEST PUSH0 PUSH1 0x20 DUP3 ADD SWAP1 POP PUSH2 0x44FE PUSH0 DUP4 ADD DUP5 PUSH2 0x44DC JUMP JUMPDEST SWAP3 SWAP2 POP POP JUMP JUMPDEST PUSH0 DUP2 MLOAD SWAP1 POP SWAP2 SWAP1 POP JUMP JUMPDEST PUSH0 DUP3 DUP3 MSTORE PUSH1 0x20 DUP3 ADD SWAP1 POP SWAP3 SWAP2 POP POP JUMP JUMPDEST DUP3 DUP2 DUP4 MCOPY PUSH0 DUP4 DUP4 ADD MSTORE POP POP POP JUMP JUMPDEST PUSH0 PUSH1 0x1F NOT PUSH1 0x1F DUP4 ADD AND SWAP1 POP SWAP2 SWAP1 POP JUMP JUMPDEST PUSH0 PUSH2 0x4546 DUP3 PUSH2 0x4504 JUMP JUMPDEST PUSH2 0x4550 DUP2 DUP6 PUSH2 0x450E JUMP JUMPDEST SWAP4 POP PUSH2 0x4560 DUP2 DUP6 PUSH1 0x20 DUP7 ADD PUSH2 0x451E JUMP JUMPDEST PUSH2 0x4569 DUP2 PUSH2 0x452C JUMP JUMPDEST DUP5 ADD SWAP2 POP POP SWAP3 SWAP2 POP POP JUMP JUMPDEST PUSH0 PUSH1 0x20 DUP3 ADD SWAP1 POP DUP2 DUP2 SUB PUSH0 DUP4 ADD MSTORE PUSH2 0x458C DUP2 DUP5 PUSH2 0x453C JUMP JUMPDEST SWAP1 POP SWAP3 SWAP2 POP POP JUMP JUMPDEST PUSH0 PUSH20 0xFFFFFFFFFFFFFFFFFFFFFFFFFFFFFFFFFFFFFFFF DUP3 AND SWAP1 POP SWAP2 SWAP1 POP JUMP JUMPDEST PUSH0 PUSH2 0x45BD DUP3 PUSH2 0x4594 JUMP JUMPDEST SWAP1 POP SWAP2 SWAP1 POP JUMP JUMPDEST PUSH2 0x45CD DUP2 PUSH2 0x45B3 JUMP JUMPDEST DUP3 MSTORE POP POP JUMP JUMPDEST PUSH0 PUSH1 0x20 DUP3 ADD SWAP1 POP PUSH2 0x45E6 PUSH0 DUP4 ADD DUP5 PUSH2 0x45C4 JUMP JUMPDEST SWAP3 SWAP2 POP POP JUMP JUMPDEST PUSH2 0x45F5 DUP2 PUSH2 0x45B3 JUMP JUMPDEST DUP2 EQ PUSH2 0x45FF JUMPI PUSH0 DUP1 REVERT JUMPDEST POP JUMP JUMPDEST PUSH0 DUP2 CALLDATALOAD SWAP1 POP PUSH2 0x4610 DUP2 PUSH2 0x45EC JUMP JUMPDEST SWAP3 SWAP2 POP POP JUMP JUMPDEST PUSH0 DUP1 PUSH1 0x40 DUP4 DUP6 SUB SLT ISZERO PUSH2 0x462C JUMPI PUSH2 0x462B PUSH2 0x43EB JUMP JUMPDEST JUMPDEST PUSH0 PUSH2 0x4639 DUP6 DUP3 DUP7 ADD PUSH2 0x4602 JUMP JUMPDEST SWAP3 POP POP PUSH1 0x20 PUSH2 0x464A DUP6 DUP3 DUP7 ADD PUSH2 0x4412 JUMP JUMPDEST SWAP2 POP POP SWAP3 POP SWAP3 SWAP1 POP JUMP JUMPDEST PUSH0 DUP1 REVERT JUMPDEST PUSH0 DUP1 REVERT JUMPDEST PUSH0 DUP1 REVERT JUMPDEST PUSH0 DUP1 DUP4 PUSH1 0x1F DUP5 ADD SLT PUSH2 0x4675 JUMPI PUSH2 0x4674 PUSH2 0x4654 JUMP JUMPDEST JUMPDEST DUP3 CALLDATALOAD SWAP1 POP PUSH8 0xFFFFFFFFFFFFFFFF DUP2 GT ISZERO PUSH2 0x4692 JUMPI PUSH2 0x4691 PUSH2 0x4658 JUMP JUMPDEST JUMPDEST PUSH1 0x20 DUP4 ADD SWAP2 POP DUP4 PUSH1 0x1 DUP3 MUL DUP4 ADD GT ISZERO PUSH2 0x46AE JUMPI PUSH2 0x46AD PUSH2 0x465C JUMP JUMPDEST JUMPDEST SWAP3 POP SWAP3 SWAP1 POP JUMP JUMPDEST PUSH0 DUP1 PUSH1 0x20 DUP4 DUP6 SUB SLT ISZERO PUSH2 0x46CB JUMPI PUSH2 0x46CA PUSH2 0x43EB JUMP JUMPDEST JUMPDEST PUSH0 DUP4 ADD CALLDATALOAD PUSH8 0xFFFFFFFFFFFFFFFF DUP2 GT ISZERO PUSH2 0x46E8 JUMPI PUSH2 0x46E7 PUSH2 0x43EF JUMP JUMPDEST JUMPDEST PUSH2 0x46F4 DUP6 DUP3 DUP7 ADD PUSH2 0x4660 JUMP JUMPDEST SWAP3 POP SWAP3 POP POP SWAP3 POP SWAP3 SWAP1 POP JUMP JUMPDEST PUSH0 DUP1 REVERT JUMPDEST PUSH32 0x4E487B7100000000000000000000000000000000000000000000000000000000 PUSH0 MSTORE PUSH1 0x41 PUSH1 0x4 MSTORE PUSH1 0x24 PUSH0 REVERT JUMPDEST PUSH2 0x473A DUP3 PUSH2 0x452C JUMP JUMPDEST DUP2 ADD DUP2 DUP2 LT PUSH8 0xFFFFFFFFFFFFFFFF DUP3 GT OR ISZERO PUSH2 0x4759 JUMPI PUSH2 0x4758 PUSH2 0x4704 JUMP JUMPDEST JUMPDEST DUP1 PUSH1 0x40 MSTORE POP POP POP JUMP JUMPDEST PUSH0 PUSH2 0x476B PUSH2 0x43E2 JUMP JUMPDEST SWAP1 POP PUSH2 0x4777 DUP3 DUP3 PUSH2 0x4731 JUMP JUMPDEST SWAP2 SWAP1 POP JUMP JUMPDEST PUSH0 PUSH8 0xFFFFFFFFFFFFFFFF DUP3 GT ISZERO PUSH2 0x4796 JUMPI PUSH2 0x4795 PUSH2 0x4704 JUMP JUMPDEST JUMPDEST PUSH2 0x479F DUP3 PUSH2 0x452C JUMP JUMPDEST SWAP1 POP PUSH1 0x20 DUP2 ADD SWAP1 POP SWAP2 SWAP1 POP JUMP JUMPDEST DUP3 DUP2 DUP4 CALLDATACOPY PUSH0 DUP4 DUP4 ADD MSTORE POP POP POP JUMP JUMPDEST PUSH0 PUSH2 0x47CC PUSH2 0x47C7 DUP5 PUSH2 0x477C JUMP JUMPDEST PUSH2 0x4762 JUMP JUMPDEST SWAP1 POP DUP3 DUP2 MSTORE PUSH1 0x20 DUP2 ADD DUP5 DUP5 DUP5 ADD GT ISZERO PUSH2 0x47E8 JUMPI PUSH2 0x47E7 PUSH2 0x4700 JUMP JUMPDEST JUMPDEST PUSH2 0x47F3 DUP5 DUP3 DUP6 PUSH2 0x47AC JUMP JUMPDEST POP SWAP4 SWAP3 POP POP POP JUMP JUMPDEST PUSH0 DUP3 PUSH1 0x1F DUP4 ADD SLT PUSH2 0x480F JUMPI PUSH2 0x480E PUSH2 0x4654 JUMP JUMPDEST JUMPDEST DUP2 CALLDATALOAD PUSH2 0x481F DUP5 DUP3 PUSH1 0x20 DUP7 ADD PUSH2 0x47BA JUMP JUMPDEST SWAP2 POP POP SWAP3 SWAP2 POP POP JUMP JUMPDEST PUSH0 DUP1 PUSH0 DUP1 PUSH1 0x80 DUP6 DUP8 SUB SLT ISZERO PUSH2 0x4840 JUMPI PUSH2 0x483F PUSH2 0x43EB JUMP JUMPDEST JUMPDEST PUSH0 PUSH2 0x484D DUP8 DUP3 DUP9 ADD PUSH2 0x4602 JUMP JUMPDEST SWAP5 POP POP PUSH1 0x20 PUSH2 0x485E DUP8 DUP3 DUP9 ADD PUSH2 0x4602 JUMP JUMPDEST SWAP4 POP POP PUSH1 0x40 DUP6 ADD CALLDATALOAD PUSH8 0xFFFFFFFFFFFFFFFF DUP2 GT ISZERO PUSH2 0x487F JUMPI PUSH2 0x487E PUSH2 0x43EF JUMP JUMPDEST JUMPDEST PUSH2 0x488B DUP8 DUP3 DUP9 ADD PUSH2 0x47FB JUMP JUMPDEST SWAP3 POP POP PUSH1 0x60 DUP6 ADD CALLDATALOAD PUSH8 0xFFFFFFFFFFFFFFFF DUP2 GT ISZERO PUSH2 0x48AC JUMPI PUSH2 0x48AB PUSH2 0x43EF JUMP JUMPDEST JUMPDEST PUSH2 0x48B8 DUP8 DUP3 DUP9 ADD PUSH2 0x47FB JUMP JUMPDEST SWAP2 POP POP SWAP3 SWAP6 SWAP2 SWAP5 POP SWAP3 POP JUMP JUMPDEST PUSH0 DUP1 PUSH0 PUSH1 0x60 DUP5 DUP7 SUB SLT ISZERO PUSH2 0x48DB JUMPI PUSH2 0x48DA PUSH2 0x43EB JUMP JUMPDEST JUMPDEST PUSH0 PUSH2 0x48E8 DUP7 DUP3 DUP8 ADD PUSH2 0x4602 JUMP JUMPDEST SWAP4 POP POP PUSH1 0x20 PUSH2 0x48F9 DUP7 DUP3 DUP8 ADD PUSH2 0x4602 JUMP JUMPDEST SWAP3 POP POP PUSH1 0x40 PUSH2 0x490A DUP7 DUP3 DUP8 ADD PUSH2 0x4412 JUMP JUMPDEST SWAP2 POP POP SWAP3 POP SWAP3 POP SWAP3 JUMP JUMPDEST PUSH2 0x491D DUP2 PUSH2 0x44D1 JUMP JUMPDEST DUP2 EQ PUSH2 0x4927 JUMPI PUSH0 DUP1 REVERT JUMPDEST POP JUMP JUMPDEST PUSH0 DUP2 CALLDATALOAD SWAP1 POP PUSH2 0x4938 DUP2 PUSH2 0x4914 JUMP JUMPDEST SWAP3 SWAP2 POP POP JUMP JUMPDEST PUSH0 PUSH1 0x20 DUP3 DUP5 SUB SLT ISZERO PUSH2 0x4953 JUMPI PUSH2 0x4952 PUSH2 0x43EB JUMP JUMPDEST JUMPDEST PUSH0 PUSH2 0x4960 DUP5 DUP3 DUP6 ADD PUSH2 0x492A JUMP JUMPDEST SWAP2 POP POP SWAP3 SWAP2 POP POP JUMP JUMPDEST PUSH0 DUP1 PUSH0 PUSH1 0x40 DUP5 DUP7 SUB SLT ISZERO PUSH2 0x4980 JUMPI PUSH2 0x497F PUSH2 0x43EB JUMP JUMPDEST JUMPDEST PUSH0 PUSH2 0x498D DUP7 DUP3 DUP8 ADD PUSH2 0x4602 JUMP JUMPDEST SWAP4 POP POP PUSH1 0x20 DUP5 ADD CALLDATALOAD PUSH8 0xFFFFFFFFFFFFFFFF DUP2 GT ISZERO PUSH2 0x49AE JUMPI PUSH2 0x49AD PUSH2 0x43EF JUMP JUMPDEST JUMPDEST PUSH2 0x49BA DUP7 DUP3 DUP8 ADD PUSH2 0x4660 JUMP JUMPDEST SWAP3 POP SWAP3 POP POP SWAP3 POP SWAP3 POP SWAP3 JUMP JUMPDEST PUSH0 PUSH8 0xFFFFFFFFFFFFFFFF DUP3 GT ISZERO PUSH2 0x49E0 JUMPI PUSH2 0x49DF PUSH2 0x4704 JUMP JUMPDEST JUMPDEST PUSH2 0x49E9 DUP3 PUSH2 0x452C JUMP JUMPDEST SWAP1 POP PUSH1 0x20 DUP2 ADD SWAP1 POP SWAP2 SWAP1 POP JUMP JUMPDEST PUSH0 PUSH2 0x4A08 PUSH2 0x4A03 DUP5 PUSH2 0x49C6 JUMP JUMPDEST PUSH2 0x4762 JUMP JUMPDEST SWAP1 POP DUP3 DUP2 MSTORE PUSH1 0x20 DUP2 ADD DUP5 DUP5 DUP5 ADD GT ISZERO PUSH2 0x4A24 JUMPI PUSH2 0x4A23 PUSH2 0x4700 JUMP JUMPDEST JUMPDEST PUSH2 0x4A2F DUP5 DUP3 DUP6 PUSH2 0x47AC JUMP JUMPDEST POP SWAP4 SWAP3 POP POP POP JUMP JUMPDEST PUSH0 DUP3 PUSH1 0x1F DUP4 ADD SLT PUSH2 0x4A4B JUMPI PUSH2 0x4A4A PUSH2 0x4654 JUMP JUMPDEST JUMPDEST DUP2 CALLDATALOAD PUSH2 0x4A5B DUP5 DUP3 PUSH1 0x20 DUP7 ADD PUSH2 0x49F6 JUMP JUMPDEST SWAP2 POP POP SWAP3 SWAP2 POP POP JUMP JUMPDEST PUSH0 DUP1 PUSH1 0x40 DUP4 DUP6 SUB SLT ISZERO PUSH2 0x4A7A JUMPI PUSH2 0x4A79 PUSH2 0x43EB JUMP JUMPDEST JUMPDEST PUSH0 PUSH2 0x4A87 DUP6 DUP3 DUP7 ADD PUSH2 0x4602 JUMP JUMPDEST SWAP3 POP POP PUSH1 0x20 DUP4 ADD CALLDATALOAD PUSH8 0xFFFFFFFFFFFFFFFF DUP2 GT ISZERO PUSH2 0x4AA8 JUMPI PUSH2 0x4AA7 PUSH2 0x43EF JUMP JUMPDEST JUMPDEST PUSH2 0x4AB4 DUP6 DUP3 DUP7 ADD PUSH2 0x4A37 JUMP JUMPDEST SWAP2 POP POP SWAP3 POP SWAP3 SWAP1 POP JUMP JUMPDEST PUSH0 DUP2 SWAP1 POP SWAP2 SWAP1 POP JUMP JUMPDEST PUSH2 0x4AD0 DUP2 PUSH2 0x4ABE JUMP JUMPDEST DUP3 MSTORE POP POP JUMP JUMPDEST PUSH0 PUSH1 0x20 DUP3 ADD SWAP1 POP PUSH2 0x4AE9 PUSH0 DUP4 ADD DUP5 PUSH2 0x4AC7 JUMP JUMPDEST SWAP3 SWAP2 POP POP JUMP JUMPDEST PUSH2 0x4AF8 DUP2 PUSH2 0x43F3 JUMP JUMPDEST DUP3 MSTORE POP POP JUMP JUMPDEST PUSH0 PUSH1 0x40 DUP3 ADD SWAP1 POP PUSH2 0x4B11 PUSH0 DUP4 ADD DUP6 PUSH2 0x4AEF JUMP JUMPDEST PUSH2 0x4B1E PUSH1 0x20 DUP4 ADD DUP5 PUSH2 0x4AEF JUMP JUMPDEST SWAP4 SWAP3 POP POP POP JUMP JUMPDEST PUSH0 PUSH1 0x20 DUP3 DUP5 SUB SLT ISZERO PUSH2 0x4B3A JUMPI PUSH2 0x4B39 PUSH2 0x43EB JUMP JUMPDEST JUMPDEST PUSH0 PUSH2 0x4B47 DUP5 DUP3 DUP6 ADD PUSH2 0x4602 JUMP JUMPDEST SWAP2 POP POP SWAP3 SWAP2 POP POP JUMP JUMPDEST PUSH0 PUSH1 0x20 DUP3 ADD SWAP1 POP PUSH2 0x4B63 PUSH0 DUP4 ADD DUP5 PUSH2 0x4AEF JUMP JUMPDEST SWAP3 SWAP2 POP POP JUMP JUMPDEST PUSH0 DUP2 MLOAD SWAP1 POP SWAP2 SWAP1 POP JUMP JUMPDEST PUSH0 DUP3 DUP3 MSTORE PUSH1 0x20 DUP3 ADD SWAP1 POP SWAP3 SWAP2 POP POP JUMP JUMPDEST PUSH0 DUP2 SWAP1 POP PUSH1 0x20 DUP3 ADD SWAP1 POP SWAP2 SWAP1 POP JUMP JUMPDEST PUSH2 0x4B9B DUP2 PUSH2 0x43F3 JUMP JUMPDEST DUP3 MSTORE POP POP JUMP JUMPDEST PUSH0 PUSH2 0x4BAC DUP4 DUP4 PUSH2 0x4B92 JUMP JUMPDEST PUSH1 0x20 DUP4 ADD SWAP1 POP SWAP3 SWAP2 POP POP JUMP JUMPDEST PUSH0 PUSH1 0x20 DUP3 ADD SWAP1 POP SWAP2 SWAP1 POP JUMP JUMPDEST PUSH0 PUSH2 0x4BCE DUP3 PUSH2 0x4B69 JUMP JUMPDEST PUSH2 0x4BD8 DUP2 DUP6 PUSH2 0x4B73 JUMP JUMPDEST SWAP4 POP PUSH2 0x4BE3 DUP4 PUSH2 0x4B83 JUMP JUMPDEST DUP1 PUSH0 JUMPDEST DUP4 DUP2 LT ISZERO PUSH2 0x4C13 JUMPI DUP2 MLOAD PUSH2 0x4BFA DUP9 DUP3 PUSH2 0x4BA1 JUMP JUMPDEST SWAP8 POP PUSH2 0x4C05 DUP4 PUSH2 0x4BB8 JUMP JUMPDEST SWAP3 POP POP PUSH1 0x1 DUP2 ADD SWAP1 POP PUSH2 0x4BE6 JUMP JUMPDEST POP DUP6 SWAP4 POP POP POP POP SWAP3 SWAP2 POP POP JUMP JUMPDEST PUSH0 PUSH1 0x20 DUP3 ADD SWAP1 POP DUP2 DUP2 SUB PUSH0 DUP4 ADD MSTORE PUSH2 0x4C38 DUP2 DUP5 PUSH2 0x4BC4 JUMP JUMPDEST SWAP1 POP SWAP3 SWAP2 POP POP JUMP JUMPDEST PUSH0 DUP1 PUSH0 DUP1 PUSH1 0x60 DUP6 DUP8 SUB SLT ISZERO PUSH2 0x4C58 JUMPI PUSH2 0x4C57 PUSH2 0x43EB JUMP JUMPDEST JUMPDEST PUSH0 DUP6 ADD CALLDATALOAD PUSH8 0xFFFFFFFFFFFFFFFF DUP2 GT ISZERO PUSH2 0x4C75 JUMPI PUSH2 0x4C74 PUSH2 0x43EF JUMP JUMPDEST JUMPDEST PUSH2 0x4C81 DUP8 DUP3 DUP9 ADD PUSH2 0x4660 JUMP JUMPDEST SWAP5 POP SWAP5 POP POP PUSH1 0x20 PUSH2 0x4C94 DUP8 DUP3 DUP9 ADD PUSH2 0x4412 JUMP JUMPDEST SWAP3 POP POP PUSH1 0x40 PUSH2 0x4CA5 DUP8 DUP3 DUP9 ADD PUSH2 0x4412 JUMP JUMPDEST SWAP2 POP POP SWAP3 SWAP6 SWAP2 SWAP5 POP SWAP3 POP JUMP JUMPDEST PUSH0 DUP1 PUSH1 0x40 DUP4 DUP6 SUB SLT ISZERO PUSH2 0x4CC7 JUMPI PUSH2 0x4CC6 PUSH2 0x43EB JUMP JUMPDEST JUMPDEST PUSH0 PUSH2 0x4CD4 DUP6 DUP3 DUP7 ADD PUSH2 0x4602 JUMP JUMPDEST SWAP3 POP POP PUSH1 0x20 PUSH2 0x4CE5 DUP6 DUP3 DUP7 ADD PUSH2 0x492A JUMP JUMPDEST SWAP2 POP POP SWAP3 POP SWAP3 SWAP1 POP JUMP JUMPDEST PUSH32 0x4E487B7100000000000000000000000000000000000000000000000000000000 PUSH0 MSTORE PUSH1 0x21 PUSH1 0x4 MSTORE PUSH1 0x24 PUSH0 REVERT JUMPDEST PUSH1 0x4 DUP2 LT PUSH2 0x4D2D JUMPI PUSH2 0x4D2C PUSH2 0x4CEF JUMP JUMPDEST JUMPDEST POP JUMP JUMPDEST PUSH0 DUP2 SWAP1 POP PUSH2 0x4D3D DUP3 PUSH2 0x4D1C JUMP JUMPDEST SWAP2 SWAP1 POP JUMP JUMPDEST PUSH0 PUSH2 0x4D4C DUP3 PUSH2 0x4D30 JUMP JUMPDEST SWAP1 POP SWAP2 SWAP1 POP JUMP JUMPDEST PUSH2 0x4D5C DUP2 PUSH2 0x4D42 JUMP JUMPDEST DUP3 MSTORE POP POP JUMP JUMPDEST PUSH0 PUSH1 0x40 DUP3 ADD SWAP1 POP PUSH2 0x4D75 PUSH0 DUP4 ADD DUP6 PUSH2 0x4D53 JUMP JUMPDEST PUSH2 0x4D82 PUSH1 0x20 DUP4 ADD DUP5 PUSH2 0x4AEF JUMP JUMPDEST SWAP4 SWAP3 POP POP POP JUMP JUMPDEST PUSH0 DUP1 PUSH0 DUP1 PUSH1 0x80 DUP6 DUP8 SUB SLT ISZERO PUSH2 0x4DA1 JUMPI PUSH2 0x4DA0 PUSH2 0x43EB JUMP JUMPDEST JUMPDEST PUSH0 PUSH2 0x4DAE DUP8 DUP3 DUP9 ADD PUSH2 0x4602 JUMP JUMPDEST SWAP5 POP POP PUSH1 0x20 PUSH2 0x4DBF DUP8 DUP3 DUP9 ADD PUSH2 0x4602 JUMP JUMPDEST SWAP4 POP POP PUSH1 0x40 PUSH2 0x4DD0 DUP8 DUP3 DUP9 ADD PUSH2 0x4412 JUMP JUMPDEST SWAP3 POP POP PUSH1 0x60 DUP6 ADD CALLDATALOAD PUSH8 0xFFFFFFFFFFFFFFFF DUP2 GT ISZERO PUSH2 0x4DF1 JUMPI PUSH2 0x4DF0 PUSH2 0x43EF JUMP JUMPDEST JUMPDEST PUSH2 0x4DFD DUP8 DUP3 DUP9 ADD PUSH2 0x4A37 JUMP JUMPDEST SWAP2 POP POP SWAP3 SWAP6 SWAP2 SWAP5 POP SWAP3 POP JUMP JUMPDEST PUSH0 PUSH1 0xC0 DUP3 ADD SWAP1 POP PUSH2 0x4E1C PUSH0 DUP4 ADD DUP10 PUSH2 0x4AEF JUMP JUMPDEST PUSH2 0x4E29 PUSH1 0x20 DUP4 ADD DUP9 PUSH2 0x4AEF JUMP JUMPDEST PUSH2 0x4E36 PUSH1 0x40 DUP4 ADD DUP8 PUSH2 0x4AEF JUMP JUMPDEST PUSH2 0x4E43 PUSH1 0x60 DUP4 ADD DUP7 PUSH2 0x4AEF JUMP JUMPDEST PUSH2 0x4E50 PUSH1 0x80 DUP4 ADD DUP6 PUSH2 0x4AEF JUMP JUMPDEST DUP2 DUP2 SUB PUSH1 0xA0 DUP4 ADD MSTORE PUSH2 0x4E62 DUP2 DUP5 PUSH2 0x453C JUMP JUMPDEST SWAP1 POP SWAP8 SWAP7 POP POP POP POP POP POP POP JUMP JUMPDEST PUSH0 DUP1 PUSH1 0x40 DUP4 DUP6 SUB SLT ISZERO PUSH2 0x4E85 JUMPI PUSH2 0x4E84 PUSH2 0x43EB JUMP JUMPDEST JUMPDEST PUSH0 PUSH2 0x4E92 DUP6 DUP3 DUP7 ADD PUSH2 0x4602 JUMP JUMPDEST SWAP3 POP POP PUSH1 0x20 PUSH2 0x4EA3 DUP6 DUP3 DUP7 ADD PUSH2 0x4602 JUMP JUMPDEST SWAP2 POP POP SWAP3 POP SWAP3 SWAP1 POP JUMP JUMPDEST PUSH32 0x4E6F74206F776E65720000000000000000000000000000000000000000000000 PUSH0 DUP3 ADD MSTORE POP JUMP JUMPDEST PUSH0 PUSH2 0x4EE1 PUSH1 0x9 DUP4 PUSH2 0x450E JUMP JUMPDEST SWAP2 POP PUSH2 0x4EEC DUP3 PUSH2 0x4EAD JUMP JUMPDEST PUSH1 0x20 DUP3 ADD SWAP1 POP SWAP2 SWAP1 POP JUMP JUMPDEST PUSH0 PUSH1 0x20 DUP3 ADD SWAP1 POP DUP2 DUP2 SUB PUSH0 DUP4 ADD MSTORE PUSH2 0x4F0E DUP2 PUSH2 0x4ED5 JUMP JUMPDEST SWAP1 POP SWAP2 SWAP1 POP JUMP JUMPDEST PUSH32 0x496E76616C69642067726F777468207374616765000000000000000000000000 PUSH0 DUP3 ADD MSTORE POP JUMP JUMPDEST PUSH0 PUSH2 0x4F49 PUSH1 0x14 DUP4 PUSH2 0x450E JUMP JUMPDEST SWAP2 POP PUSH2 0x4F54 DUP3 PUSH2 0x4F15 JUMP JUMPDEST PUSH1 0x20 DUP3 ADD SWAP1 POP SWAP2 SWAP1 POP JUMP JUMPDEST PUSH0 PUSH1 0x20 DUP3 ADD SWAP1 POP DUP2 DUP2 SUB PUSH0 DUP4 ADD MSTORE PUSH2 0x4F76 DUP2 PUSH2 0x4F3D JUMP JUMPDEST SWAP1 POP SWAP2 SWAP1 POP JUMP JUMPDEST PUSH32 0x4E487B7100000000000000000000000000000000000000000000000000000000 PUSH0 MSTORE PUSH1 0x22 PUSH1 0x4 MSTORE PUSH1 0x24 PUSH0 REVERT JUMPDEST PUSH0 PUSH1 0x2 DUP3 DIV SWAP1 POP PUSH1 0x1 DUP3 AND DUP1 PUSH2 0x4FC1 JUMPI PUSH1 0x7F DUP3 AND SWAP2 POP JUMPDEST PUSH1 0x20 DUP3 LT DUP2 SUB PUSH2 0x4FD4 JUMPI PUSH2 0x4FD3 PUSH2 0x4F7D JUMP JUMPDEST JUMPDEST POP SWAP2 SWAP1 POP JUMP JUMPDEST PUSH0 DUP3 SWAP1 POP SWAP3 SWAP2 POP POP JUMP JUMPDEST PUSH0 DUP2 SWAP1 POP DUP2 PUSH0 MSTORE PUSH1 0x20 PUSH0 KECCAK256 SWAP1 POP SWAP2 SWAP1 POP JUMP JUMPDEST PUSH0 PUSH1 0x20 PUSH1 0x1F DUP4 ADD DIV SWAP1 POP SWAP2 SWAP1 POP JUMP JUMPDEST PUSH0 DUP3 DUP3 SHL SWAP1 POP SWAP3 SWAP2 POP POP JUMP JUMPDEST PUSH0 PUSH1 0x8 DUP4 MUL PUSH2 0x5040 PUSH32 0xFFFFFFFFFFFFFFFFFFFFFFFFFFFFFFFFFFFFFFFFFFFFFFFFFFFFFFFFFFFFFFFF DUP3 PUSH2 0x5005 JUMP JUMPDEST PUSH2 0x504A DUP7 DUP4 PUSH2 0x5005 JUMP JUMPDEST SWAP6 POP DUP1 NOT DUP5 AND SWAP4 POP DUP1 DUP7 AND DUP5 OR SWAP3 POP POP POP SWAP4 SWAP3 POP POP POP JUMP JUMPDEST PUSH0 DUP2 SWAP1 POP SWAP2 SWAP1 POP JUMP JUMPDEST PUSH0 PUSH2 0x5085 PUSH2 0x5080 PUSH2 0x507B DUP5 PUSH2 0x43F3 JUMP JUMPDEST PUSH2 0x5062 JUMP JUMPDEST PUSH2 0x43F3 JUMP JUMPDEST SWAP1 POP SWAP2 SWAP1 POP JUMP JUMPDEST PUSH0 DUP2 SWAP1 POP SWAP2 SWAP1 POP JUMP JUMPDEST PUSH2 0x509E DUP4 PUSH2 0x506B JUMP JUMPDEST PUSH2 0x50B2 PUSH2 0x50AA DUP3 PUSH2 0x508C JUMP JUMPDEST DUP5 DUP5 SLOAD PUSH2 0x5011 JUMP JUMPDEST DUP3 SSTORE POP POP POP POP JUMP JUMPDEST PUSH0 SWAP1 JUMP JUMPDEST PUSH2 0x50C6 PUSH2 0x50BA JUMP JUMPDEST PUSH2 0x50D1 DUP2 DUP5 DUP5 PUSH2 0x5095 JUMP JUMPDEST POP POP POP JUMP JUMPDEST JUMPDEST DUP2 DUP2 LT ISZERO PUSH2 0x50F4 JUMPI PUSH2 0x50E9 PUSH0 DUP3 PUSH2 0x50BE JUMP JUMPDEST PUSH1 0x1 DUP2 ADD SWAP1 POP PUSH2 0x50D7 JUMP JUMPDEST POP POP JUMP JUMPDEST PUSH1 0x1F DUP3 GT ISZERO PUSH2 0x5139 JUMPI PUSH2 0x510A DUP2 PUSH2 0x4FE4 JUMP JUMPDEST PUSH2 0x5113 DUP5 PUSH2 0x4FF6 JUMP JUMPDEST DUP2 ADD PUSH1 0x20 DUP6 LT ISZERO PUSH2 0x5122 JUMPI DUP2 SWAP1 POP JUMPDEST PUSH2 0x5136 PUSH2 0x512E DUP6 PUSH2 0x4FF6 JUMP JUMPDEST DUP4 ADD DUP3 PUSH2 0x50D6 JUMP JUMPDEST POP POP JUMPDEST POP POP POP JUMP JUMPDEST PUSH0 DUP3 DUP3 SHR SWAP1 POP SWAP3 SWAP2 POP POP JUMP JUMPDEST PUSH0 PUSH2 0x5159 PUSH0 NOT DUP5 PUSH1 0x8 MUL PUSH2 0x513E JUMP JUMPDEST NOT DUP1 DUP4 AND SWAP2 POP POP SWAP3 SWAP2 POP POP JUMP JUMPDEST PUSH0 PUSH2 0x5171 DUP4 DUP4 PUSH2 0x514A JUMP JUMPDEST SWAP2 POP DUP3 PUSH1 0x2 MUL DUP3 OR SWAP1 POP SWAP3 SWAP2 POP POP JUMP JUMPDEST PUSH2 0x518B DUP4 DUP4 PUSH2 0x4FDA JUMP JUMPDEST PUSH8 0xFFFFFFFFFFFFFFFF DUP2 GT ISZERO PUSH2 0x51A4 JUMPI PUSH2 0x51A3 PUSH2 0x4704 JUMP JUMPDEST JUMPDEST PUSH2 0x51AE DUP3 SLOAD PUSH2 0x4FAA JUMP JUMPDEST PUSH2 0x51B9 DUP3 DUP3 DUP6 PUSH2 0x50F8 JUMP JUMPDEST PUSH0 PUSH1 0x1F DUP4 GT PUSH1 0x1 DUP2 EQ PUSH2 0x51E6 JUMPI PUSH0 DUP5 ISZERO PUSH2 0x51D4 JUMPI DUP3 DUP8 ADD CALLDATALOAD SWAP1 POP JUMPDEST PUSH2 0x51DE DUP6 DUP3 PUSH2 0x5166 JUMP JUMPDEST DUP7 SSTORE POP PUSH2 0x5245 JUMP JUMPDEST PUSH1 0x1F NOT DUP5 AND PUSH2 0x51F4 DUP7 PUSH2 0x4FE4 JUMP JUMPDEST PUSH0 JUMPDEST DUP3 DUP2 LT ISZERO PUSH2 0x521B JUMPI DUP5 DUP10 ADD CALLDATALOAD DUP3 SSTORE PUSH1 0x1 DUP3 ADD SWAP2 POP PUSH1 0x20 DUP6 ADD SWAP5 POP PUSH1 0x20 DUP2 ADD SWAP1 POP PUSH2 0x51F6 JUMP JUMPDEST DUP7 DUP4 LT ISZERO PUSH2 0x5238 JUMPI DUP5 DUP10 ADD CALLDATALOAD PUSH2 0x5234 PUSH1 0x1F DUP10 AND DUP3 PUSH2 0x514A JUMP JUMPDEST DUP4 SSTORE POP JUMPDEST PUSH1 0x1 PUSH1 0x2 DUP9 MUL ADD DUP9 SSTORE POP POP POP JUMPDEST POP POP POP POP POP POP POP JUMP JUMPDEST PUSH32 0x4E487B7100000000000000000000000000000000000000000000000000000000 PUSH0 MSTORE PUSH1 0x11 PUSH1 0x4 MSTORE PUSH1 0x24 PUSH0 REVERT JUMPDEST PUSH0 PUSH2 0x5285 DUP3 PUSH2 0x43F3 JUMP JUMPDEST SWAP2 POP PUSH2 0x5290 DUP4 PUSH2 0x43F3 JUMP JUMPDEST SWAP3 POP DUP3 DUP3 ADD SWAP1 POP DUP1 DUP3 GT ISZERO PUSH2 0x52A8 JUMPI PUSH2 0x52A7 PUSH2 0x524E JUMP JUMPDEST JUMPDEST SWAP3 SWAP2 POP POP JUMP JUMPDEST PUSH32 0x556E61626C6520746F2065766F6C766500000000000000000000000000000000 PUSH0 DUP3 ADD MSTORE POP JUMP JUMPDEST PUSH0 PUSH2 0x52E2 PUSH1 0x10 DUP4 PUSH2 0x450E JUMP JUMPDEST SWAP2 POP PUSH2 0x52ED DUP3 PUSH2 0x52AE JUMP JUMPDEST PUSH1 0x20 DUP3 ADD SWAP1 POP SWAP2 SWAP1 POP JUMP JUMPDEST PUSH0 PUSH1 0x20 DUP3 ADD SWAP1 POP DUP2 DUP2 SUB PUSH0 DUP4 ADD MSTORE PUSH2 0x530F DUP2 PUSH2 0x52D6 JUMP JUMPDEST SWAP1 POP SWAP2 SWAP1 POP JUMP JUMPDEST PUSH0 DUP2 SWAP1 POP SWAP2 SWAP1 POP JUMP JUMPDEST PUSH0 PUSH8 0xFFFFFFFFFFFFFFFF DUP3 AND SWAP1 POP SWAP2 SWAP1 POP JUMP JUMPDEST PUSH0 PUSH2 0x534C PUSH2 0x5347 PUSH2 0x5342 DUP5 PUSH2 0x5316 JUMP JUMPDEST PUSH2 0x5062 JUMP JUMPDEST PUSH2 0x531F JUMP JUMPDEST SWAP1 POP SWAP2 SWAP1 POP JUMP JUMPDEST PUSH2 0x535C DUP2 PUSH2 0x5332 JUMP JUMPDEST DUP3 MSTORE POP POP JUMP JUMPDEST PUSH0 PUSH1 0x20 DUP3 ADD SWAP1 POP PUSH2 0x5375 PUSH0 DUP4 ADD DUP5 PUSH2 0x5353 JUMP JUMPDEST SWAP3 SWAP2 POP POP JUMP JUMPDEST PUSH0 PUSH1 0x60 DUP3 ADD SWAP1 POP PUSH2 0x538E PUSH0 DUP4 ADD DUP7 PUSH2 0x45C4 JUMP JUMPDEST PUSH2 0x539B PUSH1 0x20 DUP4 ADD DUP6 PUSH2 0x4AEF JUMP JUMPDEST PUSH2 0x53A8 PUSH1 0x40 DUP4 ADD DUP5 PUSH2 0x45C4 JUMP JUMPDEST SWAP5 SWAP4 POP POP POP POP JUMP JUMPDEST PUSH0 PUSH2 0x53BA DUP3 PUSH2 0x43F3 JUMP JUMPDEST SWAP2 POP PUSH32 0xFFFFFFFFFFFFFFFFFFFFFFFFFFFFFFFFFFFFFFFFFFFFFFFFFFFFFFFFFFFFFFFF DUP3 SUB PUSH2 0x53EC JUMPI PUSH2 0x53EB PUSH2 0x524E JUMP JUMPDEST JUMPDEST PUSH1 0x1 DUP3 ADD SWAP1 POP SWAP2 SWAP1 POP JUMP JUMPDEST PUSH32 0x5072656D69756D206D696E74696E67206973206E6F7420656E61626C65640000 PUSH0 DUP3 ADD MSTORE POP JUMP JUMPDEST PUSH0 PUSH2 0x542B PUSH1 0x1E DUP4 PUSH2 0x450E JUMP JUMPDEST SWAP2 POP PUSH2 0x5436 DUP3 PUSH2 0x53F7 JUMP JUMPDEST PUSH1 0x20 DUP3 ADD SWAP1 POP SWAP2 SWAP1 POP JUMP JUMPDEST PUSH0 PUSH1 0x20 DUP3 ADD SWAP1 POP DUP2 DUP2 SUB PUSH0 DUP4 ADD MSTORE PUSH2 0x5458 DUP2 PUSH2 0x541F JUMP JUMPDEST SWAP1 POP SWAP2 SWAP1 POP JUMP JUMPDEST PUSH32 0x4E487B7100000000000000000000000000000000000000000000000000000000 PUSH0 MSTORE PUSH1 0x32 PUSH1 0x4 MSTORE PUSH1 0x24 PUSH0 REVERT JUMPDEST PUSH32 0x496E636573740000000000000000000000000000000000000000000000000000 PUSH0 DUP3 ADD MSTORE POP JUMP JUMPDEST PUSH0 PUSH2 0x54C0 PUSH1 0x6 DUP4 PUSH2 0x450E JUMP JUMPDEST SWAP2 POP PUSH2 0x54CB DUP3 PUSH2 0x548C JUMP JUMPDEST PUSH1 0x20 DUP3 ADD SWAP1 POP SWAP2 SWAP1 POP JUMP JUMPDEST PUSH0 PUSH1 0x20 DUP3 ADD SWAP1 POP DUP2 DUP2 SUB PUSH0 DUP4 ADD MSTORE PUSH2 0x54ED DUP2 PUSH2 0x54B4 JUMP JUMPDEST SWAP1 POP SWAP2 SWAP1 POP JUMP JUMPDEST PUSH32 0x4272656564696E67206E6F7420616C6C6F776564207965740000000000000000 PUSH0 DUP3 ADD MSTORE POP JUMP JUMPDEST PUSH0 PUSH2 0x5528 PUSH1 0x18 DUP4 PUSH2 0x450E JUMP JUMPDEST SWAP2 POP PUSH2 0x5533 DUP3 PUSH2 0x54F4 JUMP JUMPDEST PUSH1 0x20 DUP3 ADD SWAP1 POP SWAP2 SWAP1 POP JUMP JUMPDEST PUSH0 PUSH1 0x20 DUP3 ADD SWAP1 POP DUP2 DUP2 SUB PUSH0 DUP4 ADD MSTORE PUSH2 0x5555 DUP2 PUSH2 0x551C JUMP JUMPDEST SWAP1 POP SWAP2 SWAP1 POP JUMP JUMPDEST PUSH32 0x53616D652067656E646572000000000000000000000000000000000000000000 PUSH0 DUP3 ADD MSTORE POP JUMP JUMPDEST PUSH0 PUSH2 0x5590 PUSH1 0xB DUP4 PUSH2 0x450E JUMP JUMPDEST SWAP2 POP PUSH2 0x559B DUP3 PUSH2 0x555C JUMP JUMPDEST PUSH1 0x20 DUP3 ADD SWAP1 POP SWAP2 SWAP1 POP JUMP JUMPDEST PUSH0 PUSH1 0x20 DUP3 ADD SWAP1 POP DUP2 DUP2 SUB PUSH0 DUP4 ADD MSTORE PUSH2 0x55BD DUP2 PUSH2 0x5584 JUMP JUMPDEST SWAP1 POP SWAP2 SWAP1 POP JUMP JUMPDEST PUSH0 PUSH2 0x55CE DUP3 PUSH2 0x43F3 JUMP JUMPDEST SWAP2 POP PUSH2 0x55D9 DUP4 PUSH2 0x43F3 JUMP JUMPDEST SWAP3 POP DUP3 DUP3 SUB SWAP1 POP DUP2 DUP2 GT ISZERO PUSH2 0x55F1 JUMPI PUSH2 0x55F0 PUSH2 0x524E JUMP JUMPDEST JUMPDEST SWAP3 SWAP2 POP POP JUMP JUMPDEST PUSH0 DUP2 SWAP1 POP SWAP3 SWAP2 POP POP JUMP JUMPDEST PUSH0 DUP2 SLOAD PUSH2 0x560D DUP2 PUSH2 0x4FAA JUMP JUMPDEST PUSH2 0x5617 DUP2 DUP7 PUSH2 0x55F7 JUMP JUMPDEST SWAP5 POP PUSH1 0x1 DUP3 AND PUSH0 DUP2 EQ PUSH2 0x5631 JUMPI PUSH1 0x1 DUP2 EQ PUSH2 0x5646 JUMPI PUSH2 0x5678 JUMP JUMPDEST PUSH1 0xFF NOT DUP4 AND DUP7 MSTORE DUP2 ISZERO ISZERO DUP3 MUL DUP7 ADD SWAP4 POP PUSH2 0x5678 JUMP JUMPDEST PUSH2 0x564F DUP6 PUSH2 0x4FE4 JUMP JUMPDEST PUSH0 JUMPDEST DUP4 DUP2 LT ISZERO PUSH2 0x5670 JUMPI DUP2 SLOAD DUP2 DUP10 ADD MSTORE PUSH1 0x1 DUP3 ADD SWAP2 POP PUSH1 0x20 DUP2 ADD SWAP1 POP PUSH2 0x5651 JUMP JUMPDEST DUP4 DUP9 ADD SWAP6 POP POP POP JUMPDEST POP POP POP SWAP3 SWAP2 POP POP JUMP JUMPDEST PUSH0 PUSH2 0x568B DUP3 PUSH2 0x4504 JUMP JUMPDEST PUSH2 0x5695 DUP2 DUP6 PUSH2 0x55F7 JUMP JUMPDEST SWAP4 POP PUSH2 0x56A5 DUP2 DUP6 PUSH1 0x20 DUP7 ADD PUSH2 0x451E JUMP JUMPDEST DUP1 DUP5 ADD SWAP2 POP POP SWAP3 SWAP2 POP POP JUMP JUMPDEST PUSH0 PUSH2 0x56BC DUP3 DUP6 PUSH2 0x5601 JUMP JUMPDEST SWAP2 POP PUSH2 0x56C8 DUP3 DUP5 PUSH2 0x5681 JUMP JUMPDEST SWAP2 POP DUP2 SWAP1 POP SWAP4 SWAP3 POP POP POP JUMP JUMPDEST PUSH32 0x5F65676700000000000000000000000000000000000000000000000000000000 PUSH0 DUP3 ADD MSTORE POP JUMP JUMPDEST PUSH0 PUSH2 0x5708 PUSH1 0x4 DUP4 PUSH2 0x55F7 JUMP JUMPDEST SWAP2 POP PUSH2 0x5713 DUP3 PUSH2 0x56D4 JUMP JUMPDEST PUSH1 0x4 DUP3 ADD SWAP1 POP SWAP2 SWAP1 POP JUMP JUMPDEST PUSH0 PUSH2 0x5729 DUP3 DUP5 PUSH2 0x5601 JUMP JUMPDEST SWAP2 POP PUSH2 0x5734 DUP3 PUSH2 0x56FC JUMP JUMPDEST SWAP2 POP DUP2 SWAP1 POP SWAP3 SWAP2 POP POP JUMP JUMPDEST PUSH32 0x5F00000000000000000000000000000000000000000000000000000000000000 PUSH0 DUP3 ADD MSTORE POP JUMP JUMPDEST PUSH0 PUSH2 0x5773 PUSH1 0x1 DUP4 PUSH2 0x55F7 JUMP JUMPDEST SWAP2 POP PUSH2 0x577E DUP3 PUSH2 0x573F JUMP JUMPDEST PUSH1 0x1 DUP3 ADD SWAP1 POP SWAP2 SWAP1 POP JUMP JUMPDEST PUSH0 PUSH2 0x5794 DUP3 DUP8 PUSH2 0x5601 JUMP JUMPDEST SWAP2 POP PUSH2 0x579F DUP3 PUSH2 0x5767 JUMP JUMPDEST SWAP2 POP PUSH2 0x57AB DUP3 DUP7 PUSH2 0x5681 JUMP JUMPDEST SWAP2 POP PUSH2 0x57B6 DUP3 PUSH2 0x5767 JUMP JUMPDEST SWAP2 POP PUSH2 0x57C2 DUP3 DUP6 PUSH2 0x5681 JUMP JUMPDEST SWAP2 POP PUSH2 0x57CD DUP3 PUSH2 0x5767 JUMP JUMPDEST SWAP2 POP PUSH2 0x57D9 DUP3 DUP5 PUSH2 0x5681 JUMP JUMPDEST SWAP2 POP DUP2 SWAP1 POP SWAP6 SWAP5 POP POP POP POP POP JUMP JUMPDEST PUSH32 0x646174613A6170706C69636174696F6E2F6A736F6E3B757466382C7B226E616D PUSH0 DUP3 ADD MSTORE PUSH32 0x65223A2022447261676F6E202300000000000000000000000000000000000000 PUSH1 0x20 DUP3 ADD MSTORE POP JUMP JUMPDEST PUSH0 PUSH2 0x5841 PUSH1 0x2D DUP4 PUSH2 0x55F7 JUMP JUMPDEST SWAP2 POP PUSH2 0x584C DUP3 PUSH2 0x57E7 JUMP JUMPDEST PUSH1 0x2D DUP3 ADD SWAP1 POP SWAP2 SWAP1 POP JUMP JUMPDEST PUSH32 0x222C2265787465726E616C5F75726C223A2268747470733A2F2F676974687562 PUSH0 DUP3 ADD MSTORE PUSH32 0x2E636F6D2F626368736F6C2F43727970746F447261676F6E222C22696D616765 PUSH1 0x20 DUP3 ADD MSTORE PUSH32 0x223A220000000000000000000000000000000000000000000000000000000000 PUSH1 0x40 DUP3 ADD MSTORE POP JUMP JUMPDEST PUSH0 PUSH2 0x58D7 PUSH1 0x43 DUP4 PUSH2 0x55F7 JUMP JUMPDEST SWAP2 POP PUSH2 0x58E2 DUP3 PUSH2 0x5857 JUMP JUMPDEST PUSH1 0x43 DUP3 ADD SWAP1 POP SWAP2 SWAP1 POP JUMP JUMPDEST PUSH32 0x222C2261747472696275746573223A5B7B2274726169745F74797065223A2244 PUSH0 DUP3 ADD MSTORE PUSH32 0x7261676F6E222C2276616C7565223A2200000000000000000000000000000000 PUSH1 0x20 DUP3 ADD MSTORE POP JUMP JUMPDEST PUSH0 PUSH2 0x5947 PUSH1 0x30 DUP4 PUSH2 0x55F7 JUMP JUMPDEST SWAP2 POP PUSH2 0x5952 DUP3 PUSH2 0x58ED JUMP JUMPDEST PUSH1 0x30 DUP3 ADD SWAP1 POP SWAP2 SWAP1 POP JUMP JUMPDEST PUSH32 0x227D5D7D00000000000000000000000000000000000000000000000000000000 PUSH0 DUP3 ADD MSTORE POP JUMP JUMPDEST PUSH0 PUSH2 0x5991 PUSH1 0x4 DUP4 PUSH2 0x55F7 JUMP JUMPDEST SWAP2 POP PUSH2 0x599C DUP3 PUSH2 0x595D JUMP JUMPDEST PUSH1 0x4 DUP3 ADD SWAP1 POP SWAP2 SWAP1 POP JUMP JUMPDEST PUSH0 PUSH2 0x59B1 DUP3 PUSH2 0x5835 JUMP JUMPDEST SWAP2 POP PUSH2 0x59BD DUP3 DUP9 PUSH2 0x5681 JUMP JUMPDEST SWAP2 POP PUSH2 0x59C8 DUP3 PUSH2 0x58CB JUMP JUMPDEST SWAP2 POP PUSH2 0x59D4 DUP3 DUP8 PUSH2 0x5601 JUMP JUMPDEST SWAP2 POP PUSH2 0x59E0 DUP3 DUP7 PUSH2 0x5681 JUMP JUMPDEST SWAP2 POP PUSH2 0x59EC DUP3 DUP6 PUSH2 0x5601 JUMP JUMPDEST SWAP2 POP PUSH2 0x59F7 DUP3 PUSH2 0x593B JUMP JUMPDEST SWAP2 POP PUSH2 0x5A03 DUP3 DUP5 PUSH2 0x5601 JUMP JUMPDEST SWAP2 POP PUSH2 0x5A0E DUP3 PUSH2 0x5985 JUMP JUMPDEST SWAP2 POP DUP2 SWAP1 POP SWAP7 SWAP6 POP POP POP POP POP POP JUMP JUMPDEST PUSH32 0x4861746368000000000000000000000000000000000000000000000000000000 PUSH0 DUP3 ADD MSTORE POP JUMP JUMPDEST PUSH0 PUSH2 0x5A51 PUSH1 0x5 DUP4 PUSH2 0x450E JUMP JUMPDEST SWAP2 POP PUSH2 0x5A5C DUP3 PUSH2 0x5A1D JUMP JUMPDEST PUSH1 0x20 DUP3 ADD SWAP1 POP SWAP2 SWAP1 POP JUMP JUMPDEST PUSH0 PUSH1 0x20 DUP3 ADD SWAP1 POP DUP2 DUP2 SUB PUSH0 DUP4 ADD MSTORE PUSH2 0x5A7E DUP2 PUSH2 0x5A45 JUMP JUMPDEST SWAP1 POP SWAP2 SWAP1 POP JUMP JUMPDEST PUSH32 0x48617463686C696E670000000000000000000000000000000000000000000000 PUSH0 DUP3 ADD MSTORE POP JUMP JUMPDEST PUSH0 PUSH2 0x5AB9 PUSH1 0x9 DUP4 PUSH2 0x450E JUMP JUMPDEST SWAP2 POP PUSH2 0x5AC4 DUP3 PUSH2 0x5A85 JUMP JUMPDEST PUSH1 0x20 DUP3 ADD SWAP1 POP SWAP2 SWAP1 POP JUMP JUMPDEST PUSH0 PUSH1 0x20 DUP3 ADD SWAP1 POP DUP2 DUP2 SUB PUSH0 DUP4 ADD MSTORE PUSH2 0x5AE6 DUP2 PUSH2 0x5AAD JUMP JUMPDEST SWAP1 POP SWAP2 SWAP1 POP JUMP JUMPDEST PUSH32 0x4164756C74000000000000000000000000000000000000000000000000000000 PUSH0 DUP3 ADD MSTORE POP JUMP JUMPDEST PUSH0 PUSH2 0x5B21 PUSH1 0x5 DUP4 PUSH2 0x450E JUMP JUMPDEST SWAP2 POP PUSH2 0x5B2C DUP3 PUSH2 0x5AED JUMP JUMPDEST PUSH1 0x20 DUP3 ADD SWAP1 POP SWAP2 SWAP1 POP JUMP JUMPDEST PUSH0 PUSH1 0x20 DUP3 ADD SWAP1 POP DUP2 DUP2 SUB PUSH0 DUP4 ADD MSTORE PUSH2 0x5B4E DUP2 PUSH2 0x5B15 JUMP JUMPDEST SWAP1 POP SWAP2 SWAP1 POP JUMP JUMPDEST PUSH0 DUP2 SWAP1 POP SWAP2 SWAP1 POP JUMP JUMPDEST PUSH2 0x5B6F PUSH2 0x5B6A DUP3 PUSH2 0x43F3 JUMP JUMPDEST PUSH2 0x5B55 JUMP JUMPDEST DUP3 MSTORE POP POP JUMP JUMPDEST PUSH0 DUP2 PUSH1 0x60 SHL SWAP1 POP SWAP2 SWAP1 POP JUMP JUMPDEST PUSH0 PUSH2 0x5B8B DUP3 PUSH2 0x5B75 JUMP JUMPDEST SWAP1 POP SWAP2 SWAP1 POP JUMP JUMPDEST PUSH0 PUSH2 0x5B9C DUP3 PUSH2 0x5B81 JUMP JUMPDEST SWAP1 POP SWAP2 SWAP1 POP JUMP JUMPDEST PUSH2 0x5BB4 PUSH2 0x5BAF DUP3 PUSH2 0x45B3 JUMP JUMPDEST PUSH2 0x5B92 JUMP JUMPDEST DUP3 MSTORE POP POP JUMP JUMPDEST PUSH0 PUSH2 0x5BC5 DUP3 DUP7 PUSH2 0x5B5E JUMP JUMPDEST PUSH1 0x20 DUP3 ADD SWAP2 POP PUSH2 0x5BD5 DUP3 DUP6 PUSH2 0x5BA3 JUMP JUMPDEST PUSH1 0x14 DUP3 ADD SWAP2 POP PUSH2 0x5BE5 DUP3 DUP5 PUSH2 0x5B5E JUMP JUMPDEST PUSH1 0x20 DUP3 ADD SWAP2 POP DUP2 SWAP1 POP SWAP5 SWAP4 POP POP POP POP JUMP JUMPDEST PUSH32 0x4E487B7100000000000000000000000000000000000000000000000000000000 PUSH0 MSTORE PUSH1 0x12 PUSH1 0x4 MSTORE PUSH1 0x24 PUSH0 REVERT JUMPDEST PUSH0 PUSH2 0x5C2D DUP3 PUSH2 0x43F3 JUMP JUMPDEST SWAP2 POP PUSH2 0x5C38 DUP4 PUSH2 0x43F3 JUMP JUMPDEST SWAP3 POP DUP3 PUSH2 0x5C48 JUMPI PUSH2 0x5C47 PUSH2 0x5BF6 JUMP JUMPDEST JUMPDEST DUP3 DUP3 MOD SWAP1 POP SWAP3 SWAP2 POP POP JUMP JUMPDEST PUSH2 0x5C5C DUP3 PUSH2 0x4504 JUMP JUMPDEST PUSH8 0xFFFFFFFFFFFFFFFF DUP2 GT ISZERO PUSH2 0x5C75 JUMPI PUSH2 0x5C74 PUSH2 0x4704 JUMP JUMPDEST JUMPDEST PUSH2 0x5C7F DUP3 SLOAD PUSH2 0x4FAA JUMP JUMPDEST PUSH2 0x5C8A DUP3 DUP3 DUP6 PUSH2 0x50F8 JUMP JUMPDEST PUSH0 PUSH1 0x20 SWAP1 POP PUSH1 0x1F DUP4 GT PUSH1 0x1 DUP2 EQ PUSH2 0x5CBB JUMPI PUSH0 DUP5 ISZERO PUSH2 0x5CA9 JUMPI DUP3 DUP8 ADD MLOAD SWAP1 POP JUMPDEST PUSH2 0x5CB3 DUP6 DUP3 PUSH2 0x5166 JUMP JUMPDEST DUP7 SSTORE POP PUSH2 0x5D1A JUMP JUMPDEST PUSH1 0x1F NOT DUP5 AND PUSH2 0x5CC9 DUP7 PUSH2 0x4FE4 JUMP JUMPDEST PUSH0 JUMPDEST DUP3 DUP2 LT ISZERO PUSH2 0x5CF0 JUMPI DUP5 DUP10 ADD MLOAD DUP3 SSTORE PUSH1 0x1 DUP3 ADD SWAP2 POP PUSH1 0x20 DUP6 ADD SWAP5 POP PUSH1 0x20 DUP2 ADD SWAP1 POP PUSH2 0x5CCB JUMP JUMPDEST DUP7 DUP4 LT ISZERO PUSH2 0x5D0D JUMPI DUP5 DUP10 ADD MLOAD PUSH2 0x5D09 PUSH1 0x1F DUP10 AND DUP3 PUSH2 0x514A JUMP JUMPDEST DUP4 SSTORE POP JUMPDEST PUSH1 0x1 PUSH1 0x2 DUP9 MUL ADD DUP9 SSTORE POP POP POP JUMPDEST POP POP POP POP POP POP JUMP JUMPDEST PUSH2 0x5D2B DUP2 PUSH2 0x4ABE JUMP JUMPDEST DUP2 EQ PUSH2 0x5D35 JUMPI PUSH0 DUP1 REVERT JUMPDEST POP JUMP JUMPDEST PUSH0 DUP2 MLOAD SWAP1 POP PUSH2 0x5D46 DUP2 PUSH2 0x5D22 JUMP JUMPDEST SWAP3 SWAP2 POP POP JUMP JUMPDEST PUSH0 PUSH1 0x20 DUP3 DUP5 SUB SLT ISZERO PUSH2 0x5D61 JUMPI PUSH2 0x5D60 PUSH2 0x43EB JUMP JUMPDEST JUMPDEST PUSH0 PUSH2 0x5D6E DUP5 DUP3 DUP6 ADD PUSH2 0x5D38 JUMP JUMPDEST SWAP2 POP POP SWAP3 SWAP2 POP POP JUMP JUMPDEST PUSH0 DUP2 MLOAD SWAP1 POP SWAP2 SWAP1 POP JUMP JUMPDEST PUSH0 DUP3 DUP3 MSTORE PUSH1 0x20 DUP3 ADD SWAP1 POP SWAP3 SWAP2 POP POP JUMP JUMPDEST PUSH0 PUSH2 0x5D9B DUP3 PUSH2 0x5D77 JUMP JUMPDEST PUSH2 0x5DA5 DUP2 DUP6 PUSH2 0x5D81 JUMP JUMPDEST SWAP4 POP PUSH2 0x5DB5 DUP2 DUP6 PUSH1 0x20 DUP7 ADD PUSH2 0x451E JUMP JUMPDEST PUSH2 0x5DBE DUP2 PUSH2 0x452C JUMP JUMPDEST DUP5 ADD SWAP2 POP POP SWAP3 SWAP2 POP POP JUMP JUMPDEST PUSH0 PUSH1 0x80 DUP3 ADD SWAP1 POP PUSH2 0x5DDC PUSH0 DUP4 ADD DUP8 PUSH2 0x45C4 JUMP JUMPDEST PUSH2 0x5DE9 PUSH1 0x20 DUP4 ADD DUP7 PUSH2 0x45C4 JUMP JUMPDEST PUSH2 0x5DF6 PUSH1 0x40 DUP4 ADD DUP6 PUSH2 0x4AEF JUMP JUMPDEST DUP2 DUP2 SUB PUSH1 0x60 DUP4 ADD MSTORE PUSH2 0x5E08 DUP2 DUP5 PUSH2 0x5D91 JUMP JUMPDEST SWAP1 POP SWAP6 SWAP5 POP POP POP POP POP JUMP JUMPDEST PUSH0 DUP2 MLOAD SWAP1 POP PUSH2 0x5E21 DUP2 PUSH2 0x447C JUMP JUMPDEST SWAP3 SWAP2 POP POP JUMP JUMPDEST PUSH0 PUSH1 0x20 DUP3 DUP5 SUB SLT ISZERO PUSH2 0x5E3C JUMPI PUSH2 0x5E3B PUSH2 0x43EB JUMP JUMPDEST JUMPDEST PUSH0 PUSH2 0x5E49 DUP5 DUP3 DUP6 ADD PUSH2 0x5E13 JUMP JUMPDEST SWAP2 POP POP SWAP3 SWAP2 POP POP JUMP JUMPDEST PUSH0 PUSH1 0x40 DUP3 ADD SWAP1 POP PUSH2 0x5E65 PUSH0 DUP4 ADD DUP6 PUSH2 0x45C4 JUMP JUMPDEST PUSH2 0x5E72 PUSH1 0x20 DUP4 ADD DUP5 PUSH2 0x4AEF JUMP JUMPDEST SWAP4 SWAP3 POP POP POP JUMP JUMPDEST PUSH0 DUP2 SWAP1 POP SWAP3 SWAP2 POP POP JUMP JUMPDEST PUSH0 PUSH2 0x5E8D DUP3 PUSH2 0x5D77 JUMP JUMPDEST PUSH2 0x5E97 DUP2 DUP6 PUSH2 0x5E79 JUMP JUMPDEST SWAP4 POP PUSH2 0x5EA7 DUP2 DUP6 PUSH1 0x20 DUP7 ADD PUSH2 0x451E JUMP JUMPDEST DUP1 DUP5 ADD SWAP2 POP POP SWAP3 SWAP2 POP POP JUMP JUMPDEST PUSH0 PUSH2 0x5EBE DUP3 DUP5 PUSH2 0x5E83 JUMP JUMPDEST SWAP2 POP DUP2 SWAP1 POP SWAP3 SWAP2 POP POP JUMP INVALID LOG2 PUSH5 0x6970667358 0x22 SLT KECCAK256 CALLDATALOAD DELEGATECALL GAS BLOCKHASH 0xD2 JUMPI 0x29 0xDF SSTORE DUP12 0xDF 0xEB CALLER 0xFC 0xCB BYTE SWAP15 0xC2 0x28 PUSH9 0xBD3C37A2F9970D05B0 SWAP1 ADDMOD 0xF9 PUSH5 0x736F6C6343 STOP ADDMOD BYTE STOP CALLER PUSH1 0x80 PUSH1 0x40 MSTORE PUSH1 0x40 MLOAD PUSH2 0x694 CODESIZE SUB DUP1 PUSH2 0x694 DUP4 CODECOPY DUP2 DUP2 ADD PUSH1 0x40 MSTORE DUP2 ADD SWAP1 PUSH2 0x25 SWAP2 SWAP1 PUSH2 0x4D8 JUMP JUMPDEST PUSH2 0x35 DUP3 DUP3 PUSH2 0x3C PUSH1 0x20 SHL PUSH1 0x20 SHR JUMP JUMPDEST POP POP PUSH2 0x5B4 JUMP JUMPDEST PUSH2 0x4B DUP3 PUSH2 0xC0 PUSH1 0x20 SHL PUSH1 0x20 SHR JUMP JUMPDEST DUP2 PUSH20 0xFFFFFFFFFFFFFFFFFFFFFFFFFFFFFFFFFFFFFFFF AND PUSH32 0xBC7CD75A20EE27FD9ADEBAB32041F755214DBC6BFFA90CC0225B39DA2E5C2D3B PUSH1 0x40 MLOAD PUSH1 0x40 MLOAD DUP1 SWAP2 SUB SWAP1 LOG2 PUSH0 DUP2 MLOAD GT ISZERO PUSH2 0xAD JUMPI PUSH2 0xA7 DUP3 DUP3 PUSH2 0x18F PUSH1 0x20 SHL PUSH1 0x20 SHR JUMP JUMPDEST POP PUSH2 0xBC JUMP JUMPDEST PUSH2 0xBB PUSH2 0x215 PUSH1 0x20 SHL PUSH1 0x20 SHR JUMP JUMPDEST JUMPDEST POP POP JUMP JUMPDEST PUSH0 DUP2 PUSH20 0xFFFFFFFFFFFFFFFFFFFFFFFFFFFFFFFFFFFFFFFF AND EXTCODESIZE SUB PUSH2 0x11B JUMPI DUP1 PUSH1 0x40 MLOAD PUSH32 0x4C9C8CE300000000000000000000000000000000000000000000000000000000 DUP2 MSTORE PUSH1 0x4 ADD PUSH2 0x112 SWAP2 SWAP1 PUSH2 0x541 JUMP JUMPDEST PUSH1 0x40 MLOAD DUP1 SWAP2 SUB SWAP1 REVERT JUMPDEST DUP1 PUSH2 0x14D PUSH32 0x360894A13BA1A3210667C828492DB98DCA3E2076CC3735A920A3CA505D382BBC PUSH0 SHL PUSH2 0x251 PUSH1 0x20 SHL PUSH1 0x20 SHR JUMP JUMPDEST PUSH0 ADD PUSH0 PUSH2 0x100 EXP DUP2 SLOAD DUP2 PUSH20 0xFFFFFFFFFFFFFFFFFFFFFFFFFFFFFFFFFFFFFFFF MUL NOT AND SWAP1 DUP4 PUSH20 0xFFFFFFFFFFFFFFFFFFFFFFFFFFFFFFFFFFFFFFFF AND MUL OR SWAP1 SSTORE POP POP JUMP JUMPDEST PUSH1 0x60 PUSH0 DUP1 DUP5 PUSH20 0xFFFFFFFFFFFFFFFFFFFFFFFFFFFFFFFFFFFFFFFF AND DUP5 PUSH1 0x40 MLOAD PUSH2 0x1B8 SWAP2 SWAP1 PUSH2 0x59E JUMP JUMPDEST PUSH0 PUSH1 0x40 MLOAD DUP1 DUP4 SUB DUP2 DUP6 GAS DELEGATECALL SWAP2 POP POP RETURNDATASIZE DUP1 PUSH0 DUP2 EQ PUSH2 0x1F0 JUMPI PUSH1 0x40 MLOAD SWAP2 POP PUSH1 0x1F NOT PUSH1 0x3F RETURNDATASIZE ADD AND DUP3 ADD PUSH1 0x40 MSTORE RETURNDATASIZE DUP3 MSTORE RETURNDATASIZE PUSH0 PUSH1 0x20 DUP5 ADD RETURNDATACOPY PUSH2 0x1F5 JUMP JUMPDEST PUSH1 0x60 SWAP2 POP JUMPDEST POP SWAP2 POP SWAP2 POP PUSH2 0x20B DUP6 DUP4 DUP4 PUSH2 0x25A PUSH1 0x20 SHL PUSH1 0x20 SHR JUMP JUMPDEST SWAP3 POP POP POP SWAP3 SWAP2 POP POP JUMP JUMPDEST PUSH0 CALLVALUE GT ISZERO PUSH2 0x24F JUMPI PUSH1 0x40 MLOAD PUSH32 0xB398979F00000000000000000000000000000000000000000000000000000000 DUP2 MSTORE PUSH1 0x4 ADD PUSH1 0x40 MLOAD DUP1 SWAP2 SUB SWAP1 REVERT JUMPDEST JUMP JUMPDEST PUSH0 DUP2 SWAP1 POP SWAP2 SWAP1 POP JUMP JUMPDEST PUSH1 0x60 DUP3 PUSH2 0x275 JUMPI PUSH2 0x270 DUP3 PUSH2 0x2ED PUSH1 0x20 SHL PUSH1 0x20 SHR JUMP JUMPDEST PUSH2 0x2E5 JUMP JUMPDEST PUSH0 DUP3 MLOAD EQ DUP1 ISZERO PUSH2 0x29B JUMPI POP PUSH0 DUP5 PUSH20 0xFFFFFFFFFFFFFFFFFFFFFFFFFFFFFFFFFFFFFFFF AND EXTCODESIZE EQ JUMPDEST ISZERO PUSH2 0x2DD JUMPI DUP4 PUSH1 0x40 MLOAD PUSH32 0x9996B31500000000000000000000000000000000000000000000000000000000 DUP2 MSTORE PUSH1 0x4 ADD PUSH2 0x2D4 SWAP2 SWAP1 PUSH2 0x541 JUMP JUMPDEST PUSH1 0x40 MLOAD DUP1 SWAP2 SUB SWAP1 REVERT JUMPDEST DUP2 SWAP1 POP PUSH2 0x2E6 JUMP JUMPDEST JUMPDEST SWAP4 SWAP3 POP POP POP JUMP JUMPDEST PUSH0 DUP2 MLOAD GT ISZERO PUSH2 0x2FF JUMPI DUP1 MLOAD DUP1 DUP3 PUSH1 0x20 ADD REVERT JUMPDEST PUSH1 0x40 MLOAD PUSH32 0x1425EA4200000000000000000000000000000000000000000000000000000000 DUP2 MSTORE PUSH1 0x4 ADD PUSH1 0x40 MLOAD DUP1 SWAP2 SUB SWAP1 REVERT JUMPDEST PUSH0 PUSH1 0x40 MLOAD SWAP1 POP SWAP1 JUMP JUMPDEST PUSH0 DUP1 REVERT JUMPDEST PUSH0 DUP1 REVERT JUMPDEST PUSH0 PUSH20 0xFFFFFFFFFFFFFFFFFFFFFFFFFFFFFFFFFFFFFFFF DUP3 AND SWAP1 POP SWAP2 SWAP1 POP JUMP JUMPDEST PUSH0 PUSH2 0x36B DUP3 PUSH2 0x342 JUMP JUMPDEST SWAP1 POP SWAP2 SWAP1 POP JUMP JUMPDEST PUSH2 0x37B DUP2 PUSH2 0x361 JUMP JUMPDEST DUP2 EQ PUSH2 0x385 JUMPI PUSH0 DUP1 REVERT JUMPDEST POP JUMP JUMPDEST PUSH0 DUP2 MLOAD SWAP1 POP PUSH2 0x396 DUP2 PUSH2 0x372 JUMP JUMPDEST SWAP3 SWAP2 POP POP JUMP JUMPDEST PUSH0 DUP1 REVERT JUMPDEST PUSH0 DUP1 REVERT JUMPDEST PUSH0 PUSH1 0x1F NOT PUSH1 0x1F DUP4 ADD AND SWAP1 POP SWAP2 SWAP1 POP JUMP JUMPDEST PUSH32 0x4E487B7100000000000000000000000000000000000000000000000000000000 PUSH0 MSTORE PUSH1 0x41 PUSH1 0x4 MSTORE PUSH1 0x24 PUSH0 REVERT JUMPDEST PUSH2 0x3EA DUP3 PUSH2 0x3A4 JUMP JUMPDEST DUP2 ADD DUP2 DUP2 LT PUSH8 0xFFFFFFFFFFFFFFFF DUP3 GT OR ISZERO PUSH2 0x409 JUMPI PUSH2 0x408 PUSH2 0x3B4 JUMP JUMPDEST JUMPDEST DUP1 PUSH1 0x40 MSTORE POP POP POP JUMP JUMPDEST PUSH0 PUSH2 0x41B PUSH2 0x331 JUMP JUMPDEST SWAP1 POP PUSH2 0x427 DUP3 DUP3 PUSH2 0x3E1 JUMP JUMPDEST SWAP2 SWAP1 POP JUMP JUMPDEST PUSH0 PUSH8 0xFFFFFFFFFFFFFFFF DUP3 GT ISZERO PUSH2 0x446 JUMPI PUSH2 0x445 PUSH2 0x3B4 JUMP JUMPDEST JUMPDEST PUSH2 0x44F DUP3 PUSH2 0x3A4 JUMP JUMPDEST SWAP1 POP PUSH1 0x20 DUP2 ADD SWAP1 POP SWAP2 SWAP1 POP JUMP JUMPDEST DUP3 DUP2 DUP4 MCOPY PUSH0 DUP4 DUP4 ADD MSTORE POP POP POP JUMP JUMPDEST PUSH0 PUSH2 0x47C PUSH2 0x477 DUP5 PUSH2 0x42C JUMP JUMPDEST PUSH2 0x412 JUMP JUMPDEST SWAP1 POP DUP3 DUP2 MSTORE PUSH1 0x20 DUP2 ADD DUP5 DUP5 DUP5 ADD GT ISZERO PUSH2 0x498 JUMPI PUSH2 0x497 PUSH2 0x3A0 JUMP JUMPDEST JUMPDEST PUSH2 0x4A3 DUP5 DUP3 DUP6 PUSH2 0x45C JUMP JUMPDEST POP SWAP4 SWAP3 POP POP POP JUMP JUMPDEST PUSH0 DUP3 PUSH1 0x1F DUP4 ADD SLT PUSH2 0x4BF JUMPI PUSH2 0x4BE PUSH2 0x39C JUMP JUMPDEST JUMPDEST DUP2 MLOAD PUSH2 0x4CF DUP5 DUP3 PUSH1 0x20 DUP7 ADD PUSH2 0x46A JUMP JUMPDEST SWAP2 POP POP SWAP3 SWAP2 POP POP JUMP JUMPDEST PUSH0 DUP1 PUSH1 0x40 DUP4 DUP6 SUB SLT ISZERO PUSH2 0x4EE JUMPI PUSH2 0x4ED PUSH2 0x33A JUMP JUMPDEST JUMPDEST PUSH0 PUSH2 0x4FB DUP6 DUP3 DUP7 ADD PUSH2 0x388 JUMP JUMPDEST SWAP3 POP POP PUSH1 0x20 DUP4 ADD MLOAD PUSH8 0xFFFFFFFFFFFFFFFF DUP2 GT ISZERO PUSH2 0x51C JUMPI PUSH2 0x51B PUSH2 0x33E JUMP JUMPDEST JUMPDEST PUSH2 0x528 DUP6 DUP3 DUP7 ADD PUSH2 0x4AB JUMP JUMPDEST SWAP2 POP POP SWAP3 POP SWAP3 SWAP1 POP JUMP JUMPDEST PUSH2 0x53B DUP2 PUSH2 0x361 JUMP JUMPDEST DUP3 MSTORE POP POP JUMP JUMPDEST PUSH0 PUSH1 0x20 DUP3 ADD SWAP1 POP PUSH2 0x554 PUSH0 DUP4 ADD DUP5 PUSH2 0x532 JUMP JUMPDEST SWAP3 SWAP2 POP POP JUMP JUMPDEST PUSH0 DUP2 MLOAD SWAP1 POP SWAP2 SWAP1 POP JUMP JUMPDEST PUSH0 DUP2 SWAP1 POP SWAP3 SWAP2 POP POP JUMP JUMPDEST PUSH0 PUSH2 0x578 DUP3 PUSH2 0x55A JUMP JUMPDEST PUSH2 0x582 DUP2 DUP6 PUSH2 0x564 JUMP JUMPDEST SWAP4 POP PUSH2 0x592 DUP2 DUP6 PUSH1 0x20 DUP7 ADD PUSH2 0x45C JUMP JUMPDEST DUP1 DUP5 ADD SWAP2 POP POP SWAP3 SWAP2 POP POP JUMP JUMPDEST PUSH0 PUSH2 0x5A9 DUP3 DUP5 PUSH2 0x56E JUMP JUMPDEST SWAP2 POP DUP2 SWAP1 POP SWAP3 SWAP2 POP POP JUMP JUMPDEST PUSH1 0xD4 DUP1 PUSH2 0x5C0 PUSH0 CODECOPY PUSH0 RETURN INVALID PUSH1 0x80 PUSH1 0x40 MSTORE PUSH1 0xA PUSH1 0xC JUMP JUMPDEST STOP JUMPDEST PUSH1 0x18 PUSH1 0x14 PUSH1 0x1A JUMP JUMPDEST PUSH1 0x26 JUMP JUMPDEST JUMP JUMPDEST PUSH0 PUSH1 0x21 PUSH1 0x44 JUMP JUMPDEST SWAP1 POP SWAP1 JUMP JUMPDEST CALLDATASIZE PUSH0 DUP1 CALLDATACOPY PUSH0 DUP1 CALLDATASIZE PUSH0 DUP5 GAS DELEGATECALL RETURNDATASIZE PUSH0 DUP1 RETURNDATACOPY DUP1 PUSH0 DUP2 EQ PUSH1 0x40 JUMPI RETURNDATASIZE PUSH0 RETURN JUMPDEST RETURNDATASIZE PUSH0 REVERT JUMPDEST PUSH0 PUSH1 0x6E PUSH32 0x360894A13BA1A3210667C828492DB98DCA3E2076CC3735A920A3CA505D382BBC PUSH0 SHL PUSH1 0x95 JUMP JUMPDEST PUSH0 ADD PUSH0 SWAP1 SLOAD SWAP1 PUSH2 0x100 EXP SWAP1 DIV PUSH20 0xFFFFFFFFFFFFFFFFFFFFFFFFFFFFFFFFFFFFFFFF AND SWAP1 POP SWAP1 JUMP JUMPDEST PUSH0 DUP2 SWAP1 POP SWAP2 SWAP1 POP JUMP INVALID LOG2 PUSH5 0x6970667358 0x22 SLT KECCAK256 MSTORE8 DUP3 0xCB LOG1 PUSH21 0x3FF060640D9D24D99893A0F625988AC6049033893C GAS STOP 0xAF GT 0xAE DUP4 PUSH5 0x736F6C6343 STOP ADDMOD BYTE STOP CALLER "
		},
		"gasEstimates": {
			"creation": {
				"codeDepositCost": "92600",
				"executionCost": "infinite",
				"totalCost": "infinite"
			},
			"external": {
				"proxy()": "infinite",
				"token()": "infinite"
			}
		},
		"methodIdentifiers": {
			"proxy()": "ec556889",
			"token()": "fc0c546a"
		}
	},
	"abi": [
		{
			"inputs": [
				{
					"internalType": "address",
					"name": "initialOwner",
					"type": "address"
				},
				{
					"internalType": "address",
					"name": "_tokenTypeManager",
					"type": "address"
				}
			],
			"stateMutability": "nonpayable",
			"type": "constructor"
		},
		{
			"inputs": [],
			"name": "proxy",
			"outputs": [
				{
					"internalType": "contract ERC1967Proxy",
					"name": "",
					"type": "address"
				}
			],
			"stateMutability": "view",
			"type": "function"
		},
		{
			"inputs": [],
			"name": "token",
			"outputs": [
				{
					"internalType": "contract Token",
					"name": "",
					"type": "address"
				}
			],
			"stateMutability": "view",
			"type": "function"
		}
	]
}