{
	"data": {
		"bytecode": {
			"linkReferences": {},
			"object": "60a06040523073ffffffffffffffffffffffffffffffffffffffff1660809073ffffffffffffffffffffffffffffffffffffffff16815250348015610042575f80fd5b5061005161005660201b60201c565b6101b6565b5f61006561015460201b60201c565b9050805f0160089054906101000a900460ff16156100af576040517ff92ee8a900000000000000000000000000000000000000000000000000000000815260040160405180910390fd5b67ffffffffffffffff8016815f015f9054906101000a900467ffffffffffffffff1667ffffffffffffffff16146101515767ffffffffffffffff815f015f6101000a81548167ffffffffffffffff021916908367ffffffffffffffff1602179055507fc7f505b2f371ae2175ee4913f4499e1f2633a7b5936321eed1cdaeb6115181d267ffffffffffffffff604051610148919061019d565b60405180910390a15b50565b5f7ff0c57e16840df040f15088dc2f81fe391c3923bec73e23a9662efc9c229c6a00905090565b5f67ffffffffffffffff82169050919050565b6101978161017b565b82525050565b5f6020820190506101b05f83018461018e565b92915050565b6080516149496101dc5f395f818161225a015281816122af015261246901526149495ff3fe6080604052600436106101d6575f3560e01c80638da5cb5b11610101578063c87b56dd11610094578063edeb4bbe11610063578063edeb4bbe1461068d578063f119f567146106b7578063f28ca1dd146106df578063f2fde38b14610709576101d6565b8063c87b56dd146105c3578063d547cfb7146105ff578063e0df5b6f14610629578063e985e9c514610651576101d6565b8063ad3cb1cc116100d0578063ad3cb1cc1461050c578063b564ea8614610536578063b88d4fde14610573578063bd9ba9e81461059b576101d6565b80638da5cb5b14610468578063906571471461049257806395d89b41146104ba578063a22cb465146104e4576101d6565b806323b872dd1161017957806352d1902d1161014857806352d1902d146103b05780636352211e146103da57806370a0823114610416578063715018a614610452576101d6565b806323b872dd1461031c57806339e3aa7e1461034457806342842e0e1461036c5780634f1ef28614610394576101d6565b8063081812fc116101b5578063081812fc14610268578063095ea7b3146102a457806318d217c3146102cc5780631bc80eff146102f4576101d6565b8062e00064146101da57806301ffc9a71461020257806306fdde031461023e575b5f80fd5b3480156101e5575f80fd5b5061020060048036038101906101fb91906134f5565b610731565b005b34801561020d575f80fd5b5061022860048036038101906102239190613575565b610970565b60405161023591906135ba565b60405180910390f35b348015610249575f80fd5b50610252610981565b60405161025f9190613643565b60405180910390f35b348015610273575f80fd5b5061028e600480360381019061028991906134f5565b610a1e565b60405161029b91906136a2565b60405180910390f35b3480156102af575f80fd5b506102ca60048036038101906102c591906136e5565b610a39565b005b3480156102d7575f80fd5b506102f260048036038101906102ed919061384f565b610a4f565b005b3480156102ff575f80fd5b5061031a600480360381019061031591906134f5565b610a6a565b005b348015610327575f80fd5b50610342600480360381019061033d9190613896565b610c81565b005b34801561034f575f80fd5b5061036a6004803603810190610365919061384f565b610d80565b005b348015610377575f80fd5b50610392600480360381019061038d9190613896565b610d9b565b005b6103ae60048036038101906103a99190613984565b610dba565b005b3480156103bb575f80fd5b506103c4610dd9565b6040516103d191906139f6565b60405180910390f35b3480156103e5575f80fd5b5061040060048036038101906103fb91906134f5565b610e0a565b60405161040d91906136a2565b60405180910390f35b348015610421575f80fd5b5061043c60048036038101906104379190613a0f565b610e1b565b6040516104499190613a49565b60405180910390f35b34801561045d575f80fd5b50610466610edf565b005b348015610473575f80fd5b5061047c610ef2565b60405161048991906136a2565b60405180910390f35b34801561049d575f80fd5b506104b860048036038101906104b39190613a62565b610f27565b005b3480156104c5575f80fd5b506104ce6110cb565b6040516104db9190613643565b60405180910390f35b3480156104ef575f80fd5b5061050a60048036038101906105059190613b14565b611169565b005b348015610517575f80fd5b5061052061117f565b60405161052d9190613643565b60405180910390f35b348015610541575f80fd5b5061055c600480360381019061055791906134f5565b6111b8565b60405161056a929190613bc5565b60405180910390f35b34801561057e575f80fd5b5061059960048036038101906105949190613bec565b61133f565b005b3480156105a6575f80fd5b506105c160048036038101906105bc919061384f565b61135c565b005b3480156105ce575f80fd5b506105e960048036038101906105e491906134f5565b611377565b6040516105f69190613643565b60405180910390f35b34801561060a575f80fd5b506106136117ec565b6040516106209190613643565b60405180910390f35b348015610634575f80fd5b5061064f600480360381019061064a919061384f565b611878565b005b34801561065c575f80fd5b5061067760048036038101906106729190613c6c565b611893565b60405161068491906135ba565b60405180910390f35b348015610698575f80fd5b506106a161192f565b6040516106ae9190613643565b60405180910390f35b3480156106c2575f80fd5b506106dd60048036038101906106d891906134f5565b6119bb565b005b3480156106ea575f80fd5b506106f3611ca2565b6040516107009190613643565b60405180910390f35b348015610714575f80fd5b5061072f600480360381019061072a9190613a0f565b611d2e565b005b60038081111561074457610743613b52565b5b5f808381526020019081526020015f205f9054906101000a900460ff16600381111561077357610772613b52565b5b036107b3576040517f08c379a00000000000000000000000000000000000000000000000000000000081526004016107aa90613cf4565b60405180910390fd5b3373ffffffffffffffffffffffffffffffffffffffff166107d382610e0a565b73ffffffffffffffffffffffffffffffffffffffff1614610829576040517f08c379a000000000000000000000000000000000000000000000000000000000815260040161082090613d5c565b60405180910390fd5b5f805f8381526020019081526020015f205f9054906101000a900460ff1690505f60025f8481526020019081526020015f2090505f4290505f600381111561087457610873613b52565b5b83600381111561088757610886613b52565b5b036108b8576108ac8160025f8781526020019081526020015f205f0154612a30611db2565b825f018190555061096a565b600160038111156108cc576108cb613b52565b5b8360038111156108df576108de613b52565b5b03610912576109058160025f8781526020019081526020015f2060010154612a30611db2565b8260010181905550610969565b6002600381111561092657610925613b52565b5b83600381111561093957610938613b52565b5b036109685761095f8160025f8781526020019081526020015f2060020154612a30611db2565b82600201819055505b5b5b50505050565b5f61097a82611de3565b9050919050565b60605f61098c611e43565b9050805f01805461099c90613da7565b80601f01602080910402602001604051908101604052809291908181526020018280546109c890613da7565b8015610a135780601f106109ea57610100808354040283529160200191610a13565b820191905f5260205f20905b8154815290600101906020018083116109f657829003601f168201915b505050505091505090565b5f610a2882611e6a565b50610a3282611ef0565b9050919050565b610a4b8282610a46611f37565b611f3e565b5050565b610a57611f50565b8060079081610a669190613f74565b5050565b610a72611f50565b5f805f8381526020019081526020015f205f9054906101000a900460ff1690505f6003811115610aa557610aa4613b52565b5b816003811115610ab857610ab7613b52565b5b03610b415760015f808481526020019081526020015f205f6101000a81548160ff02191690836003811115610af057610aef613b52565b5b0217905550610afd611fd7565b60015f8481526020019081526020015f20600101819055506202a30042610b249190614070565b60025f8481526020019081526020015f2060010181905550610c7d565b60016003811115610b5557610b54613b52565b5b816003811115610b6857610b67613b52565b5b03610bd15760025f808481526020019081526020015f205f6101000a81548160ff02191690836003811115610ba057610b9f613b52565b5b02179055506203f48042610bb49190614070565b60025f8481526020019081526020015f2060020181905550610c7c565b60026003811115610be557610be4613b52565b5b816003811115610bf857610bf7613b52565b5b03610c3a5760035f808481526020019081526020015f205f6101000a81548160ff02191690836003811115610c3057610c2f613b52565b5b0217905550610c7b565b5f610c7a576040517f08c379a0000000000000000000000000000000000000000000000000000000008152600401610c71906140ed565b60405180910390fd5b5b5b5b5050565b5f73ffffffffffffffffffffffffffffffffffffffff168273ffffffffffffffffffffffffffffffffffffffff1603610cf1575f6040517f64a0ae92000000000000000000000000000000000000000000000000000000008152600401610ce891906136a2565b60405180910390fd5b5f610d048383610cff611f37565b61203b565b90508373ffffffffffffffffffffffffffffffffffffffff168173ffffffffffffffffffffffffffffffffffffffff1614610d7a578382826040517f64283d7b000000000000000000000000000000000000000000000000000000008152600401610d719392919061410b565b60405180910390fd5b50505050565b610d88611f50565b8060099081610d979190613f74565b5050565b610db583838360405180602001604052805f81525061133f565b505050565b610dc2612258565b610dcb8261233e565b610dd58282612349565b5050565b5f610de2612467565b7f360894a13ba1a3210667c828492db98dca3e2076cc3735a920a3ca505d382bbc5f1b905090565b5f610e1482611e6a565b9050919050565b5f80610e25611e43565b90505f73ffffffffffffffffffffffffffffffffffffffff168373ffffffffffffffffffffffffffffffffffffffff1603610e97575f6040517f89c62b64000000000000000000000000000000000000000000000000000000008152600401610e8e91906136a2565b60405180910390fd5b806003015f8473ffffffffffffffffffffffffffffffffffffffff1673ffffffffffffffffffffffffffffffffffffffff1681526020019081526020015f2054915050919050565b610ee7611f50565b610ef05f6124ee565b565b5f80610efc6125bf565b9050805f015f9054906101000a900473ffffffffffffffffffffffffffffffffffffffff1691505090565b5f610f306125e6565b90505f815f0160089054906101000a900460ff161590505f825f015f9054906101000a900467ffffffffffffffff1690505f808267ffffffffffffffff16148015610f785750825b90505f60018367ffffffffffffffff16148015610fab57505f3073ffffffffffffffffffffffffffffffffffffffff163b145b905081158015610fb9575080155b15610ff0576040517ff92ee8a900000000000000000000000000000000000000000000000000000000815260040160405180910390fd5b6001855f015f6101000a81548167ffffffffffffffff021916908367ffffffffffffffff160217905550831561103d576001855f0160086101000a81548160ff0219169083151502179055505b611047878761260d565b61104f612623565b6110588861262d565b611060612641565b5f60058190555083156110c1575f855f0160086101000a81548160ff0219169083151502179055507fc7f505b2f371ae2175ee4913f4499e1f2633a7b5936321eed1cdaeb6115181d260016040516110b8919061418c565b60405180910390a15b5050505050505050565b60605f6110d6611e43565b90508060010180546110e790613da7565b80601f016020809104026020016040519081016040528092919081815260200182805461111390613da7565b801561115e5780601f106111355761010080835404028352916020019161115e565b820191905f5260205f20905b81548152906001019060200180831161114157829003601f168201915b505050505091505090565b61117b611174611f37565b838361264b565b5050565b6040518060400160405280600581526020017f352e302e3000000000000000000000000000000000000000000000000000000081525081565b5f805f808481526020019081526020015f205f9054906101000a900460ff1691505f4290505f60038111156111f0576111ef613b52565b5b83600381111561120357611202613b52565b5b14801561122257508060025f8681526020019081526020015f205f0154115b1561124d578060025f8681526020019081526020015f205f015461124691906141a5565b9150611339565b6001600381111561126157611260613b52565b5b83600381111561127457611273613b52565b5b14801561129457508060025f8681526020019081526020015f2060010154115b156112c0578060025f8681526020019081526020015f20600101546112b991906141a5565b9150611338565b600260038111156112d4576112d3613b52565b5b8360038111156112e7576112e6613b52565b5b14801561130757508060025f8681526020019081526020015f2060020154115b15611333578060025f8681526020019081526020015f206002015461132c91906141a5565b9150611337565b5f91505b5b5b50915091565b61134a848484610c81565b611356848484846127c2565b50505050565b611364611f50565b80600890816113739190613f74565b5050565b6060805f6006805461138890613da7565b905011156113c357600661139b84612974565b6040516020016113ac929190614292565b6040516020818303038152906040529150506117e7565b5f60038111156113d6576113d5613b52565b5b5f808581526020019081526020015f205f9054906101000a900460ff16600381111561140557611404613b52565b5b036114435760015f8481526020019081526020015f205f0160405160200161142d91906142ff565b60405160208183030381529060405290506116fc565b5f6001805f8681526020019081526020015f20600401541461149a576040518060400160405280600181526020017f62000000000000000000000000000000000000000000000000000000000000008152506114d1565b6040518060400160405280600181526020017f67000000000000000000000000000000000000000000000000000000000000008152505b90505f6001805f8781526020019081526020015f20600101541461152a576040518060400160405280600181526020017f6600000000000000000000000000000000000000000000000000000000000000815250611561565b6040518060400160405280600181526020017f6d000000000000000000000000000000000000000000000000000000000000008152505b905060605f805f8881526020019081526020015f205f9054906101000a900460ff1690506001600381111561159957611598613b52565b5b8160038111156115ac576115ab613b52565b5b036115ee576040518060400160405280600581526020017f686174636800000000000000000000000000000000000000000000000000000081525091506116bd565b6002600381111561160257611601613b52565b5b81600381111561161557611614613b52565b5b03611657576040518060400160405280600981526020017f68617463686c696e67000000000000000000000000000000000000000000000081525091506116bc565b60038081111561166a57611669613b52565b5b81600381111561167d5761167c613b52565b5b036116bb576040518060400160405280600581526020017f6164756c7400000000000000000000000000000000000000000000000000000081525091505b5b5b60015f8881526020019081526020015f205f018484846040516020016116e6949392919061436a565b6040516020818303038152906040529450505050505b5f61170684612974565b600783600960405160200161171c9291906143c8565b60405160208183030381529060405260405160200161173d939291906144cb565b60405160208183030381529060405290505f60015f8681526020019081526020015f205f016040516020016117729190614581565b60405160208183030381529060405290505f6040518060400160405280600481526020017f227d5d7d0000000000000000000000000000000000000000000000000000000081525090508282826040516020016117d1939291906145ec565b6040516020818303038152906040529450505050505b919050565b600680546117f990613da7565b80601f016020809104026020016040519081016040528092919081815260200182805461182590613da7565b80156118705780601f1061184757610100808354040283529160200191611870565b820191905f5260205f20905b81548152906001019060200180831161185357829003601f168201915b505050505081565b611880611f50565b806006908161188f9190613f74565b5050565b5f8061189d611e43565b9050806005015f8573ffffffffffffffffffffffffffffffffffffffff1673ffffffffffffffffffffffffffffffffffffffff1681526020019081526020015f205f8473ffffffffffffffffffffffffffffffffffffffff1673ffffffffffffffffffffffffffffffffffffffff1681526020019081526020015f205f9054906101000a900460ff1691505092915050565b6008805461193c90613da7565b80601f016020809104026020016040519081016040528092919081815260200182805461196890613da7565b80156119b35780601f1061198a576101008083540402835291602001916119b3565b820191905f5260205f20905b81548152906001019060200180831161199657829003601f168201915b505050505081565b3373ffffffffffffffffffffffffffffffffffffffff166119db82610e0a565b73ffffffffffffffffffffffffffffffffffffffff1614611a31576040517f08c379a0000000000000000000000000000000000000000000000000000000008152600401611a2890613d5c565b60405180910390fd5b5f805f8381526020019081526020015f205f9054906101000a900460ff1690505f6003811115611a6457611a63613b52565b5b816003811115611a7757611a76613b52565b5b148015611a97575060025f8381526020019081526020015f205f01544210155b15611b205760015f808481526020019081526020015f205f6101000a81548160ff02191690836003811115611acf57611ace613b52565b5b0217905550611adc611fd7565b60015f8481526020019081526020015f20600101819055506202a30042611b039190614070565b60025f8481526020019081526020015f2060010181905550611c9e565b60016003811115611b3457611b33613b52565b5b816003811115611b4757611b46613b52565b5b148015611b68575060025f8381526020019081526020015f20600101544210155b15611bd15760025f808481526020019081526020015f205f6101000a81548160ff02191690836003811115611ba057611b9f613b52565b5b02179055506203f48042611bb49190614070565b60025f8481526020019081526020015f2060020181905550611c9d565b60026003811115611be557611be4613b52565b5b816003811115611bf857611bf7613b52565b5b148015611c19575060025f8381526020019081526020015f20600201544210155b15611c5b5760035f808481526020019081526020015f205f6101000a81548160ff02191690836003811115611c5157611c50613b52565b5b0217905550611c9c565b5f611c9b576040517f08c379a0000000000000000000000000000000000000000000000000000000008152600401611c92906140ed565b60405180910390fd5b5b5b5b5050565b60078054611caf90613da7565b80601f0160208091040260200160405190810160405280929190818152602001828054611cdb90613da7565b8015611d265780601f10611cfd57610100808354040283529160200191611d26565b820191905f5260205f20905b815481529060010190602001808311611d0957829003601f168201915b505050505081565b611d36611f50565b5f73ffffffffffffffffffffffffffffffffffffffff168173ffffffffffffffffffffffffffffffffffffffff1603611da6575f6040517f1e4fbdf7000000000000000000000000000000000000000000000000000000008152600401611d9d91906136a2565b60405180910390fd5b611daf816124ee565b50565b5f818484611dc091906141a5565b10611dd8578183611dd191906141a5565b9050611ddc565b5f90505b9392505050565b5f634906490660e01b7bffffffffffffffffffffffffffffffffffffffffffffffffffffffff1916827bffffffffffffffffffffffffffffffffffffffffffffffffffffffff19161480611e3c5750611e3b82612a3e565b5b9050919050565b5f7f80bb2b638cc20bc4d0a60d66940f3ab4a00c1d7b313497ca82fb0b4ab0079300905090565b5f80611e7583612b1f565b90505f73ffffffffffffffffffffffffffffffffffffffff168173ffffffffffffffffffffffffffffffffffffffff1603611ee757826040517f7e273289000000000000000000000000000000000000000000000000000000008152600401611ede9190613a49565b60405180910390fd5b80915050919050565b5f80611efa611e43565b9050806004015f8481526020019081526020015f205f9054906101000a900473ffffffffffffffffffffffffffffffffffffffff16915050919050565b5f33905090565b611f4b8383836001612b66565b505050565b611f58611f37565b73ffffffffffffffffffffffffffffffffffffffff16611f76610ef2565b73ffffffffffffffffffffffffffffffffffffffff1614611fd557611f99611f37565b6040517f118cdaa7000000000000000000000000000000000000000000000000000000008152600401611fcc91906136a2565b60405180910390fd5b565b5f60055f815480929190611fea90614627565b919050555060016002423360055460405160200161200a939291906146d3565b604051602081830303815290604052805190602001205f1c61202c919061473c565b6120369190614070565b905090565b5f80612045611e43565b90505f61205185612b1f565b90505f73ffffffffffffffffffffffffffffffffffffffff168473ffffffffffffffffffffffffffffffffffffffff161461209257612091818587612d33565b5b5f73ffffffffffffffffffffffffffffffffffffffff168173ffffffffffffffffffffffffffffffffffffffff161461211f576120d15f865f80612b66565b6001826003015f8373ffffffffffffffffffffffffffffffffffffffff1673ffffffffffffffffffffffffffffffffffffffff1681526020019081526020015f205f82825403925050819055505b5f73ffffffffffffffffffffffffffffffffffffffff168673ffffffffffffffffffffffffffffffffffffffff16146121a0576001826003015f8873ffffffffffffffffffffffffffffffffffffffff1673ffffffffffffffffffffffffffffffffffffffff1681526020019081526020015f205f82825401925050819055505b85826002015f8781526020019081526020015f205f6101000a81548173ffffffffffffffffffffffffffffffffffffffff021916908373ffffffffffffffffffffffffffffffffffffffff160217905550848673ffffffffffffffffffffffffffffffffffffffff168273ffffffffffffffffffffffffffffffffffffffff167fddf252ad1be2c89b69c2b068fc378daa952ba7f163c4a11628f55a4df523b3ef60405160405180910390a480925050509392505050565b7f000000000000000000000000000000000000000000000000000000000000000073ffffffffffffffffffffffffffffffffffffffff163073ffffffffffffffffffffffffffffffffffffffff16148061230557507f000000000000000000000000000000000000000000000000000000000000000073ffffffffffffffffffffffffffffffffffffffff166122ec612df6565b73ffffffffffffffffffffffffffffffffffffffff1614155b1561233c576040517fe07c8dba00000000000000000000000000000000000000000000000000000000815260040160405180910390fd5b565b612346611f50565b50565b8173ffffffffffffffffffffffffffffffffffffffff166352d1902d6040518163ffffffff1660e01b8152600401602060405180830381865afa9250505080156123b157506040513d601f19601f820116820180604052508101906123ae9190614796565b60015b6123f257816040517f4c9c8ce30000000000000000000000000000000000000000000000000000000081526004016123e991906136a2565b60405180910390fd5b7f360894a13ba1a3210667c828492db98dca3e2076cc3735a920a3ca505d382bbc5f1b811461245857806040517faa1d49a400000000000000000000000000000000000000000000000000000000815260040161244f91906139f6565b60405180910390fd5b6124628383612e49565b505050565b7f000000000000000000000000000000000000000000000000000000000000000073ffffffffffffffffffffffffffffffffffffffff163073ffffffffffffffffffffffffffffffffffffffff16146124ec576040517fe07c8dba00000000000000000000000000000000000000000000000000000000815260040160405180910390fd5b565b5f6124f76125bf565b90505f815f015f9054906101000a900473ffffffffffffffffffffffffffffffffffffffff16905082825f015f6101000a81548173ffffffffffffffffffffffffffffffffffffffff021916908373ffffffffffffffffffffffffffffffffffffffff1602179055508273ffffffffffffffffffffffffffffffffffffffff168173ffffffffffffffffffffffffffffffffffffffff167f8be0079c531659141344cd1fd0a4f28419497f9722a3daafe3b4186f6b6457e060405160405180910390a3505050565b5f7f9016d09d72d40fdae2fd8ceac6b6234c7706214fd39c1cd1e609a0528c199300905090565b5f7ff0c57e16840df040f15088dc2f81fe391c3923bec73e23a9662efc9c229c6a00905090565b612615612ebb565b61261f8282612efb565b5050565b61262b612ebb565b565b612635612ebb565b61263e81612f36565b50565b612649612ebb565b565b5f612654611e43565b90505f73ffffffffffffffffffffffffffffffffffffffff168373ffffffffffffffffffffffffffffffffffffffff16036126c657826040517f5b08ba180000000000000000000000000000000000000000000000000000000081526004016126bd91906136a2565b60405180910390fd5b81816005015f8673ffffffffffffffffffffffffffffffffffffffff1673ffffffffffffffffffffffffffffffffffffffff1681526020019081526020015f205f8573ffffffffffffffffffffffffffffffffffffffff1673ffffffffffffffffffffffffffffffffffffffff1681526020019081526020015f205f6101000a81548160ff0219169083151502179055508273ffffffffffffffffffffffffffffffffffffffff168473ffffffffffffffffffffffffffffffffffffffff167f17307eab39ab6107e8899845ad3d59bd9653f200f220920489ca2b5937696c31846040516127b491906135ba565b60405180910390a350505050565b5f8373ffffffffffffffffffffffffffffffffffffffff163b111561296e578273ffffffffffffffffffffffffffffffffffffffff1663150b7a02612805611f37565b8685856040518563ffffffff1660e01b81526004016128279493929190614813565b6020604051808303815f875af192505050801561286257506040513d601f19601f8201168201806040525081019061285f9190614871565b60015b6128e3573d805f8114612890576040519150601f19603f3d011682016040523d82523d5f602084013e612895565b606091505b505f8151036128db57836040517f64a0ae920000000000000000000000000000000000000000000000000000000081526004016128d291906136a2565b60405180910390fd5b805181602001fd5b63150b7a0260e01b7bffffffffffffffffffffffffffffffffffffffffffffffffffffffff1916817bffffffffffffffffffffffffffffffffffffffffffffffffffffffff19161461296c57836040517f64a0ae9200000000000000000000000000000000000000000000000000000000815260040161296391906136a2565b60405180910390fd5b505b50505050565b60605f600161298284612fba565b0190505f8167ffffffffffffffff8111156129a05761299f61372b565b5b6040519080825280601f01601f1916602001820160405280156129d25781602001600182028036833780820191505090505b5090505f82602001820190505b600115612a33578080600190039150507f3031323334353637383961626364656600000000000000000000000000000000600a86061a8153600a8581612a2857612a2761470f565b5b0494505f85036129df575b819350505050919050565b5f7f80ac58cd000000000000000000000000000000000000000000000000000000007bffffffffffffffffffffffffffffffffffffffffffffffffffffffff1916827bffffffffffffffffffffffffffffffffffffffffffffffffffffffff19161480612b0857507f5b5e139f000000000000000000000000000000000000000000000000000000007bffffffffffffffffffffffffffffffffffffffffffffffffffffffff1916827bffffffffffffffffffffffffffffffffffffffffffffffffffffffff1916145b80612b185750612b178261310b565b5b9050919050565b5f80612b29611e43565b9050806002015f8481526020019081526020015f205f9054906101000a900473ffffffffffffffffffffffffffffffffffffffff16915050919050565b5f612b6f611e43565b90508180612ba957505f73ffffffffffffffffffffffffffffffffffffffff168373ffffffffffffffffffffffffffffffffffffffff1614155b15612cdb575f612bb885611e6a565b90505f73ffffffffffffffffffffffffffffffffffffffff168473ffffffffffffffffffffffffffffffffffffffff1614158015612c2257508373ffffffffffffffffffffffffffffffffffffffff168173ffffffffffffffffffffffffffffffffffffffff1614155b8015612c355750612c338185611893565b155b15612c7757836040517fa9fbf51f000000000000000000000000000000000000000000000000000000008152600401612c6e91906136a2565b60405180910390fd5b8215612cd957848673ffffffffffffffffffffffffffffffffffffffff168273ffffffffffffffffffffffffffffffffffffffff167f8c5be1e5ebec7d5bd14f71427d1e84f3dd0314c0f7b2291e5b200ac8c7c3b92560405160405180910390a45b505b84816004015f8681526020019081526020015f205f6101000a81548173ffffffffffffffffffffffffffffffffffffffff021916908373ffffffffffffffffffffffffffffffffffffffff1602179055505050505050565b612d3e838383613174565b612df1575f73ffffffffffffffffffffffffffffffffffffffff168373ffffffffffffffffffffffffffffffffffffffff1603612db257806040517f7e273289000000000000000000000000000000000000000000000000000000008152600401612da99190613a49565b60405180910390fd5b81816040517f177e802f000000000000000000000000000000000000000000000000000000008152600401612de892919061489c565b60405180910390fd5b505050565b5f612e227f360894a13ba1a3210667c828492db98dca3e2076cc3735a920a3ca505d382bbc5f1b613234565b5f015f9054906101000a900473ffffffffffffffffffffffffffffffffffffffff16905090565b612e528261323d565b8173ffffffffffffffffffffffffffffffffffffffff167fbc7cd75a20ee27fd9adebab32041f755214dbc6bffa90cc0225b39da2e5c2d3b60405160405180910390a25f81511115612eae57612ea88282613306565b50612eb7565b612eb6613386565b5b5050565b612ec36133c2565b612ef9576040517fd7e6bcf800000000000000000000000000000000000000000000000000000000815260040160405180910390fd5b565b612f03612ebb565b5f612f0c611e43565b905082815f019081612f1e9190613f74565b5081816001019081612f309190613f74565b50505050565b612f3e612ebb565b5f73ffffffffffffffffffffffffffffffffffffffff168173ffffffffffffffffffffffffffffffffffffffff1603612fae575f6040517f1e4fbdf7000000000000000000000000000000000000000000000000000000008152600401612fa591906136a2565b60405180910390fd5b612fb7816124ee565b50565b5f805f90507a184f03e93ff9f4daa797ed6e38ed64bf6a1f0100000000000000008310613016577a184f03e93ff9f4daa797ed6e38ed64bf6a1f010000000000000000838161300c5761300b61470f565b5b0492506040810190505b6d04ee2d6d415b85acef81000000008310613053576d04ee2d6d415b85acef810000000083816130495761304861470f565b5b0492506020810190505b662386f26fc10000831061308257662386f26fc1000083816130785761307761470f565b5b0492506010810190505b6305f5e10083106130ab576305f5e10083816130a1576130a061470f565b5b0492506008810190505b61271083106130d05761271083816130c6576130c561470f565b5b0492506004810190505b606483106130f357606483816130e9576130e861470f565b5b0492506002810190505b600a8310613102576001810190505b80915050919050565b5f7f01ffc9a7000000000000000000000000000000000000000000000000000000007bffffffffffffffffffffffffffffffffffffffffffffffffffffffff1916827bffffffffffffffffffffffffffffffffffffffffffffffffffffffff1916149050919050565b5f8073ffffffffffffffffffffffffffffffffffffffff168373ffffffffffffffffffffffffffffffffffffffff161415801561322b57508273ffffffffffffffffffffffffffffffffffffffff168473ffffffffffffffffffffffffffffffffffffffff1614806131ec57506131eb8484611893565b5b8061322a57508273ffffffffffffffffffffffffffffffffffffffff1661321283611ef0565b73ffffffffffffffffffffffffffffffffffffffff16145b5b90509392505050565b5f819050919050565b5f8173ffffffffffffffffffffffffffffffffffffffff163b0361329857806040517f4c9c8ce300000000000000000000000000000000000000000000000000000000815260040161328f91906136a2565b60405180910390fd5b806132c47f360894a13ba1a3210667c828492db98dca3e2076cc3735a920a3ca505d382bbc5f1b613234565b5f015f6101000a81548173ffffffffffffffffffffffffffffffffffffffff021916908373ffffffffffffffffffffffffffffffffffffffff16021790555050565b60605f808473ffffffffffffffffffffffffffffffffffffffff168460405161332f91906148fd565b5f60405180830381855af49150503d805f8114613367576040519150601f19603f3d011682016040523d82523d5f602084013e61336c565b606091505b509150915061337c8583836133e0565b9250505092915050565b5f3411156133c0576040517fb398979f00000000000000000000000000000000000000000000000000000000815260040160405180910390fd5b565b5f6133cb6125e6565b5f0160089054906101000a900460ff16905090565b6060826133f5576133f08261346d565b613465565b5f825114801561341b57505f8473ffffffffffffffffffffffffffffffffffffffff163b145b1561345d57836040517f9996b31500000000000000000000000000000000000000000000000000000000815260040161345491906136a2565b60405180910390fd5b819050613466565b5b9392505050565b5f8151111561347f5780518082602001fd5b6040517f1425ea4200000000000000000000000000000000000000000000000000000000815260040160405180910390fd5b5f604051905090565b5f80fd5b5f80fd5b5f819050919050565b6134d4816134c2565b81146134de575f80fd5b50565b5f813590506134ef816134cb565b92915050565b5f6020828403121561350a576135096134ba565b5b5f613517848285016134e1565b91505092915050565b5f7fffffffff0000000000000000000000000000000000000000000000000000000082169050919050565b61355481613520565b811461355e575f80fd5b50565b5f8135905061356f8161354b565b92915050565b5f6020828403121561358a576135896134ba565b5b5f61359784828501613561565b91505092915050565b5f8115159050919050565b6135b4816135a0565b82525050565b5f6020820190506135cd5f8301846135ab565b92915050565b5f81519050919050565b5f82825260208201905092915050565b8281835e5f83830152505050565b5f601f19601f8301169050919050565b5f613615826135d3565b61361f81856135dd565b935061362f8185602086016135ed565b613638816135fb565b840191505092915050565b5f6020820190508181035f83015261365b818461360b565b905092915050565b5f73ffffffffffffffffffffffffffffffffffffffff82169050919050565b5f61368c82613663565b9050919050565b61369c81613682565b82525050565b5f6020820190506136b55f830184613693565b92915050565b6136c481613682565b81146136ce575f80fd5b50565b5f813590506136df816136bb565b92915050565b5f80604083850312156136fb576136fa6134ba565b5b5f613708858286016136d1565b9250506020613719858286016134e1565b9150509250929050565b5f80fd5b5f80fd5b7f4e487b71000000000000000000000000000000000000000000000000000000005f52604160045260245ffd5b613761826135fb565b810181811067ffffffffffffffff821117156137805761377f61372b565b5b80604052505050565b5f6137926134b1565b905061379e8282613758565b919050565b5f67ffffffffffffffff8211156137bd576137bc61372b565b5b6137c6826135fb565b9050602081019050919050565b828183375f83830152505050565b5f6137f36137ee846137a3565b613789565b90508281526020810184848401111561380f5761380e613727565b5b61381a8482856137d3565b509392505050565b5f82601f83011261383657613835613723565b5b81356138468482602086016137e1565b91505092915050565b5f60208284031215613864576138636134ba565b5b5f82013567ffffffffffffffff811115613881576138806134be565b5b61388d84828501613822565b91505092915050565b5f805f606084860312156138ad576138ac6134ba565b5b5f6138ba868287016136d1565b93505060206138cb868287016136d1565b92505060406138dc868287016134e1565b9150509250925092565b5f67ffffffffffffffff821115613900576138ff61372b565b5b613909826135fb565b9050602081019050919050565b5f613928613923846138e6565b613789565b90508281526020810184848401111561394457613943613727565b5b61394f8482856137d3565b509392505050565b5f82601f83011261396b5761396a613723565b5b813561397b848260208601613916565b91505092915050565b5f806040838503121561399a576139996134ba565b5b5f6139a7858286016136d1565b925050602083013567ffffffffffffffff8111156139c8576139c76134be565b5b6139d485828601613957565b9150509250929050565b5f819050919050565b6139f0816139de565b82525050565b5f602082019050613a095f8301846139e7565b92915050565b5f60208284031215613a2457613a236134ba565b5b5f613a31848285016136d1565b91505092915050565b613a43816134c2565b82525050565b5f602082019050613a5c5f830184613a3a565b92915050565b5f805f60608486031215613a7957613a786134ba565b5b5f613a86868287016136d1565b935050602084013567ffffffffffffffff811115613aa757613aa66134be565b5b613ab386828701613822565b925050604084013567ffffffffffffffff811115613ad457613ad36134be565b5b613ae086828701613822565b9150509250925092565b613af3816135a0565b8114613afd575f80fd5b50565b5f81359050613b0e81613aea565b92915050565b5f8060408385031215613b2a57613b296134ba565b5b5f613b37858286016136d1565b9250506020613b4885828601613b00565b9150509250929050565b7f4e487b71000000000000000000000000000000000000000000000000000000005f52602160045260245ffd5b60048110613b9057613b8f613b52565b5b50565b5f819050613ba082613b7f565b919050565b5f613baf82613b93565b9050919050565b613bbf81613ba5565b82525050565b5f604082019050613bd85f830185613bb6565b613be56020830184613a3a565b9392505050565b5f805f8060808587031215613c0457613c036134ba565b5b5f613c11878288016136d1565b9450506020613c22878288016136d1565b9350506040613c33878288016134e1565b925050606085013567ffffffffffffffff811115613c5457613c536134be565b5b613c6087828801613957565b91505092959194509250565b5f8060408385031215613c8257613c816134ba565b5b5f613c8f858286016136d1565b9250506020613ca0858286016136d1565b9150509250929050565b7f546f6b656e20697320616c7265616479206164756c74000000000000000000005f82015250565b5f613cde6016836135dd565b9150613ce982613caa565b602082019050919050565b5f6020820190508181035f830152613d0b81613cd2565b9050919050565b7f4e6f74206f776e657200000000000000000000000000000000000000000000005f82015250565b5f613d466009836135dd565b9150613d5182613d12565b602082019050919050565b5f6020820190508181035f830152613d7381613d3a565b9050919050565b7f4e487b71000000000000000000000000000000000000000000000000000000005f52602260045260245ffd5b5f6002820490506001821680613dbe57607f821691505b602082108103613dd157613dd0613d7a565b5b50919050565b5f819050815f5260205f209050919050565b5f6020601f8301049050919050565b5f82821b905092915050565b5f60088302613e337fffffffffffffffffffffffffffffffffffffffffffffffffffffffffffffffff82613df8565b613e3d8683613df8565b95508019841693508086168417925050509392505050565b5f819050919050565b5f613e78613e73613e6e846134c2565b613e55565b6134c2565b9050919050565b5f819050919050565b613e9183613e5e565b613ea5613e9d82613e7f565b848454613e04565b825550505050565b5f90565b613eb9613ead565b613ec4818484613e88565b505050565b5b81811015613ee757613edc5f82613eb1565b600181019050613eca565b5050565b601f821115613f2c57613efd81613dd7565b613f0684613de9565b81016020851015613f15578190505b613f29613f2185613de9565b830182613ec9565b50505b505050565b5f82821c905092915050565b5f613f4c5f1984600802613f31565b1980831691505092915050565b5f613f648383613f3d565b9150826002028217905092915050565b613f7d826135d3565b67ffffffffffffffff811115613f9657613f9561372b565b5b613fa08254613da7565b613fab828285613eeb565b5f60209050601f831160018114613fdc575f8415613fca578287015190505b613fd48582613f59565b86555061403b565b601f198416613fea86613dd7565b5f5b8281101561401157848901518255600182019150602085019450602081019050613fec565b8683101561402e578489015161402a601f891682613f3d565b8355505b6001600288020188555050505b505050505050565b7f4e487b71000000000000000000000000000000000000000000000000000000005f52601160045260245ffd5b5f61407a826134c2565b9150614085836134c2565b925082820190508082111561409d5761409c614043565b5b92915050565b7f556e61626c6520746f2065766f6c7665000000000000000000000000000000005f82015250565b5f6140d76010836135dd565b91506140e2826140a3565b602082019050919050565b5f6020820190508181035f830152614104816140cb565b9050919050565b5f60608201905061411e5f830186613693565b61412b6020830185613a3a565b6141386040830184613693565b949350505050565b5f819050919050565b5f67ffffffffffffffff82169050919050565b5f61417661417161416c84614140565b613e55565b614149565b9050919050565b6141868161415c565b82525050565b5f60208201905061419f5f83018461417d565b92915050565b5f6141af826134c2565b91506141ba836134c2565b92508282039050818111156141d2576141d1614043565b5b92915050565b5f81905092915050565b5f81546141ee81613da7565b6141f881866141d8565b9450600182165f8114614212576001811461422757614259565b60ff1983168652811515820286019350614259565b61423085613dd7565b5f5b8381101561425157815481890152600182019150602081019050614232565b838801955050505b50505092915050565b5f61426c826135d3565b61427681856141d8565b93506142868185602086016135ed565b80840191505092915050565b5f61429d82856141e2565b91506142a98284614262565b91508190509392505050565b7f5f656767000000000000000000000000000000000000000000000000000000005f82015250565b5f6142e96004836141d8565b91506142f4826142b5565b600482019050919050565b5f61430a82846141e2565b9150614315826142dd565b915081905092915050565b7f5f000000000000000000000000000000000000000000000000000000000000005f82015250565b5f6143546001836141d8565b915061435f82614320565b600182019050919050565b5f61437582876141e2565b915061438082614348565b915061438c8286614262565b915061439782614348565b91506143a38285614262565b91506143ae82614348565b91506143ba8284614262565b915081905095945050505050565b5f6143d38285614262565b91506143df82846141e2565b91508190509392505050565b7f7b226e616d65223a2022447261676f6e202300000000000000000000000000005f82015250565b5f61441f6012836141d8565b915061442a826143eb565b601282019050919050565b7f222c2265787465726e616c5f75726c223a2268747470733a2f2f6769746875625f8201527f2e636f6d2f626368736f6c2f43727970746f447261676f6e222c22696d61676560208201527f223a220000000000000000000000000000000000000000000000000000000000604082015250565b5f6144b56043836141d8565b91506144c082614435565b604382019050919050565b5f6144d582614413565b91506144e18286614262565b91506144ec826144a9565b91506144f882856141e2565b91506145048284614262565b9150819050949350505050565b7f222c2261747472696275746573223a5b7b2274726169745f74797065223a22445f8201527f7261676f6e222c2276616c7565223a2200000000000000000000000000000000602082015250565b5f61456b6030836141d8565b915061457682614511565b603082019050919050565b5f61458b8261455f565b915061459782846141e2565b915081905092915050565b7f646174613a6170706c69636174696f6e2f6a736f6e3b757466382c00000000005f82015250565b5f6145d6601b836141d8565b91506145e1826145a2565b601b82019050919050565b5f6145f6826145ca565b91506146028286614262565b915061460e8285614262565b915061461a8284614262565b9150819050949350505050565b5f614631826134c2565b91507fffffffffffffffffffffffffffffffffffffffffffffffffffffffffffffffff820361466357614662614043565b5b600182019050919050565b5f819050919050565b614688614683826134c2565b61466e565b82525050565b5f8160601b9050919050565b5f6146a48261468e565b9050919050565b5f6146b58261469a565b9050919050565b6146cd6146c882613682565b6146ab565b82525050565b5f6146de8286614677565b6020820191506146ee82856146bc565b6014820191506146fe8284614677565b602082019150819050949350505050565b7f4e487b71000000000000000000000000000000000000000000000000000000005f52601260045260245ffd5b5f614746826134c2565b9150614751836134c2565b9250826147615761476061470f565b5b828206905092915050565b614775816139de565b811461477f575f80fd5b50565b5f815190506147908161476c565b92915050565b5f602082840312156147ab576147aa6134ba565b5b5f6147b884828501614782565b91505092915050565b5f81519050919050565b5f82825260208201905092915050565b5f6147e5826147c1565b6147ef81856147cb565b93506147ff8185602086016135ed565b614808816135fb565b840191505092915050565b5f6080820190506148265f830187613693565b6148336020830186613693565b6148406040830185613a3a565b818103606083015261485281846147db565b905095945050505050565b5f8151905061486b8161354b565b92915050565b5f60208284031215614886576148856134ba565b5b5f6148938482850161485d565b91505092915050565b5f6040820190506148af5f830185613693565b6148bc6020830184613a3a565b9392505050565b5f81905092915050565b5f6148d7826147c1565b6148e181856148c3565b93506148f18185602086016135ed565b80840191505092915050565b5f61490882846148cd565b91508190509291505056fea264697066735822122046705a6b120968d2bdf73c31052048428cabace3ded5c23cbf133f1ca4991e5964736f6c63430008190033",
			"opcodes": "PUSH1 0xA0 PUSH1 0x40 MSTORE ADDRESS PUSH20 0xFFFFFFFFFFFFFFFFFFFFFFFFFFFFFFFFFFFFFFFF AND PUSH1 0x80 SWAP1 PUSH20 0xFFFFFFFFFFFFFFFFFFFFFFFFFFFFFFFFFFFFFFFF AND DUP2 MSTORE POP CALLVALUE DUP1 ISZERO PUSH2 0x42 JUMPI PUSH0 DUP1 REVERT JUMPDEST POP PUSH2 0x51 PUSH2 0x56 PUSH1 0x20 SHL PUSH1 0x20 SHR JUMP JUMPDEST PUSH2 0x1B6 JUMP JUMPDEST PUSH0 PUSH2 0x65 PUSH2 0x154 PUSH1 0x20 SHL PUSH1 0x20 SHR JUMP JUMPDEST SWAP1 POP DUP1 PUSH0 ADD PUSH1 0x8 SWAP1 SLOAD SWAP1 PUSH2 0x100 EXP SWAP1 DIV PUSH1 0xFF AND ISZERO PUSH2 0xAF JUMPI PUSH1 0x40 MLOAD PUSH32 0xF92EE8A900000000000000000000000000000000000000000000000000000000 DUP2 MSTORE PUSH1 0x4 ADD PUSH1 0x40 MLOAD DUP1 SWAP2 SUB SWAP1 REVERT JUMPDEST PUSH8 0xFFFFFFFFFFFFFFFF DUP1 AND DUP2 PUSH0 ADD PUSH0 SWAP1 SLOAD SWAP1 PUSH2 0x100 EXP SWAP1 DIV PUSH8 0xFFFFFFFFFFFFFFFF AND PUSH8 0xFFFFFFFFFFFFFFFF AND EQ PUSH2 0x151 JUMPI PUSH8 0xFFFFFFFFFFFFFFFF DUP2 PUSH0 ADD PUSH0 PUSH2 0x100 EXP DUP2 SLOAD DUP2 PUSH8 0xFFFFFFFFFFFFFFFF MUL NOT AND SWAP1 DUP4 PUSH8 0xFFFFFFFFFFFFFFFF AND MUL OR SWAP1 SSTORE POP PUSH32 0xC7F505B2F371AE2175EE4913F4499E1F2633A7B5936321EED1CDAEB6115181D2 PUSH8 0xFFFFFFFFFFFFFFFF PUSH1 0x40 MLOAD PUSH2 0x148 SWAP2 SWAP1 PUSH2 0x19D JUMP JUMPDEST PUSH1 0x40 MLOAD DUP1 SWAP2 SUB SWAP1 LOG1 JUMPDEST POP JUMP JUMPDEST PUSH0 PUSH32 0xF0C57E16840DF040F15088DC2F81FE391C3923BEC73E23A9662EFC9C229C6A00 SWAP1 POP SWAP1 JUMP JUMPDEST PUSH0 PUSH8 0xFFFFFFFFFFFFFFFF DUP3 AND SWAP1 POP SWAP2 SWAP1 POP JUMP JUMPDEST PUSH2 0x197 DUP2 PUSH2 0x17B JUMP JUMPDEST DUP3 MSTORE POP POP JUMP JUMPDEST PUSH0 PUSH1 0x20 DUP3 ADD SWAP1 POP PUSH2 0x1B0 PUSH0 DUP4 ADD DUP5 PUSH2 0x18E JUMP JUMPDEST SWAP3 SWAP2 POP POP JUMP JUMPDEST PUSH1 0x80 MLOAD PUSH2 0x4949 PUSH2 0x1DC PUSH0 CODECOPY PUSH0 DUP2 DUP2 PUSH2 0x225A ADD MSTORE DUP2 DUP2 PUSH2 0x22AF ADD MSTORE PUSH2 0x2469 ADD MSTORE PUSH2 0x4949 PUSH0 RETURN INVALID PUSH1 0x80 PUSH1 0x40 MSTORE PUSH1 0x4 CALLDATASIZE LT PUSH2 0x1D6 JUMPI PUSH0 CALLDATALOAD PUSH1 0xE0 SHR DUP1 PUSH4 0x8DA5CB5B GT PUSH2 0x101 JUMPI DUP1 PUSH4 0xC87B56DD GT PUSH2 0x94 JUMPI DUP1 PUSH4 0xEDEB4BBE GT PUSH2 0x63 JUMPI DUP1 PUSH4 0xEDEB4BBE EQ PUSH2 0x68D JUMPI DUP1 PUSH4 0xF119F567 EQ PUSH2 0x6B7 JUMPI DUP1 PUSH4 0xF28CA1DD EQ PUSH2 0x6DF JUMPI DUP1 PUSH4 0xF2FDE38B EQ PUSH2 0x709 JUMPI PUSH2 0x1D6 JUMP JUMPDEST DUP1 PUSH4 0xC87B56DD EQ PUSH2 0x5C3 JUMPI DUP1 PUSH4 0xD547CFB7 EQ PUSH2 0x5FF JUMPI DUP1 PUSH4 0xE0DF5B6F EQ PUSH2 0x629 JUMPI DUP1 PUSH4 0xE985E9C5 EQ PUSH2 0x651 JUMPI PUSH2 0x1D6 JUMP JUMPDEST DUP1 PUSH4 0xAD3CB1CC GT PUSH2 0xD0 JUMPI DUP1 PUSH4 0xAD3CB1CC EQ PUSH2 0x50C JUMPI DUP1 PUSH4 0xB564EA86 EQ PUSH2 0x536 JUMPI DUP1 PUSH4 0xB88D4FDE EQ PUSH2 0x573 JUMPI DUP1 PUSH4 0xBD9BA9E8 EQ PUSH2 0x59B JUMPI PUSH2 0x1D6 JUMP JUMPDEST DUP1 PUSH4 0x8DA5CB5B EQ PUSH2 0x468 JUMPI DUP1 PUSH4 0x90657147 EQ PUSH2 0x492 JUMPI DUP1 PUSH4 0x95D89B41 EQ PUSH2 0x4BA JUMPI DUP1 PUSH4 0xA22CB465 EQ PUSH2 0x4E4 JUMPI PUSH2 0x1D6 JUMP JUMPDEST DUP1 PUSH4 0x23B872DD GT PUSH2 0x179 JUMPI DUP1 PUSH4 0x52D1902D GT PUSH2 0x148 JUMPI DUP1 PUSH4 0x52D1902D EQ PUSH2 0x3B0 JUMPI DUP1 PUSH4 0x6352211E EQ PUSH2 0x3DA JUMPI DUP1 PUSH4 0x70A08231 EQ PUSH2 0x416 JUMPI DUP1 PUSH4 0x715018A6 EQ PUSH2 0x452 JUMPI PUSH2 0x1D6 JUMP JUMPDEST DUP1 PUSH4 0x23B872DD EQ PUSH2 0x31C JUMPI DUP1 PUSH4 0x39E3AA7E EQ PUSH2 0x344 JUMPI DUP1 PUSH4 0x42842E0E EQ PUSH2 0x36C JUMPI DUP1 PUSH4 0x4F1EF286 EQ PUSH2 0x394 JUMPI PUSH2 0x1D6 JUMP JUMPDEST DUP1 PUSH4 0x81812FC GT PUSH2 0x1B5 JUMPI DUP1 PUSH4 0x81812FC EQ PUSH2 0x268 JUMPI DUP1 PUSH4 0x95EA7B3 EQ PUSH2 0x2A4 JUMPI DUP1 PUSH4 0x18D217C3 EQ PUSH2 0x2CC JUMPI DUP1 PUSH4 0x1BC80EFF EQ PUSH2 0x2F4 JUMPI PUSH2 0x1D6 JUMP JUMPDEST DUP1 PUSH3 0xE00064 EQ PUSH2 0x1DA JUMPI DUP1 PUSH4 0x1FFC9A7 EQ PUSH2 0x202 JUMPI DUP1 PUSH4 0x6FDDE03 EQ PUSH2 0x23E JUMPI JUMPDEST PUSH0 DUP1 REVERT JUMPDEST CALLVALUE DUP1 ISZERO PUSH2 0x1E5 JUMPI PUSH0 DUP1 REVERT JUMPDEST POP PUSH2 0x200 PUSH1 0x4 DUP1 CALLDATASIZE SUB DUP2 ADD SWAP1 PUSH2 0x1FB SWAP2 SWAP1 PUSH2 0x34F5 JUMP JUMPDEST PUSH2 0x731 JUMP JUMPDEST STOP JUMPDEST CALLVALUE DUP1 ISZERO PUSH2 0x20D JUMPI PUSH0 DUP1 REVERT JUMPDEST POP PUSH2 0x228 PUSH1 0x4 DUP1 CALLDATASIZE SUB DUP2 ADD SWAP1 PUSH2 0x223 SWAP2 SWAP1 PUSH2 0x3575 JUMP JUMPDEST PUSH2 0x970 JUMP JUMPDEST PUSH1 0x40 MLOAD PUSH2 0x235 SWAP2 SWAP1 PUSH2 0x35BA JUMP JUMPDEST PUSH1 0x40 MLOAD DUP1 SWAP2 SUB SWAP1 RETURN JUMPDEST CALLVALUE DUP1 ISZERO PUSH2 0x249 JUMPI PUSH0 DUP1 REVERT JUMPDEST POP PUSH2 0x252 PUSH2 0x981 JUMP JUMPDEST PUSH1 0x40 MLOAD PUSH2 0x25F SWAP2 SWAP1 PUSH2 0x3643 JUMP JUMPDEST PUSH1 0x40 MLOAD DUP1 SWAP2 SUB SWAP1 RETURN JUMPDEST CALLVALUE DUP1 ISZERO PUSH2 0x273 JUMPI PUSH0 DUP1 REVERT JUMPDEST POP PUSH2 0x28E PUSH1 0x4 DUP1 CALLDATASIZE SUB DUP2 ADD SWAP1 PUSH2 0x289 SWAP2 SWAP1 PUSH2 0x34F5 JUMP JUMPDEST PUSH2 0xA1E JUMP JUMPDEST PUSH1 0x40 MLOAD PUSH2 0x29B SWAP2 SWAP1 PUSH2 0x36A2 JUMP JUMPDEST PUSH1 0x40 MLOAD DUP1 SWAP2 SUB SWAP1 RETURN JUMPDEST CALLVALUE DUP1 ISZERO PUSH2 0x2AF JUMPI PUSH0 DUP1 REVERT JUMPDEST POP PUSH2 0x2CA PUSH1 0x4 DUP1 CALLDATASIZE SUB DUP2 ADD SWAP1 PUSH2 0x2C5 SWAP2 SWAP1 PUSH2 0x36E5 JUMP JUMPDEST PUSH2 0xA39 JUMP JUMPDEST STOP JUMPDEST CALLVALUE DUP1 ISZERO PUSH2 0x2D7 JUMPI PUSH0 DUP1 REVERT JUMPDEST POP PUSH2 0x2F2 PUSH1 0x4 DUP1 CALLDATASIZE SUB DUP2 ADD SWAP1 PUSH2 0x2ED SWAP2 SWAP1 PUSH2 0x384F JUMP JUMPDEST PUSH2 0xA4F JUMP JUMPDEST STOP JUMPDEST CALLVALUE DUP1 ISZERO PUSH2 0x2FF JUMPI PUSH0 DUP1 REVERT JUMPDEST POP PUSH2 0x31A PUSH1 0x4 DUP1 CALLDATASIZE SUB DUP2 ADD SWAP1 PUSH2 0x315 SWAP2 SWAP1 PUSH2 0x34F5 JUMP JUMPDEST PUSH2 0xA6A JUMP JUMPDEST STOP JUMPDEST CALLVALUE DUP1 ISZERO PUSH2 0x327 JUMPI PUSH0 DUP1 REVERT JUMPDEST POP PUSH2 0x342 PUSH1 0x4 DUP1 CALLDATASIZE SUB DUP2 ADD SWAP1 PUSH2 0x33D SWAP2 SWAP1 PUSH2 0x3896 JUMP JUMPDEST PUSH2 0xC81 JUMP JUMPDEST STOP JUMPDEST CALLVALUE DUP1 ISZERO PUSH2 0x34F JUMPI PUSH0 DUP1 REVERT JUMPDEST POP PUSH2 0x36A PUSH1 0x4 DUP1 CALLDATASIZE SUB DUP2 ADD SWAP1 PUSH2 0x365 SWAP2 SWAP1 PUSH2 0x384F JUMP JUMPDEST PUSH2 0xD80 JUMP JUMPDEST STOP JUMPDEST CALLVALUE DUP1 ISZERO PUSH2 0x377 JUMPI PUSH0 DUP1 REVERT JUMPDEST POP PUSH2 0x392 PUSH1 0x4 DUP1 CALLDATASIZE SUB DUP2 ADD SWAP1 PUSH2 0x38D SWAP2 SWAP1 PUSH2 0x3896 JUMP JUMPDEST PUSH2 0xD9B JUMP JUMPDEST STOP JUMPDEST PUSH2 0x3AE PUSH1 0x4 DUP1 CALLDATASIZE SUB DUP2 ADD SWAP1 PUSH2 0x3A9 SWAP2 SWAP1 PUSH2 0x3984 JUMP JUMPDEST PUSH2 0xDBA JUMP JUMPDEST STOP JUMPDEST CALLVALUE DUP1 ISZERO PUSH2 0x3BB JUMPI PUSH0 DUP1 REVERT JUMPDEST POP PUSH2 0x3C4 PUSH2 0xDD9 JUMP JUMPDEST PUSH1 0x40 MLOAD PUSH2 0x3D1 SWAP2 SWAP1 PUSH2 0x39F6 JUMP JUMPDEST PUSH1 0x40 MLOAD DUP1 SWAP2 SUB SWAP1 RETURN JUMPDEST CALLVALUE DUP1 ISZERO PUSH2 0x3E5 JUMPI PUSH0 DUP1 REVERT JUMPDEST POP PUSH2 0x400 PUSH1 0x4 DUP1 CALLDATASIZE SUB DUP2 ADD SWAP1 PUSH2 0x3FB SWAP2 SWAP1 PUSH2 0x34F5 JUMP JUMPDEST PUSH2 0xE0A JUMP JUMPDEST PUSH1 0x40 MLOAD PUSH2 0x40D SWAP2 SWAP1 PUSH2 0x36A2 JUMP JUMPDEST PUSH1 0x40 MLOAD DUP1 SWAP2 SUB SWAP1 RETURN JUMPDEST CALLVALUE DUP1 ISZERO PUSH2 0x421 JUMPI PUSH0 DUP1 REVERT JUMPDEST POP PUSH2 0x43C PUSH1 0x4 DUP1 CALLDATASIZE SUB DUP2 ADD SWAP1 PUSH2 0x437 SWAP2 SWAP1 PUSH2 0x3A0F JUMP JUMPDEST PUSH2 0xE1B JUMP JUMPDEST PUSH1 0x40 MLOAD PUSH2 0x449 SWAP2 SWAP1 PUSH2 0x3A49 JUMP JUMPDEST PUSH1 0x40 MLOAD DUP1 SWAP2 SUB SWAP1 RETURN JUMPDEST CALLVALUE DUP1 ISZERO PUSH2 0x45D JUMPI PUSH0 DUP1 REVERT JUMPDEST POP PUSH2 0x466 PUSH2 0xEDF JUMP JUMPDEST STOP JUMPDEST CALLVALUE DUP1 ISZERO PUSH2 0x473 JUMPI PUSH0 DUP1 REVERT JUMPDEST POP PUSH2 0x47C PUSH2 0xEF2 JUMP JUMPDEST PUSH1 0x40 MLOAD PUSH2 0x489 SWAP2 SWAP1 PUSH2 0x36A2 JUMP JUMPDEST PUSH1 0x40 MLOAD DUP1 SWAP2 SUB SWAP1 RETURN JUMPDEST CALLVALUE DUP1 ISZERO PUSH2 0x49D JUMPI PUSH0 DUP1 REVERT JUMPDEST POP PUSH2 0x4B8 PUSH1 0x4 DUP1 CALLDATASIZE SUB DUP2 ADD SWAP1 PUSH2 0x4B3 SWAP2 SWAP1 PUSH2 0x3A62 JUMP JUMPDEST PUSH2 0xF27 JUMP JUMPDEST STOP JUMPDEST CALLVALUE DUP1 ISZERO PUSH2 0x4C5 JUMPI PUSH0 DUP1 REVERT JUMPDEST POP PUSH2 0x4CE PUSH2 0x10CB JUMP JUMPDEST PUSH1 0x40 MLOAD PUSH2 0x4DB SWAP2 SWAP1 PUSH2 0x3643 JUMP JUMPDEST PUSH1 0x40 MLOAD DUP1 SWAP2 SUB SWAP1 RETURN JUMPDEST CALLVALUE DUP1 ISZERO PUSH2 0x4EF JUMPI PUSH0 DUP1 REVERT JUMPDEST POP PUSH2 0x50A PUSH1 0x4 DUP1 CALLDATASIZE SUB DUP2 ADD SWAP1 PUSH2 0x505 SWAP2 SWAP1 PUSH2 0x3B14 JUMP JUMPDEST PUSH2 0x1169 JUMP JUMPDEST STOP JUMPDEST CALLVALUE DUP1 ISZERO PUSH2 0x517 JUMPI PUSH0 DUP1 REVERT JUMPDEST POP PUSH2 0x520 PUSH2 0x117F JUMP JUMPDEST PUSH1 0x40 MLOAD PUSH2 0x52D SWAP2 SWAP1 PUSH2 0x3643 JUMP JUMPDEST PUSH1 0x40 MLOAD DUP1 SWAP2 SUB SWAP1 RETURN JUMPDEST CALLVALUE DUP1 ISZERO PUSH2 0x541 JUMPI PUSH0 DUP1 REVERT JUMPDEST POP PUSH2 0x55C PUSH1 0x4 DUP1 CALLDATASIZE SUB DUP2 ADD SWAP1 PUSH2 0x557 SWAP2 SWAP1 PUSH2 0x34F5 JUMP JUMPDEST PUSH2 0x11B8 JUMP JUMPDEST PUSH1 0x40 MLOAD PUSH2 0x56A SWAP3 SWAP2 SWAP1 PUSH2 0x3BC5 JUMP JUMPDEST PUSH1 0x40 MLOAD DUP1 SWAP2 SUB SWAP1 RETURN JUMPDEST CALLVALUE DUP1 ISZERO PUSH2 0x57E JUMPI PUSH0 DUP1 REVERT JUMPDEST POP PUSH2 0x599 PUSH1 0x4 DUP1 CALLDATASIZE SUB DUP2 ADD SWAP1 PUSH2 0x594 SWAP2 SWAP1 PUSH2 0x3BEC JUMP JUMPDEST PUSH2 0x133F JUMP JUMPDEST STOP JUMPDEST CALLVALUE DUP1 ISZERO PUSH2 0x5A6 JUMPI PUSH0 DUP1 REVERT JUMPDEST POP PUSH2 0x5C1 PUSH1 0x4 DUP1 CALLDATASIZE SUB DUP2 ADD SWAP1 PUSH2 0x5BC SWAP2 SWAP1 PUSH2 0x384F JUMP JUMPDEST PUSH2 0x135C JUMP JUMPDEST STOP JUMPDEST CALLVALUE DUP1 ISZERO PUSH2 0x5CE JUMPI PUSH0 DUP1 REVERT JUMPDEST POP PUSH2 0x5E9 PUSH1 0x4 DUP1 CALLDATASIZE SUB DUP2 ADD SWAP1 PUSH2 0x5E4 SWAP2 SWAP1 PUSH2 0x34F5 JUMP JUMPDEST PUSH2 0x1377 JUMP JUMPDEST PUSH1 0x40 MLOAD PUSH2 0x5F6 SWAP2 SWAP1 PUSH2 0x3643 JUMP JUMPDEST PUSH1 0x40 MLOAD DUP1 SWAP2 SUB SWAP1 RETURN JUMPDEST CALLVALUE DUP1 ISZERO PUSH2 0x60A JUMPI PUSH0 DUP1 REVERT JUMPDEST POP PUSH2 0x613 PUSH2 0x17EC JUMP JUMPDEST PUSH1 0x40 MLOAD PUSH2 0x620 SWAP2 SWAP1 PUSH2 0x3643 JUMP JUMPDEST PUSH1 0x40 MLOAD DUP1 SWAP2 SUB SWAP1 RETURN JUMPDEST CALLVALUE DUP1 ISZERO PUSH2 0x634 JUMPI PUSH0 DUP1 REVERT JUMPDEST POP PUSH2 0x64F PUSH1 0x4 DUP1 CALLDATASIZE SUB DUP2 ADD SWAP1 PUSH2 0x64A SWAP2 SWAP1 PUSH2 0x384F JUMP JUMPDEST PUSH2 0x1878 JUMP JUMPDEST STOP JUMPDEST CALLVALUE DUP1 ISZERO PUSH2 0x65C JUMPI PUSH0 DUP1 REVERT JUMPDEST POP PUSH2 0x677 PUSH1 0x4 DUP1 CALLDATASIZE SUB DUP2 ADD SWAP1 PUSH2 0x672 SWAP2 SWAP1 PUSH2 0x3C6C JUMP JUMPDEST PUSH2 0x1893 JUMP JUMPDEST PUSH1 0x40 MLOAD PUSH2 0x684 SWAP2 SWAP1 PUSH2 0x35BA JUMP JUMPDEST PUSH1 0x40 MLOAD DUP1 SWAP2 SUB SWAP1 RETURN JUMPDEST CALLVALUE DUP1 ISZERO PUSH2 0x698 JUMPI PUSH0 DUP1 REVERT JUMPDEST POP PUSH2 0x6A1 PUSH2 0x192F JUMP JUMPDEST PUSH1 0x40 MLOAD PUSH2 0x6AE SWAP2 SWAP1 PUSH2 0x3643 JUMP JUMPDEST PUSH1 0x40 MLOAD DUP1 SWAP2 SUB SWAP1 RETURN JUMPDEST CALLVALUE DUP1 ISZERO PUSH2 0x6C2 JUMPI PUSH0 DUP1 REVERT JUMPDEST POP PUSH2 0x6DD PUSH1 0x4 DUP1 CALLDATASIZE SUB DUP2 ADD SWAP1 PUSH2 0x6D8 SWAP2 SWAP1 PUSH2 0x34F5 JUMP JUMPDEST PUSH2 0x19BB JUMP JUMPDEST STOP JUMPDEST CALLVALUE DUP1 ISZERO PUSH2 0x6EA JUMPI PUSH0 DUP1 REVERT JUMPDEST POP PUSH2 0x6F3 PUSH2 0x1CA2 JUMP JUMPDEST PUSH1 0x40 MLOAD PUSH2 0x700 SWAP2 SWAP1 PUSH2 0x3643 JUMP JUMPDEST PUSH1 0x40 MLOAD DUP1 SWAP2 SUB SWAP1 RETURN JUMPDEST CALLVALUE DUP1 ISZERO PUSH2 0x714 JUMPI PUSH0 DUP1 REVERT JUMPDEST POP PUSH2 0x72F PUSH1 0x4 DUP1 CALLDATASIZE SUB DUP2 ADD SWAP1 PUSH2 0x72A SWAP2 SWAP1 PUSH2 0x3A0F JUMP JUMPDEST PUSH2 0x1D2E JUMP JUMPDEST STOP JUMPDEST PUSH1 0x3 DUP1 DUP2 GT ISZERO PUSH2 0x744 JUMPI PUSH2 0x743 PUSH2 0x3B52 JUMP JUMPDEST JUMPDEST PUSH0 DUP1 DUP4 DUP2 MSTORE PUSH1 0x20 ADD SWAP1 DUP2 MSTORE PUSH1 0x20 ADD PUSH0 KECCAK256 PUSH0 SWAP1 SLOAD SWAP1 PUSH2 0x100 EXP SWAP1 DIV PUSH1 0xFF AND PUSH1 0x3 DUP2 GT ISZERO PUSH2 0x773 JUMPI PUSH2 0x772 PUSH2 0x3B52 JUMP JUMPDEST JUMPDEST SUB PUSH2 0x7B3 JUMPI PUSH1 0x40 MLOAD PUSH32 0x8C379A000000000000000000000000000000000000000000000000000000000 DUP2 MSTORE PUSH1 0x4 ADD PUSH2 0x7AA SWAP1 PUSH2 0x3CF4 JUMP JUMPDEST PUSH1 0x40 MLOAD DUP1 SWAP2 SUB SWAP1 REVERT JUMPDEST CALLER PUSH20 0xFFFFFFFFFFFFFFFFFFFFFFFFFFFFFFFFFFFFFFFF AND PUSH2 0x7D3 DUP3 PUSH2 0xE0A JUMP JUMPDEST PUSH20 0xFFFFFFFFFFFFFFFFFFFFFFFFFFFFFFFFFFFFFFFF AND EQ PUSH2 0x829 JUMPI PUSH1 0x40 MLOAD PUSH32 0x8C379A000000000000000000000000000000000000000000000000000000000 DUP2 MSTORE PUSH1 0x4 ADD PUSH2 0x820 SWAP1 PUSH2 0x3D5C JUMP JUMPDEST PUSH1 0x40 MLOAD DUP1 SWAP2 SUB SWAP1 REVERT JUMPDEST PUSH0 DUP1 PUSH0 DUP4 DUP2 MSTORE PUSH1 0x20 ADD SWAP1 DUP2 MSTORE PUSH1 0x20 ADD PUSH0 KECCAK256 PUSH0 SWAP1 SLOAD SWAP1 PUSH2 0x100 EXP SWAP1 DIV PUSH1 0xFF AND SWAP1 POP PUSH0 PUSH1 0x2 PUSH0 DUP5 DUP2 MSTORE PUSH1 0x20 ADD SWAP1 DUP2 MSTORE PUSH1 0x20 ADD PUSH0 KECCAK256 SWAP1 POP PUSH0 TIMESTAMP SWAP1 POP PUSH0 PUSH1 0x3 DUP2 GT ISZERO PUSH2 0x874 JUMPI PUSH2 0x873 PUSH2 0x3B52 JUMP JUMPDEST JUMPDEST DUP4 PUSH1 0x3 DUP2 GT ISZERO PUSH2 0x887 JUMPI PUSH2 0x886 PUSH2 0x3B52 JUMP JUMPDEST JUMPDEST SUB PUSH2 0x8B8 JUMPI PUSH2 0x8AC DUP2 PUSH1 0x2 PUSH0 DUP8 DUP2 MSTORE PUSH1 0x20 ADD SWAP1 DUP2 MSTORE PUSH1 0x20 ADD PUSH0 KECCAK256 PUSH0 ADD SLOAD PUSH2 0x2A30 PUSH2 0x1DB2 JUMP JUMPDEST DUP3 PUSH0 ADD DUP2 SWAP1 SSTORE POP PUSH2 0x96A JUMP JUMPDEST PUSH1 0x1 PUSH1 0x3 DUP2 GT ISZERO PUSH2 0x8CC JUMPI PUSH2 0x8CB PUSH2 0x3B52 JUMP JUMPDEST JUMPDEST DUP4 PUSH1 0x3 DUP2 GT ISZERO PUSH2 0x8DF JUMPI PUSH2 0x8DE PUSH2 0x3B52 JUMP JUMPDEST JUMPDEST SUB PUSH2 0x912 JUMPI PUSH2 0x905 DUP2 PUSH1 0x2 PUSH0 DUP8 DUP2 MSTORE PUSH1 0x20 ADD SWAP1 DUP2 MSTORE PUSH1 0x20 ADD PUSH0 KECCAK256 PUSH1 0x1 ADD SLOAD PUSH2 0x2A30 PUSH2 0x1DB2 JUMP JUMPDEST DUP3 PUSH1 0x1 ADD DUP2 SWAP1 SSTORE POP PUSH2 0x969 JUMP JUMPDEST PUSH1 0x2 PUSH1 0x3 DUP2 GT ISZERO PUSH2 0x926 JUMPI PUSH2 0x925 PUSH2 0x3B52 JUMP JUMPDEST JUMPDEST DUP4 PUSH1 0x3 DUP2 GT ISZERO PUSH2 0x939 JUMPI PUSH2 0x938 PUSH2 0x3B52 JUMP JUMPDEST JUMPDEST SUB PUSH2 0x968 JUMPI PUSH2 0x95F DUP2 PUSH1 0x2 PUSH0 DUP8 DUP2 MSTORE PUSH1 0x20 ADD SWAP1 DUP2 MSTORE PUSH1 0x20 ADD PUSH0 KECCAK256 PUSH1 0x2 ADD SLOAD PUSH2 0x2A30 PUSH2 0x1DB2 JUMP JUMPDEST DUP3 PUSH1 0x2 ADD DUP2 SWAP1 SSTORE POP JUMPDEST JUMPDEST JUMPDEST POP POP POP POP JUMP JUMPDEST PUSH0 PUSH2 0x97A DUP3 PUSH2 0x1DE3 JUMP JUMPDEST SWAP1 POP SWAP2 SWAP1 POP JUMP JUMPDEST PUSH1 0x60 PUSH0 PUSH2 0x98C PUSH2 0x1E43 JUMP JUMPDEST SWAP1 POP DUP1 PUSH0 ADD DUP1 SLOAD PUSH2 0x99C SWAP1 PUSH2 0x3DA7 JUMP JUMPDEST DUP1 PUSH1 0x1F ADD PUSH1 0x20 DUP1 SWAP2 DIV MUL PUSH1 0x20 ADD PUSH1 0x40 MLOAD SWAP1 DUP2 ADD PUSH1 0x40 MSTORE DUP1 SWAP3 SWAP2 SWAP1 DUP2 DUP2 MSTORE PUSH1 0x20 ADD DUP3 DUP1 SLOAD PUSH2 0x9C8 SWAP1 PUSH2 0x3DA7 JUMP JUMPDEST DUP1 ISZERO PUSH2 0xA13 JUMPI DUP1 PUSH1 0x1F LT PUSH2 0x9EA JUMPI PUSH2 0x100 DUP1 DUP4 SLOAD DIV MUL DUP4 MSTORE SWAP2 PUSH1 0x20 ADD SWAP2 PUSH2 0xA13 JUMP JUMPDEST DUP3 ADD SWAP2 SWAP1 PUSH0 MSTORE PUSH1 0x20 PUSH0 KECCAK256 SWAP1 JUMPDEST DUP2 SLOAD DUP2 MSTORE SWAP1 PUSH1 0x1 ADD SWAP1 PUSH1 0x20 ADD DUP1 DUP4 GT PUSH2 0x9F6 JUMPI DUP3 SWAP1 SUB PUSH1 0x1F AND DUP3 ADD SWAP2 JUMPDEST POP POP POP POP POP SWAP2 POP POP SWAP1 JUMP JUMPDEST PUSH0 PUSH2 0xA28 DUP3 PUSH2 0x1E6A JUMP JUMPDEST POP PUSH2 0xA32 DUP3 PUSH2 0x1EF0 JUMP JUMPDEST SWAP1 POP SWAP2 SWAP1 POP JUMP JUMPDEST PUSH2 0xA4B DUP3 DUP3 PUSH2 0xA46 PUSH2 0x1F37 JUMP JUMPDEST PUSH2 0x1F3E JUMP JUMPDEST POP POP JUMP JUMPDEST PUSH2 0xA57 PUSH2 0x1F50 JUMP JUMPDEST DUP1 PUSH1 0x7 SWAP1 DUP2 PUSH2 0xA66 SWAP2 SWAP1 PUSH2 0x3F74 JUMP JUMPDEST POP POP JUMP JUMPDEST PUSH2 0xA72 PUSH2 0x1F50 JUMP JUMPDEST PUSH0 DUP1 PUSH0 DUP4 DUP2 MSTORE PUSH1 0x20 ADD SWAP1 DUP2 MSTORE PUSH1 0x20 ADD PUSH0 KECCAK256 PUSH0 SWAP1 SLOAD SWAP1 PUSH2 0x100 EXP SWAP1 DIV PUSH1 0xFF AND SWAP1 POP PUSH0 PUSH1 0x3 DUP2 GT ISZERO PUSH2 0xAA5 JUMPI PUSH2 0xAA4 PUSH2 0x3B52 JUMP JUMPDEST JUMPDEST DUP2 PUSH1 0x3 DUP2 GT ISZERO PUSH2 0xAB8 JUMPI PUSH2 0xAB7 PUSH2 0x3B52 JUMP JUMPDEST JUMPDEST SUB PUSH2 0xB41 JUMPI PUSH1 0x1 PUSH0 DUP1 DUP5 DUP2 MSTORE PUSH1 0x20 ADD SWAP1 DUP2 MSTORE PUSH1 0x20 ADD PUSH0 KECCAK256 PUSH0 PUSH2 0x100 EXP DUP2 SLOAD DUP2 PUSH1 0xFF MUL NOT AND SWAP1 DUP4 PUSH1 0x3 DUP2 GT ISZERO PUSH2 0xAF0 JUMPI PUSH2 0xAEF PUSH2 0x3B52 JUMP JUMPDEST JUMPDEST MUL OR SWAP1 SSTORE POP PUSH2 0xAFD PUSH2 0x1FD7 JUMP JUMPDEST PUSH1 0x1 PUSH0 DUP5 DUP2 MSTORE PUSH1 0x20 ADD SWAP1 DUP2 MSTORE PUSH1 0x20 ADD PUSH0 KECCAK256 PUSH1 0x1 ADD DUP2 SWAP1 SSTORE POP PUSH3 0x2A300 TIMESTAMP PUSH2 0xB24 SWAP2 SWAP1 PUSH2 0x4070 JUMP JUMPDEST PUSH1 0x2 PUSH0 DUP5 DUP2 MSTORE PUSH1 0x20 ADD SWAP1 DUP2 MSTORE PUSH1 0x20 ADD PUSH0 KECCAK256 PUSH1 0x1 ADD DUP2 SWAP1 SSTORE POP PUSH2 0xC7D JUMP JUMPDEST PUSH1 0x1 PUSH1 0x3 DUP2 GT ISZERO PUSH2 0xB55 JUMPI PUSH2 0xB54 PUSH2 0x3B52 JUMP JUMPDEST JUMPDEST DUP2 PUSH1 0x3 DUP2 GT ISZERO PUSH2 0xB68 JUMPI PUSH2 0xB67 PUSH2 0x3B52 JUMP JUMPDEST JUMPDEST SUB PUSH2 0xBD1 JUMPI PUSH1 0x2 PUSH0 DUP1 DUP5 DUP2 MSTORE PUSH1 0x20 ADD SWAP1 DUP2 MSTORE PUSH1 0x20 ADD PUSH0 KECCAK256 PUSH0 PUSH2 0x100 EXP DUP2 SLOAD DUP2 PUSH1 0xFF MUL NOT AND SWAP1 DUP4 PUSH1 0x3 DUP2 GT ISZERO PUSH2 0xBA0 JUMPI PUSH2 0xB9F PUSH2 0x3B52 JUMP JUMPDEST JUMPDEST MUL OR SWAP1 SSTORE POP PUSH3 0x3F480 TIMESTAMP PUSH2 0xBB4 SWAP2 SWAP1 PUSH2 0x4070 JUMP JUMPDEST PUSH1 0x2 PUSH0 DUP5 DUP2 MSTORE PUSH1 0x20 ADD SWAP1 DUP2 MSTORE PUSH1 0x20 ADD PUSH0 KECCAK256 PUSH1 0x2 ADD DUP2 SWAP1 SSTORE POP PUSH2 0xC7C JUMP JUMPDEST PUSH1 0x2 PUSH1 0x3 DUP2 GT ISZERO PUSH2 0xBE5 JUMPI PUSH2 0xBE4 PUSH2 0x3B52 JUMP JUMPDEST JUMPDEST DUP2 PUSH1 0x3 DUP2 GT ISZERO PUSH2 0xBF8 JUMPI PUSH2 0xBF7 PUSH2 0x3B52 JUMP JUMPDEST JUMPDEST SUB PUSH2 0xC3A JUMPI PUSH1 0x3 PUSH0 DUP1 DUP5 DUP2 MSTORE PUSH1 0x20 ADD SWAP1 DUP2 MSTORE PUSH1 0x20 ADD PUSH0 KECCAK256 PUSH0 PUSH2 0x100 EXP DUP2 SLOAD DUP2 PUSH1 0xFF MUL NOT AND SWAP1 DUP4 PUSH1 0x3 DUP2 GT ISZERO PUSH2 0xC30 JUMPI PUSH2 0xC2F PUSH2 0x3B52 JUMP JUMPDEST JUMPDEST MUL OR SWAP1 SSTORE POP PUSH2 0xC7B JUMP JUMPDEST PUSH0 PUSH2 0xC7A JUMPI PUSH1 0x40 MLOAD PUSH32 0x8C379A000000000000000000000000000000000000000000000000000000000 DUP2 MSTORE PUSH1 0x4 ADD PUSH2 0xC71 SWAP1 PUSH2 0x40ED JUMP JUMPDEST PUSH1 0x40 MLOAD DUP1 SWAP2 SUB SWAP1 REVERT JUMPDEST JUMPDEST JUMPDEST JUMPDEST POP POP JUMP JUMPDEST PUSH0 PUSH20 0xFFFFFFFFFFFFFFFFFFFFFFFFFFFFFFFFFFFFFFFF AND DUP3 PUSH20 0xFFFFFFFFFFFFFFFFFFFFFFFFFFFFFFFFFFFFFFFF AND SUB PUSH2 0xCF1 JUMPI PUSH0 PUSH1 0x40 MLOAD PUSH32 0x64A0AE9200000000000000000000000000000000000000000000000000000000 DUP2 MSTORE PUSH1 0x4 ADD PUSH2 0xCE8 SWAP2 SWAP1 PUSH2 0x36A2 JUMP JUMPDEST PUSH1 0x40 MLOAD DUP1 SWAP2 SUB SWAP1 REVERT JUMPDEST PUSH0 PUSH2 0xD04 DUP4 DUP4 PUSH2 0xCFF PUSH2 0x1F37 JUMP JUMPDEST PUSH2 0x203B JUMP JUMPDEST SWAP1 POP DUP4 PUSH20 0xFFFFFFFFFFFFFFFFFFFFFFFFFFFFFFFFFFFFFFFF AND DUP2 PUSH20 0xFFFFFFFFFFFFFFFFFFFFFFFFFFFFFFFFFFFFFFFF AND EQ PUSH2 0xD7A JUMPI DUP4 DUP3 DUP3 PUSH1 0x40 MLOAD PUSH32 0x64283D7B00000000000000000000000000000000000000000000000000000000 DUP2 MSTORE PUSH1 0x4 ADD PUSH2 0xD71 SWAP4 SWAP3 SWAP2 SWAP1 PUSH2 0x410B JUMP JUMPDEST PUSH1 0x40 MLOAD DUP1 SWAP2 SUB SWAP1 REVERT JUMPDEST POP POP POP POP JUMP JUMPDEST PUSH2 0xD88 PUSH2 0x1F50 JUMP JUMPDEST DUP1 PUSH1 0x9 SWAP1 DUP2 PUSH2 0xD97 SWAP2 SWAP1 PUSH2 0x3F74 JUMP JUMPDEST POP POP JUMP JUMPDEST PUSH2 0xDB5 DUP4 DUP4 DUP4 PUSH1 0x40 MLOAD DUP1 PUSH1 0x20 ADD PUSH1 0x40 MSTORE DUP1 PUSH0 DUP2 MSTORE POP PUSH2 0x133F JUMP JUMPDEST POP POP POP JUMP JUMPDEST PUSH2 0xDC2 PUSH2 0x2258 JUMP JUMPDEST PUSH2 0xDCB DUP3 PUSH2 0x233E JUMP JUMPDEST PUSH2 0xDD5 DUP3 DUP3 PUSH2 0x2349 JUMP JUMPDEST POP POP JUMP JUMPDEST PUSH0 PUSH2 0xDE2 PUSH2 0x2467 JUMP JUMPDEST PUSH32 0x360894A13BA1A3210667C828492DB98DCA3E2076CC3735A920A3CA505D382BBC PUSH0 SHL SWAP1 POP SWAP1 JUMP JUMPDEST PUSH0 PUSH2 0xE14 DUP3 PUSH2 0x1E6A JUMP JUMPDEST SWAP1 POP SWAP2 SWAP1 POP JUMP JUMPDEST PUSH0 DUP1 PUSH2 0xE25 PUSH2 0x1E43 JUMP JUMPDEST SWAP1 POP PUSH0 PUSH20 0xFFFFFFFFFFFFFFFFFFFFFFFFFFFFFFFFFFFFFFFF AND DUP4 PUSH20 0xFFFFFFFFFFFFFFFFFFFFFFFFFFFFFFFFFFFFFFFF AND SUB PUSH2 0xE97 JUMPI PUSH0 PUSH1 0x40 MLOAD PUSH32 0x89C62B6400000000000000000000000000000000000000000000000000000000 DUP2 MSTORE PUSH1 0x4 ADD PUSH2 0xE8E SWAP2 SWAP1 PUSH2 0x36A2 JUMP JUMPDEST PUSH1 0x40 MLOAD DUP1 SWAP2 SUB SWAP1 REVERT JUMPDEST DUP1 PUSH1 0x3 ADD PUSH0 DUP5 PUSH20 0xFFFFFFFFFFFFFFFFFFFFFFFFFFFFFFFFFFFFFFFF AND PUSH20 0xFFFFFFFFFFFFFFFFFFFFFFFFFFFFFFFFFFFFFFFF AND DUP2 MSTORE PUSH1 0x20 ADD SWAP1 DUP2 MSTORE PUSH1 0x20 ADD PUSH0 KECCAK256 SLOAD SWAP2 POP POP SWAP2 SWAP1 POP JUMP JUMPDEST PUSH2 0xEE7 PUSH2 0x1F50 JUMP JUMPDEST PUSH2 0xEF0 PUSH0 PUSH2 0x24EE JUMP JUMPDEST JUMP JUMPDEST PUSH0 DUP1 PUSH2 0xEFC PUSH2 0x25BF JUMP JUMPDEST SWAP1 POP DUP1 PUSH0 ADD PUSH0 SWAP1 SLOAD SWAP1 PUSH2 0x100 EXP SWAP1 DIV PUSH20 0xFFFFFFFFFFFFFFFFFFFFFFFFFFFFFFFFFFFFFFFF AND SWAP2 POP POP SWAP1 JUMP JUMPDEST PUSH0 PUSH2 0xF30 PUSH2 0x25E6 JUMP JUMPDEST SWAP1 POP PUSH0 DUP2 PUSH0 ADD PUSH1 0x8 SWAP1 SLOAD SWAP1 PUSH2 0x100 EXP SWAP1 DIV PUSH1 0xFF AND ISZERO SWAP1 POP PUSH0 DUP3 PUSH0 ADD PUSH0 SWAP1 SLOAD SWAP1 PUSH2 0x100 EXP SWAP1 DIV PUSH8 0xFFFFFFFFFFFFFFFF AND SWAP1 POP PUSH0 DUP1 DUP3 PUSH8 0xFFFFFFFFFFFFFFFF AND EQ DUP1 ISZERO PUSH2 0xF78 JUMPI POP DUP3 JUMPDEST SWAP1 POP PUSH0 PUSH1 0x1 DUP4 PUSH8 0xFFFFFFFFFFFFFFFF AND EQ DUP1 ISZERO PUSH2 0xFAB JUMPI POP PUSH0 ADDRESS PUSH20 0xFFFFFFFFFFFFFFFFFFFFFFFFFFFFFFFFFFFFFFFF AND EXTCODESIZE EQ JUMPDEST SWAP1 POP DUP2 ISZERO DUP1 ISZERO PUSH2 0xFB9 JUMPI POP DUP1 ISZERO JUMPDEST ISZERO PUSH2 0xFF0 JUMPI PUSH1 0x40 MLOAD PUSH32 0xF92EE8A900000000000000000000000000000000000000000000000000000000 DUP2 MSTORE PUSH1 0x4 ADD PUSH1 0x40 MLOAD DUP1 SWAP2 SUB SWAP1 REVERT JUMPDEST PUSH1 0x1 DUP6 PUSH0 ADD PUSH0 PUSH2 0x100 EXP DUP2 SLOAD DUP2 PUSH8 0xFFFFFFFFFFFFFFFF MUL NOT AND SWAP1 DUP4 PUSH8 0xFFFFFFFFFFFFFFFF AND MUL OR SWAP1 SSTORE POP DUP4 ISZERO PUSH2 0x103D JUMPI PUSH1 0x1 DUP6 PUSH0 ADD PUSH1 0x8 PUSH2 0x100 EXP DUP2 SLOAD DUP2 PUSH1 0xFF MUL NOT AND SWAP1 DUP4 ISZERO ISZERO MUL OR SWAP1 SSTORE POP JUMPDEST PUSH2 0x1047 DUP8 DUP8 PUSH2 0x260D JUMP JUMPDEST PUSH2 0x104F PUSH2 0x2623 JUMP JUMPDEST PUSH2 0x1058 DUP9 PUSH2 0x262D JUMP JUMPDEST PUSH2 0x1060 PUSH2 0x2641 JUMP JUMPDEST PUSH0 PUSH1 0x5 DUP2 SWAP1 SSTORE POP DUP4 ISZERO PUSH2 0x10C1 JUMPI PUSH0 DUP6 PUSH0 ADD PUSH1 0x8 PUSH2 0x100 EXP DUP2 SLOAD DUP2 PUSH1 0xFF MUL NOT AND SWAP1 DUP4 ISZERO ISZERO MUL OR SWAP1 SSTORE POP PUSH32 0xC7F505B2F371AE2175EE4913F4499E1F2633A7B5936321EED1CDAEB6115181D2 PUSH1 0x1 PUSH1 0x40 MLOAD PUSH2 0x10B8 SWAP2 SWAP1 PUSH2 0x418C JUMP JUMPDEST PUSH1 0x40 MLOAD DUP1 SWAP2 SUB SWAP1 LOG1 JUMPDEST POP POP POP POP POP POP POP POP JUMP JUMPDEST PUSH1 0x60 PUSH0 PUSH2 0x10D6 PUSH2 0x1E43 JUMP JUMPDEST SWAP1 POP DUP1 PUSH1 0x1 ADD DUP1 SLOAD PUSH2 0x10E7 SWAP1 PUSH2 0x3DA7 JUMP JUMPDEST DUP1 PUSH1 0x1F ADD PUSH1 0x20 DUP1 SWAP2 DIV MUL PUSH1 0x20 ADD PUSH1 0x40 MLOAD SWAP1 DUP2 ADD PUSH1 0x40 MSTORE DUP1 SWAP3 SWAP2 SWAP1 DUP2 DUP2 MSTORE PUSH1 0x20 ADD DUP3 DUP1 SLOAD PUSH2 0x1113 SWAP1 PUSH2 0x3DA7 JUMP JUMPDEST DUP1 ISZERO PUSH2 0x115E JUMPI DUP1 PUSH1 0x1F LT PUSH2 0x1135 JUMPI PUSH2 0x100 DUP1 DUP4 SLOAD DIV MUL DUP4 MSTORE SWAP2 PUSH1 0x20 ADD SWAP2 PUSH2 0x115E JUMP JUMPDEST DUP3 ADD SWAP2 SWAP1 PUSH0 MSTORE PUSH1 0x20 PUSH0 KECCAK256 SWAP1 JUMPDEST DUP2 SLOAD DUP2 MSTORE SWAP1 PUSH1 0x1 ADD SWAP1 PUSH1 0x20 ADD DUP1 DUP4 GT PUSH2 0x1141 JUMPI DUP3 SWAP1 SUB PUSH1 0x1F AND DUP3 ADD SWAP2 JUMPDEST POP POP POP POP POP SWAP2 POP POP SWAP1 JUMP JUMPDEST PUSH2 0x117B PUSH2 0x1174 PUSH2 0x1F37 JUMP JUMPDEST DUP4 DUP4 PUSH2 0x264B JUMP JUMPDEST POP POP JUMP JUMPDEST PUSH1 0x40 MLOAD DUP1 PUSH1 0x40 ADD PUSH1 0x40 MSTORE DUP1 PUSH1 0x5 DUP2 MSTORE PUSH1 0x20 ADD PUSH32 0x352E302E30000000000000000000000000000000000000000000000000000000 DUP2 MSTORE POP DUP2 JUMP JUMPDEST PUSH0 DUP1 PUSH0 DUP1 DUP5 DUP2 MSTORE PUSH1 0x20 ADD SWAP1 DUP2 MSTORE PUSH1 0x20 ADD PUSH0 KECCAK256 PUSH0 SWAP1 SLOAD SWAP1 PUSH2 0x100 EXP SWAP1 DIV PUSH1 0xFF AND SWAP2 POP PUSH0 TIMESTAMP SWAP1 POP PUSH0 PUSH1 0x3 DUP2 GT ISZERO PUSH2 0x11F0 JUMPI PUSH2 0x11EF PUSH2 0x3B52 JUMP JUMPDEST JUMPDEST DUP4 PUSH1 0x3 DUP2 GT ISZERO PUSH2 0x1203 JUMPI PUSH2 0x1202 PUSH2 0x3B52 JUMP JUMPDEST JUMPDEST EQ DUP1 ISZERO PUSH2 0x1222 JUMPI POP DUP1 PUSH1 0x2 PUSH0 DUP7 DUP2 MSTORE PUSH1 0x20 ADD SWAP1 DUP2 MSTORE PUSH1 0x20 ADD PUSH0 KECCAK256 PUSH0 ADD SLOAD GT JUMPDEST ISZERO PUSH2 0x124D JUMPI DUP1 PUSH1 0x2 PUSH0 DUP7 DUP2 MSTORE PUSH1 0x20 ADD SWAP1 DUP2 MSTORE PUSH1 0x20 ADD PUSH0 KECCAK256 PUSH0 ADD SLOAD PUSH2 0x1246 SWAP2 SWAP1 PUSH2 0x41A5 JUMP JUMPDEST SWAP2 POP PUSH2 0x1339 JUMP JUMPDEST PUSH1 0x1 PUSH1 0x3 DUP2 GT ISZERO PUSH2 0x1261 JUMPI PUSH2 0x1260 PUSH2 0x3B52 JUMP JUMPDEST JUMPDEST DUP4 PUSH1 0x3 DUP2 GT ISZERO PUSH2 0x1274 JUMPI PUSH2 0x1273 PUSH2 0x3B52 JUMP JUMPDEST JUMPDEST EQ DUP1 ISZERO PUSH2 0x1294 JUMPI POP DUP1 PUSH1 0x2 PUSH0 DUP7 DUP2 MSTORE PUSH1 0x20 ADD SWAP1 DUP2 MSTORE PUSH1 0x20 ADD PUSH0 KECCAK256 PUSH1 0x1 ADD SLOAD GT JUMPDEST ISZERO PUSH2 0x12C0 JUMPI DUP1 PUSH1 0x2 PUSH0 DUP7 DUP2 MSTORE PUSH1 0x20 ADD SWAP1 DUP2 MSTORE PUSH1 0x20 ADD PUSH0 KECCAK256 PUSH1 0x1 ADD SLOAD PUSH2 0x12B9 SWAP2 SWAP1 PUSH2 0x41A5 JUMP JUMPDEST SWAP2 POP PUSH2 0x1338 JUMP JUMPDEST PUSH1 0x2 PUSH1 0x3 DUP2 GT ISZERO PUSH2 0x12D4 JUMPI PUSH2 0x12D3 PUSH2 0x3B52 JUMP JUMPDEST JUMPDEST DUP4 PUSH1 0x3 DUP2 GT ISZERO PUSH2 0x12E7 JUMPI PUSH2 0x12E6 PUSH2 0x3B52 JUMP JUMPDEST JUMPDEST EQ DUP1 ISZERO PUSH2 0x1307 JUMPI POP DUP1 PUSH1 0x2 PUSH0 DUP7 DUP2 MSTORE PUSH1 0x20 ADD SWAP1 DUP2 MSTORE PUSH1 0x20 ADD PUSH0 KECCAK256 PUSH1 0x2 ADD SLOAD GT JUMPDEST ISZERO PUSH2 0x1333 JUMPI DUP1 PUSH1 0x2 PUSH0 DUP7 DUP2 MSTORE PUSH1 0x20 ADD SWAP1 DUP2 MSTORE PUSH1 0x20 ADD PUSH0 KECCAK256 PUSH1 0x2 ADD SLOAD PUSH2 0x132C SWAP2 SWAP1 PUSH2 0x41A5 JUMP JUMPDEST SWAP2 POP PUSH2 0x1337 JUMP JUMPDEST PUSH0 SWAP2 POP JUMPDEST JUMPDEST JUMPDEST POP SWAP2 POP SWAP2 JUMP JUMPDEST PUSH2 0x134A DUP5 DUP5 DUP5 PUSH2 0xC81 JUMP JUMPDEST PUSH2 0x1356 DUP5 DUP5 DUP5 DUP5 PUSH2 0x27C2 JUMP JUMPDEST POP POP POP POP JUMP JUMPDEST PUSH2 0x1364 PUSH2 0x1F50 JUMP JUMPDEST DUP1 PUSH1 0x8 SWAP1 DUP2 PUSH2 0x1373 SWAP2 SWAP1 PUSH2 0x3F74 JUMP JUMPDEST POP POP JUMP JUMPDEST PUSH1 0x60 DUP1 PUSH0 PUSH1 0x6 DUP1 SLOAD PUSH2 0x1388 SWAP1 PUSH2 0x3DA7 JUMP JUMPDEST SWAP1 POP GT ISZERO PUSH2 0x13C3 JUMPI PUSH1 0x6 PUSH2 0x139B DUP5 PUSH2 0x2974 JUMP JUMPDEST PUSH1 0x40 MLOAD PUSH1 0x20 ADD PUSH2 0x13AC SWAP3 SWAP2 SWAP1 PUSH2 0x4292 JUMP JUMPDEST PUSH1 0x40 MLOAD PUSH1 0x20 DUP2 DUP4 SUB SUB DUP2 MSTORE SWAP1 PUSH1 0x40 MSTORE SWAP2 POP POP PUSH2 0x17E7 JUMP JUMPDEST PUSH0 PUSH1 0x3 DUP2 GT ISZERO PUSH2 0x13D6 JUMPI PUSH2 0x13D5 PUSH2 0x3B52 JUMP JUMPDEST JUMPDEST PUSH0 DUP1 DUP6 DUP2 MSTORE PUSH1 0x20 ADD SWAP1 DUP2 MSTORE PUSH1 0x20 ADD PUSH0 KECCAK256 PUSH0 SWAP1 SLOAD SWAP1 PUSH2 0x100 EXP SWAP1 DIV PUSH1 0xFF AND PUSH1 0x3 DUP2 GT ISZERO PUSH2 0x1405 JUMPI PUSH2 0x1404 PUSH2 0x3B52 JUMP JUMPDEST JUMPDEST SUB PUSH2 0x1443 JUMPI PUSH1 0x1 PUSH0 DUP5 DUP2 MSTORE PUSH1 0x20 ADD SWAP1 DUP2 MSTORE PUSH1 0x20 ADD PUSH0 KECCAK256 PUSH0 ADD PUSH1 0x40 MLOAD PUSH1 0x20 ADD PUSH2 0x142D SWAP2 SWAP1 PUSH2 0x42FF JUMP JUMPDEST PUSH1 0x40 MLOAD PUSH1 0x20 DUP2 DUP4 SUB SUB DUP2 MSTORE SWAP1 PUSH1 0x40 MSTORE SWAP1 POP PUSH2 0x16FC JUMP JUMPDEST PUSH0 PUSH1 0x1 DUP1 PUSH0 DUP7 DUP2 MSTORE PUSH1 0x20 ADD SWAP1 DUP2 MSTORE PUSH1 0x20 ADD PUSH0 KECCAK256 PUSH1 0x4 ADD SLOAD EQ PUSH2 0x149A JUMPI PUSH1 0x40 MLOAD DUP1 PUSH1 0x40 ADD PUSH1 0x40 MSTORE DUP1 PUSH1 0x1 DUP2 MSTORE PUSH1 0x20 ADD PUSH32 0x6200000000000000000000000000000000000000000000000000000000000000 DUP2 MSTORE POP PUSH2 0x14D1 JUMP JUMPDEST PUSH1 0x40 MLOAD DUP1 PUSH1 0x40 ADD PUSH1 0x40 MSTORE DUP1 PUSH1 0x1 DUP2 MSTORE PUSH1 0x20 ADD PUSH32 0x6700000000000000000000000000000000000000000000000000000000000000 DUP2 MSTORE POP JUMPDEST SWAP1 POP PUSH0 PUSH1 0x1 DUP1 PUSH0 DUP8 DUP2 MSTORE PUSH1 0x20 ADD SWAP1 DUP2 MSTORE PUSH1 0x20 ADD PUSH0 KECCAK256 PUSH1 0x1 ADD SLOAD EQ PUSH2 0x152A JUMPI PUSH1 0x40 MLOAD DUP1 PUSH1 0x40 ADD PUSH1 0x40 MSTORE DUP1 PUSH1 0x1 DUP2 MSTORE PUSH1 0x20 ADD PUSH32 0x6600000000000000000000000000000000000000000000000000000000000000 DUP2 MSTORE POP PUSH2 0x1561 JUMP JUMPDEST PUSH1 0x40 MLOAD DUP1 PUSH1 0x40 ADD PUSH1 0x40 MSTORE DUP1 PUSH1 0x1 DUP2 MSTORE PUSH1 0x20 ADD PUSH32 0x6D00000000000000000000000000000000000000000000000000000000000000 DUP2 MSTORE POP JUMPDEST SWAP1 POP PUSH1 0x60 PUSH0 DUP1 PUSH0 DUP9 DUP2 MSTORE PUSH1 0x20 ADD SWAP1 DUP2 MSTORE PUSH1 0x20 ADD PUSH0 KECCAK256 PUSH0 SWAP1 SLOAD SWAP1 PUSH2 0x100 EXP SWAP1 DIV PUSH1 0xFF AND SWAP1 POP PUSH1 0x1 PUSH1 0x3 DUP2 GT ISZERO PUSH2 0x1599 JUMPI PUSH2 0x1598 PUSH2 0x3B52 JUMP JUMPDEST JUMPDEST DUP2 PUSH1 0x3 DUP2 GT ISZERO PUSH2 0x15AC JUMPI PUSH2 0x15AB PUSH2 0x3B52 JUMP JUMPDEST JUMPDEST SUB PUSH2 0x15EE JUMPI PUSH1 0x40 MLOAD DUP1 PUSH1 0x40 ADD PUSH1 0x40 MSTORE DUP1 PUSH1 0x5 DUP2 MSTORE PUSH1 0x20 ADD PUSH32 0x6861746368000000000000000000000000000000000000000000000000000000 DUP2 MSTORE POP SWAP2 POP PUSH2 0x16BD JUMP JUMPDEST PUSH1 0x2 PUSH1 0x3 DUP2 GT ISZERO PUSH2 0x1602 JUMPI PUSH2 0x1601 PUSH2 0x3B52 JUMP JUMPDEST JUMPDEST DUP2 PUSH1 0x3 DUP2 GT ISZERO PUSH2 0x1615 JUMPI PUSH2 0x1614 PUSH2 0x3B52 JUMP JUMPDEST JUMPDEST SUB PUSH2 0x1657 JUMPI PUSH1 0x40 MLOAD DUP1 PUSH1 0x40 ADD PUSH1 0x40 MSTORE DUP1 PUSH1 0x9 DUP2 MSTORE PUSH1 0x20 ADD PUSH32 0x68617463686C696E670000000000000000000000000000000000000000000000 DUP2 MSTORE POP SWAP2 POP PUSH2 0x16BC JUMP JUMPDEST PUSH1 0x3 DUP1 DUP2 GT ISZERO PUSH2 0x166A JUMPI PUSH2 0x1669 PUSH2 0x3B52 JUMP JUMPDEST JUMPDEST DUP2 PUSH1 0x3 DUP2 GT ISZERO PUSH2 0x167D JUMPI PUSH2 0x167C PUSH2 0x3B52 JUMP JUMPDEST JUMPDEST SUB PUSH2 0x16BB JUMPI PUSH1 0x40 MLOAD DUP1 PUSH1 0x40 ADD PUSH1 0x40 MSTORE DUP1 PUSH1 0x5 DUP2 MSTORE PUSH1 0x20 ADD PUSH32 0x6164756C74000000000000000000000000000000000000000000000000000000 DUP2 MSTORE POP SWAP2 POP JUMPDEST JUMPDEST JUMPDEST PUSH1 0x1 PUSH0 DUP9 DUP2 MSTORE PUSH1 0x20 ADD SWAP1 DUP2 MSTORE PUSH1 0x20 ADD PUSH0 KECCAK256 PUSH0 ADD DUP5 DUP5 DUP5 PUSH1 0x40 MLOAD PUSH1 0x20 ADD PUSH2 0x16E6 SWAP5 SWAP4 SWAP3 SWAP2 SWAP1 PUSH2 0x436A JUMP JUMPDEST PUSH1 0x40 MLOAD PUSH1 0x20 DUP2 DUP4 SUB SUB DUP2 MSTORE SWAP1 PUSH1 0x40 MSTORE SWAP5 POP POP POP POP POP JUMPDEST PUSH0 PUSH2 0x1706 DUP5 PUSH2 0x2974 JUMP JUMPDEST PUSH1 0x7 DUP4 PUSH1 0x9 PUSH1 0x40 MLOAD PUSH1 0x20 ADD PUSH2 0x171C SWAP3 SWAP2 SWAP1 PUSH2 0x43C8 JUMP JUMPDEST PUSH1 0x40 MLOAD PUSH1 0x20 DUP2 DUP4 SUB SUB DUP2 MSTORE SWAP1 PUSH1 0x40 MSTORE PUSH1 0x40 MLOAD PUSH1 0x20 ADD PUSH2 0x173D SWAP4 SWAP3 SWAP2 SWAP1 PUSH2 0x44CB JUMP JUMPDEST PUSH1 0x40 MLOAD PUSH1 0x20 DUP2 DUP4 SUB SUB DUP2 MSTORE SWAP1 PUSH1 0x40 MSTORE SWAP1 POP PUSH0 PUSH1 0x1 PUSH0 DUP7 DUP2 MSTORE PUSH1 0x20 ADD SWAP1 DUP2 MSTORE PUSH1 0x20 ADD PUSH0 KECCAK256 PUSH0 ADD PUSH1 0x40 MLOAD PUSH1 0x20 ADD PUSH2 0x1772 SWAP2 SWAP1 PUSH2 0x4581 JUMP JUMPDEST PUSH1 0x40 MLOAD PUSH1 0x20 DUP2 DUP4 SUB SUB DUP2 MSTORE SWAP1 PUSH1 0x40 MSTORE SWAP1 POP PUSH0 PUSH1 0x40 MLOAD DUP1 PUSH1 0x40 ADD PUSH1 0x40 MSTORE DUP1 PUSH1 0x4 DUP2 MSTORE PUSH1 0x20 ADD PUSH32 0x227D5D7D00000000000000000000000000000000000000000000000000000000 DUP2 MSTORE POP SWAP1 POP DUP3 DUP3 DUP3 PUSH1 0x40 MLOAD PUSH1 0x20 ADD PUSH2 0x17D1 SWAP4 SWAP3 SWAP2 SWAP1 PUSH2 0x45EC JUMP JUMPDEST PUSH1 0x40 MLOAD PUSH1 0x20 DUP2 DUP4 SUB SUB DUP2 MSTORE SWAP1 PUSH1 0x40 MSTORE SWAP5 POP POP POP POP POP JUMPDEST SWAP2 SWAP1 POP JUMP JUMPDEST PUSH1 0x6 DUP1 SLOAD PUSH2 0x17F9 SWAP1 PUSH2 0x3DA7 JUMP JUMPDEST DUP1 PUSH1 0x1F ADD PUSH1 0x20 DUP1 SWAP2 DIV MUL PUSH1 0x20 ADD PUSH1 0x40 MLOAD SWAP1 DUP2 ADD PUSH1 0x40 MSTORE DUP1 SWAP3 SWAP2 SWAP1 DUP2 DUP2 MSTORE PUSH1 0x20 ADD DUP3 DUP1 SLOAD PUSH2 0x1825 SWAP1 PUSH2 0x3DA7 JUMP JUMPDEST DUP1 ISZERO PUSH2 0x1870 JUMPI DUP1 PUSH1 0x1F LT PUSH2 0x1847 JUMPI PUSH2 0x100 DUP1 DUP4 SLOAD DIV MUL DUP4 MSTORE SWAP2 PUSH1 0x20 ADD SWAP2 PUSH2 0x1870 JUMP JUMPDEST DUP3 ADD SWAP2 SWAP1 PUSH0 MSTORE PUSH1 0x20 PUSH0 KECCAK256 SWAP1 JUMPDEST DUP2 SLOAD DUP2 MSTORE SWAP1 PUSH1 0x1 ADD SWAP1 PUSH1 0x20 ADD DUP1 DUP4 GT PUSH2 0x1853 JUMPI DUP3 SWAP1 SUB PUSH1 0x1F AND DUP3 ADD SWAP2 JUMPDEST POP POP POP POP POP DUP2 JUMP JUMPDEST PUSH2 0x1880 PUSH2 0x1F50 JUMP JUMPDEST DUP1 PUSH1 0x6 SWAP1 DUP2 PUSH2 0x188F SWAP2 SWAP1 PUSH2 0x3F74 JUMP JUMPDEST POP POP JUMP JUMPDEST PUSH0 DUP1 PUSH2 0x189D PUSH2 0x1E43 JUMP JUMPDEST SWAP1 POP DUP1 PUSH1 0x5 ADD PUSH0 DUP6 PUSH20 0xFFFFFFFFFFFFFFFFFFFFFFFFFFFFFFFFFFFFFFFF AND PUSH20 0xFFFFFFFFFFFFFFFFFFFFFFFFFFFFFFFFFFFFFFFF AND DUP2 MSTORE PUSH1 0x20 ADD SWAP1 DUP2 MSTORE PUSH1 0x20 ADD PUSH0 KECCAK256 PUSH0 DUP5 PUSH20 0xFFFFFFFFFFFFFFFFFFFFFFFFFFFFFFFFFFFFFFFF AND PUSH20 0xFFFFFFFFFFFFFFFFFFFFFFFFFFFFFFFFFFFFFFFF AND DUP2 MSTORE PUSH1 0x20 ADD SWAP1 DUP2 MSTORE PUSH1 0x20 ADD PUSH0 KECCAK256 PUSH0 SWAP1 SLOAD SWAP1 PUSH2 0x100 EXP SWAP1 DIV PUSH1 0xFF AND SWAP2 POP POP SWAP3 SWAP2 POP POP JUMP JUMPDEST PUSH1 0x8 DUP1 SLOAD PUSH2 0x193C SWAP1 PUSH2 0x3DA7 JUMP JUMPDEST DUP1 PUSH1 0x1F ADD PUSH1 0x20 DUP1 SWAP2 DIV MUL PUSH1 0x20 ADD PUSH1 0x40 MLOAD SWAP1 DUP2 ADD PUSH1 0x40 MSTORE DUP1 SWAP3 SWAP2 SWAP1 DUP2 DUP2 MSTORE PUSH1 0x20 ADD DUP3 DUP1 SLOAD PUSH2 0x1968 SWAP1 PUSH2 0x3DA7 JUMP JUMPDEST DUP1 ISZERO PUSH2 0x19B3 JUMPI DUP1 PUSH1 0x1F LT PUSH2 0x198A JUMPI PUSH2 0x100 DUP1 DUP4 SLOAD DIV MUL DUP4 MSTORE SWAP2 PUSH1 0x20 ADD SWAP2 PUSH2 0x19B3 JUMP JUMPDEST DUP3 ADD SWAP2 SWAP1 PUSH0 MSTORE PUSH1 0x20 PUSH0 KECCAK256 SWAP1 JUMPDEST DUP2 SLOAD DUP2 MSTORE SWAP1 PUSH1 0x1 ADD SWAP1 PUSH1 0x20 ADD DUP1 DUP4 GT PUSH2 0x1996 JUMPI DUP3 SWAP1 SUB PUSH1 0x1F AND DUP3 ADD SWAP2 JUMPDEST POP POP POP POP POP DUP2 JUMP JUMPDEST CALLER PUSH20 0xFFFFFFFFFFFFFFFFFFFFFFFFFFFFFFFFFFFFFFFF AND PUSH2 0x19DB DUP3 PUSH2 0xE0A JUMP JUMPDEST PUSH20 0xFFFFFFFFFFFFFFFFFFFFFFFFFFFFFFFFFFFFFFFF AND EQ PUSH2 0x1A31 JUMPI PUSH1 0x40 MLOAD PUSH32 0x8C379A000000000000000000000000000000000000000000000000000000000 DUP2 MSTORE PUSH1 0x4 ADD PUSH2 0x1A28 SWAP1 PUSH2 0x3D5C JUMP JUMPDEST PUSH1 0x40 MLOAD DUP1 SWAP2 SUB SWAP1 REVERT JUMPDEST PUSH0 DUP1 PUSH0 DUP4 DUP2 MSTORE PUSH1 0x20 ADD SWAP1 DUP2 MSTORE PUSH1 0x20 ADD PUSH0 KECCAK256 PUSH0 SWAP1 SLOAD SWAP1 PUSH2 0x100 EXP SWAP1 DIV PUSH1 0xFF AND SWAP1 POP PUSH0 PUSH1 0x3 DUP2 GT ISZERO PUSH2 0x1A64 JUMPI PUSH2 0x1A63 PUSH2 0x3B52 JUMP JUMPDEST JUMPDEST DUP2 PUSH1 0x3 DUP2 GT ISZERO PUSH2 0x1A77 JUMPI PUSH2 0x1A76 PUSH2 0x3B52 JUMP JUMPDEST JUMPDEST EQ DUP1 ISZERO PUSH2 0x1A97 JUMPI POP PUSH1 0x2 PUSH0 DUP4 DUP2 MSTORE PUSH1 0x20 ADD SWAP1 DUP2 MSTORE PUSH1 0x20 ADD PUSH0 KECCAK256 PUSH0 ADD SLOAD TIMESTAMP LT ISZERO JUMPDEST ISZERO PUSH2 0x1B20 JUMPI PUSH1 0x1 PUSH0 DUP1 DUP5 DUP2 MSTORE PUSH1 0x20 ADD SWAP1 DUP2 MSTORE PUSH1 0x20 ADD PUSH0 KECCAK256 PUSH0 PUSH2 0x100 EXP DUP2 SLOAD DUP2 PUSH1 0xFF MUL NOT AND SWAP1 DUP4 PUSH1 0x3 DUP2 GT ISZERO PUSH2 0x1ACF JUMPI PUSH2 0x1ACE PUSH2 0x3B52 JUMP JUMPDEST JUMPDEST MUL OR SWAP1 SSTORE POP PUSH2 0x1ADC PUSH2 0x1FD7 JUMP JUMPDEST PUSH1 0x1 PUSH0 DUP5 DUP2 MSTORE PUSH1 0x20 ADD SWAP1 DUP2 MSTORE PUSH1 0x20 ADD PUSH0 KECCAK256 PUSH1 0x1 ADD DUP2 SWAP1 SSTORE POP PUSH3 0x2A300 TIMESTAMP PUSH2 0x1B03 SWAP2 SWAP1 PUSH2 0x4070 JUMP JUMPDEST PUSH1 0x2 PUSH0 DUP5 DUP2 MSTORE PUSH1 0x20 ADD SWAP1 DUP2 MSTORE PUSH1 0x20 ADD PUSH0 KECCAK256 PUSH1 0x1 ADD DUP2 SWAP1 SSTORE POP PUSH2 0x1C9E JUMP JUMPDEST PUSH1 0x1 PUSH1 0x3 DUP2 GT ISZERO PUSH2 0x1B34 JUMPI PUSH2 0x1B33 PUSH2 0x3B52 JUMP JUMPDEST JUMPDEST DUP2 PUSH1 0x3 DUP2 GT ISZERO PUSH2 0x1B47 JUMPI PUSH2 0x1B46 PUSH2 0x3B52 JUMP JUMPDEST JUMPDEST EQ DUP1 ISZERO PUSH2 0x1B68 JUMPI POP PUSH1 0x2 PUSH0 DUP4 DUP2 MSTORE PUSH1 0x20 ADD SWAP1 DUP2 MSTORE PUSH1 0x20 ADD PUSH0 KECCAK256 PUSH1 0x1 ADD SLOAD TIMESTAMP LT ISZERO JUMPDEST ISZERO PUSH2 0x1BD1 JUMPI PUSH1 0x2 PUSH0 DUP1 DUP5 DUP2 MSTORE PUSH1 0x20 ADD SWAP1 DUP2 MSTORE PUSH1 0x20 ADD PUSH0 KECCAK256 PUSH0 PUSH2 0x100 EXP DUP2 SLOAD DUP2 PUSH1 0xFF MUL NOT AND SWAP1 DUP4 PUSH1 0x3 DUP2 GT ISZERO PUSH2 0x1BA0 JUMPI PUSH2 0x1B9F PUSH2 0x3B52 JUMP JUMPDEST JUMPDEST MUL OR SWAP1 SSTORE POP PUSH3 0x3F480 TIMESTAMP PUSH2 0x1BB4 SWAP2 SWAP1 PUSH2 0x4070 JUMP JUMPDEST PUSH1 0x2 PUSH0 DUP5 DUP2 MSTORE PUSH1 0x20 ADD SWAP1 DUP2 MSTORE PUSH1 0x20 ADD PUSH0 KECCAK256 PUSH1 0x2 ADD DUP2 SWAP1 SSTORE POP PUSH2 0x1C9D JUMP JUMPDEST PUSH1 0x2 PUSH1 0x3 DUP2 GT ISZERO PUSH2 0x1BE5 JUMPI PUSH2 0x1BE4 PUSH2 0x3B52 JUMP JUMPDEST JUMPDEST DUP2 PUSH1 0x3 DUP2 GT ISZERO PUSH2 0x1BF8 JUMPI PUSH2 0x1BF7 PUSH2 0x3B52 JUMP JUMPDEST JUMPDEST EQ DUP1 ISZERO PUSH2 0x1C19 JUMPI POP PUSH1 0x2 PUSH0 DUP4 DUP2 MSTORE PUSH1 0x20 ADD SWAP1 DUP2 MSTORE PUSH1 0x20 ADD PUSH0 KECCAK256 PUSH1 0x2 ADD SLOAD TIMESTAMP LT ISZERO JUMPDEST ISZERO PUSH2 0x1C5B JUMPI PUSH1 0x3 PUSH0 DUP1 DUP5 DUP2 MSTORE PUSH1 0x20 ADD SWAP1 DUP2 MSTORE PUSH1 0x20 ADD PUSH0 KECCAK256 PUSH0 PUSH2 0x100 EXP DUP2 SLOAD DUP2 PUSH1 0xFF MUL NOT AND SWAP1 DUP4 PUSH1 0x3 DUP2 GT ISZERO PUSH2 0x1C51 JUMPI PUSH2 0x1C50 PUSH2 0x3B52 JUMP JUMPDEST JUMPDEST MUL OR SWAP1 SSTORE POP PUSH2 0x1C9C JUMP JUMPDEST PUSH0 PUSH2 0x1C9B JUMPI PUSH1 0x40 MLOAD PUSH32 0x8C379A000000000000000000000000000000000000000000000000000000000 DUP2 MSTORE PUSH1 0x4 ADD PUSH2 0x1C92 SWAP1 PUSH2 0x40ED JUMP JUMPDEST PUSH1 0x40 MLOAD DUP1 SWAP2 SUB SWAP1 REVERT JUMPDEST JUMPDEST JUMPDEST JUMPDEST POP POP JUMP JUMPDEST PUSH1 0x7 DUP1 SLOAD PUSH2 0x1CAF SWAP1 PUSH2 0x3DA7 JUMP JUMPDEST DUP1 PUSH1 0x1F ADD PUSH1 0x20 DUP1 SWAP2 DIV MUL PUSH1 0x20 ADD PUSH1 0x40 MLOAD SWAP1 DUP2 ADD PUSH1 0x40 MSTORE DUP1 SWAP3 SWAP2 SWAP1 DUP2 DUP2 MSTORE PUSH1 0x20 ADD DUP3 DUP1 SLOAD PUSH2 0x1CDB SWAP1 PUSH2 0x3DA7 JUMP JUMPDEST DUP1 ISZERO PUSH2 0x1D26 JUMPI DUP1 PUSH1 0x1F LT PUSH2 0x1CFD JUMPI PUSH2 0x100 DUP1 DUP4 SLOAD DIV MUL DUP4 MSTORE SWAP2 PUSH1 0x20 ADD SWAP2 PUSH2 0x1D26 JUMP JUMPDEST DUP3 ADD SWAP2 SWAP1 PUSH0 MSTORE PUSH1 0x20 PUSH0 KECCAK256 SWAP1 JUMPDEST DUP2 SLOAD DUP2 MSTORE SWAP1 PUSH1 0x1 ADD SWAP1 PUSH1 0x20 ADD DUP1 DUP4 GT PUSH2 0x1D09 JUMPI DUP3 SWAP1 SUB PUSH1 0x1F AND DUP3 ADD SWAP2 JUMPDEST POP POP POP POP POP DUP2 JUMP JUMPDEST PUSH2 0x1D36 PUSH2 0x1F50 JUMP JUMPDEST PUSH0 PUSH20 0xFFFFFFFFFFFFFFFFFFFFFFFFFFFFFFFFFFFFFFFF AND DUP2 PUSH20 0xFFFFFFFFFFFFFFFFFFFFFFFFFFFFFFFFFFFFFFFF AND SUB PUSH2 0x1DA6 JUMPI PUSH0 PUSH1 0x40 MLOAD PUSH32 0x1E4FBDF700000000000000000000000000000000000000000000000000000000 DUP2 MSTORE PUSH1 0x4 ADD PUSH2 0x1D9D SWAP2 SWAP1 PUSH2 0x36A2 JUMP JUMPDEST PUSH1 0x40 MLOAD DUP1 SWAP2 SUB SWAP1 REVERT JUMPDEST PUSH2 0x1DAF DUP2 PUSH2 0x24EE JUMP JUMPDEST POP JUMP JUMPDEST PUSH0 DUP2 DUP5 DUP5 PUSH2 0x1DC0 SWAP2 SWAP1 PUSH2 0x41A5 JUMP JUMPDEST LT PUSH2 0x1DD8 JUMPI DUP2 DUP4 PUSH2 0x1DD1 SWAP2 SWAP1 PUSH2 0x41A5 JUMP JUMPDEST SWAP1 POP PUSH2 0x1DDC JUMP JUMPDEST PUSH0 SWAP1 POP JUMPDEST SWAP4 SWAP3 POP POP POP JUMP JUMPDEST PUSH0 PUSH4 0x49064906 PUSH1 0xE0 SHL PUSH28 0xFFFFFFFFFFFFFFFFFFFFFFFFFFFFFFFFFFFFFFFFFFFFFFFFFFFFFFFF NOT AND DUP3 PUSH28 0xFFFFFFFFFFFFFFFFFFFFFFFFFFFFFFFFFFFFFFFFFFFFFFFFFFFFFFFF NOT AND EQ DUP1 PUSH2 0x1E3C JUMPI POP PUSH2 0x1E3B DUP3 PUSH2 0x2A3E JUMP JUMPDEST JUMPDEST SWAP1 POP SWAP2 SWAP1 POP JUMP JUMPDEST PUSH0 PUSH32 0x80BB2B638CC20BC4D0A60D66940F3AB4A00C1D7B313497CA82FB0B4AB0079300 SWAP1 POP SWAP1 JUMP JUMPDEST PUSH0 DUP1 PUSH2 0x1E75 DUP4 PUSH2 0x2B1F JUMP JUMPDEST SWAP1 POP PUSH0 PUSH20 0xFFFFFFFFFFFFFFFFFFFFFFFFFFFFFFFFFFFFFFFF AND DUP2 PUSH20 0xFFFFFFFFFFFFFFFFFFFFFFFFFFFFFFFFFFFFFFFF AND SUB PUSH2 0x1EE7 JUMPI DUP3 PUSH1 0x40 MLOAD PUSH32 0x7E27328900000000000000000000000000000000000000000000000000000000 DUP2 MSTORE PUSH1 0x4 ADD PUSH2 0x1EDE SWAP2 SWAP1 PUSH2 0x3A49 JUMP JUMPDEST PUSH1 0x40 MLOAD DUP1 SWAP2 SUB SWAP1 REVERT JUMPDEST DUP1 SWAP2 POP POP SWAP2 SWAP1 POP JUMP JUMPDEST PUSH0 DUP1 PUSH2 0x1EFA PUSH2 0x1E43 JUMP JUMPDEST SWAP1 POP DUP1 PUSH1 0x4 ADD PUSH0 DUP5 DUP2 MSTORE PUSH1 0x20 ADD SWAP1 DUP2 MSTORE PUSH1 0x20 ADD PUSH0 KECCAK256 PUSH0 SWAP1 SLOAD SWAP1 PUSH2 0x100 EXP SWAP1 DIV PUSH20 0xFFFFFFFFFFFFFFFFFFFFFFFFFFFFFFFFFFFFFFFF AND SWAP2 POP POP SWAP2 SWAP1 POP JUMP JUMPDEST PUSH0 CALLER SWAP1 POP SWAP1 JUMP JUMPDEST PUSH2 0x1F4B DUP4 DUP4 DUP4 PUSH1 0x1 PUSH2 0x2B66 JUMP JUMPDEST POP POP POP JUMP JUMPDEST PUSH2 0x1F58 PUSH2 0x1F37 JUMP JUMPDEST PUSH20 0xFFFFFFFFFFFFFFFFFFFFFFFFFFFFFFFFFFFFFFFF AND PUSH2 0x1F76 PUSH2 0xEF2 JUMP JUMPDEST PUSH20 0xFFFFFFFFFFFFFFFFFFFFFFFFFFFFFFFFFFFFFFFF AND EQ PUSH2 0x1FD5 JUMPI PUSH2 0x1F99 PUSH2 0x1F37 JUMP JUMPDEST PUSH1 0x40 MLOAD PUSH32 0x118CDAA700000000000000000000000000000000000000000000000000000000 DUP2 MSTORE PUSH1 0x4 ADD PUSH2 0x1FCC SWAP2 SWAP1 PUSH2 0x36A2 JUMP JUMPDEST PUSH1 0x40 MLOAD DUP1 SWAP2 SUB SWAP1 REVERT JUMPDEST JUMP JUMPDEST PUSH0 PUSH1 0x5 PUSH0 DUP2 SLOAD DUP1 SWAP3 SWAP2 SWAP1 PUSH2 0x1FEA SWAP1 PUSH2 0x4627 JUMP JUMPDEST SWAP2 SWAP1 POP SSTORE POP PUSH1 0x1 PUSH1 0x2 TIMESTAMP CALLER PUSH1 0x5 SLOAD PUSH1 0x40 MLOAD PUSH1 0x20 ADD PUSH2 0x200A SWAP4 SWAP3 SWAP2 SWAP1 PUSH2 0x46D3 JUMP JUMPDEST PUSH1 0x40 MLOAD PUSH1 0x20 DUP2 DUP4 SUB SUB DUP2 MSTORE SWAP1 PUSH1 0x40 MSTORE DUP1 MLOAD SWAP1 PUSH1 0x20 ADD KECCAK256 PUSH0 SHR PUSH2 0x202C SWAP2 SWAP1 PUSH2 0x473C JUMP JUMPDEST PUSH2 0x2036 SWAP2 SWAP1 PUSH2 0x4070 JUMP JUMPDEST SWAP1 POP SWAP1 JUMP JUMPDEST PUSH0 DUP1 PUSH2 0x2045 PUSH2 0x1E43 JUMP JUMPDEST SWAP1 POP PUSH0 PUSH2 0x2051 DUP6 PUSH2 0x2B1F JUMP JUMPDEST SWAP1 POP PUSH0 PUSH20 0xFFFFFFFFFFFFFFFFFFFFFFFFFFFFFFFFFFFFFFFF AND DUP5 PUSH20 0xFFFFFFFFFFFFFFFFFFFFFFFFFFFFFFFFFFFFFFFF AND EQ PUSH2 0x2092 JUMPI PUSH2 0x2091 DUP2 DUP6 DUP8 PUSH2 0x2D33 JUMP JUMPDEST JUMPDEST PUSH0 PUSH20 0xFFFFFFFFFFFFFFFFFFFFFFFFFFFFFFFFFFFFFFFF AND DUP2 PUSH20 0xFFFFFFFFFFFFFFFFFFFFFFFFFFFFFFFFFFFFFFFF AND EQ PUSH2 0x211F JUMPI PUSH2 0x20D1 PUSH0 DUP7 PUSH0 DUP1 PUSH2 0x2B66 JUMP JUMPDEST PUSH1 0x1 DUP3 PUSH1 0x3 ADD PUSH0 DUP4 PUSH20 0xFFFFFFFFFFFFFFFFFFFFFFFFFFFFFFFFFFFFFFFF AND PUSH20 0xFFFFFFFFFFFFFFFFFFFFFFFFFFFFFFFFFFFFFFFF AND DUP2 MSTORE PUSH1 0x20 ADD SWAP1 DUP2 MSTORE PUSH1 0x20 ADD PUSH0 KECCAK256 PUSH0 DUP3 DUP3 SLOAD SUB SWAP3 POP POP DUP2 SWAP1 SSTORE POP JUMPDEST PUSH0 PUSH20 0xFFFFFFFFFFFFFFFFFFFFFFFFFFFFFFFFFFFFFFFF AND DUP7 PUSH20 0xFFFFFFFFFFFFFFFFFFFFFFFFFFFFFFFFFFFFFFFF AND EQ PUSH2 0x21A0 JUMPI PUSH1 0x1 DUP3 PUSH1 0x3 ADD PUSH0 DUP9 PUSH20 0xFFFFFFFFFFFFFFFFFFFFFFFFFFFFFFFFFFFFFFFF AND PUSH20 0xFFFFFFFFFFFFFFFFFFFFFFFFFFFFFFFFFFFFFFFF AND DUP2 MSTORE PUSH1 0x20 ADD SWAP1 DUP2 MSTORE PUSH1 0x20 ADD PUSH0 KECCAK256 PUSH0 DUP3 DUP3 SLOAD ADD SWAP3 POP POP DUP2 SWAP1 SSTORE POP JUMPDEST DUP6 DUP3 PUSH1 0x2 ADD PUSH0 DUP8 DUP2 MSTORE PUSH1 0x20 ADD SWAP1 DUP2 MSTORE PUSH1 0x20 ADD PUSH0 KECCAK256 PUSH0 PUSH2 0x100 EXP DUP2 SLOAD DUP2 PUSH20 0xFFFFFFFFFFFFFFFFFFFFFFFFFFFFFFFFFFFFFFFF MUL NOT AND SWAP1 DUP4 PUSH20 0xFFFFFFFFFFFFFFFFFFFFFFFFFFFFFFFFFFFFFFFF AND MUL OR SWAP1 SSTORE POP DUP5 DUP7 PUSH20 0xFFFFFFFFFFFFFFFFFFFFFFFFFFFFFFFFFFFFFFFF AND DUP3 PUSH20 0xFFFFFFFFFFFFFFFFFFFFFFFFFFFFFFFFFFFFFFFF AND PUSH32 0xDDF252AD1BE2C89B69C2B068FC378DAA952BA7F163C4A11628F55A4DF523B3EF PUSH1 0x40 MLOAD PUSH1 0x40 MLOAD DUP1 SWAP2 SUB SWAP1 LOG4 DUP1 SWAP3 POP POP POP SWAP4 SWAP3 POP POP POP JUMP JUMPDEST PUSH32 0x0 PUSH20 0xFFFFFFFFFFFFFFFFFFFFFFFFFFFFFFFFFFFFFFFF AND ADDRESS PUSH20 0xFFFFFFFFFFFFFFFFFFFFFFFFFFFFFFFFFFFFFFFF AND EQ DUP1 PUSH2 0x2305 JUMPI POP PUSH32 0x0 PUSH20 0xFFFFFFFFFFFFFFFFFFFFFFFFFFFFFFFFFFFFFFFF AND PUSH2 0x22EC PUSH2 0x2DF6 JUMP JUMPDEST PUSH20 0xFFFFFFFFFFFFFFFFFFFFFFFFFFFFFFFFFFFFFFFF AND EQ ISZERO JUMPDEST ISZERO PUSH2 0x233C JUMPI PUSH1 0x40 MLOAD PUSH32 0xE07C8DBA00000000000000000000000000000000000000000000000000000000 DUP2 MSTORE PUSH1 0x4 ADD PUSH1 0x40 MLOAD DUP1 SWAP2 SUB SWAP1 REVERT JUMPDEST JUMP JUMPDEST PUSH2 0x2346 PUSH2 0x1F50 JUMP JUMPDEST POP JUMP JUMPDEST DUP2 PUSH20 0xFFFFFFFFFFFFFFFFFFFFFFFFFFFFFFFFFFFFFFFF AND PUSH4 0x52D1902D PUSH1 0x40 MLOAD DUP2 PUSH4 0xFFFFFFFF AND PUSH1 0xE0 SHL DUP2 MSTORE PUSH1 0x4 ADD PUSH1 0x20 PUSH1 0x40 MLOAD DUP1 DUP4 SUB DUP2 DUP7 GAS STATICCALL SWAP3 POP POP POP DUP1 ISZERO PUSH2 0x23B1 JUMPI POP PUSH1 0x40 MLOAD RETURNDATASIZE PUSH1 0x1F NOT PUSH1 0x1F DUP3 ADD AND DUP3 ADD DUP1 PUSH1 0x40 MSTORE POP DUP2 ADD SWAP1 PUSH2 0x23AE SWAP2 SWAP1 PUSH2 0x4796 JUMP JUMPDEST PUSH1 0x1 JUMPDEST PUSH2 0x23F2 JUMPI DUP2 PUSH1 0x40 MLOAD PUSH32 0x4C9C8CE300000000000000000000000000000000000000000000000000000000 DUP2 MSTORE PUSH1 0x4 ADD PUSH2 0x23E9 SWAP2 SWAP1 PUSH2 0x36A2 JUMP JUMPDEST PUSH1 0x40 MLOAD DUP1 SWAP2 SUB SWAP1 REVERT JUMPDEST PUSH32 0x360894A13BA1A3210667C828492DB98DCA3E2076CC3735A920A3CA505D382BBC PUSH0 SHL DUP2 EQ PUSH2 0x2458 JUMPI DUP1 PUSH1 0x40 MLOAD PUSH32 0xAA1D49A400000000000000000000000000000000000000000000000000000000 DUP2 MSTORE PUSH1 0x4 ADD PUSH2 0x244F SWAP2 SWAP1 PUSH2 0x39F6 JUMP JUMPDEST PUSH1 0x40 MLOAD DUP1 SWAP2 SUB SWAP1 REVERT JUMPDEST PUSH2 0x2462 DUP4 DUP4 PUSH2 0x2E49 JUMP JUMPDEST POP POP POP JUMP JUMPDEST PUSH32 0x0 PUSH20 0xFFFFFFFFFFFFFFFFFFFFFFFFFFFFFFFFFFFFFFFF AND ADDRESS PUSH20 0xFFFFFFFFFFFFFFFFFFFFFFFFFFFFFFFFFFFFFFFF AND EQ PUSH2 0x24EC JUMPI PUSH1 0x40 MLOAD PUSH32 0xE07C8DBA00000000000000000000000000000000000000000000000000000000 DUP2 MSTORE PUSH1 0x4 ADD PUSH1 0x40 MLOAD DUP1 SWAP2 SUB SWAP1 REVERT JUMPDEST JUMP JUMPDEST PUSH0 PUSH2 0x24F7 PUSH2 0x25BF JUMP JUMPDEST SWAP1 POP PUSH0 DUP2 PUSH0 ADD PUSH0 SWAP1 SLOAD SWAP1 PUSH2 0x100 EXP SWAP1 DIV PUSH20 0xFFFFFFFFFFFFFFFFFFFFFFFFFFFFFFFFFFFFFFFF AND SWAP1 POP DUP3 DUP3 PUSH0 ADD PUSH0 PUSH2 0x100 EXP DUP2 SLOAD DUP2 PUSH20 0xFFFFFFFFFFFFFFFFFFFFFFFFFFFFFFFFFFFFFFFF MUL NOT AND SWAP1 DUP4 PUSH20 0xFFFFFFFFFFFFFFFFFFFFFFFFFFFFFFFFFFFFFFFF AND MUL OR SWAP1 SSTORE POP DUP3 PUSH20 0xFFFFFFFFFFFFFFFFFFFFFFFFFFFFFFFFFFFFFFFF AND DUP2 PUSH20 0xFFFFFFFFFFFFFFFFFFFFFFFFFFFFFFFFFFFFFFFF AND PUSH32 0x8BE0079C531659141344CD1FD0A4F28419497F9722A3DAAFE3B4186F6B6457E0 PUSH1 0x40 MLOAD PUSH1 0x40 MLOAD DUP1 SWAP2 SUB SWAP1 LOG3 POP POP POP JUMP JUMPDEST PUSH0 PUSH32 0x9016D09D72D40FDAE2FD8CEAC6B6234C7706214FD39C1CD1E609A0528C199300 SWAP1 POP SWAP1 JUMP JUMPDEST PUSH0 PUSH32 0xF0C57E16840DF040F15088DC2F81FE391C3923BEC73E23A9662EFC9C229C6A00 SWAP1 POP SWAP1 JUMP JUMPDEST PUSH2 0x2615 PUSH2 0x2EBB JUMP JUMPDEST PUSH2 0x261F DUP3 DUP3 PUSH2 0x2EFB JUMP JUMPDEST POP POP JUMP JUMPDEST PUSH2 0x262B PUSH2 0x2EBB JUMP JUMPDEST JUMP JUMPDEST PUSH2 0x2635 PUSH2 0x2EBB JUMP JUMPDEST PUSH2 0x263E DUP2 PUSH2 0x2F36 JUMP JUMPDEST POP JUMP JUMPDEST PUSH2 0x2649 PUSH2 0x2EBB JUMP JUMPDEST JUMP JUMPDEST PUSH0 PUSH2 0x2654 PUSH2 0x1E43 JUMP JUMPDEST SWAP1 POP PUSH0 PUSH20 0xFFFFFFFFFFFFFFFFFFFFFFFFFFFFFFFFFFFFFFFF AND DUP4 PUSH20 0xFFFFFFFFFFFFFFFFFFFFFFFFFFFFFFFFFFFFFFFF AND SUB PUSH2 0x26C6 JUMPI DUP3 PUSH1 0x40 MLOAD PUSH32 0x5B08BA1800000000000000000000000000000000000000000000000000000000 DUP2 MSTORE PUSH1 0x4 ADD PUSH2 0x26BD SWAP2 SWAP1 PUSH2 0x36A2 JUMP JUMPDEST PUSH1 0x40 MLOAD DUP1 SWAP2 SUB SWAP1 REVERT JUMPDEST DUP2 DUP2 PUSH1 0x5 ADD PUSH0 DUP7 PUSH20 0xFFFFFFFFFFFFFFFFFFFFFFFFFFFFFFFFFFFFFFFF AND PUSH20 0xFFFFFFFFFFFFFFFFFFFFFFFFFFFFFFFFFFFFFFFF AND DUP2 MSTORE PUSH1 0x20 ADD SWAP1 DUP2 MSTORE PUSH1 0x20 ADD PUSH0 KECCAK256 PUSH0 DUP6 PUSH20 0xFFFFFFFFFFFFFFFFFFFFFFFFFFFFFFFFFFFFFFFF AND PUSH20 0xFFFFFFFFFFFFFFFFFFFFFFFFFFFFFFFFFFFFFFFF AND DUP2 MSTORE PUSH1 0x20 ADD SWAP1 DUP2 MSTORE PUSH1 0x20 ADD PUSH0 KECCAK256 PUSH0 PUSH2 0x100 EXP DUP2 SLOAD DUP2 PUSH1 0xFF MUL NOT AND SWAP1 DUP4 ISZERO ISZERO MUL OR SWAP1 SSTORE POP DUP3 PUSH20 0xFFFFFFFFFFFFFFFFFFFFFFFFFFFFFFFFFFFFFFFF AND DUP5 PUSH20 0xFFFFFFFFFFFFFFFFFFFFFFFFFFFFFFFFFFFFFFFF AND PUSH32 0x17307EAB39AB6107E8899845AD3D59BD9653F200F220920489CA2B5937696C31 DUP5 PUSH1 0x40 MLOAD PUSH2 0x27B4 SWAP2 SWAP1 PUSH2 0x35BA JUMP JUMPDEST PUSH1 0x40 MLOAD DUP1 SWAP2 SUB SWAP1 LOG3 POP POP POP POP JUMP JUMPDEST PUSH0 DUP4 PUSH20 0xFFFFFFFFFFFFFFFFFFFFFFFFFFFFFFFFFFFFFFFF AND EXTCODESIZE GT ISZERO PUSH2 0x296E JUMPI DUP3 PUSH20 0xFFFFFFFFFFFFFFFFFFFFFFFFFFFFFFFFFFFFFFFF AND PUSH4 0x150B7A02 PUSH2 0x2805 PUSH2 0x1F37 JUMP JUMPDEST DUP7 DUP6 DUP6 PUSH1 0x40 MLOAD DUP6 PUSH4 0xFFFFFFFF AND PUSH1 0xE0 SHL DUP2 MSTORE PUSH1 0x4 ADD PUSH2 0x2827 SWAP5 SWAP4 SWAP3 SWAP2 SWAP1 PUSH2 0x4813 JUMP JUMPDEST PUSH1 0x20 PUSH1 0x40 MLOAD DUP1 DUP4 SUB DUP2 PUSH0 DUP8 GAS CALL SWAP3 POP POP POP DUP1 ISZERO PUSH2 0x2862 JUMPI POP PUSH1 0x40 MLOAD RETURNDATASIZE PUSH1 0x1F NOT PUSH1 0x1F DUP3 ADD AND DUP3 ADD DUP1 PUSH1 0x40 MSTORE POP DUP2 ADD SWAP1 PUSH2 0x285F SWAP2 SWAP1 PUSH2 0x4871 JUMP JUMPDEST PUSH1 0x1 JUMPDEST PUSH2 0x28E3 JUMPI RETURNDATASIZE DUP1 PUSH0 DUP2 EQ PUSH2 0x2890 JUMPI PUSH1 0x40 MLOAD SWAP2 POP PUSH1 0x1F NOT PUSH1 0x3F RETURNDATASIZE ADD AND DUP3 ADD PUSH1 0x40 MSTORE RETURNDATASIZE DUP3 MSTORE RETURNDATASIZE PUSH0 PUSH1 0x20 DUP5 ADD RETURNDATACOPY PUSH2 0x2895 JUMP JUMPDEST PUSH1 0x60 SWAP2 POP JUMPDEST POP PUSH0 DUP2 MLOAD SUB PUSH2 0x28DB JUMPI DUP4 PUSH1 0x40 MLOAD PUSH32 0x64A0AE9200000000000000000000000000000000000000000000000000000000 DUP2 MSTORE PUSH1 0x4 ADD PUSH2 0x28D2 SWAP2 SWAP1 PUSH2 0x36A2 JUMP JUMPDEST PUSH1 0x40 MLOAD DUP1 SWAP2 SUB SWAP1 REVERT JUMPDEST DUP1 MLOAD DUP2 PUSH1 0x20 ADD REVERT JUMPDEST PUSH4 0x150B7A02 PUSH1 0xE0 SHL PUSH28 0xFFFFFFFFFFFFFFFFFFFFFFFFFFFFFFFFFFFFFFFFFFFFFFFFFFFFFFFF NOT AND DUP2 PUSH28 0xFFFFFFFFFFFFFFFFFFFFFFFFFFFFFFFFFFFFFFFFFFFFFFFFFFFFFFFF NOT AND EQ PUSH2 0x296C JUMPI DUP4 PUSH1 0x40 MLOAD PUSH32 0x64A0AE9200000000000000000000000000000000000000000000000000000000 DUP2 MSTORE PUSH1 0x4 ADD PUSH2 0x2963 SWAP2 SWAP1 PUSH2 0x36A2 JUMP JUMPDEST PUSH1 0x40 MLOAD DUP1 SWAP2 SUB SWAP1 REVERT JUMPDEST POP JUMPDEST POP POP POP POP JUMP JUMPDEST PUSH1 0x60 PUSH0 PUSH1 0x1 PUSH2 0x2982 DUP5 PUSH2 0x2FBA JUMP JUMPDEST ADD SWAP1 POP PUSH0 DUP2 PUSH8 0xFFFFFFFFFFFFFFFF DUP2 GT ISZERO PUSH2 0x29A0 JUMPI PUSH2 0x299F PUSH2 0x372B JUMP JUMPDEST JUMPDEST PUSH1 0x40 MLOAD SWAP1 DUP1 DUP3 MSTORE DUP1 PUSH1 0x1F ADD PUSH1 0x1F NOT AND PUSH1 0x20 ADD DUP3 ADD PUSH1 0x40 MSTORE DUP1 ISZERO PUSH2 0x29D2 JUMPI DUP2 PUSH1 0x20 ADD PUSH1 0x1 DUP3 MUL DUP1 CALLDATASIZE DUP4 CALLDATACOPY DUP1 DUP3 ADD SWAP2 POP POP SWAP1 POP JUMPDEST POP SWAP1 POP PUSH0 DUP3 PUSH1 0x20 ADD DUP3 ADD SWAP1 POP JUMPDEST PUSH1 0x1 ISZERO PUSH2 0x2A33 JUMPI DUP1 DUP1 PUSH1 0x1 SWAP1 SUB SWAP2 POP POP PUSH32 0x3031323334353637383961626364656600000000000000000000000000000000 PUSH1 0xA DUP7 MOD BYTE DUP2 MSTORE8 PUSH1 0xA DUP6 DUP2 PUSH2 0x2A28 JUMPI PUSH2 0x2A27 PUSH2 0x470F JUMP JUMPDEST JUMPDEST DIV SWAP5 POP PUSH0 DUP6 SUB PUSH2 0x29DF JUMPI JUMPDEST DUP2 SWAP4 POP POP POP POP SWAP2 SWAP1 POP JUMP JUMPDEST PUSH0 PUSH32 0x80AC58CD00000000000000000000000000000000000000000000000000000000 PUSH28 0xFFFFFFFFFFFFFFFFFFFFFFFFFFFFFFFFFFFFFFFFFFFFFFFFFFFFFFFF NOT AND DUP3 PUSH28 0xFFFFFFFFFFFFFFFFFFFFFFFFFFFFFFFFFFFFFFFFFFFFFFFFFFFFFFFF NOT AND EQ DUP1 PUSH2 0x2B08 JUMPI POP PUSH32 0x5B5E139F00000000000000000000000000000000000000000000000000000000 PUSH28 0xFFFFFFFFFFFFFFFFFFFFFFFFFFFFFFFFFFFFFFFFFFFFFFFFFFFFFFFF NOT AND DUP3 PUSH28 0xFFFFFFFFFFFFFFFFFFFFFFFFFFFFFFFFFFFFFFFFFFFFFFFFFFFFFFFF NOT AND EQ JUMPDEST DUP1 PUSH2 0x2B18 JUMPI POP PUSH2 0x2B17 DUP3 PUSH2 0x310B JUMP JUMPDEST JUMPDEST SWAP1 POP SWAP2 SWAP1 POP JUMP JUMPDEST PUSH0 DUP1 PUSH2 0x2B29 PUSH2 0x1E43 JUMP JUMPDEST SWAP1 POP DUP1 PUSH1 0x2 ADD PUSH0 DUP5 DUP2 MSTORE PUSH1 0x20 ADD SWAP1 DUP2 MSTORE PUSH1 0x20 ADD PUSH0 KECCAK256 PUSH0 SWAP1 SLOAD SWAP1 PUSH2 0x100 EXP SWAP1 DIV PUSH20 0xFFFFFFFFFFFFFFFFFFFFFFFFFFFFFFFFFFFFFFFF AND SWAP2 POP POP SWAP2 SWAP1 POP JUMP JUMPDEST PUSH0 PUSH2 0x2B6F PUSH2 0x1E43 JUMP JUMPDEST SWAP1 POP DUP2 DUP1 PUSH2 0x2BA9 JUMPI POP PUSH0 PUSH20 0xFFFFFFFFFFFFFFFFFFFFFFFFFFFFFFFFFFFFFFFF AND DUP4 PUSH20 0xFFFFFFFFFFFFFFFFFFFFFFFFFFFFFFFFFFFFFFFF AND EQ ISZERO JUMPDEST ISZERO PUSH2 0x2CDB JUMPI PUSH0 PUSH2 0x2BB8 DUP6 PUSH2 0x1E6A JUMP JUMPDEST SWAP1 POP PUSH0 PUSH20 0xFFFFFFFFFFFFFFFFFFFFFFFFFFFFFFFFFFFFFFFF AND DUP5 PUSH20 0xFFFFFFFFFFFFFFFFFFFFFFFFFFFFFFFFFFFFFFFF AND EQ ISZERO DUP1 ISZERO PUSH2 0x2C22 JUMPI POP DUP4 PUSH20 0xFFFFFFFFFFFFFFFFFFFFFFFFFFFFFFFFFFFFFFFF AND DUP2 PUSH20 0xFFFFFFFFFFFFFFFFFFFFFFFFFFFFFFFFFFFFFFFF AND EQ ISZERO JUMPDEST DUP1 ISZERO PUSH2 0x2C35 JUMPI POP PUSH2 0x2C33 DUP2 DUP6 PUSH2 0x1893 JUMP JUMPDEST ISZERO JUMPDEST ISZERO PUSH2 0x2C77 JUMPI DUP4 PUSH1 0x40 MLOAD PUSH32 0xA9FBF51F00000000000000000000000000000000000000000000000000000000 DUP2 MSTORE PUSH1 0x4 ADD PUSH2 0x2C6E SWAP2 SWAP1 PUSH2 0x36A2 JUMP JUMPDEST PUSH1 0x40 MLOAD DUP1 SWAP2 SUB SWAP1 REVERT JUMPDEST DUP3 ISZERO PUSH2 0x2CD9 JUMPI DUP5 DUP7 PUSH20 0xFFFFFFFFFFFFFFFFFFFFFFFFFFFFFFFFFFFFFFFF AND DUP3 PUSH20 0xFFFFFFFFFFFFFFFFFFFFFFFFFFFFFFFFFFFFFFFF AND PUSH32 0x8C5BE1E5EBEC7D5BD14F71427D1E84F3DD0314C0F7B2291E5B200AC8C7C3B925 PUSH1 0x40 MLOAD PUSH1 0x40 MLOAD DUP1 SWAP2 SUB SWAP1 LOG4 JUMPDEST POP JUMPDEST DUP5 DUP2 PUSH1 0x4 ADD PUSH0 DUP7 DUP2 MSTORE PUSH1 0x20 ADD SWAP1 DUP2 MSTORE PUSH1 0x20 ADD PUSH0 KECCAK256 PUSH0 PUSH2 0x100 EXP DUP2 SLOAD DUP2 PUSH20 0xFFFFFFFFFFFFFFFFFFFFFFFFFFFFFFFFFFFFFFFF MUL NOT AND SWAP1 DUP4 PUSH20 0xFFFFFFFFFFFFFFFFFFFFFFFFFFFFFFFFFFFFFFFF AND MUL OR SWAP1 SSTORE POP POP POP POP POP POP JUMP JUMPDEST PUSH2 0x2D3E DUP4 DUP4 DUP4 PUSH2 0x3174 JUMP JUMPDEST PUSH2 0x2DF1 JUMPI PUSH0 PUSH20 0xFFFFFFFFFFFFFFFFFFFFFFFFFFFFFFFFFFFFFFFF AND DUP4 PUSH20 0xFFFFFFFFFFFFFFFFFFFFFFFFFFFFFFFFFFFFFFFF AND SUB PUSH2 0x2DB2 JUMPI DUP1 PUSH1 0x40 MLOAD PUSH32 0x7E27328900000000000000000000000000000000000000000000000000000000 DUP2 MSTORE PUSH1 0x4 ADD PUSH2 0x2DA9 SWAP2 SWAP1 PUSH2 0x3A49 JUMP JUMPDEST PUSH1 0x40 MLOAD DUP1 SWAP2 SUB SWAP1 REVERT JUMPDEST DUP2 DUP2 PUSH1 0x40 MLOAD PUSH32 0x177E802F00000000000000000000000000000000000000000000000000000000 DUP2 MSTORE PUSH1 0x4 ADD PUSH2 0x2DE8 SWAP3 SWAP2 SWAP1 PUSH2 0x489C JUMP JUMPDEST PUSH1 0x40 MLOAD DUP1 SWAP2 SUB SWAP1 REVERT JUMPDEST POP POP POP JUMP JUMPDEST PUSH0 PUSH2 0x2E22 PUSH32 0x360894A13BA1A3210667C828492DB98DCA3E2076CC3735A920A3CA505D382BBC PUSH0 SHL PUSH2 0x3234 JUMP JUMPDEST PUSH0 ADD PUSH0 SWAP1 SLOAD SWAP1 PUSH2 0x100 EXP SWAP1 DIV PUSH20 0xFFFFFFFFFFFFFFFFFFFFFFFFFFFFFFFFFFFFFFFF AND SWAP1 POP SWAP1 JUMP JUMPDEST PUSH2 0x2E52 DUP3 PUSH2 0x323D JUMP JUMPDEST DUP2 PUSH20 0xFFFFFFFFFFFFFFFFFFFFFFFFFFFFFFFFFFFFFFFF AND PUSH32 0xBC7CD75A20EE27FD9ADEBAB32041F755214DBC6BFFA90CC0225B39DA2E5C2D3B PUSH1 0x40 MLOAD PUSH1 0x40 MLOAD DUP1 SWAP2 SUB SWAP1 LOG2 PUSH0 DUP2 MLOAD GT ISZERO PUSH2 0x2EAE JUMPI PUSH2 0x2EA8 DUP3 DUP3 PUSH2 0x3306 JUMP JUMPDEST POP PUSH2 0x2EB7 JUMP JUMPDEST PUSH2 0x2EB6 PUSH2 0x3386 JUMP JUMPDEST JUMPDEST POP POP JUMP JUMPDEST PUSH2 0x2EC3 PUSH2 0x33C2 JUMP JUMPDEST PUSH2 0x2EF9 JUMPI PUSH1 0x40 MLOAD PUSH32 0xD7E6BCF800000000000000000000000000000000000000000000000000000000 DUP2 MSTORE PUSH1 0x4 ADD PUSH1 0x40 MLOAD DUP1 SWAP2 SUB SWAP1 REVERT JUMPDEST JUMP JUMPDEST PUSH2 0x2F03 PUSH2 0x2EBB JUMP JUMPDEST PUSH0 PUSH2 0x2F0C PUSH2 0x1E43 JUMP JUMPDEST SWAP1 POP DUP3 DUP2 PUSH0 ADD SWAP1 DUP2 PUSH2 0x2F1E SWAP2 SWAP1 PUSH2 0x3F74 JUMP JUMPDEST POP DUP2 DUP2 PUSH1 0x1 ADD SWAP1 DUP2 PUSH2 0x2F30 SWAP2 SWAP1 PUSH2 0x3F74 JUMP JUMPDEST POP POP POP POP JUMP JUMPDEST PUSH2 0x2F3E PUSH2 0x2EBB JUMP JUMPDEST PUSH0 PUSH20 0xFFFFFFFFFFFFFFFFFFFFFFFFFFFFFFFFFFFFFFFF AND DUP2 PUSH20 0xFFFFFFFFFFFFFFFFFFFFFFFFFFFFFFFFFFFFFFFF AND SUB PUSH2 0x2FAE JUMPI PUSH0 PUSH1 0x40 MLOAD PUSH32 0x1E4FBDF700000000000000000000000000000000000000000000000000000000 DUP2 MSTORE PUSH1 0x4 ADD PUSH2 0x2FA5 SWAP2 SWAP1 PUSH2 0x36A2 JUMP JUMPDEST PUSH1 0x40 MLOAD DUP1 SWAP2 SUB SWAP1 REVERT JUMPDEST PUSH2 0x2FB7 DUP2 PUSH2 0x24EE JUMP JUMPDEST POP JUMP JUMPDEST PUSH0 DUP1 PUSH0 SWAP1 POP PUSH27 0x184F03E93FF9F4DAA797ED6E38ED64BF6A1F010000000000000000 DUP4 LT PUSH2 0x3016 JUMPI PUSH27 0x184F03E93FF9F4DAA797ED6E38ED64BF6A1F010000000000000000 DUP4 DUP2 PUSH2 0x300C JUMPI PUSH2 0x300B PUSH2 0x470F JUMP JUMPDEST JUMPDEST DIV SWAP3 POP PUSH1 0x40 DUP2 ADD SWAP1 POP JUMPDEST PUSH14 0x4EE2D6D415B85ACEF8100000000 DUP4 LT PUSH2 0x3053 JUMPI PUSH14 0x4EE2D6D415B85ACEF8100000000 DUP4 DUP2 PUSH2 0x3049 JUMPI PUSH2 0x3048 PUSH2 0x470F JUMP JUMPDEST JUMPDEST DIV SWAP3 POP PUSH1 0x20 DUP2 ADD SWAP1 POP JUMPDEST PUSH7 0x2386F26FC10000 DUP4 LT PUSH2 0x3082 JUMPI PUSH7 0x2386F26FC10000 DUP4 DUP2 PUSH2 0x3078 JUMPI PUSH2 0x3077 PUSH2 0x470F JUMP JUMPDEST JUMPDEST DIV SWAP3 POP PUSH1 0x10 DUP2 ADD SWAP1 POP JUMPDEST PUSH4 0x5F5E100 DUP4 LT PUSH2 0x30AB JUMPI PUSH4 0x5F5E100 DUP4 DUP2 PUSH2 0x30A1 JUMPI PUSH2 0x30A0 PUSH2 0x470F JUMP JUMPDEST JUMPDEST DIV SWAP3 POP PUSH1 0x8 DUP2 ADD SWAP1 POP JUMPDEST PUSH2 0x2710 DUP4 LT PUSH2 0x30D0 JUMPI PUSH2 0x2710 DUP4 DUP2 PUSH2 0x30C6 JUMPI PUSH2 0x30C5 PUSH2 0x470F JUMP JUMPDEST JUMPDEST DIV SWAP3 POP PUSH1 0x4 DUP2 ADD SWAP1 POP JUMPDEST PUSH1 0x64 DUP4 LT PUSH2 0x30F3 JUMPI PUSH1 0x64 DUP4 DUP2 PUSH2 0x30E9 JUMPI PUSH2 0x30E8 PUSH2 0x470F JUMP JUMPDEST JUMPDEST DIV SWAP3 POP PUSH1 0x2 DUP2 ADD SWAP1 POP JUMPDEST PUSH1 0xA DUP4 LT PUSH2 0x3102 JUMPI PUSH1 0x1 DUP2 ADD SWAP1 POP JUMPDEST DUP1 SWAP2 POP POP SWAP2 SWAP1 POP JUMP JUMPDEST PUSH0 PUSH32 0x1FFC9A700000000000000000000000000000000000000000000000000000000 PUSH28 0xFFFFFFFFFFFFFFFFFFFFFFFFFFFFFFFFFFFFFFFFFFFFFFFFFFFFFFFF NOT AND DUP3 PUSH28 0xFFFFFFFFFFFFFFFFFFFFFFFFFFFFFFFFFFFFFFFFFFFFFFFFFFFFFFFF NOT AND EQ SWAP1 POP SWAP2 SWAP1 POP JUMP JUMPDEST PUSH0 DUP1 PUSH20 0xFFFFFFFFFFFFFFFFFFFFFFFFFFFFFFFFFFFFFFFF AND DUP4 PUSH20 0xFFFFFFFFFFFFFFFFFFFFFFFFFFFFFFFFFFFFFFFF AND EQ ISZERO DUP1 ISZERO PUSH2 0x322B JUMPI POP DUP3 PUSH20 0xFFFFFFFFFFFFFFFFFFFFFFFFFFFFFFFFFFFFFFFF AND DUP5 PUSH20 0xFFFFFFFFFFFFFFFFFFFFFFFFFFFFFFFFFFFFFFFF AND EQ DUP1 PUSH2 0x31EC JUMPI POP PUSH2 0x31EB DUP5 DUP5 PUSH2 0x1893 JUMP JUMPDEST JUMPDEST DUP1 PUSH2 0x322A JUMPI POP DUP3 PUSH20 0xFFFFFFFFFFFFFFFFFFFFFFFFFFFFFFFFFFFFFFFF AND PUSH2 0x3212 DUP4 PUSH2 0x1EF0 JUMP JUMPDEST PUSH20 0xFFFFFFFFFFFFFFFFFFFFFFFFFFFFFFFFFFFFFFFF AND EQ JUMPDEST JUMPDEST SWAP1 POP SWAP4 SWAP3 POP POP POP JUMP JUMPDEST PUSH0 DUP2 SWAP1 POP SWAP2 SWAP1 POP JUMP JUMPDEST PUSH0 DUP2 PUSH20 0xFFFFFFFFFFFFFFFFFFFFFFFFFFFFFFFFFFFFFFFF AND EXTCODESIZE SUB PUSH2 0x3298 JUMPI DUP1 PUSH1 0x40 MLOAD PUSH32 0x4C9C8CE300000000000000000000000000000000000000000000000000000000 DUP2 MSTORE PUSH1 0x4 ADD PUSH2 0x328F SWAP2 SWAP1 PUSH2 0x36A2 JUMP JUMPDEST PUSH1 0x40 MLOAD DUP1 SWAP2 SUB SWAP1 REVERT JUMPDEST DUP1 PUSH2 0x32C4 PUSH32 0x360894A13BA1A3210667C828492DB98DCA3E2076CC3735A920A3CA505D382BBC PUSH0 SHL PUSH2 0x3234 JUMP JUMPDEST PUSH0 ADD PUSH0 PUSH2 0x100 EXP DUP2 SLOAD DUP2 PUSH20 0xFFFFFFFFFFFFFFFFFFFFFFFFFFFFFFFFFFFFFFFF MUL NOT AND SWAP1 DUP4 PUSH20 0xFFFFFFFFFFFFFFFFFFFFFFFFFFFFFFFFFFFFFFFF AND MUL OR SWAP1 SSTORE POP POP JUMP JUMPDEST PUSH1 0x60 PUSH0 DUP1 DUP5 PUSH20 0xFFFFFFFFFFFFFFFFFFFFFFFFFFFFFFFFFFFFFFFF AND DUP5 PUSH1 0x40 MLOAD PUSH2 0x332F SWAP2 SWAP1 PUSH2 0x48FD JUMP JUMPDEST PUSH0 PUSH1 0x40 MLOAD DUP1 DUP4 SUB DUP2 DUP6 GAS DELEGATECALL SWAP2 POP POP RETURNDATASIZE DUP1 PUSH0 DUP2 EQ PUSH2 0x3367 JUMPI PUSH1 0x40 MLOAD SWAP2 POP PUSH1 0x1F NOT PUSH1 0x3F RETURNDATASIZE ADD AND DUP3 ADD PUSH1 0x40 MSTORE RETURNDATASIZE DUP3 MSTORE RETURNDATASIZE PUSH0 PUSH1 0x20 DUP5 ADD RETURNDATACOPY PUSH2 0x336C JUMP JUMPDEST PUSH1 0x60 SWAP2 POP JUMPDEST POP SWAP2 POP SWAP2 POP PUSH2 0x337C DUP6 DUP4 DUP4 PUSH2 0x33E0 JUMP JUMPDEST SWAP3 POP POP POP SWAP3 SWAP2 POP POP JUMP JUMPDEST PUSH0 CALLVALUE GT ISZERO PUSH2 0x33C0 JUMPI PUSH1 0x40 MLOAD PUSH32 0xB398979F00000000000000000000000000000000000000000000000000000000 DUP2 MSTORE PUSH1 0x4 ADD PUSH1 0x40 MLOAD DUP1 SWAP2 SUB SWAP1 REVERT JUMPDEST JUMP JUMPDEST PUSH0 PUSH2 0x33CB PUSH2 0x25E6 JUMP JUMPDEST PUSH0 ADD PUSH1 0x8 SWAP1 SLOAD SWAP1 PUSH2 0x100 EXP SWAP1 DIV PUSH1 0xFF AND SWAP1 POP SWAP1 JUMP JUMPDEST PUSH1 0x60 DUP3 PUSH2 0x33F5 JUMPI PUSH2 0x33F0 DUP3 PUSH2 0x346D JUMP JUMPDEST PUSH2 0x3465 JUMP JUMPDEST PUSH0 DUP3 MLOAD EQ DUP1 ISZERO PUSH2 0x341B JUMPI POP PUSH0 DUP5 PUSH20 0xFFFFFFFFFFFFFFFFFFFFFFFFFFFFFFFFFFFFFFFF AND EXTCODESIZE EQ JUMPDEST ISZERO PUSH2 0x345D JUMPI DUP4 PUSH1 0x40 MLOAD PUSH32 0x9996B31500000000000000000000000000000000000000000000000000000000 DUP2 MSTORE PUSH1 0x4 ADD PUSH2 0x3454 SWAP2 SWAP1 PUSH2 0x36A2 JUMP JUMPDEST PUSH1 0x40 MLOAD DUP1 SWAP2 SUB SWAP1 REVERT JUMPDEST DUP2 SWAP1 POP PUSH2 0x3466 JUMP JUMPDEST JUMPDEST SWAP4 SWAP3 POP POP POP JUMP JUMPDEST PUSH0 DUP2 MLOAD GT ISZERO PUSH2 0x347F JUMPI DUP1 MLOAD DUP1 DUP3 PUSH1 0x20 ADD REVERT JUMPDEST PUSH1 0x40 MLOAD PUSH32 0x1425EA4200000000000000000000000000000000000000000000000000000000 DUP2 MSTORE PUSH1 0x4 ADD PUSH1 0x40 MLOAD DUP1 SWAP2 SUB SWAP1 REVERT JUMPDEST PUSH0 PUSH1 0x40 MLOAD SWAP1 POP SWAP1 JUMP JUMPDEST PUSH0 DUP1 REVERT JUMPDEST PUSH0 DUP1 REVERT JUMPDEST PUSH0 DUP2 SWAP1 POP SWAP2 SWAP1 POP JUMP JUMPDEST PUSH2 0x34D4 DUP2 PUSH2 0x34C2 JUMP JUMPDEST DUP2 EQ PUSH2 0x34DE JUMPI PUSH0 DUP1 REVERT JUMPDEST POP JUMP JUMPDEST PUSH0 DUP2 CALLDATALOAD SWAP1 POP PUSH2 0x34EF DUP2 PUSH2 0x34CB JUMP JUMPDEST SWAP3 SWAP2 POP POP JUMP JUMPDEST PUSH0 PUSH1 0x20 DUP3 DUP5 SUB SLT ISZERO PUSH2 0x350A JUMPI PUSH2 0x3509 PUSH2 0x34BA JUMP JUMPDEST JUMPDEST PUSH0 PUSH2 0x3517 DUP5 DUP3 DUP6 ADD PUSH2 0x34E1 JUMP JUMPDEST SWAP2 POP POP SWAP3 SWAP2 POP POP JUMP JUMPDEST PUSH0 PUSH32 0xFFFFFFFF00000000000000000000000000000000000000000000000000000000 DUP3 AND SWAP1 POP SWAP2 SWAP1 POP JUMP JUMPDEST PUSH2 0x3554 DUP2 PUSH2 0x3520 JUMP JUMPDEST DUP2 EQ PUSH2 0x355E JUMPI PUSH0 DUP1 REVERT JUMPDEST POP JUMP JUMPDEST PUSH0 DUP2 CALLDATALOAD SWAP1 POP PUSH2 0x356F DUP2 PUSH2 0x354B JUMP JUMPDEST SWAP3 SWAP2 POP POP JUMP JUMPDEST PUSH0 PUSH1 0x20 DUP3 DUP5 SUB SLT ISZERO PUSH2 0x358A JUMPI PUSH2 0x3589 PUSH2 0x34BA JUMP JUMPDEST JUMPDEST PUSH0 PUSH2 0x3597 DUP5 DUP3 DUP6 ADD PUSH2 0x3561 JUMP JUMPDEST SWAP2 POP POP SWAP3 SWAP2 POP POP JUMP JUMPDEST PUSH0 DUP2 ISZERO ISZERO SWAP1 POP SWAP2 SWAP1 POP JUMP JUMPDEST PUSH2 0x35B4 DUP2 PUSH2 0x35A0 JUMP JUMPDEST DUP3 MSTORE POP POP JUMP JUMPDEST PUSH0 PUSH1 0x20 DUP3 ADD SWAP1 POP PUSH2 0x35CD PUSH0 DUP4 ADD DUP5 PUSH2 0x35AB JUMP JUMPDEST SWAP3 SWAP2 POP POP JUMP JUMPDEST PUSH0 DUP2 MLOAD SWAP1 POP SWAP2 SWAP1 POP JUMP JUMPDEST PUSH0 DUP3 DUP3 MSTORE PUSH1 0x20 DUP3 ADD SWAP1 POP SWAP3 SWAP2 POP POP JUMP JUMPDEST DUP3 DUP2 DUP4 MCOPY PUSH0 DUP4 DUP4 ADD MSTORE POP POP POP JUMP JUMPDEST PUSH0 PUSH1 0x1F NOT PUSH1 0x1F DUP4 ADD AND SWAP1 POP SWAP2 SWAP1 POP JUMP JUMPDEST PUSH0 PUSH2 0x3615 DUP3 PUSH2 0x35D3 JUMP JUMPDEST PUSH2 0x361F DUP2 DUP6 PUSH2 0x35DD JUMP JUMPDEST SWAP4 POP PUSH2 0x362F DUP2 DUP6 PUSH1 0x20 DUP7 ADD PUSH2 0x35ED JUMP JUMPDEST PUSH2 0x3638 DUP2 PUSH2 0x35FB JUMP JUMPDEST DUP5 ADD SWAP2 POP POP SWAP3 SWAP2 POP POP JUMP JUMPDEST PUSH0 PUSH1 0x20 DUP3 ADD SWAP1 POP DUP2 DUP2 SUB PUSH0 DUP4 ADD MSTORE PUSH2 0x365B DUP2 DUP5 PUSH2 0x360B JUMP JUMPDEST SWAP1 POP SWAP3 SWAP2 POP POP JUMP JUMPDEST PUSH0 PUSH20 0xFFFFFFFFFFFFFFFFFFFFFFFFFFFFFFFFFFFFFFFF DUP3 AND SWAP1 POP SWAP2 SWAP1 POP JUMP JUMPDEST PUSH0 PUSH2 0x368C DUP3 PUSH2 0x3663 JUMP JUMPDEST SWAP1 POP SWAP2 SWAP1 POP JUMP JUMPDEST PUSH2 0x369C DUP2 PUSH2 0x3682 JUMP JUMPDEST DUP3 MSTORE POP POP JUMP JUMPDEST PUSH0 PUSH1 0x20 DUP3 ADD SWAP1 POP PUSH2 0x36B5 PUSH0 DUP4 ADD DUP5 PUSH2 0x3693 JUMP JUMPDEST SWAP3 SWAP2 POP POP JUMP JUMPDEST PUSH2 0x36C4 DUP2 PUSH2 0x3682 JUMP JUMPDEST DUP2 EQ PUSH2 0x36CE JUMPI PUSH0 DUP1 REVERT JUMPDEST POP JUMP JUMPDEST PUSH0 DUP2 CALLDATALOAD SWAP1 POP PUSH2 0x36DF DUP2 PUSH2 0x36BB JUMP JUMPDEST SWAP3 SWAP2 POP POP JUMP JUMPDEST PUSH0 DUP1 PUSH1 0x40 DUP4 DUP6 SUB SLT ISZERO PUSH2 0x36FB JUMPI PUSH2 0x36FA PUSH2 0x34BA JUMP JUMPDEST JUMPDEST PUSH0 PUSH2 0x3708 DUP6 DUP3 DUP7 ADD PUSH2 0x36D1 JUMP JUMPDEST SWAP3 POP POP PUSH1 0x20 PUSH2 0x3719 DUP6 DUP3 DUP7 ADD PUSH2 0x34E1 JUMP JUMPDEST SWAP2 POP POP SWAP3 POP SWAP3 SWAP1 POP JUMP JUMPDEST PUSH0 DUP1 REVERT JUMPDEST PUSH0 DUP1 REVERT JUMPDEST PUSH32 0x4E487B7100000000000000000000000000000000000000000000000000000000 PUSH0 MSTORE PUSH1 0x41 PUSH1 0x4 MSTORE PUSH1 0x24 PUSH0 REVERT JUMPDEST PUSH2 0x3761 DUP3 PUSH2 0x35FB JUMP JUMPDEST DUP2 ADD DUP2 DUP2 LT PUSH8 0xFFFFFFFFFFFFFFFF DUP3 GT OR ISZERO PUSH2 0x3780 JUMPI PUSH2 0x377F PUSH2 0x372B JUMP JUMPDEST JUMPDEST DUP1 PUSH1 0x40 MSTORE POP POP POP JUMP JUMPDEST PUSH0 PUSH2 0x3792 PUSH2 0x34B1 JUMP JUMPDEST SWAP1 POP PUSH2 0x379E DUP3 DUP3 PUSH2 0x3758 JUMP JUMPDEST SWAP2 SWAP1 POP JUMP JUMPDEST PUSH0 PUSH8 0xFFFFFFFFFFFFFFFF DUP3 GT ISZERO PUSH2 0x37BD JUMPI PUSH2 0x37BC PUSH2 0x372B JUMP JUMPDEST JUMPDEST PUSH2 0x37C6 DUP3 PUSH2 0x35FB JUMP JUMPDEST SWAP1 POP PUSH1 0x20 DUP2 ADD SWAP1 POP SWAP2 SWAP1 POP JUMP JUMPDEST DUP3 DUP2 DUP4 CALLDATACOPY PUSH0 DUP4 DUP4 ADD MSTORE POP POP POP JUMP JUMPDEST PUSH0 PUSH2 0x37F3 PUSH2 0x37EE DUP5 PUSH2 0x37A3 JUMP JUMPDEST PUSH2 0x3789 JUMP JUMPDEST SWAP1 POP DUP3 DUP2 MSTORE PUSH1 0x20 DUP2 ADD DUP5 DUP5 DUP5 ADD GT ISZERO PUSH2 0x380F JUMPI PUSH2 0x380E PUSH2 0x3727 JUMP JUMPDEST JUMPDEST PUSH2 0x381A DUP5 DUP3 DUP6 PUSH2 0x37D3 JUMP JUMPDEST POP SWAP4 SWAP3 POP POP POP JUMP JUMPDEST PUSH0 DUP3 PUSH1 0x1F DUP4 ADD SLT PUSH2 0x3836 JUMPI PUSH2 0x3835 PUSH2 0x3723 JUMP JUMPDEST JUMPDEST DUP2 CALLDATALOAD PUSH2 0x3846 DUP5 DUP3 PUSH1 0x20 DUP7 ADD PUSH2 0x37E1 JUMP JUMPDEST SWAP2 POP POP SWAP3 SWAP2 POP POP JUMP JUMPDEST PUSH0 PUSH1 0x20 DUP3 DUP5 SUB SLT ISZERO PUSH2 0x3864 JUMPI PUSH2 0x3863 PUSH2 0x34BA JUMP JUMPDEST JUMPDEST PUSH0 DUP3 ADD CALLDATALOAD PUSH8 0xFFFFFFFFFFFFFFFF DUP2 GT ISZERO PUSH2 0x3881 JUMPI PUSH2 0x3880 PUSH2 0x34BE JUMP JUMPDEST JUMPDEST PUSH2 0x388D DUP5 DUP3 DUP6 ADD PUSH2 0x3822 JUMP JUMPDEST SWAP2 POP POP SWAP3 SWAP2 POP POP JUMP JUMPDEST PUSH0 DUP1 PUSH0 PUSH1 0x60 DUP5 DUP7 SUB SLT ISZERO PUSH2 0x38AD JUMPI PUSH2 0x38AC PUSH2 0x34BA JUMP JUMPDEST JUMPDEST PUSH0 PUSH2 0x38BA DUP7 DUP3 DUP8 ADD PUSH2 0x36D1 JUMP JUMPDEST SWAP4 POP POP PUSH1 0x20 PUSH2 0x38CB DUP7 DUP3 DUP8 ADD PUSH2 0x36D1 JUMP JUMPDEST SWAP3 POP POP PUSH1 0x40 PUSH2 0x38DC DUP7 DUP3 DUP8 ADD PUSH2 0x34E1 JUMP JUMPDEST SWAP2 POP POP SWAP3 POP SWAP3 POP SWAP3 JUMP JUMPDEST PUSH0 PUSH8 0xFFFFFFFFFFFFFFFF DUP3 GT ISZERO PUSH2 0x3900 JUMPI PUSH2 0x38FF PUSH2 0x372B JUMP JUMPDEST JUMPDEST PUSH2 0x3909 DUP3 PUSH2 0x35FB JUMP JUMPDEST SWAP1 POP PUSH1 0x20 DUP2 ADD SWAP1 POP SWAP2 SWAP1 POP JUMP JUMPDEST PUSH0 PUSH2 0x3928 PUSH2 0x3923 DUP5 PUSH2 0x38E6 JUMP JUMPDEST PUSH2 0x3789 JUMP JUMPDEST SWAP1 POP DUP3 DUP2 MSTORE PUSH1 0x20 DUP2 ADD DUP5 DUP5 DUP5 ADD GT ISZERO PUSH2 0x3944 JUMPI PUSH2 0x3943 PUSH2 0x3727 JUMP JUMPDEST JUMPDEST PUSH2 0x394F DUP5 DUP3 DUP6 PUSH2 0x37D3 JUMP JUMPDEST POP SWAP4 SWAP3 POP POP POP JUMP JUMPDEST PUSH0 DUP3 PUSH1 0x1F DUP4 ADD SLT PUSH2 0x396B JUMPI PUSH2 0x396A PUSH2 0x3723 JUMP JUMPDEST JUMPDEST DUP2 CALLDATALOAD PUSH2 0x397B DUP5 DUP3 PUSH1 0x20 DUP7 ADD PUSH2 0x3916 JUMP JUMPDEST SWAP2 POP POP SWAP3 SWAP2 POP POP JUMP JUMPDEST PUSH0 DUP1 PUSH1 0x40 DUP4 DUP6 SUB SLT ISZERO PUSH2 0x399A JUMPI PUSH2 0x3999 PUSH2 0x34BA JUMP JUMPDEST JUMPDEST PUSH0 PUSH2 0x39A7 DUP6 DUP3 DUP7 ADD PUSH2 0x36D1 JUMP JUMPDEST SWAP3 POP POP PUSH1 0x20 DUP4 ADD CALLDATALOAD PUSH8 0xFFFFFFFFFFFFFFFF DUP2 GT ISZERO PUSH2 0x39C8 JUMPI PUSH2 0x39C7 PUSH2 0x34BE JUMP JUMPDEST JUMPDEST PUSH2 0x39D4 DUP6 DUP3 DUP7 ADD PUSH2 0x3957 JUMP JUMPDEST SWAP2 POP POP SWAP3 POP SWAP3 SWAP1 POP JUMP JUMPDEST PUSH0 DUP2 SWAP1 POP SWAP2 SWAP1 POP JUMP JUMPDEST PUSH2 0x39F0 DUP2 PUSH2 0x39DE JUMP JUMPDEST DUP3 MSTORE POP POP JUMP JUMPDEST PUSH0 PUSH1 0x20 DUP3 ADD SWAP1 POP PUSH2 0x3A09 PUSH0 DUP4 ADD DUP5 PUSH2 0x39E7 JUMP JUMPDEST SWAP3 SWAP2 POP POP JUMP JUMPDEST PUSH0 PUSH1 0x20 DUP3 DUP5 SUB SLT ISZERO PUSH2 0x3A24 JUMPI PUSH2 0x3A23 PUSH2 0x34BA JUMP JUMPDEST JUMPDEST PUSH0 PUSH2 0x3A31 DUP5 DUP3 DUP6 ADD PUSH2 0x36D1 JUMP JUMPDEST SWAP2 POP POP SWAP3 SWAP2 POP POP JUMP JUMPDEST PUSH2 0x3A43 DUP2 PUSH2 0x34C2 JUMP JUMPDEST DUP3 MSTORE POP POP JUMP JUMPDEST PUSH0 PUSH1 0x20 DUP3 ADD SWAP1 POP PUSH2 0x3A5C PUSH0 DUP4 ADD DUP5 PUSH2 0x3A3A JUMP JUMPDEST SWAP3 SWAP2 POP POP JUMP JUMPDEST PUSH0 DUP1 PUSH0 PUSH1 0x60 DUP5 DUP7 SUB SLT ISZERO PUSH2 0x3A79 JUMPI PUSH2 0x3A78 PUSH2 0x34BA JUMP JUMPDEST JUMPDEST PUSH0 PUSH2 0x3A86 DUP7 DUP3 DUP8 ADD PUSH2 0x36D1 JUMP JUMPDEST SWAP4 POP POP PUSH1 0x20 DUP5 ADD CALLDATALOAD PUSH8 0xFFFFFFFFFFFFFFFF DUP2 GT ISZERO PUSH2 0x3AA7 JUMPI PUSH2 0x3AA6 PUSH2 0x34BE JUMP JUMPDEST JUMPDEST PUSH2 0x3AB3 DUP7 DUP3 DUP8 ADD PUSH2 0x3822 JUMP JUMPDEST SWAP3 POP POP PUSH1 0x40 DUP5 ADD CALLDATALOAD PUSH8 0xFFFFFFFFFFFFFFFF DUP2 GT ISZERO PUSH2 0x3AD4 JUMPI PUSH2 0x3AD3 PUSH2 0x34BE JUMP JUMPDEST JUMPDEST PUSH2 0x3AE0 DUP7 DUP3 DUP8 ADD PUSH2 0x3822 JUMP JUMPDEST SWAP2 POP POP SWAP3 POP SWAP3 POP SWAP3 JUMP JUMPDEST PUSH2 0x3AF3 DUP2 PUSH2 0x35A0 JUMP JUMPDEST DUP2 EQ PUSH2 0x3AFD JUMPI PUSH0 DUP1 REVERT JUMPDEST POP JUMP JUMPDEST PUSH0 DUP2 CALLDATALOAD SWAP1 POP PUSH2 0x3B0E DUP2 PUSH2 0x3AEA JUMP JUMPDEST SWAP3 SWAP2 POP POP JUMP JUMPDEST PUSH0 DUP1 PUSH1 0x40 DUP4 DUP6 SUB SLT ISZERO PUSH2 0x3B2A JUMPI PUSH2 0x3B29 PUSH2 0x34BA JUMP JUMPDEST JUMPDEST PUSH0 PUSH2 0x3B37 DUP6 DUP3 DUP7 ADD PUSH2 0x36D1 JUMP JUMPDEST SWAP3 POP POP PUSH1 0x20 PUSH2 0x3B48 DUP6 DUP3 DUP7 ADD PUSH2 0x3B00 JUMP JUMPDEST SWAP2 POP POP SWAP3 POP SWAP3 SWAP1 POP JUMP JUMPDEST PUSH32 0x4E487B7100000000000000000000000000000000000000000000000000000000 PUSH0 MSTORE PUSH1 0x21 PUSH1 0x4 MSTORE PUSH1 0x24 PUSH0 REVERT JUMPDEST PUSH1 0x4 DUP2 LT PUSH2 0x3B90 JUMPI PUSH2 0x3B8F PUSH2 0x3B52 JUMP JUMPDEST JUMPDEST POP JUMP JUMPDEST PUSH0 DUP2 SWAP1 POP PUSH2 0x3BA0 DUP3 PUSH2 0x3B7F JUMP JUMPDEST SWAP2 SWAP1 POP JUMP JUMPDEST PUSH0 PUSH2 0x3BAF DUP3 PUSH2 0x3B93 JUMP JUMPDEST SWAP1 POP SWAP2 SWAP1 POP JUMP JUMPDEST PUSH2 0x3BBF DUP2 PUSH2 0x3BA5 JUMP JUMPDEST DUP3 MSTORE POP POP JUMP JUMPDEST PUSH0 PUSH1 0x40 DUP3 ADD SWAP1 POP PUSH2 0x3BD8 PUSH0 DUP4 ADD DUP6 PUSH2 0x3BB6 JUMP JUMPDEST PUSH2 0x3BE5 PUSH1 0x20 DUP4 ADD DUP5 PUSH2 0x3A3A JUMP JUMPDEST SWAP4 SWAP3 POP POP POP JUMP JUMPDEST PUSH0 DUP1 PUSH0 DUP1 PUSH1 0x80 DUP6 DUP8 SUB SLT ISZERO PUSH2 0x3C04 JUMPI PUSH2 0x3C03 PUSH2 0x34BA JUMP JUMPDEST JUMPDEST PUSH0 PUSH2 0x3C11 DUP8 DUP3 DUP9 ADD PUSH2 0x36D1 JUMP JUMPDEST SWAP5 POP POP PUSH1 0x20 PUSH2 0x3C22 DUP8 DUP3 DUP9 ADD PUSH2 0x36D1 JUMP JUMPDEST SWAP4 POP POP PUSH1 0x40 PUSH2 0x3C33 DUP8 DUP3 DUP9 ADD PUSH2 0x34E1 JUMP JUMPDEST SWAP3 POP POP PUSH1 0x60 DUP6 ADD CALLDATALOAD PUSH8 0xFFFFFFFFFFFFFFFF DUP2 GT ISZERO PUSH2 0x3C54 JUMPI PUSH2 0x3C53 PUSH2 0x34BE JUMP JUMPDEST JUMPDEST PUSH2 0x3C60 DUP8 DUP3 DUP9 ADD PUSH2 0x3957 JUMP JUMPDEST SWAP2 POP POP SWAP3 SWAP6 SWAP2 SWAP5 POP SWAP3 POP JUMP JUMPDEST PUSH0 DUP1 PUSH1 0x40 DUP4 DUP6 SUB SLT ISZERO PUSH2 0x3C82 JUMPI PUSH2 0x3C81 PUSH2 0x34BA JUMP JUMPDEST JUMPDEST PUSH0 PUSH2 0x3C8F DUP6 DUP3 DUP7 ADD PUSH2 0x36D1 JUMP JUMPDEST SWAP3 POP POP PUSH1 0x20 PUSH2 0x3CA0 DUP6 DUP3 DUP7 ADD PUSH2 0x36D1 JUMP JUMPDEST SWAP2 POP POP SWAP3 POP SWAP3 SWAP1 POP JUMP JUMPDEST PUSH32 0x546F6B656E20697320616C7265616479206164756C7400000000000000000000 PUSH0 DUP3 ADD MSTORE POP JUMP JUMPDEST PUSH0 PUSH2 0x3CDE PUSH1 0x16 DUP4 PUSH2 0x35DD JUMP JUMPDEST SWAP2 POP PUSH2 0x3CE9 DUP3 PUSH2 0x3CAA JUMP JUMPDEST PUSH1 0x20 DUP3 ADD SWAP1 POP SWAP2 SWAP1 POP JUMP JUMPDEST PUSH0 PUSH1 0x20 DUP3 ADD SWAP1 POP DUP2 DUP2 SUB PUSH0 DUP4 ADD MSTORE PUSH2 0x3D0B DUP2 PUSH2 0x3CD2 JUMP JUMPDEST SWAP1 POP SWAP2 SWAP1 POP JUMP JUMPDEST PUSH32 0x4E6F74206F776E65720000000000000000000000000000000000000000000000 PUSH0 DUP3 ADD MSTORE POP JUMP JUMPDEST PUSH0 PUSH2 0x3D46 PUSH1 0x9 DUP4 PUSH2 0x35DD JUMP JUMPDEST SWAP2 POP PUSH2 0x3D51 DUP3 PUSH2 0x3D12 JUMP JUMPDEST PUSH1 0x20 DUP3 ADD SWAP1 POP SWAP2 SWAP1 POP JUMP JUMPDEST PUSH0 PUSH1 0x20 DUP3 ADD SWAP1 POP DUP2 DUP2 SUB PUSH0 DUP4 ADD MSTORE PUSH2 0x3D73 DUP2 PUSH2 0x3D3A JUMP JUMPDEST SWAP1 POP SWAP2 SWAP1 POP JUMP JUMPDEST PUSH32 0x4E487B7100000000000000000000000000000000000000000000000000000000 PUSH0 MSTORE PUSH1 0x22 PUSH1 0x4 MSTORE PUSH1 0x24 PUSH0 REVERT JUMPDEST PUSH0 PUSH1 0x2 DUP3 DIV SWAP1 POP PUSH1 0x1 DUP3 AND DUP1 PUSH2 0x3DBE JUMPI PUSH1 0x7F DUP3 AND SWAP2 POP JUMPDEST PUSH1 0x20 DUP3 LT DUP2 SUB PUSH2 0x3DD1 JUMPI PUSH2 0x3DD0 PUSH2 0x3D7A JUMP JUMPDEST JUMPDEST POP SWAP2 SWAP1 POP JUMP JUMPDEST PUSH0 DUP2 SWAP1 POP DUP2 PUSH0 MSTORE PUSH1 0x20 PUSH0 KECCAK256 SWAP1 POP SWAP2 SWAP1 POP JUMP JUMPDEST PUSH0 PUSH1 0x20 PUSH1 0x1F DUP4 ADD DIV SWAP1 POP SWAP2 SWAP1 POP JUMP JUMPDEST PUSH0 DUP3 DUP3 SHL SWAP1 POP SWAP3 SWAP2 POP POP JUMP JUMPDEST PUSH0 PUSH1 0x8 DUP4 MUL PUSH2 0x3E33 PUSH32 0xFFFFFFFFFFFFFFFFFFFFFFFFFFFFFFFFFFFFFFFFFFFFFFFFFFFFFFFFFFFFFFFF DUP3 PUSH2 0x3DF8 JUMP JUMPDEST PUSH2 0x3E3D DUP7 DUP4 PUSH2 0x3DF8 JUMP JUMPDEST SWAP6 POP DUP1 NOT DUP5 AND SWAP4 POP DUP1 DUP7 AND DUP5 OR SWAP3 POP POP POP SWAP4 SWAP3 POP POP POP JUMP JUMPDEST PUSH0 DUP2 SWAP1 POP SWAP2 SWAP1 POP JUMP JUMPDEST PUSH0 PUSH2 0x3E78 PUSH2 0x3E73 PUSH2 0x3E6E DUP5 PUSH2 0x34C2 JUMP JUMPDEST PUSH2 0x3E55 JUMP JUMPDEST PUSH2 0x34C2 JUMP JUMPDEST SWAP1 POP SWAP2 SWAP1 POP JUMP JUMPDEST PUSH0 DUP2 SWAP1 POP SWAP2 SWAP1 POP JUMP JUMPDEST PUSH2 0x3E91 DUP4 PUSH2 0x3E5E JUMP JUMPDEST PUSH2 0x3EA5 PUSH2 0x3E9D DUP3 PUSH2 0x3E7F JUMP JUMPDEST DUP5 DUP5 SLOAD PUSH2 0x3E04 JUMP JUMPDEST DUP3 SSTORE POP POP POP POP JUMP JUMPDEST PUSH0 SWAP1 JUMP JUMPDEST PUSH2 0x3EB9 PUSH2 0x3EAD JUMP JUMPDEST PUSH2 0x3EC4 DUP2 DUP5 DUP5 PUSH2 0x3E88 JUMP JUMPDEST POP POP POP JUMP JUMPDEST JUMPDEST DUP2 DUP2 LT ISZERO PUSH2 0x3EE7 JUMPI PUSH2 0x3EDC PUSH0 DUP3 PUSH2 0x3EB1 JUMP JUMPDEST PUSH1 0x1 DUP2 ADD SWAP1 POP PUSH2 0x3ECA JUMP JUMPDEST POP POP JUMP JUMPDEST PUSH1 0x1F DUP3 GT ISZERO PUSH2 0x3F2C JUMPI PUSH2 0x3EFD DUP2 PUSH2 0x3DD7 JUMP JUMPDEST PUSH2 0x3F06 DUP5 PUSH2 0x3DE9 JUMP JUMPDEST DUP2 ADD PUSH1 0x20 DUP6 LT ISZERO PUSH2 0x3F15 JUMPI DUP2 SWAP1 POP JUMPDEST PUSH2 0x3F29 PUSH2 0x3F21 DUP6 PUSH2 0x3DE9 JUMP JUMPDEST DUP4 ADD DUP3 PUSH2 0x3EC9 JUMP JUMPDEST POP POP JUMPDEST POP POP POP JUMP JUMPDEST PUSH0 DUP3 DUP3 SHR SWAP1 POP SWAP3 SWAP2 POP POP JUMP JUMPDEST PUSH0 PUSH2 0x3F4C PUSH0 NOT DUP5 PUSH1 0x8 MUL PUSH2 0x3F31 JUMP JUMPDEST NOT DUP1 DUP4 AND SWAP2 POP POP SWAP3 SWAP2 POP POP JUMP JUMPDEST PUSH0 PUSH2 0x3F64 DUP4 DUP4 PUSH2 0x3F3D JUMP JUMPDEST SWAP2 POP DUP3 PUSH1 0x2 MUL DUP3 OR SWAP1 POP SWAP3 SWAP2 POP POP JUMP JUMPDEST PUSH2 0x3F7D DUP3 PUSH2 0x35D3 JUMP JUMPDEST PUSH8 0xFFFFFFFFFFFFFFFF DUP2 GT ISZERO PUSH2 0x3F96 JUMPI PUSH2 0x3F95 PUSH2 0x372B JUMP JUMPDEST JUMPDEST PUSH2 0x3FA0 DUP3 SLOAD PUSH2 0x3DA7 JUMP JUMPDEST PUSH2 0x3FAB DUP3 DUP3 DUP6 PUSH2 0x3EEB JUMP JUMPDEST PUSH0 PUSH1 0x20 SWAP1 POP PUSH1 0x1F DUP4 GT PUSH1 0x1 DUP2 EQ PUSH2 0x3FDC JUMPI PUSH0 DUP5 ISZERO PUSH2 0x3FCA JUMPI DUP3 DUP8 ADD MLOAD SWAP1 POP JUMPDEST PUSH2 0x3FD4 DUP6 DUP3 PUSH2 0x3F59 JUMP JUMPDEST DUP7 SSTORE POP PUSH2 0x403B JUMP JUMPDEST PUSH1 0x1F NOT DUP5 AND PUSH2 0x3FEA DUP7 PUSH2 0x3DD7 JUMP JUMPDEST PUSH0 JUMPDEST DUP3 DUP2 LT ISZERO PUSH2 0x4011 JUMPI DUP5 DUP10 ADD MLOAD DUP3 SSTORE PUSH1 0x1 DUP3 ADD SWAP2 POP PUSH1 0x20 DUP6 ADD SWAP5 POP PUSH1 0x20 DUP2 ADD SWAP1 POP PUSH2 0x3FEC JUMP JUMPDEST DUP7 DUP4 LT ISZERO PUSH2 0x402E JUMPI DUP5 DUP10 ADD MLOAD PUSH2 0x402A PUSH1 0x1F DUP10 AND DUP3 PUSH2 0x3F3D JUMP JUMPDEST DUP4 SSTORE POP JUMPDEST PUSH1 0x1 PUSH1 0x2 DUP9 MUL ADD DUP9 SSTORE POP POP POP JUMPDEST POP POP POP POP POP POP JUMP JUMPDEST PUSH32 0x4E487B7100000000000000000000000000000000000000000000000000000000 PUSH0 MSTORE PUSH1 0x11 PUSH1 0x4 MSTORE PUSH1 0x24 PUSH0 REVERT JUMPDEST PUSH0 PUSH2 0x407A DUP3 PUSH2 0x34C2 JUMP JUMPDEST SWAP2 POP PUSH2 0x4085 DUP4 PUSH2 0x34C2 JUMP JUMPDEST SWAP3 POP DUP3 DUP3 ADD SWAP1 POP DUP1 DUP3 GT ISZERO PUSH2 0x409D JUMPI PUSH2 0x409C PUSH2 0x4043 JUMP JUMPDEST JUMPDEST SWAP3 SWAP2 POP POP JUMP JUMPDEST PUSH32 0x556E61626C6520746F2065766F6C766500000000000000000000000000000000 PUSH0 DUP3 ADD MSTORE POP JUMP JUMPDEST PUSH0 PUSH2 0x40D7 PUSH1 0x10 DUP4 PUSH2 0x35DD JUMP JUMPDEST SWAP2 POP PUSH2 0x40E2 DUP3 PUSH2 0x40A3 JUMP JUMPDEST PUSH1 0x20 DUP3 ADD SWAP1 POP SWAP2 SWAP1 POP JUMP JUMPDEST PUSH0 PUSH1 0x20 DUP3 ADD SWAP1 POP DUP2 DUP2 SUB PUSH0 DUP4 ADD MSTORE PUSH2 0x4104 DUP2 PUSH2 0x40CB JUMP JUMPDEST SWAP1 POP SWAP2 SWAP1 POP JUMP JUMPDEST PUSH0 PUSH1 0x60 DUP3 ADD SWAP1 POP PUSH2 0x411E PUSH0 DUP4 ADD DUP7 PUSH2 0x3693 JUMP JUMPDEST PUSH2 0x412B PUSH1 0x20 DUP4 ADD DUP6 PUSH2 0x3A3A JUMP JUMPDEST PUSH2 0x4138 PUSH1 0x40 DUP4 ADD DUP5 PUSH2 0x3693 JUMP JUMPDEST SWAP5 SWAP4 POP POP POP POP JUMP JUMPDEST PUSH0 DUP2 SWAP1 POP SWAP2 SWAP1 POP JUMP JUMPDEST PUSH0 PUSH8 0xFFFFFFFFFFFFFFFF DUP3 AND SWAP1 POP SWAP2 SWAP1 POP JUMP JUMPDEST PUSH0 PUSH2 0x4176 PUSH2 0x4171 PUSH2 0x416C DUP5 PUSH2 0x4140 JUMP JUMPDEST PUSH2 0x3E55 JUMP JUMPDEST PUSH2 0x4149 JUMP JUMPDEST SWAP1 POP SWAP2 SWAP1 POP JUMP JUMPDEST PUSH2 0x4186 DUP2 PUSH2 0x415C JUMP JUMPDEST DUP3 MSTORE POP POP JUMP JUMPDEST PUSH0 PUSH1 0x20 DUP3 ADD SWAP1 POP PUSH2 0x419F PUSH0 DUP4 ADD DUP5 PUSH2 0x417D JUMP JUMPDEST SWAP3 SWAP2 POP POP JUMP JUMPDEST PUSH0 PUSH2 0x41AF DUP3 PUSH2 0x34C2 JUMP JUMPDEST SWAP2 POP PUSH2 0x41BA DUP4 PUSH2 0x34C2 JUMP JUMPDEST SWAP3 POP DUP3 DUP3 SUB SWAP1 POP DUP2 DUP2 GT ISZERO PUSH2 0x41D2 JUMPI PUSH2 0x41D1 PUSH2 0x4043 JUMP JUMPDEST JUMPDEST SWAP3 SWAP2 POP POP JUMP JUMPDEST PUSH0 DUP2 SWAP1 POP SWAP3 SWAP2 POP POP JUMP JUMPDEST PUSH0 DUP2 SLOAD PUSH2 0x41EE DUP2 PUSH2 0x3DA7 JUMP JUMPDEST PUSH2 0x41F8 DUP2 DUP7 PUSH2 0x41D8 JUMP JUMPDEST SWAP5 POP PUSH1 0x1 DUP3 AND PUSH0 DUP2 EQ PUSH2 0x4212 JUMPI PUSH1 0x1 DUP2 EQ PUSH2 0x4227 JUMPI PUSH2 0x4259 JUMP JUMPDEST PUSH1 0xFF NOT DUP4 AND DUP7 MSTORE DUP2 ISZERO ISZERO DUP3 MUL DUP7 ADD SWAP4 POP PUSH2 0x4259 JUMP JUMPDEST PUSH2 0x4230 DUP6 PUSH2 0x3DD7 JUMP JUMPDEST PUSH0 JUMPDEST DUP4 DUP2 LT ISZERO PUSH2 0x4251 JUMPI DUP2 SLOAD DUP2 DUP10 ADD MSTORE PUSH1 0x1 DUP3 ADD SWAP2 POP PUSH1 0x20 DUP2 ADD SWAP1 POP PUSH2 0x4232 JUMP JUMPDEST DUP4 DUP9 ADD SWAP6 POP POP POP JUMPDEST POP POP POP SWAP3 SWAP2 POP POP JUMP JUMPDEST PUSH0 PUSH2 0x426C DUP3 PUSH2 0x35D3 JUMP JUMPDEST PUSH2 0x4276 DUP2 DUP6 PUSH2 0x41D8 JUMP JUMPDEST SWAP4 POP PUSH2 0x4286 DUP2 DUP6 PUSH1 0x20 DUP7 ADD PUSH2 0x35ED JUMP JUMPDEST DUP1 DUP5 ADD SWAP2 POP POP SWAP3 SWAP2 POP POP JUMP JUMPDEST PUSH0 PUSH2 0x429D DUP3 DUP6 PUSH2 0x41E2 JUMP JUMPDEST SWAP2 POP PUSH2 0x42A9 DUP3 DUP5 PUSH2 0x4262 JUMP JUMPDEST SWAP2 POP DUP2 SWAP1 POP SWAP4 SWAP3 POP POP POP JUMP JUMPDEST PUSH32 0x5F65676700000000000000000000000000000000000000000000000000000000 PUSH0 DUP3 ADD MSTORE POP JUMP JUMPDEST PUSH0 PUSH2 0x42E9 PUSH1 0x4 DUP4 PUSH2 0x41D8 JUMP JUMPDEST SWAP2 POP PUSH2 0x42F4 DUP3 PUSH2 0x42B5 JUMP JUMPDEST PUSH1 0x4 DUP3 ADD SWAP1 POP SWAP2 SWAP1 POP JUMP JUMPDEST PUSH0 PUSH2 0x430A DUP3 DUP5 PUSH2 0x41E2 JUMP JUMPDEST SWAP2 POP PUSH2 0x4315 DUP3 PUSH2 0x42DD JUMP JUMPDEST SWAP2 POP DUP2 SWAP1 POP SWAP3 SWAP2 POP POP JUMP JUMPDEST PUSH32 0x5F00000000000000000000000000000000000000000000000000000000000000 PUSH0 DUP3 ADD MSTORE POP JUMP JUMPDEST PUSH0 PUSH2 0x4354 PUSH1 0x1 DUP4 PUSH2 0x41D8 JUMP JUMPDEST SWAP2 POP PUSH2 0x435F DUP3 PUSH2 0x4320 JUMP JUMPDEST PUSH1 0x1 DUP3 ADD SWAP1 POP SWAP2 SWAP1 POP JUMP JUMPDEST PUSH0 PUSH2 0x4375 DUP3 DUP8 PUSH2 0x41E2 JUMP JUMPDEST SWAP2 POP PUSH2 0x4380 DUP3 PUSH2 0x4348 JUMP JUMPDEST SWAP2 POP PUSH2 0x438C DUP3 DUP7 PUSH2 0x4262 JUMP JUMPDEST SWAP2 POP PUSH2 0x4397 DUP3 PUSH2 0x4348 JUMP JUMPDEST SWAP2 POP PUSH2 0x43A3 DUP3 DUP6 PUSH2 0x4262 JUMP JUMPDEST SWAP2 POP PUSH2 0x43AE DUP3 PUSH2 0x4348 JUMP JUMPDEST SWAP2 POP PUSH2 0x43BA DUP3 DUP5 PUSH2 0x4262 JUMP JUMPDEST SWAP2 POP DUP2 SWAP1 POP SWAP6 SWAP5 POP POP POP POP POP JUMP JUMPDEST PUSH0 PUSH2 0x43D3 DUP3 DUP6 PUSH2 0x4262 JUMP JUMPDEST SWAP2 POP PUSH2 0x43DF DUP3 DUP5 PUSH2 0x41E2 JUMP JUMPDEST SWAP2 POP DUP2 SWAP1 POP SWAP4 SWAP3 POP POP POP JUMP JUMPDEST PUSH32 0x7B226E616D65223A2022447261676F6E20230000000000000000000000000000 PUSH0 DUP3 ADD MSTORE POP JUMP JUMPDEST PUSH0 PUSH2 0x441F PUSH1 0x12 DUP4 PUSH2 0x41D8 JUMP JUMPDEST SWAP2 POP PUSH2 0x442A DUP3 PUSH2 0x43EB JUMP JUMPDEST PUSH1 0x12 DUP3 ADD SWAP1 POP SWAP2 SWAP1 POP JUMP JUMPDEST PUSH32 0x222C2265787465726E616C5F75726C223A2268747470733A2F2F676974687562 PUSH0 DUP3 ADD MSTORE PUSH32 0x2E636F6D2F626368736F6C2F43727970746F447261676F6E222C22696D616765 PUSH1 0x20 DUP3 ADD MSTORE PUSH32 0x223A220000000000000000000000000000000000000000000000000000000000 PUSH1 0x40 DUP3 ADD MSTORE POP JUMP JUMPDEST PUSH0 PUSH2 0x44B5 PUSH1 0x43 DUP4 PUSH2 0x41D8 JUMP JUMPDEST SWAP2 POP PUSH2 0x44C0 DUP3 PUSH2 0x4435 JUMP JUMPDEST PUSH1 0x43 DUP3 ADD SWAP1 POP SWAP2 SWAP1 POP JUMP JUMPDEST PUSH0 PUSH2 0x44D5 DUP3 PUSH2 0x4413 JUMP JUMPDEST SWAP2 POP PUSH2 0x44E1 DUP3 DUP7 PUSH2 0x4262 JUMP JUMPDEST SWAP2 POP PUSH2 0x44EC DUP3 PUSH2 0x44A9 JUMP JUMPDEST SWAP2 POP PUSH2 0x44F8 DUP3 DUP6 PUSH2 0x41E2 JUMP JUMPDEST SWAP2 POP PUSH2 0x4504 DUP3 DUP5 PUSH2 0x4262 JUMP JUMPDEST SWAP2 POP DUP2 SWAP1 POP SWAP5 SWAP4 POP POP POP POP JUMP JUMPDEST PUSH32 0x222C2261747472696275746573223A5B7B2274726169745F74797065223A2244 PUSH0 DUP3 ADD MSTORE PUSH32 0x7261676F6E222C2276616C7565223A2200000000000000000000000000000000 PUSH1 0x20 DUP3 ADD MSTORE POP JUMP JUMPDEST PUSH0 PUSH2 0x456B PUSH1 0x30 DUP4 PUSH2 0x41D8 JUMP JUMPDEST SWAP2 POP PUSH2 0x4576 DUP3 PUSH2 0x4511 JUMP JUMPDEST PUSH1 0x30 DUP3 ADD SWAP1 POP SWAP2 SWAP1 POP JUMP JUMPDEST PUSH0 PUSH2 0x458B DUP3 PUSH2 0x455F JUMP JUMPDEST SWAP2 POP PUSH2 0x4597 DUP3 DUP5 PUSH2 0x41E2 JUMP JUMPDEST SWAP2 POP DUP2 SWAP1 POP SWAP3 SWAP2 POP POP JUMP JUMPDEST PUSH32 0x646174613A6170706C69636174696F6E2F6A736F6E3B757466382C0000000000 PUSH0 DUP3 ADD MSTORE POP JUMP JUMPDEST PUSH0 PUSH2 0x45D6 PUSH1 0x1B DUP4 PUSH2 0x41D8 JUMP JUMPDEST SWAP2 POP PUSH2 0x45E1 DUP3 PUSH2 0x45A2 JUMP JUMPDEST PUSH1 0x1B DUP3 ADD SWAP1 POP SWAP2 SWAP1 POP JUMP JUMPDEST PUSH0 PUSH2 0x45F6 DUP3 PUSH2 0x45CA JUMP JUMPDEST SWAP2 POP PUSH2 0x4602 DUP3 DUP7 PUSH2 0x4262 JUMP JUMPDEST SWAP2 POP PUSH2 0x460E DUP3 DUP6 PUSH2 0x4262 JUMP JUMPDEST SWAP2 POP PUSH2 0x461A DUP3 DUP5 PUSH2 0x4262 JUMP JUMPDEST SWAP2 POP DUP2 SWAP1 POP SWAP5 SWAP4 POP POP POP POP JUMP JUMPDEST PUSH0 PUSH2 0x4631 DUP3 PUSH2 0x34C2 JUMP JUMPDEST SWAP2 POP PUSH32 0xFFFFFFFFFFFFFFFFFFFFFFFFFFFFFFFFFFFFFFFFFFFFFFFFFFFFFFFFFFFFFFFF DUP3 SUB PUSH2 0x4663 JUMPI PUSH2 0x4662 PUSH2 0x4043 JUMP JUMPDEST JUMPDEST PUSH1 0x1 DUP3 ADD SWAP1 POP SWAP2 SWAP1 POP JUMP JUMPDEST PUSH0 DUP2 SWAP1 POP SWAP2 SWAP1 POP JUMP JUMPDEST PUSH2 0x4688 PUSH2 0x4683 DUP3 PUSH2 0x34C2 JUMP JUMPDEST PUSH2 0x466E JUMP JUMPDEST DUP3 MSTORE POP POP JUMP JUMPDEST PUSH0 DUP2 PUSH1 0x60 SHL SWAP1 POP SWAP2 SWAP1 POP JUMP JUMPDEST PUSH0 PUSH2 0x46A4 DUP3 PUSH2 0x468E JUMP JUMPDEST SWAP1 POP SWAP2 SWAP1 POP JUMP JUMPDEST PUSH0 PUSH2 0x46B5 DUP3 PUSH2 0x469A JUMP JUMPDEST SWAP1 POP SWAP2 SWAP1 POP JUMP JUMPDEST PUSH2 0x46CD PUSH2 0x46C8 DUP3 PUSH2 0x3682 JUMP JUMPDEST PUSH2 0x46AB JUMP JUMPDEST DUP3 MSTORE POP POP JUMP JUMPDEST PUSH0 PUSH2 0x46DE DUP3 DUP7 PUSH2 0x4677 JUMP JUMPDEST PUSH1 0x20 DUP3 ADD SWAP2 POP PUSH2 0x46EE DUP3 DUP6 PUSH2 0x46BC JUMP JUMPDEST PUSH1 0x14 DUP3 ADD SWAP2 POP PUSH2 0x46FE DUP3 DUP5 PUSH2 0x4677 JUMP JUMPDEST PUSH1 0x20 DUP3 ADD SWAP2 POP DUP2 SWAP1 POP SWAP5 SWAP4 POP POP POP POP JUMP JUMPDEST PUSH32 0x4E487B7100000000000000000000000000000000000000000000000000000000 PUSH0 MSTORE PUSH1 0x12 PUSH1 0x4 MSTORE PUSH1 0x24 PUSH0 REVERT JUMPDEST PUSH0 PUSH2 0x4746 DUP3 PUSH2 0x34C2 JUMP JUMPDEST SWAP2 POP PUSH2 0x4751 DUP4 PUSH2 0x34C2 JUMP JUMPDEST SWAP3 POP DUP3 PUSH2 0x4761 JUMPI PUSH2 0x4760 PUSH2 0x470F JUMP JUMPDEST JUMPDEST DUP3 DUP3 MOD SWAP1 POP SWAP3 SWAP2 POP POP JUMP JUMPDEST PUSH2 0x4775 DUP2 PUSH2 0x39DE JUMP JUMPDEST DUP2 EQ PUSH2 0x477F JUMPI PUSH0 DUP1 REVERT JUMPDEST POP JUMP JUMPDEST PUSH0 DUP2 MLOAD SWAP1 POP PUSH2 0x4790 DUP2 PUSH2 0x476C JUMP JUMPDEST SWAP3 SWAP2 POP POP JUMP JUMPDEST PUSH0 PUSH1 0x20 DUP3 DUP5 SUB SLT ISZERO PUSH2 0x47AB JUMPI PUSH2 0x47AA PUSH2 0x34BA JUMP JUMPDEST JUMPDEST PUSH0 PUSH2 0x47B8 DUP5 DUP3 DUP6 ADD PUSH2 0x4782 JUMP JUMPDEST SWAP2 POP POP SWAP3 SWAP2 POP POP JUMP JUMPDEST PUSH0 DUP2 MLOAD SWAP1 POP SWAP2 SWAP1 POP JUMP JUMPDEST PUSH0 DUP3 DUP3 MSTORE PUSH1 0x20 DUP3 ADD SWAP1 POP SWAP3 SWAP2 POP POP JUMP JUMPDEST PUSH0 PUSH2 0x47E5 DUP3 PUSH2 0x47C1 JUMP JUMPDEST PUSH2 0x47EF DUP2 DUP6 PUSH2 0x47CB JUMP JUMPDEST SWAP4 POP PUSH2 0x47FF DUP2 DUP6 PUSH1 0x20 DUP7 ADD PUSH2 0x35ED JUMP JUMPDEST PUSH2 0x4808 DUP2 PUSH2 0x35FB JUMP JUMPDEST DUP5 ADD SWAP2 POP POP SWAP3 SWAP2 POP POP JUMP JUMPDEST PUSH0 PUSH1 0x80 DUP3 ADD SWAP1 POP PUSH2 0x4826 PUSH0 DUP4 ADD DUP8 PUSH2 0x3693 JUMP JUMPDEST PUSH2 0x4833 PUSH1 0x20 DUP4 ADD DUP7 PUSH2 0x3693 JUMP JUMPDEST PUSH2 0x4840 PUSH1 0x40 DUP4 ADD DUP6 PUSH2 0x3A3A JUMP JUMPDEST DUP2 DUP2 SUB PUSH1 0x60 DUP4 ADD MSTORE PUSH2 0x4852 DUP2 DUP5 PUSH2 0x47DB JUMP JUMPDEST SWAP1 POP SWAP6 SWAP5 POP POP POP POP POP JUMP JUMPDEST PUSH0 DUP2 MLOAD SWAP1 POP PUSH2 0x486B DUP2 PUSH2 0x354B JUMP JUMPDEST SWAP3 SWAP2 POP POP JUMP JUMPDEST PUSH0 PUSH1 0x20 DUP3 DUP5 SUB SLT ISZERO PUSH2 0x4886 JUMPI PUSH2 0x4885 PUSH2 0x34BA JUMP JUMPDEST JUMPDEST PUSH0 PUSH2 0x4893 DUP5 DUP3 DUP6 ADD PUSH2 0x485D JUMP JUMPDEST SWAP2 POP POP SWAP3 SWAP2 POP POP JUMP JUMPDEST PUSH0 PUSH1 0x40 DUP3 ADD SWAP1 POP PUSH2 0x48AF PUSH0 DUP4 ADD DUP6 PUSH2 0x3693 JUMP JUMPDEST PUSH2 0x48BC PUSH1 0x20 DUP4 ADD DUP5 PUSH2 0x3A3A JUMP JUMPDEST SWAP4 SWAP3 POP POP POP JUMP JUMPDEST PUSH0 DUP2 SWAP1 POP SWAP3 SWAP2 POP POP JUMP JUMPDEST PUSH0 PUSH2 0x48D7 DUP3 PUSH2 0x47C1 JUMP JUMPDEST PUSH2 0x48E1 DUP2 DUP6 PUSH2 0x48C3 JUMP JUMPDEST SWAP4 POP PUSH2 0x48F1 DUP2 DUP6 PUSH1 0x20 DUP7 ADD PUSH2 0x35ED JUMP JUMPDEST DUP1 DUP5 ADD SWAP2 POP POP SWAP3 SWAP2 POP POP JUMP JUMPDEST PUSH0 PUSH2 0x4908 DUP3 DUP5 PUSH2 0x48CD JUMP JUMPDEST SWAP2 POP DUP2 SWAP1 POP SWAP3 SWAP2 POP POP JUMP INVALID LOG2 PUSH5 0x6970667358 0x22 SLT KECCAK256 CHAINID PUSH17 0x5A6B120968D2BDF73C31052048428CABAC 0xE3 0xDE 0xD5 0xC2 EXTCODECOPY 0xBF SGT EXTCODEHASH SHR LOG4 SWAP10 0x1E MSIZE PUSH5 0x736F6C6343 STOP ADDMOD NOT STOP CALLER "
		},
		"gasEstimates": {
			"creation": {
				"codeDepositCost": "3752200",
				"executionCost": "infinite",
				"totalCost": "infinite"
			},
			"external": {
				"UPGRADE_INTERFACE_VERSION()": "infinite",
				"approve(address,uint256)": "infinite",
				"balanceOf(address)": "infinite",
				"baseTokenURI()": "infinite",
				"dataURI()": "infinite",
				"evolve(uint256)": "infinite",
				"feeding(uint256)": "infinite",
				"forceEvolve(uint256)": "infinite",
				"getApproved(uint256)": "infinite",
				"getGrowthInfo(uint256)": "infinite",
				"initialize(address,string,string)": "infinite",
				"isApprovedForAll(address,address)": "infinite",
				"metaDescription()": "infinite",
				"name()": "infinite",
				"owner()": "2613",
				"ownerOf(uint256)": "infinite",
				"proxiableUUID()": "infinite",
				"renounceOwnership()": "infinite",
				"safeTransferFrom(address,address,uint256)": "infinite",
				"safeTransferFrom(address,address,uint256,bytes)": "infinite",
				"setApprovalForAll(address,bool)": "infinite",
				"setDataURI(string)": "infinite",
				"setImageExtension(string)": "infinite",
				"setMetaDescription(string)": "infinite",
				"setTokenURI(string)": "infinite",
				"supportsInterface(bytes4)": "968",
				"symbol()": "infinite",
				"tokenURI(uint256)": "infinite",
				"transferFrom(address,address,uint256)": "infinite",
				"transferOwnership(address)": "infinite",
				"upgradeToAndCall(address,bytes)": "infinite"
			},
			"internal": {
				"_authorizeUpgrade(address)": "infinite",
				"getRandomGender()": "infinite",
				"mintToken(string memory,uint256,uint256,uint256,address)": "infinite",
				"reduceTimeIfPossible(uint256,uint256,uint256)": "infinite"
			}
		},
		"methodIdentifiers": {
			"UPGRADE_INTERFACE_VERSION()": "ad3cb1cc",
			"approve(address,uint256)": "095ea7b3",
			"balanceOf(address)": "70a08231",
			"baseTokenURI()": "d547cfb7",
			"dataURI()": "f28ca1dd",
			"evolve(uint256)": "f119f567",
			"feeding(uint256)": "00e00064",
			"forceEvolve(uint256)": "1bc80eff",
			"getApproved(uint256)": "081812fc",
			"getGrowthInfo(uint256)": "b564ea86",
			"initialize(address,string,string)": "90657147",
			"isApprovedForAll(address,address)": "e985e9c5",
			"metaDescription()": "edeb4bbe",
			"name()": "06fdde03",
			"owner()": "8da5cb5b",
			"ownerOf(uint256)": "6352211e",
			"proxiableUUID()": "52d1902d",
			"renounceOwnership()": "715018a6",
			"safeTransferFrom(address,address,uint256)": "42842e0e",
			"safeTransferFrom(address,address,uint256,bytes)": "b88d4fde",
			"setApprovalForAll(address,bool)": "a22cb465",
			"setDataURI(string)": "18d217c3",
			"setImageExtension(string)": "39e3aa7e",
			"setMetaDescription(string)": "bd9ba9e8",
			"setTokenURI(string)": "e0df5b6f",
			"supportsInterface(bytes4)": "01ffc9a7",
			"symbol()": "95d89b41",
			"tokenURI(uint256)": "c87b56dd",
			"transferFrom(address,address,uint256)": "23b872dd",
			"transferOwnership(address)": "f2fde38b",
			"upgradeToAndCall(address,bytes)": "4f1ef286"
		}
	},
	"abi": [
		{
			"inputs": [],
			"stateMutability": "nonpayable",
			"type": "constructor"
		},
		{
			"inputs": [
				{
					"internalType": "address",
					"name": "target",
					"type": "address"
				}
			],
			"name": "AddressEmptyCode",
			"type": "error"
		},
		{
			"inputs": [
				{
					"internalType": "address",
					"name": "implementation",
					"type": "address"
				}
			],
			"name": "ERC1967InvalidImplementation",
			"type": "error"
		},
		{
			"inputs": [],
			"name": "ERC1967NonPayable",
			"type": "error"
		},
		{
			"inputs": [
				{
					"internalType": "address",
					"name": "sender",
					"type": "address"
				},
				{
					"internalType": "uint256",
					"name": "tokenId",
					"type": "uint256"
				},
				{
					"internalType": "address",
					"name": "owner",
					"type": "address"
				}
			],
			"name": "ERC721IncorrectOwner",
			"type": "error"
		},
		{
			"inputs": [
				{
					"internalType": "address",
					"name": "operator",
					"type": "address"
				},
				{
					"internalType": "uint256",
					"name": "tokenId",
					"type": "uint256"
				}
			],
			"name": "ERC721InsufficientApproval",
			"type": "error"
		},
		{
			"inputs": [
				{
					"internalType": "address",
					"name": "approver",
					"type": "address"
				}
			],
			"name": "ERC721InvalidApprover",
			"type": "error"
		},
		{
			"inputs": [
				{
					"internalType": "address",
					"name": "operator",
					"type": "address"
				}
			],
			"name": "ERC721InvalidOperator",
			"type": "error"
		},
		{
			"inputs": [
				{
					"internalType": "address",
					"name": "owner",
					"type": "address"
				}
			],
			"name": "ERC721InvalidOwner",
			"type": "error"
		},
		{
			"inputs": [
				{
					"internalType": "address",
					"name": "receiver",
					"type": "address"
				}
			],
			"name": "ERC721InvalidReceiver",
			"type": "error"
		},
		{
			"inputs": [
				{
					"internalType": "address",
					"name": "sender",
					"type": "address"
				}
			],
			"name": "ERC721InvalidSender",
			"type": "error"
		},
		{
			"inputs": [
				{
					"internalType": "uint256",
					"name": "tokenId",
					"type": "uint256"
				}
			],
			"name": "ERC721NonexistentToken",
			"type": "error"
		},
		{
			"inputs": [],
			"name": "FailedInnerCall",
			"type": "error"
		},
		{
			"inputs": [],
			"name": "InvalidInitialization",
			"type": "error"
		},
		{
			"inputs": [],
			"name": "NotInitializing",
			"type": "error"
		},
		{
			"inputs": [
				{
					"internalType": "address",
					"name": "owner",
					"type": "address"
				}
			],
			"name": "OwnableInvalidOwner",
			"type": "error"
		},
		{
			"inputs": [
				{
					"internalType": "address",
					"name": "account",
					"type": "address"
				}
			],
			"name": "OwnableUnauthorizedAccount",
			"type": "error"
		},
		{
			"inputs": [],
			"name": "UUPSUnauthorizedCallContext",
			"type": "error"
		},
		{
			"inputs": [
				{
					"internalType": "bytes32",
					"name": "slot",
					"type": "bytes32"
				}
			],
			"name": "UUPSUnsupportedProxiableUUID",
			"type": "error"
		},
		{
			"anonymous": false,
			"inputs": [
				{
					"indexed": true,
					"internalType": "address",
					"name": "owner",
					"type": "address"
				},
				{
					"indexed": true,
					"internalType": "address",
					"name": "approved",
					"type": "address"
				},
				{
					"indexed": true,
					"internalType": "uint256",
					"name": "tokenId",
					"type": "uint256"
				}
			],
			"name": "Approval",
			"type": "event"
		},
		{
			"anonymous": false,
			"inputs": [
				{
					"indexed": true,
					"internalType": "address",
					"name": "owner",
					"type": "address"
				},
				{
					"indexed": true,
					"internalType": "address",
					"name": "operator",
					"type": "address"
				},
				{
					"indexed": false,
					"internalType": "bool",
					"name": "approved",
					"type": "bool"
				}
			],
			"name": "ApprovalForAll",
			"type": "event"
		},
		{
			"anonymous": false,
			"inputs": [
				{
					"indexed": false,
					"internalType": "uint256",
					"name": "_fromTokenId",
					"type": "uint256"
				},
				{
					"indexed": false,
					"internalType": "uint256",
					"name": "_toTokenId",
					"type": "uint256"
				}
			],
			"name": "BatchMetadataUpdate",
			"type": "event"
		},
		{
			"anonymous": false,
			"inputs": [
				{
					"indexed": false,
					"internalType": "uint64",
					"name": "version",
					"type": "uint64"
				}
			],
			"name": "Initialized",
			"type": "event"
		},
		{
			"anonymous": false,
			"inputs": [
				{
					"indexed": false,
					"internalType": "uint256",
					"name": "_tokenId",
					"type": "uint256"
				}
			],
			"name": "MetadataUpdate",
			"type": "event"
		},
		{
			"anonymous": false,
			"inputs": [
				{
					"indexed": true,
					"internalType": "address",
					"name": "previousOwner",
					"type": "address"
				},
				{
					"indexed": true,
					"internalType": "address",
					"name": "newOwner",
					"type": "address"
				}
			],
			"name": "OwnershipTransferred",
			"type": "event"
		},
		{
			"anonymous": false,
			"inputs": [
				{
					"indexed": true,
					"internalType": "address",
					"name": "from",
					"type": "address"
				},
				{
					"indexed": true,
					"internalType": "address",
					"name": "to",
					"type": "address"
				},
				{
					"indexed": true,
					"internalType": "uint256",
					"name": "tokenId",
					"type": "uint256"
				}
			],
			"name": "Transfer",
			"type": "event"
		},
		{
			"anonymous": false,
			"inputs": [
				{
					"indexed": true,
					"internalType": "address",
					"name": "implementation",
					"type": "address"
				}
			],
			"name": "Upgraded",
			"type": "event"
		},
		{
			"inputs": [],
			"name": "UPGRADE_INTERFACE_VERSION",
			"outputs": [
				{
					"internalType": "string",
					"name": "",
					"type": "string"
				}
			],
			"stateMutability": "view",
			"type": "function"
		},
		{
			"inputs": [
				{
					"internalType": "address",
					"name": "to",
					"type": "address"
				},
				{
					"internalType": "uint256",
					"name": "tokenId",
					"type": "uint256"
				}
			],
			"name": "approve",
			"outputs": [],
			"stateMutability": "nonpayable",
			"type": "function"
		},
		{
			"inputs": [
				{
					"internalType": "address",
					"name": "owner",
					"type": "address"
				}
			],
			"name": "balanceOf",
			"outputs": [
				{
					"internalType": "uint256",
					"name": "",
					"type": "uint256"
				}
			],
			"stateMutability": "view",
			"type": "function"
		},
		{
			"inputs": [],
			"name": "baseTokenURI",
			"outputs": [
				{
					"internalType": "string",
					"name": "",
					"type": "string"
				}
			],
			"stateMutability": "view",
			"type": "function"
		},
		{
			"inputs": [],
			"name": "dataURI",
			"outputs": [
				{
					"internalType": "string",
					"name": "",
					"type": "string"
				}
			],
			"stateMutability": "view",
			"type": "function"
		},
		{
			"inputs": [
				{
					"internalType": "uint256",
					"name": "tokenId",
					"type": "uint256"
				}
			],
			"name": "evolve",
			"outputs": [],
			"stateMutability": "nonpayable",
			"type": "function"
		},
		{
			"inputs": [
				{
					"internalType": "uint256",
					"name": "tokenId",
					"type": "uint256"
				}
			],
			"name": "feeding",
			"outputs": [],
			"stateMutability": "nonpayable",
			"type": "function"
		},
		{
			"inputs": [
				{
					"internalType": "uint256",
					"name": "tokenId",
					"type": "uint256"
				}
			],
			"name": "forceEvolve",
			"outputs": [],
			"stateMutability": "nonpayable",
			"type": "function"
		},
		{
			"inputs": [
				{
					"internalType": "uint256",
					"name": "tokenId",
					"type": "uint256"
				}
			],
			"name": "getApproved",
			"outputs": [
				{
					"internalType": "address",
					"name": "",
					"type": "address"
				}
			],
			"stateMutability": "view",
			"type": "function"
		},
		{
			"inputs": [
				{
					"internalType": "uint256",
					"name": "tokenId",
					"type": "uint256"
				}
			],
			"name": "getGrowthInfo",
			"outputs": [
				{
					"internalType": "enum TokenBase.GrowthStage",
					"name": "currentStage",
					"type": "uint8"
				},
				{
					"internalType": "uint256",
					"name": "timeRemaining",
					"type": "uint256"
				}
			],
			"stateMutability": "view",
			"type": "function"
		},
		{
			"inputs": [
				{
					"internalType": "address",
					"name": "initialOwner",
					"type": "address"
				},
				{
					"internalType": "string",
					"name": "name",
					"type": "string"
				},
				{
					"internalType": "string",
					"name": "symbol",
					"type": "string"
				}
			],
			"name": "initialize",
			"outputs": [],
			"stateMutability": "nonpayable",
			"type": "function"
		},
		{
			"inputs": [
				{
					"internalType": "address",
					"name": "owner",
					"type": "address"
				},
				{
					"internalType": "address",
					"name": "operator",
					"type": "address"
				}
			],
			"name": "isApprovedForAll",
			"outputs": [
				{
					"internalType": "bool",
					"name": "",
					"type": "bool"
				}
			],
			"stateMutability": "view",
			"type": "function"
		},
		{
			"inputs": [],
			"name": "metaDescription",
			"outputs": [
				{
					"internalType": "string",
					"name": "",
					"type": "string"
				}
			],
			"stateMutability": "view",
			"type": "function"
		},
		{
			"inputs": [],
			"name": "name",
			"outputs": [
				{
					"internalType": "string",
					"name": "",
					"type": "string"
				}
			],
			"stateMutability": "view",
			"type": "function"
		},
		{
			"inputs": [],
			"name": "owner",
			"outputs": [
				{
					"internalType": "address",
					"name": "",
					"type": "address"
				}
			],
			"stateMutability": "view",
			"type": "function"
		},
		{
			"inputs": [
				{
					"internalType": "uint256",
					"name": "tokenId",
					"type": "uint256"
				}
			],
			"name": "ownerOf",
			"outputs": [
				{
					"internalType": "address",
					"name": "",
					"type": "address"
				}
			],
			"stateMutability": "view",
			"type": "function"
		},
		{
			"inputs": [],
			"name": "proxiableUUID",
			"outputs": [
				{
					"internalType": "bytes32",
					"name": "",
					"type": "bytes32"
				}
			],
			"stateMutability": "view",
			"type": "function"
		},
		{
			"inputs": [],
			"name": "renounceOwnership",
			"outputs": [],
			"stateMutability": "nonpayable",
			"type": "function"
		},
		{
			"inputs": [
				{
					"internalType": "address",
					"name": "from",
					"type": "address"
				},
				{
					"internalType": "address",
					"name": "to",
					"type": "address"
				},
				{
					"internalType": "uint256",
					"name": "tokenId",
					"type": "uint256"
				}
			],
			"name": "safeTransferFrom",
			"outputs": [],
			"stateMutability": "nonpayable",
			"type": "function"
		},
		{
			"inputs": [
				{
					"internalType": "address",
					"name": "from",
					"type": "address"
				},
				{
					"internalType": "address",
					"name": "to",
					"type": "address"
				},
				{
					"internalType": "uint256",
					"name": "tokenId",
					"type": "uint256"
				},
				{
					"internalType": "bytes",
					"name": "data",
					"type": "bytes"
				}
			],
			"name": "safeTransferFrom",
			"outputs": [],
			"stateMutability": "nonpayable",
			"type": "function"
		},
		{
			"inputs": [
				{
					"internalType": "address",
					"name": "operator",
					"type": "address"
				},
				{
					"internalType": "bool",
					"name": "approved",
					"type": "bool"
				}
			],
			"name": "setApprovalForAll",
			"outputs": [],
			"stateMutability": "nonpayable",
			"type": "function"
		},
		{
			"inputs": [
				{
					"internalType": "string",
					"name": "_dataURI",
					"type": "string"
				}
			],
			"name": "setDataURI",
			"outputs": [],
			"stateMutability": "nonpayable",
			"type": "function"
		},
		{
			"inputs": [
				{
					"internalType": "string",
					"name": "_imgEx",
					"type": "string"
				}
			],
			"name": "setImageExtension",
			"outputs": [],
			"stateMutability": "nonpayable",
			"type": "function"
		},
		{
			"inputs": [
				{
					"internalType": "string",
					"name": "_metaDec",
					"type": "string"
				}
			],
			"name": "setMetaDescription",
			"outputs": [],
			"stateMutability": "nonpayable",
			"type": "function"
		},
		{
			"inputs": [
				{
					"internalType": "string",
					"name": "_tokenURI",
					"type": "string"
				}
			],
			"name": "setTokenURI",
			"outputs": [],
			"stateMutability": "nonpayable",
			"type": "function"
		},
		{
			"inputs": [
				{
					"internalType": "bytes4",
					"name": "interfaceId",
					"type": "bytes4"
				}
			],
			"name": "supportsInterface",
			"outputs": [
				{
					"internalType": "bool",
					"name": "",
					"type": "bool"
				}
			],
			"stateMutability": "view",
			"type": "function"
		},
		{
			"inputs": [],
			"name": "symbol",
			"outputs": [
				{
					"internalType": "string",
					"name": "",
					"type": "string"
				}
			],
			"stateMutability": "view",
			"type": "function"
		},
		{
			"inputs": [
				{
					"internalType": "uint256",
					"name": "tokenId",
					"type": "uint256"
				}
			],
			"name": "tokenURI",
			"outputs": [
				{
					"internalType": "string",
					"name": "",
					"type": "string"
				}
			],
			"stateMutability": "view",
			"type": "function"
		},
		{
			"inputs": [
				{
					"internalType": "address",
					"name": "from",
					"type": "address"
				},
				{
					"internalType": "address",
					"name": "to",
					"type": "address"
				},
				{
					"internalType": "uint256",
					"name": "tokenId",
					"type": "uint256"
				}
			],
			"name": "transferFrom",
			"outputs": [],
			"stateMutability": "nonpayable",
			"type": "function"
		},
		{
			"inputs": [
				{
					"internalType": "address",
					"name": "newOwner",
					"type": "address"
				}
			],
			"name": "transferOwnership",
			"outputs": [],
			"stateMutability": "nonpayable",
			"type": "function"
		},
		{
			"inputs": [
				{
					"internalType": "address",
					"name": "newImplementation",
					"type": "address"
				},
				{
					"internalType": "bytes",
					"name": "data",
					"type": "bytes"
				}
			],
			"name": "upgradeToAndCall",
			"outputs": [],
			"stateMutability": "payable",
			"type": "function"
		}
	]
}