{
	"data": {
		"bytecode": {
			"linkReferences": {},
			"object": "60a06040523073ffffffffffffffffffffffffffffffffffffffff1660809073ffffffffffffffffffffffffffffffffffffffff16815250348015610042575f80fd5b5061005161005660201b60201c565b6101b6565b5f61006561015460201b60201c565b9050805f0160089054906101000a900460ff16156100af576040517ff92ee8a900000000000000000000000000000000000000000000000000000000815260040160405180910390fd5b67ffffffffffffffff8016815f015f9054906101000a900467ffffffffffffffff1667ffffffffffffffff16146101515767ffffffffffffffff815f015f6101000a81548167ffffffffffffffff021916908367ffffffffffffffff1602179055507fc7f505b2f371ae2175ee4913f4499e1f2633a7b5936321eed1cdaeb6115181d267ffffffffffffffff604051610148919061019d565b60405180910390a15b50565b5f7ff0c57e16840df040f15088dc2f81fe391c3923bec73e23a9662efc9c229c6a00905090565b5f67ffffffffffffffff82169050919050565b6101978161017b565b82525050565b5f6020820190506101b05f83018461018e565b92915050565b6080516153d36101dc5f395f81816125f50152818161264a015261280401526153d35ff3fe60806040526004361061020d575f3560e01c80639065714711610117578063cfd94a171161009f578063edeb4bbe1161006e578063edeb4bbe14610783578063f119f567146107ad578063f28ca1dd146107d5578063f2fde38b146107ff578063fffad312146108275761020d565b8063cfd94a17146106cd578063d547cfb7146106f5578063e0df5b6f1461071f578063e985e9c5146107475761020d565b8063ad3cb1cc116100e6578063ad3cb1cc146105da578063b564ea8614610604578063b88d4fde14610641578063bd9ba9e814610669578063c87b56dd146106915761020d565b8063906571471461053057806395d89b411461055857806399683c2214610582578063a22cb465146105b25761020d565b806342842e0e1161019a5780636352211e116101695780636352211e1461043b57806370a0823114610477578063715018a6146104b357806386838c60146104c95780638da5cb5b146105065761020d565b806342842e0e146103a357806343463394146103cb5780634f1ef286146103f557806352d1902d146104115761020d565b8063095ea7b3116101e1578063095ea7b3146102db57806318d217c3146103035780631bc80eff1461032b57806323b872dd1461035357806339e3aa7e1461037b5761020d565b8062e000641461021157806301ffc9a71461023957806306fdde0314610275578063081812fc1461029f575b5f80fd5b34801561021c575f80fd5b5061023760048036038101906102329190613cf2565b610851565b005b348015610244575f80fd5b5061025f600480360381019061025a9190613d72565b610a90565b60405161026c9190613db7565b60405180910390f35b348015610280575f80fd5b50610289610aa1565b6040516102969190613e40565b60405180910390f35b3480156102aa575f80fd5b506102c560048036038101906102c09190613cf2565b610b3e565b6040516102d29190613e9f565b60405180910390f35b3480156102e6575f80fd5b5061030160048036038101906102fc9190613ee2565b610b59565b005b34801561030e575f80fd5b506103296004803603810190610324919061404c565b610b6f565b005b348015610336575f80fd5b50610351600480360381019061034c9190613cf2565b610b8a565b005b34801561035e575f80fd5b5061037960048036038101906103749190614093565b610da1565b005b348015610386575f80fd5b506103a1600480360381019061039c919061404c565b610ea0565b005b3480156103ae575f80fd5b506103c960048036038101906103c49190614093565b610ebb565b005b3480156103d6575f80fd5b506103df610eda565b6040516103ec91906140f2565b60405180910390f35b61040f600480360381019061040a91906141a9565b610edf565b005b34801561041c575f80fd5b50610425610efe565b604051610432919061421b565b60405180910390f35b348015610446575f80fd5b50610461600480360381019061045c9190613cf2565b610f2f565b60405161046e9190613e9f565b60405180910390f35b348015610482575f80fd5b5061049d60048036038101906104989190614234565b610f40565b6040516104aa91906140f2565b60405180910390f35b3480156104be575f80fd5b506104c7611004565b005b3480156104d4575f80fd5b506104ef60048036038101906104ea9190613cf2565b611017565b6040516104fd92919061425f565b60405180910390f35b348015610511575f80fd5b5061051a61104b565b6040516105279190613e9f565b60405180910390f35b34801561053b575f80fd5b5061055660048036038101906105519190614286565b611080565b005b348015610563575f80fd5b5061056c611224565b6040516105799190613e40565b60405180910390f35b61059c6004803603810190610597919061430e565b6112c2565b6040516105a991906140f2565b60405180910390f35b3480156105bd575f80fd5b506105d860048036038101906105d391906143a4565b61148f565b005b3480156105e5575f80fd5b506105ee6114a5565b6040516105fb9190613e40565b60405180910390f35b34801561060f575f80fd5b5061062a60048036038101906106259190613cf2565b6114de565b604051610638929190614455565b60405180910390f35b34801561064c575f80fd5b506106676004803603810190610662919061447c565b611665565b005b348015610674575f80fd5b5061068f600480360381019061068a919061404c565b611682565b005b34801561069c575f80fd5b506106b760048036038101906106b29190613cf2565b61169d565b6040516106c49190613e40565b60405180910390f35b3480156106d8575f80fd5b506106f360048036038101906106ee91906144fc565b611b12565b005b348015610700575f80fd5b50610709611b81565b6040516107169190613e40565b60405180910390f35b34801561072a575f80fd5b506107456004803603810190610740919061404c565b611c0d565b005b348015610752575f80fd5b5061076d60048036038101906107689190614556565b611c28565b60405161077a9190613db7565b60405180910390f35b34801561078e575f80fd5b50610797611cc4565b6040516107a49190613e40565b60405180910390f35b3480156107b8575f80fd5b506107d360048036038101906107ce9190613cf2565b611d50565b005b3480156107e0575f80fd5b506107e9612037565b6040516107f69190613e40565b60405180910390f35b34801561080a575f80fd5b5061082560048036038101906108209190614234565b6120c3565b005b348015610832575f80fd5b5061083b612147565b60405161084891906140f2565b60405180910390f35b600380811115610864576108636143e2565b5b5f808381526020019081526020015f205f9054906101000a900460ff166003811115610893576108926143e2565b5b036108d3576040517f08c379a00000000000000000000000000000000000000000000000000000000081526004016108ca906145de565b60405180910390fd5b3373ffffffffffffffffffffffffffffffffffffffff166108f382610f2f565b73ffffffffffffffffffffffffffffffffffffffff1614610949576040517f08c379a000000000000000000000000000000000000000000000000000000000815260040161094090614646565b60405180910390fd5b5f805f8381526020019081526020015f205f9054906101000a900460ff1690505f60025f8481526020019081526020015f2090505f4290505f6003811115610994576109936143e2565b5b8360038111156109a7576109a66143e2565b5b036109d8576109cc8160025f8781526020019081526020015f205f0154612a3061214d565b825f0181905550610a8a565b600160038111156109ec576109eb6143e2565b5b8360038111156109ff576109fe6143e2565b5b03610a3257610a258160025f8781526020019081526020015f2060010154612a3061214d565b8260010181905550610a89565b60026003811115610a4657610a456143e2565b5b836003811115610a5957610a586143e2565b5b03610a8857610a7f8160025f8781526020019081526020015f2060020154612a3061214d565b82600201819055505b5b5b50505050565b5f610a9a8261217e565b9050919050565b60605f610aac6121de565b9050805f018054610abc90614691565b80601f0160208091040260200160405190810160405280929190818152602001828054610ae890614691565b8015610b335780601f10610b0a57610100808354040283529160200191610b33565b820191905f5260205f20905b815481529060010190602001808311610b1657829003601f168201915b505050505091505090565b5f610b4882612205565b50610b528261228b565b9050919050565b610b6b8282610b666122d2565b6122d9565b5050565b610b776122eb565b8060079081610b86919061485e565b5050565b610b926122eb565b5f805f8381526020019081526020015f205f9054906101000a900460ff1690505f6003811115610bc557610bc46143e2565b5b816003811115610bd857610bd76143e2565b5b03610c615760015f808481526020019081526020015f205f6101000a81548160ff02191690836003811115610c1057610c0f6143e2565b5b0217905550610c1d612372565b60015f8481526020019081526020015f20600101819055506202a30042610c44919061495a565b60025f8481526020019081526020015f2060010181905550610d9d565b60016003811115610c7557610c746143e2565b5b816003811115610c8857610c876143e2565b5b03610cf15760025f808481526020019081526020015f205f6101000a81548160ff02191690836003811115610cc057610cbf6143e2565b5b02179055506203f48042610cd4919061495a565b60025f8481526020019081526020015f2060020181905550610d9c565b60026003811115610d0557610d046143e2565b5b816003811115610d1857610d176143e2565b5b03610d5a5760035f808481526020019081526020015f205f6101000a81548160ff02191690836003811115610d5057610d4f6143e2565b5b0217905550610d9b565b5f610d9a576040517f08c379a0000000000000000000000000000000000000000000000000000000008152600401610d91906149d7565b60405180910390fd5b5b5b5b5050565b5f73ffffffffffffffffffffffffffffffffffffffff168273ffffffffffffffffffffffffffffffffffffffff1603610e11575f6040517f64a0ae92000000000000000000000000000000000000000000000000000000008152600401610e089190613e9f565b60405180910390fd5b5f610e248383610e1f6122d2565b6123d6565b90508373ffffffffffffffffffffffffffffffffffffffff168173ffffffffffffffffffffffffffffffffffffffff1614610e9a578382826040517f64283d7b000000000000000000000000000000000000000000000000000000008152600401610e91939291906149f5565b60405180910390fd5b50505050565b610ea86122eb565b8060099081610eb7919061485e565b5050565b610ed583838360405180602001604052805f815250611665565b505050565b600a81565b610ee76125f3565b610ef0826126d9565b610efa82826126e4565b5050565b5f610f07612802565b7f360894a13ba1a3210667c828492db98dca3e2076cc3735a920a3ca505d382bbc5f1b905090565b5f610f3982612205565b9050919050565b5f80610f4a6121de565b90505f73ffffffffffffffffffffffffffffffffffffffff168373ffffffffffffffffffffffffffffffffffffffff1603610fbc575f6040517f89c62b64000000000000000000000000000000000000000000000000000000008152600401610fb39190613e9f565b60405180910390fd5b806003015f8473ffffffffffffffffffffffffffffffffffffffff1673ffffffffffffffffffffffffffffffffffffffff1681526020019081526020015f2054915050919050565b61100c6122eb565b6110155f612889565b565b5f80600a5f8481526020019081526020015f205f01549150600a5f8481526020019081526020015f20600101549050915091565b5f8061105561295a565b9050805f015f9054906101000a900473ffffffffffffffffffffffffffffffffffffffff1691505090565b5f611089612981565b90505f815f0160089054906101000a900460ff161590505f825f015f9054906101000a900467ffffffffffffffff1690505f808267ffffffffffffffff161480156110d15750825b90505f60018367ffffffffffffffff1614801561110457505f3073ffffffffffffffffffffffffffffffffffffffff163b145b905081158015611112575080155b15611149576040517ff92ee8a900000000000000000000000000000000000000000000000000000000815260040160405180910390fd5b6001855f015f6101000a81548167ffffffffffffffff021916908367ffffffffffffffff1602179055508315611196576001855f0160086101000a81548160ff0219169083151502179055505b6111a087876129a8565b6111a86129be565b6111b1886129c8565b6111b96129dc565b5f600581905550831561121a575f855f0160086101000a81548160ff0219169083151502179055507fc7f505b2f371ae2175ee4913f4499e1f2633a7b5936321eed1cdaeb6115181d260016040516112119190614a76565b60405180910390a15b5050505050505050565b60605f61122f6121de565b905080600101805461124090614691565b80601f016020809104026020016040519081016040528092919081815260200182805461126c90614691565b80156112b75780601f1061128e576101008083540402835291602001916112b7565b820191905f5260205f20905b81548152906001019060200180831161129a57829003601f168201915b505050505091505090565b5f3373ffffffffffffffffffffffffffffffffffffffff166112e384610f2f565b73ffffffffffffffffffffffffffffffffffffffff1614801561133957503373ffffffffffffffffffffffffffffffffffffffff1661132183610f2f565b73ffffffffffffffffffffffffffffffffffffffff16145b611378576040517f08c379a000000000000000000000000000000000000000000000000000000000815260040161136f90614646565b60405180910390fd5b61138283836129e6565b156113c2576040517f08c379a00000000000000000000000000000000000000000000000000000000081526004016113b990614ad9565b60405180910390fd5b6113cb83612a71565b80156113dc57506113db82612a71565b5b61141b576040517f08c379a000000000000000000000000000000000000000000000000000000000815260040161141290614b41565b60405180910390fd5b6114258383612a8f565b611464576040517f08c379a000000000000000000000000000000000000000000000000000000000815260040161145b90614ba9565b60405180910390fd5b61146d83612ace565b61147682612ace565b5f611482858585612b20565b9050809150509392505050565b6114a161149a6122d2565b8383612b95565b5050565b6040518060400160405280600581526020017f352e302e3000000000000000000000000000000000000000000000000000000081525081565b5f805f808481526020019081526020015f205f9054906101000a900460ff1691505f4290505f6003811115611516576115156143e2565b5b836003811115611529576115286143e2565b5b14801561154857508060025f8681526020019081526020015f205f0154115b15611573578060025f8681526020019081526020015f205f015461156c9190614bc7565b915061165f565b60016003811115611587576115866143e2565b5b83600381111561159a576115996143e2565b5b1480156115ba57508060025f8681526020019081526020015f2060010154115b156115e6578060025f8681526020019081526020015f20600101546115df9190614bc7565b915061165e565b600260038111156115fa576115f96143e2565b5b83600381111561160d5761160c6143e2565b5b14801561162d57508060025f8681526020019081526020015f2060020154115b15611659578060025f8681526020019081526020015f20600201546116529190614bc7565b915061165d565b5f91505b5b5b50915091565b611670848484610da1565b61167c84848484612d0c565b50505050565b61168a6122eb565b8060089081611699919061485e565b5050565b6060805f600680546116ae90614691565b905011156116e95760066116c184612ebe565b6040516020016116d2929190614cb4565b604051602081830303815290604052915050611b0d565b5f60038111156116fc576116fb6143e2565b5b5f808581526020019081526020015f205f9054906101000a900460ff16600381111561172b5761172a6143e2565b5b036117695760015f8481526020019081526020015f205f016040516020016117539190614d21565b6040516020818303038152906040529050611a22565b5f6001805f8681526020019081526020015f2060040154146117c0576040518060400160405280600181526020017f62000000000000000000000000000000000000000000000000000000000000008152506117f7565b6040518060400160405280600181526020017f67000000000000000000000000000000000000000000000000000000000000008152505b90505f6001805f8781526020019081526020015f206001015414611850576040518060400160405280600181526020017f6600000000000000000000000000000000000000000000000000000000000000815250611887565b6040518060400160405280600181526020017f6d000000000000000000000000000000000000000000000000000000000000008152505b905060605f805f8881526020019081526020015f205f9054906101000a900460ff169050600160038111156118bf576118be6143e2565b5b8160038111156118d2576118d16143e2565b5b03611914576040518060400160405280600581526020017f686174636800000000000000000000000000000000000000000000000000000081525091506119e3565b60026003811115611928576119276143e2565b5b81600381111561193b5761193a6143e2565b5b0361197d576040518060400160405280600981526020017f68617463686c696e67000000000000000000000000000000000000000000000081525091506119e2565b6003808111156119905761198f6143e2565b5b8160038111156119a3576119a26143e2565b5b036119e1576040518060400160405280600581526020017f6164756c7400000000000000000000000000000000000000000000000000000081525091505b5b5b60015f8881526020019081526020015f205f01848484604051602001611a0c9493929190614d8c565b6040516020818303038152906040529450505050505b5f611a2c84612ebe565b6007836009604051602001611a42929190614dea565b604051602081830303815290604052604051602001611a6393929190614eed565b60405160208183030381529060405290505f60015f8681526020019081526020015f205f01604051602001611a989190614fa3565b60405160208183030381529060405290505f6040518060400160405280600481526020017f227d5d7d000000000000000000000000000000000000000000000000000000008152509050828282604051602001611af79392919061500e565b6040516020818303038152906040529450505050505b919050565b600a600b5410611b57576040517f08c379a0000000000000000000000000000000000000000000000000000000008152600401611b4e90615093565b60405180910390fd5b600b5f815480929190611b69906150b1565b9190505550611b7c815f80600186612f88565b505050565b60068054611b8e90614691565b80601f0160208091040260200160405190810160405280929190818152602001828054611bba90614691565b8015611c055780601f10611bdc57610100808354040283529160200191611c05565b820191905f5260205f20905b815481529060010190602001808311611be857829003601f168201915b505050505081565b611c156122eb565b8060069081611c24919061485e565b5050565b5f80611c326121de565b9050806005015f8573ffffffffffffffffffffffffffffffffffffffff1673ffffffffffffffffffffffffffffffffffffffff1681526020019081526020015f205f8473ffffffffffffffffffffffffffffffffffffffff1673ffffffffffffffffffffffffffffffffffffffff1681526020019081526020015f205f9054906101000a900460ff1691505092915050565b60088054611cd190614691565b80601f0160208091040260200160405190810160405280929190818152602001828054611cfd90614691565b8015611d485780601f10611d1f57610100808354040283529160200191611d48565b820191905f5260205f20905b815481529060010190602001808311611d2b57829003601f168201915b505050505081565b3373ffffffffffffffffffffffffffffffffffffffff16611d7082610f2f565b73ffffffffffffffffffffffffffffffffffffffff1614611dc6576040517f08c379a0000000000000000000000000000000000000000000000000000000008152600401611dbd90614646565b60405180910390fd5b5f805f8381526020019081526020015f205f9054906101000a900460ff1690505f6003811115611df957611df86143e2565b5b816003811115611e0c57611e0b6143e2565b5b148015611e2c575060025f8381526020019081526020015f205f01544210155b15611eb55760015f808481526020019081526020015f205f6101000a81548160ff02191690836003811115611e6457611e636143e2565b5b0217905550611e71612372565b60015f8481526020019081526020015f20600101819055506202a30042611e98919061495a565b60025f8481526020019081526020015f2060010181905550612033565b60016003811115611ec957611ec86143e2565b5b816003811115611edc57611edb6143e2565b5b148015611efd575060025f8381526020019081526020015f20600101544210155b15611f665760025f808481526020019081526020015f205f6101000a81548160ff02191690836003811115611f3557611f346143e2565b5b02179055506203f48042611f49919061495a565b60025f8481526020019081526020015f2060020181905550612032565b60026003811115611f7a57611f796143e2565b5b816003811115611f8d57611f8c6143e2565b5b148015611fae575060025f8381526020019081526020015f20600201544210155b15611ff05760035f808481526020019081526020015f205f6101000a81548160ff02191690836003811115611fe657611fe56143e2565b5b0217905550612031565b5f612030576040517f08c379a0000000000000000000000000000000000000000000000000000000008152600401612027906149d7565b60405180910390fd5b5b5b5b5050565b6007805461204490614691565b80601f016020809104026020016040519081016040528092919081815260200182805461207090614691565b80156120bb5780601f10612092576101008083540402835291602001916120bb565b820191905f5260205f20905b81548152906001019060200180831161209e57829003601f168201915b505050505081565b6120cb6122eb565b5f73ffffffffffffffffffffffffffffffffffffffff168173ffffffffffffffffffffffffffffffffffffffff160361213b575f6040517f1e4fbdf70000000000000000000000000000000000000000000000000000000081526004016121329190613e9f565b60405180910390fd5b61214481612889565b50565b600b5481565b5f81848461215b9190614bc7565b1061217357818361216c9190614bc7565b9050612177565b5f90505b9392505050565b5f634906490660e01b7bffffffffffffffffffffffffffffffffffffffffffffffffffffffff1916827bffffffffffffffffffffffffffffffffffffffffffffffffffffffff191614806121d757506121d682613110565b5b9050919050565b5f7f80bb2b638cc20bc4d0a60d66940f3ab4a00c1d7b313497ca82fb0b4ab0079300905090565b5f80612210836131f1565b90505f73ffffffffffffffffffffffffffffffffffffffff168173ffffffffffffffffffffffffffffffffffffffff160361228257826040517f7e27328900000000000000000000000000000000000000000000000000000000815260040161227991906140f2565b60405180910390fd5b80915050919050565b5f806122956121de565b9050806004015f8481526020019081526020015f205f9054906101000a900473ffffffffffffffffffffffffffffffffffffffff16915050919050565b5f33905090565b6122e68383836001613238565b505050565b6122f36122d2565b73ffffffffffffffffffffffffffffffffffffffff1661231161104b565b73ffffffffffffffffffffffffffffffffffffffff1614612370576123346122d2565b6040517f118cdaa70000000000000000000000000000000000000000000000000000000081526004016123679190613e9f565b60405180910390fd5b565b5f60055f815480929190612385906150b1565b91905055506001600242336005546040516020016123a59392919061515d565b604051602081830303815290604052805190602001205f1c6123c791906151c6565b6123d1919061495a565b905090565b5f806123e06121de565b90505f6123ec856131f1565b90505f73ffffffffffffffffffffffffffffffffffffffff168473ffffffffffffffffffffffffffffffffffffffff161461242d5761242c818587613405565b5b5f73ffffffffffffffffffffffffffffffffffffffff168173ffffffffffffffffffffffffffffffffffffffff16146124ba5761246c5f865f80613238565b6001826003015f8373ffffffffffffffffffffffffffffffffffffffff1673ffffffffffffffffffffffffffffffffffffffff1681526020019081526020015f205f82825403925050819055505b5f73ffffffffffffffffffffffffffffffffffffffff168673ffffffffffffffffffffffffffffffffffffffff161461253b576001826003015f8873ffffffffffffffffffffffffffffffffffffffff1673ffffffffffffffffffffffffffffffffffffffff1681526020019081526020015f205f82825401925050819055505b85826002015f8781526020019081526020015f205f6101000a81548173ffffffffffffffffffffffffffffffffffffffff021916908373ffffffffffffffffffffffffffffffffffffffff160217905550848673ffffffffffffffffffffffffffffffffffffffff168273ffffffffffffffffffffffffffffffffffffffff167fddf252ad1be2c89b69c2b068fc378daa952ba7f163c4a11628f55a4df523b3ef60405160405180910390a480925050509392505050565b7f000000000000000000000000000000000000000000000000000000000000000073ffffffffffffffffffffffffffffffffffffffff163073ffffffffffffffffffffffffffffffffffffffff1614806126a057507f000000000000000000000000000000000000000000000000000000000000000073ffffffffffffffffffffffffffffffffffffffff166126876134c8565b73ffffffffffffffffffffffffffffffffffffffff1614155b156126d7576040517fe07c8dba00000000000000000000000000000000000000000000000000000000815260040160405180910390fd5b565b6126e16122eb565b50565b8173ffffffffffffffffffffffffffffffffffffffff166352d1902d6040518163ffffffff1660e01b8152600401602060405180830381865afa92505050801561274c57506040513d601f19601f820116820180604052508101906127499190615220565b60015b61278d57816040517f4c9c8ce30000000000000000000000000000000000000000000000000000000081526004016127849190613e9f565b60405180910390fd5b7f360894a13ba1a3210667c828492db98dca3e2076cc3735a920a3ca505d382bbc5f1b81146127f357806040517faa1d49a40000000000000000000000000000000000000000000000000000000081526004016127ea919061421b565b60405180910390fd5b6127fd838361351b565b505050565b7f000000000000000000000000000000000000000000000000000000000000000073ffffffffffffffffffffffffffffffffffffffff163073ffffffffffffffffffffffffffffffffffffffff1614612887576040517fe07c8dba00000000000000000000000000000000000000000000000000000000815260040160405180910390fd5b565b5f61289261295a565b90505f815f015f9054906101000a900473ffffffffffffffffffffffffffffffffffffffff16905082825f015f6101000a81548173ffffffffffffffffffffffffffffffffffffffff021916908373ffffffffffffffffffffffffffffffffffffffff1602179055508273ffffffffffffffffffffffffffffffffffffffff168173ffffffffffffffffffffffffffffffffffffffff167f8be0079c531659141344cd1fd0a4f28419497f9722a3daafe3b4186f6b6457e060405160405180910390a3505050565b5f7f9016d09d72d40fdae2fd8ceac6b6234c7706214fd39c1cd1e609a0528c199300905090565b5f7ff0c57e16840df040f15088dc2f81fe391c3923bec73e23a9662efc9c229c6a00905090565b6129b061358d565b6129ba82826135cd565b5050565b6129c661358d565b565b6129d061358d565b6129d981613608565b50565b6129e461358d565b565b5f8060015f8581526020019081526020015f2090505f60015f8581526020019081526020015f209050600182600401541480612a26575060018160040154145b15612a35575f92505050612a6b565b8060020154826002015414158015612a5557508060030154826003015414155b15612a64575f92505050612a6b565b6001925050505b92915050565b5f42600a5f8481526020019081526020015f205f0154109050919050565b5f8060015f8581526020019081526020015f2090505f60015f8581526020019081526020015f2090508060010154826001015414159250505092915050565b600a5f8281526020019081526020015f206001015f815480929190612af2906150b1565b91905055506203f48042612b06919061495a565b600a5f8381526020019081526020015f205f018190555050565b5f8060015f8581526020019081526020015f2090505f60015f8581526020019081526020015f2090505f8160040154836004015411612b63578160040154612b69565b82600401545b90505f612b85888888600186612b7f919061495a565b33612f88565b9050809450505050509392505050565b5f612b9e6121de565b90505f73ffffffffffffffffffffffffffffffffffffffff168373ffffffffffffffffffffffffffffffffffffffff1603612c1057826040517f5b08ba18000000000000000000000000000000000000000000000000000000008152600401612c079190613e9f565b60405180910390fd5b81816005015f8673ffffffffffffffffffffffffffffffffffffffff1673ffffffffffffffffffffffffffffffffffffffff1681526020019081526020015f205f8573ffffffffffffffffffffffffffffffffffffffff1673ffffffffffffffffffffffffffffffffffffffff1681526020019081526020015f205f6101000a81548160ff0219169083151502179055508273ffffffffffffffffffffffffffffffffffffffff168473ffffffffffffffffffffffffffffffffffffffff167f17307eab39ab6107e8899845ad3d59bd9653f200f220920489ca2b5937696c3184604051612cfe9190613db7565b60405180910390a350505050565b5f8373ffffffffffffffffffffffffffffffffffffffff163b1115612eb8578273ffffffffffffffffffffffffffffffffffffffff1663150b7a02612d4f6122d2565b8685856040518563ffffffff1660e01b8152600401612d71949392919061529d565b6020604051808303815f875af1925050508015612dac57506040513d601f19601f82011682018060405250810190612da991906152fb565b60015b612e2d573d805f8114612dda576040519150601f19603f3d011682016040523d82523d5f602084013e612ddf565b606091505b505f815103612e2557836040517f64a0ae92000000000000000000000000000000000000000000000000000000008152600401612e1c9190613e9f565b60405180910390fd5b805181602001fd5b63150b7a0260e01b7bffffffffffffffffffffffffffffffffffffffffffffffffffffffff1916817bffffffffffffffffffffffffffffffffffffffffffffffffffffffff191614612eb657836040517f64a0ae92000000000000000000000000000000000000000000000000000000008152600401612ead9190613e9f565b60405180910390fd5b505b50505050565b60605f6001612ecc8461368c565b0190505f8167ffffffffffffffff811115612eea57612ee9613f28565b5b6040519080825280601f01601f191660200182016040528015612f1c5781602001600182028036833780820191505090505b5090505f82602001820190505b600115612f7d578080600190039150507f3031323334353637383961626364656600000000000000000000000000000000600a86061a8153600a8581612f7257612f71615199565b5b0494505f8503612f29575b819350505050919050565b5f806040518060c001604052808881526020015f815260200187815260200186815260200185815260200142815250905060045f815480929190612fcb906150b1565b91905055508060015f60045481526020019081526020015f205f820151815f019081612ff7919061485e565b506020820151816001015560408201518160020155606082015181600301556080820151816004015560a082015181600501559050506202a3008160a00151613040919061495a565b60025f60045481526020019081526020015f205f01819055505f805f60045481526020019081526020015f205f6101000a81548160ff0219169083600381111561308d5761308c6143e2565b5b021790555061309e836004546137dd565b60035f8473ffffffffffffffffffffffffffffffffffffffff1673ffffffffffffffffffffffffffffffffffffffff1681526020019081526020015f20600454908060018154018082558091505060019003905f5260205f20015f909190919091505560045491505095945050505050565b5f7f80ac58cd000000000000000000000000000000000000000000000000000000007bffffffffffffffffffffffffffffffffffffffffffffffffffffffff1916827bffffffffffffffffffffffffffffffffffffffffffffffffffffffff191614806131da57507f5b5e139f000000000000000000000000000000000000000000000000000000007bffffffffffffffffffffffffffffffffffffffffffffffffffffffff1916827bffffffffffffffffffffffffffffffffffffffffffffffffffffffff1916145b806131ea57506131e9826137fa565b5b9050919050565b5f806131fb6121de565b9050806002015f8481526020019081526020015f205f9054906101000a900473ffffffffffffffffffffffffffffffffffffffff16915050919050565b5f6132416121de565b9050818061327b57505f73ffffffffffffffffffffffffffffffffffffffff168373ffffffffffffffffffffffffffffffffffffffff1614155b156133ad575f61328a85612205565b90505f73ffffffffffffffffffffffffffffffffffffffff168473ffffffffffffffffffffffffffffffffffffffff16141580156132f457508373ffffffffffffffffffffffffffffffffffffffff168173ffffffffffffffffffffffffffffffffffffffff1614155b801561330757506133058185611c28565b155b1561334957836040517fa9fbf51f0000000000000000000000000000000000000000000000000000000081526004016133409190613e9f565b60405180910390fd5b82156133ab57848673ffffffffffffffffffffffffffffffffffffffff168273ffffffffffffffffffffffffffffffffffffffff167f8c5be1e5ebec7d5bd14f71427d1e84f3dd0314c0f7b2291e5b200ac8c7c3b92560405160405180910390a45b505b84816004015f8681526020019081526020015f205f6101000a81548173ffffffffffffffffffffffffffffffffffffffff021916908373ffffffffffffffffffffffffffffffffffffffff1602179055505050505050565b613410838383613863565b6134c3575f73ffffffffffffffffffffffffffffffffffffffff168373ffffffffffffffffffffffffffffffffffffffff160361348457806040517f7e27328900000000000000000000000000000000000000000000000000000000815260040161347b91906140f2565b60405180910390fd5b81816040517f177e802f0000000000000000000000000000000000000000000000000000000081526004016134ba929190615326565b60405180910390fd5b505050565b5f6134f47f360894a13ba1a3210667c828492db98dca3e2076cc3735a920a3ca505d382bbc5f1b613923565b5f015f9054906101000a900473ffffffffffffffffffffffffffffffffffffffff16905090565b6135248261392c565b8173ffffffffffffffffffffffffffffffffffffffff167fbc7cd75a20ee27fd9adebab32041f755214dbc6bffa90cc0225b39da2e5c2d3b60405160405180910390a25f815111156135805761357a82826139f5565b50613589565b613588613a75565b5b5050565b613595613ab1565b6135cb576040517fd7e6bcf800000000000000000000000000000000000000000000000000000000815260040160405180910390fd5b565b6135d561358d565b5f6135de6121de565b905082815f0190816135f0919061485e565b5081816001019081613602919061485e565b50505050565b61361061358d565b5f73ffffffffffffffffffffffffffffffffffffffff168173ffffffffffffffffffffffffffffffffffffffff1603613680575f6040517f1e4fbdf70000000000000000000000000000000000000000000000000000000081526004016136779190613e9f565b60405180910390fd5b61368981612889565b50565b5f805f90507a184f03e93ff9f4daa797ed6e38ed64bf6a1f01000000000000000083106136e8577a184f03e93ff9f4daa797ed6e38ed64bf6a1f01000000000000000083816136de576136dd615199565b5b0492506040810190505b6d04ee2d6d415b85acef81000000008310613725576d04ee2d6d415b85acef8100000000838161371b5761371a615199565b5b0492506020810190505b662386f26fc10000831061375457662386f26fc10000838161374a57613749615199565b5b0492506010810190505b6305f5e100831061377d576305f5e100838161377357613772615199565b5b0492506008810190505b61271083106137a257612710838161379857613797615199565b5b0492506004810190505b606483106137c557606483816137bb576137ba615199565b5b0492506002810190505b600a83106137d4576001810190505b80915050919050565b6137f6828260405180602001604052805f815250613acf565b5050565b5f7f01ffc9a7000000000000000000000000000000000000000000000000000000007bffffffffffffffffffffffffffffffffffffffffffffffffffffffff1916827bffffffffffffffffffffffffffffffffffffffffffffffffffffffff1916149050919050565b5f8073ffffffffffffffffffffffffffffffffffffffff168373ffffffffffffffffffffffffffffffffffffffff161415801561391a57508273ffffffffffffffffffffffffffffffffffffffff168473ffffffffffffffffffffffffffffffffffffffff1614806138db57506138da8484611c28565b5b8061391957508273ffffffffffffffffffffffffffffffffffffffff166139018361228b565b73ffffffffffffffffffffffffffffffffffffffff16145b5b90509392505050565b5f819050919050565b5f8173ffffffffffffffffffffffffffffffffffffffff163b0361398757806040517f4c9c8ce300000000000000000000000000000000000000000000000000000000815260040161397e9190613e9f565b60405180910390fd5b806139b37f360894a13ba1a3210667c828492db98dca3e2076cc3735a920a3ca505d382bbc5f1b613923565b5f015f6101000a81548173ffffffffffffffffffffffffffffffffffffffff021916908373ffffffffffffffffffffffffffffffffffffffff16021790555050565b60605f808473ffffffffffffffffffffffffffffffffffffffff1684604051613a1e9190615387565b5f60405180830381855af49150503d805f8114613a56576040519150601f19603f3d011682016040523d82523d5f602084013e613a5b565b606091505b5091509150613a6b858383613aea565b9250505092915050565b5f341115613aaf576040517fb398979f00000000000000000000000000000000000000000000000000000000815260040160405180910390fd5b565b5f613aba612981565b5f0160089054906101000a900460ff16905090565b613ad98383613b77565b613ae55f848484612d0c565b505050565b606082613aff57613afa82613c6a565b613b6f565b5f8251148015613b2557505f8473ffffffffffffffffffffffffffffffffffffffff163b145b15613b6757836040517f9996b315000000000000000000000000000000000000000000000000000000008152600401613b5e9190613e9f565b60405180910390fd5b819050613b70565b5b9392505050565b5f73ffffffffffffffffffffffffffffffffffffffff168273ffffffffffffffffffffffffffffffffffffffff1603613be7575f6040517f64a0ae92000000000000000000000000000000000000000000000000000000008152600401613bde9190613e9f565b60405180910390fd5b5f613bf383835f6123d6565b90505f73ffffffffffffffffffffffffffffffffffffffff168173ffffffffffffffffffffffffffffffffffffffff1614613c65575f6040517f73c6ac6e000000000000000000000000000000000000000000000000000000008152600401613c5c9190613e9f565b60405180910390fd5b505050565b5f81511115613c7c5780518082602001fd5b6040517f1425ea4200000000000000000000000000000000000000000000000000000000815260040160405180910390fd5b5f604051905090565b5f80fd5b5f80fd5b5f819050919050565b613cd181613cbf565b8114613cdb575f80fd5b50565b5f81359050613cec81613cc8565b92915050565b5f60208284031215613d0757613d06613cb7565b5b5f613d1484828501613cde565b91505092915050565b5f7fffffffff0000000000000000000000000000000000000000000000000000000082169050919050565b613d5181613d1d565b8114613d5b575f80fd5b50565b5f81359050613d6c81613d48565b92915050565b5f60208284031215613d8757613d86613cb7565b5b5f613d9484828501613d5e565b91505092915050565b5f8115159050919050565b613db181613d9d565b82525050565b5f602082019050613dca5f830184613da8565b92915050565b5f81519050919050565b5f82825260208201905092915050565b8281835e5f83830152505050565b5f601f19601f8301169050919050565b5f613e1282613dd0565b613e1c8185613dda565b9350613e2c818560208601613dea565b613e3581613df8565b840191505092915050565b5f6020820190508181035f830152613e588184613e08565b905092915050565b5f73ffffffffffffffffffffffffffffffffffffffff82169050919050565b5f613e8982613e60565b9050919050565b613e9981613e7f565b82525050565b5f602082019050613eb25f830184613e90565b92915050565b613ec181613e7f565b8114613ecb575f80fd5b50565b5f81359050613edc81613eb8565b92915050565b5f8060408385031215613ef857613ef7613cb7565b5b5f613f0585828601613ece565b9250506020613f1685828601613cde565b9150509250929050565b5f80fd5b5f80fd5b7f4e487b71000000000000000000000000000000000000000000000000000000005f52604160045260245ffd5b613f5e82613df8565b810181811067ffffffffffffffff82111715613f7d57613f7c613f28565b5b80604052505050565b5f613f8f613cae565b9050613f9b8282613f55565b919050565b5f67ffffffffffffffff821115613fba57613fb9613f28565b5b613fc382613df8565b9050602081019050919050565b828183375f83830152505050565b5f613ff0613feb84613fa0565b613f86565b90508281526020810184848401111561400c5761400b613f24565b5b614017848285613fd0565b509392505050565b5f82601f83011261403357614032613f20565b5b8135614043848260208601613fde565b91505092915050565b5f6020828403121561406157614060613cb7565b5b5f82013567ffffffffffffffff81111561407e5761407d613cbb565b5b61408a8482850161401f565b91505092915050565b5f805f606084860312156140aa576140a9613cb7565b5b5f6140b786828701613ece565b93505060206140c886828701613ece565b92505060406140d986828701613cde565b9150509250925092565b6140ec81613cbf565b82525050565b5f6020820190506141055f8301846140e3565b92915050565b5f67ffffffffffffffff82111561412557614124613f28565b5b61412e82613df8565b9050602081019050919050565b5f61414d6141488461410b565b613f86565b90508281526020810184848401111561416957614168613f24565b5b614174848285613fd0565b509392505050565b5f82601f8301126141905761418f613f20565b5b81356141a084826020860161413b565b91505092915050565b5f80604083850312156141bf576141be613cb7565b5b5f6141cc85828601613ece565b925050602083013567ffffffffffffffff8111156141ed576141ec613cbb565b5b6141f98582860161417c565b9150509250929050565b5f819050919050565b61421581614203565b82525050565b5f60208201905061422e5f83018461420c565b92915050565b5f6020828403121561424957614248613cb7565b5b5f61425684828501613ece565b91505092915050565b5f6040820190506142725f8301856140e3565b61427f60208301846140e3565b9392505050565b5f805f6060848603121561429d5761429c613cb7565b5b5f6142aa86828701613ece565b935050602084013567ffffffffffffffff8111156142cb576142ca613cbb565b5b6142d78682870161401f565b925050604084013567ffffffffffffffff8111156142f8576142f7613cbb565b5b6143048682870161401f565b9150509250925092565b5f805f6060848603121561432557614324613cb7565b5b5f84013567ffffffffffffffff81111561434257614341613cbb565b5b61434e8682870161401f565b935050602061435f86828701613cde565b925050604061437086828701613cde565b9150509250925092565b61438381613d9d565b811461438d575f80fd5b50565b5f8135905061439e8161437a565b92915050565b5f80604083850312156143ba576143b9613cb7565b5b5f6143c785828601613ece565b92505060206143d885828601614390565b9150509250929050565b7f4e487b71000000000000000000000000000000000000000000000000000000005f52602160045260245ffd5b600481106144205761441f6143e2565b5b50565b5f8190506144308261440f565b919050565b5f61443f82614423565b9050919050565b61444f81614435565b82525050565b5f6040820190506144685f830185614446565b61447560208301846140e3565b9392505050565b5f805f806080858703121561449457614493613cb7565b5b5f6144a187828801613ece565b94505060206144b287828801613ece565b93505060406144c387828801613cde565b925050606085013567ffffffffffffffff8111156144e4576144e3613cbb565b5b6144f08782880161417c565b91505092959194509250565b5f806040838503121561451257614511613cb7565b5b5f61451f85828601613ece565b925050602083013567ffffffffffffffff8111156145405761453f613cbb565b5b61454c8582860161401f565b9150509250929050565b5f806040838503121561456c5761456b613cb7565b5b5f61457985828601613ece565b925050602061458a85828601613ece565b9150509250929050565b7f546f6b656e20697320616c7265616479206164756c74000000000000000000005f82015250565b5f6145c8601683613dda565b91506145d382614594565b602082019050919050565b5f6020820190508181035f8301526145f5816145bc565b9050919050565b7f4e6f74206f776e657200000000000000000000000000000000000000000000005f82015250565b5f614630600983613dda565b915061463b826145fc565b602082019050919050565b5f6020820190508181035f83015261465d81614624565b9050919050565b7f4e487b71000000000000000000000000000000000000000000000000000000005f52602260045260245ffd5b5f60028204905060018216806146a857607f821691505b6020821081036146bb576146ba614664565b5b50919050565b5f819050815f5260205f209050919050565b5f6020601f8301049050919050565b5f82821b905092915050565b5f6008830261471d7fffffffffffffffffffffffffffffffffffffffffffffffffffffffffffffffff826146e2565b61472786836146e2565b95508019841693508086168417925050509392505050565b5f819050919050565b5f61476261475d61475884613cbf565b61473f565b613cbf565b9050919050565b5f819050919050565b61477b83614748565b61478f61478782614769565b8484546146ee565b825550505050565b5f90565b6147a3614797565b6147ae818484614772565b505050565b5b818110156147d1576147c65f8261479b565b6001810190506147b4565b5050565b601f821115614816576147e7816146c1565b6147f0846146d3565b810160208510156147ff578190505b61481361480b856146d3565b8301826147b3565b50505b505050565b5f82821c905092915050565b5f6148365f198460080261481b565b1980831691505092915050565b5f61484e8383614827565b9150826002028217905092915050565b61486782613dd0565b67ffffffffffffffff8111156148805761487f613f28565b5b61488a8254614691565b6148958282856147d5565b5f60209050601f8311600181146148c6575f84156148b4578287015190505b6148be8582614843565b865550614925565b601f1984166148d4866146c1565b5f5b828110156148fb578489015182556001820191506020850194506020810190506148d6565b868310156149185784890151614914601f891682614827565b8355505b6001600288020188555050505b505050505050565b7f4e487b71000000000000000000000000000000000000000000000000000000005f52601160045260245ffd5b5f61496482613cbf565b915061496f83613cbf565b92508282019050808211156149875761498661492d565b5b92915050565b7f556e61626c6520746f2065766f6c7665000000000000000000000000000000005f82015250565b5f6149c1601083613dda565b91506149cc8261498d565b602082019050919050565b5f6020820190508181035f8301526149ee816149b5565b9050919050565b5f606082019050614a085f830186613e90565b614a1560208301856140e3565b614a226040830184613e90565b949350505050565b5f819050919050565b5f67ffffffffffffffff82169050919050565b5f614a60614a5b614a5684614a2a565b61473f565b614a33565b9050919050565b614a7081614a46565b82525050565b5f602082019050614a895f830184614a67565b92915050565b7f496e6365737400000000000000000000000000000000000000000000000000005f82015250565b5f614ac3600683613dda565b9150614ace82614a8f565b602082019050919050565b5f6020820190508181035f830152614af081614ab7565b9050919050565b7f4272656564696e67206e6f7420616c6c6f7765642079657400000000000000005f82015250565b5f614b2b601883613dda565b9150614b3682614af7565b602082019050919050565b5f6020820190508181035f830152614b5881614b1f565b9050919050565b7f53616d652067656e6465720000000000000000000000000000000000000000005f82015250565b5f614b93600b83613dda565b9150614b9e82614b5f565b602082019050919050565b5f6020820190508181035f830152614bc081614b87565b9050919050565b5f614bd182613cbf565b9150614bdc83613cbf565b9250828203905081811115614bf457614bf361492d565b5b92915050565b5f81905092915050565b5f8154614c1081614691565b614c1a8186614bfa565b9450600182165f8114614c345760018114614c4957614c7b565b60ff1983168652811515820286019350614c7b565b614c52856146c1565b5f5b83811015614c7357815481890152600182019150602081019050614c54565b838801955050505b50505092915050565b5f614c8e82613dd0565b614c988185614bfa565b9350614ca8818560208601613dea565b80840191505092915050565b5f614cbf8285614c04565b9150614ccb8284614c84565b91508190509392505050565b7f5f656767000000000000000000000000000000000000000000000000000000005f82015250565b5f614d0b600483614bfa565b9150614d1682614cd7565b600482019050919050565b5f614d2c8284614c04565b9150614d3782614cff565b915081905092915050565b7f5f000000000000000000000000000000000000000000000000000000000000005f82015250565b5f614d76600183614bfa565b9150614d8182614d42565b600182019050919050565b5f614d978287614c04565b9150614da282614d6a565b9150614dae8286614c84565b9150614db982614d6a565b9150614dc58285614c84565b9150614dd082614d6a565b9150614ddc8284614c84565b915081905095945050505050565b5f614df58285614c84565b9150614e018284614c04565b91508190509392505050565b7f7b226e616d65223a2022447261676f6e202300000000000000000000000000005f82015250565b5f614e41601283614bfa565b9150614e4c82614e0d565b601282019050919050565b7f222c2265787465726e616c5f75726c223a2268747470733a2f2f6769746875625f8201527f2e636f6d2f626368736f6c2f43727970746f447261676f6e222c22696d61676560208201527f223a220000000000000000000000000000000000000000000000000000000000604082015250565b5f614ed7604383614bfa565b9150614ee282614e57565b604382019050919050565b5f614ef782614e35565b9150614f038286614c84565b9150614f0e82614ecb565b9150614f1a8285614c04565b9150614f268284614c84565b9150819050949350505050565b7f222c2261747472696275746573223a5b7b2274726169745f74797065223a22445f8201527f7261676f6e222c2276616c7565223a2200000000000000000000000000000000602082015250565b5f614f8d603083614bfa565b9150614f9882614f33565b603082019050919050565b5f614fad82614f81565b9150614fb98284614c04565b915081905092915050565b7f646174613a6170706c69636174696f6e2f6a736f6e3b757466382c00000000005f82015250565b5f614ff8601b83614bfa565b915061500382614fc4565b601b82019050919050565b5f61501882614fec565b91506150248286614c84565b91506150308285614c84565b915061503c8284614c84565b9150819050949350505050565b7f6c696d69742065786365656465640000000000000000000000000000000000005f82015250565b5f61507d600e83613dda565b915061508882615049565b602082019050919050565b5f6020820190508181035f8301526150aa81615071565b9050919050565b5f6150bb82613cbf565b91507fffffffffffffffffffffffffffffffffffffffffffffffffffffffffffffffff82036150ed576150ec61492d565b5b600182019050919050565b5f819050919050565b61511261510d82613cbf565b6150f8565b82525050565b5f8160601b9050919050565b5f61512e82615118565b9050919050565b5f61513f82615124565b9050919050565b61515761515282613e7f565b615135565b82525050565b5f6151688286615101565b6020820191506151788285615146565b6014820191506151888284615101565b602082019150819050949350505050565b7f4e487b71000000000000000000000000000000000000000000000000000000005f52601260045260245ffd5b5f6151d082613cbf565b91506151db83613cbf565b9250826151eb576151ea615199565b5b828206905092915050565b6151ff81614203565b8114615209575f80fd5b50565b5f8151905061521a816151f6565b92915050565b5f6020828403121561523557615234613cb7565b5b5f6152428482850161520c565b91505092915050565b5f81519050919050565b5f82825260208201905092915050565b5f61526f8261524b565b6152798185615255565b9350615289818560208601613dea565b61529281613df8565b840191505092915050565b5f6080820190506152b05f830187613e90565b6152bd6020830186613e90565b6152ca60408301856140e3565b81810360608301526152dc8184615265565b905095945050505050565b5f815190506152f581613d48565b92915050565b5f602082840312156153105761530f613cb7565b5b5f61531d848285016152e7565b91505092915050565b5f6040820190506153395f830185613e90565b61534660208301846140e3565b9392505050565b5f81905092915050565b5f6153618261524b565b61536b818561534d565b935061537b818560208601613dea565b80840191505092915050565b5f6153928284615357565b91508190509291505056fea2646970667358221220e47a9a34ae6fd6869f853925faa97e0914a8dfa8d9c95432e5260d736730c93c64736f6c63430008190033",
			"opcodes": "PUSH1 0xA0 PUSH1 0x40 MSTORE ADDRESS PUSH20 0xFFFFFFFFFFFFFFFFFFFFFFFFFFFFFFFFFFFFFFFF AND PUSH1 0x80 SWAP1 PUSH20 0xFFFFFFFFFFFFFFFFFFFFFFFFFFFFFFFFFFFFFFFF AND DUP2 MSTORE POP CALLVALUE DUP1 ISZERO PUSH2 0x42 JUMPI PUSH0 DUP1 REVERT JUMPDEST POP PUSH2 0x51 PUSH2 0x56 PUSH1 0x20 SHL PUSH1 0x20 SHR JUMP JUMPDEST PUSH2 0x1B6 JUMP JUMPDEST PUSH0 PUSH2 0x65 PUSH2 0x154 PUSH1 0x20 SHL PUSH1 0x20 SHR JUMP JUMPDEST SWAP1 POP DUP1 PUSH0 ADD PUSH1 0x8 SWAP1 SLOAD SWAP1 PUSH2 0x100 EXP SWAP1 DIV PUSH1 0xFF AND ISZERO PUSH2 0xAF JUMPI PUSH1 0x40 MLOAD PUSH32 0xF92EE8A900000000000000000000000000000000000000000000000000000000 DUP2 MSTORE PUSH1 0x4 ADD PUSH1 0x40 MLOAD DUP1 SWAP2 SUB SWAP1 REVERT JUMPDEST PUSH8 0xFFFFFFFFFFFFFFFF DUP1 AND DUP2 PUSH0 ADD PUSH0 SWAP1 SLOAD SWAP1 PUSH2 0x100 EXP SWAP1 DIV PUSH8 0xFFFFFFFFFFFFFFFF AND PUSH8 0xFFFFFFFFFFFFFFFF AND EQ PUSH2 0x151 JUMPI PUSH8 0xFFFFFFFFFFFFFFFF DUP2 PUSH0 ADD PUSH0 PUSH2 0x100 EXP DUP2 SLOAD DUP2 PUSH8 0xFFFFFFFFFFFFFFFF MUL NOT AND SWAP1 DUP4 PUSH8 0xFFFFFFFFFFFFFFFF AND MUL OR SWAP1 SSTORE POP PUSH32 0xC7F505B2F371AE2175EE4913F4499E1F2633A7B5936321EED1CDAEB6115181D2 PUSH8 0xFFFFFFFFFFFFFFFF PUSH1 0x40 MLOAD PUSH2 0x148 SWAP2 SWAP1 PUSH2 0x19D JUMP JUMPDEST PUSH1 0x40 MLOAD DUP1 SWAP2 SUB SWAP1 LOG1 JUMPDEST POP JUMP JUMPDEST PUSH0 PUSH32 0xF0C57E16840DF040F15088DC2F81FE391C3923BEC73E23A9662EFC9C229C6A00 SWAP1 POP SWAP1 JUMP JUMPDEST PUSH0 PUSH8 0xFFFFFFFFFFFFFFFF DUP3 AND SWAP1 POP SWAP2 SWAP1 POP JUMP JUMPDEST PUSH2 0x197 DUP2 PUSH2 0x17B JUMP JUMPDEST DUP3 MSTORE POP POP JUMP JUMPDEST PUSH0 PUSH1 0x20 DUP3 ADD SWAP1 POP PUSH2 0x1B0 PUSH0 DUP4 ADD DUP5 PUSH2 0x18E JUMP JUMPDEST SWAP3 SWAP2 POP POP JUMP JUMPDEST PUSH1 0x80 MLOAD PUSH2 0x53D3 PUSH2 0x1DC PUSH0 CODECOPY PUSH0 DUP2 DUP2 PUSH2 0x25F5 ADD MSTORE DUP2 DUP2 PUSH2 0x264A ADD MSTORE PUSH2 0x2804 ADD MSTORE PUSH2 0x53D3 PUSH0 RETURN INVALID PUSH1 0x80 PUSH1 0x40 MSTORE PUSH1 0x4 CALLDATASIZE LT PUSH2 0x20D JUMPI PUSH0 CALLDATALOAD PUSH1 0xE0 SHR DUP1 PUSH4 0x90657147 GT PUSH2 0x117 JUMPI DUP1 PUSH4 0xCFD94A17 GT PUSH2 0x9F JUMPI DUP1 PUSH4 0xEDEB4BBE GT PUSH2 0x6E JUMPI DUP1 PUSH4 0xEDEB4BBE EQ PUSH2 0x783 JUMPI DUP1 PUSH4 0xF119F567 EQ PUSH2 0x7AD JUMPI DUP1 PUSH4 0xF28CA1DD EQ PUSH2 0x7D5 JUMPI DUP1 PUSH4 0xF2FDE38B EQ PUSH2 0x7FF JUMPI DUP1 PUSH4 0xFFFAD312 EQ PUSH2 0x827 JUMPI PUSH2 0x20D JUMP JUMPDEST DUP1 PUSH4 0xCFD94A17 EQ PUSH2 0x6CD JUMPI DUP1 PUSH4 0xD547CFB7 EQ PUSH2 0x6F5 JUMPI DUP1 PUSH4 0xE0DF5B6F EQ PUSH2 0x71F JUMPI DUP1 PUSH4 0xE985E9C5 EQ PUSH2 0x747 JUMPI PUSH2 0x20D JUMP JUMPDEST DUP1 PUSH4 0xAD3CB1CC GT PUSH2 0xE6 JUMPI DUP1 PUSH4 0xAD3CB1CC EQ PUSH2 0x5DA JUMPI DUP1 PUSH4 0xB564EA86 EQ PUSH2 0x604 JUMPI DUP1 PUSH4 0xB88D4FDE EQ PUSH2 0x641 JUMPI DUP1 PUSH4 0xBD9BA9E8 EQ PUSH2 0x669 JUMPI DUP1 PUSH4 0xC87B56DD EQ PUSH2 0x691 JUMPI PUSH2 0x20D JUMP JUMPDEST DUP1 PUSH4 0x90657147 EQ PUSH2 0x530 JUMPI DUP1 PUSH4 0x95D89B41 EQ PUSH2 0x558 JUMPI DUP1 PUSH4 0x99683C22 EQ PUSH2 0x582 JUMPI DUP1 PUSH4 0xA22CB465 EQ PUSH2 0x5B2 JUMPI PUSH2 0x20D JUMP JUMPDEST DUP1 PUSH4 0x42842E0E GT PUSH2 0x19A JUMPI DUP1 PUSH4 0x6352211E GT PUSH2 0x169 JUMPI DUP1 PUSH4 0x6352211E EQ PUSH2 0x43B JUMPI DUP1 PUSH4 0x70A08231 EQ PUSH2 0x477 JUMPI DUP1 PUSH4 0x715018A6 EQ PUSH2 0x4B3 JUMPI DUP1 PUSH4 0x86838C60 EQ PUSH2 0x4C9 JUMPI DUP1 PUSH4 0x8DA5CB5B EQ PUSH2 0x506 JUMPI PUSH2 0x20D JUMP JUMPDEST DUP1 PUSH4 0x42842E0E EQ PUSH2 0x3A3 JUMPI DUP1 PUSH4 0x43463394 EQ PUSH2 0x3CB JUMPI DUP1 PUSH4 0x4F1EF286 EQ PUSH2 0x3F5 JUMPI DUP1 PUSH4 0x52D1902D EQ PUSH2 0x411 JUMPI PUSH2 0x20D JUMP JUMPDEST DUP1 PUSH4 0x95EA7B3 GT PUSH2 0x1E1 JUMPI DUP1 PUSH4 0x95EA7B3 EQ PUSH2 0x2DB JUMPI DUP1 PUSH4 0x18D217C3 EQ PUSH2 0x303 JUMPI DUP1 PUSH4 0x1BC80EFF EQ PUSH2 0x32B JUMPI DUP1 PUSH4 0x23B872DD EQ PUSH2 0x353 JUMPI DUP1 PUSH4 0x39E3AA7E EQ PUSH2 0x37B JUMPI PUSH2 0x20D JUMP JUMPDEST DUP1 PUSH3 0xE00064 EQ PUSH2 0x211 JUMPI DUP1 PUSH4 0x1FFC9A7 EQ PUSH2 0x239 JUMPI DUP1 PUSH4 0x6FDDE03 EQ PUSH2 0x275 JUMPI DUP1 PUSH4 0x81812FC EQ PUSH2 0x29F JUMPI JUMPDEST PUSH0 DUP1 REVERT JUMPDEST CALLVALUE DUP1 ISZERO PUSH2 0x21C JUMPI PUSH0 DUP1 REVERT JUMPDEST POP PUSH2 0x237 PUSH1 0x4 DUP1 CALLDATASIZE SUB DUP2 ADD SWAP1 PUSH2 0x232 SWAP2 SWAP1 PUSH2 0x3CF2 JUMP JUMPDEST PUSH2 0x851 JUMP JUMPDEST STOP JUMPDEST CALLVALUE DUP1 ISZERO PUSH2 0x244 JUMPI PUSH0 DUP1 REVERT JUMPDEST POP PUSH2 0x25F PUSH1 0x4 DUP1 CALLDATASIZE SUB DUP2 ADD SWAP1 PUSH2 0x25A SWAP2 SWAP1 PUSH2 0x3D72 JUMP JUMPDEST PUSH2 0xA90 JUMP JUMPDEST PUSH1 0x40 MLOAD PUSH2 0x26C SWAP2 SWAP1 PUSH2 0x3DB7 JUMP JUMPDEST PUSH1 0x40 MLOAD DUP1 SWAP2 SUB SWAP1 RETURN JUMPDEST CALLVALUE DUP1 ISZERO PUSH2 0x280 JUMPI PUSH0 DUP1 REVERT JUMPDEST POP PUSH2 0x289 PUSH2 0xAA1 JUMP JUMPDEST PUSH1 0x40 MLOAD PUSH2 0x296 SWAP2 SWAP1 PUSH2 0x3E40 JUMP JUMPDEST PUSH1 0x40 MLOAD DUP1 SWAP2 SUB SWAP1 RETURN JUMPDEST CALLVALUE DUP1 ISZERO PUSH2 0x2AA JUMPI PUSH0 DUP1 REVERT JUMPDEST POP PUSH2 0x2C5 PUSH1 0x4 DUP1 CALLDATASIZE SUB DUP2 ADD SWAP1 PUSH2 0x2C0 SWAP2 SWAP1 PUSH2 0x3CF2 JUMP JUMPDEST PUSH2 0xB3E JUMP JUMPDEST PUSH1 0x40 MLOAD PUSH2 0x2D2 SWAP2 SWAP1 PUSH2 0x3E9F JUMP JUMPDEST PUSH1 0x40 MLOAD DUP1 SWAP2 SUB SWAP1 RETURN JUMPDEST CALLVALUE DUP1 ISZERO PUSH2 0x2E6 JUMPI PUSH0 DUP1 REVERT JUMPDEST POP PUSH2 0x301 PUSH1 0x4 DUP1 CALLDATASIZE SUB DUP2 ADD SWAP1 PUSH2 0x2FC SWAP2 SWAP1 PUSH2 0x3EE2 JUMP JUMPDEST PUSH2 0xB59 JUMP JUMPDEST STOP JUMPDEST CALLVALUE DUP1 ISZERO PUSH2 0x30E JUMPI PUSH0 DUP1 REVERT JUMPDEST POP PUSH2 0x329 PUSH1 0x4 DUP1 CALLDATASIZE SUB DUP2 ADD SWAP1 PUSH2 0x324 SWAP2 SWAP1 PUSH2 0x404C JUMP JUMPDEST PUSH2 0xB6F JUMP JUMPDEST STOP JUMPDEST CALLVALUE DUP1 ISZERO PUSH2 0x336 JUMPI PUSH0 DUP1 REVERT JUMPDEST POP PUSH2 0x351 PUSH1 0x4 DUP1 CALLDATASIZE SUB DUP2 ADD SWAP1 PUSH2 0x34C SWAP2 SWAP1 PUSH2 0x3CF2 JUMP JUMPDEST PUSH2 0xB8A JUMP JUMPDEST STOP JUMPDEST CALLVALUE DUP1 ISZERO PUSH2 0x35E JUMPI PUSH0 DUP1 REVERT JUMPDEST POP PUSH2 0x379 PUSH1 0x4 DUP1 CALLDATASIZE SUB DUP2 ADD SWAP1 PUSH2 0x374 SWAP2 SWAP1 PUSH2 0x4093 JUMP JUMPDEST PUSH2 0xDA1 JUMP JUMPDEST STOP JUMPDEST CALLVALUE DUP1 ISZERO PUSH2 0x386 JUMPI PUSH0 DUP1 REVERT JUMPDEST POP PUSH2 0x3A1 PUSH1 0x4 DUP1 CALLDATASIZE SUB DUP2 ADD SWAP1 PUSH2 0x39C SWAP2 SWAP1 PUSH2 0x404C JUMP JUMPDEST PUSH2 0xEA0 JUMP JUMPDEST STOP JUMPDEST CALLVALUE DUP1 ISZERO PUSH2 0x3AE JUMPI PUSH0 DUP1 REVERT JUMPDEST POP PUSH2 0x3C9 PUSH1 0x4 DUP1 CALLDATASIZE SUB DUP2 ADD SWAP1 PUSH2 0x3C4 SWAP2 SWAP1 PUSH2 0x4093 JUMP JUMPDEST PUSH2 0xEBB JUMP JUMPDEST STOP JUMPDEST CALLVALUE DUP1 ISZERO PUSH2 0x3D6 JUMPI PUSH0 DUP1 REVERT JUMPDEST POP PUSH2 0x3DF PUSH2 0xEDA JUMP JUMPDEST PUSH1 0x40 MLOAD PUSH2 0x3EC SWAP2 SWAP1 PUSH2 0x40F2 JUMP JUMPDEST PUSH1 0x40 MLOAD DUP1 SWAP2 SUB SWAP1 RETURN JUMPDEST PUSH2 0x40F PUSH1 0x4 DUP1 CALLDATASIZE SUB DUP2 ADD SWAP1 PUSH2 0x40A SWAP2 SWAP1 PUSH2 0x41A9 JUMP JUMPDEST PUSH2 0xEDF JUMP JUMPDEST STOP JUMPDEST CALLVALUE DUP1 ISZERO PUSH2 0x41C JUMPI PUSH0 DUP1 REVERT JUMPDEST POP PUSH2 0x425 PUSH2 0xEFE JUMP JUMPDEST PUSH1 0x40 MLOAD PUSH2 0x432 SWAP2 SWAP1 PUSH2 0x421B JUMP JUMPDEST PUSH1 0x40 MLOAD DUP1 SWAP2 SUB SWAP1 RETURN JUMPDEST CALLVALUE DUP1 ISZERO PUSH2 0x446 JUMPI PUSH0 DUP1 REVERT JUMPDEST POP PUSH2 0x461 PUSH1 0x4 DUP1 CALLDATASIZE SUB DUP2 ADD SWAP1 PUSH2 0x45C SWAP2 SWAP1 PUSH2 0x3CF2 JUMP JUMPDEST PUSH2 0xF2F JUMP JUMPDEST PUSH1 0x40 MLOAD PUSH2 0x46E SWAP2 SWAP1 PUSH2 0x3E9F JUMP JUMPDEST PUSH1 0x40 MLOAD DUP1 SWAP2 SUB SWAP1 RETURN JUMPDEST CALLVALUE DUP1 ISZERO PUSH2 0x482 JUMPI PUSH0 DUP1 REVERT JUMPDEST POP PUSH2 0x49D PUSH1 0x4 DUP1 CALLDATASIZE SUB DUP2 ADD SWAP1 PUSH2 0x498 SWAP2 SWAP1 PUSH2 0x4234 JUMP JUMPDEST PUSH2 0xF40 JUMP JUMPDEST PUSH1 0x40 MLOAD PUSH2 0x4AA SWAP2 SWAP1 PUSH2 0x40F2 JUMP JUMPDEST PUSH1 0x40 MLOAD DUP1 SWAP2 SUB SWAP1 RETURN JUMPDEST CALLVALUE DUP1 ISZERO PUSH2 0x4BE JUMPI PUSH0 DUP1 REVERT JUMPDEST POP PUSH2 0x4C7 PUSH2 0x1004 JUMP JUMPDEST STOP JUMPDEST CALLVALUE DUP1 ISZERO PUSH2 0x4D4 JUMPI PUSH0 DUP1 REVERT JUMPDEST POP PUSH2 0x4EF PUSH1 0x4 DUP1 CALLDATASIZE SUB DUP2 ADD SWAP1 PUSH2 0x4EA SWAP2 SWAP1 PUSH2 0x3CF2 JUMP JUMPDEST PUSH2 0x1017 JUMP JUMPDEST PUSH1 0x40 MLOAD PUSH2 0x4FD SWAP3 SWAP2 SWAP1 PUSH2 0x425F JUMP JUMPDEST PUSH1 0x40 MLOAD DUP1 SWAP2 SUB SWAP1 RETURN JUMPDEST CALLVALUE DUP1 ISZERO PUSH2 0x511 JUMPI PUSH0 DUP1 REVERT JUMPDEST POP PUSH2 0x51A PUSH2 0x104B JUMP JUMPDEST PUSH1 0x40 MLOAD PUSH2 0x527 SWAP2 SWAP1 PUSH2 0x3E9F JUMP JUMPDEST PUSH1 0x40 MLOAD DUP1 SWAP2 SUB SWAP1 RETURN JUMPDEST CALLVALUE DUP1 ISZERO PUSH2 0x53B JUMPI PUSH0 DUP1 REVERT JUMPDEST POP PUSH2 0x556 PUSH1 0x4 DUP1 CALLDATASIZE SUB DUP2 ADD SWAP1 PUSH2 0x551 SWAP2 SWAP1 PUSH2 0x4286 JUMP JUMPDEST PUSH2 0x1080 JUMP JUMPDEST STOP JUMPDEST CALLVALUE DUP1 ISZERO PUSH2 0x563 JUMPI PUSH0 DUP1 REVERT JUMPDEST POP PUSH2 0x56C PUSH2 0x1224 JUMP JUMPDEST PUSH1 0x40 MLOAD PUSH2 0x579 SWAP2 SWAP1 PUSH2 0x3E40 JUMP JUMPDEST PUSH1 0x40 MLOAD DUP1 SWAP2 SUB SWAP1 RETURN JUMPDEST PUSH2 0x59C PUSH1 0x4 DUP1 CALLDATASIZE SUB DUP2 ADD SWAP1 PUSH2 0x597 SWAP2 SWAP1 PUSH2 0x430E JUMP JUMPDEST PUSH2 0x12C2 JUMP JUMPDEST PUSH1 0x40 MLOAD PUSH2 0x5A9 SWAP2 SWAP1 PUSH2 0x40F2 JUMP JUMPDEST PUSH1 0x40 MLOAD DUP1 SWAP2 SUB SWAP1 RETURN JUMPDEST CALLVALUE DUP1 ISZERO PUSH2 0x5BD JUMPI PUSH0 DUP1 REVERT JUMPDEST POP PUSH2 0x5D8 PUSH1 0x4 DUP1 CALLDATASIZE SUB DUP2 ADD SWAP1 PUSH2 0x5D3 SWAP2 SWAP1 PUSH2 0x43A4 JUMP JUMPDEST PUSH2 0x148F JUMP JUMPDEST STOP JUMPDEST CALLVALUE DUP1 ISZERO PUSH2 0x5E5 JUMPI PUSH0 DUP1 REVERT JUMPDEST POP PUSH2 0x5EE PUSH2 0x14A5 JUMP JUMPDEST PUSH1 0x40 MLOAD PUSH2 0x5FB SWAP2 SWAP1 PUSH2 0x3E40 JUMP JUMPDEST PUSH1 0x40 MLOAD DUP1 SWAP2 SUB SWAP1 RETURN JUMPDEST CALLVALUE DUP1 ISZERO PUSH2 0x60F JUMPI PUSH0 DUP1 REVERT JUMPDEST POP PUSH2 0x62A PUSH1 0x4 DUP1 CALLDATASIZE SUB DUP2 ADD SWAP1 PUSH2 0x625 SWAP2 SWAP1 PUSH2 0x3CF2 JUMP JUMPDEST PUSH2 0x14DE JUMP JUMPDEST PUSH1 0x40 MLOAD PUSH2 0x638 SWAP3 SWAP2 SWAP1 PUSH2 0x4455 JUMP JUMPDEST PUSH1 0x40 MLOAD DUP1 SWAP2 SUB SWAP1 RETURN JUMPDEST CALLVALUE DUP1 ISZERO PUSH2 0x64C JUMPI PUSH0 DUP1 REVERT JUMPDEST POP PUSH2 0x667 PUSH1 0x4 DUP1 CALLDATASIZE SUB DUP2 ADD SWAP1 PUSH2 0x662 SWAP2 SWAP1 PUSH2 0x447C JUMP JUMPDEST PUSH2 0x1665 JUMP JUMPDEST STOP JUMPDEST CALLVALUE DUP1 ISZERO PUSH2 0x674 JUMPI PUSH0 DUP1 REVERT JUMPDEST POP PUSH2 0x68F PUSH1 0x4 DUP1 CALLDATASIZE SUB DUP2 ADD SWAP1 PUSH2 0x68A SWAP2 SWAP1 PUSH2 0x404C JUMP JUMPDEST PUSH2 0x1682 JUMP JUMPDEST STOP JUMPDEST CALLVALUE DUP1 ISZERO PUSH2 0x69C JUMPI PUSH0 DUP1 REVERT JUMPDEST POP PUSH2 0x6B7 PUSH1 0x4 DUP1 CALLDATASIZE SUB DUP2 ADD SWAP1 PUSH2 0x6B2 SWAP2 SWAP1 PUSH2 0x3CF2 JUMP JUMPDEST PUSH2 0x169D JUMP JUMPDEST PUSH1 0x40 MLOAD PUSH2 0x6C4 SWAP2 SWAP1 PUSH2 0x3E40 JUMP JUMPDEST PUSH1 0x40 MLOAD DUP1 SWAP2 SUB SWAP1 RETURN JUMPDEST CALLVALUE DUP1 ISZERO PUSH2 0x6D8 JUMPI PUSH0 DUP1 REVERT JUMPDEST POP PUSH2 0x6F3 PUSH1 0x4 DUP1 CALLDATASIZE SUB DUP2 ADD SWAP1 PUSH2 0x6EE SWAP2 SWAP1 PUSH2 0x44FC JUMP JUMPDEST PUSH2 0x1B12 JUMP JUMPDEST STOP JUMPDEST CALLVALUE DUP1 ISZERO PUSH2 0x700 JUMPI PUSH0 DUP1 REVERT JUMPDEST POP PUSH2 0x709 PUSH2 0x1B81 JUMP JUMPDEST PUSH1 0x40 MLOAD PUSH2 0x716 SWAP2 SWAP1 PUSH2 0x3E40 JUMP JUMPDEST PUSH1 0x40 MLOAD DUP1 SWAP2 SUB SWAP1 RETURN JUMPDEST CALLVALUE DUP1 ISZERO PUSH2 0x72A JUMPI PUSH0 DUP1 REVERT JUMPDEST POP PUSH2 0x745 PUSH1 0x4 DUP1 CALLDATASIZE SUB DUP2 ADD SWAP1 PUSH2 0x740 SWAP2 SWAP1 PUSH2 0x404C JUMP JUMPDEST PUSH2 0x1C0D JUMP JUMPDEST STOP JUMPDEST CALLVALUE DUP1 ISZERO PUSH2 0x752 JUMPI PUSH0 DUP1 REVERT JUMPDEST POP PUSH2 0x76D PUSH1 0x4 DUP1 CALLDATASIZE SUB DUP2 ADD SWAP1 PUSH2 0x768 SWAP2 SWAP1 PUSH2 0x4556 JUMP JUMPDEST PUSH2 0x1C28 JUMP JUMPDEST PUSH1 0x40 MLOAD PUSH2 0x77A SWAP2 SWAP1 PUSH2 0x3DB7 JUMP JUMPDEST PUSH1 0x40 MLOAD DUP1 SWAP2 SUB SWAP1 RETURN JUMPDEST CALLVALUE DUP1 ISZERO PUSH2 0x78E JUMPI PUSH0 DUP1 REVERT JUMPDEST POP PUSH2 0x797 PUSH2 0x1CC4 JUMP JUMPDEST PUSH1 0x40 MLOAD PUSH2 0x7A4 SWAP2 SWAP1 PUSH2 0x3E40 JUMP JUMPDEST PUSH1 0x40 MLOAD DUP1 SWAP2 SUB SWAP1 RETURN JUMPDEST CALLVALUE DUP1 ISZERO PUSH2 0x7B8 JUMPI PUSH0 DUP1 REVERT JUMPDEST POP PUSH2 0x7D3 PUSH1 0x4 DUP1 CALLDATASIZE SUB DUP2 ADD SWAP1 PUSH2 0x7CE SWAP2 SWAP1 PUSH2 0x3CF2 JUMP JUMPDEST PUSH2 0x1D50 JUMP JUMPDEST STOP JUMPDEST CALLVALUE DUP1 ISZERO PUSH2 0x7E0 JUMPI PUSH0 DUP1 REVERT JUMPDEST POP PUSH2 0x7E9 PUSH2 0x2037 JUMP JUMPDEST PUSH1 0x40 MLOAD PUSH2 0x7F6 SWAP2 SWAP1 PUSH2 0x3E40 JUMP JUMPDEST PUSH1 0x40 MLOAD DUP1 SWAP2 SUB SWAP1 RETURN JUMPDEST CALLVALUE DUP1 ISZERO PUSH2 0x80A JUMPI PUSH0 DUP1 REVERT JUMPDEST POP PUSH2 0x825 PUSH1 0x4 DUP1 CALLDATASIZE SUB DUP2 ADD SWAP1 PUSH2 0x820 SWAP2 SWAP1 PUSH2 0x4234 JUMP JUMPDEST PUSH2 0x20C3 JUMP JUMPDEST STOP JUMPDEST CALLVALUE DUP1 ISZERO PUSH2 0x832 JUMPI PUSH0 DUP1 REVERT JUMPDEST POP PUSH2 0x83B PUSH2 0x2147 JUMP JUMPDEST PUSH1 0x40 MLOAD PUSH2 0x848 SWAP2 SWAP1 PUSH2 0x40F2 JUMP JUMPDEST PUSH1 0x40 MLOAD DUP1 SWAP2 SUB SWAP1 RETURN JUMPDEST PUSH1 0x3 DUP1 DUP2 GT ISZERO PUSH2 0x864 JUMPI PUSH2 0x863 PUSH2 0x43E2 JUMP JUMPDEST JUMPDEST PUSH0 DUP1 DUP4 DUP2 MSTORE PUSH1 0x20 ADD SWAP1 DUP2 MSTORE PUSH1 0x20 ADD PUSH0 KECCAK256 PUSH0 SWAP1 SLOAD SWAP1 PUSH2 0x100 EXP SWAP1 DIV PUSH1 0xFF AND PUSH1 0x3 DUP2 GT ISZERO PUSH2 0x893 JUMPI PUSH2 0x892 PUSH2 0x43E2 JUMP JUMPDEST JUMPDEST SUB PUSH2 0x8D3 JUMPI PUSH1 0x40 MLOAD PUSH32 0x8C379A000000000000000000000000000000000000000000000000000000000 DUP2 MSTORE PUSH1 0x4 ADD PUSH2 0x8CA SWAP1 PUSH2 0x45DE JUMP JUMPDEST PUSH1 0x40 MLOAD DUP1 SWAP2 SUB SWAP1 REVERT JUMPDEST CALLER PUSH20 0xFFFFFFFFFFFFFFFFFFFFFFFFFFFFFFFFFFFFFFFF AND PUSH2 0x8F3 DUP3 PUSH2 0xF2F JUMP JUMPDEST PUSH20 0xFFFFFFFFFFFFFFFFFFFFFFFFFFFFFFFFFFFFFFFF AND EQ PUSH2 0x949 JUMPI PUSH1 0x40 MLOAD PUSH32 0x8C379A000000000000000000000000000000000000000000000000000000000 DUP2 MSTORE PUSH1 0x4 ADD PUSH2 0x940 SWAP1 PUSH2 0x4646 JUMP JUMPDEST PUSH1 0x40 MLOAD DUP1 SWAP2 SUB SWAP1 REVERT JUMPDEST PUSH0 DUP1 PUSH0 DUP4 DUP2 MSTORE PUSH1 0x20 ADD SWAP1 DUP2 MSTORE PUSH1 0x20 ADD PUSH0 KECCAK256 PUSH0 SWAP1 SLOAD SWAP1 PUSH2 0x100 EXP SWAP1 DIV PUSH1 0xFF AND SWAP1 POP PUSH0 PUSH1 0x2 PUSH0 DUP5 DUP2 MSTORE PUSH1 0x20 ADD SWAP1 DUP2 MSTORE PUSH1 0x20 ADD PUSH0 KECCAK256 SWAP1 POP PUSH0 TIMESTAMP SWAP1 POP PUSH0 PUSH1 0x3 DUP2 GT ISZERO PUSH2 0x994 JUMPI PUSH2 0x993 PUSH2 0x43E2 JUMP JUMPDEST JUMPDEST DUP4 PUSH1 0x3 DUP2 GT ISZERO PUSH2 0x9A7 JUMPI PUSH2 0x9A6 PUSH2 0x43E2 JUMP JUMPDEST JUMPDEST SUB PUSH2 0x9D8 JUMPI PUSH2 0x9CC DUP2 PUSH1 0x2 PUSH0 DUP8 DUP2 MSTORE PUSH1 0x20 ADD SWAP1 DUP2 MSTORE PUSH1 0x20 ADD PUSH0 KECCAK256 PUSH0 ADD SLOAD PUSH2 0x2A30 PUSH2 0x214D JUMP JUMPDEST DUP3 PUSH0 ADD DUP2 SWAP1 SSTORE POP PUSH2 0xA8A JUMP JUMPDEST PUSH1 0x1 PUSH1 0x3 DUP2 GT ISZERO PUSH2 0x9EC JUMPI PUSH2 0x9EB PUSH2 0x43E2 JUMP JUMPDEST JUMPDEST DUP4 PUSH1 0x3 DUP2 GT ISZERO PUSH2 0x9FF JUMPI PUSH2 0x9FE PUSH2 0x43E2 JUMP JUMPDEST JUMPDEST SUB PUSH2 0xA32 JUMPI PUSH2 0xA25 DUP2 PUSH1 0x2 PUSH0 DUP8 DUP2 MSTORE PUSH1 0x20 ADD SWAP1 DUP2 MSTORE PUSH1 0x20 ADD PUSH0 KECCAK256 PUSH1 0x1 ADD SLOAD PUSH2 0x2A30 PUSH2 0x214D JUMP JUMPDEST DUP3 PUSH1 0x1 ADD DUP2 SWAP1 SSTORE POP PUSH2 0xA89 JUMP JUMPDEST PUSH1 0x2 PUSH1 0x3 DUP2 GT ISZERO PUSH2 0xA46 JUMPI PUSH2 0xA45 PUSH2 0x43E2 JUMP JUMPDEST JUMPDEST DUP4 PUSH1 0x3 DUP2 GT ISZERO PUSH2 0xA59 JUMPI PUSH2 0xA58 PUSH2 0x43E2 JUMP JUMPDEST JUMPDEST SUB PUSH2 0xA88 JUMPI PUSH2 0xA7F DUP2 PUSH1 0x2 PUSH0 DUP8 DUP2 MSTORE PUSH1 0x20 ADD SWAP1 DUP2 MSTORE PUSH1 0x20 ADD PUSH0 KECCAK256 PUSH1 0x2 ADD SLOAD PUSH2 0x2A30 PUSH2 0x214D JUMP JUMPDEST DUP3 PUSH1 0x2 ADD DUP2 SWAP1 SSTORE POP JUMPDEST JUMPDEST JUMPDEST POP POP POP POP JUMP JUMPDEST PUSH0 PUSH2 0xA9A DUP3 PUSH2 0x217E JUMP JUMPDEST SWAP1 POP SWAP2 SWAP1 POP JUMP JUMPDEST PUSH1 0x60 PUSH0 PUSH2 0xAAC PUSH2 0x21DE JUMP JUMPDEST SWAP1 POP DUP1 PUSH0 ADD DUP1 SLOAD PUSH2 0xABC SWAP1 PUSH2 0x4691 JUMP JUMPDEST DUP1 PUSH1 0x1F ADD PUSH1 0x20 DUP1 SWAP2 DIV MUL PUSH1 0x20 ADD PUSH1 0x40 MLOAD SWAP1 DUP2 ADD PUSH1 0x40 MSTORE DUP1 SWAP3 SWAP2 SWAP1 DUP2 DUP2 MSTORE PUSH1 0x20 ADD DUP3 DUP1 SLOAD PUSH2 0xAE8 SWAP1 PUSH2 0x4691 JUMP JUMPDEST DUP1 ISZERO PUSH2 0xB33 JUMPI DUP1 PUSH1 0x1F LT PUSH2 0xB0A JUMPI PUSH2 0x100 DUP1 DUP4 SLOAD DIV MUL DUP4 MSTORE SWAP2 PUSH1 0x20 ADD SWAP2 PUSH2 0xB33 JUMP JUMPDEST DUP3 ADD SWAP2 SWAP1 PUSH0 MSTORE PUSH1 0x20 PUSH0 KECCAK256 SWAP1 JUMPDEST DUP2 SLOAD DUP2 MSTORE SWAP1 PUSH1 0x1 ADD SWAP1 PUSH1 0x20 ADD DUP1 DUP4 GT PUSH2 0xB16 JUMPI DUP3 SWAP1 SUB PUSH1 0x1F AND DUP3 ADD SWAP2 JUMPDEST POP POP POP POP POP SWAP2 POP POP SWAP1 JUMP JUMPDEST PUSH0 PUSH2 0xB48 DUP3 PUSH2 0x2205 JUMP JUMPDEST POP PUSH2 0xB52 DUP3 PUSH2 0x228B JUMP JUMPDEST SWAP1 POP SWAP2 SWAP1 POP JUMP JUMPDEST PUSH2 0xB6B DUP3 DUP3 PUSH2 0xB66 PUSH2 0x22D2 JUMP JUMPDEST PUSH2 0x22D9 JUMP JUMPDEST POP POP JUMP JUMPDEST PUSH2 0xB77 PUSH2 0x22EB JUMP JUMPDEST DUP1 PUSH1 0x7 SWAP1 DUP2 PUSH2 0xB86 SWAP2 SWAP1 PUSH2 0x485E JUMP JUMPDEST POP POP JUMP JUMPDEST PUSH2 0xB92 PUSH2 0x22EB JUMP JUMPDEST PUSH0 DUP1 PUSH0 DUP4 DUP2 MSTORE PUSH1 0x20 ADD SWAP1 DUP2 MSTORE PUSH1 0x20 ADD PUSH0 KECCAK256 PUSH0 SWAP1 SLOAD SWAP1 PUSH2 0x100 EXP SWAP1 DIV PUSH1 0xFF AND SWAP1 POP PUSH0 PUSH1 0x3 DUP2 GT ISZERO PUSH2 0xBC5 JUMPI PUSH2 0xBC4 PUSH2 0x43E2 JUMP JUMPDEST JUMPDEST DUP2 PUSH1 0x3 DUP2 GT ISZERO PUSH2 0xBD8 JUMPI PUSH2 0xBD7 PUSH2 0x43E2 JUMP JUMPDEST JUMPDEST SUB PUSH2 0xC61 JUMPI PUSH1 0x1 PUSH0 DUP1 DUP5 DUP2 MSTORE PUSH1 0x20 ADD SWAP1 DUP2 MSTORE PUSH1 0x20 ADD PUSH0 KECCAK256 PUSH0 PUSH2 0x100 EXP DUP2 SLOAD DUP2 PUSH1 0xFF MUL NOT AND SWAP1 DUP4 PUSH1 0x3 DUP2 GT ISZERO PUSH2 0xC10 JUMPI PUSH2 0xC0F PUSH2 0x43E2 JUMP JUMPDEST JUMPDEST MUL OR SWAP1 SSTORE POP PUSH2 0xC1D PUSH2 0x2372 JUMP JUMPDEST PUSH1 0x1 PUSH0 DUP5 DUP2 MSTORE PUSH1 0x20 ADD SWAP1 DUP2 MSTORE PUSH1 0x20 ADD PUSH0 KECCAK256 PUSH1 0x1 ADD DUP2 SWAP1 SSTORE POP PUSH3 0x2A300 TIMESTAMP PUSH2 0xC44 SWAP2 SWAP1 PUSH2 0x495A JUMP JUMPDEST PUSH1 0x2 PUSH0 DUP5 DUP2 MSTORE PUSH1 0x20 ADD SWAP1 DUP2 MSTORE PUSH1 0x20 ADD PUSH0 KECCAK256 PUSH1 0x1 ADD DUP2 SWAP1 SSTORE POP PUSH2 0xD9D JUMP JUMPDEST PUSH1 0x1 PUSH1 0x3 DUP2 GT ISZERO PUSH2 0xC75 JUMPI PUSH2 0xC74 PUSH2 0x43E2 JUMP JUMPDEST JUMPDEST DUP2 PUSH1 0x3 DUP2 GT ISZERO PUSH2 0xC88 JUMPI PUSH2 0xC87 PUSH2 0x43E2 JUMP JUMPDEST JUMPDEST SUB PUSH2 0xCF1 JUMPI PUSH1 0x2 PUSH0 DUP1 DUP5 DUP2 MSTORE PUSH1 0x20 ADD SWAP1 DUP2 MSTORE PUSH1 0x20 ADD PUSH0 KECCAK256 PUSH0 PUSH2 0x100 EXP DUP2 SLOAD DUP2 PUSH1 0xFF MUL NOT AND SWAP1 DUP4 PUSH1 0x3 DUP2 GT ISZERO PUSH2 0xCC0 JUMPI PUSH2 0xCBF PUSH2 0x43E2 JUMP JUMPDEST JUMPDEST MUL OR SWAP1 SSTORE POP PUSH3 0x3F480 TIMESTAMP PUSH2 0xCD4 SWAP2 SWAP1 PUSH2 0x495A JUMP JUMPDEST PUSH1 0x2 PUSH0 DUP5 DUP2 MSTORE PUSH1 0x20 ADD SWAP1 DUP2 MSTORE PUSH1 0x20 ADD PUSH0 KECCAK256 PUSH1 0x2 ADD DUP2 SWAP1 SSTORE POP PUSH2 0xD9C JUMP JUMPDEST PUSH1 0x2 PUSH1 0x3 DUP2 GT ISZERO PUSH2 0xD05 JUMPI PUSH2 0xD04 PUSH2 0x43E2 JUMP JUMPDEST JUMPDEST DUP2 PUSH1 0x3 DUP2 GT ISZERO PUSH2 0xD18 JUMPI PUSH2 0xD17 PUSH2 0x43E2 JUMP JUMPDEST JUMPDEST SUB PUSH2 0xD5A JUMPI PUSH1 0x3 PUSH0 DUP1 DUP5 DUP2 MSTORE PUSH1 0x20 ADD SWAP1 DUP2 MSTORE PUSH1 0x20 ADD PUSH0 KECCAK256 PUSH0 PUSH2 0x100 EXP DUP2 SLOAD DUP2 PUSH1 0xFF MUL NOT AND SWAP1 DUP4 PUSH1 0x3 DUP2 GT ISZERO PUSH2 0xD50 JUMPI PUSH2 0xD4F PUSH2 0x43E2 JUMP JUMPDEST JUMPDEST MUL OR SWAP1 SSTORE POP PUSH2 0xD9B JUMP JUMPDEST PUSH0 PUSH2 0xD9A JUMPI PUSH1 0x40 MLOAD PUSH32 0x8C379A000000000000000000000000000000000000000000000000000000000 DUP2 MSTORE PUSH1 0x4 ADD PUSH2 0xD91 SWAP1 PUSH2 0x49D7 JUMP JUMPDEST PUSH1 0x40 MLOAD DUP1 SWAP2 SUB SWAP1 REVERT JUMPDEST JUMPDEST JUMPDEST JUMPDEST POP POP JUMP JUMPDEST PUSH0 PUSH20 0xFFFFFFFFFFFFFFFFFFFFFFFFFFFFFFFFFFFFFFFF AND DUP3 PUSH20 0xFFFFFFFFFFFFFFFFFFFFFFFFFFFFFFFFFFFFFFFF AND SUB PUSH2 0xE11 JUMPI PUSH0 PUSH1 0x40 MLOAD PUSH32 0x64A0AE9200000000000000000000000000000000000000000000000000000000 DUP2 MSTORE PUSH1 0x4 ADD PUSH2 0xE08 SWAP2 SWAP1 PUSH2 0x3E9F JUMP JUMPDEST PUSH1 0x40 MLOAD DUP1 SWAP2 SUB SWAP1 REVERT JUMPDEST PUSH0 PUSH2 0xE24 DUP4 DUP4 PUSH2 0xE1F PUSH2 0x22D2 JUMP JUMPDEST PUSH2 0x23D6 JUMP JUMPDEST SWAP1 POP DUP4 PUSH20 0xFFFFFFFFFFFFFFFFFFFFFFFFFFFFFFFFFFFFFFFF AND DUP2 PUSH20 0xFFFFFFFFFFFFFFFFFFFFFFFFFFFFFFFFFFFFFFFF AND EQ PUSH2 0xE9A JUMPI DUP4 DUP3 DUP3 PUSH1 0x40 MLOAD PUSH32 0x64283D7B00000000000000000000000000000000000000000000000000000000 DUP2 MSTORE PUSH1 0x4 ADD PUSH2 0xE91 SWAP4 SWAP3 SWAP2 SWAP1 PUSH2 0x49F5 JUMP JUMPDEST PUSH1 0x40 MLOAD DUP1 SWAP2 SUB SWAP1 REVERT JUMPDEST POP POP POP POP JUMP JUMPDEST PUSH2 0xEA8 PUSH2 0x22EB JUMP JUMPDEST DUP1 PUSH1 0x9 SWAP1 DUP2 PUSH2 0xEB7 SWAP2 SWAP1 PUSH2 0x485E JUMP JUMPDEST POP POP JUMP JUMPDEST PUSH2 0xED5 DUP4 DUP4 DUP4 PUSH1 0x40 MLOAD DUP1 PUSH1 0x20 ADD PUSH1 0x40 MSTORE DUP1 PUSH0 DUP2 MSTORE POP PUSH2 0x1665 JUMP JUMPDEST POP POP POP JUMP JUMPDEST PUSH1 0xA DUP2 JUMP JUMPDEST PUSH2 0xEE7 PUSH2 0x25F3 JUMP JUMPDEST PUSH2 0xEF0 DUP3 PUSH2 0x26D9 JUMP JUMPDEST PUSH2 0xEFA DUP3 DUP3 PUSH2 0x26E4 JUMP JUMPDEST POP POP JUMP JUMPDEST PUSH0 PUSH2 0xF07 PUSH2 0x2802 JUMP JUMPDEST PUSH32 0x360894A13BA1A3210667C828492DB98DCA3E2076CC3735A920A3CA505D382BBC PUSH0 SHL SWAP1 POP SWAP1 JUMP JUMPDEST PUSH0 PUSH2 0xF39 DUP3 PUSH2 0x2205 JUMP JUMPDEST SWAP1 POP SWAP2 SWAP1 POP JUMP JUMPDEST PUSH0 DUP1 PUSH2 0xF4A PUSH2 0x21DE JUMP JUMPDEST SWAP1 POP PUSH0 PUSH20 0xFFFFFFFFFFFFFFFFFFFFFFFFFFFFFFFFFFFFFFFF AND DUP4 PUSH20 0xFFFFFFFFFFFFFFFFFFFFFFFFFFFFFFFFFFFFFFFF AND SUB PUSH2 0xFBC JUMPI PUSH0 PUSH1 0x40 MLOAD PUSH32 0x89C62B6400000000000000000000000000000000000000000000000000000000 DUP2 MSTORE PUSH1 0x4 ADD PUSH2 0xFB3 SWAP2 SWAP1 PUSH2 0x3E9F JUMP JUMPDEST PUSH1 0x40 MLOAD DUP1 SWAP2 SUB SWAP1 REVERT JUMPDEST DUP1 PUSH1 0x3 ADD PUSH0 DUP5 PUSH20 0xFFFFFFFFFFFFFFFFFFFFFFFFFFFFFFFFFFFFFFFF AND PUSH20 0xFFFFFFFFFFFFFFFFFFFFFFFFFFFFFFFFFFFFFFFF AND DUP2 MSTORE PUSH1 0x20 ADD SWAP1 DUP2 MSTORE PUSH1 0x20 ADD PUSH0 KECCAK256 SLOAD SWAP2 POP POP SWAP2 SWAP1 POP JUMP JUMPDEST PUSH2 0x100C PUSH2 0x22EB JUMP JUMPDEST PUSH2 0x1015 PUSH0 PUSH2 0x2889 JUMP JUMPDEST JUMP JUMPDEST PUSH0 DUP1 PUSH1 0xA PUSH0 DUP5 DUP2 MSTORE PUSH1 0x20 ADD SWAP1 DUP2 MSTORE PUSH1 0x20 ADD PUSH0 KECCAK256 PUSH0 ADD SLOAD SWAP2 POP PUSH1 0xA PUSH0 DUP5 DUP2 MSTORE PUSH1 0x20 ADD SWAP1 DUP2 MSTORE PUSH1 0x20 ADD PUSH0 KECCAK256 PUSH1 0x1 ADD SLOAD SWAP1 POP SWAP2 POP SWAP2 JUMP JUMPDEST PUSH0 DUP1 PUSH2 0x1055 PUSH2 0x295A JUMP JUMPDEST SWAP1 POP DUP1 PUSH0 ADD PUSH0 SWAP1 SLOAD SWAP1 PUSH2 0x100 EXP SWAP1 DIV PUSH20 0xFFFFFFFFFFFFFFFFFFFFFFFFFFFFFFFFFFFFFFFF AND SWAP2 POP POP SWAP1 JUMP JUMPDEST PUSH0 PUSH2 0x1089 PUSH2 0x2981 JUMP JUMPDEST SWAP1 POP PUSH0 DUP2 PUSH0 ADD PUSH1 0x8 SWAP1 SLOAD SWAP1 PUSH2 0x100 EXP SWAP1 DIV PUSH1 0xFF AND ISZERO SWAP1 POP PUSH0 DUP3 PUSH0 ADD PUSH0 SWAP1 SLOAD SWAP1 PUSH2 0x100 EXP SWAP1 DIV PUSH8 0xFFFFFFFFFFFFFFFF AND SWAP1 POP PUSH0 DUP1 DUP3 PUSH8 0xFFFFFFFFFFFFFFFF AND EQ DUP1 ISZERO PUSH2 0x10D1 JUMPI POP DUP3 JUMPDEST SWAP1 POP PUSH0 PUSH1 0x1 DUP4 PUSH8 0xFFFFFFFFFFFFFFFF AND EQ DUP1 ISZERO PUSH2 0x1104 JUMPI POP PUSH0 ADDRESS PUSH20 0xFFFFFFFFFFFFFFFFFFFFFFFFFFFFFFFFFFFFFFFF AND EXTCODESIZE EQ JUMPDEST SWAP1 POP DUP2 ISZERO DUP1 ISZERO PUSH2 0x1112 JUMPI POP DUP1 ISZERO JUMPDEST ISZERO PUSH2 0x1149 JUMPI PUSH1 0x40 MLOAD PUSH32 0xF92EE8A900000000000000000000000000000000000000000000000000000000 DUP2 MSTORE PUSH1 0x4 ADD PUSH1 0x40 MLOAD DUP1 SWAP2 SUB SWAP1 REVERT JUMPDEST PUSH1 0x1 DUP6 PUSH0 ADD PUSH0 PUSH2 0x100 EXP DUP2 SLOAD DUP2 PUSH8 0xFFFFFFFFFFFFFFFF MUL NOT AND SWAP1 DUP4 PUSH8 0xFFFFFFFFFFFFFFFF AND MUL OR SWAP1 SSTORE POP DUP4 ISZERO PUSH2 0x1196 JUMPI PUSH1 0x1 DUP6 PUSH0 ADD PUSH1 0x8 PUSH2 0x100 EXP DUP2 SLOAD DUP2 PUSH1 0xFF MUL NOT AND SWAP1 DUP4 ISZERO ISZERO MUL OR SWAP1 SSTORE POP JUMPDEST PUSH2 0x11A0 DUP8 DUP8 PUSH2 0x29A8 JUMP JUMPDEST PUSH2 0x11A8 PUSH2 0x29BE JUMP JUMPDEST PUSH2 0x11B1 DUP9 PUSH2 0x29C8 JUMP JUMPDEST PUSH2 0x11B9 PUSH2 0x29DC JUMP JUMPDEST PUSH0 PUSH1 0x5 DUP2 SWAP1 SSTORE POP DUP4 ISZERO PUSH2 0x121A JUMPI PUSH0 DUP6 PUSH0 ADD PUSH1 0x8 PUSH2 0x100 EXP DUP2 SLOAD DUP2 PUSH1 0xFF MUL NOT AND SWAP1 DUP4 ISZERO ISZERO MUL OR SWAP1 SSTORE POP PUSH32 0xC7F505B2F371AE2175EE4913F4499E1F2633A7B5936321EED1CDAEB6115181D2 PUSH1 0x1 PUSH1 0x40 MLOAD PUSH2 0x1211 SWAP2 SWAP1 PUSH2 0x4A76 JUMP JUMPDEST PUSH1 0x40 MLOAD DUP1 SWAP2 SUB SWAP1 LOG1 JUMPDEST POP POP POP POP POP POP POP POP JUMP JUMPDEST PUSH1 0x60 PUSH0 PUSH2 0x122F PUSH2 0x21DE JUMP JUMPDEST SWAP1 POP DUP1 PUSH1 0x1 ADD DUP1 SLOAD PUSH2 0x1240 SWAP1 PUSH2 0x4691 JUMP JUMPDEST DUP1 PUSH1 0x1F ADD PUSH1 0x20 DUP1 SWAP2 DIV MUL PUSH1 0x20 ADD PUSH1 0x40 MLOAD SWAP1 DUP2 ADD PUSH1 0x40 MSTORE DUP1 SWAP3 SWAP2 SWAP1 DUP2 DUP2 MSTORE PUSH1 0x20 ADD DUP3 DUP1 SLOAD PUSH2 0x126C SWAP1 PUSH2 0x4691 JUMP JUMPDEST DUP1 ISZERO PUSH2 0x12B7 JUMPI DUP1 PUSH1 0x1F LT PUSH2 0x128E JUMPI PUSH2 0x100 DUP1 DUP4 SLOAD DIV MUL DUP4 MSTORE SWAP2 PUSH1 0x20 ADD SWAP2 PUSH2 0x12B7 JUMP JUMPDEST DUP3 ADD SWAP2 SWAP1 PUSH0 MSTORE PUSH1 0x20 PUSH0 KECCAK256 SWAP1 JUMPDEST DUP2 SLOAD DUP2 MSTORE SWAP1 PUSH1 0x1 ADD SWAP1 PUSH1 0x20 ADD DUP1 DUP4 GT PUSH2 0x129A JUMPI DUP3 SWAP1 SUB PUSH1 0x1F AND DUP3 ADD SWAP2 JUMPDEST POP POP POP POP POP SWAP2 POP POP SWAP1 JUMP JUMPDEST PUSH0 CALLER PUSH20 0xFFFFFFFFFFFFFFFFFFFFFFFFFFFFFFFFFFFFFFFF AND PUSH2 0x12E3 DUP5 PUSH2 0xF2F JUMP JUMPDEST PUSH20 0xFFFFFFFFFFFFFFFFFFFFFFFFFFFFFFFFFFFFFFFF AND EQ DUP1 ISZERO PUSH2 0x1339 JUMPI POP CALLER PUSH20 0xFFFFFFFFFFFFFFFFFFFFFFFFFFFFFFFFFFFFFFFF AND PUSH2 0x1321 DUP4 PUSH2 0xF2F JUMP JUMPDEST PUSH20 0xFFFFFFFFFFFFFFFFFFFFFFFFFFFFFFFFFFFFFFFF AND EQ JUMPDEST PUSH2 0x1378 JUMPI PUSH1 0x40 MLOAD PUSH32 0x8C379A000000000000000000000000000000000000000000000000000000000 DUP2 MSTORE PUSH1 0x4 ADD PUSH2 0x136F SWAP1 PUSH2 0x4646 JUMP JUMPDEST PUSH1 0x40 MLOAD DUP1 SWAP2 SUB SWAP1 REVERT JUMPDEST PUSH2 0x1382 DUP4 DUP4 PUSH2 0x29E6 JUMP JUMPDEST ISZERO PUSH2 0x13C2 JUMPI PUSH1 0x40 MLOAD PUSH32 0x8C379A000000000000000000000000000000000000000000000000000000000 DUP2 MSTORE PUSH1 0x4 ADD PUSH2 0x13B9 SWAP1 PUSH2 0x4AD9 JUMP JUMPDEST PUSH1 0x40 MLOAD DUP1 SWAP2 SUB SWAP1 REVERT JUMPDEST PUSH2 0x13CB DUP4 PUSH2 0x2A71 JUMP JUMPDEST DUP1 ISZERO PUSH2 0x13DC JUMPI POP PUSH2 0x13DB DUP3 PUSH2 0x2A71 JUMP JUMPDEST JUMPDEST PUSH2 0x141B JUMPI PUSH1 0x40 MLOAD PUSH32 0x8C379A000000000000000000000000000000000000000000000000000000000 DUP2 MSTORE PUSH1 0x4 ADD PUSH2 0x1412 SWAP1 PUSH2 0x4B41 JUMP JUMPDEST PUSH1 0x40 MLOAD DUP1 SWAP2 SUB SWAP1 REVERT JUMPDEST PUSH2 0x1425 DUP4 DUP4 PUSH2 0x2A8F JUMP JUMPDEST PUSH2 0x1464 JUMPI PUSH1 0x40 MLOAD PUSH32 0x8C379A000000000000000000000000000000000000000000000000000000000 DUP2 MSTORE PUSH1 0x4 ADD PUSH2 0x145B SWAP1 PUSH2 0x4BA9 JUMP JUMPDEST PUSH1 0x40 MLOAD DUP1 SWAP2 SUB SWAP1 REVERT JUMPDEST PUSH2 0x146D DUP4 PUSH2 0x2ACE JUMP JUMPDEST PUSH2 0x1476 DUP3 PUSH2 0x2ACE JUMP JUMPDEST PUSH0 PUSH2 0x1482 DUP6 DUP6 DUP6 PUSH2 0x2B20 JUMP JUMPDEST SWAP1 POP DUP1 SWAP2 POP POP SWAP4 SWAP3 POP POP POP JUMP JUMPDEST PUSH2 0x14A1 PUSH2 0x149A PUSH2 0x22D2 JUMP JUMPDEST DUP4 DUP4 PUSH2 0x2B95 JUMP JUMPDEST POP POP JUMP JUMPDEST PUSH1 0x40 MLOAD DUP1 PUSH1 0x40 ADD PUSH1 0x40 MSTORE DUP1 PUSH1 0x5 DUP2 MSTORE PUSH1 0x20 ADD PUSH32 0x352E302E30000000000000000000000000000000000000000000000000000000 DUP2 MSTORE POP DUP2 JUMP JUMPDEST PUSH0 DUP1 PUSH0 DUP1 DUP5 DUP2 MSTORE PUSH1 0x20 ADD SWAP1 DUP2 MSTORE PUSH1 0x20 ADD PUSH0 KECCAK256 PUSH0 SWAP1 SLOAD SWAP1 PUSH2 0x100 EXP SWAP1 DIV PUSH1 0xFF AND SWAP2 POP PUSH0 TIMESTAMP SWAP1 POP PUSH0 PUSH1 0x3 DUP2 GT ISZERO PUSH2 0x1516 JUMPI PUSH2 0x1515 PUSH2 0x43E2 JUMP JUMPDEST JUMPDEST DUP4 PUSH1 0x3 DUP2 GT ISZERO PUSH2 0x1529 JUMPI PUSH2 0x1528 PUSH2 0x43E2 JUMP JUMPDEST JUMPDEST EQ DUP1 ISZERO PUSH2 0x1548 JUMPI POP DUP1 PUSH1 0x2 PUSH0 DUP7 DUP2 MSTORE PUSH1 0x20 ADD SWAP1 DUP2 MSTORE PUSH1 0x20 ADD PUSH0 KECCAK256 PUSH0 ADD SLOAD GT JUMPDEST ISZERO PUSH2 0x1573 JUMPI DUP1 PUSH1 0x2 PUSH0 DUP7 DUP2 MSTORE PUSH1 0x20 ADD SWAP1 DUP2 MSTORE PUSH1 0x20 ADD PUSH0 KECCAK256 PUSH0 ADD SLOAD PUSH2 0x156C SWAP2 SWAP1 PUSH2 0x4BC7 JUMP JUMPDEST SWAP2 POP PUSH2 0x165F JUMP JUMPDEST PUSH1 0x1 PUSH1 0x3 DUP2 GT ISZERO PUSH2 0x1587 JUMPI PUSH2 0x1586 PUSH2 0x43E2 JUMP JUMPDEST JUMPDEST DUP4 PUSH1 0x3 DUP2 GT ISZERO PUSH2 0x159A JUMPI PUSH2 0x1599 PUSH2 0x43E2 JUMP JUMPDEST JUMPDEST EQ DUP1 ISZERO PUSH2 0x15BA JUMPI POP DUP1 PUSH1 0x2 PUSH0 DUP7 DUP2 MSTORE PUSH1 0x20 ADD SWAP1 DUP2 MSTORE PUSH1 0x20 ADD PUSH0 KECCAK256 PUSH1 0x1 ADD SLOAD GT JUMPDEST ISZERO PUSH2 0x15E6 JUMPI DUP1 PUSH1 0x2 PUSH0 DUP7 DUP2 MSTORE PUSH1 0x20 ADD SWAP1 DUP2 MSTORE PUSH1 0x20 ADD PUSH0 KECCAK256 PUSH1 0x1 ADD SLOAD PUSH2 0x15DF SWAP2 SWAP1 PUSH2 0x4BC7 JUMP JUMPDEST SWAP2 POP PUSH2 0x165E JUMP JUMPDEST PUSH1 0x2 PUSH1 0x3 DUP2 GT ISZERO PUSH2 0x15FA JUMPI PUSH2 0x15F9 PUSH2 0x43E2 JUMP JUMPDEST JUMPDEST DUP4 PUSH1 0x3 DUP2 GT ISZERO PUSH2 0x160D JUMPI PUSH2 0x160C PUSH2 0x43E2 JUMP JUMPDEST JUMPDEST EQ DUP1 ISZERO PUSH2 0x162D JUMPI POP DUP1 PUSH1 0x2 PUSH0 DUP7 DUP2 MSTORE PUSH1 0x20 ADD SWAP1 DUP2 MSTORE PUSH1 0x20 ADD PUSH0 KECCAK256 PUSH1 0x2 ADD SLOAD GT JUMPDEST ISZERO PUSH2 0x1659 JUMPI DUP1 PUSH1 0x2 PUSH0 DUP7 DUP2 MSTORE PUSH1 0x20 ADD SWAP1 DUP2 MSTORE PUSH1 0x20 ADD PUSH0 KECCAK256 PUSH1 0x2 ADD SLOAD PUSH2 0x1652 SWAP2 SWAP1 PUSH2 0x4BC7 JUMP JUMPDEST SWAP2 POP PUSH2 0x165D JUMP JUMPDEST PUSH0 SWAP2 POP JUMPDEST JUMPDEST JUMPDEST POP SWAP2 POP SWAP2 JUMP JUMPDEST PUSH2 0x1670 DUP5 DUP5 DUP5 PUSH2 0xDA1 JUMP JUMPDEST PUSH2 0x167C DUP5 DUP5 DUP5 DUP5 PUSH2 0x2D0C JUMP JUMPDEST POP POP POP POP JUMP JUMPDEST PUSH2 0x168A PUSH2 0x22EB JUMP JUMPDEST DUP1 PUSH1 0x8 SWAP1 DUP2 PUSH2 0x1699 SWAP2 SWAP1 PUSH2 0x485E JUMP JUMPDEST POP POP JUMP JUMPDEST PUSH1 0x60 DUP1 PUSH0 PUSH1 0x6 DUP1 SLOAD PUSH2 0x16AE SWAP1 PUSH2 0x4691 JUMP JUMPDEST SWAP1 POP GT ISZERO PUSH2 0x16E9 JUMPI PUSH1 0x6 PUSH2 0x16C1 DUP5 PUSH2 0x2EBE JUMP JUMPDEST PUSH1 0x40 MLOAD PUSH1 0x20 ADD PUSH2 0x16D2 SWAP3 SWAP2 SWAP1 PUSH2 0x4CB4 JUMP JUMPDEST PUSH1 0x40 MLOAD PUSH1 0x20 DUP2 DUP4 SUB SUB DUP2 MSTORE SWAP1 PUSH1 0x40 MSTORE SWAP2 POP POP PUSH2 0x1B0D JUMP JUMPDEST PUSH0 PUSH1 0x3 DUP2 GT ISZERO PUSH2 0x16FC JUMPI PUSH2 0x16FB PUSH2 0x43E2 JUMP JUMPDEST JUMPDEST PUSH0 DUP1 DUP6 DUP2 MSTORE PUSH1 0x20 ADD SWAP1 DUP2 MSTORE PUSH1 0x20 ADD PUSH0 KECCAK256 PUSH0 SWAP1 SLOAD SWAP1 PUSH2 0x100 EXP SWAP1 DIV PUSH1 0xFF AND PUSH1 0x3 DUP2 GT ISZERO PUSH2 0x172B JUMPI PUSH2 0x172A PUSH2 0x43E2 JUMP JUMPDEST JUMPDEST SUB PUSH2 0x1769 JUMPI PUSH1 0x1 PUSH0 DUP5 DUP2 MSTORE PUSH1 0x20 ADD SWAP1 DUP2 MSTORE PUSH1 0x20 ADD PUSH0 KECCAK256 PUSH0 ADD PUSH1 0x40 MLOAD PUSH1 0x20 ADD PUSH2 0x1753 SWAP2 SWAP1 PUSH2 0x4D21 JUMP JUMPDEST PUSH1 0x40 MLOAD PUSH1 0x20 DUP2 DUP4 SUB SUB DUP2 MSTORE SWAP1 PUSH1 0x40 MSTORE SWAP1 POP PUSH2 0x1A22 JUMP JUMPDEST PUSH0 PUSH1 0x1 DUP1 PUSH0 DUP7 DUP2 MSTORE PUSH1 0x20 ADD SWAP1 DUP2 MSTORE PUSH1 0x20 ADD PUSH0 KECCAK256 PUSH1 0x4 ADD SLOAD EQ PUSH2 0x17C0 JUMPI PUSH1 0x40 MLOAD DUP1 PUSH1 0x40 ADD PUSH1 0x40 MSTORE DUP1 PUSH1 0x1 DUP2 MSTORE PUSH1 0x20 ADD PUSH32 0x6200000000000000000000000000000000000000000000000000000000000000 DUP2 MSTORE POP PUSH2 0x17F7 JUMP JUMPDEST PUSH1 0x40 MLOAD DUP1 PUSH1 0x40 ADD PUSH1 0x40 MSTORE DUP1 PUSH1 0x1 DUP2 MSTORE PUSH1 0x20 ADD PUSH32 0x6700000000000000000000000000000000000000000000000000000000000000 DUP2 MSTORE POP JUMPDEST SWAP1 POP PUSH0 PUSH1 0x1 DUP1 PUSH0 DUP8 DUP2 MSTORE PUSH1 0x20 ADD SWAP1 DUP2 MSTORE PUSH1 0x20 ADD PUSH0 KECCAK256 PUSH1 0x1 ADD SLOAD EQ PUSH2 0x1850 JUMPI PUSH1 0x40 MLOAD DUP1 PUSH1 0x40 ADD PUSH1 0x40 MSTORE DUP1 PUSH1 0x1 DUP2 MSTORE PUSH1 0x20 ADD PUSH32 0x6600000000000000000000000000000000000000000000000000000000000000 DUP2 MSTORE POP PUSH2 0x1887 JUMP JUMPDEST PUSH1 0x40 MLOAD DUP1 PUSH1 0x40 ADD PUSH1 0x40 MSTORE DUP1 PUSH1 0x1 DUP2 MSTORE PUSH1 0x20 ADD PUSH32 0x6D00000000000000000000000000000000000000000000000000000000000000 DUP2 MSTORE POP JUMPDEST SWAP1 POP PUSH1 0x60 PUSH0 DUP1 PUSH0 DUP9 DUP2 MSTORE PUSH1 0x20 ADD SWAP1 DUP2 MSTORE PUSH1 0x20 ADD PUSH0 KECCAK256 PUSH0 SWAP1 SLOAD SWAP1 PUSH2 0x100 EXP SWAP1 DIV PUSH1 0xFF AND SWAP1 POP PUSH1 0x1 PUSH1 0x3 DUP2 GT ISZERO PUSH2 0x18BF JUMPI PUSH2 0x18BE PUSH2 0x43E2 JUMP JUMPDEST JUMPDEST DUP2 PUSH1 0x3 DUP2 GT ISZERO PUSH2 0x18D2 JUMPI PUSH2 0x18D1 PUSH2 0x43E2 JUMP JUMPDEST JUMPDEST SUB PUSH2 0x1914 JUMPI PUSH1 0x40 MLOAD DUP1 PUSH1 0x40 ADD PUSH1 0x40 MSTORE DUP1 PUSH1 0x5 DUP2 MSTORE PUSH1 0x20 ADD PUSH32 0x6861746368000000000000000000000000000000000000000000000000000000 DUP2 MSTORE POP SWAP2 POP PUSH2 0x19E3 JUMP JUMPDEST PUSH1 0x2 PUSH1 0x3 DUP2 GT ISZERO PUSH2 0x1928 JUMPI PUSH2 0x1927 PUSH2 0x43E2 JUMP JUMPDEST JUMPDEST DUP2 PUSH1 0x3 DUP2 GT ISZERO PUSH2 0x193B JUMPI PUSH2 0x193A PUSH2 0x43E2 JUMP JUMPDEST JUMPDEST SUB PUSH2 0x197D JUMPI PUSH1 0x40 MLOAD DUP1 PUSH1 0x40 ADD PUSH1 0x40 MSTORE DUP1 PUSH1 0x9 DUP2 MSTORE PUSH1 0x20 ADD PUSH32 0x68617463686C696E670000000000000000000000000000000000000000000000 DUP2 MSTORE POP SWAP2 POP PUSH2 0x19E2 JUMP JUMPDEST PUSH1 0x3 DUP1 DUP2 GT ISZERO PUSH2 0x1990 JUMPI PUSH2 0x198F PUSH2 0x43E2 JUMP JUMPDEST JUMPDEST DUP2 PUSH1 0x3 DUP2 GT ISZERO PUSH2 0x19A3 JUMPI PUSH2 0x19A2 PUSH2 0x43E2 JUMP JUMPDEST JUMPDEST SUB PUSH2 0x19E1 JUMPI PUSH1 0x40 MLOAD DUP1 PUSH1 0x40 ADD PUSH1 0x40 MSTORE DUP1 PUSH1 0x5 DUP2 MSTORE PUSH1 0x20 ADD PUSH32 0x6164756C74000000000000000000000000000000000000000000000000000000 DUP2 MSTORE POP SWAP2 POP JUMPDEST JUMPDEST JUMPDEST PUSH1 0x1 PUSH0 DUP9 DUP2 MSTORE PUSH1 0x20 ADD SWAP1 DUP2 MSTORE PUSH1 0x20 ADD PUSH0 KECCAK256 PUSH0 ADD DUP5 DUP5 DUP5 PUSH1 0x40 MLOAD PUSH1 0x20 ADD PUSH2 0x1A0C SWAP5 SWAP4 SWAP3 SWAP2 SWAP1 PUSH2 0x4D8C JUMP JUMPDEST PUSH1 0x40 MLOAD PUSH1 0x20 DUP2 DUP4 SUB SUB DUP2 MSTORE SWAP1 PUSH1 0x40 MSTORE SWAP5 POP POP POP POP POP JUMPDEST PUSH0 PUSH2 0x1A2C DUP5 PUSH2 0x2EBE JUMP JUMPDEST PUSH1 0x7 DUP4 PUSH1 0x9 PUSH1 0x40 MLOAD PUSH1 0x20 ADD PUSH2 0x1A42 SWAP3 SWAP2 SWAP1 PUSH2 0x4DEA JUMP JUMPDEST PUSH1 0x40 MLOAD PUSH1 0x20 DUP2 DUP4 SUB SUB DUP2 MSTORE SWAP1 PUSH1 0x40 MSTORE PUSH1 0x40 MLOAD PUSH1 0x20 ADD PUSH2 0x1A63 SWAP4 SWAP3 SWAP2 SWAP1 PUSH2 0x4EED JUMP JUMPDEST PUSH1 0x40 MLOAD PUSH1 0x20 DUP2 DUP4 SUB SUB DUP2 MSTORE SWAP1 PUSH1 0x40 MSTORE SWAP1 POP PUSH0 PUSH1 0x1 PUSH0 DUP7 DUP2 MSTORE PUSH1 0x20 ADD SWAP1 DUP2 MSTORE PUSH1 0x20 ADD PUSH0 KECCAK256 PUSH0 ADD PUSH1 0x40 MLOAD PUSH1 0x20 ADD PUSH2 0x1A98 SWAP2 SWAP1 PUSH2 0x4FA3 JUMP JUMPDEST PUSH1 0x40 MLOAD PUSH1 0x20 DUP2 DUP4 SUB SUB DUP2 MSTORE SWAP1 PUSH1 0x40 MSTORE SWAP1 POP PUSH0 PUSH1 0x40 MLOAD DUP1 PUSH1 0x40 ADD PUSH1 0x40 MSTORE DUP1 PUSH1 0x4 DUP2 MSTORE PUSH1 0x20 ADD PUSH32 0x227D5D7D00000000000000000000000000000000000000000000000000000000 DUP2 MSTORE POP SWAP1 POP DUP3 DUP3 DUP3 PUSH1 0x40 MLOAD PUSH1 0x20 ADD PUSH2 0x1AF7 SWAP4 SWAP3 SWAP2 SWAP1 PUSH2 0x500E JUMP JUMPDEST PUSH1 0x40 MLOAD PUSH1 0x20 DUP2 DUP4 SUB SUB DUP2 MSTORE SWAP1 PUSH1 0x40 MSTORE SWAP5 POP POP POP POP POP JUMPDEST SWAP2 SWAP1 POP JUMP JUMPDEST PUSH1 0xA PUSH1 0xB SLOAD LT PUSH2 0x1B57 JUMPI PUSH1 0x40 MLOAD PUSH32 0x8C379A000000000000000000000000000000000000000000000000000000000 DUP2 MSTORE PUSH1 0x4 ADD PUSH2 0x1B4E SWAP1 PUSH2 0x5093 JUMP JUMPDEST PUSH1 0x40 MLOAD DUP1 SWAP2 SUB SWAP1 REVERT JUMPDEST PUSH1 0xB PUSH0 DUP2 SLOAD DUP1 SWAP3 SWAP2 SWAP1 PUSH2 0x1B69 SWAP1 PUSH2 0x50B1 JUMP JUMPDEST SWAP2 SWAP1 POP SSTORE POP PUSH2 0x1B7C DUP2 PUSH0 DUP1 PUSH1 0x1 DUP7 PUSH2 0x2F88 JUMP JUMPDEST POP POP POP JUMP JUMPDEST PUSH1 0x6 DUP1 SLOAD PUSH2 0x1B8E SWAP1 PUSH2 0x4691 JUMP JUMPDEST DUP1 PUSH1 0x1F ADD PUSH1 0x20 DUP1 SWAP2 DIV MUL PUSH1 0x20 ADD PUSH1 0x40 MLOAD SWAP1 DUP2 ADD PUSH1 0x40 MSTORE DUP1 SWAP3 SWAP2 SWAP1 DUP2 DUP2 MSTORE PUSH1 0x20 ADD DUP3 DUP1 SLOAD PUSH2 0x1BBA SWAP1 PUSH2 0x4691 JUMP JUMPDEST DUP1 ISZERO PUSH2 0x1C05 JUMPI DUP1 PUSH1 0x1F LT PUSH2 0x1BDC JUMPI PUSH2 0x100 DUP1 DUP4 SLOAD DIV MUL DUP4 MSTORE SWAP2 PUSH1 0x20 ADD SWAP2 PUSH2 0x1C05 JUMP JUMPDEST DUP3 ADD SWAP2 SWAP1 PUSH0 MSTORE PUSH1 0x20 PUSH0 KECCAK256 SWAP1 JUMPDEST DUP2 SLOAD DUP2 MSTORE SWAP1 PUSH1 0x1 ADD SWAP1 PUSH1 0x20 ADD DUP1 DUP4 GT PUSH2 0x1BE8 JUMPI DUP3 SWAP1 SUB PUSH1 0x1F AND DUP3 ADD SWAP2 JUMPDEST POP POP POP POP POP DUP2 JUMP JUMPDEST PUSH2 0x1C15 PUSH2 0x22EB JUMP JUMPDEST DUP1 PUSH1 0x6 SWAP1 DUP2 PUSH2 0x1C24 SWAP2 SWAP1 PUSH2 0x485E JUMP JUMPDEST POP POP JUMP JUMPDEST PUSH0 DUP1 PUSH2 0x1C32 PUSH2 0x21DE JUMP JUMPDEST SWAP1 POP DUP1 PUSH1 0x5 ADD PUSH0 DUP6 PUSH20 0xFFFFFFFFFFFFFFFFFFFFFFFFFFFFFFFFFFFFFFFF AND PUSH20 0xFFFFFFFFFFFFFFFFFFFFFFFFFFFFFFFFFFFFFFFF AND DUP2 MSTORE PUSH1 0x20 ADD SWAP1 DUP2 MSTORE PUSH1 0x20 ADD PUSH0 KECCAK256 PUSH0 DUP5 PUSH20 0xFFFFFFFFFFFFFFFFFFFFFFFFFFFFFFFFFFFFFFFF AND PUSH20 0xFFFFFFFFFFFFFFFFFFFFFFFFFFFFFFFFFFFFFFFF AND DUP2 MSTORE PUSH1 0x20 ADD SWAP1 DUP2 MSTORE PUSH1 0x20 ADD PUSH0 KECCAK256 PUSH0 SWAP1 SLOAD SWAP1 PUSH2 0x100 EXP SWAP1 DIV PUSH1 0xFF AND SWAP2 POP POP SWAP3 SWAP2 POP POP JUMP JUMPDEST PUSH1 0x8 DUP1 SLOAD PUSH2 0x1CD1 SWAP1 PUSH2 0x4691 JUMP JUMPDEST DUP1 PUSH1 0x1F ADD PUSH1 0x20 DUP1 SWAP2 DIV MUL PUSH1 0x20 ADD PUSH1 0x40 MLOAD SWAP1 DUP2 ADD PUSH1 0x40 MSTORE DUP1 SWAP3 SWAP2 SWAP1 DUP2 DUP2 MSTORE PUSH1 0x20 ADD DUP3 DUP1 SLOAD PUSH2 0x1CFD SWAP1 PUSH2 0x4691 JUMP JUMPDEST DUP1 ISZERO PUSH2 0x1D48 JUMPI DUP1 PUSH1 0x1F LT PUSH2 0x1D1F JUMPI PUSH2 0x100 DUP1 DUP4 SLOAD DIV MUL DUP4 MSTORE SWAP2 PUSH1 0x20 ADD SWAP2 PUSH2 0x1D48 JUMP JUMPDEST DUP3 ADD SWAP2 SWAP1 PUSH0 MSTORE PUSH1 0x20 PUSH0 KECCAK256 SWAP1 JUMPDEST DUP2 SLOAD DUP2 MSTORE SWAP1 PUSH1 0x1 ADD SWAP1 PUSH1 0x20 ADD DUP1 DUP4 GT PUSH2 0x1D2B JUMPI DUP3 SWAP1 SUB PUSH1 0x1F AND DUP3 ADD SWAP2 JUMPDEST POP POP POP POP POP DUP2 JUMP JUMPDEST CALLER PUSH20 0xFFFFFFFFFFFFFFFFFFFFFFFFFFFFFFFFFFFFFFFF AND PUSH2 0x1D70 DUP3 PUSH2 0xF2F JUMP JUMPDEST PUSH20 0xFFFFFFFFFFFFFFFFFFFFFFFFFFFFFFFFFFFFFFFF AND EQ PUSH2 0x1DC6 JUMPI PUSH1 0x40 MLOAD PUSH32 0x8C379A000000000000000000000000000000000000000000000000000000000 DUP2 MSTORE PUSH1 0x4 ADD PUSH2 0x1DBD SWAP1 PUSH2 0x4646 JUMP JUMPDEST PUSH1 0x40 MLOAD DUP1 SWAP2 SUB SWAP1 REVERT JUMPDEST PUSH0 DUP1 PUSH0 DUP4 DUP2 MSTORE PUSH1 0x20 ADD SWAP1 DUP2 MSTORE PUSH1 0x20 ADD PUSH0 KECCAK256 PUSH0 SWAP1 SLOAD SWAP1 PUSH2 0x100 EXP SWAP1 DIV PUSH1 0xFF AND SWAP1 POP PUSH0 PUSH1 0x3 DUP2 GT ISZERO PUSH2 0x1DF9 JUMPI PUSH2 0x1DF8 PUSH2 0x43E2 JUMP JUMPDEST JUMPDEST DUP2 PUSH1 0x3 DUP2 GT ISZERO PUSH2 0x1E0C JUMPI PUSH2 0x1E0B PUSH2 0x43E2 JUMP JUMPDEST JUMPDEST EQ DUP1 ISZERO PUSH2 0x1E2C JUMPI POP PUSH1 0x2 PUSH0 DUP4 DUP2 MSTORE PUSH1 0x20 ADD SWAP1 DUP2 MSTORE PUSH1 0x20 ADD PUSH0 KECCAK256 PUSH0 ADD SLOAD TIMESTAMP LT ISZERO JUMPDEST ISZERO PUSH2 0x1EB5 JUMPI PUSH1 0x1 PUSH0 DUP1 DUP5 DUP2 MSTORE PUSH1 0x20 ADD SWAP1 DUP2 MSTORE PUSH1 0x20 ADD PUSH0 KECCAK256 PUSH0 PUSH2 0x100 EXP DUP2 SLOAD DUP2 PUSH1 0xFF MUL NOT AND SWAP1 DUP4 PUSH1 0x3 DUP2 GT ISZERO PUSH2 0x1E64 JUMPI PUSH2 0x1E63 PUSH2 0x43E2 JUMP JUMPDEST JUMPDEST MUL OR SWAP1 SSTORE POP PUSH2 0x1E71 PUSH2 0x2372 JUMP JUMPDEST PUSH1 0x1 PUSH0 DUP5 DUP2 MSTORE PUSH1 0x20 ADD SWAP1 DUP2 MSTORE PUSH1 0x20 ADD PUSH0 KECCAK256 PUSH1 0x1 ADD DUP2 SWAP1 SSTORE POP PUSH3 0x2A300 TIMESTAMP PUSH2 0x1E98 SWAP2 SWAP1 PUSH2 0x495A JUMP JUMPDEST PUSH1 0x2 PUSH0 DUP5 DUP2 MSTORE PUSH1 0x20 ADD SWAP1 DUP2 MSTORE PUSH1 0x20 ADD PUSH0 KECCAK256 PUSH1 0x1 ADD DUP2 SWAP1 SSTORE POP PUSH2 0x2033 JUMP JUMPDEST PUSH1 0x1 PUSH1 0x3 DUP2 GT ISZERO PUSH2 0x1EC9 JUMPI PUSH2 0x1EC8 PUSH2 0x43E2 JUMP JUMPDEST JUMPDEST DUP2 PUSH1 0x3 DUP2 GT ISZERO PUSH2 0x1EDC JUMPI PUSH2 0x1EDB PUSH2 0x43E2 JUMP JUMPDEST JUMPDEST EQ DUP1 ISZERO PUSH2 0x1EFD JUMPI POP PUSH1 0x2 PUSH0 DUP4 DUP2 MSTORE PUSH1 0x20 ADD SWAP1 DUP2 MSTORE PUSH1 0x20 ADD PUSH0 KECCAK256 PUSH1 0x1 ADD SLOAD TIMESTAMP LT ISZERO JUMPDEST ISZERO PUSH2 0x1F66 JUMPI PUSH1 0x2 PUSH0 DUP1 DUP5 DUP2 MSTORE PUSH1 0x20 ADD SWAP1 DUP2 MSTORE PUSH1 0x20 ADD PUSH0 KECCAK256 PUSH0 PUSH2 0x100 EXP DUP2 SLOAD DUP2 PUSH1 0xFF MUL NOT AND SWAP1 DUP4 PUSH1 0x3 DUP2 GT ISZERO PUSH2 0x1F35 JUMPI PUSH2 0x1F34 PUSH2 0x43E2 JUMP JUMPDEST JUMPDEST MUL OR SWAP1 SSTORE POP PUSH3 0x3F480 TIMESTAMP PUSH2 0x1F49 SWAP2 SWAP1 PUSH2 0x495A JUMP JUMPDEST PUSH1 0x2 PUSH0 DUP5 DUP2 MSTORE PUSH1 0x20 ADD SWAP1 DUP2 MSTORE PUSH1 0x20 ADD PUSH0 KECCAK256 PUSH1 0x2 ADD DUP2 SWAP1 SSTORE POP PUSH2 0x2032 JUMP JUMPDEST PUSH1 0x2 PUSH1 0x3 DUP2 GT ISZERO PUSH2 0x1F7A JUMPI PUSH2 0x1F79 PUSH2 0x43E2 JUMP JUMPDEST JUMPDEST DUP2 PUSH1 0x3 DUP2 GT ISZERO PUSH2 0x1F8D JUMPI PUSH2 0x1F8C PUSH2 0x43E2 JUMP JUMPDEST JUMPDEST EQ DUP1 ISZERO PUSH2 0x1FAE JUMPI POP PUSH1 0x2 PUSH0 DUP4 DUP2 MSTORE PUSH1 0x20 ADD SWAP1 DUP2 MSTORE PUSH1 0x20 ADD PUSH0 KECCAK256 PUSH1 0x2 ADD SLOAD TIMESTAMP LT ISZERO JUMPDEST ISZERO PUSH2 0x1FF0 JUMPI PUSH1 0x3 PUSH0 DUP1 DUP5 DUP2 MSTORE PUSH1 0x20 ADD SWAP1 DUP2 MSTORE PUSH1 0x20 ADD PUSH0 KECCAK256 PUSH0 PUSH2 0x100 EXP DUP2 SLOAD DUP2 PUSH1 0xFF MUL NOT AND SWAP1 DUP4 PUSH1 0x3 DUP2 GT ISZERO PUSH2 0x1FE6 JUMPI PUSH2 0x1FE5 PUSH2 0x43E2 JUMP JUMPDEST JUMPDEST MUL OR SWAP1 SSTORE POP PUSH2 0x2031 JUMP JUMPDEST PUSH0 PUSH2 0x2030 JUMPI PUSH1 0x40 MLOAD PUSH32 0x8C379A000000000000000000000000000000000000000000000000000000000 DUP2 MSTORE PUSH1 0x4 ADD PUSH2 0x2027 SWAP1 PUSH2 0x49D7 JUMP JUMPDEST PUSH1 0x40 MLOAD DUP1 SWAP2 SUB SWAP1 REVERT JUMPDEST JUMPDEST JUMPDEST JUMPDEST POP POP JUMP JUMPDEST PUSH1 0x7 DUP1 SLOAD PUSH2 0x2044 SWAP1 PUSH2 0x4691 JUMP JUMPDEST DUP1 PUSH1 0x1F ADD PUSH1 0x20 DUP1 SWAP2 DIV MUL PUSH1 0x20 ADD PUSH1 0x40 MLOAD SWAP1 DUP2 ADD PUSH1 0x40 MSTORE DUP1 SWAP3 SWAP2 SWAP1 DUP2 DUP2 MSTORE PUSH1 0x20 ADD DUP3 DUP1 SLOAD PUSH2 0x2070 SWAP1 PUSH2 0x4691 JUMP JUMPDEST DUP1 ISZERO PUSH2 0x20BB JUMPI DUP1 PUSH1 0x1F LT PUSH2 0x2092 JUMPI PUSH2 0x100 DUP1 DUP4 SLOAD DIV MUL DUP4 MSTORE SWAP2 PUSH1 0x20 ADD SWAP2 PUSH2 0x20BB JUMP JUMPDEST DUP3 ADD SWAP2 SWAP1 PUSH0 MSTORE PUSH1 0x20 PUSH0 KECCAK256 SWAP1 JUMPDEST DUP2 SLOAD DUP2 MSTORE SWAP1 PUSH1 0x1 ADD SWAP1 PUSH1 0x20 ADD DUP1 DUP4 GT PUSH2 0x209E JUMPI DUP3 SWAP1 SUB PUSH1 0x1F AND DUP3 ADD SWAP2 JUMPDEST POP POP POP POP POP DUP2 JUMP JUMPDEST PUSH2 0x20CB PUSH2 0x22EB JUMP JUMPDEST PUSH0 PUSH20 0xFFFFFFFFFFFFFFFFFFFFFFFFFFFFFFFFFFFFFFFF AND DUP2 PUSH20 0xFFFFFFFFFFFFFFFFFFFFFFFFFFFFFFFFFFFFFFFF AND SUB PUSH2 0x213B JUMPI PUSH0 PUSH1 0x40 MLOAD PUSH32 0x1E4FBDF700000000000000000000000000000000000000000000000000000000 DUP2 MSTORE PUSH1 0x4 ADD PUSH2 0x2132 SWAP2 SWAP1 PUSH2 0x3E9F JUMP JUMPDEST PUSH1 0x40 MLOAD DUP1 SWAP2 SUB SWAP1 REVERT JUMPDEST PUSH2 0x2144 DUP2 PUSH2 0x2889 JUMP JUMPDEST POP JUMP JUMPDEST PUSH1 0xB SLOAD DUP2 JUMP JUMPDEST PUSH0 DUP2 DUP5 DUP5 PUSH2 0x215B SWAP2 SWAP1 PUSH2 0x4BC7 JUMP JUMPDEST LT PUSH2 0x2173 JUMPI DUP2 DUP4 PUSH2 0x216C SWAP2 SWAP1 PUSH2 0x4BC7 JUMP JUMPDEST SWAP1 POP PUSH2 0x2177 JUMP JUMPDEST PUSH0 SWAP1 POP JUMPDEST SWAP4 SWAP3 POP POP POP JUMP JUMPDEST PUSH0 PUSH4 0x49064906 PUSH1 0xE0 SHL PUSH28 0xFFFFFFFFFFFFFFFFFFFFFFFFFFFFFFFFFFFFFFFFFFFFFFFFFFFFFFFF NOT AND DUP3 PUSH28 0xFFFFFFFFFFFFFFFFFFFFFFFFFFFFFFFFFFFFFFFFFFFFFFFFFFFFFFFF NOT AND EQ DUP1 PUSH2 0x21D7 JUMPI POP PUSH2 0x21D6 DUP3 PUSH2 0x3110 JUMP JUMPDEST JUMPDEST SWAP1 POP SWAP2 SWAP1 POP JUMP JUMPDEST PUSH0 PUSH32 0x80BB2B638CC20BC4D0A60D66940F3AB4A00C1D7B313497CA82FB0B4AB0079300 SWAP1 POP SWAP1 JUMP JUMPDEST PUSH0 DUP1 PUSH2 0x2210 DUP4 PUSH2 0x31F1 JUMP JUMPDEST SWAP1 POP PUSH0 PUSH20 0xFFFFFFFFFFFFFFFFFFFFFFFFFFFFFFFFFFFFFFFF AND DUP2 PUSH20 0xFFFFFFFFFFFFFFFFFFFFFFFFFFFFFFFFFFFFFFFF AND SUB PUSH2 0x2282 JUMPI DUP3 PUSH1 0x40 MLOAD PUSH32 0x7E27328900000000000000000000000000000000000000000000000000000000 DUP2 MSTORE PUSH1 0x4 ADD PUSH2 0x2279 SWAP2 SWAP1 PUSH2 0x40F2 JUMP JUMPDEST PUSH1 0x40 MLOAD DUP1 SWAP2 SUB SWAP1 REVERT JUMPDEST DUP1 SWAP2 POP POP SWAP2 SWAP1 POP JUMP JUMPDEST PUSH0 DUP1 PUSH2 0x2295 PUSH2 0x21DE JUMP JUMPDEST SWAP1 POP DUP1 PUSH1 0x4 ADD PUSH0 DUP5 DUP2 MSTORE PUSH1 0x20 ADD SWAP1 DUP2 MSTORE PUSH1 0x20 ADD PUSH0 KECCAK256 PUSH0 SWAP1 SLOAD SWAP1 PUSH2 0x100 EXP SWAP1 DIV PUSH20 0xFFFFFFFFFFFFFFFFFFFFFFFFFFFFFFFFFFFFFFFF AND SWAP2 POP POP SWAP2 SWAP1 POP JUMP JUMPDEST PUSH0 CALLER SWAP1 POP SWAP1 JUMP JUMPDEST PUSH2 0x22E6 DUP4 DUP4 DUP4 PUSH1 0x1 PUSH2 0x3238 JUMP JUMPDEST POP POP POP JUMP JUMPDEST PUSH2 0x22F3 PUSH2 0x22D2 JUMP JUMPDEST PUSH20 0xFFFFFFFFFFFFFFFFFFFFFFFFFFFFFFFFFFFFFFFF AND PUSH2 0x2311 PUSH2 0x104B JUMP JUMPDEST PUSH20 0xFFFFFFFFFFFFFFFFFFFFFFFFFFFFFFFFFFFFFFFF AND EQ PUSH2 0x2370 JUMPI PUSH2 0x2334 PUSH2 0x22D2 JUMP JUMPDEST PUSH1 0x40 MLOAD PUSH32 0x118CDAA700000000000000000000000000000000000000000000000000000000 DUP2 MSTORE PUSH1 0x4 ADD PUSH2 0x2367 SWAP2 SWAP1 PUSH2 0x3E9F JUMP JUMPDEST PUSH1 0x40 MLOAD DUP1 SWAP2 SUB SWAP1 REVERT JUMPDEST JUMP JUMPDEST PUSH0 PUSH1 0x5 PUSH0 DUP2 SLOAD DUP1 SWAP3 SWAP2 SWAP1 PUSH2 0x2385 SWAP1 PUSH2 0x50B1 JUMP JUMPDEST SWAP2 SWAP1 POP SSTORE POP PUSH1 0x1 PUSH1 0x2 TIMESTAMP CALLER PUSH1 0x5 SLOAD PUSH1 0x40 MLOAD PUSH1 0x20 ADD PUSH2 0x23A5 SWAP4 SWAP3 SWAP2 SWAP1 PUSH2 0x515D JUMP JUMPDEST PUSH1 0x40 MLOAD PUSH1 0x20 DUP2 DUP4 SUB SUB DUP2 MSTORE SWAP1 PUSH1 0x40 MSTORE DUP1 MLOAD SWAP1 PUSH1 0x20 ADD KECCAK256 PUSH0 SHR PUSH2 0x23C7 SWAP2 SWAP1 PUSH2 0x51C6 JUMP JUMPDEST PUSH2 0x23D1 SWAP2 SWAP1 PUSH2 0x495A JUMP JUMPDEST SWAP1 POP SWAP1 JUMP JUMPDEST PUSH0 DUP1 PUSH2 0x23E0 PUSH2 0x21DE JUMP JUMPDEST SWAP1 POP PUSH0 PUSH2 0x23EC DUP6 PUSH2 0x31F1 JUMP JUMPDEST SWAP1 POP PUSH0 PUSH20 0xFFFFFFFFFFFFFFFFFFFFFFFFFFFFFFFFFFFFFFFF AND DUP5 PUSH20 0xFFFFFFFFFFFFFFFFFFFFFFFFFFFFFFFFFFFFFFFF AND EQ PUSH2 0x242D JUMPI PUSH2 0x242C DUP2 DUP6 DUP8 PUSH2 0x3405 JUMP JUMPDEST JUMPDEST PUSH0 PUSH20 0xFFFFFFFFFFFFFFFFFFFFFFFFFFFFFFFFFFFFFFFF AND DUP2 PUSH20 0xFFFFFFFFFFFFFFFFFFFFFFFFFFFFFFFFFFFFFFFF AND EQ PUSH2 0x24BA JUMPI PUSH2 0x246C PUSH0 DUP7 PUSH0 DUP1 PUSH2 0x3238 JUMP JUMPDEST PUSH1 0x1 DUP3 PUSH1 0x3 ADD PUSH0 DUP4 PUSH20 0xFFFFFFFFFFFFFFFFFFFFFFFFFFFFFFFFFFFFFFFF AND PUSH20 0xFFFFFFFFFFFFFFFFFFFFFFFFFFFFFFFFFFFFFFFF AND DUP2 MSTORE PUSH1 0x20 ADD SWAP1 DUP2 MSTORE PUSH1 0x20 ADD PUSH0 KECCAK256 PUSH0 DUP3 DUP3 SLOAD SUB SWAP3 POP POP DUP2 SWAP1 SSTORE POP JUMPDEST PUSH0 PUSH20 0xFFFFFFFFFFFFFFFFFFFFFFFFFFFFFFFFFFFFFFFF AND DUP7 PUSH20 0xFFFFFFFFFFFFFFFFFFFFFFFFFFFFFFFFFFFFFFFF AND EQ PUSH2 0x253B JUMPI PUSH1 0x1 DUP3 PUSH1 0x3 ADD PUSH0 DUP9 PUSH20 0xFFFFFFFFFFFFFFFFFFFFFFFFFFFFFFFFFFFFFFFF AND PUSH20 0xFFFFFFFFFFFFFFFFFFFFFFFFFFFFFFFFFFFFFFFF AND DUP2 MSTORE PUSH1 0x20 ADD SWAP1 DUP2 MSTORE PUSH1 0x20 ADD PUSH0 KECCAK256 PUSH0 DUP3 DUP3 SLOAD ADD SWAP3 POP POP DUP2 SWAP1 SSTORE POP JUMPDEST DUP6 DUP3 PUSH1 0x2 ADD PUSH0 DUP8 DUP2 MSTORE PUSH1 0x20 ADD SWAP1 DUP2 MSTORE PUSH1 0x20 ADD PUSH0 KECCAK256 PUSH0 PUSH2 0x100 EXP DUP2 SLOAD DUP2 PUSH20 0xFFFFFFFFFFFFFFFFFFFFFFFFFFFFFFFFFFFFFFFF MUL NOT AND SWAP1 DUP4 PUSH20 0xFFFFFFFFFFFFFFFFFFFFFFFFFFFFFFFFFFFFFFFF AND MUL OR SWAP1 SSTORE POP DUP5 DUP7 PUSH20 0xFFFFFFFFFFFFFFFFFFFFFFFFFFFFFFFFFFFFFFFF AND DUP3 PUSH20 0xFFFFFFFFFFFFFFFFFFFFFFFFFFFFFFFFFFFFFFFF AND PUSH32 0xDDF252AD1BE2C89B69C2B068FC378DAA952BA7F163C4A11628F55A4DF523B3EF PUSH1 0x40 MLOAD PUSH1 0x40 MLOAD DUP1 SWAP2 SUB SWAP1 LOG4 DUP1 SWAP3 POP POP POP SWAP4 SWAP3 POP POP POP JUMP JUMPDEST PUSH32 0x0 PUSH20 0xFFFFFFFFFFFFFFFFFFFFFFFFFFFFFFFFFFFFFFFF AND ADDRESS PUSH20 0xFFFFFFFFFFFFFFFFFFFFFFFFFFFFFFFFFFFFFFFF AND EQ DUP1 PUSH2 0x26A0 JUMPI POP PUSH32 0x0 PUSH20 0xFFFFFFFFFFFFFFFFFFFFFFFFFFFFFFFFFFFFFFFF AND PUSH2 0x2687 PUSH2 0x34C8 JUMP JUMPDEST PUSH20 0xFFFFFFFFFFFFFFFFFFFFFFFFFFFFFFFFFFFFFFFF AND EQ ISZERO JUMPDEST ISZERO PUSH2 0x26D7 JUMPI PUSH1 0x40 MLOAD PUSH32 0xE07C8DBA00000000000000000000000000000000000000000000000000000000 DUP2 MSTORE PUSH1 0x4 ADD PUSH1 0x40 MLOAD DUP1 SWAP2 SUB SWAP1 REVERT JUMPDEST JUMP JUMPDEST PUSH2 0x26E1 PUSH2 0x22EB JUMP JUMPDEST POP JUMP JUMPDEST DUP2 PUSH20 0xFFFFFFFFFFFFFFFFFFFFFFFFFFFFFFFFFFFFFFFF AND PUSH4 0x52D1902D PUSH1 0x40 MLOAD DUP2 PUSH4 0xFFFFFFFF AND PUSH1 0xE0 SHL DUP2 MSTORE PUSH1 0x4 ADD PUSH1 0x20 PUSH1 0x40 MLOAD DUP1 DUP4 SUB DUP2 DUP7 GAS STATICCALL SWAP3 POP POP POP DUP1 ISZERO PUSH2 0x274C JUMPI POP PUSH1 0x40 MLOAD RETURNDATASIZE PUSH1 0x1F NOT PUSH1 0x1F DUP3 ADD AND DUP3 ADD DUP1 PUSH1 0x40 MSTORE POP DUP2 ADD SWAP1 PUSH2 0x2749 SWAP2 SWAP1 PUSH2 0x5220 JUMP JUMPDEST PUSH1 0x1 JUMPDEST PUSH2 0x278D JUMPI DUP2 PUSH1 0x40 MLOAD PUSH32 0x4C9C8CE300000000000000000000000000000000000000000000000000000000 DUP2 MSTORE PUSH1 0x4 ADD PUSH2 0x2784 SWAP2 SWAP1 PUSH2 0x3E9F JUMP JUMPDEST PUSH1 0x40 MLOAD DUP1 SWAP2 SUB SWAP1 REVERT JUMPDEST PUSH32 0x360894A13BA1A3210667C828492DB98DCA3E2076CC3735A920A3CA505D382BBC PUSH0 SHL DUP2 EQ PUSH2 0x27F3 JUMPI DUP1 PUSH1 0x40 MLOAD PUSH32 0xAA1D49A400000000000000000000000000000000000000000000000000000000 DUP2 MSTORE PUSH1 0x4 ADD PUSH2 0x27EA SWAP2 SWAP1 PUSH2 0x421B JUMP JUMPDEST PUSH1 0x40 MLOAD DUP1 SWAP2 SUB SWAP1 REVERT JUMPDEST PUSH2 0x27FD DUP4 DUP4 PUSH2 0x351B JUMP JUMPDEST POP POP POP JUMP JUMPDEST PUSH32 0x0 PUSH20 0xFFFFFFFFFFFFFFFFFFFFFFFFFFFFFFFFFFFFFFFF AND ADDRESS PUSH20 0xFFFFFFFFFFFFFFFFFFFFFFFFFFFFFFFFFFFFFFFF AND EQ PUSH2 0x2887 JUMPI PUSH1 0x40 MLOAD PUSH32 0xE07C8DBA00000000000000000000000000000000000000000000000000000000 DUP2 MSTORE PUSH1 0x4 ADD PUSH1 0x40 MLOAD DUP1 SWAP2 SUB SWAP1 REVERT JUMPDEST JUMP JUMPDEST PUSH0 PUSH2 0x2892 PUSH2 0x295A JUMP JUMPDEST SWAP1 POP PUSH0 DUP2 PUSH0 ADD PUSH0 SWAP1 SLOAD SWAP1 PUSH2 0x100 EXP SWAP1 DIV PUSH20 0xFFFFFFFFFFFFFFFFFFFFFFFFFFFFFFFFFFFFFFFF AND SWAP1 POP DUP3 DUP3 PUSH0 ADD PUSH0 PUSH2 0x100 EXP DUP2 SLOAD DUP2 PUSH20 0xFFFFFFFFFFFFFFFFFFFFFFFFFFFFFFFFFFFFFFFF MUL NOT AND SWAP1 DUP4 PUSH20 0xFFFFFFFFFFFFFFFFFFFFFFFFFFFFFFFFFFFFFFFF AND MUL OR SWAP1 SSTORE POP DUP3 PUSH20 0xFFFFFFFFFFFFFFFFFFFFFFFFFFFFFFFFFFFFFFFF AND DUP2 PUSH20 0xFFFFFFFFFFFFFFFFFFFFFFFFFFFFFFFFFFFFFFFF AND PUSH32 0x8BE0079C531659141344CD1FD0A4F28419497F9722A3DAAFE3B4186F6B6457E0 PUSH1 0x40 MLOAD PUSH1 0x40 MLOAD DUP1 SWAP2 SUB SWAP1 LOG3 POP POP POP JUMP JUMPDEST PUSH0 PUSH32 0x9016D09D72D40FDAE2FD8CEAC6B6234C7706214FD39C1CD1E609A0528C199300 SWAP1 POP SWAP1 JUMP JUMPDEST PUSH0 PUSH32 0xF0C57E16840DF040F15088DC2F81FE391C3923BEC73E23A9662EFC9C229C6A00 SWAP1 POP SWAP1 JUMP JUMPDEST PUSH2 0x29B0 PUSH2 0x358D JUMP JUMPDEST PUSH2 0x29BA DUP3 DUP3 PUSH2 0x35CD JUMP JUMPDEST POP POP JUMP JUMPDEST PUSH2 0x29C6 PUSH2 0x358D JUMP JUMPDEST JUMP JUMPDEST PUSH2 0x29D0 PUSH2 0x358D JUMP JUMPDEST PUSH2 0x29D9 DUP2 PUSH2 0x3608 JUMP JUMPDEST POP JUMP JUMPDEST PUSH2 0x29E4 PUSH2 0x358D JUMP JUMPDEST JUMP JUMPDEST PUSH0 DUP1 PUSH1 0x1 PUSH0 DUP6 DUP2 MSTORE PUSH1 0x20 ADD SWAP1 DUP2 MSTORE PUSH1 0x20 ADD PUSH0 KECCAK256 SWAP1 POP PUSH0 PUSH1 0x1 PUSH0 DUP6 DUP2 MSTORE PUSH1 0x20 ADD SWAP1 DUP2 MSTORE PUSH1 0x20 ADD PUSH0 KECCAK256 SWAP1 POP PUSH1 0x1 DUP3 PUSH1 0x4 ADD SLOAD EQ DUP1 PUSH2 0x2A26 JUMPI POP PUSH1 0x1 DUP2 PUSH1 0x4 ADD SLOAD EQ JUMPDEST ISZERO PUSH2 0x2A35 JUMPI PUSH0 SWAP3 POP POP POP PUSH2 0x2A6B JUMP JUMPDEST DUP1 PUSH1 0x2 ADD SLOAD DUP3 PUSH1 0x2 ADD SLOAD EQ ISZERO DUP1 ISZERO PUSH2 0x2A55 JUMPI POP DUP1 PUSH1 0x3 ADD SLOAD DUP3 PUSH1 0x3 ADD SLOAD EQ ISZERO JUMPDEST ISZERO PUSH2 0x2A64 JUMPI PUSH0 SWAP3 POP POP POP PUSH2 0x2A6B JUMP JUMPDEST PUSH1 0x1 SWAP3 POP POP POP JUMPDEST SWAP3 SWAP2 POP POP JUMP JUMPDEST PUSH0 TIMESTAMP PUSH1 0xA PUSH0 DUP5 DUP2 MSTORE PUSH1 0x20 ADD SWAP1 DUP2 MSTORE PUSH1 0x20 ADD PUSH0 KECCAK256 PUSH0 ADD SLOAD LT SWAP1 POP SWAP2 SWAP1 POP JUMP JUMPDEST PUSH0 DUP1 PUSH1 0x1 PUSH0 DUP6 DUP2 MSTORE PUSH1 0x20 ADD SWAP1 DUP2 MSTORE PUSH1 0x20 ADD PUSH0 KECCAK256 SWAP1 POP PUSH0 PUSH1 0x1 PUSH0 DUP6 DUP2 MSTORE PUSH1 0x20 ADD SWAP1 DUP2 MSTORE PUSH1 0x20 ADD PUSH0 KECCAK256 SWAP1 POP DUP1 PUSH1 0x1 ADD SLOAD DUP3 PUSH1 0x1 ADD SLOAD EQ ISZERO SWAP3 POP POP POP SWAP3 SWAP2 POP POP JUMP JUMPDEST PUSH1 0xA PUSH0 DUP3 DUP2 MSTORE PUSH1 0x20 ADD SWAP1 DUP2 MSTORE PUSH1 0x20 ADD PUSH0 KECCAK256 PUSH1 0x1 ADD PUSH0 DUP2 SLOAD DUP1 SWAP3 SWAP2 SWAP1 PUSH2 0x2AF2 SWAP1 PUSH2 0x50B1 JUMP JUMPDEST SWAP2 SWAP1 POP SSTORE POP PUSH3 0x3F480 TIMESTAMP PUSH2 0x2B06 SWAP2 SWAP1 PUSH2 0x495A JUMP JUMPDEST PUSH1 0xA PUSH0 DUP4 DUP2 MSTORE PUSH1 0x20 ADD SWAP1 DUP2 MSTORE PUSH1 0x20 ADD PUSH0 KECCAK256 PUSH0 ADD DUP2 SWAP1 SSTORE POP POP JUMP JUMPDEST PUSH0 DUP1 PUSH1 0x1 PUSH0 DUP6 DUP2 MSTORE PUSH1 0x20 ADD SWAP1 DUP2 MSTORE PUSH1 0x20 ADD PUSH0 KECCAK256 SWAP1 POP PUSH0 PUSH1 0x1 PUSH0 DUP6 DUP2 MSTORE PUSH1 0x20 ADD SWAP1 DUP2 MSTORE PUSH1 0x20 ADD PUSH0 KECCAK256 SWAP1 POP PUSH0 DUP2 PUSH1 0x4 ADD SLOAD DUP4 PUSH1 0x4 ADD SLOAD GT PUSH2 0x2B63 JUMPI DUP2 PUSH1 0x4 ADD SLOAD PUSH2 0x2B69 JUMP JUMPDEST DUP3 PUSH1 0x4 ADD SLOAD JUMPDEST SWAP1 POP PUSH0 PUSH2 0x2B85 DUP9 DUP9 DUP9 PUSH1 0x1 DUP7 PUSH2 0x2B7F SWAP2 SWAP1 PUSH2 0x495A JUMP JUMPDEST CALLER PUSH2 0x2F88 JUMP JUMPDEST SWAP1 POP DUP1 SWAP5 POP POP POP POP POP SWAP4 SWAP3 POP POP POP JUMP JUMPDEST PUSH0 PUSH2 0x2B9E PUSH2 0x21DE JUMP JUMPDEST SWAP1 POP PUSH0 PUSH20 0xFFFFFFFFFFFFFFFFFFFFFFFFFFFFFFFFFFFFFFFF AND DUP4 PUSH20 0xFFFFFFFFFFFFFFFFFFFFFFFFFFFFFFFFFFFFFFFF AND SUB PUSH2 0x2C10 JUMPI DUP3 PUSH1 0x40 MLOAD PUSH32 0x5B08BA1800000000000000000000000000000000000000000000000000000000 DUP2 MSTORE PUSH1 0x4 ADD PUSH2 0x2C07 SWAP2 SWAP1 PUSH2 0x3E9F JUMP JUMPDEST PUSH1 0x40 MLOAD DUP1 SWAP2 SUB SWAP1 REVERT JUMPDEST DUP2 DUP2 PUSH1 0x5 ADD PUSH0 DUP7 PUSH20 0xFFFFFFFFFFFFFFFFFFFFFFFFFFFFFFFFFFFFFFFF AND PUSH20 0xFFFFFFFFFFFFFFFFFFFFFFFFFFFFFFFFFFFFFFFF AND DUP2 MSTORE PUSH1 0x20 ADD SWAP1 DUP2 MSTORE PUSH1 0x20 ADD PUSH0 KECCAK256 PUSH0 DUP6 PUSH20 0xFFFFFFFFFFFFFFFFFFFFFFFFFFFFFFFFFFFFFFFF AND PUSH20 0xFFFFFFFFFFFFFFFFFFFFFFFFFFFFFFFFFFFFFFFF AND DUP2 MSTORE PUSH1 0x20 ADD SWAP1 DUP2 MSTORE PUSH1 0x20 ADD PUSH0 KECCAK256 PUSH0 PUSH2 0x100 EXP DUP2 SLOAD DUP2 PUSH1 0xFF MUL NOT AND SWAP1 DUP4 ISZERO ISZERO MUL OR SWAP1 SSTORE POP DUP3 PUSH20 0xFFFFFFFFFFFFFFFFFFFFFFFFFFFFFFFFFFFFFFFF AND DUP5 PUSH20 0xFFFFFFFFFFFFFFFFFFFFFFFFFFFFFFFFFFFFFFFF AND PUSH32 0x17307EAB39AB6107E8899845AD3D59BD9653F200F220920489CA2B5937696C31 DUP5 PUSH1 0x40 MLOAD PUSH2 0x2CFE SWAP2 SWAP1 PUSH2 0x3DB7 JUMP JUMPDEST PUSH1 0x40 MLOAD DUP1 SWAP2 SUB SWAP1 LOG3 POP POP POP POP JUMP JUMPDEST PUSH0 DUP4 PUSH20 0xFFFFFFFFFFFFFFFFFFFFFFFFFFFFFFFFFFFFFFFF AND EXTCODESIZE GT ISZERO PUSH2 0x2EB8 JUMPI DUP3 PUSH20 0xFFFFFFFFFFFFFFFFFFFFFFFFFFFFFFFFFFFFFFFF AND PUSH4 0x150B7A02 PUSH2 0x2D4F PUSH2 0x22D2 JUMP JUMPDEST DUP7 DUP6 DUP6 PUSH1 0x40 MLOAD DUP6 PUSH4 0xFFFFFFFF AND PUSH1 0xE0 SHL DUP2 MSTORE PUSH1 0x4 ADD PUSH2 0x2D71 SWAP5 SWAP4 SWAP3 SWAP2 SWAP1 PUSH2 0x529D JUMP JUMPDEST PUSH1 0x20 PUSH1 0x40 MLOAD DUP1 DUP4 SUB DUP2 PUSH0 DUP8 GAS CALL SWAP3 POP POP POP DUP1 ISZERO PUSH2 0x2DAC JUMPI POP PUSH1 0x40 MLOAD RETURNDATASIZE PUSH1 0x1F NOT PUSH1 0x1F DUP3 ADD AND DUP3 ADD DUP1 PUSH1 0x40 MSTORE POP DUP2 ADD SWAP1 PUSH2 0x2DA9 SWAP2 SWAP1 PUSH2 0x52FB JUMP JUMPDEST PUSH1 0x1 JUMPDEST PUSH2 0x2E2D JUMPI RETURNDATASIZE DUP1 PUSH0 DUP2 EQ PUSH2 0x2DDA JUMPI PUSH1 0x40 MLOAD SWAP2 POP PUSH1 0x1F NOT PUSH1 0x3F RETURNDATASIZE ADD AND DUP3 ADD PUSH1 0x40 MSTORE RETURNDATASIZE DUP3 MSTORE RETURNDATASIZE PUSH0 PUSH1 0x20 DUP5 ADD RETURNDATACOPY PUSH2 0x2DDF JUMP JUMPDEST PUSH1 0x60 SWAP2 POP JUMPDEST POP PUSH0 DUP2 MLOAD SUB PUSH2 0x2E25 JUMPI DUP4 PUSH1 0x40 MLOAD PUSH32 0x64A0AE9200000000000000000000000000000000000000000000000000000000 DUP2 MSTORE PUSH1 0x4 ADD PUSH2 0x2E1C SWAP2 SWAP1 PUSH2 0x3E9F JUMP JUMPDEST PUSH1 0x40 MLOAD DUP1 SWAP2 SUB SWAP1 REVERT JUMPDEST DUP1 MLOAD DUP2 PUSH1 0x20 ADD REVERT JUMPDEST PUSH4 0x150B7A02 PUSH1 0xE0 SHL PUSH28 0xFFFFFFFFFFFFFFFFFFFFFFFFFFFFFFFFFFFFFFFFFFFFFFFFFFFFFFFF NOT AND DUP2 PUSH28 0xFFFFFFFFFFFFFFFFFFFFFFFFFFFFFFFFFFFFFFFFFFFFFFFFFFFFFFFF NOT AND EQ PUSH2 0x2EB6 JUMPI DUP4 PUSH1 0x40 MLOAD PUSH32 0x64A0AE9200000000000000000000000000000000000000000000000000000000 DUP2 MSTORE PUSH1 0x4 ADD PUSH2 0x2EAD SWAP2 SWAP1 PUSH2 0x3E9F JUMP JUMPDEST PUSH1 0x40 MLOAD DUP1 SWAP2 SUB SWAP1 REVERT JUMPDEST POP JUMPDEST POP POP POP POP JUMP JUMPDEST PUSH1 0x60 PUSH0 PUSH1 0x1 PUSH2 0x2ECC DUP5 PUSH2 0x368C JUMP JUMPDEST ADD SWAP1 POP PUSH0 DUP2 PUSH8 0xFFFFFFFFFFFFFFFF DUP2 GT ISZERO PUSH2 0x2EEA JUMPI PUSH2 0x2EE9 PUSH2 0x3F28 JUMP JUMPDEST JUMPDEST PUSH1 0x40 MLOAD SWAP1 DUP1 DUP3 MSTORE DUP1 PUSH1 0x1F ADD PUSH1 0x1F NOT AND PUSH1 0x20 ADD DUP3 ADD PUSH1 0x40 MSTORE DUP1 ISZERO PUSH2 0x2F1C JUMPI DUP2 PUSH1 0x20 ADD PUSH1 0x1 DUP3 MUL DUP1 CALLDATASIZE DUP4 CALLDATACOPY DUP1 DUP3 ADD SWAP2 POP POP SWAP1 POP JUMPDEST POP SWAP1 POP PUSH0 DUP3 PUSH1 0x20 ADD DUP3 ADD SWAP1 POP JUMPDEST PUSH1 0x1 ISZERO PUSH2 0x2F7D JUMPI DUP1 DUP1 PUSH1 0x1 SWAP1 SUB SWAP2 POP POP PUSH32 0x3031323334353637383961626364656600000000000000000000000000000000 PUSH1 0xA DUP7 MOD BYTE DUP2 MSTORE8 PUSH1 0xA DUP6 DUP2 PUSH2 0x2F72 JUMPI PUSH2 0x2F71 PUSH2 0x5199 JUMP JUMPDEST JUMPDEST DIV SWAP5 POP PUSH0 DUP6 SUB PUSH2 0x2F29 JUMPI JUMPDEST DUP2 SWAP4 POP POP POP POP SWAP2 SWAP1 POP JUMP JUMPDEST PUSH0 DUP1 PUSH1 0x40 MLOAD DUP1 PUSH1 0xC0 ADD PUSH1 0x40 MSTORE DUP1 DUP9 DUP2 MSTORE PUSH1 0x20 ADD PUSH0 DUP2 MSTORE PUSH1 0x20 ADD DUP8 DUP2 MSTORE PUSH1 0x20 ADD DUP7 DUP2 MSTORE PUSH1 0x20 ADD DUP6 DUP2 MSTORE PUSH1 0x20 ADD TIMESTAMP DUP2 MSTORE POP SWAP1 POP PUSH1 0x4 PUSH0 DUP2 SLOAD DUP1 SWAP3 SWAP2 SWAP1 PUSH2 0x2FCB SWAP1 PUSH2 0x50B1 JUMP JUMPDEST SWAP2 SWAP1 POP SSTORE POP DUP1 PUSH1 0x1 PUSH0 PUSH1 0x4 SLOAD DUP2 MSTORE PUSH1 0x20 ADD SWAP1 DUP2 MSTORE PUSH1 0x20 ADD PUSH0 KECCAK256 PUSH0 DUP3 ADD MLOAD DUP2 PUSH0 ADD SWAP1 DUP2 PUSH2 0x2FF7 SWAP2 SWAP1 PUSH2 0x485E JUMP JUMPDEST POP PUSH1 0x20 DUP3 ADD MLOAD DUP2 PUSH1 0x1 ADD SSTORE PUSH1 0x40 DUP3 ADD MLOAD DUP2 PUSH1 0x2 ADD SSTORE PUSH1 0x60 DUP3 ADD MLOAD DUP2 PUSH1 0x3 ADD SSTORE PUSH1 0x80 DUP3 ADD MLOAD DUP2 PUSH1 0x4 ADD SSTORE PUSH1 0xA0 DUP3 ADD MLOAD DUP2 PUSH1 0x5 ADD SSTORE SWAP1 POP POP PUSH3 0x2A300 DUP2 PUSH1 0xA0 ADD MLOAD PUSH2 0x3040 SWAP2 SWAP1 PUSH2 0x495A JUMP JUMPDEST PUSH1 0x2 PUSH0 PUSH1 0x4 SLOAD DUP2 MSTORE PUSH1 0x20 ADD SWAP1 DUP2 MSTORE PUSH1 0x20 ADD PUSH0 KECCAK256 PUSH0 ADD DUP2 SWAP1 SSTORE POP PUSH0 DUP1 PUSH0 PUSH1 0x4 SLOAD DUP2 MSTORE PUSH1 0x20 ADD SWAP1 DUP2 MSTORE PUSH1 0x20 ADD PUSH0 KECCAK256 PUSH0 PUSH2 0x100 EXP DUP2 SLOAD DUP2 PUSH1 0xFF MUL NOT AND SWAP1 DUP4 PUSH1 0x3 DUP2 GT ISZERO PUSH2 0x308D JUMPI PUSH2 0x308C PUSH2 0x43E2 JUMP JUMPDEST JUMPDEST MUL OR SWAP1 SSTORE POP PUSH2 0x309E DUP4 PUSH1 0x4 SLOAD PUSH2 0x37DD JUMP JUMPDEST PUSH1 0x3 PUSH0 DUP5 PUSH20 0xFFFFFFFFFFFFFFFFFFFFFFFFFFFFFFFFFFFFFFFF AND PUSH20 0xFFFFFFFFFFFFFFFFFFFFFFFFFFFFFFFFFFFFFFFF AND DUP2 MSTORE PUSH1 0x20 ADD SWAP1 DUP2 MSTORE PUSH1 0x20 ADD PUSH0 KECCAK256 PUSH1 0x4 SLOAD SWAP1 DUP1 PUSH1 0x1 DUP2 SLOAD ADD DUP1 DUP3 SSTORE DUP1 SWAP2 POP POP PUSH1 0x1 SWAP1 SUB SWAP1 PUSH0 MSTORE PUSH1 0x20 PUSH0 KECCAK256 ADD PUSH0 SWAP1 SWAP2 SWAP1 SWAP2 SWAP1 SWAP2 POP SSTORE PUSH1 0x4 SLOAD SWAP2 POP POP SWAP6 SWAP5 POP POP POP POP POP JUMP JUMPDEST PUSH0 PUSH32 0x80AC58CD00000000000000000000000000000000000000000000000000000000 PUSH28 0xFFFFFFFFFFFFFFFFFFFFFFFFFFFFFFFFFFFFFFFFFFFFFFFFFFFFFFFF NOT AND DUP3 PUSH28 0xFFFFFFFFFFFFFFFFFFFFFFFFFFFFFFFFFFFFFFFFFFFFFFFFFFFFFFFF NOT AND EQ DUP1 PUSH2 0x31DA JUMPI POP PUSH32 0x5B5E139F00000000000000000000000000000000000000000000000000000000 PUSH28 0xFFFFFFFFFFFFFFFFFFFFFFFFFFFFFFFFFFFFFFFFFFFFFFFFFFFFFFFF NOT AND DUP3 PUSH28 0xFFFFFFFFFFFFFFFFFFFFFFFFFFFFFFFFFFFFFFFFFFFFFFFFFFFFFFFF NOT AND EQ JUMPDEST DUP1 PUSH2 0x31EA JUMPI POP PUSH2 0x31E9 DUP3 PUSH2 0x37FA JUMP JUMPDEST JUMPDEST SWAP1 POP SWAP2 SWAP1 POP JUMP JUMPDEST PUSH0 DUP1 PUSH2 0x31FB PUSH2 0x21DE JUMP JUMPDEST SWAP1 POP DUP1 PUSH1 0x2 ADD PUSH0 DUP5 DUP2 MSTORE PUSH1 0x20 ADD SWAP1 DUP2 MSTORE PUSH1 0x20 ADD PUSH0 KECCAK256 PUSH0 SWAP1 SLOAD SWAP1 PUSH2 0x100 EXP SWAP1 DIV PUSH20 0xFFFFFFFFFFFFFFFFFFFFFFFFFFFFFFFFFFFFFFFF AND SWAP2 POP POP SWAP2 SWAP1 POP JUMP JUMPDEST PUSH0 PUSH2 0x3241 PUSH2 0x21DE JUMP JUMPDEST SWAP1 POP DUP2 DUP1 PUSH2 0x327B JUMPI POP PUSH0 PUSH20 0xFFFFFFFFFFFFFFFFFFFFFFFFFFFFFFFFFFFFFFFF AND DUP4 PUSH20 0xFFFFFFFFFFFFFFFFFFFFFFFFFFFFFFFFFFFFFFFF AND EQ ISZERO JUMPDEST ISZERO PUSH2 0x33AD JUMPI PUSH0 PUSH2 0x328A DUP6 PUSH2 0x2205 JUMP JUMPDEST SWAP1 POP PUSH0 PUSH20 0xFFFFFFFFFFFFFFFFFFFFFFFFFFFFFFFFFFFFFFFF AND DUP5 PUSH20 0xFFFFFFFFFFFFFFFFFFFFFFFFFFFFFFFFFFFFFFFF AND EQ ISZERO DUP1 ISZERO PUSH2 0x32F4 JUMPI POP DUP4 PUSH20 0xFFFFFFFFFFFFFFFFFFFFFFFFFFFFFFFFFFFFFFFF AND DUP2 PUSH20 0xFFFFFFFFFFFFFFFFFFFFFFFFFFFFFFFFFFFFFFFF AND EQ ISZERO JUMPDEST DUP1 ISZERO PUSH2 0x3307 JUMPI POP PUSH2 0x3305 DUP2 DUP6 PUSH2 0x1C28 JUMP JUMPDEST ISZERO JUMPDEST ISZERO PUSH2 0x3349 JUMPI DUP4 PUSH1 0x40 MLOAD PUSH32 0xA9FBF51F00000000000000000000000000000000000000000000000000000000 DUP2 MSTORE PUSH1 0x4 ADD PUSH2 0x3340 SWAP2 SWAP1 PUSH2 0x3E9F JUMP JUMPDEST PUSH1 0x40 MLOAD DUP1 SWAP2 SUB SWAP1 REVERT JUMPDEST DUP3 ISZERO PUSH2 0x33AB JUMPI DUP5 DUP7 PUSH20 0xFFFFFFFFFFFFFFFFFFFFFFFFFFFFFFFFFFFFFFFF AND DUP3 PUSH20 0xFFFFFFFFFFFFFFFFFFFFFFFFFFFFFFFFFFFFFFFF AND PUSH32 0x8C5BE1E5EBEC7D5BD14F71427D1E84F3DD0314C0F7B2291E5B200AC8C7C3B925 PUSH1 0x40 MLOAD PUSH1 0x40 MLOAD DUP1 SWAP2 SUB SWAP1 LOG4 JUMPDEST POP JUMPDEST DUP5 DUP2 PUSH1 0x4 ADD PUSH0 DUP7 DUP2 MSTORE PUSH1 0x20 ADD SWAP1 DUP2 MSTORE PUSH1 0x20 ADD PUSH0 KECCAK256 PUSH0 PUSH2 0x100 EXP DUP2 SLOAD DUP2 PUSH20 0xFFFFFFFFFFFFFFFFFFFFFFFFFFFFFFFFFFFFFFFF MUL NOT AND SWAP1 DUP4 PUSH20 0xFFFFFFFFFFFFFFFFFFFFFFFFFFFFFFFFFFFFFFFF AND MUL OR SWAP1 SSTORE POP POP POP POP POP POP JUMP JUMPDEST PUSH2 0x3410 DUP4 DUP4 DUP4 PUSH2 0x3863 JUMP JUMPDEST PUSH2 0x34C3 JUMPI PUSH0 PUSH20 0xFFFFFFFFFFFFFFFFFFFFFFFFFFFFFFFFFFFFFFFF AND DUP4 PUSH20 0xFFFFFFFFFFFFFFFFFFFFFFFFFFFFFFFFFFFFFFFF AND SUB PUSH2 0x3484 JUMPI DUP1 PUSH1 0x40 MLOAD PUSH32 0x7E27328900000000000000000000000000000000000000000000000000000000 DUP2 MSTORE PUSH1 0x4 ADD PUSH2 0x347B SWAP2 SWAP1 PUSH2 0x40F2 JUMP JUMPDEST PUSH1 0x40 MLOAD DUP1 SWAP2 SUB SWAP1 REVERT JUMPDEST DUP2 DUP2 PUSH1 0x40 MLOAD PUSH32 0x177E802F00000000000000000000000000000000000000000000000000000000 DUP2 MSTORE PUSH1 0x4 ADD PUSH2 0x34BA SWAP3 SWAP2 SWAP1 PUSH2 0x5326 JUMP JUMPDEST PUSH1 0x40 MLOAD DUP1 SWAP2 SUB SWAP1 REVERT JUMPDEST POP POP POP JUMP JUMPDEST PUSH0 PUSH2 0x34F4 PUSH32 0x360894A13BA1A3210667C828492DB98DCA3E2076CC3735A920A3CA505D382BBC PUSH0 SHL PUSH2 0x3923 JUMP JUMPDEST PUSH0 ADD PUSH0 SWAP1 SLOAD SWAP1 PUSH2 0x100 EXP SWAP1 DIV PUSH20 0xFFFFFFFFFFFFFFFFFFFFFFFFFFFFFFFFFFFFFFFF AND SWAP1 POP SWAP1 JUMP JUMPDEST PUSH2 0x3524 DUP3 PUSH2 0x392C JUMP JUMPDEST DUP2 PUSH20 0xFFFFFFFFFFFFFFFFFFFFFFFFFFFFFFFFFFFFFFFF AND PUSH32 0xBC7CD75A20EE27FD9ADEBAB32041F755214DBC6BFFA90CC0225B39DA2E5C2D3B PUSH1 0x40 MLOAD PUSH1 0x40 MLOAD DUP1 SWAP2 SUB SWAP1 LOG2 PUSH0 DUP2 MLOAD GT ISZERO PUSH2 0x3580 JUMPI PUSH2 0x357A DUP3 DUP3 PUSH2 0x39F5 JUMP JUMPDEST POP PUSH2 0x3589 JUMP JUMPDEST PUSH2 0x3588 PUSH2 0x3A75 JUMP JUMPDEST JUMPDEST POP POP JUMP JUMPDEST PUSH2 0x3595 PUSH2 0x3AB1 JUMP JUMPDEST PUSH2 0x35CB JUMPI PUSH1 0x40 MLOAD PUSH32 0xD7E6BCF800000000000000000000000000000000000000000000000000000000 DUP2 MSTORE PUSH1 0x4 ADD PUSH1 0x40 MLOAD DUP1 SWAP2 SUB SWAP1 REVERT JUMPDEST JUMP JUMPDEST PUSH2 0x35D5 PUSH2 0x358D JUMP JUMPDEST PUSH0 PUSH2 0x35DE PUSH2 0x21DE JUMP JUMPDEST SWAP1 POP DUP3 DUP2 PUSH0 ADD SWAP1 DUP2 PUSH2 0x35F0 SWAP2 SWAP1 PUSH2 0x485E JUMP JUMPDEST POP DUP2 DUP2 PUSH1 0x1 ADD SWAP1 DUP2 PUSH2 0x3602 SWAP2 SWAP1 PUSH2 0x485E JUMP JUMPDEST POP POP POP POP JUMP JUMPDEST PUSH2 0x3610 PUSH2 0x358D JUMP JUMPDEST PUSH0 PUSH20 0xFFFFFFFFFFFFFFFFFFFFFFFFFFFFFFFFFFFFFFFF AND DUP2 PUSH20 0xFFFFFFFFFFFFFFFFFFFFFFFFFFFFFFFFFFFFFFFF AND SUB PUSH2 0x3680 JUMPI PUSH0 PUSH1 0x40 MLOAD PUSH32 0x1E4FBDF700000000000000000000000000000000000000000000000000000000 DUP2 MSTORE PUSH1 0x4 ADD PUSH2 0x3677 SWAP2 SWAP1 PUSH2 0x3E9F JUMP JUMPDEST PUSH1 0x40 MLOAD DUP1 SWAP2 SUB SWAP1 REVERT JUMPDEST PUSH2 0x3689 DUP2 PUSH2 0x2889 JUMP JUMPDEST POP JUMP JUMPDEST PUSH0 DUP1 PUSH0 SWAP1 POP PUSH27 0x184F03E93FF9F4DAA797ED6E38ED64BF6A1F010000000000000000 DUP4 LT PUSH2 0x36E8 JUMPI PUSH27 0x184F03E93FF9F4DAA797ED6E38ED64BF6A1F010000000000000000 DUP4 DUP2 PUSH2 0x36DE JUMPI PUSH2 0x36DD PUSH2 0x5199 JUMP JUMPDEST JUMPDEST DIV SWAP3 POP PUSH1 0x40 DUP2 ADD SWAP1 POP JUMPDEST PUSH14 0x4EE2D6D415B85ACEF8100000000 DUP4 LT PUSH2 0x3725 JUMPI PUSH14 0x4EE2D6D415B85ACEF8100000000 DUP4 DUP2 PUSH2 0x371B JUMPI PUSH2 0x371A PUSH2 0x5199 JUMP JUMPDEST JUMPDEST DIV SWAP3 POP PUSH1 0x20 DUP2 ADD SWAP1 POP JUMPDEST PUSH7 0x2386F26FC10000 DUP4 LT PUSH2 0x3754 JUMPI PUSH7 0x2386F26FC10000 DUP4 DUP2 PUSH2 0x374A JUMPI PUSH2 0x3749 PUSH2 0x5199 JUMP JUMPDEST JUMPDEST DIV SWAP3 POP PUSH1 0x10 DUP2 ADD SWAP1 POP JUMPDEST PUSH4 0x5F5E100 DUP4 LT PUSH2 0x377D JUMPI PUSH4 0x5F5E100 DUP4 DUP2 PUSH2 0x3773 JUMPI PUSH2 0x3772 PUSH2 0x5199 JUMP JUMPDEST JUMPDEST DIV SWAP3 POP PUSH1 0x8 DUP2 ADD SWAP1 POP JUMPDEST PUSH2 0x2710 DUP4 LT PUSH2 0x37A2 JUMPI PUSH2 0x2710 DUP4 DUP2 PUSH2 0x3798 JUMPI PUSH2 0x3797 PUSH2 0x5199 JUMP JUMPDEST JUMPDEST DIV SWAP3 POP PUSH1 0x4 DUP2 ADD SWAP1 POP JUMPDEST PUSH1 0x64 DUP4 LT PUSH2 0x37C5 JUMPI PUSH1 0x64 DUP4 DUP2 PUSH2 0x37BB JUMPI PUSH2 0x37BA PUSH2 0x5199 JUMP JUMPDEST JUMPDEST DIV SWAP3 POP PUSH1 0x2 DUP2 ADD SWAP1 POP JUMPDEST PUSH1 0xA DUP4 LT PUSH2 0x37D4 JUMPI PUSH1 0x1 DUP2 ADD SWAP1 POP JUMPDEST DUP1 SWAP2 POP POP SWAP2 SWAP1 POP JUMP JUMPDEST PUSH2 0x37F6 DUP3 DUP3 PUSH1 0x40 MLOAD DUP1 PUSH1 0x20 ADD PUSH1 0x40 MSTORE DUP1 PUSH0 DUP2 MSTORE POP PUSH2 0x3ACF JUMP JUMPDEST POP POP JUMP JUMPDEST PUSH0 PUSH32 0x1FFC9A700000000000000000000000000000000000000000000000000000000 PUSH28 0xFFFFFFFFFFFFFFFFFFFFFFFFFFFFFFFFFFFFFFFFFFFFFFFFFFFFFFFF NOT AND DUP3 PUSH28 0xFFFFFFFFFFFFFFFFFFFFFFFFFFFFFFFFFFFFFFFFFFFFFFFFFFFFFFFF NOT AND EQ SWAP1 POP SWAP2 SWAP1 POP JUMP JUMPDEST PUSH0 DUP1 PUSH20 0xFFFFFFFFFFFFFFFFFFFFFFFFFFFFFFFFFFFFFFFF AND DUP4 PUSH20 0xFFFFFFFFFFFFFFFFFFFFFFFFFFFFFFFFFFFFFFFF AND EQ ISZERO DUP1 ISZERO PUSH2 0x391A JUMPI POP DUP3 PUSH20 0xFFFFFFFFFFFFFFFFFFFFFFFFFFFFFFFFFFFFFFFF AND DUP5 PUSH20 0xFFFFFFFFFFFFFFFFFFFFFFFFFFFFFFFFFFFFFFFF AND EQ DUP1 PUSH2 0x38DB JUMPI POP PUSH2 0x38DA DUP5 DUP5 PUSH2 0x1C28 JUMP JUMPDEST JUMPDEST DUP1 PUSH2 0x3919 JUMPI POP DUP3 PUSH20 0xFFFFFFFFFFFFFFFFFFFFFFFFFFFFFFFFFFFFFFFF AND PUSH2 0x3901 DUP4 PUSH2 0x228B JUMP JUMPDEST PUSH20 0xFFFFFFFFFFFFFFFFFFFFFFFFFFFFFFFFFFFFFFFF AND EQ JUMPDEST JUMPDEST SWAP1 POP SWAP4 SWAP3 POP POP POP JUMP JUMPDEST PUSH0 DUP2 SWAP1 POP SWAP2 SWAP1 POP JUMP JUMPDEST PUSH0 DUP2 PUSH20 0xFFFFFFFFFFFFFFFFFFFFFFFFFFFFFFFFFFFFFFFF AND EXTCODESIZE SUB PUSH2 0x3987 JUMPI DUP1 PUSH1 0x40 MLOAD PUSH32 0x4C9C8CE300000000000000000000000000000000000000000000000000000000 DUP2 MSTORE PUSH1 0x4 ADD PUSH2 0x397E SWAP2 SWAP1 PUSH2 0x3E9F JUMP JUMPDEST PUSH1 0x40 MLOAD DUP1 SWAP2 SUB SWAP1 REVERT JUMPDEST DUP1 PUSH2 0x39B3 PUSH32 0x360894A13BA1A3210667C828492DB98DCA3E2076CC3735A920A3CA505D382BBC PUSH0 SHL PUSH2 0x3923 JUMP JUMPDEST PUSH0 ADD PUSH0 PUSH2 0x100 EXP DUP2 SLOAD DUP2 PUSH20 0xFFFFFFFFFFFFFFFFFFFFFFFFFFFFFFFFFFFFFFFF MUL NOT AND SWAP1 DUP4 PUSH20 0xFFFFFFFFFFFFFFFFFFFFFFFFFFFFFFFFFFFFFFFF AND MUL OR SWAP1 SSTORE POP POP JUMP JUMPDEST PUSH1 0x60 PUSH0 DUP1 DUP5 PUSH20 0xFFFFFFFFFFFFFFFFFFFFFFFFFFFFFFFFFFFFFFFF AND DUP5 PUSH1 0x40 MLOAD PUSH2 0x3A1E SWAP2 SWAP1 PUSH2 0x5387 JUMP JUMPDEST PUSH0 PUSH1 0x40 MLOAD DUP1 DUP4 SUB DUP2 DUP6 GAS DELEGATECALL SWAP2 POP POP RETURNDATASIZE DUP1 PUSH0 DUP2 EQ PUSH2 0x3A56 JUMPI PUSH1 0x40 MLOAD SWAP2 POP PUSH1 0x1F NOT PUSH1 0x3F RETURNDATASIZE ADD AND DUP3 ADD PUSH1 0x40 MSTORE RETURNDATASIZE DUP3 MSTORE RETURNDATASIZE PUSH0 PUSH1 0x20 DUP5 ADD RETURNDATACOPY PUSH2 0x3A5B JUMP JUMPDEST PUSH1 0x60 SWAP2 POP JUMPDEST POP SWAP2 POP SWAP2 POP PUSH2 0x3A6B DUP6 DUP4 DUP4 PUSH2 0x3AEA JUMP JUMPDEST SWAP3 POP POP POP SWAP3 SWAP2 POP POP JUMP JUMPDEST PUSH0 CALLVALUE GT ISZERO PUSH2 0x3AAF JUMPI PUSH1 0x40 MLOAD PUSH32 0xB398979F00000000000000000000000000000000000000000000000000000000 DUP2 MSTORE PUSH1 0x4 ADD PUSH1 0x40 MLOAD DUP1 SWAP2 SUB SWAP1 REVERT JUMPDEST JUMP JUMPDEST PUSH0 PUSH2 0x3ABA PUSH2 0x2981 JUMP JUMPDEST PUSH0 ADD PUSH1 0x8 SWAP1 SLOAD SWAP1 PUSH2 0x100 EXP SWAP1 DIV PUSH1 0xFF AND SWAP1 POP SWAP1 JUMP JUMPDEST PUSH2 0x3AD9 DUP4 DUP4 PUSH2 0x3B77 JUMP JUMPDEST PUSH2 0x3AE5 PUSH0 DUP5 DUP5 DUP5 PUSH2 0x2D0C JUMP JUMPDEST POP POP POP JUMP JUMPDEST PUSH1 0x60 DUP3 PUSH2 0x3AFF JUMPI PUSH2 0x3AFA DUP3 PUSH2 0x3C6A JUMP JUMPDEST PUSH2 0x3B6F JUMP JUMPDEST PUSH0 DUP3 MLOAD EQ DUP1 ISZERO PUSH2 0x3B25 JUMPI POP PUSH0 DUP5 PUSH20 0xFFFFFFFFFFFFFFFFFFFFFFFFFFFFFFFFFFFFFFFF AND EXTCODESIZE EQ JUMPDEST ISZERO PUSH2 0x3B67 JUMPI DUP4 PUSH1 0x40 MLOAD PUSH32 0x9996B31500000000000000000000000000000000000000000000000000000000 DUP2 MSTORE PUSH1 0x4 ADD PUSH2 0x3B5E SWAP2 SWAP1 PUSH2 0x3E9F JUMP JUMPDEST PUSH1 0x40 MLOAD DUP1 SWAP2 SUB SWAP1 REVERT JUMPDEST DUP2 SWAP1 POP PUSH2 0x3B70 JUMP JUMPDEST JUMPDEST SWAP4 SWAP3 POP POP POP JUMP JUMPDEST PUSH0 PUSH20 0xFFFFFFFFFFFFFFFFFFFFFFFFFFFFFFFFFFFFFFFF AND DUP3 PUSH20 0xFFFFFFFFFFFFFFFFFFFFFFFFFFFFFFFFFFFFFFFF AND SUB PUSH2 0x3BE7 JUMPI PUSH0 PUSH1 0x40 MLOAD PUSH32 0x64A0AE9200000000000000000000000000000000000000000000000000000000 DUP2 MSTORE PUSH1 0x4 ADD PUSH2 0x3BDE SWAP2 SWAP1 PUSH2 0x3E9F JUMP JUMPDEST PUSH1 0x40 MLOAD DUP1 SWAP2 SUB SWAP1 REVERT JUMPDEST PUSH0 PUSH2 0x3BF3 DUP4 DUP4 PUSH0 PUSH2 0x23D6 JUMP JUMPDEST SWAP1 POP PUSH0 PUSH20 0xFFFFFFFFFFFFFFFFFFFFFFFFFFFFFFFFFFFFFFFF AND DUP2 PUSH20 0xFFFFFFFFFFFFFFFFFFFFFFFFFFFFFFFFFFFFFFFF AND EQ PUSH2 0x3C65 JUMPI PUSH0 PUSH1 0x40 MLOAD PUSH32 0x73C6AC6E00000000000000000000000000000000000000000000000000000000 DUP2 MSTORE PUSH1 0x4 ADD PUSH2 0x3C5C SWAP2 SWAP1 PUSH2 0x3E9F JUMP JUMPDEST PUSH1 0x40 MLOAD DUP1 SWAP2 SUB SWAP1 REVERT JUMPDEST POP POP POP JUMP JUMPDEST PUSH0 DUP2 MLOAD GT ISZERO PUSH2 0x3C7C JUMPI DUP1 MLOAD DUP1 DUP3 PUSH1 0x20 ADD REVERT JUMPDEST PUSH1 0x40 MLOAD PUSH32 0x1425EA4200000000000000000000000000000000000000000000000000000000 DUP2 MSTORE PUSH1 0x4 ADD PUSH1 0x40 MLOAD DUP1 SWAP2 SUB SWAP1 REVERT JUMPDEST PUSH0 PUSH1 0x40 MLOAD SWAP1 POP SWAP1 JUMP JUMPDEST PUSH0 DUP1 REVERT JUMPDEST PUSH0 DUP1 REVERT JUMPDEST PUSH0 DUP2 SWAP1 POP SWAP2 SWAP1 POP JUMP JUMPDEST PUSH2 0x3CD1 DUP2 PUSH2 0x3CBF JUMP JUMPDEST DUP2 EQ PUSH2 0x3CDB JUMPI PUSH0 DUP1 REVERT JUMPDEST POP JUMP JUMPDEST PUSH0 DUP2 CALLDATALOAD SWAP1 POP PUSH2 0x3CEC DUP2 PUSH2 0x3CC8 JUMP JUMPDEST SWAP3 SWAP2 POP POP JUMP JUMPDEST PUSH0 PUSH1 0x20 DUP3 DUP5 SUB SLT ISZERO PUSH2 0x3D07 JUMPI PUSH2 0x3D06 PUSH2 0x3CB7 JUMP JUMPDEST JUMPDEST PUSH0 PUSH2 0x3D14 DUP5 DUP3 DUP6 ADD PUSH2 0x3CDE JUMP JUMPDEST SWAP2 POP POP SWAP3 SWAP2 POP POP JUMP JUMPDEST PUSH0 PUSH32 0xFFFFFFFF00000000000000000000000000000000000000000000000000000000 DUP3 AND SWAP1 POP SWAP2 SWAP1 POP JUMP JUMPDEST PUSH2 0x3D51 DUP2 PUSH2 0x3D1D JUMP JUMPDEST DUP2 EQ PUSH2 0x3D5B JUMPI PUSH0 DUP1 REVERT JUMPDEST POP JUMP JUMPDEST PUSH0 DUP2 CALLDATALOAD SWAP1 POP PUSH2 0x3D6C DUP2 PUSH2 0x3D48 JUMP JUMPDEST SWAP3 SWAP2 POP POP JUMP JUMPDEST PUSH0 PUSH1 0x20 DUP3 DUP5 SUB SLT ISZERO PUSH2 0x3D87 JUMPI PUSH2 0x3D86 PUSH2 0x3CB7 JUMP JUMPDEST JUMPDEST PUSH0 PUSH2 0x3D94 DUP5 DUP3 DUP6 ADD PUSH2 0x3D5E JUMP JUMPDEST SWAP2 POP POP SWAP3 SWAP2 POP POP JUMP JUMPDEST PUSH0 DUP2 ISZERO ISZERO SWAP1 POP SWAP2 SWAP1 POP JUMP JUMPDEST PUSH2 0x3DB1 DUP2 PUSH2 0x3D9D JUMP JUMPDEST DUP3 MSTORE POP POP JUMP JUMPDEST PUSH0 PUSH1 0x20 DUP3 ADD SWAP1 POP PUSH2 0x3DCA PUSH0 DUP4 ADD DUP5 PUSH2 0x3DA8 JUMP JUMPDEST SWAP3 SWAP2 POP POP JUMP JUMPDEST PUSH0 DUP2 MLOAD SWAP1 POP SWAP2 SWAP1 POP JUMP JUMPDEST PUSH0 DUP3 DUP3 MSTORE PUSH1 0x20 DUP3 ADD SWAP1 POP SWAP3 SWAP2 POP POP JUMP JUMPDEST DUP3 DUP2 DUP4 MCOPY PUSH0 DUP4 DUP4 ADD MSTORE POP POP POP JUMP JUMPDEST PUSH0 PUSH1 0x1F NOT PUSH1 0x1F DUP4 ADD AND SWAP1 POP SWAP2 SWAP1 POP JUMP JUMPDEST PUSH0 PUSH2 0x3E12 DUP3 PUSH2 0x3DD0 JUMP JUMPDEST PUSH2 0x3E1C DUP2 DUP6 PUSH2 0x3DDA JUMP JUMPDEST SWAP4 POP PUSH2 0x3E2C DUP2 DUP6 PUSH1 0x20 DUP7 ADD PUSH2 0x3DEA JUMP JUMPDEST PUSH2 0x3E35 DUP2 PUSH2 0x3DF8 JUMP JUMPDEST DUP5 ADD SWAP2 POP POP SWAP3 SWAP2 POP POP JUMP JUMPDEST PUSH0 PUSH1 0x20 DUP3 ADD SWAP1 POP DUP2 DUP2 SUB PUSH0 DUP4 ADD MSTORE PUSH2 0x3E58 DUP2 DUP5 PUSH2 0x3E08 JUMP JUMPDEST SWAP1 POP SWAP3 SWAP2 POP POP JUMP JUMPDEST PUSH0 PUSH20 0xFFFFFFFFFFFFFFFFFFFFFFFFFFFFFFFFFFFFFFFF DUP3 AND SWAP1 POP SWAP2 SWAP1 POP JUMP JUMPDEST PUSH0 PUSH2 0x3E89 DUP3 PUSH2 0x3E60 JUMP JUMPDEST SWAP1 POP SWAP2 SWAP1 POP JUMP JUMPDEST PUSH2 0x3E99 DUP2 PUSH2 0x3E7F JUMP JUMPDEST DUP3 MSTORE POP POP JUMP JUMPDEST PUSH0 PUSH1 0x20 DUP3 ADD SWAP1 POP PUSH2 0x3EB2 PUSH0 DUP4 ADD DUP5 PUSH2 0x3E90 JUMP JUMPDEST SWAP3 SWAP2 POP POP JUMP JUMPDEST PUSH2 0x3EC1 DUP2 PUSH2 0x3E7F JUMP JUMPDEST DUP2 EQ PUSH2 0x3ECB JUMPI PUSH0 DUP1 REVERT JUMPDEST POP JUMP JUMPDEST PUSH0 DUP2 CALLDATALOAD SWAP1 POP PUSH2 0x3EDC DUP2 PUSH2 0x3EB8 JUMP JUMPDEST SWAP3 SWAP2 POP POP JUMP JUMPDEST PUSH0 DUP1 PUSH1 0x40 DUP4 DUP6 SUB SLT ISZERO PUSH2 0x3EF8 JUMPI PUSH2 0x3EF7 PUSH2 0x3CB7 JUMP JUMPDEST JUMPDEST PUSH0 PUSH2 0x3F05 DUP6 DUP3 DUP7 ADD PUSH2 0x3ECE JUMP JUMPDEST SWAP3 POP POP PUSH1 0x20 PUSH2 0x3F16 DUP6 DUP3 DUP7 ADD PUSH2 0x3CDE JUMP JUMPDEST SWAP2 POP POP SWAP3 POP SWAP3 SWAP1 POP JUMP JUMPDEST PUSH0 DUP1 REVERT JUMPDEST PUSH0 DUP1 REVERT JUMPDEST PUSH32 0x4E487B7100000000000000000000000000000000000000000000000000000000 PUSH0 MSTORE PUSH1 0x41 PUSH1 0x4 MSTORE PUSH1 0x24 PUSH0 REVERT JUMPDEST PUSH2 0x3F5E DUP3 PUSH2 0x3DF8 JUMP JUMPDEST DUP2 ADD DUP2 DUP2 LT PUSH8 0xFFFFFFFFFFFFFFFF DUP3 GT OR ISZERO PUSH2 0x3F7D JUMPI PUSH2 0x3F7C PUSH2 0x3F28 JUMP JUMPDEST JUMPDEST DUP1 PUSH1 0x40 MSTORE POP POP POP JUMP JUMPDEST PUSH0 PUSH2 0x3F8F PUSH2 0x3CAE JUMP JUMPDEST SWAP1 POP PUSH2 0x3F9B DUP3 DUP3 PUSH2 0x3F55 JUMP JUMPDEST SWAP2 SWAP1 POP JUMP JUMPDEST PUSH0 PUSH8 0xFFFFFFFFFFFFFFFF DUP3 GT ISZERO PUSH2 0x3FBA JUMPI PUSH2 0x3FB9 PUSH2 0x3F28 JUMP JUMPDEST JUMPDEST PUSH2 0x3FC3 DUP3 PUSH2 0x3DF8 JUMP JUMPDEST SWAP1 POP PUSH1 0x20 DUP2 ADD SWAP1 POP SWAP2 SWAP1 POP JUMP JUMPDEST DUP3 DUP2 DUP4 CALLDATACOPY PUSH0 DUP4 DUP4 ADD MSTORE POP POP POP JUMP JUMPDEST PUSH0 PUSH2 0x3FF0 PUSH2 0x3FEB DUP5 PUSH2 0x3FA0 JUMP JUMPDEST PUSH2 0x3F86 JUMP JUMPDEST SWAP1 POP DUP3 DUP2 MSTORE PUSH1 0x20 DUP2 ADD DUP5 DUP5 DUP5 ADD GT ISZERO PUSH2 0x400C JUMPI PUSH2 0x400B PUSH2 0x3F24 JUMP JUMPDEST JUMPDEST PUSH2 0x4017 DUP5 DUP3 DUP6 PUSH2 0x3FD0 JUMP JUMPDEST POP SWAP4 SWAP3 POP POP POP JUMP JUMPDEST PUSH0 DUP3 PUSH1 0x1F DUP4 ADD SLT PUSH2 0x4033 JUMPI PUSH2 0x4032 PUSH2 0x3F20 JUMP JUMPDEST JUMPDEST DUP2 CALLDATALOAD PUSH2 0x4043 DUP5 DUP3 PUSH1 0x20 DUP7 ADD PUSH2 0x3FDE JUMP JUMPDEST SWAP2 POP POP SWAP3 SWAP2 POP POP JUMP JUMPDEST PUSH0 PUSH1 0x20 DUP3 DUP5 SUB SLT ISZERO PUSH2 0x4061 JUMPI PUSH2 0x4060 PUSH2 0x3CB7 JUMP JUMPDEST JUMPDEST PUSH0 DUP3 ADD CALLDATALOAD PUSH8 0xFFFFFFFFFFFFFFFF DUP2 GT ISZERO PUSH2 0x407E JUMPI PUSH2 0x407D PUSH2 0x3CBB JUMP JUMPDEST JUMPDEST PUSH2 0x408A DUP5 DUP3 DUP6 ADD PUSH2 0x401F JUMP JUMPDEST SWAP2 POP POP SWAP3 SWAP2 POP POP JUMP JUMPDEST PUSH0 DUP1 PUSH0 PUSH1 0x60 DUP5 DUP7 SUB SLT ISZERO PUSH2 0x40AA JUMPI PUSH2 0x40A9 PUSH2 0x3CB7 JUMP JUMPDEST JUMPDEST PUSH0 PUSH2 0x40B7 DUP7 DUP3 DUP8 ADD PUSH2 0x3ECE JUMP JUMPDEST SWAP4 POP POP PUSH1 0x20 PUSH2 0x40C8 DUP7 DUP3 DUP8 ADD PUSH2 0x3ECE JUMP JUMPDEST SWAP3 POP POP PUSH1 0x40 PUSH2 0x40D9 DUP7 DUP3 DUP8 ADD PUSH2 0x3CDE JUMP JUMPDEST SWAP2 POP POP SWAP3 POP SWAP3 POP SWAP3 JUMP JUMPDEST PUSH2 0x40EC DUP2 PUSH2 0x3CBF JUMP JUMPDEST DUP3 MSTORE POP POP JUMP JUMPDEST PUSH0 PUSH1 0x20 DUP3 ADD SWAP1 POP PUSH2 0x4105 PUSH0 DUP4 ADD DUP5 PUSH2 0x40E3 JUMP JUMPDEST SWAP3 SWAP2 POP POP JUMP JUMPDEST PUSH0 PUSH8 0xFFFFFFFFFFFFFFFF DUP3 GT ISZERO PUSH2 0x4125 JUMPI PUSH2 0x4124 PUSH2 0x3F28 JUMP JUMPDEST JUMPDEST PUSH2 0x412E DUP3 PUSH2 0x3DF8 JUMP JUMPDEST SWAP1 POP PUSH1 0x20 DUP2 ADD SWAP1 POP SWAP2 SWAP1 POP JUMP JUMPDEST PUSH0 PUSH2 0x414D PUSH2 0x4148 DUP5 PUSH2 0x410B JUMP JUMPDEST PUSH2 0x3F86 JUMP JUMPDEST SWAP1 POP DUP3 DUP2 MSTORE PUSH1 0x20 DUP2 ADD DUP5 DUP5 DUP5 ADD GT ISZERO PUSH2 0x4169 JUMPI PUSH2 0x4168 PUSH2 0x3F24 JUMP JUMPDEST JUMPDEST PUSH2 0x4174 DUP5 DUP3 DUP6 PUSH2 0x3FD0 JUMP JUMPDEST POP SWAP4 SWAP3 POP POP POP JUMP JUMPDEST PUSH0 DUP3 PUSH1 0x1F DUP4 ADD SLT PUSH2 0x4190 JUMPI PUSH2 0x418F PUSH2 0x3F20 JUMP JUMPDEST JUMPDEST DUP2 CALLDATALOAD PUSH2 0x41A0 DUP5 DUP3 PUSH1 0x20 DUP7 ADD PUSH2 0x413B JUMP JUMPDEST SWAP2 POP POP SWAP3 SWAP2 POP POP JUMP JUMPDEST PUSH0 DUP1 PUSH1 0x40 DUP4 DUP6 SUB SLT ISZERO PUSH2 0x41BF JUMPI PUSH2 0x41BE PUSH2 0x3CB7 JUMP JUMPDEST JUMPDEST PUSH0 PUSH2 0x41CC DUP6 DUP3 DUP7 ADD PUSH2 0x3ECE JUMP JUMPDEST SWAP3 POP POP PUSH1 0x20 DUP4 ADD CALLDATALOAD PUSH8 0xFFFFFFFFFFFFFFFF DUP2 GT ISZERO PUSH2 0x41ED JUMPI PUSH2 0x41EC PUSH2 0x3CBB JUMP JUMPDEST JUMPDEST PUSH2 0x41F9 DUP6 DUP3 DUP7 ADD PUSH2 0x417C JUMP JUMPDEST SWAP2 POP POP SWAP3 POP SWAP3 SWAP1 POP JUMP JUMPDEST PUSH0 DUP2 SWAP1 POP SWAP2 SWAP1 POP JUMP JUMPDEST PUSH2 0x4215 DUP2 PUSH2 0x4203 JUMP JUMPDEST DUP3 MSTORE POP POP JUMP JUMPDEST PUSH0 PUSH1 0x20 DUP3 ADD SWAP1 POP PUSH2 0x422E PUSH0 DUP4 ADD DUP5 PUSH2 0x420C JUMP JUMPDEST SWAP3 SWAP2 POP POP JUMP JUMPDEST PUSH0 PUSH1 0x20 DUP3 DUP5 SUB SLT ISZERO PUSH2 0x4249 JUMPI PUSH2 0x4248 PUSH2 0x3CB7 JUMP JUMPDEST JUMPDEST PUSH0 PUSH2 0x4256 DUP5 DUP3 DUP6 ADD PUSH2 0x3ECE JUMP JUMPDEST SWAP2 POP POP SWAP3 SWAP2 POP POP JUMP JUMPDEST PUSH0 PUSH1 0x40 DUP3 ADD SWAP1 POP PUSH2 0x4272 PUSH0 DUP4 ADD DUP6 PUSH2 0x40E3 JUMP JUMPDEST PUSH2 0x427F PUSH1 0x20 DUP4 ADD DUP5 PUSH2 0x40E3 JUMP JUMPDEST SWAP4 SWAP3 POP POP POP JUMP JUMPDEST PUSH0 DUP1 PUSH0 PUSH1 0x60 DUP5 DUP7 SUB SLT ISZERO PUSH2 0x429D JUMPI PUSH2 0x429C PUSH2 0x3CB7 JUMP JUMPDEST JUMPDEST PUSH0 PUSH2 0x42AA DUP7 DUP3 DUP8 ADD PUSH2 0x3ECE JUMP JUMPDEST SWAP4 POP POP PUSH1 0x20 DUP5 ADD CALLDATALOAD PUSH8 0xFFFFFFFFFFFFFFFF DUP2 GT ISZERO PUSH2 0x42CB JUMPI PUSH2 0x42CA PUSH2 0x3CBB JUMP JUMPDEST JUMPDEST PUSH2 0x42D7 DUP7 DUP3 DUP8 ADD PUSH2 0x401F JUMP JUMPDEST SWAP3 POP POP PUSH1 0x40 DUP5 ADD CALLDATALOAD PUSH8 0xFFFFFFFFFFFFFFFF DUP2 GT ISZERO PUSH2 0x42F8 JUMPI PUSH2 0x42F7 PUSH2 0x3CBB JUMP JUMPDEST JUMPDEST PUSH2 0x4304 DUP7 DUP3 DUP8 ADD PUSH2 0x401F JUMP JUMPDEST SWAP2 POP POP SWAP3 POP SWAP3 POP SWAP3 JUMP JUMPDEST PUSH0 DUP1 PUSH0 PUSH1 0x60 DUP5 DUP7 SUB SLT ISZERO PUSH2 0x4325 JUMPI PUSH2 0x4324 PUSH2 0x3CB7 JUMP JUMPDEST JUMPDEST PUSH0 DUP5 ADD CALLDATALOAD PUSH8 0xFFFFFFFFFFFFFFFF DUP2 GT ISZERO PUSH2 0x4342 JUMPI PUSH2 0x4341 PUSH2 0x3CBB JUMP JUMPDEST JUMPDEST PUSH2 0x434E DUP7 DUP3 DUP8 ADD PUSH2 0x401F JUMP JUMPDEST SWAP4 POP POP PUSH1 0x20 PUSH2 0x435F DUP7 DUP3 DUP8 ADD PUSH2 0x3CDE JUMP JUMPDEST SWAP3 POP POP PUSH1 0x40 PUSH2 0x4370 DUP7 DUP3 DUP8 ADD PUSH2 0x3CDE JUMP JUMPDEST SWAP2 POP POP SWAP3 POP SWAP3 POP SWAP3 JUMP JUMPDEST PUSH2 0x4383 DUP2 PUSH2 0x3D9D JUMP JUMPDEST DUP2 EQ PUSH2 0x438D JUMPI PUSH0 DUP1 REVERT JUMPDEST POP JUMP JUMPDEST PUSH0 DUP2 CALLDATALOAD SWAP1 POP PUSH2 0x439E DUP2 PUSH2 0x437A JUMP JUMPDEST SWAP3 SWAP2 POP POP JUMP JUMPDEST PUSH0 DUP1 PUSH1 0x40 DUP4 DUP6 SUB SLT ISZERO PUSH2 0x43BA JUMPI PUSH2 0x43B9 PUSH2 0x3CB7 JUMP JUMPDEST JUMPDEST PUSH0 PUSH2 0x43C7 DUP6 DUP3 DUP7 ADD PUSH2 0x3ECE JUMP JUMPDEST SWAP3 POP POP PUSH1 0x20 PUSH2 0x43D8 DUP6 DUP3 DUP7 ADD PUSH2 0x4390 JUMP JUMPDEST SWAP2 POP POP SWAP3 POP SWAP3 SWAP1 POP JUMP JUMPDEST PUSH32 0x4E487B7100000000000000000000000000000000000000000000000000000000 PUSH0 MSTORE PUSH1 0x21 PUSH1 0x4 MSTORE PUSH1 0x24 PUSH0 REVERT JUMPDEST PUSH1 0x4 DUP2 LT PUSH2 0x4420 JUMPI PUSH2 0x441F PUSH2 0x43E2 JUMP JUMPDEST JUMPDEST POP JUMP JUMPDEST PUSH0 DUP2 SWAP1 POP PUSH2 0x4430 DUP3 PUSH2 0x440F JUMP JUMPDEST SWAP2 SWAP1 POP JUMP JUMPDEST PUSH0 PUSH2 0x443F DUP3 PUSH2 0x4423 JUMP JUMPDEST SWAP1 POP SWAP2 SWAP1 POP JUMP JUMPDEST PUSH2 0x444F DUP2 PUSH2 0x4435 JUMP JUMPDEST DUP3 MSTORE POP POP JUMP JUMPDEST PUSH0 PUSH1 0x40 DUP3 ADD SWAP1 POP PUSH2 0x4468 PUSH0 DUP4 ADD DUP6 PUSH2 0x4446 JUMP JUMPDEST PUSH2 0x4475 PUSH1 0x20 DUP4 ADD DUP5 PUSH2 0x40E3 JUMP JUMPDEST SWAP4 SWAP3 POP POP POP JUMP JUMPDEST PUSH0 DUP1 PUSH0 DUP1 PUSH1 0x80 DUP6 DUP8 SUB SLT ISZERO PUSH2 0x4494 JUMPI PUSH2 0x4493 PUSH2 0x3CB7 JUMP JUMPDEST JUMPDEST PUSH0 PUSH2 0x44A1 DUP8 DUP3 DUP9 ADD PUSH2 0x3ECE JUMP JUMPDEST SWAP5 POP POP PUSH1 0x20 PUSH2 0x44B2 DUP8 DUP3 DUP9 ADD PUSH2 0x3ECE JUMP JUMPDEST SWAP4 POP POP PUSH1 0x40 PUSH2 0x44C3 DUP8 DUP3 DUP9 ADD PUSH2 0x3CDE JUMP JUMPDEST SWAP3 POP POP PUSH1 0x60 DUP6 ADD CALLDATALOAD PUSH8 0xFFFFFFFFFFFFFFFF DUP2 GT ISZERO PUSH2 0x44E4 JUMPI PUSH2 0x44E3 PUSH2 0x3CBB JUMP JUMPDEST JUMPDEST PUSH2 0x44F0 DUP8 DUP3 DUP9 ADD PUSH2 0x417C JUMP JUMPDEST SWAP2 POP POP SWAP3 SWAP6 SWAP2 SWAP5 POP SWAP3 POP JUMP JUMPDEST PUSH0 DUP1 PUSH1 0x40 DUP4 DUP6 SUB SLT ISZERO PUSH2 0x4512 JUMPI PUSH2 0x4511 PUSH2 0x3CB7 JUMP JUMPDEST JUMPDEST PUSH0 PUSH2 0x451F DUP6 DUP3 DUP7 ADD PUSH2 0x3ECE JUMP JUMPDEST SWAP3 POP POP PUSH1 0x20 DUP4 ADD CALLDATALOAD PUSH8 0xFFFFFFFFFFFFFFFF DUP2 GT ISZERO PUSH2 0x4540 JUMPI PUSH2 0x453F PUSH2 0x3CBB JUMP JUMPDEST JUMPDEST PUSH2 0x454C DUP6 DUP3 DUP7 ADD PUSH2 0x401F JUMP JUMPDEST SWAP2 POP POP SWAP3 POP SWAP3 SWAP1 POP JUMP JUMPDEST PUSH0 DUP1 PUSH1 0x40 DUP4 DUP6 SUB SLT ISZERO PUSH2 0x456C JUMPI PUSH2 0x456B PUSH2 0x3CB7 JUMP JUMPDEST JUMPDEST PUSH0 PUSH2 0x4579 DUP6 DUP3 DUP7 ADD PUSH2 0x3ECE JUMP JUMPDEST SWAP3 POP POP PUSH1 0x20 PUSH2 0x458A DUP6 DUP3 DUP7 ADD PUSH2 0x3ECE JUMP JUMPDEST SWAP2 POP POP SWAP3 POP SWAP3 SWAP1 POP JUMP JUMPDEST PUSH32 0x546F6B656E20697320616C7265616479206164756C7400000000000000000000 PUSH0 DUP3 ADD MSTORE POP JUMP JUMPDEST PUSH0 PUSH2 0x45C8 PUSH1 0x16 DUP4 PUSH2 0x3DDA JUMP JUMPDEST SWAP2 POP PUSH2 0x45D3 DUP3 PUSH2 0x4594 JUMP JUMPDEST PUSH1 0x20 DUP3 ADD SWAP1 POP SWAP2 SWAP1 POP JUMP JUMPDEST PUSH0 PUSH1 0x20 DUP3 ADD SWAP1 POP DUP2 DUP2 SUB PUSH0 DUP4 ADD MSTORE PUSH2 0x45F5 DUP2 PUSH2 0x45BC JUMP JUMPDEST SWAP1 POP SWAP2 SWAP1 POP JUMP JUMPDEST PUSH32 0x4E6F74206F776E65720000000000000000000000000000000000000000000000 PUSH0 DUP3 ADD MSTORE POP JUMP JUMPDEST PUSH0 PUSH2 0x4630 PUSH1 0x9 DUP4 PUSH2 0x3DDA JUMP JUMPDEST SWAP2 POP PUSH2 0x463B DUP3 PUSH2 0x45FC JUMP JUMPDEST PUSH1 0x20 DUP3 ADD SWAP1 POP SWAP2 SWAP1 POP JUMP JUMPDEST PUSH0 PUSH1 0x20 DUP3 ADD SWAP1 POP DUP2 DUP2 SUB PUSH0 DUP4 ADD MSTORE PUSH2 0x465D DUP2 PUSH2 0x4624 JUMP JUMPDEST SWAP1 POP SWAP2 SWAP1 POP JUMP JUMPDEST PUSH32 0x4E487B7100000000000000000000000000000000000000000000000000000000 PUSH0 MSTORE PUSH1 0x22 PUSH1 0x4 MSTORE PUSH1 0x24 PUSH0 REVERT JUMPDEST PUSH0 PUSH1 0x2 DUP3 DIV SWAP1 POP PUSH1 0x1 DUP3 AND DUP1 PUSH2 0x46A8 JUMPI PUSH1 0x7F DUP3 AND SWAP2 POP JUMPDEST PUSH1 0x20 DUP3 LT DUP2 SUB PUSH2 0x46BB JUMPI PUSH2 0x46BA PUSH2 0x4664 JUMP JUMPDEST JUMPDEST POP SWAP2 SWAP1 POP JUMP JUMPDEST PUSH0 DUP2 SWAP1 POP DUP2 PUSH0 MSTORE PUSH1 0x20 PUSH0 KECCAK256 SWAP1 POP SWAP2 SWAP1 POP JUMP JUMPDEST PUSH0 PUSH1 0x20 PUSH1 0x1F DUP4 ADD DIV SWAP1 POP SWAP2 SWAP1 POP JUMP JUMPDEST PUSH0 DUP3 DUP3 SHL SWAP1 POP SWAP3 SWAP2 POP POP JUMP JUMPDEST PUSH0 PUSH1 0x8 DUP4 MUL PUSH2 0x471D PUSH32 0xFFFFFFFFFFFFFFFFFFFFFFFFFFFFFFFFFFFFFFFFFFFFFFFFFFFFFFFFFFFFFFFF DUP3 PUSH2 0x46E2 JUMP JUMPDEST PUSH2 0x4727 DUP7 DUP4 PUSH2 0x46E2 JUMP JUMPDEST SWAP6 POP DUP1 NOT DUP5 AND SWAP4 POP DUP1 DUP7 AND DUP5 OR SWAP3 POP POP POP SWAP4 SWAP3 POP POP POP JUMP JUMPDEST PUSH0 DUP2 SWAP1 POP SWAP2 SWAP1 POP JUMP JUMPDEST PUSH0 PUSH2 0x4762 PUSH2 0x475D PUSH2 0x4758 DUP5 PUSH2 0x3CBF JUMP JUMPDEST PUSH2 0x473F JUMP JUMPDEST PUSH2 0x3CBF JUMP JUMPDEST SWAP1 POP SWAP2 SWAP1 POP JUMP JUMPDEST PUSH0 DUP2 SWAP1 POP SWAP2 SWAP1 POP JUMP JUMPDEST PUSH2 0x477B DUP4 PUSH2 0x4748 JUMP JUMPDEST PUSH2 0x478F PUSH2 0x4787 DUP3 PUSH2 0x4769 JUMP JUMPDEST DUP5 DUP5 SLOAD PUSH2 0x46EE JUMP JUMPDEST DUP3 SSTORE POP POP POP POP JUMP JUMPDEST PUSH0 SWAP1 JUMP JUMPDEST PUSH2 0x47A3 PUSH2 0x4797 JUMP JUMPDEST PUSH2 0x47AE DUP2 DUP5 DUP5 PUSH2 0x4772 JUMP JUMPDEST POP POP POP JUMP JUMPDEST JUMPDEST DUP2 DUP2 LT ISZERO PUSH2 0x47D1 JUMPI PUSH2 0x47C6 PUSH0 DUP3 PUSH2 0x479B JUMP JUMPDEST PUSH1 0x1 DUP2 ADD SWAP1 POP PUSH2 0x47B4 JUMP JUMPDEST POP POP JUMP JUMPDEST PUSH1 0x1F DUP3 GT ISZERO PUSH2 0x4816 JUMPI PUSH2 0x47E7 DUP2 PUSH2 0x46C1 JUMP JUMPDEST PUSH2 0x47F0 DUP5 PUSH2 0x46D3 JUMP JUMPDEST DUP2 ADD PUSH1 0x20 DUP6 LT ISZERO PUSH2 0x47FF JUMPI DUP2 SWAP1 POP JUMPDEST PUSH2 0x4813 PUSH2 0x480B DUP6 PUSH2 0x46D3 JUMP JUMPDEST DUP4 ADD DUP3 PUSH2 0x47B3 JUMP JUMPDEST POP POP JUMPDEST POP POP POP JUMP JUMPDEST PUSH0 DUP3 DUP3 SHR SWAP1 POP SWAP3 SWAP2 POP POP JUMP JUMPDEST PUSH0 PUSH2 0x4836 PUSH0 NOT DUP5 PUSH1 0x8 MUL PUSH2 0x481B JUMP JUMPDEST NOT DUP1 DUP4 AND SWAP2 POP POP SWAP3 SWAP2 POP POP JUMP JUMPDEST PUSH0 PUSH2 0x484E DUP4 DUP4 PUSH2 0x4827 JUMP JUMPDEST SWAP2 POP DUP3 PUSH1 0x2 MUL DUP3 OR SWAP1 POP SWAP3 SWAP2 POP POP JUMP JUMPDEST PUSH2 0x4867 DUP3 PUSH2 0x3DD0 JUMP JUMPDEST PUSH8 0xFFFFFFFFFFFFFFFF DUP2 GT ISZERO PUSH2 0x4880 JUMPI PUSH2 0x487F PUSH2 0x3F28 JUMP JUMPDEST JUMPDEST PUSH2 0x488A DUP3 SLOAD PUSH2 0x4691 JUMP JUMPDEST PUSH2 0x4895 DUP3 DUP3 DUP6 PUSH2 0x47D5 JUMP JUMPDEST PUSH0 PUSH1 0x20 SWAP1 POP PUSH1 0x1F DUP4 GT PUSH1 0x1 DUP2 EQ PUSH2 0x48C6 JUMPI PUSH0 DUP5 ISZERO PUSH2 0x48B4 JUMPI DUP3 DUP8 ADD MLOAD SWAP1 POP JUMPDEST PUSH2 0x48BE DUP6 DUP3 PUSH2 0x4843 JUMP JUMPDEST DUP7 SSTORE POP PUSH2 0x4925 JUMP JUMPDEST PUSH1 0x1F NOT DUP5 AND PUSH2 0x48D4 DUP7 PUSH2 0x46C1 JUMP JUMPDEST PUSH0 JUMPDEST DUP3 DUP2 LT ISZERO PUSH2 0x48FB JUMPI DUP5 DUP10 ADD MLOAD DUP3 SSTORE PUSH1 0x1 DUP3 ADD SWAP2 POP PUSH1 0x20 DUP6 ADD SWAP5 POP PUSH1 0x20 DUP2 ADD SWAP1 POP PUSH2 0x48D6 JUMP JUMPDEST DUP7 DUP4 LT ISZERO PUSH2 0x4918 JUMPI DUP5 DUP10 ADD MLOAD PUSH2 0x4914 PUSH1 0x1F DUP10 AND DUP3 PUSH2 0x4827 JUMP JUMPDEST DUP4 SSTORE POP JUMPDEST PUSH1 0x1 PUSH1 0x2 DUP9 MUL ADD DUP9 SSTORE POP POP POP JUMPDEST POP POP POP POP POP POP JUMP JUMPDEST PUSH32 0x4E487B7100000000000000000000000000000000000000000000000000000000 PUSH0 MSTORE PUSH1 0x11 PUSH1 0x4 MSTORE PUSH1 0x24 PUSH0 REVERT JUMPDEST PUSH0 PUSH2 0x4964 DUP3 PUSH2 0x3CBF JUMP JUMPDEST SWAP2 POP PUSH2 0x496F DUP4 PUSH2 0x3CBF JUMP JUMPDEST SWAP3 POP DUP3 DUP3 ADD SWAP1 POP DUP1 DUP3 GT ISZERO PUSH2 0x4987 JUMPI PUSH2 0x4986 PUSH2 0x492D JUMP JUMPDEST JUMPDEST SWAP3 SWAP2 POP POP JUMP JUMPDEST PUSH32 0x556E61626C6520746F2065766F6C766500000000000000000000000000000000 PUSH0 DUP3 ADD MSTORE POP JUMP JUMPDEST PUSH0 PUSH2 0x49C1 PUSH1 0x10 DUP4 PUSH2 0x3DDA JUMP JUMPDEST SWAP2 POP PUSH2 0x49CC DUP3 PUSH2 0x498D JUMP JUMPDEST PUSH1 0x20 DUP3 ADD SWAP1 POP SWAP2 SWAP1 POP JUMP JUMPDEST PUSH0 PUSH1 0x20 DUP3 ADD SWAP1 POP DUP2 DUP2 SUB PUSH0 DUP4 ADD MSTORE PUSH2 0x49EE DUP2 PUSH2 0x49B5 JUMP JUMPDEST SWAP1 POP SWAP2 SWAP1 POP JUMP JUMPDEST PUSH0 PUSH1 0x60 DUP3 ADD SWAP1 POP PUSH2 0x4A08 PUSH0 DUP4 ADD DUP7 PUSH2 0x3E90 JUMP JUMPDEST PUSH2 0x4A15 PUSH1 0x20 DUP4 ADD DUP6 PUSH2 0x40E3 JUMP JUMPDEST PUSH2 0x4A22 PUSH1 0x40 DUP4 ADD DUP5 PUSH2 0x3E90 JUMP JUMPDEST SWAP5 SWAP4 POP POP POP POP JUMP JUMPDEST PUSH0 DUP2 SWAP1 POP SWAP2 SWAP1 POP JUMP JUMPDEST PUSH0 PUSH8 0xFFFFFFFFFFFFFFFF DUP3 AND SWAP1 POP SWAP2 SWAP1 POP JUMP JUMPDEST PUSH0 PUSH2 0x4A60 PUSH2 0x4A5B PUSH2 0x4A56 DUP5 PUSH2 0x4A2A JUMP JUMPDEST PUSH2 0x473F JUMP JUMPDEST PUSH2 0x4A33 JUMP JUMPDEST SWAP1 POP SWAP2 SWAP1 POP JUMP JUMPDEST PUSH2 0x4A70 DUP2 PUSH2 0x4A46 JUMP JUMPDEST DUP3 MSTORE POP POP JUMP JUMPDEST PUSH0 PUSH1 0x20 DUP3 ADD SWAP1 POP PUSH2 0x4A89 PUSH0 DUP4 ADD DUP5 PUSH2 0x4A67 JUMP JUMPDEST SWAP3 SWAP2 POP POP JUMP JUMPDEST PUSH32 0x496E636573740000000000000000000000000000000000000000000000000000 PUSH0 DUP3 ADD MSTORE POP JUMP JUMPDEST PUSH0 PUSH2 0x4AC3 PUSH1 0x6 DUP4 PUSH2 0x3DDA JUMP JUMPDEST SWAP2 POP PUSH2 0x4ACE DUP3 PUSH2 0x4A8F JUMP JUMPDEST PUSH1 0x20 DUP3 ADD SWAP1 POP SWAP2 SWAP1 POP JUMP JUMPDEST PUSH0 PUSH1 0x20 DUP3 ADD SWAP1 POP DUP2 DUP2 SUB PUSH0 DUP4 ADD MSTORE PUSH2 0x4AF0 DUP2 PUSH2 0x4AB7 JUMP JUMPDEST SWAP1 POP SWAP2 SWAP1 POP JUMP JUMPDEST PUSH32 0x4272656564696E67206E6F7420616C6C6F776564207965740000000000000000 PUSH0 DUP3 ADD MSTORE POP JUMP JUMPDEST PUSH0 PUSH2 0x4B2B PUSH1 0x18 DUP4 PUSH2 0x3DDA JUMP JUMPDEST SWAP2 POP PUSH2 0x4B36 DUP3 PUSH2 0x4AF7 JUMP JUMPDEST PUSH1 0x20 DUP3 ADD SWAP1 POP SWAP2 SWAP1 POP JUMP JUMPDEST PUSH0 PUSH1 0x20 DUP3 ADD SWAP1 POP DUP2 DUP2 SUB PUSH0 DUP4 ADD MSTORE PUSH2 0x4B58 DUP2 PUSH2 0x4B1F JUMP JUMPDEST SWAP1 POP SWAP2 SWAP1 POP JUMP JUMPDEST PUSH32 0x53616D652067656E646572000000000000000000000000000000000000000000 PUSH0 DUP3 ADD MSTORE POP JUMP JUMPDEST PUSH0 PUSH2 0x4B93 PUSH1 0xB DUP4 PUSH2 0x3DDA JUMP JUMPDEST SWAP2 POP PUSH2 0x4B9E DUP3 PUSH2 0x4B5F JUMP JUMPDEST PUSH1 0x20 DUP3 ADD SWAP1 POP SWAP2 SWAP1 POP JUMP JUMPDEST PUSH0 PUSH1 0x20 DUP3 ADD SWAP1 POP DUP2 DUP2 SUB PUSH0 DUP4 ADD MSTORE PUSH2 0x4BC0 DUP2 PUSH2 0x4B87 JUMP JUMPDEST SWAP1 POP SWAP2 SWAP1 POP JUMP JUMPDEST PUSH0 PUSH2 0x4BD1 DUP3 PUSH2 0x3CBF JUMP JUMPDEST SWAP2 POP PUSH2 0x4BDC DUP4 PUSH2 0x3CBF JUMP JUMPDEST SWAP3 POP DUP3 DUP3 SUB SWAP1 POP DUP2 DUP2 GT ISZERO PUSH2 0x4BF4 JUMPI PUSH2 0x4BF3 PUSH2 0x492D JUMP JUMPDEST JUMPDEST SWAP3 SWAP2 POP POP JUMP JUMPDEST PUSH0 DUP2 SWAP1 POP SWAP3 SWAP2 POP POP JUMP JUMPDEST PUSH0 DUP2 SLOAD PUSH2 0x4C10 DUP2 PUSH2 0x4691 JUMP JUMPDEST PUSH2 0x4C1A DUP2 DUP7 PUSH2 0x4BFA JUMP JUMPDEST SWAP5 POP PUSH1 0x1 DUP3 AND PUSH0 DUP2 EQ PUSH2 0x4C34 JUMPI PUSH1 0x1 DUP2 EQ PUSH2 0x4C49 JUMPI PUSH2 0x4C7B JUMP JUMPDEST PUSH1 0xFF NOT DUP4 AND DUP7 MSTORE DUP2 ISZERO ISZERO DUP3 MUL DUP7 ADD SWAP4 POP PUSH2 0x4C7B JUMP JUMPDEST PUSH2 0x4C52 DUP6 PUSH2 0x46C1 JUMP JUMPDEST PUSH0 JUMPDEST DUP4 DUP2 LT ISZERO PUSH2 0x4C73 JUMPI DUP2 SLOAD DUP2 DUP10 ADD MSTORE PUSH1 0x1 DUP3 ADD SWAP2 POP PUSH1 0x20 DUP2 ADD SWAP1 POP PUSH2 0x4C54 JUMP JUMPDEST DUP4 DUP9 ADD SWAP6 POP POP POP JUMPDEST POP POP POP SWAP3 SWAP2 POP POP JUMP JUMPDEST PUSH0 PUSH2 0x4C8E DUP3 PUSH2 0x3DD0 JUMP JUMPDEST PUSH2 0x4C98 DUP2 DUP6 PUSH2 0x4BFA JUMP JUMPDEST SWAP4 POP PUSH2 0x4CA8 DUP2 DUP6 PUSH1 0x20 DUP7 ADD PUSH2 0x3DEA JUMP JUMPDEST DUP1 DUP5 ADD SWAP2 POP POP SWAP3 SWAP2 POP POP JUMP JUMPDEST PUSH0 PUSH2 0x4CBF DUP3 DUP6 PUSH2 0x4C04 JUMP JUMPDEST SWAP2 POP PUSH2 0x4CCB DUP3 DUP5 PUSH2 0x4C84 JUMP JUMPDEST SWAP2 POP DUP2 SWAP1 POP SWAP4 SWAP3 POP POP POP JUMP JUMPDEST PUSH32 0x5F65676700000000000000000000000000000000000000000000000000000000 PUSH0 DUP3 ADD MSTORE POP JUMP JUMPDEST PUSH0 PUSH2 0x4D0B PUSH1 0x4 DUP4 PUSH2 0x4BFA JUMP JUMPDEST SWAP2 POP PUSH2 0x4D16 DUP3 PUSH2 0x4CD7 JUMP JUMPDEST PUSH1 0x4 DUP3 ADD SWAP1 POP SWAP2 SWAP1 POP JUMP JUMPDEST PUSH0 PUSH2 0x4D2C DUP3 DUP5 PUSH2 0x4C04 JUMP JUMPDEST SWAP2 POP PUSH2 0x4D37 DUP3 PUSH2 0x4CFF JUMP JUMPDEST SWAP2 POP DUP2 SWAP1 POP SWAP3 SWAP2 POP POP JUMP JUMPDEST PUSH32 0x5F00000000000000000000000000000000000000000000000000000000000000 PUSH0 DUP3 ADD MSTORE POP JUMP JUMPDEST PUSH0 PUSH2 0x4D76 PUSH1 0x1 DUP4 PUSH2 0x4BFA JUMP JUMPDEST SWAP2 POP PUSH2 0x4D81 DUP3 PUSH2 0x4D42 JUMP JUMPDEST PUSH1 0x1 DUP3 ADD SWAP1 POP SWAP2 SWAP1 POP JUMP JUMPDEST PUSH0 PUSH2 0x4D97 DUP3 DUP8 PUSH2 0x4C04 JUMP JUMPDEST SWAP2 POP PUSH2 0x4DA2 DUP3 PUSH2 0x4D6A JUMP JUMPDEST SWAP2 POP PUSH2 0x4DAE DUP3 DUP7 PUSH2 0x4C84 JUMP JUMPDEST SWAP2 POP PUSH2 0x4DB9 DUP3 PUSH2 0x4D6A JUMP JUMPDEST SWAP2 POP PUSH2 0x4DC5 DUP3 DUP6 PUSH2 0x4C84 JUMP JUMPDEST SWAP2 POP PUSH2 0x4DD0 DUP3 PUSH2 0x4D6A JUMP JUMPDEST SWAP2 POP PUSH2 0x4DDC DUP3 DUP5 PUSH2 0x4C84 JUMP JUMPDEST SWAP2 POP DUP2 SWAP1 POP SWAP6 SWAP5 POP POP POP POP POP JUMP JUMPDEST PUSH0 PUSH2 0x4DF5 DUP3 DUP6 PUSH2 0x4C84 JUMP JUMPDEST SWAP2 POP PUSH2 0x4E01 DUP3 DUP5 PUSH2 0x4C04 JUMP JUMPDEST SWAP2 POP DUP2 SWAP1 POP SWAP4 SWAP3 POP POP POP JUMP JUMPDEST PUSH32 0x7B226E616D65223A2022447261676F6E20230000000000000000000000000000 PUSH0 DUP3 ADD MSTORE POP JUMP JUMPDEST PUSH0 PUSH2 0x4E41 PUSH1 0x12 DUP4 PUSH2 0x4BFA JUMP JUMPDEST SWAP2 POP PUSH2 0x4E4C DUP3 PUSH2 0x4E0D JUMP JUMPDEST PUSH1 0x12 DUP3 ADD SWAP1 POP SWAP2 SWAP1 POP JUMP JUMPDEST PUSH32 0x222C2265787465726E616C5F75726C223A2268747470733A2F2F676974687562 PUSH0 DUP3 ADD MSTORE PUSH32 0x2E636F6D2F626368736F6C2F43727970746F447261676F6E222C22696D616765 PUSH1 0x20 DUP3 ADD MSTORE PUSH32 0x223A220000000000000000000000000000000000000000000000000000000000 PUSH1 0x40 DUP3 ADD MSTORE POP JUMP JUMPDEST PUSH0 PUSH2 0x4ED7 PUSH1 0x43 DUP4 PUSH2 0x4BFA JUMP JUMPDEST SWAP2 POP PUSH2 0x4EE2 DUP3 PUSH2 0x4E57 JUMP JUMPDEST PUSH1 0x43 DUP3 ADD SWAP1 POP SWAP2 SWAP1 POP JUMP JUMPDEST PUSH0 PUSH2 0x4EF7 DUP3 PUSH2 0x4E35 JUMP JUMPDEST SWAP2 POP PUSH2 0x4F03 DUP3 DUP7 PUSH2 0x4C84 JUMP JUMPDEST SWAP2 POP PUSH2 0x4F0E DUP3 PUSH2 0x4ECB JUMP JUMPDEST SWAP2 POP PUSH2 0x4F1A DUP3 DUP6 PUSH2 0x4C04 JUMP JUMPDEST SWAP2 POP PUSH2 0x4F26 DUP3 DUP5 PUSH2 0x4C84 JUMP JUMPDEST SWAP2 POP DUP2 SWAP1 POP SWAP5 SWAP4 POP POP POP POP JUMP JUMPDEST PUSH32 0x222C2261747472696275746573223A5B7B2274726169745F74797065223A2244 PUSH0 DUP3 ADD MSTORE PUSH32 0x7261676F6E222C2276616C7565223A2200000000000000000000000000000000 PUSH1 0x20 DUP3 ADD MSTORE POP JUMP JUMPDEST PUSH0 PUSH2 0x4F8D PUSH1 0x30 DUP4 PUSH2 0x4BFA JUMP JUMPDEST SWAP2 POP PUSH2 0x4F98 DUP3 PUSH2 0x4F33 JUMP JUMPDEST PUSH1 0x30 DUP3 ADD SWAP1 POP SWAP2 SWAP1 POP JUMP JUMPDEST PUSH0 PUSH2 0x4FAD DUP3 PUSH2 0x4F81 JUMP JUMPDEST SWAP2 POP PUSH2 0x4FB9 DUP3 DUP5 PUSH2 0x4C04 JUMP JUMPDEST SWAP2 POP DUP2 SWAP1 POP SWAP3 SWAP2 POP POP JUMP JUMPDEST PUSH32 0x646174613A6170706C69636174696F6E2F6A736F6E3B757466382C0000000000 PUSH0 DUP3 ADD MSTORE POP JUMP JUMPDEST PUSH0 PUSH2 0x4FF8 PUSH1 0x1B DUP4 PUSH2 0x4BFA JUMP JUMPDEST SWAP2 POP PUSH2 0x5003 DUP3 PUSH2 0x4FC4 JUMP JUMPDEST PUSH1 0x1B DUP3 ADD SWAP1 POP SWAP2 SWAP1 POP JUMP JUMPDEST PUSH0 PUSH2 0x5018 DUP3 PUSH2 0x4FEC JUMP JUMPDEST SWAP2 POP PUSH2 0x5024 DUP3 DUP7 PUSH2 0x4C84 JUMP JUMPDEST SWAP2 POP PUSH2 0x5030 DUP3 DUP6 PUSH2 0x4C84 JUMP JUMPDEST SWAP2 POP PUSH2 0x503C DUP3 DUP5 PUSH2 0x4C84 JUMP JUMPDEST SWAP2 POP DUP2 SWAP1 POP SWAP5 SWAP4 POP POP POP POP JUMP JUMPDEST PUSH32 0x6C696D6974206578636565646564000000000000000000000000000000000000 PUSH0 DUP3 ADD MSTORE POP JUMP JUMPDEST PUSH0 PUSH2 0x507D PUSH1 0xE DUP4 PUSH2 0x3DDA JUMP JUMPDEST SWAP2 POP PUSH2 0x5088 DUP3 PUSH2 0x5049 JUMP JUMPDEST PUSH1 0x20 DUP3 ADD SWAP1 POP SWAP2 SWAP1 POP JUMP JUMPDEST PUSH0 PUSH1 0x20 DUP3 ADD SWAP1 POP DUP2 DUP2 SUB PUSH0 DUP4 ADD MSTORE PUSH2 0x50AA DUP2 PUSH2 0x5071 JUMP JUMPDEST SWAP1 POP SWAP2 SWAP1 POP JUMP JUMPDEST PUSH0 PUSH2 0x50BB DUP3 PUSH2 0x3CBF JUMP JUMPDEST SWAP2 POP PUSH32 0xFFFFFFFFFFFFFFFFFFFFFFFFFFFFFFFFFFFFFFFFFFFFFFFFFFFFFFFFFFFFFFFF DUP3 SUB PUSH2 0x50ED JUMPI PUSH2 0x50EC PUSH2 0x492D JUMP JUMPDEST JUMPDEST PUSH1 0x1 DUP3 ADD SWAP1 POP SWAP2 SWAP1 POP JUMP JUMPDEST PUSH0 DUP2 SWAP1 POP SWAP2 SWAP1 POP JUMP JUMPDEST PUSH2 0x5112 PUSH2 0x510D DUP3 PUSH2 0x3CBF JUMP JUMPDEST PUSH2 0x50F8 JUMP JUMPDEST DUP3 MSTORE POP POP JUMP JUMPDEST PUSH0 DUP2 PUSH1 0x60 SHL SWAP1 POP SWAP2 SWAP1 POP JUMP JUMPDEST PUSH0 PUSH2 0x512E DUP3 PUSH2 0x5118 JUMP JUMPDEST SWAP1 POP SWAP2 SWAP1 POP JUMP JUMPDEST PUSH0 PUSH2 0x513F DUP3 PUSH2 0x5124 JUMP JUMPDEST SWAP1 POP SWAP2 SWAP1 POP JUMP JUMPDEST PUSH2 0x5157 PUSH2 0x5152 DUP3 PUSH2 0x3E7F JUMP JUMPDEST PUSH2 0x5135 JUMP JUMPDEST DUP3 MSTORE POP POP JUMP JUMPDEST PUSH0 PUSH2 0x5168 DUP3 DUP7 PUSH2 0x5101 JUMP JUMPDEST PUSH1 0x20 DUP3 ADD SWAP2 POP PUSH2 0x5178 DUP3 DUP6 PUSH2 0x5146 JUMP JUMPDEST PUSH1 0x14 DUP3 ADD SWAP2 POP PUSH2 0x5188 DUP3 DUP5 PUSH2 0x5101 JUMP JUMPDEST PUSH1 0x20 DUP3 ADD SWAP2 POP DUP2 SWAP1 POP SWAP5 SWAP4 POP POP POP POP JUMP JUMPDEST PUSH32 0x4E487B7100000000000000000000000000000000000000000000000000000000 PUSH0 MSTORE PUSH1 0x12 PUSH1 0x4 MSTORE PUSH1 0x24 PUSH0 REVERT JUMPDEST PUSH0 PUSH2 0x51D0 DUP3 PUSH2 0x3CBF JUMP JUMPDEST SWAP2 POP PUSH2 0x51DB DUP4 PUSH2 0x3CBF JUMP JUMPDEST SWAP3 POP DUP3 PUSH2 0x51EB JUMPI PUSH2 0x51EA PUSH2 0x5199 JUMP JUMPDEST JUMPDEST DUP3 DUP3 MOD SWAP1 POP SWAP3 SWAP2 POP POP JUMP JUMPDEST PUSH2 0x51FF DUP2 PUSH2 0x4203 JUMP JUMPDEST DUP2 EQ PUSH2 0x5209 JUMPI PUSH0 DUP1 REVERT JUMPDEST POP JUMP JUMPDEST PUSH0 DUP2 MLOAD SWAP1 POP PUSH2 0x521A DUP2 PUSH2 0x51F6 JUMP JUMPDEST SWAP3 SWAP2 POP POP JUMP JUMPDEST PUSH0 PUSH1 0x20 DUP3 DUP5 SUB SLT ISZERO PUSH2 0x5235 JUMPI PUSH2 0x5234 PUSH2 0x3CB7 JUMP JUMPDEST JUMPDEST PUSH0 PUSH2 0x5242 DUP5 DUP3 DUP6 ADD PUSH2 0x520C JUMP JUMPDEST SWAP2 POP POP SWAP3 SWAP2 POP POP JUMP JUMPDEST PUSH0 DUP2 MLOAD SWAP1 POP SWAP2 SWAP1 POP JUMP JUMPDEST PUSH0 DUP3 DUP3 MSTORE PUSH1 0x20 DUP3 ADD SWAP1 POP SWAP3 SWAP2 POP POP JUMP JUMPDEST PUSH0 PUSH2 0x526F DUP3 PUSH2 0x524B JUMP JUMPDEST PUSH2 0x5279 DUP2 DUP6 PUSH2 0x5255 JUMP JUMPDEST SWAP4 POP PUSH2 0x5289 DUP2 DUP6 PUSH1 0x20 DUP7 ADD PUSH2 0x3DEA JUMP JUMPDEST PUSH2 0x5292 DUP2 PUSH2 0x3DF8 JUMP JUMPDEST DUP5 ADD SWAP2 POP POP SWAP3 SWAP2 POP POP JUMP JUMPDEST PUSH0 PUSH1 0x80 DUP3 ADD SWAP1 POP PUSH2 0x52B0 PUSH0 DUP4 ADD DUP8 PUSH2 0x3E90 JUMP JUMPDEST PUSH2 0x52BD PUSH1 0x20 DUP4 ADD DUP7 PUSH2 0x3E90 JUMP JUMPDEST PUSH2 0x52CA PUSH1 0x40 DUP4 ADD DUP6 PUSH2 0x40E3 JUMP JUMPDEST DUP2 DUP2 SUB PUSH1 0x60 DUP4 ADD MSTORE PUSH2 0x52DC DUP2 DUP5 PUSH2 0x5265 JUMP JUMPDEST SWAP1 POP SWAP6 SWAP5 POP POP POP POP POP JUMP JUMPDEST PUSH0 DUP2 MLOAD SWAP1 POP PUSH2 0x52F5 DUP2 PUSH2 0x3D48 JUMP JUMPDEST SWAP3 SWAP2 POP POP JUMP JUMPDEST PUSH0 PUSH1 0x20 DUP3 DUP5 SUB SLT ISZERO PUSH2 0x5310 JUMPI PUSH2 0x530F PUSH2 0x3CB7 JUMP JUMPDEST JUMPDEST PUSH0 PUSH2 0x531D DUP5 DUP3 DUP6 ADD PUSH2 0x52E7 JUMP JUMPDEST SWAP2 POP POP SWAP3 SWAP2 POP POP JUMP JUMPDEST PUSH0 PUSH1 0x40 DUP3 ADD SWAP1 POP PUSH2 0x5339 PUSH0 DUP4 ADD DUP6 PUSH2 0x3E90 JUMP JUMPDEST PUSH2 0x5346 PUSH1 0x20 DUP4 ADD DUP5 PUSH2 0x40E3 JUMP JUMPDEST SWAP4 SWAP3 POP POP POP JUMP JUMPDEST PUSH0 DUP2 SWAP1 POP SWAP3 SWAP2 POP POP JUMP JUMPDEST PUSH0 PUSH2 0x5361 DUP3 PUSH2 0x524B JUMP JUMPDEST PUSH2 0x536B DUP2 DUP6 PUSH2 0x534D JUMP JUMPDEST SWAP4 POP PUSH2 0x537B DUP2 DUP6 PUSH1 0x20 DUP7 ADD PUSH2 0x3DEA JUMP JUMPDEST DUP1 DUP5 ADD SWAP2 POP POP SWAP3 SWAP2 POP POP JUMP JUMPDEST PUSH0 PUSH2 0x5392 DUP3 DUP5 PUSH2 0x5357 JUMP JUMPDEST SWAP2 POP DUP2 SWAP1 POP SWAP3 SWAP2 POP POP JUMP INVALID LOG2 PUSH5 0x6970667358 0x22 SLT KECCAK256 0xE4 PUSH27 0x9A34AE6FD6869F853925FAA97E0914A8DFA8D9C95432E5260D7367 ADDRESS 0xC9 EXTCODECOPY PUSH5 0x736F6C6343 STOP ADDMOD NOT STOP CALLER "
		},
		"gasEstimates": {
			"creation": {
				"codeDepositCost": "4291800",
				"executionCost": "infinite",
				"totalCost": "infinite"
			},
			"external": {
				"GENESIS_LIMIT()": "393",
				"UPGRADE_INTERFACE_VERSION()": "infinite",
				"approve(address,uint256)": "infinite",
				"balanceOf(address)": "infinite",
				"baseTokenURI()": "infinite",
				"breed(string,uint256,uint256)": "infinite",
				"dataURI()": "infinite",
				"evolve(uint256)": "infinite",
				"feeding(uint256)": "infinite",
				"forceEvolve(uint256)": "infinite",
				"genesisCount()": "2557",
				"genesisMint(address,string)": "infinite",
				"getApproved(uint256)": "infinite",
				"getBreedInfo(uint256)": "infinite",
				"getGrowthInfo(uint256)": "infinite",
				"initialize(address,string,string)": "infinite",
				"isApprovedForAll(address,address)": "infinite",
				"metaDescription()": "infinite",
				"name()": "infinite",
				"owner()": "2700",
				"ownerOf(uint256)": "infinite",
				"proxiableUUID()": "infinite",
				"renounceOwnership()": "infinite",
				"safeTransferFrom(address,address,uint256)": "infinite",
				"safeTransferFrom(address,address,uint256,bytes)": "infinite",
				"setApprovalForAll(address,bool)": "infinite",
				"setDataURI(string)": "infinite",
				"setImageExtension(string)": "infinite",
				"setMetaDescription(string)": "infinite",
				"setTokenURI(string)": "infinite",
				"supportsInterface(bytes4)": "968",
				"symbol()": "infinite",
				"tokenURI(uint256)": "infinite",
				"transferFrom(address,address,uint256)": "infinite",
				"transferOwnership(address)": "infinite",
				"upgradeToAndCall(address,bytes)": "infinite"
			}
		},
		"methodIdentifiers": {
			"GENESIS_LIMIT()": "43463394",
			"UPGRADE_INTERFACE_VERSION()": "ad3cb1cc",
			"approve(address,uint256)": "095ea7b3",
			"balanceOf(address)": "70a08231",
			"baseTokenURI()": "d547cfb7",
			"breed(string,uint256,uint256)": "99683c22",
			"dataURI()": "f28ca1dd",
			"evolve(uint256)": "f119f567",
			"feeding(uint256)": "00e00064",
			"forceEvolve(uint256)": "1bc80eff",
			"genesisCount()": "fffad312",
			"genesisMint(address,string)": "cfd94a17",
			"getApproved(uint256)": "081812fc",
			"getBreedInfo(uint256)": "86838c60",
			"getGrowthInfo(uint256)": "b564ea86",
			"initialize(address,string,string)": "90657147",
			"isApprovedForAll(address,address)": "e985e9c5",
			"metaDescription()": "edeb4bbe",
			"name()": "06fdde03",
			"owner()": "8da5cb5b",
			"ownerOf(uint256)": "6352211e",
			"proxiableUUID()": "52d1902d",
			"renounceOwnership()": "715018a6",
			"safeTransferFrom(address,address,uint256)": "42842e0e",
			"safeTransferFrom(address,address,uint256,bytes)": "b88d4fde",
			"setApprovalForAll(address,bool)": "a22cb465",
			"setDataURI(string)": "18d217c3",
			"setImageExtension(string)": "39e3aa7e",
			"setMetaDescription(string)": "bd9ba9e8",
			"setTokenURI(string)": "e0df5b6f",
			"supportsInterface(bytes4)": "01ffc9a7",
			"symbol()": "95d89b41",
			"tokenURI(uint256)": "c87b56dd",
			"transferFrom(address,address,uint256)": "23b872dd",
			"transferOwnership(address)": "f2fde38b",
			"upgradeToAndCall(address,bytes)": "4f1ef286"
		}
	},
	"abi": [
		{
			"inputs": [
				{
					"internalType": "address",
					"name": "target",
					"type": "address"
				}
			],
			"name": "AddressEmptyCode",
			"type": "error"
		},
		{
			"inputs": [
				{
					"internalType": "address",
					"name": "implementation",
					"type": "address"
				}
			],
			"name": "ERC1967InvalidImplementation",
			"type": "error"
		},
		{
			"inputs": [],
			"name": "ERC1967NonPayable",
			"type": "error"
		},
		{
			"inputs": [
				{
					"internalType": "address",
					"name": "sender",
					"type": "address"
				},
				{
					"internalType": "uint256",
					"name": "tokenId",
					"type": "uint256"
				},
				{
					"internalType": "address",
					"name": "owner",
					"type": "address"
				}
			],
			"name": "ERC721IncorrectOwner",
			"type": "error"
		},
		{
			"inputs": [
				{
					"internalType": "address",
					"name": "operator",
					"type": "address"
				},
				{
					"internalType": "uint256",
					"name": "tokenId",
					"type": "uint256"
				}
			],
			"name": "ERC721InsufficientApproval",
			"type": "error"
		},
		{
			"inputs": [
				{
					"internalType": "address",
					"name": "approver",
					"type": "address"
				}
			],
			"name": "ERC721InvalidApprover",
			"type": "error"
		},
		{
			"inputs": [
				{
					"internalType": "address",
					"name": "operator",
					"type": "address"
				}
			],
			"name": "ERC721InvalidOperator",
			"type": "error"
		},
		{
			"inputs": [
				{
					"internalType": "address",
					"name": "owner",
					"type": "address"
				}
			],
			"name": "ERC721InvalidOwner",
			"type": "error"
		},
		{
			"inputs": [
				{
					"internalType": "address",
					"name": "receiver",
					"type": "address"
				}
			],
			"name": "ERC721InvalidReceiver",
			"type": "error"
		},
		{
			"inputs": [
				{
					"internalType": "address",
					"name": "sender",
					"type": "address"
				}
			],
			"name": "ERC721InvalidSender",
			"type": "error"
		},
		{
			"inputs": [
				{
					"internalType": "uint256",
					"name": "tokenId",
					"type": "uint256"
				}
			],
			"name": "ERC721NonexistentToken",
			"type": "error"
		},
		{
			"inputs": [],
			"name": "FailedInnerCall",
			"type": "error"
		},
		{
			"inputs": [],
			"name": "InvalidInitialization",
			"type": "error"
		},
		{
			"inputs": [],
			"name": "NotInitializing",
			"type": "error"
		},
		{
			"inputs": [
				{
					"internalType": "address",
					"name": "owner",
					"type": "address"
				}
			],
			"name": "OwnableInvalidOwner",
			"type": "error"
		},
		{
			"inputs": [
				{
					"internalType": "address",
					"name": "account",
					"type": "address"
				}
			],
			"name": "OwnableUnauthorizedAccount",
			"type": "error"
		},
		{
			"inputs": [],
			"name": "UUPSUnauthorizedCallContext",
			"type": "error"
		},
		{
			"inputs": [
				{
					"internalType": "bytes32",
					"name": "slot",
					"type": "bytes32"
				}
			],
			"name": "UUPSUnsupportedProxiableUUID",
			"type": "error"
		},
		{
			"anonymous": false,
			"inputs": [
				{
					"indexed": true,
					"internalType": "address",
					"name": "owner",
					"type": "address"
				},
				{
					"indexed": true,
					"internalType": "address",
					"name": "approved",
					"type": "address"
				},
				{
					"indexed": true,
					"internalType": "uint256",
					"name": "tokenId",
					"type": "uint256"
				}
			],
			"name": "Approval",
			"type": "event"
		},
		{
			"anonymous": false,
			"inputs": [
				{
					"indexed": true,
					"internalType": "address",
					"name": "owner",
					"type": "address"
				},
				{
					"indexed": true,
					"internalType": "address",
					"name": "operator",
					"type": "address"
				},
				{
					"indexed": false,
					"internalType": "bool",
					"name": "approved",
					"type": "bool"
				}
			],
			"name": "ApprovalForAll",
			"type": "event"
		},
		{
			"anonymous": false,
			"inputs": [
				{
					"indexed": false,
					"internalType": "uint256",
					"name": "_fromTokenId",
					"type": "uint256"
				},
				{
					"indexed": false,
					"internalType": "uint256",
					"name": "_toTokenId",
					"type": "uint256"
				}
			],
			"name": "BatchMetadataUpdate",
			"type": "event"
		},
		{
			"anonymous": false,
			"inputs": [
				{
					"indexed": false,
					"internalType": "uint64",
					"name": "version",
					"type": "uint64"
				}
			],
			"name": "Initialized",
			"type": "event"
		},
		{
			"anonymous": false,
			"inputs": [
				{
					"indexed": false,
					"internalType": "uint256",
					"name": "_tokenId",
					"type": "uint256"
				}
			],
			"name": "MetadataUpdate",
			"type": "event"
		},
		{
			"anonymous": false,
			"inputs": [
				{
					"indexed": true,
					"internalType": "address",
					"name": "previousOwner",
					"type": "address"
				},
				{
					"indexed": true,
					"internalType": "address",
					"name": "newOwner",
					"type": "address"
				}
			],
			"name": "OwnershipTransferred",
			"type": "event"
		},
		{
			"anonymous": false,
			"inputs": [
				{
					"indexed": true,
					"internalType": "address",
					"name": "from",
					"type": "address"
				},
				{
					"indexed": true,
					"internalType": "address",
					"name": "to",
					"type": "address"
				},
				{
					"indexed": true,
					"internalType": "uint256",
					"name": "tokenId",
					"type": "uint256"
				}
			],
			"name": "Transfer",
			"type": "event"
		},
		{
			"anonymous": false,
			"inputs": [
				{
					"indexed": true,
					"internalType": "address",
					"name": "implementation",
					"type": "address"
				}
			],
			"name": "Upgraded",
			"type": "event"
		},
		{
			"inputs": [],
			"name": "GENESIS_LIMIT",
			"outputs": [
				{
					"internalType": "uint256",
					"name": "",
					"type": "uint256"
				}
			],
			"stateMutability": "view",
			"type": "function"
		},
		{
			"inputs": [],
			"name": "UPGRADE_INTERFACE_VERSION",
			"outputs": [
				{
					"internalType": "string",
					"name": "",
					"type": "string"
				}
			],
			"stateMutability": "view",
			"type": "function"
		},
		{
			"inputs": [
				{
					"internalType": "address",
					"name": "to",
					"type": "address"
				},
				{
					"internalType": "uint256",
					"name": "tokenId",
					"type": "uint256"
				}
			],
			"name": "approve",
			"outputs": [],
			"stateMutability": "nonpayable",
			"type": "function"
		},
		{
			"inputs": [
				{
					"internalType": "address",
					"name": "owner",
					"type": "address"
				}
			],
			"name": "balanceOf",
			"outputs": [
				{
					"internalType": "uint256",
					"name": "",
					"type": "uint256"
				}
			],
			"stateMutability": "view",
			"type": "function"
		},
		{
			"inputs": [],
			"name": "baseTokenURI",
			"outputs": [
				{
					"internalType": "string",
					"name": "",
					"type": "string"
				}
			],
			"stateMutability": "view",
			"type": "function"
		},
		{
			"inputs": [
				{
					"internalType": "string",
					"name": "tokenType",
					"type": "string"
				},
				{
					"internalType": "uint256",
					"name": "husbandId",
					"type": "uint256"
				},
				{
					"internalType": "uint256",
					"name": "wifeId",
					"type": "uint256"
				}
			],
			"name": "breed",
			"outputs": [
				{
					"internalType": "uint256",
					"name": "",
					"type": "uint256"
				}
			],
			"stateMutability": "payable",
			"type": "function"
		},
		{
			"inputs": [],
			"name": "dataURI",
			"outputs": [
				{
					"internalType": "string",
					"name": "",
					"type": "string"
				}
			],
			"stateMutability": "view",
			"type": "function"
		},
		{
			"inputs": [
				{
					"internalType": "uint256",
					"name": "tokenId",
					"type": "uint256"
				}
			],
			"name": "evolve",
			"outputs": [],
			"stateMutability": "nonpayable",
			"type": "function"
		},
		{
			"inputs": [
				{
					"internalType": "uint256",
					"name": "tokenId",
					"type": "uint256"
				}
			],
			"name": "feeding",
			"outputs": [],
			"stateMutability": "nonpayable",
			"type": "function"
		},
		{
			"inputs": [
				{
					"internalType": "uint256",
					"name": "tokenId",
					"type": "uint256"
				}
			],
			"name": "forceEvolve",
			"outputs": [],
			"stateMutability": "nonpayable",
			"type": "function"
		},
		{
			"inputs": [],
			"name": "genesisCount",
			"outputs": [
				{
					"internalType": "uint256",
					"name": "",
					"type": "uint256"
				}
			],
			"stateMutability": "view",
			"type": "function"
		},
		{
			"inputs": [
				{
					"internalType": "address",
					"name": "owner",
					"type": "address"
				},
				{
					"internalType": "string",
					"name": "tokenType",
					"type": "string"
				}
			],
			"name": "genesisMint",
			"outputs": [],
			"stateMutability": "nonpayable",
			"type": "function"
		},
		{
			"inputs": [
				{
					"internalType": "uint256",
					"name": "tokenId",
					"type": "uint256"
				}
			],
			"name": "getApproved",
			"outputs": [
				{
					"internalType": "address",
					"name": "",
					"type": "address"
				}
			],
			"stateMutability": "view",
			"type": "function"
		},
		{
			"inputs": [
				{
					"internalType": "uint256",
					"name": "tokenId",
					"type": "uint256"
				}
			],
			"name": "getBreedInfo",
			"outputs": [
				{
					"internalType": "uint256",
					"name": "releaseTime",
					"type": "uint256"
				},
				{
					"internalType": "uint256",
					"name": "count",
					"type": "uint256"
				}
			],
			"stateMutability": "view",
			"type": "function"
		},
		{
			"inputs": [
				{
					"internalType": "uint256",
					"name": "tokenId",
					"type": "uint256"
				}
			],
			"name": "getGrowthInfo",
			"outputs": [
				{
					"internalType": "enum TokenBase.GrowthStage",
					"name": "currentStage",
					"type": "uint8"
				},
				{
					"internalType": "uint256",
					"name": "timeRemaining",
					"type": "uint256"
				}
			],
			"stateMutability": "view",
			"type": "function"
		},
		{
			"inputs": [
				{
					"internalType": "address",
					"name": "initialOwner",
					"type": "address"
				},
				{
					"internalType": "string",
					"name": "name",
					"type": "string"
				},
				{
					"internalType": "string",
					"name": "symbol",
					"type": "string"
				}
			],
			"name": "initialize",
			"outputs": [],
			"stateMutability": "nonpayable",
			"type": "function"
		},
		{
			"inputs": [
				{
					"internalType": "address",
					"name": "owner",
					"type": "address"
				},
				{
					"internalType": "address",
					"name": "operator",
					"type": "address"
				}
			],
			"name": "isApprovedForAll",
			"outputs": [
				{
					"internalType": "bool",
					"name": "",
					"type": "bool"
				}
			],
			"stateMutability": "view",
			"type": "function"
		},
		{
			"inputs": [],
			"name": "metaDescription",
			"outputs": [
				{
					"internalType": "string",
					"name": "",
					"type": "string"
				}
			],
			"stateMutability": "view",
			"type": "function"
		},
		{
			"inputs": [],
			"name": "name",
			"outputs": [
				{
					"internalType": "string",
					"name": "",
					"type": "string"
				}
			],
			"stateMutability": "view",
			"type": "function"
		},
		{
			"inputs": [],
			"name": "owner",
			"outputs": [
				{
					"internalType": "address",
					"name": "",
					"type": "address"
				}
			],
			"stateMutability": "view",
			"type": "function"
		},
		{
			"inputs": [
				{
					"internalType": "uint256",
					"name": "tokenId",
					"type": "uint256"
				}
			],
			"name": "ownerOf",
			"outputs": [
				{
					"internalType": "address",
					"name": "",
					"type": "address"
				}
			],
			"stateMutability": "view",
			"type": "function"
		},
		{
			"inputs": [],
			"name": "proxiableUUID",
			"outputs": [
				{
					"internalType": "bytes32",
					"name": "",
					"type": "bytes32"
				}
			],
			"stateMutability": "view",
			"type": "function"
		},
		{
			"inputs": [],
			"name": "renounceOwnership",
			"outputs": [],
			"stateMutability": "nonpayable",
			"type": "function"
		},
		{
			"inputs": [
				{
					"internalType": "address",
					"name": "from",
					"type": "address"
				},
				{
					"internalType": "address",
					"name": "to",
					"type": "address"
				},
				{
					"internalType": "uint256",
					"name": "tokenId",
					"type": "uint256"
				}
			],
			"name": "safeTransferFrom",
			"outputs": [],
			"stateMutability": "nonpayable",
			"type": "function"
		},
		{
			"inputs": [
				{
					"internalType": "address",
					"name": "from",
					"type": "address"
				},
				{
					"internalType": "address",
					"name": "to",
					"type": "address"
				},
				{
					"internalType": "uint256",
					"name": "tokenId",
					"type": "uint256"
				},
				{
					"internalType": "bytes",
					"name": "data",
					"type": "bytes"
				}
			],
			"name": "safeTransferFrom",
			"outputs": [],
			"stateMutability": "nonpayable",
			"type": "function"
		},
		{
			"inputs": [
				{
					"internalType": "address",
					"name": "operator",
					"type": "address"
				},
				{
					"internalType": "bool",
					"name": "approved",
					"type": "bool"
				}
			],
			"name": "setApprovalForAll",
			"outputs": [],
			"stateMutability": "nonpayable",
			"type": "function"
		},
		{
			"inputs": [
				{
					"internalType": "string",
					"name": "_dataURI",
					"type": "string"
				}
			],
			"name": "setDataURI",
			"outputs": [],
			"stateMutability": "nonpayable",
			"type": "function"
		},
		{
			"inputs": [
				{
					"internalType": "string",
					"name": "_imgEx",
					"type": "string"
				}
			],
			"name": "setImageExtension",
			"outputs": [],
			"stateMutability": "nonpayable",
			"type": "function"
		},
		{
			"inputs": [
				{
					"internalType": "string",
					"name": "_metaDec",
					"type": "string"
				}
			],
			"name": "setMetaDescription",
			"outputs": [],
			"stateMutability": "nonpayable",
			"type": "function"
		},
		{
			"inputs": [
				{
					"internalType": "string",
					"name": "_tokenURI",
					"type": "string"
				}
			],
			"name": "setTokenURI",
			"outputs": [],
			"stateMutability": "nonpayable",
			"type": "function"
		},
		{
			"inputs": [
				{
					"internalType": "bytes4",
					"name": "interfaceId",
					"type": "bytes4"
				}
			],
			"name": "supportsInterface",
			"outputs": [
				{
					"internalType": "bool",
					"name": "",
					"type": "bool"
				}
			],
			"stateMutability": "view",
			"type": "function"
		},
		{
			"inputs": [],
			"name": "symbol",
			"outputs": [
				{
					"internalType": "string",
					"name": "",
					"type": "string"
				}
			],
			"stateMutability": "view",
			"type": "function"
		},
		{
			"inputs": [
				{
					"internalType": "uint256",
					"name": "tokenId",
					"type": "uint256"
				}
			],
			"name": "tokenURI",
			"outputs": [
				{
					"internalType": "string",
					"name": "",
					"type": "string"
				}
			],
			"stateMutability": "view",
			"type": "function"
		},
		{
			"inputs": [
				{
					"internalType": "address",
					"name": "from",
					"type": "address"
				},
				{
					"internalType": "address",
					"name": "to",
					"type": "address"
				},
				{
					"internalType": "uint256",
					"name": "tokenId",
					"type": "uint256"
				}
			],
			"name": "transferFrom",
			"outputs": [],
			"stateMutability": "nonpayable",
			"type": "function"
		},
		{
			"inputs": [
				{
					"internalType": "address",
					"name": "newOwner",
					"type": "address"
				}
			],
			"name": "transferOwnership",
			"outputs": [],
			"stateMutability": "nonpayable",
			"type": "function"
		},
		{
			"inputs": [
				{
					"internalType": "address",
					"name": "newImplementation",
					"type": "address"
				},
				{
					"internalType": "bytes",
					"name": "data",
					"type": "bytes"
				}
			],
			"name": "upgradeToAndCall",
			"outputs": [],
			"stateMutability": "payable",
			"type": "function"
		}
	]
}