{
	"data": {
		"bytecode": {
			"linkReferences": {},
			"object": "60a06040523073ffffffffffffffffffffffffffffffffffffffff1660809073ffffffffffffffffffffffffffffffffffffffff16815250348015610042575f80fd5b5061005161005660201b60201c565b6101b6565b5f61006561015460201b60201c565b9050805f0160089054906101000a900460ff16156100af576040517ff92ee8a900000000000000000000000000000000000000000000000000000000815260040160405180910390fd5b67ffffffffffffffff8016815f015f9054906101000a900467ffffffffffffffff1667ffffffffffffffff16146101515767ffffffffffffffff815f015f6101000a81548167ffffffffffffffff021916908367ffffffffffffffff1602179055507fc7f505b2f371ae2175ee4913f4499e1f2633a7b5936321eed1cdaeb6115181d267ffffffffffffffff604051610148919061019d565b60405180910390a15b50565b5f7ff0c57e16840df040f15088dc2f81fe391c3923bec73e23a9662efc9c229c6a00905090565b5f67ffffffffffffffff82169050919050565b6101978161017b565b82525050565b5f6020820190506101b05f83018461018e565b92915050565b6080516153736101dc5f395f81816125e20152818161263701526127f101526153735ff3fe608060405260043610610202575f3560e01c80639065714711610117578063cfd94a171161009f578063edeb4bbe1161006e578063edeb4bbe14610750578063f119f5671461077a578063f28ca1dd146107a2578063f2fde38b146107cc578063fffad312146107f457610202565b8063cfd94a171461069a578063d547cfb7146106c2578063e0df5b6f146106ec578063e985e9c51461071457610202565b8063ad3cb1cc116100e6578063ad3cb1cc146105a7578063b564ea86146105d1578063b88d4fde1461060e578063bd9ba9e814610636578063c87b56dd1461065e57610202565b806390657147146104fd57806395d89b411461052557806399683c221461054f578063a22cb4651461057f57610202565b806342842e0e1161019a5780636352211e116101695780636352211e1461040857806370a0823114610444578063715018a61461048057806386838c60146104965780638da5cb5b146104d357610202565b806342842e0e1461037057806343463394146103985780634f1ef286146103c257806352d1902d146103de57610202565b8063095ea7b3116101d6578063095ea7b3146102d057806318d217c3146102f85780631bc80eff1461032057806323b872dd1461034857610202565b8062e000641461020657806301ffc9a71461022e57806306fdde031461026a578063081812fc14610294575b5f80fd5b348015610211575f80fd5b5061022c60048036038101906102279190613cdf565b61081e565b005b348015610239575f80fd5b50610254600480360381019061024f9190613d5f565b610a5d565b6040516102619190613da4565b60405180910390f35b348015610275575f80fd5b5061027e610a6e565b60405161028b9190613e2d565b60405180910390f35b34801561029f575f80fd5b506102ba60048036038101906102b59190613cdf565b610b0b565b6040516102c79190613e8c565b60405180910390f35b3480156102db575f80fd5b506102f660048036038101906102f19190613ecf565b610b26565b005b348015610303575f80fd5b5061031e60048036038101906103199190614039565b610b3c565b005b34801561032b575f80fd5b5061034660048036038101906103419190613cdf565b610b57565b005b348015610353575f80fd5b5061036e60048036038101906103699190614080565b610d6e565b005b34801561037b575f80fd5b5061039660048036038101906103919190614080565b610e6d565b005b3480156103a3575f80fd5b506103ac610e8c565b6040516103b991906140df565b60405180910390f35b6103dc60048036038101906103d79190614196565b610e91565b005b3480156103e9575f80fd5b506103f2610eb0565b6040516103ff9190614208565b60405180910390f35b348015610413575f80fd5b5061042e60048036038101906104299190613cdf565b610ee1565b60405161043b9190613e8c565b60405180910390f35b34801561044f575f80fd5b5061046a60048036038101906104659190614221565b610ef2565b60405161047791906140df565b60405180910390f35b34801561048b575f80fd5b50610494610fb6565b005b3480156104a1575f80fd5b506104bc60048036038101906104b79190613cdf565b610fc9565b6040516104ca92919061424c565b60405180910390f35b3480156104de575f80fd5b506104e7610ffd565b6040516104f49190613e8c565b60405180910390f35b348015610508575f80fd5b50610523600480360381019061051e9190614273565b611032565b005b348015610530575f80fd5b506105396111d6565b6040516105469190613e2d565b60405180910390f35b610569600480360381019061056491906142fb565b611274565b60405161057691906140df565b60405180910390f35b34801561058a575f80fd5b506105a560048036038101906105a09190614391565b611441565b005b3480156105b2575f80fd5b506105bb611457565b6040516105c89190613e2d565b60405180910390f35b3480156105dc575f80fd5b506105f760048036038101906105f29190613cdf565b611490565b604051610605929190614442565b60405180910390f35b348015610619575f80fd5b50610634600480360381019061062f9190614469565b611617565b005b348015610641575f80fd5b5061065c60048036038101906106579190614039565b611634565b005b348015610669575f80fd5b50610684600480360381019061067f9190613cdf565b61164f565b6040516106919190613e2d565b60405180910390f35b3480156106a5575f80fd5b506106c060048036038101906106bb91906144e9565b611b00565b005b3480156106cd575f80fd5b506106d6611b6e565b6040516106e39190613e2d565b60405180910390f35b3480156106f7575f80fd5b50610712600480360381019061070d9190614039565b611bfa565b005b34801561071f575f80fd5b5061073a60048036038101906107359190614543565b611c15565b6040516107479190613da4565b60405180910390f35b34801561075b575f80fd5b50610764611cb1565b6040516107719190613e2d565b60405180910390f35b348015610785575f80fd5b506107a0600480360381019061079b9190613cdf565b611d3d565b005b3480156107ad575f80fd5b506107b6612024565b6040516107c39190613e2d565b60405180910390f35b3480156107d7575f80fd5b506107f260048036038101906107ed9190614221565b6120b0565b005b3480156107ff575f80fd5b50610808612134565b60405161081591906140df565b60405180910390f35b600380811115610831576108306143cf565b5b5f808381526020019081526020015f205f9054906101000a900460ff1660038111156108605761085f6143cf565b5b036108a0576040517f08c379a0000000000000000000000000000000000000000000000000000000008152600401610897906145cb565b60405180910390fd5b3373ffffffffffffffffffffffffffffffffffffffff166108c082610ee1565b73ffffffffffffffffffffffffffffffffffffffff1614610916576040517f08c379a000000000000000000000000000000000000000000000000000000000815260040161090d90614633565b60405180910390fd5b5f805f8381526020019081526020015f205f9054906101000a900460ff1690505f60025f8481526020019081526020015f2090505f4290505f6003811115610961576109606143cf565b5b836003811115610974576109736143cf565b5b036109a5576109998160025f8781526020019081526020015f205f0154612a3061213a565b825f0181905550610a57565b600160038111156109b9576109b86143cf565b5b8360038111156109cc576109cb6143cf565b5b036109ff576109f28160025f8781526020019081526020015f2060010154612a3061213a565b8260010181905550610a56565b60026003811115610a1357610a126143cf565b5b836003811115610a2657610a256143cf565b5b03610a5557610a4c8160025f8781526020019081526020015f2060020154612a3061213a565b82600201819055505b5b5b50505050565b5f610a678261216b565b9050919050565b60605f610a796121cb565b9050805f018054610a899061467e565b80601f0160208091040260200160405190810160405280929190818152602001828054610ab59061467e565b8015610b005780601f10610ad757610100808354040283529160200191610b00565b820191905f5260205f20905b815481529060010190602001808311610ae357829003601f168201915b505050505091505090565b5f610b15826121f2565b50610b1f82612278565b9050919050565b610b388282610b336122bf565b6122c6565b5050565b610b446122d8565b8060079081610b53919061484b565b5050565b610b5f6122d8565b5f805f8381526020019081526020015f205f9054906101000a900460ff1690505f6003811115610b9257610b916143cf565b5b816003811115610ba557610ba46143cf565b5b03610c2e5760015f808481526020019081526020015f205f6101000a81548160ff02191690836003811115610bdd57610bdc6143cf565b5b0217905550610bea61235f565b60015f8481526020019081526020015f20600101819055506202a30042610c119190614947565b60025f8481526020019081526020015f2060010181905550610d6a565b60016003811115610c4257610c416143cf565b5b816003811115610c5557610c546143cf565b5b03610cbe5760025f808481526020019081526020015f205f6101000a81548160ff02191690836003811115610c8d57610c8c6143cf565b5b02179055506203f48042610ca19190614947565b60025f8481526020019081526020015f2060020181905550610d69565b60026003811115610cd257610cd16143cf565b5b816003811115610ce557610ce46143cf565b5b03610d275760035f808481526020019081526020015f205f6101000a81548160ff02191690836003811115610d1d57610d1c6143cf565b5b0217905550610d68565b5f610d67576040517f08c379a0000000000000000000000000000000000000000000000000000000008152600401610d5e906149c4565b60405180910390fd5b5b5b5b5050565b5f73ffffffffffffffffffffffffffffffffffffffff168273ffffffffffffffffffffffffffffffffffffffff1603610dde575f6040517f64a0ae92000000000000000000000000000000000000000000000000000000008152600401610dd59190613e8c565b60405180910390fd5b5f610df18383610dec6122bf565b6123c3565b90508373ffffffffffffffffffffffffffffffffffffffff168173ffffffffffffffffffffffffffffffffffffffff1614610e67578382826040517f64283d7b000000000000000000000000000000000000000000000000000000008152600401610e5e939291906149e2565b60405180910390fd5b50505050565b610e8783838360405180602001604052805f815250611617565b505050565b600a81565b610e996125e0565b610ea2826126c6565b610eac82826126d1565b5050565b5f610eb96127ef565b7f360894a13ba1a3210667c828492db98dca3e2076cc3735a920a3ca505d382bbc5f1b905090565b5f610eeb826121f2565b9050919050565b5f80610efc6121cb565b90505f73ffffffffffffffffffffffffffffffffffffffff168373ffffffffffffffffffffffffffffffffffffffff1603610f6e575f6040517f89c62b64000000000000000000000000000000000000000000000000000000008152600401610f659190613e8c565b60405180910390fd5b806003015f8473ffffffffffffffffffffffffffffffffffffffff1673ffffffffffffffffffffffffffffffffffffffff1681526020019081526020015f2054915050919050565b610fbe6122d8565b610fc75f612876565b565b5f8060095f8481526020019081526020015f205f0154915060095f8481526020019081526020015f20600101549050915091565b5f80611007612947565b9050805f015f9054906101000a900473ffffffffffffffffffffffffffffffffffffffff1691505090565b5f61103b61296e565b90505f815f0160089054906101000a900460ff161590505f825f015f9054906101000a900467ffffffffffffffff1690505f808267ffffffffffffffff161480156110835750825b90505f60018367ffffffffffffffff161480156110b657505f3073ffffffffffffffffffffffffffffffffffffffff163b145b9050811580156110c4575080155b156110fb576040517ff92ee8a900000000000000000000000000000000000000000000000000000000815260040160405180910390fd5b6001855f015f6101000a81548167ffffffffffffffff021916908367ffffffffffffffff1602179055508315611148576001855f0160086101000a81548160ff0219169083151502179055505b6111528787612995565b61115a6129ab565b611163886129b5565b61116b6129c9565b5f60058190555083156111cc575f855f0160086101000a81548160ff0219169083151502179055507fc7f505b2f371ae2175ee4913f4499e1f2633a7b5936321eed1cdaeb6115181d260016040516111c39190614a63565b60405180910390a15b5050505050505050565b60605f6111e16121cb565b90508060010180546111f29061467e565b80601f016020809104026020016040519081016040528092919081815260200182805461121e9061467e565b80156112695780601f1061124057610100808354040283529160200191611269565b820191905f5260205f20905b81548152906001019060200180831161124c57829003601f168201915b505050505091505090565b5f3373ffffffffffffffffffffffffffffffffffffffff1661129584610ee1565b73ffffffffffffffffffffffffffffffffffffffff161480156112eb57503373ffffffffffffffffffffffffffffffffffffffff166112d383610ee1565b73ffffffffffffffffffffffffffffffffffffffff16145b61132a576040517f08c379a000000000000000000000000000000000000000000000000000000000815260040161132190614633565b60405180910390fd5b61133483836129d3565b15611374576040517f08c379a000000000000000000000000000000000000000000000000000000000815260040161136b90614ac6565b60405180910390fd5b61137d83612a5e565b801561138e575061138d82612a5e565b5b6113cd576040517f08c379a00000000000000000000000000000000000000000000000000000000081526004016113c490614b2e565b60405180910390fd5b6113d78383612a7c565b611416576040517f08c379a000000000000000000000000000000000000000000000000000000000815260040161140d90614b96565b60405180910390fd5b61141f83612abb565b61142882612abb565b5f611434858585612b0d565b9050809150509392505050565b61145361144c6122bf565b8383612b82565b5050565b6040518060400160405280600581526020017f352e302e3000000000000000000000000000000000000000000000000000000081525081565b5f805f808481526020019081526020015f205f9054906101000a900460ff1691505f4290505f60038111156114c8576114c76143cf565b5b8360038111156114db576114da6143cf565b5b1480156114fa57508060025f8681526020019081526020015f205f0154115b15611525578060025f8681526020019081526020015f205f015461151e9190614bb4565b9150611611565b60016003811115611539576115386143cf565b5b83600381111561154c5761154b6143cf565b5b14801561156c57508060025f8681526020019081526020015f2060010154115b15611598578060025f8681526020019081526020015f20600101546115919190614bb4565b9150611610565b600260038111156115ac576115ab6143cf565b5b8360038111156115bf576115be6143cf565b5b1480156115df57508060025f8681526020019081526020015f2060020154115b1561160b578060025f8681526020019081526020015f20600201546116049190614bb4565b915061160f565b5f91505b5b5b50915091565b611622848484610d6e565b61162e84848484612cf9565b50505050565b61163c6122d8565b806008908161164b919061484b565b5050565b6060806060805f600680546116639061467e565b905011156116a057600661167686612eab565b604051602001611687929190614ca1565b6040516020818303038152906040529350505050611afb565b5f60038111156116b3576116b26143cf565b5b5f808781526020019081526020015f205f9054906101000a900460ff1660038111156116e2576116e16143cf565b5b036117205760015f8681526020019081526020015f205f0160405160200161170a9190614d0e565b6040516020818303038152906040529250611992565b6001805f8781526020019081526020015f206001015403611778576040518060400160405280600181526020017f6d0000000000000000000000000000000000000000000000000000000000000081525091506117ce565b600260015f8781526020019081526020015f2060010154036117cd576040518060400160405280600181526020017f660000000000000000000000000000000000000000000000000000000000000081525091505b5b5f805f8781526020019081526020015f205f9054906101000a900460ff16905060016003811115611802576118016143cf565b5b816003811115611815576118146143cf565b5b03611857576040518060400160405280600581526020017f68617463680000000000000000000000000000000000000000000000000000008152509150611926565b6002600381111561186b5761186a6143cf565b5b81600381111561187e5761187d6143cf565b5b036118c0576040518060400160405280600981526020017f68617463686c696e6700000000000000000000000000000000000000000000008152509150611925565b6003808111156118d3576118d26143cf565b5b8160038111156118e6576118e56143cf565b5b03611924576040518060400160405280600581526020017f6164756c7400000000000000000000000000000000000000000000000000000081525091505b5b5b60015f8781526020019081526020015f205f0161195660015f8981526020019081526020015f2060040154612eab565b60015f8981526020019081526020015f20600101548460405160200161197f9493929190614d99565b6040516020818303038152906040529350505b5f61199c86612eab565b6040516020016119ac9190614e21565b60405160208183030381529060405260086040516020016119ce929190614edc565b6040516020818303038152906040526007856040516020016119f1929190614ca1565b604051602081830303815290604052604051602001611a11929190614f0a565b60405160208183030381529060405290505f60015f8881526020019081526020015f205f01604051602001611a469190614f9d565b60405160208183030381529060405290505f6040518060400160405280600481526020017f227d5d7d0000000000000000000000000000000000000000000000000000000081525090508282604051602001611aa3929190614f0a565b60405160208183030381529060405281604051602001611ac4929190614f0a565b604051602081830303815290604052604051602001611ae39190614fe4565b60405160208183030381529060405296505050505050505b919050565b600a805410611b44576040517f08c379a0000000000000000000000000000000000000000000000000000000008152600401611b3b90615053565b60405180910390fd5b600a5f815480929190611b5690615071565b9190505550611b69815f80600186612f75565b505050565b60068054611b7b9061467e565b80601f0160208091040260200160405190810160405280929190818152602001828054611ba79061467e565b8015611bf25780601f10611bc957610100808354040283529160200191611bf2565b820191905f5260205f20905b815481529060010190602001808311611bd557829003601f168201915b505050505081565b611c026122d8565b8060069081611c11919061484b565b5050565b5f80611c1f6121cb565b9050806005015f8573ffffffffffffffffffffffffffffffffffffffff1673ffffffffffffffffffffffffffffffffffffffff1681526020019081526020015f205f8473ffffffffffffffffffffffffffffffffffffffff1673ffffffffffffffffffffffffffffffffffffffff1681526020019081526020015f205f9054906101000a900460ff1691505092915050565b60088054611cbe9061467e565b80601f0160208091040260200160405190810160405280929190818152602001828054611cea9061467e565b8015611d355780601f10611d0c57610100808354040283529160200191611d35565b820191905f5260205f20905b815481529060010190602001808311611d1857829003601f168201915b505050505081565b3373ffffffffffffffffffffffffffffffffffffffff16611d5d82610ee1565b73ffffffffffffffffffffffffffffffffffffffff1614611db3576040517f08c379a0000000000000000000000000000000000000000000000000000000008152600401611daa90614633565b60405180910390fd5b5f805f8381526020019081526020015f205f9054906101000a900460ff1690505f6003811115611de657611de56143cf565b5b816003811115611df957611df86143cf565b5b148015611e19575060025f8381526020019081526020015f205f01544210155b15611ea25760015f808481526020019081526020015f205f6101000a81548160ff02191690836003811115611e5157611e506143cf565b5b0217905550611e5e61235f565b60015f8481526020019081526020015f20600101819055506202a30042611e859190614947565b60025f8481526020019081526020015f2060010181905550612020565b60016003811115611eb657611eb56143cf565b5b816003811115611ec957611ec86143cf565b5b148015611eea575060025f8381526020019081526020015f20600101544210155b15611f535760025f808481526020019081526020015f205f6101000a81548160ff02191690836003811115611f2257611f216143cf565b5b02179055506203f48042611f369190614947565b60025f8481526020019081526020015f206002018190555061201f565b60026003811115611f6757611f666143cf565b5b816003811115611f7a57611f796143cf565b5b148015611f9b575060025f8381526020019081526020015f20600201544210155b15611fdd5760035f808481526020019081526020015f205f6101000a81548160ff02191690836003811115611fd357611fd26143cf565b5b021790555061201e565b5f61201d576040517f08c379a0000000000000000000000000000000000000000000000000000000008152600401612014906149c4565b60405180910390fd5b5b5b5b5050565b600780546120319061467e565b80601f016020809104026020016040519081016040528092919081815260200182805461205d9061467e565b80156120a85780601f1061207f576101008083540402835291602001916120a8565b820191905f5260205f20905b81548152906001019060200180831161208b57829003601f168201915b505050505081565b6120b86122d8565b5f73ffffffffffffffffffffffffffffffffffffffff168173ffffffffffffffffffffffffffffffffffffffff1603612128575f6040517f1e4fbdf700000000000000000000000000000000000000000000000000000000815260040161211f9190613e8c565b60405180910390fd5b61213181612876565b50565b600a5481565b5f8184846121489190614bb4565b106121605781836121599190614bb4565b9050612164565b5f90505b9392505050565b5f634906490660e01b7bffffffffffffffffffffffffffffffffffffffffffffffffffffffff1916827bffffffffffffffffffffffffffffffffffffffffffffffffffffffff191614806121c457506121c3826130fd565b5b9050919050565b5f7f80bb2b638cc20bc4d0a60d66940f3ab4a00c1d7b313497ca82fb0b4ab0079300905090565b5f806121fd836131de565b90505f73ffffffffffffffffffffffffffffffffffffffff168173ffffffffffffffffffffffffffffffffffffffff160361226f57826040517f7e27328900000000000000000000000000000000000000000000000000000000815260040161226691906140df565b60405180910390fd5b80915050919050565b5f806122826121cb565b9050806004015f8481526020019081526020015f205f9054906101000a900473ffffffffffffffffffffffffffffffffffffffff16915050919050565b5f33905090565b6122d38383836001613225565b505050565b6122e06122bf565b73ffffffffffffffffffffffffffffffffffffffff166122fe610ffd565b73ffffffffffffffffffffffffffffffffffffffff161461235d576123216122bf565b6040517f118cdaa70000000000000000000000000000000000000000000000000000000081526004016123549190613e8c565b60405180910390fd5b565b5f60055f81548092919061237290615071565b9190505550600160024233600554604051602001612392939291906150fd565b604051602081830303815290604052805190602001205f1c6123b49190615166565b6123be9190614947565b905090565b5f806123cd6121cb565b90505f6123d9856131de565b90505f73ffffffffffffffffffffffffffffffffffffffff168473ffffffffffffffffffffffffffffffffffffffff161461241a576124198185876133f2565b5b5f73ffffffffffffffffffffffffffffffffffffffff168173ffffffffffffffffffffffffffffffffffffffff16146124a7576124595f865f80613225565b6001826003015f8373ffffffffffffffffffffffffffffffffffffffff1673ffffffffffffffffffffffffffffffffffffffff1681526020019081526020015f205f82825403925050819055505b5f73ffffffffffffffffffffffffffffffffffffffff168673ffffffffffffffffffffffffffffffffffffffff1614612528576001826003015f8873ffffffffffffffffffffffffffffffffffffffff1673ffffffffffffffffffffffffffffffffffffffff1681526020019081526020015f205f82825401925050819055505b85826002015f8781526020019081526020015f205f6101000a81548173ffffffffffffffffffffffffffffffffffffffff021916908373ffffffffffffffffffffffffffffffffffffffff160217905550848673ffffffffffffffffffffffffffffffffffffffff168273ffffffffffffffffffffffffffffffffffffffff167fddf252ad1be2c89b69c2b068fc378daa952ba7f163c4a11628f55a4df523b3ef60405160405180910390a480925050509392505050565b7f000000000000000000000000000000000000000000000000000000000000000073ffffffffffffffffffffffffffffffffffffffff163073ffffffffffffffffffffffffffffffffffffffff16148061268d57507f000000000000000000000000000000000000000000000000000000000000000073ffffffffffffffffffffffffffffffffffffffff166126746134b5565b73ffffffffffffffffffffffffffffffffffffffff1614155b156126c4576040517fe07c8dba00000000000000000000000000000000000000000000000000000000815260040160405180910390fd5b565b6126ce6122d8565b50565b8173ffffffffffffffffffffffffffffffffffffffff166352d1902d6040518163ffffffff1660e01b8152600401602060405180830381865afa92505050801561273957506040513d601f19601f8201168201806040525081019061273691906151c0565b60015b61277a57816040517f4c9c8ce30000000000000000000000000000000000000000000000000000000081526004016127719190613e8c565b60405180910390fd5b7f360894a13ba1a3210667c828492db98dca3e2076cc3735a920a3ca505d382bbc5f1b81146127e057806040517faa1d49a40000000000000000000000000000000000000000000000000000000081526004016127d79190614208565b60405180910390fd5b6127ea8383613508565b505050565b7f000000000000000000000000000000000000000000000000000000000000000073ffffffffffffffffffffffffffffffffffffffff163073ffffffffffffffffffffffffffffffffffffffff1614612874576040517fe07c8dba00000000000000000000000000000000000000000000000000000000815260040160405180910390fd5b565b5f61287f612947565b90505f815f015f9054906101000a900473ffffffffffffffffffffffffffffffffffffffff16905082825f015f6101000a81548173ffffffffffffffffffffffffffffffffffffffff021916908373ffffffffffffffffffffffffffffffffffffffff1602179055508273ffffffffffffffffffffffffffffffffffffffff168173ffffffffffffffffffffffffffffffffffffffff167f8be0079c531659141344cd1fd0a4f28419497f9722a3daafe3b4186f6b6457e060405160405180910390a3505050565b5f7f9016d09d72d40fdae2fd8ceac6b6234c7706214fd39c1cd1e609a0528c199300905090565b5f7ff0c57e16840df040f15088dc2f81fe391c3923bec73e23a9662efc9c229c6a00905090565b61299d61357a565b6129a782826135ba565b5050565b6129b361357a565b565b6129bd61357a565b6129c6816135f5565b50565b6129d161357a565b565b5f8060015f8581526020019081526020015f2090505f60015f8581526020019081526020015f209050600182600401541480612a13575060018160040154145b15612a22575f92505050612a58565b8060020154826002015414158015612a4257508060030154826003015414155b15612a51575f92505050612a58565b6001925050505b92915050565b5f4260095f8481526020019081526020015f205f0154109050919050565b5f8060015f8581526020019081526020015f2090505f60015f8581526020019081526020015f2090508060010154826001015414159250505092915050565b60095f8281526020019081526020015f206001015f815480929190612adf90615071565b91905055506203f48042612af39190614947565b60095f8381526020019081526020015f205f018190555050565b5f8060015f8581526020019081526020015f2090505f60015f8581526020019081526020015f2090505f8160040154836004015411612b50578160040154612b56565b82600401545b90505f612b72888888600186612b6c9190614947565b33612f75565b9050809450505050509392505050565b5f612b8b6121cb565b90505f73ffffffffffffffffffffffffffffffffffffffff168373ffffffffffffffffffffffffffffffffffffffff1603612bfd57826040517f5b08ba18000000000000000000000000000000000000000000000000000000008152600401612bf49190613e8c565b60405180910390fd5b81816005015f8673ffffffffffffffffffffffffffffffffffffffff1673ffffffffffffffffffffffffffffffffffffffff1681526020019081526020015f205f8573ffffffffffffffffffffffffffffffffffffffff1673ffffffffffffffffffffffffffffffffffffffff1681526020019081526020015f205f6101000a81548160ff0219169083151502179055508273ffffffffffffffffffffffffffffffffffffffff168473ffffffffffffffffffffffffffffffffffffffff167f17307eab39ab6107e8899845ad3d59bd9653f200f220920489ca2b5937696c3184604051612ceb9190613da4565b60405180910390a350505050565b5f8373ffffffffffffffffffffffffffffffffffffffff163b1115612ea5578273ffffffffffffffffffffffffffffffffffffffff1663150b7a02612d3c6122bf565b8685856040518563ffffffff1660e01b8152600401612d5e949392919061523d565b6020604051808303815f875af1925050508015612d9957506040513d601f19601f82011682018060405250810190612d96919061529b565b60015b612e1a573d805f8114612dc7576040519150601f19603f3d011682016040523d82523d5f602084013e612dcc565b606091505b505f815103612e1257836040517f64a0ae92000000000000000000000000000000000000000000000000000000008152600401612e099190613e8c565b60405180910390fd5b805181602001fd5b63150b7a0260e01b7bffffffffffffffffffffffffffffffffffffffffffffffffffffffff1916817bffffffffffffffffffffffffffffffffffffffffffffffffffffffff191614612ea357836040517f64a0ae92000000000000000000000000000000000000000000000000000000008152600401612e9a9190613e8c565b60405180910390fd5b505b50505050565b60605f6001612eb984613679565b0190505f8167ffffffffffffffff811115612ed757612ed6613f15565b5b6040519080825280601f01601f191660200182016040528015612f095781602001600182028036833780820191505090505b5090505f82602001820190505b600115612f6a578080600190039150507f3031323334353637383961626364656600000000000000000000000000000000600a86061a8153600a8581612f5f57612f5e615139565b5b0494505f8503612f16575b819350505050919050565b5f806040518060c001604052808881526020015f815260200187815260200186815260200185815260200142815250905060045f815480929190612fb890615071565b91905055508060015f60045481526020019081526020015f205f820151815f019081612fe4919061484b565b506020820151816001015560408201518160020155606082015181600301556080820151816004015560a082015181600501559050506202a3008160a0015161302d9190614947565b60025f60045481526020019081526020015f205f01819055505f805f60045481526020019081526020015f205f6101000a81548160ff0219169083600381111561307a576130796143cf565b5b021790555061308b836004546137ca565b60035f8473ffffffffffffffffffffffffffffffffffffffff1673ffffffffffffffffffffffffffffffffffffffff1681526020019081526020015f20600454908060018154018082558091505060019003905f5260205f20015f909190919091505560045491505095945050505050565b5f7f80ac58cd000000000000000000000000000000000000000000000000000000007bffffffffffffffffffffffffffffffffffffffffffffffffffffffff1916827bffffffffffffffffffffffffffffffffffffffffffffffffffffffff191614806131c757507f5b5e139f000000000000000000000000000000000000000000000000000000007bffffffffffffffffffffffffffffffffffffffffffffffffffffffff1916827bffffffffffffffffffffffffffffffffffffffffffffffffffffffff1916145b806131d757506131d6826137e7565b5b9050919050565b5f806131e86121cb565b9050806002015f8481526020019081526020015f205f9054906101000a900473ffffffffffffffffffffffffffffffffffffffff16915050919050565b5f61322e6121cb565b9050818061326857505f73ffffffffffffffffffffffffffffffffffffffff168373ffffffffffffffffffffffffffffffffffffffff1614155b1561339a575f613277856121f2565b90505f73ffffffffffffffffffffffffffffffffffffffff168473ffffffffffffffffffffffffffffffffffffffff16141580156132e157508373ffffffffffffffffffffffffffffffffffffffff168173ffffffffffffffffffffffffffffffffffffffff1614155b80156132f457506132f28185611c15565b155b1561333657836040517fa9fbf51f00000000000000000000000000000000000000000000000000000000815260040161332d9190613e8c565b60405180910390fd5b821561339857848673ffffffffffffffffffffffffffffffffffffffff168273ffffffffffffffffffffffffffffffffffffffff167f8c5be1e5ebec7d5bd14f71427d1e84f3dd0314c0f7b2291e5b200ac8c7c3b92560405160405180910390a45b505b84816004015f8681526020019081526020015f205f6101000a81548173ffffffffffffffffffffffffffffffffffffffff021916908373ffffffffffffffffffffffffffffffffffffffff1602179055505050505050565b6133fd838383613850565b6134b0575f73ffffffffffffffffffffffffffffffffffffffff168373ffffffffffffffffffffffffffffffffffffffff160361347157806040517f7e27328900000000000000000000000000000000000000000000000000000000815260040161346891906140df565b60405180910390fd5b81816040517f177e802f0000000000000000000000000000000000000000000000000000000081526004016134a79291906152c6565b60405180910390fd5b505050565b5f6134e17f360894a13ba1a3210667c828492db98dca3e2076cc3735a920a3ca505d382bbc5f1b613910565b5f015f9054906101000a900473ffffffffffffffffffffffffffffffffffffffff16905090565b61351182613919565b8173ffffffffffffffffffffffffffffffffffffffff167fbc7cd75a20ee27fd9adebab32041f755214dbc6bffa90cc0225b39da2e5c2d3b60405160405180910390a25f8151111561356d5761356782826139e2565b50613576565b613575613a62565b5b5050565b613582613a9e565b6135b8576040517fd7e6bcf800000000000000000000000000000000000000000000000000000000815260040160405180910390fd5b565b6135c261357a565b5f6135cb6121cb565b905082815f0190816135dd919061484b565b50818160010190816135ef919061484b565b50505050565b6135fd61357a565b5f73ffffffffffffffffffffffffffffffffffffffff168173ffffffffffffffffffffffffffffffffffffffff160361366d575f6040517f1e4fbdf70000000000000000000000000000000000000000000000000000000081526004016136649190613e8c565b60405180910390fd5b61367681612876565b50565b5f805f90507a184f03e93ff9f4daa797ed6e38ed64bf6a1f01000000000000000083106136d5577a184f03e93ff9f4daa797ed6e38ed64bf6a1f01000000000000000083816136cb576136ca615139565b5b0492506040810190505b6d04ee2d6d415b85acef81000000008310613712576d04ee2d6d415b85acef8100000000838161370857613707615139565b5b0492506020810190505b662386f26fc10000831061374157662386f26fc10000838161373757613736615139565b5b0492506010810190505b6305f5e100831061376a576305f5e10083816137605761375f615139565b5b0492506008810190505b612710831061378f57612710838161378557613784615139565b5b0492506004810190505b606483106137b257606483816137a8576137a7615139565b5b0492506002810190505b600a83106137c1576001810190505b80915050919050565b6137e3828260405180602001604052805f815250613abc565b5050565b5f7f01ffc9a7000000000000000000000000000000000000000000000000000000007bffffffffffffffffffffffffffffffffffffffffffffffffffffffff1916827bffffffffffffffffffffffffffffffffffffffffffffffffffffffff1916149050919050565b5f8073ffffffffffffffffffffffffffffffffffffffff168373ffffffffffffffffffffffffffffffffffffffff161415801561390757508273ffffffffffffffffffffffffffffffffffffffff168473ffffffffffffffffffffffffffffffffffffffff1614806138c857506138c78484611c15565b5b8061390657508273ffffffffffffffffffffffffffffffffffffffff166138ee83612278565b73ffffffffffffffffffffffffffffffffffffffff16145b5b90509392505050565b5f819050919050565b5f8173ffffffffffffffffffffffffffffffffffffffff163b0361397457806040517f4c9c8ce300000000000000000000000000000000000000000000000000000000815260040161396b9190613e8c565b60405180910390fd5b806139a07f360894a13ba1a3210667c828492db98dca3e2076cc3735a920a3ca505d382bbc5f1b613910565b5f015f6101000a81548173ffffffffffffffffffffffffffffffffffffffff021916908373ffffffffffffffffffffffffffffffffffffffff16021790555050565b60605f808473ffffffffffffffffffffffffffffffffffffffff1684604051613a0b9190615327565b5f60405180830381855af49150503d805f8114613a43576040519150601f19603f3d011682016040523d82523d5f602084013e613a48565b606091505b5091509150613a58858383613ad7565b9250505092915050565b5f341115613a9c576040517fb398979f00000000000000000000000000000000000000000000000000000000815260040160405180910390fd5b565b5f613aa761296e565b5f0160089054906101000a900460ff16905090565b613ac68383613b64565b613ad25f848484612cf9565b505050565b606082613aec57613ae782613c57565b613b5c565b5f8251148015613b1257505f8473ffffffffffffffffffffffffffffffffffffffff163b145b15613b5457836040517f9996b315000000000000000000000000000000000000000000000000000000008152600401613b4b9190613e8c565b60405180910390fd5b819050613b5d565b5b9392505050565b5f73ffffffffffffffffffffffffffffffffffffffff168273ffffffffffffffffffffffffffffffffffffffff1603613bd4575f6040517f64a0ae92000000000000000000000000000000000000000000000000000000008152600401613bcb9190613e8c565b60405180910390fd5b5f613be083835f6123c3565b90505f73ffffffffffffffffffffffffffffffffffffffff168173ffffffffffffffffffffffffffffffffffffffff1614613c52575f6040517f73c6ac6e000000000000000000000000000000000000000000000000000000008152600401613c499190613e8c565b60405180910390fd5b505050565b5f81511115613c695780518082602001fd5b6040517f1425ea4200000000000000000000000000000000000000000000000000000000815260040160405180910390fd5b5f604051905090565b5f80fd5b5f80fd5b5f819050919050565b613cbe81613cac565b8114613cc8575f80fd5b50565b5f81359050613cd981613cb5565b92915050565b5f60208284031215613cf457613cf3613ca4565b5b5f613d0184828501613ccb565b91505092915050565b5f7fffffffff0000000000000000000000000000000000000000000000000000000082169050919050565b613d3e81613d0a565b8114613d48575f80fd5b50565b5f81359050613d5981613d35565b92915050565b5f60208284031215613d7457613d73613ca4565b5b5f613d8184828501613d4b565b91505092915050565b5f8115159050919050565b613d9e81613d8a565b82525050565b5f602082019050613db75f830184613d95565b92915050565b5f81519050919050565b5f82825260208201905092915050565b8281835e5f83830152505050565b5f601f19601f8301169050919050565b5f613dff82613dbd565b613e098185613dc7565b9350613e19818560208601613dd7565b613e2281613de5565b840191505092915050565b5f6020820190508181035f830152613e458184613df5565b905092915050565b5f73ffffffffffffffffffffffffffffffffffffffff82169050919050565b5f613e7682613e4d565b9050919050565b613e8681613e6c565b82525050565b5f602082019050613e9f5f830184613e7d565b92915050565b613eae81613e6c565b8114613eb8575f80fd5b50565b5f81359050613ec981613ea5565b92915050565b5f8060408385031215613ee557613ee4613ca4565b5b5f613ef285828601613ebb565b9250506020613f0385828601613ccb565b9150509250929050565b5f80fd5b5f80fd5b7f4e487b71000000000000000000000000000000000000000000000000000000005f52604160045260245ffd5b613f4b82613de5565b810181811067ffffffffffffffff82111715613f6a57613f69613f15565b5b80604052505050565b5f613f7c613c9b565b9050613f888282613f42565b919050565b5f67ffffffffffffffff821115613fa757613fa6613f15565b5b613fb082613de5565b9050602081019050919050565b828183375f83830152505050565b5f613fdd613fd884613f8d565b613f73565b905082815260208101848484011115613ff957613ff8613f11565b5b614004848285613fbd565b509392505050565b5f82601f8301126140205761401f613f0d565b5b8135614030848260208601613fcb565b91505092915050565b5f6020828403121561404e5761404d613ca4565b5b5f82013567ffffffffffffffff81111561406b5761406a613ca8565b5b6140778482850161400c565b91505092915050565b5f805f6060848603121561409757614096613ca4565b5b5f6140a486828701613ebb565b93505060206140b586828701613ebb565b92505060406140c686828701613ccb565b9150509250925092565b6140d981613cac565b82525050565b5f6020820190506140f25f8301846140d0565b92915050565b5f67ffffffffffffffff82111561411257614111613f15565b5b61411b82613de5565b9050602081019050919050565b5f61413a614135846140f8565b613f73565b90508281526020810184848401111561415657614155613f11565b5b614161848285613fbd565b509392505050565b5f82601f83011261417d5761417c613f0d565b5b813561418d848260208601614128565b91505092915050565b5f80604083850312156141ac576141ab613ca4565b5b5f6141b985828601613ebb565b925050602083013567ffffffffffffffff8111156141da576141d9613ca8565b5b6141e685828601614169565b9150509250929050565b5f819050919050565b614202816141f0565b82525050565b5f60208201905061421b5f8301846141f9565b92915050565b5f6020828403121561423657614235613ca4565b5b5f61424384828501613ebb565b91505092915050565b5f60408201905061425f5f8301856140d0565b61426c60208301846140d0565b9392505050565b5f805f6060848603121561428a57614289613ca4565b5b5f61429786828701613ebb565b935050602084013567ffffffffffffffff8111156142b8576142b7613ca8565b5b6142c48682870161400c565b925050604084013567ffffffffffffffff8111156142e5576142e4613ca8565b5b6142f18682870161400c565b9150509250925092565b5f805f6060848603121561431257614311613ca4565b5b5f84013567ffffffffffffffff81111561432f5761432e613ca8565b5b61433b8682870161400c565b935050602061434c86828701613ccb565b925050604061435d86828701613ccb565b9150509250925092565b61437081613d8a565b811461437a575f80fd5b50565b5f8135905061438b81614367565b92915050565b5f80604083850312156143a7576143a6613ca4565b5b5f6143b485828601613ebb565b92505060206143c58582860161437d565b9150509250929050565b7f4e487b71000000000000000000000000000000000000000000000000000000005f52602160045260245ffd5b6004811061440d5761440c6143cf565b5b50565b5f81905061441d826143fc565b919050565b5f61442c82614410565b9050919050565b61443c81614422565b82525050565b5f6040820190506144555f830185614433565b61446260208301846140d0565b9392505050565b5f805f806080858703121561448157614480613ca4565b5b5f61448e87828801613ebb565b945050602061449f87828801613ebb565b93505060406144b087828801613ccb565b925050606085013567ffffffffffffffff8111156144d1576144d0613ca8565b5b6144dd87828801614169565b91505092959194509250565b5f80604083850312156144ff576144fe613ca4565b5b5f61450c85828601613ebb565b925050602083013567ffffffffffffffff81111561452d5761452c613ca8565b5b6145398582860161400c565b9150509250929050565b5f806040838503121561455957614558613ca4565b5b5f61456685828601613ebb565b925050602061457785828601613ebb565b9150509250929050565b7f546f6b656e20697320616c7265616479206164756c74000000000000000000005f82015250565b5f6145b5601683613dc7565b91506145c082614581565b602082019050919050565b5f6020820190508181035f8301526145e2816145a9565b9050919050565b7f4e6f74206f776e657200000000000000000000000000000000000000000000005f82015250565b5f61461d600983613dc7565b9150614628826145e9565b602082019050919050565b5f6020820190508181035f83015261464a81614611565b9050919050565b7f4e487b71000000000000000000000000000000000000000000000000000000005f52602260045260245ffd5b5f600282049050600182168061469557607f821691505b6020821081036146a8576146a7614651565b5b50919050565b5f819050815f5260205f209050919050565b5f6020601f8301049050919050565b5f82821b905092915050565b5f6008830261470a7fffffffffffffffffffffffffffffffffffffffffffffffffffffffffffffffff826146cf565b61471486836146cf565b95508019841693508086168417925050509392505050565b5f819050919050565b5f61474f61474a61474584613cac565b61472c565b613cac565b9050919050565b5f819050919050565b61476883614735565b61477c61477482614756565b8484546146db565b825550505050565b5f90565b614790614784565b61479b81848461475f565b505050565b5b818110156147be576147b35f82614788565b6001810190506147a1565b5050565b601f821115614803576147d4816146ae565b6147dd846146c0565b810160208510156147ec578190505b6148006147f8856146c0565b8301826147a0565b50505b505050565b5f82821c905092915050565b5f6148235f1984600802614808565b1980831691505092915050565b5f61483b8383614814565b9150826002028217905092915050565b61485482613dbd565b67ffffffffffffffff81111561486d5761486c613f15565b5b614877825461467e565b6148828282856147c2565b5f60209050601f8311600181146148b3575f84156148a1578287015190505b6148ab8582614830565b865550614912565b601f1984166148c1866146ae565b5f5b828110156148e8578489015182556001820191506020850194506020810190506148c3565b868310156149055784890151614901601f891682614814565b8355505b6001600288020188555050505b505050505050565b7f4e487b71000000000000000000000000000000000000000000000000000000005f52601160045260245ffd5b5f61495182613cac565b915061495c83613cac565b92508282019050808211156149745761497361491a565b5b92915050565b7f556e61626c6520746f2065766f6c7665000000000000000000000000000000005f82015250565b5f6149ae601083613dc7565b91506149b98261497a565b602082019050919050565b5f6020820190508181035f8301526149db816149a2565b9050919050565b5f6060820190506149f55f830186613e7d565b614a0260208301856140d0565b614a0f6040830184613e7d565b949350505050565b5f819050919050565b5f67ffffffffffffffff82169050919050565b5f614a4d614a48614a4384614a17565b61472c565b614a20565b9050919050565b614a5d81614a33565b82525050565b5f602082019050614a765f830184614a54565b92915050565b7f496e6365737400000000000000000000000000000000000000000000000000005f82015250565b5f614ab0600683613dc7565b9150614abb82614a7c565b602082019050919050565b5f6020820190508181035f830152614add81614aa4565b9050919050565b7f4272656564696e67206e6f7420616c6c6f7765642079657400000000000000005f82015250565b5f614b18601883613dc7565b9150614b2382614ae4565b602082019050919050565b5f6020820190508181035f830152614b4581614b0c565b9050919050565b7f53616d652067656e6465720000000000000000000000000000000000000000005f82015250565b5f614b80600b83613dc7565b9150614b8b82614b4c565b602082019050919050565b5f6020820190508181035f830152614bad81614b74565b9050919050565b5f614bbe82613cac565b9150614bc983613cac565b9250828203905081811115614be157614be061491a565b5b92915050565b5f81905092915050565b5f8154614bfd8161467e565b614c078186614be7565b9450600182165f8114614c215760018114614c3657614c68565b60ff1983168652811515820286019350614c68565b614c3f856146ae565b5f5b83811015614c6057815481890152600182019150602081019050614c41565b838801955050505b50505092915050565b5f614c7b82613dbd565b614c858185614be7565b9350614c95818560208601613dd7565b80840191505092915050565b5f614cac8285614bf1565b9150614cb88284614c71565b91508190509392505050565b7f5f656767000000000000000000000000000000000000000000000000000000005f82015250565b5f614cf8600483614be7565b9150614d0382614cc4565b600482019050919050565b5f614d198284614bf1565b9150614d2482614cec565b915081905092915050565b7f5f000000000000000000000000000000000000000000000000000000000000005f82015250565b5f614d63600183614be7565b9150614d6e82614d2f565b600182019050919050565b5f819050919050565b614d93614d8e82613cac565b614d79565b82525050565b5f614da48287614bf1565b9150614daf82614d57565b9150614dbb8286614c71565b9150614dc682614d57565b9150614dd28285614d82565b602082019150614de182614d57565b9150614ded8284614c71565b915081905095945050505050565b7f7b226e616d65223a2022447261676f6e20230000000000000000000000000000815250565b5f614e2b82614dfb565b601282019150614e3b8284614c71565b915081905092915050565b7f222c2265787465726e616c5f75726c223a2268747470733a2f2f68747470733a5f8201527f2f2f6769746875622e636f6d2f626368736f6c2f43727970746f447261676f6e60208201527f222c22696d616765223a22000000000000000000000000000000000000000000604082015250565b5f614ec6604b83614be7565b9150614ed182614e46565b604b82019050919050565b5f614ee78285614c71565b9150614ef38284614bf1565b9150614efe82614eba565b91508190509392505050565b5f614f158285614c71565b9150614f218284614c71565b91508190509392505050565b7f222c2261747472696275746573223a5b7b2274726169745f74797065223a22445f8201527f7261676f6e222c2276616c7565223a2200000000000000000000000000000000602082015250565b5f614f87603083614be7565b9150614f9282614f2d565b603082019050919050565b5f614fa782614f7b565b9150614fb38284614bf1565b915081905092915050565b7f646174613a6170706c69636174696f6e2f6a736f6e3b757466382c0000000000815250565b5f614fee82614fbe565b601b82019150614ffe8284614c71565b915081905092915050565b7f6c696d69742065786365656465640000000000000000000000000000000000005f82015250565b5f61503d600e83613dc7565b915061504882615009565b602082019050919050565b5f6020820190508181035f83015261506a81615031565b9050919050565b5f61507b82613cac565b91507fffffffffffffffffffffffffffffffffffffffffffffffffffffffffffffffff82036150ad576150ac61491a565b5b600182019050919050565b5f8160601b9050919050565b5f6150ce826150b8565b9050919050565b5f6150df826150c4565b9050919050565b6150f76150f282613e6c565b6150d5565b82525050565b5f6151088286614d82565b60208201915061511882856150e6565b6014820191506151288284614d82565b602082019150819050949350505050565b7f4e487b71000000000000000000000000000000000000000000000000000000005f52601260045260245ffd5b5f61517082613cac565b915061517b83613cac565b92508261518b5761518a615139565b5b828206905092915050565b61519f816141f0565b81146151a9575f80fd5b50565b5f815190506151ba81615196565b92915050565b5f602082840312156151d5576151d4613ca4565b5b5f6151e2848285016151ac565b91505092915050565b5f81519050919050565b5f82825260208201905092915050565b5f61520f826151eb565b61521981856151f5565b9350615229818560208601613dd7565b61523281613de5565b840191505092915050565b5f6080820190506152505f830187613e7d565b61525d6020830186613e7d565b61526a60408301856140d0565b818103606083015261527c8184615205565b905095945050505050565b5f8151905061529581613d35565b92915050565b5f602082840312156152b0576152af613ca4565b5b5f6152bd84828501615287565b91505092915050565b5f6040820190506152d95f830185613e7d565b6152e660208301846140d0565b9392505050565b5f81905092915050565b5f615301826151eb565b61530b81856152ed565b935061531b818560208601613dd7565b80840191505092915050565b5f61533282846152f7565b91508190509291505056fea2646970667358221220a935025e7a8f42733be68e2f9fe5e7906897b4f338c9f334ba19da193934522f64736f6c63430008190033",
			"opcodes": "PUSH1 0xA0 PUSH1 0x40 MSTORE ADDRESS PUSH20 0xFFFFFFFFFFFFFFFFFFFFFFFFFFFFFFFFFFFFFFFF AND PUSH1 0x80 SWAP1 PUSH20 0xFFFFFFFFFFFFFFFFFFFFFFFFFFFFFFFFFFFFFFFF AND DUP2 MSTORE POP CALLVALUE DUP1 ISZERO PUSH2 0x42 JUMPI PUSH0 DUP1 REVERT JUMPDEST POP PUSH2 0x51 PUSH2 0x56 PUSH1 0x20 SHL PUSH1 0x20 SHR JUMP JUMPDEST PUSH2 0x1B6 JUMP JUMPDEST PUSH0 PUSH2 0x65 PUSH2 0x154 PUSH1 0x20 SHL PUSH1 0x20 SHR JUMP JUMPDEST SWAP1 POP DUP1 PUSH0 ADD PUSH1 0x8 SWAP1 SLOAD SWAP1 PUSH2 0x100 EXP SWAP1 DIV PUSH1 0xFF AND ISZERO PUSH2 0xAF JUMPI PUSH1 0x40 MLOAD PUSH32 0xF92EE8A900000000000000000000000000000000000000000000000000000000 DUP2 MSTORE PUSH1 0x4 ADD PUSH1 0x40 MLOAD DUP1 SWAP2 SUB SWAP1 REVERT JUMPDEST PUSH8 0xFFFFFFFFFFFFFFFF DUP1 AND DUP2 PUSH0 ADD PUSH0 SWAP1 SLOAD SWAP1 PUSH2 0x100 EXP SWAP1 DIV PUSH8 0xFFFFFFFFFFFFFFFF AND PUSH8 0xFFFFFFFFFFFFFFFF AND EQ PUSH2 0x151 JUMPI PUSH8 0xFFFFFFFFFFFFFFFF DUP2 PUSH0 ADD PUSH0 PUSH2 0x100 EXP DUP2 SLOAD DUP2 PUSH8 0xFFFFFFFFFFFFFFFF MUL NOT AND SWAP1 DUP4 PUSH8 0xFFFFFFFFFFFFFFFF AND MUL OR SWAP1 SSTORE POP PUSH32 0xC7F505B2F371AE2175EE4913F4499E1F2633A7B5936321EED1CDAEB6115181D2 PUSH8 0xFFFFFFFFFFFFFFFF PUSH1 0x40 MLOAD PUSH2 0x148 SWAP2 SWAP1 PUSH2 0x19D JUMP JUMPDEST PUSH1 0x40 MLOAD DUP1 SWAP2 SUB SWAP1 LOG1 JUMPDEST POP JUMP JUMPDEST PUSH0 PUSH32 0xF0C57E16840DF040F15088DC2F81FE391C3923BEC73E23A9662EFC9C229C6A00 SWAP1 POP SWAP1 JUMP JUMPDEST PUSH0 PUSH8 0xFFFFFFFFFFFFFFFF DUP3 AND SWAP1 POP SWAP2 SWAP1 POP JUMP JUMPDEST PUSH2 0x197 DUP2 PUSH2 0x17B JUMP JUMPDEST DUP3 MSTORE POP POP JUMP JUMPDEST PUSH0 PUSH1 0x20 DUP3 ADD SWAP1 POP PUSH2 0x1B0 PUSH0 DUP4 ADD DUP5 PUSH2 0x18E JUMP JUMPDEST SWAP3 SWAP2 POP POP JUMP JUMPDEST PUSH1 0x80 MLOAD PUSH2 0x5373 PUSH2 0x1DC PUSH0 CODECOPY PUSH0 DUP2 DUP2 PUSH2 0x25E2 ADD MSTORE DUP2 DUP2 PUSH2 0x2637 ADD MSTORE PUSH2 0x27F1 ADD MSTORE PUSH2 0x5373 PUSH0 RETURN INVALID PUSH1 0x80 PUSH1 0x40 MSTORE PUSH1 0x4 CALLDATASIZE LT PUSH2 0x202 JUMPI PUSH0 CALLDATALOAD PUSH1 0xE0 SHR DUP1 PUSH4 0x90657147 GT PUSH2 0x117 JUMPI DUP1 PUSH4 0xCFD94A17 GT PUSH2 0x9F JUMPI DUP1 PUSH4 0xEDEB4BBE GT PUSH2 0x6E JUMPI DUP1 PUSH4 0xEDEB4BBE EQ PUSH2 0x750 JUMPI DUP1 PUSH4 0xF119F567 EQ PUSH2 0x77A JUMPI DUP1 PUSH4 0xF28CA1DD EQ PUSH2 0x7A2 JUMPI DUP1 PUSH4 0xF2FDE38B EQ PUSH2 0x7CC JUMPI DUP1 PUSH4 0xFFFAD312 EQ PUSH2 0x7F4 JUMPI PUSH2 0x202 JUMP JUMPDEST DUP1 PUSH4 0xCFD94A17 EQ PUSH2 0x69A JUMPI DUP1 PUSH4 0xD547CFB7 EQ PUSH2 0x6C2 JUMPI DUP1 PUSH4 0xE0DF5B6F EQ PUSH2 0x6EC JUMPI DUP1 PUSH4 0xE985E9C5 EQ PUSH2 0x714 JUMPI PUSH2 0x202 JUMP JUMPDEST DUP1 PUSH4 0xAD3CB1CC GT PUSH2 0xE6 JUMPI DUP1 PUSH4 0xAD3CB1CC EQ PUSH2 0x5A7 JUMPI DUP1 PUSH4 0xB564EA86 EQ PUSH2 0x5D1 JUMPI DUP1 PUSH4 0xB88D4FDE EQ PUSH2 0x60E JUMPI DUP1 PUSH4 0xBD9BA9E8 EQ PUSH2 0x636 JUMPI DUP1 PUSH4 0xC87B56DD EQ PUSH2 0x65E JUMPI PUSH2 0x202 JUMP JUMPDEST DUP1 PUSH4 0x90657147 EQ PUSH2 0x4FD JUMPI DUP1 PUSH4 0x95D89B41 EQ PUSH2 0x525 JUMPI DUP1 PUSH4 0x99683C22 EQ PUSH2 0x54F JUMPI DUP1 PUSH4 0xA22CB465 EQ PUSH2 0x57F JUMPI PUSH2 0x202 JUMP JUMPDEST DUP1 PUSH4 0x42842E0E GT PUSH2 0x19A JUMPI DUP1 PUSH4 0x6352211E GT PUSH2 0x169 JUMPI DUP1 PUSH4 0x6352211E EQ PUSH2 0x408 JUMPI DUP1 PUSH4 0x70A08231 EQ PUSH2 0x444 JUMPI DUP1 PUSH4 0x715018A6 EQ PUSH2 0x480 JUMPI DUP1 PUSH4 0x86838C60 EQ PUSH2 0x496 JUMPI DUP1 PUSH4 0x8DA5CB5B EQ PUSH2 0x4D3 JUMPI PUSH2 0x202 JUMP JUMPDEST DUP1 PUSH4 0x42842E0E EQ PUSH2 0x370 JUMPI DUP1 PUSH4 0x43463394 EQ PUSH2 0x398 JUMPI DUP1 PUSH4 0x4F1EF286 EQ PUSH2 0x3C2 JUMPI DUP1 PUSH4 0x52D1902D EQ PUSH2 0x3DE JUMPI PUSH2 0x202 JUMP JUMPDEST DUP1 PUSH4 0x95EA7B3 GT PUSH2 0x1D6 JUMPI DUP1 PUSH4 0x95EA7B3 EQ PUSH2 0x2D0 JUMPI DUP1 PUSH4 0x18D217C3 EQ PUSH2 0x2F8 JUMPI DUP1 PUSH4 0x1BC80EFF EQ PUSH2 0x320 JUMPI DUP1 PUSH4 0x23B872DD EQ PUSH2 0x348 JUMPI PUSH2 0x202 JUMP JUMPDEST DUP1 PUSH3 0xE00064 EQ PUSH2 0x206 JUMPI DUP1 PUSH4 0x1FFC9A7 EQ PUSH2 0x22E JUMPI DUP1 PUSH4 0x6FDDE03 EQ PUSH2 0x26A JUMPI DUP1 PUSH4 0x81812FC EQ PUSH2 0x294 JUMPI JUMPDEST PUSH0 DUP1 REVERT JUMPDEST CALLVALUE DUP1 ISZERO PUSH2 0x211 JUMPI PUSH0 DUP1 REVERT JUMPDEST POP PUSH2 0x22C PUSH1 0x4 DUP1 CALLDATASIZE SUB DUP2 ADD SWAP1 PUSH2 0x227 SWAP2 SWAP1 PUSH2 0x3CDF JUMP JUMPDEST PUSH2 0x81E JUMP JUMPDEST STOP JUMPDEST CALLVALUE DUP1 ISZERO PUSH2 0x239 JUMPI PUSH0 DUP1 REVERT JUMPDEST POP PUSH2 0x254 PUSH1 0x4 DUP1 CALLDATASIZE SUB DUP2 ADD SWAP1 PUSH2 0x24F SWAP2 SWAP1 PUSH2 0x3D5F JUMP JUMPDEST PUSH2 0xA5D JUMP JUMPDEST PUSH1 0x40 MLOAD PUSH2 0x261 SWAP2 SWAP1 PUSH2 0x3DA4 JUMP JUMPDEST PUSH1 0x40 MLOAD DUP1 SWAP2 SUB SWAP1 RETURN JUMPDEST CALLVALUE DUP1 ISZERO PUSH2 0x275 JUMPI PUSH0 DUP1 REVERT JUMPDEST POP PUSH2 0x27E PUSH2 0xA6E JUMP JUMPDEST PUSH1 0x40 MLOAD PUSH2 0x28B SWAP2 SWAP1 PUSH2 0x3E2D JUMP JUMPDEST PUSH1 0x40 MLOAD DUP1 SWAP2 SUB SWAP1 RETURN JUMPDEST CALLVALUE DUP1 ISZERO PUSH2 0x29F JUMPI PUSH0 DUP1 REVERT JUMPDEST POP PUSH2 0x2BA PUSH1 0x4 DUP1 CALLDATASIZE SUB DUP2 ADD SWAP1 PUSH2 0x2B5 SWAP2 SWAP1 PUSH2 0x3CDF JUMP JUMPDEST PUSH2 0xB0B JUMP JUMPDEST PUSH1 0x40 MLOAD PUSH2 0x2C7 SWAP2 SWAP1 PUSH2 0x3E8C JUMP JUMPDEST PUSH1 0x40 MLOAD DUP1 SWAP2 SUB SWAP1 RETURN JUMPDEST CALLVALUE DUP1 ISZERO PUSH2 0x2DB JUMPI PUSH0 DUP1 REVERT JUMPDEST POP PUSH2 0x2F6 PUSH1 0x4 DUP1 CALLDATASIZE SUB DUP2 ADD SWAP1 PUSH2 0x2F1 SWAP2 SWAP1 PUSH2 0x3ECF JUMP JUMPDEST PUSH2 0xB26 JUMP JUMPDEST STOP JUMPDEST CALLVALUE DUP1 ISZERO PUSH2 0x303 JUMPI PUSH0 DUP1 REVERT JUMPDEST POP PUSH2 0x31E PUSH1 0x4 DUP1 CALLDATASIZE SUB DUP2 ADD SWAP1 PUSH2 0x319 SWAP2 SWAP1 PUSH2 0x4039 JUMP JUMPDEST PUSH2 0xB3C JUMP JUMPDEST STOP JUMPDEST CALLVALUE DUP1 ISZERO PUSH2 0x32B JUMPI PUSH0 DUP1 REVERT JUMPDEST POP PUSH2 0x346 PUSH1 0x4 DUP1 CALLDATASIZE SUB DUP2 ADD SWAP1 PUSH2 0x341 SWAP2 SWAP1 PUSH2 0x3CDF JUMP JUMPDEST PUSH2 0xB57 JUMP JUMPDEST STOP JUMPDEST CALLVALUE DUP1 ISZERO PUSH2 0x353 JUMPI PUSH0 DUP1 REVERT JUMPDEST POP PUSH2 0x36E PUSH1 0x4 DUP1 CALLDATASIZE SUB DUP2 ADD SWAP1 PUSH2 0x369 SWAP2 SWAP1 PUSH2 0x4080 JUMP JUMPDEST PUSH2 0xD6E JUMP JUMPDEST STOP JUMPDEST CALLVALUE DUP1 ISZERO PUSH2 0x37B JUMPI PUSH0 DUP1 REVERT JUMPDEST POP PUSH2 0x396 PUSH1 0x4 DUP1 CALLDATASIZE SUB DUP2 ADD SWAP1 PUSH2 0x391 SWAP2 SWAP1 PUSH2 0x4080 JUMP JUMPDEST PUSH2 0xE6D JUMP JUMPDEST STOP JUMPDEST CALLVALUE DUP1 ISZERO PUSH2 0x3A3 JUMPI PUSH0 DUP1 REVERT JUMPDEST POP PUSH2 0x3AC PUSH2 0xE8C JUMP JUMPDEST PUSH1 0x40 MLOAD PUSH2 0x3B9 SWAP2 SWAP1 PUSH2 0x40DF JUMP JUMPDEST PUSH1 0x40 MLOAD DUP1 SWAP2 SUB SWAP1 RETURN JUMPDEST PUSH2 0x3DC PUSH1 0x4 DUP1 CALLDATASIZE SUB DUP2 ADD SWAP1 PUSH2 0x3D7 SWAP2 SWAP1 PUSH2 0x4196 JUMP JUMPDEST PUSH2 0xE91 JUMP JUMPDEST STOP JUMPDEST CALLVALUE DUP1 ISZERO PUSH2 0x3E9 JUMPI PUSH0 DUP1 REVERT JUMPDEST POP PUSH2 0x3F2 PUSH2 0xEB0 JUMP JUMPDEST PUSH1 0x40 MLOAD PUSH2 0x3FF SWAP2 SWAP1 PUSH2 0x4208 JUMP JUMPDEST PUSH1 0x40 MLOAD DUP1 SWAP2 SUB SWAP1 RETURN JUMPDEST CALLVALUE DUP1 ISZERO PUSH2 0x413 JUMPI PUSH0 DUP1 REVERT JUMPDEST POP PUSH2 0x42E PUSH1 0x4 DUP1 CALLDATASIZE SUB DUP2 ADD SWAP1 PUSH2 0x429 SWAP2 SWAP1 PUSH2 0x3CDF JUMP JUMPDEST PUSH2 0xEE1 JUMP JUMPDEST PUSH1 0x40 MLOAD PUSH2 0x43B SWAP2 SWAP1 PUSH2 0x3E8C JUMP JUMPDEST PUSH1 0x40 MLOAD DUP1 SWAP2 SUB SWAP1 RETURN JUMPDEST CALLVALUE DUP1 ISZERO PUSH2 0x44F JUMPI PUSH0 DUP1 REVERT JUMPDEST POP PUSH2 0x46A PUSH1 0x4 DUP1 CALLDATASIZE SUB DUP2 ADD SWAP1 PUSH2 0x465 SWAP2 SWAP1 PUSH2 0x4221 JUMP JUMPDEST PUSH2 0xEF2 JUMP JUMPDEST PUSH1 0x40 MLOAD PUSH2 0x477 SWAP2 SWAP1 PUSH2 0x40DF JUMP JUMPDEST PUSH1 0x40 MLOAD DUP1 SWAP2 SUB SWAP1 RETURN JUMPDEST CALLVALUE DUP1 ISZERO PUSH2 0x48B JUMPI PUSH0 DUP1 REVERT JUMPDEST POP PUSH2 0x494 PUSH2 0xFB6 JUMP JUMPDEST STOP JUMPDEST CALLVALUE DUP1 ISZERO PUSH2 0x4A1 JUMPI PUSH0 DUP1 REVERT JUMPDEST POP PUSH2 0x4BC PUSH1 0x4 DUP1 CALLDATASIZE SUB DUP2 ADD SWAP1 PUSH2 0x4B7 SWAP2 SWAP1 PUSH2 0x3CDF JUMP JUMPDEST PUSH2 0xFC9 JUMP JUMPDEST PUSH1 0x40 MLOAD PUSH2 0x4CA SWAP3 SWAP2 SWAP1 PUSH2 0x424C JUMP JUMPDEST PUSH1 0x40 MLOAD DUP1 SWAP2 SUB SWAP1 RETURN JUMPDEST CALLVALUE DUP1 ISZERO PUSH2 0x4DE JUMPI PUSH0 DUP1 REVERT JUMPDEST POP PUSH2 0x4E7 PUSH2 0xFFD JUMP JUMPDEST PUSH1 0x40 MLOAD PUSH2 0x4F4 SWAP2 SWAP1 PUSH2 0x3E8C JUMP JUMPDEST PUSH1 0x40 MLOAD DUP1 SWAP2 SUB SWAP1 RETURN JUMPDEST CALLVALUE DUP1 ISZERO PUSH2 0x508 JUMPI PUSH0 DUP1 REVERT JUMPDEST POP PUSH2 0x523 PUSH1 0x4 DUP1 CALLDATASIZE SUB DUP2 ADD SWAP1 PUSH2 0x51E SWAP2 SWAP1 PUSH2 0x4273 JUMP JUMPDEST PUSH2 0x1032 JUMP JUMPDEST STOP JUMPDEST CALLVALUE DUP1 ISZERO PUSH2 0x530 JUMPI PUSH0 DUP1 REVERT JUMPDEST POP PUSH2 0x539 PUSH2 0x11D6 JUMP JUMPDEST PUSH1 0x40 MLOAD PUSH2 0x546 SWAP2 SWAP1 PUSH2 0x3E2D JUMP JUMPDEST PUSH1 0x40 MLOAD DUP1 SWAP2 SUB SWAP1 RETURN JUMPDEST PUSH2 0x569 PUSH1 0x4 DUP1 CALLDATASIZE SUB DUP2 ADD SWAP1 PUSH2 0x564 SWAP2 SWAP1 PUSH2 0x42FB JUMP JUMPDEST PUSH2 0x1274 JUMP JUMPDEST PUSH1 0x40 MLOAD PUSH2 0x576 SWAP2 SWAP1 PUSH2 0x40DF JUMP JUMPDEST PUSH1 0x40 MLOAD DUP1 SWAP2 SUB SWAP1 RETURN JUMPDEST CALLVALUE DUP1 ISZERO PUSH2 0x58A JUMPI PUSH0 DUP1 REVERT JUMPDEST POP PUSH2 0x5A5 PUSH1 0x4 DUP1 CALLDATASIZE SUB DUP2 ADD SWAP1 PUSH2 0x5A0 SWAP2 SWAP1 PUSH2 0x4391 JUMP JUMPDEST PUSH2 0x1441 JUMP JUMPDEST STOP JUMPDEST CALLVALUE DUP1 ISZERO PUSH2 0x5B2 JUMPI PUSH0 DUP1 REVERT JUMPDEST POP PUSH2 0x5BB PUSH2 0x1457 JUMP JUMPDEST PUSH1 0x40 MLOAD PUSH2 0x5C8 SWAP2 SWAP1 PUSH2 0x3E2D JUMP JUMPDEST PUSH1 0x40 MLOAD DUP1 SWAP2 SUB SWAP1 RETURN JUMPDEST CALLVALUE DUP1 ISZERO PUSH2 0x5DC JUMPI PUSH0 DUP1 REVERT JUMPDEST POP PUSH2 0x5F7 PUSH1 0x4 DUP1 CALLDATASIZE SUB DUP2 ADD SWAP1 PUSH2 0x5F2 SWAP2 SWAP1 PUSH2 0x3CDF JUMP JUMPDEST PUSH2 0x1490 JUMP JUMPDEST PUSH1 0x40 MLOAD PUSH2 0x605 SWAP3 SWAP2 SWAP1 PUSH2 0x4442 JUMP JUMPDEST PUSH1 0x40 MLOAD DUP1 SWAP2 SUB SWAP1 RETURN JUMPDEST CALLVALUE DUP1 ISZERO PUSH2 0x619 JUMPI PUSH0 DUP1 REVERT JUMPDEST POP PUSH2 0x634 PUSH1 0x4 DUP1 CALLDATASIZE SUB DUP2 ADD SWAP1 PUSH2 0x62F SWAP2 SWAP1 PUSH2 0x4469 JUMP JUMPDEST PUSH2 0x1617 JUMP JUMPDEST STOP JUMPDEST CALLVALUE DUP1 ISZERO PUSH2 0x641 JUMPI PUSH0 DUP1 REVERT JUMPDEST POP PUSH2 0x65C PUSH1 0x4 DUP1 CALLDATASIZE SUB DUP2 ADD SWAP1 PUSH2 0x657 SWAP2 SWAP1 PUSH2 0x4039 JUMP JUMPDEST PUSH2 0x1634 JUMP JUMPDEST STOP JUMPDEST CALLVALUE DUP1 ISZERO PUSH2 0x669 JUMPI PUSH0 DUP1 REVERT JUMPDEST POP PUSH2 0x684 PUSH1 0x4 DUP1 CALLDATASIZE SUB DUP2 ADD SWAP1 PUSH2 0x67F SWAP2 SWAP1 PUSH2 0x3CDF JUMP JUMPDEST PUSH2 0x164F JUMP JUMPDEST PUSH1 0x40 MLOAD PUSH2 0x691 SWAP2 SWAP1 PUSH2 0x3E2D JUMP JUMPDEST PUSH1 0x40 MLOAD DUP1 SWAP2 SUB SWAP1 RETURN JUMPDEST CALLVALUE DUP1 ISZERO PUSH2 0x6A5 JUMPI PUSH0 DUP1 REVERT JUMPDEST POP PUSH2 0x6C0 PUSH1 0x4 DUP1 CALLDATASIZE SUB DUP2 ADD SWAP1 PUSH2 0x6BB SWAP2 SWAP1 PUSH2 0x44E9 JUMP JUMPDEST PUSH2 0x1B00 JUMP JUMPDEST STOP JUMPDEST CALLVALUE DUP1 ISZERO PUSH2 0x6CD JUMPI PUSH0 DUP1 REVERT JUMPDEST POP PUSH2 0x6D6 PUSH2 0x1B6E JUMP JUMPDEST PUSH1 0x40 MLOAD PUSH2 0x6E3 SWAP2 SWAP1 PUSH2 0x3E2D JUMP JUMPDEST PUSH1 0x40 MLOAD DUP1 SWAP2 SUB SWAP1 RETURN JUMPDEST CALLVALUE DUP1 ISZERO PUSH2 0x6F7 JUMPI PUSH0 DUP1 REVERT JUMPDEST POP PUSH2 0x712 PUSH1 0x4 DUP1 CALLDATASIZE SUB DUP2 ADD SWAP1 PUSH2 0x70D SWAP2 SWAP1 PUSH2 0x4039 JUMP JUMPDEST PUSH2 0x1BFA JUMP JUMPDEST STOP JUMPDEST CALLVALUE DUP1 ISZERO PUSH2 0x71F JUMPI PUSH0 DUP1 REVERT JUMPDEST POP PUSH2 0x73A PUSH1 0x4 DUP1 CALLDATASIZE SUB DUP2 ADD SWAP1 PUSH2 0x735 SWAP2 SWAP1 PUSH2 0x4543 JUMP JUMPDEST PUSH2 0x1C15 JUMP JUMPDEST PUSH1 0x40 MLOAD PUSH2 0x747 SWAP2 SWAP1 PUSH2 0x3DA4 JUMP JUMPDEST PUSH1 0x40 MLOAD DUP1 SWAP2 SUB SWAP1 RETURN JUMPDEST CALLVALUE DUP1 ISZERO PUSH2 0x75B JUMPI PUSH0 DUP1 REVERT JUMPDEST POP PUSH2 0x764 PUSH2 0x1CB1 JUMP JUMPDEST PUSH1 0x40 MLOAD PUSH2 0x771 SWAP2 SWAP1 PUSH2 0x3E2D JUMP JUMPDEST PUSH1 0x40 MLOAD DUP1 SWAP2 SUB SWAP1 RETURN JUMPDEST CALLVALUE DUP1 ISZERO PUSH2 0x785 JUMPI PUSH0 DUP1 REVERT JUMPDEST POP PUSH2 0x7A0 PUSH1 0x4 DUP1 CALLDATASIZE SUB DUP2 ADD SWAP1 PUSH2 0x79B SWAP2 SWAP1 PUSH2 0x3CDF JUMP JUMPDEST PUSH2 0x1D3D JUMP JUMPDEST STOP JUMPDEST CALLVALUE DUP1 ISZERO PUSH2 0x7AD JUMPI PUSH0 DUP1 REVERT JUMPDEST POP PUSH2 0x7B6 PUSH2 0x2024 JUMP JUMPDEST PUSH1 0x40 MLOAD PUSH2 0x7C3 SWAP2 SWAP1 PUSH2 0x3E2D JUMP JUMPDEST PUSH1 0x40 MLOAD DUP1 SWAP2 SUB SWAP1 RETURN JUMPDEST CALLVALUE DUP1 ISZERO PUSH2 0x7D7 JUMPI PUSH0 DUP1 REVERT JUMPDEST POP PUSH2 0x7F2 PUSH1 0x4 DUP1 CALLDATASIZE SUB DUP2 ADD SWAP1 PUSH2 0x7ED SWAP2 SWAP1 PUSH2 0x4221 JUMP JUMPDEST PUSH2 0x20B0 JUMP JUMPDEST STOP JUMPDEST CALLVALUE DUP1 ISZERO PUSH2 0x7FF JUMPI PUSH0 DUP1 REVERT JUMPDEST POP PUSH2 0x808 PUSH2 0x2134 JUMP JUMPDEST PUSH1 0x40 MLOAD PUSH2 0x815 SWAP2 SWAP1 PUSH2 0x40DF JUMP JUMPDEST PUSH1 0x40 MLOAD DUP1 SWAP2 SUB SWAP1 RETURN JUMPDEST PUSH1 0x3 DUP1 DUP2 GT ISZERO PUSH2 0x831 JUMPI PUSH2 0x830 PUSH2 0x43CF JUMP JUMPDEST JUMPDEST PUSH0 DUP1 DUP4 DUP2 MSTORE PUSH1 0x20 ADD SWAP1 DUP2 MSTORE PUSH1 0x20 ADD PUSH0 KECCAK256 PUSH0 SWAP1 SLOAD SWAP1 PUSH2 0x100 EXP SWAP1 DIV PUSH1 0xFF AND PUSH1 0x3 DUP2 GT ISZERO PUSH2 0x860 JUMPI PUSH2 0x85F PUSH2 0x43CF JUMP JUMPDEST JUMPDEST SUB PUSH2 0x8A0 JUMPI PUSH1 0x40 MLOAD PUSH32 0x8C379A000000000000000000000000000000000000000000000000000000000 DUP2 MSTORE PUSH1 0x4 ADD PUSH2 0x897 SWAP1 PUSH2 0x45CB JUMP JUMPDEST PUSH1 0x40 MLOAD DUP1 SWAP2 SUB SWAP1 REVERT JUMPDEST CALLER PUSH20 0xFFFFFFFFFFFFFFFFFFFFFFFFFFFFFFFFFFFFFFFF AND PUSH2 0x8C0 DUP3 PUSH2 0xEE1 JUMP JUMPDEST PUSH20 0xFFFFFFFFFFFFFFFFFFFFFFFFFFFFFFFFFFFFFFFF AND EQ PUSH2 0x916 JUMPI PUSH1 0x40 MLOAD PUSH32 0x8C379A000000000000000000000000000000000000000000000000000000000 DUP2 MSTORE PUSH1 0x4 ADD PUSH2 0x90D SWAP1 PUSH2 0x4633 JUMP JUMPDEST PUSH1 0x40 MLOAD DUP1 SWAP2 SUB SWAP1 REVERT JUMPDEST PUSH0 DUP1 PUSH0 DUP4 DUP2 MSTORE PUSH1 0x20 ADD SWAP1 DUP2 MSTORE PUSH1 0x20 ADD PUSH0 KECCAK256 PUSH0 SWAP1 SLOAD SWAP1 PUSH2 0x100 EXP SWAP1 DIV PUSH1 0xFF AND SWAP1 POP PUSH0 PUSH1 0x2 PUSH0 DUP5 DUP2 MSTORE PUSH1 0x20 ADD SWAP1 DUP2 MSTORE PUSH1 0x20 ADD PUSH0 KECCAK256 SWAP1 POP PUSH0 TIMESTAMP SWAP1 POP PUSH0 PUSH1 0x3 DUP2 GT ISZERO PUSH2 0x961 JUMPI PUSH2 0x960 PUSH2 0x43CF JUMP JUMPDEST JUMPDEST DUP4 PUSH1 0x3 DUP2 GT ISZERO PUSH2 0x974 JUMPI PUSH2 0x973 PUSH2 0x43CF JUMP JUMPDEST JUMPDEST SUB PUSH2 0x9A5 JUMPI PUSH2 0x999 DUP2 PUSH1 0x2 PUSH0 DUP8 DUP2 MSTORE PUSH1 0x20 ADD SWAP1 DUP2 MSTORE PUSH1 0x20 ADD PUSH0 KECCAK256 PUSH0 ADD SLOAD PUSH2 0x2A30 PUSH2 0x213A JUMP JUMPDEST DUP3 PUSH0 ADD DUP2 SWAP1 SSTORE POP PUSH2 0xA57 JUMP JUMPDEST PUSH1 0x1 PUSH1 0x3 DUP2 GT ISZERO PUSH2 0x9B9 JUMPI PUSH2 0x9B8 PUSH2 0x43CF JUMP JUMPDEST JUMPDEST DUP4 PUSH1 0x3 DUP2 GT ISZERO PUSH2 0x9CC JUMPI PUSH2 0x9CB PUSH2 0x43CF JUMP JUMPDEST JUMPDEST SUB PUSH2 0x9FF JUMPI PUSH2 0x9F2 DUP2 PUSH1 0x2 PUSH0 DUP8 DUP2 MSTORE PUSH1 0x20 ADD SWAP1 DUP2 MSTORE PUSH1 0x20 ADD PUSH0 KECCAK256 PUSH1 0x1 ADD SLOAD PUSH2 0x2A30 PUSH2 0x213A JUMP JUMPDEST DUP3 PUSH1 0x1 ADD DUP2 SWAP1 SSTORE POP PUSH2 0xA56 JUMP JUMPDEST PUSH1 0x2 PUSH1 0x3 DUP2 GT ISZERO PUSH2 0xA13 JUMPI PUSH2 0xA12 PUSH2 0x43CF JUMP JUMPDEST JUMPDEST DUP4 PUSH1 0x3 DUP2 GT ISZERO PUSH2 0xA26 JUMPI PUSH2 0xA25 PUSH2 0x43CF JUMP JUMPDEST JUMPDEST SUB PUSH2 0xA55 JUMPI PUSH2 0xA4C DUP2 PUSH1 0x2 PUSH0 DUP8 DUP2 MSTORE PUSH1 0x20 ADD SWAP1 DUP2 MSTORE PUSH1 0x20 ADD PUSH0 KECCAK256 PUSH1 0x2 ADD SLOAD PUSH2 0x2A30 PUSH2 0x213A JUMP JUMPDEST DUP3 PUSH1 0x2 ADD DUP2 SWAP1 SSTORE POP JUMPDEST JUMPDEST JUMPDEST POP POP POP POP JUMP JUMPDEST PUSH0 PUSH2 0xA67 DUP3 PUSH2 0x216B JUMP JUMPDEST SWAP1 POP SWAP2 SWAP1 POP JUMP JUMPDEST PUSH1 0x60 PUSH0 PUSH2 0xA79 PUSH2 0x21CB JUMP JUMPDEST SWAP1 POP DUP1 PUSH0 ADD DUP1 SLOAD PUSH2 0xA89 SWAP1 PUSH2 0x467E JUMP JUMPDEST DUP1 PUSH1 0x1F ADD PUSH1 0x20 DUP1 SWAP2 DIV MUL PUSH1 0x20 ADD PUSH1 0x40 MLOAD SWAP1 DUP2 ADD PUSH1 0x40 MSTORE DUP1 SWAP3 SWAP2 SWAP1 DUP2 DUP2 MSTORE PUSH1 0x20 ADD DUP3 DUP1 SLOAD PUSH2 0xAB5 SWAP1 PUSH2 0x467E JUMP JUMPDEST DUP1 ISZERO PUSH2 0xB00 JUMPI DUP1 PUSH1 0x1F LT PUSH2 0xAD7 JUMPI PUSH2 0x100 DUP1 DUP4 SLOAD DIV MUL DUP4 MSTORE SWAP2 PUSH1 0x20 ADD SWAP2 PUSH2 0xB00 JUMP JUMPDEST DUP3 ADD SWAP2 SWAP1 PUSH0 MSTORE PUSH1 0x20 PUSH0 KECCAK256 SWAP1 JUMPDEST DUP2 SLOAD DUP2 MSTORE SWAP1 PUSH1 0x1 ADD SWAP1 PUSH1 0x20 ADD DUP1 DUP4 GT PUSH2 0xAE3 JUMPI DUP3 SWAP1 SUB PUSH1 0x1F AND DUP3 ADD SWAP2 JUMPDEST POP POP POP POP POP SWAP2 POP POP SWAP1 JUMP JUMPDEST PUSH0 PUSH2 0xB15 DUP3 PUSH2 0x21F2 JUMP JUMPDEST POP PUSH2 0xB1F DUP3 PUSH2 0x2278 JUMP JUMPDEST SWAP1 POP SWAP2 SWAP1 POP JUMP JUMPDEST PUSH2 0xB38 DUP3 DUP3 PUSH2 0xB33 PUSH2 0x22BF JUMP JUMPDEST PUSH2 0x22C6 JUMP JUMPDEST POP POP JUMP JUMPDEST PUSH2 0xB44 PUSH2 0x22D8 JUMP JUMPDEST DUP1 PUSH1 0x7 SWAP1 DUP2 PUSH2 0xB53 SWAP2 SWAP1 PUSH2 0x484B JUMP JUMPDEST POP POP JUMP JUMPDEST PUSH2 0xB5F PUSH2 0x22D8 JUMP JUMPDEST PUSH0 DUP1 PUSH0 DUP4 DUP2 MSTORE PUSH1 0x20 ADD SWAP1 DUP2 MSTORE PUSH1 0x20 ADD PUSH0 KECCAK256 PUSH0 SWAP1 SLOAD SWAP1 PUSH2 0x100 EXP SWAP1 DIV PUSH1 0xFF AND SWAP1 POP PUSH0 PUSH1 0x3 DUP2 GT ISZERO PUSH2 0xB92 JUMPI PUSH2 0xB91 PUSH2 0x43CF JUMP JUMPDEST JUMPDEST DUP2 PUSH1 0x3 DUP2 GT ISZERO PUSH2 0xBA5 JUMPI PUSH2 0xBA4 PUSH2 0x43CF JUMP JUMPDEST JUMPDEST SUB PUSH2 0xC2E JUMPI PUSH1 0x1 PUSH0 DUP1 DUP5 DUP2 MSTORE PUSH1 0x20 ADD SWAP1 DUP2 MSTORE PUSH1 0x20 ADD PUSH0 KECCAK256 PUSH0 PUSH2 0x100 EXP DUP2 SLOAD DUP2 PUSH1 0xFF MUL NOT AND SWAP1 DUP4 PUSH1 0x3 DUP2 GT ISZERO PUSH2 0xBDD JUMPI PUSH2 0xBDC PUSH2 0x43CF JUMP JUMPDEST JUMPDEST MUL OR SWAP1 SSTORE POP PUSH2 0xBEA PUSH2 0x235F JUMP JUMPDEST PUSH1 0x1 PUSH0 DUP5 DUP2 MSTORE PUSH1 0x20 ADD SWAP1 DUP2 MSTORE PUSH1 0x20 ADD PUSH0 KECCAK256 PUSH1 0x1 ADD DUP2 SWAP1 SSTORE POP PUSH3 0x2A300 TIMESTAMP PUSH2 0xC11 SWAP2 SWAP1 PUSH2 0x4947 JUMP JUMPDEST PUSH1 0x2 PUSH0 DUP5 DUP2 MSTORE PUSH1 0x20 ADD SWAP1 DUP2 MSTORE PUSH1 0x20 ADD PUSH0 KECCAK256 PUSH1 0x1 ADD DUP2 SWAP1 SSTORE POP PUSH2 0xD6A JUMP JUMPDEST PUSH1 0x1 PUSH1 0x3 DUP2 GT ISZERO PUSH2 0xC42 JUMPI PUSH2 0xC41 PUSH2 0x43CF JUMP JUMPDEST JUMPDEST DUP2 PUSH1 0x3 DUP2 GT ISZERO PUSH2 0xC55 JUMPI PUSH2 0xC54 PUSH2 0x43CF JUMP JUMPDEST JUMPDEST SUB PUSH2 0xCBE JUMPI PUSH1 0x2 PUSH0 DUP1 DUP5 DUP2 MSTORE PUSH1 0x20 ADD SWAP1 DUP2 MSTORE PUSH1 0x20 ADD PUSH0 KECCAK256 PUSH0 PUSH2 0x100 EXP DUP2 SLOAD DUP2 PUSH1 0xFF MUL NOT AND SWAP1 DUP4 PUSH1 0x3 DUP2 GT ISZERO PUSH2 0xC8D JUMPI PUSH2 0xC8C PUSH2 0x43CF JUMP JUMPDEST JUMPDEST MUL OR SWAP1 SSTORE POP PUSH3 0x3F480 TIMESTAMP PUSH2 0xCA1 SWAP2 SWAP1 PUSH2 0x4947 JUMP JUMPDEST PUSH1 0x2 PUSH0 DUP5 DUP2 MSTORE PUSH1 0x20 ADD SWAP1 DUP2 MSTORE PUSH1 0x20 ADD PUSH0 KECCAK256 PUSH1 0x2 ADD DUP2 SWAP1 SSTORE POP PUSH2 0xD69 JUMP JUMPDEST PUSH1 0x2 PUSH1 0x3 DUP2 GT ISZERO PUSH2 0xCD2 JUMPI PUSH2 0xCD1 PUSH2 0x43CF JUMP JUMPDEST JUMPDEST DUP2 PUSH1 0x3 DUP2 GT ISZERO PUSH2 0xCE5 JUMPI PUSH2 0xCE4 PUSH2 0x43CF JUMP JUMPDEST JUMPDEST SUB PUSH2 0xD27 JUMPI PUSH1 0x3 PUSH0 DUP1 DUP5 DUP2 MSTORE PUSH1 0x20 ADD SWAP1 DUP2 MSTORE PUSH1 0x20 ADD PUSH0 KECCAK256 PUSH0 PUSH2 0x100 EXP DUP2 SLOAD DUP2 PUSH1 0xFF MUL NOT AND SWAP1 DUP4 PUSH1 0x3 DUP2 GT ISZERO PUSH2 0xD1D JUMPI PUSH2 0xD1C PUSH2 0x43CF JUMP JUMPDEST JUMPDEST MUL OR SWAP1 SSTORE POP PUSH2 0xD68 JUMP JUMPDEST PUSH0 PUSH2 0xD67 JUMPI PUSH1 0x40 MLOAD PUSH32 0x8C379A000000000000000000000000000000000000000000000000000000000 DUP2 MSTORE PUSH1 0x4 ADD PUSH2 0xD5E SWAP1 PUSH2 0x49C4 JUMP JUMPDEST PUSH1 0x40 MLOAD DUP1 SWAP2 SUB SWAP1 REVERT JUMPDEST JUMPDEST JUMPDEST JUMPDEST POP POP JUMP JUMPDEST PUSH0 PUSH20 0xFFFFFFFFFFFFFFFFFFFFFFFFFFFFFFFFFFFFFFFF AND DUP3 PUSH20 0xFFFFFFFFFFFFFFFFFFFFFFFFFFFFFFFFFFFFFFFF AND SUB PUSH2 0xDDE JUMPI PUSH0 PUSH1 0x40 MLOAD PUSH32 0x64A0AE9200000000000000000000000000000000000000000000000000000000 DUP2 MSTORE PUSH1 0x4 ADD PUSH2 0xDD5 SWAP2 SWAP1 PUSH2 0x3E8C JUMP JUMPDEST PUSH1 0x40 MLOAD DUP1 SWAP2 SUB SWAP1 REVERT JUMPDEST PUSH0 PUSH2 0xDF1 DUP4 DUP4 PUSH2 0xDEC PUSH2 0x22BF JUMP JUMPDEST PUSH2 0x23C3 JUMP JUMPDEST SWAP1 POP DUP4 PUSH20 0xFFFFFFFFFFFFFFFFFFFFFFFFFFFFFFFFFFFFFFFF AND DUP2 PUSH20 0xFFFFFFFFFFFFFFFFFFFFFFFFFFFFFFFFFFFFFFFF AND EQ PUSH2 0xE67 JUMPI DUP4 DUP3 DUP3 PUSH1 0x40 MLOAD PUSH32 0x64283D7B00000000000000000000000000000000000000000000000000000000 DUP2 MSTORE PUSH1 0x4 ADD PUSH2 0xE5E SWAP4 SWAP3 SWAP2 SWAP1 PUSH2 0x49E2 JUMP JUMPDEST PUSH1 0x40 MLOAD DUP1 SWAP2 SUB SWAP1 REVERT JUMPDEST POP POP POP POP JUMP JUMPDEST PUSH2 0xE87 DUP4 DUP4 DUP4 PUSH1 0x40 MLOAD DUP1 PUSH1 0x20 ADD PUSH1 0x40 MSTORE DUP1 PUSH0 DUP2 MSTORE POP PUSH2 0x1617 JUMP JUMPDEST POP POP POP JUMP JUMPDEST PUSH1 0xA DUP2 JUMP JUMPDEST PUSH2 0xE99 PUSH2 0x25E0 JUMP JUMPDEST PUSH2 0xEA2 DUP3 PUSH2 0x26C6 JUMP JUMPDEST PUSH2 0xEAC DUP3 DUP3 PUSH2 0x26D1 JUMP JUMPDEST POP POP JUMP JUMPDEST PUSH0 PUSH2 0xEB9 PUSH2 0x27EF JUMP JUMPDEST PUSH32 0x360894A13BA1A3210667C828492DB98DCA3E2076CC3735A920A3CA505D382BBC PUSH0 SHL SWAP1 POP SWAP1 JUMP JUMPDEST PUSH0 PUSH2 0xEEB DUP3 PUSH2 0x21F2 JUMP JUMPDEST SWAP1 POP SWAP2 SWAP1 POP JUMP JUMPDEST PUSH0 DUP1 PUSH2 0xEFC PUSH2 0x21CB JUMP JUMPDEST SWAP1 POP PUSH0 PUSH20 0xFFFFFFFFFFFFFFFFFFFFFFFFFFFFFFFFFFFFFFFF AND DUP4 PUSH20 0xFFFFFFFFFFFFFFFFFFFFFFFFFFFFFFFFFFFFFFFF AND SUB PUSH2 0xF6E JUMPI PUSH0 PUSH1 0x40 MLOAD PUSH32 0x89C62B6400000000000000000000000000000000000000000000000000000000 DUP2 MSTORE PUSH1 0x4 ADD PUSH2 0xF65 SWAP2 SWAP1 PUSH2 0x3E8C JUMP JUMPDEST PUSH1 0x40 MLOAD DUP1 SWAP2 SUB SWAP1 REVERT JUMPDEST DUP1 PUSH1 0x3 ADD PUSH0 DUP5 PUSH20 0xFFFFFFFFFFFFFFFFFFFFFFFFFFFFFFFFFFFFFFFF AND PUSH20 0xFFFFFFFFFFFFFFFFFFFFFFFFFFFFFFFFFFFFFFFF AND DUP2 MSTORE PUSH1 0x20 ADD SWAP1 DUP2 MSTORE PUSH1 0x20 ADD PUSH0 KECCAK256 SLOAD SWAP2 POP POP SWAP2 SWAP1 POP JUMP JUMPDEST PUSH2 0xFBE PUSH2 0x22D8 JUMP JUMPDEST PUSH2 0xFC7 PUSH0 PUSH2 0x2876 JUMP JUMPDEST JUMP JUMPDEST PUSH0 DUP1 PUSH1 0x9 PUSH0 DUP5 DUP2 MSTORE PUSH1 0x20 ADD SWAP1 DUP2 MSTORE PUSH1 0x20 ADD PUSH0 KECCAK256 PUSH0 ADD SLOAD SWAP2 POP PUSH1 0x9 PUSH0 DUP5 DUP2 MSTORE PUSH1 0x20 ADD SWAP1 DUP2 MSTORE PUSH1 0x20 ADD PUSH0 KECCAK256 PUSH1 0x1 ADD SLOAD SWAP1 POP SWAP2 POP SWAP2 JUMP JUMPDEST PUSH0 DUP1 PUSH2 0x1007 PUSH2 0x2947 JUMP JUMPDEST SWAP1 POP DUP1 PUSH0 ADD PUSH0 SWAP1 SLOAD SWAP1 PUSH2 0x100 EXP SWAP1 DIV PUSH20 0xFFFFFFFFFFFFFFFFFFFFFFFFFFFFFFFFFFFFFFFF AND SWAP2 POP POP SWAP1 JUMP JUMPDEST PUSH0 PUSH2 0x103B PUSH2 0x296E JUMP JUMPDEST SWAP1 POP PUSH0 DUP2 PUSH0 ADD PUSH1 0x8 SWAP1 SLOAD SWAP1 PUSH2 0x100 EXP SWAP1 DIV PUSH1 0xFF AND ISZERO SWAP1 POP PUSH0 DUP3 PUSH0 ADD PUSH0 SWAP1 SLOAD SWAP1 PUSH2 0x100 EXP SWAP1 DIV PUSH8 0xFFFFFFFFFFFFFFFF AND SWAP1 POP PUSH0 DUP1 DUP3 PUSH8 0xFFFFFFFFFFFFFFFF AND EQ DUP1 ISZERO PUSH2 0x1083 JUMPI POP DUP3 JUMPDEST SWAP1 POP PUSH0 PUSH1 0x1 DUP4 PUSH8 0xFFFFFFFFFFFFFFFF AND EQ DUP1 ISZERO PUSH2 0x10B6 JUMPI POP PUSH0 ADDRESS PUSH20 0xFFFFFFFFFFFFFFFFFFFFFFFFFFFFFFFFFFFFFFFF AND EXTCODESIZE EQ JUMPDEST SWAP1 POP DUP2 ISZERO DUP1 ISZERO PUSH2 0x10C4 JUMPI POP DUP1 ISZERO JUMPDEST ISZERO PUSH2 0x10FB JUMPI PUSH1 0x40 MLOAD PUSH32 0xF92EE8A900000000000000000000000000000000000000000000000000000000 DUP2 MSTORE PUSH1 0x4 ADD PUSH1 0x40 MLOAD DUP1 SWAP2 SUB SWAP1 REVERT JUMPDEST PUSH1 0x1 DUP6 PUSH0 ADD PUSH0 PUSH2 0x100 EXP DUP2 SLOAD DUP2 PUSH8 0xFFFFFFFFFFFFFFFF MUL NOT AND SWAP1 DUP4 PUSH8 0xFFFFFFFFFFFFFFFF AND MUL OR SWAP1 SSTORE POP DUP4 ISZERO PUSH2 0x1148 JUMPI PUSH1 0x1 DUP6 PUSH0 ADD PUSH1 0x8 PUSH2 0x100 EXP DUP2 SLOAD DUP2 PUSH1 0xFF MUL NOT AND SWAP1 DUP4 ISZERO ISZERO MUL OR SWAP1 SSTORE POP JUMPDEST PUSH2 0x1152 DUP8 DUP8 PUSH2 0x2995 JUMP JUMPDEST PUSH2 0x115A PUSH2 0x29AB JUMP JUMPDEST PUSH2 0x1163 DUP9 PUSH2 0x29B5 JUMP JUMPDEST PUSH2 0x116B PUSH2 0x29C9 JUMP JUMPDEST PUSH0 PUSH1 0x5 DUP2 SWAP1 SSTORE POP DUP4 ISZERO PUSH2 0x11CC JUMPI PUSH0 DUP6 PUSH0 ADD PUSH1 0x8 PUSH2 0x100 EXP DUP2 SLOAD DUP2 PUSH1 0xFF MUL NOT AND SWAP1 DUP4 ISZERO ISZERO MUL OR SWAP1 SSTORE POP PUSH32 0xC7F505B2F371AE2175EE4913F4499E1F2633A7B5936321EED1CDAEB6115181D2 PUSH1 0x1 PUSH1 0x40 MLOAD PUSH2 0x11C3 SWAP2 SWAP1 PUSH2 0x4A63 JUMP JUMPDEST PUSH1 0x40 MLOAD DUP1 SWAP2 SUB SWAP1 LOG1 JUMPDEST POP POP POP POP POP POP POP POP JUMP JUMPDEST PUSH1 0x60 PUSH0 PUSH2 0x11E1 PUSH2 0x21CB JUMP JUMPDEST SWAP1 POP DUP1 PUSH1 0x1 ADD DUP1 SLOAD PUSH2 0x11F2 SWAP1 PUSH2 0x467E JUMP JUMPDEST DUP1 PUSH1 0x1F ADD PUSH1 0x20 DUP1 SWAP2 DIV MUL PUSH1 0x20 ADD PUSH1 0x40 MLOAD SWAP1 DUP2 ADD PUSH1 0x40 MSTORE DUP1 SWAP3 SWAP2 SWAP1 DUP2 DUP2 MSTORE PUSH1 0x20 ADD DUP3 DUP1 SLOAD PUSH2 0x121E SWAP1 PUSH2 0x467E JUMP JUMPDEST DUP1 ISZERO PUSH2 0x1269 JUMPI DUP1 PUSH1 0x1F LT PUSH2 0x1240 JUMPI PUSH2 0x100 DUP1 DUP4 SLOAD DIV MUL DUP4 MSTORE SWAP2 PUSH1 0x20 ADD SWAP2 PUSH2 0x1269 JUMP JUMPDEST DUP3 ADD SWAP2 SWAP1 PUSH0 MSTORE PUSH1 0x20 PUSH0 KECCAK256 SWAP1 JUMPDEST DUP2 SLOAD DUP2 MSTORE SWAP1 PUSH1 0x1 ADD SWAP1 PUSH1 0x20 ADD DUP1 DUP4 GT PUSH2 0x124C JUMPI DUP3 SWAP1 SUB PUSH1 0x1F AND DUP3 ADD SWAP2 JUMPDEST POP POP POP POP POP SWAP2 POP POP SWAP1 JUMP JUMPDEST PUSH0 CALLER PUSH20 0xFFFFFFFFFFFFFFFFFFFFFFFFFFFFFFFFFFFFFFFF AND PUSH2 0x1295 DUP5 PUSH2 0xEE1 JUMP JUMPDEST PUSH20 0xFFFFFFFFFFFFFFFFFFFFFFFFFFFFFFFFFFFFFFFF AND EQ DUP1 ISZERO PUSH2 0x12EB JUMPI POP CALLER PUSH20 0xFFFFFFFFFFFFFFFFFFFFFFFFFFFFFFFFFFFFFFFF AND PUSH2 0x12D3 DUP4 PUSH2 0xEE1 JUMP JUMPDEST PUSH20 0xFFFFFFFFFFFFFFFFFFFFFFFFFFFFFFFFFFFFFFFF AND EQ JUMPDEST PUSH2 0x132A JUMPI PUSH1 0x40 MLOAD PUSH32 0x8C379A000000000000000000000000000000000000000000000000000000000 DUP2 MSTORE PUSH1 0x4 ADD PUSH2 0x1321 SWAP1 PUSH2 0x4633 JUMP JUMPDEST PUSH1 0x40 MLOAD DUP1 SWAP2 SUB SWAP1 REVERT JUMPDEST PUSH2 0x1334 DUP4 DUP4 PUSH2 0x29D3 JUMP JUMPDEST ISZERO PUSH2 0x1374 JUMPI PUSH1 0x40 MLOAD PUSH32 0x8C379A000000000000000000000000000000000000000000000000000000000 DUP2 MSTORE PUSH1 0x4 ADD PUSH2 0x136B SWAP1 PUSH2 0x4AC6 JUMP JUMPDEST PUSH1 0x40 MLOAD DUP1 SWAP2 SUB SWAP1 REVERT JUMPDEST PUSH2 0x137D DUP4 PUSH2 0x2A5E JUMP JUMPDEST DUP1 ISZERO PUSH2 0x138E JUMPI POP PUSH2 0x138D DUP3 PUSH2 0x2A5E JUMP JUMPDEST JUMPDEST PUSH2 0x13CD JUMPI PUSH1 0x40 MLOAD PUSH32 0x8C379A000000000000000000000000000000000000000000000000000000000 DUP2 MSTORE PUSH1 0x4 ADD PUSH2 0x13C4 SWAP1 PUSH2 0x4B2E JUMP JUMPDEST PUSH1 0x40 MLOAD DUP1 SWAP2 SUB SWAP1 REVERT JUMPDEST PUSH2 0x13D7 DUP4 DUP4 PUSH2 0x2A7C JUMP JUMPDEST PUSH2 0x1416 JUMPI PUSH1 0x40 MLOAD PUSH32 0x8C379A000000000000000000000000000000000000000000000000000000000 DUP2 MSTORE PUSH1 0x4 ADD PUSH2 0x140D SWAP1 PUSH2 0x4B96 JUMP JUMPDEST PUSH1 0x40 MLOAD DUP1 SWAP2 SUB SWAP1 REVERT JUMPDEST PUSH2 0x141F DUP4 PUSH2 0x2ABB JUMP JUMPDEST PUSH2 0x1428 DUP3 PUSH2 0x2ABB JUMP JUMPDEST PUSH0 PUSH2 0x1434 DUP6 DUP6 DUP6 PUSH2 0x2B0D JUMP JUMPDEST SWAP1 POP DUP1 SWAP2 POP POP SWAP4 SWAP3 POP POP POP JUMP JUMPDEST PUSH2 0x1453 PUSH2 0x144C PUSH2 0x22BF JUMP JUMPDEST DUP4 DUP4 PUSH2 0x2B82 JUMP JUMPDEST POP POP JUMP JUMPDEST PUSH1 0x40 MLOAD DUP1 PUSH1 0x40 ADD PUSH1 0x40 MSTORE DUP1 PUSH1 0x5 DUP2 MSTORE PUSH1 0x20 ADD PUSH32 0x352E302E30000000000000000000000000000000000000000000000000000000 DUP2 MSTORE POP DUP2 JUMP JUMPDEST PUSH0 DUP1 PUSH0 DUP1 DUP5 DUP2 MSTORE PUSH1 0x20 ADD SWAP1 DUP2 MSTORE PUSH1 0x20 ADD PUSH0 KECCAK256 PUSH0 SWAP1 SLOAD SWAP1 PUSH2 0x100 EXP SWAP1 DIV PUSH1 0xFF AND SWAP2 POP PUSH0 TIMESTAMP SWAP1 POP PUSH0 PUSH1 0x3 DUP2 GT ISZERO PUSH2 0x14C8 JUMPI PUSH2 0x14C7 PUSH2 0x43CF JUMP JUMPDEST JUMPDEST DUP4 PUSH1 0x3 DUP2 GT ISZERO PUSH2 0x14DB JUMPI PUSH2 0x14DA PUSH2 0x43CF JUMP JUMPDEST JUMPDEST EQ DUP1 ISZERO PUSH2 0x14FA JUMPI POP DUP1 PUSH1 0x2 PUSH0 DUP7 DUP2 MSTORE PUSH1 0x20 ADD SWAP1 DUP2 MSTORE PUSH1 0x20 ADD PUSH0 KECCAK256 PUSH0 ADD SLOAD GT JUMPDEST ISZERO PUSH2 0x1525 JUMPI DUP1 PUSH1 0x2 PUSH0 DUP7 DUP2 MSTORE PUSH1 0x20 ADD SWAP1 DUP2 MSTORE PUSH1 0x20 ADD PUSH0 KECCAK256 PUSH0 ADD SLOAD PUSH2 0x151E SWAP2 SWAP1 PUSH2 0x4BB4 JUMP JUMPDEST SWAP2 POP PUSH2 0x1611 JUMP JUMPDEST PUSH1 0x1 PUSH1 0x3 DUP2 GT ISZERO PUSH2 0x1539 JUMPI PUSH2 0x1538 PUSH2 0x43CF JUMP JUMPDEST JUMPDEST DUP4 PUSH1 0x3 DUP2 GT ISZERO PUSH2 0x154C JUMPI PUSH2 0x154B PUSH2 0x43CF JUMP JUMPDEST JUMPDEST EQ DUP1 ISZERO PUSH2 0x156C JUMPI POP DUP1 PUSH1 0x2 PUSH0 DUP7 DUP2 MSTORE PUSH1 0x20 ADD SWAP1 DUP2 MSTORE PUSH1 0x20 ADD PUSH0 KECCAK256 PUSH1 0x1 ADD SLOAD GT JUMPDEST ISZERO PUSH2 0x1598 JUMPI DUP1 PUSH1 0x2 PUSH0 DUP7 DUP2 MSTORE PUSH1 0x20 ADD SWAP1 DUP2 MSTORE PUSH1 0x20 ADD PUSH0 KECCAK256 PUSH1 0x1 ADD SLOAD PUSH2 0x1591 SWAP2 SWAP1 PUSH2 0x4BB4 JUMP JUMPDEST SWAP2 POP PUSH2 0x1610 JUMP JUMPDEST PUSH1 0x2 PUSH1 0x3 DUP2 GT ISZERO PUSH2 0x15AC JUMPI PUSH2 0x15AB PUSH2 0x43CF JUMP JUMPDEST JUMPDEST DUP4 PUSH1 0x3 DUP2 GT ISZERO PUSH2 0x15BF JUMPI PUSH2 0x15BE PUSH2 0x43CF JUMP JUMPDEST JUMPDEST EQ DUP1 ISZERO PUSH2 0x15DF JUMPI POP DUP1 PUSH1 0x2 PUSH0 DUP7 DUP2 MSTORE PUSH1 0x20 ADD SWAP1 DUP2 MSTORE PUSH1 0x20 ADD PUSH0 KECCAK256 PUSH1 0x2 ADD SLOAD GT JUMPDEST ISZERO PUSH2 0x160B JUMPI DUP1 PUSH1 0x2 PUSH0 DUP7 DUP2 MSTORE PUSH1 0x20 ADD SWAP1 DUP2 MSTORE PUSH1 0x20 ADD PUSH0 KECCAK256 PUSH1 0x2 ADD SLOAD PUSH2 0x1604 SWAP2 SWAP1 PUSH2 0x4BB4 JUMP JUMPDEST SWAP2 POP PUSH2 0x160F JUMP JUMPDEST PUSH0 SWAP2 POP JUMPDEST JUMPDEST JUMPDEST POP SWAP2 POP SWAP2 JUMP JUMPDEST PUSH2 0x1622 DUP5 DUP5 DUP5 PUSH2 0xD6E JUMP JUMPDEST PUSH2 0x162E DUP5 DUP5 DUP5 DUP5 PUSH2 0x2CF9 JUMP JUMPDEST POP POP POP POP JUMP JUMPDEST PUSH2 0x163C PUSH2 0x22D8 JUMP JUMPDEST DUP1 PUSH1 0x8 SWAP1 DUP2 PUSH2 0x164B SWAP2 SWAP1 PUSH2 0x484B JUMP JUMPDEST POP POP JUMP JUMPDEST PUSH1 0x60 DUP1 PUSH1 0x60 DUP1 PUSH0 PUSH1 0x6 DUP1 SLOAD PUSH2 0x1663 SWAP1 PUSH2 0x467E JUMP JUMPDEST SWAP1 POP GT ISZERO PUSH2 0x16A0 JUMPI PUSH1 0x6 PUSH2 0x1676 DUP7 PUSH2 0x2EAB JUMP JUMPDEST PUSH1 0x40 MLOAD PUSH1 0x20 ADD PUSH2 0x1687 SWAP3 SWAP2 SWAP1 PUSH2 0x4CA1 JUMP JUMPDEST PUSH1 0x40 MLOAD PUSH1 0x20 DUP2 DUP4 SUB SUB DUP2 MSTORE SWAP1 PUSH1 0x40 MSTORE SWAP4 POP POP POP POP PUSH2 0x1AFB JUMP JUMPDEST PUSH0 PUSH1 0x3 DUP2 GT ISZERO PUSH2 0x16B3 JUMPI PUSH2 0x16B2 PUSH2 0x43CF JUMP JUMPDEST JUMPDEST PUSH0 DUP1 DUP8 DUP2 MSTORE PUSH1 0x20 ADD SWAP1 DUP2 MSTORE PUSH1 0x20 ADD PUSH0 KECCAK256 PUSH0 SWAP1 SLOAD SWAP1 PUSH2 0x100 EXP SWAP1 DIV PUSH1 0xFF AND PUSH1 0x3 DUP2 GT ISZERO PUSH2 0x16E2 JUMPI PUSH2 0x16E1 PUSH2 0x43CF JUMP JUMPDEST JUMPDEST SUB PUSH2 0x1720 JUMPI PUSH1 0x1 PUSH0 DUP7 DUP2 MSTORE PUSH1 0x20 ADD SWAP1 DUP2 MSTORE PUSH1 0x20 ADD PUSH0 KECCAK256 PUSH0 ADD PUSH1 0x40 MLOAD PUSH1 0x20 ADD PUSH2 0x170A SWAP2 SWAP1 PUSH2 0x4D0E JUMP JUMPDEST PUSH1 0x40 MLOAD PUSH1 0x20 DUP2 DUP4 SUB SUB DUP2 MSTORE SWAP1 PUSH1 0x40 MSTORE SWAP3 POP PUSH2 0x1992 JUMP JUMPDEST PUSH1 0x1 DUP1 PUSH0 DUP8 DUP2 MSTORE PUSH1 0x20 ADD SWAP1 DUP2 MSTORE PUSH1 0x20 ADD PUSH0 KECCAK256 PUSH1 0x1 ADD SLOAD SUB PUSH2 0x1778 JUMPI PUSH1 0x40 MLOAD DUP1 PUSH1 0x40 ADD PUSH1 0x40 MSTORE DUP1 PUSH1 0x1 DUP2 MSTORE PUSH1 0x20 ADD PUSH32 0x6D00000000000000000000000000000000000000000000000000000000000000 DUP2 MSTORE POP SWAP2 POP PUSH2 0x17CE JUMP JUMPDEST PUSH1 0x2 PUSH1 0x1 PUSH0 DUP8 DUP2 MSTORE PUSH1 0x20 ADD SWAP1 DUP2 MSTORE PUSH1 0x20 ADD PUSH0 KECCAK256 PUSH1 0x1 ADD SLOAD SUB PUSH2 0x17CD JUMPI PUSH1 0x40 MLOAD DUP1 PUSH1 0x40 ADD PUSH1 0x40 MSTORE DUP1 PUSH1 0x1 DUP2 MSTORE PUSH1 0x20 ADD PUSH32 0x6600000000000000000000000000000000000000000000000000000000000000 DUP2 MSTORE POP SWAP2 POP JUMPDEST JUMPDEST PUSH0 DUP1 PUSH0 DUP8 DUP2 MSTORE PUSH1 0x20 ADD SWAP1 DUP2 MSTORE PUSH1 0x20 ADD PUSH0 KECCAK256 PUSH0 SWAP1 SLOAD SWAP1 PUSH2 0x100 EXP SWAP1 DIV PUSH1 0xFF AND SWAP1 POP PUSH1 0x1 PUSH1 0x3 DUP2 GT ISZERO PUSH2 0x1802 JUMPI PUSH2 0x1801 PUSH2 0x43CF JUMP JUMPDEST JUMPDEST DUP2 PUSH1 0x3 DUP2 GT ISZERO PUSH2 0x1815 JUMPI PUSH2 0x1814 PUSH2 0x43CF JUMP JUMPDEST JUMPDEST SUB PUSH2 0x1857 JUMPI PUSH1 0x40 MLOAD DUP1 PUSH1 0x40 ADD PUSH1 0x40 MSTORE DUP1 PUSH1 0x5 DUP2 MSTORE PUSH1 0x20 ADD PUSH32 0x6861746368000000000000000000000000000000000000000000000000000000 DUP2 MSTORE POP SWAP2 POP PUSH2 0x1926 JUMP JUMPDEST PUSH1 0x2 PUSH1 0x3 DUP2 GT ISZERO PUSH2 0x186B JUMPI PUSH2 0x186A PUSH2 0x43CF JUMP JUMPDEST JUMPDEST DUP2 PUSH1 0x3 DUP2 GT ISZERO PUSH2 0x187E JUMPI PUSH2 0x187D PUSH2 0x43CF JUMP JUMPDEST JUMPDEST SUB PUSH2 0x18C0 JUMPI PUSH1 0x40 MLOAD DUP1 PUSH1 0x40 ADD PUSH1 0x40 MSTORE DUP1 PUSH1 0x9 DUP2 MSTORE PUSH1 0x20 ADD PUSH32 0x68617463686C696E670000000000000000000000000000000000000000000000 DUP2 MSTORE POP SWAP2 POP PUSH2 0x1925 JUMP JUMPDEST PUSH1 0x3 DUP1 DUP2 GT ISZERO PUSH2 0x18D3 JUMPI PUSH2 0x18D2 PUSH2 0x43CF JUMP JUMPDEST JUMPDEST DUP2 PUSH1 0x3 DUP2 GT ISZERO PUSH2 0x18E6 JUMPI PUSH2 0x18E5 PUSH2 0x43CF JUMP JUMPDEST JUMPDEST SUB PUSH2 0x1924 JUMPI PUSH1 0x40 MLOAD DUP1 PUSH1 0x40 ADD PUSH1 0x40 MSTORE DUP1 PUSH1 0x5 DUP2 MSTORE PUSH1 0x20 ADD PUSH32 0x6164756C74000000000000000000000000000000000000000000000000000000 DUP2 MSTORE POP SWAP2 POP JUMPDEST JUMPDEST JUMPDEST PUSH1 0x1 PUSH0 DUP8 DUP2 MSTORE PUSH1 0x20 ADD SWAP1 DUP2 MSTORE PUSH1 0x20 ADD PUSH0 KECCAK256 PUSH0 ADD PUSH2 0x1956 PUSH1 0x1 PUSH0 DUP10 DUP2 MSTORE PUSH1 0x20 ADD SWAP1 DUP2 MSTORE PUSH1 0x20 ADD PUSH0 KECCAK256 PUSH1 0x4 ADD SLOAD PUSH2 0x2EAB JUMP JUMPDEST PUSH1 0x1 PUSH0 DUP10 DUP2 MSTORE PUSH1 0x20 ADD SWAP1 DUP2 MSTORE PUSH1 0x20 ADD PUSH0 KECCAK256 PUSH1 0x1 ADD SLOAD DUP5 PUSH1 0x40 MLOAD PUSH1 0x20 ADD PUSH2 0x197F SWAP5 SWAP4 SWAP3 SWAP2 SWAP1 PUSH2 0x4D99 JUMP JUMPDEST PUSH1 0x40 MLOAD PUSH1 0x20 DUP2 DUP4 SUB SUB DUP2 MSTORE SWAP1 PUSH1 0x40 MSTORE SWAP4 POP POP JUMPDEST PUSH0 PUSH2 0x199C DUP7 PUSH2 0x2EAB JUMP JUMPDEST PUSH1 0x40 MLOAD PUSH1 0x20 ADD PUSH2 0x19AC SWAP2 SWAP1 PUSH2 0x4E21 JUMP JUMPDEST PUSH1 0x40 MLOAD PUSH1 0x20 DUP2 DUP4 SUB SUB DUP2 MSTORE SWAP1 PUSH1 0x40 MSTORE PUSH1 0x8 PUSH1 0x40 MLOAD PUSH1 0x20 ADD PUSH2 0x19CE SWAP3 SWAP2 SWAP1 PUSH2 0x4EDC JUMP JUMPDEST PUSH1 0x40 MLOAD PUSH1 0x20 DUP2 DUP4 SUB SUB DUP2 MSTORE SWAP1 PUSH1 0x40 MSTORE PUSH1 0x7 DUP6 PUSH1 0x40 MLOAD PUSH1 0x20 ADD PUSH2 0x19F1 SWAP3 SWAP2 SWAP1 PUSH2 0x4CA1 JUMP JUMPDEST PUSH1 0x40 MLOAD PUSH1 0x20 DUP2 DUP4 SUB SUB DUP2 MSTORE SWAP1 PUSH1 0x40 MSTORE PUSH1 0x40 MLOAD PUSH1 0x20 ADD PUSH2 0x1A11 SWAP3 SWAP2 SWAP1 PUSH2 0x4F0A JUMP JUMPDEST PUSH1 0x40 MLOAD PUSH1 0x20 DUP2 DUP4 SUB SUB DUP2 MSTORE SWAP1 PUSH1 0x40 MSTORE SWAP1 POP PUSH0 PUSH1 0x1 PUSH0 DUP9 DUP2 MSTORE PUSH1 0x20 ADD SWAP1 DUP2 MSTORE PUSH1 0x20 ADD PUSH0 KECCAK256 PUSH0 ADD PUSH1 0x40 MLOAD PUSH1 0x20 ADD PUSH2 0x1A46 SWAP2 SWAP1 PUSH2 0x4F9D JUMP JUMPDEST PUSH1 0x40 MLOAD PUSH1 0x20 DUP2 DUP4 SUB SUB DUP2 MSTORE SWAP1 PUSH1 0x40 MSTORE SWAP1 POP PUSH0 PUSH1 0x40 MLOAD DUP1 PUSH1 0x40 ADD PUSH1 0x40 MSTORE DUP1 PUSH1 0x4 DUP2 MSTORE PUSH1 0x20 ADD PUSH32 0x227D5D7D00000000000000000000000000000000000000000000000000000000 DUP2 MSTORE POP SWAP1 POP DUP3 DUP3 PUSH1 0x40 MLOAD PUSH1 0x20 ADD PUSH2 0x1AA3 SWAP3 SWAP2 SWAP1 PUSH2 0x4F0A JUMP JUMPDEST PUSH1 0x40 MLOAD PUSH1 0x20 DUP2 DUP4 SUB SUB DUP2 MSTORE SWAP1 PUSH1 0x40 MSTORE DUP2 PUSH1 0x40 MLOAD PUSH1 0x20 ADD PUSH2 0x1AC4 SWAP3 SWAP2 SWAP1 PUSH2 0x4F0A JUMP JUMPDEST PUSH1 0x40 MLOAD PUSH1 0x20 DUP2 DUP4 SUB SUB DUP2 MSTORE SWAP1 PUSH1 0x40 MSTORE PUSH1 0x40 MLOAD PUSH1 0x20 ADD PUSH2 0x1AE3 SWAP2 SWAP1 PUSH2 0x4FE4 JUMP JUMPDEST PUSH1 0x40 MLOAD PUSH1 0x20 DUP2 DUP4 SUB SUB DUP2 MSTORE SWAP1 PUSH1 0x40 MSTORE SWAP7 POP POP POP POP POP POP POP JUMPDEST SWAP2 SWAP1 POP JUMP JUMPDEST PUSH1 0xA DUP1 SLOAD LT PUSH2 0x1B44 JUMPI PUSH1 0x40 MLOAD PUSH32 0x8C379A000000000000000000000000000000000000000000000000000000000 DUP2 MSTORE PUSH1 0x4 ADD PUSH2 0x1B3B SWAP1 PUSH2 0x5053 JUMP JUMPDEST PUSH1 0x40 MLOAD DUP1 SWAP2 SUB SWAP1 REVERT JUMPDEST PUSH1 0xA PUSH0 DUP2 SLOAD DUP1 SWAP3 SWAP2 SWAP1 PUSH2 0x1B56 SWAP1 PUSH2 0x5071 JUMP JUMPDEST SWAP2 SWAP1 POP SSTORE POP PUSH2 0x1B69 DUP2 PUSH0 DUP1 PUSH1 0x1 DUP7 PUSH2 0x2F75 JUMP JUMPDEST POP POP POP JUMP JUMPDEST PUSH1 0x6 DUP1 SLOAD PUSH2 0x1B7B SWAP1 PUSH2 0x467E JUMP JUMPDEST DUP1 PUSH1 0x1F ADD PUSH1 0x20 DUP1 SWAP2 DIV MUL PUSH1 0x20 ADD PUSH1 0x40 MLOAD SWAP1 DUP2 ADD PUSH1 0x40 MSTORE DUP1 SWAP3 SWAP2 SWAP1 DUP2 DUP2 MSTORE PUSH1 0x20 ADD DUP3 DUP1 SLOAD PUSH2 0x1BA7 SWAP1 PUSH2 0x467E JUMP JUMPDEST DUP1 ISZERO PUSH2 0x1BF2 JUMPI DUP1 PUSH1 0x1F LT PUSH2 0x1BC9 JUMPI PUSH2 0x100 DUP1 DUP4 SLOAD DIV MUL DUP4 MSTORE SWAP2 PUSH1 0x20 ADD SWAP2 PUSH2 0x1BF2 JUMP JUMPDEST DUP3 ADD SWAP2 SWAP1 PUSH0 MSTORE PUSH1 0x20 PUSH0 KECCAK256 SWAP1 JUMPDEST DUP2 SLOAD DUP2 MSTORE SWAP1 PUSH1 0x1 ADD SWAP1 PUSH1 0x20 ADD DUP1 DUP4 GT PUSH2 0x1BD5 JUMPI DUP3 SWAP1 SUB PUSH1 0x1F AND DUP3 ADD SWAP2 JUMPDEST POP POP POP POP POP DUP2 JUMP JUMPDEST PUSH2 0x1C02 PUSH2 0x22D8 JUMP JUMPDEST DUP1 PUSH1 0x6 SWAP1 DUP2 PUSH2 0x1C11 SWAP2 SWAP1 PUSH2 0x484B JUMP JUMPDEST POP POP JUMP JUMPDEST PUSH0 DUP1 PUSH2 0x1C1F PUSH2 0x21CB JUMP JUMPDEST SWAP1 POP DUP1 PUSH1 0x5 ADD PUSH0 DUP6 PUSH20 0xFFFFFFFFFFFFFFFFFFFFFFFFFFFFFFFFFFFFFFFF AND PUSH20 0xFFFFFFFFFFFFFFFFFFFFFFFFFFFFFFFFFFFFFFFF AND DUP2 MSTORE PUSH1 0x20 ADD SWAP1 DUP2 MSTORE PUSH1 0x20 ADD PUSH0 KECCAK256 PUSH0 DUP5 PUSH20 0xFFFFFFFFFFFFFFFFFFFFFFFFFFFFFFFFFFFFFFFF AND PUSH20 0xFFFFFFFFFFFFFFFFFFFFFFFFFFFFFFFFFFFFFFFF AND DUP2 MSTORE PUSH1 0x20 ADD SWAP1 DUP2 MSTORE PUSH1 0x20 ADD PUSH0 KECCAK256 PUSH0 SWAP1 SLOAD SWAP1 PUSH2 0x100 EXP SWAP1 DIV PUSH1 0xFF AND SWAP2 POP POP SWAP3 SWAP2 POP POP JUMP JUMPDEST PUSH1 0x8 DUP1 SLOAD PUSH2 0x1CBE SWAP1 PUSH2 0x467E JUMP JUMPDEST DUP1 PUSH1 0x1F ADD PUSH1 0x20 DUP1 SWAP2 DIV MUL PUSH1 0x20 ADD PUSH1 0x40 MLOAD SWAP1 DUP2 ADD PUSH1 0x40 MSTORE DUP1 SWAP3 SWAP2 SWAP1 DUP2 DUP2 MSTORE PUSH1 0x20 ADD DUP3 DUP1 SLOAD PUSH2 0x1CEA SWAP1 PUSH2 0x467E JUMP JUMPDEST DUP1 ISZERO PUSH2 0x1D35 JUMPI DUP1 PUSH1 0x1F LT PUSH2 0x1D0C JUMPI PUSH2 0x100 DUP1 DUP4 SLOAD DIV MUL DUP4 MSTORE SWAP2 PUSH1 0x20 ADD SWAP2 PUSH2 0x1D35 JUMP JUMPDEST DUP3 ADD SWAP2 SWAP1 PUSH0 MSTORE PUSH1 0x20 PUSH0 KECCAK256 SWAP1 JUMPDEST DUP2 SLOAD DUP2 MSTORE SWAP1 PUSH1 0x1 ADD SWAP1 PUSH1 0x20 ADD DUP1 DUP4 GT PUSH2 0x1D18 JUMPI DUP3 SWAP1 SUB PUSH1 0x1F AND DUP3 ADD SWAP2 JUMPDEST POP POP POP POP POP DUP2 JUMP JUMPDEST CALLER PUSH20 0xFFFFFFFFFFFFFFFFFFFFFFFFFFFFFFFFFFFFFFFF AND PUSH2 0x1D5D DUP3 PUSH2 0xEE1 JUMP JUMPDEST PUSH20 0xFFFFFFFFFFFFFFFFFFFFFFFFFFFFFFFFFFFFFFFF AND EQ PUSH2 0x1DB3 JUMPI PUSH1 0x40 MLOAD PUSH32 0x8C379A000000000000000000000000000000000000000000000000000000000 DUP2 MSTORE PUSH1 0x4 ADD PUSH2 0x1DAA SWAP1 PUSH2 0x4633 JUMP JUMPDEST PUSH1 0x40 MLOAD DUP1 SWAP2 SUB SWAP1 REVERT JUMPDEST PUSH0 DUP1 PUSH0 DUP4 DUP2 MSTORE PUSH1 0x20 ADD SWAP1 DUP2 MSTORE PUSH1 0x20 ADD PUSH0 KECCAK256 PUSH0 SWAP1 SLOAD SWAP1 PUSH2 0x100 EXP SWAP1 DIV PUSH1 0xFF AND SWAP1 POP PUSH0 PUSH1 0x3 DUP2 GT ISZERO PUSH2 0x1DE6 JUMPI PUSH2 0x1DE5 PUSH2 0x43CF JUMP JUMPDEST JUMPDEST DUP2 PUSH1 0x3 DUP2 GT ISZERO PUSH2 0x1DF9 JUMPI PUSH2 0x1DF8 PUSH2 0x43CF JUMP JUMPDEST JUMPDEST EQ DUP1 ISZERO PUSH2 0x1E19 JUMPI POP PUSH1 0x2 PUSH0 DUP4 DUP2 MSTORE PUSH1 0x20 ADD SWAP1 DUP2 MSTORE PUSH1 0x20 ADD PUSH0 KECCAK256 PUSH0 ADD SLOAD TIMESTAMP LT ISZERO JUMPDEST ISZERO PUSH2 0x1EA2 JUMPI PUSH1 0x1 PUSH0 DUP1 DUP5 DUP2 MSTORE PUSH1 0x20 ADD SWAP1 DUP2 MSTORE PUSH1 0x20 ADD PUSH0 KECCAK256 PUSH0 PUSH2 0x100 EXP DUP2 SLOAD DUP2 PUSH1 0xFF MUL NOT AND SWAP1 DUP4 PUSH1 0x3 DUP2 GT ISZERO PUSH2 0x1E51 JUMPI PUSH2 0x1E50 PUSH2 0x43CF JUMP JUMPDEST JUMPDEST MUL OR SWAP1 SSTORE POP PUSH2 0x1E5E PUSH2 0x235F JUMP JUMPDEST PUSH1 0x1 PUSH0 DUP5 DUP2 MSTORE PUSH1 0x20 ADD SWAP1 DUP2 MSTORE PUSH1 0x20 ADD PUSH0 KECCAK256 PUSH1 0x1 ADD DUP2 SWAP1 SSTORE POP PUSH3 0x2A300 TIMESTAMP PUSH2 0x1E85 SWAP2 SWAP1 PUSH2 0x4947 JUMP JUMPDEST PUSH1 0x2 PUSH0 DUP5 DUP2 MSTORE PUSH1 0x20 ADD SWAP1 DUP2 MSTORE PUSH1 0x20 ADD PUSH0 KECCAK256 PUSH1 0x1 ADD DUP2 SWAP1 SSTORE POP PUSH2 0x2020 JUMP JUMPDEST PUSH1 0x1 PUSH1 0x3 DUP2 GT ISZERO PUSH2 0x1EB6 JUMPI PUSH2 0x1EB5 PUSH2 0x43CF JUMP JUMPDEST JUMPDEST DUP2 PUSH1 0x3 DUP2 GT ISZERO PUSH2 0x1EC9 JUMPI PUSH2 0x1EC8 PUSH2 0x43CF JUMP JUMPDEST JUMPDEST EQ DUP1 ISZERO PUSH2 0x1EEA JUMPI POP PUSH1 0x2 PUSH0 DUP4 DUP2 MSTORE PUSH1 0x20 ADD SWAP1 DUP2 MSTORE PUSH1 0x20 ADD PUSH0 KECCAK256 PUSH1 0x1 ADD SLOAD TIMESTAMP LT ISZERO JUMPDEST ISZERO PUSH2 0x1F53 JUMPI PUSH1 0x2 PUSH0 DUP1 DUP5 DUP2 MSTORE PUSH1 0x20 ADD SWAP1 DUP2 MSTORE PUSH1 0x20 ADD PUSH0 KECCAK256 PUSH0 PUSH2 0x100 EXP DUP2 SLOAD DUP2 PUSH1 0xFF MUL NOT AND SWAP1 DUP4 PUSH1 0x3 DUP2 GT ISZERO PUSH2 0x1F22 JUMPI PUSH2 0x1F21 PUSH2 0x43CF JUMP JUMPDEST JUMPDEST MUL OR SWAP1 SSTORE POP PUSH3 0x3F480 TIMESTAMP PUSH2 0x1F36 SWAP2 SWAP1 PUSH2 0x4947 JUMP JUMPDEST PUSH1 0x2 PUSH0 DUP5 DUP2 MSTORE PUSH1 0x20 ADD SWAP1 DUP2 MSTORE PUSH1 0x20 ADD PUSH0 KECCAK256 PUSH1 0x2 ADD DUP2 SWAP1 SSTORE POP PUSH2 0x201F JUMP JUMPDEST PUSH1 0x2 PUSH1 0x3 DUP2 GT ISZERO PUSH2 0x1F67 JUMPI PUSH2 0x1F66 PUSH2 0x43CF JUMP JUMPDEST JUMPDEST DUP2 PUSH1 0x3 DUP2 GT ISZERO PUSH2 0x1F7A JUMPI PUSH2 0x1F79 PUSH2 0x43CF JUMP JUMPDEST JUMPDEST EQ DUP1 ISZERO PUSH2 0x1F9B JUMPI POP PUSH1 0x2 PUSH0 DUP4 DUP2 MSTORE PUSH1 0x20 ADD SWAP1 DUP2 MSTORE PUSH1 0x20 ADD PUSH0 KECCAK256 PUSH1 0x2 ADD SLOAD TIMESTAMP LT ISZERO JUMPDEST ISZERO PUSH2 0x1FDD JUMPI PUSH1 0x3 PUSH0 DUP1 DUP5 DUP2 MSTORE PUSH1 0x20 ADD SWAP1 DUP2 MSTORE PUSH1 0x20 ADD PUSH0 KECCAK256 PUSH0 PUSH2 0x100 EXP DUP2 SLOAD DUP2 PUSH1 0xFF MUL NOT AND SWAP1 DUP4 PUSH1 0x3 DUP2 GT ISZERO PUSH2 0x1FD3 JUMPI PUSH2 0x1FD2 PUSH2 0x43CF JUMP JUMPDEST JUMPDEST MUL OR SWAP1 SSTORE POP PUSH2 0x201E JUMP JUMPDEST PUSH0 PUSH2 0x201D JUMPI PUSH1 0x40 MLOAD PUSH32 0x8C379A000000000000000000000000000000000000000000000000000000000 DUP2 MSTORE PUSH1 0x4 ADD PUSH2 0x2014 SWAP1 PUSH2 0x49C4 JUMP JUMPDEST PUSH1 0x40 MLOAD DUP1 SWAP2 SUB SWAP1 REVERT JUMPDEST JUMPDEST JUMPDEST JUMPDEST POP POP JUMP JUMPDEST PUSH1 0x7 DUP1 SLOAD PUSH2 0x2031 SWAP1 PUSH2 0x467E JUMP JUMPDEST DUP1 PUSH1 0x1F ADD PUSH1 0x20 DUP1 SWAP2 DIV MUL PUSH1 0x20 ADD PUSH1 0x40 MLOAD SWAP1 DUP2 ADD PUSH1 0x40 MSTORE DUP1 SWAP3 SWAP2 SWAP1 DUP2 DUP2 MSTORE PUSH1 0x20 ADD DUP3 DUP1 SLOAD PUSH2 0x205D SWAP1 PUSH2 0x467E JUMP JUMPDEST DUP1 ISZERO PUSH2 0x20A8 JUMPI DUP1 PUSH1 0x1F LT PUSH2 0x207F JUMPI PUSH2 0x100 DUP1 DUP4 SLOAD DIV MUL DUP4 MSTORE SWAP2 PUSH1 0x20 ADD SWAP2 PUSH2 0x20A8 JUMP JUMPDEST DUP3 ADD SWAP2 SWAP1 PUSH0 MSTORE PUSH1 0x20 PUSH0 KECCAK256 SWAP1 JUMPDEST DUP2 SLOAD DUP2 MSTORE SWAP1 PUSH1 0x1 ADD SWAP1 PUSH1 0x20 ADD DUP1 DUP4 GT PUSH2 0x208B JUMPI DUP3 SWAP1 SUB PUSH1 0x1F AND DUP3 ADD SWAP2 JUMPDEST POP POP POP POP POP DUP2 JUMP JUMPDEST PUSH2 0x20B8 PUSH2 0x22D8 JUMP JUMPDEST PUSH0 PUSH20 0xFFFFFFFFFFFFFFFFFFFFFFFFFFFFFFFFFFFFFFFF AND DUP2 PUSH20 0xFFFFFFFFFFFFFFFFFFFFFFFFFFFFFFFFFFFFFFFF AND SUB PUSH2 0x2128 JUMPI PUSH0 PUSH1 0x40 MLOAD PUSH32 0x1E4FBDF700000000000000000000000000000000000000000000000000000000 DUP2 MSTORE PUSH1 0x4 ADD PUSH2 0x211F SWAP2 SWAP1 PUSH2 0x3E8C JUMP JUMPDEST PUSH1 0x40 MLOAD DUP1 SWAP2 SUB SWAP1 REVERT JUMPDEST PUSH2 0x2131 DUP2 PUSH2 0x2876 JUMP JUMPDEST POP JUMP JUMPDEST PUSH1 0xA SLOAD DUP2 JUMP JUMPDEST PUSH0 DUP2 DUP5 DUP5 PUSH2 0x2148 SWAP2 SWAP1 PUSH2 0x4BB4 JUMP JUMPDEST LT PUSH2 0x2160 JUMPI DUP2 DUP4 PUSH2 0x2159 SWAP2 SWAP1 PUSH2 0x4BB4 JUMP JUMPDEST SWAP1 POP PUSH2 0x2164 JUMP JUMPDEST PUSH0 SWAP1 POP JUMPDEST SWAP4 SWAP3 POP POP POP JUMP JUMPDEST PUSH0 PUSH4 0x49064906 PUSH1 0xE0 SHL PUSH28 0xFFFFFFFFFFFFFFFFFFFFFFFFFFFFFFFFFFFFFFFFFFFFFFFFFFFFFFFF NOT AND DUP3 PUSH28 0xFFFFFFFFFFFFFFFFFFFFFFFFFFFFFFFFFFFFFFFFFFFFFFFFFFFFFFFF NOT AND EQ DUP1 PUSH2 0x21C4 JUMPI POP PUSH2 0x21C3 DUP3 PUSH2 0x30FD JUMP JUMPDEST JUMPDEST SWAP1 POP SWAP2 SWAP1 POP JUMP JUMPDEST PUSH0 PUSH32 0x80BB2B638CC20BC4D0A60D66940F3AB4A00C1D7B313497CA82FB0B4AB0079300 SWAP1 POP SWAP1 JUMP JUMPDEST PUSH0 DUP1 PUSH2 0x21FD DUP4 PUSH2 0x31DE JUMP JUMPDEST SWAP1 POP PUSH0 PUSH20 0xFFFFFFFFFFFFFFFFFFFFFFFFFFFFFFFFFFFFFFFF AND DUP2 PUSH20 0xFFFFFFFFFFFFFFFFFFFFFFFFFFFFFFFFFFFFFFFF AND SUB PUSH2 0x226F JUMPI DUP3 PUSH1 0x40 MLOAD PUSH32 0x7E27328900000000000000000000000000000000000000000000000000000000 DUP2 MSTORE PUSH1 0x4 ADD PUSH2 0x2266 SWAP2 SWAP1 PUSH2 0x40DF JUMP JUMPDEST PUSH1 0x40 MLOAD DUP1 SWAP2 SUB SWAP1 REVERT JUMPDEST DUP1 SWAP2 POP POP SWAP2 SWAP1 POP JUMP JUMPDEST PUSH0 DUP1 PUSH2 0x2282 PUSH2 0x21CB JUMP JUMPDEST SWAP1 POP DUP1 PUSH1 0x4 ADD PUSH0 DUP5 DUP2 MSTORE PUSH1 0x20 ADD SWAP1 DUP2 MSTORE PUSH1 0x20 ADD PUSH0 KECCAK256 PUSH0 SWAP1 SLOAD SWAP1 PUSH2 0x100 EXP SWAP1 DIV PUSH20 0xFFFFFFFFFFFFFFFFFFFFFFFFFFFFFFFFFFFFFFFF AND SWAP2 POP POP SWAP2 SWAP1 POP JUMP JUMPDEST PUSH0 CALLER SWAP1 POP SWAP1 JUMP JUMPDEST PUSH2 0x22D3 DUP4 DUP4 DUP4 PUSH1 0x1 PUSH2 0x3225 JUMP JUMPDEST POP POP POP JUMP JUMPDEST PUSH2 0x22E0 PUSH2 0x22BF JUMP JUMPDEST PUSH20 0xFFFFFFFFFFFFFFFFFFFFFFFFFFFFFFFFFFFFFFFF AND PUSH2 0x22FE PUSH2 0xFFD JUMP JUMPDEST PUSH20 0xFFFFFFFFFFFFFFFFFFFFFFFFFFFFFFFFFFFFFFFF AND EQ PUSH2 0x235D JUMPI PUSH2 0x2321 PUSH2 0x22BF JUMP JUMPDEST PUSH1 0x40 MLOAD PUSH32 0x118CDAA700000000000000000000000000000000000000000000000000000000 DUP2 MSTORE PUSH1 0x4 ADD PUSH2 0x2354 SWAP2 SWAP1 PUSH2 0x3E8C JUMP JUMPDEST PUSH1 0x40 MLOAD DUP1 SWAP2 SUB SWAP1 REVERT JUMPDEST JUMP JUMPDEST PUSH0 PUSH1 0x5 PUSH0 DUP2 SLOAD DUP1 SWAP3 SWAP2 SWAP1 PUSH2 0x2372 SWAP1 PUSH2 0x5071 JUMP JUMPDEST SWAP2 SWAP1 POP SSTORE POP PUSH1 0x1 PUSH1 0x2 TIMESTAMP CALLER PUSH1 0x5 SLOAD PUSH1 0x40 MLOAD PUSH1 0x20 ADD PUSH2 0x2392 SWAP4 SWAP3 SWAP2 SWAP1 PUSH2 0x50FD JUMP JUMPDEST PUSH1 0x40 MLOAD PUSH1 0x20 DUP2 DUP4 SUB SUB DUP2 MSTORE SWAP1 PUSH1 0x40 MSTORE DUP1 MLOAD SWAP1 PUSH1 0x20 ADD KECCAK256 PUSH0 SHR PUSH2 0x23B4 SWAP2 SWAP1 PUSH2 0x5166 JUMP JUMPDEST PUSH2 0x23BE SWAP2 SWAP1 PUSH2 0x4947 JUMP JUMPDEST SWAP1 POP SWAP1 JUMP JUMPDEST PUSH0 DUP1 PUSH2 0x23CD PUSH2 0x21CB JUMP JUMPDEST SWAP1 POP PUSH0 PUSH2 0x23D9 DUP6 PUSH2 0x31DE JUMP JUMPDEST SWAP1 POP PUSH0 PUSH20 0xFFFFFFFFFFFFFFFFFFFFFFFFFFFFFFFFFFFFFFFF AND DUP5 PUSH20 0xFFFFFFFFFFFFFFFFFFFFFFFFFFFFFFFFFFFFFFFF AND EQ PUSH2 0x241A JUMPI PUSH2 0x2419 DUP2 DUP6 DUP8 PUSH2 0x33F2 JUMP JUMPDEST JUMPDEST PUSH0 PUSH20 0xFFFFFFFFFFFFFFFFFFFFFFFFFFFFFFFFFFFFFFFF AND DUP2 PUSH20 0xFFFFFFFFFFFFFFFFFFFFFFFFFFFFFFFFFFFFFFFF AND EQ PUSH2 0x24A7 JUMPI PUSH2 0x2459 PUSH0 DUP7 PUSH0 DUP1 PUSH2 0x3225 JUMP JUMPDEST PUSH1 0x1 DUP3 PUSH1 0x3 ADD PUSH0 DUP4 PUSH20 0xFFFFFFFFFFFFFFFFFFFFFFFFFFFFFFFFFFFFFFFF AND PUSH20 0xFFFFFFFFFFFFFFFFFFFFFFFFFFFFFFFFFFFFFFFF AND DUP2 MSTORE PUSH1 0x20 ADD SWAP1 DUP2 MSTORE PUSH1 0x20 ADD PUSH0 KECCAK256 PUSH0 DUP3 DUP3 SLOAD SUB SWAP3 POP POP DUP2 SWAP1 SSTORE POP JUMPDEST PUSH0 PUSH20 0xFFFFFFFFFFFFFFFFFFFFFFFFFFFFFFFFFFFFFFFF AND DUP7 PUSH20 0xFFFFFFFFFFFFFFFFFFFFFFFFFFFFFFFFFFFFFFFF AND EQ PUSH2 0x2528 JUMPI PUSH1 0x1 DUP3 PUSH1 0x3 ADD PUSH0 DUP9 PUSH20 0xFFFFFFFFFFFFFFFFFFFFFFFFFFFFFFFFFFFFFFFF AND PUSH20 0xFFFFFFFFFFFFFFFFFFFFFFFFFFFFFFFFFFFFFFFF AND DUP2 MSTORE PUSH1 0x20 ADD SWAP1 DUP2 MSTORE PUSH1 0x20 ADD PUSH0 KECCAK256 PUSH0 DUP3 DUP3 SLOAD ADD SWAP3 POP POP DUP2 SWAP1 SSTORE POP JUMPDEST DUP6 DUP3 PUSH1 0x2 ADD PUSH0 DUP8 DUP2 MSTORE PUSH1 0x20 ADD SWAP1 DUP2 MSTORE PUSH1 0x20 ADD PUSH0 KECCAK256 PUSH0 PUSH2 0x100 EXP DUP2 SLOAD DUP2 PUSH20 0xFFFFFFFFFFFFFFFFFFFFFFFFFFFFFFFFFFFFFFFF MUL NOT AND SWAP1 DUP4 PUSH20 0xFFFFFFFFFFFFFFFFFFFFFFFFFFFFFFFFFFFFFFFF AND MUL OR SWAP1 SSTORE POP DUP5 DUP7 PUSH20 0xFFFFFFFFFFFFFFFFFFFFFFFFFFFFFFFFFFFFFFFF AND DUP3 PUSH20 0xFFFFFFFFFFFFFFFFFFFFFFFFFFFFFFFFFFFFFFFF AND PUSH32 0xDDF252AD1BE2C89B69C2B068FC378DAA952BA7F163C4A11628F55A4DF523B3EF PUSH1 0x40 MLOAD PUSH1 0x40 MLOAD DUP1 SWAP2 SUB SWAP1 LOG4 DUP1 SWAP3 POP POP POP SWAP4 SWAP3 POP POP POP JUMP JUMPDEST PUSH32 0x0 PUSH20 0xFFFFFFFFFFFFFFFFFFFFFFFFFFFFFFFFFFFFFFFF AND ADDRESS PUSH20 0xFFFFFFFFFFFFFFFFFFFFFFFFFFFFFFFFFFFFFFFF AND EQ DUP1 PUSH2 0x268D JUMPI POP PUSH32 0x0 PUSH20 0xFFFFFFFFFFFFFFFFFFFFFFFFFFFFFFFFFFFFFFFF AND PUSH2 0x2674 PUSH2 0x34B5 JUMP JUMPDEST PUSH20 0xFFFFFFFFFFFFFFFFFFFFFFFFFFFFFFFFFFFFFFFF AND EQ ISZERO JUMPDEST ISZERO PUSH2 0x26C4 JUMPI PUSH1 0x40 MLOAD PUSH32 0xE07C8DBA00000000000000000000000000000000000000000000000000000000 DUP2 MSTORE PUSH1 0x4 ADD PUSH1 0x40 MLOAD DUP1 SWAP2 SUB SWAP1 REVERT JUMPDEST JUMP JUMPDEST PUSH2 0x26CE PUSH2 0x22D8 JUMP JUMPDEST POP JUMP JUMPDEST DUP2 PUSH20 0xFFFFFFFFFFFFFFFFFFFFFFFFFFFFFFFFFFFFFFFF AND PUSH4 0x52D1902D PUSH1 0x40 MLOAD DUP2 PUSH4 0xFFFFFFFF AND PUSH1 0xE0 SHL DUP2 MSTORE PUSH1 0x4 ADD PUSH1 0x20 PUSH1 0x40 MLOAD DUP1 DUP4 SUB DUP2 DUP7 GAS STATICCALL SWAP3 POP POP POP DUP1 ISZERO PUSH2 0x2739 JUMPI POP PUSH1 0x40 MLOAD RETURNDATASIZE PUSH1 0x1F NOT PUSH1 0x1F DUP3 ADD AND DUP3 ADD DUP1 PUSH1 0x40 MSTORE POP DUP2 ADD SWAP1 PUSH2 0x2736 SWAP2 SWAP1 PUSH2 0x51C0 JUMP JUMPDEST PUSH1 0x1 JUMPDEST PUSH2 0x277A JUMPI DUP2 PUSH1 0x40 MLOAD PUSH32 0x4C9C8CE300000000000000000000000000000000000000000000000000000000 DUP2 MSTORE PUSH1 0x4 ADD PUSH2 0x2771 SWAP2 SWAP1 PUSH2 0x3E8C JUMP JUMPDEST PUSH1 0x40 MLOAD DUP1 SWAP2 SUB SWAP1 REVERT JUMPDEST PUSH32 0x360894A13BA1A3210667C828492DB98DCA3E2076CC3735A920A3CA505D382BBC PUSH0 SHL DUP2 EQ PUSH2 0x27E0 JUMPI DUP1 PUSH1 0x40 MLOAD PUSH32 0xAA1D49A400000000000000000000000000000000000000000000000000000000 DUP2 MSTORE PUSH1 0x4 ADD PUSH2 0x27D7 SWAP2 SWAP1 PUSH2 0x4208 JUMP JUMPDEST PUSH1 0x40 MLOAD DUP1 SWAP2 SUB SWAP1 REVERT JUMPDEST PUSH2 0x27EA DUP4 DUP4 PUSH2 0x3508 JUMP JUMPDEST POP POP POP JUMP JUMPDEST PUSH32 0x0 PUSH20 0xFFFFFFFFFFFFFFFFFFFFFFFFFFFFFFFFFFFFFFFF AND ADDRESS PUSH20 0xFFFFFFFFFFFFFFFFFFFFFFFFFFFFFFFFFFFFFFFF AND EQ PUSH2 0x2874 JUMPI PUSH1 0x40 MLOAD PUSH32 0xE07C8DBA00000000000000000000000000000000000000000000000000000000 DUP2 MSTORE PUSH1 0x4 ADD PUSH1 0x40 MLOAD DUP1 SWAP2 SUB SWAP1 REVERT JUMPDEST JUMP JUMPDEST PUSH0 PUSH2 0x287F PUSH2 0x2947 JUMP JUMPDEST SWAP1 POP PUSH0 DUP2 PUSH0 ADD PUSH0 SWAP1 SLOAD SWAP1 PUSH2 0x100 EXP SWAP1 DIV PUSH20 0xFFFFFFFFFFFFFFFFFFFFFFFFFFFFFFFFFFFFFFFF AND SWAP1 POP DUP3 DUP3 PUSH0 ADD PUSH0 PUSH2 0x100 EXP DUP2 SLOAD DUP2 PUSH20 0xFFFFFFFFFFFFFFFFFFFFFFFFFFFFFFFFFFFFFFFF MUL NOT AND SWAP1 DUP4 PUSH20 0xFFFFFFFFFFFFFFFFFFFFFFFFFFFFFFFFFFFFFFFF AND MUL OR SWAP1 SSTORE POP DUP3 PUSH20 0xFFFFFFFFFFFFFFFFFFFFFFFFFFFFFFFFFFFFFFFF AND DUP2 PUSH20 0xFFFFFFFFFFFFFFFFFFFFFFFFFFFFFFFFFFFFFFFF AND PUSH32 0x8BE0079C531659141344CD1FD0A4F28419497F9722A3DAAFE3B4186F6B6457E0 PUSH1 0x40 MLOAD PUSH1 0x40 MLOAD DUP1 SWAP2 SUB SWAP1 LOG3 POP POP POP JUMP JUMPDEST PUSH0 PUSH32 0x9016D09D72D40FDAE2FD8CEAC6B6234C7706214FD39C1CD1E609A0528C199300 SWAP1 POP SWAP1 JUMP JUMPDEST PUSH0 PUSH32 0xF0C57E16840DF040F15088DC2F81FE391C3923BEC73E23A9662EFC9C229C6A00 SWAP1 POP SWAP1 JUMP JUMPDEST PUSH2 0x299D PUSH2 0x357A JUMP JUMPDEST PUSH2 0x29A7 DUP3 DUP3 PUSH2 0x35BA JUMP JUMPDEST POP POP JUMP JUMPDEST PUSH2 0x29B3 PUSH2 0x357A JUMP JUMPDEST JUMP JUMPDEST PUSH2 0x29BD PUSH2 0x357A JUMP JUMPDEST PUSH2 0x29C6 DUP2 PUSH2 0x35F5 JUMP JUMPDEST POP JUMP JUMPDEST PUSH2 0x29D1 PUSH2 0x357A JUMP JUMPDEST JUMP JUMPDEST PUSH0 DUP1 PUSH1 0x1 PUSH0 DUP6 DUP2 MSTORE PUSH1 0x20 ADD SWAP1 DUP2 MSTORE PUSH1 0x20 ADD PUSH0 KECCAK256 SWAP1 POP PUSH0 PUSH1 0x1 PUSH0 DUP6 DUP2 MSTORE PUSH1 0x20 ADD SWAP1 DUP2 MSTORE PUSH1 0x20 ADD PUSH0 KECCAK256 SWAP1 POP PUSH1 0x1 DUP3 PUSH1 0x4 ADD SLOAD EQ DUP1 PUSH2 0x2A13 JUMPI POP PUSH1 0x1 DUP2 PUSH1 0x4 ADD SLOAD EQ JUMPDEST ISZERO PUSH2 0x2A22 JUMPI PUSH0 SWAP3 POP POP POP PUSH2 0x2A58 JUMP JUMPDEST DUP1 PUSH1 0x2 ADD SLOAD DUP3 PUSH1 0x2 ADD SLOAD EQ ISZERO DUP1 ISZERO PUSH2 0x2A42 JUMPI POP DUP1 PUSH1 0x3 ADD SLOAD DUP3 PUSH1 0x3 ADD SLOAD EQ ISZERO JUMPDEST ISZERO PUSH2 0x2A51 JUMPI PUSH0 SWAP3 POP POP POP PUSH2 0x2A58 JUMP JUMPDEST PUSH1 0x1 SWAP3 POP POP POP JUMPDEST SWAP3 SWAP2 POP POP JUMP JUMPDEST PUSH0 TIMESTAMP PUSH1 0x9 PUSH0 DUP5 DUP2 MSTORE PUSH1 0x20 ADD SWAP1 DUP2 MSTORE PUSH1 0x20 ADD PUSH0 KECCAK256 PUSH0 ADD SLOAD LT SWAP1 POP SWAP2 SWAP1 POP JUMP JUMPDEST PUSH0 DUP1 PUSH1 0x1 PUSH0 DUP6 DUP2 MSTORE PUSH1 0x20 ADD SWAP1 DUP2 MSTORE PUSH1 0x20 ADD PUSH0 KECCAK256 SWAP1 POP PUSH0 PUSH1 0x1 PUSH0 DUP6 DUP2 MSTORE PUSH1 0x20 ADD SWAP1 DUP2 MSTORE PUSH1 0x20 ADD PUSH0 KECCAK256 SWAP1 POP DUP1 PUSH1 0x1 ADD SLOAD DUP3 PUSH1 0x1 ADD SLOAD EQ ISZERO SWAP3 POP POP POP SWAP3 SWAP2 POP POP JUMP JUMPDEST PUSH1 0x9 PUSH0 DUP3 DUP2 MSTORE PUSH1 0x20 ADD SWAP1 DUP2 MSTORE PUSH1 0x20 ADD PUSH0 KECCAK256 PUSH1 0x1 ADD PUSH0 DUP2 SLOAD DUP1 SWAP3 SWAP2 SWAP1 PUSH2 0x2ADF SWAP1 PUSH2 0x5071 JUMP JUMPDEST SWAP2 SWAP1 POP SSTORE POP PUSH3 0x3F480 TIMESTAMP PUSH2 0x2AF3 SWAP2 SWAP1 PUSH2 0x4947 JUMP JUMPDEST PUSH1 0x9 PUSH0 DUP4 DUP2 MSTORE PUSH1 0x20 ADD SWAP1 DUP2 MSTORE PUSH1 0x20 ADD PUSH0 KECCAK256 PUSH0 ADD DUP2 SWAP1 SSTORE POP POP JUMP JUMPDEST PUSH0 DUP1 PUSH1 0x1 PUSH0 DUP6 DUP2 MSTORE PUSH1 0x20 ADD SWAP1 DUP2 MSTORE PUSH1 0x20 ADD PUSH0 KECCAK256 SWAP1 POP PUSH0 PUSH1 0x1 PUSH0 DUP6 DUP2 MSTORE PUSH1 0x20 ADD SWAP1 DUP2 MSTORE PUSH1 0x20 ADD PUSH0 KECCAK256 SWAP1 POP PUSH0 DUP2 PUSH1 0x4 ADD SLOAD DUP4 PUSH1 0x4 ADD SLOAD GT PUSH2 0x2B50 JUMPI DUP2 PUSH1 0x4 ADD SLOAD PUSH2 0x2B56 JUMP JUMPDEST DUP3 PUSH1 0x4 ADD SLOAD JUMPDEST SWAP1 POP PUSH0 PUSH2 0x2B72 DUP9 DUP9 DUP9 PUSH1 0x1 DUP7 PUSH2 0x2B6C SWAP2 SWAP1 PUSH2 0x4947 JUMP JUMPDEST CALLER PUSH2 0x2F75 JUMP JUMPDEST SWAP1 POP DUP1 SWAP5 POP POP POP POP POP SWAP4 SWAP3 POP POP POP JUMP JUMPDEST PUSH0 PUSH2 0x2B8B PUSH2 0x21CB JUMP JUMPDEST SWAP1 POP PUSH0 PUSH20 0xFFFFFFFFFFFFFFFFFFFFFFFFFFFFFFFFFFFFFFFF AND DUP4 PUSH20 0xFFFFFFFFFFFFFFFFFFFFFFFFFFFFFFFFFFFFFFFF AND SUB PUSH2 0x2BFD JUMPI DUP3 PUSH1 0x40 MLOAD PUSH32 0x5B08BA1800000000000000000000000000000000000000000000000000000000 DUP2 MSTORE PUSH1 0x4 ADD PUSH2 0x2BF4 SWAP2 SWAP1 PUSH2 0x3E8C JUMP JUMPDEST PUSH1 0x40 MLOAD DUP1 SWAP2 SUB SWAP1 REVERT JUMPDEST DUP2 DUP2 PUSH1 0x5 ADD PUSH0 DUP7 PUSH20 0xFFFFFFFFFFFFFFFFFFFFFFFFFFFFFFFFFFFFFFFF AND PUSH20 0xFFFFFFFFFFFFFFFFFFFFFFFFFFFFFFFFFFFFFFFF AND DUP2 MSTORE PUSH1 0x20 ADD SWAP1 DUP2 MSTORE PUSH1 0x20 ADD PUSH0 KECCAK256 PUSH0 DUP6 PUSH20 0xFFFFFFFFFFFFFFFFFFFFFFFFFFFFFFFFFFFFFFFF AND PUSH20 0xFFFFFFFFFFFFFFFFFFFFFFFFFFFFFFFFFFFFFFFF AND DUP2 MSTORE PUSH1 0x20 ADD SWAP1 DUP2 MSTORE PUSH1 0x20 ADD PUSH0 KECCAK256 PUSH0 PUSH2 0x100 EXP DUP2 SLOAD DUP2 PUSH1 0xFF MUL NOT AND SWAP1 DUP4 ISZERO ISZERO MUL OR SWAP1 SSTORE POP DUP3 PUSH20 0xFFFFFFFFFFFFFFFFFFFFFFFFFFFFFFFFFFFFFFFF AND DUP5 PUSH20 0xFFFFFFFFFFFFFFFFFFFFFFFFFFFFFFFFFFFFFFFF AND PUSH32 0x17307EAB39AB6107E8899845AD3D59BD9653F200F220920489CA2B5937696C31 DUP5 PUSH1 0x40 MLOAD PUSH2 0x2CEB SWAP2 SWAP1 PUSH2 0x3DA4 JUMP JUMPDEST PUSH1 0x40 MLOAD DUP1 SWAP2 SUB SWAP1 LOG3 POP POP POP POP JUMP JUMPDEST PUSH0 DUP4 PUSH20 0xFFFFFFFFFFFFFFFFFFFFFFFFFFFFFFFFFFFFFFFF AND EXTCODESIZE GT ISZERO PUSH2 0x2EA5 JUMPI DUP3 PUSH20 0xFFFFFFFFFFFFFFFFFFFFFFFFFFFFFFFFFFFFFFFF AND PUSH4 0x150B7A02 PUSH2 0x2D3C PUSH2 0x22BF JUMP JUMPDEST DUP7 DUP6 DUP6 PUSH1 0x40 MLOAD DUP6 PUSH4 0xFFFFFFFF AND PUSH1 0xE0 SHL DUP2 MSTORE PUSH1 0x4 ADD PUSH2 0x2D5E SWAP5 SWAP4 SWAP3 SWAP2 SWAP1 PUSH2 0x523D JUMP JUMPDEST PUSH1 0x20 PUSH1 0x40 MLOAD DUP1 DUP4 SUB DUP2 PUSH0 DUP8 GAS CALL SWAP3 POP POP POP DUP1 ISZERO PUSH2 0x2D99 JUMPI POP PUSH1 0x40 MLOAD RETURNDATASIZE PUSH1 0x1F NOT PUSH1 0x1F DUP3 ADD AND DUP3 ADD DUP1 PUSH1 0x40 MSTORE POP DUP2 ADD SWAP1 PUSH2 0x2D96 SWAP2 SWAP1 PUSH2 0x529B JUMP JUMPDEST PUSH1 0x1 JUMPDEST PUSH2 0x2E1A JUMPI RETURNDATASIZE DUP1 PUSH0 DUP2 EQ PUSH2 0x2DC7 JUMPI PUSH1 0x40 MLOAD SWAP2 POP PUSH1 0x1F NOT PUSH1 0x3F RETURNDATASIZE ADD AND DUP3 ADD PUSH1 0x40 MSTORE RETURNDATASIZE DUP3 MSTORE RETURNDATASIZE PUSH0 PUSH1 0x20 DUP5 ADD RETURNDATACOPY PUSH2 0x2DCC JUMP JUMPDEST PUSH1 0x60 SWAP2 POP JUMPDEST POP PUSH0 DUP2 MLOAD SUB PUSH2 0x2E12 JUMPI DUP4 PUSH1 0x40 MLOAD PUSH32 0x64A0AE9200000000000000000000000000000000000000000000000000000000 DUP2 MSTORE PUSH1 0x4 ADD PUSH2 0x2E09 SWAP2 SWAP1 PUSH2 0x3E8C JUMP JUMPDEST PUSH1 0x40 MLOAD DUP1 SWAP2 SUB SWAP1 REVERT JUMPDEST DUP1 MLOAD DUP2 PUSH1 0x20 ADD REVERT JUMPDEST PUSH4 0x150B7A02 PUSH1 0xE0 SHL PUSH28 0xFFFFFFFFFFFFFFFFFFFFFFFFFFFFFFFFFFFFFFFFFFFFFFFFFFFFFFFF NOT AND DUP2 PUSH28 0xFFFFFFFFFFFFFFFFFFFFFFFFFFFFFFFFFFFFFFFFFFFFFFFFFFFFFFFF NOT AND EQ PUSH2 0x2EA3 JUMPI DUP4 PUSH1 0x40 MLOAD PUSH32 0x64A0AE9200000000000000000000000000000000000000000000000000000000 DUP2 MSTORE PUSH1 0x4 ADD PUSH2 0x2E9A SWAP2 SWAP1 PUSH2 0x3E8C JUMP JUMPDEST PUSH1 0x40 MLOAD DUP1 SWAP2 SUB SWAP1 REVERT JUMPDEST POP JUMPDEST POP POP POP POP JUMP JUMPDEST PUSH1 0x60 PUSH0 PUSH1 0x1 PUSH2 0x2EB9 DUP5 PUSH2 0x3679 JUMP JUMPDEST ADD SWAP1 POP PUSH0 DUP2 PUSH8 0xFFFFFFFFFFFFFFFF DUP2 GT ISZERO PUSH2 0x2ED7 JUMPI PUSH2 0x2ED6 PUSH2 0x3F15 JUMP JUMPDEST JUMPDEST PUSH1 0x40 MLOAD SWAP1 DUP1 DUP3 MSTORE DUP1 PUSH1 0x1F ADD PUSH1 0x1F NOT AND PUSH1 0x20 ADD DUP3 ADD PUSH1 0x40 MSTORE DUP1 ISZERO PUSH2 0x2F09 JUMPI DUP2 PUSH1 0x20 ADD PUSH1 0x1 DUP3 MUL DUP1 CALLDATASIZE DUP4 CALLDATACOPY DUP1 DUP3 ADD SWAP2 POP POP SWAP1 POP JUMPDEST POP SWAP1 POP PUSH0 DUP3 PUSH1 0x20 ADD DUP3 ADD SWAP1 POP JUMPDEST PUSH1 0x1 ISZERO PUSH2 0x2F6A JUMPI DUP1 DUP1 PUSH1 0x1 SWAP1 SUB SWAP2 POP POP PUSH32 0x3031323334353637383961626364656600000000000000000000000000000000 PUSH1 0xA DUP7 MOD BYTE DUP2 MSTORE8 PUSH1 0xA DUP6 DUP2 PUSH2 0x2F5F JUMPI PUSH2 0x2F5E PUSH2 0x5139 JUMP JUMPDEST JUMPDEST DIV SWAP5 POP PUSH0 DUP6 SUB PUSH2 0x2F16 JUMPI JUMPDEST DUP2 SWAP4 POP POP POP POP SWAP2 SWAP1 POP JUMP JUMPDEST PUSH0 DUP1 PUSH1 0x40 MLOAD DUP1 PUSH1 0xC0 ADD PUSH1 0x40 MSTORE DUP1 DUP9 DUP2 MSTORE PUSH1 0x20 ADD PUSH0 DUP2 MSTORE PUSH1 0x20 ADD DUP8 DUP2 MSTORE PUSH1 0x20 ADD DUP7 DUP2 MSTORE PUSH1 0x20 ADD DUP6 DUP2 MSTORE PUSH1 0x20 ADD TIMESTAMP DUP2 MSTORE POP SWAP1 POP PUSH1 0x4 PUSH0 DUP2 SLOAD DUP1 SWAP3 SWAP2 SWAP1 PUSH2 0x2FB8 SWAP1 PUSH2 0x5071 JUMP JUMPDEST SWAP2 SWAP1 POP SSTORE POP DUP1 PUSH1 0x1 PUSH0 PUSH1 0x4 SLOAD DUP2 MSTORE PUSH1 0x20 ADD SWAP1 DUP2 MSTORE PUSH1 0x20 ADD PUSH0 KECCAK256 PUSH0 DUP3 ADD MLOAD DUP2 PUSH0 ADD SWAP1 DUP2 PUSH2 0x2FE4 SWAP2 SWAP1 PUSH2 0x484B JUMP JUMPDEST POP PUSH1 0x20 DUP3 ADD MLOAD DUP2 PUSH1 0x1 ADD SSTORE PUSH1 0x40 DUP3 ADD MLOAD DUP2 PUSH1 0x2 ADD SSTORE PUSH1 0x60 DUP3 ADD MLOAD DUP2 PUSH1 0x3 ADD SSTORE PUSH1 0x80 DUP3 ADD MLOAD DUP2 PUSH1 0x4 ADD SSTORE PUSH1 0xA0 DUP3 ADD MLOAD DUP2 PUSH1 0x5 ADD SSTORE SWAP1 POP POP PUSH3 0x2A300 DUP2 PUSH1 0xA0 ADD MLOAD PUSH2 0x302D SWAP2 SWAP1 PUSH2 0x4947 JUMP JUMPDEST PUSH1 0x2 PUSH0 PUSH1 0x4 SLOAD DUP2 MSTORE PUSH1 0x20 ADD SWAP1 DUP2 MSTORE PUSH1 0x20 ADD PUSH0 KECCAK256 PUSH0 ADD DUP2 SWAP1 SSTORE POP PUSH0 DUP1 PUSH0 PUSH1 0x4 SLOAD DUP2 MSTORE PUSH1 0x20 ADD SWAP1 DUP2 MSTORE PUSH1 0x20 ADD PUSH0 KECCAK256 PUSH0 PUSH2 0x100 EXP DUP2 SLOAD DUP2 PUSH1 0xFF MUL NOT AND SWAP1 DUP4 PUSH1 0x3 DUP2 GT ISZERO PUSH2 0x307A JUMPI PUSH2 0x3079 PUSH2 0x43CF JUMP JUMPDEST JUMPDEST MUL OR SWAP1 SSTORE POP PUSH2 0x308B DUP4 PUSH1 0x4 SLOAD PUSH2 0x37CA JUMP JUMPDEST PUSH1 0x3 PUSH0 DUP5 PUSH20 0xFFFFFFFFFFFFFFFFFFFFFFFFFFFFFFFFFFFFFFFF AND PUSH20 0xFFFFFFFFFFFFFFFFFFFFFFFFFFFFFFFFFFFFFFFF AND DUP2 MSTORE PUSH1 0x20 ADD SWAP1 DUP2 MSTORE PUSH1 0x20 ADD PUSH0 KECCAK256 PUSH1 0x4 SLOAD SWAP1 DUP1 PUSH1 0x1 DUP2 SLOAD ADD DUP1 DUP3 SSTORE DUP1 SWAP2 POP POP PUSH1 0x1 SWAP1 SUB SWAP1 PUSH0 MSTORE PUSH1 0x20 PUSH0 KECCAK256 ADD PUSH0 SWAP1 SWAP2 SWAP1 SWAP2 SWAP1 SWAP2 POP SSTORE PUSH1 0x4 SLOAD SWAP2 POP POP SWAP6 SWAP5 POP POP POP POP POP JUMP JUMPDEST PUSH0 PUSH32 0x80AC58CD00000000000000000000000000000000000000000000000000000000 PUSH28 0xFFFFFFFFFFFFFFFFFFFFFFFFFFFFFFFFFFFFFFFFFFFFFFFFFFFFFFFF NOT AND DUP3 PUSH28 0xFFFFFFFFFFFFFFFFFFFFFFFFFFFFFFFFFFFFFFFFFFFFFFFFFFFFFFFF NOT AND EQ DUP1 PUSH2 0x31C7 JUMPI POP PUSH32 0x5B5E139F00000000000000000000000000000000000000000000000000000000 PUSH28 0xFFFFFFFFFFFFFFFFFFFFFFFFFFFFFFFFFFFFFFFFFFFFFFFFFFFFFFFF NOT AND DUP3 PUSH28 0xFFFFFFFFFFFFFFFFFFFFFFFFFFFFFFFFFFFFFFFFFFFFFFFFFFFFFFFF NOT AND EQ JUMPDEST DUP1 PUSH2 0x31D7 JUMPI POP PUSH2 0x31D6 DUP3 PUSH2 0x37E7 JUMP JUMPDEST JUMPDEST SWAP1 POP SWAP2 SWAP1 POP JUMP JUMPDEST PUSH0 DUP1 PUSH2 0x31E8 PUSH2 0x21CB JUMP JUMPDEST SWAP1 POP DUP1 PUSH1 0x2 ADD PUSH0 DUP5 DUP2 MSTORE PUSH1 0x20 ADD SWAP1 DUP2 MSTORE PUSH1 0x20 ADD PUSH0 KECCAK256 PUSH0 SWAP1 SLOAD SWAP1 PUSH2 0x100 EXP SWAP1 DIV PUSH20 0xFFFFFFFFFFFFFFFFFFFFFFFFFFFFFFFFFFFFFFFF AND SWAP2 POP POP SWAP2 SWAP1 POP JUMP JUMPDEST PUSH0 PUSH2 0x322E PUSH2 0x21CB JUMP JUMPDEST SWAP1 POP DUP2 DUP1 PUSH2 0x3268 JUMPI POP PUSH0 PUSH20 0xFFFFFFFFFFFFFFFFFFFFFFFFFFFFFFFFFFFFFFFF AND DUP4 PUSH20 0xFFFFFFFFFFFFFFFFFFFFFFFFFFFFFFFFFFFFFFFF AND EQ ISZERO JUMPDEST ISZERO PUSH2 0x339A JUMPI PUSH0 PUSH2 0x3277 DUP6 PUSH2 0x21F2 JUMP JUMPDEST SWAP1 POP PUSH0 PUSH20 0xFFFFFFFFFFFFFFFFFFFFFFFFFFFFFFFFFFFFFFFF AND DUP5 PUSH20 0xFFFFFFFFFFFFFFFFFFFFFFFFFFFFFFFFFFFFFFFF AND EQ ISZERO DUP1 ISZERO PUSH2 0x32E1 JUMPI POP DUP4 PUSH20 0xFFFFFFFFFFFFFFFFFFFFFFFFFFFFFFFFFFFFFFFF AND DUP2 PUSH20 0xFFFFFFFFFFFFFFFFFFFFFFFFFFFFFFFFFFFFFFFF AND EQ ISZERO JUMPDEST DUP1 ISZERO PUSH2 0x32F4 JUMPI POP PUSH2 0x32F2 DUP2 DUP6 PUSH2 0x1C15 JUMP JUMPDEST ISZERO JUMPDEST ISZERO PUSH2 0x3336 JUMPI DUP4 PUSH1 0x40 MLOAD PUSH32 0xA9FBF51F00000000000000000000000000000000000000000000000000000000 DUP2 MSTORE PUSH1 0x4 ADD PUSH2 0x332D SWAP2 SWAP1 PUSH2 0x3E8C JUMP JUMPDEST PUSH1 0x40 MLOAD DUP1 SWAP2 SUB SWAP1 REVERT JUMPDEST DUP3 ISZERO PUSH2 0x3398 JUMPI DUP5 DUP7 PUSH20 0xFFFFFFFFFFFFFFFFFFFFFFFFFFFFFFFFFFFFFFFF AND DUP3 PUSH20 0xFFFFFFFFFFFFFFFFFFFFFFFFFFFFFFFFFFFFFFFF AND PUSH32 0x8C5BE1E5EBEC7D5BD14F71427D1E84F3DD0314C0F7B2291E5B200AC8C7C3B925 PUSH1 0x40 MLOAD PUSH1 0x40 MLOAD DUP1 SWAP2 SUB SWAP1 LOG4 JUMPDEST POP JUMPDEST DUP5 DUP2 PUSH1 0x4 ADD PUSH0 DUP7 DUP2 MSTORE PUSH1 0x20 ADD SWAP1 DUP2 MSTORE PUSH1 0x20 ADD PUSH0 KECCAK256 PUSH0 PUSH2 0x100 EXP DUP2 SLOAD DUP2 PUSH20 0xFFFFFFFFFFFFFFFFFFFFFFFFFFFFFFFFFFFFFFFF MUL NOT AND SWAP1 DUP4 PUSH20 0xFFFFFFFFFFFFFFFFFFFFFFFFFFFFFFFFFFFFFFFF AND MUL OR SWAP1 SSTORE POP POP POP POP POP POP JUMP JUMPDEST PUSH2 0x33FD DUP4 DUP4 DUP4 PUSH2 0x3850 JUMP JUMPDEST PUSH2 0x34B0 JUMPI PUSH0 PUSH20 0xFFFFFFFFFFFFFFFFFFFFFFFFFFFFFFFFFFFFFFFF AND DUP4 PUSH20 0xFFFFFFFFFFFFFFFFFFFFFFFFFFFFFFFFFFFFFFFF AND SUB PUSH2 0x3471 JUMPI DUP1 PUSH1 0x40 MLOAD PUSH32 0x7E27328900000000000000000000000000000000000000000000000000000000 DUP2 MSTORE PUSH1 0x4 ADD PUSH2 0x3468 SWAP2 SWAP1 PUSH2 0x40DF JUMP JUMPDEST PUSH1 0x40 MLOAD DUP1 SWAP2 SUB SWAP1 REVERT JUMPDEST DUP2 DUP2 PUSH1 0x40 MLOAD PUSH32 0x177E802F00000000000000000000000000000000000000000000000000000000 DUP2 MSTORE PUSH1 0x4 ADD PUSH2 0x34A7 SWAP3 SWAP2 SWAP1 PUSH2 0x52C6 JUMP JUMPDEST PUSH1 0x40 MLOAD DUP1 SWAP2 SUB SWAP1 REVERT JUMPDEST POP POP POP JUMP JUMPDEST PUSH0 PUSH2 0x34E1 PUSH32 0x360894A13BA1A3210667C828492DB98DCA3E2076CC3735A920A3CA505D382BBC PUSH0 SHL PUSH2 0x3910 JUMP JUMPDEST PUSH0 ADD PUSH0 SWAP1 SLOAD SWAP1 PUSH2 0x100 EXP SWAP1 DIV PUSH20 0xFFFFFFFFFFFFFFFFFFFFFFFFFFFFFFFFFFFFFFFF AND SWAP1 POP SWAP1 JUMP JUMPDEST PUSH2 0x3511 DUP3 PUSH2 0x3919 JUMP JUMPDEST DUP2 PUSH20 0xFFFFFFFFFFFFFFFFFFFFFFFFFFFFFFFFFFFFFFFF AND PUSH32 0xBC7CD75A20EE27FD9ADEBAB32041F755214DBC6BFFA90CC0225B39DA2E5C2D3B PUSH1 0x40 MLOAD PUSH1 0x40 MLOAD DUP1 SWAP2 SUB SWAP1 LOG2 PUSH0 DUP2 MLOAD GT ISZERO PUSH2 0x356D JUMPI PUSH2 0x3567 DUP3 DUP3 PUSH2 0x39E2 JUMP JUMPDEST POP PUSH2 0x3576 JUMP JUMPDEST PUSH2 0x3575 PUSH2 0x3A62 JUMP JUMPDEST JUMPDEST POP POP JUMP JUMPDEST PUSH2 0x3582 PUSH2 0x3A9E JUMP JUMPDEST PUSH2 0x35B8 JUMPI PUSH1 0x40 MLOAD PUSH32 0xD7E6BCF800000000000000000000000000000000000000000000000000000000 DUP2 MSTORE PUSH1 0x4 ADD PUSH1 0x40 MLOAD DUP1 SWAP2 SUB SWAP1 REVERT JUMPDEST JUMP JUMPDEST PUSH2 0x35C2 PUSH2 0x357A JUMP JUMPDEST PUSH0 PUSH2 0x35CB PUSH2 0x21CB JUMP JUMPDEST SWAP1 POP DUP3 DUP2 PUSH0 ADD SWAP1 DUP2 PUSH2 0x35DD SWAP2 SWAP1 PUSH2 0x484B JUMP JUMPDEST POP DUP2 DUP2 PUSH1 0x1 ADD SWAP1 DUP2 PUSH2 0x35EF SWAP2 SWAP1 PUSH2 0x484B JUMP JUMPDEST POP POP POP POP JUMP JUMPDEST PUSH2 0x35FD PUSH2 0x357A JUMP JUMPDEST PUSH0 PUSH20 0xFFFFFFFFFFFFFFFFFFFFFFFFFFFFFFFFFFFFFFFF AND DUP2 PUSH20 0xFFFFFFFFFFFFFFFFFFFFFFFFFFFFFFFFFFFFFFFF AND SUB PUSH2 0x366D JUMPI PUSH0 PUSH1 0x40 MLOAD PUSH32 0x1E4FBDF700000000000000000000000000000000000000000000000000000000 DUP2 MSTORE PUSH1 0x4 ADD PUSH2 0x3664 SWAP2 SWAP1 PUSH2 0x3E8C JUMP JUMPDEST PUSH1 0x40 MLOAD DUP1 SWAP2 SUB SWAP1 REVERT JUMPDEST PUSH2 0x3676 DUP2 PUSH2 0x2876 JUMP JUMPDEST POP JUMP JUMPDEST PUSH0 DUP1 PUSH0 SWAP1 POP PUSH27 0x184F03E93FF9F4DAA797ED6E38ED64BF6A1F010000000000000000 DUP4 LT PUSH2 0x36D5 JUMPI PUSH27 0x184F03E93FF9F4DAA797ED6E38ED64BF6A1F010000000000000000 DUP4 DUP2 PUSH2 0x36CB JUMPI PUSH2 0x36CA PUSH2 0x5139 JUMP JUMPDEST JUMPDEST DIV SWAP3 POP PUSH1 0x40 DUP2 ADD SWAP1 POP JUMPDEST PUSH14 0x4EE2D6D415B85ACEF8100000000 DUP4 LT PUSH2 0x3712 JUMPI PUSH14 0x4EE2D6D415B85ACEF8100000000 DUP4 DUP2 PUSH2 0x3708 JUMPI PUSH2 0x3707 PUSH2 0x5139 JUMP JUMPDEST JUMPDEST DIV SWAP3 POP PUSH1 0x20 DUP2 ADD SWAP1 POP JUMPDEST PUSH7 0x2386F26FC10000 DUP4 LT PUSH2 0x3741 JUMPI PUSH7 0x2386F26FC10000 DUP4 DUP2 PUSH2 0x3737 JUMPI PUSH2 0x3736 PUSH2 0x5139 JUMP JUMPDEST JUMPDEST DIV SWAP3 POP PUSH1 0x10 DUP2 ADD SWAP1 POP JUMPDEST PUSH4 0x5F5E100 DUP4 LT PUSH2 0x376A JUMPI PUSH4 0x5F5E100 DUP4 DUP2 PUSH2 0x3760 JUMPI PUSH2 0x375F PUSH2 0x5139 JUMP JUMPDEST JUMPDEST DIV SWAP3 POP PUSH1 0x8 DUP2 ADD SWAP1 POP JUMPDEST PUSH2 0x2710 DUP4 LT PUSH2 0x378F JUMPI PUSH2 0x2710 DUP4 DUP2 PUSH2 0x3785 JUMPI PUSH2 0x3784 PUSH2 0x5139 JUMP JUMPDEST JUMPDEST DIV SWAP3 POP PUSH1 0x4 DUP2 ADD SWAP1 POP JUMPDEST PUSH1 0x64 DUP4 LT PUSH2 0x37B2 JUMPI PUSH1 0x64 DUP4 DUP2 PUSH2 0x37A8 JUMPI PUSH2 0x37A7 PUSH2 0x5139 JUMP JUMPDEST JUMPDEST DIV SWAP3 POP PUSH1 0x2 DUP2 ADD SWAP1 POP JUMPDEST PUSH1 0xA DUP4 LT PUSH2 0x37C1 JUMPI PUSH1 0x1 DUP2 ADD SWAP1 POP JUMPDEST DUP1 SWAP2 POP POP SWAP2 SWAP1 POP JUMP JUMPDEST PUSH2 0x37E3 DUP3 DUP3 PUSH1 0x40 MLOAD DUP1 PUSH1 0x20 ADD PUSH1 0x40 MSTORE DUP1 PUSH0 DUP2 MSTORE POP PUSH2 0x3ABC JUMP JUMPDEST POP POP JUMP JUMPDEST PUSH0 PUSH32 0x1FFC9A700000000000000000000000000000000000000000000000000000000 PUSH28 0xFFFFFFFFFFFFFFFFFFFFFFFFFFFFFFFFFFFFFFFFFFFFFFFFFFFFFFFF NOT AND DUP3 PUSH28 0xFFFFFFFFFFFFFFFFFFFFFFFFFFFFFFFFFFFFFFFFFFFFFFFFFFFFFFFF NOT AND EQ SWAP1 POP SWAP2 SWAP1 POP JUMP JUMPDEST PUSH0 DUP1 PUSH20 0xFFFFFFFFFFFFFFFFFFFFFFFFFFFFFFFFFFFFFFFF AND DUP4 PUSH20 0xFFFFFFFFFFFFFFFFFFFFFFFFFFFFFFFFFFFFFFFF AND EQ ISZERO DUP1 ISZERO PUSH2 0x3907 JUMPI POP DUP3 PUSH20 0xFFFFFFFFFFFFFFFFFFFFFFFFFFFFFFFFFFFFFFFF AND DUP5 PUSH20 0xFFFFFFFFFFFFFFFFFFFFFFFFFFFFFFFFFFFFFFFF AND EQ DUP1 PUSH2 0x38C8 JUMPI POP PUSH2 0x38C7 DUP5 DUP5 PUSH2 0x1C15 JUMP JUMPDEST JUMPDEST DUP1 PUSH2 0x3906 JUMPI POP DUP3 PUSH20 0xFFFFFFFFFFFFFFFFFFFFFFFFFFFFFFFFFFFFFFFF AND PUSH2 0x38EE DUP4 PUSH2 0x2278 JUMP JUMPDEST PUSH20 0xFFFFFFFFFFFFFFFFFFFFFFFFFFFFFFFFFFFFFFFF AND EQ JUMPDEST JUMPDEST SWAP1 POP SWAP4 SWAP3 POP POP POP JUMP JUMPDEST PUSH0 DUP2 SWAP1 POP SWAP2 SWAP1 POP JUMP JUMPDEST PUSH0 DUP2 PUSH20 0xFFFFFFFFFFFFFFFFFFFFFFFFFFFFFFFFFFFFFFFF AND EXTCODESIZE SUB PUSH2 0x3974 JUMPI DUP1 PUSH1 0x40 MLOAD PUSH32 0x4C9C8CE300000000000000000000000000000000000000000000000000000000 DUP2 MSTORE PUSH1 0x4 ADD PUSH2 0x396B SWAP2 SWAP1 PUSH2 0x3E8C JUMP JUMPDEST PUSH1 0x40 MLOAD DUP1 SWAP2 SUB SWAP1 REVERT JUMPDEST DUP1 PUSH2 0x39A0 PUSH32 0x360894A13BA1A3210667C828492DB98DCA3E2076CC3735A920A3CA505D382BBC PUSH0 SHL PUSH2 0x3910 JUMP JUMPDEST PUSH0 ADD PUSH0 PUSH2 0x100 EXP DUP2 SLOAD DUP2 PUSH20 0xFFFFFFFFFFFFFFFFFFFFFFFFFFFFFFFFFFFFFFFF MUL NOT AND SWAP1 DUP4 PUSH20 0xFFFFFFFFFFFFFFFFFFFFFFFFFFFFFFFFFFFFFFFF AND MUL OR SWAP1 SSTORE POP POP JUMP JUMPDEST PUSH1 0x60 PUSH0 DUP1 DUP5 PUSH20 0xFFFFFFFFFFFFFFFFFFFFFFFFFFFFFFFFFFFFFFFF AND DUP5 PUSH1 0x40 MLOAD PUSH2 0x3A0B SWAP2 SWAP1 PUSH2 0x5327 JUMP JUMPDEST PUSH0 PUSH1 0x40 MLOAD DUP1 DUP4 SUB DUP2 DUP6 GAS DELEGATECALL SWAP2 POP POP RETURNDATASIZE DUP1 PUSH0 DUP2 EQ PUSH2 0x3A43 JUMPI PUSH1 0x40 MLOAD SWAP2 POP PUSH1 0x1F NOT PUSH1 0x3F RETURNDATASIZE ADD AND DUP3 ADD PUSH1 0x40 MSTORE RETURNDATASIZE DUP3 MSTORE RETURNDATASIZE PUSH0 PUSH1 0x20 DUP5 ADD RETURNDATACOPY PUSH2 0x3A48 JUMP JUMPDEST PUSH1 0x60 SWAP2 POP JUMPDEST POP SWAP2 POP SWAP2 POP PUSH2 0x3A58 DUP6 DUP4 DUP4 PUSH2 0x3AD7 JUMP JUMPDEST SWAP3 POP POP POP SWAP3 SWAP2 POP POP JUMP JUMPDEST PUSH0 CALLVALUE GT ISZERO PUSH2 0x3A9C JUMPI PUSH1 0x40 MLOAD PUSH32 0xB398979F00000000000000000000000000000000000000000000000000000000 DUP2 MSTORE PUSH1 0x4 ADD PUSH1 0x40 MLOAD DUP1 SWAP2 SUB SWAP1 REVERT JUMPDEST JUMP JUMPDEST PUSH0 PUSH2 0x3AA7 PUSH2 0x296E JUMP JUMPDEST PUSH0 ADD PUSH1 0x8 SWAP1 SLOAD SWAP1 PUSH2 0x100 EXP SWAP1 DIV PUSH1 0xFF AND SWAP1 POP SWAP1 JUMP JUMPDEST PUSH2 0x3AC6 DUP4 DUP4 PUSH2 0x3B64 JUMP JUMPDEST PUSH2 0x3AD2 PUSH0 DUP5 DUP5 DUP5 PUSH2 0x2CF9 JUMP JUMPDEST POP POP POP JUMP JUMPDEST PUSH1 0x60 DUP3 PUSH2 0x3AEC JUMPI PUSH2 0x3AE7 DUP3 PUSH2 0x3C57 JUMP JUMPDEST PUSH2 0x3B5C JUMP JUMPDEST PUSH0 DUP3 MLOAD EQ DUP1 ISZERO PUSH2 0x3B12 JUMPI POP PUSH0 DUP5 PUSH20 0xFFFFFFFFFFFFFFFFFFFFFFFFFFFFFFFFFFFFFFFF AND EXTCODESIZE EQ JUMPDEST ISZERO PUSH2 0x3B54 JUMPI DUP4 PUSH1 0x40 MLOAD PUSH32 0x9996B31500000000000000000000000000000000000000000000000000000000 DUP2 MSTORE PUSH1 0x4 ADD PUSH2 0x3B4B SWAP2 SWAP1 PUSH2 0x3E8C JUMP JUMPDEST PUSH1 0x40 MLOAD DUP1 SWAP2 SUB SWAP1 REVERT JUMPDEST DUP2 SWAP1 POP PUSH2 0x3B5D JUMP JUMPDEST JUMPDEST SWAP4 SWAP3 POP POP POP JUMP JUMPDEST PUSH0 PUSH20 0xFFFFFFFFFFFFFFFFFFFFFFFFFFFFFFFFFFFFFFFF AND DUP3 PUSH20 0xFFFFFFFFFFFFFFFFFFFFFFFFFFFFFFFFFFFFFFFF AND SUB PUSH2 0x3BD4 JUMPI PUSH0 PUSH1 0x40 MLOAD PUSH32 0x64A0AE9200000000000000000000000000000000000000000000000000000000 DUP2 MSTORE PUSH1 0x4 ADD PUSH2 0x3BCB SWAP2 SWAP1 PUSH2 0x3E8C JUMP JUMPDEST PUSH1 0x40 MLOAD DUP1 SWAP2 SUB SWAP1 REVERT JUMPDEST PUSH0 PUSH2 0x3BE0 DUP4 DUP4 PUSH0 PUSH2 0x23C3 JUMP JUMPDEST SWAP1 POP PUSH0 PUSH20 0xFFFFFFFFFFFFFFFFFFFFFFFFFFFFFFFFFFFFFFFF AND DUP2 PUSH20 0xFFFFFFFFFFFFFFFFFFFFFFFFFFFFFFFFFFFFFFFF AND EQ PUSH2 0x3C52 JUMPI PUSH0 PUSH1 0x40 MLOAD PUSH32 0x73C6AC6E00000000000000000000000000000000000000000000000000000000 DUP2 MSTORE PUSH1 0x4 ADD PUSH2 0x3C49 SWAP2 SWAP1 PUSH2 0x3E8C JUMP JUMPDEST PUSH1 0x40 MLOAD DUP1 SWAP2 SUB SWAP1 REVERT JUMPDEST POP POP POP JUMP JUMPDEST PUSH0 DUP2 MLOAD GT ISZERO PUSH2 0x3C69 JUMPI DUP1 MLOAD DUP1 DUP3 PUSH1 0x20 ADD REVERT JUMPDEST PUSH1 0x40 MLOAD PUSH32 0x1425EA4200000000000000000000000000000000000000000000000000000000 DUP2 MSTORE PUSH1 0x4 ADD PUSH1 0x40 MLOAD DUP1 SWAP2 SUB SWAP1 REVERT JUMPDEST PUSH0 PUSH1 0x40 MLOAD SWAP1 POP SWAP1 JUMP JUMPDEST PUSH0 DUP1 REVERT JUMPDEST PUSH0 DUP1 REVERT JUMPDEST PUSH0 DUP2 SWAP1 POP SWAP2 SWAP1 POP JUMP JUMPDEST PUSH2 0x3CBE DUP2 PUSH2 0x3CAC JUMP JUMPDEST DUP2 EQ PUSH2 0x3CC8 JUMPI PUSH0 DUP1 REVERT JUMPDEST POP JUMP JUMPDEST PUSH0 DUP2 CALLDATALOAD SWAP1 POP PUSH2 0x3CD9 DUP2 PUSH2 0x3CB5 JUMP JUMPDEST SWAP3 SWAP2 POP POP JUMP JUMPDEST PUSH0 PUSH1 0x20 DUP3 DUP5 SUB SLT ISZERO PUSH2 0x3CF4 JUMPI PUSH2 0x3CF3 PUSH2 0x3CA4 JUMP JUMPDEST JUMPDEST PUSH0 PUSH2 0x3D01 DUP5 DUP3 DUP6 ADD PUSH2 0x3CCB JUMP JUMPDEST SWAP2 POP POP SWAP3 SWAP2 POP POP JUMP JUMPDEST PUSH0 PUSH32 0xFFFFFFFF00000000000000000000000000000000000000000000000000000000 DUP3 AND SWAP1 POP SWAP2 SWAP1 POP JUMP JUMPDEST PUSH2 0x3D3E DUP2 PUSH2 0x3D0A JUMP JUMPDEST DUP2 EQ PUSH2 0x3D48 JUMPI PUSH0 DUP1 REVERT JUMPDEST POP JUMP JUMPDEST PUSH0 DUP2 CALLDATALOAD SWAP1 POP PUSH2 0x3D59 DUP2 PUSH2 0x3D35 JUMP JUMPDEST SWAP3 SWAP2 POP POP JUMP JUMPDEST PUSH0 PUSH1 0x20 DUP3 DUP5 SUB SLT ISZERO PUSH2 0x3D74 JUMPI PUSH2 0x3D73 PUSH2 0x3CA4 JUMP JUMPDEST JUMPDEST PUSH0 PUSH2 0x3D81 DUP5 DUP3 DUP6 ADD PUSH2 0x3D4B JUMP JUMPDEST SWAP2 POP POP SWAP3 SWAP2 POP POP JUMP JUMPDEST PUSH0 DUP2 ISZERO ISZERO SWAP1 POP SWAP2 SWAP1 POP JUMP JUMPDEST PUSH2 0x3D9E DUP2 PUSH2 0x3D8A JUMP JUMPDEST DUP3 MSTORE POP POP JUMP JUMPDEST PUSH0 PUSH1 0x20 DUP3 ADD SWAP1 POP PUSH2 0x3DB7 PUSH0 DUP4 ADD DUP5 PUSH2 0x3D95 JUMP JUMPDEST SWAP3 SWAP2 POP POP JUMP JUMPDEST PUSH0 DUP2 MLOAD SWAP1 POP SWAP2 SWAP1 POP JUMP JUMPDEST PUSH0 DUP3 DUP3 MSTORE PUSH1 0x20 DUP3 ADD SWAP1 POP SWAP3 SWAP2 POP POP JUMP JUMPDEST DUP3 DUP2 DUP4 MCOPY PUSH0 DUP4 DUP4 ADD MSTORE POP POP POP JUMP JUMPDEST PUSH0 PUSH1 0x1F NOT PUSH1 0x1F DUP4 ADD AND SWAP1 POP SWAP2 SWAP1 POP JUMP JUMPDEST PUSH0 PUSH2 0x3DFF DUP3 PUSH2 0x3DBD JUMP JUMPDEST PUSH2 0x3E09 DUP2 DUP6 PUSH2 0x3DC7 JUMP JUMPDEST SWAP4 POP PUSH2 0x3E19 DUP2 DUP6 PUSH1 0x20 DUP7 ADD PUSH2 0x3DD7 JUMP JUMPDEST PUSH2 0x3E22 DUP2 PUSH2 0x3DE5 JUMP JUMPDEST DUP5 ADD SWAP2 POP POP SWAP3 SWAP2 POP POP JUMP JUMPDEST PUSH0 PUSH1 0x20 DUP3 ADD SWAP1 POP DUP2 DUP2 SUB PUSH0 DUP4 ADD MSTORE PUSH2 0x3E45 DUP2 DUP5 PUSH2 0x3DF5 JUMP JUMPDEST SWAP1 POP SWAP3 SWAP2 POP POP JUMP JUMPDEST PUSH0 PUSH20 0xFFFFFFFFFFFFFFFFFFFFFFFFFFFFFFFFFFFFFFFF DUP3 AND SWAP1 POP SWAP2 SWAP1 POP JUMP JUMPDEST PUSH0 PUSH2 0x3E76 DUP3 PUSH2 0x3E4D JUMP JUMPDEST SWAP1 POP SWAP2 SWAP1 POP JUMP JUMPDEST PUSH2 0x3E86 DUP2 PUSH2 0x3E6C JUMP JUMPDEST DUP3 MSTORE POP POP JUMP JUMPDEST PUSH0 PUSH1 0x20 DUP3 ADD SWAP1 POP PUSH2 0x3E9F PUSH0 DUP4 ADD DUP5 PUSH2 0x3E7D JUMP JUMPDEST SWAP3 SWAP2 POP POP JUMP JUMPDEST PUSH2 0x3EAE DUP2 PUSH2 0x3E6C JUMP JUMPDEST DUP2 EQ PUSH2 0x3EB8 JUMPI PUSH0 DUP1 REVERT JUMPDEST POP JUMP JUMPDEST PUSH0 DUP2 CALLDATALOAD SWAP1 POP PUSH2 0x3EC9 DUP2 PUSH2 0x3EA5 JUMP JUMPDEST SWAP3 SWAP2 POP POP JUMP JUMPDEST PUSH0 DUP1 PUSH1 0x40 DUP4 DUP6 SUB SLT ISZERO PUSH2 0x3EE5 JUMPI PUSH2 0x3EE4 PUSH2 0x3CA4 JUMP JUMPDEST JUMPDEST PUSH0 PUSH2 0x3EF2 DUP6 DUP3 DUP7 ADD PUSH2 0x3EBB JUMP JUMPDEST SWAP3 POP POP PUSH1 0x20 PUSH2 0x3F03 DUP6 DUP3 DUP7 ADD PUSH2 0x3CCB JUMP JUMPDEST SWAP2 POP POP SWAP3 POP SWAP3 SWAP1 POP JUMP JUMPDEST PUSH0 DUP1 REVERT JUMPDEST PUSH0 DUP1 REVERT JUMPDEST PUSH32 0x4E487B7100000000000000000000000000000000000000000000000000000000 PUSH0 MSTORE PUSH1 0x41 PUSH1 0x4 MSTORE PUSH1 0x24 PUSH0 REVERT JUMPDEST PUSH2 0x3F4B DUP3 PUSH2 0x3DE5 JUMP JUMPDEST DUP2 ADD DUP2 DUP2 LT PUSH8 0xFFFFFFFFFFFFFFFF DUP3 GT OR ISZERO PUSH2 0x3F6A JUMPI PUSH2 0x3F69 PUSH2 0x3F15 JUMP JUMPDEST JUMPDEST DUP1 PUSH1 0x40 MSTORE POP POP POP JUMP JUMPDEST PUSH0 PUSH2 0x3F7C PUSH2 0x3C9B JUMP JUMPDEST SWAP1 POP PUSH2 0x3F88 DUP3 DUP3 PUSH2 0x3F42 JUMP JUMPDEST SWAP2 SWAP1 POP JUMP JUMPDEST PUSH0 PUSH8 0xFFFFFFFFFFFFFFFF DUP3 GT ISZERO PUSH2 0x3FA7 JUMPI PUSH2 0x3FA6 PUSH2 0x3F15 JUMP JUMPDEST JUMPDEST PUSH2 0x3FB0 DUP3 PUSH2 0x3DE5 JUMP JUMPDEST SWAP1 POP PUSH1 0x20 DUP2 ADD SWAP1 POP SWAP2 SWAP1 POP JUMP JUMPDEST DUP3 DUP2 DUP4 CALLDATACOPY PUSH0 DUP4 DUP4 ADD MSTORE POP POP POP JUMP JUMPDEST PUSH0 PUSH2 0x3FDD PUSH2 0x3FD8 DUP5 PUSH2 0x3F8D JUMP JUMPDEST PUSH2 0x3F73 JUMP JUMPDEST SWAP1 POP DUP3 DUP2 MSTORE PUSH1 0x20 DUP2 ADD DUP5 DUP5 DUP5 ADD GT ISZERO PUSH2 0x3FF9 JUMPI PUSH2 0x3FF8 PUSH2 0x3F11 JUMP JUMPDEST JUMPDEST PUSH2 0x4004 DUP5 DUP3 DUP6 PUSH2 0x3FBD JUMP JUMPDEST POP SWAP4 SWAP3 POP POP POP JUMP JUMPDEST PUSH0 DUP3 PUSH1 0x1F DUP4 ADD SLT PUSH2 0x4020 JUMPI PUSH2 0x401F PUSH2 0x3F0D JUMP JUMPDEST JUMPDEST DUP2 CALLDATALOAD PUSH2 0x4030 DUP5 DUP3 PUSH1 0x20 DUP7 ADD PUSH2 0x3FCB JUMP JUMPDEST SWAP2 POP POP SWAP3 SWAP2 POP POP JUMP JUMPDEST PUSH0 PUSH1 0x20 DUP3 DUP5 SUB SLT ISZERO PUSH2 0x404E JUMPI PUSH2 0x404D PUSH2 0x3CA4 JUMP JUMPDEST JUMPDEST PUSH0 DUP3 ADD CALLDATALOAD PUSH8 0xFFFFFFFFFFFFFFFF DUP2 GT ISZERO PUSH2 0x406B JUMPI PUSH2 0x406A PUSH2 0x3CA8 JUMP JUMPDEST JUMPDEST PUSH2 0x4077 DUP5 DUP3 DUP6 ADD PUSH2 0x400C JUMP JUMPDEST SWAP2 POP POP SWAP3 SWAP2 POP POP JUMP JUMPDEST PUSH0 DUP1 PUSH0 PUSH1 0x60 DUP5 DUP7 SUB SLT ISZERO PUSH2 0x4097 JUMPI PUSH2 0x4096 PUSH2 0x3CA4 JUMP JUMPDEST JUMPDEST PUSH0 PUSH2 0x40A4 DUP7 DUP3 DUP8 ADD PUSH2 0x3EBB JUMP JUMPDEST SWAP4 POP POP PUSH1 0x20 PUSH2 0x40B5 DUP7 DUP3 DUP8 ADD PUSH2 0x3EBB JUMP JUMPDEST SWAP3 POP POP PUSH1 0x40 PUSH2 0x40C6 DUP7 DUP3 DUP8 ADD PUSH2 0x3CCB JUMP JUMPDEST SWAP2 POP POP SWAP3 POP SWAP3 POP SWAP3 JUMP JUMPDEST PUSH2 0x40D9 DUP2 PUSH2 0x3CAC JUMP JUMPDEST DUP3 MSTORE POP POP JUMP JUMPDEST PUSH0 PUSH1 0x20 DUP3 ADD SWAP1 POP PUSH2 0x40F2 PUSH0 DUP4 ADD DUP5 PUSH2 0x40D0 JUMP JUMPDEST SWAP3 SWAP2 POP POP JUMP JUMPDEST PUSH0 PUSH8 0xFFFFFFFFFFFFFFFF DUP3 GT ISZERO PUSH2 0x4112 JUMPI PUSH2 0x4111 PUSH2 0x3F15 JUMP JUMPDEST JUMPDEST PUSH2 0x411B DUP3 PUSH2 0x3DE5 JUMP JUMPDEST SWAP1 POP PUSH1 0x20 DUP2 ADD SWAP1 POP SWAP2 SWAP1 POP JUMP JUMPDEST PUSH0 PUSH2 0x413A PUSH2 0x4135 DUP5 PUSH2 0x40F8 JUMP JUMPDEST PUSH2 0x3F73 JUMP JUMPDEST SWAP1 POP DUP3 DUP2 MSTORE PUSH1 0x20 DUP2 ADD DUP5 DUP5 DUP5 ADD GT ISZERO PUSH2 0x4156 JUMPI PUSH2 0x4155 PUSH2 0x3F11 JUMP JUMPDEST JUMPDEST PUSH2 0x4161 DUP5 DUP3 DUP6 PUSH2 0x3FBD JUMP JUMPDEST POP SWAP4 SWAP3 POP POP POP JUMP JUMPDEST PUSH0 DUP3 PUSH1 0x1F DUP4 ADD SLT PUSH2 0x417D JUMPI PUSH2 0x417C PUSH2 0x3F0D JUMP JUMPDEST JUMPDEST DUP2 CALLDATALOAD PUSH2 0x418D DUP5 DUP3 PUSH1 0x20 DUP7 ADD PUSH2 0x4128 JUMP JUMPDEST SWAP2 POP POP SWAP3 SWAP2 POP POP JUMP JUMPDEST PUSH0 DUP1 PUSH1 0x40 DUP4 DUP6 SUB SLT ISZERO PUSH2 0x41AC JUMPI PUSH2 0x41AB PUSH2 0x3CA4 JUMP JUMPDEST JUMPDEST PUSH0 PUSH2 0x41B9 DUP6 DUP3 DUP7 ADD PUSH2 0x3EBB JUMP JUMPDEST SWAP3 POP POP PUSH1 0x20 DUP4 ADD CALLDATALOAD PUSH8 0xFFFFFFFFFFFFFFFF DUP2 GT ISZERO PUSH2 0x41DA JUMPI PUSH2 0x41D9 PUSH2 0x3CA8 JUMP JUMPDEST JUMPDEST PUSH2 0x41E6 DUP6 DUP3 DUP7 ADD PUSH2 0x4169 JUMP JUMPDEST SWAP2 POP POP SWAP3 POP SWAP3 SWAP1 POP JUMP JUMPDEST PUSH0 DUP2 SWAP1 POP SWAP2 SWAP1 POP JUMP JUMPDEST PUSH2 0x4202 DUP2 PUSH2 0x41F0 JUMP JUMPDEST DUP3 MSTORE POP POP JUMP JUMPDEST PUSH0 PUSH1 0x20 DUP3 ADD SWAP1 POP PUSH2 0x421B PUSH0 DUP4 ADD DUP5 PUSH2 0x41F9 JUMP JUMPDEST SWAP3 SWAP2 POP POP JUMP JUMPDEST PUSH0 PUSH1 0x20 DUP3 DUP5 SUB SLT ISZERO PUSH2 0x4236 JUMPI PUSH2 0x4235 PUSH2 0x3CA4 JUMP JUMPDEST JUMPDEST PUSH0 PUSH2 0x4243 DUP5 DUP3 DUP6 ADD PUSH2 0x3EBB JUMP JUMPDEST SWAP2 POP POP SWAP3 SWAP2 POP POP JUMP JUMPDEST PUSH0 PUSH1 0x40 DUP3 ADD SWAP1 POP PUSH2 0x425F PUSH0 DUP4 ADD DUP6 PUSH2 0x40D0 JUMP JUMPDEST PUSH2 0x426C PUSH1 0x20 DUP4 ADD DUP5 PUSH2 0x40D0 JUMP JUMPDEST SWAP4 SWAP3 POP POP POP JUMP JUMPDEST PUSH0 DUP1 PUSH0 PUSH1 0x60 DUP5 DUP7 SUB SLT ISZERO PUSH2 0x428A JUMPI PUSH2 0x4289 PUSH2 0x3CA4 JUMP JUMPDEST JUMPDEST PUSH0 PUSH2 0x4297 DUP7 DUP3 DUP8 ADD PUSH2 0x3EBB JUMP JUMPDEST SWAP4 POP POP PUSH1 0x20 DUP5 ADD CALLDATALOAD PUSH8 0xFFFFFFFFFFFFFFFF DUP2 GT ISZERO PUSH2 0x42B8 JUMPI PUSH2 0x42B7 PUSH2 0x3CA8 JUMP JUMPDEST JUMPDEST PUSH2 0x42C4 DUP7 DUP3 DUP8 ADD PUSH2 0x400C JUMP JUMPDEST SWAP3 POP POP PUSH1 0x40 DUP5 ADD CALLDATALOAD PUSH8 0xFFFFFFFFFFFFFFFF DUP2 GT ISZERO PUSH2 0x42E5 JUMPI PUSH2 0x42E4 PUSH2 0x3CA8 JUMP JUMPDEST JUMPDEST PUSH2 0x42F1 DUP7 DUP3 DUP8 ADD PUSH2 0x400C JUMP JUMPDEST SWAP2 POP POP SWAP3 POP SWAP3 POP SWAP3 JUMP JUMPDEST PUSH0 DUP1 PUSH0 PUSH1 0x60 DUP5 DUP7 SUB SLT ISZERO PUSH2 0x4312 JUMPI PUSH2 0x4311 PUSH2 0x3CA4 JUMP JUMPDEST JUMPDEST PUSH0 DUP5 ADD CALLDATALOAD PUSH8 0xFFFFFFFFFFFFFFFF DUP2 GT ISZERO PUSH2 0x432F JUMPI PUSH2 0x432E PUSH2 0x3CA8 JUMP JUMPDEST JUMPDEST PUSH2 0x433B DUP7 DUP3 DUP8 ADD PUSH2 0x400C JUMP JUMPDEST SWAP4 POP POP PUSH1 0x20 PUSH2 0x434C DUP7 DUP3 DUP8 ADD PUSH2 0x3CCB JUMP JUMPDEST SWAP3 POP POP PUSH1 0x40 PUSH2 0x435D DUP7 DUP3 DUP8 ADD PUSH2 0x3CCB JUMP JUMPDEST SWAP2 POP POP SWAP3 POP SWAP3 POP SWAP3 JUMP JUMPDEST PUSH2 0x4370 DUP2 PUSH2 0x3D8A JUMP JUMPDEST DUP2 EQ PUSH2 0x437A JUMPI PUSH0 DUP1 REVERT JUMPDEST POP JUMP JUMPDEST PUSH0 DUP2 CALLDATALOAD SWAP1 POP PUSH2 0x438B DUP2 PUSH2 0x4367 JUMP JUMPDEST SWAP3 SWAP2 POP POP JUMP JUMPDEST PUSH0 DUP1 PUSH1 0x40 DUP4 DUP6 SUB SLT ISZERO PUSH2 0x43A7 JUMPI PUSH2 0x43A6 PUSH2 0x3CA4 JUMP JUMPDEST JUMPDEST PUSH0 PUSH2 0x43B4 DUP6 DUP3 DUP7 ADD PUSH2 0x3EBB JUMP JUMPDEST SWAP3 POP POP PUSH1 0x20 PUSH2 0x43C5 DUP6 DUP3 DUP7 ADD PUSH2 0x437D JUMP JUMPDEST SWAP2 POP POP SWAP3 POP SWAP3 SWAP1 POP JUMP JUMPDEST PUSH32 0x4E487B7100000000000000000000000000000000000000000000000000000000 PUSH0 MSTORE PUSH1 0x21 PUSH1 0x4 MSTORE PUSH1 0x24 PUSH0 REVERT JUMPDEST PUSH1 0x4 DUP2 LT PUSH2 0x440D JUMPI PUSH2 0x440C PUSH2 0x43CF JUMP JUMPDEST JUMPDEST POP JUMP JUMPDEST PUSH0 DUP2 SWAP1 POP PUSH2 0x441D DUP3 PUSH2 0x43FC JUMP JUMPDEST SWAP2 SWAP1 POP JUMP JUMPDEST PUSH0 PUSH2 0x442C DUP3 PUSH2 0x4410 JUMP JUMPDEST SWAP1 POP SWAP2 SWAP1 POP JUMP JUMPDEST PUSH2 0x443C DUP2 PUSH2 0x4422 JUMP JUMPDEST DUP3 MSTORE POP POP JUMP JUMPDEST PUSH0 PUSH1 0x40 DUP3 ADD SWAP1 POP PUSH2 0x4455 PUSH0 DUP4 ADD DUP6 PUSH2 0x4433 JUMP JUMPDEST PUSH2 0x4462 PUSH1 0x20 DUP4 ADD DUP5 PUSH2 0x40D0 JUMP JUMPDEST SWAP4 SWAP3 POP POP POP JUMP JUMPDEST PUSH0 DUP1 PUSH0 DUP1 PUSH1 0x80 DUP6 DUP8 SUB SLT ISZERO PUSH2 0x4481 JUMPI PUSH2 0x4480 PUSH2 0x3CA4 JUMP JUMPDEST JUMPDEST PUSH0 PUSH2 0x448E DUP8 DUP3 DUP9 ADD PUSH2 0x3EBB JUMP JUMPDEST SWAP5 POP POP PUSH1 0x20 PUSH2 0x449F DUP8 DUP3 DUP9 ADD PUSH2 0x3EBB JUMP JUMPDEST SWAP4 POP POP PUSH1 0x40 PUSH2 0x44B0 DUP8 DUP3 DUP9 ADD PUSH2 0x3CCB JUMP JUMPDEST SWAP3 POP POP PUSH1 0x60 DUP6 ADD CALLDATALOAD PUSH8 0xFFFFFFFFFFFFFFFF DUP2 GT ISZERO PUSH2 0x44D1 JUMPI PUSH2 0x44D0 PUSH2 0x3CA8 JUMP JUMPDEST JUMPDEST PUSH2 0x44DD DUP8 DUP3 DUP9 ADD PUSH2 0x4169 JUMP JUMPDEST SWAP2 POP POP SWAP3 SWAP6 SWAP2 SWAP5 POP SWAP3 POP JUMP JUMPDEST PUSH0 DUP1 PUSH1 0x40 DUP4 DUP6 SUB SLT ISZERO PUSH2 0x44FF JUMPI PUSH2 0x44FE PUSH2 0x3CA4 JUMP JUMPDEST JUMPDEST PUSH0 PUSH2 0x450C DUP6 DUP3 DUP7 ADD PUSH2 0x3EBB JUMP JUMPDEST SWAP3 POP POP PUSH1 0x20 DUP4 ADD CALLDATALOAD PUSH8 0xFFFFFFFFFFFFFFFF DUP2 GT ISZERO PUSH2 0x452D JUMPI PUSH2 0x452C PUSH2 0x3CA8 JUMP JUMPDEST JUMPDEST PUSH2 0x4539 DUP6 DUP3 DUP7 ADD PUSH2 0x400C JUMP JUMPDEST SWAP2 POP POP SWAP3 POP SWAP3 SWAP1 POP JUMP JUMPDEST PUSH0 DUP1 PUSH1 0x40 DUP4 DUP6 SUB SLT ISZERO PUSH2 0x4559 JUMPI PUSH2 0x4558 PUSH2 0x3CA4 JUMP JUMPDEST JUMPDEST PUSH0 PUSH2 0x4566 DUP6 DUP3 DUP7 ADD PUSH2 0x3EBB JUMP JUMPDEST SWAP3 POP POP PUSH1 0x20 PUSH2 0x4577 DUP6 DUP3 DUP7 ADD PUSH2 0x3EBB JUMP JUMPDEST SWAP2 POP POP SWAP3 POP SWAP3 SWAP1 POP JUMP JUMPDEST PUSH32 0x546F6B656E20697320616C7265616479206164756C7400000000000000000000 PUSH0 DUP3 ADD MSTORE POP JUMP JUMPDEST PUSH0 PUSH2 0x45B5 PUSH1 0x16 DUP4 PUSH2 0x3DC7 JUMP JUMPDEST SWAP2 POP PUSH2 0x45C0 DUP3 PUSH2 0x4581 JUMP JUMPDEST PUSH1 0x20 DUP3 ADD SWAP1 POP SWAP2 SWAP1 POP JUMP JUMPDEST PUSH0 PUSH1 0x20 DUP3 ADD SWAP1 POP DUP2 DUP2 SUB PUSH0 DUP4 ADD MSTORE PUSH2 0x45E2 DUP2 PUSH2 0x45A9 JUMP JUMPDEST SWAP1 POP SWAP2 SWAP1 POP JUMP JUMPDEST PUSH32 0x4E6F74206F776E65720000000000000000000000000000000000000000000000 PUSH0 DUP3 ADD MSTORE POP JUMP JUMPDEST PUSH0 PUSH2 0x461D PUSH1 0x9 DUP4 PUSH2 0x3DC7 JUMP JUMPDEST SWAP2 POP PUSH2 0x4628 DUP3 PUSH2 0x45E9 JUMP JUMPDEST PUSH1 0x20 DUP3 ADD SWAP1 POP SWAP2 SWAP1 POP JUMP JUMPDEST PUSH0 PUSH1 0x20 DUP3 ADD SWAP1 POP DUP2 DUP2 SUB PUSH0 DUP4 ADD MSTORE PUSH2 0x464A DUP2 PUSH2 0x4611 JUMP JUMPDEST SWAP1 POP SWAP2 SWAP1 POP JUMP JUMPDEST PUSH32 0x4E487B7100000000000000000000000000000000000000000000000000000000 PUSH0 MSTORE PUSH1 0x22 PUSH1 0x4 MSTORE PUSH1 0x24 PUSH0 REVERT JUMPDEST PUSH0 PUSH1 0x2 DUP3 DIV SWAP1 POP PUSH1 0x1 DUP3 AND DUP1 PUSH2 0x4695 JUMPI PUSH1 0x7F DUP3 AND SWAP2 POP JUMPDEST PUSH1 0x20 DUP3 LT DUP2 SUB PUSH2 0x46A8 JUMPI PUSH2 0x46A7 PUSH2 0x4651 JUMP JUMPDEST JUMPDEST POP SWAP2 SWAP1 POP JUMP JUMPDEST PUSH0 DUP2 SWAP1 POP DUP2 PUSH0 MSTORE PUSH1 0x20 PUSH0 KECCAK256 SWAP1 POP SWAP2 SWAP1 POP JUMP JUMPDEST PUSH0 PUSH1 0x20 PUSH1 0x1F DUP4 ADD DIV SWAP1 POP SWAP2 SWAP1 POP JUMP JUMPDEST PUSH0 DUP3 DUP3 SHL SWAP1 POP SWAP3 SWAP2 POP POP JUMP JUMPDEST PUSH0 PUSH1 0x8 DUP4 MUL PUSH2 0x470A PUSH32 0xFFFFFFFFFFFFFFFFFFFFFFFFFFFFFFFFFFFFFFFFFFFFFFFFFFFFFFFFFFFFFFFF DUP3 PUSH2 0x46CF JUMP JUMPDEST PUSH2 0x4714 DUP7 DUP4 PUSH2 0x46CF JUMP JUMPDEST SWAP6 POP DUP1 NOT DUP5 AND SWAP4 POP DUP1 DUP7 AND DUP5 OR SWAP3 POP POP POP SWAP4 SWAP3 POP POP POP JUMP JUMPDEST PUSH0 DUP2 SWAP1 POP SWAP2 SWAP1 POP JUMP JUMPDEST PUSH0 PUSH2 0x474F PUSH2 0x474A PUSH2 0x4745 DUP5 PUSH2 0x3CAC JUMP JUMPDEST PUSH2 0x472C JUMP JUMPDEST PUSH2 0x3CAC JUMP JUMPDEST SWAP1 POP SWAP2 SWAP1 POP JUMP JUMPDEST PUSH0 DUP2 SWAP1 POP SWAP2 SWAP1 POP JUMP JUMPDEST PUSH2 0x4768 DUP4 PUSH2 0x4735 JUMP JUMPDEST PUSH2 0x477C PUSH2 0x4774 DUP3 PUSH2 0x4756 JUMP JUMPDEST DUP5 DUP5 SLOAD PUSH2 0x46DB JUMP JUMPDEST DUP3 SSTORE POP POP POP POP JUMP JUMPDEST PUSH0 SWAP1 JUMP JUMPDEST PUSH2 0x4790 PUSH2 0x4784 JUMP JUMPDEST PUSH2 0x479B DUP2 DUP5 DUP5 PUSH2 0x475F JUMP JUMPDEST POP POP POP JUMP JUMPDEST JUMPDEST DUP2 DUP2 LT ISZERO PUSH2 0x47BE JUMPI PUSH2 0x47B3 PUSH0 DUP3 PUSH2 0x4788 JUMP JUMPDEST PUSH1 0x1 DUP2 ADD SWAP1 POP PUSH2 0x47A1 JUMP JUMPDEST POP POP JUMP JUMPDEST PUSH1 0x1F DUP3 GT ISZERO PUSH2 0x4803 JUMPI PUSH2 0x47D4 DUP2 PUSH2 0x46AE JUMP JUMPDEST PUSH2 0x47DD DUP5 PUSH2 0x46C0 JUMP JUMPDEST DUP2 ADD PUSH1 0x20 DUP6 LT ISZERO PUSH2 0x47EC JUMPI DUP2 SWAP1 POP JUMPDEST PUSH2 0x4800 PUSH2 0x47F8 DUP6 PUSH2 0x46C0 JUMP JUMPDEST DUP4 ADD DUP3 PUSH2 0x47A0 JUMP JUMPDEST POP POP JUMPDEST POP POP POP JUMP JUMPDEST PUSH0 DUP3 DUP3 SHR SWAP1 POP SWAP3 SWAP2 POP POP JUMP JUMPDEST PUSH0 PUSH2 0x4823 PUSH0 NOT DUP5 PUSH1 0x8 MUL PUSH2 0x4808 JUMP JUMPDEST NOT DUP1 DUP4 AND SWAP2 POP POP SWAP3 SWAP2 POP POP JUMP JUMPDEST PUSH0 PUSH2 0x483B DUP4 DUP4 PUSH2 0x4814 JUMP JUMPDEST SWAP2 POP DUP3 PUSH1 0x2 MUL DUP3 OR SWAP1 POP SWAP3 SWAP2 POP POP JUMP JUMPDEST PUSH2 0x4854 DUP3 PUSH2 0x3DBD JUMP JUMPDEST PUSH8 0xFFFFFFFFFFFFFFFF DUP2 GT ISZERO PUSH2 0x486D JUMPI PUSH2 0x486C PUSH2 0x3F15 JUMP JUMPDEST JUMPDEST PUSH2 0x4877 DUP3 SLOAD PUSH2 0x467E JUMP JUMPDEST PUSH2 0x4882 DUP3 DUP3 DUP6 PUSH2 0x47C2 JUMP JUMPDEST PUSH0 PUSH1 0x20 SWAP1 POP PUSH1 0x1F DUP4 GT PUSH1 0x1 DUP2 EQ PUSH2 0x48B3 JUMPI PUSH0 DUP5 ISZERO PUSH2 0x48A1 JUMPI DUP3 DUP8 ADD MLOAD SWAP1 POP JUMPDEST PUSH2 0x48AB DUP6 DUP3 PUSH2 0x4830 JUMP JUMPDEST DUP7 SSTORE POP PUSH2 0x4912 JUMP JUMPDEST PUSH1 0x1F NOT DUP5 AND PUSH2 0x48C1 DUP7 PUSH2 0x46AE JUMP JUMPDEST PUSH0 JUMPDEST DUP3 DUP2 LT ISZERO PUSH2 0x48E8 JUMPI DUP5 DUP10 ADD MLOAD DUP3 SSTORE PUSH1 0x1 DUP3 ADD SWAP2 POP PUSH1 0x20 DUP6 ADD SWAP5 POP PUSH1 0x20 DUP2 ADD SWAP1 POP PUSH2 0x48C3 JUMP JUMPDEST DUP7 DUP4 LT ISZERO PUSH2 0x4905 JUMPI DUP5 DUP10 ADD MLOAD PUSH2 0x4901 PUSH1 0x1F DUP10 AND DUP3 PUSH2 0x4814 JUMP JUMPDEST DUP4 SSTORE POP JUMPDEST PUSH1 0x1 PUSH1 0x2 DUP9 MUL ADD DUP9 SSTORE POP POP POP JUMPDEST POP POP POP POP POP POP JUMP JUMPDEST PUSH32 0x4E487B7100000000000000000000000000000000000000000000000000000000 PUSH0 MSTORE PUSH1 0x11 PUSH1 0x4 MSTORE PUSH1 0x24 PUSH0 REVERT JUMPDEST PUSH0 PUSH2 0x4951 DUP3 PUSH2 0x3CAC JUMP JUMPDEST SWAP2 POP PUSH2 0x495C DUP4 PUSH2 0x3CAC JUMP JUMPDEST SWAP3 POP DUP3 DUP3 ADD SWAP1 POP DUP1 DUP3 GT ISZERO PUSH2 0x4974 JUMPI PUSH2 0x4973 PUSH2 0x491A JUMP JUMPDEST JUMPDEST SWAP3 SWAP2 POP POP JUMP JUMPDEST PUSH32 0x556E61626C6520746F2065766F6C766500000000000000000000000000000000 PUSH0 DUP3 ADD MSTORE POP JUMP JUMPDEST PUSH0 PUSH2 0x49AE PUSH1 0x10 DUP4 PUSH2 0x3DC7 JUMP JUMPDEST SWAP2 POP PUSH2 0x49B9 DUP3 PUSH2 0x497A JUMP JUMPDEST PUSH1 0x20 DUP3 ADD SWAP1 POP SWAP2 SWAP1 POP JUMP JUMPDEST PUSH0 PUSH1 0x20 DUP3 ADD SWAP1 POP DUP2 DUP2 SUB PUSH0 DUP4 ADD MSTORE PUSH2 0x49DB DUP2 PUSH2 0x49A2 JUMP JUMPDEST SWAP1 POP SWAP2 SWAP1 POP JUMP JUMPDEST PUSH0 PUSH1 0x60 DUP3 ADD SWAP1 POP PUSH2 0x49F5 PUSH0 DUP4 ADD DUP7 PUSH2 0x3E7D JUMP JUMPDEST PUSH2 0x4A02 PUSH1 0x20 DUP4 ADD DUP6 PUSH2 0x40D0 JUMP JUMPDEST PUSH2 0x4A0F PUSH1 0x40 DUP4 ADD DUP5 PUSH2 0x3E7D JUMP JUMPDEST SWAP5 SWAP4 POP POP POP POP JUMP JUMPDEST PUSH0 DUP2 SWAP1 POP SWAP2 SWAP1 POP JUMP JUMPDEST PUSH0 PUSH8 0xFFFFFFFFFFFFFFFF DUP3 AND SWAP1 POP SWAP2 SWAP1 POP JUMP JUMPDEST PUSH0 PUSH2 0x4A4D PUSH2 0x4A48 PUSH2 0x4A43 DUP5 PUSH2 0x4A17 JUMP JUMPDEST PUSH2 0x472C JUMP JUMPDEST PUSH2 0x4A20 JUMP JUMPDEST SWAP1 POP SWAP2 SWAP1 POP JUMP JUMPDEST PUSH2 0x4A5D DUP2 PUSH2 0x4A33 JUMP JUMPDEST DUP3 MSTORE POP POP JUMP JUMPDEST PUSH0 PUSH1 0x20 DUP3 ADD SWAP1 POP PUSH2 0x4A76 PUSH0 DUP4 ADD DUP5 PUSH2 0x4A54 JUMP JUMPDEST SWAP3 SWAP2 POP POP JUMP JUMPDEST PUSH32 0x496E636573740000000000000000000000000000000000000000000000000000 PUSH0 DUP3 ADD MSTORE POP JUMP JUMPDEST PUSH0 PUSH2 0x4AB0 PUSH1 0x6 DUP4 PUSH2 0x3DC7 JUMP JUMPDEST SWAP2 POP PUSH2 0x4ABB DUP3 PUSH2 0x4A7C JUMP JUMPDEST PUSH1 0x20 DUP3 ADD SWAP1 POP SWAP2 SWAP1 POP JUMP JUMPDEST PUSH0 PUSH1 0x20 DUP3 ADD SWAP1 POP DUP2 DUP2 SUB PUSH0 DUP4 ADD MSTORE PUSH2 0x4ADD DUP2 PUSH2 0x4AA4 JUMP JUMPDEST SWAP1 POP SWAP2 SWAP1 POP JUMP JUMPDEST PUSH32 0x4272656564696E67206E6F7420616C6C6F776564207965740000000000000000 PUSH0 DUP3 ADD MSTORE POP JUMP JUMPDEST PUSH0 PUSH2 0x4B18 PUSH1 0x18 DUP4 PUSH2 0x3DC7 JUMP JUMPDEST SWAP2 POP PUSH2 0x4B23 DUP3 PUSH2 0x4AE4 JUMP JUMPDEST PUSH1 0x20 DUP3 ADD SWAP1 POP SWAP2 SWAP1 POP JUMP JUMPDEST PUSH0 PUSH1 0x20 DUP3 ADD SWAP1 POP DUP2 DUP2 SUB PUSH0 DUP4 ADD MSTORE PUSH2 0x4B45 DUP2 PUSH2 0x4B0C JUMP JUMPDEST SWAP1 POP SWAP2 SWAP1 POP JUMP JUMPDEST PUSH32 0x53616D652067656E646572000000000000000000000000000000000000000000 PUSH0 DUP3 ADD MSTORE POP JUMP JUMPDEST PUSH0 PUSH2 0x4B80 PUSH1 0xB DUP4 PUSH2 0x3DC7 JUMP JUMPDEST SWAP2 POP PUSH2 0x4B8B DUP3 PUSH2 0x4B4C JUMP JUMPDEST PUSH1 0x20 DUP3 ADD SWAP1 POP SWAP2 SWAP1 POP JUMP JUMPDEST PUSH0 PUSH1 0x20 DUP3 ADD SWAP1 POP DUP2 DUP2 SUB PUSH0 DUP4 ADD MSTORE PUSH2 0x4BAD DUP2 PUSH2 0x4B74 JUMP JUMPDEST SWAP1 POP SWAP2 SWAP1 POP JUMP JUMPDEST PUSH0 PUSH2 0x4BBE DUP3 PUSH2 0x3CAC JUMP JUMPDEST SWAP2 POP PUSH2 0x4BC9 DUP4 PUSH2 0x3CAC JUMP JUMPDEST SWAP3 POP DUP3 DUP3 SUB SWAP1 POP DUP2 DUP2 GT ISZERO PUSH2 0x4BE1 JUMPI PUSH2 0x4BE0 PUSH2 0x491A JUMP JUMPDEST JUMPDEST SWAP3 SWAP2 POP POP JUMP JUMPDEST PUSH0 DUP2 SWAP1 POP SWAP3 SWAP2 POP POP JUMP JUMPDEST PUSH0 DUP2 SLOAD PUSH2 0x4BFD DUP2 PUSH2 0x467E JUMP JUMPDEST PUSH2 0x4C07 DUP2 DUP7 PUSH2 0x4BE7 JUMP JUMPDEST SWAP5 POP PUSH1 0x1 DUP3 AND PUSH0 DUP2 EQ PUSH2 0x4C21 JUMPI PUSH1 0x1 DUP2 EQ PUSH2 0x4C36 JUMPI PUSH2 0x4C68 JUMP JUMPDEST PUSH1 0xFF NOT DUP4 AND DUP7 MSTORE DUP2 ISZERO ISZERO DUP3 MUL DUP7 ADD SWAP4 POP PUSH2 0x4C68 JUMP JUMPDEST PUSH2 0x4C3F DUP6 PUSH2 0x46AE JUMP JUMPDEST PUSH0 JUMPDEST DUP4 DUP2 LT ISZERO PUSH2 0x4C60 JUMPI DUP2 SLOAD DUP2 DUP10 ADD MSTORE PUSH1 0x1 DUP3 ADD SWAP2 POP PUSH1 0x20 DUP2 ADD SWAP1 POP PUSH2 0x4C41 JUMP JUMPDEST DUP4 DUP9 ADD SWAP6 POP POP POP JUMPDEST POP POP POP SWAP3 SWAP2 POP POP JUMP JUMPDEST PUSH0 PUSH2 0x4C7B DUP3 PUSH2 0x3DBD JUMP JUMPDEST PUSH2 0x4C85 DUP2 DUP6 PUSH2 0x4BE7 JUMP JUMPDEST SWAP4 POP PUSH2 0x4C95 DUP2 DUP6 PUSH1 0x20 DUP7 ADD PUSH2 0x3DD7 JUMP JUMPDEST DUP1 DUP5 ADD SWAP2 POP POP SWAP3 SWAP2 POP POP JUMP JUMPDEST PUSH0 PUSH2 0x4CAC DUP3 DUP6 PUSH2 0x4BF1 JUMP JUMPDEST SWAP2 POP PUSH2 0x4CB8 DUP3 DUP5 PUSH2 0x4C71 JUMP JUMPDEST SWAP2 POP DUP2 SWAP1 POP SWAP4 SWAP3 POP POP POP JUMP JUMPDEST PUSH32 0x5F65676700000000000000000000000000000000000000000000000000000000 PUSH0 DUP3 ADD MSTORE POP JUMP JUMPDEST PUSH0 PUSH2 0x4CF8 PUSH1 0x4 DUP4 PUSH2 0x4BE7 JUMP JUMPDEST SWAP2 POP PUSH2 0x4D03 DUP3 PUSH2 0x4CC4 JUMP JUMPDEST PUSH1 0x4 DUP3 ADD SWAP1 POP SWAP2 SWAP1 POP JUMP JUMPDEST PUSH0 PUSH2 0x4D19 DUP3 DUP5 PUSH2 0x4BF1 JUMP JUMPDEST SWAP2 POP PUSH2 0x4D24 DUP3 PUSH2 0x4CEC JUMP JUMPDEST SWAP2 POP DUP2 SWAP1 POP SWAP3 SWAP2 POP POP JUMP JUMPDEST PUSH32 0x5F00000000000000000000000000000000000000000000000000000000000000 PUSH0 DUP3 ADD MSTORE POP JUMP JUMPDEST PUSH0 PUSH2 0x4D63 PUSH1 0x1 DUP4 PUSH2 0x4BE7 JUMP JUMPDEST SWAP2 POP PUSH2 0x4D6E DUP3 PUSH2 0x4D2F JUMP JUMPDEST PUSH1 0x1 DUP3 ADD SWAP1 POP SWAP2 SWAP1 POP JUMP JUMPDEST PUSH0 DUP2 SWAP1 POP SWAP2 SWAP1 POP JUMP JUMPDEST PUSH2 0x4D93 PUSH2 0x4D8E DUP3 PUSH2 0x3CAC JUMP JUMPDEST PUSH2 0x4D79 JUMP JUMPDEST DUP3 MSTORE POP POP JUMP JUMPDEST PUSH0 PUSH2 0x4DA4 DUP3 DUP8 PUSH2 0x4BF1 JUMP JUMPDEST SWAP2 POP PUSH2 0x4DAF DUP3 PUSH2 0x4D57 JUMP JUMPDEST SWAP2 POP PUSH2 0x4DBB DUP3 DUP7 PUSH2 0x4C71 JUMP JUMPDEST SWAP2 POP PUSH2 0x4DC6 DUP3 PUSH2 0x4D57 JUMP JUMPDEST SWAP2 POP PUSH2 0x4DD2 DUP3 DUP6 PUSH2 0x4D82 JUMP JUMPDEST PUSH1 0x20 DUP3 ADD SWAP2 POP PUSH2 0x4DE1 DUP3 PUSH2 0x4D57 JUMP JUMPDEST SWAP2 POP PUSH2 0x4DED DUP3 DUP5 PUSH2 0x4C71 JUMP JUMPDEST SWAP2 POP DUP2 SWAP1 POP SWAP6 SWAP5 POP POP POP POP POP JUMP JUMPDEST PUSH32 0x7B226E616D65223A2022447261676F6E20230000000000000000000000000000 DUP2 MSTORE POP JUMP JUMPDEST PUSH0 PUSH2 0x4E2B DUP3 PUSH2 0x4DFB JUMP JUMPDEST PUSH1 0x12 DUP3 ADD SWAP2 POP PUSH2 0x4E3B DUP3 DUP5 PUSH2 0x4C71 JUMP JUMPDEST SWAP2 POP DUP2 SWAP1 POP SWAP3 SWAP2 POP POP JUMP JUMPDEST PUSH32 0x222C2265787465726E616C5F75726C223A2268747470733A2F2F68747470733A PUSH0 DUP3 ADD MSTORE PUSH32 0x2F2F6769746875622E636F6D2F626368736F6C2F43727970746F447261676F6E PUSH1 0x20 DUP3 ADD MSTORE PUSH32 0x222C22696D616765223A22000000000000000000000000000000000000000000 PUSH1 0x40 DUP3 ADD MSTORE POP JUMP JUMPDEST PUSH0 PUSH2 0x4EC6 PUSH1 0x4B DUP4 PUSH2 0x4BE7 JUMP JUMPDEST SWAP2 POP PUSH2 0x4ED1 DUP3 PUSH2 0x4E46 JUMP JUMPDEST PUSH1 0x4B DUP3 ADD SWAP1 POP SWAP2 SWAP1 POP JUMP JUMPDEST PUSH0 PUSH2 0x4EE7 DUP3 DUP6 PUSH2 0x4C71 JUMP JUMPDEST SWAP2 POP PUSH2 0x4EF3 DUP3 DUP5 PUSH2 0x4BF1 JUMP JUMPDEST SWAP2 POP PUSH2 0x4EFE DUP3 PUSH2 0x4EBA JUMP JUMPDEST SWAP2 POP DUP2 SWAP1 POP SWAP4 SWAP3 POP POP POP JUMP JUMPDEST PUSH0 PUSH2 0x4F15 DUP3 DUP6 PUSH2 0x4C71 JUMP JUMPDEST SWAP2 POP PUSH2 0x4F21 DUP3 DUP5 PUSH2 0x4C71 JUMP JUMPDEST SWAP2 POP DUP2 SWAP1 POP SWAP4 SWAP3 POP POP POP JUMP JUMPDEST PUSH32 0x222C2261747472696275746573223A5B7B2274726169745F74797065223A2244 PUSH0 DUP3 ADD MSTORE PUSH32 0x7261676F6E222C2276616C7565223A2200000000000000000000000000000000 PUSH1 0x20 DUP3 ADD MSTORE POP JUMP JUMPDEST PUSH0 PUSH2 0x4F87 PUSH1 0x30 DUP4 PUSH2 0x4BE7 JUMP JUMPDEST SWAP2 POP PUSH2 0x4F92 DUP3 PUSH2 0x4F2D JUMP JUMPDEST PUSH1 0x30 DUP3 ADD SWAP1 POP SWAP2 SWAP1 POP JUMP JUMPDEST PUSH0 PUSH2 0x4FA7 DUP3 PUSH2 0x4F7B JUMP JUMPDEST SWAP2 POP PUSH2 0x4FB3 DUP3 DUP5 PUSH2 0x4BF1 JUMP JUMPDEST SWAP2 POP DUP2 SWAP1 POP SWAP3 SWAP2 POP POP JUMP JUMPDEST PUSH32 0x646174613A6170706C69636174696F6E2F6A736F6E3B757466382C0000000000 DUP2 MSTORE POP JUMP JUMPDEST PUSH0 PUSH2 0x4FEE DUP3 PUSH2 0x4FBE JUMP JUMPDEST PUSH1 0x1B DUP3 ADD SWAP2 POP PUSH2 0x4FFE DUP3 DUP5 PUSH2 0x4C71 JUMP JUMPDEST SWAP2 POP DUP2 SWAP1 POP SWAP3 SWAP2 POP POP JUMP JUMPDEST PUSH32 0x6C696D6974206578636565646564000000000000000000000000000000000000 PUSH0 DUP3 ADD MSTORE POP JUMP JUMPDEST PUSH0 PUSH2 0x503D PUSH1 0xE DUP4 PUSH2 0x3DC7 JUMP JUMPDEST SWAP2 POP PUSH2 0x5048 DUP3 PUSH2 0x5009 JUMP JUMPDEST PUSH1 0x20 DUP3 ADD SWAP1 POP SWAP2 SWAP1 POP JUMP JUMPDEST PUSH0 PUSH1 0x20 DUP3 ADD SWAP1 POP DUP2 DUP2 SUB PUSH0 DUP4 ADD MSTORE PUSH2 0x506A DUP2 PUSH2 0x5031 JUMP JUMPDEST SWAP1 POP SWAP2 SWAP1 POP JUMP JUMPDEST PUSH0 PUSH2 0x507B DUP3 PUSH2 0x3CAC JUMP JUMPDEST SWAP2 POP PUSH32 0xFFFFFFFFFFFFFFFFFFFFFFFFFFFFFFFFFFFFFFFFFFFFFFFFFFFFFFFFFFFFFFFF DUP3 SUB PUSH2 0x50AD JUMPI PUSH2 0x50AC PUSH2 0x491A JUMP JUMPDEST JUMPDEST PUSH1 0x1 DUP3 ADD SWAP1 POP SWAP2 SWAP1 POP JUMP JUMPDEST PUSH0 DUP2 PUSH1 0x60 SHL SWAP1 POP SWAP2 SWAP1 POP JUMP JUMPDEST PUSH0 PUSH2 0x50CE DUP3 PUSH2 0x50B8 JUMP JUMPDEST SWAP1 POP SWAP2 SWAP1 POP JUMP JUMPDEST PUSH0 PUSH2 0x50DF DUP3 PUSH2 0x50C4 JUMP JUMPDEST SWAP1 POP SWAP2 SWAP1 POP JUMP JUMPDEST PUSH2 0x50F7 PUSH2 0x50F2 DUP3 PUSH2 0x3E6C JUMP JUMPDEST PUSH2 0x50D5 JUMP JUMPDEST DUP3 MSTORE POP POP JUMP JUMPDEST PUSH0 PUSH2 0x5108 DUP3 DUP7 PUSH2 0x4D82 JUMP JUMPDEST PUSH1 0x20 DUP3 ADD SWAP2 POP PUSH2 0x5118 DUP3 DUP6 PUSH2 0x50E6 JUMP JUMPDEST PUSH1 0x14 DUP3 ADD SWAP2 POP PUSH2 0x5128 DUP3 DUP5 PUSH2 0x4D82 JUMP JUMPDEST PUSH1 0x20 DUP3 ADD SWAP2 POP DUP2 SWAP1 POP SWAP5 SWAP4 POP POP POP POP JUMP JUMPDEST PUSH32 0x4E487B7100000000000000000000000000000000000000000000000000000000 PUSH0 MSTORE PUSH1 0x12 PUSH1 0x4 MSTORE PUSH1 0x24 PUSH0 REVERT JUMPDEST PUSH0 PUSH2 0x5170 DUP3 PUSH2 0x3CAC JUMP JUMPDEST SWAP2 POP PUSH2 0x517B DUP4 PUSH2 0x3CAC JUMP JUMPDEST SWAP3 POP DUP3 PUSH2 0x518B JUMPI PUSH2 0x518A PUSH2 0x5139 JUMP JUMPDEST JUMPDEST DUP3 DUP3 MOD SWAP1 POP SWAP3 SWAP2 POP POP JUMP JUMPDEST PUSH2 0x519F DUP2 PUSH2 0x41F0 JUMP JUMPDEST DUP2 EQ PUSH2 0x51A9 JUMPI PUSH0 DUP1 REVERT JUMPDEST POP JUMP JUMPDEST PUSH0 DUP2 MLOAD SWAP1 POP PUSH2 0x51BA DUP2 PUSH2 0x5196 JUMP JUMPDEST SWAP3 SWAP2 POP POP JUMP JUMPDEST PUSH0 PUSH1 0x20 DUP3 DUP5 SUB SLT ISZERO PUSH2 0x51D5 JUMPI PUSH2 0x51D4 PUSH2 0x3CA4 JUMP JUMPDEST JUMPDEST PUSH0 PUSH2 0x51E2 DUP5 DUP3 DUP6 ADD PUSH2 0x51AC JUMP JUMPDEST SWAP2 POP POP SWAP3 SWAP2 POP POP JUMP JUMPDEST PUSH0 DUP2 MLOAD SWAP1 POP SWAP2 SWAP1 POP JUMP JUMPDEST PUSH0 DUP3 DUP3 MSTORE PUSH1 0x20 DUP3 ADD SWAP1 POP SWAP3 SWAP2 POP POP JUMP JUMPDEST PUSH0 PUSH2 0x520F DUP3 PUSH2 0x51EB JUMP JUMPDEST PUSH2 0x5219 DUP2 DUP6 PUSH2 0x51F5 JUMP JUMPDEST SWAP4 POP PUSH2 0x5229 DUP2 DUP6 PUSH1 0x20 DUP7 ADD PUSH2 0x3DD7 JUMP JUMPDEST PUSH2 0x5232 DUP2 PUSH2 0x3DE5 JUMP JUMPDEST DUP5 ADD SWAP2 POP POP SWAP3 SWAP2 POP POP JUMP JUMPDEST PUSH0 PUSH1 0x80 DUP3 ADD SWAP1 POP PUSH2 0x5250 PUSH0 DUP4 ADD DUP8 PUSH2 0x3E7D JUMP JUMPDEST PUSH2 0x525D PUSH1 0x20 DUP4 ADD DUP7 PUSH2 0x3E7D JUMP JUMPDEST PUSH2 0x526A PUSH1 0x40 DUP4 ADD DUP6 PUSH2 0x40D0 JUMP JUMPDEST DUP2 DUP2 SUB PUSH1 0x60 DUP4 ADD MSTORE PUSH2 0x527C DUP2 DUP5 PUSH2 0x5205 JUMP JUMPDEST SWAP1 POP SWAP6 SWAP5 POP POP POP POP POP JUMP JUMPDEST PUSH0 DUP2 MLOAD SWAP1 POP PUSH2 0x5295 DUP2 PUSH2 0x3D35 JUMP JUMPDEST SWAP3 SWAP2 POP POP JUMP JUMPDEST PUSH0 PUSH1 0x20 DUP3 DUP5 SUB SLT ISZERO PUSH2 0x52B0 JUMPI PUSH2 0x52AF PUSH2 0x3CA4 JUMP JUMPDEST JUMPDEST PUSH0 PUSH2 0x52BD DUP5 DUP3 DUP6 ADD PUSH2 0x5287 JUMP JUMPDEST SWAP2 POP POP SWAP3 SWAP2 POP POP JUMP JUMPDEST PUSH0 PUSH1 0x40 DUP3 ADD SWAP1 POP PUSH2 0x52D9 PUSH0 DUP4 ADD DUP6 PUSH2 0x3E7D JUMP JUMPDEST PUSH2 0x52E6 PUSH1 0x20 DUP4 ADD DUP5 PUSH2 0x40D0 JUMP JUMPDEST SWAP4 SWAP3 POP POP POP JUMP JUMPDEST PUSH0 DUP2 SWAP1 POP SWAP3 SWAP2 POP POP JUMP JUMPDEST PUSH0 PUSH2 0x5301 DUP3 PUSH2 0x51EB JUMP JUMPDEST PUSH2 0x530B DUP2 DUP6 PUSH2 0x52ED JUMP JUMPDEST SWAP4 POP PUSH2 0x531B DUP2 DUP6 PUSH1 0x20 DUP7 ADD PUSH2 0x3DD7 JUMP JUMPDEST DUP1 DUP5 ADD SWAP2 POP POP SWAP3 SWAP2 POP POP JUMP JUMPDEST PUSH0 PUSH2 0x5332 DUP3 DUP5 PUSH2 0x52F7 JUMP JUMPDEST SWAP2 POP DUP2 SWAP1 POP SWAP3 SWAP2 POP POP JUMP INVALID LOG2 PUSH5 0x6970667358 0x22 SLT KECCAK256 0xA9 CALLDATALOAD MUL MCOPY PUSH27 0x8F42733BE68E2F9FE5E7906897B4F338C9F334BA19DA193934522F PUSH5 0x736F6C6343 STOP ADDMOD NOT STOP CALLER "
		},
		"gasEstimates": {
			"creation": {
				"codeDepositCost": "4272600",
				"executionCost": "infinite",
				"totalCost": "infinite"
			},
			"external": {
				"GENESIS_LIMIT()": "393",
				"UPGRADE_INTERFACE_VERSION()": "infinite",
				"approve(address,uint256)": "infinite",
				"balanceOf(address)": "infinite",
				"baseTokenURI()": "infinite",
				"breed(string,uint256,uint256)": "infinite",
				"dataURI()": "infinite",
				"evolve(uint256)": "infinite",
				"feeding(uint256)": "infinite",
				"forceEvolve(uint256)": "infinite",
				"genesisCount()": "2557",
				"genesisMint(address,string)": "infinite",
				"getApproved(uint256)": "infinite",
				"getBreedInfo(uint256)": "infinite",
				"getGrowthInfo(uint256)": "infinite",
				"initialize(address,string,string)": "infinite",
				"isApprovedForAll(address,address)": "infinite",
				"metaDescription()": "infinite",
				"name()": "infinite",
				"owner()": "2700",
				"ownerOf(uint256)": "infinite",
				"proxiableUUID()": "infinite",
				"renounceOwnership()": "infinite",
				"safeTransferFrom(address,address,uint256)": "infinite",
				"safeTransferFrom(address,address,uint256,bytes)": "infinite",
				"setApprovalForAll(address,bool)": "infinite",
				"setDataURI(string)": "infinite",
				"setMetaDescription(string)": "infinite",
				"setTokenURI(string)": "infinite",
				"supportsInterface(bytes4)": "968",
				"symbol()": "infinite",
				"tokenURI(uint256)": "infinite",
				"transferFrom(address,address,uint256)": "infinite",
				"transferOwnership(address)": "infinite",
				"upgradeToAndCall(address,bytes)": "infinite"
			}
		},
		"methodIdentifiers": {
			"GENESIS_LIMIT()": "43463394",
			"UPGRADE_INTERFACE_VERSION()": "ad3cb1cc",
			"approve(address,uint256)": "095ea7b3",
			"balanceOf(address)": "70a08231",
			"baseTokenURI()": "d547cfb7",
			"breed(string,uint256,uint256)": "99683c22",
			"dataURI()": "f28ca1dd",
			"evolve(uint256)": "f119f567",
			"feeding(uint256)": "00e00064",
			"forceEvolve(uint256)": "1bc80eff",
			"genesisCount()": "fffad312",
			"genesisMint(address,string)": "cfd94a17",
			"getApproved(uint256)": "081812fc",
			"getBreedInfo(uint256)": "86838c60",
			"getGrowthInfo(uint256)": "b564ea86",
			"initialize(address,string,string)": "90657147",
			"isApprovedForAll(address,address)": "e985e9c5",
			"metaDescription()": "edeb4bbe",
			"name()": "06fdde03",
			"owner()": "8da5cb5b",
			"ownerOf(uint256)": "6352211e",
			"proxiableUUID()": "52d1902d",
			"renounceOwnership()": "715018a6",
			"safeTransferFrom(address,address,uint256)": "42842e0e",
			"safeTransferFrom(address,address,uint256,bytes)": "b88d4fde",
			"setApprovalForAll(address,bool)": "a22cb465",
			"setDataURI(string)": "18d217c3",
			"setMetaDescription(string)": "bd9ba9e8",
			"setTokenURI(string)": "e0df5b6f",
			"supportsInterface(bytes4)": "01ffc9a7",
			"symbol()": "95d89b41",
			"tokenURI(uint256)": "c87b56dd",
			"transferFrom(address,address,uint256)": "23b872dd",
			"transferOwnership(address)": "f2fde38b",
			"upgradeToAndCall(address,bytes)": "4f1ef286"
		}
	},
	"abi": [
		{
			"inputs": [
				{
					"internalType": "address",
					"name": "target",
					"type": "address"
				}
			],
			"name": "AddressEmptyCode",
			"type": "error"
		},
		{
			"inputs": [
				{
					"internalType": "address",
					"name": "implementation",
					"type": "address"
				}
			],
			"name": "ERC1967InvalidImplementation",
			"type": "error"
		},
		{
			"inputs": [],
			"name": "ERC1967NonPayable",
			"type": "error"
		},
		{
			"inputs": [
				{
					"internalType": "address",
					"name": "sender",
					"type": "address"
				},
				{
					"internalType": "uint256",
					"name": "tokenId",
					"type": "uint256"
				},
				{
					"internalType": "address",
					"name": "owner",
					"type": "address"
				}
			],
			"name": "ERC721IncorrectOwner",
			"type": "error"
		},
		{
			"inputs": [
				{
					"internalType": "address",
					"name": "operator",
					"type": "address"
				},
				{
					"internalType": "uint256",
					"name": "tokenId",
					"type": "uint256"
				}
			],
			"name": "ERC721InsufficientApproval",
			"type": "error"
		},
		{
			"inputs": [
				{
					"internalType": "address",
					"name": "approver",
					"type": "address"
				}
			],
			"name": "ERC721InvalidApprover",
			"type": "error"
		},
		{
			"inputs": [
				{
					"internalType": "address",
					"name": "operator",
					"type": "address"
				}
			],
			"name": "ERC721InvalidOperator",
			"type": "error"
		},
		{
			"inputs": [
				{
					"internalType": "address",
					"name": "owner",
					"type": "address"
				}
			],
			"name": "ERC721InvalidOwner",
			"type": "error"
		},
		{
			"inputs": [
				{
					"internalType": "address",
					"name": "receiver",
					"type": "address"
				}
			],
			"name": "ERC721InvalidReceiver",
			"type": "error"
		},
		{
			"inputs": [
				{
					"internalType": "address",
					"name": "sender",
					"type": "address"
				}
			],
			"name": "ERC721InvalidSender",
			"type": "error"
		},
		{
			"inputs": [
				{
					"internalType": "uint256",
					"name": "tokenId",
					"type": "uint256"
				}
			],
			"name": "ERC721NonexistentToken",
			"type": "error"
		},
		{
			"inputs": [],
			"name": "FailedInnerCall",
			"type": "error"
		},
		{
			"inputs": [],
			"name": "InvalidInitialization",
			"type": "error"
		},
		{
			"inputs": [],
			"name": "NotInitializing",
			"type": "error"
		},
		{
			"inputs": [
				{
					"internalType": "address",
					"name": "owner",
					"type": "address"
				}
			],
			"name": "OwnableInvalidOwner",
			"type": "error"
		},
		{
			"inputs": [
				{
					"internalType": "address",
					"name": "account",
					"type": "address"
				}
			],
			"name": "OwnableUnauthorizedAccount",
			"type": "error"
		},
		{
			"inputs": [],
			"name": "UUPSUnauthorizedCallContext",
			"type": "error"
		},
		{
			"inputs": [
				{
					"internalType": "bytes32",
					"name": "slot",
					"type": "bytes32"
				}
			],
			"name": "UUPSUnsupportedProxiableUUID",
			"type": "error"
		},
		{
			"anonymous": false,
			"inputs": [
				{
					"indexed": true,
					"internalType": "address",
					"name": "owner",
					"type": "address"
				},
				{
					"indexed": true,
					"internalType": "address",
					"name": "approved",
					"type": "address"
				},
				{
					"indexed": true,
					"internalType": "uint256",
					"name": "tokenId",
					"type": "uint256"
				}
			],
			"name": "Approval",
			"type": "event"
		},
		{
			"anonymous": false,
			"inputs": [
				{
					"indexed": true,
					"internalType": "address",
					"name": "owner",
					"type": "address"
				},
				{
					"indexed": true,
					"internalType": "address",
					"name": "operator",
					"type": "address"
				},
				{
					"indexed": false,
					"internalType": "bool",
					"name": "approved",
					"type": "bool"
				}
			],
			"name": "ApprovalForAll",
			"type": "event"
		},
		{
			"anonymous": false,
			"inputs": [
				{
					"indexed": false,
					"internalType": "uint256",
					"name": "_fromTokenId",
					"type": "uint256"
				},
				{
					"indexed": false,
					"internalType": "uint256",
					"name": "_toTokenId",
					"type": "uint256"
				}
			],
			"name": "BatchMetadataUpdate",
			"type": "event"
		},
		{
			"anonymous": false,
			"inputs": [
				{
					"indexed": false,
					"internalType": "uint64",
					"name": "version",
					"type": "uint64"
				}
			],
			"name": "Initialized",
			"type": "event"
		},
		{
			"anonymous": false,
			"inputs": [
				{
					"indexed": false,
					"internalType": "uint256",
					"name": "_tokenId",
					"type": "uint256"
				}
			],
			"name": "MetadataUpdate",
			"type": "event"
		},
		{
			"anonymous": false,
			"inputs": [
				{
					"indexed": true,
					"internalType": "address",
					"name": "previousOwner",
					"type": "address"
				},
				{
					"indexed": true,
					"internalType": "address",
					"name": "newOwner",
					"type": "address"
				}
			],
			"name": "OwnershipTransferred",
			"type": "event"
		},
		{
			"anonymous": false,
			"inputs": [
				{
					"indexed": true,
					"internalType": "address",
					"name": "from",
					"type": "address"
				},
				{
					"indexed": true,
					"internalType": "address",
					"name": "to",
					"type": "address"
				},
				{
					"indexed": true,
					"internalType": "uint256",
					"name": "tokenId",
					"type": "uint256"
				}
			],
			"name": "Transfer",
			"type": "event"
		},
		{
			"anonymous": false,
			"inputs": [
				{
					"indexed": true,
					"internalType": "address",
					"name": "implementation",
					"type": "address"
				}
			],
			"name": "Upgraded",
			"type": "event"
		},
		{
			"inputs": [],
			"name": "GENESIS_LIMIT",
			"outputs": [
				{
					"internalType": "uint256",
					"name": "",
					"type": "uint256"
				}
			],
			"stateMutability": "view",
			"type": "function"
		},
		{
			"inputs": [],
			"name": "UPGRADE_INTERFACE_VERSION",
			"outputs": [
				{
					"internalType": "string",
					"name": "",
					"type": "string"
				}
			],
			"stateMutability": "view",
			"type": "function"
		},
		{
			"inputs": [
				{
					"internalType": "address",
					"name": "to",
					"type": "address"
				},
				{
					"internalType": "uint256",
					"name": "tokenId",
					"type": "uint256"
				}
			],
			"name": "approve",
			"outputs": [],
			"stateMutability": "nonpayable",
			"type": "function"
		},
		{
			"inputs": [
				{
					"internalType": "address",
					"name": "owner",
					"type": "address"
				}
			],
			"name": "balanceOf",
			"outputs": [
				{
					"internalType": "uint256",
					"name": "",
					"type": "uint256"
				}
			],
			"stateMutability": "view",
			"type": "function"
		},
		{
			"inputs": [],
			"name": "baseTokenURI",
			"outputs": [
				{
					"internalType": "string",
					"name": "",
					"type": "string"
				}
			],
			"stateMutability": "view",
			"type": "function"
		},
		{
			"inputs": [
				{
					"internalType": "string",
					"name": "tokenType",
					"type": "string"
				},
				{
					"internalType": "uint256",
					"name": "husbandId",
					"type": "uint256"
				},
				{
					"internalType": "uint256",
					"name": "wifeId",
					"type": "uint256"
				}
			],
			"name": "breed",
			"outputs": [
				{
					"internalType": "uint256",
					"name": "",
					"type": "uint256"
				}
			],
			"stateMutability": "payable",
			"type": "function"
		},
		{
			"inputs": [],
			"name": "dataURI",
			"outputs": [
				{
					"internalType": "string",
					"name": "",
					"type": "string"
				}
			],
			"stateMutability": "view",
			"type": "function"
		},
		{
			"inputs": [
				{
					"internalType": "uint256",
					"name": "tokenId",
					"type": "uint256"
				}
			],
			"name": "evolve",
			"outputs": [],
			"stateMutability": "nonpayable",
			"type": "function"
		},
		{
			"inputs": [
				{
					"internalType": "uint256",
					"name": "tokenId",
					"type": "uint256"
				}
			],
			"name": "feeding",
			"outputs": [],
			"stateMutability": "nonpayable",
			"type": "function"
		},
		{
			"inputs": [
				{
					"internalType": "uint256",
					"name": "tokenId",
					"type": "uint256"
				}
			],
			"name": "forceEvolve",
			"outputs": [],
			"stateMutability": "nonpayable",
			"type": "function"
		},
		{
			"inputs": [],
			"name": "genesisCount",
			"outputs": [
				{
					"internalType": "uint256",
					"name": "",
					"type": "uint256"
				}
			],
			"stateMutability": "view",
			"type": "function"
		},
		{
			"inputs": [
				{
					"internalType": "address",
					"name": "owner",
					"type": "address"
				},
				{
					"internalType": "string",
					"name": "tokenType",
					"type": "string"
				}
			],
			"name": "genesisMint",
			"outputs": [],
			"stateMutability": "nonpayable",
			"type": "function"
		},
		{
			"inputs": [
				{
					"internalType": "uint256",
					"name": "tokenId",
					"type": "uint256"
				}
			],
			"name": "getApproved",
			"outputs": [
				{
					"internalType": "address",
					"name": "",
					"type": "address"
				}
			],
			"stateMutability": "view",
			"type": "function"
		},
		{
			"inputs": [
				{
					"internalType": "uint256",
					"name": "tokenId",
					"type": "uint256"
				}
			],
			"name": "getBreedInfo",
			"outputs": [
				{
					"internalType": "uint256",
					"name": "releaseTime",
					"type": "uint256"
				},
				{
					"internalType": "uint256",
					"name": "count",
					"type": "uint256"
				}
			],
			"stateMutability": "view",
			"type": "function"
		},
		{
			"inputs": [
				{
					"internalType": "uint256",
					"name": "tokenId",
					"type": "uint256"
				}
			],
			"name": "getGrowthInfo",
			"outputs": [
				{
					"internalType": "enum TokenBase.GrowthStage",
					"name": "currentStage",
					"type": "uint8"
				},
				{
					"internalType": "uint256",
					"name": "timeRemaining",
					"type": "uint256"
				}
			],
			"stateMutability": "view",
			"type": "function"
		},
		{
			"inputs": [
				{
					"internalType": "address",
					"name": "initialOwner",
					"type": "address"
				},
				{
					"internalType": "string",
					"name": "name",
					"type": "string"
				},
				{
					"internalType": "string",
					"name": "symbol",
					"type": "string"
				}
			],
			"name": "initialize",
			"outputs": [],
			"stateMutability": "nonpayable",
			"type": "function"
		},
		{
			"inputs": [
				{
					"internalType": "address",
					"name": "owner",
					"type": "address"
				},
				{
					"internalType": "address",
					"name": "operator",
					"type": "address"
				}
			],
			"name": "isApprovedForAll",
			"outputs": [
				{
					"internalType": "bool",
					"name": "",
					"type": "bool"
				}
			],
			"stateMutability": "view",
			"type": "function"
		},
		{
			"inputs": [],
			"name": "metaDescription",
			"outputs": [
				{
					"internalType": "string",
					"name": "",
					"type": "string"
				}
			],
			"stateMutability": "view",
			"type": "function"
		},
		{
			"inputs": [],
			"name": "name",
			"outputs": [
				{
					"internalType": "string",
					"name": "",
					"type": "string"
				}
			],
			"stateMutability": "view",
			"type": "function"
		},
		{
			"inputs": [],
			"name": "owner",
			"outputs": [
				{
					"internalType": "address",
					"name": "",
					"type": "address"
				}
			],
			"stateMutability": "view",
			"type": "function"
		},
		{
			"inputs": [
				{
					"internalType": "uint256",
					"name": "tokenId",
					"type": "uint256"
				}
			],
			"name": "ownerOf",
			"outputs": [
				{
					"internalType": "address",
					"name": "",
					"type": "address"
				}
			],
			"stateMutability": "view",
			"type": "function"
		},
		{
			"inputs": [],
			"name": "proxiableUUID",
			"outputs": [
				{
					"internalType": "bytes32",
					"name": "",
					"type": "bytes32"
				}
			],
			"stateMutability": "view",
			"type": "function"
		},
		{
			"inputs": [],
			"name": "renounceOwnership",
			"outputs": [],
			"stateMutability": "nonpayable",
			"type": "function"
		},
		{
			"inputs": [
				{
					"internalType": "address",
					"name": "from",
					"type": "address"
				},
				{
					"internalType": "address",
					"name": "to",
					"type": "address"
				},
				{
					"internalType": "uint256",
					"name": "tokenId",
					"type": "uint256"
				}
			],
			"name": "safeTransferFrom",
			"outputs": [],
			"stateMutability": "nonpayable",
			"type": "function"
		},
		{
			"inputs": [
				{
					"internalType": "address",
					"name": "from",
					"type": "address"
				},
				{
					"internalType": "address",
					"name": "to",
					"type": "address"
				},
				{
					"internalType": "uint256",
					"name": "tokenId",
					"type": "uint256"
				},
				{
					"internalType": "bytes",
					"name": "data",
					"type": "bytes"
				}
			],
			"name": "safeTransferFrom",
			"outputs": [],
			"stateMutability": "nonpayable",
			"type": "function"
		},
		{
			"inputs": [
				{
					"internalType": "address",
					"name": "operator",
					"type": "address"
				},
				{
					"internalType": "bool",
					"name": "approved",
					"type": "bool"
				}
			],
			"name": "setApprovalForAll",
			"outputs": [],
			"stateMutability": "nonpayable",
			"type": "function"
		},
		{
			"inputs": [
				{
					"internalType": "string",
					"name": "_dataURI",
					"type": "string"
				}
			],
			"name": "setDataURI",
			"outputs": [],
			"stateMutability": "nonpayable",
			"type": "function"
		},
		{
			"inputs": [
				{
					"internalType": "string",
					"name": "_metaDec",
					"type": "string"
				}
			],
			"name": "setMetaDescription",
			"outputs": [],
			"stateMutability": "nonpayable",
			"type": "function"
		},
		{
			"inputs": [
				{
					"internalType": "string",
					"name": "_tokenURI",
					"type": "string"
				}
			],
			"name": "setTokenURI",
			"outputs": [],
			"stateMutability": "nonpayable",
			"type": "function"
		},
		{
			"inputs": [
				{
					"internalType": "bytes4",
					"name": "interfaceId",
					"type": "bytes4"
				}
			],
			"name": "supportsInterface",
			"outputs": [
				{
					"internalType": "bool",
					"name": "",
					"type": "bool"
				}
			],
			"stateMutability": "view",
			"type": "function"
		},
		{
			"inputs": [],
			"name": "symbol",
			"outputs": [
				{
					"internalType": "string",
					"name": "",
					"type": "string"
				}
			],
			"stateMutability": "view",
			"type": "function"
		},
		{
			"inputs": [
				{
					"internalType": "uint256",
					"name": "tokenId",
					"type": "uint256"
				}
			],
			"name": "tokenURI",
			"outputs": [
				{
					"internalType": "string",
					"name": "",
					"type": "string"
				}
			],
			"stateMutability": "view",
			"type": "function"
		},
		{
			"inputs": [
				{
					"internalType": "address",
					"name": "from",
					"type": "address"
				},
				{
					"internalType": "address",
					"name": "to",
					"type": "address"
				},
				{
					"internalType": "uint256",
					"name": "tokenId",
					"type": "uint256"
				}
			],
			"name": "transferFrom",
			"outputs": [],
			"stateMutability": "nonpayable",
			"type": "function"
		},
		{
			"inputs": [
				{
					"internalType": "address",
					"name": "newOwner",
					"type": "address"
				}
			],
			"name": "transferOwnership",
			"outputs": [],
			"stateMutability": "nonpayable",
			"type": "function"
		},
		{
			"inputs": [
				{
					"internalType": "address",
					"name": "newImplementation",
					"type": "address"
				},
				{
					"internalType": "bytes",
					"name": "data",
					"type": "bytes"
				}
			],
			"name": "upgradeToAndCall",
			"outputs": [],
			"stateMutability": "payable",
			"type": "function"
		}
	]
}