{
	"data": {
		"bytecode": {
			"linkReferences": {},
			"object": "608060405234801561000f575f80fd5b50604051614bc2380380614bc283398181016040528101906100319190610354565b828282828282815f908161004591906105e9565b50806001908161005591906105e9565b5050505f73ffffffffffffffffffffffffffffffffffffffff168173ffffffffffffffffffffffffffffffffffffffff16036100c8575f6040517f1e4fbdf70000000000000000000000000000000000000000000000000000000081526004016100bf91906106c7565b60405180910390fd5b6100d7816100ea60201b60201c565b505f600d819055505050505050506106e0565b5f60075f9054906101000a900473ffffffffffffffffffffffffffffffffffffffff1690508160075f6101000a81548173ffffffffffffffffffffffffffffffffffffffff021916908373ffffffffffffffffffffffffffffffffffffffff1602179055508173ffffffffffffffffffffffffffffffffffffffff168173ffffffffffffffffffffffffffffffffffffffff167f8be0079c531659141344cd1fd0a4f28419497f9722a3daafe3b4186f6b6457e060405160405180910390a35050565b5f604051905090565b5f80fd5b5f80fd5b5f73ffffffffffffffffffffffffffffffffffffffff82169050919050565b5f6101e7826101be565b9050919050565b6101f7816101dd565b8114610201575f80fd5b50565b5f81519050610212816101ee565b92915050565b5f80fd5b5f80fd5b5f601f19601f8301169050919050565b7f4e487b71000000000000000000000000000000000000000000000000000000005f52604160045260245ffd5b61026682610220565b810181811067ffffffffffffffff8211171561028557610284610230565b5b80604052505050565b5f6102976101ad565b90506102a3828261025d565b919050565b5f67ffffffffffffffff8211156102c2576102c1610230565b5b6102cb82610220565b9050602081019050919050565b8281835e5f83830152505050565b5f6102f86102f3846102a8565b61028e565b9050828152602081018484840111156103145761031361021c565b5b61031f8482856102d8565b509392505050565b5f82601f83011261033b5761033a610218565b5b815161034b8482602086016102e6565b91505092915050565b5f805f6060848603121561036b5761036a6101b6565b5b5f61037886828701610204565b935050602084015167ffffffffffffffff811115610399576103986101ba565b5b6103a586828701610327565b925050604084015167ffffffffffffffff8111156103c6576103c56101ba565b5b6103d286828701610327565b9150509250925092565b5f81519050919050565b7f4e487b71000000000000000000000000000000000000000000000000000000005f52602260045260245ffd5b5f600282049050600182168061042a57607f821691505b60208210810361043d5761043c6103e6565b5b50919050565b5f819050815f5260205f209050919050565b5f6020601f8301049050919050565b5f82821b905092915050565b5f6008830261049f7fffffffffffffffffffffffffffffffffffffffffffffffffffffffffffffffff82610464565b6104a98683610464565b95508019841693508086168417925050509392505050565b5f819050919050565b5f819050919050565b5f6104ed6104e86104e3846104c1565b6104ca565b6104c1565b9050919050565b5f819050919050565b610506836104d3565b61051a610512826104f4565b848454610470565b825550505050565b5f90565b61052e610522565b6105398184846104fd565b505050565b5b8181101561055c576105515f82610526565b60018101905061053f565b5050565b601f8211156105a15761057281610443565b61057b84610455565b8101602085101561058a578190505b61059e61059685610455565b83018261053e565b50505b505050565b5f82821c905092915050565b5f6105c15f19846008026105a6565b1980831691505092915050565b5f6105d983836105b2565b9150826002028217905092915050565b6105f2826103dc565b67ffffffffffffffff81111561060b5761060a610230565b5b6106158254610413565b610620828285610560565b5f60209050601f831160018114610651575f841561063f578287015190505b61064985826105ce565b8655506106b0565b601f19841661065f86610443565b5f5b8281101561068657848901518255600182019150602085019450602081019050610661565b868310156106a3578489015161069f601f8916826105b2565b8355505b6001600288020188555050505b505050505050565b6106c1816101dd565b82525050565b5f6020820190506106da5f8301846106b8565b92915050565b6144d5806106ed5f395ff3fe6080604052600436106101c0575f3560e01c80638da5cb5b116100f6578063c87b56dd11610094578063edeb4bbe11610063578063edeb4bbe1461064c578063f119f56714610676578063f28ca1dd1461069e578063f2fde38b146106c8576101c0565b8063c87b56dd14610582578063d547cfb7146105be578063e0df5b6f146105e8578063e985e9c514610610576101c0565b8063a22cb465116100d0578063a22cb465146104cd578063b564ea86146104f5578063b88d4fde14610532578063bd9ba9e81461055a576101c0565b80638da5cb5b1461044957806395d89b411461047357806399683c221461049d576101c0565b806323b872dd116101635780636352211e1161013d5780636352211e1461037e57806370a08231146103ba578063715018a6146103f657806386838c601461040c576101c0565b806323b872dd1461030657806339e3aa7e1461032e57806342842e0e14610356576101c0565b8063081812fc1161019f578063081812fc14610252578063095ea7b31461028e57806318d217c3146102b65780631bc80eff146102de576101c0565b8062e00064146101c457806301ffc9a7146101ec57806306fdde0314610228575b5f80fd5b3480156101cf575f80fd5b506101ea60048036038101906101e591906130d3565b6106f0565b005b3480156101f7575f80fd5b50610212600480360381019061020d9190613153565b610931565b60405161021f9190613198565b60405180910390f35b348015610233575f80fd5b5061023c610942565b6040516102499190613221565b60405180910390f35b34801561025d575f80fd5b50610278600480360381019061027391906130d3565b6109d1565b6040516102859190613280565b60405180910390f35b348015610299575f80fd5b506102b460048036038101906102af91906132c3565b6109ec565b005b3480156102c1575f80fd5b506102dc60048036038101906102d7919061342d565b610a02565b005b3480156102e9575f80fd5b5061030460048036038101906102ff91906130d3565b610a1d565b005b348015610311575f80fd5b5061032c60048036038101906103279190613474565b610c38565b005b348015610339575f80fd5b50610354600480360381019061034f919061342d565b610d37565b005b348015610361575f80fd5b5061037c60048036038101906103779190613474565b610d52565b005b348015610389575f80fd5b506103a4600480360381019061039f91906130d3565b610d71565b6040516103b19190613280565b60405180910390f35b3480156103c5575f80fd5b506103e060048036038101906103db91906134c4565b610d82565b6040516103ed91906134fe565b60405180910390f35b348015610401575f80fd5b5061040a610e38565b005b348015610417575f80fd5b50610432600480360381019061042d91906130d3565b610e4b565b604051610440929190613517565b60405180910390f35b348015610454575f80fd5b5061045d610e7f565b60405161046a9190613280565b60405180910390f35b34801561047e575f80fd5b50610487610ea7565b6040516104949190613221565b60405180910390f35b6104b760048036038101906104b2919061353e565b610f37565b6040516104c491906134fe565b60405180910390f35b3480156104d8575f80fd5b506104f360048036038101906104ee91906135d4565b611104565b005b348015610500575f80fd5b5061051b600480360381019061051691906130d3565b61111a565b604051610529929190613685565b60405180910390f35b34801561053d575f80fd5b506105586004803603810190610553919061374a565b6112a2565b005b348015610565575f80fd5b50610580600480360381019061057b919061342d565b6112bf565b005b34801561058d575f80fd5b506105a860048036038101906105a391906130d3565b6112da565b6040516105b59190613221565b60405180910390f35b3480156105c9575f80fd5b506105d2611753565b6040516105df9190613221565b60405180910390f35b3480156105f3575f80fd5b5061060e6004803603810190610609919061342d565b6117df565b005b34801561061b575f80fd5b50610636600480360381019061063191906137ca565b6117fa565b6040516106439190613198565b60405180910390f35b348015610657575f80fd5b50610660611888565b60405161066d9190613221565b60405180910390f35b348015610681575f80fd5b5061069c600480360381019061069791906130d3565b611914565b005b3480156106a9575f80fd5b506106b2611bff565b6040516106bf9190613221565b60405180910390f35b3480156106d3575f80fd5b506106ee60048036038101906106e991906134c4565b611c8b565b005b60038081111561070357610702613612565b5b60085f8381526020019081526020015f205f9054906101000a900460ff16600381111561073357610732613612565b5b03610773576040517f08c379a000000000000000000000000000000000000000000000000000000000815260040161076a90613852565b60405180910390fd5b3373ffffffffffffffffffffffffffffffffffffffff1661079382610d71565b73ffffffffffffffffffffffffffffffffffffffff16146107e9576040517f08c379a00000000000000000000000000000000000000000000000000000000081526004016107e0906138ba565b60405180910390fd5b5f60085f8381526020019081526020015f205f9054906101000a900460ff1690505f600a5f8481526020019081526020015f2090505f4290505f600381111561083557610834613612565b5b83600381111561084857610847613612565b5b036108795761086d81600a5f8781526020019081526020015f205f0154612a30611d0f565b825f018190555061092b565b6001600381111561088d5761088c613612565b5b8360038111156108a05761089f613612565b5b036108d3576108c681600a5f8781526020019081526020015f2060010154612a30611d0f565b826001018190555061092a565b600260038111156108e7576108e6613612565b5b8360038111156108fa576108f9613612565b5b036109295761092081600a5f8781526020019081526020015f2060020154612a30611d0f565b82600201819055505b5b5b50505050565b5f61093b82611d40565b9050919050565b60605f805461095090613905565b80601f016020809104026020016040519081016040528092919081815260200182805461097c90613905565b80156109c75780601f1061099e576101008083540402835291602001916109c7565b820191905f5260205f20905b8154815290600101906020018083116109aa57829003601f168201915b5050505050905090565b5f6109db82611da0565b506109e582611e26565b9050919050565b6109fe82826109f9611e5f565b611e66565b5050565b610a0a611e78565b80600f9081610a199190613ad2565b5050565b610a25611e78565b5f60085f8381526020019081526020015f205f9054906101000a900460ff1690505f6003811115610a5957610a58613612565b5b816003811115610a6c57610a6b613612565b5b03610af657600160085f8481526020019081526020015f205f6101000a81548160ff02191690836003811115610aa557610aa4613612565b5b0217905550610ab2611eff565b60095f8481526020019081526020015f20600101819055506202a30042610ad99190613bce565b600a5f8481526020019081526020015f2060010181905550610c34565b60016003811115610b0a57610b09613612565b5b816003811115610b1d57610b1c613612565b5b03610b8757600260085f8481526020019081526020015f205f6101000a81548160ff02191690836003811115610b5657610b55613612565b5b02179055506203f48042610b6a9190613bce565b600a5f8481526020019081526020015f2060020181905550610c33565b60026003811115610b9b57610b9a613612565b5b816003811115610bae57610bad613612565b5b03610bf157600360085f8481526020019081526020015f205f6101000a81548160ff02191690836003811115610be757610be6613612565b5b0217905550610c32565b5f610c31576040517f08c379a0000000000000000000000000000000000000000000000000000000008152600401610c2890613c4b565b60405180910390fd5b5b5b5b5050565b5f73ffffffffffffffffffffffffffffffffffffffff168273ffffffffffffffffffffffffffffffffffffffff1603610ca8575f6040517f64a0ae92000000000000000000000000000000000000000000000000000000008152600401610c9f9190613280565b60405180910390fd5b5f610cbb8383610cb6611e5f565b611f63565b90508373ffffffffffffffffffffffffffffffffffffffff168173ffffffffffffffffffffffffffffffffffffffff1614610d31578382826040517f64283d7b000000000000000000000000000000000000000000000000000000008152600401610d2893929190613c69565b60405180910390fd5b50505050565b610d3f611e78565b8060119081610d4e9190613ad2565b5050565b610d6c83838360405180602001604052805f8152506112a2565b505050565b5f610d7b82611da0565b9050919050565b5f8073ffffffffffffffffffffffffffffffffffffffff168273ffffffffffffffffffffffffffffffffffffffff1603610df3575f6040517f89c62b64000000000000000000000000000000000000000000000000000000008152600401610dea9190613280565b60405180910390fd5b60035f8373ffffffffffffffffffffffffffffffffffffffff1673ffffffffffffffffffffffffffffffffffffffff1681526020019081526020015f20549050919050565b610e40611e78565b610e495f61216e565b565b5f8060125f8481526020019081526020015f205f0154915060125f8481526020019081526020015f20600101549050915091565b5f60075f9054906101000a900473ffffffffffffffffffffffffffffffffffffffff16905090565b606060018054610eb690613905565b80601f0160208091040260200160405190810160405280929190818152602001828054610ee290613905565b8015610f2d5780601f10610f0457610100808354040283529160200191610f2d565b820191905f5260205f20905b815481529060010190602001808311610f1057829003601f168201915b5050505050905090565b5f3373ffffffffffffffffffffffffffffffffffffffff16610f5884610d71565b73ffffffffffffffffffffffffffffffffffffffff16148015610fae57503373ffffffffffffffffffffffffffffffffffffffff16610f9683610d71565b73ffffffffffffffffffffffffffffffffffffffff16145b610fed576040517f08c379a0000000000000000000000000000000000000000000000000000000008152600401610fe4906138ba565b60405180910390fd5b610ff78383612231565b15611037576040517f08c379a000000000000000000000000000000000000000000000000000000000815260040161102e90613ce8565b60405180910390fd5b611040836122bc565b80156110515750611050826122bc565b5b611090576040517f08c379a000000000000000000000000000000000000000000000000000000000815260040161108790613d50565b60405180910390fd5b61109a83836122da565b6110d9576040517f08c379a00000000000000000000000000000000000000000000000000000000081526004016110d090613db8565b60405180910390fd5b6110e283612319565b6110eb82612319565b5f6110f785858561236b565b9050809150509392505050565b61111661110f611e5f565b83836123e0565b5050565b5f8060085f8481526020019081526020015f205f9054906101000a900460ff1691505f4290505f600381111561115357611152613612565b5b83600381111561116657611165613612565b5b148015611185575080600a5f8681526020019081526020015f205f0154115b156111b05780600a5f8681526020019081526020015f205f01546111a99190613dd6565b915061129c565b600160038111156111c4576111c3613612565b5b8360038111156111d7576111d6613612565b5b1480156111f7575080600a5f8681526020019081526020015f2060010154115b156112235780600a5f8681526020019081526020015f206001015461121c9190613dd6565b915061129b565b6002600381111561123757611236613612565b5b83600381111561124a57611249613612565b5b14801561126a575080600a5f8681526020019081526020015f2060020154115b156112965780600a5f8681526020019081526020015f206002015461128f9190613dd6565b915061129a565b5f91505b5b5b50915091565b6112ad848484610c38565b6112b984848484612549565b50505050565b6112c7611e78565b80601090816112d69190613ad2565b5050565b6060805f600e80546112eb90613905565b9050111561132657600e6112fe846126fb565b60405160200161130f929190613ec3565b60405160208183030381529060405291505061174e565b5f600381111561133957611338613612565b5b60085f8581526020019081526020015f205f9054906101000a900460ff16600381111561136957611368613612565b5b036113a75760095f8481526020019081526020015f205f016040516020016113919190613f30565b6040516020818303038152906040529050611663565b5f600160095f8681526020019081526020015f2060040154146113ff576040518060400160405280600181526020017f6200000000000000000000000000000000000000000000000000000000000000815250611436565b6040518060400160405280600181526020017f67000000000000000000000000000000000000000000000000000000000000008152505b90505f600160095f8781526020019081526020015f206001015414611490576040518060400160405280600181526020017f66000000000000000000000000000000000000000000000000000000000000008152506114c7565b6040518060400160405280600181526020017f6d000000000000000000000000000000000000000000000000000000000000008152505b905060605f60085f8881526020019081526020015f205f9054906101000a900460ff16905060016003811115611500576114ff613612565b5b81600381111561151357611512613612565b5b03611555576040518060400160405280600581526020017f68617463680000000000000000000000000000000000000000000000000000008152509150611624565b6002600381111561156957611568613612565b5b81600381111561157c5761157b613612565b5b036115be576040518060400160405280600981526020017f68617463686c696e6700000000000000000000000000000000000000000000008152509150611623565b6003808111156115d1576115d0613612565b5b8160038111156115e4576115e3613612565b5b03611622576040518060400160405280600581526020017f6164756c7400000000000000000000000000000000000000000000000000000081525091505b5b5b60095f8881526020019081526020015f205f0184848460405160200161164d9493929190613f9b565b6040516020818303038152906040529450505050505b5f61166d846126fb565b600f836011604051602001611683929190613ff9565b6040516020818303038152906040526040516020016116a4939291906140fc565b60405160208183030381529060405290505f60095f8681526020019081526020015f205f016040516020016116d991906141b2565b60405160208183030381529060405290505f6040518060400160405280600481526020017f227d5d7d0000000000000000000000000000000000000000000000000000000081525090508282826040516020016117389392919061421d565b6040516020818303038152906040529450505050505b919050565b600e805461176090613905565b80601f016020809104026020016040519081016040528092919081815260200182805461178c90613905565b80156117d75780601f106117ae576101008083540402835291602001916117d7565b820191905f5260205f20905b8154815290600101906020018083116117ba57829003601f168201915b505050505081565b6117e7611e78565b80600e90816117f69190613ad2565b5050565b5f60055f8473ffffffffffffffffffffffffffffffffffffffff1673ffffffffffffffffffffffffffffffffffffffff1681526020019081526020015f205f8373ffffffffffffffffffffffffffffffffffffffff1673ffffffffffffffffffffffffffffffffffffffff1681526020019081526020015f205f9054906101000a900460ff16905092915050565b6010805461189590613905565b80601f01602080910402602001604051908101604052809291908181526020018280546118c190613905565b801561190c5780601f106118e35761010080835404028352916020019161190c565b820191905f5260205f20905b8154815290600101906020018083116118ef57829003601f168201915b505050505081565b3373ffffffffffffffffffffffffffffffffffffffff1661193482610d71565b73ffffffffffffffffffffffffffffffffffffffff161461198a576040517f08c379a0000000000000000000000000000000000000000000000000000000008152600401611981906138ba565b60405180910390fd5b5f60085f8381526020019081526020015f205f9054906101000a900460ff1690505f60038111156119be576119bd613612565b5b8160038111156119d1576119d0613612565b5b1480156119f15750600a5f8381526020019081526020015f205f01544210155b15611a7b57600160085f8481526020019081526020015f205f6101000a81548160ff02191690836003811115611a2a57611a29613612565b5b0217905550611a37611eff565b60095f8481526020019081526020015f20600101819055506202a30042611a5e9190613bce565b600a5f8481526020019081526020015f2060010181905550611bfb565b60016003811115611a8f57611a8e613612565b5b816003811115611aa257611aa1613612565b5b148015611ac35750600a5f8381526020019081526020015f20600101544210155b15611b2d57600260085f8481526020019081526020015f205f6101000a81548160ff02191690836003811115611afc57611afb613612565b5b02179055506203f48042611b109190613bce565b600a5f8481526020019081526020015f2060020181905550611bfa565b60026003811115611b4157611b40613612565b5b816003811115611b5457611b53613612565b5b148015611b755750600a5f8381526020019081526020015f20600201544210155b15611bb857600360085f8481526020019081526020015f205f6101000a81548160ff02191690836003811115611bae57611bad613612565b5b0217905550611bf9565b5f611bf8576040517f08c379a0000000000000000000000000000000000000000000000000000000008152600401611bef90613c4b565b60405180910390fd5b5b5b5b5050565b600f8054611c0c90613905565b80601f0160208091040260200160405190810160405280929190818152602001828054611c3890613905565b8015611c835780601f10611c5a57610100808354040283529160200191611c83565b820191905f5260205f20905b815481529060010190602001808311611c6657829003601f168201915b505050505081565b611c93611e78565b5f73ffffffffffffffffffffffffffffffffffffffff168173ffffffffffffffffffffffffffffffffffffffff1603611d03575f6040517f1e4fbdf7000000000000000000000000000000000000000000000000000000008152600401611cfa9190613280565b60405180910390fd5b611d0c8161216e565b50565b5f818484611d1d9190613dd6565b10611d35578183611d2e9190613dd6565b9050611d39565b5f90505b9392505050565b5f634906490660e01b7bffffffffffffffffffffffffffffffffffffffffffffffffffffffff1916827bffffffffffffffffffffffffffffffffffffffffffffffffffffffff19161480611d995750611d98826127c5565b5b9050919050565b5f80611dab836128a6565b90505f73ffffffffffffffffffffffffffffffffffffffff168173ffffffffffffffffffffffffffffffffffffffff1603611e1d57826040517f7e273289000000000000000000000000000000000000000000000000000000008152600401611e1491906134fe565b60405180910390fd5b80915050919050565b5f60045f8381526020019081526020015f205f9054906101000a900473ffffffffffffffffffffffffffffffffffffffff169050919050565b5f33905090565b611e7383838360016128df565b505050565b611e80611e5f565b73ffffffffffffffffffffffffffffffffffffffff16611e9e610e7f565b73ffffffffffffffffffffffffffffffffffffffff1614611efd57611ec1611e5f565b6040517f118cdaa7000000000000000000000000000000000000000000000000000000008152600401611ef49190613280565b60405180910390fd5b565b5f600d5f815480929190611f1290614258565b9190505550600160024233600d54604051602001611f3293929190614304565b604051602081830303815290604052805190602001205f1c611f54919061436d565b611f5e9190613bce565b905090565b5f80611f6e846128a6565b90505f73ffffffffffffffffffffffffffffffffffffffff168373ffffffffffffffffffffffffffffffffffffffff1614611faf57611fae818486612a9e565b5b5f73ffffffffffffffffffffffffffffffffffffffff168173ffffffffffffffffffffffffffffffffffffffff161461203a57611fee5f855f806128df565b600160035f8373ffffffffffffffffffffffffffffffffffffffff1673ffffffffffffffffffffffffffffffffffffffff1681526020019081526020015f205f82825403925050819055505b5f73ffffffffffffffffffffffffffffffffffffffff168573ffffffffffffffffffffffffffffffffffffffff16146120b957600160035f8773ffffffffffffffffffffffffffffffffffffffff1673ffffffffffffffffffffffffffffffffffffffff1681526020019081526020015f205f82825401925050819055505b8460025f8681526020019081526020015f205f6101000a81548173ffffffffffffffffffffffffffffffffffffffff021916908373ffffffffffffffffffffffffffffffffffffffff160217905550838573ffffffffffffffffffffffffffffffffffffffff168273ffffffffffffffffffffffffffffffffffffffff167fddf252ad1be2c89b69c2b068fc378daa952ba7f163c4a11628f55a4df523b3ef60405160405180910390a4809150509392505050565b5f60075f9054906101000a900473ffffffffffffffffffffffffffffffffffffffff1690508160075f6101000a81548173ffffffffffffffffffffffffffffffffffffffff021916908373ffffffffffffffffffffffffffffffffffffffff1602179055508173ffffffffffffffffffffffffffffffffffffffff168173ffffffffffffffffffffffffffffffffffffffff167f8be0079c531659141344cd1fd0a4f28419497f9722a3daafe3b4186f6b6457e060405160405180910390a35050565b5f8060095f8581526020019081526020015f2090505f60095f8581526020019081526020015f209050600182600401541480612271575060018160040154145b15612280575f925050506122b6565b80600201548260020154141580156122a057508060030154826003015414155b156122af575f925050506122b6565b6001925050505b92915050565b5f4260125f8481526020019081526020015f205f0154109050919050565b5f8060095f8581526020019081526020015f2090505f60095f8581526020019081526020015f2090508060010154826001015414159250505092915050565b60125f8281526020019081526020015f206001015f81548092919061233d90614258565b91905055506203f480426123519190613bce565b60125f8381526020019081526020015f205f018190555050565b5f8060095f8581526020019081526020015f2090505f60095f8581526020019081526020015f2090505f81600401548360040154116123ae5781600401546123b4565b82600401545b90505f6123d08888886001866123ca9190613bce565b33612b61565b9050809450505050509392505050565b5f73ffffffffffffffffffffffffffffffffffffffff168273ffffffffffffffffffffffffffffffffffffffff160361245057816040517f5b08ba180000000000000000000000000000000000000000000000000000000081526004016124479190613280565b60405180910390fd5b8060055f8573ffffffffffffffffffffffffffffffffffffffff1673ffffffffffffffffffffffffffffffffffffffff1681526020019081526020015f205f8473ffffffffffffffffffffffffffffffffffffffff1673ffffffffffffffffffffffffffffffffffffffff1681526020019081526020015f205f6101000a81548160ff0219169083151502179055508173ffffffffffffffffffffffffffffffffffffffff168373ffffffffffffffffffffffffffffffffffffffff167f17307eab39ab6107e8899845ad3d59bd9653f200f220920489ca2b5937696c318360405161253c9190613198565b60405180910390a3505050565b5f8373ffffffffffffffffffffffffffffffffffffffff163b11156126f5578273ffffffffffffffffffffffffffffffffffffffff1663150b7a0261258c611e5f565b8685856040518563ffffffff1660e01b81526004016125ae94939291906143ef565b6020604051808303815f875af19250505080156125e957506040513d601f19601f820116820180604052508101906125e6919061444d565b60015b61266a573d805f8114612617576040519150601f19603f3d011682016040523d82523d5f602084013e61261c565b606091505b505f81510361266257836040517f64a0ae920000000000000000000000000000000000000000000000000000000081526004016126599190613280565b60405180910390fd5b805181602001fd5b63150b7a0260e01b7bffffffffffffffffffffffffffffffffffffffffffffffffffffffff1916817bffffffffffffffffffffffffffffffffffffffffffffffffffffffff1916146126f357836040517f64a0ae920000000000000000000000000000000000000000000000000000000081526004016126ea9190613280565b60405180910390fd5b505b50505050565b60605f600161270984612cea565b0190505f8167ffffffffffffffff81111561272757612726613309565b5b6040519080825280601f01601f1916602001820160405280156127595781602001600182028036833780820191505090505b5090505f82602001820190505b6001156127ba578080600190039150507f3031323334353637383961626364656600000000000000000000000000000000600a86061a8153600a85816127af576127ae614340565b5b0494505f8503612766575b819350505050919050565b5f7f80ac58cd000000000000000000000000000000000000000000000000000000007bffffffffffffffffffffffffffffffffffffffffffffffffffffffff1916827bffffffffffffffffffffffffffffffffffffffffffffffffffffffff1916148061288f57507f5b5e139f000000000000000000000000000000000000000000000000000000007bffffffffffffffffffffffffffffffffffffffffffffffffffffffff1916827bffffffffffffffffffffffffffffffffffffffffffffffffffffffff1916145b8061289f575061289e82612e3b565b5b9050919050565b5f60025f8381526020019081526020015f205f9054906101000a900473ffffffffffffffffffffffffffffffffffffffff169050919050565b808061291757505f73ffffffffffffffffffffffffffffffffffffffff168273ffffffffffffffffffffffffffffffffffffffff1614155b15612a49575f61292684611da0565b90505f73ffffffffffffffffffffffffffffffffffffffff168373ffffffffffffffffffffffffffffffffffffffff161415801561299057508273ffffffffffffffffffffffffffffffffffffffff168173ffffffffffffffffffffffffffffffffffffffff1614155b80156129a357506129a181846117fa565b155b156129e557826040517fa9fbf51f0000000000000000000000000000000000000000000000000000000081526004016129dc9190613280565b60405180910390fd5b8115612a4757838573ffffffffffffffffffffffffffffffffffffffff168273ffffffffffffffffffffffffffffffffffffffff167f8c5be1e5ebec7d5bd14f71427d1e84f3dd0314c0f7b2291e5b200ac8c7c3b92560405160405180910390a45b505b8360045f8581526020019081526020015f205f6101000a81548173ffffffffffffffffffffffffffffffffffffffff021916908373ffffffffffffffffffffffffffffffffffffffff16021790555050505050565b612aa9838383612ea4565b612b5c575f73ffffffffffffffffffffffffffffffffffffffff168373ffffffffffffffffffffffffffffffffffffffff1603612b1d57806040517f7e273289000000000000000000000000000000000000000000000000000000008152600401612b1491906134fe565b60405180910390fd5b81816040517f177e802f000000000000000000000000000000000000000000000000000000008152600401612b53929190614478565b60405180910390fd5b505050565b5f806040518060c001604052808881526020015f8152602001878152602001868152602001858152602001428152509050600c5f815480929190612ba490614258565b91905055508060095f600c5481526020019081526020015f205f820151815f019081612bd09190613ad2565b506020820151816001015560408201518160020155606082015181600301556080820151816004015560a082015181600501559050506202a3008160a00151612c199190613bce565b600a5f600c5481526020019081526020015f205f01819055505f60085f600c5481526020019081526020015f205f6101000a81548160ff02191690836003811115612c6757612c66613612565b5b0217905550612c7883600c54612f64565b600b5f8473ffffffffffffffffffffffffffffffffffffffff1673ffffffffffffffffffffffffffffffffffffffff1681526020019081526020015f20600c54908060018154018082558091505060019003905f5260205f20015f9091909190915055600c5491505095945050505050565b5f805f90507a184f03e93ff9f4daa797ed6e38ed64bf6a1f0100000000000000008310612d46577a184f03e93ff9f4daa797ed6e38ed64bf6a1f0100000000000000008381612d3c57612d3b614340565b5b0492506040810190505b6d04ee2d6d415b85acef81000000008310612d83576d04ee2d6d415b85acef81000000008381612d7957612d78614340565b5b0492506020810190505b662386f26fc100008310612db257662386f26fc100008381612da857612da7614340565b5b0492506010810190505b6305f5e1008310612ddb576305f5e1008381612dd157612dd0614340565b5b0492506008810190505b6127108310612e00576127108381612df657612df5614340565b5b0492506004810190505b60648310612e235760648381612e1957612e18614340565b5b0492506002810190505b600a8310612e32576001810190505b80915050919050565b5f7f01ffc9a7000000000000000000000000000000000000000000000000000000007bffffffffffffffffffffffffffffffffffffffffffffffffffffffff1916827bffffffffffffffffffffffffffffffffffffffffffffffffffffffff1916149050919050565b5f8073ffffffffffffffffffffffffffffffffffffffff168373ffffffffffffffffffffffffffffffffffffffff1614158015612f5b57508273ffffffffffffffffffffffffffffffffffffffff168473ffffffffffffffffffffffffffffffffffffffff161480612f1c5750612f1b84846117fa565b5b80612f5a57508273ffffffffffffffffffffffffffffffffffffffff16612f4283611e26565b73ffffffffffffffffffffffffffffffffffffffff16145b5b90509392505050565b612f7d828260405180602001604052805f815250612f81565b5050565b612f8b8383612f9c565b612f975f848484612549565b505050565b5f73ffffffffffffffffffffffffffffffffffffffff168273ffffffffffffffffffffffffffffffffffffffff160361300c575f6040517f64a0ae920000000000000000000000000000000000000000000000000000000081526004016130039190613280565b60405180910390fd5b5f61301883835f611f63565b90505f73ffffffffffffffffffffffffffffffffffffffff168173ffffffffffffffffffffffffffffffffffffffff161461308a575f6040517f73c6ac6e0000000000000000000000000000000000000000000000000000000081526004016130819190613280565b60405180910390fd5b505050565b5f604051905090565b5f80fd5b5f80fd5b5f819050919050565b6130b2816130a0565b81146130bc575f80fd5b50565b5f813590506130cd816130a9565b92915050565b5f602082840312156130e8576130e7613098565b5b5f6130f5848285016130bf565b91505092915050565b5f7fffffffff0000000000000000000000000000000000000000000000000000000082169050919050565b613132816130fe565b811461313c575f80fd5b50565b5f8135905061314d81613129565b92915050565b5f6020828403121561316857613167613098565b5b5f6131758482850161313f565b91505092915050565b5f8115159050919050565b6131928161317e565b82525050565b5f6020820190506131ab5f830184613189565b92915050565b5f81519050919050565b5f82825260208201905092915050565b8281835e5f83830152505050565b5f601f19601f8301169050919050565b5f6131f3826131b1565b6131fd81856131bb565b935061320d8185602086016131cb565b613216816131d9565b840191505092915050565b5f6020820190508181035f83015261323981846131e9565b905092915050565b5f73ffffffffffffffffffffffffffffffffffffffff82169050919050565b5f61326a82613241565b9050919050565b61327a81613260565b82525050565b5f6020820190506132935f830184613271565b92915050565b6132a281613260565b81146132ac575f80fd5b50565b5f813590506132bd81613299565b92915050565b5f80604083850312156132d9576132d8613098565b5b5f6132e6858286016132af565b92505060206132f7858286016130bf565b9150509250929050565b5f80fd5b5f80fd5b7f4e487b71000000000000000000000000000000000000000000000000000000005f52604160045260245ffd5b61333f826131d9565b810181811067ffffffffffffffff8211171561335e5761335d613309565b5b80604052505050565b5f61337061308f565b905061337c8282613336565b919050565b5f67ffffffffffffffff82111561339b5761339a613309565b5b6133a4826131d9565b9050602081019050919050565b828183375f83830152505050565b5f6133d16133cc84613381565b613367565b9050828152602081018484840111156133ed576133ec613305565b5b6133f88482856133b1565b509392505050565b5f82601f83011261341457613413613301565b5b81356134248482602086016133bf565b91505092915050565b5f6020828403121561344257613441613098565b5b5f82013567ffffffffffffffff81111561345f5761345e61309c565b5b61346b84828501613400565b91505092915050565b5f805f6060848603121561348b5761348a613098565b5b5f613498868287016132af565b93505060206134a9868287016132af565b92505060406134ba868287016130bf565b9150509250925092565b5f602082840312156134d9576134d8613098565b5b5f6134e6848285016132af565b91505092915050565b6134f8816130a0565b82525050565b5f6020820190506135115f8301846134ef565b92915050565b5f60408201905061352a5f8301856134ef565b61353760208301846134ef565b9392505050565b5f805f6060848603121561355557613554613098565b5b5f84013567ffffffffffffffff8111156135725761357161309c565b5b61357e86828701613400565b935050602061358f868287016130bf565b92505060406135a0868287016130bf565b9150509250925092565b6135b38161317e565b81146135bd575f80fd5b50565b5f813590506135ce816135aa565b92915050565b5f80604083850312156135ea576135e9613098565b5b5f6135f7858286016132af565b9250506020613608858286016135c0565b9150509250929050565b7f4e487b71000000000000000000000000000000000000000000000000000000005f52602160045260245ffd5b600481106136505761364f613612565b5b50565b5f8190506136608261363f565b919050565b5f61366f82613653565b9050919050565b61367f81613665565b82525050565b5f6040820190506136985f830185613676565b6136a560208301846134ef565b9392505050565b5f67ffffffffffffffff8211156136c6576136c5613309565b5b6136cf826131d9565b9050602081019050919050565b5f6136ee6136e9846136ac565b613367565b90508281526020810184848401111561370a57613709613305565b5b6137158482856133b1565b509392505050565b5f82601f83011261373157613730613301565b5b81356137418482602086016136dc565b91505092915050565b5f805f806080858703121561376257613761613098565b5b5f61376f878288016132af565b9450506020613780878288016132af565b9350506040613791878288016130bf565b925050606085013567ffffffffffffffff8111156137b2576137b161309c565b5b6137be8782880161371d565b91505092959194509250565b5f80604083850312156137e0576137df613098565b5b5f6137ed858286016132af565b92505060206137fe858286016132af565b9150509250929050565b7f546f6b656e20697320616c7265616479206164756c74000000000000000000005f82015250565b5f61383c6016836131bb565b915061384782613808565b602082019050919050565b5f6020820190508181035f83015261386981613830565b9050919050565b7f4e6f74206f776e657200000000000000000000000000000000000000000000005f82015250565b5f6138a46009836131bb565b91506138af82613870565b602082019050919050565b5f6020820190508181035f8301526138d181613898565b9050919050565b7f4e487b71000000000000000000000000000000000000000000000000000000005f52602260045260245ffd5b5f600282049050600182168061391c57607f821691505b60208210810361392f5761392e6138d8565b5b50919050565b5f819050815f5260205f209050919050565b5f6020601f8301049050919050565b5f82821b905092915050565b5f600883026139917fffffffffffffffffffffffffffffffffffffffffffffffffffffffffffffffff82613956565b61399b8683613956565b95508019841693508086168417925050509392505050565b5f819050919050565b5f6139d66139d16139cc846130a0565b6139b3565b6130a0565b9050919050565b5f819050919050565b6139ef836139bc565b613a036139fb826139dd565b848454613962565b825550505050565b5f90565b613a17613a0b565b613a228184846139e6565b505050565b5b81811015613a4557613a3a5f82613a0f565b600181019050613a28565b5050565b601f821115613a8a57613a5b81613935565b613a6484613947565b81016020851015613a73578190505b613a87613a7f85613947565b830182613a27565b50505b505050565b5f82821c905092915050565b5f613aaa5f1984600802613a8f565b1980831691505092915050565b5f613ac28383613a9b565b9150826002028217905092915050565b613adb826131b1565b67ffffffffffffffff811115613af457613af3613309565b5b613afe8254613905565b613b09828285613a49565b5f60209050601f831160018114613b3a575f8415613b28578287015190505b613b328582613ab7565b865550613b99565b601f198416613b4886613935565b5f5b82811015613b6f57848901518255600182019150602085019450602081019050613b4a565b86831015613b8c5784890151613b88601f891682613a9b565b8355505b6001600288020188555050505b505050505050565b7f4e487b71000000000000000000000000000000000000000000000000000000005f52601160045260245ffd5b5f613bd8826130a0565b9150613be3836130a0565b9250828201905080821115613bfb57613bfa613ba1565b5b92915050565b7f556e61626c6520746f2065766f6c7665000000000000000000000000000000005f82015250565b5f613c356010836131bb565b9150613c4082613c01565b602082019050919050565b5f6020820190508181035f830152613c6281613c29565b9050919050565b5f606082019050613c7c5f830186613271565b613c8960208301856134ef565b613c966040830184613271565b949350505050565b7f496e6365737400000000000000000000000000000000000000000000000000005f82015250565b5f613cd26006836131bb565b9150613cdd82613c9e565b602082019050919050565b5f6020820190508181035f830152613cff81613cc6565b9050919050565b7f4272656564696e67206e6f7420616c6c6f7765642079657400000000000000005f82015250565b5f613d3a6018836131bb565b9150613d4582613d06565b602082019050919050565b5f6020820190508181035f830152613d6781613d2e565b9050919050565b7f53616d652067656e6465720000000000000000000000000000000000000000005f82015250565b5f613da2600b836131bb565b9150613dad82613d6e565b602082019050919050565b5f6020820190508181035f830152613dcf81613d96565b9050919050565b5f613de0826130a0565b9150613deb836130a0565b9250828203905081811115613e0357613e02613ba1565b5b92915050565b5f81905092915050565b5f8154613e1f81613905565b613e298186613e09565b9450600182165f8114613e435760018114613e5857613e8a565b60ff1983168652811515820286019350613e8a565b613e6185613935565b5f5b83811015613e8257815481890152600182019150602081019050613e63565b838801955050505b50505092915050565b5f613e9d826131b1565b613ea78185613e09565b9350613eb78185602086016131cb565b80840191505092915050565b5f613ece8285613e13565b9150613eda8284613e93565b91508190509392505050565b7f5f656767000000000000000000000000000000000000000000000000000000005f82015250565b5f613f1a600483613e09565b9150613f2582613ee6565b600482019050919050565b5f613f3b8284613e13565b9150613f4682613f0e565b915081905092915050565b7f5f000000000000000000000000000000000000000000000000000000000000005f82015250565b5f613f85600183613e09565b9150613f9082613f51565b600182019050919050565b5f613fa68287613e13565b9150613fb182613f79565b9150613fbd8286613e93565b9150613fc882613f79565b9150613fd48285613e93565b9150613fdf82613f79565b9150613feb8284613e93565b915081905095945050505050565b5f6140048285613e93565b91506140108284613e13565b91508190509392505050565b7f7b226e616d65223a2022447261676f6e202300000000000000000000000000005f82015250565b5f614050601283613e09565b915061405b8261401c565b601282019050919050565b7f222c2265787465726e616c5f75726c223a2268747470733a2f2f6769746875625f8201527f2e636f6d2f626368736f6c2f43727970746f447261676f6e222c22696d61676560208201527f223a220000000000000000000000000000000000000000000000000000000000604082015250565b5f6140e6604383613e09565b91506140f182614066565b604382019050919050565b5f61410682614044565b91506141128286613e93565b915061411d826140da565b91506141298285613e13565b91506141358284613e93565b9150819050949350505050565b7f222c2261747472696275746573223a5b7b2274726169745f74797065223a22445f8201527f7261676f6e222c2276616c7565223a2200000000000000000000000000000000602082015250565b5f61419c603083613e09565b91506141a782614142565b603082019050919050565b5f6141bc82614190565b91506141c88284613e13565b915081905092915050565b7f646174613a6170706c69636174696f6e2f6a736f6e3b757466382c00000000005f82015250565b5f614207601b83613e09565b9150614212826141d3565b601b82019050919050565b5f614227826141fb565b91506142338286613e93565b915061423f8285613e93565b915061424b8284613e93565b9150819050949350505050565b5f614262826130a0565b91507fffffffffffffffffffffffffffffffffffffffffffffffffffffffffffffffff820361429457614293613ba1565b5b600182019050919050565b5f819050919050565b6142b96142b4826130a0565b61429f565b82525050565b5f8160601b9050919050565b5f6142d5826142bf565b9050919050565b5f6142e6826142cb565b9050919050565b6142fe6142f982613260565b6142dc565b82525050565b5f61430f82866142a8565b60208201915061431f82856142ed565b60148201915061432f82846142a8565b602082019150819050949350505050565b7f4e487b71000000000000000000000000000000000000000000000000000000005f52601260045260245ffd5b5f614377826130a0565b9150614382836130a0565b92508261439257614391614340565b5b828206905092915050565b5f81519050919050565b5f82825260208201905092915050565b5f6143c18261439d565b6143cb81856143a7565b93506143db8185602086016131cb565b6143e4816131d9565b840191505092915050565b5f6080820190506144025f830187613271565b61440f6020830186613271565b61441c60408301856134ef565b818103606083015261442e81846143b7565b905095945050505050565b5f8151905061444781613129565b92915050565b5f6020828403121561446257614461613098565b5b5f61446f84828501614439565b91505092915050565b5f60408201905061448b5f830185613271565b61449860208301846134ef565b939250505056fea26469706673582212207e609134548a17011b1113089f81c0f11e3c001cbde905d7e5f9d94e56f4434764736f6c63430008190033",
			"opcodes": "PUSH1 0x80 PUSH1 0x40 MSTORE CALLVALUE DUP1 ISZERO PUSH2 0xF JUMPI PUSH0 DUP1 REVERT JUMPDEST POP PUSH1 0x40 MLOAD PUSH2 0x4BC2 CODESIZE SUB DUP1 PUSH2 0x4BC2 DUP4 CODECOPY DUP2 DUP2 ADD PUSH1 0x40 MSTORE DUP2 ADD SWAP1 PUSH2 0x31 SWAP2 SWAP1 PUSH2 0x354 JUMP JUMPDEST DUP3 DUP3 DUP3 DUP3 DUP3 DUP3 DUP2 PUSH0 SWAP1 DUP2 PUSH2 0x45 SWAP2 SWAP1 PUSH2 0x5E9 JUMP JUMPDEST POP DUP1 PUSH1 0x1 SWAP1 DUP2 PUSH2 0x55 SWAP2 SWAP1 PUSH2 0x5E9 JUMP JUMPDEST POP POP POP PUSH0 PUSH20 0xFFFFFFFFFFFFFFFFFFFFFFFFFFFFFFFFFFFFFFFF AND DUP2 PUSH20 0xFFFFFFFFFFFFFFFFFFFFFFFFFFFFFFFFFFFFFFFF AND SUB PUSH2 0xC8 JUMPI PUSH0 PUSH1 0x40 MLOAD PUSH32 0x1E4FBDF700000000000000000000000000000000000000000000000000000000 DUP2 MSTORE PUSH1 0x4 ADD PUSH2 0xBF SWAP2 SWAP1 PUSH2 0x6C7 JUMP JUMPDEST PUSH1 0x40 MLOAD DUP1 SWAP2 SUB SWAP1 REVERT JUMPDEST PUSH2 0xD7 DUP2 PUSH2 0xEA PUSH1 0x20 SHL PUSH1 0x20 SHR JUMP JUMPDEST POP PUSH0 PUSH1 0xD DUP2 SWAP1 SSTORE POP POP POP POP POP POP POP PUSH2 0x6E0 JUMP JUMPDEST PUSH0 PUSH1 0x7 PUSH0 SWAP1 SLOAD SWAP1 PUSH2 0x100 EXP SWAP1 DIV PUSH20 0xFFFFFFFFFFFFFFFFFFFFFFFFFFFFFFFFFFFFFFFF AND SWAP1 POP DUP2 PUSH1 0x7 PUSH0 PUSH2 0x100 EXP DUP2 SLOAD DUP2 PUSH20 0xFFFFFFFFFFFFFFFFFFFFFFFFFFFFFFFFFFFFFFFF MUL NOT AND SWAP1 DUP4 PUSH20 0xFFFFFFFFFFFFFFFFFFFFFFFFFFFFFFFFFFFFFFFF AND MUL OR SWAP1 SSTORE POP DUP2 PUSH20 0xFFFFFFFFFFFFFFFFFFFFFFFFFFFFFFFFFFFFFFFF AND DUP2 PUSH20 0xFFFFFFFFFFFFFFFFFFFFFFFFFFFFFFFFFFFFFFFF AND PUSH32 0x8BE0079C531659141344CD1FD0A4F28419497F9722A3DAAFE3B4186F6B6457E0 PUSH1 0x40 MLOAD PUSH1 0x40 MLOAD DUP1 SWAP2 SUB SWAP1 LOG3 POP POP JUMP JUMPDEST PUSH0 PUSH1 0x40 MLOAD SWAP1 POP SWAP1 JUMP JUMPDEST PUSH0 DUP1 REVERT JUMPDEST PUSH0 DUP1 REVERT JUMPDEST PUSH0 PUSH20 0xFFFFFFFFFFFFFFFFFFFFFFFFFFFFFFFFFFFFFFFF DUP3 AND SWAP1 POP SWAP2 SWAP1 POP JUMP JUMPDEST PUSH0 PUSH2 0x1E7 DUP3 PUSH2 0x1BE JUMP JUMPDEST SWAP1 POP SWAP2 SWAP1 POP JUMP JUMPDEST PUSH2 0x1F7 DUP2 PUSH2 0x1DD JUMP JUMPDEST DUP2 EQ PUSH2 0x201 JUMPI PUSH0 DUP1 REVERT JUMPDEST POP JUMP JUMPDEST PUSH0 DUP2 MLOAD SWAP1 POP PUSH2 0x212 DUP2 PUSH2 0x1EE JUMP JUMPDEST SWAP3 SWAP2 POP POP JUMP JUMPDEST PUSH0 DUP1 REVERT JUMPDEST PUSH0 DUP1 REVERT JUMPDEST PUSH0 PUSH1 0x1F NOT PUSH1 0x1F DUP4 ADD AND SWAP1 POP SWAP2 SWAP1 POP JUMP JUMPDEST PUSH32 0x4E487B7100000000000000000000000000000000000000000000000000000000 PUSH0 MSTORE PUSH1 0x41 PUSH1 0x4 MSTORE PUSH1 0x24 PUSH0 REVERT JUMPDEST PUSH2 0x266 DUP3 PUSH2 0x220 JUMP JUMPDEST DUP2 ADD DUP2 DUP2 LT PUSH8 0xFFFFFFFFFFFFFFFF DUP3 GT OR ISZERO PUSH2 0x285 JUMPI PUSH2 0x284 PUSH2 0x230 JUMP JUMPDEST JUMPDEST DUP1 PUSH1 0x40 MSTORE POP POP POP JUMP JUMPDEST PUSH0 PUSH2 0x297 PUSH2 0x1AD JUMP JUMPDEST SWAP1 POP PUSH2 0x2A3 DUP3 DUP3 PUSH2 0x25D JUMP JUMPDEST SWAP2 SWAP1 POP JUMP JUMPDEST PUSH0 PUSH8 0xFFFFFFFFFFFFFFFF DUP3 GT ISZERO PUSH2 0x2C2 JUMPI PUSH2 0x2C1 PUSH2 0x230 JUMP JUMPDEST JUMPDEST PUSH2 0x2CB DUP3 PUSH2 0x220 JUMP JUMPDEST SWAP1 POP PUSH1 0x20 DUP2 ADD SWAP1 POP SWAP2 SWAP1 POP JUMP JUMPDEST DUP3 DUP2 DUP4 MCOPY PUSH0 DUP4 DUP4 ADD MSTORE POP POP POP JUMP JUMPDEST PUSH0 PUSH2 0x2F8 PUSH2 0x2F3 DUP5 PUSH2 0x2A8 JUMP JUMPDEST PUSH2 0x28E JUMP JUMPDEST SWAP1 POP DUP3 DUP2 MSTORE PUSH1 0x20 DUP2 ADD DUP5 DUP5 DUP5 ADD GT ISZERO PUSH2 0x314 JUMPI PUSH2 0x313 PUSH2 0x21C JUMP JUMPDEST JUMPDEST PUSH2 0x31F DUP5 DUP3 DUP6 PUSH2 0x2D8 JUMP JUMPDEST POP SWAP4 SWAP3 POP POP POP JUMP JUMPDEST PUSH0 DUP3 PUSH1 0x1F DUP4 ADD SLT PUSH2 0x33B JUMPI PUSH2 0x33A PUSH2 0x218 JUMP JUMPDEST JUMPDEST DUP2 MLOAD PUSH2 0x34B DUP5 DUP3 PUSH1 0x20 DUP7 ADD PUSH2 0x2E6 JUMP JUMPDEST SWAP2 POP POP SWAP3 SWAP2 POP POP JUMP JUMPDEST PUSH0 DUP1 PUSH0 PUSH1 0x60 DUP5 DUP7 SUB SLT ISZERO PUSH2 0x36B JUMPI PUSH2 0x36A PUSH2 0x1B6 JUMP JUMPDEST JUMPDEST PUSH0 PUSH2 0x378 DUP7 DUP3 DUP8 ADD PUSH2 0x204 JUMP JUMPDEST SWAP4 POP POP PUSH1 0x20 DUP5 ADD MLOAD PUSH8 0xFFFFFFFFFFFFFFFF DUP2 GT ISZERO PUSH2 0x399 JUMPI PUSH2 0x398 PUSH2 0x1BA JUMP JUMPDEST JUMPDEST PUSH2 0x3A5 DUP7 DUP3 DUP8 ADD PUSH2 0x327 JUMP JUMPDEST SWAP3 POP POP PUSH1 0x40 DUP5 ADD MLOAD PUSH8 0xFFFFFFFFFFFFFFFF DUP2 GT ISZERO PUSH2 0x3C6 JUMPI PUSH2 0x3C5 PUSH2 0x1BA JUMP JUMPDEST JUMPDEST PUSH2 0x3D2 DUP7 DUP3 DUP8 ADD PUSH2 0x327 JUMP JUMPDEST SWAP2 POP POP SWAP3 POP SWAP3 POP SWAP3 JUMP JUMPDEST PUSH0 DUP2 MLOAD SWAP1 POP SWAP2 SWAP1 POP JUMP JUMPDEST PUSH32 0x4E487B7100000000000000000000000000000000000000000000000000000000 PUSH0 MSTORE PUSH1 0x22 PUSH1 0x4 MSTORE PUSH1 0x24 PUSH0 REVERT JUMPDEST PUSH0 PUSH1 0x2 DUP3 DIV SWAP1 POP PUSH1 0x1 DUP3 AND DUP1 PUSH2 0x42A JUMPI PUSH1 0x7F DUP3 AND SWAP2 POP JUMPDEST PUSH1 0x20 DUP3 LT DUP2 SUB PUSH2 0x43D JUMPI PUSH2 0x43C PUSH2 0x3E6 JUMP JUMPDEST JUMPDEST POP SWAP2 SWAP1 POP JUMP JUMPDEST PUSH0 DUP2 SWAP1 POP DUP2 PUSH0 MSTORE PUSH1 0x20 PUSH0 KECCAK256 SWAP1 POP SWAP2 SWAP1 POP JUMP JUMPDEST PUSH0 PUSH1 0x20 PUSH1 0x1F DUP4 ADD DIV SWAP1 POP SWAP2 SWAP1 POP JUMP JUMPDEST PUSH0 DUP3 DUP3 SHL SWAP1 POP SWAP3 SWAP2 POP POP JUMP JUMPDEST PUSH0 PUSH1 0x8 DUP4 MUL PUSH2 0x49F PUSH32 0xFFFFFFFFFFFFFFFFFFFFFFFFFFFFFFFFFFFFFFFFFFFFFFFFFFFFFFFFFFFFFFFF DUP3 PUSH2 0x464 JUMP JUMPDEST PUSH2 0x4A9 DUP7 DUP4 PUSH2 0x464 JUMP JUMPDEST SWAP6 POP DUP1 NOT DUP5 AND SWAP4 POP DUP1 DUP7 AND DUP5 OR SWAP3 POP POP POP SWAP4 SWAP3 POP POP POP JUMP JUMPDEST PUSH0 DUP2 SWAP1 POP SWAP2 SWAP1 POP JUMP JUMPDEST PUSH0 DUP2 SWAP1 POP SWAP2 SWAP1 POP JUMP JUMPDEST PUSH0 PUSH2 0x4ED PUSH2 0x4E8 PUSH2 0x4E3 DUP5 PUSH2 0x4C1 JUMP JUMPDEST PUSH2 0x4CA JUMP JUMPDEST PUSH2 0x4C1 JUMP JUMPDEST SWAP1 POP SWAP2 SWAP1 POP JUMP JUMPDEST PUSH0 DUP2 SWAP1 POP SWAP2 SWAP1 POP JUMP JUMPDEST PUSH2 0x506 DUP4 PUSH2 0x4D3 JUMP JUMPDEST PUSH2 0x51A PUSH2 0x512 DUP3 PUSH2 0x4F4 JUMP JUMPDEST DUP5 DUP5 SLOAD PUSH2 0x470 JUMP JUMPDEST DUP3 SSTORE POP POP POP POP JUMP JUMPDEST PUSH0 SWAP1 JUMP JUMPDEST PUSH2 0x52E PUSH2 0x522 JUMP JUMPDEST PUSH2 0x539 DUP2 DUP5 DUP5 PUSH2 0x4FD JUMP JUMPDEST POP POP POP JUMP JUMPDEST JUMPDEST DUP2 DUP2 LT ISZERO PUSH2 0x55C JUMPI PUSH2 0x551 PUSH0 DUP3 PUSH2 0x526 JUMP JUMPDEST PUSH1 0x1 DUP2 ADD SWAP1 POP PUSH2 0x53F JUMP JUMPDEST POP POP JUMP JUMPDEST PUSH1 0x1F DUP3 GT ISZERO PUSH2 0x5A1 JUMPI PUSH2 0x572 DUP2 PUSH2 0x443 JUMP JUMPDEST PUSH2 0x57B DUP5 PUSH2 0x455 JUMP JUMPDEST DUP2 ADD PUSH1 0x20 DUP6 LT ISZERO PUSH2 0x58A JUMPI DUP2 SWAP1 POP JUMPDEST PUSH2 0x59E PUSH2 0x596 DUP6 PUSH2 0x455 JUMP JUMPDEST DUP4 ADD DUP3 PUSH2 0x53E JUMP JUMPDEST POP POP JUMPDEST POP POP POP JUMP JUMPDEST PUSH0 DUP3 DUP3 SHR SWAP1 POP SWAP3 SWAP2 POP POP JUMP JUMPDEST PUSH0 PUSH2 0x5C1 PUSH0 NOT DUP5 PUSH1 0x8 MUL PUSH2 0x5A6 JUMP JUMPDEST NOT DUP1 DUP4 AND SWAP2 POP POP SWAP3 SWAP2 POP POP JUMP JUMPDEST PUSH0 PUSH2 0x5D9 DUP4 DUP4 PUSH2 0x5B2 JUMP JUMPDEST SWAP2 POP DUP3 PUSH1 0x2 MUL DUP3 OR SWAP1 POP SWAP3 SWAP2 POP POP JUMP JUMPDEST PUSH2 0x5F2 DUP3 PUSH2 0x3DC JUMP JUMPDEST PUSH8 0xFFFFFFFFFFFFFFFF DUP2 GT ISZERO PUSH2 0x60B JUMPI PUSH2 0x60A PUSH2 0x230 JUMP JUMPDEST JUMPDEST PUSH2 0x615 DUP3 SLOAD PUSH2 0x413 JUMP JUMPDEST PUSH2 0x620 DUP3 DUP3 DUP6 PUSH2 0x560 JUMP JUMPDEST PUSH0 PUSH1 0x20 SWAP1 POP PUSH1 0x1F DUP4 GT PUSH1 0x1 DUP2 EQ PUSH2 0x651 JUMPI PUSH0 DUP5 ISZERO PUSH2 0x63F JUMPI DUP3 DUP8 ADD MLOAD SWAP1 POP JUMPDEST PUSH2 0x649 DUP6 DUP3 PUSH2 0x5CE JUMP JUMPDEST DUP7 SSTORE POP PUSH2 0x6B0 JUMP JUMPDEST PUSH1 0x1F NOT DUP5 AND PUSH2 0x65F DUP7 PUSH2 0x443 JUMP JUMPDEST PUSH0 JUMPDEST DUP3 DUP2 LT ISZERO PUSH2 0x686 JUMPI DUP5 DUP10 ADD MLOAD DUP3 SSTORE PUSH1 0x1 DUP3 ADD SWAP2 POP PUSH1 0x20 DUP6 ADD SWAP5 POP PUSH1 0x20 DUP2 ADD SWAP1 POP PUSH2 0x661 JUMP JUMPDEST DUP7 DUP4 LT ISZERO PUSH2 0x6A3 JUMPI DUP5 DUP10 ADD MLOAD PUSH2 0x69F PUSH1 0x1F DUP10 AND DUP3 PUSH2 0x5B2 JUMP JUMPDEST DUP4 SSTORE POP JUMPDEST PUSH1 0x1 PUSH1 0x2 DUP9 MUL ADD DUP9 SSTORE POP POP POP JUMPDEST POP POP POP POP POP POP JUMP JUMPDEST PUSH2 0x6C1 DUP2 PUSH2 0x1DD JUMP JUMPDEST DUP3 MSTORE POP POP JUMP JUMPDEST PUSH0 PUSH1 0x20 DUP3 ADD SWAP1 POP PUSH2 0x6DA PUSH0 DUP4 ADD DUP5 PUSH2 0x6B8 JUMP JUMPDEST SWAP3 SWAP2 POP POP JUMP JUMPDEST PUSH2 0x44D5 DUP1 PUSH2 0x6ED PUSH0 CODECOPY PUSH0 RETURN INVALID PUSH1 0x80 PUSH1 0x40 MSTORE PUSH1 0x4 CALLDATASIZE LT PUSH2 0x1C0 JUMPI PUSH0 CALLDATALOAD PUSH1 0xE0 SHR DUP1 PUSH4 0x8DA5CB5B GT PUSH2 0xF6 JUMPI DUP1 PUSH4 0xC87B56DD GT PUSH2 0x94 JUMPI DUP1 PUSH4 0xEDEB4BBE GT PUSH2 0x63 JUMPI DUP1 PUSH4 0xEDEB4BBE EQ PUSH2 0x64C JUMPI DUP1 PUSH4 0xF119F567 EQ PUSH2 0x676 JUMPI DUP1 PUSH4 0xF28CA1DD EQ PUSH2 0x69E JUMPI DUP1 PUSH4 0xF2FDE38B EQ PUSH2 0x6C8 JUMPI PUSH2 0x1C0 JUMP JUMPDEST DUP1 PUSH4 0xC87B56DD EQ PUSH2 0x582 JUMPI DUP1 PUSH4 0xD547CFB7 EQ PUSH2 0x5BE JUMPI DUP1 PUSH4 0xE0DF5B6F EQ PUSH2 0x5E8 JUMPI DUP1 PUSH4 0xE985E9C5 EQ PUSH2 0x610 JUMPI PUSH2 0x1C0 JUMP JUMPDEST DUP1 PUSH4 0xA22CB465 GT PUSH2 0xD0 JUMPI DUP1 PUSH4 0xA22CB465 EQ PUSH2 0x4CD JUMPI DUP1 PUSH4 0xB564EA86 EQ PUSH2 0x4F5 JUMPI DUP1 PUSH4 0xB88D4FDE EQ PUSH2 0x532 JUMPI DUP1 PUSH4 0xBD9BA9E8 EQ PUSH2 0x55A JUMPI PUSH2 0x1C0 JUMP JUMPDEST DUP1 PUSH4 0x8DA5CB5B EQ PUSH2 0x449 JUMPI DUP1 PUSH4 0x95D89B41 EQ PUSH2 0x473 JUMPI DUP1 PUSH4 0x99683C22 EQ PUSH2 0x49D JUMPI PUSH2 0x1C0 JUMP JUMPDEST DUP1 PUSH4 0x23B872DD GT PUSH2 0x163 JUMPI DUP1 PUSH4 0x6352211E GT PUSH2 0x13D JUMPI DUP1 PUSH4 0x6352211E EQ PUSH2 0x37E JUMPI DUP1 PUSH4 0x70A08231 EQ PUSH2 0x3BA JUMPI DUP1 PUSH4 0x715018A6 EQ PUSH2 0x3F6 JUMPI DUP1 PUSH4 0x86838C60 EQ PUSH2 0x40C JUMPI PUSH2 0x1C0 JUMP JUMPDEST DUP1 PUSH4 0x23B872DD EQ PUSH2 0x306 JUMPI DUP1 PUSH4 0x39E3AA7E EQ PUSH2 0x32E JUMPI DUP1 PUSH4 0x42842E0E EQ PUSH2 0x356 JUMPI PUSH2 0x1C0 JUMP JUMPDEST DUP1 PUSH4 0x81812FC GT PUSH2 0x19F JUMPI DUP1 PUSH4 0x81812FC EQ PUSH2 0x252 JUMPI DUP1 PUSH4 0x95EA7B3 EQ PUSH2 0x28E JUMPI DUP1 PUSH4 0x18D217C3 EQ PUSH2 0x2B6 JUMPI DUP1 PUSH4 0x1BC80EFF EQ PUSH2 0x2DE JUMPI PUSH2 0x1C0 JUMP JUMPDEST DUP1 PUSH3 0xE00064 EQ PUSH2 0x1C4 JUMPI DUP1 PUSH4 0x1FFC9A7 EQ PUSH2 0x1EC JUMPI DUP1 PUSH4 0x6FDDE03 EQ PUSH2 0x228 JUMPI JUMPDEST PUSH0 DUP1 REVERT JUMPDEST CALLVALUE DUP1 ISZERO PUSH2 0x1CF JUMPI PUSH0 DUP1 REVERT JUMPDEST POP PUSH2 0x1EA PUSH1 0x4 DUP1 CALLDATASIZE SUB DUP2 ADD SWAP1 PUSH2 0x1E5 SWAP2 SWAP1 PUSH2 0x30D3 JUMP JUMPDEST PUSH2 0x6F0 JUMP JUMPDEST STOP JUMPDEST CALLVALUE DUP1 ISZERO PUSH2 0x1F7 JUMPI PUSH0 DUP1 REVERT JUMPDEST POP PUSH2 0x212 PUSH1 0x4 DUP1 CALLDATASIZE SUB DUP2 ADD SWAP1 PUSH2 0x20D SWAP2 SWAP1 PUSH2 0x3153 JUMP JUMPDEST PUSH2 0x931 JUMP JUMPDEST PUSH1 0x40 MLOAD PUSH2 0x21F SWAP2 SWAP1 PUSH2 0x3198 JUMP JUMPDEST PUSH1 0x40 MLOAD DUP1 SWAP2 SUB SWAP1 RETURN JUMPDEST CALLVALUE DUP1 ISZERO PUSH2 0x233 JUMPI PUSH0 DUP1 REVERT JUMPDEST POP PUSH2 0x23C PUSH2 0x942 JUMP JUMPDEST PUSH1 0x40 MLOAD PUSH2 0x249 SWAP2 SWAP1 PUSH2 0x3221 JUMP JUMPDEST PUSH1 0x40 MLOAD DUP1 SWAP2 SUB SWAP1 RETURN JUMPDEST CALLVALUE DUP1 ISZERO PUSH2 0x25D JUMPI PUSH0 DUP1 REVERT JUMPDEST POP PUSH2 0x278 PUSH1 0x4 DUP1 CALLDATASIZE SUB DUP2 ADD SWAP1 PUSH2 0x273 SWAP2 SWAP1 PUSH2 0x30D3 JUMP JUMPDEST PUSH2 0x9D1 JUMP JUMPDEST PUSH1 0x40 MLOAD PUSH2 0x285 SWAP2 SWAP1 PUSH2 0x3280 JUMP JUMPDEST PUSH1 0x40 MLOAD DUP1 SWAP2 SUB SWAP1 RETURN JUMPDEST CALLVALUE DUP1 ISZERO PUSH2 0x299 JUMPI PUSH0 DUP1 REVERT JUMPDEST POP PUSH2 0x2B4 PUSH1 0x4 DUP1 CALLDATASIZE SUB DUP2 ADD SWAP1 PUSH2 0x2AF SWAP2 SWAP1 PUSH2 0x32C3 JUMP JUMPDEST PUSH2 0x9EC JUMP JUMPDEST STOP JUMPDEST CALLVALUE DUP1 ISZERO PUSH2 0x2C1 JUMPI PUSH0 DUP1 REVERT JUMPDEST POP PUSH2 0x2DC PUSH1 0x4 DUP1 CALLDATASIZE SUB DUP2 ADD SWAP1 PUSH2 0x2D7 SWAP2 SWAP1 PUSH2 0x342D JUMP JUMPDEST PUSH2 0xA02 JUMP JUMPDEST STOP JUMPDEST CALLVALUE DUP1 ISZERO PUSH2 0x2E9 JUMPI PUSH0 DUP1 REVERT JUMPDEST POP PUSH2 0x304 PUSH1 0x4 DUP1 CALLDATASIZE SUB DUP2 ADD SWAP1 PUSH2 0x2FF SWAP2 SWAP1 PUSH2 0x30D3 JUMP JUMPDEST PUSH2 0xA1D JUMP JUMPDEST STOP JUMPDEST CALLVALUE DUP1 ISZERO PUSH2 0x311 JUMPI PUSH0 DUP1 REVERT JUMPDEST POP PUSH2 0x32C PUSH1 0x4 DUP1 CALLDATASIZE SUB DUP2 ADD SWAP1 PUSH2 0x327 SWAP2 SWAP1 PUSH2 0x3474 JUMP JUMPDEST PUSH2 0xC38 JUMP JUMPDEST STOP JUMPDEST CALLVALUE DUP1 ISZERO PUSH2 0x339 JUMPI PUSH0 DUP1 REVERT JUMPDEST POP PUSH2 0x354 PUSH1 0x4 DUP1 CALLDATASIZE SUB DUP2 ADD SWAP1 PUSH2 0x34F SWAP2 SWAP1 PUSH2 0x342D JUMP JUMPDEST PUSH2 0xD37 JUMP JUMPDEST STOP JUMPDEST CALLVALUE DUP1 ISZERO PUSH2 0x361 JUMPI PUSH0 DUP1 REVERT JUMPDEST POP PUSH2 0x37C PUSH1 0x4 DUP1 CALLDATASIZE SUB DUP2 ADD SWAP1 PUSH2 0x377 SWAP2 SWAP1 PUSH2 0x3474 JUMP JUMPDEST PUSH2 0xD52 JUMP JUMPDEST STOP JUMPDEST CALLVALUE DUP1 ISZERO PUSH2 0x389 JUMPI PUSH0 DUP1 REVERT JUMPDEST POP PUSH2 0x3A4 PUSH1 0x4 DUP1 CALLDATASIZE SUB DUP2 ADD SWAP1 PUSH2 0x39F SWAP2 SWAP1 PUSH2 0x30D3 JUMP JUMPDEST PUSH2 0xD71 JUMP JUMPDEST PUSH1 0x40 MLOAD PUSH2 0x3B1 SWAP2 SWAP1 PUSH2 0x3280 JUMP JUMPDEST PUSH1 0x40 MLOAD DUP1 SWAP2 SUB SWAP1 RETURN JUMPDEST CALLVALUE DUP1 ISZERO PUSH2 0x3C5 JUMPI PUSH0 DUP1 REVERT JUMPDEST POP PUSH2 0x3E0 PUSH1 0x4 DUP1 CALLDATASIZE SUB DUP2 ADD SWAP1 PUSH2 0x3DB SWAP2 SWAP1 PUSH2 0x34C4 JUMP JUMPDEST PUSH2 0xD82 JUMP JUMPDEST PUSH1 0x40 MLOAD PUSH2 0x3ED SWAP2 SWAP1 PUSH2 0x34FE JUMP JUMPDEST PUSH1 0x40 MLOAD DUP1 SWAP2 SUB SWAP1 RETURN JUMPDEST CALLVALUE DUP1 ISZERO PUSH2 0x401 JUMPI PUSH0 DUP1 REVERT JUMPDEST POP PUSH2 0x40A PUSH2 0xE38 JUMP JUMPDEST STOP JUMPDEST CALLVALUE DUP1 ISZERO PUSH2 0x417 JUMPI PUSH0 DUP1 REVERT JUMPDEST POP PUSH2 0x432 PUSH1 0x4 DUP1 CALLDATASIZE SUB DUP2 ADD SWAP1 PUSH2 0x42D SWAP2 SWAP1 PUSH2 0x30D3 JUMP JUMPDEST PUSH2 0xE4B JUMP JUMPDEST PUSH1 0x40 MLOAD PUSH2 0x440 SWAP3 SWAP2 SWAP1 PUSH2 0x3517 JUMP JUMPDEST PUSH1 0x40 MLOAD DUP1 SWAP2 SUB SWAP1 RETURN JUMPDEST CALLVALUE DUP1 ISZERO PUSH2 0x454 JUMPI PUSH0 DUP1 REVERT JUMPDEST POP PUSH2 0x45D PUSH2 0xE7F JUMP JUMPDEST PUSH1 0x40 MLOAD PUSH2 0x46A SWAP2 SWAP1 PUSH2 0x3280 JUMP JUMPDEST PUSH1 0x40 MLOAD DUP1 SWAP2 SUB SWAP1 RETURN JUMPDEST CALLVALUE DUP1 ISZERO PUSH2 0x47E JUMPI PUSH0 DUP1 REVERT JUMPDEST POP PUSH2 0x487 PUSH2 0xEA7 JUMP JUMPDEST PUSH1 0x40 MLOAD PUSH2 0x494 SWAP2 SWAP1 PUSH2 0x3221 JUMP JUMPDEST PUSH1 0x40 MLOAD DUP1 SWAP2 SUB SWAP1 RETURN JUMPDEST PUSH2 0x4B7 PUSH1 0x4 DUP1 CALLDATASIZE SUB DUP2 ADD SWAP1 PUSH2 0x4B2 SWAP2 SWAP1 PUSH2 0x353E JUMP JUMPDEST PUSH2 0xF37 JUMP JUMPDEST PUSH1 0x40 MLOAD PUSH2 0x4C4 SWAP2 SWAP1 PUSH2 0x34FE JUMP JUMPDEST PUSH1 0x40 MLOAD DUP1 SWAP2 SUB SWAP1 RETURN JUMPDEST CALLVALUE DUP1 ISZERO PUSH2 0x4D8 JUMPI PUSH0 DUP1 REVERT JUMPDEST POP PUSH2 0x4F3 PUSH1 0x4 DUP1 CALLDATASIZE SUB DUP2 ADD SWAP1 PUSH2 0x4EE SWAP2 SWAP1 PUSH2 0x35D4 JUMP JUMPDEST PUSH2 0x1104 JUMP JUMPDEST STOP JUMPDEST CALLVALUE DUP1 ISZERO PUSH2 0x500 JUMPI PUSH0 DUP1 REVERT JUMPDEST POP PUSH2 0x51B PUSH1 0x4 DUP1 CALLDATASIZE SUB DUP2 ADD SWAP1 PUSH2 0x516 SWAP2 SWAP1 PUSH2 0x30D3 JUMP JUMPDEST PUSH2 0x111A JUMP JUMPDEST PUSH1 0x40 MLOAD PUSH2 0x529 SWAP3 SWAP2 SWAP1 PUSH2 0x3685 JUMP JUMPDEST PUSH1 0x40 MLOAD DUP1 SWAP2 SUB SWAP1 RETURN JUMPDEST CALLVALUE DUP1 ISZERO PUSH2 0x53D JUMPI PUSH0 DUP1 REVERT JUMPDEST POP PUSH2 0x558 PUSH1 0x4 DUP1 CALLDATASIZE SUB DUP2 ADD SWAP1 PUSH2 0x553 SWAP2 SWAP1 PUSH2 0x374A JUMP JUMPDEST PUSH2 0x12A2 JUMP JUMPDEST STOP JUMPDEST CALLVALUE DUP1 ISZERO PUSH2 0x565 JUMPI PUSH0 DUP1 REVERT JUMPDEST POP PUSH2 0x580 PUSH1 0x4 DUP1 CALLDATASIZE SUB DUP2 ADD SWAP1 PUSH2 0x57B SWAP2 SWAP1 PUSH2 0x342D JUMP JUMPDEST PUSH2 0x12BF JUMP JUMPDEST STOP JUMPDEST CALLVALUE DUP1 ISZERO PUSH2 0x58D JUMPI PUSH0 DUP1 REVERT JUMPDEST POP PUSH2 0x5A8 PUSH1 0x4 DUP1 CALLDATASIZE SUB DUP2 ADD SWAP1 PUSH2 0x5A3 SWAP2 SWAP1 PUSH2 0x30D3 JUMP JUMPDEST PUSH2 0x12DA JUMP JUMPDEST PUSH1 0x40 MLOAD PUSH2 0x5B5 SWAP2 SWAP1 PUSH2 0x3221 JUMP JUMPDEST PUSH1 0x40 MLOAD DUP1 SWAP2 SUB SWAP1 RETURN JUMPDEST CALLVALUE DUP1 ISZERO PUSH2 0x5C9 JUMPI PUSH0 DUP1 REVERT JUMPDEST POP PUSH2 0x5D2 PUSH2 0x1753 JUMP JUMPDEST PUSH1 0x40 MLOAD PUSH2 0x5DF SWAP2 SWAP1 PUSH2 0x3221 JUMP JUMPDEST PUSH1 0x40 MLOAD DUP1 SWAP2 SUB SWAP1 RETURN JUMPDEST CALLVALUE DUP1 ISZERO PUSH2 0x5F3 JUMPI PUSH0 DUP1 REVERT JUMPDEST POP PUSH2 0x60E PUSH1 0x4 DUP1 CALLDATASIZE SUB DUP2 ADD SWAP1 PUSH2 0x609 SWAP2 SWAP1 PUSH2 0x342D JUMP JUMPDEST PUSH2 0x17DF JUMP JUMPDEST STOP JUMPDEST CALLVALUE DUP1 ISZERO PUSH2 0x61B JUMPI PUSH0 DUP1 REVERT JUMPDEST POP PUSH2 0x636 PUSH1 0x4 DUP1 CALLDATASIZE SUB DUP2 ADD SWAP1 PUSH2 0x631 SWAP2 SWAP1 PUSH2 0x37CA JUMP JUMPDEST PUSH2 0x17FA JUMP JUMPDEST PUSH1 0x40 MLOAD PUSH2 0x643 SWAP2 SWAP1 PUSH2 0x3198 JUMP JUMPDEST PUSH1 0x40 MLOAD DUP1 SWAP2 SUB SWAP1 RETURN JUMPDEST CALLVALUE DUP1 ISZERO PUSH2 0x657 JUMPI PUSH0 DUP1 REVERT JUMPDEST POP PUSH2 0x660 PUSH2 0x1888 JUMP JUMPDEST PUSH1 0x40 MLOAD PUSH2 0x66D SWAP2 SWAP1 PUSH2 0x3221 JUMP JUMPDEST PUSH1 0x40 MLOAD DUP1 SWAP2 SUB SWAP1 RETURN JUMPDEST CALLVALUE DUP1 ISZERO PUSH2 0x681 JUMPI PUSH0 DUP1 REVERT JUMPDEST POP PUSH2 0x69C PUSH1 0x4 DUP1 CALLDATASIZE SUB DUP2 ADD SWAP1 PUSH2 0x697 SWAP2 SWAP1 PUSH2 0x30D3 JUMP JUMPDEST PUSH2 0x1914 JUMP JUMPDEST STOP JUMPDEST CALLVALUE DUP1 ISZERO PUSH2 0x6A9 JUMPI PUSH0 DUP1 REVERT JUMPDEST POP PUSH2 0x6B2 PUSH2 0x1BFF JUMP JUMPDEST PUSH1 0x40 MLOAD PUSH2 0x6BF SWAP2 SWAP1 PUSH2 0x3221 JUMP JUMPDEST PUSH1 0x40 MLOAD DUP1 SWAP2 SUB SWAP1 RETURN JUMPDEST CALLVALUE DUP1 ISZERO PUSH2 0x6D3 JUMPI PUSH0 DUP1 REVERT JUMPDEST POP PUSH2 0x6EE PUSH1 0x4 DUP1 CALLDATASIZE SUB DUP2 ADD SWAP1 PUSH2 0x6E9 SWAP2 SWAP1 PUSH2 0x34C4 JUMP JUMPDEST PUSH2 0x1C8B JUMP JUMPDEST STOP JUMPDEST PUSH1 0x3 DUP1 DUP2 GT ISZERO PUSH2 0x703 JUMPI PUSH2 0x702 PUSH2 0x3612 JUMP JUMPDEST JUMPDEST PUSH1 0x8 PUSH0 DUP4 DUP2 MSTORE PUSH1 0x20 ADD SWAP1 DUP2 MSTORE PUSH1 0x20 ADD PUSH0 KECCAK256 PUSH0 SWAP1 SLOAD SWAP1 PUSH2 0x100 EXP SWAP1 DIV PUSH1 0xFF AND PUSH1 0x3 DUP2 GT ISZERO PUSH2 0x733 JUMPI PUSH2 0x732 PUSH2 0x3612 JUMP JUMPDEST JUMPDEST SUB PUSH2 0x773 JUMPI PUSH1 0x40 MLOAD PUSH32 0x8C379A000000000000000000000000000000000000000000000000000000000 DUP2 MSTORE PUSH1 0x4 ADD PUSH2 0x76A SWAP1 PUSH2 0x3852 JUMP JUMPDEST PUSH1 0x40 MLOAD DUP1 SWAP2 SUB SWAP1 REVERT JUMPDEST CALLER PUSH20 0xFFFFFFFFFFFFFFFFFFFFFFFFFFFFFFFFFFFFFFFF AND PUSH2 0x793 DUP3 PUSH2 0xD71 JUMP JUMPDEST PUSH20 0xFFFFFFFFFFFFFFFFFFFFFFFFFFFFFFFFFFFFFFFF AND EQ PUSH2 0x7E9 JUMPI PUSH1 0x40 MLOAD PUSH32 0x8C379A000000000000000000000000000000000000000000000000000000000 DUP2 MSTORE PUSH1 0x4 ADD PUSH2 0x7E0 SWAP1 PUSH2 0x38BA JUMP JUMPDEST PUSH1 0x40 MLOAD DUP1 SWAP2 SUB SWAP1 REVERT JUMPDEST PUSH0 PUSH1 0x8 PUSH0 DUP4 DUP2 MSTORE PUSH1 0x20 ADD SWAP1 DUP2 MSTORE PUSH1 0x20 ADD PUSH0 KECCAK256 PUSH0 SWAP1 SLOAD SWAP1 PUSH2 0x100 EXP SWAP1 DIV PUSH1 0xFF AND SWAP1 POP PUSH0 PUSH1 0xA PUSH0 DUP5 DUP2 MSTORE PUSH1 0x20 ADD SWAP1 DUP2 MSTORE PUSH1 0x20 ADD PUSH0 KECCAK256 SWAP1 POP PUSH0 TIMESTAMP SWAP1 POP PUSH0 PUSH1 0x3 DUP2 GT ISZERO PUSH2 0x835 JUMPI PUSH2 0x834 PUSH2 0x3612 JUMP JUMPDEST JUMPDEST DUP4 PUSH1 0x3 DUP2 GT ISZERO PUSH2 0x848 JUMPI PUSH2 0x847 PUSH2 0x3612 JUMP JUMPDEST JUMPDEST SUB PUSH2 0x879 JUMPI PUSH2 0x86D DUP2 PUSH1 0xA PUSH0 DUP8 DUP2 MSTORE PUSH1 0x20 ADD SWAP1 DUP2 MSTORE PUSH1 0x20 ADD PUSH0 KECCAK256 PUSH0 ADD SLOAD PUSH2 0x2A30 PUSH2 0x1D0F JUMP JUMPDEST DUP3 PUSH0 ADD DUP2 SWAP1 SSTORE POP PUSH2 0x92B JUMP JUMPDEST PUSH1 0x1 PUSH1 0x3 DUP2 GT ISZERO PUSH2 0x88D JUMPI PUSH2 0x88C PUSH2 0x3612 JUMP JUMPDEST JUMPDEST DUP4 PUSH1 0x3 DUP2 GT ISZERO PUSH2 0x8A0 JUMPI PUSH2 0x89F PUSH2 0x3612 JUMP JUMPDEST JUMPDEST SUB PUSH2 0x8D3 JUMPI PUSH2 0x8C6 DUP2 PUSH1 0xA PUSH0 DUP8 DUP2 MSTORE PUSH1 0x20 ADD SWAP1 DUP2 MSTORE PUSH1 0x20 ADD PUSH0 KECCAK256 PUSH1 0x1 ADD SLOAD PUSH2 0x2A30 PUSH2 0x1D0F JUMP JUMPDEST DUP3 PUSH1 0x1 ADD DUP2 SWAP1 SSTORE POP PUSH2 0x92A JUMP JUMPDEST PUSH1 0x2 PUSH1 0x3 DUP2 GT ISZERO PUSH2 0x8E7 JUMPI PUSH2 0x8E6 PUSH2 0x3612 JUMP JUMPDEST JUMPDEST DUP4 PUSH1 0x3 DUP2 GT ISZERO PUSH2 0x8FA JUMPI PUSH2 0x8F9 PUSH2 0x3612 JUMP JUMPDEST JUMPDEST SUB PUSH2 0x929 JUMPI PUSH2 0x920 DUP2 PUSH1 0xA PUSH0 DUP8 DUP2 MSTORE PUSH1 0x20 ADD SWAP1 DUP2 MSTORE PUSH1 0x20 ADD PUSH0 KECCAK256 PUSH1 0x2 ADD SLOAD PUSH2 0x2A30 PUSH2 0x1D0F JUMP JUMPDEST DUP3 PUSH1 0x2 ADD DUP2 SWAP1 SSTORE POP JUMPDEST JUMPDEST JUMPDEST POP POP POP POP JUMP JUMPDEST PUSH0 PUSH2 0x93B DUP3 PUSH2 0x1D40 JUMP JUMPDEST SWAP1 POP SWAP2 SWAP1 POP JUMP JUMPDEST PUSH1 0x60 PUSH0 DUP1 SLOAD PUSH2 0x950 SWAP1 PUSH2 0x3905 JUMP JUMPDEST DUP1 PUSH1 0x1F ADD PUSH1 0x20 DUP1 SWAP2 DIV MUL PUSH1 0x20 ADD PUSH1 0x40 MLOAD SWAP1 DUP2 ADD PUSH1 0x40 MSTORE DUP1 SWAP3 SWAP2 SWAP1 DUP2 DUP2 MSTORE PUSH1 0x20 ADD DUP3 DUP1 SLOAD PUSH2 0x97C SWAP1 PUSH2 0x3905 JUMP JUMPDEST DUP1 ISZERO PUSH2 0x9C7 JUMPI DUP1 PUSH1 0x1F LT PUSH2 0x99E JUMPI PUSH2 0x100 DUP1 DUP4 SLOAD DIV MUL DUP4 MSTORE SWAP2 PUSH1 0x20 ADD SWAP2 PUSH2 0x9C7 JUMP JUMPDEST DUP3 ADD SWAP2 SWAP1 PUSH0 MSTORE PUSH1 0x20 PUSH0 KECCAK256 SWAP1 JUMPDEST DUP2 SLOAD DUP2 MSTORE SWAP1 PUSH1 0x1 ADD SWAP1 PUSH1 0x20 ADD DUP1 DUP4 GT PUSH2 0x9AA JUMPI DUP3 SWAP1 SUB PUSH1 0x1F AND DUP3 ADD SWAP2 JUMPDEST POP POP POP POP POP SWAP1 POP SWAP1 JUMP JUMPDEST PUSH0 PUSH2 0x9DB DUP3 PUSH2 0x1DA0 JUMP JUMPDEST POP PUSH2 0x9E5 DUP3 PUSH2 0x1E26 JUMP JUMPDEST SWAP1 POP SWAP2 SWAP1 POP JUMP JUMPDEST PUSH2 0x9FE DUP3 DUP3 PUSH2 0x9F9 PUSH2 0x1E5F JUMP JUMPDEST PUSH2 0x1E66 JUMP JUMPDEST POP POP JUMP JUMPDEST PUSH2 0xA0A PUSH2 0x1E78 JUMP JUMPDEST DUP1 PUSH1 0xF SWAP1 DUP2 PUSH2 0xA19 SWAP2 SWAP1 PUSH2 0x3AD2 JUMP JUMPDEST POP POP JUMP JUMPDEST PUSH2 0xA25 PUSH2 0x1E78 JUMP JUMPDEST PUSH0 PUSH1 0x8 PUSH0 DUP4 DUP2 MSTORE PUSH1 0x20 ADD SWAP1 DUP2 MSTORE PUSH1 0x20 ADD PUSH0 KECCAK256 PUSH0 SWAP1 SLOAD SWAP1 PUSH2 0x100 EXP SWAP1 DIV PUSH1 0xFF AND SWAP1 POP PUSH0 PUSH1 0x3 DUP2 GT ISZERO PUSH2 0xA59 JUMPI PUSH2 0xA58 PUSH2 0x3612 JUMP JUMPDEST JUMPDEST DUP2 PUSH1 0x3 DUP2 GT ISZERO PUSH2 0xA6C JUMPI PUSH2 0xA6B PUSH2 0x3612 JUMP JUMPDEST JUMPDEST SUB PUSH2 0xAF6 JUMPI PUSH1 0x1 PUSH1 0x8 PUSH0 DUP5 DUP2 MSTORE PUSH1 0x20 ADD SWAP1 DUP2 MSTORE PUSH1 0x20 ADD PUSH0 KECCAK256 PUSH0 PUSH2 0x100 EXP DUP2 SLOAD DUP2 PUSH1 0xFF MUL NOT AND SWAP1 DUP4 PUSH1 0x3 DUP2 GT ISZERO PUSH2 0xAA5 JUMPI PUSH2 0xAA4 PUSH2 0x3612 JUMP JUMPDEST JUMPDEST MUL OR SWAP1 SSTORE POP PUSH2 0xAB2 PUSH2 0x1EFF JUMP JUMPDEST PUSH1 0x9 PUSH0 DUP5 DUP2 MSTORE PUSH1 0x20 ADD SWAP1 DUP2 MSTORE PUSH1 0x20 ADD PUSH0 KECCAK256 PUSH1 0x1 ADD DUP2 SWAP1 SSTORE POP PUSH3 0x2A300 TIMESTAMP PUSH2 0xAD9 SWAP2 SWAP1 PUSH2 0x3BCE JUMP JUMPDEST PUSH1 0xA PUSH0 DUP5 DUP2 MSTORE PUSH1 0x20 ADD SWAP1 DUP2 MSTORE PUSH1 0x20 ADD PUSH0 KECCAK256 PUSH1 0x1 ADD DUP2 SWAP1 SSTORE POP PUSH2 0xC34 JUMP JUMPDEST PUSH1 0x1 PUSH1 0x3 DUP2 GT ISZERO PUSH2 0xB0A JUMPI PUSH2 0xB09 PUSH2 0x3612 JUMP JUMPDEST JUMPDEST DUP2 PUSH1 0x3 DUP2 GT ISZERO PUSH2 0xB1D JUMPI PUSH2 0xB1C PUSH2 0x3612 JUMP JUMPDEST JUMPDEST SUB PUSH2 0xB87 JUMPI PUSH1 0x2 PUSH1 0x8 PUSH0 DUP5 DUP2 MSTORE PUSH1 0x20 ADD SWAP1 DUP2 MSTORE PUSH1 0x20 ADD PUSH0 KECCAK256 PUSH0 PUSH2 0x100 EXP DUP2 SLOAD DUP2 PUSH1 0xFF MUL NOT AND SWAP1 DUP4 PUSH1 0x3 DUP2 GT ISZERO PUSH2 0xB56 JUMPI PUSH2 0xB55 PUSH2 0x3612 JUMP JUMPDEST JUMPDEST MUL OR SWAP1 SSTORE POP PUSH3 0x3F480 TIMESTAMP PUSH2 0xB6A SWAP2 SWAP1 PUSH2 0x3BCE JUMP JUMPDEST PUSH1 0xA PUSH0 DUP5 DUP2 MSTORE PUSH1 0x20 ADD SWAP1 DUP2 MSTORE PUSH1 0x20 ADD PUSH0 KECCAK256 PUSH1 0x2 ADD DUP2 SWAP1 SSTORE POP PUSH2 0xC33 JUMP JUMPDEST PUSH1 0x2 PUSH1 0x3 DUP2 GT ISZERO PUSH2 0xB9B JUMPI PUSH2 0xB9A PUSH2 0x3612 JUMP JUMPDEST JUMPDEST DUP2 PUSH1 0x3 DUP2 GT ISZERO PUSH2 0xBAE JUMPI PUSH2 0xBAD PUSH2 0x3612 JUMP JUMPDEST JUMPDEST SUB PUSH2 0xBF1 JUMPI PUSH1 0x3 PUSH1 0x8 PUSH0 DUP5 DUP2 MSTORE PUSH1 0x20 ADD SWAP1 DUP2 MSTORE PUSH1 0x20 ADD PUSH0 KECCAK256 PUSH0 PUSH2 0x100 EXP DUP2 SLOAD DUP2 PUSH1 0xFF MUL NOT AND SWAP1 DUP4 PUSH1 0x3 DUP2 GT ISZERO PUSH2 0xBE7 JUMPI PUSH2 0xBE6 PUSH2 0x3612 JUMP JUMPDEST JUMPDEST MUL OR SWAP1 SSTORE POP PUSH2 0xC32 JUMP JUMPDEST PUSH0 PUSH2 0xC31 JUMPI PUSH1 0x40 MLOAD PUSH32 0x8C379A000000000000000000000000000000000000000000000000000000000 DUP2 MSTORE PUSH1 0x4 ADD PUSH2 0xC28 SWAP1 PUSH2 0x3C4B JUMP JUMPDEST PUSH1 0x40 MLOAD DUP1 SWAP2 SUB SWAP1 REVERT JUMPDEST JUMPDEST JUMPDEST JUMPDEST POP POP JUMP JUMPDEST PUSH0 PUSH20 0xFFFFFFFFFFFFFFFFFFFFFFFFFFFFFFFFFFFFFFFF AND DUP3 PUSH20 0xFFFFFFFFFFFFFFFFFFFFFFFFFFFFFFFFFFFFFFFF AND SUB PUSH2 0xCA8 JUMPI PUSH0 PUSH1 0x40 MLOAD PUSH32 0x64A0AE9200000000000000000000000000000000000000000000000000000000 DUP2 MSTORE PUSH1 0x4 ADD PUSH2 0xC9F SWAP2 SWAP1 PUSH2 0x3280 JUMP JUMPDEST PUSH1 0x40 MLOAD DUP1 SWAP2 SUB SWAP1 REVERT JUMPDEST PUSH0 PUSH2 0xCBB DUP4 DUP4 PUSH2 0xCB6 PUSH2 0x1E5F JUMP JUMPDEST PUSH2 0x1F63 JUMP JUMPDEST SWAP1 POP DUP4 PUSH20 0xFFFFFFFFFFFFFFFFFFFFFFFFFFFFFFFFFFFFFFFF AND DUP2 PUSH20 0xFFFFFFFFFFFFFFFFFFFFFFFFFFFFFFFFFFFFFFFF AND EQ PUSH2 0xD31 JUMPI DUP4 DUP3 DUP3 PUSH1 0x40 MLOAD PUSH32 0x64283D7B00000000000000000000000000000000000000000000000000000000 DUP2 MSTORE PUSH1 0x4 ADD PUSH2 0xD28 SWAP4 SWAP3 SWAP2 SWAP1 PUSH2 0x3C69 JUMP JUMPDEST PUSH1 0x40 MLOAD DUP1 SWAP2 SUB SWAP1 REVERT JUMPDEST POP POP POP POP JUMP JUMPDEST PUSH2 0xD3F PUSH2 0x1E78 JUMP JUMPDEST DUP1 PUSH1 0x11 SWAP1 DUP2 PUSH2 0xD4E SWAP2 SWAP1 PUSH2 0x3AD2 JUMP JUMPDEST POP POP JUMP JUMPDEST PUSH2 0xD6C DUP4 DUP4 DUP4 PUSH1 0x40 MLOAD DUP1 PUSH1 0x20 ADD PUSH1 0x40 MSTORE DUP1 PUSH0 DUP2 MSTORE POP PUSH2 0x12A2 JUMP JUMPDEST POP POP POP JUMP JUMPDEST PUSH0 PUSH2 0xD7B DUP3 PUSH2 0x1DA0 JUMP JUMPDEST SWAP1 POP SWAP2 SWAP1 POP JUMP JUMPDEST PUSH0 DUP1 PUSH20 0xFFFFFFFFFFFFFFFFFFFFFFFFFFFFFFFFFFFFFFFF AND DUP3 PUSH20 0xFFFFFFFFFFFFFFFFFFFFFFFFFFFFFFFFFFFFFFFF AND SUB PUSH2 0xDF3 JUMPI PUSH0 PUSH1 0x40 MLOAD PUSH32 0x89C62B6400000000000000000000000000000000000000000000000000000000 DUP2 MSTORE PUSH1 0x4 ADD PUSH2 0xDEA SWAP2 SWAP1 PUSH2 0x3280 JUMP JUMPDEST PUSH1 0x40 MLOAD DUP1 SWAP2 SUB SWAP1 REVERT JUMPDEST PUSH1 0x3 PUSH0 DUP4 PUSH20 0xFFFFFFFFFFFFFFFFFFFFFFFFFFFFFFFFFFFFFFFF AND PUSH20 0xFFFFFFFFFFFFFFFFFFFFFFFFFFFFFFFFFFFFFFFF AND DUP2 MSTORE PUSH1 0x20 ADD SWAP1 DUP2 MSTORE PUSH1 0x20 ADD PUSH0 KECCAK256 SLOAD SWAP1 POP SWAP2 SWAP1 POP JUMP JUMPDEST PUSH2 0xE40 PUSH2 0x1E78 JUMP JUMPDEST PUSH2 0xE49 PUSH0 PUSH2 0x216E JUMP JUMPDEST JUMP JUMPDEST PUSH0 DUP1 PUSH1 0x12 PUSH0 DUP5 DUP2 MSTORE PUSH1 0x20 ADD SWAP1 DUP2 MSTORE PUSH1 0x20 ADD PUSH0 KECCAK256 PUSH0 ADD SLOAD SWAP2 POP PUSH1 0x12 PUSH0 DUP5 DUP2 MSTORE PUSH1 0x20 ADD SWAP1 DUP2 MSTORE PUSH1 0x20 ADD PUSH0 KECCAK256 PUSH1 0x1 ADD SLOAD SWAP1 POP SWAP2 POP SWAP2 JUMP JUMPDEST PUSH0 PUSH1 0x7 PUSH0 SWAP1 SLOAD SWAP1 PUSH2 0x100 EXP SWAP1 DIV PUSH20 0xFFFFFFFFFFFFFFFFFFFFFFFFFFFFFFFFFFFFFFFF AND SWAP1 POP SWAP1 JUMP JUMPDEST PUSH1 0x60 PUSH1 0x1 DUP1 SLOAD PUSH2 0xEB6 SWAP1 PUSH2 0x3905 JUMP JUMPDEST DUP1 PUSH1 0x1F ADD PUSH1 0x20 DUP1 SWAP2 DIV MUL PUSH1 0x20 ADD PUSH1 0x40 MLOAD SWAP1 DUP2 ADD PUSH1 0x40 MSTORE DUP1 SWAP3 SWAP2 SWAP1 DUP2 DUP2 MSTORE PUSH1 0x20 ADD DUP3 DUP1 SLOAD PUSH2 0xEE2 SWAP1 PUSH2 0x3905 JUMP JUMPDEST DUP1 ISZERO PUSH2 0xF2D JUMPI DUP1 PUSH1 0x1F LT PUSH2 0xF04 JUMPI PUSH2 0x100 DUP1 DUP4 SLOAD DIV MUL DUP4 MSTORE SWAP2 PUSH1 0x20 ADD SWAP2 PUSH2 0xF2D JUMP JUMPDEST DUP3 ADD SWAP2 SWAP1 PUSH0 MSTORE PUSH1 0x20 PUSH0 KECCAK256 SWAP1 JUMPDEST DUP2 SLOAD DUP2 MSTORE SWAP1 PUSH1 0x1 ADD SWAP1 PUSH1 0x20 ADD DUP1 DUP4 GT PUSH2 0xF10 JUMPI DUP3 SWAP1 SUB PUSH1 0x1F AND DUP3 ADD SWAP2 JUMPDEST POP POP POP POP POP SWAP1 POP SWAP1 JUMP JUMPDEST PUSH0 CALLER PUSH20 0xFFFFFFFFFFFFFFFFFFFFFFFFFFFFFFFFFFFFFFFF AND PUSH2 0xF58 DUP5 PUSH2 0xD71 JUMP JUMPDEST PUSH20 0xFFFFFFFFFFFFFFFFFFFFFFFFFFFFFFFFFFFFFFFF AND EQ DUP1 ISZERO PUSH2 0xFAE JUMPI POP CALLER PUSH20 0xFFFFFFFFFFFFFFFFFFFFFFFFFFFFFFFFFFFFFFFF AND PUSH2 0xF96 DUP4 PUSH2 0xD71 JUMP JUMPDEST PUSH20 0xFFFFFFFFFFFFFFFFFFFFFFFFFFFFFFFFFFFFFFFF AND EQ JUMPDEST PUSH2 0xFED JUMPI PUSH1 0x40 MLOAD PUSH32 0x8C379A000000000000000000000000000000000000000000000000000000000 DUP2 MSTORE PUSH1 0x4 ADD PUSH2 0xFE4 SWAP1 PUSH2 0x38BA JUMP JUMPDEST PUSH1 0x40 MLOAD DUP1 SWAP2 SUB SWAP1 REVERT JUMPDEST PUSH2 0xFF7 DUP4 DUP4 PUSH2 0x2231 JUMP JUMPDEST ISZERO PUSH2 0x1037 JUMPI PUSH1 0x40 MLOAD PUSH32 0x8C379A000000000000000000000000000000000000000000000000000000000 DUP2 MSTORE PUSH1 0x4 ADD PUSH2 0x102E SWAP1 PUSH2 0x3CE8 JUMP JUMPDEST PUSH1 0x40 MLOAD DUP1 SWAP2 SUB SWAP1 REVERT JUMPDEST PUSH2 0x1040 DUP4 PUSH2 0x22BC JUMP JUMPDEST DUP1 ISZERO PUSH2 0x1051 JUMPI POP PUSH2 0x1050 DUP3 PUSH2 0x22BC JUMP JUMPDEST JUMPDEST PUSH2 0x1090 JUMPI PUSH1 0x40 MLOAD PUSH32 0x8C379A000000000000000000000000000000000000000000000000000000000 DUP2 MSTORE PUSH1 0x4 ADD PUSH2 0x1087 SWAP1 PUSH2 0x3D50 JUMP JUMPDEST PUSH1 0x40 MLOAD DUP1 SWAP2 SUB SWAP1 REVERT JUMPDEST PUSH2 0x109A DUP4 DUP4 PUSH2 0x22DA JUMP JUMPDEST PUSH2 0x10D9 JUMPI PUSH1 0x40 MLOAD PUSH32 0x8C379A000000000000000000000000000000000000000000000000000000000 DUP2 MSTORE PUSH1 0x4 ADD PUSH2 0x10D0 SWAP1 PUSH2 0x3DB8 JUMP JUMPDEST PUSH1 0x40 MLOAD DUP1 SWAP2 SUB SWAP1 REVERT JUMPDEST PUSH2 0x10E2 DUP4 PUSH2 0x2319 JUMP JUMPDEST PUSH2 0x10EB DUP3 PUSH2 0x2319 JUMP JUMPDEST PUSH0 PUSH2 0x10F7 DUP6 DUP6 DUP6 PUSH2 0x236B JUMP JUMPDEST SWAP1 POP DUP1 SWAP2 POP POP SWAP4 SWAP3 POP POP POP JUMP JUMPDEST PUSH2 0x1116 PUSH2 0x110F PUSH2 0x1E5F JUMP JUMPDEST DUP4 DUP4 PUSH2 0x23E0 JUMP JUMPDEST POP POP JUMP JUMPDEST PUSH0 DUP1 PUSH1 0x8 PUSH0 DUP5 DUP2 MSTORE PUSH1 0x20 ADD SWAP1 DUP2 MSTORE PUSH1 0x20 ADD PUSH0 KECCAK256 PUSH0 SWAP1 SLOAD SWAP1 PUSH2 0x100 EXP SWAP1 DIV PUSH1 0xFF AND SWAP2 POP PUSH0 TIMESTAMP SWAP1 POP PUSH0 PUSH1 0x3 DUP2 GT ISZERO PUSH2 0x1153 JUMPI PUSH2 0x1152 PUSH2 0x3612 JUMP JUMPDEST JUMPDEST DUP4 PUSH1 0x3 DUP2 GT ISZERO PUSH2 0x1166 JUMPI PUSH2 0x1165 PUSH2 0x3612 JUMP JUMPDEST JUMPDEST EQ DUP1 ISZERO PUSH2 0x1185 JUMPI POP DUP1 PUSH1 0xA PUSH0 DUP7 DUP2 MSTORE PUSH1 0x20 ADD SWAP1 DUP2 MSTORE PUSH1 0x20 ADD PUSH0 KECCAK256 PUSH0 ADD SLOAD GT JUMPDEST ISZERO PUSH2 0x11B0 JUMPI DUP1 PUSH1 0xA PUSH0 DUP7 DUP2 MSTORE PUSH1 0x20 ADD SWAP1 DUP2 MSTORE PUSH1 0x20 ADD PUSH0 KECCAK256 PUSH0 ADD SLOAD PUSH2 0x11A9 SWAP2 SWAP1 PUSH2 0x3DD6 JUMP JUMPDEST SWAP2 POP PUSH2 0x129C JUMP JUMPDEST PUSH1 0x1 PUSH1 0x3 DUP2 GT ISZERO PUSH2 0x11C4 JUMPI PUSH2 0x11C3 PUSH2 0x3612 JUMP JUMPDEST JUMPDEST DUP4 PUSH1 0x3 DUP2 GT ISZERO PUSH2 0x11D7 JUMPI PUSH2 0x11D6 PUSH2 0x3612 JUMP JUMPDEST JUMPDEST EQ DUP1 ISZERO PUSH2 0x11F7 JUMPI POP DUP1 PUSH1 0xA PUSH0 DUP7 DUP2 MSTORE PUSH1 0x20 ADD SWAP1 DUP2 MSTORE PUSH1 0x20 ADD PUSH0 KECCAK256 PUSH1 0x1 ADD SLOAD GT JUMPDEST ISZERO PUSH2 0x1223 JUMPI DUP1 PUSH1 0xA PUSH0 DUP7 DUP2 MSTORE PUSH1 0x20 ADD SWAP1 DUP2 MSTORE PUSH1 0x20 ADD PUSH0 KECCAK256 PUSH1 0x1 ADD SLOAD PUSH2 0x121C SWAP2 SWAP1 PUSH2 0x3DD6 JUMP JUMPDEST SWAP2 POP PUSH2 0x129B JUMP JUMPDEST PUSH1 0x2 PUSH1 0x3 DUP2 GT ISZERO PUSH2 0x1237 JUMPI PUSH2 0x1236 PUSH2 0x3612 JUMP JUMPDEST JUMPDEST DUP4 PUSH1 0x3 DUP2 GT ISZERO PUSH2 0x124A JUMPI PUSH2 0x1249 PUSH2 0x3612 JUMP JUMPDEST JUMPDEST EQ DUP1 ISZERO PUSH2 0x126A JUMPI POP DUP1 PUSH1 0xA PUSH0 DUP7 DUP2 MSTORE PUSH1 0x20 ADD SWAP1 DUP2 MSTORE PUSH1 0x20 ADD PUSH0 KECCAK256 PUSH1 0x2 ADD SLOAD GT JUMPDEST ISZERO PUSH2 0x1296 JUMPI DUP1 PUSH1 0xA PUSH0 DUP7 DUP2 MSTORE PUSH1 0x20 ADD SWAP1 DUP2 MSTORE PUSH1 0x20 ADD PUSH0 KECCAK256 PUSH1 0x2 ADD SLOAD PUSH2 0x128F SWAP2 SWAP1 PUSH2 0x3DD6 JUMP JUMPDEST SWAP2 POP PUSH2 0x129A JUMP JUMPDEST PUSH0 SWAP2 POP JUMPDEST JUMPDEST JUMPDEST POP SWAP2 POP SWAP2 JUMP JUMPDEST PUSH2 0x12AD DUP5 DUP5 DUP5 PUSH2 0xC38 JUMP JUMPDEST PUSH2 0x12B9 DUP5 DUP5 DUP5 DUP5 PUSH2 0x2549 JUMP JUMPDEST POP POP POP POP JUMP JUMPDEST PUSH2 0x12C7 PUSH2 0x1E78 JUMP JUMPDEST DUP1 PUSH1 0x10 SWAP1 DUP2 PUSH2 0x12D6 SWAP2 SWAP1 PUSH2 0x3AD2 JUMP JUMPDEST POP POP JUMP JUMPDEST PUSH1 0x60 DUP1 PUSH0 PUSH1 0xE DUP1 SLOAD PUSH2 0x12EB SWAP1 PUSH2 0x3905 JUMP JUMPDEST SWAP1 POP GT ISZERO PUSH2 0x1326 JUMPI PUSH1 0xE PUSH2 0x12FE DUP5 PUSH2 0x26FB JUMP JUMPDEST PUSH1 0x40 MLOAD PUSH1 0x20 ADD PUSH2 0x130F SWAP3 SWAP2 SWAP1 PUSH2 0x3EC3 JUMP JUMPDEST PUSH1 0x40 MLOAD PUSH1 0x20 DUP2 DUP4 SUB SUB DUP2 MSTORE SWAP1 PUSH1 0x40 MSTORE SWAP2 POP POP PUSH2 0x174E JUMP JUMPDEST PUSH0 PUSH1 0x3 DUP2 GT ISZERO PUSH2 0x1339 JUMPI PUSH2 0x1338 PUSH2 0x3612 JUMP JUMPDEST JUMPDEST PUSH1 0x8 PUSH0 DUP6 DUP2 MSTORE PUSH1 0x20 ADD SWAP1 DUP2 MSTORE PUSH1 0x20 ADD PUSH0 KECCAK256 PUSH0 SWAP1 SLOAD SWAP1 PUSH2 0x100 EXP SWAP1 DIV PUSH1 0xFF AND PUSH1 0x3 DUP2 GT ISZERO PUSH2 0x1369 JUMPI PUSH2 0x1368 PUSH2 0x3612 JUMP JUMPDEST JUMPDEST SUB PUSH2 0x13A7 JUMPI PUSH1 0x9 PUSH0 DUP5 DUP2 MSTORE PUSH1 0x20 ADD SWAP1 DUP2 MSTORE PUSH1 0x20 ADD PUSH0 KECCAK256 PUSH0 ADD PUSH1 0x40 MLOAD PUSH1 0x20 ADD PUSH2 0x1391 SWAP2 SWAP1 PUSH2 0x3F30 JUMP JUMPDEST PUSH1 0x40 MLOAD PUSH1 0x20 DUP2 DUP4 SUB SUB DUP2 MSTORE SWAP1 PUSH1 0x40 MSTORE SWAP1 POP PUSH2 0x1663 JUMP JUMPDEST PUSH0 PUSH1 0x1 PUSH1 0x9 PUSH0 DUP7 DUP2 MSTORE PUSH1 0x20 ADD SWAP1 DUP2 MSTORE PUSH1 0x20 ADD PUSH0 KECCAK256 PUSH1 0x4 ADD SLOAD EQ PUSH2 0x13FF JUMPI PUSH1 0x40 MLOAD DUP1 PUSH1 0x40 ADD PUSH1 0x40 MSTORE DUP1 PUSH1 0x1 DUP2 MSTORE PUSH1 0x20 ADD PUSH32 0x6200000000000000000000000000000000000000000000000000000000000000 DUP2 MSTORE POP PUSH2 0x1436 JUMP JUMPDEST PUSH1 0x40 MLOAD DUP1 PUSH1 0x40 ADD PUSH1 0x40 MSTORE DUP1 PUSH1 0x1 DUP2 MSTORE PUSH1 0x20 ADD PUSH32 0x6700000000000000000000000000000000000000000000000000000000000000 DUP2 MSTORE POP JUMPDEST SWAP1 POP PUSH0 PUSH1 0x1 PUSH1 0x9 PUSH0 DUP8 DUP2 MSTORE PUSH1 0x20 ADD SWAP1 DUP2 MSTORE PUSH1 0x20 ADD PUSH0 KECCAK256 PUSH1 0x1 ADD SLOAD EQ PUSH2 0x1490 JUMPI PUSH1 0x40 MLOAD DUP1 PUSH1 0x40 ADD PUSH1 0x40 MSTORE DUP1 PUSH1 0x1 DUP2 MSTORE PUSH1 0x20 ADD PUSH32 0x6600000000000000000000000000000000000000000000000000000000000000 DUP2 MSTORE POP PUSH2 0x14C7 JUMP JUMPDEST PUSH1 0x40 MLOAD DUP1 PUSH1 0x40 ADD PUSH1 0x40 MSTORE DUP1 PUSH1 0x1 DUP2 MSTORE PUSH1 0x20 ADD PUSH32 0x6D00000000000000000000000000000000000000000000000000000000000000 DUP2 MSTORE POP JUMPDEST SWAP1 POP PUSH1 0x60 PUSH0 PUSH1 0x8 PUSH0 DUP9 DUP2 MSTORE PUSH1 0x20 ADD SWAP1 DUP2 MSTORE PUSH1 0x20 ADD PUSH0 KECCAK256 PUSH0 SWAP1 SLOAD SWAP1 PUSH2 0x100 EXP SWAP1 DIV PUSH1 0xFF AND SWAP1 POP PUSH1 0x1 PUSH1 0x3 DUP2 GT ISZERO PUSH2 0x1500 JUMPI PUSH2 0x14FF PUSH2 0x3612 JUMP JUMPDEST JUMPDEST DUP2 PUSH1 0x3 DUP2 GT ISZERO PUSH2 0x1513 JUMPI PUSH2 0x1512 PUSH2 0x3612 JUMP JUMPDEST JUMPDEST SUB PUSH2 0x1555 JUMPI PUSH1 0x40 MLOAD DUP1 PUSH1 0x40 ADD PUSH1 0x40 MSTORE DUP1 PUSH1 0x5 DUP2 MSTORE PUSH1 0x20 ADD PUSH32 0x6861746368000000000000000000000000000000000000000000000000000000 DUP2 MSTORE POP SWAP2 POP PUSH2 0x1624 JUMP JUMPDEST PUSH1 0x2 PUSH1 0x3 DUP2 GT ISZERO PUSH2 0x1569 JUMPI PUSH2 0x1568 PUSH2 0x3612 JUMP JUMPDEST JUMPDEST DUP2 PUSH1 0x3 DUP2 GT ISZERO PUSH2 0x157C JUMPI PUSH2 0x157B PUSH2 0x3612 JUMP JUMPDEST JUMPDEST SUB PUSH2 0x15BE JUMPI PUSH1 0x40 MLOAD DUP1 PUSH1 0x40 ADD PUSH1 0x40 MSTORE DUP1 PUSH1 0x9 DUP2 MSTORE PUSH1 0x20 ADD PUSH32 0x68617463686C696E670000000000000000000000000000000000000000000000 DUP2 MSTORE POP SWAP2 POP PUSH2 0x1623 JUMP JUMPDEST PUSH1 0x3 DUP1 DUP2 GT ISZERO PUSH2 0x15D1 JUMPI PUSH2 0x15D0 PUSH2 0x3612 JUMP JUMPDEST JUMPDEST DUP2 PUSH1 0x3 DUP2 GT ISZERO PUSH2 0x15E4 JUMPI PUSH2 0x15E3 PUSH2 0x3612 JUMP JUMPDEST JUMPDEST SUB PUSH2 0x1622 JUMPI PUSH1 0x40 MLOAD DUP1 PUSH1 0x40 ADD PUSH1 0x40 MSTORE DUP1 PUSH1 0x5 DUP2 MSTORE PUSH1 0x20 ADD PUSH32 0x6164756C74000000000000000000000000000000000000000000000000000000 DUP2 MSTORE POP SWAP2 POP JUMPDEST JUMPDEST JUMPDEST PUSH1 0x9 PUSH0 DUP9 DUP2 MSTORE PUSH1 0x20 ADD SWAP1 DUP2 MSTORE PUSH1 0x20 ADD PUSH0 KECCAK256 PUSH0 ADD DUP5 DUP5 DUP5 PUSH1 0x40 MLOAD PUSH1 0x20 ADD PUSH2 0x164D SWAP5 SWAP4 SWAP3 SWAP2 SWAP1 PUSH2 0x3F9B JUMP JUMPDEST PUSH1 0x40 MLOAD PUSH1 0x20 DUP2 DUP4 SUB SUB DUP2 MSTORE SWAP1 PUSH1 0x40 MSTORE SWAP5 POP POP POP POP POP JUMPDEST PUSH0 PUSH2 0x166D DUP5 PUSH2 0x26FB JUMP JUMPDEST PUSH1 0xF DUP4 PUSH1 0x11 PUSH1 0x40 MLOAD PUSH1 0x20 ADD PUSH2 0x1683 SWAP3 SWAP2 SWAP1 PUSH2 0x3FF9 JUMP JUMPDEST PUSH1 0x40 MLOAD PUSH1 0x20 DUP2 DUP4 SUB SUB DUP2 MSTORE SWAP1 PUSH1 0x40 MSTORE PUSH1 0x40 MLOAD PUSH1 0x20 ADD PUSH2 0x16A4 SWAP4 SWAP3 SWAP2 SWAP1 PUSH2 0x40FC JUMP JUMPDEST PUSH1 0x40 MLOAD PUSH1 0x20 DUP2 DUP4 SUB SUB DUP2 MSTORE SWAP1 PUSH1 0x40 MSTORE SWAP1 POP PUSH0 PUSH1 0x9 PUSH0 DUP7 DUP2 MSTORE PUSH1 0x20 ADD SWAP1 DUP2 MSTORE PUSH1 0x20 ADD PUSH0 KECCAK256 PUSH0 ADD PUSH1 0x40 MLOAD PUSH1 0x20 ADD PUSH2 0x16D9 SWAP2 SWAP1 PUSH2 0x41B2 JUMP JUMPDEST PUSH1 0x40 MLOAD PUSH1 0x20 DUP2 DUP4 SUB SUB DUP2 MSTORE SWAP1 PUSH1 0x40 MSTORE SWAP1 POP PUSH0 PUSH1 0x40 MLOAD DUP1 PUSH1 0x40 ADD PUSH1 0x40 MSTORE DUP1 PUSH1 0x4 DUP2 MSTORE PUSH1 0x20 ADD PUSH32 0x227D5D7D00000000000000000000000000000000000000000000000000000000 DUP2 MSTORE POP SWAP1 POP DUP3 DUP3 DUP3 PUSH1 0x40 MLOAD PUSH1 0x20 ADD PUSH2 0x1738 SWAP4 SWAP3 SWAP2 SWAP1 PUSH2 0x421D JUMP JUMPDEST PUSH1 0x40 MLOAD PUSH1 0x20 DUP2 DUP4 SUB SUB DUP2 MSTORE SWAP1 PUSH1 0x40 MSTORE SWAP5 POP POP POP POP POP JUMPDEST SWAP2 SWAP1 POP JUMP JUMPDEST PUSH1 0xE DUP1 SLOAD PUSH2 0x1760 SWAP1 PUSH2 0x3905 JUMP JUMPDEST DUP1 PUSH1 0x1F ADD PUSH1 0x20 DUP1 SWAP2 DIV MUL PUSH1 0x20 ADD PUSH1 0x40 MLOAD SWAP1 DUP2 ADD PUSH1 0x40 MSTORE DUP1 SWAP3 SWAP2 SWAP1 DUP2 DUP2 MSTORE PUSH1 0x20 ADD DUP3 DUP1 SLOAD PUSH2 0x178C SWAP1 PUSH2 0x3905 JUMP JUMPDEST DUP1 ISZERO PUSH2 0x17D7 JUMPI DUP1 PUSH1 0x1F LT PUSH2 0x17AE JUMPI PUSH2 0x100 DUP1 DUP4 SLOAD DIV MUL DUP4 MSTORE SWAP2 PUSH1 0x20 ADD SWAP2 PUSH2 0x17D7 JUMP JUMPDEST DUP3 ADD SWAP2 SWAP1 PUSH0 MSTORE PUSH1 0x20 PUSH0 KECCAK256 SWAP1 JUMPDEST DUP2 SLOAD DUP2 MSTORE SWAP1 PUSH1 0x1 ADD SWAP1 PUSH1 0x20 ADD DUP1 DUP4 GT PUSH2 0x17BA JUMPI DUP3 SWAP1 SUB PUSH1 0x1F AND DUP3 ADD SWAP2 JUMPDEST POP POP POP POP POP DUP2 JUMP JUMPDEST PUSH2 0x17E7 PUSH2 0x1E78 JUMP JUMPDEST DUP1 PUSH1 0xE SWAP1 DUP2 PUSH2 0x17F6 SWAP2 SWAP1 PUSH2 0x3AD2 JUMP JUMPDEST POP POP JUMP JUMPDEST PUSH0 PUSH1 0x5 PUSH0 DUP5 PUSH20 0xFFFFFFFFFFFFFFFFFFFFFFFFFFFFFFFFFFFFFFFF AND PUSH20 0xFFFFFFFFFFFFFFFFFFFFFFFFFFFFFFFFFFFFFFFF AND DUP2 MSTORE PUSH1 0x20 ADD SWAP1 DUP2 MSTORE PUSH1 0x20 ADD PUSH0 KECCAK256 PUSH0 DUP4 PUSH20 0xFFFFFFFFFFFFFFFFFFFFFFFFFFFFFFFFFFFFFFFF AND PUSH20 0xFFFFFFFFFFFFFFFFFFFFFFFFFFFFFFFFFFFFFFFF AND DUP2 MSTORE PUSH1 0x20 ADD SWAP1 DUP2 MSTORE PUSH1 0x20 ADD PUSH0 KECCAK256 PUSH0 SWAP1 SLOAD SWAP1 PUSH2 0x100 EXP SWAP1 DIV PUSH1 0xFF AND SWAP1 POP SWAP3 SWAP2 POP POP JUMP JUMPDEST PUSH1 0x10 DUP1 SLOAD PUSH2 0x1895 SWAP1 PUSH2 0x3905 JUMP JUMPDEST DUP1 PUSH1 0x1F ADD PUSH1 0x20 DUP1 SWAP2 DIV MUL PUSH1 0x20 ADD PUSH1 0x40 MLOAD SWAP1 DUP2 ADD PUSH1 0x40 MSTORE DUP1 SWAP3 SWAP2 SWAP1 DUP2 DUP2 MSTORE PUSH1 0x20 ADD DUP3 DUP1 SLOAD PUSH2 0x18C1 SWAP1 PUSH2 0x3905 JUMP JUMPDEST DUP1 ISZERO PUSH2 0x190C JUMPI DUP1 PUSH1 0x1F LT PUSH2 0x18E3 JUMPI PUSH2 0x100 DUP1 DUP4 SLOAD DIV MUL DUP4 MSTORE SWAP2 PUSH1 0x20 ADD SWAP2 PUSH2 0x190C JUMP JUMPDEST DUP3 ADD SWAP2 SWAP1 PUSH0 MSTORE PUSH1 0x20 PUSH0 KECCAK256 SWAP1 JUMPDEST DUP2 SLOAD DUP2 MSTORE SWAP1 PUSH1 0x1 ADD SWAP1 PUSH1 0x20 ADD DUP1 DUP4 GT PUSH2 0x18EF JUMPI DUP3 SWAP1 SUB PUSH1 0x1F AND DUP3 ADD SWAP2 JUMPDEST POP POP POP POP POP DUP2 JUMP JUMPDEST CALLER PUSH20 0xFFFFFFFFFFFFFFFFFFFFFFFFFFFFFFFFFFFFFFFF AND PUSH2 0x1934 DUP3 PUSH2 0xD71 JUMP JUMPDEST PUSH20 0xFFFFFFFFFFFFFFFFFFFFFFFFFFFFFFFFFFFFFFFF AND EQ PUSH2 0x198A JUMPI PUSH1 0x40 MLOAD PUSH32 0x8C379A000000000000000000000000000000000000000000000000000000000 DUP2 MSTORE PUSH1 0x4 ADD PUSH2 0x1981 SWAP1 PUSH2 0x38BA JUMP JUMPDEST PUSH1 0x40 MLOAD DUP1 SWAP2 SUB SWAP1 REVERT JUMPDEST PUSH0 PUSH1 0x8 PUSH0 DUP4 DUP2 MSTORE PUSH1 0x20 ADD SWAP1 DUP2 MSTORE PUSH1 0x20 ADD PUSH0 KECCAK256 PUSH0 SWAP1 SLOAD SWAP1 PUSH2 0x100 EXP SWAP1 DIV PUSH1 0xFF AND SWAP1 POP PUSH0 PUSH1 0x3 DUP2 GT ISZERO PUSH2 0x19BE JUMPI PUSH2 0x19BD PUSH2 0x3612 JUMP JUMPDEST JUMPDEST DUP2 PUSH1 0x3 DUP2 GT ISZERO PUSH2 0x19D1 JUMPI PUSH2 0x19D0 PUSH2 0x3612 JUMP JUMPDEST JUMPDEST EQ DUP1 ISZERO PUSH2 0x19F1 JUMPI POP PUSH1 0xA PUSH0 DUP4 DUP2 MSTORE PUSH1 0x20 ADD SWAP1 DUP2 MSTORE PUSH1 0x20 ADD PUSH0 KECCAK256 PUSH0 ADD SLOAD TIMESTAMP LT ISZERO JUMPDEST ISZERO PUSH2 0x1A7B JUMPI PUSH1 0x1 PUSH1 0x8 PUSH0 DUP5 DUP2 MSTORE PUSH1 0x20 ADD SWAP1 DUP2 MSTORE PUSH1 0x20 ADD PUSH0 KECCAK256 PUSH0 PUSH2 0x100 EXP DUP2 SLOAD DUP2 PUSH1 0xFF MUL NOT AND SWAP1 DUP4 PUSH1 0x3 DUP2 GT ISZERO PUSH2 0x1A2A JUMPI PUSH2 0x1A29 PUSH2 0x3612 JUMP JUMPDEST JUMPDEST MUL OR SWAP1 SSTORE POP PUSH2 0x1A37 PUSH2 0x1EFF JUMP JUMPDEST PUSH1 0x9 PUSH0 DUP5 DUP2 MSTORE PUSH1 0x20 ADD SWAP1 DUP2 MSTORE PUSH1 0x20 ADD PUSH0 KECCAK256 PUSH1 0x1 ADD DUP2 SWAP1 SSTORE POP PUSH3 0x2A300 TIMESTAMP PUSH2 0x1A5E SWAP2 SWAP1 PUSH2 0x3BCE JUMP JUMPDEST PUSH1 0xA PUSH0 DUP5 DUP2 MSTORE PUSH1 0x20 ADD SWAP1 DUP2 MSTORE PUSH1 0x20 ADD PUSH0 KECCAK256 PUSH1 0x1 ADD DUP2 SWAP1 SSTORE POP PUSH2 0x1BFB JUMP JUMPDEST PUSH1 0x1 PUSH1 0x3 DUP2 GT ISZERO PUSH2 0x1A8F JUMPI PUSH2 0x1A8E PUSH2 0x3612 JUMP JUMPDEST JUMPDEST DUP2 PUSH1 0x3 DUP2 GT ISZERO PUSH2 0x1AA2 JUMPI PUSH2 0x1AA1 PUSH2 0x3612 JUMP JUMPDEST JUMPDEST EQ DUP1 ISZERO PUSH2 0x1AC3 JUMPI POP PUSH1 0xA PUSH0 DUP4 DUP2 MSTORE PUSH1 0x20 ADD SWAP1 DUP2 MSTORE PUSH1 0x20 ADD PUSH0 KECCAK256 PUSH1 0x1 ADD SLOAD TIMESTAMP LT ISZERO JUMPDEST ISZERO PUSH2 0x1B2D JUMPI PUSH1 0x2 PUSH1 0x8 PUSH0 DUP5 DUP2 MSTORE PUSH1 0x20 ADD SWAP1 DUP2 MSTORE PUSH1 0x20 ADD PUSH0 KECCAK256 PUSH0 PUSH2 0x100 EXP DUP2 SLOAD DUP2 PUSH1 0xFF MUL NOT AND SWAP1 DUP4 PUSH1 0x3 DUP2 GT ISZERO PUSH2 0x1AFC JUMPI PUSH2 0x1AFB PUSH2 0x3612 JUMP JUMPDEST JUMPDEST MUL OR SWAP1 SSTORE POP PUSH3 0x3F480 TIMESTAMP PUSH2 0x1B10 SWAP2 SWAP1 PUSH2 0x3BCE JUMP JUMPDEST PUSH1 0xA PUSH0 DUP5 DUP2 MSTORE PUSH1 0x20 ADD SWAP1 DUP2 MSTORE PUSH1 0x20 ADD PUSH0 KECCAK256 PUSH1 0x2 ADD DUP2 SWAP1 SSTORE POP PUSH2 0x1BFA JUMP JUMPDEST PUSH1 0x2 PUSH1 0x3 DUP2 GT ISZERO PUSH2 0x1B41 JUMPI PUSH2 0x1B40 PUSH2 0x3612 JUMP JUMPDEST JUMPDEST DUP2 PUSH1 0x3 DUP2 GT ISZERO PUSH2 0x1B54 JUMPI PUSH2 0x1B53 PUSH2 0x3612 JUMP JUMPDEST JUMPDEST EQ DUP1 ISZERO PUSH2 0x1B75 JUMPI POP PUSH1 0xA PUSH0 DUP4 DUP2 MSTORE PUSH1 0x20 ADD SWAP1 DUP2 MSTORE PUSH1 0x20 ADD PUSH0 KECCAK256 PUSH1 0x2 ADD SLOAD TIMESTAMP LT ISZERO JUMPDEST ISZERO PUSH2 0x1BB8 JUMPI PUSH1 0x3 PUSH1 0x8 PUSH0 DUP5 DUP2 MSTORE PUSH1 0x20 ADD SWAP1 DUP2 MSTORE PUSH1 0x20 ADD PUSH0 KECCAK256 PUSH0 PUSH2 0x100 EXP DUP2 SLOAD DUP2 PUSH1 0xFF MUL NOT AND SWAP1 DUP4 PUSH1 0x3 DUP2 GT ISZERO PUSH2 0x1BAE JUMPI PUSH2 0x1BAD PUSH2 0x3612 JUMP JUMPDEST JUMPDEST MUL OR SWAP1 SSTORE POP PUSH2 0x1BF9 JUMP JUMPDEST PUSH0 PUSH2 0x1BF8 JUMPI PUSH1 0x40 MLOAD PUSH32 0x8C379A000000000000000000000000000000000000000000000000000000000 DUP2 MSTORE PUSH1 0x4 ADD PUSH2 0x1BEF SWAP1 PUSH2 0x3C4B JUMP JUMPDEST PUSH1 0x40 MLOAD DUP1 SWAP2 SUB SWAP1 REVERT JUMPDEST JUMPDEST JUMPDEST JUMPDEST POP POP JUMP JUMPDEST PUSH1 0xF DUP1 SLOAD PUSH2 0x1C0C SWAP1 PUSH2 0x3905 JUMP JUMPDEST DUP1 PUSH1 0x1F ADD PUSH1 0x20 DUP1 SWAP2 DIV MUL PUSH1 0x20 ADD PUSH1 0x40 MLOAD SWAP1 DUP2 ADD PUSH1 0x40 MSTORE DUP1 SWAP3 SWAP2 SWAP1 DUP2 DUP2 MSTORE PUSH1 0x20 ADD DUP3 DUP1 SLOAD PUSH2 0x1C38 SWAP1 PUSH2 0x3905 JUMP JUMPDEST DUP1 ISZERO PUSH2 0x1C83 JUMPI DUP1 PUSH1 0x1F LT PUSH2 0x1C5A JUMPI PUSH2 0x100 DUP1 DUP4 SLOAD DIV MUL DUP4 MSTORE SWAP2 PUSH1 0x20 ADD SWAP2 PUSH2 0x1C83 JUMP JUMPDEST DUP3 ADD SWAP2 SWAP1 PUSH0 MSTORE PUSH1 0x20 PUSH0 KECCAK256 SWAP1 JUMPDEST DUP2 SLOAD DUP2 MSTORE SWAP1 PUSH1 0x1 ADD SWAP1 PUSH1 0x20 ADD DUP1 DUP4 GT PUSH2 0x1C66 JUMPI DUP3 SWAP1 SUB PUSH1 0x1F AND DUP3 ADD SWAP2 JUMPDEST POP POP POP POP POP DUP2 JUMP JUMPDEST PUSH2 0x1C93 PUSH2 0x1E78 JUMP JUMPDEST PUSH0 PUSH20 0xFFFFFFFFFFFFFFFFFFFFFFFFFFFFFFFFFFFFFFFF AND DUP2 PUSH20 0xFFFFFFFFFFFFFFFFFFFFFFFFFFFFFFFFFFFFFFFF AND SUB PUSH2 0x1D03 JUMPI PUSH0 PUSH1 0x40 MLOAD PUSH32 0x1E4FBDF700000000000000000000000000000000000000000000000000000000 DUP2 MSTORE PUSH1 0x4 ADD PUSH2 0x1CFA SWAP2 SWAP1 PUSH2 0x3280 JUMP JUMPDEST PUSH1 0x40 MLOAD DUP1 SWAP2 SUB SWAP1 REVERT JUMPDEST PUSH2 0x1D0C DUP2 PUSH2 0x216E JUMP JUMPDEST POP JUMP JUMPDEST PUSH0 DUP2 DUP5 DUP5 PUSH2 0x1D1D SWAP2 SWAP1 PUSH2 0x3DD6 JUMP JUMPDEST LT PUSH2 0x1D35 JUMPI DUP2 DUP4 PUSH2 0x1D2E SWAP2 SWAP1 PUSH2 0x3DD6 JUMP JUMPDEST SWAP1 POP PUSH2 0x1D39 JUMP JUMPDEST PUSH0 SWAP1 POP JUMPDEST SWAP4 SWAP3 POP POP POP JUMP JUMPDEST PUSH0 PUSH4 0x49064906 PUSH1 0xE0 SHL PUSH28 0xFFFFFFFFFFFFFFFFFFFFFFFFFFFFFFFFFFFFFFFFFFFFFFFFFFFFFFFF NOT AND DUP3 PUSH28 0xFFFFFFFFFFFFFFFFFFFFFFFFFFFFFFFFFFFFFFFFFFFFFFFFFFFFFFFF NOT AND EQ DUP1 PUSH2 0x1D99 JUMPI POP PUSH2 0x1D98 DUP3 PUSH2 0x27C5 JUMP JUMPDEST JUMPDEST SWAP1 POP SWAP2 SWAP1 POP JUMP JUMPDEST PUSH0 DUP1 PUSH2 0x1DAB DUP4 PUSH2 0x28A6 JUMP JUMPDEST SWAP1 POP PUSH0 PUSH20 0xFFFFFFFFFFFFFFFFFFFFFFFFFFFFFFFFFFFFFFFF AND DUP2 PUSH20 0xFFFFFFFFFFFFFFFFFFFFFFFFFFFFFFFFFFFFFFFF AND SUB PUSH2 0x1E1D JUMPI DUP3 PUSH1 0x40 MLOAD PUSH32 0x7E27328900000000000000000000000000000000000000000000000000000000 DUP2 MSTORE PUSH1 0x4 ADD PUSH2 0x1E14 SWAP2 SWAP1 PUSH2 0x34FE JUMP JUMPDEST PUSH1 0x40 MLOAD DUP1 SWAP2 SUB SWAP1 REVERT JUMPDEST DUP1 SWAP2 POP POP SWAP2 SWAP1 POP JUMP JUMPDEST PUSH0 PUSH1 0x4 PUSH0 DUP4 DUP2 MSTORE PUSH1 0x20 ADD SWAP1 DUP2 MSTORE PUSH1 0x20 ADD PUSH0 KECCAK256 PUSH0 SWAP1 SLOAD SWAP1 PUSH2 0x100 EXP SWAP1 DIV PUSH20 0xFFFFFFFFFFFFFFFFFFFFFFFFFFFFFFFFFFFFFFFF AND SWAP1 POP SWAP2 SWAP1 POP JUMP JUMPDEST PUSH0 CALLER SWAP1 POP SWAP1 JUMP JUMPDEST PUSH2 0x1E73 DUP4 DUP4 DUP4 PUSH1 0x1 PUSH2 0x28DF JUMP JUMPDEST POP POP POP JUMP JUMPDEST PUSH2 0x1E80 PUSH2 0x1E5F JUMP JUMPDEST PUSH20 0xFFFFFFFFFFFFFFFFFFFFFFFFFFFFFFFFFFFFFFFF AND PUSH2 0x1E9E PUSH2 0xE7F JUMP JUMPDEST PUSH20 0xFFFFFFFFFFFFFFFFFFFFFFFFFFFFFFFFFFFFFFFF AND EQ PUSH2 0x1EFD JUMPI PUSH2 0x1EC1 PUSH2 0x1E5F JUMP JUMPDEST PUSH1 0x40 MLOAD PUSH32 0x118CDAA700000000000000000000000000000000000000000000000000000000 DUP2 MSTORE PUSH1 0x4 ADD PUSH2 0x1EF4 SWAP2 SWAP1 PUSH2 0x3280 JUMP JUMPDEST PUSH1 0x40 MLOAD DUP1 SWAP2 SUB SWAP1 REVERT JUMPDEST JUMP JUMPDEST PUSH0 PUSH1 0xD PUSH0 DUP2 SLOAD DUP1 SWAP3 SWAP2 SWAP1 PUSH2 0x1F12 SWAP1 PUSH2 0x4258 JUMP JUMPDEST SWAP2 SWAP1 POP SSTORE POP PUSH1 0x1 PUSH1 0x2 TIMESTAMP CALLER PUSH1 0xD SLOAD PUSH1 0x40 MLOAD PUSH1 0x20 ADD PUSH2 0x1F32 SWAP4 SWAP3 SWAP2 SWAP1 PUSH2 0x4304 JUMP JUMPDEST PUSH1 0x40 MLOAD PUSH1 0x20 DUP2 DUP4 SUB SUB DUP2 MSTORE SWAP1 PUSH1 0x40 MSTORE DUP1 MLOAD SWAP1 PUSH1 0x20 ADD KECCAK256 PUSH0 SHR PUSH2 0x1F54 SWAP2 SWAP1 PUSH2 0x436D JUMP JUMPDEST PUSH2 0x1F5E SWAP2 SWAP1 PUSH2 0x3BCE JUMP JUMPDEST SWAP1 POP SWAP1 JUMP JUMPDEST PUSH0 DUP1 PUSH2 0x1F6E DUP5 PUSH2 0x28A6 JUMP JUMPDEST SWAP1 POP PUSH0 PUSH20 0xFFFFFFFFFFFFFFFFFFFFFFFFFFFFFFFFFFFFFFFF AND DUP4 PUSH20 0xFFFFFFFFFFFFFFFFFFFFFFFFFFFFFFFFFFFFFFFF AND EQ PUSH2 0x1FAF JUMPI PUSH2 0x1FAE DUP2 DUP5 DUP7 PUSH2 0x2A9E JUMP JUMPDEST JUMPDEST PUSH0 PUSH20 0xFFFFFFFFFFFFFFFFFFFFFFFFFFFFFFFFFFFFFFFF AND DUP2 PUSH20 0xFFFFFFFFFFFFFFFFFFFFFFFFFFFFFFFFFFFFFFFF AND EQ PUSH2 0x203A JUMPI PUSH2 0x1FEE PUSH0 DUP6 PUSH0 DUP1 PUSH2 0x28DF JUMP JUMPDEST PUSH1 0x1 PUSH1 0x3 PUSH0 DUP4 PUSH20 0xFFFFFFFFFFFFFFFFFFFFFFFFFFFFFFFFFFFFFFFF AND PUSH20 0xFFFFFFFFFFFFFFFFFFFFFFFFFFFFFFFFFFFFFFFF AND DUP2 MSTORE PUSH1 0x20 ADD SWAP1 DUP2 MSTORE PUSH1 0x20 ADD PUSH0 KECCAK256 PUSH0 DUP3 DUP3 SLOAD SUB SWAP3 POP POP DUP2 SWAP1 SSTORE POP JUMPDEST PUSH0 PUSH20 0xFFFFFFFFFFFFFFFFFFFFFFFFFFFFFFFFFFFFFFFF AND DUP6 PUSH20 0xFFFFFFFFFFFFFFFFFFFFFFFFFFFFFFFFFFFFFFFF AND EQ PUSH2 0x20B9 JUMPI PUSH1 0x1 PUSH1 0x3 PUSH0 DUP8 PUSH20 0xFFFFFFFFFFFFFFFFFFFFFFFFFFFFFFFFFFFFFFFF AND PUSH20 0xFFFFFFFFFFFFFFFFFFFFFFFFFFFFFFFFFFFFFFFF AND DUP2 MSTORE PUSH1 0x20 ADD SWAP1 DUP2 MSTORE PUSH1 0x20 ADD PUSH0 KECCAK256 PUSH0 DUP3 DUP3 SLOAD ADD SWAP3 POP POP DUP2 SWAP1 SSTORE POP JUMPDEST DUP5 PUSH1 0x2 PUSH0 DUP7 DUP2 MSTORE PUSH1 0x20 ADD SWAP1 DUP2 MSTORE PUSH1 0x20 ADD PUSH0 KECCAK256 PUSH0 PUSH2 0x100 EXP DUP2 SLOAD DUP2 PUSH20 0xFFFFFFFFFFFFFFFFFFFFFFFFFFFFFFFFFFFFFFFF MUL NOT AND SWAP1 DUP4 PUSH20 0xFFFFFFFFFFFFFFFFFFFFFFFFFFFFFFFFFFFFFFFF AND MUL OR SWAP1 SSTORE POP DUP4 DUP6 PUSH20 0xFFFFFFFFFFFFFFFFFFFFFFFFFFFFFFFFFFFFFFFF AND DUP3 PUSH20 0xFFFFFFFFFFFFFFFFFFFFFFFFFFFFFFFFFFFFFFFF AND PUSH32 0xDDF252AD1BE2C89B69C2B068FC378DAA952BA7F163C4A11628F55A4DF523B3EF PUSH1 0x40 MLOAD PUSH1 0x40 MLOAD DUP1 SWAP2 SUB SWAP1 LOG4 DUP1 SWAP2 POP POP SWAP4 SWAP3 POP POP POP JUMP JUMPDEST PUSH0 PUSH1 0x7 PUSH0 SWAP1 SLOAD SWAP1 PUSH2 0x100 EXP SWAP1 DIV PUSH20 0xFFFFFFFFFFFFFFFFFFFFFFFFFFFFFFFFFFFFFFFF AND SWAP1 POP DUP2 PUSH1 0x7 PUSH0 PUSH2 0x100 EXP DUP2 SLOAD DUP2 PUSH20 0xFFFFFFFFFFFFFFFFFFFFFFFFFFFFFFFFFFFFFFFF MUL NOT AND SWAP1 DUP4 PUSH20 0xFFFFFFFFFFFFFFFFFFFFFFFFFFFFFFFFFFFFFFFF AND MUL OR SWAP1 SSTORE POP DUP2 PUSH20 0xFFFFFFFFFFFFFFFFFFFFFFFFFFFFFFFFFFFFFFFF AND DUP2 PUSH20 0xFFFFFFFFFFFFFFFFFFFFFFFFFFFFFFFFFFFFFFFF AND PUSH32 0x8BE0079C531659141344CD1FD0A4F28419497F9722A3DAAFE3B4186F6B6457E0 PUSH1 0x40 MLOAD PUSH1 0x40 MLOAD DUP1 SWAP2 SUB SWAP1 LOG3 POP POP JUMP JUMPDEST PUSH0 DUP1 PUSH1 0x9 PUSH0 DUP6 DUP2 MSTORE PUSH1 0x20 ADD SWAP1 DUP2 MSTORE PUSH1 0x20 ADD PUSH0 KECCAK256 SWAP1 POP PUSH0 PUSH1 0x9 PUSH0 DUP6 DUP2 MSTORE PUSH1 0x20 ADD SWAP1 DUP2 MSTORE PUSH1 0x20 ADD PUSH0 KECCAK256 SWAP1 POP PUSH1 0x1 DUP3 PUSH1 0x4 ADD SLOAD EQ DUP1 PUSH2 0x2271 JUMPI POP PUSH1 0x1 DUP2 PUSH1 0x4 ADD SLOAD EQ JUMPDEST ISZERO PUSH2 0x2280 JUMPI PUSH0 SWAP3 POP POP POP PUSH2 0x22B6 JUMP JUMPDEST DUP1 PUSH1 0x2 ADD SLOAD DUP3 PUSH1 0x2 ADD SLOAD EQ ISZERO DUP1 ISZERO PUSH2 0x22A0 JUMPI POP DUP1 PUSH1 0x3 ADD SLOAD DUP3 PUSH1 0x3 ADD SLOAD EQ ISZERO JUMPDEST ISZERO PUSH2 0x22AF JUMPI PUSH0 SWAP3 POP POP POP PUSH2 0x22B6 JUMP JUMPDEST PUSH1 0x1 SWAP3 POP POP POP JUMPDEST SWAP3 SWAP2 POP POP JUMP JUMPDEST PUSH0 TIMESTAMP PUSH1 0x12 PUSH0 DUP5 DUP2 MSTORE PUSH1 0x20 ADD SWAP1 DUP2 MSTORE PUSH1 0x20 ADD PUSH0 KECCAK256 PUSH0 ADD SLOAD LT SWAP1 POP SWAP2 SWAP1 POP JUMP JUMPDEST PUSH0 DUP1 PUSH1 0x9 PUSH0 DUP6 DUP2 MSTORE PUSH1 0x20 ADD SWAP1 DUP2 MSTORE PUSH1 0x20 ADD PUSH0 KECCAK256 SWAP1 POP PUSH0 PUSH1 0x9 PUSH0 DUP6 DUP2 MSTORE PUSH1 0x20 ADD SWAP1 DUP2 MSTORE PUSH1 0x20 ADD PUSH0 KECCAK256 SWAP1 POP DUP1 PUSH1 0x1 ADD SLOAD DUP3 PUSH1 0x1 ADD SLOAD EQ ISZERO SWAP3 POP POP POP SWAP3 SWAP2 POP POP JUMP JUMPDEST PUSH1 0x12 PUSH0 DUP3 DUP2 MSTORE PUSH1 0x20 ADD SWAP1 DUP2 MSTORE PUSH1 0x20 ADD PUSH0 KECCAK256 PUSH1 0x1 ADD PUSH0 DUP2 SLOAD DUP1 SWAP3 SWAP2 SWAP1 PUSH2 0x233D SWAP1 PUSH2 0x4258 JUMP JUMPDEST SWAP2 SWAP1 POP SSTORE POP PUSH3 0x3F480 TIMESTAMP PUSH2 0x2351 SWAP2 SWAP1 PUSH2 0x3BCE JUMP JUMPDEST PUSH1 0x12 PUSH0 DUP4 DUP2 MSTORE PUSH1 0x20 ADD SWAP1 DUP2 MSTORE PUSH1 0x20 ADD PUSH0 KECCAK256 PUSH0 ADD DUP2 SWAP1 SSTORE POP POP JUMP JUMPDEST PUSH0 DUP1 PUSH1 0x9 PUSH0 DUP6 DUP2 MSTORE PUSH1 0x20 ADD SWAP1 DUP2 MSTORE PUSH1 0x20 ADD PUSH0 KECCAK256 SWAP1 POP PUSH0 PUSH1 0x9 PUSH0 DUP6 DUP2 MSTORE PUSH1 0x20 ADD SWAP1 DUP2 MSTORE PUSH1 0x20 ADD PUSH0 KECCAK256 SWAP1 POP PUSH0 DUP2 PUSH1 0x4 ADD SLOAD DUP4 PUSH1 0x4 ADD SLOAD GT PUSH2 0x23AE JUMPI DUP2 PUSH1 0x4 ADD SLOAD PUSH2 0x23B4 JUMP JUMPDEST DUP3 PUSH1 0x4 ADD SLOAD JUMPDEST SWAP1 POP PUSH0 PUSH2 0x23D0 DUP9 DUP9 DUP9 PUSH1 0x1 DUP7 PUSH2 0x23CA SWAP2 SWAP1 PUSH2 0x3BCE JUMP JUMPDEST CALLER PUSH2 0x2B61 JUMP JUMPDEST SWAP1 POP DUP1 SWAP5 POP POP POP POP POP SWAP4 SWAP3 POP POP POP JUMP JUMPDEST PUSH0 PUSH20 0xFFFFFFFFFFFFFFFFFFFFFFFFFFFFFFFFFFFFFFFF AND DUP3 PUSH20 0xFFFFFFFFFFFFFFFFFFFFFFFFFFFFFFFFFFFFFFFF AND SUB PUSH2 0x2450 JUMPI DUP2 PUSH1 0x40 MLOAD PUSH32 0x5B08BA1800000000000000000000000000000000000000000000000000000000 DUP2 MSTORE PUSH1 0x4 ADD PUSH2 0x2447 SWAP2 SWAP1 PUSH2 0x3280 JUMP JUMPDEST PUSH1 0x40 MLOAD DUP1 SWAP2 SUB SWAP1 REVERT JUMPDEST DUP1 PUSH1 0x5 PUSH0 DUP6 PUSH20 0xFFFFFFFFFFFFFFFFFFFFFFFFFFFFFFFFFFFFFFFF AND PUSH20 0xFFFFFFFFFFFFFFFFFFFFFFFFFFFFFFFFFFFFFFFF AND DUP2 MSTORE PUSH1 0x20 ADD SWAP1 DUP2 MSTORE PUSH1 0x20 ADD PUSH0 KECCAK256 PUSH0 DUP5 PUSH20 0xFFFFFFFFFFFFFFFFFFFFFFFFFFFFFFFFFFFFFFFF AND PUSH20 0xFFFFFFFFFFFFFFFFFFFFFFFFFFFFFFFFFFFFFFFF AND DUP2 MSTORE PUSH1 0x20 ADD SWAP1 DUP2 MSTORE PUSH1 0x20 ADD PUSH0 KECCAK256 PUSH0 PUSH2 0x100 EXP DUP2 SLOAD DUP2 PUSH1 0xFF MUL NOT AND SWAP1 DUP4 ISZERO ISZERO MUL OR SWAP1 SSTORE POP DUP2 PUSH20 0xFFFFFFFFFFFFFFFFFFFFFFFFFFFFFFFFFFFFFFFF AND DUP4 PUSH20 0xFFFFFFFFFFFFFFFFFFFFFFFFFFFFFFFFFFFFFFFF AND PUSH32 0x17307EAB39AB6107E8899845AD3D59BD9653F200F220920489CA2B5937696C31 DUP4 PUSH1 0x40 MLOAD PUSH2 0x253C SWAP2 SWAP1 PUSH2 0x3198 JUMP JUMPDEST PUSH1 0x40 MLOAD DUP1 SWAP2 SUB SWAP1 LOG3 POP POP POP JUMP JUMPDEST PUSH0 DUP4 PUSH20 0xFFFFFFFFFFFFFFFFFFFFFFFFFFFFFFFFFFFFFFFF AND EXTCODESIZE GT ISZERO PUSH2 0x26F5 JUMPI DUP3 PUSH20 0xFFFFFFFFFFFFFFFFFFFFFFFFFFFFFFFFFFFFFFFF AND PUSH4 0x150B7A02 PUSH2 0x258C PUSH2 0x1E5F JUMP JUMPDEST DUP7 DUP6 DUP6 PUSH1 0x40 MLOAD DUP6 PUSH4 0xFFFFFFFF AND PUSH1 0xE0 SHL DUP2 MSTORE PUSH1 0x4 ADD PUSH2 0x25AE SWAP5 SWAP4 SWAP3 SWAP2 SWAP1 PUSH2 0x43EF JUMP JUMPDEST PUSH1 0x20 PUSH1 0x40 MLOAD DUP1 DUP4 SUB DUP2 PUSH0 DUP8 GAS CALL SWAP3 POP POP POP DUP1 ISZERO PUSH2 0x25E9 JUMPI POP PUSH1 0x40 MLOAD RETURNDATASIZE PUSH1 0x1F NOT PUSH1 0x1F DUP3 ADD AND DUP3 ADD DUP1 PUSH1 0x40 MSTORE POP DUP2 ADD SWAP1 PUSH2 0x25E6 SWAP2 SWAP1 PUSH2 0x444D JUMP JUMPDEST PUSH1 0x1 JUMPDEST PUSH2 0x266A JUMPI RETURNDATASIZE DUP1 PUSH0 DUP2 EQ PUSH2 0x2617 JUMPI PUSH1 0x40 MLOAD SWAP2 POP PUSH1 0x1F NOT PUSH1 0x3F RETURNDATASIZE ADD AND DUP3 ADD PUSH1 0x40 MSTORE RETURNDATASIZE DUP3 MSTORE RETURNDATASIZE PUSH0 PUSH1 0x20 DUP5 ADD RETURNDATACOPY PUSH2 0x261C JUMP JUMPDEST PUSH1 0x60 SWAP2 POP JUMPDEST POP PUSH0 DUP2 MLOAD SUB PUSH2 0x2662 JUMPI DUP4 PUSH1 0x40 MLOAD PUSH32 0x64A0AE9200000000000000000000000000000000000000000000000000000000 DUP2 MSTORE PUSH1 0x4 ADD PUSH2 0x2659 SWAP2 SWAP1 PUSH2 0x3280 JUMP JUMPDEST PUSH1 0x40 MLOAD DUP1 SWAP2 SUB SWAP1 REVERT JUMPDEST DUP1 MLOAD DUP2 PUSH1 0x20 ADD REVERT JUMPDEST PUSH4 0x150B7A02 PUSH1 0xE0 SHL PUSH28 0xFFFFFFFFFFFFFFFFFFFFFFFFFFFFFFFFFFFFFFFFFFFFFFFFFFFFFFFF NOT AND DUP2 PUSH28 0xFFFFFFFFFFFFFFFFFFFFFFFFFFFFFFFFFFFFFFFFFFFFFFFFFFFFFFFF NOT AND EQ PUSH2 0x26F3 JUMPI DUP4 PUSH1 0x40 MLOAD PUSH32 0x64A0AE9200000000000000000000000000000000000000000000000000000000 DUP2 MSTORE PUSH1 0x4 ADD PUSH2 0x26EA SWAP2 SWAP1 PUSH2 0x3280 JUMP JUMPDEST PUSH1 0x40 MLOAD DUP1 SWAP2 SUB SWAP1 REVERT JUMPDEST POP JUMPDEST POP POP POP POP JUMP JUMPDEST PUSH1 0x60 PUSH0 PUSH1 0x1 PUSH2 0x2709 DUP5 PUSH2 0x2CEA JUMP JUMPDEST ADD SWAP1 POP PUSH0 DUP2 PUSH8 0xFFFFFFFFFFFFFFFF DUP2 GT ISZERO PUSH2 0x2727 JUMPI PUSH2 0x2726 PUSH2 0x3309 JUMP JUMPDEST JUMPDEST PUSH1 0x40 MLOAD SWAP1 DUP1 DUP3 MSTORE DUP1 PUSH1 0x1F ADD PUSH1 0x1F NOT AND PUSH1 0x20 ADD DUP3 ADD PUSH1 0x40 MSTORE DUP1 ISZERO PUSH2 0x2759 JUMPI DUP2 PUSH1 0x20 ADD PUSH1 0x1 DUP3 MUL DUP1 CALLDATASIZE DUP4 CALLDATACOPY DUP1 DUP3 ADD SWAP2 POP POP SWAP1 POP JUMPDEST POP SWAP1 POP PUSH0 DUP3 PUSH1 0x20 ADD DUP3 ADD SWAP1 POP JUMPDEST PUSH1 0x1 ISZERO PUSH2 0x27BA JUMPI DUP1 DUP1 PUSH1 0x1 SWAP1 SUB SWAP2 POP POP PUSH32 0x3031323334353637383961626364656600000000000000000000000000000000 PUSH1 0xA DUP7 MOD BYTE DUP2 MSTORE8 PUSH1 0xA DUP6 DUP2 PUSH2 0x27AF JUMPI PUSH2 0x27AE PUSH2 0x4340 JUMP JUMPDEST JUMPDEST DIV SWAP5 POP PUSH0 DUP6 SUB PUSH2 0x2766 JUMPI JUMPDEST DUP2 SWAP4 POP POP POP POP SWAP2 SWAP1 POP JUMP JUMPDEST PUSH0 PUSH32 0x80AC58CD00000000000000000000000000000000000000000000000000000000 PUSH28 0xFFFFFFFFFFFFFFFFFFFFFFFFFFFFFFFFFFFFFFFFFFFFFFFFFFFFFFFF NOT AND DUP3 PUSH28 0xFFFFFFFFFFFFFFFFFFFFFFFFFFFFFFFFFFFFFFFFFFFFFFFFFFFFFFFF NOT AND EQ DUP1 PUSH2 0x288F JUMPI POP PUSH32 0x5B5E139F00000000000000000000000000000000000000000000000000000000 PUSH28 0xFFFFFFFFFFFFFFFFFFFFFFFFFFFFFFFFFFFFFFFFFFFFFFFFFFFFFFFF NOT AND DUP3 PUSH28 0xFFFFFFFFFFFFFFFFFFFFFFFFFFFFFFFFFFFFFFFFFFFFFFFFFFFFFFFF NOT AND EQ JUMPDEST DUP1 PUSH2 0x289F JUMPI POP PUSH2 0x289E DUP3 PUSH2 0x2E3B JUMP JUMPDEST JUMPDEST SWAP1 POP SWAP2 SWAP1 POP JUMP JUMPDEST PUSH0 PUSH1 0x2 PUSH0 DUP4 DUP2 MSTORE PUSH1 0x20 ADD SWAP1 DUP2 MSTORE PUSH1 0x20 ADD PUSH0 KECCAK256 PUSH0 SWAP1 SLOAD SWAP1 PUSH2 0x100 EXP SWAP1 DIV PUSH20 0xFFFFFFFFFFFFFFFFFFFFFFFFFFFFFFFFFFFFFFFF AND SWAP1 POP SWAP2 SWAP1 POP JUMP JUMPDEST DUP1 DUP1 PUSH2 0x2917 JUMPI POP PUSH0 PUSH20 0xFFFFFFFFFFFFFFFFFFFFFFFFFFFFFFFFFFFFFFFF AND DUP3 PUSH20 0xFFFFFFFFFFFFFFFFFFFFFFFFFFFFFFFFFFFFFFFF AND EQ ISZERO JUMPDEST ISZERO PUSH2 0x2A49 JUMPI PUSH0 PUSH2 0x2926 DUP5 PUSH2 0x1DA0 JUMP JUMPDEST SWAP1 POP PUSH0 PUSH20 0xFFFFFFFFFFFFFFFFFFFFFFFFFFFFFFFFFFFFFFFF AND DUP4 PUSH20 0xFFFFFFFFFFFFFFFFFFFFFFFFFFFFFFFFFFFFFFFF AND EQ ISZERO DUP1 ISZERO PUSH2 0x2990 JUMPI POP DUP3 PUSH20 0xFFFFFFFFFFFFFFFFFFFFFFFFFFFFFFFFFFFFFFFF AND DUP2 PUSH20 0xFFFFFFFFFFFFFFFFFFFFFFFFFFFFFFFFFFFFFFFF AND EQ ISZERO JUMPDEST DUP1 ISZERO PUSH2 0x29A3 JUMPI POP PUSH2 0x29A1 DUP2 DUP5 PUSH2 0x17FA JUMP JUMPDEST ISZERO JUMPDEST ISZERO PUSH2 0x29E5 JUMPI DUP3 PUSH1 0x40 MLOAD PUSH32 0xA9FBF51F00000000000000000000000000000000000000000000000000000000 DUP2 MSTORE PUSH1 0x4 ADD PUSH2 0x29DC SWAP2 SWAP1 PUSH2 0x3280 JUMP JUMPDEST PUSH1 0x40 MLOAD DUP1 SWAP2 SUB SWAP1 REVERT JUMPDEST DUP2 ISZERO PUSH2 0x2A47 JUMPI DUP4 DUP6 PUSH20 0xFFFFFFFFFFFFFFFFFFFFFFFFFFFFFFFFFFFFFFFF AND DUP3 PUSH20 0xFFFFFFFFFFFFFFFFFFFFFFFFFFFFFFFFFFFFFFFF AND PUSH32 0x8C5BE1E5EBEC7D5BD14F71427D1E84F3DD0314C0F7B2291E5B200AC8C7C3B925 PUSH1 0x40 MLOAD PUSH1 0x40 MLOAD DUP1 SWAP2 SUB SWAP1 LOG4 JUMPDEST POP JUMPDEST DUP4 PUSH1 0x4 PUSH0 DUP6 DUP2 MSTORE PUSH1 0x20 ADD SWAP1 DUP2 MSTORE PUSH1 0x20 ADD PUSH0 KECCAK256 PUSH0 PUSH2 0x100 EXP DUP2 SLOAD DUP2 PUSH20 0xFFFFFFFFFFFFFFFFFFFFFFFFFFFFFFFFFFFFFFFF MUL NOT AND SWAP1 DUP4 PUSH20 0xFFFFFFFFFFFFFFFFFFFFFFFFFFFFFFFFFFFFFFFF AND MUL OR SWAP1 SSTORE POP POP POP POP POP JUMP JUMPDEST PUSH2 0x2AA9 DUP4 DUP4 DUP4 PUSH2 0x2EA4 JUMP JUMPDEST PUSH2 0x2B5C JUMPI PUSH0 PUSH20 0xFFFFFFFFFFFFFFFFFFFFFFFFFFFFFFFFFFFFFFFF AND DUP4 PUSH20 0xFFFFFFFFFFFFFFFFFFFFFFFFFFFFFFFFFFFFFFFF AND SUB PUSH2 0x2B1D JUMPI DUP1 PUSH1 0x40 MLOAD PUSH32 0x7E27328900000000000000000000000000000000000000000000000000000000 DUP2 MSTORE PUSH1 0x4 ADD PUSH2 0x2B14 SWAP2 SWAP1 PUSH2 0x34FE JUMP JUMPDEST PUSH1 0x40 MLOAD DUP1 SWAP2 SUB SWAP1 REVERT JUMPDEST DUP2 DUP2 PUSH1 0x40 MLOAD PUSH32 0x177E802F00000000000000000000000000000000000000000000000000000000 DUP2 MSTORE PUSH1 0x4 ADD PUSH2 0x2B53 SWAP3 SWAP2 SWAP1 PUSH2 0x4478 JUMP JUMPDEST PUSH1 0x40 MLOAD DUP1 SWAP2 SUB SWAP1 REVERT JUMPDEST POP POP POP JUMP JUMPDEST PUSH0 DUP1 PUSH1 0x40 MLOAD DUP1 PUSH1 0xC0 ADD PUSH1 0x40 MSTORE DUP1 DUP9 DUP2 MSTORE PUSH1 0x20 ADD PUSH0 DUP2 MSTORE PUSH1 0x20 ADD DUP8 DUP2 MSTORE PUSH1 0x20 ADD DUP7 DUP2 MSTORE PUSH1 0x20 ADD DUP6 DUP2 MSTORE PUSH1 0x20 ADD TIMESTAMP DUP2 MSTORE POP SWAP1 POP PUSH1 0xC PUSH0 DUP2 SLOAD DUP1 SWAP3 SWAP2 SWAP1 PUSH2 0x2BA4 SWAP1 PUSH2 0x4258 JUMP JUMPDEST SWAP2 SWAP1 POP SSTORE POP DUP1 PUSH1 0x9 PUSH0 PUSH1 0xC SLOAD DUP2 MSTORE PUSH1 0x20 ADD SWAP1 DUP2 MSTORE PUSH1 0x20 ADD PUSH0 KECCAK256 PUSH0 DUP3 ADD MLOAD DUP2 PUSH0 ADD SWAP1 DUP2 PUSH2 0x2BD0 SWAP2 SWAP1 PUSH2 0x3AD2 JUMP JUMPDEST POP PUSH1 0x20 DUP3 ADD MLOAD DUP2 PUSH1 0x1 ADD SSTORE PUSH1 0x40 DUP3 ADD MLOAD DUP2 PUSH1 0x2 ADD SSTORE PUSH1 0x60 DUP3 ADD MLOAD DUP2 PUSH1 0x3 ADD SSTORE PUSH1 0x80 DUP3 ADD MLOAD DUP2 PUSH1 0x4 ADD SSTORE PUSH1 0xA0 DUP3 ADD MLOAD DUP2 PUSH1 0x5 ADD SSTORE SWAP1 POP POP PUSH3 0x2A300 DUP2 PUSH1 0xA0 ADD MLOAD PUSH2 0x2C19 SWAP2 SWAP1 PUSH2 0x3BCE JUMP JUMPDEST PUSH1 0xA PUSH0 PUSH1 0xC SLOAD DUP2 MSTORE PUSH1 0x20 ADD SWAP1 DUP2 MSTORE PUSH1 0x20 ADD PUSH0 KECCAK256 PUSH0 ADD DUP2 SWAP1 SSTORE POP PUSH0 PUSH1 0x8 PUSH0 PUSH1 0xC SLOAD DUP2 MSTORE PUSH1 0x20 ADD SWAP1 DUP2 MSTORE PUSH1 0x20 ADD PUSH0 KECCAK256 PUSH0 PUSH2 0x100 EXP DUP2 SLOAD DUP2 PUSH1 0xFF MUL NOT AND SWAP1 DUP4 PUSH1 0x3 DUP2 GT ISZERO PUSH2 0x2C67 JUMPI PUSH2 0x2C66 PUSH2 0x3612 JUMP JUMPDEST JUMPDEST MUL OR SWAP1 SSTORE POP PUSH2 0x2C78 DUP4 PUSH1 0xC SLOAD PUSH2 0x2F64 JUMP JUMPDEST PUSH1 0xB PUSH0 DUP5 PUSH20 0xFFFFFFFFFFFFFFFFFFFFFFFFFFFFFFFFFFFFFFFF AND PUSH20 0xFFFFFFFFFFFFFFFFFFFFFFFFFFFFFFFFFFFFFFFF AND DUP2 MSTORE PUSH1 0x20 ADD SWAP1 DUP2 MSTORE PUSH1 0x20 ADD PUSH0 KECCAK256 PUSH1 0xC SLOAD SWAP1 DUP1 PUSH1 0x1 DUP2 SLOAD ADD DUP1 DUP3 SSTORE DUP1 SWAP2 POP POP PUSH1 0x1 SWAP1 SUB SWAP1 PUSH0 MSTORE PUSH1 0x20 PUSH0 KECCAK256 ADD PUSH0 SWAP1 SWAP2 SWAP1 SWAP2 SWAP1 SWAP2 POP SSTORE PUSH1 0xC SLOAD SWAP2 POP POP SWAP6 SWAP5 POP POP POP POP POP JUMP JUMPDEST PUSH0 DUP1 PUSH0 SWAP1 POP PUSH27 0x184F03E93FF9F4DAA797ED6E38ED64BF6A1F010000000000000000 DUP4 LT PUSH2 0x2D46 JUMPI PUSH27 0x184F03E93FF9F4DAA797ED6E38ED64BF6A1F010000000000000000 DUP4 DUP2 PUSH2 0x2D3C JUMPI PUSH2 0x2D3B PUSH2 0x4340 JUMP JUMPDEST JUMPDEST DIV SWAP3 POP PUSH1 0x40 DUP2 ADD SWAP1 POP JUMPDEST PUSH14 0x4EE2D6D415B85ACEF8100000000 DUP4 LT PUSH2 0x2D83 JUMPI PUSH14 0x4EE2D6D415B85ACEF8100000000 DUP4 DUP2 PUSH2 0x2D79 JUMPI PUSH2 0x2D78 PUSH2 0x4340 JUMP JUMPDEST JUMPDEST DIV SWAP3 POP PUSH1 0x20 DUP2 ADD SWAP1 POP JUMPDEST PUSH7 0x2386F26FC10000 DUP4 LT PUSH2 0x2DB2 JUMPI PUSH7 0x2386F26FC10000 DUP4 DUP2 PUSH2 0x2DA8 JUMPI PUSH2 0x2DA7 PUSH2 0x4340 JUMP JUMPDEST JUMPDEST DIV SWAP3 POP PUSH1 0x10 DUP2 ADD SWAP1 POP JUMPDEST PUSH4 0x5F5E100 DUP4 LT PUSH2 0x2DDB JUMPI PUSH4 0x5F5E100 DUP4 DUP2 PUSH2 0x2DD1 JUMPI PUSH2 0x2DD0 PUSH2 0x4340 JUMP JUMPDEST JUMPDEST DIV SWAP3 POP PUSH1 0x8 DUP2 ADD SWAP1 POP JUMPDEST PUSH2 0x2710 DUP4 LT PUSH2 0x2E00 JUMPI PUSH2 0x2710 DUP4 DUP2 PUSH2 0x2DF6 JUMPI PUSH2 0x2DF5 PUSH2 0x4340 JUMP JUMPDEST JUMPDEST DIV SWAP3 POP PUSH1 0x4 DUP2 ADD SWAP1 POP JUMPDEST PUSH1 0x64 DUP4 LT PUSH2 0x2E23 JUMPI PUSH1 0x64 DUP4 DUP2 PUSH2 0x2E19 JUMPI PUSH2 0x2E18 PUSH2 0x4340 JUMP JUMPDEST JUMPDEST DIV SWAP3 POP PUSH1 0x2 DUP2 ADD SWAP1 POP JUMPDEST PUSH1 0xA DUP4 LT PUSH2 0x2E32 JUMPI PUSH1 0x1 DUP2 ADD SWAP1 POP JUMPDEST DUP1 SWAP2 POP POP SWAP2 SWAP1 POP JUMP JUMPDEST PUSH0 PUSH32 0x1FFC9A700000000000000000000000000000000000000000000000000000000 PUSH28 0xFFFFFFFFFFFFFFFFFFFFFFFFFFFFFFFFFFFFFFFFFFFFFFFFFFFFFFFF NOT AND DUP3 PUSH28 0xFFFFFFFFFFFFFFFFFFFFFFFFFFFFFFFFFFFFFFFFFFFFFFFFFFFFFFFF NOT AND EQ SWAP1 POP SWAP2 SWAP1 POP JUMP JUMPDEST PUSH0 DUP1 PUSH20 0xFFFFFFFFFFFFFFFFFFFFFFFFFFFFFFFFFFFFFFFF AND DUP4 PUSH20 0xFFFFFFFFFFFFFFFFFFFFFFFFFFFFFFFFFFFFFFFF AND EQ ISZERO DUP1 ISZERO PUSH2 0x2F5B JUMPI POP DUP3 PUSH20 0xFFFFFFFFFFFFFFFFFFFFFFFFFFFFFFFFFFFFFFFF AND DUP5 PUSH20 0xFFFFFFFFFFFFFFFFFFFFFFFFFFFFFFFFFFFFFFFF AND EQ DUP1 PUSH2 0x2F1C JUMPI POP PUSH2 0x2F1B DUP5 DUP5 PUSH2 0x17FA JUMP JUMPDEST JUMPDEST DUP1 PUSH2 0x2F5A JUMPI POP DUP3 PUSH20 0xFFFFFFFFFFFFFFFFFFFFFFFFFFFFFFFFFFFFFFFF AND PUSH2 0x2F42 DUP4 PUSH2 0x1E26 JUMP JUMPDEST PUSH20 0xFFFFFFFFFFFFFFFFFFFFFFFFFFFFFFFFFFFFFFFF AND EQ JUMPDEST JUMPDEST SWAP1 POP SWAP4 SWAP3 POP POP POP JUMP JUMPDEST PUSH2 0x2F7D DUP3 DUP3 PUSH1 0x40 MLOAD DUP1 PUSH1 0x20 ADD PUSH1 0x40 MSTORE DUP1 PUSH0 DUP2 MSTORE POP PUSH2 0x2F81 JUMP JUMPDEST POP POP JUMP JUMPDEST PUSH2 0x2F8B DUP4 DUP4 PUSH2 0x2F9C JUMP JUMPDEST PUSH2 0x2F97 PUSH0 DUP5 DUP5 DUP5 PUSH2 0x2549 JUMP JUMPDEST POP POP POP JUMP JUMPDEST PUSH0 PUSH20 0xFFFFFFFFFFFFFFFFFFFFFFFFFFFFFFFFFFFFFFFF AND DUP3 PUSH20 0xFFFFFFFFFFFFFFFFFFFFFFFFFFFFFFFFFFFFFFFF AND SUB PUSH2 0x300C JUMPI PUSH0 PUSH1 0x40 MLOAD PUSH32 0x64A0AE9200000000000000000000000000000000000000000000000000000000 DUP2 MSTORE PUSH1 0x4 ADD PUSH2 0x3003 SWAP2 SWAP1 PUSH2 0x3280 JUMP JUMPDEST PUSH1 0x40 MLOAD DUP1 SWAP2 SUB SWAP1 REVERT JUMPDEST PUSH0 PUSH2 0x3018 DUP4 DUP4 PUSH0 PUSH2 0x1F63 JUMP JUMPDEST SWAP1 POP PUSH0 PUSH20 0xFFFFFFFFFFFFFFFFFFFFFFFFFFFFFFFFFFFFFFFF AND DUP2 PUSH20 0xFFFFFFFFFFFFFFFFFFFFFFFFFFFFFFFFFFFFFFFF AND EQ PUSH2 0x308A JUMPI PUSH0 PUSH1 0x40 MLOAD PUSH32 0x73C6AC6E00000000000000000000000000000000000000000000000000000000 DUP2 MSTORE PUSH1 0x4 ADD PUSH2 0x3081 SWAP2 SWAP1 PUSH2 0x3280 JUMP JUMPDEST PUSH1 0x40 MLOAD DUP1 SWAP2 SUB SWAP1 REVERT JUMPDEST POP POP POP JUMP JUMPDEST PUSH0 PUSH1 0x40 MLOAD SWAP1 POP SWAP1 JUMP JUMPDEST PUSH0 DUP1 REVERT JUMPDEST PUSH0 DUP1 REVERT JUMPDEST PUSH0 DUP2 SWAP1 POP SWAP2 SWAP1 POP JUMP JUMPDEST PUSH2 0x30B2 DUP2 PUSH2 0x30A0 JUMP JUMPDEST DUP2 EQ PUSH2 0x30BC JUMPI PUSH0 DUP1 REVERT JUMPDEST POP JUMP JUMPDEST PUSH0 DUP2 CALLDATALOAD SWAP1 POP PUSH2 0x30CD DUP2 PUSH2 0x30A9 JUMP JUMPDEST SWAP3 SWAP2 POP POP JUMP JUMPDEST PUSH0 PUSH1 0x20 DUP3 DUP5 SUB SLT ISZERO PUSH2 0x30E8 JUMPI PUSH2 0x30E7 PUSH2 0x3098 JUMP JUMPDEST JUMPDEST PUSH0 PUSH2 0x30F5 DUP5 DUP3 DUP6 ADD PUSH2 0x30BF JUMP JUMPDEST SWAP2 POP POP SWAP3 SWAP2 POP POP JUMP JUMPDEST PUSH0 PUSH32 0xFFFFFFFF00000000000000000000000000000000000000000000000000000000 DUP3 AND SWAP1 POP SWAP2 SWAP1 POP JUMP JUMPDEST PUSH2 0x3132 DUP2 PUSH2 0x30FE JUMP JUMPDEST DUP2 EQ PUSH2 0x313C JUMPI PUSH0 DUP1 REVERT JUMPDEST POP JUMP JUMPDEST PUSH0 DUP2 CALLDATALOAD SWAP1 POP PUSH2 0x314D DUP2 PUSH2 0x3129 JUMP JUMPDEST SWAP3 SWAP2 POP POP JUMP JUMPDEST PUSH0 PUSH1 0x20 DUP3 DUP5 SUB SLT ISZERO PUSH2 0x3168 JUMPI PUSH2 0x3167 PUSH2 0x3098 JUMP JUMPDEST JUMPDEST PUSH0 PUSH2 0x3175 DUP5 DUP3 DUP6 ADD PUSH2 0x313F JUMP JUMPDEST SWAP2 POP POP SWAP3 SWAP2 POP POP JUMP JUMPDEST PUSH0 DUP2 ISZERO ISZERO SWAP1 POP SWAP2 SWAP1 POP JUMP JUMPDEST PUSH2 0x3192 DUP2 PUSH2 0x317E JUMP JUMPDEST DUP3 MSTORE POP POP JUMP JUMPDEST PUSH0 PUSH1 0x20 DUP3 ADD SWAP1 POP PUSH2 0x31AB PUSH0 DUP4 ADD DUP5 PUSH2 0x3189 JUMP JUMPDEST SWAP3 SWAP2 POP POP JUMP JUMPDEST PUSH0 DUP2 MLOAD SWAP1 POP SWAP2 SWAP1 POP JUMP JUMPDEST PUSH0 DUP3 DUP3 MSTORE PUSH1 0x20 DUP3 ADD SWAP1 POP SWAP3 SWAP2 POP POP JUMP JUMPDEST DUP3 DUP2 DUP4 MCOPY PUSH0 DUP4 DUP4 ADD MSTORE POP POP POP JUMP JUMPDEST PUSH0 PUSH1 0x1F NOT PUSH1 0x1F DUP4 ADD AND SWAP1 POP SWAP2 SWAP1 POP JUMP JUMPDEST PUSH0 PUSH2 0x31F3 DUP3 PUSH2 0x31B1 JUMP JUMPDEST PUSH2 0x31FD DUP2 DUP6 PUSH2 0x31BB JUMP JUMPDEST SWAP4 POP PUSH2 0x320D DUP2 DUP6 PUSH1 0x20 DUP7 ADD PUSH2 0x31CB JUMP JUMPDEST PUSH2 0x3216 DUP2 PUSH2 0x31D9 JUMP JUMPDEST DUP5 ADD SWAP2 POP POP SWAP3 SWAP2 POP POP JUMP JUMPDEST PUSH0 PUSH1 0x20 DUP3 ADD SWAP1 POP DUP2 DUP2 SUB PUSH0 DUP4 ADD MSTORE PUSH2 0x3239 DUP2 DUP5 PUSH2 0x31E9 JUMP JUMPDEST SWAP1 POP SWAP3 SWAP2 POP POP JUMP JUMPDEST PUSH0 PUSH20 0xFFFFFFFFFFFFFFFFFFFFFFFFFFFFFFFFFFFFFFFF DUP3 AND SWAP1 POP SWAP2 SWAP1 POP JUMP JUMPDEST PUSH0 PUSH2 0x326A DUP3 PUSH2 0x3241 JUMP JUMPDEST SWAP1 POP SWAP2 SWAP1 POP JUMP JUMPDEST PUSH2 0x327A DUP2 PUSH2 0x3260 JUMP JUMPDEST DUP3 MSTORE POP POP JUMP JUMPDEST PUSH0 PUSH1 0x20 DUP3 ADD SWAP1 POP PUSH2 0x3293 PUSH0 DUP4 ADD DUP5 PUSH2 0x3271 JUMP JUMPDEST SWAP3 SWAP2 POP POP JUMP JUMPDEST PUSH2 0x32A2 DUP2 PUSH2 0x3260 JUMP JUMPDEST DUP2 EQ PUSH2 0x32AC JUMPI PUSH0 DUP1 REVERT JUMPDEST POP JUMP JUMPDEST PUSH0 DUP2 CALLDATALOAD SWAP1 POP PUSH2 0x32BD DUP2 PUSH2 0x3299 JUMP JUMPDEST SWAP3 SWAP2 POP POP JUMP JUMPDEST PUSH0 DUP1 PUSH1 0x40 DUP4 DUP6 SUB SLT ISZERO PUSH2 0x32D9 JUMPI PUSH2 0x32D8 PUSH2 0x3098 JUMP JUMPDEST JUMPDEST PUSH0 PUSH2 0x32E6 DUP6 DUP3 DUP7 ADD PUSH2 0x32AF JUMP JUMPDEST SWAP3 POP POP PUSH1 0x20 PUSH2 0x32F7 DUP6 DUP3 DUP7 ADD PUSH2 0x30BF JUMP JUMPDEST SWAP2 POP POP SWAP3 POP SWAP3 SWAP1 POP JUMP JUMPDEST PUSH0 DUP1 REVERT JUMPDEST PUSH0 DUP1 REVERT JUMPDEST PUSH32 0x4E487B7100000000000000000000000000000000000000000000000000000000 PUSH0 MSTORE PUSH1 0x41 PUSH1 0x4 MSTORE PUSH1 0x24 PUSH0 REVERT JUMPDEST PUSH2 0x333F DUP3 PUSH2 0x31D9 JUMP JUMPDEST DUP2 ADD DUP2 DUP2 LT PUSH8 0xFFFFFFFFFFFFFFFF DUP3 GT OR ISZERO PUSH2 0x335E JUMPI PUSH2 0x335D PUSH2 0x3309 JUMP JUMPDEST JUMPDEST DUP1 PUSH1 0x40 MSTORE POP POP POP JUMP JUMPDEST PUSH0 PUSH2 0x3370 PUSH2 0x308F JUMP JUMPDEST SWAP1 POP PUSH2 0x337C DUP3 DUP3 PUSH2 0x3336 JUMP JUMPDEST SWAP2 SWAP1 POP JUMP JUMPDEST PUSH0 PUSH8 0xFFFFFFFFFFFFFFFF DUP3 GT ISZERO PUSH2 0x339B JUMPI PUSH2 0x339A PUSH2 0x3309 JUMP JUMPDEST JUMPDEST PUSH2 0x33A4 DUP3 PUSH2 0x31D9 JUMP JUMPDEST SWAP1 POP PUSH1 0x20 DUP2 ADD SWAP1 POP SWAP2 SWAP1 POP JUMP JUMPDEST DUP3 DUP2 DUP4 CALLDATACOPY PUSH0 DUP4 DUP4 ADD MSTORE POP POP POP JUMP JUMPDEST PUSH0 PUSH2 0x33D1 PUSH2 0x33CC DUP5 PUSH2 0x3381 JUMP JUMPDEST PUSH2 0x3367 JUMP JUMPDEST SWAP1 POP DUP3 DUP2 MSTORE PUSH1 0x20 DUP2 ADD DUP5 DUP5 DUP5 ADD GT ISZERO PUSH2 0x33ED JUMPI PUSH2 0x33EC PUSH2 0x3305 JUMP JUMPDEST JUMPDEST PUSH2 0x33F8 DUP5 DUP3 DUP6 PUSH2 0x33B1 JUMP JUMPDEST POP SWAP4 SWAP3 POP POP POP JUMP JUMPDEST PUSH0 DUP3 PUSH1 0x1F DUP4 ADD SLT PUSH2 0x3414 JUMPI PUSH2 0x3413 PUSH2 0x3301 JUMP JUMPDEST JUMPDEST DUP2 CALLDATALOAD PUSH2 0x3424 DUP5 DUP3 PUSH1 0x20 DUP7 ADD PUSH2 0x33BF JUMP JUMPDEST SWAP2 POP POP SWAP3 SWAP2 POP POP JUMP JUMPDEST PUSH0 PUSH1 0x20 DUP3 DUP5 SUB SLT ISZERO PUSH2 0x3442 JUMPI PUSH2 0x3441 PUSH2 0x3098 JUMP JUMPDEST JUMPDEST PUSH0 DUP3 ADD CALLDATALOAD PUSH8 0xFFFFFFFFFFFFFFFF DUP2 GT ISZERO PUSH2 0x345F JUMPI PUSH2 0x345E PUSH2 0x309C JUMP JUMPDEST JUMPDEST PUSH2 0x346B DUP5 DUP3 DUP6 ADD PUSH2 0x3400 JUMP JUMPDEST SWAP2 POP POP SWAP3 SWAP2 POP POP JUMP JUMPDEST PUSH0 DUP1 PUSH0 PUSH1 0x60 DUP5 DUP7 SUB SLT ISZERO PUSH2 0x348B JUMPI PUSH2 0x348A PUSH2 0x3098 JUMP JUMPDEST JUMPDEST PUSH0 PUSH2 0x3498 DUP7 DUP3 DUP8 ADD PUSH2 0x32AF JUMP JUMPDEST SWAP4 POP POP PUSH1 0x20 PUSH2 0x34A9 DUP7 DUP3 DUP8 ADD PUSH2 0x32AF JUMP JUMPDEST SWAP3 POP POP PUSH1 0x40 PUSH2 0x34BA DUP7 DUP3 DUP8 ADD PUSH2 0x30BF JUMP JUMPDEST SWAP2 POP POP SWAP3 POP SWAP3 POP SWAP3 JUMP JUMPDEST PUSH0 PUSH1 0x20 DUP3 DUP5 SUB SLT ISZERO PUSH2 0x34D9 JUMPI PUSH2 0x34D8 PUSH2 0x3098 JUMP JUMPDEST JUMPDEST PUSH0 PUSH2 0x34E6 DUP5 DUP3 DUP6 ADD PUSH2 0x32AF JUMP JUMPDEST SWAP2 POP POP SWAP3 SWAP2 POP POP JUMP JUMPDEST PUSH2 0x34F8 DUP2 PUSH2 0x30A0 JUMP JUMPDEST DUP3 MSTORE POP POP JUMP JUMPDEST PUSH0 PUSH1 0x20 DUP3 ADD SWAP1 POP PUSH2 0x3511 PUSH0 DUP4 ADD DUP5 PUSH2 0x34EF JUMP JUMPDEST SWAP3 SWAP2 POP POP JUMP JUMPDEST PUSH0 PUSH1 0x40 DUP3 ADD SWAP1 POP PUSH2 0x352A PUSH0 DUP4 ADD DUP6 PUSH2 0x34EF JUMP JUMPDEST PUSH2 0x3537 PUSH1 0x20 DUP4 ADD DUP5 PUSH2 0x34EF JUMP JUMPDEST SWAP4 SWAP3 POP POP POP JUMP JUMPDEST PUSH0 DUP1 PUSH0 PUSH1 0x60 DUP5 DUP7 SUB SLT ISZERO PUSH2 0x3555 JUMPI PUSH2 0x3554 PUSH2 0x3098 JUMP JUMPDEST JUMPDEST PUSH0 DUP5 ADD CALLDATALOAD PUSH8 0xFFFFFFFFFFFFFFFF DUP2 GT ISZERO PUSH2 0x3572 JUMPI PUSH2 0x3571 PUSH2 0x309C JUMP JUMPDEST JUMPDEST PUSH2 0x357E DUP7 DUP3 DUP8 ADD PUSH2 0x3400 JUMP JUMPDEST SWAP4 POP POP PUSH1 0x20 PUSH2 0x358F DUP7 DUP3 DUP8 ADD PUSH2 0x30BF JUMP JUMPDEST SWAP3 POP POP PUSH1 0x40 PUSH2 0x35A0 DUP7 DUP3 DUP8 ADD PUSH2 0x30BF JUMP JUMPDEST SWAP2 POP POP SWAP3 POP SWAP3 POP SWAP3 JUMP JUMPDEST PUSH2 0x35B3 DUP2 PUSH2 0x317E JUMP JUMPDEST DUP2 EQ PUSH2 0x35BD JUMPI PUSH0 DUP1 REVERT JUMPDEST POP JUMP JUMPDEST PUSH0 DUP2 CALLDATALOAD SWAP1 POP PUSH2 0x35CE DUP2 PUSH2 0x35AA JUMP JUMPDEST SWAP3 SWAP2 POP POP JUMP JUMPDEST PUSH0 DUP1 PUSH1 0x40 DUP4 DUP6 SUB SLT ISZERO PUSH2 0x35EA JUMPI PUSH2 0x35E9 PUSH2 0x3098 JUMP JUMPDEST JUMPDEST PUSH0 PUSH2 0x35F7 DUP6 DUP3 DUP7 ADD PUSH2 0x32AF JUMP JUMPDEST SWAP3 POP POP PUSH1 0x20 PUSH2 0x3608 DUP6 DUP3 DUP7 ADD PUSH2 0x35C0 JUMP JUMPDEST SWAP2 POP POP SWAP3 POP SWAP3 SWAP1 POP JUMP JUMPDEST PUSH32 0x4E487B7100000000000000000000000000000000000000000000000000000000 PUSH0 MSTORE PUSH1 0x21 PUSH1 0x4 MSTORE PUSH1 0x24 PUSH0 REVERT JUMPDEST PUSH1 0x4 DUP2 LT PUSH2 0x3650 JUMPI PUSH2 0x364F PUSH2 0x3612 JUMP JUMPDEST JUMPDEST POP JUMP JUMPDEST PUSH0 DUP2 SWAP1 POP PUSH2 0x3660 DUP3 PUSH2 0x363F JUMP JUMPDEST SWAP2 SWAP1 POP JUMP JUMPDEST PUSH0 PUSH2 0x366F DUP3 PUSH2 0x3653 JUMP JUMPDEST SWAP1 POP SWAP2 SWAP1 POP JUMP JUMPDEST PUSH2 0x367F DUP2 PUSH2 0x3665 JUMP JUMPDEST DUP3 MSTORE POP POP JUMP JUMPDEST PUSH0 PUSH1 0x40 DUP3 ADD SWAP1 POP PUSH2 0x3698 PUSH0 DUP4 ADD DUP6 PUSH2 0x3676 JUMP JUMPDEST PUSH2 0x36A5 PUSH1 0x20 DUP4 ADD DUP5 PUSH2 0x34EF JUMP JUMPDEST SWAP4 SWAP3 POP POP POP JUMP JUMPDEST PUSH0 PUSH8 0xFFFFFFFFFFFFFFFF DUP3 GT ISZERO PUSH2 0x36C6 JUMPI PUSH2 0x36C5 PUSH2 0x3309 JUMP JUMPDEST JUMPDEST PUSH2 0x36CF DUP3 PUSH2 0x31D9 JUMP JUMPDEST SWAP1 POP PUSH1 0x20 DUP2 ADD SWAP1 POP SWAP2 SWAP1 POP JUMP JUMPDEST PUSH0 PUSH2 0x36EE PUSH2 0x36E9 DUP5 PUSH2 0x36AC JUMP JUMPDEST PUSH2 0x3367 JUMP JUMPDEST SWAP1 POP DUP3 DUP2 MSTORE PUSH1 0x20 DUP2 ADD DUP5 DUP5 DUP5 ADD GT ISZERO PUSH2 0x370A JUMPI PUSH2 0x3709 PUSH2 0x3305 JUMP JUMPDEST JUMPDEST PUSH2 0x3715 DUP5 DUP3 DUP6 PUSH2 0x33B1 JUMP JUMPDEST POP SWAP4 SWAP3 POP POP POP JUMP JUMPDEST PUSH0 DUP3 PUSH1 0x1F DUP4 ADD SLT PUSH2 0x3731 JUMPI PUSH2 0x3730 PUSH2 0x3301 JUMP JUMPDEST JUMPDEST DUP2 CALLDATALOAD PUSH2 0x3741 DUP5 DUP3 PUSH1 0x20 DUP7 ADD PUSH2 0x36DC JUMP JUMPDEST SWAP2 POP POP SWAP3 SWAP2 POP POP JUMP JUMPDEST PUSH0 DUP1 PUSH0 DUP1 PUSH1 0x80 DUP6 DUP8 SUB SLT ISZERO PUSH2 0x3762 JUMPI PUSH2 0x3761 PUSH2 0x3098 JUMP JUMPDEST JUMPDEST PUSH0 PUSH2 0x376F DUP8 DUP3 DUP9 ADD PUSH2 0x32AF JUMP JUMPDEST SWAP5 POP POP PUSH1 0x20 PUSH2 0x3780 DUP8 DUP3 DUP9 ADD PUSH2 0x32AF JUMP JUMPDEST SWAP4 POP POP PUSH1 0x40 PUSH2 0x3791 DUP8 DUP3 DUP9 ADD PUSH2 0x30BF JUMP JUMPDEST SWAP3 POP POP PUSH1 0x60 DUP6 ADD CALLDATALOAD PUSH8 0xFFFFFFFFFFFFFFFF DUP2 GT ISZERO PUSH2 0x37B2 JUMPI PUSH2 0x37B1 PUSH2 0x309C JUMP JUMPDEST JUMPDEST PUSH2 0x37BE DUP8 DUP3 DUP9 ADD PUSH2 0x371D JUMP JUMPDEST SWAP2 POP POP SWAP3 SWAP6 SWAP2 SWAP5 POP SWAP3 POP JUMP JUMPDEST PUSH0 DUP1 PUSH1 0x40 DUP4 DUP6 SUB SLT ISZERO PUSH2 0x37E0 JUMPI PUSH2 0x37DF PUSH2 0x3098 JUMP JUMPDEST JUMPDEST PUSH0 PUSH2 0x37ED DUP6 DUP3 DUP7 ADD PUSH2 0x32AF JUMP JUMPDEST SWAP3 POP POP PUSH1 0x20 PUSH2 0x37FE DUP6 DUP3 DUP7 ADD PUSH2 0x32AF JUMP JUMPDEST SWAP2 POP POP SWAP3 POP SWAP3 SWAP1 POP JUMP JUMPDEST PUSH32 0x546F6B656E20697320616C7265616479206164756C7400000000000000000000 PUSH0 DUP3 ADD MSTORE POP JUMP JUMPDEST PUSH0 PUSH2 0x383C PUSH1 0x16 DUP4 PUSH2 0x31BB JUMP JUMPDEST SWAP2 POP PUSH2 0x3847 DUP3 PUSH2 0x3808 JUMP JUMPDEST PUSH1 0x20 DUP3 ADD SWAP1 POP SWAP2 SWAP1 POP JUMP JUMPDEST PUSH0 PUSH1 0x20 DUP3 ADD SWAP1 POP DUP2 DUP2 SUB PUSH0 DUP4 ADD MSTORE PUSH2 0x3869 DUP2 PUSH2 0x3830 JUMP JUMPDEST SWAP1 POP SWAP2 SWAP1 POP JUMP JUMPDEST PUSH32 0x4E6F74206F776E65720000000000000000000000000000000000000000000000 PUSH0 DUP3 ADD MSTORE POP JUMP JUMPDEST PUSH0 PUSH2 0x38A4 PUSH1 0x9 DUP4 PUSH2 0x31BB JUMP JUMPDEST SWAP2 POP PUSH2 0x38AF DUP3 PUSH2 0x3870 JUMP JUMPDEST PUSH1 0x20 DUP3 ADD SWAP1 POP SWAP2 SWAP1 POP JUMP JUMPDEST PUSH0 PUSH1 0x20 DUP3 ADD SWAP1 POP DUP2 DUP2 SUB PUSH0 DUP4 ADD MSTORE PUSH2 0x38D1 DUP2 PUSH2 0x3898 JUMP JUMPDEST SWAP1 POP SWAP2 SWAP1 POP JUMP JUMPDEST PUSH32 0x4E487B7100000000000000000000000000000000000000000000000000000000 PUSH0 MSTORE PUSH1 0x22 PUSH1 0x4 MSTORE PUSH1 0x24 PUSH0 REVERT JUMPDEST PUSH0 PUSH1 0x2 DUP3 DIV SWAP1 POP PUSH1 0x1 DUP3 AND DUP1 PUSH2 0x391C JUMPI PUSH1 0x7F DUP3 AND SWAP2 POP JUMPDEST PUSH1 0x20 DUP3 LT DUP2 SUB PUSH2 0x392F JUMPI PUSH2 0x392E PUSH2 0x38D8 JUMP JUMPDEST JUMPDEST POP SWAP2 SWAP1 POP JUMP JUMPDEST PUSH0 DUP2 SWAP1 POP DUP2 PUSH0 MSTORE PUSH1 0x20 PUSH0 KECCAK256 SWAP1 POP SWAP2 SWAP1 POP JUMP JUMPDEST PUSH0 PUSH1 0x20 PUSH1 0x1F DUP4 ADD DIV SWAP1 POP SWAP2 SWAP1 POP JUMP JUMPDEST PUSH0 DUP3 DUP3 SHL SWAP1 POP SWAP3 SWAP2 POP POP JUMP JUMPDEST PUSH0 PUSH1 0x8 DUP4 MUL PUSH2 0x3991 PUSH32 0xFFFFFFFFFFFFFFFFFFFFFFFFFFFFFFFFFFFFFFFFFFFFFFFFFFFFFFFFFFFFFFFF DUP3 PUSH2 0x3956 JUMP JUMPDEST PUSH2 0x399B DUP7 DUP4 PUSH2 0x3956 JUMP JUMPDEST SWAP6 POP DUP1 NOT DUP5 AND SWAP4 POP DUP1 DUP7 AND DUP5 OR SWAP3 POP POP POP SWAP4 SWAP3 POP POP POP JUMP JUMPDEST PUSH0 DUP2 SWAP1 POP SWAP2 SWAP1 POP JUMP JUMPDEST PUSH0 PUSH2 0x39D6 PUSH2 0x39D1 PUSH2 0x39CC DUP5 PUSH2 0x30A0 JUMP JUMPDEST PUSH2 0x39B3 JUMP JUMPDEST PUSH2 0x30A0 JUMP JUMPDEST SWAP1 POP SWAP2 SWAP1 POP JUMP JUMPDEST PUSH0 DUP2 SWAP1 POP SWAP2 SWAP1 POP JUMP JUMPDEST PUSH2 0x39EF DUP4 PUSH2 0x39BC JUMP JUMPDEST PUSH2 0x3A03 PUSH2 0x39FB DUP3 PUSH2 0x39DD JUMP JUMPDEST DUP5 DUP5 SLOAD PUSH2 0x3962 JUMP JUMPDEST DUP3 SSTORE POP POP POP POP JUMP JUMPDEST PUSH0 SWAP1 JUMP JUMPDEST PUSH2 0x3A17 PUSH2 0x3A0B JUMP JUMPDEST PUSH2 0x3A22 DUP2 DUP5 DUP5 PUSH2 0x39E6 JUMP JUMPDEST POP POP POP JUMP JUMPDEST JUMPDEST DUP2 DUP2 LT ISZERO PUSH2 0x3A45 JUMPI PUSH2 0x3A3A PUSH0 DUP3 PUSH2 0x3A0F JUMP JUMPDEST PUSH1 0x1 DUP2 ADD SWAP1 POP PUSH2 0x3A28 JUMP JUMPDEST POP POP JUMP JUMPDEST PUSH1 0x1F DUP3 GT ISZERO PUSH2 0x3A8A JUMPI PUSH2 0x3A5B DUP2 PUSH2 0x3935 JUMP JUMPDEST PUSH2 0x3A64 DUP5 PUSH2 0x3947 JUMP JUMPDEST DUP2 ADD PUSH1 0x20 DUP6 LT ISZERO PUSH2 0x3A73 JUMPI DUP2 SWAP1 POP JUMPDEST PUSH2 0x3A87 PUSH2 0x3A7F DUP6 PUSH2 0x3947 JUMP JUMPDEST DUP4 ADD DUP3 PUSH2 0x3A27 JUMP JUMPDEST POP POP JUMPDEST POP POP POP JUMP JUMPDEST PUSH0 DUP3 DUP3 SHR SWAP1 POP SWAP3 SWAP2 POP POP JUMP JUMPDEST PUSH0 PUSH2 0x3AAA PUSH0 NOT DUP5 PUSH1 0x8 MUL PUSH2 0x3A8F JUMP JUMPDEST NOT DUP1 DUP4 AND SWAP2 POP POP SWAP3 SWAP2 POP POP JUMP JUMPDEST PUSH0 PUSH2 0x3AC2 DUP4 DUP4 PUSH2 0x3A9B JUMP JUMPDEST SWAP2 POP DUP3 PUSH1 0x2 MUL DUP3 OR SWAP1 POP SWAP3 SWAP2 POP POP JUMP JUMPDEST PUSH2 0x3ADB DUP3 PUSH2 0x31B1 JUMP JUMPDEST PUSH8 0xFFFFFFFFFFFFFFFF DUP2 GT ISZERO PUSH2 0x3AF4 JUMPI PUSH2 0x3AF3 PUSH2 0x3309 JUMP JUMPDEST JUMPDEST PUSH2 0x3AFE DUP3 SLOAD PUSH2 0x3905 JUMP JUMPDEST PUSH2 0x3B09 DUP3 DUP3 DUP6 PUSH2 0x3A49 JUMP JUMPDEST PUSH0 PUSH1 0x20 SWAP1 POP PUSH1 0x1F DUP4 GT PUSH1 0x1 DUP2 EQ PUSH2 0x3B3A JUMPI PUSH0 DUP5 ISZERO PUSH2 0x3B28 JUMPI DUP3 DUP8 ADD MLOAD SWAP1 POP JUMPDEST PUSH2 0x3B32 DUP6 DUP3 PUSH2 0x3AB7 JUMP JUMPDEST DUP7 SSTORE POP PUSH2 0x3B99 JUMP JUMPDEST PUSH1 0x1F NOT DUP5 AND PUSH2 0x3B48 DUP7 PUSH2 0x3935 JUMP JUMPDEST PUSH0 JUMPDEST DUP3 DUP2 LT ISZERO PUSH2 0x3B6F JUMPI DUP5 DUP10 ADD MLOAD DUP3 SSTORE PUSH1 0x1 DUP3 ADD SWAP2 POP PUSH1 0x20 DUP6 ADD SWAP5 POP PUSH1 0x20 DUP2 ADD SWAP1 POP PUSH2 0x3B4A JUMP JUMPDEST DUP7 DUP4 LT ISZERO PUSH2 0x3B8C JUMPI DUP5 DUP10 ADD MLOAD PUSH2 0x3B88 PUSH1 0x1F DUP10 AND DUP3 PUSH2 0x3A9B JUMP JUMPDEST DUP4 SSTORE POP JUMPDEST PUSH1 0x1 PUSH1 0x2 DUP9 MUL ADD DUP9 SSTORE POP POP POP JUMPDEST POP POP POP POP POP POP JUMP JUMPDEST PUSH32 0x4E487B7100000000000000000000000000000000000000000000000000000000 PUSH0 MSTORE PUSH1 0x11 PUSH1 0x4 MSTORE PUSH1 0x24 PUSH0 REVERT JUMPDEST PUSH0 PUSH2 0x3BD8 DUP3 PUSH2 0x30A0 JUMP JUMPDEST SWAP2 POP PUSH2 0x3BE3 DUP4 PUSH2 0x30A0 JUMP JUMPDEST SWAP3 POP DUP3 DUP3 ADD SWAP1 POP DUP1 DUP3 GT ISZERO PUSH2 0x3BFB JUMPI PUSH2 0x3BFA PUSH2 0x3BA1 JUMP JUMPDEST JUMPDEST SWAP3 SWAP2 POP POP JUMP JUMPDEST PUSH32 0x556E61626C6520746F2065766F6C766500000000000000000000000000000000 PUSH0 DUP3 ADD MSTORE POP JUMP JUMPDEST PUSH0 PUSH2 0x3C35 PUSH1 0x10 DUP4 PUSH2 0x31BB JUMP JUMPDEST SWAP2 POP PUSH2 0x3C40 DUP3 PUSH2 0x3C01 JUMP JUMPDEST PUSH1 0x20 DUP3 ADD SWAP1 POP SWAP2 SWAP1 POP JUMP JUMPDEST PUSH0 PUSH1 0x20 DUP3 ADD SWAP1 POP DUP2 DUP2 SUB PUSH0 DUP4 ADD MSTORE PUSH2 0x3C62 DUP2 PUSH2 0x3C29 JUMP JUMPDEST SWAP1 POP SWAP2 SWAP1 POP JUMP JUMPDEST PUSH0 PUSH1 0x60 DUP3 ADD SWAP1 POP PUSH2 0x3C7C PUSH0 DUP4 ADD DUP7 PUSH2 0x3271 JUMP JUMPDEST PUSH2 0x3C89 PUSH1 0x20 DUP4 ADD DUP6 PUSH2 0x34EF JUMP JUMPDEST PUSH2 0x3C96 PUSH1 0x40 DUP4 ADD DUP5 PUSH2 0x3271 JUMP JUMPDEST SWAP5 SWAP4 POP POP POP POP JUMP JUMPDEST PUSH32 0x496E636573740000000000000000000000000000000000000000000000000000 PUSH0 DUP3 ADD MSTORE POP JUMP JUMPDEST PUSH0 PUSH2 0x3CD2 PUSH1 0x6 DUP4 PUSH2 0x31BB JUMP JUMPDEST SWAP2 POP PUSH2 0x3CDD DUP3 PUSH2 0x3C9E JUMP JUMPDEST PUSH1 0x20 DUP3 ADD SWAP1 POP SWAP2 SWAP1 POP JUMP JUMPDEST PUSH0 PUSH1 0x20 DUP3 ADD SWAP1 POP DUP2 DUP2 SUB PUSH0 DUP4 ADD MSTORE PUSH2 0x3CFF DUP2 PUSH2 0x3CC6 JUMP JUMPDEST SWAP1 POP SWAP2 SWAP1 POP JUMP JUMPDEST PUSH32 0x4272656564696E67206E6F7420616C6C6F776564207965740000000000000000 PUSH0 DUP3 ADD MSTORE POP JUMP JUMPDEST PUSH0 PUSH2 0x3D3A PUSH1 0x18 DUP4 PUSH2 0x31BB JUMP JUMPDEST SWAP2 POP PUSH2 0x3D45 DUP3 PUSH2 0x3D06 JUMP JUMPDEST PUSH1 0x20 DUP3 ADD SWAP1 POP SWAP2 SWAP1 POP JUMP JUMPDEST PUSH0 PUSH1 0x20 DUP3 ADD SWAP1 POP DUP2 DUP2 SUB PUSH0 DUP4 ADD MSTORE PUSH2 0x3D67 DUP2 PUSH2 0x3D2E JUMP JUMPDEST SWAP1 POP SWAP2 SWAP1 POP JUMP JUMPDEST PUSH32 0x53616D652067656E646572000000000000000000000000000000000000000000 PUSH0 DUP3 ADD MSTORE POP JUMP JUMPDEST PUSH0 PUSH2 0x3DA2 PUSH1 0xB DUP4 PUSH2 0x31BB JUMP JUMPDEST SWAP2 POP PUSH2 0x3DAD DUP3 PUSH2 0x3D6E JUMP JUMPDEST PUSH1 0x20 DUP3 ADD SWAP1 POP SWAP2 SWAP1 POP JUMP JUMPDEST PUSH0 PUSH1 0x20 DUP3 ADD SWAP1 POP DUP2 DUP2 SUB PUSH0 DUP4 ADD MSTORE PUSH2 0x3DCF DUP2 PUSH2 0x3D96 JUMP JUMPDEST SWAP1 POP SWAP2 SWAP1 POP JUMP JUMPDEST PUSH0 PUSH2 0x3DE0 DUP3 PUSH2 0x30A0 JUMP JUMPDEST SWAP2 POP PUSH2 0x3DEB DUP4 PUSH2 0x30A0 JUMP JUMPDEST SWAP3 POP DUP3 DUP3 SUB SWAP1 POP DUP2 DUP2 GT ISZERO PUSH2 0x3E03 JUMPI PUSH2 0x3E02 PUSH2 0x3BA1 JUMP JUMPDEST JUMPDEST SWAP3 SWAP2 POP POP JUMP JUMPDEST PUSH0 DUP2 SWAP1 POP SWAP3 SWAP2 POP POP JUMP JUMPDEST PUSH0 DUP2 SLOAD PUSH2 0x3E1F DUP2 PUSH2 0x3905 JUMP JUMPDEST PUSH2 0x3E29 DUP2 DUP7 PUSH2 0x3E09 JUMP JUMPDEST SWAP5 POP PUSH1 0x1 DUP3 AND PUSH0 DUP2 EQ PUSH2 0x3E43 JUMPI PUSH1 0x1 DUP2 EQ PUSH2 0x3E58 JUMPI PUSH2 0x3E8A JUMP JUMPDEST PUSH1 0xFF NOT DUP4 AND DUP7 MSTORE DUP2 ISZERO ISZERO DUP3 MUL DUP7 ADD SWAP4 POP PUSH2 0x3E8A JUMP JUMPDEST PUSH2 0x3E61 DUP6 PUSH2 0x3935 JUMP JUMPDEST PUSH0 JUMPDEST DUP4 DUP2 LT ISZERO PUSH2 0x3E82 JUMPI DUP2 SLOAD DUP2 DUP10 ADD MSTORE PUSH1 0x1 DUP3 ADD SWAP2 POP PUSH1 0x20 DUP2 ADD SWAP1 POP PUSH2 0x3E63 JUMP JUMPDEST DUP4 DUP9 ADD SWAP6 POP POP POP JUMPDEST POP POP POP SWAP3 SWAP2 POP POP JUMP JUMPDEST PUSH0 PUSH2 0x3E9D DUP3 PUSH2 0x31B1 JUMP JUMPDEST PUSH2 0x3EA7 DUP2 DUP6 PUSH2 0x3E09 JUMP JUMPDEST SWAP4 POP PUSH2 0x3EB7 DUP2 DUP6 PUSH1 0x20 DUP7 ADD PUSH2 0x31CB JUMP JUMPDEST DUP1 DUP5 ADD SWAP2 POP POP SWAP3 SWAP2 POP POP JUMP JUMPDEST PUSH0 PUSH2 0x3ECE DUP3 DUP6 PUSH2 0x3E13 JUMP JUMPDEST SWAP2 POP PUSH2 0x3EDA DUP3 DUP5 PUSH2 0x3E93 JUMP JUMPDEST SWAP2 POP DUP2 SWAP1 POP SWAP4 SWAP3 POP POP POP JUMP JUMPDEST PUSH32 0x5F65676700000000000000000000000000000000000000000000000000000000 PUSH0 DUP3 ADD MSTORE POP JUMP JUMPDEST PUSH0 PUSH2 0x3F1A PUSH1 0x4 DUP4 PUSH2 0x3E09 JUMP JUMPDEST SWAP2 POP PUSH2 0x3F25 DUP3 PUSH2 0x3EE6 JUMP JUMPDEST PUSH1 0x4 DUP3 ADD SWAP1 POP SWAP2 SWAP1 POP JUMP JUMPDEST PUSH0 PUSH2 0x3F3B DUP3 DUP5 PUSH2 0x3E13 JUMP JUMPDEST SWAP2 POP PUSH2 0x3F46 DUP3 PUSH2 0x3F0E JUMP JUMPDEST SWAP2 POP DUP2 SWAP1 POP SWAP3 SWAP2 POP POP JUMP JUMPDEST PUSH32 0x5F00000000000000000000000000000000000000000000000000000000000000 PUSH0 DUP3 ADD MSTORE POP JUMP JUMPDEST PUSH0 PUSH2 0x3F85 PUSH1 0x1 DUP4 PUSH2 0x3E09 JUMP JUMPDEST SWAP2 POP PUSH2 0x3F90 DUP3 PUSH2 0x3F51 JUMP JUMPDEST PUSH1 0x1 DUP3 ADD SWAP1 POP SWAP2 SWAP1 POP JUMP JUMPDEST PUSH0 PUSH2 0x3FA6 DUP3 DUP8 PUSH2 0x3E13 JUMP JUMPDEST SWAP2 POP PUSH2 0x3FB1 DUP3 PUSH2 0x3F79 JUMP JUMPDEST SWAP2 POP PUSH2 0x3FBD DUP3 DUP7 PUSH2 0x3E93 JUMP JUMPDEST SWAP2 POP PUSH2 0x3FC8 DUP3 PUSH2 0x3F79 JUMP JUMPDEST SWAP2 POP PUSH2 0x3FD4 DUP3 DUP6 PUSH2 0x3E93 JUMP JUMPDEST SWAP2 POP PUSH2 0x3FDF DUP3 PUSH2 0x3F79 JUMP JUMPDEST SWAP2 POP PUSH2 0x3FEB DUP3 DUP5 PUSH2 0x3E93 JUMP JUMPDEST SWAP2 POP DUP2 SWAP1 POP SWAP6 SWAP5 POP POP POP POP POP JUMP JUMPDEST PUSH0 PUSH2 0x4004 DUP3 DUP6 PUSH2 0x3E93 JUMP JUMPDEST SWAP2 POP PUSH2 0x4010 DUP3 DUP5 PUSH2 0x3E13 JUMP JUMPDEST SWAP2 POP DUP2 SWAP1 POP SWAP4 SWAP3 POP POP POP JUMP JUMPDEST PUSH32 0x7B226E616D65223A2022447261676F6E20230000000000000000000000000000 PUSH0 DUP3 ADD MSTORE POP JUMP JUMPDEST PUSH0 PUSH2 0x4050 PUSH1 0x12 DUP4 PUSH2 0x3E09 JUMP JUMPDEST SWAP2 POP PUSH2 0x405B DUP3 PUSH2 0x401C JUMP JUMPDEST PUSH1 0x12 DUP3 ADD SWAP1 POP SWAP2 SWAP1 POP JUMP JUMPDEST PUSH32 0x222C2265787465726E616C5F75726C223A2268747470733A2F2F676974687562 PUSH0 DUP3 ADD MSTORE PUSH32 0x2E636F6D2F626368736F6C2F43727970746F447261676F6E222C22696D616765 PUSH1 0x20 DUP3 ADD MSTORE PUSH32 0x223A220000000000000000000000000000000000000000000000000000000000 PUSH1 0x40 DUP3 ADD MSTORE POP JUMP JUMPDEST PUSH0 PUSH2 0x40E6 PUSH1 0x43 DUP4 PUSH2 0x3E09 JUMP JUMPDEST SWAP2 POP PUSH2 0x40F1 DUP3 PUSH2 0x4066 JUMP JUMPDEST PUSH1 0x43 DUP3 ADD SWAP1 POP SWAP2 SWAP1 POP JUMP JUMPDEST PUSH0 PUSH2 0x4106 DUP3 PUSH2 0x4044 JUMP JUMPDEST SWAP2 POP PUSH2 0x4112 DUP3 DUP7 PUSH2 0x3E93 JUMP JUMPDEST SWAP2 POP PUSH2 0x411D DUP3 PUSH2 0x40DA JUMP JUMPDEST SWAP2 POP PUSH2 0x4129 DUP3 DUP6 PUSH2 0x3E13 JUMP JUMPDEST SWAP2 POP PUSH2 0x4135 DUP3 DUP5 PUSH2 0x3E93 JUMP JUMPDEST SWAP2 POP DUP2 SWAP1 POP SWAP5 SWAP4 POP POP POP POP JUMP JUMPDEST PUSH32 0x222C2261747472696275746573223A5B7B2274726169745F74797065223A2244 PUSH0 DUP3 ADD MSTORE PUSH32 0x7261676F6E222C2276616C7565223A2200000000000000000000000000000000 PUSH1 0x20 DUP3 ADD MSTORE POP JUMP JUMPDEST PUSH0 PUSH2 0x419C PUSH1 0x30 DUP4 PUSH2 0x3E09 JUMP JUMPDEST SWAP2 POP PUSH2 0x41A7 DUP3 PUSH2 0x4142 JUMP JUMPDEST PUSH1 0x30 DUP3 ADD SWAP1 POP SWAP2 SWAP1 POP JUMP JUMPDEST PUSH0 PUSH2 0x41BC DUP3 PUSH2 0x4190 JUMP JUMPDEST SWAP2 POP PUSH2 0x41C8 DUP3 DUP5 PUSH2 0x3E13 JUMP JUMPDEST SWAP2 POP DUP2 SWAP1 POP SWAP3 SWAP2 POP POP JUMP JUMPDEST PUSH32 0x646174613A6170706C69636174696F6E2F6A736F6E3B757466382C0000000000 PUSH0 DUP3 ADD MSTORE POP JUMP JUMPDEST PUSH0 PUSH2 0x4207 PUSH1 0x1B DUP4 PUSH2 0x3E09 JUMP JUMPDEST SWAP2 POP PUSH2 0x4212 DUP3 PUSH2 0x41D3 JUMP JUMPDEST PUSH1 0x1B DUP3 ADD SWAP1 POP SWAP2 SWAP1 POP JUMP JUMPDEST PUSH0 PUSH2 0x4227 DUP3 PUSH2 0x41FB JUMP JUMPDEST SWAP2 POP PUSH2 0x4233 DUP3 DUP7 PUSH2 0x3E93 JUMP JUMPDEST SWAP2 POP PUSH2 0x423F DUP3 DUP6 PUSH2 0x3E93 JUMP JUMPDEST SWAP2 POP PUSH2 0x424B DUP3 DUP5 PUSH2 0x3E93 JUMP JUMPDEST SWAP2 POP DUP2 SWAP1 POP SWAP5 SWAP4 POP POP POP POP JUMP JUMPDEST PUSH0 PUSH2 0x4262 DUP3 PUSH2 0x30A0 JUMP JUMPDEST SWAP2 POP PUSH32 0xFFFFFFFFFFFFFFFFFFFFFFFFFFFFFFFFFFFFFFFFFFFFFFFFFFFFFFFFFFFFFFFF DUP3 SUB PUSH2 0x4294 JUMPI PUSH2 0x4293 PUSH2 0x3BA1 JUMP JUMPDEST JUMPDEST PUSH1 0x1 DUP3 ADD SWAP1 POP SWAP2 SWAP1 POP JUMP JUMPDEST PUSH0 DUP2 SWAP1 POP SWAP2 SWAP1 POP JUMP JUMPDEST PUSH2 0x42B9 PUSH2 0x42B4 DUP3 PUSH2 0x30A0 JUMP JUMPDEST PUSH2 0x429F JUMP JUMPDEST DUP3 MSTORE POP POP JUMP JUMPDEST PUSH0 DUP2 PUSH1 0x60 SHL SWAP1 POP SWAP2 SWAP1 POP JUMP JUMPDEST PUSH0 PUSH2 0x42D5 DUP3 PUSH2 0x42BF JUMP JUMPDEST SWAP1 POP SWAP2 SWAP1 POP JUMP JUMPDEST PUSH0 PUSH2 0x42E6 DUP3 PUSH2 0x42CB JUMP JUMPDEST SWAP1 POP SWAP2 SWAP1 POP JUMP JUMPDEST PUSH2 0x42FE PUSH2 0x42F9 DUP3 PUSH2 0x3260 JUMP JUMPDEST PUSH2 0x42DC JUMP JUMPDEST DUP3 MSTORE POP POP JUMP JUMPDEST PUSH0 PUSH2 0x430F DUP3 DUP7 PUSH2 0x42A8 JUMP JUMPDEST PUSH1 0x20 DUP3 ADD SWAP2 POP PUSH2 0x431F DUP3 DUP6 PUSH2 0x42ED JUMP JUMPDEST PUSH1 0x14 DUP3 ADD SWAP2 POP PUSH2 0x432F DUP3 DUP5 PUSH2 0x42A8 JUMP JUMPDEST PUSH1 0x20 DUP3 ADD SWAP2 POP DUP2 SWAP1 POP SWAP5 SWAP4 POP POP POP POP JUMP JUMPDEST PUSH32 0x4E487B7100000000000000000000000000000000000000000000000000000000 PUSH0 MSTORE PUSH1 0x12 PUSH1 0x4 MSTORE PUSH1 0x24 PUSH0 REVERT JUMPDEST PUSH0 PUSH2 0x4377 DUP3 PUSH2 0x30A0 JUMP JUMPDEST SWAP2 POP PUSH2 0x4382 DUP4 PUSH2 0x30A0 JUMP JUMPDEST SWAP3 POP DUP3 PUSH2 0x4392 JUMPI PUSH2 0x4391 PUSH2 0x4340 JUMP JUMPDEST JUMPDEST DUP3 DUP3 MOD SWAP1 POP SWAP3 SWAP2 POP POP JUMP JUMPDEST PUSH0 DUP2 MLOAD SWAP1 POP SWAP2 SWAP1 POP JUMP JUMPDEST PUSH0 DUP3 DUP3 MSTORE PUSH1 0x20 DUP3 ADD SWAP1 POP SWAP3 SWAP2 POP POP JUMP JUMPDEST PUSH0 PUSH2 0x43C1 DUP3 PUSH2 0x439D JUMP JUMPDEST PUSH2 0x43CB DUP2 DUP6 PUSH2 0x43A7 JUMP JUMPDEST SWAP4 POP PUSH2 0x43DB DUP2 DUP6 PUSH1 0x20 DUP7 ADD PUSH2 0x31CB JUMP JUMPDEST PUSH2 0x43E4 DUP2 PUSH2 0x31D9 JUMP JUMPDEST DUP5 ADD SWAP2 POP POP SWAP3 SWAP2 POP POP JUMP JUMPDEST PUSH0 PUSH1 0x80 DUP3 ADD SWAP1 POP PUSH2 0x4402 PUSH0 DUP4 ADD DUP8 PUSH2 0x3271 JUMP JUMPDEST PUSH2 0x440F PUSH1 0x20 DUP4 ADD DUP7 PUSH2 0x3271 JUMP JUMPDEST PUSH2 0x441C PUSH1 0x40 DUP4 ADD DUP6 PUSH2 0x34EF JUMP JUMPDEST DUP2 DUP2 SUB PUSH1 0x60 DUP4 ADD MSTORE PUSH2 0x442E DUP2 DUP5 PUSH2 0x43B7 JUMP JUMPDEST SWAP1 POP SWAP6 SWAP5 POP POP POP POP POP JUMP JUMPDEST PUSH0 DUP2 MLOAD SWAP1 POP PUSH2 0x4447 DUP2 PUSH2 0x3129 JUMP JUMPDEST SWAP3 SWAP2 POP POP JUMP JUMPDEST PUSH0 PUSH1 0x20 DUP3 DUP5 SUB SLT ISZERO PUSH2 0x4462 JUMPI PUSH2 0x4461 PUSH2 0x3098 JUMP JUMPDEST JUMPDEST PUSH0 PUSH2 0x446F DUP5 DUP3 DUP6 ADD PUSH2 0x4439 JUMP JUMPDEST SWAP2 POP POP SWAP3 SWAP2 POP POP JUMP JUMPDEST PUSH0 PUSH1 0x40 DUP3 ADD SWAP1 POP PUSH2 0x448B PUSH0 DUP4 ADD DUP6 PUSH2 0x3271 JUMP JUMPDEST PUSH2 0x4498 PUSH1 0x20 DUP4 ADD DUP5 PUSH2 0x34EF JUMP JUMPDEST SWAP4 SWAP3 POP POP POP JUMP INVALID LOG2 PUSH5 0x6970667358 0x22 SLT KECCAK256 PUSH31 0x609134548A17011B1113089F81C0F11E3C001CBDE905D7E5F9D94E56F44347 PUSH5 0x736F6C6343 STOP ADDMOD NOT STOP CALLER "
		},
		"gasEstimates": {
			"creation": {
				"codeDepositCost": "3524200",
				"executionCost": "infinite",
				"totalCost": "infinite"
			},
			"external": {
				"approve(address,uint256)": "infinite",
				"balanceOf(address)": "infinite",
				"baseTokenURI()": "infinite",
				"breed(string,uint256,uint256)": "infinite",
				"dataURI()": "infinite",
				"evolve(uint256)": "infinite",
				"feeding(uint256)": "infinite",
				"forceEvolve(uint256)": "infinite",
				"getApproved(uint256)": "infinite",
				"getBreedInfo(uint256)": "infinite",
				"getGrowthInfo(uint256)": "infinite",
				"isApprovedForAll(address,address)": "infinite",
				"metaDescription()": "infinite",
				"name()": "infinite",
				"owner()": "2561",
				"ownerOf(uint256)": "infinite",
				"renounceOwnership()": "infinite",
				"safeTransferFrom(address,address,uint256)": "infinite",
				"safeTransferFrom(address,address,uint256,bytes)": "infinite",
				"setApprovalForAll(address,bool)": "infinite",
				"setDataURI(string)": "infinite",
				"setImageExtension(string)": "infinite",
				"setMetaDescription(string)": "infinite",
				"setTokenURI(string)": "infinite",
				"supportsInterface(bytes4)": "968",
				"symbol()": "infinite",
				"tokenURI(uint256)": "infinite",
				"transferFrom(address,address,uint256)": "infinite",
				"transferOwnership(address)": "infinite"
			},
			"internal": {
				"_areDifferentGenders(uint256,uint256)": "4433",
				"_canBreed(uint256)": "2219",
				"_createChildToken(string memory,uint256,uint256)": "infinite",
				"_isIncest(uint256,uint256)": "12975",
				"_updateBreedInfo(uint256)": "infinite"
			}
		},
		"methodIdentifiers": {
			"approve(address,uint256)": "095ea7b3",
			"balanceOf(address)": "70a08231",
			"baseTokenURI()": "d547cfb7",
			"breed(string,uint256,uint256)": "99683c22",
			"dataURI()": "f28ca1dd",
			"evolve(uint256)": "f119f567",
			"feeding(uint256)": "00e00064",
			"forceEvolve(uint256)": "1bc80eff",
			"getApproved(uint256)": "081812fc",
			"getBreedInfo(uint256)": "86838c60",
			"getGrowthInfo(uint256)": "b564ea86",
			"isApprovedForAll(address,address)": "e985e9c5",
			"metaDescription()": "edeb4bbe",
			"name()": "06fdde03",
			"owner()": "8da5cb5b",
			"ownerOf(uint256)": "6352211e",
			"renounceOwnership()": "715018a6",
			"safeTransferFrom(address,address,uint256)": "42842e0e",
			"safeTransferFrom(address,address,uint256,bytes)": "b88d4fde",
			"setApprovalForAll(address,bool)": "a22cb465",
			"setDataURI(string)": "18d217c3",
			"setImageExtension(string)": "39e3aa7e",
			"setMetaDescription(string)": "bd9ba9e8",
			"setTokenURI(string)": "e0df5b6f",
			"supportsInterface(bytes4)": "01ffc9a7",
			"symbol()": "95d89b41",
			"tokenURI(uint256)": "c87b56dd",
			"transferFrom(address,address,uint256)": "23b872dd",
			"transferOwnership(address)": "f2fde38b"
		}
	},
	"abi": [
		{
			"inputs": [
				{
					"internalType": "address",
					"name": "initialOwner",
					"type": "address"
				},
				{
					"internalType": "string",
					"name": "name",
					"type": "string"
				},
				{
					"internalType": "string",
					"name": "symbol",
					"type": "string"
				}
			],
			"stateMutability": "nonpayable",
			"type": "constructor"
		},
		{
			"inputs": [
				{
					"internalType": "address",
					"name": "sender",
					"type": "address"
				},
				{
					"internalType": "uint256",
					"name": "tokenId",
					"type": "uint256"
				},
				{
					"internalType": "address",
					"name": "owner",
					"type": "address"
				}
			],
			"name": "ERC721IncorrectOwner",
			"type": "error"
		},
		{
			"inputs": [
				{
					"internalType": "address",
					"name": "operator",
					"type": "address"
				},
				{
					"internalType": "uint256",
					"name": "tokenId",
					"type": "uint256"
				}
			],
			"name": "ERC721InsufficientApproval",
			"type": "error"
		},
		{
			"inputs": [
				{
					"internalType": "address",
					"name": "approver",
					"type": "address"
				}
			],
			"name": "ERC721InvalidApprover",
			"type": "error"
		},
		{
			"inputs": [
				{
					"internalType": "address",
					"name": "operator",
					"type": "address"
				}
			],
			"name": "ERC721InvalidOperator",
			"type": "error"
		},
		{
			"inputs": [
				{
					"internalType": "address",
					"name": "owner",
					"type": "address"
				}
			],
			"name": "ERC721InvalidOwner",
			"type": "error"
		},
		{
			"inputs": [
				{
					"internalType": "address",
					"name": "receiver",
					"type": "address"
				}
			],
			"name": "ERC721InvalidReceiver",
			"type": "error"
		},
		{
			"inputs": [
				{
					"internalType": "address",
					"name": "sender",
					"type": "address"
				}
			],
			"name": "ERC721InvalidSender",
			"type": "error"
		},
		{
			"inputs": [
				{
					"internalType": "uint256",
					"name": "tokenId",
					"type": "uint256"
				}
			],
			"name": "ERC721NonexistentToken",
			"type": "error"
		},
		{
			"inputs": [
				{
					"internalType": "address",
					"name": "owner",
					"type": "address"
				}
			],
			"name": "OwnableInvalidOwner",
			"type": "error"
		},
		{
			"inputs": [
				{
					"internalType": "address",
					"name": "account",
					"type": "address"
				}
			],
			"name": "OwnableUnauthorizedAccount",
			"type": "error"
		},
		{
			"anonymous": false,
			"inputs": [
				{
					"indexed": true,
					"internalType": "address",
					"name": "owner",
					"type": "address"
				},
				{
					"indexed": true,
					"internalType": "address",
					"name": "approved",
					"type": "address"
				},
				{
					"indexed": true,
					"internalType": "uint256",
					"name": "tokenId",
					"type": "uint256"
				}
			],
			"name": "Approval",
			"type": "event"
		},
		{
			"anonymous": false,
			"inputs": [
				{
					"indexed": true,
					"internalType": "address",
					"name": "owner",
					"type": "address"
				},
				{
					"indexed": true,
					"internalType": "address",
					"name": "operator",
					"type": "address"
				},
				{
					"indexed": false,
					"internalType": "bool",
					"name": "approved",
					"type": "bool"
				}
			],
			"name": "ApprovalForAll",
			"type": "event"
		},
		{
			"anonymous": false,
			"inputs": [
				{
					"indexed": false,
					"internalType": "uint256",
					"name": "_fromTokenId",
					"type": "uint256"
				},
				{
					"indexed": false,
					"internalType": "uint256",
					"name": "_toTokenId",
					"type": "uint256"
				}
			],
			"name": "BatchMetadataUpdate",
			"type": "event"
		},
		{
			"anonymous": false,
			"inputs": [
				{
					"indexed": false,
					"internalType": "uint256",
					"name": "_tokenId",
					"type": "uint256"
				}
			],
			"name": "MetadataUpdate",
			"type": "event"
		},
		{
			"anonymous": false,
			"inputs": [
				{
					"indexed": true,
					"internalType": "address",
					"name": "previousOwner",
					"type": "address"
				},
				{
					"indexed": true,
					"internalType": "address",
					"name": "newOwner",
					"type": "address"
				}
			],
			"name": "OwnershipTransferred",
			"type": "event"
		},
		{
			"anonymous": false,
			"inputs": [
				{
					"indexed": true,
					"internalType": "address",
					"name": "from",
					"type": "address"
				},
				{
					"indexed": true,
					"internalType": "address",
					"name": "to",
					"type": "address"
				},
				{
					"indexed": true,
					"internalType": "uint256",
					"name": "tokenId",
					"type": "uint256"
				}
			],
			"name": "Transfer",
			"type": "event"
		},
		{
			"inputs": [
				{
					"internalType": "address",
					"name": "to",
					"type": "address"
				},
				{
					"internalType": "uint256",
					"name": "tokenId",
					"type": "uint256"
				}
			],
			"name": "approve",
			"outputs": [],
			"stateMutability": "nonpayable",
			"type": "function"
		},
		{
			"inputs": [
				{
					"internalType": "address",
					"name": "owner",
					"type": "address"
				}
			],
			"name": "balanceOf",
			"outputs": [
				{
					"internalType": "uint256",
					"name": "",
					"type": "uint256"
				}
			],
			"stateMutability": "view",
			"type": "function"
		},
		{
			"inputs": [],
			"name": "baseTokenURI",
			"outputs": [
				{
					"internalType": "string",
					"name": "",
					"type": "string"
				}
			],
			"stateMutability": "view",
			"type": "function"
		},
		{
			"inputs": [
				{
					"internalType": "string",
					"name": "tokenType",
					"type": "string"
				},
				{
					"internalType": "uint256",
					"name": "husbandId",
					"type": "uint256"
				},
				{
					"internalType": "uint256",
					"name": "wifeId",
					"type": "uint256"
				}
			],
			"name": "breed",
			"outputs": [
				{
					"internalType": "uint256",
					"name": "",
					"type": "uint256"
				}
			],
			"stateMutability": "payable",
			"type": "function"
		},
		{
			"inputs": [],
			"name": "dataURI",
			"outputs": [
				{
					"internalType": "string",
					"name": "",
					"type": "string"
				}
			],
			"stateMutability": "view",
			"type": "function"
		},
		{
			"inputs": [
				{
					"internalType": "uint256",
					"name": "tokenId",
					"type": "uint256"
				}
			],
			"name": "evolve",
			"outputs": [],
			"stateMutability": "nonpayable",
			"type": "function"
		},
		{
			"inputs": [
				{
					"internalType": "uint256",
					"name": "tokenId",
					"type": "uint256"
				}
			],
			"name": "feeding",
			"outputs": [],
			"stateMutability": "nonpayable",
			"type": "function"
		},
		{
			"inputs": [
				{
					"internalType": "uint256",
					"name": "tokenId",
					"type": "uint256"
				}
			],
			"name": "forceEvolve",
			"outputs": [],
			"stateMutability": "nonpayable",
			"type": "function"
		},
		{
			"inputs": [
				{
					"internalType": "uint256",
					"name": "tokenId",
					"type": "uint256"
				}
			],
			"name": "getApproved",
			"outputs": [
				{
					"internalType": "address",
					"name": "",
					"type": "address"
				}
			],
			"stateMutability": "view",
			"type": "function"
		},
		{
			"inputs": [
				{
					"internalType": "uint256",
					"name": "tokenId",
					"type": "uint256"
				}
			],
			"name": "getBreedInfo",
			"outputs": [
				{
					"internalType": "uint256",
					"name": "releaseTime",
					"type": "uint256"
				},
				{
					"internalType": "uint256",
					"name": "count",
					"type": "uint256"
				}
			],
			"stateMutability": "view",
			"type": "function"
		},
		{
			"inputs": [
				{
					"internalType": "uint256",
					"name": "tokenId",
					"type": "uint256"
				}
			],
			"name": "getGrowthInfo",
			"outputs": [
				{
					"internalType": "enum TokenBase.GrowthStage",
					"name": "currentStage",
					"type": "uint8"
				},
				{
					"internalType": "uint256",
					"name": "timeRemaining",
					"type": "uint256"
				}
			],
			"stateMutability": "view",
			"type": "function"
		},
		{
			"inputs": [
				{
					"internalType": "address",
					"name": "owner",
					"type": "address"
				},
				{
					"internalType": "address",
					"name": "operator",
					"type": "address"
				}
			],
			"name": "isApprovedForAll",
			"outputs": [
				{
					"internalType": "bool",
					"name": "",
					"type": "bool"
				}
			],
			"stateMutability": "view",
			"type": "function"
		},
		{
			"inputs": [],
			"name": "metaDescription",
			"outputs": [
				{
					"internalType": "string",
					"name": "",
					"type": "string"
				}
			],
			"stateMutability": "view",
			"type": "function"
		},
		{
			"inputs": [],
			"name": "name",
			"outputs": [
				{
					"internalType": "string",
					"name": "",
					"type": "string"
				}
			],
			"stateMutability": "view",
			"type": "function"
		},
		{
			"inputs": [],
			"name": "owner",
			"outputs": [
				{
					"internalType": "address",
					"name": "",
					"type": "address"
				}
			],
			"stateMutability": "view",
			"type": "function"
		},
		{
			"inputs": [
				{
					"internalType": "uint256",
					"name": "tokenId",
					"type": "uint256"
				}
			],
			"name": "ownerOf",
			"outputs": [
				{
					"internalType": "address",
					"name": "",
					"type": "address"
				}
			],
			"stateMutability": "view",
			"type": "function"
		},
		{
			"inputs": [],
			"name": "renounceOwnership",
			"outputs": [],
			"stateMutability": "nonpayable",
			"type": "function"
		},
		{
			"inputs": [
				{
					"internalType": "address",
					"name": "from",
					"type": "address"
				},
				{
					"internalType": "address",
					"name": "to",
					"type": "address"
				},
				{
					"internalType": "uint256",
					"name": "tokenId",
					"type": "uint256"
				}
			],
			"name": "safeTransferFrom",
			"outputs": [],
			"stateMutability": "nonpayable",
			"type": "function"
		},
		{
			"inputs": [
				{
					"internalType": "address",
					"name": "from",
					"type": "address"
				},
				{
					"internalType": "address",
					"name": "to",
					"type": "address"
				},
				{
					"internalType": "uint256",
					"name": "tokenId",
					"type": "uint256"
				},
				{
					"internalType": "bytes",
					"name": "data",
					"type": "bytes"
				}
			],
			"name": "safeTransferFrom",
			"outputs": [],
			"stateMutability": "nonpayable",
			"type": "function"
		},
		{
			"inputs": [
				{
					"internalType": "address",
					"name": "operator",
					"type": "address"
				},
				{
					"internalType": "bool",
					"name": "approved",
					"type": "bool"
				}
			],
			"name": "setApprovalForAll",
			"outputs": [],
			"stateMutability": "nonpayable",
			"type": "function"
		},
		{
			"inputs": [
				{
					"internalType": "string",
					"name": "_dataURI",
					"type": "string"
				}
			],
			"name": "setDataURI",
			"outputs": [],
			"stateMutability": "nonpayable",
			"type": "function"
		},
		{
			"inputs": [
				{
					"internalType": "string",
					"name": "_imgEx",
					"type": "string"
				}
			],
			"name": "setImageExtension",
			"outputs": [],
			"stateMutability": "nonpayable",
			"type": "function"
		},
		{
			"inputs": [
				{
					"internalType": "string",
					"name": "_metaDec",
					"type": "string"
				}
			],
			"name": "setMetaDescription",
			"outputs": [],
			"stateMutability": "nonpayable",
			"type": "function"
		},
		{
			"inputs": [
				{
					"internalType": "string",
					"name": "_tokenURI",
					"type": "string"
				}
			],
			"name": "setTokenURI",
			"outputs": [],
			"stateMutability": "nonpayable",
			"type": "function"
		},
		{
			"inputs": [
				{
					"internalType": "bytes4",
					"name": "interfaceId",
					"type": "bytes4"
				}
			],
			"name": "supportsInterface",
			"outputs": [
				{
					"internalType": "bool",
					"name": "",
					"type": "bool"
				}
			],
			"stateMutability": "view",
			"type": "function"
		},
		{
			"inputs": [],
			"name": "symbol",
			"outputs": [
				{
					"internalType": "string",
					"name": "",
					"type": "string"
				}
			],
			"stateMutability": "view",
			"type": "function"
		},
		{
			"inputs": [
				{
					"internalType": "uint256",
					"name": "tokenId",
					"type": "uint256"
				}
			],
			"name": "tokenURI",
			"outputs": [
				{
					"internalType": "string",
					"name": "",
					"type": "string"
				}
			],
			"stateMutability": "view",
			"type": "function"
		},
		{
			"inputs": [
				{
					"internalType": "address",
					"name": "from",
					"type": "address"
				},
				{
					"internalType": "address",
					"name": "to",
					"type": "address"
				},
				{
					"internalType": "uint256",
					"name": "tokenId",
					"type": "uint256"
				}
			],
			"name": "transferFrom",
			"outputs": [],
			"stateMutability": "nonpayable",
			"type": "function"
		},
		{
			"inputs": [
				{
					"internalType": "address",
					"name": "newOwner",
					"type": "address"
				}
			],
			"name": "transferOwnership",
			"outputs": [],
			"stateMutability": "nonpayable",
			"type": "function"
		}
	]
}