{
	"data": {
		"bytecode": {
			"linkReferences": {},
			"object": "608060405234801561000f575f80fd5b5060405161532a38038061532a83398181016040528101906100319190610361565b828282828282828282815f908161004891906105f6565b50806001908161005891906105f6565b5050505f73ffffffffffffffffffffffffffffffffffffffff168173ffffffffffffffffffffffffffffffffffffffff16036100cb575f6040517f1e4fbdf70000000000000000000000000000000000000000000000000000000081526004016100c291906106d4565b60405180910390fd5b6100da816100f760201b60201c565b505f600d819055505f600c819055505050505050505050506106ed565b5f60075f9054906101000a900473ffffffffffffffffffffffffffffffffffffffff1690508160075f6101000a81548173ffffffffffffffffffffffffffffffffffffffff021916908373ffffffffffffffffffffffffffffffffffffffff1602179055508173ffffffffffffffffffffffffffffffffffffffff168173ffffffffffffffffffffffffffffffffffffffff167f8be0079c531659141344cd1fd0a4f28419497f9722a3daafe3b4186f6b6457e060405160405180910390a35050565b5f604051905090565b5f80fd5b5f80fd5b5f73ffffffffffffffffffffffffffffffffffffffff82169050919050565b5f6101f4826101cb565b9050919050565b610204816101ea565b811461020e575f80fd5b50565b5f8151905061021f816101fb565b92915050565b5f80fd5b5f80fd5b5f601f19601f8301169050919050565b7f4e487b71000000000000000000000000000000000000000000000000000000005f52604160045260245ffd5b6102738261022d565b810181811067ffffffffffffffff821117156102925761029161023d565b5b80604052505050565b5f6102a46101ba565b90506102b0828261026a565b919050565b5f67ffffffffffffffff8211156102cf576102ce61023d565b5b6102d88261022d565b9050602081019050919050565b8281835e5f83830152505050565b5f610305610300846102b5565b61029b565b90508281526020810184848401111561032157610320610229565b5b61032c8482856102e5565b509392505050565b5f82601f83011261034857610347610225565b5b81516103588482602086016102f3565b91505092915050565b5f805f60608486031215610378576103776101c3565b5b5f61038586828701610211565b935050602084015167ffffffffffffffff8111156103a6576103a56101c7565b5b6103b286828701610334565b925050604084015167ffffffffffffffff8111156103d3576103d26101c7565b5b6103df86828701610334565b9150509250925092565b5f81519050919050565b7f4e487b71000000000000000000000000000000000000000000000000000000005f52602260045260245ffd5b5f600282049050600182168061043757607f821691505b60208210810361044a576104496103f3565b5b50919050565b5f819050815f5260205f209050919050565b5f6020601f8301049050919050565b5f82821b905092915050565b5f600883026104ac7fffffffffffffffffffffffffffffffffffffffffffffffffffffffffffffffff82610471565b6104b68683610471565b95508019841693508086168417925050509392505050565b5f819050919050565b5f819050919050565b5f6104fa6104f56104f0846104ce565b6104d7565b6104ce565b9050919050565b5f819050919050565b610513836104e0565b61052761051f82610501565b84845461047d565b825550505050565b5f90565b61053b61052f565b61054681848461050a565b505050565b5b818110156105695761055e5f82610533565b60018101905061054c565b5050565b601f8211156105ae5761057f81610450565b61058884610462565b81016020851015610597578190505b6105ab6105a385610462565b83018261054b565b50505b505050565b5f82821c905092915050565b5f6105ce5f19846008026105b3565b1980831691505092915050565b5f6105e683836105bf565b9150826002028217905092915050565b6105ff826103e9565b67ffffffffffffffff8111156106185761061761023d565b5b6106228254610420565b61062d82828561056d565b5f60209050601f83116001811461065e575f841561064c578287015190505b61065685826105db565b8655506106bd565b601f19841661066c86610450565b5f5b828110156106935784890151825560018201915060208501945060208101905061066e565b868310156106b057848901516106ac601f8916826105bf565b8355505b6001600288020188555050505b505050505050565b6106ce816101ea565b82525050565b5f6020820190506106e75f8301846106c5565b92915050565b614c30806106fa5f395ff3fe608060405234801561000f575f80fd5b5060043610610219575f3560e01c80638da5cb5b11610123578063c87b56dd116100ab578063e985e9c51161007a578063e985e9c51461064a578063edeb4bbe1461067a578063f119f56714610698578063f28ca1dd146106b4578063f2fde38b146106d257610219565b8063c87b56dd146105ab578063d547cfb7146105db578063e0df5b6f146105f9578063e4b50cb81461061557610219565b806399683c22116100f257806399683c22146104f6578063a22cb46514610526578063b564ea8614610542578063b88d4fde14610573578063bd9ba9e81461058f57610219565b80638da5cb5b1461046c57806392f2ff801461048a57806395d89b41146104ba5780639659867e146104d857610219565b806330adc1cb116101a6578063616c0c4811610175578063616c0c48146103b55780636352211e146103e657806370a0823114610416578063715018a61461044657806372ec6c031461045057610219565b806330adc1cb1461034557806339e3aa7e146103615780633ffc03661461037d57806342842e0e1461039957610219565b8063095ea7b3116101ed578063095ea7b3146102b75780630cf935f7146102d357806318d217c3146102f15780631bc80eff1461030d57806323b872dd1461032957610219565b8062e000641461021d57806301ffc9a71461023957806306fdde0314610269578063081812fc14610287575b5f80fd5b61023760048036038101906102329190613426565b6106ee565b005b610253600480360381019061024e91906134a6565b6108e9565b60405161026091906134eb565b60405180910390f35b6102716108fa565b60405161027e9190613574565b60405180910390f35b6102a1600480360381019061029c9190613426565b610989565b6040516102ae91906135d3565b60405180910390f35b6102d160048036038101906102cc9190613616565b6109a4565b005b6102db6109ba565b6040516102e891906134eb565b60405180910390f35b61030b600480360381019061030691906136b5565b6109cc565b005b61032760048036038101906103229190613426565b6109ea565b005b610343600480360381019061033e9190613700565b610bff565b005b61035f600480360381019061035a919061377a565b610cfe565b005b61037b600480360381019061037691906136b5565b610d22565b005b610397600480360381019061039291906137a5565b610d40565b005b6103b360048036038101906103ae9190613700565b610d6d565b005b6103cf60048036038101906103ca9190613426565b610d8c565b6040516103dd929190613811565b60405180910390f35b61040060048036038101906103fb9190613426565b610dc0565b60405161040d91906135d3565b60405180910390f35b610430600480360381019061042b9190613838565b610dd1565b60405161043d9190613863565b60405180910390f35b61044e610e87565b005b61046a600480360381019061046591906137a5565b610e9a565b005b610474610f16565b60405161048191906135d3565b60405180910390f35b6104a4600480360381019061049f9190613838565b610f3e565b6040516104b19190613933565b60405180910390f35b6104c261102c565b6040516104cf9190613574565b60405180910390f35b6104e06110bc565b6040516104ed9190613863565b60405180910390f35b610510600480360381019061050b9190613953565b6110c2565b60405161051d9190613863565b60405180910390f35b610540600480360381019061053b91906139c4565b6112c0565b005b61055c60048036038101906105579190613426565b6112d6565b60405161056a929190613a75565b60405180910390f35b61058d60048036038101906105889190613bc4565b6113fc565b005b6105a960048036038101906105a491906136b5565b611419565b005b6105c560048036038101906105c09190613426565b611437565b6040516105d29190613574565b60405180910390f35b6105e36118a7565b6040516105f09190613574565b60405180910390f35b610613600480360381019061060e91906136b5565b611933565b005b61062f600480360381019061062a9190613426565b611951565b60405161064196959493929190613c44565b60405180910390f35b610664600480360381019061065f9190613caa565b611a28565b60405161067191906134eb565b60405180910390f35b610682611ab6565b60405161068f9190613574565b60405180910390f35b6106b260048036038101906106ad9190613426565b611b42565b005b6106bc611ece565b6040516106c99190613574565b60405180910390f35b6106ec60048036038101906106e79190613838565b611f5a565b005b3373ffffffffffffffffffffffffffffffffffffffff1661070e82610dc0565b73ffffffffffffffffffffffffffffffffffffffff1614610764576040517f08c379a000000000000000000000000000000000000000000000000000000000815260040161075b90613d32565b60405180910390fd5b5f60095f8381526020019081526020015f205f9054906101000a900460ff1690505f600a5f8481526020019081526020015f2090505f4290505f60038111156107b0576107af613a02565b5b8360038111156107c3576107c2613a02565b5b036107e4576107d881835f0154612a30611fde565b825f01819055506108b5565b600160038111156107f8576107f7613a02565b5b83600381111561080b5761080a613a02565b5b0361082e57610821818360010154612a30611fde565b82600101819055506108b4565b6002600381111561084257610841613a02565b5b83600381111561085557610854613a02565b5b036108785761086b818360020154612a30611fde565b82600201819055506108b3565b6040517f08c379a00000000000000000000000000000000000000000000000000000000081526004016108aa90613d9a565b60405180910390fd5b5b5b80847f21eeee734b533a3b3a112f894043a967ba558d457ef10b84aa8d9025690f600460405160405180910390a350505050565b5f6108f38261200d565b9050919050565b60605f805461090890613de5565b80601f016020809104026020016040519081016040528092919081815260200182805461093490613de5565b801561097f5780601f106109565761010080835404028352916020019161097f565b820191905f5260205f20905b81548152906001019060200180831161096257829003601f168201915b5050505050905090565b5f6109938261206d565b5061099d826120f3565b9050919050565b6109b682826109b161212c565b612133565b5050565b60145f9054906101000a900460ff1681565b6109d4612145565b8181600f91826109e5929190613fbc565b505050565b6109f2612145565b5f60095f8381526020019081526020015f205f9054906101000a900460ff1690505f6003811115610a2657610a25613a02565b5b816003811115610a3957610a38613a02565b5b03610ac357600160095f8481526020019081526020015f205f6101000a81548160ff02191690836003811115610a7257610a71613a02565b5b0217905550610a7f6121cc565b60085f8481526020019081526020015f20600101819055506202a30042610aa691906140b6565b600a5f8481526020019081526020015f2060010181905550610bfb565b60016003811115610ad757610ad6613a02565b5b816003811115610aea57610ae9613a02565b5b03610b5457600260095f8481526020019081526020015f205f6101000a81548160ff02191690836003811115610b2357610b22613a02565b5b02179055506203f48042610b3791906140b6565b600a5f8481526020019081526020015f2060020181905550610bfa565b60026003811115610b6857610b67613a02565b5b816003811115610b7b57610b7a613a02565b5b03610bbe57600360095f8481526020019081526020015f205f6101000a81548160ff02191690836003811115610bb457610bb3613a02565b5b0217905550610bf9565b6040517f08c379a0000000000000000000000000000000000000000000000000000000008152600401610bf090614133565b60405180910390fd5b5b5b5050565b5f73ffffffffffffffffffffffffffffffffffffffff168273ffffffffffffffffffffffffffffffffffffffff1603610c6f575f6040517f64a0ae92000000000000000000000000000000000000000000000000000000008152600401610c6691906135d3565b60405180910390fd5b5f610c828383610c7d61212c565b612230565b90508373ffffffffffffffffffffffffffffffffffffffff168173ffffffffffffffffffffffffffffffffffffffff1614610cf8578382826040517f64283d7b000000000000000000000000000000000000000000000000000000008152600401610cef93929190614151565b60405180910390fd5b50505050565b610d06612145565b8060145f6101000a81548160ff02191690831515021790555050565b610d2a612145565b818160119182610d3b929190613fbc565b505050565b60135f815480929190610d5290614186565b9190505550610d6782825f806001885f61243b565b50505050565b610d8783838360405180602001604052805f8152506113fc565b505050565b5f8060125f8481526020019081526020015f205f0154915060125f8481526020019081526020015f20600101549050915091565b5f610dca8261206d565b9050919050565b5f8073ffffffffffffffffffffffffffffffffffffffff168273ffffffffffffffffffffffffffffffffffffffff1603610e42575f6040517f89c62b64000000000000000000000000000000000000000000000000000000008152600401610e3991906135d3565b60405180910390fd5b60035f8373ffffffffffffffffffffffffffffffffffffffff1673ffffffffffffffffffffffffffffffffffffffff1681526020019081526020015f20549050919050565b610e8f612145565b610e985f612660565b565b60145f9054906101000a900460ff16610ee8576040517f08c379a0000000000000000000000000000000000000000000000000000000008152600401610edf90614217565b60405180910390fd5b60135f815480929190610efa90614186565b9190505550610f1082825f80600188600161243b565b50505050565b5f60075f9054906101000a900473ffffffffffffffffffffffffffffffffffffffff16905090565b60605f600c5490505f808267ffffffffffffffff811115610f6257610f61613aa0565b5b604051908082528060200260200182016040528015610f905781602001602082028036833780820191505090505b5090505f600190505b83811161101d578573ffffffffffffffffffffffffffffffffffffffff16610fc082610dc0565b73ffffffffffffffffffffffffffffffffffffffff160361100a5780828481518110610fef57610fee614235565b5b602002602001018181525050828061100690614186565b9350505b808061101590614186565b915050610f99565b50818152809350505050919050565b60606001805461103b90613de5565b80601f016020809104026020016040519081016040528092919081815260200182805461106790613de5565b80156110b25780601f10611089576101008083540402835291602001916110b2565b820191905f5260205f20905b81548152906001019060200180831161109557829003601f168201915b5050505050905090565b60135481565b5f3373ffffffffffffffffffffffffffffffffffffffff166110e384610dc0565b73ffffffffffffffffffffffffffffffffffffffff1614801561113957503373ffffffffffffffffffffffffffffffffffffffff1661112183610dc0565b73ffffffffffffffffffffffffffffffffffffffff16145b611178576040517f08c379a000000000000000000000000000000000000000000000000000000000815260040161116f90613d32565b60405180910390fd5b6111828383612723565b156111c2576040517f08c379a00000000000000000000000000000000000000000000000000000000081526004016111b9906142ac565b60405180910390fd5b6111cb83612795565b80156111dc57506111db82612795565b5b61121b576040517f08c379a000000000000000000000000000000000000000000000000000000000815260040161121290614314565b60405180910390fd5b61122583836127b3565b611264576040517f08c379a000000000000000000000000000000000000000000000000000000000815260040161125b9061437c565b60405180910390fd5b61126d836127f2565b611276826127f2565b5f61128386868686612844565b90508083857f57f2b9f5c840c33473a81f7a678b3b71541515153fe9c4ccb4d909c5ca3f7d4460405160405180910390a480915050949350505050565b6112d26112cb61212c565b83836128bc565b5050565b5f8060095f8481526020019081526020015f205f9054906101000a900460ff1691505f4290505f8060038111156113105761130f613a02565b5b84600381111561132357611322613a02565b5b0361134357600a5f8681526020019081526020015f205f015490506113d9565b6001600381111561135757611356613a02565b5b84600381111561136a57611369613a02565b5b0361138b57600a5f8681526020019081526020015f206001015490506113d8565b6002600381111561139f5761139e613a02565b5b8460038111156113b2576113b1613a02565b5b036113d357600a5f8681526020019081526020015f206002015490506113d7565b5f90505b5b5b8181116113e6575f6113f3565b81816113f2919061439a565b5b92505050915091565b611407848484610bff565b61141384848484612a25565b50505050565b611421612145565b818160109182611432929190613fbc565b505050565b60605f600e805461144790613de5565b9050111561148157600e61145a83612bd7565b60405160200161146b929190614487565b60405160208183030381529060405290506118a2565b60605f600381111561149657611495613a02565b5b60095f8581526020019081526020015f205f9054906101000a900460ff1660038111156114c6576114c5613a02565b5b036115045760085f8481526020019081526020015f205f016040516020016114ee91906144f4565b604051602081830303815290604052905061185a565b606060085f8581526020019081526020015f206005015f9054906101000a900460ff16156115c157600160085f8681526020019081526020015f206004015414611583576040518060400160405280600181526020017f62000000000000000000000000000000000000000000000000000000000000008152506115ba565b6040518060400160405280600181526020017f67000000000000000000000000000000000000000000000000000000000000008152505b90506115fa565b6040518060400160405280600181526020017f6e0000000000000000000000000000000000000000000000000000000000000081525090505b5f600160085f8781526020019081526020015f206001015414611652576040518060400160405280600181526020017f6600000000000000000000000000000000000000000000000000000000000000815250611689565b6040518060400160405280600181526020017f6d000000000000000000000000000000000000000000000000000000000000008152505b90506060600160038111156116a1576116a0613a02565b5b60095f8881526020019081526020015f205f9054906101000a900460ff1660038111156116d1576116d0613a02565b5b03611713576040518060400160405280600581526020017f6861746368000000000000000000000000000000000000000000000000000000815250905061181c565b6002600381111561172757611726613a02565b5b60095f8881526020019081526020015f205f9054906101000a900460ff16600381111561175757611756613a02565b5b03611799576040518060400160405280600981526020017f68617463686c696e670000000000000000000000000000000000000000000000815250905061181b565b6003808111156117ac576117ab613a02565b5b60095f8881526020019081526020015f205f9054906101000a900460ff1660038111156117dc576117db613a02565b5b0361181a576040518060400160405280600581526020017f6164756c7400000000000000000000000000000000000000000000000000000081525090505b5b5b60085f8781526020019081526020015f205f01838383604051602001611845949392919061455f565b60405160208183030381529060405293505050505b61186383612bd7565b600f82601160085f8881526020019081526020015f205f0160405160200161188f95949392919061477d565b6040516020818303038152906040529150505b919050565b600e80546118b490613de5565b80601f01602080910402602001604051908101604052809291908181526020018280546118e090613de5565b801561192b5780601f106119025761010080835404028352916020019161192b565b820191905f5260205f20905b81548152906001019060200180831161190e57829003601f168201915b505050505081565b61193b612145565b8181600e918261194c929190613fbc565b505050565b5f805f805f60605f60085f8981526020019081526020015f20905080600101548160020154826003015483600401548460060154855f0180805461199490613de5565b80601f01602080910402602001604051908101604052809291908181526020018280546119c090613de5565b8015611a0b5780601f106119e257610100808354040283529160200191611a0b565b820191905f5260205f20905b8154815290600101906020018083116119ee57829003601f168201915b505050505090509650965096509650965096505091939550919395565b5f60055f8473ffffffffffffffffffffffffffffffffffffffff1673ffffffffffffffffffffffffffffffffffffffff1681526020019081526020015f205f8373ffffffffffffffffffffffffffffffffffffffff1673ffffffffffffffffffffffffffffffffffffffff1681526020019081526020015f205f9054906101000a900460ff16905092915050565b60108054611ac390613de5565b80601f0160208091040260200160405190810160405280929190818152602001828054611aef90613de5565b8015611b3a5780601f10611b1157610100808354040283529160200191611b3a565b820191905f5260205f20905b815481529060010190602001808311611b1d57829003601f168201915b505050505081565b3373ffffffffffffffffffffffffffffffffffffffff16611b6282610dc0565b73ffffffffffffffffffffffffffffffffffffffff1614611bb8576040517f08c379a0000000000000000000000000000000000000000000000000000000008152600401611baf90613d32565b60405180910390fd5b5f60095f8381526020019081526020015f205f9054906101000a900460ff1690505f4290505f6003811115611bf057611bef613a02565b5b826003811115611c0357611c02613a02565b5b148015611c235750600a5f8481526020019081526020015f205f01548110155b15611ce357600160095f8581526020019081526020015f205f6101000a81548160ff02191690836003811115611c5c57611c5b613a02565b5b0217905550611c696121cc565b60085f8581526020019081526020015f20600101819055506202a30081611c9091906140b6565b600a5f8581526020019081526020015f2060010181905550827f75d0c2d3465e305d01011d67a4faaa50f6c6b307e33d72194a4ba97acce86975604051611cd69061483d565b60405180910390a2611ec9565b60016003811115611cf757611cf6613a02565b5b826003811115611d0a57611d09613a02565b5b148015611d2b5750600a5f8481526020019081526020015f20600101548110155b15611dcb57600260095f8581526020019081526020015f205f6101000a81548160ff02191690836003811115611d6457611d63613a02565b5b02179055506203f48081611d7891906140b6565b600a5f8581526020019081526020015f2060020181905550827f75d0c2d3465e305d01011d67a4faaa50f6c6b307e33d72194a4ba97acce86975604051611dbe906148a5565b60405180910390a2611ec8565b60026003811115611ddf57611dde613a02565b5b826003811115611df257611df1613a02565b5b148015611e135750600a5f8481526020019081526020015f20600201548110155b15611e8c57600360095f8581526020019081526020015f205f6101000a81548160ff02191690836003811115611e4c57611e4b613a02565b5b0217905550827f75d0c2d3465e305d01011d67a4faaa50f6c6b307e33d72194a4ba97acce86975604051611e7f9061490d565b60405180910390a2611ec7565b6040517f08c379a0000000000000000000000000000000000000000000000000000000008152600401611ebe90614133565b60405180910390fd5b5b5b505050565b600f8054611edb90613de5565b80601f0160208091040260200160405190810160405280929190818152602001828054611f0790613de5565b8015611f525780601f10611f2957610100808354040283529160200191611f52565b820191905f5260205f20905b815481529060010190602001808311611f3557829003601f168201915b505050505081565b611f62612145565b5f73ffffffffffffffffffffffffffffffffffffffff168173ffffffffffffffffffffffffffffffffffffffff1603611fd2575f6040517f1e4fbdf7000000000000000000000000000000000000000000000000000000008152600401611fc991906135d3565b60405180910390fd5b611fdb81612660565b50565b5f8184611feb91906140b6565b8311611ff75783612004565b8183612003919061439a565b5b90509392505050565b5f634906490660e01b7bffffffffffffffffffffffffffffffffffffffffffffffffffffffff1916827bffffffffffffffffffffffffffffffffffffffffffffffffffffffff19161480612066575061206582612ca1565b5b9050919050565b5f8061207883612d82565b90505f73ffffffffffffffffffffffffffffffffffffffff168173ffffffffffffffffffffffffffffffffffffffff16036120ea57826040517f7e2732890000000000000000000000000000000000000000000000000000000081526004016120e19190613863565b60405180910390fd5b80915050919050565b5f60045f8381526020019081526020015f205f9054906101000a900473ffffffffffffffffffffffffffffffffffffffff169050919050565b5f33905090565b6121408383836001612dbb565b505050565b61214d61212c565b73ffffffffffffffffffffffffffffffffffffffff1661216b610f16565b73ffffffffffffffffffffffffffffffffffffffff16146121ca5761218e61212c565b6040517f118cdaa70000000000000000000000000000000000000000000000000000000081526004016121c191906135d3565b60405180910390fd5b565b5f600d5f8154809291906121df90614186565b9190505550600160024233600d546040516020016121ff93929190614990565b604051602081830303815290604052805190602001205f1c61222191906149f9565b61222b91906140b6565b905090565b5f8061223b84612d82565b90505f73ffffffffffffffffffffffffffffffffffffffff168373ffffffffffffffffffffffffffffffffffffffff161461227c5761227b818486612f7a565b5b5f73ffffffffffffffffffffffffffffffffffffffff168173ffffffffffffffffffffffffffffffffffffffff1614612307576122bb5f855f80612dbb565b600160035f8373ffffffffffffffffffffffffffffffffffffffff1673ffffffffffffffffffffffffffffffffffffffff1681526020019081526020015f205f82825403925050819055505b5f73ffffffffffffffffffffffffffffffffffffffff168573ffffffffffffffffffffffffffffffffffffffff161461238657600160035f8773ffffffffffffffffffffffffffffffffffffffff1673ffffffffffffffffffffffffffffffffffffffff1681526020019081526020015f205f82825401925050819055505b8460025f8681526020019081526020015f205f6101000a81548173ffffffffffffffffffffffffffffffffffffffff021916908373ffffffffffffffffffffffffffffffffffffffff160217905550838573ffffffffffffffffffffffffffffffffffffffff168273ffffffffffffffffffffffffffffffffffffffff167fddf252ad1be2c89b69c2b068fc378daa952ba7f163c4a11628f55a4df523b3ef60405160405180910390a4809150509392505050565b5f80600c5f815461244b90614186565b91905081905590506040518060e001604052808a8a8080601f0160208091040260200160405190810160405280939291908181526020018383808284375f81840152601f19601f8201169050808301925050505050505081526020015f815260200188815260200187815260200186815260200184151581526020014281525060085f8381526020019081526020015f205f820151815f0190816124ef9190614a29565b506020820151816001015560408201518160020155606082015181600301556080820151816004015560a0820151816005015f6101000a81548160ff02191690831515021790555060c082015181600601559050506202a3004261255391906140b6565b600a5f8381526020019081526020015f205f01819055505f60095f8381526020019081526020015f205f6101000a81548160ff0219169083600381111561259d5761259c613a02565b5b02179055506125ac848261303d565b600b5f8573ffffffffffffffffffffffffffffffffffffffff1673ffffffffffffffffffffffffffffffffffffffff1681526020019081526020015f2081908060018154018082558091505060019003905f5260205f20015f9091909190915055808473ffffffffffffffffffffffffffffffffffffffff167fb9144c96c86541f6fa89c9f2f02495cccf4b08cd6643e26d34ee00aa586558a860405160405180910390a380915050979650505050505050565b5f60075f9054906101000a900473ffffffffffffffffffffffffffffffffffffffff1690508160075f6101000a81548173ffffffffffffffffffffffffffffffffffffffff021916908373ffffffffffffffffffffffffffffffffffffffff1602179055508173ffffffffffffffffffffffffffffffffffffffff168173ffffffffffffffffffffffffffffffffffffffff167f8be0079c531659141344cd1fd0a4f28419497f9722a3daafe3b4186f6b6457e060405160405180910390a35050565b5f8060085f8581526020019081526020015f2090505f60085f8581526020019081526020015f209050600182600401541480612763575060018160040154145b61278957806002015482600201541480612784575080600301548260030154145b61278b565b5f5b9250505092915050565b5f4260125f8481526020019081526020015f205f0154109050919050565b5f8060085f8581526020019081526020015f2090505f60085f8581526020019081526020015f2090508060010154826001015414159250505092915050565b60125f8281526020019081526020015f206001015f81548092919061281690614186565b91905055506203f4804261282a91906140b6565b60125f8381526020019081526020015f205f018190555050565b5f8060085f8581526020019081526020015f2090505f60085f8581526020019081526020015f2090505f816004015483600401541161288757816004015461288d565b82600401545b90505f6128ab898989896001876128a491906140b6565b335f61243b565b905080945050505050949350505050565b5f73ffffffffffffffffffffffffffffffffffffffff168273ffffffffffffffffffffffffffffffffffffffff160361292c57816040517f5b08ba1800000000000000000000000000000000000000000000000000000000815260040161292391906135d3565b60405180910390fd5b8060055f8573ffffffffffffffffffffffffffffffffffffffff1673ffffffffffffffffffffffffffffffffffffffff1681526020019081526020015f205f8473ffffffffffffffffffffffffffffffffffffffff1673ffffffffffffffffffffffffffffffffffffffff1681526020019081526020015f205f6101000a81548160ff0219169083151502179055508173ffffffffffffffffffffffffffffffffffffffff168373ffffffffffffffffffffffffffffffffffffffff167f17307eab39ab6107e8899845ad3d59bd9653f200f220920489ca2b5937696c3183604051612a1891906134eb565b60405180910390a3505050565b5f8373ffffffffffffffffffffffffffffffffffffffff163b1115612bd1578273ffffffffffffffffffffffffffffffffffffffff1663150b7a02612a6861212c565b8685856040518563ffffffff1660e01b8152600401612a8a9493929190614b4a565b6020604051808303815f875af1925050508015612ac557506040513d601f19601f82011682018060405250810190612ac29190614ba8565b60015b612b46573d805f8114612af3576040519150601f19603f3d011682016040523d82523d5f602084013e612af8565b606091505b505f815103612b3e57836040517f64a0ae92000000000000000000000000000000000000000000000000000000008152600401612b3591906135d3565b60405180910390fd5b805181602001fd5b63150b7a0260e01b7bffffffffffffffffffffffffffffffffffffffffffffffffffffffff1916817bffffffffffffffffffffffffffffffffffffffffffffffffffffffff191614612bcf57836040517f64a0ae92000000000000000000000000000000000000000000000000000000008152600401612bc691906135d3565b60405180910390fd5b505b50505050565b60605f6001612be58461305a565b0190505f8167ffffffffffffffff811115612c0357612c02613aa0565b5b6040519080825280601f01601f191660200182016040528015612c355781602001600182028036833780820191505090505b5090505f82602001820190505b600115612c96578080600190039150507f3031323334353637383961626364656600000000000000000000000000000000600a86061a8153600a8581612c8b57612c8a6149cc565b5b0494505f8503612c42575b819350505050919050565b5f7f80ac58cd000000000000000000000000000000000000000000000000000000007bffffffffffffffffffffffffffffffffffffffffffffffffffffffff1916827bffffffffffffffffffffffffffffffffffffffffffffffffffffffff19161480612d6b57507f5b5e139f000000000000000000000000000000000000000000000000000000007bffffffffffffffffffffffffffffffffffffffffffffffffffffffff1916827bffffffffffffffffffffffffffffffffffffffffffffffffffffffff1916145b80612d7b5750612d7a826131ab565b5b9050919050565b5f60025f8381526020019081526020015f205f9054906101000a900473ffffffffffffffffffffffffffffffffffffffff169050919050565b8080612df357505f73ffffffffffffffffffffffffffffffffffffffff168273ffffffffffffffffffffffffffffffffffffffff1614155b15612f25575f612e028461206d565b90505f73ffffffffffffffffffffffffffffffffffffffff168373ffffffffffffffffffffffffffffffffffffffff1614158015612e6c57508273ffffffffffffffffffffffffffffffffffffffff168173ffffffffffffffffffffffffffffffffffffffff1614155b8015612e7f5750612e7d8184611a28565b155b15612ec157826040517fa9fbf51f000000000000000000000000000000000000000000000000000000008152600401612eb891906135d3565b60405180910390fd5b8115612f2357838573ffffffffffffffffffffffffffffffffffffffff168273ffffffffffffffffffffffffffffffffffffffff167f8c5be1e5ebec7d5bd14f71427d1e84f3dd0314c0f7b2291e5b200ac8c7c3b92560405160405180910390a45b505b8360045f8581526020019081526020015f205f6101000a81548173ffffffffffffffffffffffffffffffffffffffff021916908373ffffffffffffffffffffffffffffffffffffffff16021790555050505050565b612f85838383613214565b613038575f73ffffffffffffffffffffffffffffffffffffffff168373ffffffffffffffffffffffffffffffffffffffff1603612ff957806040517f7e273289000000000000000000000000000000000000000000000000000000008152600401612ff09190613863565b60405180910390fd5b81816040517f177e802f00000000000000000000000000000000000000000000000000000000815260040161302f929190614bd3565b60405180910390fd5b505050565b613056828260405180602001604052805f8152506132d4565b5050565b5f805f90507a184f03e93ff9f4daa797ed6e38ed64bf6a1f01000000000000000083106130b6577a184f03e93ff9f4daa797ed6e38ed64bf6a1f01000000000000000083816130ac576130ab6149cc565b5b0492506040810190505b6d04ee2d6d415b85acef810000000083106130f3576d04ee2d6d415b85acef810000000083816130e9576130e86149cc565b5b0492506020810190505b662386f26fc10000831061312257662386f26fc100008381613118576131176149cc565b5b0492506010810190505b6305f5e100831061314b576305f5e1008381613141576131406149cc565b5b0492506008810190505b6127108310613170576127108381613166576131656149cc565b5b0492506004810190505b606483106131935760648381613189576131886149cc565b5b0492506002810190505b600a83106131a2576001810190505b80915050919050565b5f7f01ffc9a7000000000000000000000000000000000000000000000000000000007bffffffffffffffffffffffffffffffffffffffffffffffffffffffff1916827bffffffffffffffffffffffffffffffffffffffffffffffffffffffff1916149050919050565b5f8073ffffffffffffffffffffffffffffffffffffffff168373ffffffffffffffffffffffffffffffffffffffff16141580156132cb57508273ffffffffffffffffffffffffffffffffffffffff168473ffffffffffffffffffffffffffffffffffffffff16148061328c575061328b8484611a28565b5b806132ca57508273ffffffffffffffffffffffffffffffffffffffff166132b2836120f3565b73ffffffffffffffffffffffffffffffffffffffff16145b5b90509392505050565b6132de83836132ef565b6132ea5f848484612a25565b505050565b5f73ffffffffffffffffffffffffffffffffffffffff168273ffffffffffffffffffffffffffffffffffffffff160361335f575f6040517f64a0ae9200000000000000000000000000000000000000000000000000000000815260040161335691906135d3565b60405180910390fd5b5f61336b83835f612230565b90505f73ffffffffffffffffffffffffffffffffffffffff168173ffffffffffffffffffffffffffffffffffffffff16146133dd575f6040517f73c6ac6e0000000000000000000000000000000000000000000000000000000081526004016133d491906135d3565b60405180910390fd5b505050565b5f604051905090565b5f80fd5b5f80fd5b5f819050919050565b613405816133f3565b811461340f575f80fd5b50565b5f81359050613420816133fc565b92915050565b5f6020828403121561343b5761343a6133eb565b5b5f61344884828501613412565b91505092915050565b5f7fffffffff0000000000000000000000000000000000000000000000000000000082169050919050565b61348581613451565b811461348f575f80fd5b50565b5f813590506134a08161347c565b92915050565b5f602082840312156134bb576134ba6133eb565b5b5f6134c884828501613492565b91505092915050565b5f8115159050919050565b6134e5816134d1565b82525050565b5f6020820190506134fe5f8301846134dc565b92915050565b5f81519050919050565b5f82825260208201905092915050565b8281835e5f83830152505050565b5f601f19601f8301169050919050565b5f61354682613504565b613550818561350e565b935061356081856020860161351e565b6135698161352c565b840191505092915050565b5f6020820190508181035f83015261358c818461353c565b905092915050565b5f73ffffffffffffffffffffffffffffffffffffffff82169050919050565b5f6135bd82613594565b9050919050565b6135cd816135b3565b82525050565b5f6020820190506135e65f8301846135c4565b92915050565b6135f5816135b3565b81146135ff575f80fd5b50565b5f81359050613610816135ec565b92915050565b5f806040838503121561362c5761362b6133eb565b5b5f61363985828601613602565b925050602061364a85828601613412565b9150509250929050565b5f80fd5b5f80fd5b5f80fd5b5f8083601f84011261367557613674613654565b5b8235905067ffffffffffffffff81111561369257613691613658565b5b6020830191508360018202830111156136ae576136ad61365c565b5b9250929050565b5f80602083850312156136cb576136ca6133eb565b5b5f83013567ffffffffffffffff8111156136e8576136e76133ef565b5b6136f485828601613660565b92509250509250929050565b5f805f60608486031215613717576137166133eb565b5b5f61372486828701613602565b935050602061373586828701613602565b925050604061374686828701613412565b9150509250925092565b613759816134d1565b8114613763575f80fd5b50565b5f8135905061377481613750565b92915050565b5f6020828403121561378f5761378e6133eb565b5b5f61379c84828501613766565b91505092915050565b5f805f604084860312156137bc576137bb6133eb565b5b5f6137c986828701613602565b935050602084013567ffffffffffffffff8111156137ea576137e96133ef565b5b6137f686828701613660565b92509250509250925092565b61380b816133f3565b82525050565b5f6040820190506138245f830185613802565b6138316020830184613802565b9392505050565b5f6020828403121561384d5761384c6133eb565b5b5f61385a84828501613602565b91505092915050565b5f6020820190506138765f830184613802565b92915050565b5f81519050919050565b5f82825260208201905092915050565b5f819050602082019050919050565b6138ae816133f3565b82525050565b5f6138bf83836138a5565b60208301905092915050565b5f602082019050919050565b5f6138e18261387c565b6138eb8185613886565b93506138f683613896565b805f5b8381101561392657815161390d88826138b4565b9750613918836138cb565b9250506001810190506138f9565b5085935050505092915050565b5f6020820190508181035f83015261394b81846138d7565b905092915050565b5f805f806060858703121561396b5761396a6133eb565b5b5f85013567ffffffffffffffff811115613988576139876133ef565b5b61399487828801613660565b945094505060206139a787828801613412565b92505060406139b887828801613412565b91505092959194509250565b5f80604083850312156139da576139d96133eb565b5b5f6139e785828601613602565b92505060206139f885828601613766565b9150509250929050565b7f4e487b71000000000000000000000000000000000000000000000000000000005f52602160045260245ffd5b60048110613a4057613a3f613a02565b5b50565b5f819050613a5082613a2f565b919050565b5f613a5f82613a43565b9050919050565b613a6f81613a55565b82525050565b5f604082019050613a885f830185613a66565b613a956020830184613802565b9392505050565b5f80fd5b7f4e487b71000000000000000000000000000000000000000000000000000000005f52604160045260245ffd5b613ad68261352c565b810181811067ffffffffffffffff82111715613af557613af4613aa0565b5b80604052505050565b5f613b076133e2565b9050613b138282613acd565b919050565b5f67ffffffffffffffff821115613b3257613b31613aa0565b5b613b3b8261352c565b9050602081019050919050565b828183375f83830152505050565b5f613b68613b6384613b18565b613afe565b905082815260208101848484011115613b8457613b83613a9c565b5b613b8f848285613b48565b509392505050565b5f82601f830112613bab57613baa613654565b5b8135613bbb848260208601613b56565b91505092915050565b5f805f8060808587031215613bdc57613bdb6133eb565b5b5f613be987828801613602565b9450506020613bfa87828801613602565b9350506040613c0b87828801613412565b925050606085013567ffffffffffffffff811115613c2c57613c2b6133ef565b5b613c3887828801613b97565b91505092959194509250565b5f60c082019050613c575f830189613802565b613c646020830188613802565b613c716040830187613802565b613c7e6060830186613802565b613c8b6080830185613802565b81810360a0830152613c9d818461353c565b9050979650505050505050565b5f8060408385031215613cc057613cbf6133eb565b5b5f613ccd85828601613602565b9250506020613cde85828601613602565b9150509250929050565b7f4e6f74206f776e657200000000000000000000000000000000000000000000005f82015250565b5f613d1c60098361350e565b9150613d2782613ce8565b602082019050919050565b5f6020820190508181035f830152613d4981613d10565b9050919050565b7f496e76616c69642067726f7774682073746167650000000000000000000000005f82015250565b5f613d8460148361350e565b9150613d8f82613d50565b602082019050919050565b5f6020820190508181035f830152613db181613d78565b9050919050565b7f4e487b71000000000000000000000000000000000000000000000000000000005f52602260045260245ffd5b5f6002820490506001821680613dfc57607f821691505b602082108103613e0f57613e0e613db8565b5b50919050565b5f82905092915050565b5f819050815f5260205f209050919050565b5f6020601f8301049050919050565b5f82821b905092915050565b5f60088302613e7b7fffffffffffffffffffffffffffffffffffffffffffffffffffffffffffffffff82613e40565b613e858683613e40565b95508019841693508086168417925050509392505050565b5f819050919050565b5f613ec0613ebb613eb6846133f3565b613e9d565b6133f3565b9050919050565b5f819050919050565b613ed983613ea6565b613eed613ee582613ec7565b848454613e4c565b825550505050565b5f90565b613f01613ef5565b613f0c818484613ed0565b505050565b5b81811015613f2f57613f245f82613ef9565b600181019050613f12565b5050565b601f821115613f7457613f4581613e1f565b613f4e84613e31565b81016020851015613f5d578190505b613f71613f6985613e31565b830182613f11565b50505b505050565b5f82821c905092915050565b5f613f945f1984600802613f79565b1980831691505092915050565b5f613fac8383613f85565b9150826002028217905092915050565b613fc68383613e15565b67ffffffffffffffff811115613fdf57613fde613aa0565b5b613fe98254613de5565b613ff4828285613f33565b5f601f831160018114614021575f841561400f578287013590505b6140198582613fa1565b865550614080565b601f19841661402f86613e1f565b5f5b8281101561405657848901358255600182019150602085019450602081019050614031565b86831015614073578489013561406f601f891682613f85565b8355505b6001600288020188555050505b50505050505050565b7f4e487b71000000000000000000000000000000000000000000000000000000005f52601160045260245ffd5b5f6140c0826133f3565b91506140cb836133f3565b92508282019050808211156140e3576140e2614089565b5b92915050565b7f556e61626c6520746f2065766f6c7665000000000000000000000000000000005f82015250565b5f61411d60108361350e565b9150614128826140e9565b602082019050919050565b5f6020820190508181035f83015261414a81614111565b9050919050565b5f6060820190506141645f8301866135c4565b6141716020830185613802565b61417e60408301846135c4565b949350505050565b5f614190826133f3565b91507fffffffffffffffffffffffffffffffffffffffffffffffffffffffffffffffff82036141c2576141c1614089565b5b600182019050919050565b7f5072656d69756d206d696e74696e67206973206e6f7420656e61626c656400005f82015250565b5f614201601e8361350e565b915061420c826141cd565b602082019050919050565b5f6020820190508181035f83015261422e816141f5565b9050919050565b7f4e487b71000000000000000000000000000000000000000000000000000000005f52603260045260245ffd5b7f496e6365737400000000000000000000000000000000000000000000000000005f82015250565b5f61429660068361350e565b91506142a182614262565b602082019050919050565b5f6020820190508181035f8301526142c38161428a565b9050919050565b7f4272656564696e67206e6f7420616c6c6f7765642079657400000000000000005f82015250565b5f6142fe60188361350e565b9150614309826142ca565b602082019050919050565b5f6020820190508181035f83015261432b816142f2565b9050919050565b7f53616d652067656e6465720000000000000000000000000000000000000000005f82015250565b5f614366600b8361350e565b915061437182614332565b602082019050919050565b5f6020820190508181035f8301526143938161435a565b9050919050565b5f6143a4826133f3565b91506143af836133f3565b92508282039050818111156143c7576143c6614089565b5b92915050565b5f81905092915050565b5f81546143e381613de5565b6143ed81866143cd565b9450600182165f8114614407576001811461441c5761444e565b60ff198316865281151582028601935061444e565b61442585613e1f565b5f5b8381101561444657815481890152600182019150602081019050614427565b838801955050505b50505092915050565b5f61446182613504565b61446b81856143cd565b935061447b81856020860161351e565b80840191505092915050565b5f61449282856143d7565b915061449e8284614457565b91508190509392505050565b7f5f656767000000000000000000000000000000000000000000000000000000005f82015250565b5f6144de6004836143cd565b91506144e9826144aa565b600482019050919050565b5f6144ff82846143d7565b915061450a826144d2565b915081905092915050565b7f5f000000000000000000000000000000000000000000000000000000000000005f82015250565b5f6145496001836143cd565b915061455482614515565b600182019050919050565b5f61456a82876143d7565b91506145758261453d565b91506145818286614457565b915061458c8261453d565b91506145988285614457565b91506145a38261453d565b91506145af8284614457565b915081905095945050505050565b7f646174613a6170706c69636174696f6e2f6a736f6e3b757466382c7b226e616d5f8201527f65223a2022447261676f6e202300000000000000000000000000000000000000602082015250565b5f614617602d836143cd565b9150614622826145bd565b602d82019050919050565b7f222c2265787465726e616c5f75726c223a2268747470733a2f2f6769746875625f8201527f2e636f6d2f626368736f6c2f43727970746f447261676f6e222c22696d61676560208201527f223a220000000000000000000000000000000000000000000000000000000000604082015250565b5f6146ad6043836143cd565b91506146b88261462d565b604382019050919050565b7f222c2261747472696275746573223a5b7b2274726169745f74797065223a22445f8201527f7261676f6e222c2276616c7565223a2200000000000000000000000000000000602082015250565b5f61471d6030836143cd565b9150614728826146c3565b603082019050919050565b7f227d5d7d000000000000000000000000000000000000000000000000000000005f82015250565b5f6147676004836143cd565b915061477282614733565b600482019050919050565b5f6147878261460b565b91506147938288614457565b915061479e826146a1565b91506147aa82876143d7565b91506147b68286614457565b91506147c282856143d7565b91506147cd82614711565b91506147d982846143d7565b91506147e48261475b565b91508190509695505050505050565b7f48617463680000000000000000000000000000000000000000000000000000005f82015250565b5f61482760058361350e565b9150614832826147f3565b602082019050919050565b5f6020820190508181035f8301526148548161481b565b9050919050565b7f48617463686c696e6700000000000000000000000000000000000000000000005f82015250565b5f61488f60098361350e565b915061489a8261485b565b602082019050919050565b5f6020820190508181035f8301526148bc81614883565b9050919050565b7f4164756c740000000000000000000000000000000000000000000000000000005f82015250565b5f6148f760058361350e565b9150614902826148c3565b602082019050919050565b5f6020820190508181035f830152614924816148eb565b9050919050565b5f819050919050565b614945614940826133f3565b61492b565b82525050565b5f8160601b9050919050565b5f6149618261494b565b9050919050565b5f61497282614957565b9050919050565b61498a614985826135b3565b614968565b82525050565b5f61499b8286614934565b6020820191506149ab8285614979565b6014820191506149bb8284614934565b602082019150819050949350505050565b7f4e487b71000000000000000000000000000000000000000000000000000000005f52601260045260245ffd5b5f614a03826133f3565b9150614a0e836133f3565b925082614a1e57614a1d6149cc565b5b828206905092915050565b614a3282613504565b67ffffffffffffffff811115614a4b57614a4a613aa0565b5b614a558254613de5565b614a60828285613f33565b5f60209050601f831160018114614a91575f8415614a7f578287015190505b614a898582613fa1565b865550614af0565b601f198416614a9f86613e1f565b5f5b82811015614ac657848901518255600182019150602085019450602081019050614aa1565b86831015614ae35784890151614adf601f891682613f85565b8355505b6001600288020188555050505b505050505050565b5f81519050919050565b5f82825260208201905092915050565b5f614b1c82614af8565b614b268185614b02565b9350614b3681856020860161351e565b614b3f8161352c565b840191505092915050565b5f608082019050614b5d5f8301876135c4565b614b6a60208301866135c4565b614b776040830185613802565b8181036060830152614b898184614b12565b905095945050505050565b5f81519050614ba28161347c565b92915050565b5f60208284031215614bbd57614bbc6133eb565b5b5f614bca84828501614b94565b91505092915050565b5f604082019050614be65f8301856135c4565b614bf36020830184613802565b939250505056fea2646970667358221220daf02628d3b5be9f873c90eb052219aee7dfeea0ac2f449021f6b5b5fa5c707564736f6c634300081a0033",
			"opcodes": "PUSH1 0x80 PUSH1 0x40 MSTORE CALLVALUE DUP1 ISZERO PUSH2 0xF JUMPI PUSH0 DUP1 REVERT JUMPDEST POP PUSH1 0x40 MLOAD PUSH2 0x532A CODESIZE SUB DUP1 PUSH2 0x532A DUP4 CODECOPY DUP2 DUP2 ADD PUSH1 0x40 MSTORE DUP2 ADD SWAP1 PUSH2 0x31 SWAP2 SWAP1 PUSH2 0x361 JUMP JUMPDEST DUP3 DUP3 DUP3 DUP3 DUP3 DUP3 DUP3 DUP3 DUP3 DUP2 PUSH0 SWAP1 DUP2 PUSH2 0x48 SWAP2 SWAP1 PUSH2 0x5F6 JUMP JUMPDEST POP DUP1 PUSH1 0x1 SWAP1 DUP2 PUSH2 0x58 SWAP2 SWAP1 PUSH2 0x5F6 JUMP JUMPDEST POP POP POP PUSH0 PUSH20 0xFFFFFFFFFFFFFFFFFFFFFFFFFFFFFFFFFFFFFFFF AND DUP2 PUSH20 0xFFFFFFFFFFFFFFFFFFFFFFFFFFFFFFFFFFFFFFFF AND SUB PUSH2 0xCB JUMPI PUSH0 PUSH1 0x40 MLOAD PUSH32 0x1E4FBDF700000000000000000000000000000000000000000000000000000000 DUP2 MSTORE PUSH1 0x4 ADD PUSH2 0xC2 SWAP2 SWAP1 PUSH2 0x6D4 JUMP JUMPDEST PUSH1 0x40 MLOAD DUP1 SWAP2 SUB SWAP1 REVERT JUMPDEST PUSH2 0xDA DUP2 PUSH2 0xF7 PUSH1 0x20 SHL PUSH1 0x20 SHR JUMP JUMPDEST POP PUSH0 PUSH1 0xD DUP2 SWAP1 SSTORE POP PUSH0 PUSH1 0xC DUP2 SWAP1 SSTORE POP POP POP POP POP POP POP POP POP POP PUSH2 0x6ED JUMP JUMPDEST PUSH0 PUSH1 0x7 PUSH0 SWAP1 SLOAD SWAP1 PUSH2 0x100 EXP SWAP1 DIV PUSH20 0xFFFFFFFFFFFFFFFFFFFFFFFFFFFFFFFFFFFFFFFF AND SWAP1 POP DUP2 PUSH1 0x7 PUSH0 PUSH2 0x100 EXP DUP2 SLOAD DUP2 PUSH20 0xFFFFFFFFFFFFFFFFFFFFFFFFFFFFFFFFFFFFFFFF MUL NOT AND SWAP1 DUP4 PUSH20 0xFFFFFFFFFFFFFFFFFFFFFFFFFFFFFFFFFFFFFFFF AND MUL OR SWAP1 SSTORE POP DUP2 PUSH20 0xFFFFFFFFFFFFFFFFFFFFFFFFFFFFFFFFFFFFFFFF AND DUP2 PUSH20 0xFFFFFFFFFFFFFFFFFFFFFFFFFFFFFFFFFFFFFFFF AND PUSH32 0x8BE0079C531659141344CD1FD0A4F28419497F9722A3DAAFE3B4186F6B6457E0 PUSH1 0x40 MLOAD PUSH1 0x40 MLOAD DUP1 SWAP2 SUB SWAP1 LOG3 POP POP JUMP JUMPDEST PUSH0 PUSH1 0x40 MLOAD SWAP1 POP SWAP1 JUMP JUMPDEST PUSH0 DUP1 REVERT JUMPDEST PUSH0 DUP1 REVERT JUMPDEST PUSH0 PUSH20 0xFFFFFFFFFFFFFFFFFFFFFFFFFFFFFFFFFFFFFFFF DUP3 AND SWAP1 POP SWAP2 SWAP1 POP JUMP JUMPDEST PUSH0 PUSH2 0x1F4 DUP3 PUSH2 0x1CB JUMP JUMPDEST SWAP1 POP SWAP2 SWAP1 POP JUMP JUMPDEST PUSH2 0x204 DUP2 PUSH2 0x1EA JUMP JUMPDEST DUP2 EQ PUSH2 0x20E JUMPI PUSH0 DUP1 REVERT JUMPDEST POP JUMP JUMPDEST PUSH0 DUP2 MLOAD SWAP1 POP PUSH2 0x21F DUP2 PUSH2 0x1FB JUMP JUMPDEST SWAP3 SWAP2 POP POP JUMP JUMPDEST PUSH0 DUP1 REVERT JUMPDEST PUSH0 DUP1 REVERT JUMPDEST PUSH0 PUSH1 0x1F NOT PUSH1 0x1F DUP4 ADD AND SWAP1 POP SWAP2 SWAP1 POP JUMP JUMPDEST PUSH32 0x4E487B7100000000000000000000000000000000000000000000000000000000 PUSH0 MSTORE PUSH1 0x41 PUSH1 0x4 MSTORE PUSH1 0x24 PUSH0 REVERT JUMPDEST PUSH2 0x273 DUP3 PUSH2 0x22D JUMP JUMPDEST DUP2 ADD DUP2 DUP2 LT PUSH8 0xFFFFFFFFFFFFFFFF DUP3 GT OR ISZERO PUSH2 0x292 JUMPI PUSH2 0x291 PUSH2 0x23D JUMP JUMPDEST JUMPDEST DUP1 PUSH1 0x40 MSTORE POP POP POP JUMP JUMPDEST PUSH0 PUSH2 0x2A4 PUSH2 0x1BA JUMP JUMPDEST SWAP1 POP PUSH2 0x2B0 DUP3 DUP3 PUSH2 0x26A JUMP JUMPDEST SWAP2 SWAP1 POP JUMP JUMPDEST PUSH0 PUSH8 0xFFFFFFFFFFFFFFFF DUP3 GT ISZERO PUSH2 0x2CF JUMPI PUSH2 0x2CE PUSH2 0x23D JUMP JUMPDEST JUMPDEST PUSH2 0x2D8 DUP3 PUSH2 0x22D JUMP JUMPDEST SWAP1 POP PUSH1 0x20 DUP2 ADD SWAP1 POP SWAP2 SWAP1 POP JUMP JUMPDEST DUP3 DUP2 DUP4 MCOPY PUSH0 DUP4 DUP4 ADD MSTORE POP POP POP JUMP JUMPDEST PUSH0 PUSH2 0x305 PUSH2 0x300 DUP5 PUSH2 0x2B5 JUMP JUMPDEST PUSH2 0x29B JUMP JUMPDEST SWAP1 POP DUP3 DUP2 MSTORE PUSH1 0x20 DUP2 ADD DUP5 DUP5 DUP5 ADD GT ISZERO PUSH2 0x321 JUMPI PUSH2 0x320 PUSH2 0x229 JUMP JUMPDEST JUMPDEST PUSH2 0x32C DUP5 DUP3 DUP6 PUSH2 0x2E5 JUMP JUMPDEST POP SWAP4 SWAP3 POP POP POP JUMP JUMPDEST PUSH0 DUP3 PUSH1 0x1F DUP4 ADD SLT PUSH2 0x348 JUMPI PUSH2 0x347 PUSH2 0x225 JUMP JUMPDEST JUMPDEST DUP2 MLOAD PUSH2 0x358 DUP5 DUP3 PUSH1 0x20 DUP7 ADD PUSH2 0x2F3 JUMP JUMPDEST SWAP2 POP POP SWAP3 SWAP2 POP POP JUMP JUMPDEST PUSH0 DUP1 PUSH0 PUSH1 0x60 DUP5 DUP7 SUB SLT ISZERO PUSH2 0x378 JUMPI PUSH2 0x377 PUSH2 0x1C3 JUMP JUMPDEST JUMPDEST PUSH0 PUSH2 0x385 DUP7 DUP3 DUP8 ADD PUSH2 0x211 JUMP JUMPDEST SWAP4 POP POP PUSH1 0x20 DUP5 ADD MLOAD PUSH8 0xFFFFFFFFFFFFFFFF DUP2 GT ISZERO PUSH2 0x3A6 JUMPI PUSH2 0x3A5 PUSH2 0x1C7 JUMP JUMPDEST JUMPDEST PUSH2 0x3B2 DUP7 DUP3 DUP8 ADD PUSH2 0x334 JUMP JUMPDEST SWAP3 POP POP PUSH1 0x40 DUP5 ADD MLOAD PUSH8 0xFFFFFFFFFFFFFFFF DUP2 GT ISZERO PUSH2 0x3D3 JUMPI PUSH2 0x3D2 PUSH2 0x1C7 JUMP JUMPDEST JUMPDEST PUSH2 0x3DF DUP7 DUP3 DUP8 ADD PUSH2 0x334 JUMP JUMPDEST SWAP2 POP POP SWAP3 POP SWAP3 POP SWAP3 JUMP JUMPDEST PUSH0 DUP2 MLOAD SWAP1 POP SWAP2 SWAP1 POP JUMP JUMPDEST PUSH32 0x4E487B7100000000000000000000000000000000000000000000000000000000 PUSH0 MSTORE PUSH1 0x22 PUSH1 0x4 MSTORE PUSH1 0x24 PUSH0 REVERT JUMPDEST PUSH0 PUSH1 0x2 DUP3 DIV SWAP1 POP PUSH1 0x1 DUP3 AND DUP1 PUSH2 0x437 JUMPI PUSH1 0x7F DUP3 AND SWAP2 POP JUMPDEST PUSH1 0x20 DUP3 LT DUP2 SUB PUSH2 0x44A JUMPI PUSH2 0x449 PUSH2 0x3F3 JUMP JUMPDEST JUMPDEST POP SWAP2 SWAP1 POP JUMP JUMPDEST PUSH0 DUP2 SWAP1 POP DUP2 PUSH0 MSTORE PUSH1 0x20 PUSH0 KECCAK256 SWAP1 POP SWAP2 SWAP1 POP JUMP JUMPDEST PUSH0 PUSH1 0x20 PUSH1 0x1F DUP4 ADD DIV SWAP1 POP SWAP2 SWAP1 POP JUMP JUMPDEST PUSH0 DUP3 DUP3 SHL SWAP1 POP SWAP3 SWAP2 POP POP JUMP JUMPDEST PUSH0 PUSH1 0x8 DUP4 MUL PUSH2 0x4AC PUSH32 0xFFFFFFFFFFFFFFFFFFFFFFFFFFFFFFFFFFFFFFFFFFFFFFFFFFFFFFFFFFFFFFFF DUP3 PUSH2 0x471 JUMP JUMPDEST PUSH2 0x4B6 DUP7 DUP4 PUSH2 0x471 JUMP JUMPDEST SWAP6 POP DUP1 NOT DUP5 AND SWAP4 POP DUP1 DUP7 AND DUP5 OR SWAP3 POP POP POP SWAP4 SWAP3 POP POP POP JUMP JUMPDEST PUSH0 DUP2 SWAP1 POP SWAP2 SWAP1 POP JUMP JUMPDEST PUSH0 DUP2 SWAP1 POP SWAP2 SWAP1 POP JUMP JUMPDEST PUSH0 PUSH2 0x4FA PUSH2 0x4F5 PUSH2 0x4F0 DUP5 PUSH2 0x4CE JUMP JUMPDEST PUSH2 0x4D7 JUMP JUMPDEST PUSH2 0x4CE JUMP JUMPDEST SWAP1 POP SWAP2 SWAP1 POP JUMP JUMPDEST PUSH0 DUP2 SWAP1 POP SWAP2 SWAP1 POP JUMP JUMPDEST PUSH2 0x513 DUP4 PUSH2 0x4E0 JUMP JUMPDEST PUSH2 0x527 PUSH2 0x51F DUP3 PUSH2 0x501 JUMP JUMPDEST DUP5 DUP5 SLOAD PUSH2 0x47D JUMP JUMPDEST DUP3 SSTORE POP POP POP POP JUMP JUMPDEST PUSH0 SWAP1 JUMP JUMPDEST PUSH2 0x53B PUSH2 0x52F JUMP JUMPDEST PUSH2 0x546 DUP2 DUP5 DUP5 PUSH2 0x50A JUMP JUMPDEST POP POP POP JUMP JUMPDEST JUMPDEST DUP2 DUP2 LT ISZERO PUSH2 0x569 JUMPI PUSH2 0x55E PUSH0 DUP3 PUSH2 0x533 JUMP JUMPDEST PUSH1 0x1 DUP2 ADD SWAP1 POP PUSH2 0x54C JUMP JUMPDEST POP POP JUMP JUMPDEST PUSH1 0x1F DUP3 GT ISZERO PUSH2 0x5AE JUMPI PUSH2 0x57F DUP2 PUSH2 0x450 JUMP JUMPDEST PUSH2 0x588 DUP5 PUSH2 0x462 JUMP JUMPDEST DUP2 ADD PUSH1 0x20 DUP6 LT ISZERO PUSH2 0x597 JUMPI DUP2 SWAP1 POP JUMPDEST PUSH2 0x5AB PUSH2 0x5A3 DUP6 PUSH2 0x462 JUMP JUMPDEST DUP4 ADD DUP3 PUSH2 0x54B JUMP JUMPDEST POP POP JUMPDEST POP POP POP JUMP JUMPDEST PUSH0 DUP3 DUP3 SHR SWAP1 POP SWAP3 SWAP2 POP POP JUMP JUMPDEST PUSH0 PUSH2 0x5CE PUSH0 NOT DUP5 PUSH1 0x8 MUL PUSH2 0x5B3 JUMP JUMPDEST NOT DUP1 DUP4 AND SWAP2 POP POP SWAP3 SWAP2 POP POP JUMP JUMPDEST PUSH0 PUSH2 0x5E6 DUP4 DUP4 PUSH2 0x5BF JUMP JUMPDEST SWAP2 POP DUP3 PUSH1 0x2 MUL DUP3 OR SWAP1 POP SWAP3 SWAP2 POP POP JUMP JUMPDEST PUSH2 0x5FF DUP3 PUSH2 0x3E9 JUMP JUMPDEST PUSH8 0xFFFFFFFFFFFFFFFF DUP2 GT ISZERO PUSH2 0x618 JUMPI PUSH2 0x617 PUSH2 0x23D JUMP JUMPDEST JUMPDEST PUSH2 0x622 DUP3 SLOAD PUSH2 0x420 JUMP JUMPDEST PUSH2 0x62D DUP3 DUP3 DUP6 PUSH2 0x56D JUMP JUMPDEST PUSH0 PUSH1 0x20 SWAP1 POP PUSH1 0x1F DUP4 GT PUSH1 0x1 DUP2 EQ PUSH2 0x65E JUMPI PUSH0 DUP5 ISZERO PUSH2 0x64C JUMPI DUP3 DUP8 ADD MLOAD SWAP1 POP JUMPDEST PUSH2 0x656 DUP6 DUP3 PUSH2 0x5DB JUMP JUMPDEST DUP7 SSTORE POP PUSH2 0x6BD JUMP JUMPDEST PUSH1 0x1F NOT DUP5 AND PUSH2 0x66C DUP7 PUSH2 0x450 JUMP JUMPDEST PUSH0 JUMPDEST DUP3 DUP2 LT ISZERO PUSH2 0x693 JUMPI DUP5 DUP10 ADD MLOAD DUP3 SSTORE PUSH1 0x1 DUP3 ADD SWAP2 POP PUSH1 0x20 DUP6 ADD SWAP5 POP PUSH1 0x20 DUP2 ADD SWAP1 POP PUSH2 0x66E JUMP JUMPDEST DUP7 DUP4 LT ISZERO PUSH2 0x6B0 JUMPI DUP5 DUP10 ADD MLOAD PUSH2 0x6AC PUSH1 0x1F DUP10 AND DUP3 PUSH2 0x5BF JUMP JUMPDEST DUP4 SSTORE POP JUMPDEST PUSH1 0x1 PUSH1 0x2 DUP9 MUL ADD DUP9 SSTORE POP POP POP JUMPDEST POP POP POP POP POP POP JUMP JUMPDEST PUSH2 0x6CE DUP2 PUSH2 0x1EA JUMP JUMPDEST DUP3 MSTORE POP POP JUMP JUMPDEST PUSH0 PUSH1 0x20 DUP3 ADD SWAP1 POP PUSH2 0x6E7 PUSH0 DUP4 ADD DUP5 PUSH2 0x6C5 JUMP JUMPDEST SWAP3 SWAP2 POP POP JUMP JUMPDEST PUSH2 0x4C30 DUP1 PUSH2 0x6FA PUSH0 CODECOPY PUSH0 RETURN INVALID PUSH1 0x80 PUSH1 0x40 MSTORE CALLVALUE DUP1 ISZERO PUSH2 0xF JUMPI PUSH0 DUP1 REVERT JUMPDEST POP PUSH1 0x4 CALLDATASIZE LT PUSH2 0x219 JUMPI PUSH0 CALLDATALOAD PUSH1 0xE0 SHR DUP1 PUSH4 0x8DA5CB5B GT PUSH2 0x123 JUMPI DUP1 PUSH4 0xC87B56DD GT PUSH2 0xAB JUMPI DUP1 PUSH4 0xE985E9C5 GT PUSH2 0x7A JUMPI DUP1 PUSH4 0xE985E9C5 EQ PUSH2 0x64A JUMPI DUP1 PUSH4 0xEDEB4BBE EQ PUSH2 0x67A JUMPI DUP1 PUSH4 0xF119F567 EQ PUSH2 0x698 JUMPI DUP1 PUSH4 0xF28CA1DD EQ PUSH2 0x6B4 JUMPI DUP1 PUSH4 0xF2FDE38B EQ PUSH2 0x6D2 JUMPI PUSH2 0x219 JUMP JUMPDEST DUP1 PUSH4 0xC87B56DD EQ PUSH2 0x5AB JUMPI DUP1 PUSH4 0xD547CFB7 EQ PUSH2 0x5DB JUMPI DUP1 PUSH4 0xE0DF5B6F EQ PUSH2 0x5F9 JUMPI DUP1 PUSH4 0xE4B50CB8 EQ PUSH2 0x615 JUMPI PUSH2 0x219 JUMP JUMPDEST DUP1 PUSH4 0x99683C22 GT PUSH2 0xF2 JUMPI DUP1 PUSH4 0x99683C22 EQ PUSH2 0x4F6 JUMPI DUP1 PUSH4 0xA22CB465 EQ PUSH2 0x526 JUMPI DUP1 PUSH4 0xB564EA86 EQ PUSH2 0x542 JUMPI DUP1 PUSH4 0xB88D4FDE EQ PUSH2 0x573 JUMPI DUP1 PUSH4 0xBD9BA9E8 EQ PUSH2 0x58F JUMPI PUSH2 0x219 JUMP JUMPDEST DUP1 PUSH4 0x8DA5CB5B EQ PUSH2 0x46C JUMPI DUP1 PUSH4 0x92F2FF80 EQ PUSH2 0x48A JUMPI DUP1 PUSH4 0x95D89B41 EQ PUSH2 0x4BA JUMPI DUP1 PUSH4 0x9659867E EQ PUSH2 0x4D8 JUMPI PUSH2 0x219 JUMP JUMPDEST DUP1 PUSH4 0x30ADC1CB GT PUSH2 0x1A6 JUMPI DUP1 PUSH4 0x616C0C48 GT PUSH2 0x175 JUMPI DUP1 PUSH4 0x616C0C48 EQ PUSH2 0x3B5 JUMPI DUP1 PUSH4 0x6352211E EQ PUSH2 0x3E6 JUMPI DUP1 PUSH4 0x70A08231 EQ PUSH2 0x416 JUMPI DUP1 PUSH4 0x715018A6 EQ PUSH2 0x446 JUMPI DUP1 PUSH4 0x72EC6C03 EQ PUSH2 0x450 JUMPI PUSH2 0x219 JUMP JUMPDEST DUP1 PUSH4 0x30ADC1CB EQ PUSH2 0x345 JUMPI DUP1 PUSH4 0x39E3AA7E EQ PUSH2 0x361 JUMPI DUP1 PUSH4 0x3FFC0366 EQ PUSH2 0x37D JUMPI DUP1 PUSH4 0x42842E0E EQ PUSH2 0x399 JUMPI PUSH2 0x219 JUMP JUMPDEST DUP1 PUSH4 0x95EA7B3 GT PUSH2 0x1ED JUMPI DUP1 PUSH4 0x95EA7B3 EQ PUSH2 0x2B7 JUMPI DUP1 PUSH4 0xCF935F7 EQ PUSH2 0x2D3 JUMPI DUP1 PUSH4 0x18D217C3 EQ PUSH2 0x2F1 JUMPI DUP1 PUSH4 0x1BC80EFF EQ PUSH2 0x30D JUMPI DUP1 PUSH4 0x23B872DD EQ PUSH2 0x329 JUMPI PUSH2 0x219 JUMP JUMPDEST DUP1 PUSH3 0xE00064 EQ PUSH2 0x21D JUMPI DUP1 PUSH4 0x1FFC9A7 EQ PUSH2 0x239 JUMPI DUP1 PUSH4 0x6FDDE03 EQ PUSH2 0x269 JUMPI DUP1 PUSH4 0x81812FC EQ PUSH2 0x287 JUMPI JUMPDEST PUSH0 DUP1 REVERT JUMPDEST PUSH2 0x237 PUSH1 0x4 DUP1 CALLDATASIZE SUB DUP2 ADD SWAP1 PUSH2 0x232 SWAP2 SWAP1 PUSH2 0x3426 JUMP JUMPDEST PUSH2 0x6EE JUMP JUMPDEST STOP JUMPDEST PUSH2 0x253 PUSH1 0x4 DUP1 CALLDATASIZE SUB DUP2 ADD SWAP1 PUSH2 0x24E SWAP2 SWAP1 PUSH2 0x34A6 JUMP JUMPDEST PUSH2 0x8E9 JUMP JUMPDEST PUSH1 0x40 MLOAD PUSH2 0x260 SWAP2 SWAP1 PUSH2 0x34EB JUMP JUMPDEST PUSH1 0x40 MLOAD DUP1 SWAP2 SUB SWAP1 RETURN JUMPDEST PUSH2 0x271 PUSH2 0x8FA JUMP JUMPDEST PUSH1 0x40 MLOAD PUSH2 0x27E SWAP2 SWAP1 PUSH2 0x3574 JUMP JUMPDEST PUSH1 0x40 MLOAD DUP1 SWAP2 SUB SWAP1 RETURN JUMPDEST PUSH2 0x2A1 PUSH1 0x4 DUP1 CALLDATASIZE SUB DUP2 ADD SWAP1 PUSH2 0x29C SWAP2 SWAP1 PUSH2 0x3426 JUMP JUMPDEST PUSH2 0x989 JUMP JUMPDEST PUSH1 0x40 MLOAD PUSH2 0x2AE SWAP2 SWAP1 PUSH2 0x35D3 JUMP JUMPDEST PUSH1 0x40 MLOAD DUP1 SWAP2 SUB SWAP1 RETURN JUMPDEST PUSH2 0x2D1 PUSH1 0x4 DUP1 CALLDATASIZE SUB DUP2 ADD SWAP1 PUSH2 0x2CC SWAP2 SWAP1 PUSH2 0x3616 JUMP JUMPDEST PUSH2 0x9A4 JUMP JUMPDEST STOP JUMPDEST PUSH2 0x2DB PUSH2 0x9BA JUMP JUMPDEST PUSH1 0x40 MLOAD PUSH2 0x2E8 SWAP2 SWAP1 PUSH2 0x34EB JUMP JUMPDEST PUSH1 0x40 MLOAD DUP1 SWAP2 SUB SWAP1 RETURN JUMPDEST PUSH2 0x30B PUSH1 0x4 DUP1 CALLDATASIZE SUB DUP2 ADD SWAP1 PUSH2 0x306 SWAP2 SWAP1 PUSH2 0x36B5 JUMP JUMPDEST PUSH2 0x9CC JUMP JUMPDEST STOP JUMPDEST PUSH2 0x327 PUSH1 0x4 DUP1 CALLDATASIZE SUB DUP2 ADD SWAP1 PUSH2 0x322 SWAP2 SWAP1 PUSH2 0x3426 JUMP JUMPDEST PUSH2 0x9EA JUMP JUMPDEST STOP JUMPDEST PUSH2 0x343 PUSH1 0x4 DUP1 CALLDATASIZE SUB DUP2 ADD SWAP1 PUSH2 0x33E SWAP2 SWAP1 PUSH2 0x3700 JUMP JUMPDEST PUSH2 0xBFF JUMP JUMPDEST STOP JUMPDEST PUSH2 0x35F PUSH1 0x4 DUP1 CALLDATASIZE SUB DUP2 ADD SWAP1 PUSH2 0x35A SWAP2 SWAP1 PUSH2 0x377A JUMP JUMPDEST PUSH2 0xCFE JUMP JUMPDEST STOP JUMPDEST PUSH2 0x37B PUSH1 0x4 DUP1 CALLDATASIZE SUB DUP2 ADD SWAP1 PUSH2 0x376 SWAP2 SWAP1 PUSH2 0x36B5 JUMP JUMPDEST PUSH2 0xD22 JUMP JUMPDEST STOP JUMPDEST PUSH2 0x397 PUSH1 0x4 DUP1 CALLDATASIZE SUB DUP2 ADD SWAP1 PUSH2 0x392 SWAP2 SWAP1 PUSH2 0x37A5 JUMP JUMPDEST PUSH2 0xD40 JUMP JUMPDEST STOP JUMPDEST PUSH2 0x3B3 PUSH1 0x4 DUP1 CALLDATASIZE SUB DUP2 ADD SWAP1 PUSH2 0x3AE SWAP2 SWAP1 PUSH2 0x3700 JUMP JUMPDEST PUSH2 0xD6D JUMP JUMPDEST STOP JUMPDEST PUSH2 0x3CF PUSH1 0x4 DUP1 CALLDATASIZE SUB DUP2 ADD SWAP1 PUSH2 0x3CA SWAP2 SWAP1 PUSH2 0x3426 JUMP JUMPDEST PUSH2 0xD8C JUMP JUMPDEST PUSH1 0x40 MLOAD PUSH2 0x3DD SWAP3 SWAP2 SWAP1 PUSH2 0x3811 JUMP JUMPDEST PUSH1 0x40 MLOAD DUP1 SWAP2 SUB SWAP1 RETURN JUMPDEST PUSH2 0x400 PUSH1 0x4 DUP1 CALLDATASIZE SUB DUP2 ADD SWAP1 PUSH2 0x3FB SWAP2 SWAP1 PUSH2 0x3426 JUMP JUMPDEST PUSH2 0xDC0 JUMP JUMPDEST PUSH1 0x40 MLOAD PUSH2 0x40D SWAP2 SWAP1 PUSH2 0x35D3 JUMP JUMPDEST PUSH1 0x40 MLOAD DUP1 SWAP2 SUB SWAP1 RETURN JUMPDEST PUSH2 0x430 PUSH1 0x4 DUP1 CALLDATASIZE SUB DUP2 ADD SWAP1 PUSH2 0x42B SWAP2 SWAP1 PUSH2 0x3838 JUMP JUMPDEST PUSH2 0xDD1 JUMP JUMPDEST PUSH1 0x40 MLOAD PUSH2 0x43D SWAP2 SWAP1 PUSH2 0x3863 JUMP JUMPDEST PUSH1 0x40 MLOAD DUP1 SWAP2 SUB SWAP1 RETURN JUMPDEST PUSH2 0x44E PUSH2 0xE87 JUMP JUMPDEST STOP JUMPDEST PUSH2 0x46A PUSH1 0x4 DUP1 CALLDATASIZE SUB DUP2 ADD SWAP1 PUSH2 0x465 SWAP2 SWAP1 PUSH2 0x37A5 JUMP JUMPDEST PUSH2 0xE9A JUMP JUMPDEST STOP JUMPDEST PUSH2 0x474 PUSH2 0xF16 JUMP JUMPDEST PUSH1 0x40 MLOAD PUSH2 0x481 SWAP2 SWAP1 PUSH2 0x35D3 JUMP JUMPDEST PUSH1 0x40 MLOAD DUP1 SWAP2 SUB SWAP1 RETURN JUMPDEST PUSH2 0x4A4 PUSH1 0x4 DUP1 CALLDATASIZE SUB DUP2 ADD SWAP1 PUSH2 0x49F SWAP2 SWAP1 PUSH2 0x3838 JUMP JUMPDEST PUSH2 0xF3E JUMP JUMPDEST PUSH1 0x40 MLOAD PUSH2 0x4B1 SWAP2 SWAP1 PUSH2 0x3933 JUMP JUMPDEST PUSH1 0x40 MLOAD DUP1 SWAP2 SUB SWAP1 RETURN JUMPDEST PUSH2 0x4C2 PUSH2 0x102C JUMP JUMPDEST PUSH1 0x40 MLOAD PUSH2 0x4CF SWAP2 SWAP1 PUSH2 0x3574 JUMP JUMPDEST PUSH1 0x40 MLOAD DUP1 SWAP2 SUB SWAP1 RETURN JUMPDEST PUSH2 0x4E0 PUSH2 0x10BC JUMP JUMPDEST PUSH1 0x40 MLOAD PUSH2 0x4ED SWAP2 SWAP1 PUSH2 0x3863 JUMP JUMPDEST PUSH1 0x40 MLOAD DUP1 SWAP2 SUB SWAP1 RETURN JUMPDEST PUSH2 0x510 PUSH1 0x4 DUP1 CALLDATASIZE SUB DUP2 ADD SWAP1 PUSH2 0x50B SWAP2 SWAP1 PUSH2 0x3953 JUMP JUMPDEST PUSH2 0x10C2 JUMP JUMPDEST PUSH1 0x40 MLOAD PUSH2 0x51D SWAP2 SWAP1 PUSH2 0x3863 JUMP JUMPDEST PUSH1 0x40 MLOAD DUP1 SWAP2 SUB SWAP1 RETURN JUMPDEST PUSH2 0x540 PUSH1 0x4 DUP1 CALLDATASIZE SUB DUP2 ADD SWAP1 PUSH2 0x53B SWAP2 SWAP1 PUSH2 0x39C4 JUMP JUMPDEST PUSH2 0x12C0 JUMP JUMPDEST STOP JUMPDEST PUSH2 0x55C PUSH1 0x4 DUP1 CALLDATASIZE SUB DUP2 ADD SWAP1 PUSH2 0x557 SWAP2 SWAP1 PUSH2 0x3426 JUMP JUMPDEST PUSH2 0x12D6 JUMP JUMPDEST PUSH1 0x40 MLOAD PUSH2 0x56A SWAP3 SWAP2 SWAP1 PUSH2 0x3A75 JUMP JUMPDEST PUSH1 0x40 MLOAD DUP1 SWAP2 SUB SWAP1 RETURN JUMPDEST PUSH2 0x58D PUSH1 0x4 DUP1 CALLDATASIZE SUB DUP2 ADD SWAP1 PUSH2 0x588 SWAP2 SWAP1 PUSH2 0x3BC4 JUMP JUMPDEST PUSH2 0x13FC JUMP JUMPDEST STOP JUMPDEST PUSH2 0x5A9 PUSH1 0x4 DUP1 CALLDATASIZE SUB DUP2 ADD SWAP1 PUSH2 0x5A4 SWAP2 SWAP1 PUSH2 0x36B5 JUMP JUMPDEST PUSH2 0x1419 JUMP JUMPDEST STOP JUMPDEST PUSH2 0x5C5 PUSH1 0x4 DUP1 CALLDATASIZE SUB DUP2 ADD SWAP1 PUSH2 0x5C0 SWAP2 SWAP1 PUSH2 0x3426 JUMP JUMPDEST PUSH2 0x1437 JUMP JUMPDEST PUSH1 0x40 MLOAD PUSH2 0x5D2 SWAP2 SWAP1 PUSH2 0x3574 JUMP JUMPDEST PUSH1 0x40 MLOAD DUP1 SWAP2 SUB SWAP1 RETURN JUMPDEST PUSH2 0x5E3 PUSH2 0x18A7 JUMP JUMPDEST PUSH1 0x40 MLOAD PUSH2 0x5F0 SWAP2 SWAP1 PUSH2 0x3574 JUMP JUMPDEST PUSH1 0x40 MLOAD DUP1 SWAP2 SUB SWAP1 RETURN JUMPDEST PUSH2 0x613 PUSH1 0x4 DUP1 CALLDATASIZE SUB DUP2 ADD SWAP1 PUSH2 0x60E SWAP2 SWAP1 PUSH2 0x36B5 JUMP JUMPDEST PUSH2 0x1933 JUMP JUMPDEST STOP JUMPDEST PUSH2 0x62F PUSH1 0x4 DUP1 CALLDATASIZE SUB DUP2 ADD SWAP1 PUSH2 0x62A SWAP2 SWAP1 PUSH2 0x3426 JUMP JUMPDEST PUSH2 0x1951 JUMP JUMPDEST PUSH1 0x40 MLOAD PUSH2 0x641 SWAP7 SWAP6 SWAP5 SWAP4 SWAP3 SWAP2 SWAP1 PUSH2 0x3C44 JUMP JUMPDEST PUSH1 0x40 MLOAD DUP1 SWAP2 SUB SWAP1 RETURN JUMPDEST PUSH2 0x664 PUSH1 0x4 DUP1 CALLDATASIZE SUB DUP2 ADD SWAP1 PUSH2 0x65F SWAP2 SWAP1 PUSH2 0x3CAA JUMP JUMPDEST PUSH2 0x1A28 JUMP JUMPDEST PUSH1 0x40 MLOAD PUSH2 0x671 SWAP2 SWAP1 PUSH2 0x34EB JUMP JUMPDEST PUSH1 0x40 MLOAD DUP1 SWAP2 SUB SWAP1 RETURN JUMPDEST PUSH2 0x682 PUSH2 0x1AB6 JUMP JUMPDEST PUSH1 0x40 MLOAD PUSH2 0x68F SWAP2 SWAP1 PUSH2 0x3574 JUMP JUMPDEST PUSH1 0x40 MLOAD DUP1 SWAP2 SUB SWAP1 RETURN JUMPDEST PUSH2 0x6B2 PUSH1 0x4 DUP1 CALLDATASIZE SUB DUP2 ADD SWAP1 PUSH2 0x6AD SWAP2 SWAP1 PUSH2 0x3426 JUMP JUMPDEST PUSH2 0x1B42 JUMP JUMPDEST STOP JUMPDEST PUSH2 0x6BC PUSH2 0x1ECE JUMP JUMPDEST PUSH1 0x40 MLOAD PUSH2 0x6C9 SWAP2 SWAP1 PUSH2 0x3574 JUMP JUMPDEST PUSH1 0x40 MLOAD DUP1 SWAP2 SUB SWAP1 RETURN JUMPDEST PUSH2 0x6EC PUSH1 0x4 DUP1 CALLDATASIZE SUB DUP2 ADD SWAP1 PUSH2 0x6E7 SWAP2 SWAP1 PUSH2 0x3838 JUMP JUMPDEST PUSH2 0x1F5A JUMP JUMPDEST STOP JUMPDEST CALLER PUSH20 0xFFFFFFFFFFFFFFFFFFFFFFFFFFFFFFFFFFFFFFFF AND PUSH2 0x70E DUP3 PUSH2 0xDC0 JUMP JUMPDEST PUSH20 0xFFFFFFFFFFFFFFFFFFFFFFFFFFFFFFFFFFFFFFFF AND EQ PUSH2 0x764 JUMPI PUSH1 0x40 MLOAD PUSH32 0x8C379A000000000000000000000000000000000000000000000000000000000 DUP2 MSTORE PUSH1 0x4 ADD PUSH2 0x75B SWAP1 PUSH2 0x3D32 JUMP JUMPDEST PUSH1 0x40 MLOAD DUP1 SWAP2 SUB SWAP1 REVERT JUMPDEST PUSH0 PUSH1 0x9 PUSH0 DUP4 DUP2 MSTORE PUSH1 0x20 ADD SWAP1 DUP2 MSTORE PUSH1 0x20 ADD PUSH0 KECCAK256 PUSH0 SWAP1 SLOAD SWAP1 PUSH2 0x100 EXP SWAP1 DIV PUSH1 0xFF AND SWAP1 POP PUSH0 PUSH1 0xA PUSH0 DUP5 DUP2 MSTORE PUSH1 0x20 ADD SWAP1 DUP2 MSTORE PUSH1 0x20 ADD PUSH0 KECCAK256 SWAP1 POP PUSH0 TIMESTAMP SWAP1 POP PUSH0 PUSH1 0x3 DUP2 GT ISZERO PUSH2 0x7B0 JUMPI PUSH2 0x7AF PUSH2 0x3A02 JUMP JUMPDEST JUMPDEST DUP4 PUSH1 0x3 DUP2 GT ISZERO PUSH2 0x7C3 JUMPI PUSH2 0x7C2 PUSH2 0x3A02 JUMP JUMPDEST JUMPDEST SUB PUSH2 0x7E4 JUMPI PUSH2 0x7D8 DUP2 DUP4 PUSH0 ADD SLOAD PUSH2 0x2A30 PUSH2 0x1FDE JUMP JUMPDEST DUP3 PUSH0 ADD DUP2 SWAP1 SSTORE POP PUSH2 0x8B5 JUMP JUMPDEST PUSH1 0x1 PUSH1 0x3 DUP2 GT ISZERO PUSH2 0x7F8 JUMPI PUSH2 0x7F7 PUSH2 0x3A02 JUMP JUMPDEST JUMPDEST DUP4 PUSH1 0x3 DUP2 GT ISZERO PUSH2 0x80B JUMPI PUSH2 0x80A PUSH2 0x3A02 JUMP JUMPDEST JUMPDEST SUB PUSH2 0x82E JUMPI PUSH2 0x821 DUP2 DUP4 PUSH1 0x1 ADD SLOAD PUSH2 0x2A30 PUSH2 0x1FDE JUMP JUMPDEST DUP3 PUSH1 0x1 ADD DUP2 SWAP1 SSTORE POP PUSH2 0x8B4 JUMP JUMPDEST PUSH1 0x2 PUSH1 0x3 DUP2 GT ISZERO PUSH2 0x842 JUMPI PUSH2 0x841 PUSH2 0x3A02 JUMP JUMPDEST JUMPDEST DUP4 PUSH1 0x3 DUP2 GT ISZERO PUSH2 0x855 JUMPI PUSH2 0x854 PUSH2 0x3A02 JUMP JUMPDEST JUMPDEST SUB PUSH2 0x878 JUMPI PUSH2 0x86B DUP2 DUP4 PUSH1 0x2 ADD SLOAD PUSH2 0x2A30 PUSH2 0x1FDE JUMP JUMPDEST DUP3 PUSH1 0x2 ADD DUP2 SWAP1 SSTORE POP PUSH2 0x8B3 JUMP JUMPDEST PUSH1 0x40 MLOAD PUSH32 0x8C379A000000000000000000000000000000000000000000000000000000000 DUP2 MSTORE PUSH1 0x4 ADD PUSH2 0x8AA SWAP1 PUSH2 0x3D9A JUMP JUMPDEST PUSH1 0x40 MLOAD DUP1 SWAP2 SUB SWAP1 REVERT JUMPDEST JUMPDEST JUMPDEST DUP1 DUP5 PUSH32 0x21EEEE734B533A3B3A112F894043A967BA558D457EF10B84AA8D9025690F6004 PUSH1 0x40 MLOAD PUSH1 0x40 MLOAD DUP1 SWAP2 SUB SWAP1 LOG3 POP POP POP POP JUMP JUMPDEST PUSH0 PUSH2 0x8F3 DUP3 PUSH2 0x200D JUMP JUMPDEST SWAP1 POP SWAP2 SWAP1 POP JUMP JUMPDEST PUSH1 0x60 PUSH0 DUP1 SLOAD PUSH2 0x908 SWAP1 PUSH2 0x3DE5 JUMP JUMPDEST DUP1 PUSH1 0x1F ADD PUSH1 0x20 DUP1 SWAP2 DIV MUL PUSH1 0x20 ADD PUSH1 0x40 MLOAD SWAP1 DUP2 ADD PUSH1 0x40 MSTORE DUP1 SWAP3 SWAP2 SWAP1 DUP2 DUP2 MSTORE PUSH1 0x20 ADD DUP3 DUP1 SLOAD PUSH2 0x934 SWAP1 PUSH2 0x3DE5 JUMP JUMPDEST DUP1 ISZERO PUSH2 0x97F JUMPI DUP1 PUSH1 0x1F LT PUSH2 0x956 JUMPI PUSH2 0x100 DUP1 DUP4 SLOAD DIV MUL DUP4 MSTORE SWAP2 PUSH1 0x20 ADD SWAP2 PUSH2 0x97F JUMP JUMPDEST DUP3 ADD SWAP2 SWAP1 PUSH0 MSTORE PUSH1 0x20 PUSH0 KECCAK256 SWAP1 JUMPDEST DUP2 SLOAD DUP2 MSTORE SWAP1 PUSH1 0x1 ADD SWAP1 PUSH1 0x20 ADD DUP1 DUP4 GT PUSH2 0x962 JUMPI DUP3 SWAP1 SUB PUSH1 0x1F AND DUP3 ADD SWAP2 JUMPDEST POP POP POP POP POP SWAP1 POP SWAP1 JUMP JUMPDEST PUSH0 PUSH2 0x993 DUP3 PUSH2 0x206D JUMP JUMPDEST POP PUSH2 0x99D DUP3 PUSH2 0x20F3 JUMP JUMPDEST SWAP1 POP SWAP2 SWAP1 POP JUMP JUMPDEST PUSH2 0x9B6 DUP3 DUP3 PUSH2 0x9B1 PUSH2 0x212C JUMP JUMPDEST PUSH2 0x2133 JUMP JUMPDEST POP POP JUMP JUMPDEST PUSH1 0x14 PUSH0 SWAP1 SLOAD SWAP1 PUSH2 0x100 EXP SWAP1 DIV PUSH1 0xFF AND DUP2 JUMP JUMPDEST PUSH2 0x9D4 PUSH2 0x2145 JUMP JUMPDEST DUP2 DUP2 PUSH1 0xF SWAP2 DUP3 PUSH2 0x9E5 SWAP3 SWAP2 SWAP1 PUSH2 0x3FBC JUMP JUMPDEST POP POP POP JUMP JUMPDEST PUSH2 0x9F2 PUSH2 0x2145 JUMP JUMPDEST PUSH0 PUSH1 0x9 PUSH0 DUP4 DUP2 MSTORE PUSH1 0x20 ADD SWAP1 DUP2 MSTORE PUSH1 0x20 ADD PUSH0 KECCAK256 PUSH0 SWAP1 SLOAD SWAP1 PUSH2 0x100 EXP SWAP1 DIV PUSH1 0xFF AND SWAP1 POP PUSH0 PUSH1 0x3 DUP2 GT ISZERO PUSH2 0xA26 JUMPI PUSH2 0xA25 PUSH2 0x3A02 JUMP JUMPDEST JUMPDEST DUP2 PUSH1 0x3 DUP2 GT ISZERO PUSH2 0xA39 JUMPI PUSH2 0xA38 PUSH2 0x3A02 JUMP JUMPDEST JUMPDEST SUB PUSH2 0xAC3 JUMPI PUSH1 0x1 PUSH1 0x9 PUSH0 DUP5 DUP2 MSTORE PUSH1 0x20 ADD SWAP1 DUP2 MSTORE PUSH1 0x20 ADD PUSH0 KECCAK256 PUSH0 PUSH2 0x100 EXP DUP2 SLOAD DUP2 PUSH1 0xFF MUL NOT AND SWAP1 DUP4 PUSH1 0x3 DUP2 GT ISZERO PUSH2 0xA72 JUMPI PUSH2 0xA71 PUSH2 0x3A02 JUMP JUMPDEST JUMPDEST MUL OR SWAP1 SSTORE POP PUSH2 0xA7F PUSH2 0x21CC JUMP JUMPDEST PUSH1 0x8 PUSH0 DUP5 DUP2 MSTORE PUSH1 0x20 ADD SWAP1 DUP2 MSTORE PUSH1 0x20 ADD PUSH0 KECCAK256 PUSH1 0x1 ADD DUP2 SWAP1 SSTORE POP PUSH3 0x2A300 TIMESTAMP PUSH2 0xAA6 SWAP2 SWAP1 PUSH2 0x40B6 JUMP JUMPDEST PUSH1 0xA PUSH0 DUP5 DUP2 MSTORE PUSH1 0x20 ADD SWAP1 DUP2 MSTORE PUSH1 0x20 ADD PUSH0 KECCAK256 PUSH1 0x1 ADD DUP2 SWAP1 SSTORE POP PUSH2 0xBFB JUMP JUMPDEST PUSH1 0x1 PUSH1 0x3 DUP2 GT ISZERO PUSH2 0xAD7 JUMPI PUSH2 0xAD6 PUSH2 0x3A02 JUMP JUMPDEST JUMPDEST DUP2 PUSH1 0x3 DUP2 GT ISZERO PUSH2 0xAEA JUMPI PUSH2 0xAE9 PUSH2 0x3A02 JUMP JUMPDEST JUMPDEST SUB PUSH2 0xB54 JUMPI PUSH1 0x2 PUSH1 0x9 PUSH0 DUP5 DUP2 MSTORE PUSH1 0x20 ADD SWAP1 DUP2 MSTORE PUSH1 0x20 ADD PUSH0 KECCAK256 PUSH0 PUSH2 0x100 EXP DUP2 SLOAD DUP2 PUSH1 0xFF MUL NOT AND SWAP1 DUP4 PUSH1 0x3 DUP2 GT ISZERO PUSH2 0xB23 JUMPI PUSH2 0xB22 PUSH2 0x3A02 JUMP JUMPDEST JUMPDEST MUL OR SWAP1 SSTORE POP PUSH3 0x3F480 TIMESTAMP PUSH2 0xB37 SWAP2 SWAP1 PUSH2 0x40B6 JUMP JUMPDEST PUSH1 0xA PUSH0 DUP5 DUP2 MSTORE PUSH1 0x20 ADD SWAP1 DUP2 MSTORE PUSH1 0x20 ADD PUSH0 KECCAK256 PUSH1 0x2 ADD DUP2 SWAP1 SSTORE POP PUSH2 0xBFA JUMP JUMPDEST PUSH1 0x2 PUSH1 0x3 DUP2 GT ISZERO PUSH2 0xB68 JUMPI PUSH2 0xB67 PUSH2 0x3A02 JUMP JUMPDEST JUMPDEST DUP2 PUSH1 0x3 DUP2 GT ISZERO PUSH2 0xB7B JUMPI PUSH2 0xB7A PUSH2 0x3A02 JUMP JUMPDEST JUMPDEST SUB PUSH2 0xBBE JUMPI PUSH1 0x3 PUSH1 0x9 PUSH0 DUP5 DUP2 MSTORE PUSH1 0x20 ADD SWAP1 DUP2 MSTORE PUSH1 0x20 ADD PUSH0 KECCAK256 PUSH0 PUSH2 0x100 EXP DUP2 SLOAD DUP2 PUSH1 0xFF MUL NOT AND SWAP1 DUP4 PUSH1 0x3 DUP2 GT ISZERO PUSH2 0xBB4 JUMPI PUSH2 0xBB3 PUSH2 0x3A02 JUMP JUMPDEST JUMPDEST MUL OR SWAP1 SSTORE POP PUSH2 0xBF9 JUMP JUMPDEST PUSH1 0x40 MLOAD PUSH32 0x8C379A000000000000000000000000000000000000000000000000000000000 DUP2 MSTORE PUSH1 0x4 ADD PUSH2 0xBF0 SWAP1 PUSH2 0x4133 JUMP JUMPDEST PUSH1 0x40 MLOAD DUP1 SWAP2 SUB SWAP1 REVERT JUMPDEST JUMPDEST JUMPDEST POP POP JUMP JUMPDEST PUSH0 PUSH20 0xFFFFFFFFFFFFFFFFFFFFFFFFFFFFFFFFFFFFFFFF AND DUP3 PUSH20 0xFFFFFFFFFFFFFFFFFFFFFFFFFFFFFFFFFFFFFFFF AND SUB PUSH2 0xC6F JUMPI PUSH0 PUSH1 0x40 MLOAD PUSH32 0x64A0AE9200000000000000000000000000000000000000000000000000000000 DUP2 MSTORE PUSH1 0x4 ADD PUSH2 0xC66 SWAP2 SWAP1 PUSH2 0x35D3 JUMP JUMPDEST PUSH1 0x40 MLOAD DUP1 SWAP2 SUB SWAP1 REVERT JUMPDEST PUSH0 PUSH2 0xC82 DUP4 DUP4 PUSH2 0xC7D PUSH2 0x212C JUMP JUMPDEST PUSH2 0x2230 JUMP JUMPDEST SWAP1 POP DUP4 PUSH20 0xFFFFFFFFFFFFFFFFFFFFFFFFFFFFFFFFFFFFFFFF AND DUP2 PUSH20 0xFFFFFFFFFFFFFFFFFFFFFFFFFFFFFFFFFFFFFFFF AND EQ PUSH2 0xCF8 JUMPI DUP4 DUP3 DUP3 PUSH1 0x40 MLOAD PUSH32 0x64283D7B00000000000000000000000000000000000000000000000000000000 DUP2 MSTORE PUSH1 0x4 ADD PUSH2 0xCEF SWAP4 SWAP3 SWAP2 SWAP1 PUSH2 0x4151 JUMP JUMPDEST PUSH1 0x40 MLOAD DUP1 SWAP2 SUB SWAP1 REVERT JUMPDEST POP POP POP POP JUMP JUMPDEST PUSH2 0xD06 PUSH2 0x2145 JUMP JUMPDEST DUP1 PUSH1 0x14 PUSH0 PUSH2 0x100 EXP DUP2 SLOAD DUP2 PUSH1 0xFF MUL NOT AND SWAP1 DUP4 ISZERO ISZERO MUL OR SWAP1 SSTORE POP POP JUMP JUMPDEST PUSH2 0xD2A PUSH2 0x2145 JUMP JUMPDEST DUP2 DUP2 PUSH1 0x11 SWAP2 DUP3 PUSH2 0xD3B SWAP3 SWAP2 SWAP1 PUSH2 0x3FBC JUMP JUMPDEST POP POP POP JUMP JUMPDEST PUSH1 0x13 PUSH0 DUP2 SLOAD DUP1 SWAP3 SWAP2 SWAP1 PUSH2 0xD52 SWAP1 PUSH2 0x4186 JUMP JUMPDEST SWAP2 SWAP1 POP SSTORE POP PUSH2 0xD67 DUP3 DUP3 PUSH0 DUP1 PUSH1 0x1 DUP9 PUSH0 PUSH2 0x243B JUMP JUMPDEST POP POP POP POP JUMP JUMPDEST PUSH2 0xD87 DUP4 DUP4 DUP4 PUSH1 0x40 MLOAD DUP1 PUSH1 0x20 ADD PUSH1 0x40 MSTORE DUP1 PUSH0 DUP2 MSTORE POP PUSH2 0x13FC JUMP JUMPDEST POP POP POP JUMP JUMPDEST PUSH0 DUP1 PUSH1 0x12 PUSH0 DUP5 DUP2 MSTORE PUSH1 0x20 ADD SWAP1 DUP2 MSTORE PUSH1 0x20 ADD PUSH0 KECCAK256 PUSH0 ADD SLOAD SWAP2 POP PUSH1 0x12 PUSH0 DUP5 DUP2 MSTORE PUSH1 0x20 ADD SWAP1 DUP2 MSTORE PUSH1 0x20 ADD PUSH0 KECCAK256 PUSH1 0x1 ADD SLOAD SWAP1 POP SWAP2 POP SWAP2 JUMP JUMPDEST PUSH0 PUSH2 0xDCA DUP3 PUSH2 0x206D JUMP JUMPDEST SWAP1 POP SWAP2 SWAP1 POP JUMP JUMPDEST PUSH0 DUP1 PUSH20 0xFFFFFFFFFFFFFFFFFFFFFFFFFFFFFFFFFFFFFFFF AND DUP3 PUSH20 0xFFFFFFFFFFFFFFFFFFFFFFFFFFFFFFFFFFFFFFFF AND SUB PUSH2 0xE42 JUMPI PUSH0 PUSH1 0x40 MLOAD PUSH32 0x89C62B6400000000000000000000000000000000000000000000000000000000 DUP2 MSTORE PUSH1 0x4 ADD PUSH2 0xE39 SWAP2 SWAP1 PUSH2 0x35D3 JUMP JUMPDEST PUSH1 0x40 MLOAD DUP1 SWAP2 SUB SWAP1 REVERT JUMPDEST PUSH1 0x3 PUSH0 DUP4 PUSH20 0xFFFFFFFFFFFFFFFFFFFFFFFFFFFFFFFFFFFFFFFF AND PUSH20 0xFFFFFFFFFFFFFFFFFFFFFFFFFFFFFFFFFFFFFFFF AND DUP2 MSTORE PUSH1 0x20 ADD SWAP1 DUP2 MSTORE PUSH1 0x20 ADD PUSH0 KECCAK256 SLOAD SWAP1 POP SWAP2 SWAP1 POP JUMP JUMPDEST PUSH2 0xE8F PUSH2 0x2145 JUMP JUMPDEST PUSH2 0xE98 PUSH0 PUSH2 0x2660 JUMP JUMPDEST JUMP JUMPDEST PUSH1 0x14 PUSH0 SWAP1 SLOAD SWAP1 PUSH2 0x100 EXP SWAP1 DIV PUSH1 0xFF AND PUSH2 0xEE8 JUMPI PUSH1 0x40 MLOAD PUSH32 0x8C379A000000000000000000000000000000000000000000000000000000000 DUP2 MSTORE PUSH1 0x4 ADD PUSH2 0xEDF SWAP1 PUSH2 0x4217 JUMP JUMPDEST PUSH1 0x40 MLOAD DUP1 SWAP2 SUB SWAP1 REVERT JUMPDEST PUSH1 0x13 PUSH0 DUP2 SLOAD DUP1 SWAP3 SWAP2 SWAP1 PUSH2 0xEFA SWAP1 PUSH2 0x4186 JUMP JUMPDEST SWAP2 SWAP1 POP SSTORE POP PUSH2 0xF10 DUP3 DUP3 PUSH0 DUP1 PUSH1 0x1 DUP9 PUSH1 0x1 PUSH2 0x243B JUMP JUMPDEST POP POP POP POP JUMP JUMPDEST PUSH0 PUSH1 0x7 PUSH0 SWAP1 SLOAD SWAP1 PUSH2 0x100 EXP SWAP1 DIV PUSH20 0xFFFFFFFFFFFFFFFFFFFFFFFFFFFFFFFFFFFFFFFF AND SWAP1 POP SWAP1 JUMP JUMPDEST PUSH1 0x60 PUSH0 PUSH1 0xC SLOAD SWAP1 POP PUSH0 DUP1 DUP3 PUSH8 0xFFFFFFFFFFFFFFFF DUP2 GT ISZERO PUSH2 0xF62 JUMPI PUSH2 0xF61 PUSH2 0x3AA0 JUMP JUMPDEST JUMPDEST PUSH1 0x40 MLOAD SWAP1 DUP1 DUP3 MSTORE DUP1 PUSH1 0x20 MUL PUSH1 0x20 ADD DUP3 ADD PUSH1 0x40 MSTORE DUP1 ISZERO PUSH2 0xF90 JUMPI DUP2 PUSH1 0x20 ADD PUSH1 0x20 DUP3 MUL DUP1 CALLDATASIZE DUP4 CALLDATACOPY DUP1 DUP3 ADD SWAP2 POP POP SWAP1 POP JUMPDEST POP SWAP1 POP PUSH0 PUSH1 0x1 SWAP1 POP JUMPDEST DUP4 DUP2 GT PUSH2 0x101D JUMPI DUP6 PUSH20 0xFFFFFFFFFFFFFFFFFFFFFFFFFFFFFFFFFFFFFFFF AND PUSH2 0xFC0 DUP3 PUSH2 0xDC0 JUMP JUMPDEST PUSH20 0xFFFFFFFFFFFFFFFFFFFFFFFFFFFFFFFFFFFFFFFF AND SUB PUSH2 0x100A JUMPI DUP1 DUP3 DUP5 DUP2 MLOAD DUP2 LT PUSH2 0xFEF JUMPI PUSH2 0xFEE PUSH2 0x4235 JUMP JUMPDEST JUMPDEST PUSH1 0x20 MUL PUSH1 0x20 ADD ADD DUP2 DUP2 MSTORE POP POP DUP3 DUP1 PUSH2 0x1006 SWAP1 PUSH2 0x4186 JUMP JUMPDEST SWAP4 POP POP JUMPDEST DUP1 DUP1 PUSH2 0x1015 SWAP1 PUSH2 0x4186 JUMP JUMPDEST SWAP2 POP POP PUSH2 0xF99 JUMP JUMPDEST POP DUP2 DUP2 MSTORE DUP1 SWAP4 POP POP POP POP SWAP2 SWAP1 POP JUMP JUMPDEST PUSH1 0x60 PUSH1 0x1 DUP1 SLOAD PUSH2 0x103B SWAP1 PUSH2 0x3DE5 JUMP JUMPDEST DUP1 PUSH1 0x1F ADD PUSH1 0x20 DUP1 SWAP2 DIV MUL PUSH1 0x20 ADD PUSH1 0x40 MLOAD SWAP1 DUP2 ADD PUSH1 0x40 MSTORE DUP1 SWAP3 SWAP2 SWAP1 DUP2 DUP2 MSTORE PUSH1 0x20 ADD DUP3 DUP1 SLOAD PUSH2 0x1067 SWAP1 PUSH2 0x3DE5 JUMP JUMPDEST DUP1 ISZERO PUSH2 0x10B2 JUMPI DUP1 PUSH1 0x1F LT PUSH2 0x1089 JUMPI PUSH2 0x100 DUP1 DUP4 SLOAD DIV MUL DUP4 MSTORE SWAP2 PUSH1 0x20 ADD SWAP2 PUSH2 0x10B2 JUMP JUMPDEST DUP3 ADD SWAP2 SWAP1 PUSH0 MSTORE PUSH1 0x20 PUSH0 KECCAK256 SWAP1 JUMPDEST DUP2 SLOAD DUP2 MSTORE SWAP1 PUSH1 0x1 ADD SWAP1 PUSH1 0x20 ADD DUP1 DUP4 GT PUSH2 0x1095 JUMPI DUP3 SWAP1 SUB PUSH1 0x1F AND DUP3 ADD SWAP2 JUMPDEST POP POP POP POP POP SWAP1 POP SWAP1 JUMP JUMPDEST PUSH1 0x13 SLOAD DUP2 JUMP JUMPDEST PUSH0 CALLER PUSH20 0xFFFFFFFFFFFFFFFFFFFFFFFFFFFFFFFFFFFFFFFF AND PUSH2 0x10E3 DUP5 PUSH2 0xDC0 JUMP JUMPDEST PUSH20 0xFFFFFFFFFFFFFFFFFFFFFFFFFFFFFFFFFFFFFFFF AND EQ DUP1 ISZERO PUSH2 0x1139 JUMPI POP CALLER PUSH20 0xFFFFFFFFFFFFFFFFFFFFFFFFFFFFFFFFFFFFFFFF AND PUSH2 0x1121 DUP4 PUSH2 0xDC0 JUMP JUMPDEST PUSH20 0xFFFFFFFFFFFFFFFFFFFFFFFFFFFFFFFFFFFFFFFF AND EQ JUMPDEST PUSH2 0x1178 JUMPI PUSH1 0x40 MLOAD PUSH32 0x8C379A000000000000000000000000000000000000000000000000000000000 DUP2 MSTORE PUSH1 0x4 ADD PUSH2 0x116F SWAP1 PUSH2 0x3D32 JUMP JUMPDEST PUSH1 0x40 MLOAD DUP1 SWAP2 SUB SWAP1 REVERT JUMPDEST PUSH2 0x1182 DUP4 DUP4 PUSH2 0x2723 JUMP JUMPDEST ISZERO PUSH2 0x11C2 JUMPI PUSH1 0x40 MLOAD PUSH32 0x8C379A000000000000000000000000000000000000000000000000000000000 DUP2 MSTORE PUSH1 0x4 ADD PUSH2 0x11B9 SWAP1 PUSH2 0x42AC JUMP JUMPDEST PUSH1 0x40 MLOAD DUP1 SWAP2 SUB SWAP1 REVERT JUMPDEST PUSH2 0x11CB DUP4 PUSH2 0x2795 JUMP JUMPDEST DUP1 ISZERO PUSH2 0x11DC JUMPI POP PUSH2 0x11DB DUP3 PUSH2 0x2795 JUMP JUMPDEST JUMPDEST PUSH2 0x121B JUMPI PUSH1 0x40 MLOAD PUSH32 0x8C379A000000000000000000000000000000000000000000000000000000000 DUP2 MSTORE PUSH1 0x4 ADD PUSH2 0x1212 SWAP1 PUSH2 0x4314 JUMP JUMPDEST PUSH1 0x40 MLOAD DUP1 SWAP2 SUB SWAP1 REVERT JUMPDEST PUSH2 0x1225 DUP4 DUP4 PUSH2 0x27B3 JUMP JUMPDEST PUSH2 0x1264 JUMPI PUSH1 0x40 MLOAD PUSH32 0x8C379A000000000000000000000000000000000000000000000000000000000 DUP2 MSTORE PUSH1 0x4 ADD PUSH2 0x125B SWAP1 PUSH2 0x437C JUMP JUMPDEST PUSH1 0x40 MLOAD DUP1 SWAP2 SUB SWAP1 REVERT JUMPDEST PUSH2 0x126D DUP4 PUSH2 0x27F2 JUMP JUMPDEST PUSH2 0x1276 DUP3 PUSH2 0x27F2 JUMP JUMPDEST PUSH0 PUSH2 0x1283 DUP7 DUP7 DUP7 DUP7 PUSH2 0x2844 JUMP JUMPDEST SWAP1 POP DUP1 DUP4 DUP6 PUSH32 0x57F2B9F5C840C33473A81F7A678B3B71541515153FE9C4CCB4D909C5CA3F7D44 PUSH1 0x40 MLOAD PUSH1 0x40 MLOAD DUP1 SWAP2 SUB SWAP1 LOG4 DUP1 SWAP2 POP POP SWAP5 SWAP4 POP POP POP POP JUMP JUMPDEST PUSH2 0x12D2 PUSH2 0x12CB PUSH2 0x212C JUMP JUMPDEST DUP4 DUP4 PUSH2 0x28BC JUMP JUMPDEST POP POP JUMP JUMPDEST PUSH0 DUP1 PUSH1 0x9 PUSH0 DUP5 DUP2 MSTORE PUSH1 0x20 ADD SWAP1 DUP2 MSTORE PUSH1 0x20 ADD PUSH0 KECCAK256 PUSH0 SWAP1 SLOAD SWAP1 PUSH2 0x100 EXP SWAP1 DIV PUSH1 0xFF AND SWAP2 POP PUSH0 TIMESTAMP SWAP1 POP PUSH0 DUP1 PUSH1 0x3 DUP2 GT ISZERO PUSH2 0x1310 JUMPI PUSH2 0x130F PUSH2 0x3A02 JUMP JUMPDEST JUMPDEST DUP5 PUSH1 0x3 DUP2 GT ISZERO PUSH2 0x1323 JUMPI PUSH2 0x1322 PUSH2 0x3A02 JUMP JUMPDEST JUMPDEST SUB PUSH2 0x1343 JUMPI PUSH1 0xA PUSH0 DUP7 DUP2 MSTORE PUSH1 0x20 ADD SWAP1 DUP2 MSTORE PUSH1 0x20 ADD PUSH0 KECCAK256 PUSH0 ADD SLOAD SWAP1 POP PUSH2 0x13D9 JUMP JUMPDEST PUSH1 0x1 PUSH1 0x3 DUP2 GT ISZERO PUSH2 0x1357 JUMPI PUSH2 0x1356 PUSH2 0x3A02 JUMP JUMPDEST JUMPDEST DUP5 PUSH1 0x3 DUP2 GT ISZERO PUSH2 0x136A JUMPI PUSH2 0x1369 PUSH2 0x3A02 JUMP JUMPDEST JUMPDEST SUB PUSH2 0x138B JUMPI PUSH1 0xA PUSH0 DUP7 DUP2 MSTORE PUSH1 0x20 ADD SWAP1 DUP2 MSTORE PUSH1 0x20 ADD PUSH0 KECCAK256 PUSH1 0x1 ADD SLOAD SWAP1 POP PUSH2 0x13D8 JUMP JUMPDEST PUSH1 0x2 PUSH1 0x3 DUP2 GT ISZERO PUSH2 0x139F JUMPI PUSH2 0x139E PUSH2 0x3A02 JUMP JUMPDEST JUMPDEST DUP5 PUSH1 0x3 DUP2 GT ISZERO PUSH2 0x13B2 JUMPI PUSH2 0x13B1 PUSH2 0x3A02 JUMP JUMPDEST JUMPDEST SUB PUSH2 0x13D3 JUMPI PUSH1 0xA PUSH0 DUP7 DUP2 MSTORE PUSH1 0x20 ADD SWAP1 DUP2 MSTORE PUSH1 0x20 ADD PUSH0 KECCAK256 PUSH1 0x2 ADD SLOAD SWAP1 POP PUSH2 0x13D7 JUMP JUMPDEST PUSH0 SWAP1 POP JUMPDEST JUMPDEST JUMPDEST DUP2 DUP2 GT PUSH2 0x13E6 JUMPI PUSH0 PUSH2 0x13F3 JUMP JUMPDEST DUP2 DUP2 PUSH2 0x13F2 SWAP2 SWAP1 PUSH2 0x439A JUMP JUMPDEST JUMPDEST SWAP3 POP POP POP SWAP2 POP SWAP2 JUMP JUMPDEST PUSH2 0x1407 DUP5 DUP5 DUP5 PUSH2 0xBFF JUMP JUMPDEST PUSH2 0x1413 DUP5 DUP5 DUP5 DUP5 PUSH2 0x2A25 JUMP JUMPDEST POP POP POP POP JUMP JUMPDEST PUSH2 0x1421 PUSH2 0x2145 JUMP JUMPDEST DUP2 DUP2 PUSH1 0x10 SWAP2 DUP3 PUSH2 0x1432 SWAP3 SWAP2 SWAP1 PUSH2 0x3FBC JUMP JUMPDEST POP POP POP JUMP JUMPDEST PUSH1 0x60 PUSH0 PUSH1 0xE DUP1 SLOAD PUSH2 0x1447 SWAP1 PUSH2 0x3DE5 JUMP JUMPDEST SWAP1 POP GT ISZERO PUSH2 0x1481 JUMPI PUSH1 0xE PUSH2 0x145A DUP4 PUSH2 0x2BD7 JUMP JUMPDEST PUSH1 0x40 MLOAD PUSH1 0x20 ADD PUSH2 0x146B SWAP3 SWAP2 SWAP1 PUSH2 0x4487 JUMP JUMPDEST PUSH1 0x40 MLOAD PUSH1 0x20 DUP2 DUP4 SUB SUB DUP2 MSTORE SWAP1 PUSH1 0x40 MSTORE SWAP1 POP PUSH2 0x18A2 JUMP JUMPDEST PUSH1 0x60 PUSH0 PUSH1 0x3 DUP2 GT ISZERO PUSH2 0x1496 JUMPI PUSH2 0x1495 PUSH2 0x3A02 JUMP JUMPDEST JUMPDEST PUSH1 0x9 PUSH0 DUP6 DUP2 MSTORE PUSH1 0x20 ADD SWAP1 DUP2 MSTORE PUSH1 0x20 ADD PUSH0 KECCAK256 PUSH0 SWAP1 SLOAD SWAP1 PUSH2 0x100 EXP SWAP1 DIV PUSH1 0xFF AND PUSH1 0x3 DUP2 GT ISZERO PUSH2 0x14C6 JUMPI PUSH2 0x14C5 PUSH2 0x3A02 JUMP JUMPDEST JUMPDEST SUB PUSH2 0x1504 JUMPI PUSH1 0x8 PUSH0 DUP5 DUP2 MSTORE PUSH1 0x20 ADD SWAP1 DUP2 MSTORE PUSH1 0x20 ADD PUSH0 KECCAK256 PUSH0 ADD PUSH1 0x40 MLOAD PUSH1 0x20 ADD PUSH2 0x14EE SWAP2 SWAP1 PUSH2 0x44F4 JUMP JUMPDEST PUSH1 0x40 MLOAD PUSH1 0x20 DUP2 DUP4 SUB SUB DUP2 MSTORE SWAP1 PUSH1 0x40 MSTORE SWAP1 POP PUSH2 0x185A JUMP JUMPDEST PUSH1 0x60 PUSH1 0x8 PUSH0 DUP6 DUP2 MSTORE PUSH1 0x20 ADD SWAP1 DUP2 MSTORE PUSH1 0x20 ADD PUSH0 KECCAK256 PUSH1 0x5 ADD PUSH0 SWAP1 SLOAD SWAP1 PUSH2 0x100 EXP SWAP1 DIV PUSH1 0xFF AND ISZERO PUSH2 0x15C1 JUMPI PUSH1 0x1 PUSH1 0x8 PUSH0 DUP7 DUP2 MSTORE PUSH1 0x20 ADD SWAP1 DUP2 MSTORE PUSH1 0x20 ADD PUSH0 KECCAK256 PUSH1 0x4 ADD SLOAD EQ PUSH2 0x1583 JUMPI PUSH1 0x40 MLOAD DUP1 PUSH1 0x40 ADD PUSH1 0x40 MSTORE DUP1 PUSH1 0x1 DUP2 MSTORE PUSH1 0x20 ADD PUSH32 0x6200000000000000000000000000000000000000000000000000000000000000 DUP2 MSTORE POP PUSH2 0x15BA JUMP JUMPDEST PUSH1 0x40 MLOAD DUP1 PUSH1 0x40 ADD PUSH1 0x40 MSTORE DUP1 PUSH1 0x1 DUP2 MSTORE PUSH1 0x20 ADD PUSH32 0x6700000000000000000000000000000000000000000000000000000000000000 DUP2 MSTORE POP JUMPDEST SWAP1 POP PUSH2 0x15FA JUMP JUMPDEST PUSH1 0x40 MLOAD DUP1 PUSH1 0x40 ADD PUSH1 0x40 MSTORE DUP1 PUSH1 0x1 DUP2 MSTORE PUSH1 0x20 ADD PUSH32 0x6E00000000000000000000000000000000000000000000000000000000000000 DUP2 MSTORE POP SWAP1 POP JUMPDEST PUSH0 PUSH1 0x1 PUSH1 0x8 PUSH0 DUP8 DUP2 MSTORE PUSH1 0x20 ADD SWAP1 DUP2 MSTORE PUSH1 0x20 ADD PUSH0 KECCAK256 PUSH1 0x1 ADD SLOAD EQ PUSH2 0x1652 JUMPI PUSH1 0x40 MLOAD DUP1 PUSH1 0x40 ADD PUSH1 0x40 MSTORE DUP1 PUSH1 0x1 DUP2 MSTORE PUSH1 0x20 ADD PUSH32 0x6600000000000000000000000000000000000000000000000000000000000000 DUP2 MSTORE POP PUSH2 0x1689 JUMP JUMPDEST PUSH1 0x40 MLOAD DUP1 PUSH1 0x40 ADD PUSH1 0x40 MSTORE DUP1 PUSH1 0x1 DUP2 MSTORE PUSH1 0x20 ADD PUSH32 0x6D00000000000000000000000000000000000000000000000000000000000000 DUP2 MSTORE POP JUMPDEST SWAP1 POP PUSH1 0x60 PUSH1 0x1 PUSH1 0x3 DUP2 GT ISZERO PUSH2 0x16A1 JUMPI PUSH2 0x16A0 PUSH2 0x3A02 JUMP JUMPDEST JUMPDEST PUSH1 0x9 PUSH0 DUP9 DUP2 MSTORE PUSH1 0x20 ADD SWAP1 DUP2 MSTORE PUSH1 0x20 ADD PUSH0 KECCAK256 PUSH0 SWAP1 SLOAD SWAP1 PUSH2 0x100 EXP SWAP1 DIV PUSH1 0xFF AND PUSH1 0x3 DUP2 GT ISZERO PUSH2 0x16D1 JUMPI PUSH2 0x16D0 PUSH2 0x3A02 JUMP JUMPDEST JUMPDEST SUB PUSH2 0x1713 JUMPI PUSH1 0x40 MLOAD DUP1 PUSH1 0x40 ADD PUSH1 0x40 MSTORE DUP1 PUSH1 0x5 DUP2 MSTORE PUSH1 0x20 ADD PUSH32 0x6861746368000000000000000000000000000000000000000000000000000000 DUP2 MSTORE POP SWAP1 POP PUSH2 0x181C JUMP JUMPDEST PUSH1 0x2 PUSH1 0x3 DUP2 GT ISZERO PUSH2 0x1727 JUMPI PUSH2 0x1726 PUSH2 0x3A02 JUMP JUMPDEST JUMPDEST PUSH1 0x9 PUSH0 DUP9 DUP2 MSTORE PUSH1 0x20 ADD SWAP1 DUP2 MSTORE PUSH1 0x20 ADD PUSH0 KECCAK256 PUSH0 SWAP1 SLOAD SWAP1 PUSH2 0x100 EXP SWAP1 DIV PUSH1 0xFF AND PUSH1 0x3 DUP2 GT ISZERO PUSH2 0x1757 JUMPI PUSH2 0x1756 PUSH2 0x3A02 JUMP JUMPDEST JUMPDEST SUB PUSH2 0x1799 JUMPI PUSH1 0x40 MLOAD DUP1 PUSH1 0x40 ADD PUSH1 0x40 MSTORE DUP1 PUSH1 0x9 DUP2 MSTORE PUSH1 0x20 ADD PUSH32 0x68617463686C696E670000000000000000000000000000000000000000000000 DUP2 MSTORE POP SWAP1 POP PUSH2 0x181B JUMP JUMPDEST PUSH1 0x3 DUP1 DUP2 GT ISZERO PUSH2 0x17AC JUMPI PUSH2 0x17AB PUSH2 0x3A02 JUMP JUMPDEST JUMPDEST PUSH1 0x9 PUSH0 DUP9 DUP2 MSTORE PUSH1 0x20 ADD SWAP1 DUP2 MSTORE PUSH1 0x20 ADD PUSH0 KECCAK256 PUSH0 SWAP1 SLOAD SWAP1 PUSH2 0x100 EXP SWAP1 DIV PUSH1 0xFF AND PUSH1 0x3 DUP2 GT ISZERO PUSH2 0x17DC JUMPI PUSH2 0x17DB PUSH2 0x3A02 JUMP JUMPDEST JUMPDEST SUB PUSH2 0x181A JUMPI PUSH1 0x40 MLOAD DUP1 PUSH1 0x40 ADD PUSH1 0x40 MSTORE DUP1 PUSH1 0x5 DUP2 MSTORE PUSH1 0x20 ADD PUSH32 0x6164756C74000000000000000000000000000000000000000000000000000000 DUP2 MSTORE POP SWAP1 POP JUMPDEST JUMPDEST JUMPDEST PUSH1 0x8 PUSH0 DUP8 DUP2 MSTORE PUSH1 0x20 ADD SWAP1 DUP2 MSTORE PUSH1 0x20 ADD PUSH0 KECCAK256 PUSH0 ADD DUP4 DUP4 DUP4 PUSH1 0x40 MLOAD PUSH1 0x20 ADD PUSH2 0x1845 SWAP5 SWAP4 SWAP3 SWAP2 SWAP1 PUSH2 0x455F JUMP JUMPDEST PUSH1 0x40 MLOAD PUSH1 0x20 DUP2 DUP4 SUB SUB DUP2 MSTORE SWAP1 PUSH1 0x40 MSTORE SWAP4 POP POP POP POP JUMPDEST PUSH2 0x1863 DUP4 PUSH2 0x2BD7 JUMP JUMPDEST PUSH1 0xF DUP3 PUSH1 0x11 PUSH1 0x8 PUSH0 DUP9 DUP2 MSTORE PUSH1 0x20 ADD SWAP1 DUP2 MSTORE PUSH1 0x20 ADD PUSH0 KECCAK256 PUSH0 ADD PUSH1 0x40 MLOAD PUSH1 0x20 ADD PUSH2 0x188F SWAP6 SWAP5 SWAP4 SWAP3 SWAP2 SWAP1 PUSH2 0x477D JUMP JUMPDEST PUSH1 0x40 MLOAD PUSH1 0x20 DUP2 DUP4 SUB SUB DUP2 MSTORE SWAP1 PUSH1 0x40 MSTORE SWAP2 POP POP JUMPDEST SWAP2 SWAP1 POP JUMP JUMPDEST PUSH1 0xE DUP1 SLOAD PUSH2 0x18B4 SWAP1 PUSH2 0x3DE5 JUMP JUMPDEST DUP1 PUSH1 0x1F ADD PUSH1 0x20 DUP1 SWAP2 DIV MUL PUSH1 0x20 ADD PUSH1 0x40 MLOAD SWAP1 DUP2 ADD PUSH1 0x40 MSTORE DUP1 SWAP3 SWAP2 SWAP1 DUP2 DUP2 MSTORE PUSH1 0x20 ADD DUP3 DUP1 SLOAD PUSH2 0x18E0 SWAP1 PUSH2 0x3DE5 JUMP JUMPDEST DUP1 ISZERO PUSH2 0x192B JUMPI DUP1 PUSH1 0x1F LT PUSH2 0x1902 JUMPI PUSH2 0x100 DUP1 DUP4 SLOAD DIV MUL DUP4 MSTORE SWAP2 PUSH1 0x20 ADD SWAP2 PUSH2 0x192B JUMP JUMPDEST DUP3 ADD SWAP2 SWAP1 PUSH0 MSTORE PUSH1 0x20 PUSH0 KECCAK256 SWAP1 JUMPDEST DUP2 SLOAD DUP2 MSTORE SWAP1 PUSH1 0x1 ADD SWAP1 PUSH1 0x20 ADD DUP1 DUP4 GT PUSH2 0x190E JUMPI DUP3 SWAP1 SUB PUSH1 0x1F AND DUP3 ADD SWAP2 JUMPDEST POP POP POP POP POP DUP2 JUMP JUMPDEST PUSH2 0x193B PUSH2 0x2145 JUMP JUMPDEST DUP2 DUP2 PUSH1 0xE SWAP2 DUP3 PUSH2 0x194C SWAP3 SWAP2 SWAP1 PUSH2 0x3FBC JUMP JUMPDEST POP POP POP JUMP JUMPDEST PUSH0 DUP1 PUSH0 DUP1 PUSH0 PUSH1 0x60 PUSH0 PUSH1 0x8 PUSH0 DUP10 DUP2 MSTORE PUSH1 0x20 ADD SWAP1 DUP2 MSTORE PUSH1 0x20 ADD PUSH0 KECCAK256 SWAP1 POP DUP1 PUSH1 0x1 ADD SLOAD DUP2 PUSH1 0x2 ADD SLOAD DUP3 PUSH1 0x3 ADD SLOAD DUP4 PUSH1 0x4 ADD SLOAD DUP5 PUSH1 0x6 ADD SLOAD DUP6 PUSH0 ADD DUP1 DUP1 SLOAD PUSH2 0x1994 SWAP1 PUSH2 0x3DE5 JUMP JUMPDEST DUP1 PUSH1 0x1F ADD PUSH1 0x20 DUP1 SWAP2 DIV MUL PUSH1 0x20 ADD PUSH1 0x40 MLOAD SWAP1 DUP2 ADD PUSH1 0x40 MSTORE DUP1 SWAP3 SWAP2 SWAP1 DUP2 DUP2 MSTORE PUSH1 0x20 ADD DUP3 DUP1 SLOAD PUSH2 0x19C0 SWAP1 PUSH2 0x3DE5 JUMP JUMPDEST DUP1 ISZERO PUSH2 0x1A0B JUMPI DUP1 PUSH1 0x1F LT PUSH2 0x19E2 JUMPI PUSH2 0x100 DUP1 DUP4 SLOAD DIV MUL DUP4 MSTORE SWAP2 PUSH1 0x20 ADD SWAP2 PUSH2 0x1A0B JUMP JUMPDEST DUP3 ADD SWAP2 SWAP1 PUSH0 MSTORE PUSH1 0x20 PUSH0 KECCAK256 SWAP1 JUMPDEST DUP2 SLOAD DUP2 MSTORE SWAP1 PUSH1 0x1 ADD SWAP1 PUSH1 0x20 ADD DUP1 DUP4 GT PUSH2 0x19EE JUMPI DUP3 SWAP1 SUB PUSH1 0x1F AND DUP3 ADD SWAP2 JUMPDEST POP POP POP POP POP SWAP1 POP SWAP7 POP SWAP7 POP SWAP7 POP SWAP7 POP SWAP7 POP SWAP7 POP POP SWAP2 SWAP4 SWAP6 POP SWAP2 SWAP4 SWAP6 JUMP JUMPDEST PUSH0 PUSH1 0x5 PUSH0 DUP5 PUSH20 0xFFFFFFFFFFFFFFFFFFFFFFFFFFFFFFFFFFFFFFFF AND PUSH20 0xFFFFFFFFFFFFFFFFFFFFFFFFFFFFFFFFFFFFFFFF AND DUP2 MSTORE PUSH1 0x20 ADD SWAP1 DUP2 MSTORE PUSH1 0x20 ADD PUSH0 KECCAK256 PUSH0 DUP4 PUSH20 0xFFFFFFFFFFFFFFFFFFFFFFFFFFFFFFFFFFFFFFFF AND PUSH20 0xFFFFFFFFFFFFFFFFFFFFFFFFFFFFFFFFFFFFFFFF AND DUP2 MSTORE PUSH1 0x20 ADD SWAP1 DUP2 MSTORE PUSH1 0x20 ADD PUSH0 KECCAK256 PUSH0 SWAP1 SLOAD SWAP1 PUSH2 0x100 EXP SWAP1 DIV PUSH1 0xFF AND SWAP1 POP SWAP3 SWAP2 POP POP JUMP JUMPDEST PUSH1 0x10 DUP1 SLOAD PUSH2 0x1AC3 SWAP1 PUSH2 0x3DE5 JUMP JUMPDEST DUP1 PUSH1 0x1F ADD PUSH1 0x20 DUP1 SWAP2 DIV MUL PUSH1 0x20 ADD PUSH1 0x40 MLOAD SWAP1 DUP2 ADD PUSH1 0x40 MSTORE DUP1 SWAP3 SWAP2 SWAP1 DUP2 DUP2 MSTORE PUSH1 0x20 ADD DUP3 DUP1 SLOAD PUSH2 0x1AEF SWAP1 PUSH2 0x3DE5 JUMP JUMPDEST DUP1 ISZERO PUSH2 0x1B3A JUMPI DUP1 PUSH1 0x1F LT PUSH2 0x1B11 JUMPI PUSH2 0x100 DUP1 DUP4 SLOAD DIV MUL DUP4 MSTORE SWAP2 PUSH1 0x20 ADD SWAP2 PUSH2 0x1B3A JUMP JUMPDEST DUP3 ADD SWAP2 SWAP1 PUSH0 MSTORE PUSH1 0x20 PUSH0 KECCAK256 SWAP1 JUMPDEST DUP2 SLOAD DUP2 MSTORE SWAP1 PUSH1 0x1 ADD SWAP1 PUSH1 0x20 ADD DUP1 DUP4 GT PUSH2 0x1B1D JUMPI DUP3 SWAP1 SUB PUSH1 0x1F AND DUP3 ADD SWAP2 JUMPDEST POP POP POP POP POP DUP2 JUMP JUMPDEST CALLER PUSH20 0xFFFFFFFFFFFFFFFFFFFFFFFFFFFFFFFFFFFFFFFF AND PUSH2 0x1B62 DUP3 PUSH2 0xDC0 JUMP JUMPDEST PUSH20 0xFFFFFFFFFFFFFFFFFFFFFFFFFFFFFFFFFFFFFFFF AND EQ PUSH2 0x1BB8 JUMPI PUSH1 0x40 MLOAD PUSH32 0x8C379A000000000000000000000000000000000000000000000000000000000 DUP2 MSTORE PUSH1 0x4 ADD PUSH2 0x1BAF SWAP1 PUSH2 0x3D32 JUMP JUMPDEST PUSH1 0x40 MLOAD DUP1 SWAP2 SUB SWAP1 REVERT JUMPDEST PUSH0 PUSH1 0x9 PUSH0 DUP4 DUP2 MSTORE PUSH1 0x20 ADD SWAP1 DUP2 MSTORE PUSH1 0x20 ADD PUSH0 KECCAK256 PUSH0 SWAP1 SLOAD SWAP1 PUSH2 0x100 EXP SWAP1 DIV PUSH1 0xFF AND SWAP1 POP PUSH0 TIMESTAMP SWAP1 POP PUSH0 PUSH1 0x3 DUP2 GT ISZERO PUSH2 0x1BF0 JUMPI PUSH2 0x1BEF PUSH2 0x3A02 JUMP JUMPDEST JUMPDEST DUP3 PUSH1 0x3 DUP2 GT ISZERO PUSH2 0x1C03 JUMPI PUSH2 0x1C02 PUSH2 0x3A02 JUMP JUMPDEST JUMPDEST EQ DUP1 ISZERO PUSH2 0x1C23 JUMPI POP PUSH1 0xA PUSH0 DUP5 DUP2 MSTORE PUSH1 0x20 ADD SWAP1 DUP2 MSTORE PUSH1 0x20 ADD PUSH0 KECCAK256 PUSH0 ADD SLOAD DUP2 LT ISZERO JUMPDEST ISZERO PUSH2 0x1CE3 JUMPI PUSH1 0x1 PUSH1 0x9 PUSH0 DUP6 DUP2 MSTORE PUSH1 0x20 ADD SWAP1 DUP2 MSTORE PUSH1 0x20 ADD PUSH0 KECCAK256 PUSH0 PUSH2 0x100 EXP DUP2 SLOAD DUP2 PUSH1 0xFF MUL NOT AND SWAP1 DUP4 PUSH1 0x3 DUP2 GT ISZERO PUSH2 0x1C5C JUMPI PUSH2 0x1C5B PUSH2 0x3A02 JUMP JUMPDEST JUMPDEST MUL OR SWAP1 SSTORE POP PUSH2 0x1C69 PUSH2 0x21CC JUMP JUMPDEST PUSH1 0x8 PUSH0 DUP6 DUP2 MSTORE PUSH1 0x20 ADD SWAP1 DUP2 MSTORE PUSH1 0x20 ADD PUSH0 KECCAK256 PUSH1 0x1 ADD DUP2 SWAP1 SSTORE POP PUSH3 0x2A300 DUP2 PUSH2 0x1C90 SWAP2 SWAP1 PUSH2 0x40B6 JUMP JUMPDEST PUSH1 0xA PUSH0 DUP6 DUP2 MSTORE PUSH1 0x20 ADD SWAP1 DUP2 MSTORE PUSH1 0x20 ADD PUSH0 KECCAK256 PUSH1 0x1 ADD DUP2 SWAP1 SSTORE POP DUP3 PUSH32 0x75D0C2D3465E305D01011D67A4FAAA50F6C6B307E33D72194A4BA97ACCE86975 PUSH1 0x40 MLOAD PUSH2 0x1CD6 SWAP1 PUSH2 0x483D JUMP JUMPDEST PUSH1 0x40 MLOAD DUP1 SWAP2 SUB SWAP1 LOG2 PUSH2 0x1EC9 JUMP JUMPDEST PUSH1 0x1 PUSH1 0x3 DUP2 GT ISZERO PUSH2 0x1CF7 JUMPI PUSH2 0x1CF6 PUSH2 0x3A02 JUMP JUMPDEST JUMPDEST DUP3 PUSH1 0x3 DUP2 GT ISZERO PUSH2 0x1D0A JUMPI PUSH2 0x1D09 PUSH2 0x3A02 JUMP JUMPDEST JUMPDEST EQ DUP1 ISZERO PUSH2 0x1D2B JUMPI POP PUSH1 0xA PUSH0 DUP5 DUP2 MSTORE PUSH1 0x20 ADD SWAP1 DUP2 MSTORE PUSH1 0x20 ADD PUSH0 KECCAK256 PUSH1 0x1 ADD SLOAD DUP2 LT ISZERO JUMPDEST ISZERO PUSH2 0x1DCB JUMPI PUSH1 0x2 PUSH1 0x9 PUSH0 DUP6 DUP2 MSTORE PUSH1 0x20 ADD SWAP1 DUP2 MSTORE PUSH1 0x20 ADD PUSH0 KECCAK256 PUSH0 PUSH2 0x100 EXP DUP2 SLOAD DUP2 PUSH1 0xFF MUL NOT AND SWAP1 DUP4 PUSH1 0x3 DUP2 GT ISZERO PUSH2 0x1D64 JUMPI PUSH2 0x1D63 PUSH2 0x3A02 JUMP JUMPDEST JUMPDEST MUL OR SWAP1 SSTORE POP PUSH3 0x3F480 DUP2 PUSH2 0x1D78 SWAP2 SWAP1 PUSH2 0x40B6 JUMP JUMPDEST PUSH1 0xA PUSH0 DUP6 DUP2 MSTORE PUSH1 0x20 ADD SWAP1 DUP2 MSTORE PUSH1 0x20 ADD PUSH0 KECCAK256 PUSH1 0x2 ADD DUP2 SWAP1 SSTORE POP DUP3 PUSH32 0x75D0C2D3465E305D01011D67A4FAAA50F6C6B307E33D72194A4BA97ACCE86975 PUSH1 0x40 MLOAD PUSH2 0x1DBE SWAP1 PUSH2 0x48A5 JUMP JUMPDEST PUSH1 0x40 MLOAD DUP1 SWAP2 SUB SWAP1 LOG2 PUSH2 0x1EC8 JUMP JUMPDEST PUSH1 0x2 PUSH1 0x3 DUP2 GT ISZERO PUSH2 0x1DDF JUMPI PUSH2 0x1DDE PUSH2 0x3A02 JUMP JUMPDEST JUMPDEST DUP3 PUSH1 0x3 DUP2 GT ISZERO PUSH2 0x1DF2 JUMPI PUSH2 0x1DF1 PUSH2 0x3A02 JUMP JUMPDEST JUMPDEST EQ DUP1 ISZERO PUSH2 0x1E13 JUMPI POP PUSH1 0xA PUSH0 DUP5 DUP2 MSTORE PUSH1 0x20 ADD SWAP1 DUP2 MSTORE PUSH1 0x20 ADD PUSH0 KECCAK256 PUSH1 0x2 ADD SLOAD DUP2 LT ISZERO JUMPDEST ISZERO PUSH2 0x1E8C JUMPI PUSH1 0x3 PUSH1 0x9 PUSH0 DUP6 DUP2 MSTORE PUSH1 0x20 ADD SWAP1 DUP2 MSTORE PUSH1 0x20 ADD PUSH0 KECCAK256 PUSH0 PUSH2 0x100 EXP DUP2 SLOAD DUP2 PUSH1 0xFF MUL NOT AND SWAP1 DUP4 PUSH1 0x3 DUP2 GT ISZERO PUSH2 0x1E4C JUMPI PUSH2 0x1E4B PUSH2 0x3A02 JUMP JUMPDEST JUMPDEST MUL OR SWAP1 SSTORE POP DUP3 PUSH32 0x75D0C2D3465E305D01011D67A4FAAA50F6C6B307E33D72194A4BA97ACCE86975 PUSH1 0x40 MLOAD PUSH2 0x1E7F SWAP1 PUSH2 0x490D JUMP JUMPDEST PUSH1 0x40 MLOAD DUP1 SWAP2 SUB SWAP1 LOG2 PUSH2 0x1EC7 JUMP JUMPDEST PUSH1 0x40 MLOAD PUSH32 0x8C379A000000000000000000000000000000000000000000000000000000000 DUP2 MSTORE PUSH1 0x4 ADD PUSH2 0x1EBE SWAP1 PUSH2 0x4133 JUMP JUMPDEST PUSH1 0x40 MLOAD DUP1 SWAP2 SUB SWAP1 REVERT JUMPDEST JUMPDEST JUMPDEST POP POP POP JUMP JUMPDEST PUSH1 0xF DUP1 SLOAD PUSH2 0x1EDB SWAP1 PUSH2 0x3DE5 JUMP JUMPDEST DUP1 PUSH1 0x1F ADD PUSH1 0x20 DUP1 SWAP2 DIV MUL PUSH1 0x20 ADD PUSH1 0x40 MLOAD SWAP1 DUP2 ADD PUSH1 0x40 MSTORE DUP1 SWAP3 SWAP2 SWAP1 DUP2 DUP2 MSTORE PUSH1 0x20 ADD DUP3 DUP1 SLOAD PUSH2 0x1F07 SWAP1 PUSH2 0x3DE5 JUMP JUMPDEST DUP1 ISZERO PUSH2 0x1F52 JUMPI DUP1 PUSH1 0x1F LT PUSH2 0x1F29 JUMPI PUSH2 0x100 DUP1 DUP4 SLOAD DIV MUL DUP4 MSTORE SWAP2 PUSH1 0x20 ADD SWAP2 PUSH2 0x1F52 JUMP JUMPDEST DUP3 ADD SWAP2 SWAP1 PUSH0 MSTORE PUSH1 0x20 PUSH0 KECCAK256 SWAP1 JUMPDEST DUP2 SLOAD DUP2 MSTORE SWAP1 PUSH1 0x1 ADD SWAP1 PUSH1 0x20 ADD DUP1 DUP4 GT PUSH2 0x1F35 JUMPI DUP3 SWAP1 SUB PUSH1 0x1F AND DUP3 ADD SWAP2 JUMPDEST POP POP POP POP POP DUP2 JUMP JUMPDEST PUSH2 0x1F62 PUSH2 0x2145 JUMP JUMPDEST PUSH0 PUSH20 0xFFFFFFFFFFFFFFFFFFFFFFFFFFFFFFFFFFFFFFFF AND DUP2 PUSH20 0xFFFFFFFFFFFFFFFFFFFFFFFFFFFFFFFFFFFFFFFF AND SUB PUSH2 0x1FD2 JUMPI PUSH0 PUSH1 0x40 MLOAD PUSH32 0x1E4FBDF700000000000000000000000000000000000000000000000000000000 DUP2 MSTORE PUSH1 0x4 ADD PUSH2 0x1FC9 SWAP2 SWAP1 PUSH2 0x35D3 JUMP JUMPDEST PUSH1 0x40 MLOAD DUP1 SWAP2 SUB SWAP1 REVERT JUMPDEST PUSH2 0x1FDB DUP2 PUSH2 0x2660 JUMP JUMPDEST POP JUMP JUMPDEST PUSH0 DUP2 DUP5 PUSH2 0x1FEB SWAP2 SWAP1 PUSH2 0x40B6 JUMP JUMPDEST DUP4 GT PUSH2 0x1FF7 JUMPI DUP4 PUSH2 0x2004 JUMP JUMPDEST DUP2 DUP4 PUSH2 0x2003 SWAP2 SWAP1 PUSH2 0x439A JUMP JUMPDEST JUMPDEST SWAP1 POP SWAP4 SWAP3 POP POP POP JUMP JUMPDEST PUSH0 PUSH4 0x49064906 PUSH1 0xE0 SHL PUSH28 0xFFFFFFFFFFFFFFFFFFFFFFFFFFFFFFFFFFFFFFFFFFFFFFFFFFFFFFFF NOT AND DUP3 PUSH28 0xFFFFFFFFFFFFFFFFFFFFFFFFFFFFFFFFFFFFFFFFFFFFFFFFFFFFFFFF NOT AND EQ DUP1 PUSH2 0x2066 JUMPI POP PUSH2 0x2065 DUP3 PUSH2 0x2CA1 JUMP JUMPDEST JUMPDEST SWAP1 POP SWAP2 SWAP1 POP JUMP JUMPDEST PUSH0 DUP1 PUSH2 0x2078 DUP4 PUSH2 0x2D82 JUMP JUMPDEST SWAP1 POP PUSH0 PUSH20 0xFFFFFFFFFFFFFFFFFFFFFFFFFFFFFFFFFFFFFFFF AND DUP2 PUSH20 0xFFFFFFFFFFFFFFFFFFFFFFFFFFFFFFFFFFFFFFFF AND SUB PUSH2 0x20EA JUMPI DUP3 PUSH1 0x40 MLOAD PUSH32 0x7E27328900000000000000000000000000000000000000000000000000000000 DUP2 MSTORE PUSH1 0x4 ADD PUSH2 0x20E1 SWAP2 SWAP1 PUSH2 0x3863 JUMP JUMPDEST PUSH1 0x40 MLOAD DUP1 SWAP2 SUB SWAP1 REVERT JUMPDEST DUP1 SWAP2 POP POP SWAP2 SWAP1 POP JUMP JUMPDEST PUSH0 PUSH1 0x4 PUSH0 DUP4 DUP2 MSTORE PUSH1 0x20 ADD SWAP1 DUP2 MSTORE PUSH1 0x20 ADD PUSH0 KECCAK256 PUSH0 SWAP1 SLOAD SWAP1 PUSH2 0x100 EXP SWAP1 DIV PUSH20 0xFFFFFFFFFFFFFFFFFFFFFFFFFFFFFFFFFFFFFFFF AND SWAP1 POP SWAP2 SWAP1 POP JUMP JUMPDEST PUSH0 CALLER SWAP1 POP SWAP1 JUMP JUMPDEST PUSH2 0x2140 DUP4 DUP4 DUP4 PUSH1 0x1 PUSH2 0x2DBB JUMP JUMPDEST POP POP POP JUMP JUMPDEST PUSH2 0x214D PUSH2 0x212C JUMP JUMPDEST PUSH20 0xFFFFFFFFFFFFFFFFFFFFFFFFFFFFFFFFFFFFFFFF AND PUSH2 0x216B PUSH2 0xF16 JUMP JUMPDEST PUSH20 0xFFFFFFFFFFFFFFFFFFFFFFFFFFFFFFFFFFFFFFFF AND EQ PUSH2 0x21CA JUMPI PUSH2 0x218E PUSH2 0x212C JUMP JUMPDEST PUSH1 0x40 MLOAD PUSH32 0x118CDAA700000000000000000000000000000000000000000000000000000000 DUP2 MSTORE PUSH1 0x4 ADD PUSH2 0x21C1 SWAP2 SWAP1 PUSH2 0x35D3 JUMP JUMPDEST PUSH1 0x40 MLOAD DUP1 SWAP2 SUB SWAP1 REVERT JUMPDEST JUMP JUMPDEST PUSH0 PUSH1 0xD PUSH0 DUP2 SLOAD DUP1 SWAP3 SWAP2 SWAP1 PUSH2 0x21DF SWAP1 PUSH2 0x4186 JUMP JUMPDEST SWAP2 SWAP1 POP SSTORE POP PUSH1 0x1 PUSH1 0x2 TIMESTAMP CALLER PUSH1 0xD SLOAD PUSH1 0x40 MLOAD PUSH1 0x20 ADD PUSH2 0x21FF SWAP4 SWAP3 SWAP2 SWAP1 PUSH2 0x4990 JUMP JUMPDEST PUSH1 0x40 MLOAD PUSH1 0x20 DUP2 DUP4 SUB SUB DUP2 MSTORE SWAP1 PUSH1 0x40 MSTORE DUP1 MLOAD SWAP1 PUSH1 0x20 ADD KECCAK256 PUSH0 SHR PUSH2 0x2221 SWAP2 SWAP1 PUSH2 0x49F9 JUMP JUMPDEST PUSH2 0x222B SWAP2 SWAP1 PUSH2 0x40B6 JUMP JUMPDEST SWAP1 POP SWAP1 JUMP JUMPDEST PUSH0 DUP1 PUSH2 0x223B DUP5 PUSH2 0x2D82 JUMP JUMPDEST SWAP1 POP PUSH0 PUSH20 0xFFFFFFFFFFFFFFFFFFFFFFFFFFFFFFFFFFFFFFFF AND DUP4 PUSH20 0xFFFFFFFFFFFFFFFFFFFFFFFFFFFFFFFFFFFFFFFF AND EQ PUSH2 0x227C JUMPI PUSH2 0x227B DUP2 DUP5 DUP7 PUSH2 0x2F7A JUMP JUMPDEST JUMPDEST PUSH0 PUSH20 0xFFFFFFFFFFFFFFFFFFFFFFFFFFFFFFFFFFFFFFFF AND DUP2 PUSH20 0xFFFFFFFFFFFFFFFFFFFFFFFFFFFFFFFFFFFFFFFF AND EQ PUSH2 0x2307 JUMPI PUSH2 0x22BB PUSH0 DUP6 PUSH0 DUP1 PUSH2 0x2DBB JUMP JUMPDEST PUSH1 0x1 PUSH1 0x3 PUSH0 DUP4 PUSH20 0xFFFFFFFFFFFFFFFFFFFFFFFFFFFFFFFFFFFFFFFF AND PUSH20 0xFFFFFFFFFFFFFFFFFFFFFFFFFFFFFFFFFFFFFFFF AND DUP2 MSTORE PUSH1 0x20 ADD SWAP1 DUP2 MSTORE PUSH1 0x20 ADD PUSH0 KECCAK256 PUSH0 DUP3 DUP3 SLOAD SUB SWAP3 POP POP DUP2 SWAP1 SSTORE POP JUMPDEST PUSH0 PUSH20 0xFFFFFFFFFFFFFFFFFFFFFFFFFFFFFFFFFFFFFFFF AND DUP6 PUSH20 0xFFFFFFFFFFFFFFFFFFFFFFFFFFFFFFFFFFFFFFFF AND EQ PUSH2 0x2386 JUMPI PUSH1 0x1 PUSH1 0x3 PUSH0 DUP8 PUSH20 0xFFFFFFFFFFFFFFFFFFFFFFFFFFFFFFFFFFFFFFFF AND PUSH20 0xFFFFFFFFFFFFFFFFFFFFFFFFFFFFFFFFFFFFFFFF AND DUP2 MSTORE PUSH1 0x20 ADD SWAP1 DUP2 MSTORE PUSH1 0x20 ADD PUSH0 KECCAK256 PUSH0 DUP3 DUP3 SLOAD ADD SWAP3 POP POP DUP2 SWAP1 SSTORE POP JUMPDEST DUP5 PUSH1 0x2 PUSH0 DUP7 DUP2 MSTORE PUSH1 0x20 ADD SWAP1 DUP2 MSTORE PUSH1 0x20 ADD PUSH0 KECCAK256 PUSH0 PUSH2 0x100 EXP DUP2 SLOAD DUP2 PUSH20 0xFFFFFFFFFFFFFFFFFFFFFFFFFFFFFFFFFFFFFFFF MUL NOT AND SWAP1 DUP4 PUSH20 0xFFFFFFFFFFFFFFFFFFFFFFFFFFFFFFFFFFFFFFFF AND MUL OR SWAP1 SSTORE POP DUP4 DUP6 PUSH20 0xFFFFFFFFFFFFFFFFFFFFFFFFFFFFFFFFFFFFFFFF AND DUP3 PUSH20 0xFFFFFFFFFFFFFFFFFFFFFFFFFFFFFFFFFFFFFFFF AND PUSH32 0xDDF252AD1BE2C89B69C2B068FC378DAA952BA7F163C4A11628F55A4DF523B3EF PUSH1 0x40 MLOAD PUSH1 0x40 MLOAD DUP1 SWAP2 SUB SWAP1 LOG4 DUP1 SWAP2 POP POP SWAP4 SWAP3 POP POP POP JUMP JUMPDEST PUSH0 DUP1 PUSH1 0xC PUSH0 DUP2 SLOAD PUSH2 0x244B SWAP1 PUSH2 0x4186 JUMP JUMPDEST SWAP2 SWAP1 POP DUP2 SWAP1 SSTORE SWAP1 POP PUSH1 0x40 MLOAD DUP1 PUSH1 0xE0 ADD PUSH1 0x40 MSTORE DUP1 DUP11 DUP11 DUP1 DUP1 PUSH1 0x1F ADD PUSH1 0x20 DUP1 SWAP2 DIV MUL PUSH1 0x20 ADD PUSH1 0x40 MLOAD SWAP1 DUP2 ADD PUSH1 0x40 MSTORE DUP1 SWAP4 SWAP3 SWAP2 SWAP1 DUP2 DUP2 MSTORE PUSH1 0x20 ADD DUP4 DUP4 DUP1 DUP3 DUP5 CALLDATACOPY PUSH0 DUP2 DUP5 ADD MSTORE PUSH1 0x1F NOT PUSH1 0x1F DUP3 ADD AND SWAP1 POP DUP1 DUP4 ADD SWAP3 POP POP POP POP POP POP POP DUP2 MSTORE PUSH1 0x20 ADD PUSH0 DUP2 MSTORE PUSH1 0x20 ADD DUP9 DUP2 MSTORE PUSH1 0x20 ADD DUP8 DUP2 MSTORE PUSH1 0x20 ADD DUP7 DUP2 MSTORE PUSH1 0x20 ADD DUP5 ISZERO ISZERO DUP2 MSTORE PUSH1 0x20 ADD TIMESTAMP DUP2 MSTORE POP PUSH1 0x8 PUSH0 DUP4 DUP2 MSTORE PUSH1 0x20 ADD SWAP1 DUP2 MSTORE PUSH1 0x20 ADD PUSH0 KECCAK256 PUSH0 DUP3 ADD MLOAD DUP2 PUSH0 ADD SWAP1 DUP2 PUSH2 0x24EF SWAP2 SWAP1 PUSH2 0x4A29 JUMP JUMPDEST POP PUSH1 0x20 DUP3 ADD MLOAD DUP2 PUSH1 0x1 ADD SSTORE PUSH1 0x40 DUP3 ADD MLOAD DUP2 PUSH1 0x2 ADD SSTORE PUSH1 0x60 DUP3 ADD MLOAD DUP2 PUSH1 0x3 ADD SSTORE PUSH1 0x80 DUP3 ADD MLOAD DUP2 PUSH1 0x4 ADD SSTORE PUSH1 0xA0 DUP3 ADD MLOAD DUP2 PUSH1 0x5 ADD PUSH0 PUSH2 0x100 EXP DUP2 SLOAD DUP2 PUSH1 0xFF MUL NOT AND SWAP1 DUP4 ISZERO ISZERO MUL OR SWAP1 SSTORE POP PUSH1 0xC0 DUP3 ADD MLOAD DUP2 PUSH1 0x6 ADD SSTORE SWAP1 POP POP PUSH3 0x2A300 TIMESTAMP PUSH2 0x2553 SWAP2 SWAP1 PUSH2 0x40B6 JUMP JUMPDEST PUSH1 0xA PUSH0 DUP4 DUP2 MSTORE PUSH1 0x20 ADD SWAP1 DUP2 MSTORE PUSH1 0x20 ADD PUSH0 KECCAK256 PUSH0 ADD DUP2 SWAP1 SSTORE POP PUSH0 PUSH1 0x9 PUSH0 DUP4 DUP2 MSTORE PUSH1 0x20 ADD SWAP1 DUP2 MSTORE PUSH1 0x20 ADD PUSH0 KECCAK256 PUSH0 PUSH2 0x100 EXP DUP2 SLOAD DUP2 PUSH1 0xFF MUL NOT AND SWAP1 DUP4 PUSH1 0x3 DUP2 GT ISZERO PUSH2 0x259D JUMPI PUSH2 0x259C PUSH2 0x3A02 JUMP JUMPDEST JUMPDEST MUL OR SWAP1 SSTORE POP PUSH2 0x25AC DUP5 DUP3 PUSH2 0x303D JUMP JUMPDEST PUSH1 0xB PUSH0 DUP6 PUSH20 0xFFFFFFFFFFFFFFFFFFFFFFFFFFFFFFFFFFFFFFFF AND PUSH20 0xFFFFFFFFFFFFFFFFFFFFFFFFFFFFFFFFFFFFFFFF AND DUP2 MSTORE PUSH1 0x20 ADD SWAP1 DUP2 MSTORE PUSH1 0x20 ADD PUSH0 KECCAK256 DUP2 SWAP1 DUP1 PUSH1 0x1 DUP2 SLOAD ADD DUP1 DUP3 SSTORE DUP1 SWAP2 POP POP PUSH1 0x1 SWAP1 SUB SWAP1 PUSH0 MSTORE PUSH1 0x20 PUSH0 KECCAK256 ADD PUSH0 SWAP1 SWAP2 SWAP1 SWAP2 SWAP1 SWAP2 POP SSTORE DUP1 DUP5 PUSH20 0xFFFFFFFFFFFFFFFFFFFFFFFFFFFFFFFFFFFFFFFF AND PUSH32 0xB9144C96C86541F6FA89C9F2F02495CCCF4B08CD6643E26D34EE00AA586558A8 PUSH1 0x40 MLOAD PUSH1 0x40 MLOAD DUP1 SWAP2 SUB SWAP1 LOG3 DUP1 SWAP2 POP POP SWAP8 SWAP7 POP POP POP POP POP POP POP JUMP JUMPDEST PUSH0 PUSH1 0x7 PUSH0 SWAP1 SLOAD SWAP1 PUSH2 0x100 EXP SWAP1 DIV PUSH20 0xFFFFFFFFFFFFFFFFFFFFFFFFFFFFFFFFFFFFFFFF AND SWAP1 POP DUP2 PUSH1 0x7 PUSH0 PUSH2 0x100 EXP DUP2 SLOAD DUP2 PUSH20 0xFFFFFFFFFFFFFFFFFFFFFFFFFFFFFFFFFFFFFFFF MUL NOT AND SWAP1 DUP4 PUSH20 0xFFFFFFFFFFFFFFFFFFFFFFFFFFFFFFFFFFFFFFFF AND MUL OR SWAP1 SSTORE POP DUP2 PUSH20 0xFFFFFFFFFFFFFFFFFFFFFFFFFFFFFFFFFFFFFFFF AND DUP2 PUSH20 0xFFFFFFFFFFFFFFFFFFFFFFFFFFFFFFFFFFFFFFFF AND PUSH32 0x8BE0079C531659141344CD1FD0A4F28419497F9722A3DAAFE3B4186F6B6457E0 PUSH1 0x40 MLOAD PUSH1 0x40 MLOAD DUP1 SWAP2 SUB SWAP1 LOG3 POP POP JUMP JUMPDEST PUSH0 DUP1 PUSH1 0x8 PUSH0 DUP6 DUP2 MSTORE PUSH1 0x20 ADD SWAP1 DUP2 MSTORE PUSH1 0x20 ADD PUSH0 KECCAK256 SWAP1 POP PUSH0 PUSH1 0x8 PUSH0 DUP6 DUP2 MSTORE PUSH1 0x20 ADD SWAP1 DUP2 MSTORE PUSH1 0x20 ADD PUSH0 KECCAK256 SWAP1 POP PUSH1 0x1 DUP3 PUSH1 0x4 ADD SLOAD EQ DUP1 PUSH2 0x2763 JUMPI POP PUSH1 0x1 DUP2 PUSH1 0x4 ADD SLOAD EQ JUMPDEST PUSH2 0x2789 JUMPI DUP1 PUSH1 0x2 ADD SLOAD DUP3 PUSH1 0x2 ADD SLOAD EQ DUP1 PUSH2 0x2784 JUMPI POP DUP1 PUSH1 0x3 ADD SLOAD DUP3 PUSH1 0x3 ADD SLOAD EQ JUMPDEST PUSH2 0x278B JUMP JUMPDEST PUSH0 JUMPDEST SWAP3 POP POP POP SWAP3 SWAP2 POP POP JUMP JUMPDEST PUSH0 TIMESTAMP PUSH1 0x12 PUSH0 DUP5 DUP2 MSTORE PUSH1 0x20 ADD SWAP1 DUP2 MSTORE PUSH1 0x20 ADD PUSH0 KECCAK256 PUSH0 ADD SLOAD LT SWAP1 POP SWAP2 SWAP1 POP JUMP JUMPDEST PUSH0 DUP1 PUSH1 0x8 PUSH0 DUP6 DUP2 MSTORE PUSH1 0x20 ADD SWAP1 DUP2 MSTORE PUSH1 0x20 ADD PUSH0 KECCAK256 SWAP1 POP PUSH0 PUSH1 0x8 PUSH0 DUP6 DUP2 MSTORE PUSH1 0x20 ADD SWAP1 DUP2 MSTORE PUSH1 0x20 ADD PUSH0 KECCAK256 SWAP1 POP DUP1 PUSH1 0x1 ADD SLOAD DUP3 PUSH1 0x1 ADD SLOAD EQ ISZERO SWAP3 POP POP POP SWAP3 SWAP2 POP POP JUMP JUMPDEST PUSH1 0x12 PUSH0 DUP3 DUP2 MSTORE PUSH1 0x20 ADD SWAP1 DUP2 MSTORE PUSH1 0x20 ADD PUSH0 KECCAK256 PUSH1 0x1 ADD PUSH0 DUP2 SLOAD DUP1 SWAP3 SWAP2 SWAP1 PUSH2 0x2816 SWAP1 PUSH2 0x4186 JUMP JUMPDEST SWAP2 SWAP1 POP SSTORE POP PUSH3 0x3F480 TIMESTAMP PUSH2 0x282A SWAP2 SWAP1 PUSH2 0x40B6 JUMP JUMPDEST PUSH1 0x12 PUSH0 DUP4 DUP2 MSTORE PUSH1 0x20 ADD SWAP1 DUP2 MSTORE PUSH1 0x20 ADD PUSH0 KECCAK256 PUSH0 ADD DUP2 SWAP1 SSTORE POP POP JUMP JUMPDEST PUSH0 DUP1 PUSH1 0x8 PUSH0 DUP6 DUP2 MSTORE PUSH1 0x20 ADD SWAP1 DUP2 MSTORE PUSH1 0x20 ADD PUSH0 KECCAK256 SWAP1 POP PUSH0 PUSH1 0x8 PUSH0 DUP6 DUP2 MSTORE PUSH1 0x20 ADD SWAP1 DUP2 MSTORE PUSH1 0x20 ADD PUSH0 KECCAK256 SWAP1 POP PUSH0 DUP2 PUSH1 0x4 ADD SLOAD DUP4 PUSH1 0x4 ADD SLOAD GT PUSH2 0x2887 JUMPI DUP2 PUSH1 0x4 ADD SLOAD PUSH2 0x288D JUMP JUMPDEST DUP3 PUSH1 0x4 ADD SLOAD JUMPDEST SWAP1 POP PUSH0 PUSH2 0x28AB DUP10 DUP10 DUP10 DUP10 PUSH1 0x1 DUP8 PUSH2 0x28A4 SWAP2 SWAP1 PUSH2 0x40B6 JUMP JUMPDEST CALLER PUSH0 PUSH2 0x243B JUMP JUMPDEST SWAP1 POP DUP1 SWAP5 POP POP POP POP POP SWAP5 SWAP4 POP POP POP POP JUMP JUMPDEST PUSH0 PUSH20 0xFFFFFFFFFFFFFFFFFFFFFFFFFFFFFFFFFFFFFFFF AND DUP3 PUSH20 0xFFFFFFFFFFFFFFFFFFFFFFFFFFFFFFFFFFFFFFFF AND SUB PUSH2 0x292C JUMPI DUP2 PUSH1 0x40 MLOAD PUSH32 0x5B08BA1800000000000000000000000000000000000000000000000000000000 DUP2 MSTORE PUSH1 0x4 ADD PUSH2 0x2923 SWAP2 SWAP1 PUSH2 0x35D3 JUMP JUMPDEST PUSH1 0x40 MLOAD DUP1 SWAP2 SUB SWAP1 REVERT JUMPDEST DUP1 PUSH1 0x5 PUSH0 DUP6 PUSH20 0xFFFFFFFFFFFFFFFFFFFFFFFFFFFFFFFFFFFFFFFF AND PUSH20 0xFFFFFFFFFFFFFFFFFFFFFFFFFFFFFFFFFFFFFFFF AND DUP2 MSTORE PUSH1 0x20 ADD SWAP1 DUP2 MSTORE PUSH1 0x20 ADD PUSH0 KECCAK256 PUSH0 DUP5 PUSH20 0xFFFFFFFFFFFFFFFFFFFFFFFFFFFFFFFFFFFFFFFF AND PUSH20 0xFFFFFFFFFFFFFFFFFFFFFFFFFFFFFFFFFFFFFFFF AND DUP2 MSTORE PUSH1 0x20 ADD SWAP1 DUP2 MSTORE PUSH1 0x20 ADD PUSH0 KECCAK256 PUSH0 PUSH2 0x100 EXP DUP2 SLOAD DUP2 PUSH1 0xFF MUL NOT AND SWAP1 DUP4 ISZERO ISZERO MUL OR SWAP1 SSTORE POP DUP2 PUSH20 0xFFFFFFFFFFFFFFFFFFFFFFFFFFFFFFFFFFFFFFFF AND DUP4 PUSH20 0xFFFFFFFFFFFFFFFFFFFFFFFFFFFFFFFFFFFFFFFF AND PUSH32 0x17307EAB39AB6107E8899845AD3D59BD9653F200F220920489CA2B5937696C31 DUP4 PUSH1 0x40 MLOAD PUSH2 0x2A18 SWAP2 SWAP1 PUSH2 0x34EB JUMP JUMPDEST PUSH1 0x40 MLOAD DUP1 SWAP2 SUB SWAP1 LOG3 POP POP POP JUMP JUMPDEST PUSH0 DUP4 PUSH20 0xFFFFFFFFFFFFFFFFFFFFFFFFFFFFFFFFFFFFFFFF AND EXTCODESIZE GT ISZERO PUSH2 0x2BD1 JUMPI DUP3 PUSH20 0xFFFFFFFFFFFFFFFFFFFFFFFFFFFFFFFFFFFFFFFF AND PUSH4 0x150B7A02 PUSH2 0x2A68 PUSH2 0x212C JUMP JUMPDEST DUP7 DUP6 DUP6 PUSH1 0x40 MLOAD DUP6 PUSH4 0xFFFFFFFF AND PUSH1 0xE0 SHL DUP2 MSTORE PUSH1 0x4 ADD PUSH2 0x2A8A SWAP5 SWAP4 SWAP3 SWAP2 SWAP1 PUSH2 0x4B4A JUMP JUMPDEST PUSH1 0x20 PUSH1 0x40 MLOAD DUP1 DUP4 SUB DUP2 PUSH0 DUP8 GAS CALL SWAP3 POP POP POP DUP1 ISZERO PUSH2 0x2AC5 JUMPI POP PUSH1 0x40 MLOAD RETURNDATASIZE PUSH1 0x1F NOT PUSH1 0x1F DUP3 ADD AND DUP3 ADD DUP1 PUSH1 0x40 MSTORE POP DUP2 ADD SWAP1 PUSH2 0x2AC2 SWAP2 SWAP1 PUSH2 0x4BA8 JUMP JUMPDEST PUSH1 0x1 JUMPDEST PUSH2 0x2B46 JUMPI RETURNDATASIZE DUP1 PUSH0 DUP2 EQ PUSH2 0x2AF3 JUMPI PUSH1 0x40 MLOAD SWAP2 POP PUSH1 0x1F NOT PUSH1 0x3F RETURNDATASIZE ADD AND DUP3 ADD PUSH1 0x40 MSTORE RETURNDATASIZE DUP3 MSTORE RETURNDATASIZE PUSH0 PUSH1 0x20 DUP5 ADD RETURNDATACOPY PUSH2 0x2AF8 JUMP JUMPDEST PUSH1 0x60 SWAP2 POP JUMPDEST POP PUSH0 DUP2 MLOAD SUB PUSH2 0x2B3E JUMPI DUP4 PUSH1 0x40 MLOAD PUSH32 0x64A0AE9200000000000000000000000000000000000000000000000000000000 DUP2 MSTORE PUSH1 0x4 ADD PUSH2 0x2B35 SWAP2 SWAP1 PUSH2 0x35D3 JUMP JUMPDEST PUSH1 0x40 MLOAD DUP1 SWAP2 SUB SWAP1 REVERT JUMPDEST DUP1 MLOAD DUP2 PUSH1 0x20 ADD REVERT JUMPDEST PUSH4 0x150B7A02 PUSH1 0xE0 SHL PUSH28 0xFFFFFFFFFFFFFFFFFFFFFFFFFFFFFFFFFFFFFFFFFFFFFFFFFFFFFFFF NOT AND DUP2 PUSH28 0xFFFFFFFFFFFFFFFFFFFFFFFFFFFFFFFFFFFFFFFFFFFFFFFFFFFFFFFF NOT AND EQ PUSH2 0x2BCF JUMPI DUP4 PUSH1 0x40 MLOAD PUSH32 0x64A0AE9200000000000000000000000000000000000000000000000000000000 DUP2 MSTORE PUSH1 0x4 ADD PUSH2 0x2BC6 SWAP2 SWAP1 PUSH2 0x35D3 JUMP JUMPDEST PUSH1 0x40 MLOAD DUP1 SWAP2 SUB SWAP1 REVERT JUMPDEST POP JUMPDEST POP POP POP POP JUMP JUMPDEST PUSH1 0x60 PUSH0 PUSH1 0x1 PUSH2 0x2BE5 DUP5 PUSH2 0x305A JUMP JUMPDEST ADD SWAP1 POP PUSH0 DUP2 PUSH8 0xFFFFFFFFFFFFFFFF DUP2 GT ISZERO PUSH2 0x2C03 JUMPI PUSH2 0x2C02 PUSH2 0x3AA0 JUMP JUMPDEST JUMPDEST PUSH1 0x40 MLOAD SWAP1 DUP1 DUP3 MSTORE DUP1 PUSH1 0x1F ADD PUSH1 0x1F NOT AND PUSH1 0x20 ADD DUP3 ADD PUSH1 0x40 MSTORE DUP1 ISZERO PUSH2 0x2C35 JUMPI DUP2 PUSH1 0x20 ADD PUSH1 0x1 DUP3 MUL DUP1 CALLDATASIZE DUP4 CALLDATACOPY DUP1 DUP3 ADD SWAP2 POP POP SWAP1 POP JUMPDEST POP SWAP1 POP PUSH0 DUP3 PUSH1 0x20 ADD DUP3 ADD SWAP1 POP JUMPDEST PUSH1 0x1 ISZERO PUSH2 0x2C96 JUMPI DUP1 DUP1 PUSH1 0x1 SWAP1 SUB SWAP2 POP POP PUSH32 0x3031323334353637383961626364656600000000000000000000000000000000 PUSH1 0xA DUP7 MOD BYTE DUP2 MSTORE8 PUSH1 0xA DUP6 DUP2 PUSH2 0x2C8B JUMPI PUSH2 0x2C8A PUSH2 0x49CC JUMP JUMPDEST JUMPDEST DIV SWAP5 POP PUSH0 DUP6 SUB PUSH2 0x2C42 JUMPI JUMPDEST DUP2 SWAP4 POP POP POP POP SWAP2 SWAP1 POP JUMP JUMPDEST PUSH0 PUSH32 0x80AC58CD00000000000000000000000000000000000000000000000000000000 PUSH28 0xFFFFFFFFFFFFFFFFFFFFFFFFFFFFFFFFFFFFFFFFFFFFFFFFFFFFFFFF NOT AND DUP3 PUSH28 0xFFFFFFFFFFFFFFFFFFFFFFFFFFFFFFFFFFFFFFFFFFFFFFFFFFFFFFFF NOT AND EQ DUP1 PUSH2 0x2D6B JUMPI POP PUSH32 0x5B5E139F00000000000000000000000000000000000000000000000000000000 PUSH28 0xFFFFFFFFFFFFFFFFFFFFFFFFFFFFFFFFFFFFFFFFFFFFFFFFFFFFFFFF NOT AND DUP3 PUSH28 0xFFFFFFFFFFFFFFFFFFFFFFFFFFFFFFFFFFFFFFFFFFFFFFFFFFFFFFFF NOT AND EQ JUMPDEST DUP1 PUSH2 0x2D7B JUMPI POP PUSH2 0x2D7A DUP3 PUSH2 0x31AB JUMP JUMPDEST JUMPDEST SWAP1 POP SWAP2 SWAP1 POP JUMP JUMPDEST PUSH0 PUSH1 0x2 PUSH0 DUP4 DUP2 MSTORE PUSH1 0x20 ADD SWAP1 DUP2 MSTORE PUSH1 0x20 ADD PUSH0 KECCAK256 PUSH0 SWAP1 SLOAD SWAP1 PUSH2 0x100 EXP SWAP1 DIV PUSH20 0xFFFFFFFFFFFFFFFFFFFFFFFFFFFFFFFFFFFFFFFF AND SWAP1 POP SWAP2 SWAP1 POP JUMP JUMPDEST DUP1 DUP1 PUSH2 0x2DF3 JUMPI POP PUSH0 PUSH20 0xFFFFFFFFFFFFFFFFFFFFFFFFFFFFFFFFFFFFFFFF AND DUP3 PUSH20 0xFFFFFFFFFFFFFFFFFFFFFFFFFFFFFFFFFFFFFFFF AND EQ ISZERO JUMPDEST ISZERO PUSH2 0x2F25 JUMPI PUSH0 PUSH2 0x2E02 DUP5 PUSH2 0x206D JUMP JUMPDEST SWAP1 POP PUSH0 PUSH20 0xFFFFFFFFFFFFFFFFFFFFFFFFFFFFFFFFFFFFFFFF AND DUP4 PUSH20 0xFFFFFFFFFFFFFFFFFFFFFFFFFFFFFFFFFFFFFFFF AND EQ ISZERO DUP1 ISZERO PUSH2 0x2E6C JUMPI POP DUP3 PUSH20 0xFFFFFFFFFFFFFFFFFFFFFFFFFFFFFFFFFFFFFFFF AND DUP2 PUSH20 0xFFFFFFFFFFFFFFFFFFFFFFFFFFFFFFFFFFFFFFFF AND EQ ISZERO JUMPDEST DUP1 ISZERO PUSH2 0x2E7F JUMPI POP PUSH2 0x2E7D DUP2 DUP5 PUSH2 0x1A28 JUMP JUMPDEST ISZERO JUMPDEST ISZERO PUSH2 0x2EC1 JUMPI DUP3 PUSH1 0x40 MLOAD PUSH32 0xA9FBF51F00000000000000000000000000000000000000000000000000000000 DUP2 MSTORE PUSH1 0x4 ADD PUSH2 0x2EB8 SWAP2 SWAP1 PUSH2 0x35D3 JUMP JUMPDEST PUSH1 0x40 MLOAD DUP1 SWAP2 SUB SWAP1 REVERT JUMPDEST DUP2 ISZERO PUSH2 0x2F23 JUMPI DUP4 DUP6 PUSH20 0xFFFFFFFFFFFFFFFFFFFFFFFFFFFFFFFFFFFFFFFF AND DUP3 PUSH20 0xFFFFFFFFFFFFFFFFFFFFFFFFFFFFFFFFFFFFFFFF AND PUSH32 0x8C5BE1E5EBEC7D5BD14F71427D1E84F3DD0314C0F7B2291E5B200AC8C7C3B925 PUSH1 0x40 MLOAD PUSH1 0x40 MLOAD DUP1 SWAP2 SUB SWAP1 LOG4 JUMPDEST POP JUMPDEST DUP4 PUSH1 0x4 PUSH0 DUP6 DUP2 MSTORE PUSH1 0x20 ADD SWAP1 DUP2 MSTORE PUSH1 0x20 ADD PUSH0 KECCAK256 PUSH0 PUSH2 0x100 EXP DUP2 SLOAD DUP2 PUSH20 0xFFFFFFFFFFFFFFFFFFFFFFFFFFFFFFFFFFFFFFFF MUL NOT AND SWAP1 DUP4 PUSH20 0xFFFFFFFFFFFFFFFFFFFFFFFFFFFFFFFFFFFFFFFF AND MUL OR SWAP1 SSTORE POP POP POP POP POP JUMP JUMPDEST PUSH2 0x2F85 DUP4 DUP4 DUP4 PUSH2 0x3214 JUMP JUMPDEST PUSH2 0x3038 JUMPI PUSH0 PUSH20 0xFFFFFFFFFFFFFFFFFFFFFFFFFFFFFFFFFFFFFFFF AND DUP4 PUSH20 0xFFFFFFFFFFFFFFFFFFFFFFFFFFFFFFFFFFFFFFFF AND SUB PUSH2 0x2FF9 JUMPI DUP1 PUSH1 0x40 MLOAD PUSH32 0x7E27328900000000000000000000000000000000000000000000000000000000 DUP2 MSTORE PUSH1 0x4 ADD PUSH2 0x2FF0 SWAP2 SWAP1 PUSH2 0x3863 JUMP JUMPDEST PUSH1 0x40 MLOAD DUP1 SWAP2 SUB SWAP1 REVERT JUMPDEST DUP2 DUP2 PUSH1 0x40 MLOAD PUSH32 0x177E802F00000000000000000000000000000000000000000000000000000000 DUP2 MSTORE PUSH1 0x4 ADD PUSH2 0x302F SWAP3 SWAP2 SWAP1 PUSH2 0x4BD3 JUMP JUMPDEST PUSH1 0x40 MLOAD DUP1 SWAP2 SUB SWAP1 REVERT JUMPDEST POP POP POP JUMP JUMPDEST PUSH2 0x3056 DUP3 DUP3 PUSH1 0x40 MLOAD DUP1 PUSH1 0x20 ADD PUSH1 0x40 MSTORE DUP1 PUSH0 DUP2 MSTORE POP PUSH2 0x32D4 JUMP JUMPDEST POP POP JUMP JUMPDEST PUSH0 DUP1 PUSH0 SWAP1 POP PUSH27 0x184F03E93FF9F4DAA797ED6E38ED64BF6A1F010000000000000000 DUP4 LT PUSH2 0x30B6 JUMPI PUSH27 0x184F03E93FF9F4DAA797ED6E38ED64BF6A1F010000000000000000 DUP4 DUP2 PUSH2 0x30AC JUMPI PUSH2 0x30AB PUSH2 0x49CC JUMP JUMPDEST JUMPDEST DIV SWAP3 POP PUSH1 0x40 DUP2 ADD SWAP1 POP JUMPDEST PUSH14 0x4EE2D6D415B85ACEF8100000000 DUP4 LT PUSH2 0x30F3 JUMPI PUSH14 0x4EE2D6D415B85ACEF8100000000 DUP4 DUP2 PUSH2 0x30E9 JUMPI PUSH2 0x30E8 PUSH2 0x49CC JUMP JUMPDEST JUMPDEST DIV SWAP3 POP PUSH1 0x20 DUP2 ADD SWAP1 POP JUMPDEST PUSH7 0x2386F26FC10000 DUP4 LT PUSH2 0x3122 JUMPI PUSH7 0x2386F26FC10000 DUP4 DUP2 PUSH2 0x3118 JUMPI PUSH2 0x3117 PUSH2 0x49CC JUMP JUMPDEST JUMPDEST DIV SWAP3 POP PUSH1 0x10 DUP2 ADD SWAP1 POP JUMPDEST PUSH4 0x5F5E100 DUP4 LT PUSH2 0x314B JUMPI PUSH4 0x5F5E100 DUP4 DUP2 PUSH2 0x3141 JUMPI PUSH2 0x3140 PUSH2 0x49CC JUMP JUMPDEST JUMPDEST DIV SWAP3 POP PUSH1 0x8 DUP2 ADD SWAP1 POP JUMPDEST PUSH2 0x2710 DUP4 LT PUSH2 0x3170 JUMPI PUSH2 0x2710 DUP4 DUP2 PUSH2 0x3166 JUMPI PUSH2 0x3165 PUSH2 0x49CC JUMP JUMPDEST JUMPDEST DIV SWAP3 POP PUSH1 0x4 DUP2 ADD SWAP1 POP JUMPDEST PUSH1 0x64 DUP4 LT PUSH2 0x3193 JUMPI PUSH1 0x64 DUP4 DUP2 PUSH2 0x3189 JUMPI PUSH2 0x3188 PUSH2 0x49CC JUMP JUMPDEST JUMPDEST DIV SWAP3 POP PUSH1 0x2 DUP2 ADD SWAP1 POP JUMPDEST PUSH1 0xA DUP4 LT PUSH2 0x31A2 JUMPI PUSH1 0x1 DUP2 ADD SWAP1 POP JUMPDEST DUP1 SWAP2 POP POP SWAP2 SWAP1 POP JUMP JUMPDEST PUSH0 PUSH32 0x1FFC9A700000000000000000000000000000000000000000000000000000000 PUSH28 0xFFFFFFFFFFFFFFFFFFFFFFFFFFFFFFFFFFFFFFFFFFFFFFFFFFFFFFFF NOT AND DUP3 PUSH28 0xFFFFFFFFFFFFFFFFFFFFFFFFFFFFFFFFFFFFFFFFFFFFFFFFFFFFFFFF NOT AND EQ SWAP1 POP SWAP2 SWAP1 POP JUMP JUMPDEST PUSH0 DUP1 PUSH20 0xFFFFFFFFFFFFFFFFFFFFFFFFFFFFFFFFFFFFFFFF AND DUP4 PUSH20 0xFFFFFFFFFFFFFFFFFFFFFFFFFFFFFFFFFFFFFFFF AND EQ ISZERO DUP1 ISZERO PUSH2 0x32CB JUMPI POP DUP3 PUSH20 0xFFFFFFFFFFFFFFFFFFFFFFFFFFFFFFFFFFFFFFFF AND DUP5 PUSH20 0xFFFFFFFFFFFFFFFFFFFFFFFFFFFFFFFFFFFFFFFF AND EQ DUP1 PUSH2 0x328C JUMPI POP PUSH2 0x328B DUP5 DUP5 PUSH2 0x1A28 JUMP JUMPDEST JUMPDEST DUP1 PUSH2 0x32CA JUMPI POP DUP3 PUSH20 0xFFFFFFFFFFFFFFFFFFFFFFFFFFFFFFFFFFFFFFFF AND PUSH2 0x32B2 DUP4 PUSH2 0x20F3 JUMP JUMPDEST PUSH20 0xFFFFFFFFFFFFFFFFFFFFFFFFFFFFFFFFFFFFFFFF AND EQ JUMPDEST JUMPDEST SWAP1 POP SWAP4 SWAP3 POP POP POP JUMP JUMPDEST PUSH2 0x32DE DUP4 DUP4 PUSH2 0x32EF JUMP JUMPDEST PUSH2 0x32EA PUSH0 DUP5 DUP5 DUP5 PUSH2 0x2A25 JUMP JUMPDEST POP POP POP JUMP JUMPDEST PUSH0 PUSH20 0xFFFFFFFFFFFFFFFFFFFFFFFFFFFFFFFFFFFFFFFF AND DUP3 PUSH20 0xFFFFFFFFFFFFFFFFFFFFFFFFFFFFFFFFFFFFFFFF AND SUB PUSH2 0x335F JUMPI PUSH0 PUSH1 0x40 MLOAD PUSH32 0x64A0AE9200000000000000000000000000000000000000000000000000000000 DUP2 MSTORE PUSH1 0x4 ADD PUSH2 0x3356 SWAP2 SWAP1 PUSH2 0x35D3 JUMP JUMPDEST PUSH1 0x40 MLOAD DUP1 SWAP2 SUB SWAP1 REVERT JUMPDEST PUSH0 PUSH2 0x336B DUP4 DUP4 PUSH0 PUSH2 0x2230 JUMP JUMPDEST SWAP1 POP PUSH0 PUSH20 0xFFFFFFFFFFFFFFFFFFFFFFFFFFFFFFFFFFFFFFFF AND DUP2 PUSH20 0xFFFFFFFFFFFFFFFFFFFFFFFFFFFFFFFFFFFFFFFF AND EQ PUSH2 0x33DD JUMPI PUSH0 PUSH1 0x40 MLOAD PUSH32 0x73C6AC6E00000000000000000000000000000000000000000000000000000000 DUP2 MSTORE PUSH1 0x4 ADD PUSH2 0x33D4 SWAP2 SWAP1 PUSH2 0x35D3 JUMP JUMPDEST PUSH1 0x40 MLOAD DUP1 SWAP2 SUB SWAP1 REVERT JUMPDEST POP POP POP JUMP JUMPDEST PUSH0 PUSH1 0x40 MLOAD SWAP1 POP SWAP1 JUMP JUMPDEST PUSH0 DUP1 REVERT JUMPDEST PUSH0 DUP1 REVERT JUMPDEST PUSH0 DUP2 SWAP1 POP SWAP2 SWAP1 POP JUMP JUMPDEST PUSH2 0x3405 DUP2 PUSH2 0x33F3 JUMP JUMPDEST DUP2 EQ PUSH2 0x340F JUMPI PUSH0 DUP1 REVERT JUMPDEST POP JUMP JUMPDEST PUSH0 DUP2 CALLDATALOAD SWAP1 POP PUSH2 0x3420 DUP2 PUSH2 0x33FC JUMP JUMPDEST SWAP3 SWAP2 POP POP JUMP JUMPDEST PUSH0 PUSH1 0x20 DUP3 DUP5 SUB SLT ISZERO PUSH2 0x343B JUMPI PUSH2 0x343A PUSH2 0x33EB JUMP JUMPDEST JUMPDEST PUSH0 PUSH2 0x3448 DUP5 DUP3 DUP6 ADD PUSH2 0x3412 JUMP JUMPDEST SWAP2 POP POP SWAP3 SWAP2 POP POP JUMP JUMPDEST PUSH0 PUSH32 0xFFFFFFFF00000000000000000000000000000000000000000000000000000000 DUP3 AND SWAP1 POP SWAP2 SWAP1 POP JUMP JUMPDEST PUSH2 0x3485 DUP2 PUSH2 0x3451 JUMP JUMPDEST DUP2 EQ PUSH2 0x348F JUMPI PUSH0 DUP1 REVERT JUMPDEST POP JUMP JUMPDEST PUSH0 DUP2 CALLDATALOAD SWAP1 POP PUSH2 0x34A0 DUP2 PUSH2 0x347C JUMP JUMPDEST SWAP3 SWAP2 POP POP JUMP JUMPDEST PUSH0 PUSH1 0x20 DUP3 DUP5 SUB SLT ISZERO PUSH2 0x34BB JUMPI PUSH2 0x34BA PUSH2 0x33EB JUMP JUMPDEST JUMPDEST PUSH0 PUSH2 0x34C8 DUP5 DUP3 DUP6 ADD PUSH2 0x3492 JUMP JUMPDEST SWAP2 POP POP SWAP3 SWAP2 POP POP JUMP JUMPDEST PUSH0 DUP2 ISZERO ISZERO SWAP1 POP SWAP2 SWAP1 POP JUMP JUMPDEST PUSH2 0x34E5 DUP2 PUSH2 0x34D1 JUMP JUMPDEST DUP3 MSTORE POP POP JUMP JUMPDEST PUSH0 PUSH1 0x20 DUP3 ADD SWAP1 POP PUSH2 0x34FE PUSH0 DUP4 ADD DUP5 PUSH2 0x34DC JUMP JUMPDEST SWAP3 SWAP2 POP POP JUMP JUMPDEST PUSH0 DUP2 MLOAD SWAP1 POP SWAP2 SWAP1 POP JUMP JUMPDEST PUSH0 DUP3 DUP3 MSTORE PUSH1 0x20 DUP3 ADD SWAP1 POP SWAP3 SWAP2 POP POP JUMP JUMPDEST DUP3 DUP2 DUP4 MCOPY PUSH0 DUP4 DUP4 ADD MSTORE POP POP POP JUMP JUMPDEST PUSH0 PUSH1 0x1F NOT PUSH1 0x1F DUP4 ADD AND SWAP1 POP SWAP2 SWAP1 POP JUMP JUMPDEST PUSH0 PUSH2 0x3546 DUP3 PUSH2 0x3504 JUMP JUMPDEST PUSH2 0x3550 DUP2 DUP6 PUSH2 0x350E JUMP JUMPDEST SWAP4 POP PUSH2 0x3560 DUP2 DUP6 PUSH1 0x20 DUP7 ADD PUSH2 0x351E JUMP JUMPDEST PUSH2 0x3569 DUP2 PUSH2 0x352C JUMP JUMPDEST DUP5 ADD SWAP2 POP POP SWAP3 SWAP2 POP POP JUMP JUMPDEST PUSH0 PUSH1 0x20 DUP3 ADD SWAP1 POP DUP2 DUP2 SUB PUSH0 DUP4 ADD MSTORE PUSH2 0x358C DUP2 DUP5 PUSH2 0x353C JUMP JUMPDEST SWAP1 POP SWAP3 SWAP2 POP POP JUMP JUMPDEST PUSH0 PUSH20 0xFFFFFFFFFFFFFFFFFFFFFFFFFFFFFFFFFFFFFFFF DUP3 AND SWAP1 POP SWAP2 SWAP1 POP JUMP JUMPDEST PUSH0 PUSH2 0x35BD DUP3 PUSH2 0x3594 JUMP JUMPDEST SWAP1 POP SWAP2 SWAP1 POP JUMP JUMPDEST PUSH2 0x35CD DUP2 PUSH2 0x35B3 JUMP JUMPDEST DUP3 MSTORE POP POP JUMP JUMPDEST PUSH0 PUSH1 0x20 DUP3 ADD SWAP1 POP PUSH2 0x35E6 PUSH0 DUP4 ADD DUP5 PUSH2 0x35C4 JUMP JUMPDEST SWAP3 SWAP2 POP POP JUMP JUMPDEST PUSH2 0x35F5 DUP2 PUSH2 0x35B3 JUMP JUMPDEST DUP2 EQ PUSH2 0x35FF JUMPI PUSH0 DUP1 REVERT JUMPDEST POP JUMP JUMPDEST PUSH0 DUP2 CALLDATALOAD SWAP1 POP PUSH2 0x3610 DUP2 PUSH2 0x35EC JUMP JUMPDEST SWAP3 SWAP2 POP POP JUMP JUMPDEST PUSH0 DUP1 PUSH1 0x40 DUP4 DUP6 SUB SLT ISZERO PUSH2 0x362C JUMPI PUSH2 0x362B PUSH2 0x33EB JUMP JUMPDEST JUMPDEST PUSH0 PUSH2 0x3639 DUP6 DUP3 DUP7 ADD PUSH2 0x3602 JUMP JUMPDEST SWAP3 POP POP PUSH1 0x20 PUSH2 0x364A DUP6 DUP3 DUP7 ADD PUSH2 0x3412 JUMP JUMPDEST SWAP2 POP POP SWAP3 POP SWAP3 SWAP1 POP JUMP JUMPDEST PUSH0 DUP1 REVERT JUMPDEST PUSH0 DUP1 REVERT JUMPDEST PUSH0 DUP1 REVERT JUMPDEST PUSH0 DUP1 DUP4 PUSH1 0x1F DUP5 ADD SLT PUSH2 0x3675 JUMPI PUSH2 0x3674 PUSH2 0x3654 JUMP JUMPDEST JUMPDEST DUP3 CALLDATALOAD SWAP1 POP PUSH8 0xFFFFFFFFFFFFFFFF DUP2 GT ISZERO PUSH2 0x3692 JUMPI PUSH2 0x3691 PUSH2 0x3658 JUMP JUMPDEST JUMPDEST PUSH1 0x20 DUP4 ADD SWAP2 POP DUP4 PUSH1 0x1 DUP3 MUL DUP4 ADD GT ISZERO PUSH2 0x36AE JUMPI PUSH2 0x36AD PUSH2 0x365C JUMP JUMPDEST JUMPDEST SWAP3 POP SWAP3 SWAP1 POP JUMP JUMPDEST PUSH0 DUP1 PUSH1 0x20 DUP4 DUP6 SUB SLT ISZERO PUSH2 0x36CB JUMPI PUSH2 0x36CA PUSH2 0x33EB JUMP JUMPDEST JUMPDEST PUSH0 DUP4 ADD CALLDATALOAD PUSH8 0xFFFFFFFFFFFFFFFF DUP2 GT ISZERO PUSH2 0x36E8 JUMPI PUSH2 0x36E7 PUSH2 0x33EF JUMP JUMPDEST JUMPDEST PUSH2 0x36F4 DUP6 DUP3 DUP7 ADD PUSH2 0x3660 JUMP JUMPDEST SWAP3 POP SWAP3 POP POP SWAP3 POP SWAP3 SWAP1 POP JUMP JUMPDEST PUSH0 DUP1 PUSH0 PUSH1 0x60 DUP5 DUP7 SUB SLT ISZERO PUSH2 0x3717 JUMPI PUSH2 0x3716 PUSH2 0x33EB JUMP JUMPDEST JUMPDEST PUSH0 PUSH2 0x3724 DUP7 DUP3 DUP8 ADD PUSH2 0x3602 JUMP JUMPDEST SWAP4 POP POP PUSH1 0x20 PUSH2 0x3735 DUP7 DUP3 DUP8 ADD PUSH2 0x3602 JUMP JUMPDEST SWAP3 POP POP PUSH1 0x40 PUSH2 0x3746 DUP7 DUP3 DUP8 ADD PUSH2 0x3412 JUMP JUMPDEST SWAP2 POP POP SWAP3 POP SWAP3 POP SWAP3 JUMP JUMPDEST PUSH2 0x3759 DUP2 PUSH2 0x34D1 JUMP JUMPDEST DUP2 EQ PUSH2 0x3763 JUMPI PUSH0 DUP1 REVERT JUMPDEST POP JUMP JUMPDEST PUSH0 DUP2 CALLDATALOAD SWAP1 POP PUSH2 0x3774 DUP2 PUSH2 0x3750 JUMP JUMPDEST SWAP3 SWAP2 POP POP JUMP JUMPDEST PUSH0 PUSH1 0x20 DUP3 DUP5 SUB SLT ISZERO PUSH2 0x378F JUMPI PUSH2 0x378E PUSH2 0x33EB JUMP JUMPDEST JUMPDEST PUSH0 PUSH2 0x379C DUP5 DUP3 DUP6 ADD PUSH2 0x3766 JUMP JUMPDEST SWAP2 POP POP SWAP3 SWAP2 POP POP JUMP JUMPDEST PUSH0 DUP1 PUSH0 PUSH1 0x40 DUP5 DUP7 SUB SLT ISZERO PUSH2 0x37BC JUMPI PUSH2 0x37BB PUSH2 0x33EB JUMP JUMPDEST JUMPDEST PUSH0 PUSH2 0x37C9 DUP7 DUP3 DUP8 ADD PUSH2 0x3602 JUMP JUMPDEST SWAP4 POP POP PUSH1 0x20 DUP5 ADD CALLDATALOAD PUSH8 0xFFFFFFFFFFFFFFFF DUP2 GT ISZERO PUSH2 0x37EA JUMPI PUSH2 0x37E9 PUSH2 0x33EF JUMP JUMPDEST JUMPDEST PUSH2 0x37F6 DUP7 DUP3 DUP8 ADD PUSH2 0x3660 JUMP JUMPDEST SWAP3 POP SWAP3 POP POP SWAP3 POP SWAP3 POP SWAP3 JUMP JUMPDEST PUSH2 0x380B DUP2 PUSH2 0x33F3 JUMP JUMPDEST DUP3 MSTORE POP POP JUMP JUMPDEST PUSH0 PUSH1 0x40 DUP3 ADD SWAP1 POP PUSH2 0x3824 PUSH0 DUP4 ADD DUP6 PUSH2 0x3802 JUMP JUMPDEST PUSH2 0x3831 PUSH1 0x20 DUP4 ADD DUP5 PUSH2 0x3802 JUMP JUMPDEST SWAP4 SWAP3 POP POP POP JUMP JUMPDEST PUSH0 PUSH1 0x20 DUP3 DUP5 SUB SLT ISZERO PUSH2 0x384D JUMPI PUSH2 0x384C PUSH2 0x33EB JUMP JUMPDEST JUMPDEST PUSH0 PUSH2 0x385A DUP5 DUP3 DUP6 ADD PUSH2 0x3602 JUMP JUMPDEST SWAP2 POP POP SWAP3 SWAP2 POP POP JUMP JUMPDEST PUSH0 PUSH1 0x20 DUP3 ADD SWAP1 POP PUSH2 0x3876 PUSH0 DUP4 ADD DUP5 PUSH2 0x3802 JUMP JUMPDEST SWAP3 SWAP2 POP POP JUMP JUMPDEST PUSH0 DUP2 MLOAD SWAP1 POP SWAP2 SWAP1 POP JUMP JUMPDEST PUSH0 DUP3 DUP3 MSTORE PUSH1 0x20 DUP3 ADD SWAP1 POP SWAP3 SWAP2 POP POP JUMP JUMPDEST PUSH0 DUP2 SWAP1 POP PUSH1 0x20 DUP3 ADD SWAP1 POP SWAP2 SWAP1 POP JUMP JUMPDEST PUSH2 0x38AE DUP2 PUSH2 0x33F3 JUMP JUMPDEST DUP3 MSTORE POP POP JUMP JUMPDEST PUSH0 PUSH2 0x38BF DUP4 DUP4 PUSH2 0x38A5 JUMP JUMPDEST PUSH1 0x20 DUP4 ADD SWAP1 POP SWAP3 SWAP2 POP POP JUMP JUMPDEST PUSH0 PUSH1 0x20 DUP3 ADD SWAP1 POP SWAP2 SWAP1 POP JUMP JUMPDEST PUSH0 PUSH2 0x38E1 DUP3 PUSH2 0x387C JUMP JUMPDEST PUSH2 0x38EB DUP2 DUP6 PUSH2 0x3886 JUMP JUMPDEST SWAP4 POP PUSH2 0x38F6 DUP4 PUSH2 0x3896 JUMP JUMPDEST DUP1 PUSH0 JUMPDEST DUP4 DUP2 LT ISZERO PUSH2 0x3926 JUMPI DUP2 MLOAD PUSH2 0x390D DUP9 DUP3 PUSH2 0x38B4 JUMP JUMPDEST SWAP8 POP PUSH2 0x3918 DUP4 PUSH2 0x38CB JUMP JUMPDEST SWAP3 POP POP PUSH1 0x1 DUP2 ADD SWAP1 POP PUSH2 0x38F9 JUMP JUMPDEST POP DUP6 SWAP4 POP POP POP POP SWAP3 SWAP2 POP POP JUMP JUMPDEST PUSH0 PUSH1 0x20 DUP3 ADD SWAP1 POP DUP2 DUP2 SUB PUSH0 DUP4 ADD MSTORE PUSH2 0x394B DUP2 DUP5 PUSH2 0x38D7 JUMP JUMPDEST SWAP1 POP SWAP3 SWAP2 POP POP JUMP JUMPDEST PUSH0 DUP1 PUSH0 DUP1 PUSH1 0x60 DUP6 DUP8 SUB SLT ISZERO PUSH2 0x396B JUMPI PUSH2 0x396A PUSH2 0x33EB JUMP JUMPDEST JUMPDEST PUSH0 DUP6 ADD CALLDATALOAD PUSH8 0xFFFFFFFFFFFFFFFF DUP2 GT ISZERO PUSH2 0x3988 JUMPI PUSH2 0x3987 PUSH2 0x33EF JUMP JUMPDEST JUMPDEST PUSH2 0x3994 DUP8 DUP3 DUP9 ADD PUSH2 0x3660 JUMP JUMPDEST SWAP5 POP SWAP5 POP POP PUSH1 0x20 PUSH2 0x39A7 DUP8 DUP3 DUP9 ADD PUSH2 0x3412 JUMP JUMPDEST SWAP3 POP POP PUSH1 0x40 PUSH2 0x39B8 DUP8 DUP3 DUP9 ADD PUSH2 0x3412 JUMP JUMPDEST SWAP2 POP POP SWAP3 SWAP6 SWAP2 SWAP5 POP SWAP3 POP JUMP JUMPDEST PUSH0 DUP1 PUSH1 0x40 DUP4 DUP6 SUB SLT ISZERO PUSH2 0x39DA JUMPI PUSH2 0x39D9 PUSH2 0x33EB JUMP JUMPDEST JUMPDEST PUSH0 PUSH2 0x39E7 DUP6 DUP3 DUP7 ADD PUSH2 0x3602 JUMP JUMPDEST SWAP3 POP POP PUSH1 0x20 PUSH2 0x39F8 DUP6 DUP3 DUP7 ADD PUSH2 0x3766 JUMP JUMPDEST SWAP2 POP POP SWAP3 POP SWAP3 SWAP1 POP JUMP JUMPDEST PUSH32 0x4E487B7100000000000000000000000000000000000000000000000000000000 PUSH0 MSTORE PUSH1 0x21 PUSH1 0x4 MSTORE PUSH1 0x24 PUSH0 REVERT JUMPDEST PUSH1 0x4 DUP2 LT PUSH2 0x3A40 JUMPI PUSH2 0x3A3F PUSH2 0x3A02 JUMP JUMPDEST JUMPDEST POP JUMP JUMPDEST PUSH0 DUP2 SWAP1 POP PUSH2 0x3A50 DUP3 PUSH2 0x3A2F JUMP JUMPDEST SWAP2 SWAP1 POP JUMP JUMPDEST PUSH0 PUSH2 0x3A5F DUP3 PUSH2 0x3A43 JUMP JUMPDEST SWAP1 POP SWAP2 SWAP1 POP JUMP JUMPDEST PUSH2 0x3A6F DUP2 PUSH2 0x3A55 JUMP JUMPDEST DUP3 MSTORE POP POP JUMP JUMPDEST PUSH0 PUSH1 0x40 DUP3 ADD SWAP1 POP PUSH2 0x3A88 PUSH0 DUP4 ADD DUP6 PUSH2 0x3A66 JUMP JUMPDEST PUSH2 0x3A95 PUSH1 0x20 DUP4 ADD DUP5 PUSH2 0x3802 JUMP JUMPDEST SWAP4 SWAP3 POP POP POP JUMP JUMPDEST PUSH0 DUP1 REVERT JUMPDEST PUSH32 0x4E487B7100000000000000000000000000000000000000000000000000000000 PUSH0 MSTORE PUSH1 0x41 PUSH1 0x4 MSTORE PUSH1 0x24 PUSH0 REVERT JUMPDEST PUSH2 0x3AD6 DUP3 PUSH2 0x352C JUMP JUMPDEST DUP2 ADD DUP2 DUP2 LT PUSH8 0xFFFFFFFFFFFFFFFF DUP3 GT OR ISZERO PUSH2 0x3AF5 JUMPI PUSH2 0x3AF4 PUSH2 0x3AA0 JUMP JUMPDEST JUMPDEST DUP1 PUSH1 0x40 MSTORE POP POP POP JUMP JUMPDEST PUSH0 PUSH2 0x3B07 PUSH2 0x33E2 JUMP JUMPDEST SWAP1 POP PUSH2 0x3B13 DUP3 DUP3 PUSH2 0x3ACD JUMP JUMPDEST SWAP2 SWAP1 POP JUMP JUMPDEST PUSH0 PUSH8 0xFFFFFFFFFFFFFFFF DUP3 GT ISZERO PUSH2 0x3B32 JUMPI PUSH2 0x3B31 PUSH2 0x3AA0 JUMP JUMPDEST JUMPDEST PUSH2 0x3B3B DUP3 PUSH2 0x352C JUMP JUMPDEST SWAP1 POP PUSH1 0x20 DUP2 ADD SWAP1 POP SWAP2 SWAP1 POP JUMP JUMPDEST DUP3 DUP2 DUP4 CALLDATACOPY PUSH0 DUP4 DUP4 ADD MSTORE POP POP POP JUMP JUMPDEST PUSH0 PUSH2 0x3B68 PUSH2 0x3B63 DUP5 PUSH2 0x3B18 JUMP JUMPDEST PUSH2 0x3AFE JUMP JUMPDEST SWAP1 POP DUP3 DUP2 MSTORE PUSH1 0x20 DUP2 ADD DUP5 DUP5 DUP5 ADD GT ISZERO PUSH2 0x3B84 JUMPI PUSH2 0x3B83 PUSH2 0x3A9C JUMP JUMPDEST JUMPDEST PUSH2 0x3B8F DUP5 DUP3 DUP6 PUSH2 0x3B48 JUMP JUMPDEST POP SWAP4 SWAP3 POP POP POP JUMP JUMPDEST PUSH0 DUP3 PUSH1 0x1F DUP4 ADD SLT PUSH2 0x3BAB JUMPI PUSH2 0x3BAA PUSH2 0x3654 JUMP JUMPDEST JUMPDEST DUP2 CALLDATALOAD PUSH2 0x3BBB DUP5 DUP3 PUSH1 0x20 DUP7 ADD PUSH2 0x3B56 JUMP JUMPDEST SWAP2 POP POP SWAP3 SWAP2 POP POP JUMP JUMPDEST PUSH0 DUP1 PUSH0 DUP1 PUSH1 0x80 DUP6 DUP8 SUB SLT ISZERO PUSH2 0x3BDC JUMPI PUSH2 0x3BDB PUSH2 0x33EB JUMP JUMPDEST JUMPDEST PUSH0 PUSH2 0x3BE9 DUP8 DUP3 DUP9 ADD PUSH2 0x3602 JUMP JUMPDEST SWAP5 POP POP PUSH1 0x20 PUSH2 0x3BFA DUP8 DUP3 DUP9 ADD PUSH2 0x3602 JUMP JUMPDEST SWAP4 POP POP PUSH1 0x40 PUSH2 0x3C0B DUP8 DUP3 DUP9 ADD PUSH2 0x3412 JUMP JUMPDEST SWAP3 POP POP PUSH1 0x60 DUP6 ADD CALLDATALOAD PUSH8 0xFFFFFFFFFFFFFFFF DUP2 GT ISZERO PUSH2 0x3C2C JUMPI PUSH2 0x3C2B PUSH2 0x33EF JUMP JUMPDEST JUMPDEST PUSH2 0x3C38 DUP8 DUP3 DUP9 ADD PUSH2 0x3B97 JUMP JUMPDEST SWAP2 POP POP SWAP3 SWAP6 SWAP2 SWAP5 POP SWAP3 POP JUMP JUMPDEST PUSH0 PUSH1 0xC0 DUP3 ADD SWAP1 POP PUSH2 0x3C57 PUSH0 DUP4 ADD DUP10 PUSH2 0x3802 JUMP JUMPDEST PUSH2 0x3C64 PUSH1 0x20 DUP4 ADD DUP9 PUSH2 0x3802 JUMP JUMPDEST PUSH2 0x3C71 PUSH1 0x40 DUP4 ADD DUP8 PUSH2 0x3802 JUMP JUMPDEST PUSH2 0x3C7E PUSH1 0x60 DUP4 ADD DUP7 PUSH2 0x3802 JUMP JUMPDEST PUSH2 0x3C8B PUSH1 0x80 DUP4 ADD DUP6 PUSH2 0x3802 JUMP JUMPDEST DUP2 DUP2 SUB PUSH1 0xA0 DUP4 ADD MSTORE PUSH2 0x3C9D DUP2 DUP5 PUSH2 0x353C JUMP JUMPDEST SWAP1 POP SWAP8 SWAP7 POP POP POP POP POP POP POP JUMP JUMPDEST PUSH0 DUP1 PUSH1 0x40 DUP4 DUP6 SUB SLT ISZERO PUSH2 0x3CC0 JUMPI PUSH2 0x3CBF PUSH2 0x33EB JUMP JUMPDEST JUMPDEST PUSH0 PUSH2 0x3CCD DUP6 DUP3 DUP7 ADD PUSH2 0x3602 JUMP JUMPDEST SWAP3 POP POP PUSH1 0x20 PUSH2 0x3CDE DUP6 DUP3 DUP7 ADD PUSH2 0x3602 JUMP JUMPDEST SWAP2 POP POP SWAP3 POP SWAP3 SWAP1 POP JUMP JUMPDEST PUSH32 0x4E6F74206F776E65720000000000000000000000000000000000000000000000 PUSH0 DUP3 ADD MSTORE POP JUMP JUMPDEST PUSH0 PUSH2 0x3D1C PUSH1 0x9 DUP4 PUSH2 0x350E JUMP JUMPDEST SWAP2 POP PUSH2 0x3D27 DUP3 PUSH2 0x3CE8 JUMP JUMPDEST PUSH1 0x20 DUP3 ADD SWAP1 POP SWAP2 SWAP1 POP JUMP JUMPDEST PUSH0 PUSH1 0x20 DUP3 ADD SWAP1 POP DUP2 DUP2 SUB PUSH0 DUP4 ADD MSTORE PUSH2 0x3D49 DUP2 PUSH2 0x3D10 JUMP JUMPDEST SWAP1 POP SWAP2 SWAP1 POP JUMP JUMPDEST PUSH32 0x496E76616C69642067726F777468207374616765000000000000000000000000 PUSH0 DUP3 ADD MSTORE POP JUMP JUMPDEST PUSH0 PUSH2 0x3D84 PUSH1 0x14 DUP4 PUSH2 0x350E JUMP JUMPDEST SWAP2 POP PUSH2 0x3D8F DUP3 PUSH2 0x3D50 JUMP JUMPDEST PUSH1 0x20 DUP3 ADD SWAP1 POP SWAP2 SWAP1 POP JUMP JUMPDEST PUSH0 PUSH1 0x20 DUP3 ADD SWAP1 POP DUP2 DUP2 SUB PUSH0 DUP4 ADD MSTORE PUSH2 0x3DB1 DUP2 PUSH2 0x3D78 JUMP JUMPDEST SWAP1 POP SWAP2 SWAP1 POP JUMP JUMPDEST PUSH32 0x4E487B7100000000000000000000000000000000000000000000000000000000 PUSH0 MSTORE PUSH1 0x22 PUSH1 0x4 MSTORE PUSH1 0x24 PUSH0 REVERT JUMPDEST PUSH0 PUSH1 0x2 DUP3 DIV SWAP1 POP PUSH1 0x1 DUP3 AND DUP1 PUSH2 0x3DFC JUMPI PUSH1 0x7F DUP3 AND SWAP2 POP JUMPDEST PUSH1 0x20 DUP3 LT DUP2 SUB PUSH2 0x3E0F JUMPI PUSH2 0x3E0E PUSH2 0x3DB8 JUMP JUMPDEST JUMPDEST POP SWAP2 SWAP1 POP JUMP JUMPDEST PUSH0 DUP3 SWAP1 POP SWAP3 SWAP2 POP POP JUMP JUMPDEST PUSH0 DUP2 SWAP1 POP DUP2 PUSH0 MSTORE PUSH1 0x20 PUSH0 KECCAK256 SWAP1 POP SWAP2 SWAP1 POP JUMP JUMPDEST PUSH0 PUSH1 0x20 PUSH1 0x1F DUP4 ADD DIV SWAP1 POP SWAP2 SWAP1 POP JUMP JUMPDEST PUSH0 DUP3 DUP3 SHL SWAP1 POP SWAP3 SWAP2 POP POP JUMP JUMPDEST PUSH0 PUSH1 0x8 DUP4 MUL PUSH2 0x3E7B PUSH32 0xFFFFFFFFFFFFFFFFFFFFFFFFFFFFFFFFFFFFFFFFFFFFFFFFFFFFFFFFFFFFFFFF DUP3 PUSH2 0x3E40 JUMP JUMPDEST PUSH2 0x3E85 DUP7 DUP4 PUSH2 0x3E40 JUMP JUMPDEST SWAP6 POP DUP1 NOT DUP5 AND SWAP4 POP DUP1 DUP7 AND DUP5 OR SWAP3 POP POP POP SWAP4 SWAP3 POP POP POP JUMP JUMPDEST PUSH0 DUP2 SWAP1 POP SWAP2 SWAP1 POP JUMP JUMPDEST PUSH0 PUSH2 0x3EC0 PUSH2 0x3EBB PUSH2 0x3EB6 DUP5 PUSH2 0x33F3 JUMP JUMPDEST PUSH2 0x3E9D JUMP JUMPDEST PUSH2 0x33F3 JUMP JUMPDEST SWAP1 POP SWAP2 SWAP1 POP JUMP JUMPDEST PUSH0 DUP2 SWAP1 POP SWAP2 SWAP1 POP JUMP JUMPDEST PUSH2 0x3ED9 DUP4 PUSH2 0x3EA6 JUMP JUMPDEST PUSH2 0x3EED PUSH2 0x3EE5 DUP3 PUSH2 0x3EC7 JUMP JUMPDEST DUP5 DUP5 SLOAD PUSH2 0x3E4C JUMP JUMPDEST DUP3 SSTORE POP POP POP POP JUMP JUMPDEST PUSH0 SWAP1 JUMP JUMPDEST PUSH2 0x3F01 PUSH2 0x3EF5 JUMP JUMPDEST PUSH2 0x3F0C DUP2 DUP5 DUP5 PUSH2 0x3ED0 JUMP JUMPDEST POP POP POP JUMP JUMPDEST JUMPDEST DUP2 DUP2 LT ISZERO PUSH2 0x3F2F JUMPI PUSH2 0x3F24 PUSH0 DUP3 PUSH2 0x3EF9 JUMP JUMPDEST PUSH1 0x1 DUP2 ADD SWAP1 POP PUSH2 0x3F12 JUMP JUMPDEST POP POP JUMP JUMPDEST PUSH1 0x1F DUP3 GT ISZERO PUSH2 0x3F74 JUMPI PUSH2 0x3F45 DUP2 PUSH2 0x3E1F JUMP JUMPDEST PUSH2 0x3F4E DUP5 PUSH2 0x3E31 JUMP JUMPDEST DUP2 ADD PUSH1 0x20 DUP6 LT ISZERO PUSH2 0x3F5D JUMPI DUP2 SWAP1 POP JUMPDEST PUSH2 0x3F71 PUSH2 0x3F69 DUP6 PUSH2 0x3E31 JUMP JUMPDEST DUP4 ADD DUP3 PUSH2 0x3F11 JUMP JUMPDEST POP POP JUMPDEST POP POP POP JUMP JUMPDEST PUSH0 DUP3 DUP3 SHR SWAP1 POP SWAP3 SWAP2 POP POP JUMP JUMPDEST PUSH0 PUSH2 0x3F94 PUSH0 NOT DUP5 PUSH1 0x8 MUL PUSH2 0x3F79 JUMP JUMPDEST NOT DUP1 DUP4 AND SWAP2 POP POP SWAP3 SWAP2 POP POP JUMP JUMPDEST PUSH0 PUSH2 0x3FAC DUP4 DUP4 PUSH2 0x3F85 JUMP JUMPDEST SWAP2 POP DUP3 PUSH1 0x2 MUL DUP3 OR SWAP1 POP SWAP3 SWAP2 POP POP JUMP JUMPDEST PUSH2 0x3FC6 DUP4 DUP4 PUSH2 0x3E15 JUMP JUMPDEST PUSH8 0xFFFFFFFFFFFFFFFF DUP2 GT ISZERO PUSH2 0x3FDF JUMPI PUSH2 0x3FDE PUSH2 0x3AA0 JUMP JUMPDEST JUMPDEST PUSH2 0x3FE9 DUP3 SLOAD PUSH2 0x3DE5 JUMP JUMPDEST PUSH2 0x3FF4 DUP3 DUP3 DUP6 PUSH2 0x3F33 JUMP JUMPDEST PUSH0 PUSH1 0x1F DUP4 GT PUSH1 0x1 DUP2 EQ PUSH2 0x4021 JUMPI PUSH0 DUP5 ISZERO PUSH2 0x400F JUMPI DUP3 DUP8 ADD CALLDATALOAD SWAP1 POP JUMPDEST PUSH2 0x4019 DUP6 DUP3 PUSH2 0x3FA1 JUMP JUMPDEST DUP7 SSTORE POP PUSH2 0x4080 JUMP JUMPDEST PUSH1 0x1F NOT DUP5 AND PUSH2 0x402F DUP7 PUSH2 0x3E1F JUMP JUMPDEST PUSH0 JUMPDEST DUP3 DUP2 LT ISZERO PUSH2 0x4056 JUMPI DUP5 DUP10 ADD CALLDATALOAD DUP3 SSTORE PUSH1 0x1 DUP3 ADD SWAP2 POP PUSH1 0x20 DUP6 ADD SWAP5 POP PUSH1 0x20 DUP2 ADD SWAP1 POP PUSH2 0x4031 JUMP JUMPDEST DUP7 DUP4 LT ISZERO PUSH2 0x4073 JUMPI DUP5 DUP10 ADD CALLDATALOAD PUSH2 0x406F PUSH1 0x1F DUP10 AND DUP3 PUSH2 0x3F85 JUMP JUMPDEST DUP4 SSTORE POP JUMPDEST PUSH1 0x1 PUSH1 0x2 DUP9 MUL ADD DUP9 SSTORE POP POP POP JUMPDEST POP POP POP POP POP POP POP JUMP JUMPDEST PUSH32 0x4E487B7100000000000000000000000000000000000000000000000000000000 PUSH0 MSTORE PUSH1 0x11 PUSH1 0x4 MSTORE PUSH1 0x24 PUSH0 REVERT JUMPDEST PUSH0 PUSH2 0x40C0 DUP3 PUSH2 0x33F3 JUMP JUMPDEST SWAP2 POP PUSH2 0x40CB DUP4 PUSH2 0x33F3 JUMP JUMPDEST SWAP3 POP DUP3 DUP3 ADD SWAP1 POP DUP1 DUP3 GT ISZERO PUSH2 0x40E3 JUMPI PUSH2 0x40E2 PUSH2 0x4089 JUMP JUMPDEST JUMPDEST SWAP3 SWAP2 POP POP JUMP JUMPDEST PUSH32 0x556E61626C6520746F2065766F6C766500000000000000000000000000000000 PUSH0 DUP3 ADD MSTORE POP JUMP JUMPDEST PUSH0 PUSH2 0x411D PUSH1 0x10 DUP4 PUSH2 0x350E JUMP JUMPDEST SWAP2 POP PUSH2 0x4128 DUP3 PUSH2 0x40E9 JUMP JUMPDEST PUSH1 0x20 DUP3 ADD SWAP1 POP SWAP2 SWAP1 POP JUMP JUMPDEST PUSH0 PUSH1 0x20 DUP3 ADD SWAP1 POP DUP2 DUP2 SUB PUSH0 DUP4 ADD MSTORE PUSH2 0x414A DUP2 PUSH2 0x4111 JUMP JUMPDEST SWAP1 POP SWAP2 SWAP1 POP JUMP JUMPDEST PUSH0 PUSH1 0x60 DUP3 ADD SWAP1 POP PUSH2 0x4164 PUSH0 DUP4 ADD DUP7 PUSH2 0x35C4 JUMP JUMPDEST PUSH2 0x4171 PUSH1 0x20 DUP4 ADD DUP6 PUSH2 0x3802 JUMP JUMPDEST PUSH2 0x417E PUSH1 0x40 DUP4 ADD DUP5 PUSH2 0x35C4 JUMP JUMPDEST SWAP5 SWAP4 POP POP POP POP JUMP JUMPDEST PUSH0 PUSH2 0x4190 DUP3 PUSH2 0x33F3 JUMP JUMPDEST SWAP2 POP PUSH32 0xFFFFFFFFFFFFFFFFFFFFFFFFFFFFFFFFFFFFFFFFFFFFFFFFFFFFFFFFFFFFFFFF DUP3 SUB PUSH2 0x41C2 JUMPI PUSH2 0x41C1 PUSH2 0x4089 JUMP JUMPDEST JUMPDEST PUSH1 0x1 DUP3 ADD SWAP1 POP SWAP2 SWAP1 POP JUMP JUMPDEST PUSH32 0x5072656D69756D206D696E74696E67206973206E6F7420656E61626C65640000 PUSH0 DUP3 ADD MSTORE POP JUMP JUMPDEST PUSH0 PUSH2 0x4201 PUSH1 0x1E DUP4 PUSH2 0x350E JUMP JUMPDEST SWAP2 POP PUSH2 0x420C DUP3 PUSH2 0x41CD JUMP JUMPDEST PUSH1 0x20 DUP3 ADD SWAP1 POP SWAP2 SWAP1 POP JUMP JUMPDEST PUSH0 PUSH1 0x20 DUP3 ADD SWAP1 POP DUP2 DUP2 SUB PUSH0 DUP4 ADD MSTORE PUSH2 0x422E DUP2 PUSH2 0x41F5 JUMP JUMPDEST SWAP1 POP SWAP2 SWAP1 POP JUMP JUMPDEST PUSH32 0x4E487B7100000000000000000000000000000000000000000000000000000000 PUSH0 MSTORE PUSH1 0x32 PUSH1 0x4 MSTORE PUSH1 0x24 PUSH0 REVERT JUMPDEST PUSH32 0x496E636573740000000000000000000000000000000000000000000000000000 PUSH0 DUP3 ADD MSTORE POP JUMP JUMPDEST PUSH0 PUSH2 0x4296 PUSH1 0x6 DUP4 PUSH2 0x350E JUMP JUMPDEST SWAP2 POP PUSH2 0x42A1 DUP3 PUSH2 0x4262 JUMP JUMPDEST PUSH1 0x20 DUP3 ADD SWAP1 POP SWAP2 SWAP1 POP JUMP JUMPDEST PUSH0 PUSH1 0x20 DUP3 ADD SWAP1 POP DUP2 DUP2 SUB PUSH0 DUP4 ADD MSTORE PUSH2 0x42C3 DUP2 PUSH2 0x428A JUMP JUMPDEST SWAP1 POP SWAP2 SWAP1 POP JUMP JUMPDEST PUSH32 0x4272656564696E67206E6F7420616C6C6F776564207965740000000000000000 PUSH0 DUP3 ADD MSTORE POP JUMP JUMPDEST PUSH0 PUSH2 0x42FE PUSH1 0x18 DUP4 PUSH2 0x350E JUMP JUMPDEST SWAP2 POP PUSH2 0x4309 DUP3 PUSH2 0x42CA JUMP JUMPDEST PUSH1 0x20 DUP3 ADD SWAP1 POP SWAP2 SWAP1 POP JUMP JUMPDEST PUSH0 PUSH1 0x20 DUP3 ADD SWAP1 POP DUP2 DUP2 SUB PUSH0 DUP4 ADD MSTORE PUSH2 0x432B DUP2 PUSH2 0x42F2 JUMP JUMPDEST SWAP1 POP SWAP2 SWAP1 POP JUMP JUMPDEST PUSH32 0x53616D652067656E646572000000000000000000000000000000000000000000 PUSH0 DUP3 ADD MSTORE POP JUMP JUMPDEST PUSH0 PUSH2 0x4366 PUSH1 0xB DUP4 PUSH2 0x350E JUMP JUMPDEST SWAP2 POP PUSH2 0x4371 DUP3 PUSH2 0x4332 JUMP JUMPDEST PUSH1 0x20 DUP3 ADD SWAP1 POP SWAP2 SWAP1 POP JUMP JUMPDEST PUSH0 PUSH1 0x20 DUP3 ADD SWAP1 POP DUP2 DUP2 SUB PUSH0 DUP4 ADD MSTORE PUSH2 0x4393 DUP2 PUSH2 0x435A JUMP JUMPDEST SWAP1 POP SWAP2 SWAP1 POP JUMP JUMPDEST PUSH0 PUSH2 0x43A4 DUP3 PUSH2 0x33F3 JUMP JUMPDEST SWAP2 POP PUSH2 0x43AF DUP4 PUSH2 0x33F3 JUMP JUMPDEST SWAP3 POP DUP3 DUP3 SUB SWAP1 POP DUP2 DUP2 GT ISZERO PUSH2 0x43C7 JUMPI PUSH2 0x43C6 PUSH2 0x4089 JUMP JUMPDEST JUMPDEST SWAP3 SWAP2 POP POP JUMP JUMPDEST PUSH0 DUP2 SWAP1 POP SWAP3 SWAP2 POP POP JUMP JUMPDEST PUSH0 DUP2 SLOAD PUSH2 0x43E3 DUP2 PUSH2 0x3DE5 JUMP JUMPDEST PUSH2 0x43ED DUP2 DUP7 PUSH2 0x43CD JUMP JUMPDEST SWAP5 POP PUSH1 0x1 DUP3 AND PUSH0 DUP2 EQ PUSH2 0x4407 JUMPI PUSH1 0x1 DUP2 EQ PUSH2 0x441C JUMPI PUSH2 0x444E JUMP JUMPDEST PUSH1 0xFF NOT DUP4 AND DUP7 MSTORE DUP2 ISZERO ISZERO DUP3 MUL DUP7 ADD SWAP4 POP PUSH2 0x444E JUMP JUMPDEST PUSH2 0x4425 DUP6 PUSH2 0x3E1F JUMP JUMPDEST PUSH0 JUMPDEST DUP4 DUP2 LT ISZERO PUSH2 0x4446 JUMPI DUP2 SLOAD DUP2 DUP10 ADD MSTORE PUSH1 0x1 DUP3 ADD SWAP2 POP PUSH1 0x20 DUP2 ADD SWAP1 POP PUSH2 0x4427 JUMP JUMPDEST DUP4 DUP9 ADD SWAP6 POP POP POP JUMPDEST POP POP POP SWAP3 SWAP2 POP POP JUMP JUMPDEST PUSH0 PUSH2 0x4461 DUP3 PUSH2 0x3504 JUMP JUMPDEST PUSH2 0x446B DUP2 DUP6 PUSH2 0x43CD JUMP JUMPDEST SWAP4 POP PUSH2 0x447B DUP2 DUP6 PUSH1 0x20 DUP7 ADD PUSH2 0x351E JUMP JUMPDEST DUP1 DUP5 ADD SWAP2 POP POP SWAP3 SWAP2 POP POP JUMP JUMPDEST PUSH0 PUSH2 0x4492 DUP3 DUP6 PUSH2 0x43D7 JUMP JUMPDEST SWAP2 POP PUSH2 0x449E DUP3 DUP5 PUSH2 0x4457 JUMP JUMPDEST SWAP2 POP DUP2 SWAP1 POP SWAP4 SWAP3 POP POP POP JUMP JUMPDEST PUSH32 0x5F65676700000000000000000000000000000000000000000000000000000000 PUSH0 DUP3 ADD MSTORE POP JUMP JUMPDEST PUSH0 PUSH2 0x44DE PUSH1 0x4 DUP4 PUSH2 0x43CD JUMP JUMPDEST SWAP2 POP PUSH2 0x44E9 DUP3 PUSH2 0x44AA JUMP JUMPDEST PUSH1 0x4 DUP3 ADD SWAP1 POP SWAP2 SWAP1 POP JUMP JUMPDEST PUSH0 PUSH2 0x44FF DUP3 DUP5 PUSH2 0x43D7 JUMP JUMPDEST SWAP2 POP PUSH2 0x450A DUP3 PUSH2 0x44D2 JUMP JUMPDEST SWAP2 POP DUP2 SWAP1 POP SWAP3 SWAP2 POP POP JUMP JUMPDEST PUSH32 0x5F00000000000000000000000000000000000000000000000000000000000000 PUSH0 DUP3 ADD MSTORE POP JUMP JUMPDEST PUSH0 PUSH2 0x4549 PUSH1 0x1 DUP4 PUSH2 0x43CD JUMP JUMPDEST SWAP2 POP PUSH2 0x4554 DUP3 PUSH2 0x4515 JUMP JUMPDEST PUSH1 0x1 DUP3 ADD SWAP1 POP SWAP2 SWAP1 POP JUMP JUMPDEST PUSH0 PUSH2 0x456A DUP3 DUP8 PUSH2 0x43D7 JUMP JUMPDEST SWAP2 POP PUSH2 0x4575 DUP3 PUSH2 0x453D JUMP JUMPDEST SWAP2 POP PUSH2 0x4581 DUP3 DUP7 PUSH2 0x4457 JUMP JUMPDEST SWAP2 POP PUSH2 0x458C DUP3 PUSH2 0x453D JUMP JUMPDEST SWAP2 POP PUSH2 0x4598 DUP3 DUP6 PUSH2 0x4457 JUMP JUMPDEST SWAP2 POP PUSH2 0x45A3 DUP3 PUSH2 0x453D JUMP JUMPDEST SWAP2 POP PUSH2 0x45AF DUP3 DUP5 PUSH2 0x4457 JUMP JUMPDEST SWAP2 POP DUP2 SWAP1 POP SWAP6 SWAP5 POP POP POP POP POP JUMP JUMPDEST PUSH32 0x646174613A6170706C69636174696F6E2F6A736F6E3B757466382C7B226E616D PUSH0 DUP3 ADD MSTORE PUSH32 0x65223A2022447261676F6E202300000000000000000000000000000000000000 PUSH1 0x20 DUP3 ADD MSTORE POP JUMP JUMPDEST PUSH0 PUSH2 0x4617 PUSH1 0x2D DUP4 PUSH2 0x43CD JUMP JUMPDEST SWAP2 POP PUSH2 0x4622 DUP3 PUSH2 0x45BD JUMP JUMPDEST PUSH1 0x2D DUP3 ADD SWAP1 POP SWAP2 SWAP1 POP JUMP JUMPDEST PUSH32 0x222C2265787465726E616C5F75726C223A2268747470733A2F2F676974687562 PUSH0 DUP3 ADD MSTORE PUSH32 0x2E636F6D2F626368736F6C2F43727970746F447261676F6E222C22696D616765 PUSH1 0x20 DUP3 ADD MSTORE PUSH32 0x223A220000000000000000000000000000000000000000000000000000000000 PUSH1 0x40 DUP3 ADD MSTORE POP JUMP JUMPDEST PUSH0 PUSH2 0x46AD PUSH1 0x43 DUP4 PUSH2 0x43CD JUMP JUMPDEST SWAP2 POP PUSH2 0x46B8 DUP3 PUSH2 0x462D JUMP JUMPDEST PUSH1 0x43 DUP3 ADD SWAP1 POP SWAP2 SWAP1 POP JUMP JUMPDEST PUSH32 0x222C2261747472696275746573223A5B7B2274726169745F74797065223A2244 PUSH0 DUP3 ADD MSTORE PUSH32 0x7261676F6E222C2276616C7565223A2200000000000000000000000000000000 PUSH1 0x20 DUP3 ADD MSTORE POP JUMP JUMPDEST PUSH0 PUSH2 0x471D PUSH1 0x30 DUP4 PUSH2 0x43CD JUMP JUMPDEST SWAP2 POP PUSH2 0x4728 DUP3 PUSH2 0x46C3 JUMP JUMPDEST PUSH1 0x30 DUP3 ADD SWAP1 POP SWAP2 SWAP1 POP JUMP JUMPDEST PUSH32 0x227D5D7D00000000000000000000000000000000000000000000000000000000 PUSH0 DUP3 ADD MSTORE POP JUMP JUMPDEST PUSH0 PUSH2 0x4767 PUSH1 0x4 DUP4 PUSH2 0x43CD JUMP JUMPDEST SWAP2 POP PUSH2 0x4772 DUP3 PUSH2 0x4733 JUMP JUMPDEST PUSH1 0x4 DUP3 ADD SWAP1 POP SWAP2 SWAP1 POP JUMP JUMPDEST PUSH0 PUSH2 0x4787 DUP3 PUSH2 0x460B JUMP JUMPDEST SWAP2 POP PUSH2 0x4793 DUP3 DUP9 PUSH2 0x4457 JUMP JUMPDEST SWAP2 POP PUSH2 0x479E DUP3 PUSH2 0x46A1 JUMP JUMPDEST SWAP2 POP PUSH2 0x47AA DUP3 DUP8 PUSH2 0x43D7 JUMP JUMPDEST SWAP2 POP PUSH2 0x47B6 DUP3 DUP7 PUSH2 0x4457 JUMP JUMPDEST SWAP2 POP PUSH2 0x47C2 DUP3 DUP6 PUSH2 0x43D7 JUMP JUMPDEST SWAP2 POP PUSH2 0x47CD DUP3 PUSH2 0x4711 JUMP JUMPDEST SWAP2 POP PUSH2 0x47D9 DUP3 DUP5 PUSH2 0x43D7 JUMP JUMPDEST SWAP2 POP PUSH2 0x47E4 DUP3 PUSH2 0x475B JUMP JUMPDEST SWAP2 POP DUP2 SWAP1 POP SWAP7 SWAP6 POP POP POP POP POP POP JUMP JUMPDEST PUSH32 0x4861746368000000000000000000000000000000000000000000000000000000 PUSH0 DUP3 ADD MSTORE POP JUMP JUMPDEST PUSH0 PUSH2 0x4827 PUSH1 0x5 DUP4 PUSH2 0x350E JUMP JUMPDEST SWAP2 POP PUSH2 0x4832 DUP3 PUSH2 0x47F3 JUMP JUMPDEST PUSH1 0x20 DUP3 ADD SWAP1 POP SWAP2 SWAP1 POP JUMP JUMPDEST PUSH0 PUSH1 0x20 DUP3 ADD SWAP1 POP DUP2 DUP2 SUB PUSH0 DUP4 ADD MSTORE PUSH2 0x4854 DUP2 PUSH2 0x481B JUMP JUMPDEST SWAP1 POP SWAP2 SWAP1 POP JUMP JUMPDEST PUSH32 0x48617463686C696E670000000000000000000000000000000000000000000000 PUSH0 DUP3 ADD MSTORE POP JUMP JUMPDEST PUSH0 PUSH2 0x488F PUSH1 0x9 DUP4 PUSH2 0x350E JUMP JUMPDEST SWAP2 POP PUSH2 0x489A DUP3 PUSH2 0x485B JUMP JUMPDEST PUSH1 0x20 DUP3 ADD SWAP1 POP SWAP2 SWAP1 POP JUMP JUMPDEST PUSH0 PUSH1 0x20 DUP3 ADD SWAP1 POP DUP2 DUP2 SUB PUSH0 DUP4 ADD MSTORE PUSH2 0x48BC DUP2 PUSH2 0x4883 JUMP JUMPDEST SWAP1 POP SWAP2 SWAP1 POP JUMP JUMPDEST PUSH32 0x4164756C74000000000000000000000000000000000000000000000000000000 PUSH0 DUP3 ADD MSTORE POP JUMP JUMPDEST PUSH0 PUSH2 0x48F7 PUSH1 0x5 DUP4 PUSH2 0x350E JUMP JUMPDEST SWAP2 POP PUSH2 0x4902 DUP3 PUSH2 0x48C3 JUMP JUMPDEST PUSH1 0x20 DUP3 ADD SWAP1 POP SWAP2 SWAP1 POP JUMP JUMPDEST PUSH0 PUSH1 0x20 DUP3 ADD SWAP1 POP DUP2 DUP2 SUB PUSH0 DUP4 ADD MSTORE PUSH2 0x4924 DUP2 PUSH2 0x48EB JUMP JUMPDEST SWAP1 POP SWAP2 SWAP1 POP JUMP JUMPDEST PUSH0 DUP2 SWAP1 POP SWAP2 SWAP1 POP JUMP JUMPDEST PUSH2 0x4945 PUSH2 0x4940 DUP3 PUSH2 0x33F3 JUMP JUMPDEST PUSH2 0x492B JUMP JUMPDEST DUP3 MSTORE POP POP JUMP JUMPDEST PUSH0 DUP2 PUSH1 0x60 SHL SWAP1 POP SWAP2 SWAP1 POP JUMP JUMPDEST PUSH0 PUSH2 0x4961 DUP3 PUSH2 0x494B JUMP JUMPDEST SWAP1 POP SWAP2 SWAP1 POP JUMP JUMPDEST PUSH0 PUSH2 0x4972 DUP3 PUSH2 0x4957 JUMP JUMPDEST SWAP1 POP SWAP2 SWAP1 POP JUMP JUMPDEST PUSH2 0x498A PUSH2 0x4985 DUP3 PUSH2 0x35B3 JUMP JUMPDEST PUSH2 0x4968 JUMP JUMPDEST DUP3 MSTORE POP POP JUMP JUMPDEST PUSH0 PUSH2 0x499B DUP3 DUP7 PUSH2 0x4934 JUMP JUMPDEST PUSH1 0x20 DUP3 ADD SWAP2 POP PUSH2 0x49AB DUP3 DUP6 PUSH2 0x4979 JUMP JUMPDEST PUSH1 0x14 DUP3 ADD SWAP2 POP PUSH2 0x49BB DUP3 DUP5 PUSH2 0x4934 JUMP JUMPDEST PUSH1 0x20 DUP3 ADD SWAP2 POP DUP2 SWAP1 POP SWAP5 SWAP4 POP POP POP POP JUMP JUMPDEST PUSH32 0x4E487B7100000000000000000000000000000000000000000000000000000000 PUSH0 MSTORE PUSH1 0x12 PUSH1 0x4 MSTORE PUSH1 0x24 PUSH0 REVERT JUMPDEST PUSH0 PUSH2 0x4A03 DUP3 PUSH2 0x33F3 JUMP JUMPDEST SWAP2 POP PUSH2 0x4A0E DUP4 PUSH2 0x33F3 JUMP JUMPDEST SWAP3 POP DUP3 PUSH2 0x4A1E JUMPI PUSH2 0x4A1D PUSH2 0x49CC JUMP JUMPDEST JUMPDEST DUP3 DUP3 MOD SWAP1 POP SWAP3 SWAP2 POP POP JUMP JUMPDEST PUSH2 0x4A32 DUP3 PUSH2 0x3504 JUMP JUMPDEST PUSH8 0xFFFFFFFFFFFFFFFF DUP2 GT ISZERO PUSH2 0x4A4B JUMPI PUSH2 0x4A4A PUSH2 0x3AA0 JUMP JUMPDEST JUMPDEST PUSH2 0x4A55 DUP3 SLOAD PUSH2 0x3DE5 JUMP JUMPDEST PUSH2 0x4A60 DUP3 DUP3 DUP6 PUSH2 0x3F33 JUMP JUMPDEST PUSH0 PUSH1 0x20 SWAP1 POP PUSH1 0x1F DUP4 GT PUSH1 0x1 DUP2 EQ PUSH2 0x4A91 JUMPI PUSH0 DUP5 ISZERO PUSH2 0x4A7F JUMPI DUP3 DUP8 ADD MLOAD SWAP1 POP JUMPDEST PUSH2 0x4A89 DUP6 DUP3 PUSH2 0x3FA1 JUMP JUMPDEST DUP7 SSTORE POP PUSH2 0x4AF0 JUMP JUMPDEST PUSH1 0x1F NOT DUP5 AND PUSH2 0x4A9F DUP7 PUSH2 0x3E1F JUMP JUMPDEST PUSH0 JUMPDEST DUP3 DUP2 LT ISZERO PUSH2 0x4AC6 JUMPI DUP5 DUP10 ADD MLOAD DUP3 SSTORE PUSH1 0x1 DUP3 ADD SWAP2 POP PUSH1 0x20 DUP6 ADD SWAP5 POP PUSH1 0x20 DUP2 ADD SWAP1 POP PUSH2 0x4AA1 JUMP JUMPDEST DUP7 DUP4 LT ISZERO PUSH2 0x4AE3 JUMPI DUP5 DUP10 ADD MLOAD PUSH2 0x4ADF PUSH1 0x1F DUP10 AND DUP3 PUSH2 0x3F85 JUMP JUMPDEST DUP4 SSTORE POP JUMPDEST PUSH1 0x1 PUSH1 0x2 DUP9 MUL ADD DUP9 SSTORE POP POP POP JUMPDEST POP POP POP POP POP POP JUMP JUMPDEST PUSH0 DUP2 MLOAD SWAP1 POP SWAP2 SWAP1 POP JUMP JUMPDEST PUSH0 DUP3 DUP3 MSTORE PUSH1 0x20 DUP3 ADD SWAP1 POP SWAP3 SWAP2 POP POP JUMP JUMPDEST PUSH0 PUSH2 0x4B1C DUP3 PUSH2 0x4AF8 JUMP JUMPDEST PUSH2 0x4B26 DUP2 DUP6 PUSH2 0x4B02 JUMP JUMPDEST SWAP4 POP PUSH2 0x4B36 DUP2 DUP6 PUSH1 0x20 DUP7 ADD PUSH2 0x351E JUMP JUMPDEST PUSH2 0x4B3F DUP2 PUSH2 0x352C JUMP JUMPDEST DUP5 ADD SWAP2 POP POP SWAP3 SWAP2 POP POP JUMP JUMPDEST PUSH0 PUSH1 0x80 DUP3 ADD SWAP1 POP PUSH2 0x4B5D PUSH0 DUP4 ADD DUP8 PUSH2 0x35C4 JUMP JUMPDEST PUSH2 0x4B6A PUSH1 0x20 DUP4 ADD DUP7 PUSH2 0x35C4 JUMP JUMPDEST PUSH2 0x4B77 PUSH1 0x40 DUP4 ADD DUP6 PUSH2 0x3802 JUMP JUMPDEST DUP2 DUP2 SUB PUSH1 0x60 DUP4 ADD MSTORE PUSH2 0x4B89 DUP2 DUP5 PUSH2 0x4B12 JUMP JUMPDEST SWAP1 POP SWAP6 SWAP5 POP POP POP POP POP JUMP JUMPDEST PUSH0 DUP2 MLOAD SWAP1 POP PUSH2 0x4BA2 DUP2 PUSH2 0x347C JUMP JUMPDEST SWAP3 SWAP2 POP POP JUMP JUMPDEST PUSH0 PUSH1 0x20 DUP3 DUP5 SUB SLT ISZERO PUSH2 0x4BBD JUMPI PUSH2 0x4BBC PUSH2 0x33EB JUMP JUMPDEST JUMPDEST PUSH0 PUSH2 0x4BCA DUP5 DUP3 DUP6 ADD PUSH2 0x4B94 JUMP JUMPDEST SWAP2 POP POP SWAP3 SWAP2 POP POP JUMP JUMPDEST PUSH0 PUSH1 0x40 DUP3 ADD SWAP1 POP PUSH2 0x4BE6 PUSH0 DUP4 ADD DUP6 PUSH2 0x35C4 JUMP JUMPDEST PUSH2 0x4BF3 PUSH1 0x20 DUP4 ADD DUP5 PUSH2 0x3802 JUMP JUMPDEST SWAP4 SWAP3 POP POP POP JUMP INVALID LOG2 PUSH5 0x6970667358 0x22 SLT KECCAK256 0xDA CREATE 0x26 0x28 0xD3 0xB5 0xBE SWAP16 DUP8 EXTCODECOPY SWAP1 0xEB SDIV 0x22 NOT 0xAE 0xE7 0xDF 0xEE LOG0 0xAC 0x2F PREVRANDAO SWAP1 0x21 0xF6 0xB5 0xB5 STATICCALL TLOAD PUSH17 0x7564736F6C634300081A00330000000000 "
		},
		"gasEstimates": {
			"creation": {
				"codeDepositCost": "3900800",
				"executionCost": "infinite",
				"totalCost": "infinite"
			},
			"external": {
				"approve(address,uint256)": "infinite",
				"balanceOf(address)": "infinite",
				"baseTokenURI()": "infinite",
				"breed(string,uint256,uint256)": "infinite",
				"dataURI()": "infinite",
				"evolve(uint256)": "infinite",
				"feeding(uint256)": "infinite",
				"forceEvolve(uint256)": "infinite",
				"getApproved(uint256)": "infinite",
				"getGrowthInfo(uint256)": "infinite",
				"getToken(uint256)": "infinite",
				"getUserNftIds(address)": "infinite",
				"getbreedData(uint256)": "infinite",
				"isApprovedForAll(address,address)": "infinite",
				"isPremiumOpen(bool)": "infinite",
				"metaDescription()": "infinite",
				"mintCount()": "2537",
				"name()": "infinite",
				"nomalMint(address,string)": "infinite",
				"owner()": "2561",
				"ownerOf(uint256)": "infinite",
				"premiumMint(address,string)": "infinite",
				"premiumMintEnabled()": "2534",
				"renounceOwnership()": "infinite",
				"safeTransferFrom(address,address,uint256)": "infinite",
				"safeTransferFrom(address,address,uint256,bytes)": "infinite",
				"setApprovalForAll(address,bool)": "infinite",
				"setDataURI(string)": "infinite",
				"setImageExtension(string)": "infinite",
				"setMetaDescription(string)": "infinite",
				"setTokenURI(string)": "infinite",
				"supportsInterface(bytes4)": "968",
				"symbol()": "infinite",
				"tokenURI(uint256)": "infinite",
				"transferFrom(address,address,uint256)": "infinite",
				"transferOwnership(address)": "infinite"
			}
		},
		"methodIdentifiers": {
			"approve(address,uint256)": "095ea7b3",
			"balanceOf(address)": "70a08231",
			"baseTokenURI()": "d547cfb7",
			"breed(string,uint256,uint256)": "99683c22",
			"dataURI()": "f28ca1dd",
			"evolve(uint256)": "f119f567",
			"feeding(uint256)": "00e00064",
			"forceEvolve(uint256)": "1bc80eff",
			"getApproved(uint256)": "081812fc",
			"getGrowthInfo(uint256)": "b564ea86",
			"getToken(uint256)": "e4b50cb8",
			"getUserNftIds(address)": "92f2ff80",
			"getbreedData(uint256)": "616c0c48",
			"isApprovedForAll(address,address)": "e985e9c5",
			"isPremiumOpen(bool)": "30adc1cb",
			"metaDescription()": "edeb4bbe",
			"mintCount()": "9659867e",
			"name()": "06fdde03",
			"nomalMint(address,string)": "3ffc0366",
			"owner()": "8da5cb5b",
			"ownerOf(uint256)": "6352211e",
			"premiumMint(address,string)": "72ec6c03",
			"premiumMintEnabled()": "0cf935f7",
			"renounceOwnership()": "715018a6",
			"safeTransferFrom(address,address,uint256)": "42842e0e",
			"safeTransferFrom(address,address,uint256,bytes)": "b88d4fde",
			"setApprovalForAll(address,bool)": "a22cb465",
			"setDataURI(string)": "18d217c3",
			"setImageExtension(string)": "39e3aa7e",
			"setMetaDescription(string)": "bd9ba9e8",
			"setTokenURI(string)": "e0df5b6f",
			"supportsInterface(bytes4)": "01ffc9a7",
			"symbol()": "95d89b41",
			"tokenURI(uint256)": "c87b56dd",
			"transferFrom(address,address,uint256)": "23b872dd",
			"transferOwnership(address)": "f2fde38b"
		}
	},
	"abi": [
		{
			"inputs": [
				{
					"internalType": "address",
					"name": "initialOwner",
					"type": "address"
				},
				{
					"internalType": "string",
					"name": "name",
					"type": "string"
				},
				{
					"internalType": "string",
					"name": "symbol",
					"type": "string"
				}
			],
			"stateMutability": "nonpayable",
			"type": "constructor"
		},
		{
			"inputs": [
				{
					"internalType": "address",
					"name": "sender",
					"type": "address"
				},
				{
					"internalType": "uint256",
					"name": "tokenId",
					"type": "uint256"
				},
				{
					"internalType": "address",
					"name": "owner",
					"type": "address"
				}
			],
			"name": "ERC721IncorrectOwner",
			"type": "error"
		},
		{
			"inputs": [
				{
					"internalType": "address",
					"name": "operator",
					"type": "address"
				},
				{
					"internalType": "uint256",
					"name": "tokenId",
					"type": "uint256"
				}
			],
			"name": "ERC721InsufficientApproval",
			"type": "error"
		},
		{
			"inputs": [
				{
					"internalType": "address",
					"name": "approver",
					"type": "address"
				}
			],
			"name": "ERC721InvalidApprover",
			"type": "error"
		},
		{
			"inputs": [
				{
					"internalType": "address",
					"name": "operator",
					"type": "address"
				}
			],
			"name": "ERC721InvalidOperator",
			"type": "error"
		},
		{
			"inputs": [
				{
					"internalType": "address",
					"name": "owner",
					"type": "address"
				}
			],
			"name": "ERC721InvalidOwner",
			"type": "error"
		},
		{
			"inputs": [
				{
					"internalType": "address",
					"name": "receiver",
					"type": "address"
				}
			],
			"name": "ERC721InvalidReceiver",
			"type": "error"
		},
		{
			"inputs": [
				{
					"internalType": "address",
					"name": "sender",
					"type": "address"
				}
			],
			"name": "ERC721InvalidSender",
			"type": "error"
		},
		{
			"inputs": [
				{
					"internalType": "uint256",
					"name": "tokenId",
					"type": "uint256"
				}
			],
			"name": "ERC721NonexistentToken",
			"type": "error"
		},
		{
			"inputs": [
				{
					"internalType": "address",
					"name": "owner",
					"type": "address"
				}
			],
			"name": "OwnableInvalidOwner",
			"type": "error"
		},
		{
			"inputs": [
				{
					"internalType": "address",
					"name": "account",
					"type": "address"
				}
			],
			"name": "OwnableUnauthorizedAccount",
			"type": "error"
		},
		{
			"anonymous": false,
			"inputs": [
				{
					"indexed": true,
					"internalType": "address",
					"name": "owner",
					"type": "address"
				},
				{
					"indexed": true,
					"internalType": "address",
					"name": "approved",
					"type": "address"
				},
				{
					"indexed": true,
					"internalType": "uint256",
					"name": "tokenId",
					"type": "uint256"
				}
			],
			"name": "Approval",
			"type": "event"
		},
		{
			"anonymous": false,
			"inputs": [
				{
					"indexed": true,
					"internalType": "address",
					"name": "owner",
					"type": "address"
				},
				{
					"indexed": true,
					"internalType": "address",
					"name": "operator",
					"type": "address"
				},
				{
					"indexed": false,
					"internalType": "bool",
					"name": "approved",
					"type": "bool"
				}
			],
			"name": "ApprovalForAll",
			"type": "event"
		},
		{
			"anonymous": false,
			"inputs": [
				{
					"indexed": false,
					"internalType": "uint256",
					"name": "_fromTokenId",
					"type": "uint256"
				},
				{
					"indexed": false,
					"internalType": "uint256",
					"name": "_toTokenId",
					"type": "uint256"
				}
			],
			"name": "BatchMetadataUpdate",
			"type": "event"
		},
		{
			"anonymous": false,
			"inputs": [
				{
					"indexed": false,
					"internalType": "uint256",
					"name": "_tokenId",
					"type": "uint256"
				}
			],
			"name": "MetadataUpdate",
			"type": "event"
		},
		{
			"anonymous": false,
			"inputs": [
				{
					"indexed": true,
					"internalType": "address",
					"name": "previousOwner",
					"type": "address"
				},
				{
					"indexed": true,
					"internalType": "address",
					"name": "newOwner",
					"type": "address"
				}
			],
			"name": "OwnershipTransferred",
			"type": "event"
		},
		{
			"anonymous": false,
			"inputs": [
				{
					"indexed": true,
					"internalType": "uint256",
					"name": "husbandId",
					"type": "uint256"
				},
				{
					"indexed": true,
					"internalType": "uint256",
					"name": "wifeId",
					"type": "uint256"
				},
				{
					"indexed": true,
					"internalType": "uint256",
					"name": "childId",
					"type": "uint256"
				}
			],
			"name": "TokenBreed",
			"type": "event"
		},
		{
			"anonymous": false,
			"inputs": [
				{
					"indexed": true,
					"internalType": "uint256",
					"name": "tokenId",
					"type": "uint256"
				},
				{
					"indexed": false,
					"internalType": "string",
					"name": "newStage",
					"type": "string"
				}
			],
			"name": "TokenEvolved",
			"type": "event"
		},
		{
			"anonymous": false,
			"inputs": [
				{
					"indexed": true,
					"internalType": "uint256",
					"name": "tokenId",
					"type": "uint256"
				},
				{
					"indexed": true,
					"internalType": "uint256",
					"name": "newTime",
					"type": "uint256"
				}
			],
			"name": "TokenFeed",
			"type": "event"
		},
		{
			"anonymous": false,
			"inputs": [
				{
					"indexed": true,
					"internalType": "address",
					"name": "owner",
					"type": "address"
				},
				{
					"indexed": true,
					"internalType": "uint256",
					"name": "tokenId",
					"type": "uint256"
				}
			],
			"name": "TokenMinted",
			"type": "event"
		},
		{
			"anonymous": false,
			"inputs": [
				{
					"indexed": true,
					"internalType": "address",
					"name": "from",
					"type": "address"
				},
				{
					"indexed": true,
					"internalType": "address",
					"name": "to",
					"type": "address"
				},
				{
					"indexed": true,
					"internalType": "uint256",
					"name": "tokenId",
					"type": "uint256"
				}
			],
			"name": "Transfer",
			"type": "event"
		},
		{
			"inputs": [
				{
					"internalType": "address",
					"name": "to",
					"type": "address"
				},
				{
					"internalType": "uint256",
					"name": "tokenId",
					"type": "uint256"
				}
			],
			"name": "approve",
			"outputs": [],
			"stateMutability": "nonpayable",
			"type": "function"
		},
		{
			"inputs": [
				{
					"internalType": "address",
					"name": "owner",
					"type": "address"
				}
			],
			"name": "balanceOf",
			"outputs": [
				{
					"internalType": "uint256",
					"name": "",
					"type": "uint256"
				}
			],
			"stateMutability": "view",
			"type": "function"
		},
		{
			"inputs": [],
			"name": "baseTokenURI",
			"outputs": [
				{
					"internalType": "string",
					"name": "",
					"type": "string"
				}
			],
			"stateMutability": "view",
			"type": "function"
		},
		{
			"inputs": [
				{
					"internalType": "string",
					"name": "tokenType",
					"type": "string"
				},
				{
					"internalType": "uint256",
					"name": "husbandId",
					"type": "uint256"
				},
				{
					"internalType": "uint256",
					"name": "wifeId",
					"type": "uint256"
				}
			],
			"name": "breed",
			"outputs": [
				{
					"internalType": "uint256",
					"name": "",
					"type": "uint256"
				}
			],
			"stateMutability": "nonpayable",
			"type": "function"
		},
		{
			"inputs": [],
			"name": "dataURI",
			"outputs": [
				{
					"internalType": "string",
					"name": "",
					"type": "string"
				}
			],
			"stateMutability": "view",
			"type": "function"
		},
		{
			"inputs": [
				{
					"internalType": "uint256",
					"name": "tokenId",
					"type": "uint256"
				}
			],
			"name": "evolve",
			"outputs": [],
			"stateMutability": "nonpayable",
			"type": "function"
		},
		{
			"inputs": [
				{
					"internalType": "uint256",
					"name": "tokenId",
					"type": "uint256"
				}
			],
			"name": "feeding",
			"outputs": [],
			"stateMutability": "nonpayable",
			"type": "function"
		},
		{
			"inputs": [
				{
					"internalType": "uint256",
					"name": "tokenId",
					"type": "uint256"
				}
			],
			"name": "forceEvolve",
			"outputs": [],
			"stateMutability": "nonpayable",
			"type": "function"
		},
		{
			"inputs": [
				{
					"internalType": "uint256",
					"name": "tokenId",
					"type": "uint256"
				}
			],
			"name": "getApproved",
			"outputs": [
				{
					"internalType": "address",
					"name": "",
					"type": "address"
				}
			],
			"stateMutability": "view",
			"type": "function"
		},
		{
			"inputs": [
				{
					"internalType": "uint256",
					"name": "tokenId",
					"type": "uint256"
				}
			],
			"name": "getGrowthInfo",
			"outputs": [
				{
					"internalType": "enum TokenBase.GrowthStage",
					"name": "currentStage",
					"type": "uint8"
				},
				{
					"internalType": "uint256",
					"name": "timeRemaining",
					"type": "uint256"
				}
			],
			"stateMutability": "view",
			"type": "function"
		},
		{
			"inputs": [
				{
					"internalType": "uint256",
					"name": "id",
					"type": "uint256"
				}
			],
			"name": "getToken",
			"outputs": [
				{
					"internalType": "uint256",
					"name": "gender",
					"type": "uint256"
				},
				{
					"internalType": "uint256",
					"name": "husbandId",
					"type": "uint256"
				},
				{
					"internalType": "uint256",
					"name": "wifeId",
					"type": "uint256"
				},
				{
					"internalType": "uint256",
					"name": "generation",
					"type": "uint256"
				},
				{
					"internalType": "uint256",
					"name": "birth",
					"type": "uint256"
				},
				{
					"internalType": "string",
					"name": "tokenType",
					"type": "string"
				}
			],
			"stateMutability": "view",
			"type": "function"
		},
		{
			"inputs": [
				{
					"internalType": "address",
					"name": "user",
					"type": "address"
				}
			],
			"name": "getUserNftIds",
			"outputs": [
				{
					"internalType": "uint256[]",
					"name": "",
					"type": "uint256[]"
				}
			],
			"stateMutability": "view",
			"type": "function"
		},
		{
			"inputs": [
				{
					"internalType": "uint256",
					"name": "tokenId",
					"type": "uint256"
				}
			],
			"name": "getbreedData",
			"outputs": [
				{
					"internalType": "uint256",
					"name": "releaseTime",
					"type": "uint256"
				},
				{
					"internalType": "uint256",
					"name": "count",
					"type": "uint256"
				}
			],
			"stateMutability": "view",
			"type": "function"
		},
		{
			"inputs": [
				{
					"internalType": "address",
					"name": "owner",
					"type": "address"
				},
				{
					"internalType": "address",
					"name": "operator",
					"type": "address"
				}
			],
			"name": "isApprovedForAll",
			"outputs": [
				{
					"internalType": "bool",
					"name": "",
					"type": "bool"
				}
			],
			"stateMutability": "view",
			"type": "function"
		},
		{
			"inputs": [
				{
					"internalType": "bool",
					"name": "isEnabled",
					"type": "bool"
				}
			],
			"name": "isPremiumOpen",
			"outputs": [],
			"stateMutability": "nonpayable",
			"type": "function"
		},
		{
			"inputs": [],
			"name": "metaDescription",
			"outputs": [
				{
					"internalType": "string",
					"name": "",
					"type": "string"
				}
			],
			"stateMutability": "view",
			"type": "function"
		},
		{
			"inputs": [],
			"name": "mintCount",
			"outputs": [
				{
					"internalType": "uint256",
					"name": "",
					"type": "uint256"
				}
			],
			"stateMutability": "view",
			"type": "function"
		},
		{
			"inputs": [],
			"name": "name",
			"outputs": [
				{
					"internalType": "string",
					"name": "",
					"type": "string"
				}
			],
			"stateMutability": "view",
			"type": "function"
		},
		{
			"inputs": [
				{
					"internalType": "address",
					"name": "owner",
					"type": "address"
				},
				{
					"internalType": "string",
					"name": "tokenType",
					"type": "string"
				}
			],
			"name": "nomalMint",
			"outputs": [],
			"stateMutability": "nonpayable",
			"type": "function"
		},
		{
			"inputs": [],
			"name": "owner",
			"outputs": [
				{
					"internalType": "address",
					"name": "",
					"type": "address"
				}
			],
			"stateMutability": "view",
			"type": "function"
		},
		{
			"inputs": [
				{
					"internalType": "uint256",
					"name": "tokenId",
					"type": "uint256"
				}
			],
			"name": "ownerOf",
			"outputs": [
				{
					"internalType": "address",
					"name": "",
					"type": "address"
				}
			],
			"stateMutability": "view",
			"type": "function"
		},
		{
			"inputs": [
				{
					"internalType": "address",
					"name": "owner",
					"type": "address"
				},
				{
					"internalType": "string",
					"name": "tokenType",
					"type": "string"
				}
			],
			"name": "premiumMint",
			"outputs": [],
			"stateMutability": "nonpayable",
			"type": "function"
		},
		{
			"inputs": [],
			"name": "premiumMintEnabled",
			"outputs": [
				{
					"internalType": "bool",
					"name": "",
					"type": "bool"
				}
			],
			"stateMutability": "view",
			"type": "function"
		},
		{
			"inputs": [],
			"name": "renounceOwnership",
			"outputs": [],
			"stateMutability": "nonpayable",
			"type": "function"
		},
		{
			"inputs": [
				{
					"internalType": "address",
					"name": "from",
					"type": "address"
				},
				{
					"internalType": "address",
					"name": "to",
					"type": "address"
				},
				{
					"internalType": "uint256",
					"name": "tokenId",
					"type": "uint256"
				}
			],
			"name": "safeTransferFrom",
			"outputs": [],
			"stateMutability": "nonpayable",
			"type": "function"
		},
		{
			"inputs": [
				{
					"internalType": "address",
					"name": "from",
					"type": "address"
				},
				{
					"internalType": "address",
					"name": "to",
					"type": "address"
				},
				{
					"internalType": "uint256",
					"name": "tokenId",
					"type": "uint256"
				},
				{
					"internalType": "bytes",
					"name": "data",
					"type": "bytes"
				}
			],
			"name": "safeTransferFrom",
			"outputs": [],
			"stateMutability": "nonpayable",
			"type": "function"
		},
		{
			"inputs": [
				{
					"internalType": "address",
					"name": "operator",
					"type": "address"
				},
				{
					"internalType": "bool",
					"name": "approved",
					"type": "bool"
				}
			],
			"name": "setApprovalForAll",
			"outputs": [],
			"stateMutability": "nonpayable",
			"type": "function"
		},
		{
			"inputs": [
				{
					"internalType": "string",
					"name": "_dataURI",
					"type": "string"
				}
			],
			"name": "setDataURI",
			"outputs": [],
			"stateMutability": "nonpayable",
			"type": "function"
		},
		{
			"inputs": [
				{
					"internalType": "string",
					"name": "_imgEx",
					"type": "string"
				}
			],
			"name": "setImageExtension",
			"outputs": [],
			"stateMutability": "nonpayable",
			"type": "function"
		},
		{
			"inputs": [
				{
					"internalType": "string",
					"name": "_metaDec",
					"type": "string"
				}
			],
			"name": "setMetaDescription",
			"outputs": [],
			"stateMutability": "nonpayable",
			"type": "function"
		},
		{
			"inputs": [
				{
					"internalType": "string",
					"name": "_tokenURI",
					"type": "string"
				}
			],
			"name": "setTokenURI",
			"outputs": [],
			"stateMutability": "nonpayable",
			"type": "function"
		},
		{
			"inputs": [
				{
					"internalType": "bytes4",
					"name": "interfaceId",
					"type": "bytes4"
				}
			],
			"name": "supportsInterface",
			"outputs": [
				{
					"internalType": "bool",
					"name": "",
					"type": "bool"
				}
			],
			"stateMutability": "view",
			"type": "function"
		},
		{
			"inputs": [],
			"name": "symbol",
			"outputs": [
				{
					"internalType": "string",
					"name": "",
					"type": "string"
				}
			],
			"stateMutability": "view",
			"type": "function"
		},
		{
			"inputs": [
				{
					"internalType": "uint256",
					"name": "tokenId",
					"type": "uint256"
				}
			],
			"name": "tokenURI",
			"outputs": [
				{
					"internalType": "string",
					"name": "",
					"type": "string"
				}
			],
			"stateMutability": "view",
			"type": "function"
		},
		{
			"inputs": [
				{
					"internalType": "address",
					"name": "from",
					"type": "address"
				},
				{
					"internalType": "address",
					"name": "to",
					"type": "address"
				},
				{
					"internalType": "uint256",
					"name": "tokenId",
					"type": "uint256"
				}
			],
			"name": "transferFrom",
			"outputs": [],
			"stateMutability": "nonpayable",
			"type": "function"
		},
		{
			"inputs": [
				{
					"internalType": "address",
					"name": "newOwner",
					"type": "address"
				}
			],
			"name": "transferOwnership",
			"outputs": [],
			"stateMutability": "nonpayable",
			"type": "function"
		}
	]
}