{
  "contractName": "Test",
  "abi": [
    {
      "inputs": [],
      "name": "countPlus",
      "outputs": [],
      "stateMutability": "nonpayable",
      "type": "function"
    },
    {
      "inputs": [],
      "name": "countMinus",
      "outputs": [],
      "stateMutability": "nonpayable",
      "type": "function"
    },
    {
      "inputs": [],
      "name": "countView",
      "outputs": [
        {
          "internalType": "uint256",
          "name": "",
          "type": "uint256"
        }
      ],
      "stateMutability": "view",
      "type": "function"
    }
  ],
  "bytecode": "0x608060405234801561000f575f80fd5b506101af8061001d5f395ff3fe608060405234801561000f575f80fd5b506004361061003f575f3560e01c80631dffe4a714610043578063203fbae21461004d5780639fbe63d51461006b575b5f80fd5b61004b610075565b005b61005561008d565b60405161006291906100c5565b60405180910390f35b610073610095565b005b5f808154809291906100869061010b565b9190505550565b5f8054905090565b5f808154809291906100a690610132565b9190505550565b5f819050919050565b6100bf816100ad565b82525050565b5f6020820190506100d85f8301846100b6565b92915050565b7f4e487b71000000000000000000000000000000000000000000000000000000005f52601160045260245ffd5b5f610115826100ad565b91505f8203610127576101266100de565b5b600182039050919050565b5f61013c826100ad565b91507fffffffffffffffffffffffffffffffffffffffffffffffffffffffffffffffff820361016e5761016d6100de565b5b60018201905091905056fea26469706673582212202770a2b52b2570fa1d00b245bb67276b517b27f93ee280c4f09795daf70c1b1d64736f6c63430008140033",
  "immutableReferences": {},
  "source": "// SPDX-License-Identifier: MIT\r\npragma solidity ^0.8.20;\r\n\r\ncontract Test {\r\n    uint count;\r\n    function countPlus() public {\r\n        count++;\r\n    }\r\n\r\n    function countMinus() public {\r\n        count--;\r\n    }\r\n    function countView() public view returns(uint256){\r\n        return count;\r\n    }\r\n}",
  "sourcePath": "D:\\git\\dragon\\contracts\\Test.sol",
  "compiler": {
    "name": "solc",
    "version": "0.8.20+commit.a1b79de6.Emscripten.clang"
  },
  "schemaVersion": "3.4.14",
  "updatedAt": "2024-05-13T14:43:38.740Z",
  "devdoc": {
    "kind": "dev",
    "methods": {},
    "version": 1
  },
  "userdoc": {
    "kind": "user",
    "methods": {},
    "version": 1
  }
}